{"abi":[{"type":"constructor","inputs":[{"name":"_marketcreator","type":"address","internalType":"address"},{"name":"_marketconfig","type":"uint256","internalType":"uint256"}],"stateMutability":"nonpayable"},{"type":"function","name":"DOMAIN_SEPARATOR","inputs":[],"outputs":[{"name":"","type":"bytes32","internalType":"bytes32"}],"stateMutability":"view"},{"type":"function","name":"addbanlist","inputs":[{"name":"_user","type":"address","internalType":"address"}],"outputs":[{"name":"","type":"bool","internalType":"bool"}],"stateMutability":"nonpayable"},{"type":"function","name":"approve","inputs":[{"name":"to","type":"address","internalType":"address"},{"name":"tokenId","type":"uint256","internalType":"uint256"}],"outputs":[],"stateMutability":"nonpayable"},{"type":"function","name":"balanceOf","inputs":[{"name":"owner","type":"address","internalType":"address"}],"outputs":[{"name":"","type":"uint256","internalType":"uint256"}],"stateMutability":"view"},{"type":"function","name":"banlist","inputs":[{"name":"","type":"address","internalType":"address"}],"outputs":[{"name":"","type":"uint256","internalType":"uint256"}],"stateMutability":"view"},{"type":"function","name":"buyGood","inputs":[{"name":"_goodid1","type":"uint256","internalType":"uint256"},{"name":"_goodid2","type":"uint256","internalType":"uint256"},{"name":"_swapQuantity","type":"uint128","internalType":"uint128"},{"name":"_limitPrice","type":"uint256","internalType":"T_BalanceUINT256"},{"name":"_istotal","type":"bool","internalType":"bool"}],"outputs":[{"name":"goodid2Quantity_","type":"uint128","internalType":"uint128"},{"name":"goodid2FeeQuantity_","type":"uint128","internalType":"uint128"}],"stateMutability":"payable"},{"type":"function","name":"buyGoodForPay","inputs":[{"name":"_goodid1","type":"uint256","internalType":"uint256"},{"name":"_goodid2","type":"uint256","internalType":"uint256"},{"name":"_swapQuantity","type":"uint128","internalType":"uint128"},{"name":"_limitPrice","type":"uint256","internalType":"T_BalanceUINT256"},{"name":"_recipent","type":"address","internalType":"address"}],"outputs":[{"name":"goodid1Quantity_","type":"uint128","internalType":"uint128"},{"name":"goodid1FeeQuantity_","type":"uint128","internalType":"uint128"}],"stateMutability":"payable"},{"type":"function","name":"changeGoodOwner","inputs":[{"name":"_goodid","type":"uint256","internalType":"uint256"},{"name":"_to","type":"address","internalType":"address"}],"outputs":[{"name":"","type":"bool","internalType":"bool"}],"stateMutability":"nonpayable"},{"type":"function","name":"collectProof","inputs":[{"name":"_proofid","type":"uint256","internalType":"uint256"},{"name":"_gater","type":"address","internalType":"address"},{"name":"_referal","type":"address","internalType":"address"}],"outputs":[{"name":"profit_","type":"uint256","internalType":"T_BalanceUINT256"}],"stateMutability":"nonpayable"},{"type":"function","name":"collectProtocolFee","inputs":[{"name":"_goodid","type":"uint256","internalType":"uint256"}],"outputs":[{"name":"feeamount","type":"uint256","internalType":"uint256"}],"stateMutability":"nonpayable"},{"type":"function","name":"disinvestProof","inputs":[{"name":"_proofid","type":"uint256","internalType":"uint256"},{"name":"_goodQuantity","type":"uint128","internalType":"uint128"},{"name":"_gater","type":"address","internalType":"address"},{"name":"_referal","type":"address","internalType":"address"}],"outputs":[{"name":"","type":"bool","internalType":"bool"}],"stateMutability":"nonpayable"},{"type":"function","name":"eip712Domain","inputs":[],"outputs":[{"name":"fields","type":"bytes1","internalType":"bytes1"},{"name":"name","type":"string","internalType":"string"},{"name":"version","type":"string","internalType":"string"},{"name":"chainId","type":"uint256","internalType":"uint256"},{"name":"verifyingContract","type":"address","internalType":"address"},{"name":"salt","type":"bytes32","internalType":"bytes32"},{"name":"extensions","type":"uint256[]","internalType":"uint256[]"}],"stateMutability":"view"},{"type":"function","name":"enpower","inputs":[{"name":"goodid","type":"uint256","internalType":"uint256"},{"name":"valuegood","type":"uint256","internalType":"uint256"},{"name":"quantity","type":"uint128","internalType":"uint128"}],"outputs":[{"name":"","type":"bool","internalType":"bool"}],"stateMutability":"payable"},{"type":"function","name":"getApproved","inputs":[{"name":"tokenId","type":"uint256","internalType":"uint256"}],"outputs":[{"name":"","type":"address","internalType":"address"}],"stateMutability":"view"},{"type":"function","name":"getGoodState","inputs":[{"name":"goodkey","type":"uint256","internalType":"uint256"}],"outputs":[{"name":"gooddetail","type":"tuple","internalType":"struct L_Good.S_GoodTmpState","components":[{"name":"goodConfig","type":"uint256","internalType":"uint256"},{"name":"owner","type":"address","internalType":"address"},{"name":"erc20address","type":"address","internalType":"address"},{"name":"currentState","type":"uint256","internalType":"T_BalanceUINT256"},{"name":"investState","type":"uint256","internalType":"T_BalanceUINT256"},{"name":"feeQunitityState","type":"uint256","internalType":"T_BalanceUINT256"}]}],"stateMutability":"view"},{"type":"function","name":"getProofState","inputs":[{"name":"proofid","type":"uint256","internalType":"uint256"}],"outputs":[{"name":"_proof","type":"tuple","internalType":"struct L_Proof.S_ProofState","components":[{"name":"currentgood","type":"uint256","internalType":"uint256"},{"name":"valuegood","type":"uint256","internalType":"uint256"},{"name":"state","type":"uint256","internalType":"T_BalanceUINT256"},{"name":"invest","type":"uint256","internalType":"T_BalanceUINT256"},{"name":"valueinvest","type":"uint256","internalType":"T_BalanceUINT256"},{"name":"beneficiary","type":"address","internalType":"address"}]}],"stateMutability":"view"},{"type":"function","name":"getState","inputs":[{"name":"goodid","type":"uint256","internalType":"uint256"},{"name":"valuegood","type":"uint256","internalType":"uint256"}],"outputs":[{"name":"","type":"uint256","internalType":"T_BalanceUINT256"},{"name":"","type":"uint256","internalType":"T_BalanceUINT256"}],"stateMutability":"view"},{"type":"function","name":"goodNum","inputs":[],"outputs":[{"name":"","type":"uint256","internalType":"uint256"}],"stateMutability":"view"},{"type":"function","name":"goodWelfare","inputs":[{"name":"goodid","type":"uint256","internalType":"uint256"},{"name":"welfare","type":"uint128","internalType":"uint128"}],"outputs":[],"stateMutability":"payable"},{"type":"function","name":"initGood","inputs":[{"name":"_valuegood","type":"uint256","internalType":"uint256"},{"name":"_initial","type":"uint256","internalType":"T_BalanceUINT256"},{"name":"_erc20address","type":"address","internalType":"address"},{"name":"_goodConfig","type":"uint256","internalType":"uint256"}],"outputs":[{"name":"","type":"bool","internalType":"bool"}],"stateMutability":"payable"},{"type":"function","name":"initMetaGood","inputs":[{"name":"_erc20address","type":"address","internalType":"address"},{"name":"_initial","type":"uint256","internalType":"T_BalanceUINT256"},{"name":"_goodConfig","type":"uint256","internalType":"uint256"}],"outputs":[{"name":"","type":"bool","internalType":"bool"}],"stateMutability":"payable"},{"type":"function","name":"investGood","inputs":[{"name":"_togood","type":"uint256","internalType":"uint256"},{"name":"_valuegood","type":"uint256","internalType":"uint256"},{"name":"_quantity","type":"uint128","internalType":"uint128"}],"outputs":[{"name":"","type":"bool","internalType":"bool"}],"stateMutability":"payable"},{"type":"function","name":"isApprovedForAll","inputs":[{"name":"owner","type":"address","internalType":"address"},{"name":"operator","type":"address","internalType":"address"}],"outputs":[{"name":"","type":"bool","internalType":"bool"}],"stateMutability":"view"},{"type":"function","name":"marketconfig","inputs":[],"outputs":[{"name":"","type":"uint256","internalType":"uint256"}],"stateMutability":"view"},{"type":"function","name":"marketcreator","inputs":[],"outputs":[{"name":"","type":"address","internalType":"address"}],"stateMutability":"view"},{"type":"function","name":"modifyGoodConfig","inputs":[{"name":"_goodid","type":"uint256","internalType":"uint256"},{"name":"_goodConfig","type":"uint256","internalType":"uint256"}],"outputs":[{"name":"","type":"bool","internalType":"bool"}],"stateMutability":"nonpayable"},{"type":"function","name":"multicall","inputs":[{"name":"data","type":"bytes[]","internalType":"bytes[]"}],"outputs":[{"name":"results","type":"bytes[]","internalType":"bytes[]"}],"stateMutability":"payable"},{"type":"function","name":"name","inputs":[],"outputs":[{"name":"","type":"string","internalType":"string"}],"stateMutability":"view"},{"type":"function","name":"nonces","inputs":[{"name":"tokenId","type":"uint256","internalType":"uint256"}],"outputs":[{"name":"","type":"uint256","internalType":"uint256"}],"stateMutability":"view"},{"type":"function","name":"ownerOf","inputs":[{"name":"tokenId","type":"uint256","internalType":"uint256"}],"outputs":[{"name":"","type":"address","internalType":"address"}],"stateMutability":"view"},{"type":"function","name":"payGood","inputs":[{"name":"_goodid","type":"uint256","internalType":"uint256"},{"name":"_payquanity","type":"uint256","internalType":"uint256"},{"name":"_recipent","type":"address","internalType":"address"}],"outputs":[{"name":"","type":"bool","internalType":"bool"}],"stateMutability":"payable"},{"type":"function","name":"permit","inputs":[{"name":"spender","type":"address","internalType":"address"},{"name":"tokenId","type":"uint256","internalType":"uint256"},{"name":"deadline","type":"uint256","internalType":"uint256"},{"name":"signature","type":"bytes","internalType":"bytes"}],"outputs":[],"stateMutability":"nonpayable"},{"type":"function","name":"proofmapping","inputs":[{"name":"","type":"uint256","internalType":"uint256"}],"outputs":[{"name":"","type":"uint256","internalType":"uint256"}],"stateMutability":"view"},{"type":"function","name":"referals","inputs":[{"name":"","type":"address","internalType":"address"}],"outputs":[{"name":"","type":"address","internalType":"address"}],"stateMutability":"view"},{"type":"function","name":"removebanlist","inputs":[{"name":"_user","type":"address","internalType":"address"}],"outputs":[{"name":"","type":"bool","internalType":"bool"}],"stateMutability":"nonpayable"},{"type":"function","name":"safeTransferFrom","inputs":[{"name":"from","type":"address","internalType":"address"},{"name":"to","type":"address","internalType":"address"},{"name":"tokenId","type":"uint256","internalType":"uint256"}],"outputs":[],"stateMutability":"nonpayable"},{"type":"function","name":"safeTransferFrom","inputs":[{"name":"from","type":"address","internalType":"address"},{"name":"to","type":"address","internalType":"address"},{"name":"proofid","type":"uint256","internalType":"uint256"},{"name":"data","type":"bytes","internalType":"bytes"}],"outputs":[],"stateMutability":"nonpayable"},{"type":"function","name":"safeTransferFromWithPermit","inputs":[{"name":"from","type":"address","internalType":"address"},{"name":"to","type":"address","internalType":"address"},{"name":"tokenId","type":"uint256","internalType":"uint256"},{"name":"_data","type":"bytes","internalType":"bytes"},{"name":"deadline","type":"uint256","internalType":"uint256"},{"name":"signature","type":"bytes","internalType":"bytes"}],"outputs":[],"stateMutability":"nonpayable"},{"type":"function","name":"setApprovalForAll","inputs":[{"name":"operator","type":"address","internalType":"address"},{"name":"approved","type":"bool","internalType":"bool"}],"outputs":[],"stateMutability":"nonpayable"},{"type":"function","name":"setMarketConfig","inputs":[{"name":"_marketconfig","type":"uint256","internalType":"uint256"}],"outputs":[{"name":"","type":"bool","internalType":"bool"}],"stateMutability":"nonpayable"},{"type":"function","name":"supportsInterface","inputs":[{"name":"interfaceId","type":"bytes4","internalType":"bytes4"}],"outputs":[{"name":"","type":"bool","internalType":"bool"}],"stateMutability":"view"},{"type":"function","name":"symbol","inputs":[],"outputs":[{"name":"","type":"string","internalType":"string"}],"stateMutability":"view"},{"type":"function","name":"tokenURI","inputs":[{"name":"tokenId","type":"uint256","internalType":"uint256"}],"outputs":[{"name":"","type":"string","internalType":"string"}],"stateMutability":"view"},{"type":"function","name":"totalSupply","inputs":[],"outputs":[{"name":"","type":"uint256","internalType":"uint256"}],"stateMutability":"view"},{"type":"function","name":"transferFrom","inputs":[{"name":"from","type":"address","internalType":"address"},{"name":"to","type":"address","internalType":"address"},{"name":"proofid","type":"uint256","internalType":"uint256"}],"outputs":[],"stateMutability":"nonpayable"},{"type":"function","name":"updateGoodConfig","inputs":[{"name":"_goodid","type":"uint256","internalType":"uint256"},{"name":"_goodConfig","type":"uint256","internalType":"uint256"}],"outputs":[{"name":"","type":"bool","internalType":"bool"}],"stateMutability":"nonpayable"},{"type":"event","name":"Approval","inputs":[{"name":"owner","type":"address","indexed":true,"internalType":"address"},{"name":"approved","type":"address","indexed":true,"internalType":"address"},{"name":"tokenId","type":"uint256","indexed":true,"internalType":"uint256"}],"anonymous":false},{"type":"event","name":"ApprovalForAll","inputs":[{"name":"owner","type":"address","indexed":true,"internalType":"address"},{"name":"operator","type":"address","indexed":true,"internalType":"address"},{"name":"approved","type":"bool","indexed":false,"internalType":"bool"}],"anonymous":false},{"type":"event","name":"EIP712DomainChanged","inputs":[],"anonymous":false},{"type":"event","name":"Transfer","inputs":[{"name":"from","type":"address","indexed":true,"internalType":"address"},{"name":"to","type":"address","indexed":true,"internalType":"address"},{"name":"tokenId","type":"uint256","indexed":true,"internalType":"uint256"}],"anonymous":false},{"type":"event","name":"e_addbanlist","inputs":[{"name":"_user","type":"address","indexed":false,"internalType":"address"}],"anonymous":false},{"type":"event","name":"e_addreferal","inputs":[{"name":"referals","type":"address","indexed":false,"internalType":"address"}],"anonymous":false},{"type":"event","name":"e_buyGood","inputs":[{"name":"sellgood","type":"uint256","indexed":true,"internalType":"uint256"},{"name":"forgood","type":"uint256","indexed":true,"internalType":"uint256"},{"name":"fromer","type":"address","indexed":false,"internalType":"address"},{"name":"swapvalue","type":"uint128","indexed":false,"internalType":"uint128"},{"name":"sellgoodstate","type":"uint256","indexed":false,"internalType":"T_BalanceUINT256"},{"name":"forgoodstate","type":"uint256","indexed":false,"internalType":"T_BalanceUINT256"}],"anonymous":false},{"type":"event","name":"e_buyGoodForPay","inputs":[{"name":"buygood","type":"uint256","indexed":true,"internalType":"uint256"},{"name":"usegood","type":"uint256","indexed":true,"internalType":"uint256"},{"name":"fromer","type":"address","indexed":false,"internalType":"address"},{"name":"receipt","type":"address","indexed":false,"internalType":"address"},{"name":"swapvalue","type":"uint128","indexed":false,"internalType":"uint128"},{"name":"buygoodstate","type":"uint256","indexed":false,"internalType":"T_BalanceUINT256"},{"name":"usegoodstate","type":"uint256","indexed":false,"internalType":"T_BalanceUINT256"}],"anonymous":false},{"type":"event","name":"e_changeOwner","inputs":[{"name":"_goodid","type":"uint256","indexed":true,"internalType":"uint256"},{"name":"_owner","type":"address","indexed":false,"internalType":"address"},{"name":"_to","type":"address","indexed":false,"internalType":"address"}],"anonymous":false},{"type":"event","name":"e_collectProof","inputs":[{"name":"_proofNo","type":"uint256","indexed":true,"internalType":"uint256"},{"name":"_normalGoodNo","type":"uint256","indexed":false,"internalType":"uint256"},{"name":"_valueGoodNo","type":"uint256","indexed":false,"internalType":"uint256"},{"name":"_profit","type":"uint256","indexed":false,"internalType":"T_BalanceUINT256"}],"anonymous":false},{"type":"event","name":"e_collectProtocolFee","inputs":[{"name":"goodid","type":"uint256","indexed":false,"internalType":"uint256"},{"name":"feeamount","type":"uint256","indexed":false,"internalType":"uint256"}],"anonymous":false},{"type":"event","name":"e_disinvestProof","inputs":[{"name":"_proofNo","type":"uint256","indexed":true,"internalType":"uint256"},{"name":"_normalGoodNo","type":"uint256","indexed":false,"internalType":"uint256"},{"name":"_valueGoodNo","type":"uint256","indexed":false,"internalType":"uint256"},{"name":"_value","type":"uint128","indexed":false,"internalType":"uint128"},{"name":"_normalgood","type":"uint256","indexed":false,"internalType":"T_BalanceUINT256"},{"name":"_valuegood","type":"uint256","indexed":false,"internalType":"T_BalanceUINT256"},{"name":"_profit","type":"uint256","indexed":false,"internalType":"T_BalanceUINT256"}],"anonymous":false},{"type":"event","name":"e_enpower","inputs":[{"name":"_goodid","type":"uint256","indexed":false,"internalType":"uint256"},{"name":"_valuegood","type":"uint256","indexed":false,"internalType":"uint256"},{"name":"_quantity","type":"uint256","indexed":false,"internalType":"uint256"}],"anonymous":false},{"type":"event","name":"e_goodWelfare","inputs":[{"name":"goodid","type":"uint256","indexed":false,"internalType":"uint256"},{"name":"welfare","type":"uint128","indexed":false,"internalType":"uint128"}],"anonymous":false},{"type":"event","name":"e_initGood","inputs":[{"name":"_proofNo","type":"uint256","indexed":true,"internalType":"uint256"},{"name":"_normalgoodNo","type":"uint256","indexed":false,"internalType":"uint256"},{"name":"_valuegoodNo","type":"uint256","indexed":false,"internalType":"uint256"},{"name":"_erc20address","type":"address","indexed":false,"internalType":"address"},{"name":"_goodConfig","type":"uint256","indexed":false,"internalType":"uint256"},{"name":"_normalinitial","type":"uint256","indexed":false,"internalType":"T_BalanceUINT256"},{"name":"_value","type":"uint256","indexed":false,"internalType":"T_BalanceUINT256"}],"anonymous":false},{"type":"event","name":"e_initMetaGood","inputs":[{"name":"_proofNo","type":"uint256","indexed":true,"internalType":"uint256"},{"name":"_goodNo","type":"uint256","indexed":false,"internalType":"uint256"},{"name":"_erc20address","type":"address","indexed":false,"internalType":"address"},{"name":"_goodConfig","type":"uint256","indexed":false,"internalType":"uint256"},{"name":"_initial","type":"uint256","indexed":false,"internalType":"T_BalanceUINT256"}],"anonymous":false},{"type":"event","name":"e_investGood","inputs":[{"name":"_proofNo","type":"uint256","indexed":true,"internalType":"uint256"},{"name":"_normalGoodNo","type":"uint256","indexed":false,"internalType":"uint256"},{"name":"_valueGoodNo","type":"uint256","indexed":false,"internalType":"uint256"},{"name":"_value","type":"uint256","indexed":false,"internalType":"T_BalanceUINT256"},{"name":"_invest","type":"uint256","indexed":false,"internalType":"T_BalanceUINT256"},{"name":"_valueinvest","type":"uint256","indexed":false,"internalType":"T_BalanceUINT256"}],"anonymous":false},{"type":"event","name":"e_modifyGoodConfig","inputs":[{"name":"_goodid","type":"uint256","indexed":false,"internalType":"uint256"},{"name":"_goodconfig","type":"uint256","indexed":false,"internalType":"uint256"}],"anonymous":false},{"type":"event","name":"e_removebanlist","inputs":[{"name":"_user","type":"address","indexed":false,"internalType":"address"}],"anonymous":false},{"type":"event","name":"e_setMarketConfig","inputs":[{"name":"_marketconfig","type":"uint256","indexed":false,"internalType":"uint256"}],"anonymous":false},{"type":"event","name":"e_updateGoodConfig","inputs":[{"name":"_goodid","type":"uint256","indexed":false,"internalType":"uint256"},{"name":"_goodConfig","type":"uint256","indexed":false,"internalType":"uint256"}],"anonymous":false},{"type":"error","name":"ERC20TransferFailed","inputs":[]},{"type":"error","name":"InvalidShortString","inputs":[]},{"type":"error","name":"NativeTransferFailed","inputs":[]},{"type":"error","name":"StringTooLong","inputs":[{"name":"str","type":"string","internalType":"string"}]},{"type":"error","name":"err_total","inputs":[]}],"bytecode":{"object":"0x6101806040527f49ecf333e5b8c95c40fdafc95c1ad136e8914a8fb55e9dc8bb01eaa83a2df9ad61016052348015610035575f80fd5b506040516166cb3803806166cb83398101604081905261005491610218565b604080518082018252600780825266151514c813919560ca1b60208084019190915283518085018552600381526254545360e81b81830152845180860190955260018552603160f81b91850191909152600280546001600160a01b0319166001600160a01b0388161790555f85905591928391829084906100d583826102e7565b5060086100e282826102e7565b506100f29150839050600d6101a0565b6101205261010181600e6101a0565b61014052815160208084019190912060e052815190820120610100524660a05261018d60e05161010051604080517f8b73c3c69bb8fe3d512ecc4cf759cc79239f7b179b0ffacaa9a75d522b39400f60208201529081019290925260608201524660808201523060a08201525f9060c00160405160208183030381529060405280519060200120905090565b60805250503060c052506103f992505050565b5f6020835110156101bb576101b4836101d2565b90506101cc565b816101c684826102e7565b5060ff90505b92915050565b5f80829050601f81511115610205578260405163305a27a960e01b81526004016101fc91906103a1565b60405180910390fd5b8051610210826103d6565b179392505050565b5f8060408385031215610229575f80fd5b82516001600160a01b038116811461023f575f80fd5b6020939093015192949293505050565b634e487b7160e01b5f52604160045260245ffd5b600181811c9082168061027757607f821691505b60208210810361029557634e487b7160e01b5f52602260045260245ffd5b50919050565b601f8211156102e257805f5260205f20601f840160051c810160208510156102c05750805b601f840160051c820191505b818110156102df575f81556001016102cc565b50505b505050565b81516001600160401b038111156103005761030061024f565b6103148161030e8454610263565b8461029b565b6020601f821160018114610346575f831561032f5750848201515b5f19600385901b1c1916600184901b1784556102df565b5f84815260208120601f198516915b828110156103755787850151825560209485019460019092019101610355565b508482101561039257868401515f19600387901b60f8161c191681555b50505050600190811b01905550565b602081525f82518060208401528060208501604085015e5f604082850101526040601f19601f83011684010191505092915050565b80516020808301519190811015610295575f1960209190910360031b1b16919050565b60805160a05160c05160e051610100516101205161014051610160516162776104545f395f61385c01525f611f0b01525f611ee001525f613a5a01525f613a3201525f61398d01525f6139b701525f6139e101526162775ff3fe6080604052600436106102ed575f3560e01c80634ffef9071161018657806395d89b41116100dc578063ac9650d811610087578063c87b56dd11610062578063c87b56dd146108f8578063e985e9c514610917578063f44733ad1461095e575f80fd5b8063ac9650d81461089a578063b153b920146108ba578063b88d4fde146108d9575f80fd5b8063a22cb465116100b7578063a22cb465146107ec578063a6f6a9801461080b578063a7e1169714610887575f80fd5b806395d89b411461079157806397924ead146107a5578063a128fcf2146107b8575f80fd5b8063745a41bc1161013c5780638e126f73116101175780638e126f7314610740578063920acbb81461075f5780639551177a14610772575f80fd5b8063745a41bc146106db5780637f0a8265146106fa57806384b0196e14610719575f80fd5b80635e008cc41161016c5780635e008cc4146106725780636352211e1461069d57806370a08231146106bc575f80fd5b80634ffef9071461064a5780635a5da4dd1461065d575f80fd5b80631eccc39b116102465780633644e515116101f1578063402f5ab5116101cc578063402f5ab5146105f857806342842e0e1461060c57806345818e4c1461062b575f80fd5b80633644e515146105525780633d995173146105665780633f11774014610585575f80fd5b80632973ada7116102215780632973ada7146104d45780632a7c5a91146104ff5780632f9da5f01461051e575f80fd5b80631eccc39b1461046357806323b872dd1461049657806324744d54146104b5575f80fd5b80630e21a1ac116102a65780631676398611610281578063167639861461042857806318160ddd1461043b57806318ad50d114610450575f80fd5b80630e21a1ac146103cb578063141a468c146103ea578063144aeb8314610409575f80fd5b806306fdde03116102d657806306fdde0314610352578063081812fc14610373578063095ea7b3146103aa575f80fd5b806301ffc9a7146102f15780630292eb4a14610325575b5f80fd5b3480156102fc575f80fd5b5061031061030b36600461584d565b610971565b60405190151581526020015b60405180910390f35b348015610330575f80fd5b5061034461033f366004615868565b61099b565b60405190815260200161031c565b34801561035d575f80fd5b50610366610a3f565b60405161031c91906158ad565b34801561037e575f80fd5b5061039261038d366004615868565b610acf565b6040516001600160a01b03909116815260200161031c565b3480156103b5575f80fd5b506103c96103c43660046158da565b610af4565b005b3480156103d6575f80fd5b506103106103e5366004615902565b610c0d565b3480156103f5575f80fd5b50610344610404366004615868565b610ca9565b348015610414575f80fd5b50610310610423366004615902565b610cbc565b610310610436366004615938565b610d57565b348015610446575f80fd5b5061034460105481565b6103c961045e36600461596a565b610ee9565b6104766104713660046159a3565b611045565b604080516001600160801b0393841681529290911660208301520161031c565b3480156104a1575f80fd5b506103c96104b03660046159ef565b6112cb565b3480156104c0575f80fd5b506103c96104cf366004615ae7565b6114d2565b3480156104df575f80fd5b506103446104ee366004615b7d565b60056020525f908152604090205481565b34801561050a575f80fd5b50610310610519366004615b96565b6114f2565b348015610529575f80fd5b5061053d610538366004615902565b611568565b6040805192835260208301919091520161031c565b34801561055d575f80fd5b5061034461158a565b348015610571575f80fd5b50600254610392906001600160a01b031681565b348015610590575f80fd5b506105a461059f366004615868565b611598565b60405161031c91905f60c08201905082518252602083015160208301526040830151604083015260608301516060830152608083015160808301526001600160a01b0360a08401511660a083015292915050565b348015610603575f80fd5b506103445f5481565b348015610617575f80fd5b506103c96106263660046159ef565b611635565b348015610636575f80fd5b50610310610645366004615868565b61164f565b610310610658366004615bb7565b6116d1565b348015610668575f80fd5b5061034460015481565b34801561067d575f80fd5b5061034461068c366004615868565b60126020525f908152604090205481565b3480156106a8575f80fd5b506103926106b7366004615868565b611a87565b3480156106c7575f80fd5b506103446106d6366004615b7d565b611aeb565b3480156106e6575f80fd5b506103c96106f5366004615bf1565b611b83565b348015610705575f80fd5b50610310610714366004615c4e565b611b95565b348015610724575f80fd5b5061072d611ed3565b60405161031c9796959493929190615c98565b34801561074b575f80fd5b5061034461075a366004615d2e565b611f5a565b61031061076d366004615d5e565b6121d4565b34801561077d575f80fd5b5061031061078c366004615b7d565b61224c565b34801561079c575f80fd5b506103666122d8565b6103106107b3366004615d87565b6122e7565b3480156107c3575f80fd5b506103926107d2366004615b7d565b60066020525f90815260409020546001600160a01b031681565b3480156107f7575f80fd5b506103c9610806366004615db7565b6124db565b348015610816575f80fd5b5061082a610825366004615868565b6124ea565b60405161031c91905f60c082019050825182526001600160a01b0360208401511660208301526001600160a01b036040840151166040830152606083015160608301526080830151608083015260a083015160a083015292915050565b610476610895366004615ddf565b61258b565b6108ad6108a8366004615e1f565b6127f3565b60405161031c9190615e90565b3480156108c5575f80fd5b506103106108d4366004615b7d565b61293a565b3480156108e4575f80fd5b506103c96108f3366004615ef3565b6129c8565b348015610903575f80fd5b50610366610912366004615868565b612bd1565b348015610922575f80fd5b50610310610931366004615f3f565b6001600160a01b039182165f908152600c6020908152604080832093909416825291909152205460ff1690565b61031061096c366004615938565b612c35565b5f6001600160e01b03198216635604e22560e01b1480610995575061099582612fe2565b92915050565b5f8181526003602081815260408084203380865260068201845291852080546fffffffffffffffffffffffffffffffff19811690915594869052929091526002909101546001600160801b0390921691610a01916001600160a01b039091169083613031565b60408051838152602081018390527fe5b56551be531c17d0c26ed5b513b4756c152f2ec216bd76db42f90ad317513a910160405180910390a1919050565b606060078054610a4e90615f67565b80601f0160208091040260200160405190810160405280929190818152602001828054610a7a90615f67565b8015610ac55780601f10610a9c57610100808354040283529160200191610ac5565b820191905f5260205f20905b815481529060010190602001808311610aa857829003601f168201915b5050505050905090565b5f610ad9826130c3565b505f908152600b60205260409020546001600160a01b031690565b5f610afe82611a87565b9050806001600160a01b0316836001600160a01b031603610b705760405162461bcd60e51b815260206004820152602160248201527f4552433732313a20617070726f76616c20746f2063757272656e74206f776e656044820152603960f91b60648201526084015b60405180910390fd5b336001600160a01b0382161480610b8c5750610b8c8133610931565b610bfe5760405162461bcd60e51b815260206004820152603d60248201527f4552433732313a20617070726f76652063616c6c6572206973206e6f7420746f60448201527f6b656e206f776e6572206f7220617070726f76656420666f7220616c6c0000006064820152608401610b67565b610c088383613129565b505050565b6002545f906001600160a01b03163314610c4f5760405162461bcd60e51b815260206004820152600360248201526223981960e91b6044820152606401610b67565b5f838152600360205260409020610c669083613196565b60408051848152602081018490527f5af113730f9ee4153f120c893809feafa233584bbe5e93b5d78e0699c9c8ca5691015b60405180910390a150600192915050565b5f818152600f6020526040812054610995565b5f828152600360205260408120600101546001600160a01b03163314610d0a5760405162461bcd60e51b815260206004820152600360248201526211cc0d60ea1b6044820152606401610b67565b5f838152600360205260409020610d2190836131bd565b60408051848152602081018490527fc360eef79f1e7d7e7564e3cd446a9839f5a632a38a4d34b507c08e1ceef461479101610c98565b5f6004545f14610d8f5760405162461bcd60e51b815260206004820152600360248201526247303160e81b6044820152606401610b67565b60016004555f83815260036020526040902054610dab906131f8565b610ddc5760405162461bcd60e51b8152602060048201526002602482015261269960f11b6044820152606401610b67565b5f83815260036020526040902060020154610e0a906001600160a01b0316336001600160801b038516613215565b5f83815260036020819052604082200154610e259084613222565b5f8581526003602081905260409091200154909150610e52906001600160801b038516613297565b613297565b5f8581526003602081905260408083208201939093558782529190200154610e7e90608083901b613297565b5f868152600360208181526040928390209091019290925580518781529182018690526001600160801b03851682820152517fb1bebbfa4edbd2c07f8cf59b3a3acc0e0756fb12f834f128efce8d9d30335b309181900360600190a150505f60045550600192915050565b60045415610f1f5760405162461bcd60e51b815260206004820152600360248201526247303160e81b6044820152606401610b67565b60016004555f828152600360205260409020600501546d200000000000000000000000000090610f5390839060801c615fb3565b6001600160801b03161115610f905760405162461bcd60e51b815260206004820152600360248201526223981b60e91b6044820152606401610b67565b5f82815260036020526040902060020154610fbe906001600160a01b0316336001600160801b038416613215565b5f82815260036020526040902060050154610fdd90608083901b613297565b5f838152600360205260409081902060050191909155517f54fe3e24ce316357354d8b9553364de253d61c742d913dfd419149ddf696947a9061103590849084909182526001600160801b0316602082015260400190565b60405180910390a150505f600455565b5f806004545f1461107e5760405162461bcd60e51b815260206004820152600360248201526247303160e81b6044820152606401610b67565b600160045560408051610100810182526001600160801b03871681525f6020808301829052828401829052606083018290528a825260038082528483208082015460808601525460a08501528a83528082529382208085015460c0850152918a905292909252905460e08201526110f581866132c3565b90506001841515148015611112575080516001600160801b031615155b1561113057604051632af75bb760e11b815260040160405180910390fd5b6020808201515f8981526003909252604090912054611163916001600160801b031661271060cc9290921c607f16020490565b91508181602001516111759190615fd2565b60808201516040808401515f8c815260036020529190912092955061119b929190613605565b60c08101515f8881526003602052604090206111b79184613605565b80516111f39033906111c99089615fd2565b5f8b8152600360205260409020600201546001600160a01b031691906001600160801b0316613215565b5f87815260036020526040902060020154611221906001600160a01b0316336001600160801b038616613031565b86887fa79c43e220b5faf022716b06e757294b799a25f33d3c8b0121e614f7b5d988c4338460600151611274865f01518c61125c9190615fd2565b60408801516001600160801b031660809190911b1790565b6001600160801b03881660808a901b17604080516001600160a01b0390951685526001600160801b0390931660208501529183015260608201526080015b60405180910390a3505f60045590969095509350505050565b6112d5338261362c565b6113375760405162461bcd60e51b815260206004820152602d60248201527f4552433732313a2063616c6c6572206973206e6f7420746f6b656e206f776e6560448201526c1c881bdc88185c1c1c9bdd9959609a1b6064820152608401610b67565b6113428383836136a8565b5f8181526011602081815260408084206005810180546001600160a01b031916905581516060810183526001600160a01b03891681528154818501528686529390925260019091015490820152611398906136c7565b604080516060810182526001600160a01b03861681525f858152601160208181528483208054828601528884529190526001015492820192909252919250906113e0906136c7565b5f8181526012602052604081205491925003611410575f8281526012602052604080822054838352912055611484565b5f838152601160208181526040808420858552601283528185205485529290915290912061143d91613713565b5f838152601160205260408120818155600181018290556002810182905560038101829055600481019190915560050180546001600160a01b031916905561148483613765565b5f828152601260205260408082208290555184916001600160a01b0380881692908916917fddf252ad1be2c89b69c2b068fc378daa952ba7f163c4a11628f55a4df523b3ef91a45050505050565b6114de338584846137f7565b6114ea868686866129c8565b505050505050565b6002545f906001600160a01b031633146115345760405162461bcd60e51b815260206004820152600360248201526247303560e81b6044820152606401610b67565b505f828152600360205260409020600190810180546001600160a01b0384166001600160a01b031990911617905592915050565b5f828152600360208190526040808320820154848452922001545b9250929050565b5f611593613981565b905090565b6115d46040518060c001604052805f81526020015f81526020015f81526020015f81526020015f81526020015f6001600160a01b031681525090565b505f90815260116020908152604091829020825160c0810184528154815260018201549281019290925260028101549282019290925260038201546060820152600482015460808201526005909101546001600160a01b031660a082015290565b610c0883838360405180602001604052805f8152506129c8565b6002545f906001600160a01b031633146116915760405162461bcd60e51b815260206004820152600360248201526223981960e91b6044820152606401610b67565b5f8290556040518281527fbd209961024f2694b0afb3c8badd20b6477abb77b336b16892c3fa4b906d323c906020015b60405180910390a1506001919050565b5f6004545f146117095760405162461bcd60e51b815260206004820152600360248201526247303160e81b6044820152606401610b67565b6001600455604080518082019091523381526001600160a01b03841660208201525f9061173590613aaa565b5f818152600360205260409020600101549091506001600160a01b031615801561177157505f86815260036020526040902054611771906131f8565b6117a35760405162461bcd60e51b815260206004820152600360248201526226981960e91b6044820152606401610b67565b6117cb336117b18760801c90565b6001600160a01b03871691906001600160801b0316613215565b5f868152600360205260409020600201546117f9906001600160a01b0316336001600160801b038816613215565b5f8681526003602052604081206118109087613ada565b90506001805f8282546118239190615ff1565b925050819055506118ae611852826040015161183f8960801c90565b6001600160801b031660809190911b1790565b5f8481526003602052604090209087876003840183905560048401929092556001600160df1b0390911682556002820180546001600160a01b039092166001600160a01b03199283161790556001909101805490911633179055565b600160105f8282546118c09190615ff1565b909155505060408051606081018252338152602081018490529081018890525f906118ea906136c7565b6010545f82815260126020526040902081905590915061190b903390613c2e565b6040805160c081018252848152602081018a905283820151909182019060801b815260200161193e5f61183f8b60801c90565b81526020016119658460200151856060015160809190911b6001600160801b039091161790565b81525f60209182018190526010805482526011835260409182902084518155928401516001840155908301516002830155606083015160038301556080830151600483015560a090920151600590910180546001600160a01b03929092166001600160a01b0319909216919091179055547fd5b1190461e8b8cebdd658c8dd4f092c64be24d6dae8d80a4174dad7899a814e848a8989611a20611a088e60801c90565b60408a01516001600160801b031660809190911b1790565b885160608a01516001600160801b031660809190911b176040805196875260208701959095526001600160a01b03909316938501939093526060840152608083019190915260a082015260c00160405180910390a250505f60045550600195945050505050565b5f818152600960205260408120546001600160a01b0316806109955760405162461bcd60e51b815260206004820152601860248201527f4552433732313a20696e76616c696420746f6b656e20494400000000000000006044820152606401610b67565b5f6001600160a01b038216611b685760405162461bcd60e51b815260206004820152602960248201527f4552433732313a2061646472657373207a65726f206973206e6f74206120766160448201527f6c6964206f776e657200000000000000000000000000000000000000000000006064820152608401610b67565b506001600160a01b03165f908152600a602052604090205490565b611b8f848484846137f7565b50505050565b5f6004545f14611bcd5760405162461bcd60e51b815260206004820152600360248201526247303160e81b6044820152606401610b67565b6001600455611bdc338661362c565b611c0e5760405162461bcd60e51b81526020600482015260036024820152624d303560e81b6044820152606401610b67565b60408051606080820183525f8083526020808401829052838501829052845192830185528183528281018290528285018290528982526011815284822080546001918201546001600160a01b038b1685526005909352958320549495939491929114611c85576002546001600160a01b0316611c87565b875b335f908152600660205260409020549098506001600160a01b0316611cd257335f90815260066020526040902080546001600160a01b0319166001600160a01b038916179055611d23565b335f908152600660209081526040918290205491516001600160a01b0390921680835298507f7da361ef032ddb975b4fa950921c1ecb79041d004acea71333e2dac6ec917c98910160405180910390a15b866001600160a01b0316886001600160a01b031614611d425786611d4f565b6002546001600160a01b03165b6001600160a01b0381165f90815260056020526040902054909750600114611d82576002546001600160a01b0316611d84565b865b9650611e2c60035f8481526020019081526020015f2060115f8d81526020019081526020015f206040518060a001604052808d6001600160801b031681526020018c6001600160a01b031681526020018b6001600160a01b031681526020015f54815260200160025f9054906101000a90046001600160a01b03166001600160a01b031681525060035f8881526020019081526020015f20613db6909392919063ffffffff16565b60208381015160408086015185840151868301518851885185518e81529788018d90526001600160801b0389811689880152948516608097881b17606089015291841692861b929092178587015291909116921b9190911760a08301525193985091965092508b917f243abbbd47dee114cad9689e3093459f008e8ca4fa627f9d19c4957934b81eaf9160c0908290030190a250505f600455506001979650505050505050565b5f60608082808083611f067f0000000000000000000000000000000000000000000000000000000000000000600d6142d5565b611f317f0000000000000000000000000000000000000000000000000000000000000000600e6142d5565b604080515f80825260208201909252600f60f81b9b939a50919850469750309650945092509050565b5f6004545f14611f925760405162461bcd60e51b815260206004820152600360248201526247303160e81b6044820152606401610b67565b6001600455611fa1338561362c565b80611fc457505f848152601160205260409020600501546001600160a01b031633145b611ff65760405162461bcd60e51b81526020600482015260036024820152624d303960e81b6044820152606401610b67565b5f84815260116020908152604080832060018082015491546001600160a01b0389168652600590945291909320541461202f578461203c565b6002546001600160a01b03165b335f908152600660205260409020549095506001600160a01b031661208757335f90815260066020526040902080546001600160a01b0319166001600160a01b0386161790556120d8565b335f908152600660209081526040918290205491516001600160a01b0390921680835295507f7da361ef032ddb975b4fa950921c1ecb79041d004acea71333e2dac6ec917c98910160405180910390a15b836001600160a01b0316856001600160a01b0316146120f75783612104565b6002546001600160a01b03165b6001600160a01b0381165f90815260056020526040902054909450600114612137576002546001600160a01b0316612139565b835b5f8381526003602081815260408084208b8552601183528185208554600254898852959094529190942094985061218194939290918a918a91906001600160a01b031661437e565b604080518381526020810185905290810182905290935086907f172f458c2c853ed38b0114381270db7647bc1f9b612a42852353261a7e3379be9060600160405180910390a250505f6004559392505050565b5f838152600360205260408120600201546001600160a01b031661221c575f84815260036020526040902060020154612217906001600160a01b03168385613031565b612242565b5f84815260036020526040902060020154612242906001600160a01b031633848661446d565b5060019392505050565b6002545f906001600160a01b0316331461228e5760405162461bcd60e51b815260206004820152600360248201526223981960e91b6044820152606401610b67565b6001600160a01b0382165f8181526005602090815260408083209290925590519182527e4ba2ca448db089eb9fb0b25431f0d57664d46141171fed2476281b578d96d491016116c1565b606060088054610a4e90615f67565b6002545f906001600160a01b0316331480156123075750612307826131f8565b6123395760405162461bcd60e51b815260206004820152600360248201526223981960e91b6044820152606401610b67565b61234333846117b1565b6001805f8282546123549190615ff1565b9091555050604080518082019091523381526001600160a01b03851660208201525f9061238090613aaa565b5f818152600360208190526040909120908101869055600481018690556001600160df1b03851681556002810180546001600160a01b0389166001600160a01b031991821617909155600182018054909116331790559091506123e4906008613196565b600160105f8282546123f69190615ff1565b909155505060408051606081018252338152602081018390525f91810182905261241f906136c7565b6010545f828152601260205260409020819055909150612440903390613c2e565b61247c825f6124586124528960801c90565b60801b90565b6124625f8a61183f565b6010545f9081526011602052604081209493929190614512565b601054604080518481526001600160a01b0389166020820152908101869052606081018790527f9f234216268c7b4b9373c01c9d1cc757d055e68b6440edbaaf229c63a0313bc79060800160405180910390a250600195945050505050565b6124e6338383614580565b5050565b61252f6040518060c001604052805f81526020015f6001600160a01b031681526020015f6001600160a01b031681526020015f81526020015f81526020015f81525090565b5f8281526003602081815260408084208054865260018101546001600160a01b0390811687850152600282015416918601919091528083015460608601526004810154608086015294909252905260059091015460a082015290565b5f806004545f146125c45760405162461bcd60e51b815260206004820152600360248201526247303160e81b6044820152606401610b67565b600160045560408051610100810182526001600160801b03871681525f6020808301829052828401829052606083018290528a825260038082528483208082015460808601525460a08501528a83528082529382208085015460c0850152918a905292909252905460e082015261263b818661464d565b80519091506001600160801b03161561266757604051632af75bb760e11b815260040160405180910390fd5b6020808201515f8a8152600390925260409091205461269a916001600160801b031661271060c59290921c607f16020490565b91508181602001516126ac9190615fb3565b60c08201516040808401515f8b81526003602052919091209295506126d2929190613605565b60808101515f8981526003602052604090206126ee9184613605565b61272c848260400151886127029190615fd2565b5f8a8152600360205260409020600201546001600160a01b031691906001600160801b0316613031565b5f8881526003602052604090206002015461275a906001600160a01b0316336001600160801b038616613215565b86887f3de590341c976ea6fce618ef4a768a15441201ad3ed7c9b438d82c3951de7ced338785606001516127a28c886040015160809190911b6001600160801b039091161790565b6001600160801b03891660808b901b17604080516001600160a01b0396871681529590941660208601526001600160801b03909216928401929092526060830191909152608082015260a0016112b2565b60608167ffffffffffffffff81111561280e5761280e615a29565b60405190808252806020026020018201604052801561284157816020015b606081526020019060019003908161282c5790505b5090505f5b82811015612933575f803086868581811061286357612863616004565b90506020028101906128759190616018565b60405161288392919061605b565b5f60405180830381855af49150503d805f81146128bb576040519150601f19603f3d011682016040523d82523d5f602084013e6128c0565b606091505b50915091508161290b576044815110156128d8575f80fd5b600481019050808060200190518101906128f2919061606a565b60405162461bcd60e51b8152600401610b6791906158ad565b8084848151811061291e5761291e616004565b60209081029190910101525050600101612846565b5092915050565b6002545f906001600160a01b0316331461297c5760405162461bcd60e51b815260206004820152600360248201526223981960e91b6044820152606401610b67565b6001600160a01b0382165f818152600560209081526040918290206001905590519182527f8e1c2d1a5dce36a56a9dfcb96e5816e793c16d6c897b4e3c0b1f99588bb88a1c91016116c1565b6129d2338361362c565b612a345760405162461bcd60e51b815260206004820152602d60248201527f4552433732313a2063616c6c6572206973206e6f7420746f6b656e206f776e6560448201526c1c881bdc88185c1c1c9bdd9959609a1b6064820152608401610b67565b612a40848484846148af565b5f8281526011602081815260408084206005810180546001600160a01b031916905581516060810183526001600160a01b038a1681528154818501528786529390925260019091015490820152612a96906136c7565b604080516060810182526001600160a01b03871681525f86815260116020818152848320805482860152898452919052600101549282019290925291925090612ade906136c7565b5f8181526012602052604081205491925003612b0e575f8281526012602052604080822054838352912055612b82565b5f8481526011602081815260408084208585526012835281852054855292909152909120612b3b91613713565b5f848152601160205260408120818155600181018290556002810182905560038101829055600481019190915560050180546001600160a01b0319169055612b8284613765565b5f828152601260205260408082208290555185916001600160a01b0380891692908a16917fddf252ad1be2c89b69c2b068fc378daa952ba7f163c4a11628f55a4df523b3ef91a4505050505050565b6060612bdc826130c3565b5f612be5614938565b90505f815111612c035760405180602001604052805f815250612c2e565b80612c0d84614958565b604051602001612c1e9291906160f6565b6040516020818303038152906040525b9392505050565b5f6004545f14612c6d5760405162461bcd60e51b815260206004820152600360248201526247303160e81b6044820152606401610b67565b6001600455604080516080810182525f808252602082018190529181018290526060810191909152604080516080810182525f8082526020820181905291810182905260608101919091525f86815260036020819052604090912001546d2000000000000000000000000000908590612ce69190615fb3565b6001600160801b03161115612d235760405162461bcd60e51b815260206004820152600360248201526226981960e91b6044820152606401610b67565b5f86815260036020526040902054612d3a906131f8565b80612d5757505f85815260036020526040902054612d57906131f8565b612d895760405162461bcd60e51b815260206004820152600360248201526226981960e91b6044820152606401610b67565b5f868152600360205260409020612da09085613ada565b5f87815260036020526040902060020154909250612dd1906001600160a01b0316336001600160801b038716613215565b8415612e7c576040808301515f8781526003602081905292902090910154612df8916149f5565b6001600160801b0316606082018190525f8681526003602052604090205460d91c603f16612710908103909104026001600160801b0316606082018190525f86815260036020526040902060020154612e5e916001600160a01b03909116903390613215565b60608101515f868152600360205260409020612e7991613ada565b90505b5f612ea96040518060600160405280336001600160a01b03168152602001898152602001888152506136c7565b5f81815260126020526040812054919250819003612efb57600160105f828254612ed39190615ff1565b92505081905550612ee633601054613c2e565b506010545f8281526012602052604090208190555b6040840151612f56908990899060801b602088015160608901516001600160801b031660809190911b17602088015160608901516001600160801b031660809190911b175f8781526011602052604090209493929190614512565b604084810151855160608088015187518883015186518f8152602081018f9052608096871b8189015294861b6001600160801b039384161793850193909352841b91161791810191909152905182917f54327712026ec7eff19c69f41b88780daaa74a97ae2dcfa56a1de52fb0e07fcd919081900360a00190a250505f60045550600195945050505050565b5f6001600160e01b031982166380ac58cd60e01b148061301257506001600160e01b03198216635b5e139f60e01b145b8061099557506301ffc9a760e01b6001600160e01b0319831614610995565b5f6001600160a01b03841661306d575f805f8085875af190508061306857604051633d2cec6f60e21b815260040160405180910390fd5b611b8f565b60405163a9059cbb60e01b5f52836004528260245260205f60445f80895af13d15601f3d1160015f511416171691505f606052806040525080611b8f57604051633c9fd93960e21b815260040160405180910390fd5b5f818152600960205260409020546001600160a01b03166131265760405162461bcd60e51b815260206004820152601860248201527f4552433732313a20696e76616c696420746f6b656e20494400000000000000006044820152606401610b67565b50565b5f818152600b6020526040902080546001600160a01b0319166001600160a01b038416908117909155819061315d82611a87565b6001600160a01b03167f8c5be1e5ebec7d5bd14f71427d1e84f3dd0314c0f7b2291e5b200ac8c7c3b92560405160405180910390a45050565b815460fc82901b906131ad90600160fc1b9061611e565b6131b79190615ff1565b90915550565b81546001600160df1b03909116906131b79082907ffffffe000000000000000000000000000000000000000000000000000000000016615ff1565b5f60ff82901c6001811461320c575f612c2e565b60019392505050565b30611b8f8484838561446d565b5f826001600160801b03165f0361323a57505f610995565b5f836001600160801b0316836001600160801b03166132598660801c90565b6001600160801b031661326c9190616131565b6132769190616148565b90506001600160801b0381111561328d575f61328f565b805b949350505050565b5f612c2e6132a58360801c90565b6132af8560801c90565b6132b99190615fb3565b61183f8486615fb3565b60408051610100810182525f80825260208201819052918101829052606081018290526080810182905260a0810182905260c0810182905260e0810191909152825160a08401515f91829161332c916001600160801b031661271060c59290921c607f16020490565b6001600160801b0316604086018190528551869061334b908390615fd2565b6001600160801b03169052505b84516001600160801b03161580159061337f575061337f85608001518660c0015186614a3b565b1561356d576133a06133958660c0015160801c90565b60e087015190614ac9565b6001600160801b03166133c56133ba876080015160801c90565b60a088015190614ac9565b6001600160801b031610156133f5576133f06133e5866080015160801c90565b60a087015190614ac9565b613406565b6134066133958660c0015160801c90565b608086015190925061341890836149f5565b9050806001600160801b0316855f01516001600160801b031611156134ca5780855f018181516134489190615fd2565b6001600160801b031690525060c085015161346390836149f5565b856020018181516134749190615fb3565b6001600160801b0390811690915260808781015161349f93509184169085901b17614af8565b614af8565b608086015260c08501516134c0906134bb8461183f83826149f5565b614b1a565b60c086015261354a565b845160808601516134da91613222565b60c08601519092506134ec90836149f5565b856020018181516134fd9190615fb3565b6001600160801b03908116909152608087810151885161352594509092169085901b17614af8565b608086015260c0850151613541906134bb8461183f83826149f5565b60c08601525f85525b818560600181815161355c9190615fb3565b6001600160801b0316905250613358565b84516001600160801b0316156135fc57845160a08601516135a2916001600160801b031661271060c59290921c607f16020490565b856040018181516135b39190615fd2565b6001600160801b03908116909152865160a08801516135e09350911661271060c59290921c607f16020490565b855186906135ef908390615fb3565b6001600160801b03169052505b50929392505050565b60038301829055600583015461361f90608083901b613297565b8360050181905550505050565b5f8061363783611a87565b9050806001600160a01b0316846001600160a01b0316148061367d57506001600160a01b038082165f908152600c602090815260408083209388168352929052205460ff165b8061328f5750836001600160a01b031661369684610acf565b6001600160a01b031614949350505050565b5f818152600f6020526040902080546001019055610c08838383614b46565b6040805182516001600160a01b0316602080830191909152830151818301529082015160608201525f906080015b60408051601f19818403018152919052805160209091012092915050565b61372582600201548260020154613297565b826002018190555061373f82600301548260030154613297565b826003018190555061375982600401548260040154613297565b82600401819055505050565b5f61376f82611a87565b905061377a82611a87565b5f838152600b6020908152604080832080546001600160a01b03199081169091556001600160a01b038516808552600a845282852080545f190190558785526009909352818420805490911690555192935084927fddf252ad1be2c89b69c2b068fc378daa952ba7f163c4a11628f55a4df523b3ef908390a45050565b814211156138475760405162461bcd60e51b815260206004820152601e60248201527f4552433732315065726d69743a206578706972656420646561646c696e6500006044820152606401610b67565b5f838152600f602090815260408083205481517f0000000000000000000000000000000000000000000000000000000000000000818501526001600160a01b0389168184015260608101889052608081019190915260a08082018790528251808303909101815260c09091019091528051910120906138c582614d24565b90505f6138d28285614d50565b5090505f6001600160a01b038216158015906138f357506138f3828861362c565b9050808061390f575061390f61390888611a87565b8487614d8f565b80613921575061392161390888610acf565b61396d5760405162461bcd60e51b815260206004820152601f60248201527f4552433732315065726d69743a20696e76616c6964207369676e6174757265006044820152606401610b67565b6139778888613129565b5050505050505050565b5f306001600160a01b037f0000000000000000000000000000000000000000000000000000000000000000161480156139d957507f000000000000000000000000000000000000000000000000000000000000000046145b15613a0357507f000000000000000000000000000000000000000000000000000000000000000090565b611593604080517f8b73c3c69bb8fe3d512ecc4cf759cc79239f7b179b0ffacaa9a75d522b39400f60208201527f0000000000000000000000000000000000000000000000000000000000000000918101919091527f000000000000000000000000000000000000000000000000000000000000000060608201524660808201523060a08201525f9060c00160405160208183030381529060405280519060200120905090565b5f816040516020016136f5919081516001600160a01b039081168252602092830151169181019190915260400190565b604080516080810182525f8082526020820181905291810182905260608101919091528254613b1e906001600160801b03841661271060d99290921c603f16020490565b6001600160801b0316808252613b349083615fd2565b6001600160801b0316606082018190526003840154613b5291613222565b6001600160801b0316604082015260608101516005840154613b869190613b809060801c600487015461183f565b90613222565b6001600160801b03166020820181905260058401548251613bc792610e4d91613baf9190615fb3565b60208501516001600160801b031660809190911b1790565b6005840155600383015460408201516060830151613bf4929160801b6001600160801b0390911617613297565b6003840155600483015460408201516060830151613c21929160801b6001600160801b0390911617613297565b6004909301929092555090565b6001600160a01b038216613c845760405162461bcd60e51b815260206004820181905260248201527f4552433732313a206d696e7420746f20746865207a65726f20616464726573736044820152606401610b67565b5f818152600960205260409020546001600160a01b031615613ce85760405162461bcd60e51b815260206004820152601c60248201527f4552433732313a20746f6b656e20616c7265616479206d696e746564000000006044820152606401610b67565b5f818152600960205260409020546001600160a01b031615613d4c5760405162461bcd60e51b815260206004820152601c60248201527f4552433732313a20746f6b656e20616c7265616479206d696e746564000000006044820152606401610b67565b6001600160a01b0382165f818152600a6020908152604080832080546001019055848352600990915280822080546001600160a01b0319168417905551839291907fddf252ad1be2c89b69c2b068fc378daa952ba7f163c4a11628f55a4df523b3ef908290a45050565b60408051606080820183525f8083526020808401829052838501829052845192830185528183528201819052928101839052865491929091613df7906131f8565b80613e0857508554613e08906131f8565b613e3a5760405162461bcd60e51b815260206004820152600360248201526204731360ec1b6044820152606401610b67565b613e5c845f0151613b80613e52886002015460801c90565b600389015461183f565b90506040518060600160405280613e8b865f0151613b80613e818c6005015460801c90565b60048d015461183f565b6001600160801b03168152602001613ebb865f0151613b80613eb18a6003015460801c90565b60038b015461183f565b6001600160801b03168152602001855f01516001600160801b03168152509250613ef4613eec886003015460801c90565b885490614e95565b6001600160801b0316816001600160801b0316108015613f355750613f1d613eec886003015490565b6001600160801b0316845f01516001600160801b0316105b613f6a5760405162461bcd60e51b8152600401610b67906020808252600490820152634730313160e01b604082015260600190565b60038701546040840151613f8d91906001600160801b0316608084901b17614eb9565b600388015560048701546040840151613fb591906001600160801b0316608084901b17614eb9565b6004880155600587015483516020850151613fdf929160801b6001600160801b0390911617614eb9565b6005880155613fee8582614edb565b60208301518351613fff9190615fd2565b6001600160801b0390811684526040840151885461402b9290911661271060d39290921c603f16020490565b83602001906001600160801b031690816001600160801b03168152505061406987845f01518660600151876020015188604001518960800151614fe9565b60208301516001600160801b0316156140995760058701546020840151614093919060801b613297565b60058801555b6001850154156142cb5760405180606001604052806140cd83613b806140c38b6005015460801c90565b60048c015461183f565b6001600160801b031681526020016140fa83613b806140f08a6004015460801c90565b60048b015461183f565b6001600160801b031681526020016141238361411d6140f08a6002015460801c90565b906149f5565b6001600160801b0316815250915061414a614142876003015460801c90565b875490614e95565b6001600160801b0316816001600160801b031610801561418c5750614173614142876003015490565b6001600160801b031682604001516001600160801b0316105b6141c15760405162461bcd60e51b8152600401610b67906020808252600490820152632398189960e11b604082015260600190565b600386015460408301516141e491906001600160801b0316608084901b17614eb9565b60038701556004860154604083015161420c91906001600160801b0316608084901b17614eb9565b6004870155600586015482516020840151614236929160801b6001600160801b0390911617614eb9565b60058701556020820151825161424c9190615fd2565b6001600160801b039081168352604083015187546142789290911661271060d39290921c603f16020490565b6001600160801b031660208301819052156142aa57600586015460208301516142a4919060801b613297565b60058701555b6142cb86835f01518660600151876020015188604001518960800151614fe9565b9450945094915050565b606060ff83146142ef576142e88361549d565b9050610995565b8180546142fb90615f67565b80601f016020809104026020016040519081016040528092919081815260200182805461432790615f67565b80156143725780601f1061434957610100808354040283529160200191614372565b820191905f5260205f20905b81548152906001019060200180831161435557829003601f168201915b50505050509050610995565b5f8061438e876003015460801c90565b6143b761439c896003015490565b613b806143ad8d6005015460801c90565b60048e015461183f565b6143c19190615fd2565b60058a01549091506143dc906001600160801b038316613297565b60058a01556143ef898286898988614fe9565b5f6143fe886004015460801c90565b61440c61439c8a6004015490565b6144169190615fd2565b60058a0154909150614431906001600160801b038316613297565b60058a01556144448982878a8a89614fe9565b6001600160801b038116608083901b17925061446088846154da565b5050979650505050505050565b5f6001600160a01b0385166144a15781341461449c57604051633d2cec6f60e21b815260040160405180910390fd5b61450b565b6040516323b872dd60e01b81526001600160a01b03851660048201526001600160a01b038416602482015282604482015260205f6064835f8a5af13d15601f3d1160015f51141617169150508061450b57604051633c9fd93960e21b815260040160405180910390fd5b5050505050565b60038601546001600160801b03165f0361452a578486555b831561453857600186018490555b614546866002015484613297565b6002870155600386015461455a9083613297565b600387015583156114ea57614573866004015482613297565b6004870155505050505050565b816001600160a01b0316836001600160a01b0316036145e15760405162461bcd60e51b815260206004820152601960248201527f4552433732313a20617070726f766520746f2063616c6c6572000000000000006044820152606401610b67565b6001600160a01b038381165f818152600c6020908152604080832094871680845294825291829020805460ff191686151590811790915591519182527f17307eab39ab6107e8899845ad3d59bd9653f200f220920489ca2b5937696c31910160405180910390a3505050565b60408051610100810182525f80825260208201819052918101829052606081018290526080810182905260a0810182905260c0810182905260e0810191909152825160e08401515f9182916146b6916001600160801b031661271060cc9290921c607f16020490565b6001600160801b031660408601525b84516001600160801b0316158015906146ec57506146ec85608001518660c0015186614a3b565b156135fc576147026133958660c0015160801c90565b6001600160801b031661471c6133ba876080015160801c90565b6001600160801b031610156147415761473c6133e5866080015160801c90565b614752565b6147526133958660c0015160801c90565b60c086015190925061476490836149f5565b9050806001600160801b0316855f01516001600160801b0316111561480c5780855f018181516147949190615fd2565b6001600160801b031690525060808501516147af90836149f5565b856020018181516147c09190615fb3565b6001600160801b0390811690915260c08701516147e69250908316608085901b17614b1a565b60c086015260808501516148029061349a8461183f83826149f5565b608086015261488c565b845160c086015161481c91613222565b608086015190925061482e90836149f5565b8560200181815161483f9190615fb3565b6001600160801b0390811690915260c087015187516148679350909116608085901b17614b1a565b60c086015260808501516148839061349a8461183f83826149f5565b60808601525f85525b818560600181815161489e9190615fb3565b6001600160801b03169052506146c5565b6148ba8484846136a8565b6148c684848484615510565b611b8f5760405162461bcd60e51b815260206004820152603260248201527f4552433732313a207472616e7366657220746f206e6f6e20455243373231526560448201527f63656976657220696d706c656d656e74657200000000000000000000000000006064820152608401610b67565b606060405180606001604052806023815260200161621f60239139905090565b60605f61496483615663565b60010190505f8167ffffffffffffffff81111561498357614983615a29565b6040519080825280601f01601f1916602001820160405280156149ad576020820181803683370190505b5090508181016020015b5f19017f3031323334353637383961626364656600000000000000000000000000000000600a86061a8153600a85049450846149b757509392505050565b5f614a008360801c90565b6001600160801b03165f03614a1657505f610995565b5f614a218460801c90565b6001600160801b0316836001600160801b03166132598690565b5f614a468260801c90565b6001600160801b0316614a598460801c90565b6001600160801b0316856001600160801b0316614a769190616131565b614a809190616131565b826001600160801b0316846001600160801b0316614a9e8760801c90565b6001600160801b0316614ab19190616131565b614abb9190616131565b11612242575f949350505050565b5f6103ff60bb84901c16808203614ae35782915050610995565b614aee81604061615b565b61328f908461617d565b5f612c2e614b068360801c90565b614b108560801c90565b6132b99190615fd2565b5f612c2e614b288360801c90565b614b328560801c90565b614b3c9190615fb3565b61183f8486615fd2565b826001600160a01b0316614b5982611a87565b6001600160a01b031614614bbd5760405162461bcd60e51b815260206004820152602560248201527f4552433732313a207472616e736665722066726f6d20696e636f72726563742060448201526437bbb732b960d91b6064820152608401610b67565b6001600160a01b038216614c1f5760405162461bcd60e51b8152602060048201526024808201527f4552433732313a207472616e7366657220746f20746865207a65726f206164646044820152637265737360e01b6064820152608401610b67565b826001600160a01b0316614c3282611a87565b6001600160a01b031614614c965760405162461bcd60e51b815260206004820152602560248201527f4552433732313a207472616e736665722066726f6d20696e636f72726563742060448201526437bbb732b960d91b6064820152608401610b67565b5f818152600b6020908152604080832080546001600160a01b03199081169091556001600160a01b03878116808652600a855283862080545f1901905590871680865283862080546001019055868652600990945282852080549092168417909155905184937fddf252ad1be2c89b69c2b068fc378daa952ba7f163c4a11628f55a4df523b3ef91a4505050565b5f610995614d30613981565b8360405161190160f01b8152600281019290925260228201526042902090565b5f808251604103614d84576020830151604084015160608501515f1a614d7887828585615744565b94509450505050611583565b505f90506002611583565b5f805f856001600160a01b0316631626ba7e60e01b8686604051602401614db79291906161aa565b60408051601f198184030181529181526020820180517bffffffffffffffffffffffffffffffffffffffffffffffffffffffff166001600160e01b0319909416939093179092529051614e0a91906161c2565b5f60405180830381855afa9150503d805f8114614e42576040519150601f19603f3d011682016040523d82523d5f602084013e614e47565b606091505b5091509150818015614e5a575080516020145b8015614e8b57508051630b135d3f60e11b90614e7f90830160209081019084016161cd565b6001600160e01b031916145b9695505050505050565b5f6103ff60b184901c16808203614eaf5782915050610995565b61328f818461617d565b5f612c2e614ec78360801c90565b614ed18560801c90565b614b3c9190615fd2565b5f614f4f614f20614ef0856003015460801c90565b6001600160801b0316846001600160801b0316614f11876002015460801c90565b6001600160801b031691020490565b61183f614f2e866003015490565b6001600160801b0316856001600160801b0316614f11886002015460801c90565b9050614f5f836003015482614eb9565b6003840155600183015415614fc9575f614fb2614f83614f2e866004015460801c90565b61183f614f91876004015490565b6001600160801b0316866001600160801b0316614f11896002015460801c90565b9050614fc2846004015482614eb9565b6004850155505b6002830154614fdc90608084901b614eb9565b8360020181905550505050565b60646001600160801b03861660dd86901c601f1602046150098187615fd2565b95505f806001600160a01b0385166151dc57606460fa88901c6001600160801b038a16020460028a0154909250615053906001600160a01b0316336001600160801b038516613031565b6064603f60e289901c166001600160801b038a1602046064603f60f48a901c166001600160801b038b1602046150899190615fb3565b9050836001600160a01b0316866001600160a01b0316036150b5576150ae8184615fb3565b92506150f1565b6001600160a01b0386165f90815260068a016020526040902080546fffffffffffffffffffffffffffffffff19166001600160801b0383161790555b836001600160a01b0316856001600160a01b0316036151305780615115838a615fd2565b61511f9190615fd2565b6151299084615fb3565b925061519c565b8061513b838a615fd2565b6151459190615fd2565b6001600160a01b0386165f90815260068b016020526040812080549091906151779084906001600160801b0316615fb3565b92506101000a8154816001600160801b0302191690836001600160801b031602179055505b6001600160a01b0384165f90815260068a016020526040902080546fffffffffffffffffffffffffffffffff19166001600160801b038516179055615492565b60018901546001600160a01b038086169116036152195761521260646001600160801b038a1660f48a901c603f16020484615fb3565b925061528a565b6064603f60f489901c166001600160801b038a16020460018a01546001600160a01b03165f90815260068b016020526040812080549091906152659084906001600160801b0316615fb3565b92506101000a8154816001600160801b0302191690836001600160801b031602179055505b836001600160a01b0316866001600160a01b0316036152c9576152c260646001600160801b038a1660ee8a901c603f16020484615fb3565b9250615336565b6064603f60ee89901c166001600160801b038a1602046001600160a01b0387165f90815260068b016020526040812080549091906153119084906001600160801b0316615fb3565b92506101000a8154816001600160801b0302191690836001600160801b031602179055505b836001600160a01b0316856001600160a01b0316036153755761536e60646001600160801b038a1660e88a901c603f16020484615fb3565b92506153e2565b6064603f60e889901c166001600160801b038a1602046001600160a01b0386165f90815260068b016020526040812080549091906153bd9084906001600160801b0316615fb3565b92506101000a8154816001600160801b0302191690836001600160801b031602179055505b6001600160a01b0384165f90815260068a016020526040812080548592906154149084906001600160801b0316615fb3565b92506101000a8154816001600160801b0302191690836001600160801b03160217905550615492336154588a6001600160801b03168a61580190919063ffffffff16565b6154749060646001600160801b038d1660fa8d901c0204615fb3565b60028c01546001600160a01b031691906001600160801b0316613031565b505050505050505050565b60605f6154a983615811565b6040805160208082528183019092529192505f91906020820181803683375050509182525060208101929092525090565b6154ef8260030154610e4d6124528460801c90565b60038301556001820154156124e6576137598260040154610e4d6124528490565b5f6001600160a01b0384163b1561565857604051630a85bd0160e11b81526001600160a01b0385169063150b7a02906155539033908990889088906004016161e8565b6020604051808303815f875af192505050801561558d575060408051601f3d908101601f1916820190925261558a918101906161cd565b60015b61563e573d8080156155ba576040519150601f19603f3d011682016040523d82523d5f602084013e6155bf565b606091505b5080515f036156365760405162461bcd60e51b815260206004820152603260248201527f4552433732313a207472616e7366657220746f206e6f6e20455243373231526560448201527f63656976657220696d706c656d656e74657200000000000000000000000000006064820152608401610b67565b805181602001fd5b6001600160e01b031916630a85bd0160e11b14905061328f565b506001949350505050565b5f807a184f03e93ff9f4daa797ed6e38ed64bf6a1f01000000000000000083106156ab577a184f03e93ff9f4daa797ed6e38ed64bf6a1f010000000000000000830492506040015b6d04ee2d6d415b85acef810000000083106156d7576d04ee2d6d415b85acef8100000000830492506020015b662386f26fc1000083106156f557662386f26fc10000830492506010015b6305f5e100831061570d576305f5e100830492506008015b612710831061572157612710830492506004015b60648310615733576064830492506002015b600a83106109955760010192915050565b5f807f7fffffffffffffffffffffffffffffff5d576e7357a4501ddfe92f46681b20a083111561577957505f905060036157f8565b604080515f8082526020820180845289905260ff881692820192909252606081018690526080810185905260019060a0016020604051602081039080840390855afa1580156157ca573d5f803e3d5ffd5b5050604051601f1901519150506001600160a01b0381166157f2575f600192509250506157f8565b91505f90505b94509492505050565b606460e29290921c603f16020490565b5f60ff8216601f81111561099557604051632cd44ac360e21b815260040160405180910390fd5b6001600160e01b031981168114613126575f80fd5b5f6020828403121561585d575f80fd5b813561328d81615838565b5f60208284031215615878575f80fd5b5035919050565b5f81518084528060208401602086015e5f602082860101526020601f19601f83011685010191505092915050565b602081525f612c2e602083018461587f565b80356001600160a01b03811681146158d5575f80fd5b919050565b5f80604083850312156158eb575f80fd5b6158f4836158bf565b946020939093013593505050565b5f8060408385031215615913575f80fd5b50508035926020909101359150565b80356001600160801b03811681146158d5575f80fd5b5f805f6060848603121561594a575f80fd5b833592506020840135915061596160408501615922565b90509250925092565b5f806040838503121561597b575f80fd5b8235915061598b60208401615922565b90509250929050565b803580151581146158d5575f80fd5b5f805f805f60a086880312156159b7575f80fd5b85359450602086013593506159ce60408701615922565b9250606086013591506159e360808701615994565b90509295509295909350565b5f805f60608486031215615a01575f80fd5b615a0a846158bf565b9250615a18602085016158bf565b929592945050506040919091013590565b634e487b7160e01b5f52604160045260245ffd5b604051601f8201601f1916810167ffffffffffffffff81118282101715615a6657615a66615a29565b604052919050565b5f67ffffffffffffffff821115615a8757615a87615a29565b50601f01601f191660200190565b5f82601f830112615aa4575f80fd5b8135615ab7615ab282615a6e565b615a3d565b818152846020838601011115615acb575f80fd5b816020850160208301375f918101602001919091529392505050565b5f805f805f8060c08789031215615afc575f80fd5b615b05876158bf565b9550615b13602088016158bf565b945060408701359350606087013567ffffffffffffffff811115615b35575f80fd5b615b4189828a01615a95565b9350506080870135915060a087013567ffffffffffffffff811115615b64575f80fd5b615b7089828a01615a95565b9150509295509295509295565b5f60208284031215615b8d575f80fd5b612c2e826158bf565b5f8060408385031215615ba7575f80fd5b8235915061598b602084016158bf565b5f805f8060808587031215615bca575f80fd5b8435935060208501359250615be1604086016158bf565b9396929550929360600135925050565b5f805f8060808587031215615c04575f80fd5b615c0d856158bf565b93506020850135925060408501359150606085013567ffffffffffffffff811115615c36575f80fd5b615c4287828801615a95565b91505092959194509250565b5f805f8060808587031215615c61575f80fd5b84359350615c7160208601615922565b9250615c7f604086016158bf565b9150615c8d606086016158bf565b905092959194509250565b60ff60f81b8816815260e060208201525f615cb660e083018961587f565b8281036040840152615cc8818961587f565b606084018890526001600160a01b038716608085015260a0840186905283810360c0850152845180825260208087019350909101905f5b81811015615d1d578351835260209384019390920191600101615cff565b50909b9a5050505050505050505050565b5f805f60608486031215615d40575f80fd5b83359250615d50602085016158bf565b9150615961604085016158bf565b5f805f60608486031215615d70575f80fd5b8335925060208401359150615961604085016158bf565b5f805f60608486031215615d99575f80fd5b615da2846158bf565b95602085013595506040909401359392505050565b5f8060408385031215615dc8575f80fd5b615dd1836158bf565b915061598b60208401615994565b5f805f805f60a08688031215615df3575f80fd5b8535945060208601359350615e0a60408701615922565b9250606086013591506159e3608087016158bf565b5f8060208385031215615e30575f80fd5b823567ffffffffffffffff811115615e46575f80fd5b8301601f81018513615e56575f80fd5b803567ffffffffffffffff811115615e6c575f80fd5b8560208260051b8401011115615e80575f80fd5b6020919091019590945092505050565b5f602082016020835280845180835260408501915060408160051b8601019250602086015f5b82811015615ee757603f19878603018452615ed285835161587f565b94506020938401939190910190600101615eb6565b50929695505050505050565b5f805f8060808587031215615f06575f80fd5b615f0f856158bf565b9350615f1d602086016158bf565b925060408501359150606085013567ffffffffffffffff811115615c36575f80fd5b5f8060408385031215615f50575f80fd5b615f59836158bf565b915061598b602084016158bf565b600181811c90821680615f7b57607f821691505b602082108103615f9957634e487b7160e01b5f52602260045260245ffd5b50919050565b634e487b7160e01b5f52601160045260245ffd5b6001600160801b03818116838216019081111561099557610995615f9f565b6001600160801b03828116828216039081111561099557610995615f9f565b8082018082111561099557610995615f9f565b634e487b7160e01b5f52603260045260245ffd5b5f808335601e1984360301811261602d575f80fd5b83018035915067ffffffffffffffff821115616047575f80fd5b602001915036819003821315611583575f80fd5b818382375f9101908152919050565b5f6020828403121561607a575f80fd5b815167ffffffffffffffff811115616090575f80fd5b8201601f810184136160a0575f80fd5b80516160ae615ab282615a6e565b8181528560208385010111156160c2575f80fd5b8160208401602083015e5f91810160200191909152949350505050565b5f81518060208401855e5f93019283525090919050565b5f61328f61610483866160df565b846160df565b634e487b7160e01b5f52601260045260245ffd5b5f8261612c5761612c61610a565b500690565b808202811582820484141761099557610995615f9f565b5f826161565761615661610a565b500490565b6001600160801b03818116838216029081169081811461293357612933615f9f565b5f6001600160801b038316806161955761619561610a565b806001600160801b0384160491505092915050565b828152604060208201525f61328f604083018461587f565b5f612c2e82846160df565b5f602082840312156161dd575f80fd5b815161328d81615838565b6001600160a01b03851681526001600160a01b0384166020820152826040820152608060608201525f614e8b608083018461587f56fe687474703a2f2f7777772e74742d737761702e636f6d2f6e66743f70726f6f6669643da2646970667358221220161df4ce1168190b46dc68b0ed09f0f80bd4f1776eb29b677c5d4e072bd7fb6364736f6c634300081a0033","linkReferences":{}},"methodIdentifiers":{"DOMAIN_SEPARATOR()":"3644e515","addbanlist(address)":"b153b920","approve(address,uint256)":"095ea7b3","balanceOf(address)":"70a08231","banlist(address)":"2973ada7","buyGood(uint256,uint256,uint128,uint256,bool)":"1eccc39b","buyGoodForPay(uint256,uint256,uint128,uint256,address)":"a7e11697","changeGoodOwner(uint256,address)":"2a7c5a91","collectProof(uint256,address,address)":"8e126f73","collectProtocolFee(uint256)":"0292eb4a","disinvestProof(uint256,uint128,address,address)":"7f0a8265","eip712Domain()":"84b0196e","enpower(uint256,uint256,uint128)":"16763986","getApproved(uint256)":"081812fc","getGoodState(uint256)":"a6f6a980","getProofState(uint256)":"3f117740","getState(uint256,uint256)":"2f9da5f0","goodNum()":"5a5da4dd","goodWelfare(uint256,uint128)":"18ad50d1","initGood(uint256,uint256,address,uint256)":"4ffef907","initMetaGood(address,uint256,uint256)":"97924ead","investGood(uint256,uint256,uint128)":"f44733ad","isApprovedForAll(address,address)":"e985e9c5","marketconfig()":"402f5ab5","marketcreator()":"3d995173","modifyGoodConfig(uint256,uint256)":"0e21a1ac","multicall(bytes[])":"ac9650d8","name()":"06fdde03","nonces(uint256)":"141a468c","ownerOf(uint256)":"6352211e","payGood(uint256,uint256,address)":"920acbb8","permit(address,uint256,uint256,bytes)":"745a41bc","proofmapping(uint256)":"5e008cc4","referals(address)":"a128fcf2","removebanlist(address)":"9551177a","safeTransferFrom(address,address,uint256)":"42842e0e","safeTransferFrom(address,address,uint256,bytes)":"b88d4fde","safeTransferFromWithPermit(address,address,uint256,bytes,uint256,bytes)":"24744d54","setApprovalForAll(address,bool)":"a22cb465","setMarketConfig(uint256)":"45818e4c","supportsInterface(bytes4)":"01ffc9a7","symbol()":"95d89b41","tokenURI(uint256)":"c87b56dd","totalSupply()":"18160ddd","transferFrom(address,address,uint256)":"23b872dd","updateGoodConfig(uint256,uint256)":"144aeb83"},"id":1}