{"abi":[{"type":"constructor","inputs":[{"name":"_marketcreator","type":"address","internalType":"address"},{"name":"_marketconfig","type":"uint256","internalType":"uint256"}],"stateMutability":"nonpayable"},{"type":"function","name":"DOMAIN_SEPARATOR","inputs":[],"outputs":[{"name":"","type":"bytes32","internalType":"bytes32"}],"stateMutability":"view"},{"type":"function","name":"addbanlist","inputs":[{"name":"_user","type":"address","internalType":"address"}],"outputs":[{"name":"","type":"bool","internalType":"bool"}],"stateMutability":"nonpayable"},{"type":"function","name":"approve","inputs":[{"name":"to","type":"address","internalType":"address"},{"name":"tokenId","type":"uint256","internalType":"uint256"}],"outputs":[],"stateMutability":"nonpayable"},{"type":"function","name":"balanceOf","inputs":[{"name":"owner","type":"address","internalType":"address"}],"outputs":[{"name":"","type":"uint256","internalType":"uint256"}],"stateMutability":"view"},{"type":"function","name":"banlist","inputs":[{"name":"","type":"address","internalType":"address"}],"outputs":[{"name":"","type":"uint256","internalType":"uint256"}],"stateMutability":"view"},{"type":"function","name":"buyGood","inputs":[{"name":"_goodid1","type":"uint256","internalType":"uint256"},{"name":"_goodid2","type":"uint256","internalType":"uint256"},{"name":"_swapQuantity","type":"uint128","internalType":"uint128"},{"name":"_limitPrice","type":"uint256","internalType":"uint256"},{"name":"_istotal","type":"bool","internalType":"bool"}],"outputs":[{"name":"goodid2Quantity_","type":"uint128","internalType":"uint128"},{"name":"goodid2FeeQuantity_","type":"uint128","internalType":"uint128"}],"stateMutability":"payable"},{"type":"function","name":"buyGoodForPay","inputs":[{"name":"_goodid1","type":"uint256","internalType":"uint256"},{"name":"_goodid2","type":"uint256","internalType":"uint256"},{"name":"_swapQuantity","type":"uint128","internalType":"uint128"},{"name":"_limitPrice","type":"uint256","internalType":"uint256"},{"name":"_recipent","type":"address","internalType":"address"}],"outputs":[{"name":"goodid1Quantity_","type":"uint128","internalType":"uint128"},{"name":"goodid1FeeQuantity_","type":"uint128","internalType":"uint128"}],"stateMutability":"payable"},{"type":"function","name":"changeGoodOwner","inputs":[{"name":"_goodid","type":"uint256","internalType":"uint256"},{"name":"_to","type":"address","internalType":"address"}],"outputs":[{"name":"","type":"bool","internalType":"bool"}],"stateMutability":"nonpayable"},{"type":"function","name":"collectProof","inputs":[{"name":"_proofid","type":"uint256","internalType":"uint256"},{"name":"_gater","type":"address","internalType":"address"},{"name":"_referal","type":"address","internalType":"address"}],"outputs":[{"name":"profit_","type":"uint256","internalType":"T_BalanceUINT256"}],"stateMutability":"nonpayable"},{"type":"function","name":"collectProtocolFee","inputs":[{"name":"_goodid","type":"uint256","internalType":"uint256"}],"outputs":[{"name":"feeamount","type":"uint256","internalType":"uint256"}],"stateMutability":"nonpayable"},{"type":"function","name":"disinvestProof","inputs":[{"name":"_proofid","type":"uint256","internalType":"uint256"},{"name":"_goodQuantity","type":"uint128","internalType":"uint128"},{"name":"_gater","type":"address","internalType":"address"},{"name":"_referal","type":"address","internalType":"address"}],"outputs":[{"name":"","type":"bool","internalType":"bool"}],"stateMutability":"nonpayable"},{"type":"function","name":"eip712Domain","inputs":[],"outputs":[{"name":"fields","type":"bytes1","internalType":"bytes1"},{"name":"name","type":"string","internalType":"string"},{"name":"version","type":"string","internalType":"string"},{"name":"chainId","type":"uint256","internalType":"uint256"},{"name":"verifyingContract","type":"address","internalType":"address"},{"name":"salt","type":"bytes32","internalType":"bytes32"},{"name":"extensions","type":"uint256[]","internalType":"uint256[]"}],"stateMutability":"view"},{"type":"function","name":"enpower","inputs":[{"name":"goodkey","type":"uint256","internalType":"uint256"},{"name":"valuegood","type":"uint256","internalType":"uint256"},{"name":"quantity","type":"uint128","internalType":"uint128"}],"outputs":[{"name":"","type":"bool","internalType":"bool"}],"stateMutability":"payable"},{"type":"function","name":"getApproved","inputs":[{"name":"tokenId","type":"uint256","internalType":"uint256"}],"outputs":[{"name":"","type":"address","internalType":"address"}],"stateMutability":"view"},{"type":"function","name":"getGoodState","inputs":[{"name":"goodkey","type":"uint256","internalType":"uint256"}],"outputs":[{"name":"gooddetail","type":"tuple","internalType":"struct L_Good.S_GoodTmpState","components":[{"name":"goodConfig","type":"uint256","internalType":"uint256"},{"name":"owner","type":"address","internalType":"address"},{"name":"erc20address","type":"address","internalType":"address"},{"name":"currentState","type":"uint256","internalType":"T_BalanceUINT256"},{"name":"investState","type":"uint256","internalType":"T_BalanceUINT256"},{"name":"feeQunitityState","type":"uint256","internalType":"T_BalanceUINT256"}]}],"stateMutability":"view"},{"type":"function","name":"getProofState","inputs":[{"name":"proofid","type":"uint256","internalType":"uint256"}],"outputs":[{"name":"_proof","type":"tuple","internalType":"struct L_Proof.S_ProofState","components":[{"name":"currentgood","type":"uint256","internalType":"uint256"},{"name":"valuegood","type":"uint256","internalType":"uint256"},{"name":"state","type":"uint256","internalType":"T_BalanceUINT256"},{"name":"invest","type":"uint256","internalType":"T_BalanceUINT256"},{"name":"valueinvest","type":"uint256","internalType":"T_BalanceUINT256"},{"name":"beneficiary","type":"address","internalType":"address"}]}],"stateMutability":"view"},{"type":"function","name":"goodNum","inputs":[],"outputs":[{"name":"","type":"uint256","internalType":"uint256"}],"stateMutability":"view"},{"type":"function","name":"goodWelfare","inputs":[{"name":"goodid","type":"uint256","internalType":"uint256"},{"name":"welfare","type":"uint128","internalType":"uint128"}],"outputs":[],"stateMutability":"payable"},{"type":"function","name":"initGood","inputs":[{"name":"_valuegood","type":"uint256","internalType":"uint256"},{"name":"_initial","type":"uint256","internalType":"T_BalanceUINT256"},{"name":"_erc20address","type":"address","internalType":"address"},{"name":"_goodConfig","type":"uint256","internalType":"uint256"}],"outputs":[{"name":"","type":"bool","internalType":"bool"}],"stateMutability":"payable"},{"type":"function","name":"initMetaGood","inputs":[{"name":"_erc20address","type":"address","internalType":"address"},{"name":"_initial","type":"uint256","internalType":"T_BalanceUINT256"},{"name":"_goodConfig","type":"uint256","internalType":"uint256"}],"outputs":[{"name":"","type":"bool","internalType":"bool"}],"stateMutability":"payable"},{"type":"function","name":"investGood","inputs":[{"name":"_togood","type":"uint256","internalType":"uint256"},{"name":"_valuegood","type":"uint256","internalType":"uint256"},{"name":"_quantity","type":"uint128","internalType":"uint128"}],"outputs":[{"name":"","type":"bool","internalType":"bool"}],"stateMutability":"payable"},{"type":"function","name":"isApprovedForAll","inputs":[{"name":"owner","type":"address","internalType":"address"},{"name":"operator","type":"address","internalType":"address"}],"outputs":[{"name":"","type":"bool","internalType":"bool"}],"stateMutability":"view"},{"type":"function","name":"marketconfig","inputs":[],"outputs":[{"name":"","type":"uint256","internalType":"uint256"}],"stateMutability":"view"},{"type":"function","name":"marketcreator","inputs":[],"outputs":[{"name":"","type":"address","internalType":"address"}],"stateMutability":"view"},{"type":"function","name":"multicall","inputs":[{"name":"data","type":"bytes[]","internalType":"bytes[]"}],"outputs":[{"name":"results","type":"bytes[]","internalType":"bytes[]"}],"stateMutability":"payable"},{"type":"function","name":"name","inputs":[],"outputs":[{"name":"","type":"string","internalType":"string"}],"stateMutability":"view"},{"type":"function","name":"nonces","inputs":[{"name":"tokenId","type":"uint256","internalType":"uint256"}],"outputs":[{"name":"","type":"uint256","internalType":"uint256"}],"stateMutability":"view"},{"type":"function","name":"ownerOf","inputs":[{"name":"tokenId","type":"uint256","internalType":"uint256"}],"outputs":[{"name":"","type":"address","internalType":"address"}],"stateMutability":"view"},{"type":"function","name":"payGood","inputs":[{"name":"_goodid","type":"uint256","internalType":"uint256"},{"name":"_payquanity","type":"uint256","internalType":"uint256"},{"name":"_recipent","type":"address","internalType":"address"}],"outputs":[{"name":"","type":"bool","internalType":"bool"}],"stateMutability":"payable"},{"type":"function","name":"permit","inputs":[{"name":"spender","type":"address","internalType":"address"},{"name":"tokenId","type":"uint256","internalType":"uint256"},{"name":"deadline","type":"uint256","internalType":"uint256"},{"name":"signature","type":"bytes","internalType":"bytes"}],"outputs":[],"stateMutability":"nonpayable"},{"type":"function","name":"proofmapping","inputs":[{"name":"","type":"uint256","internalType":"uint256"}],"outputs":[{"name":"","type":"uint256","internalType":"uint256"}],"stateMutability":"view"},{"type":"function","name":"referals","inputs":[{"name":"","type":"address","internalType":"address"}],"outputs":[{"name":"","type":"address","internalType":"address"}],"stateMutability":"view"},{"type":"function","name":"removebanlist","inputs":[{"name":"_user","type":"address","internalType":"address"}],"outputs":[{"name":"","type":"bool","internalType":"bool"}],"stateMutability":"nonpayable"},{"type":"function","name":"safeTransferFrom","inputs":[{"name":"from","type":"address","internalType":"address"},{"name":"to","type":"address","internalType":"address"},{"name":"tokenId","type":"uint256","internalType":"uint256"}],"outputs":[],"stateMutability":"nonpayable"},{"type":"function","name":"safeTransferFrom","inputs":[{"name":"from","type":"address","internalType":"address"},{"name":"to","type":"address","internalType":"address"},{"name":"proofid","type":"uint256","internalType":"uint256"},{"name":"data","type":"bytes","internalType":"bytes"}],"outputs":[],"stateMutability":"nonpayable"},{"type":"function","name":"safeTransferFromWithPermit","inputs":[{"name":"from","type":"address","internalType":"address"},{"name":"to","type":"address","internalType":"address"},{"name":"tokenId","type":"uint256","internalType":"uint256"},{"name":"_data","type":"bytes","internalType":"bytes"},{"name":"deadline","type":"uint256","internalType":"uint256"},{"name":"signature","type":"bytes","internalType":"bytes"}],"outputs":[],"stateMutability":"nonpayable"},{"type":"function","name":"setApprovalForAll","inputs":[{"name":"operator","type":"address","internalType":"address"},{"name":"approved","type":"bool","internalType":"bool"}],"outputs":[],"stateMutability":"nonpayable"},{"type":"function","name":"setMarketConfig","inputs":[{"name":"_marketconfig","type":"uint256","internalType":"uint256"}],"outputs":[{"name":"","type":"bool","internalType":"bool"}],"stateMutability":"nonpayable"},{"type":"function","name":"supportsInterface","inputs":[{"name":"interfaceId","type":"bytes4","internalType":"bytes4"}],"outputs":[{"name":"","type":"bool","internalType":"bool"}],"stateMutability":"view"},{"type":"function","name":"symbol","inputs":[],"outputs":[{"name":"","type":"string","internalType":"string"}],"stateMutability":"view"},{"type":"function","name":"tokenURI","inputs":[{"name":"tokenId","type":"uint256","internalType":"uint256"}],"outputs":[{"name":"","type":"string","internalType":"string"}],"stateMutability":"view"},{"type":"function","name":"totalSupply","inputs":[],"outputs":[{"name":"","type":"uint256","internalType":"uint256"}],"stateMutability":"view"},{"type":"function","name":"transferFrom","inputs":[{"name":"from","type":"address","internalType":"address"},{"name":"to","type":"address","internalType":"address"},{"name":"proofid","type":"uint256","internalType":"uint256"}],"outputs":[],"stateMutability":"nonpayable"},{"type":"function","name":"updateGoodConfig","inputs":[{"name":"_goodid","type":"uint256","internalType":"uint256"},{"name":"_goodConfig","type":"uint256","internalType":"uint256"}],"outputs":[{"name":"","type":"bool","internalType":"bool"}],"stateMutability":"nonpayable"},{"type":"function","name":"updatetoNormalGood","inputs":[{"name":"_goodid","type":"uint256","internalType":"uint256"}],"outputs":[{"name":"","type":"bool","internalType":"bool"}],"stateMutability":"nonpayable"},{"type":"function","name":"updatetoValueGood","inputs":[{"name":"_goodid","type":"uint256","internalType":"uint256"}],"outputs":[{"name":"","type":"bool","internalType":"bool"}],"stateMutability":"nonpayable"},{"type":"event","name":"Approval","inputs":[{"name":"owner","type":"address","indexed":true,"internalType":"address"},{"name":"approved","type":"address","indexed":true,"internalType":"address"},{"name":"tokenId","type":"uint256","indexed":true,"internalType":"uint256"}],"anonymous":false},{"type":"event","name":"ApprovalForAll","inputs":[{"name":"owner","type":"address","indexed":true,"internalType":"address"},{"name":"operator","type":"address","indexed":true,"internalType":"address"},{"name":"approved","type":"bool","indexed":false,"internalType":"bool"}],"anonymous":false},{"type":"event","name":"EIP712DomainChanged","inputs":[],"anonymous":false},{"type":"event","name":"Transfer","inputs":[{"name":"from","type":"address","indexed":true,"internalType":"address"},{"name":"to","type":"address","indexed":true,"internalType":"address"},{"name":"tokenId","type":"uint256","indexed":true,"internalType":"uint256"}],"anonymous":false},{"type":"event","name":"e_addbanlist","inputs":[{"name":"_user","type":"address","indexed":false,"internalType":"address"}],"anonymous":false},{"type":"event","name":"e_addreferal","inputs":[{"name":"referals","type":"address","indexed":false,"internalType":"address"}],"anonymous":false},{"type":"event","name":"e_buyGood","inputs":[{"name":"sellgood","type":"uint256","indexed":true,"internalType":"uint256"},{"name":"forgood","type":"uint256","indexed":true,"internalType":"uint256"},{"name":"fromer","type":"address","indexed":false,"internalType":"address"},{"name":"swapvalue","type":"uint128","indexed":false,"internalType":"uint128"},{"name":"sellgoodstate","type":"uint256","indexed":false,"internalType":"T_BalanceUINT256"},{"name":"forgoodstate","type":"uint256","indexed":false,"internalType":"T_BalanceUINT256"}],"anonymous":false},{"type":"event","name":"e_buyGoodForPay","inputs":[{"name":"buygood","type":"uint256","indexed":true,"internalType":"uint256"},{"name":"usegood","type":"uint256","indexed":true,"internalType":"uint256"},{"name":"fromer","type":"address","indexed":false,"internalType":"address"},{"name":"receipt","type":"address","indexed":false,"internalType":"address"},{"name":"swapvalue","type":"uint128","indexed":false,"internalType":"uint128"},{"name":"buygoodstate","type":"uint256","indexed":false,"internalType":"T_BalanceUINT256"},{"name":"usegoodstate","type":"uint256","indexed":false,"internalType":"T_BalanceUINT256"}],"anonymous":false},{"type":"event","name":"e_changeOwner","inputs":[{"name":"_goodid","type":"uint256","indexed":true,"internalType":"uint256"},{"name":"_owner","type":"address","indexed":false,"internalType":"address"},{"name":"_to","type":"address","indexed":false,"internalType":"address"}],"anonymous":false},{"type":"event","name":"e_collectProof","inputs":[{"name":"_proofNo","type":"uint256","indexed":true,"internalType":"uint256"},{"name":"_normalGoodNo","type":"uint256","indexed":false,"internalType":"uint256"},{"name":"_valueGoodNo","type":"uint256","indexed":false,"internalType":"uint256"},{"name":"_profit","type":"uint256","indexed":false,"internalType":"T_BalanceUINT256"}],"anonymous":false},{"type":"event","name":"e_collectProtocolFee","inputs":[{"name":"goodid","type":"uint256","indexed":false,"internalType":"uint256"},{"name":"feeamount","type":"uint256","indexed":false,"internalType":"uint256"}],"anonymous":false},{"type":"event","name":"e_disinvestProof","inputs":[{"name":"_proofNo","type":"uint256","indexed":true,"internalType":"uint256"},{"name":"_normalGoodNo","type":"uint256","indexed":false,"internalType":"uint256"},{"name":"_valueGoodNo","type":"uint256","indexed":false,"internalType":"uint256"},{"name":"_normalgood","type":"uint256","indexed":false,"internalType":"T_BalanceUINT256"},{"name":"_valuegood","type":"uint256","indexed":false,"internalType":"T_BalanceUINT256"},{"name":"_profit","type":"uint256","indexed":false,"internalType":"T_BalanceUINT256"}],"anonymous":false},{"type":"event","name":"e_enpower","inputs":[{"name":"_goodid","type":"uint256","indexed":false,"internalType":"uint256"},{"name":"_valuegood","type":"uint256","indexed":false,"internalType":"uint256"},{"name":"_quantity","type":"uint256","indexed":false,"internalType":"uint256"},{"name":"_sender","type":"address","indexed":false,"internalType":"address"}],"anonymous":false},{"type":"event","name":"e_goodWelfare","inputs":[{"name":"goodid","type":"uint256","indexed":false,"internalType":"uint256"},{"name":"welfare","type":"uint128","indexed":false,"internalType":"uint128"}],"anonymous":false},{"type":"event","name":"e_initGood","inputs":[{"name":"_proofNo","type":"uint256","indexed":true,"internalType":"uint256"},{"name":"_normalgoodNo","type":"uint256","indexed":false,"internalType":"uint256"},{"name":"_valuegoodNo","type":"uint256","indexed":false,"internalType":"uint256"},{"name":"_erc20address","type":"address","indexed":false,"internalType":"address"},{"name":"_goodConfig","type":"uint256","indexed":false,"internalType":"uint256"},{"name":"_normalinitial","type":"uint256","indexed":false,"internalType":"T_BalanceUINT256"},{"name":"_value","type":"uint256","indexed":false,"internalType":"T_BalanceUINT256"}],"anonymous":false},{"type":"event","name":"e_initMetaGood","inputs":[{"name":"_proofNo","type":"uint256","indexed":true,"internalType":"uint256"},{"name":"_goodNo","type":"uint256","indexed":false,"internalType":"uint256"},{"name":"_erc20address","type":"address","indexed":false,"internalType":"address"},{"name":"_goodConfig","type":"uint256","indexed":false,"internalType":"uint256"},{"name":"_initial","type":"uint256","indexed":false,"internalType":"T_BalanceUINT256"}],"anonymous":false},{"type":"event","name":"e_investGood","inputs":[{"name":"_proofNo","type":"uint256","indexed":true,"internalType":"uint256"},{"name":"_normalGoodNo","type":"uint256","indexed":false,"internalType":"uint256"},{"name":"_valueGoodNo","type":"uint256","indexed":false,"internalType":"uint256"},{"name":"_invest","type":"uint256","indexed":false,"internalType":"T_BalanceUINT256"},{"name":"_valueinvest","type":"uint256","indexed":false,"internalType":"T_BalanceUINT256"}],"anonymous":false},{"type":"event","name":"e_removebanlist","inputs":[{"name":"_user","type":"address","indexed":false,"internalType":"address"}],"anonymous":false},{"type":"event","name":"e_setMarketConfig","inputs":[{"name":"_marketconfig","type":"uint256","indexed":false,"internalType":"uint256"}],"anonymous":false},{"type":"event","name":"e_updateGoodConfig","inputs":[{"name":"_goodid","type":"uint256","indexed":false,"internalType":"uint256"},{"name":"_goodConfig","type":"uint256","indexed":false,"internalType":"uint256"}],"anonymous":false},{"type":"event","name":"e_updatetoNormalGood","inputs":[{"name":"_goodid","type":"uint256","indexed":false,"internalType":"uint256"}],"anonymous":false},{"type":"event","name":"e_updatetoValueGood","inputs":[{"name":"_goodid","type":"uint256","indexed":false,"internalType":"uint256"}],"anonymous":false},{"type":"error","name":"ERC20TransferFailed","inputs":[]},{"type":"error","name":"InvalidShortString","inputs":[]},{"type":"error","name":"NativeTransferFailed","inputs":[]},{"type":"error","name":"StringTooLong","inputs":[{"name":"str","type":"string","internalType":"string"}]},{"type":"error","name":"err_total","inputs":[]}],"bytecode":{"object":"0x6101806040527f49ecf333e5b8c95c40fdafc95c1ad136e8914a8fb55e9dc8bb01eaa83a2df9ad61016052348015610035575f80fd5b5060405161675438038061675483398101604081905261005491610218565b604080518082018252600780825266151514c813919560ca1b60208084019190915283518085018552600381526254545360e81b81830152845180860190955260018552603160f81b91850191909152600280546001600160a01b0319166001600160a01b0388161790555f85905591928391829084906100d583826102e7565b5060086100e282826102e7565b506100f29150839050600d6101a0565b6101205261010181600e6101a0565b61014052815160208084019190912060e052815190820120610100524660a05261018d60e05161010051604080517f8b73c3c69bb8fe3d512ecc4cf759cc79239f7b179b0ffacaa9a75d522b39400f60208201529081019290925260608201524660808201523060a08201525f9060c00160405160208183030381529060405280519060200120905090565b60805250503060c052506103f992505050565b5f6020835110156101bb576101b4836101d2565b90506101cc565b816101c684826102e7565b5060ff90505b92915050565b5f80829050601f81511115610205578260405163305a27a960e01b81526004016101fc91906103a1565b60405180910390fd5b8051610210826103d6565b179392505050565b5f8060408385031215610229575f80fd5b82516001600160a01b038116811461023f575f80fd5b6020939093015192949293505050565b634e487b7160e01b5f52604160045260245ffd5b600181811c9082168061027757607f821691505b60208210810361029557634e487b7160e01b5f52602260045260245ffd5b50919050565b601f8211156102e257805f5260205f20601f840160051c810160208510156102c05750805b601f840160051c820191505b818110156102df575f81556001016102cc565b50505b505050565b81516001600160401b038111156103005761030061024f565b6103148161030e8454610263565b8461029b565b6020601f821160018114610346575f831561032f5750848201515b5f19600385901b1c1916600184901b1784556102df565b5f84815260208120601f198516915b828110156103755787850151825560209485019460019092019101610355565b508482101561039257868401515f19600387901b60f8161c191681555b50505050600190811b01905550565b602081525f82518060208401528060208501604085015e5f604082850101526040601f19601f83011684010191505092915050565b80516020808301519190811015610295575f1960209190910360031b1b16919050565b60805160a05160c05160e051610100516101205161014051610160516163006104545f395f6138a601525f611f1c01525f611ef101525f613aa401525f613a7c01525f6139d701525f613a0101525f613a2b01526163005ff3fe6080604052600436106102ed575f3560e01c80634ffef9071161018657806395d89b41116100dc578063ac9650d811610087578063c87b56dd11610062578063c87b56dd146108e3578063e985e9c514610902578063f44733ad14610949575f80fd5b8063ac9650d814610885578063b153b920146108a5578063b88d4fde146108c4575f80fd5b8063a22cb465116100b7578063a22cb465146107d7578063a6f6a980146107f6578063a7e1169714610872575f80fd5b806395d89b411461077c57806397924ead14610790578063a128fcf2146107a3575f80fd5b8063745a41bc1161013c5780638e126f73116101175780638e126f731461072b578063920acbb81461074a5780639551177a1461075d575f80fd5b8063745a41bc146106c65780637f0a8265146106e557806384b0196e14610704575f80fd5b80635e008cc41161016c5780635e008cc41461065d5780636352211e1461068857806370a08231146106a7575f80fd5b80634ffef907146106355780635a5da4dd14610648575f80fd5b806318ad50d1116102465780633644e515116101f1578063402f5ab5116101cc578063402f5ab5146105e357806342842e0e146105f757806345818e4c14610616575f80fd5b80633644e5151461053d5780633d995173146105515780633f11774014610570575f80fd5b806324744d541161022157806324744d54146104d45780632973ada7146104f35780632a7c5a911461051e575f80fd5b806318ad50d11461046f5780631eccc39b1461048257806323b872dd146104b5575f80fd5b80630a25dcff116102a6578063144aeb8311610281578063144aeb8314610428578063167639861461044757806318160ddd1461045a575f80fd5b80630a25dcff146103cb578063141a468c146103ea57806314484e1014610409575f80fd5b806306fdde03116102d657806306fdde0314610352578063081812fc14610373578063095ea7b3146103aa575f80fd5b806301ffc9a7146102f15780630292eb4a14610325575b5f80fd5b3480156102fc575f80fd5b5061031061030b3660046158e9565b61095c565b60405190151581526020015b60405180910390f35b348015610330575f80fd5b5061034461033f366004615904565b610986565b60405190815260200161031c565b34801561035d575f80fd5b50610366610a2a565b60405161031c9190615949565b34801561037e575f80fd5b5061039261038d366004615904565b610aba565b6040516001600160a01b03909116815260200161031c565b3480156103b5575f80fd5b506103c96103c4366004615976565b610adf565b005b3480156103d6575f80fd5b506103106103e5366004615904565b610bf8565b3480156103f5575f80fd5b50610344610404366004615904565b610c8c565b348015610414575f80fd5b50610310610423366004615904565b610c9f565b348015610433575f80fd5b5061031061044236600461599e565b610d27565b6103106104553660046159d4565b610dce565b348015610465575f80fd5b5061034460105481565b6103c961047d366004615a06565b610f66565b610495610490366004615a3f565b611071565b604080516001600160801b0393841681529290911660208301520161031c565b3480156104c0575f80fd5b506103c96104cf366004615a8b565b6112f7565b3480156104df575f80fd5b506103c96104ee366004615b83565b6114fe565b3480156104fe575f80fd5b5061034461050d366004615c19565b60056020525f908152604090205481565b348015610529575f80fd5b50610310610538366004615c32565b61151e565b348015610548575f80fd5b50610344611594565b34801561055c575f80fd5b50600254610392906001600160a01b031681565b34801561057b575f80fd5b5061058f61058a366004615904565b6115a2565b60405161031c91905f60c08201905082518252602083015160208301526040830151604083015260608301516060830152608083015160808301526001600160a01b0360a08401511660a083015292915050565b3480156105ee575f80fd5b506103445f5481565b348015610602575f80fd5b506103c9610611366004615a8b565b61163f565b348015610621575f80fd5b50610310610630366004615904565b611659565b610310610643366004615c53565b6116cf565b348015610653575f80fd5b5061034460015481565b348015610668575f80fd5b50610344610677366004615904565b60126020525f908152604090205481565b348015610693575f80fd5b506103926106a2366004615904565b611a85565b3480156106b2575f80fd5b506103446106c1366004615c19565b611ae9565b3480156106d1575f80fd5b506103c96106e0366004615c8d565b611b81565b3480156106f0575f80fd5b506103106106ff366004615cea565b611b93565b34801561070f575f80fd5b50610718611ee4565b60405161031c9796959493929190615d34565b348015610736575f80fd5b50610344610745366004615dca565b611f6b565b610310610758366004615dfa565b6121e5565b348015610768575f80fd5b50610310610777366004615c19565b61223c565b348015610787575f80fd5b506103666122c8565b61031061079e366004615e23565b6122d7565b3480156107ae575f80fd5b506103926107bd366004615c19565b60066020525f90815260409020546001600160a01b031681565b3480156107e2575f80fd5b506103c96107f1366004615e53565b6124c9565b348015610801575f80fd5b50610815610810366004615904565b6124d8565b60405161031c91905f60c082019050825182526001600160a01b0360208401511660208301526001600160a01b036040840151166040830152606083015160608301526080830151608083015260a083015160a083015292915050565b610495610880366004615e7b565b612579565b610898610893366004615ebb565b6127e1565b60405161031c9190615f2c565b3480156108b0575f80fd5b506103106108bf366004615c19565b612928565b3480156108cf575f80fd5b506103c96108de366004615f8f565b6129b6565b3480156108ee575f80fd5b506103666108fd366004615904565b612bbf565b34801561090d575f80fd5b5061031061091c366004615fdb565b6001600160a01b039182165f908152600c6020908152604080832093909416825291909152205460ff1690565b6103106109573660046159d4565b612c22565b5f6001600160e01b03198216635604e22560e01b1480610980575061098082612fc0565b92915050565b5f8181526003602081815260408084203380865260068201845291852080546fffffffffffffffffffffffffffffffff19811690915594869052929091526002909101546001600160801b03909216916109ec916001600160a01b03909116908361300f565b60408051838152602081018390527fe5b56551be531c17d0c26ed5b513b4756c152f2ec216bd76db42f90ad317513a910160405180910390a1919050565b606060078054610a3990616003565b80601f0160208091040260200160405190810160405280929190818152602001828054610a6590616003565b8015610ab05780601f10610a8757610100808354040283529160200191610ab0565b820191905f5260205f20905b815481529060010190602001808311610a9357829003601f168201915b5050505050905090565b5f610ac4826130a1565b505f908152600b60205260409020546001600160a01b031690565b5f610ae982611a85565b9050806001600160a01b0316836001600160a01b031603610b5b5760405162461bcd60e51b815260206004820152602160248201527f4552433732313a20617070726f76616c20746f2063757272656e74206f776e656044820152603960f91b60648201526084015b60405180910390fd5b336001600160a01b0382161480610b775750610b77813361091c565b610be95760405162461bcd60e51b815260206004820152603d60248201527f4552433732313a20617070726f76652063616c6c6572206973206e6f7420746f60448201527f6b656e206f776e6572206f7220617070726f76656420666f7220616c6c0000006064820152608401610b52565b610bf38383613107565b505050565b6002545f906001600160a01b03163314610c3a5760405162461bcd60e51b815260206004820152600360248201526223981960e91b6044820152606401610b52565b5f828152600360205260409020610c5090613174565b6040518281527f0a838ff9b50f80fde9fe2adbd3d7722a295d5dca4efb862809ffc0c96449676a906020015b60405180910390a1506001919050565b5f818152600f6020526040812054610980565b6002545f906001600160a01b03163314610ce15760405162461bcd60e51b815260206004820152600360248201526223981960e91b6044820152606401610b52565b5f828152600360205260409020610cf7906131d4565b6040518281527f6a4f4670c5457b20fe7a61d9e026a5137a927eef5fa719db8702fafad694b39390602001610c7c565b5f828152600360205260408120600101546001600160a01b03163314610d755760405162461bcd60e51b815260206004820152600360248201526211cc0d60ea1b6044820152606401610b52565b5f838152600360205260409020610d8c9083613223565b60408051848152602081018490527fc360eef79f1e7d7e7564e3cd446a9839f5a632a38a4d34b507c08e1ceef46147910160405180910390a150600192915050565b5f6004545f14610e065760405162461bcd60e51b815260206004820152600360248201526247303160e81b6044820152606401610b52565b60016004555f83815260036020526040902054610e2290613242565b610e535760405162461bcd60e51b8152602060048201526002602482015261269960f11b6044820152606401610b52565b5f83815260036020526040902060020154610e81906001600160a01b0316336001600160801b03851661325f565b5f83815260036020819052604082200154610e9c908461326c565b5f8581526003602081905260409091200154909150610ec9906001600160801b0385166132e1565b6132e1565b5f8581526003602081905260408083208201939093558782529190200154610ef590608083901b6132e1565b5f868152600360208181526040928390209091019290925580518781529182018690526001600160801b03851682820152336060830152517f5b85f3145546d3198a678943b90fc02170cb5b5b03d3819e92fe2997ebae79a79181900360800190a150505f60045550600192915050565b60045415610f9c5760405162461bcd60e51b815260206004820152600360248201526247303160e81b6044820152606401610b52565b60016004555f828152600360205260409020600501546d200000000000000000000000000090610fd090839060801c61604f565b6001600160801b0316111561100d5760405162461bcd60e51b815260206004820152600360248201526223981b60e91b6044820152606401610b52565b5f8281526003602052604090206002015461103b906001600160a01b0316336001600160801b03841661325f565b5f8281526003602052604090206005015461105a90608083901b6132e1565b5f9283526003602052604083206005015550600455565b5f806004545f146110aa5760405162461bcd60e51b815260206004820152600360248201526247303160e81b6044820152606401610b52565b600160045560408051610100810182526001600160801b03871681525f6020808301829052828401829052606083018290528a825260038082528483208082015460808601525460a08501528a83528082529382208085015460c0850152918a905292909252905460e0820152611121818661330d565b9050600184151514801561113e575080516001600160801b031615155b1561115c57604051632af75bb760e11b815260040160405180910390fd5b6020808201515f898152600390925260409091205461118f916001600160801b031661271060e99290921c607f16020490565b91508181602001516111a1919061606e565b60808201516040808401515f8c81526003602052919091209295506111c792919061364f565b60c08101515f8881526003602052604090206111e3918461364f565b805161121f9033906111f5908961606e565b5f8b8152600360205260409020600201546001600160a01b031691906001600160801b031661325f565b5f8781526003602052604090206002015461124d906001600160a01b0316336001600160801b03861661300f565b86887fa79c43e220b5faf022716b06e757294b799a25f33d3c8b0121e614f7b5d988c43384606001516112a0865f01518c611288919061606e565b60408801516001600160801b031660809190911b1790565b6001600160801b03881660808a901b17604080516001600160a01b0390951685526001600160801b0390931660208501529183015260608201526080015b60405180910390a3505f60045590969095509350505050565b6113013382613676565b6113635760405162461bcd60e51b815260206004820152602d60248201527f4552433732313a2063616c6c6572206973206e6f7420746f6b656e206f776e6560448201526c1c881bdc88185c1c1c9bdd9959609a1b6064820152608401610b52565b61136e8383836136f2565b5f8181526011602081815260408084206005810180546001600160a01b031916905581516060810183526001600160a01b038916815281548185015286865293909252600190910154908201526113c490613711565b604080516060810182526001600160a01b03861681525f8581526011602081815284832080548286015288845291905260010154928201929092529192509061140c90613711565b5f818152601260205260408120549192500361143c575f82815260126020526040808220548383529120556114b0565b5f83815260116020818152604080842085855260128352818520548552929091529091206114699161375d565b5f838152601160205260408120818155600181018290556002810182905560038101829055600481019190915560050180546001600160a01b03191690556114b0836137af565b5f828152601260205260408082208290555184916001600160a01b0380881692908916917fddf252ad1be2c89b69c2b068fc378daa952ba7f163c4a11628f55a4df523b3ef91a45050505050565b61150a33858484613841565b611516868686866129b6565b505050505050565b6002545f906001600160a01b031633146115605760405162461bcd60e51b815260206004820152600360248201526247303560e81b6044820152606401610b52565b505f828152600360205260409020600190810180546001600160a01b0384166001600160a01b031990911617905592915050565b5f61159d6139cb565b905090565b6115de6040518060c001604052805f81526020015f81526020015f81526020015f81526020015f81526020015f6001600160a01b031681525090565b505f90815260116020908152604091829020825160c0810184528154815260018201549281019290925260028101549282019290925260038201546060820152600482015460808201526005909101546001600160a01b031660a082015290565b610bf383838360405180602001604052805f8152506129b6565b6002545f906001600160a01b0316331461169b5760405162461bcd60e51b815260206004820152600360248201526223981960e91b6044820152606401610b52565b5f8290556040518281527fbd209961024f2694b0afb3c8badd20b6477abb77b336b16892c3fa4b906d323c90602001610c7c565b5f6004545f146117075760405162461bcd60e51b815260206004820152600360248201526247303160e81b6044820152606401610b52565b6001600455604080518082019091523381526001600160a01b03841660208201525f9061173390613af4565b5f818152600360205260409020600101549091506001600160a01b031615801561176f57505f8681526003602052604090205461176f90613242565b6117a15760405162461bcd60e51b815260206004820152600360248201526226981960e91b6044820152606401610b52565b6117c9336117af8760801c90565b6001600160a01b03871691906001600160801b031661325f565b5f868152600360205260409020600201546117f7906001600160a01b0316336001600160801b03881661325f565b5f86815260036020526040812061180e9087613b24565b90506001805f828254611821919061608d565b925050819055506118ac611850826040015161183d8960801c90565b6001600160801b031660809190911b1790565b5f8481526003602052604090209087876003840183905560048401929092556001600160fc1b0390911682556002820180546001600160a01b039092166001600160a01b03199283161790556001909101805490911633179055565b600160105f8282546118be919061608d565b909155505060408051606081018252338152602081018490529081018890525f906118e890613711565b6010545f828152601260205260409020819055909150611909903390613c78565b6040805160c081018252848152602081018a905283820151909182019060801b815260200161193c5f61183d8b60801c90565b81526020016119638460200151856060015160809190911b6001600160801b039091161790565b81525f60209182018190526010805482526011835260409182902084518155928401516001840155908301516002830155606083015160038301556080830151600483015560a090920151600590910180546001600160a01b03929092166001600160a01b0319909216919091179055547fd5b1190461e8b8cebdd658c8dd4f092c64be24d6dae8d80a4174dad7899a814e848a8989611a1e611a068e60801c90565b60408a01516001600160801b031660809190911b1790565b885160608a01516001600160801b031660809190911b176040805196875260208701959095526001600160a01b03909316938501939093526060840152608083019190915260a082015260c00160405180910390a250505f60045550600195945050505050565b5f818152600960205260408120546001600160a01b0316806109805760405162461bcd60e51b815260206004820152601860248201527f4552433732313a20696e76616c696420746f6b656e20494400000000000000006044820152606401610b52565b5f6001600160a01b038216611b665760405162461bcd60e51b815260206004820152602960248201527f4552433732313a2061646472657373207a65726f206973206e6f74206120766160448201527f6c6964206f776e657200000000000000000000000000000000000000000000006064820152608401610b52565b506001600160a01b03165f908152600a602052604090205490565b611b8d84848484613841565b50505050565b5f6004545f14611bcb5760405162461bcd60e51b815260206004820152600360248201526247303160e81b6044820152606401610b52565b6001600455611bda3386613676565b611c0c5760405162461bcd60e51b81526020600482015260036024820152624d303560e81b6044820152606401610b52565b60408051606080820183525f8083526020808401829052838501829052845192830185528183528281018290528285018290528982526011815284822080546001918201546001600160a01b038b1685526005909352959092205493949293909114611c83576002546001600160a01b0316611c85565b865b335f908152600660205260409020549097506001600160a01b0316611cd057335f90815260066020526040902080546001600160a01b0319166001600160a01b038816179055611d21565b335f908152600660209081526040918290205491516001600160a01b0390921680835297507f7da361ef032ddb975b4fa950921c1ecb79041d004acea71333e2dac6ec917c98910160405180910390a15b856001600160a01b0316876001600160a01b031614611d405785611d4d565b6002546001600160a01b03165b6001600160a01b0381165f90815260056020526040902054909650600114611d80576002546001600160a01b0316611d82565b855b9550611e2a60035f8381526020019081526020015f2060115f8c81526020019081526020015f206040518060a001604052808c6001600160801b031681526020018b6001600160a01b031681526020018a6001600160a01b031681526020015f54815260200160025f9054906101000a90046001600160a01b03166001600160a01b031681525060035f8781526020019081526020015f20613e00909392919063ffffffff16565b8094508195505050887f873170cbb945d9e0c4d7269b4b4ecac9684242d175cafda5c12b7cce181e26828383611e788860200151896040015160809190911b6001600160801b039091161790565b602088015160408901516001600160801b031660809190911b17895189516001600160801b031660809190911b17604080519586526020860194909452928401919091526060830152608082015260a00160405180910390a250505f6004555060019695505050505050565b5f60608082808083611f177f0000000000000000000000000000000000000000000000000000000000000000600d614322565b611f427f0000000000000000000000000000000000000000000000000000000000000000600e614322565b604080515f80825260208201909252600f60f81b9b939a50919850469750309650945092509050565b5f6004545f14611fa35760405162461bcd60e51b815260206004820152600360248201526247303160e81b6044820152606401610b52565b6001600455611fb23385613676565b80611fd557505f848152601160205260409020600501546001600160a01b031633145b6120075760405162461bcd60e51b81526020600482015260036024820152624d303960e81b6044820152606401610b52565b5f84815260116020908152604080832060018082015491546001600160a01b03891686526005909452919093205414612040578461204d565b6002546001600160a01b03165b335f908152600660205260409020549095506001600160a01b031661209857335f90815260066020526040902080546001600160a01b0319166001600160a01b0386161790556120e9565b335f908152600660209081526040918290205491516001600160a01b0390921680835295507f7da361ef032ddb975b4fa950921c1ecb79041d004acea71333e2dac6ec917c98910160405180910390a15b836001600160a01b0316856001600160a01b0316146121085783612115565b6002546001600160a01b03165b6001600160a01b0381165f90815260056020526040902054909450600114612148576002546001600160a01b031661214a565b835b5f8381526003602081815260408084208b8552601183528185208554600254898852959094529190942094985061219294939290918a918a91906001600160a01b03166143cb565b604080518381526020810185905290810182905290935086907f172f458c2c853ed38b0114381270db7647bc1f9b612a42852353261a7e3379be9060600160405180910390a250505f6004559392505050565b5f838152600360205260408120600201546001600160a01b031615612232575f8481526003602052604090206002015461222a906001600160a01b03163384866144ba565b506001612235565b505f5b9392505050565b6002545f906001600160a01b0316331461227e5760405162461bcd60e51b815260206004820152600360248201526223981960e91b6044820152606401610b52565b6001600160a01b0382165f8181526005602090815260408083209290925590519182527e4ba2ca448db089eb9fb0b25431f0d57664d46141171fed2476281b578d96d49101610c7c565b606060088054610a3990616003565b6002545f906001600160a01b0316331480156122f757506122f782613242565b6123295760405162461bcd60e51b815260206004820152600360248201526223981960e91b6044820152606401610b52565b61233333846117af565b6001805f828254612344919061608d565b9091555050604080518082019091523381526001600160a01b03851660208201525f9061237090613af4565b5f818152600360208190526040909120908101869055600481018690556001600160fc1b03851681556002810180546001600160a01b0389166001600160a01b031991821617909155600182018054909116331790559091506123d290613174565b600160105f8282546123e4919061608d565b909155505060408051606081018252338152602081018390525f91810182905261240d90613711565b6010545f82815260126020526040902081905590915061242e903390613c78565b61246a825f6124466124408960801c90565b60801b90565b6124505f8a61183d565b6010545f908152601160205260408120949392919061455f565b601054604080518481526001600160a01b0389166020820152908101869052606081018790527f9f234216268c7b4b9373c01c9d1cc757d055e68b6440edbaaf229c63a0313bc79060800160405180910390a250600195945050505050565b6124d43383836145cd565b5050565b61251d6040518060c001604052805f81526020015f6001600160a01b031681526020015f6001600160a01b031681526020015f81526020015f81526020015f81525090565b5f8281526003602081815260408084208054865260018101546001600160a01b0390811687850152600282015416918601919091528083015460608601526004810154608086015294909252905260059091015460a082015290565b5f806004545f146125b25760405162461bcd60e51b815260206004820152600360248201526247303160e81b6044820152606401610b52565b600160045560408051610100810182526001600160801b03871681525f6020808301829052828401829052606083018290528a825260038082528483208082015460808601525460a08501528a83528082529382208085015460c0850152918a905292909252905460e0820152612629818661469a565b80519091506001600160801b03161561265557604051632af75bb760e11b815260040160405180910390fd5b6020808201515f8a81526003909252604090912054612688916001600160801b031661271060e29290921c607f16020490565b915081816020015161269a919061604f565b60c08201516040808401515f8b81526003602052919091209295506126c092919061364f565b60808101515f8981526003602052604090206126dc918461364f565b61271a848260400151886126f0919061606e565b5f8a8152600360205260409020600201546001600160a01b031691906001600160801b031661300f565b5f88815260036020526040902060020154612748906001600160a01b0316336001600160801b03861661325f565b86887f3de590341c976ea6fce618ef4a768a15441201ad3ed7c9b438d82c3951de7ced338785606001516127908c886040015160809190911b6001600160801b039091161790565b6001600160801b03891660808b901b17604080516001600160a01b0396871681529590941660208601526001600160801b03909216928401929092526060830191909152608082015260a0016112de565b60608167ffffffffffffffff8111156127fc576127fc615ac5565b60405190808252806020026020018201604052801561282f57816020015b606081526020019060019003908161281a5790505b5090505f5b82811015612921575f8030868685818110612851576128516160a0565b905060200281019061286391906160b4565b6040516128719291906160f7565b5f60405180830381855af49150503d805f81146128a9576040519150601f19603f3d011682016040523d82523d5f602084013e6128ae565b606091505b5091509150816128f9576044815110156128c6575f80fd5b600481019050808060200190518101906128e09190616106565b60405162461bcd60e51b8152600401610b529190615949565b8084848151811061290c5761290c6160a0565b60209081029190910101525050600101612834565b5092915050565b6002545f906001600160a01b0316331461296a5760405162461bcd60e51b815260206004820152600360248201526223981960e91b6044820152606401610b52565b6001600160a01b0382165f818152600560209081526040918290206001905590519182527f8e1c2d1a5dce36a56a9dfcb96e5816e793c16d6c897b4e3c0b1f99588bb88a1c9101610c7c565b6129c03383613676565b612a225760405162461bcd60e51b815260206004820152602d60248201527f4552433732313a2063616c6c6572206973206e6f7420746f6b656e206f776e6560448201526c1c881bdc88185c1c1c9bdd9959609a1b6064820152608401610b52565b612a2e848484846148fc565b5f8281526011602081815260408084206005810180546001600160a01b031916905581516060810183526001600160a01b038a1681528154818501528786529390925260019091015490820152612a8490613711565b604080516060810182526001600160a01b03871681525f86815260116020818152848320805482860152898452919052600101549282019290925291925090612acc90613711565b5f8181526012602052604081205491925003612afc575f8281526012602052604080822054838352912055612b70565b5f8481526011602081815260408084208585526012835281852054855292909152909120612b299161375d565b5f848152601160205260408120818155600181018290556002810182905560038101829055600481019190915560050180546001600160a01b0319169055612b70846137af565b5f828152601260205260408082208290555185916001600160a01b0380891692908a16917fddf252ad1be2c89b69c2b068fc378daa952ba7f163c4a11628f55a4df523b3ef91a4505050505050565b6060612bca826130a1565b5f612bd3614985565b90505f815111612bf15760405180602001604052805f815250612235565b80612bfb846149a5565b604051602001612c0c929190616192565b6040516020818303038152906040529392505050565b5f6004545f14612c5a5760405162461bcd60e51b815260206004820152600360248201526247303160e81b6044820152606401610b52565b6001600455604080516080810182525f808252602082018190529181018290526060810191909152604080516080810182525f8082526020820181905291810182905260608101919091525f86815260036020819052604090912001546d2000000000000000000000000000908590612cd3919061604f565b6001600160801b03161115612d105760405162461bcd60e51b815260206004820152600360248201526226981960e91b6044820152606401610b52565b5f86815260036020526040902054612d2790613242565b80612d4457505f85815260036020526040902054612d4490613242565b612d765760405162461bcd60e51b815260206004820152600360248201526226981960e91b6044820152606401610b52565b5f868152600360205260409020612d8d9085613b24565b5f87815260036020526040902060020154909250612dbe906001600160a01b0316336001600160801b03871661325f565b8415612e69576040808301515f8781526003602081905292902090910154612de591614a42565b6001600160801b0316606082018190525f8681526003602052604090205460f61c603f16612710908103909104026001600160801b0316606082018190525f86815260036020526040902060020154612e4b916001600160a01b0390911690339061325f565b60608101515f868152600360205260409020612e6691613b24565b90505b5f612e966040518060600160405280336001600160a01b0316815260200189815260200188815250613711565b5f81815260126020526040812054919250819003612ee857600160105f828254612ec0919061608d565b92505081905550612ed333601054613c78565b506010545f8281526012602052604090208190555b6040840151612f43908990899060801b602088015160608901516001600160801b031660809190911b17602088015160608901516001600160801b031660809190911b175f878152601160205260409020949392919061455f565b8351606080860151855186830151604080518e8152602081018e9052608096871b6001600160801b03958616178183015292861b9190931617928101929092525183927f2a59a1828d11dd251ec75ef5a760dad206f25439d13f166bedac3348f1998335928290030190a250505f60045550600195945050505050565b5f6001600160e01b031982166380ac58cd60e01b1480612ff057506001600160e01b03198216635b5e139f60e01b145b8061098057506301ffc9a760e01b6001600160e01b0319831614610980565b5f6001600160a01b03841661304b575f805f8085875af190508061304657604051633d2cec6f60e21b815260040160405180910390fd5b611b8d565b60405163a9059cbb60e01b5f52836004528260245260205f60445f80895af13d15601f3d1160015f511416171691505f606052806040525080611b8d57604051633c9fd93960e21b815260040160405180910390fd5b5f818152600960205260409020546001600160a01b03166131045760405162461bcd60e51b815260206004820152601860248201527f4552433732313a20696e76616c696420746f6b656e20494400000000000000006044820152606401610b52565b50565b5f818152600b6020526040902080546001600160a01b0319166001600160a01b038416908117909155819061313b82611a85565b6001600160a01b03167f8c5be1e5ebec7d5bd14f71427d1e84f3dd0314c0f7b2291e5b200ac8c7c3b92560405160405180910390a45050565b805461317f90613242565b156131b55760405162461bcd60e51b8152600401610b52906020808252600490820152634730303760e01b604082015260600190565b80546001600160ff1b03166131ce81600160ff1b61608d565b90915550565b80546131df90613242565b6132145760405162461bcd60e51b8152600401610b529060208082526004908201526308e6060760e31b604082015260600190565b80546001600160ff1b03169055565b81546001600160fc1b03909116906131ce908290600f60fc1b1661608d565b5f60ff82901c60018114613256575f612235565b60019392505050565b30611b8d848483856144ba565b5f826001600160801b03165f0361328457505f610980565b5f836001600160801b0316836001600160801b03166132a38660801c90565b6001600160801b03166132b691906161a6565b6132c091906161d1565b90506001600160801b038111156132d7575f6132d9565b805b949350505050565b5f6122356132ef8360801c90565b6132f98560801c90565b613303919061604f565b61183d848661604f565b60408051610100810182525f80825260208201819052918101829052606081018290526080810182905260a0810182905260c0810182905260e0810191909152825160a08401515f918291613376916001600160801b031661271060e29290921c607f16020490565b6001600160801b0316604086018190528551869061339590839061606e565b6001600160801b03169052505b84516001600160801b0316158015906133c957506133c985608001518660c0015186614a88565b156135b7576133ea6133df8660c0015160801c90565b60e087015190614b62565b6001600160801b031661340f613404876080015160801c90565b60a088015190614b62565b6001600160801b0316101561343f5761343a61342f866080015160801c90565b60a087015190614b62565b613450565b6134506133df8660c0015160801c90565b60808601519092506134629083614a42565b9050806001600160801b0316855f01516001600160801b031611156135145780855f01818151613492919061606e565b6001600160801b031690525060c08501516134ad9083614a42565b856020018181516134be919061604f565b6001600160801b039081169091526080878101516134e993509184169085901b17614b91565b614b91565b608086015260c085015161350a906135058461183d8382614a42565b614bb3565b60c0860152613594565b845160808601516135249161326c565b60c08601519092506135369083614a42565b85602001818151613547919061604f565b6001600160801b03908116909152608087810151885161356f94509092169085901b17614b91565b608086015260c085015161358b906135058461183d8382614a42565b60c08601525f85525b81856060018181516135a6919061604f565b6001600160801b03169052506133a2565b84516001600160801b03161561364657845160a08601516135ec916001600160801b031661271060e29290921c607f16020490565b856040018181516135fd919061606e565b6001600160801b03908116909152865160a088015161362a9350911661271060e29290921c607f16020490565b8551869061363990839061604f565b6001600160801b03169052505b50929392505050565b60038301829055600583015461366990608083901b6132e1565b8360050181905550505050565b5f8061368183611a85565b9050806001600160a01b0316846001600160a01b031614806136c757506001600160a01b038082165f908152600c602090815260408083209388168352929052205460ff165b806132d95750836001600160a01b03166136e084610aba565b6001600160a01b031614949350505050565b5f818152600f6020526040902080546001019055610bf3838383614bdf565b6040805182516001600160a01b0316602080830191909152830151818301529082015160608201525f906080015b60408051601f19818403018152919052805160209091012092915050565b61376f826002015482600201546132e1565b8260020181905550613789826003015482600301546132e1565b82600301819055506137a3826004015482600401546132e1565b82600401819055505050565b5f6137b982611a85565b90506137c482611a85565b5f838152600b6020908152604080832080546001600160a01b03199081169091556001600160a01b038516808552600a845282852080545f190190558785526009909352818420805490911690555192935084927fddf252ad1be2c89b69c2b068fc378daa952ba7f163c4a11628f55a4df523b3ef908390a45050565b814211156138915760405162461bcd60e51b815260206004820152601e60248201527f4552433732315065726d69743a206578706972656420646561646c696e6500006044820152606401610b52565b5f838152600f602090815260408083205481517f0000000000000000000000000000000000000000000000000000000000000000818501526001600160a01b0389168184015260608101889052608081019190915260a08082018790528251808303909101815260c090910190915280519101209061390f82614dbd565b90505f61391c8285614de9565b5090505f6001600160a01b0382161580159061393d575061393d8288613676565b90508080613959575061395961395288611a85565b8487614e2b565b8061396b575061396b61395288610aba565b6139b75760405162461bcd60e51b815260206004820152601f60248201527f4552433732315065726d69743a20696e76616c6964207369676e6174757265006044820152606401610b52565b6139c18888613107565b5050505050505050565b5f306001600160a01b037f000000000000000000000000000000000000000000000000000000000000000016148015613a2357507f000000000000000000000000000000000000000000000000000000000000000046145b15613a4d57507f000000000000000000000000000000000000000000000000000000000000000090565b61159d604080517f8b73c3c69bb8fe3d512ecc4cf759cc79239f7b179b0ffacaa9a75d522b39400f60208201527f0000000000000000000000000000000000000000000000000000000000000000918101919091527f000000000000000000000000000000000000000000000000000000000000000060608201524660808201523060a08201525f9060c00160405160208183030381529060405280519060200120905090565b5f8160405160200161373f919081516001600160a01b039081168252602092830151169181019190915260400190565b604080516080810182525f8082526020820181905291810182905260608101919091528254613b68906001600160801b03841661271060f69290921c603f16020490565b6001600160801b0316808252613b7e908361606e565b6001600160801b0316606082018190526003840154613b9c9161326c565b6001600160801b0316604082015260608101516005840154613bd09190613bca9060801c600487015461183d565b9061326c565b6001600160801b03166020820181905260058401548251613c1192610ec491613bf9919061604f565b60208501516001600160801b031660809190911b1790565b6005840155600383015460408201516060830151613c3e929160801b6001600160801b03909116176132e1565b6003840155600483015460408201516060830151613c6b929160801b6001600160801b03909116176132e1565b6004909301929092555090565b6001600160a01b038216613cce5760405162461bcd60e51b815260206004820181905260248201527f4552433732313a206d696e7420746f20746865207a65726f20616464726573736044820152606401610b52565b5f818152600960205260409020546001600160a01b031615613d325760405162461bcd60e51b815260206004820152601c60248201527f4552433732313a20746f6b656e20616c7265616479206d696e746564000000006044820152606401610b52565b5f818152600960205260409020546001600160a01b031615613d965760405162461bcd60e51b815260206004820152601c60248201527f4552433732313a20746f6b656e20616c7265616479206d696e746564000000006044820152606401610b52565b6001600160a01b0382165f818152600a6020908152604080832080546001019055848352600990915280822080546001600160a01b0319168417905551839291907fddf252ad1be2c89b69c2b068fc378daa952ba7f163c4a11628f55a4df523b3ef908290a45050565b604080516060810182525f8082526020820181905291810191909152604080516060810182525f80825260208201819052918101919091528554613e4390613242565b80613e5457508454613e5490613242565b613e865760405162461bcd60e51b815260206004820152600360248201526204731360ec1b6044820152606401610b52565b5f613ea9845f0151613bca613e9f886002015460801c90565b600389015461183d565b90506040518060600160405280613ed8865f0151613bca613ece8c6005015460801c90565b60048d015461183d565b6001600160801b03168152602001613f08865f0151613bca613efe8a6003015460801c90565b60038b015461183d565b6001600160801b03168152602001855f01516001600160801b03168152509250613f41613f39886003015460801c90565b885490614f31565b6001600160801b0316816001600160801b0316108015613f825750613f6a613f39886003015490565b6001600160801b0316845f01516001600160801b0316105b613fb75760405162461bcd60e51b8152600401610b52906020808252600490820152634730313160e01b604082015260600190565b60038701546040840151613fda91906001600160801b0316608084901b17614f55565b60038801556004870154604084015161400291906001600160801b0316608084901b17614f55565b600488015560058701548351602085015161402c929160801b6001600160801b0390911617614f55565b600588015561403b8582614f77565b6020830151835161404c919061606e565b6001600160801b039081168452604084015188546140789290911661271060f09290921c603f16020490565b83602001906001600160801b031690816001600160801b0316815250506140b687845f01518660600151876020015188604001518960800151615085565b60208301516001600160801b0316156140e657600587015460208401516140e0919060801b6132e1565b60058801555b60018501541561431857604051806060016040528061411a83613bca6141108b6005015460801c90565b60048c015461183d565b6001600160801b0316815260200161414783613bca61413d8a6004015460801c90565b60048b015461183d565b6001600160801b031681526020016141708361416a61413d8a6002015460801c90565b90614a42565b6001600160801b0316815250915061419761418f876003015460801c90565b875490614f31565b6001600160801b0316816001600160801b03161080156141d957506141c061418f876003015490565b6001600160801b031682604001516001600160801b0316105b61420e5760405162461bcd60e51b8152600401610b52906020808252600490820152632398189960e11b604082015260600190565b6003860154604083015161423191906001600160801b0316608084901b17614f55565b60038701556004860154604083015161425991906001600160801b0316608084901b17614f55565b6004870155600586015482516020840151614283929160801b6001600160801b0390911617614f55565b600587015560208201518251614299919061606e565b6001600160801b039081168352604083015187546142c59290911661271060f09290921c603f16020490565b6001600160801b031660208301819052156142f757600586015460208301516142f1919060801b6132e1565b60058701555b61431886835f01518660600151876020015188604001518960800151615085565b5094509492505050565b606060ff831461433c5761433583615539565b9050610980565b81805461434890616003565b80601f016020809104026020016040519081016040528092919081815260200182805461437490616003565b80156143bf5780601f10614396576101008083540402835291602001916143bf565b820191905f5260205f20905b8154815290600101906020018083116143a257829003601f168201915b50505050509050610980565b5f806143db876003015460801c90565b6144046143e9896003015490565b613bca6143fa8d6005015460801c90565b60048e015461183d565b61440e919061606e565b60058a0154909150614429906001600160801b0383166132e1565b60058a015561443c898286898988615085565b5f61444b886004015460801c90565b6144596143e98a6004015490565b614463919061606e565b60058a015490915061447e906001600160801b0383166132e1565b60058a01556144918982878a8a89615085565b6001600160801b038116608083901b1792506144ad8884615576565b5050979650505050505050565b5f6001600160a01b0385166144ee578134146144e957604051633d2cec6f60e21b815260040160405180910390fd5b614558565b6040516323b872dd60e01b81526001600160a01b03851660048201526001600160a01b038416602482015282604482015260205f6064835f8a5af13d15601f3d1160015f51141617169150508061455857604051633c9fd93960e21b815260040160405180910390fd5b5050505050565b60038601546001600160801b03165f03614577578486555b831561458557600186018490555b6145938660020154846132e1565b600287015560038601546145a790836132e1565b60038701558315611516576145c08660040154826132e1565b6004870155505050505050565b816001600160a01b0316836001600160a01b03160361462e5760405162461bcd60e51b815260206004820152601960248201527f4552433732313a20617070726f766520746f2063616c6c6572000000000000006044820152606401610b52565b6001600160a01b038381165f818152600c6020908152604080832094871680845294825291829020805460ff191686151590811790915591519182527f17307eab39ab6107e8899845ad3d59bd9653f200f220920489ca2b5937696c31910160405180910390a3505050565b60408051610100810182525f80825260208201819052918101829052606081018290526080810182905260a0810182905260c0810182905260e0810191909152825160e08401515f918291614703916001600160801b031661271060e99290921c607f16020490565b6001600160801b031660408601525b84516001600160801b031615801590614739575061473985608001518660c0015186614a88565b156136465761474f6133df8660c0015160801c90565b6001600160801b0316614769613404876080015160801c90565b6001600160801b0316101561478e5761478961342f866080015160801c90565b61479f565b61479f6133df8660c0015160801c90565b60c08601519092506147b19083614a42565b9050806001600160801b0316855f01516001600160801b031611156148595780855f018181516147e1919061606e565b6001600160801b031690525060808501516147fc9083614a42565b8560200181815161480d919061604f565b6001600160801b0390811690915260c08701516148339250908316608085901b17614bb3565b60c0860152608085015161484f906134e48461183d8382614a42565b60808601526148d9565b845160c08601516148699161326c565b608086015190925061487b9083614a42565b8560200181815161488c919061604f565b6001600160801b0390811690915260c087015187516148b49350909116608085901b17614bb3565b60c086015260808501516148d0906134e48461183d8382614a42565b60808601525f85525b81856060018181516148eb919061604f565b6001600160801b0316905250614712565b6149078484846136f2565b614913848484846155ac565b611b8d5760405162461bcd60e51b815260206004820152603260248201527f4552433732313a207472616e7366657220746f206e6f6e20455243373231526560448201527f63656976657220696d706c656d656e74657200000000000000000000000000006064820152608401610b52565b60606040518060600160405280602381526020016162a860239139905090565b60605f6149b1836156ff565b60010190505f8167ffffffffffffffff8111156149d0576149d0615ac5565b6040519080825280601f01601f1916602001820160405280156149fa576020820181803683370190505b5090508181016020015b5f19017f3031323334353637383961626364656600000000000000000000000000000000600a86061a8153600a8504945084614a0457509392505050565b5f614a4d8360801c90565b6001600160801b03165f03614a6357505f610980565b5f614a6e8460801c90565b6001600160801b0316836001600160801b03166132a38690565b5f614a938260801c90565b6001600160801b0316614aa68460801c90565b6001600160801b0316856001600160801b0316614ac391906161a6565b614acd91906161a6565b826001600160801b0316846001600160801b0316614aeb8760801c90565b6001600160801b0316614afe91906161a6565b614b0891906161a6565b108015614b4e57505f826001600160801b0316846001600160801b0316614b2f8760801c90565b6001600160801b0316614b4291906161a6565b614b4c91906161a6565b115b614b58575f6132d9565b6001949350505050565b5f6103ff60d884901c16808203614b7c5782915050610980565b614b878160406161e4565b6132d99084616206565b5f612235614b9f8360801c90565b614ba98560801c90565b613303919061606e565b5f612235614bc18360801c90565b614bcb8560801c90565b614bd5919061604f565b61183d848661606e565b826001600160a01b0316614bf282611a85565b6001600160a01b031614614c565760405162461bcd60e51b815260206004820152602560248201527f4552433732313a207472616e736665722066726f6d20696e636f72726563742060448201526437bbb732b960d91b6064820152608401610b52565b6001600160a01b038216614cb85760405162461bcd60e51b8152602060048201526024808201527f4552433732313a207472616e7366657220746f20746865207a65726f206164646044820152637265737360e01b6064820152608401610b52565b826001600160a01b0316614ccb82611a85565b6001600160a01b031614614d2f5760405162461bcd60e51b815260206004820152602560248201527f4552433732313a207472616e736665722066726f6d20696e636f72726563742060448201526437bbb732b960d91b6064820152608401610b52565b5f818152600b6020908152604080832080546001600160a01b03199081169091556001600160a01b03878116808652600a855283862080545f1901905590871680865283862080546001019055868652600990945282852080549092168417909155905184937fddf252ad1be2c89b69c2b068fc378daa952ba7f163c4a11628f55a4df523b3ef91a4505050565b5f610980614dc96139cb565b8360405161190160f01b8152600281019290925260228201526042902090565b5f808251604103614e1d576020830151604084015160608501515f1a614e11878285856157e0565b94509450505050614e24565b505f905060025b9250929050565b5f805f856001600160a01b0316631626ba7e60e01b8686604051602401614e53929190616233565b60408051601f198184030181529181526020820180517bffffffffffffffffffffffffffffffffffffffffffffffffffffffff166001600160e01b0319909416939093179092529051614ea6919061624b565b5f60405180830381855afa9150503d805f8114614ede576040519150601f19603f3d011682016040523d82523d5f602084013e614ee3565b606091505b5091509150818015614ef6575080516020145b8015614f2757508051630b135d3f60e11b90614f1b9083016020908101908401616256565b6001600160e01b031916145b9695505050505050565b5f6103ff60ce84901c16808203614f4b5782915050610980565b6132d98184616206565b5f612235614f638360801c90565b614f6d8560801c90565b614bd5919061606e565b5f614feb614fbc614f8c856003015460801c90565b6001600160801b0316846001600160801b0316614fad876002015460801c90565b6001600160801b031691020490565b61183d614fca866003015490565b6001600160801b0316856001600160801b0316614fad886002015460801c90565b9050614ffb836003015482614f55565b6003840155600183015415615065575f61504e61501f614fca866004015460801c90565b61183d61502d876004015490565b6001600160801b0316866001600160801b0316614fad896002015460801c90565b905061505e846004015482614f55565b6004850155505b600283015461507890608084901b614f55565b8360020181905550505050565b60646001600160801b03861660dd86901c601f1602046150a5818761606e565b95505f806001600160a01b03851661527857606460fa88901c6001600160801b038a16020460028a01549092506150ef906001600160a01b0316336001600160801b03851661300f565b6064603f60e289901c166001600160801b038a1602046064603f60f48a901c166001600160801b038b160204615125919061604f565b9050836001600160a01b0316866001600160a01b0316036151515761514a818461604f565b925061518d565b6001600160a01b0386165f90815260068a016020526040902080546fffffffffffffffffffffffffffffffff19166001600160801b0383161790555b836001600160a01b0316856001600160a01b0316036151cc57806151b1838a61606e565b6151bb919061606e565b6151c5908461604f565b9250615238565b806151d7838a61606e565b6151e1919061606e565b6001600160a01b0386165f90815260068b016020526040812080549091906152139084906001600160801b031661604f565b92506101000a8154816001600160801b0302191690836001600160801b031602179055505b6001600160a01b0384165f90815260068a016020526040902080546fffffffffffffffffffffffffffffffff19166001600160801b03851617905561552e565b60018901546001600160a01b038086169116036152b5576152ae60646001600160801b038a1660f48a901c603f1602048461604f565b9250615326565b6064603f60f489901c166001600160801b038a16020460018a01546001600160a01b03165f90815260068b016020526040812080549091906153019084906001600160801b031661604f565b92506101000a8154816001600160801b0302191690836001600160801b031602179055505b836001600160a01b0316866001600160a01b0316036153655761535e60646001600160801b038a1660ee8a901c603f1602048461604f565b92506153d2565b6064603f60ee89901c166001600160801b038a1602046001600160a01b0387165f90815260068b016020526040812080549091906153ad9084906001600160801b031661604f565b92506101000a8154816001600160801b0302191690836001600160801b031602179055505b836001600160a01b0316856001600160a01b0316036154115761540a60646001600160801b038a1660e88a901c603f1602048461604f565b925061547e565b6064603f60e889901c166001600160801b038a1602046001600160a01b0386165f90815260068b016020526040812080549091906154599084906001600160801b031661604f565b92506101000a8154816001600160801b0302191690836001600160801b031602179055505b6001600160a01b0384165f90815260068a016020526040812080548592906154b09084906001600160801b031661604f565b92506101000a8154816001600160801b0302191690836001600160801b0316021790555061552e336154f48a6001600160801b03168a61589d90919063ffffffff16565b6155109060646001600160801b038d1660fa8d901c020461604f565b60028c01546001600160a01b031691906001600160801b031661300f565b505050505050505050565b60605f615545836158ad565b6040805160208082528183019092529192505f91906020820181803683375050509182525060208101929092525090565b61558b8260030154610ec46124408460801c90565b60038301556001820154156124d4576137a38260040154610ec46124408490565b5f6001600160a01b0384163b156156f457604051630a85bd0160e11b81526001600160a01b0385169063150b7a02906155ef903390899088908890600401616271565b6020604051808303815f875af1925050508015615629575060408051601f3d908101601f1916820190925261562691810190616256565b60015b6156da573d808015615656576040519150601f19603f3d011682016040523d82523d5f602084013e61565b565b606091505b5080515f036156d25760405162461bcd60e51b815260206004820152603260248201527f4552433732313a207472616e7366657220746f206e6f6e20455243373231526560448201527f63656976657220696d706c656d656e74657200000000000000000000000000006064820152608401610b52565b805181602001fd5b6001600160e01b031916630a85bd0160e11b1490506132d9565b506001949350505050565b5f807a184f03e93ff9f4daa797ed6e38ed64bf6a1f0100000000000000008310615747577a184f03e93ff9f4daa797ed6e38ed64bf6a1f010000000000000000830492506040015b6d04ee2d6d415b85acef81000000008310615773576d04ee2d6d415b85acef8100000000830492506020015b662386f26fc10000831061579157662386f26fc10000830492506010015b6305f5e10083106157a9576305f5e100830492506008015b61271083106157bd57612710830492506004015b606483106157cf576064830492506002015b600a83106109805760010192915050565b5f807f7fffffffffffffffffffffffffffffff5d576e7357a4501ddfe92f46681b20a083111561581557505f90506003615894565b604080515f8082526020820180845289905260ff881692820192909252606081018690526080810185905260019060a0016020604051602081039080840390855afa158015615866573d5f803e3d5ffd5b5050604051601f1901519150506001600160a01b03811661588e575f60019250925050615894565b91505f90505b94509492505050565b606460e29290921c603f16020490565b5f60ff8216601f81111561098057604051632cd44ac360e21b815260040160405180910390fd5b6001600160e01b031981168114613104575f80fd5b5f602082840312156158f9575f80fd5b81356132d7816158d4565b5f60208284031215615914575f80fd5b5035919050565b5f81518084528060208401602086015e5f602082860101526020601f19601f83011685010191505092915050565b602081525f612235602083018461591b565b80356001600160a01b0381168114615971575f80fd5b919050565b5f8060408385031215615987575f80fd5b6159908361595b565b946020939093013593505050565b5f80604083850312156159af575f80fd5b50508035926020909101359150565b80356001600160801b0381168114615971575f80fd5b5f805f606084860312156159e6575f80fd5b83359250602084013591506159fd604085016159be565b90509250925092565b5f8060408385031215615a17575f80fd5b82359150615a27602084016159be565b90509250929050565b80358015158114615971575f80fd5b5f805f805f60a08688031215615a53575f80fd5b8535945060208601359350615a6a604087016159be565b925060608601359150615a7f60808701615a30565b90509295509295909350565b5f805f60608486031215615a9d575f80fd5b615aa68461595b565b9250615ab46020850161595b565b929592945050506040919091013590565b634e487b7160e01b5f52604160045260245ffd5b604051601f8201601f1916810167ffffffffffffffff81118282101715615b0257615b02615ac5565b604052919050565b5f67ffffffffffffffff821115615b2357615b23615ac5565b50601f01601f191660200190565b5f82601f830112615b40575f80fd5b8135615b53615b4e82615b0a565b615ad9565b818152846020838601011115615b67575f80fd5b816020850160208301375f918101602001919091529392505050565b5f805f805f8060c08789031215615b98575f80fd5b615ba18761595b565b9550615baf6020880161595b565b945060408701359350606087013567ffffffffffffffff811115615bd1575f80fd5b615bdd89828a01615b31565b9350506080870135915060a087013567ffffffffffffffff811115615c00575f80fd5b615c0c89828a01615b31565b9150509295509295509295565b5f60208284031215615c29575f80fd5b6122358261595b565b5f8060408385031215615c43575f80fd5b82359150615a276020840161595b565b5f805f8060808587031215615c66575f80fd5b8435935060208501359250615c7d6040860161595b565b9396929550929360600135925050565b5f805f8060808587031215615ca0575f80fd5b615ca98561595b565b93506020850135925060408501359150606085013567ffffffffffffffff811115615cd2575f80fd5b615cde87828801615b31565b91505092959194509250565b5f805f8060808587031215615cfd575f80fd5b84359350615d0d602086016159be565b9250615d1b6040860161595b565b9150615d296060860161595b565b905092959194509250565b60ff60f81b8816815260e060208201525f615d5260e083018961591b565b8281036040840152615d64818961591b565b606084018890526001600160a01b038716608085015260a0840186905283810360c0850152845180825260208087019350909101905f5b81811015615db9578351835260209384019390920191600101615d9b565b50909b9a5050505050505050505050565b5f805f60608486031215615ddc575f80fd5b83359250615dec6020850161595b565b91506159fd6040850161595b565b5f805f60608486031215615e0c575f80fd5b83359250602084013591506159fd6040850161595b565b5f805f60608486031215615e35575f80fd5b615e3e8461595b565b95602085013595506040909401359392505050565b5f8060408385031215615e64575f80fd5b615e6d8361595b565b9150615a2760208401615a30565b5f805f805f60a08688031215615e8f575f80fd5b8535945060208601359350615ea6604087016159be565b925060608601359150615a7f6080870161595b565b5f8060208385031215615ecc575f80fd5b823567ffffffffffffffff811115615ee2575f80fd5b8301601f81018513615ef2575f80fd5b803567ffffffffffffffff811115615f08575f80fd5b8560208260051b8401011115615f1c575f80fd5b6020919091019590945092505050565b5f602082016020835280845180835260408501915060408160051b8601019250602086015f5b82811015615f8357603f19878603018452615f6e85835161591b565b94506020938401939190910190600101615f52565b50929695505050505050565b5f805f8060808587031215615fa2575f80fd5b615fab8561595b565b9350615fb96020860161595b565b925060408501359150606085013567ffffffffffffffff811115615cd2575f80fd5b5f8060408385031215615fec575f80fd5b615ff58361595b565b9150615a276020840161595b565b600181811c9082168061601757607f821691505b60208210810361603557634e487b7160e01b5f52602260045260245ffd5b50919050565b634e487b7160e01b5f52601160045260245ffd5b6001600160801b0381811683821601908111156109805761098061603b565b6001600160801b0382811682821603908111156109805761098061603b565b808201808211156109805761098061603b565b634e487b7160e01b5f52603260045260245ffd5b5f808335601e198436030181126160c9575f80fd5b83018035915067ffffffffffffffff8211156160e3575f80fd5b602001915036819003821315614e24575f80fd5b818382375f9101908152919050565b5f60208284031215616116575f80fd5b815167ffffffffffffffff81111561612c575f80fd5b8201601f8101841361613c575f80fd5b805161614a615b4e82615b0a565b81815285602083850101111561615e575f80fd5b8160208401602083015e5f91810160200191909152949350505050565b5f81518060208401855e5f93019283525090919050565b5f6132d96161a0838661617b565b8461617b565b80820281158282048414176109805761098061603b565b634e487b7160e01b5f52601260045260245ffd5b5f826161df576161df6161bd565b500490565b6001600160801b0381811683821602908116908181146129215761292161603b565b5f6001600160801b0383168061621e5761621e6161bd565b806001600160801b0384160491505092915050565b828152604060208201525f6132d9604083018461591b565b5f612235828461617b565b5f60208284031215616266575f80fd5b81516132d7816158d4565b6001600160a01b03851681526001600160a01b0384166020820152826040820152608060608201525f614f27608083018461591b56fe687474703a2f2f7777772e74742d737761702e636f6d2f6e66743f70726f6f6669643da2646970667358221220d91b3268f58a68058e5c4dd186f7c79cb360a8ce272b079ef0c4330074d23ce764736f6c634300081a0033","linkReferences":{}},"methodIdentifiers":{"DOMAIN_SEPARATOR()":"3644e515","addbanlist(address)":"b153b920","approve(address,uint256)":"095ea7b3","balanceOf(address)":"70a08231","banlist(address)":"2973ada7","buyGood(uint256,uint256,uint128,uint256,bool)":"1eccc39b","buyGoodForPay(uint256,uint256,uint128,uint256,address)":"a7e11697","changeGoodOwner(uint256,address)":"2a7c5a91","collectProof(uint256,address,address)":"8e126f73","collectProtocolFee(uint256)":"0292eb4a","disinvestProof(uint256,uint128,address,address)":"7f0a8265","eip712Domain()":"84b0196e","enpower(uint256,uint256,uint128)":"16763986","getApproved(uint256)":"081812fc","getGoodState(uint256)":"a6f6a980","getProofState(uint256)":"3f117740","goodNum()":"5a5da4dd","goodWelfare(uint256,uint128)":"18ad50d1","initGood(uint256,uint256,address,uint256)":"4ffef907","initMetaGood(address,uint256,uint256)":"97924ead","investGood(uint256,uint256,uint128)":"f44733ad","isApprovedForAll(address,address)":"e985e9c5","marketconfig()":"402f5ab5","marketcreator()":"3d995173","multicall(bytes[])":"ac9650d8","name()":"06fdde03","nonces(uint256)":"141a468c","ownerOf(uint256)":"6352211e","payGood(uint256,uint256,address)":"920acbb8","permit(address,uint256,uint256,bytes)":"745a41bc","proofmapping(uint256)":"5e008cc4","referals(address)":"a128fcf2","removebanlist(address)":"9551177a","safeTransferFrom(address,address,uint256)":"42842e0e","safeTransferFrom(address,address,uint256,bytes)":"b88d4fde","safeTransferFromWithPermit(address,address,uint256,bytes,uint256,bytes)":"24744d54","setApprovalForAll(address,bool)":"a22cb465","setMarketConfig(uint256)":"45818e4c","supportsInterface(bytes4)":"01ffc9a7","symbol()":"95d89b41","tokenURI(uint256)":"c87b56dd","totalSupply()":"18160ddd","transferFrom(address,address,uint256)":"23b872dd","updateGoodConfig(uint256,uint256)":"144aeb83","updatetoNormalGood(uint256)":"14484e10","updatetoValueGood(uint256)":"0a25dcff"},"id":1}