{"abi":[{"type":"constructor","inputs":[{"name":"_marketcreator","type":"address","internalType":"address"},{"name":"_marketconfig","type":"uint256","internalType":"uint256"}],"stateMutability":"nonpayable"},{"type":"function","name":"DOMAIN_SEPARATOR","inputs":[],"outputs":[{"name":"","type":"bytes32","internalType":"bytes32"}],"stateMutability":"view"},{"type":"function","name":"addbanlist","inputs":[{"name":"_user","type":"address","internalType":"address"}],"outputs":[{"name":"","type":"bool","internalType":"bool"}],"stateMutability":"nonpayable"},{"type":"function","name":"approve","inputs":[{"name":"to","type":"address","internalType":"address"},{"name":"tokenId","type":"uint256","internalType":"uint256"}],"outputs":[],"stateMutability":"nonpayable"},{"type":"function","name":"balanceOf","inputs":[{"name":"owner","type":"address","internalType":"address"}],"outputs":[{"name":"","type":"uint256","internalType":"uint256"}],"stateMutability":"view"},{"type":"function","name":"banlist","inputs":[{"name":"","type":"address","internalType":"address"}],"outputs":[{"name":"","type":"uint256","internalType":"uint256"}],"stateMutability":"view"},{"type":"function","name":"buyGood","inputs":[{"name":"_goodid1","type":"uint256","internalType":"uint256"},{"name":"_goodid2","type":"uint256","internalType":"uint256"},{"name":"_swapQuantity","type":"uint128","internalType":"uint128"},{"name":"_limitPrice","type":"uint256","internalType":"T_BalanceUINT256"},{"name":"_istotal","type":"bool","internalType":"bool"},{"name":"_referal","type":"address","internalType":"address"}],"outputs":[{"name":"goodid2Quantity_","type":"uint128","internalType":"uint128"},{"name":"goodid2FeeQuantity_","type":"uint128","internalType":"uint128"}],"stateMutability":"payable"},{"type":"function","name":"buyGoodForPay","inputs":[{"name":"_goodid1","type":"uint256","internalType":"uint256"},{"name":"_goodid2","type":"uint256","internalType":"uint256"},{"name":"_swapQuantity","type":"uint128","internalType":"uint128"},{"name":"_limitPrice","type":"uint256","internalType":"T_BalanceUINT256"},{"name":"_recipent","type":"address","internalType":"address"}],"outputs":[{"name":"goodid1Quantity_","type":"uint128","internalType":"uint128"},{"name":"goodid1FeeQuantity_","type":"uint128","internalType":"uint128"}],"stateMutability":"payable"},{"type":"function","name":"changeGoodOwner","inputs":[{"name":"_goodid","type":"uint256","internalType":"uint256"},{"name":"_to","type":"address","internalType":"address"}],"outputs":[],"stateMutability":"nonpayable"},{"type":"function","name":"collectCommission","inputs":[{"name":"_goodid","type":"uint256[]","internalType":"uint256[]"}],"outputs":[],"stateMutability":"nonpayable"},{"type":"function","name":"collectProof","inputs":[{"name":"_proofid","type":"uint256","internalType":"uint256"},{"name":"_gater","type":"address","internalType":"address"}],"outputs":[{"name":"profit_","type":"uint256","internalType":"T_BalanceUINT256"}],"stateMutability":"nonpayable"},{"type":"function","name":"disinvestProof","inputs":[{"name":"_proofid","type":"uint256","internalType":"uint256"},{"name":"_goodQuantity","type":"uint128","internalType":"uint128"},{"name":"_gater","type":"address","internalType":"address"}],"outputs":[{"name":"","type":"bool","internalType":"bool"}],"stateMutability":"nonpayable"},{"type":"function","name":"eip712Domain","inputs":[],"outputs":[{"name":"fields","type":"bytes1","internalType":"bytes1"},{"name":"name","type":"string","internalType":"string"},{"name":"version","type":"string","internalType":"string"},{"name":"chainId","type":"uint256","internalType":"uint256"},{"name":"verifyingContract","type":"address","internalType":"address"},{"name":"salt","type":"bytes32","internalType":"bytes32"},{"name":"extensions","type":"uint256[]","internalType":"uint256[]"}],"stateMutability":"view"},{"type":"function","name":"getApproved","inputs":[{"name":"tokenId","type":"uint256","internalType":"uint256"}],"outputs":[{"name":"","type":"address","internalType":"address"}],"stateMutability":"view"},{"type":"function","name":"getGoodState","inputs":[{"name":"goodkey","type":"uint256","internalType":"uint256"}],"outputs":[{"name":"gooddetail","type":"tuple","internalType":"struct L_Good.S_GoodTmpState","components":[{"name":"goodConfig","type":"uint256","internalType":"uint256"},{"name":"owner","type":"address","internalType":"address"},{"name":"erc20address","type":"address","internalType":"address"},{"name":"currentState","type":"uint256","internalType":"T_BalanceUINT256"},{"name":"investState","type":"uint256","internalType":"T_BalanceUINT256"},{"name":"feeQunitityState","type":"uint256","internalType":"T_BalanceUINT256"}]}],"stateMutability":"view"},{"type":"function","name":"getProofState","inputs":[{"name":"proofid","type":"uint256","internalType":"uint256"}],"outputs":[{"name":"_proof","type":"tuple","internalType":"struct L_Proof.S_ProofState","components":[{"name":"currentgood","type":"uint256","internalType":"uint256"},{"name":"valuegood","type":"uint256","internalType":"uint256"},{"name":"state","type":"uint256","internalType":"T_BalanceUINT256"},{"name":"invest","type":"uint256","internalType":"T_BalanceUINT256"},{"name":"valueinvest","type":"uint256","internalType":"T_BalanceUINT256"},{"name":"beneficiary","type":"address","internalType":"address"}]}],"stateMutability":"view"},{"type":"function","name":"getState","inputs":[{"name":"goodid","type":"uint256","internalType":"uint256"},{"name":"valuegood","type":"uint256","internalType":"uint256"}],"outputs":[{"name":"","type":"uint256","internalType":"T_BalanceUINT256"},{"name":"","type":"uint256","internalType":"T_BalanceUINT256"}],"stateMutability":"view"},{"type":"function","name":"goodNum","inputs":[],"outputs":[{"name":"","type":"uint256","internalType":"uint256"}],"stateMutability":"view"},{"type":"function","name":"goodWelfare","inputs":[{"name":"goodid","type":"uint256","internalType":"uint256"},{"name":"welfare","type":"uint128","internalType":"uint128"}],"outputs":[],"stateMutability":"payable"},{"type":"function","name":"initGood","inputs":[{"name":"_valuegood","type":"uint256","internalType":"uint256"},{"name":"_initial","type":"uint256","internalType":"T_BalanceUINT256"},{"name":"_erc20address","type":"address","internalType":"address"},{"name":"_goodConfig","type":"uint256","internalType":"uint256"}],"outputs":[{"name":"","type":"bool","internalType":"bool"}],"stateMutability":"payable"},{"type":"function","name":"initMetaGood","inputs":[{"name":"_erc20address","type":"address","internalType":"address"},{"name":"_initial","type":"uint256","internalType":"T_BalanceUINT256"},{"name":"_goodConfig","type":"uint256","internalType":"uint256"}],"outputs":[{"name":"","type":"bool","internalType":"bool"}],"stateMutability":"payable"},{"type":"function","name":"investGood","inputs":[{"name":"_togood","type":"uint256","internalType":"uint256"},{"name":"_valuegood","type":"uint256","internalType":"uint256"},{"name":"_quantity","type":"uint128","internalType":"uint128"}],"outputs":[{"name":"","type":"bool","internalType":"bool"}],"stateMutability":"payable"},{"type":"function","name":"isApprovedForAll","inputs":[{"name":"owner","type":"address","internalType":"address"},{"name":"operator","type":"address","internalType":"address"}],"outputs":[{"name":"","type":"bool","internalType":"bool"}],"stateMutability":"view"},{"type":"function","name":"marketconfig","inputs":[],"outputs":[{"name":"","type":"uint256","internalType":"uint256"}],"stateMutability":"view"},{"type":"function","name":"marketcreator","inputs":[],"outputs":[{"name":"","type":"address","internalType":"address"}],"stateMutability":"view"},{"type":"function","name":"modifyGoodConfig","inputs":[{"name":"_goodid","type":"uint256","internalType":"uint256"},{"name":"_goodConfig","type":"uint256","internalType":"uint256"}],"outputs":[{"name":"","type":"bool","internalType":"bool"}],"stateMutability":"nonpayable"},{"type":"function","name":"name","inputs":[],"outputs":[{"name":"","type":"string","internalType":"string"}],"stateMutability":"view"},{"type":"function","name":"nonces","inputs":[{"name":"tokenId","type":"uint256","internalType":"uint256"}],"outputs":[{"name":"","type":"uint256","internalType":"uint256"}],"stateMutability":"view"},{"type":"function","name":"ownerOf","inputs":[{"name":"tokenId","type":"uint256","internalType":"uint256"}],"outputs":[{"name":"","type":"address","internalType":"address"}],"stateMutability":"view"},{"type":"function","name":"payGood","inputs":[{"name":"_goodid","type":"uint256","internalType":"uint256"},{"name":"_payquanity","type":"uint256","internalType":"uint256"},{"name":"_recipent","type":"address","internalType":"address"}],"outputs":[{"name":"","type":"bool","internalType":"bool"}],"stateMutability":"payable"},{"type":"function","name":"permit","inputs":[{"name":"spender","type":"address","internalType":"address"},{"name":"tokenId","type":"uint256","internalType":"uint256"},{"name":"deadline","type":"uint256","internalType":"uint256"},{"name":"signature","type":"bytes","internalType":"bytes"}],"outputs":[],"stateMutability":"nonpayable"},{"type":"function","name":"proofmapping","inputs":[{"name":"","type":"uint256","internalType":"uint256"}],"outputs":[{"name":"","type":"uint256","internalType":"uint256"}],"stateMutability":"view"},{"type":"function","name":"queryCommission","inputs":[{"name":"_goodid","type":"uint256[]","internalType":"uint256[]"},{"name":"_recipent","type":"address","internalType":"address"}],"outputs":[{"name":"","type":"uint256[]","internalType":"uint256[]"}],"stateMutability":"view"},{"type":"function","name":"referals","inputs":[{"name":"","type":"address","internalType":"address"}],"outputs":[{"name":"","type":"address","internalType":"address"}],"stateMutability":"view"},{"type":"function","name":"removebanlist","inputs":[{"name":"_user","type":"address","internalType":"address"}],"outputs":[{"name":"","type":"bool","internalType":"bool"}],"stateMutability":"nonpayable"},{"type":"function","name":"safeTransferFrom","inputs":[{"name":"from","type":"address","internalType":"address"},{"name":"to","type":"address","internalType":"address"},{"name":"tokenId","type":"uint256","internalType":"uint256"}],"outputs":[],"stateMutability":"nonpayable"},{"type":"function","name":"safeTransferFrom","inputs":[{"name":"from","type":"address","internalType":"address"},{"name":"to","type":"address","internalType":"address"},{"name":"proofid","type":"uint256","internalType":"uint256"},{"name":"data","type":"bytes","internalType":"bytes"}],"outputs":[],"stateMutability":"nonpayable"},{"type":"function","name":"safeTransferFromWithPermit","inputs":[{"name":"from","type":"address","internalType":"address"},{"name":"to","type":"address","internalType":"address"},{"name":"tokenId","type":"uint256","internalType":"uint256"},{"name":"_data","type":"bytes","internalType":"bytes"},{"name":"deadline","type":"uint256","internalType":"uint256"},{"name":"signature","type":"bytes","internalType":"bytes"}],"outputs":[],"stateMutability":"nonpayable"},{"type":"function","name":"setApprovalForAll","inputs":[{"name":"operator","type":"address","internalType":"address"},{"name":"approved","type":"bool","internalType":"bool"}],"outputs":[],"stateMutability":"nonpayable"},{"type":"function","name":"setMarketConfig","inputs":[{"name":"_marketconfig","type":"uint256","internalType":"uint256"}],"outputs":[{"name":"","type":"bool","internalType":"bool"}],"stateMutability":"nonpayable"},{"type":"function","name":"supportsInterface","inputs":[{"name":"interfaceId","type":"bytes4","internalType":"bytes4"}],"outputs":[{"name":"","type":"bool","internalType":"bool"}],"stateMutability":"view"},{"type":"function","name":"symbol","inputs":[],"outputs":[{"name":"","type":"string","internalType":"string"}],"stateMutability":"view"},{"type":"function","name":"tokenURI","inputs":[{"name":"tokenId","type":"uint256","internalType":"uint256"}],"outputs":[{"name":"","type":"string","internalType":"string"}],"stateMutability":"view"},{"type":"function","name":"totalSupply","inputs":[],"outputs":[{"name":"","type":"uint256","internalType":"uint256"}],"stateMutability":"view"},{"type":"function","name":"transferFrom","inputs":[{"name":"from","type":"address","internalType":"address"},{"name":"to","type":"address","internalType":"address"},{"name":"proofid","type":"uint256","internalType":"uint256"}],"outputs":[],"stateMutability":"nonpayable"},{"type":"function","name":"updateGoodConfig","inputs":[{"name":"_goodid","type":"uint256","internalType":"uint256"},{"name":"_goodConfig","type":"uint256","internalType":"uint256"}],"outputs":[{"name":"","type":"bool","internalType":"bool"}],"stateMutability":"nonpayable"},{"type":"event","name":"Approval","inputs":[{"name":"owner","type":"address","indexed":true,"internalType":"address"},{"name":"approved","type":"address","indexed":true,"internalType":"address"},{"name":"tokenId","type":"uint256","indexed":true,"internalType":"uint256"}],"anonymous":false},{"type":"event","name":"ApprovalForAll","inputs":[{"name":"owner","type":"address","indexed":true,"internalType":"address"},{"name":"operator","type":"address","indexed":true,"internalType":"address"},{"name":"approved","type":"bool","indexed":false,"internalType":"bool"}],"anonymous":false},{"type":"event","name":"EIP712DomainChanged","inputs":[],"anonymous":false},{"type":"event","name":"Transfer","inputs":[{"name":"from","type":"address","indexed":true,"internalType":"address"},{"name":"to","type":"address","indexed":true,"internalType":"address"},{"name":"tokenId","type":"uint256","indexed":true,"internalType":"uint256"}],"anonymous":false},{"type":"event","name":"e_addbanlist","inputs":[{"name":"_user","type":"address","indexed":false,"internalType":"address"}],"anonymous":false},{"type":"event","name":"e_addreferal","inputs":[{"name":"referals","type":"address","indexed":false,"internalType":"address"}],"anonymous":false},{"type":"event","name":"e_buyGood","inputs":[{"name":"sellgood","type":"uint256","indexed":true,"internalType":"uint256"},{"name":"forgood","type":"uint256","indexed":true,"internalType":"uint256"},{"name":"fromer","type":"address","indexed":false,"internalType":"address"},{"name":"swapvalue","type":"uint128","indexed":false,"internalType":"uint128"},{"name":"sellgoodstate","type":"uint256","indexed":false,"internalType":"T_BalanceUINT256"},{"name":"forgoodstate","type":"uint256","indexed":false,"internalType":"T_BalanceUINT256"}],"anonymous":false},{"type":"event","name":"e_buyGoodForPay","inputs":[{"name":"buygood","type":"uint256","indexed":true,"internalType":"uint256"},{"name":"usegood","type":"uint256","indexed":true,"internalType":"uint256"},{"name":"fromer","type":"address","indexed":false,"internalType":"address"},{"name":"receipt","type":"address","indexed":false,"internalType":"address"},{"name":"swapvalue","type":"uint128","indexed":false,"internalType":"uint128"},{"name":"buygoodstate","type":"uint256","indexed":false,"internalType":"T_BalanceUINT256"},{"name":"usegoodstate","type":"uint256","indexed":false,"internalType":"T_BalanceUINT256"}],"anonymous":false},{"type":"event","name":"e_changeOwner","inputs":[{"name":"_goodid","type":"uint256","indexed":true,"internalType":"uint256"},{"name":"_owner","type":"address","indexed":false,"internalType":"address"},{"name":"_to","type":"address","indexed":false,"internalType":"address"}],"anonymous":false},{"type":"event","name":"e_changegoodowner","inputs":[{"name":"goodid","type":"uint256","indexed":false,"internalType":"uint256"},{"name":"to","type":"address","indexed":false,"internalType":"address"}],"anonymous":false},{"type":"event","name":"e_collectProof","inputs":[{"name":"_proofNo","type":"uint256","indexed":true,"internalType":"uint256"},{"name":"_normalGoodNo","type":"uint256","indexed":false,"internalType":"uint256"},{"name":"_valueGoodNo","type":"uint256","indexed":false,"internalType":"uint256"},{"name":"_profit","type":"uint256","indexed":false,"internalType":"T_BalanceUINT256"}],"anonymous":false},{"type":"event","name":"e_collectProtocolFee","inputs":[{"name":"goodid","type":"uint256","indexed":false,"internalType":"uint256"},{"name":"feeamount","type":"uint256","indexed":false,"internalType":"uint256"}],"anonymous":false},{"type":"event","name":"e_collectcommission","inputs":[{"name":"_gooid","type":"uint256[]","indexed":false,"internalType":"uint256[]"},{"name":"_commisionamount","type":"uint256[]","indexed":false,"internalType":"uint256[]"}],"anonymous":false},{"type":"event","name":"e_disinvestProof","inputs":[{"name":"_proofNo","type":"uint256","indexed":true,"internalType":"uint256"},{"name":"_normalGoodNo","type":"uint256","indexed":false,"internalType":"uint256"},{"name":"_valueGoodNo","type":"uint256","indexed":false,"internalType":"uint256"},{"name":"_value","type":"uint128","indexed":false,"internalType":"uint128"},{"name":"_normalgood","type":"uint256","indexed":false,"internalType":"T_BalanceUINT256"},{"name":"_valuegood","type":"uint256","indexed":false,"internalType":"T_BalanceUINT256"},{"name":"_profit","type":"uint256","indexed":false,"internalType":"T_BalanceUINT256"}],"anonymous":false},{"type":"event","name":"e_enpower","inputs":[{"name":"_goodid","type":"uint256","indexed":false,"internalType":"uint256"},{"name":"_valuegood","type":"uint256","indexed":false,"internalType":"uint256"},{"name":"_quantity","type":"uint256","indexed":false,"internalType":"uint256"}],"anonymous":false},{"type":"event","name":"e_goodWelfare","inputs":[{"name":"goodid","type":"uint256","indexed":false,"internalType":"uint256"},{"name":"welfare","type":"uint128","indexed":false,"internalType":"uint128"}],"anonymous":false},{"type":"event","name":"e_initGood","inputs":[{"name":"_proofNo","type":"uint256","indexed":true,"internalType":"uint256"},{"name":"_normalgoodNo","type":"uint256","indexed":false,"internalType":"uint256"},{"name":"_valuegoodNo","type":"uint256","indexed":false,"internalType":"uint256"},{"name":"_erc20address","type":"address","indexed":false,"internalType":"address"},{"name":"_goodConfig","type":"uint256","indexed":false,"internalType":"uint256"},{"name":"_normalinitial","type":"uint256","indexed":false,"internalType":"T_BalanceUINT256"},{"name":"_value","type":"uint256","indexed":false,"internalType":"T_BalanceUINT256"}],"anonymous":false},{"type":"event","name":"e_initMetaGood","inputs":[{"name":"_proofNo","type":"uint256","indexed":true,"internalType":"uint256"},{"name":"_goodNo","type":"uint256","indexed":false,"internalType":"uint256"},{"name":"_erc20address","type":"address","indexed":false,"internalType":"address"},{"name":"_goodConfig","type":"uint256","indexed":false,"internalType":"uint256"},{"name":"_initial","type":"uint256","indexed":false,"internalType":"T_BalanceUINT256"}],"anonymous":false},{"type":"event","name":"e_investGood","inputs":[{"name":"_proofNo","type":"uint256","indexed":true,"internalType":"uint256"},{"name":"_normalGoodNo","type":"uint256","indexed":false,"internalType":"uint256"},{"name":"_valueGoodNo","type":"uint256","indexed":false,"internalType":"uint256"},{"name":"_value","type":"uint256","indexed":false,"internalType":"T_BalanceUINT256"},{"name":"_invest","type":"uint256","indexed":false,"internalType":"T_BalanceUINT256"},{"name":"_valueinvest","type":"uint256","indexed":false,"internalType":"T_BalanceUINT256"}],"anonymous":false},{"type":"event","name":"e_modifyGoodConfig","inputs":[{"name":"_goodid","type":"uint256","indexed":false,"internalType":"uint256"},{"name":"_goodconfig","type":"uint256","indexed":false,"internalType":"uint256"}],"anonymous":false},{"type":"event","name":"e_removebanlist","inputs":[{"name":"_user","type":"address","indexed":false,"internalType":"address"}],"anonymous":false},{"type":"event","name":"e_setMarketConfig","inputs":[{"name":"_marketconfig","type":"uint256","indexed":false,"internalType":"uint256"}],"anonymous":false},{"type":"event","name":"e_updateGoodConfig","inputs":[{"name":"_goodid","type":"uint256","indexed":false,"internalType":"uint256"},{"name":"_goodConfig","type":"uint256","indexed":false,"internalType":"uint256"}],"anonymous":false},{"type":"error","name":"ERC20TransferFailed","inputs":[]},{"type":"error","name":"InvalidShortString","inputs":[]},{"type":"error","name":"NativeTransferFailed","inputs":[]},{"type":"error","name":"StringTooLong","inputs":[{"name":"str","type":"string","internalType":"string"}]}],"bytecode":{"object":"0x6101806040527f49ecf333e5b8c95c40fdafc95c1ad136e8914a8fb55e9dc8bb01eaa83a2df9ad61016052348015610035575f80fd5b5060405161628c38038061628c83398101604081905261005491610218565b604080518082018252600780825266151514c813919560ca1b60208084019190915283518085018552600381526254545360e81b81830152845180860190955260018552603160f81b91850191909152600280546001600160a01b0319166001600160a01b0388161790555f85905591928391829084906100d583826102e7565b5060086100e282826102e7565b506100f29150839050600d6101a0565b6101205261010181600e6101a0565b61014052815160208084019190912060e052815190820120610100524660a05261018d60e05161010051604080517f8b73c3c69bb8fe3d512ecc4cf759cc79239f7b179b0ffacaa9a75d522b39400f60208201529081019290925260608201524660808201523060a08201525f9060c00160405160208183030381529060405280519060200120905090565b60805250503060c052506103f992505050565b5f6020835110156101bb576101b4836101d2565b90506101cc565b816101c684826102e7565b5060ff90505b92915050565b5f80829050601f81511115610205578260405163305a27a960e01b81526004016101fc91906103a1565b60405180910390fd5b8051610210826103d6565b179392505050565b5f8060408385031215610229575f80fd5b82516001600160a01b038116811461023f575f80fd5b6020939093015192949293505050565b634e487b7160e01b5f52604160045260245ffd5b600181811c9082168061027757607f821691505b60208210810361029557634e487b7160e01b5f52602260045260245ffd5b50919050565b601f8211156102e257805f5260205f20601f840160051c810160208510156102c05750805b601f840160051c820191505b818110156102df575f81556001016102cc565b50505b505050565b81516001600160401b038111156103005761030061024f565b6103148161030e8454610263565b8461029b565b6020601f821160018114610346575f831561032f5750848201515b5f19600385901b1c1916600184901b1784556102df565b5f84815260208120601f198516915b828110156103755787850151825560209485019460019092019101610355565b508482101561039257868401515f19600387901b60f8161c191681555b50505050600190811b01905550565b602081525f82518060208401528060208501604085015e5f604082850101526040601f19601f83011684010191505092915050565b80516020808301519190811015610295575f1960209190910360031b1b16919050565b60805160a05160c05160e05161010051610120516101405161016051615e386104545f395f61308101525f6119f901525f6119ce01525f61327f01525f61325701525f6131b201525f6131dc01525f6132060152615e385ff3fe6080604052600436106102e2575f3560e01c80635a5da4dd11610186578063a128fcf2116100dc578063b88d4fde11610087578063f44733ad11610062578063f44733ad1461090e578063f4662f2014610921578063f88c301014610940575f80fd5b8063b88d4fde14610889578063c87b56dd146108a8578063e985e9c5146108c7575f80fd5b8063a6f6a980116100b7578063a6f6a980146107db578063a7e1169714610857578063b153b9201461086a575f80fd5b8063a128fcf214610769578063a22cb4651461079d578063a676a600146107bc575f80fd5b8063745a41bc1161013c5780639551177a116101175780639551177a1461072357806395d89b411461074257806397924ead14610756575f80fd5b8063745a41bc146106ca57806384b0196e146106e9578063920acbb814610710575f80fd5b80636352211e1161016c5780636352211e146106605780636ff73c8e1461067f57806370a08231146106ab575f80fd5b80635a5da4dd146106205780635e008cc414610635575f80fd5b80632973ada71161023b5780633f117740116101f157806345818e4c116101cc57806345818e4c146105bb5780634ffef907146105da578063578496ab146105ed575f80fd5b80633f11774014610515578063402f5ab51461058857806342842e0e1461059c575f80fd5b80632f9da5f0116102215780632f9da5f0146104ae5780633644e515146104e25780633d995173146104f6575f80fd5b80632973ada7146104645780632a7c5a911461048f575f80fd5b8063141a468c1161029b57806318ad50d11161027657806318ad50d11461041357806323b872dd1461042657806324744d5414610445575f80fd5b8063141a468c146103b2578063144aeb83146103df57806318160ddd146103fe575f80fd5b8063081812fc116102cb578063081812fc1461033b578063095ea7b3146103725780630e21a1ac14610393575f80fd5b806301ffc9a7146102e657806306fdde031461031a575b5f80fd5b3480156102f1575f80fd5b50610305610300366004615496565b61095f565b60405190151581526020015b60405180910390f35b348015610325575f80fd5b5061032e610989565b60405161031191906154df565b348015610346575f80fd5b5061035a6103553660046154f1565b610a19565b6040516001600160a01b039091168152602001610311565b34801561037d575f80fd5b5061039161038c36600461551e565b610a3e565b005b34801561039e575f80fd5b506103056103ad366004615546565b610b57565b3480156103bd575f80fd5b506103d16103cc3660046154f1565b610bc9565b604051908152602001610311565b3480156103ea575f80fd5b506103056103f9366004615546565b610bdc565b348015610409575f80fd5b506103d160105481565b61039161042136600461557c565b610c4d565b348015610431575f80fd5b506103916104403660046155a6565b610d5a565b348015610450575f80fd5b5061039161045f366004615691565b610f61565b34801561046f575f80fd5b506103d161047e366004615727565b60056020525f908152604090205481565b34801561049a575f80fd5b506103916104a9366004615740565b610f81565b3480156104b9575f80fd5b506104cd6104c8366004615546565b611000565b60408051928352602083019190915201610311565b3480156104ed575f80fd5b506103d1611022565b348015610501575f80fd5b5060025461035a906001600160a01b031681565b348015610520575f80fd5b5061053461052f3660046154f1565b611030565b60405161031191905f60c08201905082518252602083015160208301526040830151604083015260608301516060830152608083015160808301526001600160a01b0360a08401511660a083015292915050565b348015610593575f80fd5b506103d15f5481565b3480156105a7575f80fd5b506103916105b63660046155a6565b6110cd565b3480156105c6575f80fd5b506103056105d53660046154f1565b6110e7565b6103056105e8366004615761565b611140565b6106006105fb3660046157aa565b6114a2565b604080516001600160801b03938416815292909116602083015201610311565b34801561062b575f80fd5b506103d160015481565b348015610640575f80fd5b506103d161064f3660046154f1565b60126020525f908152604090205481565b34801561066b575f80fd5b5061035a61067a3660046154f1565b6117bb565b34801561068a575f80fd5b5061069e61069936600461587b565b61181f565b60405161031191906158f7565b3480156106b6575f80fd5b506103d16106c5366004615727565b611917565b3480156106d5575f80fd5b506103916106e4366004615909565b6119af565b3480156106f4575f80fd5b506106fd6119c1565b6040516103119796959493929190615966565b61030561071e3660046159d3565b611a48565b34801561072e575f80fd5b5061030561073d366004615727565b611ac0565b34801561074d575f80fd5b5061032e611b22565b610305610764366004615a05565b611b31565b348015610774575f80fd5b5061035a610783366004615727565b60066020525f90815260409020546001600160a01b031681565b3480156107a8575f80fd5b506103916107b7366004615a35565b611cf5565b3480156107c7575f80fd5b506103d16107d6366004615740565b611d04565b3480156107e6575f80fd5b506107fa6107f53660046154f1565b611e9b565b60405161031191905f60c082019050825182526001600160a01b0360208401511660208301526001600160a01b036040840151166040830152606083015160608301526080830151608083015260a083015160a083015292915050565b610600610865366004615a5d565b611f3c565b348015610875575f80fd5b50610305610884366004615727565b612179565b348015610894575f80fd5b506103916108a3366004615aa9565b6121dd565b3480156108b3575f80fd5b5061032e6108c23660046154f1565b6123e6565b3480156108d2575f80fd5b506103056108e1366004615af5565b6001600160a01b039182165f908152600c6020908152604080832093909416825291909152205460ff1690565b61030561091c366004615b1d565b61244a565b34801561092c575f80fd5b5061030561093b366004615b46565b612784565b34801561094b575f80fd5b5061039161095a366004615b76565b612a1a565b5f6001600160e01b03198216635604e22560e01b1480610983575061098382612c7b565b92915050565b60606007805461099890615ba8565b80601f01602080910402602001604051908101604052809291908181526020018280546109c490615ba8565b8015610a0f5780601f106109e657610100808354040283529160200191610a0f565b820191905f5260205f20905b8154815290600101906020018083116109f257829003601f168201915b5050505050905090565b5f610a2382612cca565b505f908152600b60205260409020546001600160a01b031690565b5f610a48826117bb565b9050806001600160a01b0316836001600160a01b031603610aba5760405162461bcd60e51b815260206004820152602160248201527f4552433732313a20617070726f76616c20746f2063757272656e74206f776e656044820152603960f91b60648201526084015b60405180910390fd5b336001600160a01b0382161480610ad65750610ad681336108e1565b610b485760405162461bcd60e51b815260206004820152603d60248201527f4552433732313a20617070726f76652063616c6c6572206973206e6f7420746f60448201527f6b656e206f776e6572206f7220617070726f76656420666f7220616c6c0000006064820152608401610ab1565b610b528383612d30565b505050565b6002545f906001600160a01b03163314610b6f575f80fd5b5f838152600360205260409020610b869083612d9d565b60408051848152602081018490527f5af113730f9ee4153f120c893809feafa233584bbe5e93b5d78e0699c9c8ca5691015b60405180910390a150600192915050565b5f818152600f6020526040812054610983565b5f828152600360205260408120600101546001600160a01b03163314610c00575f80fd5b5f838152600360205260409020610c179083612ddc565b60408051848152602081018490527fc360eef79f1e7d7e7564e3cd446a9839f5a632a38a4d34b507c08e1ceef461479101610bb8565b60045415610c59575f80fd5b60016004555f828152600360205260409020600501546d200000000000000000000000000090610c8d90839060801c615bf4565b6001600160801b03161115610ca0575f80fd5b5f82815260036020526040902060020154610cce906001600160a01b0316336001600160801b038416612e17565b5f82815260036020526040902060050154610cf290608083901b612e24565b612e24565b5f838152600360205260409081902060050191909155517f54fe3e24ce316357354d8b9553364de253d61c742d913dfd419149ddf696947a90610d4a90849084909182526001600160801b0316602082015260400190565b60405180910390a150505f600455565b610d643382612e50565b610dc65760405162461bcd60e51b815260206004820152602d60248201527f4552433732313a2063616c6c6572206973206e6f7420746f6b656e206f776e6560448201526c1c881bdc88185c1c1c9bdd9959609a1b6064820152608401610ab1565b610dd1838383612ecd565b5f8181526011602081815260408084206005810180546001600160a01b031916905581516060810183526001600160a01b03891681528154818501528686529390925260019091015490820152610e2790612eec565b604080516060810182526001600160a01b03861681525f85815260116020818152848320805482860152888452919052600101549282019290925291925090610e6f90612eec565b5f8181526012602052604081205491925003610e9f575f8281526012602052604080822054838352912055610f13565b5f8381526011602081815260408084208585526012835281852054855292909152909120610ecc91612f38565b5f838152601160205260408120818155600181018290556002810182905560038101829055600481019190915560050180546001600160a01b0319169055610f1383612f8a565b5f828152601260205260408082208290555184916001600160a01b0380881692908916917fddf252ad1be2c89b69c2b068fc378daa952ba7f163c4a11628f55a4df523b3ef91a45050505050565b610f6d3385848461301c565b610f79868686866121dd565b505050505050565b6002546001600160a01b03163314610f97575f80fd5b5f8281526003602090815260409182902060010180546001600160a01b0319166001600160a01b0385169081179091558251858152918201527f0dccb79e09923e42093e54de6132ceba9b88b094d10632520f6eeb8058a6721c91015b60405180910390a15050565b5f828152600360208190526040808320820154848452922001545b9250929050565b5f61102b6131a6565b905090565b61106c6040518060c001604052805f81526020015f81526020015f81526020015f81526020015f81526020015f6001600160a01b031681525090565b505f90815260116020908152604091829020825160c0810184528154815260018201549281019290925260028101549282019290925260038201546060820152600482015460808201526005909101546001600160a01b031660a082015290565b610b5283838360405180602001604052805f8152506121dd565b6002545f906001600160a01b031633146110ff575f80fd5b5f8290556040518281527fbd209961024f2694b0afb3c8badd20b6477abb77b336b16892c3fa4b906d323c906020015b60405180910390a15060015b919050565b5f6004545f1461114e575f80fd5b6001600455604080518082019091523381526001600160a01b03841660208201525f9061117a906132cf565b5f818152600360205260409020600101549091506001600160a01b03161580156111b657505f868152600360205260409020546111b6906132ff565b6111be575f80fd5b6111e6336111cc8760801c90565b6001600160a01b03871691906001600160801b0316612e17565b5f86815260036020526040902060020154611214906001600160a01b0316336001600160801b038816612e17565b5f86815260036020526040812061122b908761331c565b90506001805f82825461123e9190615c13565b925050819055506112c961126d826040015161125a8960801c90565b6001600160801b031660809190911b1790565b5f8481526003602052604090209087876003840183905560048401929092556001600160df1b0390911682556002820180546001600160a01b039092166001600160a01b03199283161790556001909101805490911633179055565b600160105f8282546112db9190615c13565b909155505060408051606081018252338152602081018490529081018890525f9061130590612eec565b6010545f828152601260205260409020819055909150611326903390613470565b6040805160c081018252848152602081018a905283820151909182019060801b81526020016113595f61125a8b60801c90565b81526020016113808460200151856060015160809190911b6001600160801b039091161790565b81525f60209182018190526010805482526011835260409182902084518155928401516001840155908301516002830155606083015160038301556080830151600483015560a090920151600590910180546001600160a01b03929092166001600160a01b0319909216919091179055547fd5b1190461e8b8cebdd658c8dd4f092c64be24d6dae8d80a4174dad7899a814e848a898961143b6114238e60801c90565b60408a01516001600160801b031660809190911b1790565b885160608a01516001600160801b031660809190911b176040805196875260208701959095526001600160a01b03909316938501939093526060840152608083019190915260a082015260c00160405180910390a250505f60045550600195945050505050565b5f806004545f146114b1575f80fd5b60016004556001600160a01b038316158015906114e35750335f908152600660205260409020546001600160a01b0316155b1561154757335f9081526006602090815260409182902080546001600160a01b0319166001600160a01b03871690811790915591519182527f7da361ef032ddb975b4fa950921c1ecb79041d004acea71333e2dac6ec917c98910160405180910390a15b60408051610100810182526001600160801b03881681525f6020808301829052828401829052606083018290528b825260038082528483208082015460808601525460a08501528b83528082529382208085015460c0850152918b905292909252905460e08201526115b981876135f8565b90505f876001600160801b03161180156115e85750866001600160801b0316815f01516001600160801b031614155b80156115f45750878914155b801561161857506001851515148015611616575080516001600160801b031615155b155b611620575f80fd5b6020808201515f8a81526003909252604090912054611653916001600160801b031661271060cc9290921c607f16020490565b91508181602001516116659190615c26565b60808201516040808401515f8d815260036020529190912092955061168b929190613958565b60c08101515f8981526003602052604090206116a79184613958565b80516116e39033906116b9908a615c26565b5f8c8152600360205260409020600201546001600160a01b031691906001600160801b0316612e17565b5f88815260036020526040902060020154611711906001600160a01b0316336001600160801b03861661397f565b87897fa79c43e220b5faf022716b06e757294b799a25f33d3c8b0121e614f7b5d988c4338460600151611764865f01518d61174c9190615c26565b60408801516001600160801b031660809190911b1790565b6001600160801b03881660808a901b17604080516001600160a01b0390951685526001600160801b03909316602085015291830152606082015260800160405180910390a3505f6004559097909650945050505050565b5f818152600960205260408120546001600160a01b0316806109835760405162461bcd60e51b815260206004820152601860248201527f4552433732313a20696e76616c696420746f6b656e20494400000000000000006044820152606401610ab1565b6060606483511061182e575f80fd5b5f835167ffffffffffffffff811115611849576118496155e0565b604051908082528060200260200182016040528015611872578160200160208202803683370190505b5090505f5b845181101561190f5760035f86838151811061189557611895615c45565b602002602001015181526020019081526020015f206006015f856001600160a01b03166001600160a01b031681526020019081526020015f205f9054906101000a90046001600160801b03166001600160801b03168282815181106118fc576118fc615c45565b6020908102919091010152600101611877565b509392505050565b5f6001600160a01b0382166119945760405162461bcd60e51b815260206004820152602960248201527f4552433732313a2061646472657373207a65726f206973206e6f74206120766160448201527f6c6964206f776e657200000000000000000000000000000000000000000000006064820152608401610ab1565b506001600160a01b03165f908152600a602052604090205490565b6119bb8484848461301c565b50505050565b5f606080828080836119f47f0000000000000000000000000000000000000000000000000000000000000000600d613a11565b611a1f7f0000000000000000000000000000000000000000000000000000000000000000600e613a11565b604080515f80825260208201909252600f60f81b9b939a50919850469750309650945092509050565b5f838152600360205260408120600201546001600160a01b0316611a90575f84815260036020526040902060020154611a8b906001600160a01b0316838561397f565b611ab6565b5f84815260036020526040902060020154611ab6906001600160a01b0316338486613aba565b5060019392505050565b6002545f906001600160a01b03163314611ad8575f80fd5b6001600160a01b0382165f8181526005602090815260408083209290925590519182527e4ba2ca448db089eb9fb0b25431f0d57664d46141171fed2476281b578d96d4910161112f565b60606008805461099890615ba8565b5f6001545f148015611b475750611b47826132ff565b611b4f575f80fd5b611b5933846111cc565b6001805f828254611b6a9190615c13565b9091555050604080518082019091523381526001600160a01b03851660208201525f90611b96906132cf565b5f818152600360208190526040909120908101869055600481018690556001600160df1b03851681556002810180546001600160a01b0389166001600160a01b03199182161790915560018201805490911633179055909150611bfe90640100000000612d9d565b600160105f828254611c109190615c13565b909155505060408051606081018252338152602081018390525f918101829052611c3990612eec565b6010545f828152601260205260409020819055909150611c5a903390613470565b611c96825f611c72611c6c8960801c90565b60801b90565b611c7c5f8a61125a565b6010545f9081526011602052604081209493929190613b5f565b601054604080518481526001600160a01b0389166020820152908101869052606081018790527f9f234216268c7b4b9373c01c9d1cc757d055e68b6440edbaaf229c63a0313bc79060800160405180910390a250600195945050505050565b611d00338383613bcd565b5050565b5f6004545f14611d12575f80fd5b6001600455611d213384612e50565b80611d4457505f838152601160205260409020600501546001600160a01b031633145b611d4c575f80fd5b5f83815260116020908152604080832060018082015491546001600160a01b03881686526005909452919093205414611d855783611d92565b6002546001600160a01b03165b335f908152600660205260409020549094506001600160a01b039081169085168114611dbe5780611dcb565b6002546001600160a01b03165b6001600160a01b0381165f90815260056020526040902054909150600114611dfe576002546001600160a01b0316611e00565b805b5f8481526003602081815260408084208b85526011835281852085546002548a88529590945291909420949550611e4894939290918a918791906001600160a01b0316613c9a565b604080518481526020810186905290810182905290945086907f172f458c2c853ed38b0114381270db7647bc1f9b612a42852353261a7e3379be9060600160405180910390a250505f6004555092915050565b611ee06040518060c001604052805f81526020015f6001600160a01b031681526020015f6001600160a01b031681526020015f81526020015f81526020015f81525090565b5f8281526003602081815260408084208054865260018101546001600160a01b0390811687850152600282015416918601919091528083015460608601526004810154608086015294909252905260059091015460a082015290565b5f806004545f14611f4b575f80fd5b600160045560408051610100810182526001600160801b03871681525f6020808301829052828401829052606083018290528a825260038082528483208082015460808601525460a08501528a83528082529382208085015460c0850152918a905292909252905460e0820152611fc28186613d8b565b9050868814158015611fdc575080516001600160801b0316155b611fe4575f80fd5b6020808201515f8a81526003909252604090912054612017916001600160801b031661271060c59290921c607f16020490565b91508181602001516120299190615bf4565b60c08201516040808401515f8b815260036020529190912092955061204f929190613958565b60808101515f89815260036020526040902061206b9184613958565b6120a98482604001518861207f9190615c26565b5f8a8152600360205260409020600201546001600160a01b031691906001600160801b031661397f565b5f888152600360205260409020600201546120d7906001600160a01b0316336001600160801b038616612e17565b86887f3de590341c976ea6fce618ef4a768a15441201ad3ed7c9b438d82c3951de7ced3387856060015161211f8c886040015160809190911b6001600160801b039091161790565b604080516001600160a01b0395861681529390941660208401526001600160801b03918216838501526060830152608089811b918916919091179082015290519081900360a00190a3505f60045590969095509350505050565b6002545f906001600160a01b03163314612191575f80fd5b6001600160a01b0382165f818152600560209081526040918290206001905590519182527f8e1c2d1a5dce36a56a9dfcb96e5816e793c16d6c897b4e3c0b1f99588bb88a1c910161112f565b6121e73383612e50565b6122495760405162461bcd60e51b815260206004820152602d60248201527f4552433732313a2063616c6c6572206973206e6f7420746f6b656e206f776e6560448201526c1c881bdc88185c1c1c9bdd9959609a1b6064820152608401610ab1565b6122558484848461400c565b5f8281526011602081815260408084206005810180546001600160a01b031916905581516060810183526001600160a01b038a16815281548185015287865293909252600190910154908201526122ab90612eec565b604080516060810182526001600160a01b03871681525f868152601160208181528483208054828601528984529190526001015492820192909252919250906122f390612eec565b5f8181526012602052604081205491925003612323575f8281526012602052604080822054838352912055612397565b5f848152601160208181526040808420858552601283528185205485529290915290912061235091612f38565b5f848152601160205260408120818155600181018290556002810182905560038101829055600481019190915560050180546001600160a01b031916905561239784612f8a565b5f828152601260205260408082208290555185916001600160a01b0380891692908a16917fddf252ad1be2c89b69c2b068fc378daa952ba7f163c4a11628f55a4df523b3ef91a4505050505050565b60606123f182612cca565b5f6123fa614095565b90505f8151116124185760405180602001604052805f815250612443565b80612422846140b5565b604051602001612433929190615c70565b6040516020818303038152906040525b9392505050565b5f6004545f14612458575f80fd5b6001600455604080516080810182525f808252602082018190529181018290526060810191909152604080516080810182525f8082526020820181905291810182905260608101919091525f86815260036020819052604090912001546d20000000000000000000000000009085906124d19190615bf4565b6001600160801b0316111580156124e85750848614155b801561252357505f86815260036020526040902054612506906132ff565b8061252357505f85815260036020526040902054612523906132ff565b61252b575f80fd5b5f868152600360205260409020612542908561331c565b5f87815260036020526040902060020154909250612573906001600160a01b0316336001600160801b038716612e17565b841561261e576040808301515f878152600360208190529290209091015461259a91614152565b6001600160801b0316606082018190525f8681526003602052604090205460d91c603f16612710908103909104026001600160801b0316606082018190525f86815260036020526040902060020154612600916001600160a01b03909116903390612e17565b60608101515f86815260036020526040902061261b9161331c565b90505b5f61264b6040518060600160405280336001600160a01b0316815260200189815260200188815250612eec565b5f8181526012602052604081205491925081900361269d57600160105f8282546126759190615c13565b9250508190555061268833601054613470565b506010545f8281526012602052604090208190555b60408401516126f8908990899060801b602088015160608901516001600160801b031660809190911b17602088015160608901516001600160801b031660809190911b175f8781526011602052604090209493929190613b5f565b604084810151855160608088015187518883015186518f8152602081018f9052608096871b8189015294861b6001600160801b039384161793850193909352841b91161791810191909152905182917f54327712026ec7eff19c69f41b88780daaa74a97ae2dcfa56a1de52fb0e07fcd919081900360a00190a250505f60045550600195945050505050565b5f6004545f14612792575f80fd5b60016004556127a13385612e50565b6127a9575f80fd5b60408051606080820183525f8083526020808401829052838501829052845192830185528183528281018290528285018290528882526011815284822080546001918201546001600160a01b038a1685526005909352958320549495939491929114612820576002546001600160a01b0316612822565b865b335f908152600660205260409020549097506001600160a01b03908116908816811461284e578061285b565b6002546001600160a01b03165b6001600160a01b0381165f9081526005602052604090205490915060011461288e576002546001600160a01b0316612890565b805b905061293860035f8581526020019081526020015f2060115f8d81526020019081526020015f206040518060a001604052808d6001600160801b031681526020018c6001600160a01b03168152602001856001600160a01b031681526020015f54815260200160025f9054906101000a90046001600160a01b03166001600160a01b031681525060035f8981526020019081526020015f206141cc909392919063ffffffff16565b91975095509150821561295357612950826002615c84565b91505b897f243abbbd47dee114cad9689e3093459f008e8ca4fa627f9d19c4957934b81eaf85858561299a8b602001518c6040015160809190911b6001600160801b039091161790565b60208b015160408c01516001600160801b031660809190911b178c518c516001600160801b031660809190911b176040805196875260208701959095526001600160801b03909316938501939093526060840152608083019190915260a082015260c00160405180910390a250505f600455506001979650505050505050565b6064815110612a27575f80fd5b5f815167ffffffffffffffff811115612a4257612a426155e0565b604051908082528060200260200182016040528015612a6b578160200160208202803683370190505b5090505f5b8251811015612c495760035f848381518110612a8e57612a8e615c45565b60209081029190910181015182528181019290925260409081015f90812033825260060190925290205482516001600160801b0390911690839083908110612ad857612ad8615c45565b6020026020010181815250506002828281518110612af857612af8615c45565b60200260200101511015612b2a575f828281518110612b1957612b19615c45565b602002602001018181525050612c41565b6001828281518110612b3e57612b3e615c45565b6020026020010151612b509190615cad565b828281518110612b6257612b62615c45565b602002602001018181525050600160035f858481518110612b8557612b85615c45565b602002602001015181526020019081526020015f206006015f336001600160a01b03166001600160a01b031681526020019081526020015f205f6101000a8154816001600160801b0302191690836001600160801b03160217905550612c4133838381518110612bf757612bf7615c45565b602002602001015160035f878681518110612c1457612c14615c45565b60209081029190910181015182528101919091526040015f20600201546001600160a01b0316919061397f565b600101612a70565b507f8124a8d085ceb98e89ac6906c6e138dca5fdbc28a91438e33d7a2ab6c75742fd8282604051610ff4929190615cc0565b5f6001600160e01b031982166380ac58cd60e01b1480612cab57506001600160e01b03198216635b5e139f60e01b145b8061098357506301ffc9a760e01b6001600160e01b0319831614610983565b5f818152600960205260409020546001600160a01b0316612d2d5760405162461bcd60e51b815260206004820152601860248201527f4552433732313a20696e76616c696420746f6b656e20494400000000000000006044820152606401610ab1565b50565b5f818152600b6020526040902080546001600160a01b0319166001600160a01b0384169081179091558190612d64826117bb565b6001600160a01b03167f8c5be1e5ebec7d5bd14f71427d1e84f3dd0314c0f7b2291e5b200ac8c7c3b92560405160405180910390a45050565b815460df82901b90612dcc907b8000000000000000000000000000000000000000000000000000000090615d01565b612dd69190615c13565b90915550565b81546001600160df1b0390911690612dd69082907fffffffff8000000000000000000000000000000000000000000000000000000016615c13565b306119bb84848385613aba565b5f612443612e328360801c90565b612e3c8560801c90565b612e469190615bf4565b61125a8486615bf4565b5f80612e5b836117bb565b9050806001600160a01b0316846001600160a01b03161480612ea157506001600160a01b038082165f908152600c602090815260408083209388168352929052205460ff165b80612ec55750836001600160a01b0316612eba84610a19565b6001600160a01b0316145b949350505050565b5f818152600f6020526040902080546001019055610b528383836146d1565b6040805182516001600160a01b0316602080830191909152830151818301529082015160608201525f906080015b60408051601f19818403018152919052805160209091012092915050565b612f4a82600201548260020154612e24565b8260020181905550612f6482600301548260030154612e24565b8260030181905550612f7e82600401548260040154612e24565b82600401819055505050565b5f612f94826117bb565b9050612f9f826117bb565b5f838152600b6020908152604080832080546001600160a01b03199081169091556001600160a01b038516808552600a845282852080545f190190558785526009909352818420805490911690555192935084927fddf252ad1be2c89b69c2b068fc378daa952ba7f163c4a11628f55a4df523b3ef908390a45050565b8142111561306c5760405162461bcd60e51b815260206004820152601e60248201527f4552433732315065726d69743a206578706972656420646561646c696e6500006044820152606401610ab1565b5f838152600f602090815260408083205481517f0000000000000000000000000000000000000000000000000000000000000000818501526001600160a01b0389168184015260608101889052608081019190915260a08082018790528251808303909101815260c09091019091528051910120906130ea826148af565b90505f6130f782856148db565b5090505f6001600160a01b0382161580159061311857506131188288612e50565b90508080613134575061313461312d886117bb565b848761491a565b80613146575061314661312d88610a19565b6131925760405162461bcd60e51b815260206004820152601f60248201527f4552433732315065726d69743a20696e76616c6964207369676e6174757265006044820152606401610ab1565b61319c8888612d30565b5050505050505050565b5f306001600160a01b037f0000000000000000000000000000000000000000000000000000000000000000161480156131fe57507f000000000000000000000000000000000000000000000000000000000000000046145b1561322857507f000000000000000000000000000000000000000000000000000000000000000090565b61102b604080517f8b73c3c69bb8fe3d512ecc4cf759cc79239f7b179b0ffacaa9a75d522b39400f60208201527f0000000000000000000000000000000000000000000000000000000000000000918101919091527f000000000000000000000000000000000000000000000000000000000000000060608201524660808201523060a08201525f9060c00160405160208183030381529060405280519060200120905090565b5f81604051602001612f1a919081516001600160a01b039081168252602092830151169181019190915260400190565b5f60ff82901c60018114613313575f612443565b60019392505050565b604080516080810182525f8082526020820181905291810182905260608101919091528254613360906001600160801b03841661271060d99290921c603f16020490565b6001600160801b03168082526133769083615c26565b6001600160801b031660608201819052600384015461339491614a20565b6001600160801b03166040820152606081015160058401546133c891906133c29060801c600487015461125a565b90614a20565b6001600160801b0316602082018190526005840154825161340992610ced916133f19190615bf4565b60208501516001600160801b031660809190911b1790565b6005840155600383015460408201516060830151613436929160801b6001600160801b0390911617612e24565b6003840155600483015460408201516060830151613463929160801b6001600160801b0390911617612e24565b6004909301929092555090565b6001600160a01b0382166134c65760405162461bcd60e51b815260206004820181905260248201527f4552433732313a206d696e7420746f20746865207a65726f20616464726573736044820152606401610ab1565b5f818152600960205260409020546001600160a01b03161561352a5760405162461bcd60e51b815260206004820152601c60248201527f4552433732313a20746f6b656e20616c7265616479206d696e746564000000006044820152606401610ab1565b5f818152600960205260409020546001600160a01b03161561358e5760405162461bcd60e51b815260206004820152601c60248201527f4552433732313a20746f6b656e20616c7265616479206d696e746564000000006044820152606401610ab1565b6001600160a01b0382165f818152600a6020908152604080832080546001019055848352600990915280822080546001600160a01b0319168417905551839291907fddf252ad1be2c89b69c2b068fc378daa952ba7f163c4a11628f55a4df523b3ef908290a45050565b60408051610100810182525f80825260208201819052918101829052606081018290526080810182905260a0810182905260c0810182905260e081019190915261364b83608001518460c0015184614a57565b613656575081610983565b825160a08401515f91829161367f916001600160801b031661271060c59290921c607f16020490565b6001600160801b0316604086018190528551869061369e908390615c26565b6001600160801b03169052505b84516001600160801b0316158015906136d257506136d285608001518660c0015186614a57565b156138c0576136f36136e88660c0015160801c90565b60e087015190614ae5565b6001600160801b031661371861370d876080015160801c90565b60a088015190614ae5565b6001600160801b0316101561374857613743613738866080015160801c90565b60a087015190614ae5565b613759565b6137596136e88660c0015160801c90565b608086015190925061376b9083614152565b9050806001600160801b0316855f01516001600160801b0316111561381d5780855f0181815161379b9190615c26565b6001600160801b031690525060c08501516137b69083614152565b856020018181516137c79190615bf4565b6001600160801b039081169091526080878101516137f293509184169085901b17614b14565b614b14565b608086015260c08501516138139061380e8461125a8382614152565b614b36565b60c086015261389d565b8451608086015161382d91614a20565b60c086015190925061383f9083614152565b856020018181516138509190615bf4565b6001600160801b03908116909152608087810151885161387894509092169085901b17614b14565b608086015260c08501516138949061380e8461125a8382614152565b60c08601525f85525b81856060018181516138af9190615bf4565b6001600160801b03169052506136ab565b84516001600160801b03161561394f57845160a08601516138f5916001600160801b031661271060c59290921c607f16020490565b856040018181516139069190615c26565b6001600160801b03908116909152865160a08801516139339350911661271060c59290921c607f16020490565b85518690613942908390615bf4565b6001600160801b03169052505b50929392505050565b60038301829055600583015461397290608083901b612e24565b8360050181905550505050565b5f6001600160a01b0384166139bb575f805f8085875af19050806139b657604051633d2cec6f60e21b815260040160405180910390fd5b6119bb565b60405163a9059cbb60e01b5f52836004528260245260205f60445f80895af13d15601f3d1160015f511416171691505f6060528060405250806119bb57604051633c9fd93960e21b815260040160405180910390fd5b606060ff8314613a2b57613a2483614b62565b9050610983565b818054613a3790615ba8565b80601f0160208091040260200160405190810160405280929190818152602001828054613a6390615ba8565b8015613aae5780601f10613a8557610100808354040283529160200191613aae565b820191905f5260205f20905b815481529060010190602001808311613a9157829003601f168201915b50505050509050610983565b5f6001600160a01b038516613aee57813414613ae957604051633d2cec6f60e21b815260040160405180910390fd5b613b58565b6040516323b872dd60e01b81526001600160a01b03851660048201526001600160a01b038416602482015282604482015260205f6064835f8a5af13d15601f3d1160015f511416171691505080613b5857604051633c9fd93960e21b815260040160405180910390fd5b5050505050565b60038601546001600160801b03165f03613b77578486555b8315613b8557600186018490555b613b93866002015484612e24565b60028701556003860154613ba79083612e24565b60038701558315610f7957613bc0866004015482612e24565b6004870155505050505050565b816001600160a01b0316836001600160a01b031603613c2e5760405162461bcd60e51b815260206004820152601960248201527f4552433732313a20617070726f766520746f2063616c6c6572000000000000006044820152606401610ab1565b6001600160a01b038381165f818152600c6020908152604080832094871680845294825291829020805460ff191686151590811790915591519182527f17307eab39ab6107e8899845ad3d59bd9653f200f220920489ca2b5937696c31910160405180910390a3505050565b5f80613caa876003015460801c90565b613cd3613cb8896003015490565b6133c2613cc98d6005015460801c90565b60048e015461125a565b613cdd9190615c26565b60058a0154909150613cf8906001600160801b038316612e24565b60058a0155613d0c8982868989885f614b9f565b5f613d1b886004015460801c90565b613d29613cb88a6004015490565b613d339190615c26565b60058a0154909150613d4e906001600160801b038316612e24565b60058a0155613d628982878a8a895f614b9f565b6001600160801b038116608083901b179250613d7e8884614fcf565b5050979650505050505050565b60408051610100810182525f80825260208201819052918101829052606081018290526080810182905260a0810182905260c0810182905260e0810191909152613dde83608001518460c0015184614a57565b15613dea575081610983565b825160e08401515f918291613e13916001600160801b031661271060cc9290921c607f16020490565b6001600160801b031660408601525b84516001600160801b031615801590613e495750613e4985608001518660c0015186614a57565b1561394f57613e5f6136e88660c0015160801c90565b6001600160801b0316613e7961370d876080015160801c90565b6001600160801b03161015613e9e57613e99613738866080015160801c90565b613eaf565b613eaf6136e88660c0015160801c90565b60c0860151909250613ec19083614152565b9050806001600160801b0316855f01516001600160801b03161115613f695780855f01818151613ef19190615c26565b6001600160801b03169052506080850151613f0c9083614152565b85602001818151613f1d9190615bf4565b6001600160801b0390811690915260c0870151613f439250908316608085901b17614b36565b60c08601526080850151613f5f906137ed8461125a8382614152565b6080860152613fe9565b845160c0860151613f7991614a20565b6080860151909250613f8b9083614152565b85602001818151613f9c9190615bf4565b6001600160801b0390811690915260c08701518751613fc49350909116608085901b17614b36565b60c08601526080850151613fe0906137ed8461125a8382614152565b60808601525f85525b8185606001818151613ffb9190615bf4565b6001600160801b0316905250613e22565b614017848484612ecd565b61402384848484615005565b6119bb5760405162461bcd60e51b815260206004820152603260248201527f4552433732313a207472616e7366657220746f206e6f6e20455243373231526560448201527f63656976657220696d706c656d656e74657200000000000000000000000000006064820152608401610ab1565b6060604051806060016040528060238152602001615de060239139905090565b60605f6140c183615158565b60010190505f8167ffffffffffffffff8111156140e0576140e06155e0565b6040519080825280601f01601f19166020018201604052801561410a576020820181803683370190505b5090508181016020015b5f19017f3031323334353637383961626364656600000000000000000000000000000000600a86061a8153600a850494508461411457509392505050565b5f61415d8360801c90565b6001600160801b03165f0361417357505f610983565b5f61417e8460801c90565b6001600160801b0316836001600160801b03166141988690565b6001600160801b03166141ab9190615d14565b6141b59190615d2b565b90506001600160801b03811115612443575f612ec5565b604080516060810182525f8082526020820181905291810191909152604080516060810182525f80825260208201819052918101919091525f614227845f01516133c261421d886002015460801c90565b600389015461125a565b90506040518060600160405280614256865f01516133c261424c8c6005015460801c90565b60048d015461125a565b6001600160801b03168152602001614286865f01516133c261427c8a6003015460801c90565b60038b015461125a565b6001600160801b03908116825286511660209091015287549093506142aa906132ff565b806142bb575085546142bb906132ff565b80156142f057506142db6142d3886003015460801c90565b885490615239565b6001600160801b0316816001600160801b0316105b801561431d57506143056142d3886003015490565b6001600160801b0316845f01516001600160801b0316105b6143525760405162461bcd60e51b8152600401610ab1906020808252600490820152634730313160e01b604082015260600190565b6003870154604084015161437591906001600160801b0316608084901b1761525d565b60038801556004870154604084015161439d91906001600160801b0316608084901b1761525d565b60048801556005870154835160208501516143c7929160801b6001600160801b039091161761525d565b60058801556143d6858261527f565b602083015183516143e79190615c26565b6001600160801b039081168452604084015188546144139290911661271060d39290921c603f16020490565b6001600160801b03166020808501829052845160608701519187015160408089015160808a015191890151614456968e969493916144519190615c26565b614b9f565b60208301516001600160801b0316156144865760058701546020840151614480919060801b612e24565b60058801555b6001850154156146c75760405180606001604052806144ba836133c26144b08b6005015460801c90565b60048c015461125a565b6001600160801b031681526020016144e7836133c26144dd8a6004015460801c90565b60048b015461125a565b6001600160801b031681526020016145108361450a6144dd8a6002015460801c90565b90614152565b6001600160801b0316815250915061453761452f876003015460801c90565b875490615239565b6001600160801b0316816001600160801b0316108015614579575061456061452f876003015490565b6001600160801b031682604001516001600160801b0316105b6145ae5760405162461bcd60e51b8152600401610ab1906020808252600490820152632398189960e11b604082015260600190565b600386015460408301516145d191906001600160801b0316608084901b1761525d565b6003870155600486015460408301516145f991906001600160801b0316608084901b1761525d565b6004870155600586015482516020840151614623929160801b6001600160801b039091161761525d565b6005870155602082015182516146399190615c26565b6001600160801b039081168352604083015187546146659290911661271060d39290921c603f16020490565b6001600160801b031660208301819052156146975760058601546020830151614691919060801b612e24565b60058701555b6146c786835f01518660600151876020015188604001518960800151886020015189604001516144519190615c26565b9450945094915050565b826001600160a01b03166146e4826117bb565b6001600160a01b0316146147485760405162461bcd60e51b815260206004820152602560248201527f4552433732313a207472616e736665722066726f6d20696e636f72726563742060448201526437bbb732b960d91b6064820152608401610ab1565b6001600160a01b0382166147aa5760405162461bcd60e51b8152602060048201526024808201527f4552433732313a207472616e7366657220746f20746865207a65726f206164646044820152637265737360e01b6064820152608401610ab1565b826001600160a01b03166147bd826117bb565b6001600160a01b0316146148215760405162461bcd60e51b815260206004820152602560248201527f4552433732313a207472616e736665722066726f6d20696e636f72726563742060448201526437bbb732b960d91b6064820152608401610ab1565b5f818152600b6020908152604080832080546001600160a01b03199081169091556001600160a01b03878116808652600a855283862080545f1901905590871680865283862080546001019055868652600990945282852080549092168417909155905184937fddf252ad1be2c89b69c2b068fc378daa952ba7f163c4a11628f55a4df523b3ef91a4505050565b5f6109836148bb6131a6565b8360405161190160f01b8152600281019290925260228201526042902090565b5f80825160410361490f576020830151604084015160608501515f1a6149038782858561538d565b9450945050505061101b565b505f9050600261101b565b5f805f856001600160a01b0316631626ba7e60e01b8686604051602401614942929190615d3e565b60408051601f198184030181529181526020820180517bffffffffffffffffffffffffffffffffffffffffffffffffffffffff166001600160e01b03199094169390931790925290516149959190615d56565b5f60405180830381855afa9150503d805f81146149cd576040519150601f19603f3d011682016040523d82523d5f602084013e6149d2565b606091505b50915091508180156149e5575080516020145b8015614a1657508051630b135d3f60e11b90614a0a9083016020908101908401615d61565b6001600160e01b031916145b9695505050505050565b5f826001600160801b03165f03614a3857505f610983565b5f836001600160801b0316836001600160801b03166141988660801c90565b5f614a628260801c90565b6001600160801b0316614a758460801c90565b6001600160801b0316856001600160801b0316614a929190615d14565b614a9c9190615d14565b826001600160801b0316846001600160801b0316614aba8760801c90565b6001600160801b0316614acd9190615d14565b614ad79190615d14565b11611ab6575f949350505050565b5f6103ff60bb84901c16808203614aff5782915050610983565b614b0a816040615c84565b612ec59084615d7c565b5f612443614b228360801c90565b614b2c8560801c90565b612e469190615c26565b5f612443614b448360801c90565b614b4e8560801c90565b614b589190615bf4565b61125a8486615c26565b60605f614b6e8361544a565b6040805160208082528183019092529192505f91906020820181803683375050509182525060208101929092525090565b60646001600160801b03871660dd87901c601f160204614bbf8188615c26565b96505f806001600160a01b038616614d2057606460fa89901c6001600160801b038b1602049150614c1233614bf48685615bf4565b60028d01546001600160a01b031691906001600160801b031661397f565b6064603f60e28a901c166001600160801b038b1602046064603f60f48b901c166001600160801b038c160204614c489190615bf4565b6001600160a01b0388165f90815260068c016020526040812080549293508392909190614c7f9084906001600160801b0316615bf4565b92506101000a8154816001600160801b0302191690836001600160801b031602179055508281838b614cb19190615c26565b614cbb9190615c26565b614cc59190615bf4565b6001600160a01b0386165f90815260068c01602052604081208054909190614cf79084906001600160801b0316615bf4565b92506101000a8154816001600160801b0302191690836001600160801b03160217905550614fc3565b60018a01546001600160a01b03808716911603614d5d57614d5660646001600160801b038b1660f48b901c603f16020484615bf4565b9250614dce565b6064603f60f48a901c166001600160801b038b16020460018b01546001600160a01b03165f90815260068c01602052604081208054909190614da99084906001600160801b0316615bf4565b92506101000a8154816001600160801b0302191690836001600160801b031602179055505b846001600160a01b0316876001600160a01b031603614e0d57614e0660646001600160801b038b1660ee8b901c603f16020484615bf4565b9250614e7a565b6064603f60ee8a901c166001600160801b038b1602046001600160a01b0388165f90815260068c01602052604081208054909190614e559084906001600160801b0316615bf4565b92506101000a8154816001600160801b0302191690836001600160801b031602179055505b846001600160a01b0316866001600160a01b031603614eb957614eb260646001600160801b038b1660e88b901c603f16020484615bf4565b9250614f26565b6064603f60e88a901c166001600160801b038b1602046001600160a01b0387165f90815260068c01602052604081208054909190614f019084906001600160801b0316615bf4565b92506101000a8154816001600160801b0302191690836001600160801b031602179055505b6001600160a01b0385165f90815260068b01602052604081208054859290614f589084906001600160801b0316615bf4565b92506101000a8154816001600160801b0302191690836001600160801b03160217905550614fc33385614f9d8c6001600160801b03168c61547190919063ffffffff16565b614fb99060646001600160801b038f1660fa8f901c0204615bf4565b614bf49190615bf4565b50505050505050505050565b614fe48260030154610ced611c6c8460801c90565b6003830155600182015415611d0057612f7e8260040154610ced611c6c8490565b5f6001600160a01b0384163b1561514d57604051630a85bd0160e11b81526001600160a01b0385169063150b7a0290615048903390899088908890600401615da9565b6020604051808303815f875af1925050508015615082575060408051601f3d908101601f1916820190925261507f91810190615d61565b60015b615133573d8080156150af576040519150601f19603f3d011682016040523d82523d5f602084013e6150b4565b606091505b5080515f0361512b5760405162461bcd60e51b815260206004820152603260248201527f4552433732313a207472616e7366657220746f206e6f6e20455243373231526560448201527f63656976657220696d706c656d656e74657200000000000000000000000000006064820152608401610ab1565b805181602001fd5b6001600160e01b031916630a85bd0160e11b149050612ec5565b506001949350505050565b5f807a184f03e93ff9f4daa797ed6e38ed64bf6a1f01000000000000000083106151a0577a184f03e93ff9f4daa797ed6e38ed64bf6a1f010000000000000000830492506040015b6d04ee2d6d415b85acef810000000083106151cc576d04ee2d6d415b85acef8100000000830492506020015b662386f26fc1000083106151ea57662386f26fc10000830492506010015b6305f5e1008310615202576305f5e100830492506008015b612710831061521657612710830492506004015b60648310615228576064830492506002015b600a83106109835760010192915050565b5f6103ff60b184901c168082036152535782915050610983565b612ec58184615d7c565b5f61244361526b8360801c90565b6152758560801c90565b614b589190615c26565b5f6152f36152c4615294856003015460801c90565b6001600160801b0316846001600160801b03166152b5876002015460801c90565b6001600160801b031691020490565b61125a6152d2866003015490565b6001600160801b0316856001600160801b03166152b5886002015460801c90565b905061530383600301548261525d565b600384015560018301541561536d575f6153566153276152d2866004015460801c90565b61125a615335876004015490565b6001600160801b0316866001600160801b03166152b5896002015460801c90565b905061536684600401548261525d565b6004850155505b600283015461538090608084901b61525d565b8360020181905550505050565b5f807f7fffffffffffffffffffffffffffffff5d576e7357a4501ddfe92f46681b20a08311156153c257505f90506003615441565b604080515f8082526020820180845289905260ff881692820192909252606081018690526080810185905260019060a0016020604051602081039080840390855afa158015615413573d5f803e3d5ffd5b5050604051601f1901519150506001600160a01b03811661543b575f60019250925050615441565b91505f90505b94509492505050565b5f60ff8216601f81111561098357604051632cd44ac360e21b815260040160405180910390fd5b606460e29290921c603f16020490565b6001600160e01b031981168114612d2d575f80fd5b5f602082840312156154a6575f80fd5b813561244381615481565b5f81518084528060208401602086015e5f602082860101526020601f19601f83011685010191505092915050565b602081525f61244360208301846154b1565b5f60208284031215615501575f80fd5b5035919050565b80356001600160a01b038116811461113b575f80fd5b5f806040838503121561552f575f80fd5b61553883615508565b946020939093013593505050565b5f8060408385031215615557575f80fd5b50508035926020909101359150565b80356001600160801b038116811461113b575f80fd5b5f806040838503121561558d575f80fd5b8235915061559d60208401615566565b90509250929050565b5f805f606084860312156155b8575f80fd5b6155c184615508565b92506155cf60208501615508565b929592945050506040919091013590565b634e487b7160e01b5f52604160045260245ffd5b604051601f8201601f1916810167ffffffffffffffff8111828210171561561d5761561d6155e0565b604052919050565b5f82601f830112615634575f80fd5b813567ffffffffffffffff81111561564e5761564e6155e0565b615661601f8201601f19166020016155f4565b818152846020838601011115615675575f80fd5b816020850160208301375f918101602001919091529392505050565b5f805f805f8060c087890312156156a6575f80fd5b6156af87615508565b95506156bd60208801615508565b945060408701359350606087013567ffffffffffffffff8111156156df575f80fd5b6156eb89828a01615625565b9350506080870135915060a087013567ffffffffffffffff81111561570e575f80fd5b61571a89828a01615625565b9150509295509295509295565b5f60208284031215615737575f80fd5b61244382615508565b5f8060408385031215615751575f80fd5b8235915061559d60208401615508565b5f805f8060808587031215615774575f80fd5b843593506020850135925061578b60408601615508565b9396929550929360600135925050565b8035801515811461113b575f80fd5b5f805f805f8060c087890312156157bf575f80fd5b86359550602087013594506157d660408801615566565b9350606087013592506157eb6080880161579b565b91506157f960a08801615508565b90509295509295509295565b5f82601f830112615814575f80fd5b813567ffffffffffffffff81111561582e5761582e6155e0565b8060051b61583e602082016155f4565b91825260208185018101929081019086841115615859575f80fd5b6020860192505b83831015614a16578235825260209283019290910190615860565b5f806040838503121561588c575f80fd5b823567ffffffffffffffff8111156158a2575f80fd5b6158ae85828601615805565b92505061559d60208401615508565b5f8151808452602084019350602083015f5b828110156158ed5781518652602095860195909101906001016158cf565b5093949350505050565b602081525f61244360208301846158bd565b5f805f806080858703121561591c575f80fd5b61592585615508565b93506020850135925060408501359150606085013567ffffffffffffffff81111561594e575f80fd5b61595a87828801615625565b91505092959194509250565b60ff60f81b8816815260e060208201525f61598460e08301896154b1565b828103604084015261599681896154b1565b90508660608401526001600160a01b03861660808401528460a084015282810360c08401526159c581856158bd565b9a9950505050505050505050565b5f805f606084860312156159e5575f80fd5b83359250602084013591506159fc60408501615508565b90509250925092565b5f805f60608486031215615a17575f80fd5b615a2084615508565b95602085013595506040909401359392505050565b5f8060408385031215615a46575f80fd5b615a4f83615508565b915061559d6020840161579b565b5f805f805f60a08688031215615a71575f80fd5b8535945060208601359350615a8860408701615566565b925060608601359150615a9d60808701615508565b90509295509295909350565b5f805f8060808587031215615abc575f80fd5b615ac585615508565b9350615ad360208601615508565b925060408501359150606085013567ffffffffffffffff81111561594e575f80fd5b5f8060408385031215615b06575f80fd5b615b0f83615508565b915061559d60208401615508565b5f805f60608486031215615b2f575f80fd5b83359250602084013591506159fc60408501615566565b5f805f60608486031215615b58575f80fd5b83359250615b6860208501615566565b91506159fc60408501615508565b5f60208284031215615b86575f80fd5b813567ffffffffffffffff811115615b9c575f80fd5b612ec584828501615805565b600181811c90821680615bbc57607f821691505b602082108103615bda57634e487b7160e01b5f52602260045260245ffd5b50919050565b634e487b7160e01b5f52601160045260245ffd5b6001600160801b03818116838216019081111561098357610983615be0565b8082018082111561098357610983615be0565b6001600160801b03828116828216039081111561098357610983615be0565b634e487b7160e01b5f52603260045260245ffd5b5f81518060208401855e5f93019283525090919050565b5f612ec5615c7e8386615c59565b84615c59565b6001600160801b038181168382160290811690818114615ca657615ca6615be0565b5092915050565b8181038181111561098357610983615be0565b604081525f615cd260408301856158bd565b8281036020840152615ce481856158bd565b95945050505050565b634e487b7160e01b5f52601260045260245ffd5b5f82615d0f57615d0f615ced565b500690565b808202811582820484141761098357610983615be0565b5f82615d3957615d39615ced565b500490565b828152604060208201525f612ec560408301846154b1565b5f6124438284615c59565b5f60208284031215615d71575f80fd5b815161244381615481565b5f6001600160801b03831680615d9457615d94615ced565b806001600160801b0384160491505092915050565b6001600160a01b03851681526001600160a01b0384166020820152826040820152608060608201525f614a1660808301846154b156fe687474703a2f2f7777772e74742d737761702e636f6d2f6e66743f70726f6f6669643da2646970667358221220cf03a8df325d8f0cdc0d0b6625ab36441bbea56c0acdfa5a397fee678469e56f64736f6c634300081a0033","linkReferences":{}},"methodIdentifiers":{"DOMAIN_SEPARATOR()":"3644e515","addbanlist(address)":"b153b920","approve(address,uint256)":"095ea7b3","balanceOf(address)":"70a08231","banlist(address)":"2973ada7","buyGood(uint256,uint256,uint128,uint256,bool,address)":"578496ab","buyGoodForPay(uint256,uint256,uint128,uint256,address)":"a7e11697","changeGoodOwner(uint256,address)":"2a7c5a91","collectCommission(uint256[])":"f88c3010","collectProof(uint256,address)":"a676a600","disinvestProof(uint256,uint128,address)":"f4662f20","eip712Domain()":"84b0196e","getApproved(uint256)":"081812fc","getGoodState(uint256)":"a6f6a980","getProofState(uint256)":"3f117740","getState(uint256,uint256)":"2f9da5f0","goodNum()":"5a5da4dd","goodWelfare(uint256,uint128)":"18ad50d1","initGood(uint256,uint256,address,uint256)":"4ffef907","initMetaGood(address,uint256,uint256)":"97924ead","investGood(uint256,uint256,uint128)":"f44733ad","isApprovedForAll(address,address)":"e985e9c5","marketconfig()":"402f5ab5","marketcreator()":"3d995173","modifyGoodConfig(uint256,uint256)":"0e21a1ac","name()":"06fdde03","nonces(uint256)":"141a468c","ownerOf(uint256)":"6352211e","payGood(uint256,uint256,address)":"920acbb8","permit(address,uint256,uint256,bytes)":"745a41bc","proofmapping(uint256)":"5e008cc4","queryCommission(uint256[],address)":"6ff73c8e","referals(address)":"a128fcf2","removebanlist(address)":"9551177a","safeTransferFrom(address,address,uint256)":"42842e0e","safeTransferFrom(address,address,uint256,bytes)":"b88d4fde","safeTransferFromWithPermit(address,address,uint256,bytes,uint256,bytes)":"24744d54","setApprovalForAll(address,bool)":"a22cb465","setMarketConfig(uint256)":"45818e4c","supportsInterface(bytes4)":"01ffc9a7","symbol()":"95d89b41","tokenURI(uint256)":"c87b56dd","totalSupply()":"18160ddd","transferFrom(address,address,uint256)":"23b872dd","updateGoodConfig(uint256,uint256)":"144aeb83"},"id":1}