{"abi":[{"type":"constructor","inputs":[{"name":"_marketconfig","type":"uint256","internalType":"uint256"},{"name":"_officialcontract","type":"address","internalType":"address"}],"stateMutability":"nonpayable"},{"type":"function","name":"DOMAIN_SEPARATOR","inputs":[],"outputs":[{"name":"","type":"bytes32","internalType":"bytes32"}],"stateMutability":"view"},{"type":"function","name":"addbanlist","inputs":[{"name":"_user","type":"address","internalType":"address"}],"outputs":[{"name":"","type":"bool","internalType":"bool"}],"stateMutability":"nonpayable"},{"type":"function","name":"approve","inputs":[{"name":"to","type":"address","internalType":"address"},{"name":"tokenId","type":"uint256","internalType":"uint256"}],"outputs":[],"stateMutability":"nonpayable"},{"type":"function","name":"balanceOf","inputs":[{"name":"owner","type":"address","internalType":"address"}],"outputs":[{"name":"","type":"uint256","internalType":"uint256"}],"stateMutability":"view"},{"type":"function","name":"banlist","inputs":[{"name":"","type":"address","internalType":"address"}],"outputs":[{"name":"","type":"uint256","internalType":"uint256"}],"stateMutability":"view"},{"type":"function","name":"buyGood","inputs":[{"name":"_goodid1","type":"uint256","internalType":"uint256"},{"name":"_goodid2","type":"uint256","internalType":"uint256"},{"name":"_swapQuantity","type":"uint128","internalType":"uint128"},{"name":"_limitPrice","type":"uint256","internalType":"T_BalanceUINT256"},{"name":"_istotal","type":"bool","internalType":"bool"},{"name":"_referal","type":"address","internalType":"address"}],"outputs":[{"name":"goodid2Quantity_","type":"uint128","internalType":"uint128"},{"name":"goodid2FeeQuantity_","type":"uint128","internalType":"uint128"}],"stateMutability":"payable"},{"type":"function","name":"buyGoodForPay","inputs":[{"name":"_goodid1","type":"uint256","internalType":"uint256"},{"name":"_goodid2","type":"uint256","internalType":"uint256"},{"name":"_swapQuantity","type":"uint128","internalType":"uint128"},{"name":"_limitPrice","type":"uint256","internalType":"T_BalanceUINT256"},{"name":"_recipient","type":"address","internalType":"address"}],"outputs":[{"name":"goodid1Quantity_","type":"uint128","internalType":"uint128"},{"name":"goodid1FeeQuantity_","type":"uint128","internalType":"uint128"}],"stateMutability":"payable"},{"type":"function","name":"changeGoodOwner","inputs":[{"name":"_goodid","type":"uint256","internalType":"uint256"},{"name":"_to","type":"address","internalType":"address"}],"outputs":[],"stateMutability":"nonpayable"},{"type":"function","name":"collectCommission","inputs":[{"name":"_goodid","type":"uint256[]","internalType":"uint256[]"}],"outputs":[],"stateMutability":"nonpayable"},{"type":"function","name":"collectProof","inputs":[{"name":"_proofid","type":"uint256","internalType":"uint256"},{"name":"_gater","type":"address","internalType":"address"}],"outputs":[{"name":"profit_","type":"uint256","internalType":"T_BalanceUINT256"}],"stateMutability":"nonpayable"},{"type":"function","name":"disinvestProof","inputs":[{"name":"_proofid","type":"uint256","internalType":"uint256"},{"name":"_goodQuantity","type":"uint128","internalType":"uint128"},{"name":"_gater","type":"address","internalType":"address"}],"outputs":[{"name":"","type":"bool","internalType":"bool"}],"stateMutability":"nonpayable"},{"type":"function","name":"eip712Domain","inputs":[],"outputs":[{"name":"fields","type":"bytes1","internalType":"bytes1"},{"name":"name","type":"string","internalType":"string"},{"name":"version","type":"string","internalType":"string"},{"name":"chainId","type":"uint256","internalType":"uint256"},{"name":"verifyingContract","type":"address","internalType":"address"},{"name":"salt","type":"bytes32","internalType":"bytes32"},{"name":"extensions","type":"uint256[]","internalType":"uint256[]"}],"stateMutability":"view"},{"type":"function","name":"getApproved","inputs":[{"name":"tokenId","type":"uint256","internalType":"uint256"}],"outputs":[{"name":"","type":"address","internalType":"address"}],"stateMutability":"view"},{"type":"function","name":"getGoodState","inputs":[{"name":"goodkey","type":"uint256","internalType":"uint256"}],"outputs":[{"name":"","type":"tuple","internalType":"struct L_Good.S_GoodTmpState","components":[{"name":"goodConfig","type":"uint256","internalType":"uint256"},{"name":"owner","type":"address","internalType":"address"},{"name":"erc20address","type":"address","internalType":"address"},{"name":"currentState","type":"uint256","internalType":"T_BalanceUINT256"},{"name":"investState","type":"uint256","internalType":"T_BalanceUINT256"},{"name":"feeQuantityState","type":"uint256","internalType":"T_BalanceUINT256"}]}],"stateMutability":"view"},{"type":"function","name":"getProofState","inputs":[{"name":"proofid","type":"uint256","internalType":"uint256"}],"outputs":[{"name":"","type":"tuple","internalType":"struct L_Proof.S_ProofState","components":[{"name":"currentgood","type":"uint256","internalType":"uint256"},{"name":"valuegood","type":"uint256","internalType":"uint256"},{"name":"state","type":"uint256","internalType":"T_BalanceUINT256"},{"name":"invest","type":"uint256","internalType":"T_BalanceUINT256"},{"name":"valueinvest","type":"uint256","internalType":"T_BalanceUINT256"}]}],"stateMutability":"view"},{"type":"function","name":"goodWelfare","inputs":[{"name":"goodid","type":"uint256","internalType":"uint256"},{"name":"welfare","type":"uint128","internalType":"uint128"}],"outputs":[],"stateMutability":"payable"},{"type":"function","name":"initGood","inputs":[{"name":"_valuegood","type":"uint256","internalType":"uint256"},{"name":"_initial","type":"uint256","internalType":"T_BalanceUINT256"},{"name":"_erc20address","type":"address","internalType":"address"},{"name":"_goodConfig","type":"uint256","internalType":"uint256"}],"outputs":[{"name":"","type":"bool","internalType":"bool"}],"stateMutability":"payable"},{"type":"function","name":"initMetaGood","inputs":[{"name":"_erc20address","type":"address","internalType":"address"},{"name":"_initial","type":"uint256","internalType":"T_BalanceUINT256"},{"name":"_goodConfig","type":"uint256","internalType":"uint256"}],"outputs":[{"name":"","type":"bool","internalType":"bool"}],"stateMutability":"payable"},{"type":"function","name":"investGood","inputs":[{"name":"_togood","type":"uint256","internalType":"uint256"},{"name":"_valuegood","type":"uint256","internalType":"uint256"},{"name":"_quantity","type":"uint128","internalType":"uint128"}],"outputs":[{"name":"","type":"bool","internalType":"bool"}],"stateMutability":"payable"},{"type":"function","name":"isApprovedForAll","inputs":[{"name":"owner","type":"address","internalType":"address"},{"name":"operator","type":"address","internalType":"address"}],"outputs":[{"name":"","type":"bool","internalType":"bool"}],"stateMutability":"view"},{"type":"function","name":"ishigher","inputs":[{"name":"goodid","type":"uint256","internalType":"uint256"},{"name":"valuegood","type":"uint256","internalType":"uint256"},{"name":"compareprice","type":"uint256","internalType":"uint256"}],"outputs":[{"name":"","type":"bool","internalType":"bool"}],"stateMutability":"view"},{"type":"function","name":"marketconfig","inputs":[],"outputs":[{"name":"","type":"uint256","internalType":"uint256"}],"stateMutability":"view"},{"type":"function","name":"modifyGoodConfig","inputs":[{"name":"_goodid","type":"uint256","internalType":"uint256"},{"name":"_goodConfig","type":"uint256","internalType":"uint256"}],"outputs":[{"name":"","type":"bool","internalType":"bool"}],"stateMutability":"nonpayable"},{"type":"function","name":"name","inputs":[],"outputs":[{"name":"","type":"string","internalType":"string"}],"stateMutability":"view"},{"type":"function","name":"nonces","inputs":[{"name":"tokenId","type":"uint256","internalType":"uint256"}],"outputs":[{"name":"","type":"uint256","internalType":"uint256"}],"stateMutability":"view"},{"type":"function","name":"ownerOf","inputs":[{"name":"tokenId","type":"uint256","internalType":"uint256"}],"outputs":[{"name":"","type":"address","internalType":"address"}],"stateMutability":"view"},{"type":"function","name":"payGood","inputs":[{"name":"_goodid","type":"uint256","internalType":"uint256"},{"name":"_payquanity","type":"uint256","internalType":"uint256"},{"name":"_recipent","type":"address","internalType":"address"}],"outputs":[{"name":"","type":"bool","internalType":"bool"}],"stateMutability":"payable"},{"type":"function","name":"permit","inputs":[{"name":"spender","type":"address","internalType":"address"},{"name":"tokenId","type":"uint256","internalType":"uint256"},{"name":"deadline","type":"uint256","internalType":"uint256"},{"name":"signature","type":"bytes","internalType":"bytes"}],"outputs":[],"stateMutability":"nonpayable"},{"type":"function","name":"proofmapping","inputs":[{"name":"","type":"uint256","internalType":"uint256"}],"outputs":[{"name":"","type":"uint256","internalType":"uint256"}],"stateMutability":"view"},{"type":"function","name":"queryCommission","inputs":[{"name":"_goodid","type":"uint256[]","internalType":"uint256[]"},{"name":"_recipent","type":"address","internalType":"address"}],"outputs":[{"name":"","type":"uint256[]","internalType":"uint256[]"}],"stateMutability":"view"},{"type":"function","name":"removebanlist","inputs":[{"name":"_user","type":"address","internalType":"address"}],"outputs":[{"name":"","type":"bool","internalType":"bool"}],"stateMutability":"nonpayable"},{"type":"function","name":"safeTransferFrom","inputs":[{"name":"from","type":"address","internalType":"address"},{"name":"to","type":"address","internalType":"address"},{"name":"tokenId","type":"uint256","internalType":"uint256"}],"outputs":[],"stateMutability":"nonpayable"},{"type":"function","name":"safeTransferFrom","inputs":[{"name":"from","type":"address","internalType":"address"},{"name":"to","type":"address","internalType":"address"},{"name":"tokenId","type":"uint256","internalType":"uint256"},{"name":"data","type":"bytes","internalType":"bytes"}],"outputs":[],"stateMutability":"nonpayable"},{"type":"function","name":"safeTransferFromWithPermit","inputs":[{"name":"from","type":"address","internalType":"address"},{"name":"to","type":"address","internalType":"address"},{"name":"tokenId","type":"uint256","internalType":"uint256"},{"name":"_data","type":"bytes","internalType":"bytes"},{"name":"deadline","type":"uint256","internalType":"uint256"},{"name":"signature","type":"bytes","internalType":"bytes"}],"outputs":[],"stateMutability":"nonpayable"},{"type":"function","name":"setApprovalForAll","inputs":[{"name":"operator","type":"address","internalType":"address"},{"name":"approved","type":"bool","internalType":"bool"}],"outputs":[],"stateMutability":"nonpayable"},{"type":"function","name":"setMarketConfig","inputs":[{"name":"_marketconfig","type":"uint256","internalType":"uint256"}],"outputs":[{"name":"","type":"bool","internalType":"bool"}],"stateMutability":"nonpayable"},{"type":"function","name":"supportsInterface","inputs":[{"name":"interfaceId","type":"bytes4","internalType":"bytes4"}],"outputs":[{"name":"","type":"bool","internalType":"bool"}],"stateMutability":"view"},{"type":"function","name":"symbol","inputs":[],"outputs":[{"name":"","type":"string","internalType":"string"}],"stateMutability":"view"},{"type":"function","name":"tokenURI","inputs":[{"name":"tokenId","type":"uint256","internalType":"uint256"}],"outputs":[{"name":"","type":"string","internalType":"string"}],"stateMutability":"view"},{"type":"function","name":"totalSupply","inputs":[],"outputs":[{"name":"","type":"uint256","internalType":"uint256"}],"stateMutability":"view"},{"type":"function","name":"transferFrom","inputs":[{"name":"from","type":"address","internalType":"address"},{"name":"to","type":"address","internalType":"address"},{"name":"tokenId","type":"uint256","internalType":"uint256"}],"outputs":[],"stateMutability":"nonpayable"},{"type":"function","name":"updateGoodConfig","inputs":[{"name":"_goodid","type":"uint256","internalType":"uint256"},{"name":"_goodConfig","type":"uint256","internalType":"uint256"}],"outputs":[{"name":"","type":"bool","internalType":"bool"}],"stateMutability":"nonpayable"},{"type":"event","name":"Approval","inputs":[{"name":"owner","type":"address","indexed":true,"internalType":"address"},{"name":"approved","type":"address","indexed":true,"internalType":"address"},{"name":"tokenId","type":"uint256","indexed":true,"internalType":"uint256"}],"anonymous":false},{"type":"event","name":"ApprovalForAll","inputs":[{"name":"owner","type":"address","indexed":true,"internalType":"address"},{"name":"operator","type":"address","indexed":true,"internalType":"address"},{"name":"approved","type":"bool","indexed":false,"internalType":"bool"}],"anonymous":false},{"type":"event","name":"EIP712DomainChanged","inputs":[],"anonymous":false},{"type":"event","name":"Transfer","inputs":[{"name":"from","type":"address","indexed":true,"internalType":"address"},{"name":"to","type":"address","indexed":true,"internalType":"address"},{"name":"tokenId","type":"uint256","indexed":true,"internalType":"uint256"}],"anonymous":false},{"type":"event","name":"e_addbanlist","inputs":[{"name":"_user","type":"address","indexed":false,"internalType":"address"}],"anonymous":false},{"type":"event","name":"e_addreferal","inputs":[{"name":"referals","type":"address","indexed":false,"internalType":"address"}],"anonymous":false},{"type":"event","name":"e_buyGood","inputs":[{"name":"sellgood","type":"uint256","indexed":true,"internalType":"uint256"},{"name":"forgood","type":"uint256","indexed":true,"internalType":"uint256"},{"name":"fromer","type":"address","indexed":false,"internalType":"address"},{"name":"swapvalue","type":"uint128","indexed":false,"internalType":"uint128"},{"name":"sellgoodstate","type":"uint256","indexed":false,"internalType":"T_BalanceUINT256"},{"name":"forgoodstate","type":"uint256","indexed":false,"internalType":"T_BalanceUINT256"}],"anonymous":false},{"type":"event","name":"e_buyGoodForPay","inputs":[{"name":"buygood","type":"uint256","indexed":true,"internalType":"uint256"},{"name":"usegood","type":"uint256","indexed":true,"internalType":"uint256"},{"name":"fromer","type":"address","indexed":false,"internalType":"address"},{"name":"receipt","type":"address","indexed":false,"internalType":"address"},{"name":"swapvalue","type":"uint128","indexed":false,"internalType":"uint128"},{"name":"buygoodstate","type":"uint256","indexed":false,"internalType":"T_BalanceUINT256"},{"name":"usegoodstate","type":"uint256","indexed":false,"internalType":"T_BalanceUINT256"}],"anonymous":false},{"type":"event","name":"e_changeOwner","inputs":[{"name":"_goodid","type":"uint256","indexed":true,"internalType":"uint256"},{"name":"_owner","type":"address","indexed":false,"internalType":"address"},{"name":"_to","type":"address","indexed":false,"internalType":"address"}],"anonymous":false},{"type":"event","name":"e_changegoodowner","inputs":[{"name":"goodid","type":"uint256","indexed":false,"internalType":"uint256"},{"name":"to","type":"address","indexed":false,"internalType":"address"}],"anonymous":false},{"type":"event","name":"e_collectProof","inputs":[{"name":"_proofNo","type":"uint256","indexed":true,"internalType":"uint256"},{"name":"_normalGoodNo","type":"uint256","indexed":false,"internalType":"uint256"},{"name":"_valueGoodNo","type":"uint256","indexed":false,"internalType":"uint256"},{"name":"_profit","type":"uint256","indexed":false,"internalType":"T_BalanceUINT256"}],"anonymous":false},{"type":"event","name":"e_collectProtocolFee","inputs":[{"name":"goodid","type":"uint256","indexed":false,"internalType":"uint256"},{"name":"feeamount","type":"uint256","indexed":false,"internalType":"uint256"}],"anonymous":false},{"type":"event","name":"e_collectcommission","inputs":[{"name":"_gooid","type":"uint256[]","indexed":false,"internalType":"uint256[]"},{"name":"_commisionamount","type":"uint256[]","indexed":false,"internalType":"uint256[]"}],"anonymous":false},{"type":"event","name":"e_disinvestProof","inputs":[{"name":"_proofNo","type":"uint256","indexed":true,"internalType":"uint256"},{"name":"_normalGoodNo","type":"uint256","indexed":false,"internalType":"uint256"},{"name":"_valueGoodNo","type":"uint256","indexed":false,"internalType":"uint256"},{"name":"_value","type":"uint256","indexed":false,"internalType":"T_BalanceUINT256"},{"name":"_normalgood","type":"uint256","indexed":false,"internalType":"T_BalanceUINT256"},{"name":"_valuegood","type":"uint256","indexed":false,"internalType":"T_BalanceUINT256"},{"name":"_profit","type":"uint256","indexed":false,"internalType":"T_BalanceUINT256"}],"anonymous":false},{"type":"event","name":"e_enpower","inputs":[{"name":"_goodid","type":"uint256","indexed":false,"internalType":"uint256"},{"name":"_valuegood","type":"uint256","indexed":false,"internalType":"uint256"},{"name":"_quantity","type":"uint256","indexed":false,"internalType":"uint256"}],"anonymous":false},{"type":"event","name":"e_goodWelfare","inputs":[{"name":"goodid","type":"uint256","indexed":false,"internalType":"uint256"},{"name":"welfare","type":"uint128","indexed":false,"internalType":"uint128"}],"anonymous":false},{"type":"event","name":"e_initGood","inputs":[{"name":"_proofNo","type":"uint256","indexed":false,"internalType":"uint256"},{"name":"_goodid","type":"uint256","indexed":false,"internalType":"uint256"},{"name":"_valuegoodNo","type":"uint256","indexed":false,"internalType":"uint256"},{"name":"_erc20address","type":"address","indexed":false,"internalType":"address"},{"name":"_goodConfig","type":"uint256","indexed":false,"internalType":"uint256"},{"name":"_construct","type":"uint256","indexed":false,"internalType":"uint256"},{"name":"_normalinitial","type":"uint256","indexed":false,"internalType":"T_BalanceUINT256"},{"name":"_value","type":"uint256","indexed":false,"internalType":"T_BalanceUINT256"}],"anonymous":false},{"type":"event","name":"e_initMetaGood","inputs":[{"name":"_proofNo","type":"uint256","indexed":false,"internalType":"uint256"},{"name":"_goodid","type":"uint256","indexed":false,"internalType":"uint256"},{"name":"_construct","type":"uint256","indexed":false,"internalType":"uint256"},{"name":"_erc20address","type":"address","indexed":false,"internalType":"address"},{"name":"_goodConfig","type":"uint256","indexed":false,"internalType":"uint256"},{"name":"_initial","type":"uint256","indexed":false,"internalType":"T_BalanceUINT256"}],"anonymous":false},{"type":"event","name":"e_investGood","inputs":[{"name":"_proofNo","type":"uint256","indexed":true,"internalType":"uint256"},{"name":"_normalgoodid","type":"uint256","indexed":false,"internalType":"uint256"},{"name":"_valueGoodNo","type":"uint256","indexed":false,"internalType":"uint256"},{"name":"_value","type":"uint256","indexed":false,"internalType":"T_BalanceUINT256"},{"name":"_invest","type":"uint256","indexed":false,"internalType":"T_BalanceUINT256"},{"name":"_valueinvest","type":"uint256","indexed":false,"internalType":"T_BalanceUINT256"}],"anonymous":false},{"type":"event","name":"e_modifyGoodConfig","inputs":[{"name":"_goodid","type":"uint256","indexed":false,"internalType":"uint256"},{"name":"_goodconfig","type":"uint256","indexed":false,"internalType":"uint256"}],"anonymous":false},{"type":"event","name":"e_removebanlist","inputs":[{"name":"_user","type":"address","indexed":false,"internalType":"address"}],"anonymous":false},{"type":"event","name":"e_setMarketConfig","inputs":[{"name":"_marketconfig","type":"uint256","indexed":false,"internalType":"uint256"}],"anonymous":false},{"type":"event","name":"e_updateGoodConfig","inputs":[{"name":"_goodid","type":"uint256","indexed":false,"internalType":"uint256"},{"name":"_goodConfig","type":"uint256","indexed":false,"internalType":"uint256"}],"anonymous":false},{"type":"error","name":"ERC20TransferFailed","inputs":[]},{"type":"error","name":"InvalidShortString","inputs":[]},{"type":"error","name":"NativeTransferFailed","inputs":[]},{"type":"error","name":"StringTooLong","inputs":[{"name":"str","type":"string","internalType":"string"}]}],"bytecode":{"object":"0x6101a06040527f49ecf333e5b8c95c40fdafc95c1ad136e8914a8fb55e9dc8bb01eaa83a2df9ad61016052348015610035575f80fd5b5060405161670238038061670283398101604081905261005491610212565b81818060405180604001604052806007815260200166151514c813919560ca1b8152506040518060400160405280600381526020016254545360e81b81525081604051806040016040528060018152602001603160f81b8152508383815f90816100be91906102e4565b5060016100cb82826102e4565b506100db9150839050600661019a565b610120526100ea81600761019a565b61014052815160208084019190912060e052815190820120610100524660a05261017660e05161010051604080517f8b73c3c69bb8fe3d512ecc4cf759cc79239f7b179b0ffacaa9a75d522b39400f60208201529081019290925260608201524660808201523060a08201525f9060c00160405160208183030381529060405280519060200120905090565b60805250503060c05250506001600160a01b03166101805250600c55506103f69050565b5f6020835110156101b5576101ae836101cc565b90506101c6565b816101c084826102e4565b5060ff90505b92915050565b5f80829050601f815111156101ff578260405163305a27a960e01b81526004016101f6919061039e565b60405180910390fd5b805161020a826103d3565b179392505050565b5f8060408385031215610223575f80fd5b825160208401519092506001600160a01b0381168114610241575f80fd5b809150509250929050565b634e487b7160e01b5f52604160045260245ffd5b600181811c9082168061027457607f821691505b60208210810361029257634e487b7160e01b5f52602260045260245ffd5b50919050565b601f8211156102df57805f5260205f20601f840160051c810160208510156102bd5750805b601f840160051c820191505b818110156102dc575f81556001016102c9565b50505b505050565b81516001600160401b038111156102fd576102fd61024c565b6103118161030b8454610260565b84610298565b6020601f821160018114610343575f831561032c5750848201515b5f19600385901b1c1916600184901b1784556102dc565b5f84815260208120601f198516915b828110156103725787850151825560209485019460019092019101610352565b508482101561038f57868401515f19600387901b60f8161c191681555b50505050600190811b01905550565b602081525f82518060208401528060208501604085015e5f604082850101526040601f19601f83011684010191505092915050565b80516020808301519190811015610292575f1960209190910360031b1b16919050565b60805160a05160c05160e05161010051610120516101405161016051610180516162456104bd5f395f8181610abd01528181610dd801528181610e4d01528181610fec0152818161135c015281816114d301528181611abf01528181611ce201528181611e0e015281816122d601528181612421015281816127c50152818161295401528181612af201526131fb01525f61332301525f6119e001525f6119b501525f61352101525f6134f901525f61345401525f61347e01525f6134a801526162455ff3fe6080604052600436106102c1575f3560e01c80636352211e11610170578063a676a600116100d1578063b88d4fde11610087578063f44733ad11610062578063f44733ad1461085e578063f4662f2014610871578063f88c301014610890575f80fd5b8063b88d4fde146107d9578063c87b56dd146107f8578063e985e9c514610817575f80fd5b8063a7e11697116100b7578063a7e1169714610788578063a7fed9251461079b578063b153b920146107ba575f80fd5b8063a676a600146106ed578063a6f6a9801461070c575f80fd5b8063920acbb81161012657806395d89b411161010c57806395d89b41146106a757806397924ead146106bb578063a22cb465146106ce575f80fd5b8063920acbb8146106755780639551177a14610688575f80fd5b806370a082311161015657806370a0823114610610578063745a41bc1461062f57806384b0196e1461064e575f80fd5b80636352211e146105c55780636ff73c8e146105e4575f80fd5b806324744d5411610225578063402f5ab5116101db5780634ffef907116101b65780634ffef90714610554578063578496ab146105675780635e008cc41461059a575f80fd5b8063402f5ab51461050157806342842e0e1461051657806345818e4c14610535575f80fd5b80632a7c5a911161020b5780632a7c5a911461046e5780633644e5151461048d5780633f117740146104a1575f80fd5b806324744d54146104245780632973ada714610443575f80fd5b8063141a468c1161027a57806318160ddd1161026057806318160ddd146103dd57806318ad50d1146103f257806323b872dd14610405575f80fd5b8063141a468c14610391578063144aeb83146103be575f80fd5b8063081812fc116102aa578063081812fc1461031a578063095ea7b3146103515780630e21a1ac14610372575f80fd5b806301ffc9a7146102c557806306fdde03146102f9575b5f80fd5b3480156102d0575f80fd5b506102e46102df3660046157fa565b6108af565b60405190151581526020015b60405180910390f35b348015610304575f80fd5b5061030d6108d9565b6040516102f09190615843565b348015610325575f80fd5b50610339610334366004615855565b610968565b6040516001600160a01b0390911681526020016102f0565b34801561035c575f80fd5b5061037061036b366004615880565b61098d565b005b34801561037d575f80fd5b506102e461038c3660046158aa565b610aa6565b34801561039c575f80fd5b506103b06103ab366004615855565b610b93565b6040519081526020016102f0565b3480156103c9575f80fd5b506102e46103d83660046158aa565b610ba6565b3480156103e8575f80fd5b506103b060095481565b6103706104003660046158de565b610c17565b348015610410575f80fd5b5061037061041f36600461590c565b610d55565b34801561042f575f80fd5b5061037061043e3660046159fb565b610e18565b34801561044e575f80fd5b506103b061045d366004615a95565b600e6020525f908152604090205481565b348015610479575f80fd5b50610370610488366004615ab0565b610e38565b348015610498575f80fd5b506103b0610f32565b3480156104ac575f80fd5b506104c06104bb366004615855565b610f40565b6040516102f091905f60a082019050825182526020830151602083015260408301516040830152606083015160608301526080830151608083015292915050565b34801561050c575f80fd5b506103b0600c5481565b348015610521575f80fd5b5061037061053036600461590c565b610fbb565b348015610540575f80fd5b506102e461054f366004615855565b610fd5565b6102e4610562366004615ad3565b6110aa565b61057a610575366004615b1e565b611460565b604080516001600160801b039384168152929091166020830152016102f0565b3480156105a5575f80fd5b506103b06105b4366004615855565b600b6020525f908152604090205481565b3480156105d0575f80fd5b506103396105df366004615855565b6117a2565b3480156105ef575f80fd5b506106036105fe366004615bf5565b611806565b6040516102f09190615c73565b34801561061b575f80fd5b506103b061062a366004615a95565b6118fe565b34801561063a575f80fd5b50610370610649366004615c85565b611996565b348015610659575f80fd5b506106626119a8565b6040516102f09796959493929190615ce4565b6102e4610683366004615d51565b611a2f565b348015610693575f80fd5b506102e46106a2366004615a95565b611aa8565b3480156106b2575f80fd5b5061030d611b85565b6102e46106c9366004615d87565b611b94565b3480156106d9575f80fd5b506103706106e8366004615db9565b611d85565b3480156106f8575f80fd5b506103b0610707366004615ab0565b611d90565b348015610717575f80fd5b5061072b610726366004615855565b611f83565b6040516102f091905f60c082019050825182526001600160a01b0360208401511660208301526001600160a01b036040840151166040830152606083015160608301526080830151608083015260a083015160a083015292915050565b61057a610796366004615dec565b61202d565b3480156107a6575f80fd5b506102e46107b5366004615e3e565b612298565b3480156107c5575f80fd5b506102e46107d4366004615a95565b6122bf565b3480156107e4575f80fd5b506103706107f3366004615e67565b61239e565b348015610803575f80fd5b5061030d610812366004615855565b612462565b348015610822575f80fd5b506102e4610831366004615eb7565b6001600160a01b039182165f90815260056020908152604080832093909416825291909152205460ff1690565b6102e461086c366004615ee3565b6124c5565b34801561087c575f80fd5b506102e461088b366004615f0e565b61289b565b34801561089b575f80fd5b506103706108aa366004615f42565b612bcd565b5f6001600160e01b03198216635604e22560e01b14806108d357506108d382612e2e565b92915050565b60605f80546108e790615f74565b80601f016020809104026020016040519081016040528092919081815260200182805461091390615f74565b801561095e5780601f106109355761010080835404028352916020019161095e565b820191905f5260205f20905b81548152906001019060200180831161094157829003601f168201915b5050505050905090565b5f61097282612e7d565b505f908152600460205260409020546001600160a01b031690565b5f610997826117a2565b9050806001600160a01b0316836001600160a01b031603610a095760405162461bcd60e51b815260206004820152602160248201527f4552433732313a20617070726f76616c20746f2063757272656e74206f776e656044820152603960f91b60648201526084015b60405180910390fd5b336001600160a01b0382161480610a255750610a258133610831565b610a975760405162461bcd60e51b815260206004820152603d60248201527f4552433732313a20617070726f76652063616c6c6572206973206e6f7420746f60448201527f6b656e206f776e6572206f7220617070726f76656420666f7220616c6c0000006064820152608401610a00565b610aa18383612ee3565b505050565b6040516394c3c33360e01b81523360048201525f907f00000000000000000000000000000000000000000000000000000000000000006001600160a01b0316906394c3c33390602401602060405180830381865afa158015610b0a573d5f803e3d5ffd5b505050506040513d601f19601f82011682018060405250810190610b2e9190615fac565b600214610b39575f80fd5b5f838152600d60205260409020610b509083612f50565b60408051848152602081018490527f5af113730f9ee4153f120c893809feafa233584bbe5e93b5d78e0699c9c8ca5691015b60405180910390a150600192915050565b5f818152600860205260408120546108d3565b5f828152600d60205260408120600101546001600160a01b03163314610bca575f80fd5b5f838152600d60205260409020610be19083612f8f565b60408051848152602081018490527fc360eef79f1e7d7e7564e3cd446a9839f5a632a38a4d34b507c08e1ceef461479101610b82565b6001600160a01b037fcfdbe78f31bc5efa50605e8b11a7b6843971370ea97eb24de6e1a1eb9d2356455c1615610c4b575f80fd5b610c5433612fca565b5f828152600d60205260409020600501546d200000000000000000000000000090610c8390839060801c615fd7565b6001600160801b03161115610c96575f80fd5b5f828152600d6020526040902060020154610cc4906001600160a01b0316336001600160801b038416612ff0565b5f828152600d6020526040902060050154610ce890608083901b612ffd565b612ffd565b5f838152600d60205260409081902060050191909155517f54fe3e24ce316357354d8b9553364de253d61c742d913dfd419149ddf696947a90610d4090849084909182526001600160801b0316602082015260400190565b60405180910390a1610d515f612fca565b5050565b610d5f3382613035565b610dc15760405162461bcd60e51b815260206004820152602d60248201527f4552433732313a2063616c6c6572206973206e6f7420746f6b656e206f776e6560448201526c1c881bdc88185c1c1c9bdd9959609a1b6064820152608401610a00565b5f818152600a6020526040902060020154610e02907f000000000000000000000000000000000000000000000000000000000000000090859060801c6130b1565b610e0d83838361311b565b610aa181848461313a565b610e24338584846132be565b610e308686868661239e565b505050505050565b6040516394c3c33360e01b81523360048201527f00000000000000000000000000000000000000000000000000000000000000006001600160a01b0316906394c3c33390602401602060405180830381865afa158015610e9a573d5f803e3d5ffd5b505050506040513d601f19601f82011682018060405250810190610ebe9190615fac565b600214610ec9575f80fd5b5f828152600d602090815260409182902060010180546001600160a01b0319166001600160a01b0385169081179091558251858152918201527f0dccb79e09923e42093e54de6132ceba9b88b094d10632520f6eeb8058a6721c91015b60405180910390a15050565b5f610f3b613448565b905090565b610f6d6040518060a001604052805f81526020015f81526020015f81526020015f81526020015f81525090565b505f908152600a6020908152604091829020825160a0810184528154815260018201549281019290925260028101549282019290925260038201546060820152600490910154608082015290565b610aa183838360405180602001604052805f81525061239e565b6040516394c3c33360e01b81523360048201525f907f00000000000000000000000000000000000000000000000000000000000000006001600160a01b0316906394c3c33390602401602060405180830381865afa158015611039573d5f803e3d5ffd5b505050506040513d601f19601f8201168201806040525081019061105d9190615fac565b600214611068575f80fd5b600c8290556040518281527fbd209961024f2694b0afb3c8badd20b6477abb77b336b16892c3fa4b906d323c906020015b60405180910390a15060015b919050565b5f6001600160a01b037fcfdbe78f31bc5efa50605e8b11a7b6843971370ea97eb24de6e1a1eb9d2356455c16156110df575f80fd5b6110e833612fca565b5f6111186040518060400160405280336001600160a01b03168152602001866001600160a01b0316815250613571565b5f818152600d60205260409020600101549091506001600160a01b031615801561115457505f868152600d6020526040902054600160ff1b1615155b61115c575f80fd5b6111843361116a8760801c90565b6001600160a01b03871691906001600160801b0316612ff0565b5f868152600d60205260409020600201546111b2906001600160a01b0316336001600160801b038816612ff0565b5f868152600d602052604081206111c990876135bf565b905061124b6111f382604001516111e08960801c90565b6001600160801b031660809190911b1790565b5f848152600d602052604090206003810182905560048101919091556001600160df1b03861681556002810180546001600160a01b0389166001600160a01b0319918216179091556001909101805490911633179055565b600160095f82825461125d9190615ff6565b92505081905550600954600b5f6112966040518060600160405280336001600160a01b031681526020018781526020018c815250613713565b81526020019081526020015f20819055506112b333600954613745565b6040805160a0810182528381526020810189905282820151909182019060801b81526020016112e65f6111e08a60801c90565b815260200161130d8360200151846060015160809190911b6001600160801b039091161790565b815250600a5f60095481526020019081526020015f205f820151815f0155602082015181600101556040820151816002015560608201518160030155608082015181600401559050505f6113927f0000000000000000000000000000000000000000000000000000000000000000338460400151600261138d9190616009565b6138cd565b90507f7f24d62c59fa0f0a64c80fbbd1fce113d877d6c18a97ad6dffe701f290f12384600954848a8989866113e26113ca8f60801c90565b60408b01516001600160801b031660809190911b1790565b895160608b01516001600160801b031660809190911b17604080519889526020890197909752958701949094526001600160a01b03909216606086015260808501526001600160801b031660a084015260c083015260e08201526101000160405180910390a1600193505050506114585f612fca565b949350505050565b5f806001600160a01b037fcfdbe78f31bc5efa50605e8b11a7b6843971370ea97eb24de6e1a1eb9d2356455c1615611496575f80fd5b61149f33612fca565b6001600160a01b0383161561152b576040516376549e6760e11b81523360048201526001600160a01b0384811660248301527f0000000000000000000000000000000000000000000000000000000000000000169063eca93cce906044015f604051808303815f87803b158015611514575f80fd5b505af1158015611526573d5f803e3d5ffd5b505050505b60408051610100810182526001600160801b03881681525f6020808301829052828401829052606083018290528b8252600d8082528483206003808201546080870152905460a08601528c84528183529483209485015460c0850152918b905252905460e082015261159d8187613948565b90505f876001600160801b03161180156115cc5750866001600160801b0316815f01516001600160801b031614155b80156115d85750878914155b80156115fc575060018515151480156115fa575080516001600160801b031615155b155b611604575f80fd5b6020808201515f8a8152600d909252604090912054611637916001600160801b031661271060cc9290921c607f16020490565b91508181602001516116499190616032565b60808201516040808401515f8d8152600d6020529190912092955061166f929190613ca8565b60c08101515f898152600d6020526040902061168b9184613ca8565b80516116c790339061169d908a616032565b5f8c8152600d60205260409020600201546001600160a01b031691906001600160801b0316612ff0565b5f888152600d60205260409020600201546116f5906001600160a01b0316336001600160801b038616613ccf565b87897fa79c43e220b5faf022716b06e757294b799a25f33d3c8b0121e614f7b5d988c4338460600151611748865f01518d6117309190616032565b60408801516001600160801b031660809190911b1790565b6001600160801b03881660808a901b17604080516001600160a01b0390951685526001600160801b03909316602085015291830152606082015260800160405180910390a3506117975f612fca565b965096945050505050565b5f818152600260205260408120546001600160a01b0316806108d35760405162461bcd60e51b815260206004820152601860248201527f4552433732313a20696e76616c696420746f6b656e20494400000000000000006044820152606401610a00565b60606064835110611815575f80fd5b5f835167ffffffffffffffff8111156118305761183061594a565b604051908082528060200260200182016040528015611859578160200160208202803683370190505b5090505f5b84518110156118f657600d5f86838151811061187c5761187c616051565b602002602001015181526020019081526020015f206006015f856001600160a01b03166001600160a01b031681526020019081526020015f205f9054906101000a90046001600160801b03166001600160801b03168282815181106118e3576118e3616051565b602090810291909101015260010161185e565b509392505050565b5f6001600160a01b03821661197b5760405162461bcd60e51b815260206004820152602960248201527f4552433732313a2061646472657373207a65726f206973206e6f74206120766160448201527f6c6964206f776e657200000000000000000000000000000000000000000000006064820152608401610a00565b506001600160a01b03165f9081526003602052604090205490565b6119a2848484846132be565b50505050565b5f606080828080836119db7f00000000000000000000000000000000000000000000000000000000000000006006613d61565b611a067f00000000000000000000000000000000000000000000000000000000000000006007613d61565b604080515f80825260208201909252600f60f81b9b939a50919850469750309650945092509050565b5f838152600d60205260408120600201546001600160a01b0316611a77575f848152600d6020526040902060020154611a72906001600160a01b03168385613ccf565b611a9d565b5f848152600d6020526040902060020154611a9d906001600160a01b0316338486613e0a565b5060015b9392505050565b6040516394c3c33360e01b81523360048201525f907f00000000000000000000000000000000000000000000000000000000000000006001600160a01b0316906394c3c33390602401602060405180830381865afa158015611b0c573d5f803e3d5ffd5b505050506040513d601f19601f82011682018060405250810190611b309190615fac565b600214611b3b575f80fd5b6001600160a01b0382165f818152600e602090815260408083209290925590519182527e4ba2ca448db089eb9fb0b25431f0d57664d46141171fed2476281b578d96d49101611099565b6060600180546108e790615f74565b5f600160ff1b8216611ba4575f80fd5b611bae338461116a565b5f611bde6040518060400160405280336001600160a01b03168152602001876001600160a01b0316815250613571565b5f818152600d6020526040902060038101869055600481018690556001600160df1b03851681556002810180546001600160a01b0389166001600160a01b03199182161790915560018201805490911633179055909150611c4490640100000000612f50565b600160095f828254611c569190615ff6565b909155505060408051606081018252338152602081018390525f918101829052611c7f90613713565b6009545f828152600b60205260409020819055909150611ca0903390613745565b611cdc825f611cb8611cb28960801c90565b60801b90565b611cc25f8a6111e0565b6009545f908152600a602052604081209493929190613eaf565b5f611d0c7f00000000000000000000000000000000000000000000000000000000000000003361138d8960801c90565b60095460408051918252602082018690526001600160801b038316908201526001600160a01b03891660608201526080810187905260a081018890529091507f1c22db4272b2564e441961f166415a2651ae43c8d8992212cb4cac04e81f54cc9060c00160405180910390a15060019695505050505050565b610d51338383613f1d565b5f6001600160a01b037fcfdbe78f31bc5efa50605e8b11a7b6843971370ea97eb24de6e1a1eb9d2356455c1615611dc5575f80fd5b611dce33612fca565b611dd83384613035565b611de0575f80fd5b5f838152600a602052604080822060018101549054915163b88e6d6360e01b815233600482015290929081907f00000000000000000000000000000000000000000000000000000000000000006001600160a01b03169063b88e6d63906024016040805180830381865afa158015611e5a573d5f803e3d5ffd5b505050506040513d601f19601f82011682018060405250810190611e7e9190616065565b6001600160a01b0388165f908152600e60205260409020549193509150600114611ea85785611eaa565b815b9550806001600160a01b0316866001600160a01b031614611ecb5780611ecd565b815b6001600160a01b0381165f908152600e6020526040902054909150600114611ef55781611ef7565b805b5f858152600d602081815260408084208c8552600a8352818520600c548a8752949093529320939450611f309392918a90869088613fea565b604080518581526020810187905290810182905290955087907f172f458c2c853ed38b0114381270db7647bc1f9b612a42852353261a7e3379be9060600160405180910390a2505050506108d35f612fca565b611fc86040518060c001604052805f81526020015f6001600160a01b031681526020015f6001600160a01b031681526020015f81526020015f81526020015f81525090565b506040805160c0810182525f838152600d60208181528483208054855260018101546001600160a01b0390811683870152600282015416958501959095526003850154606085015260048501546080850152949091529092526005015460a082015290565b5f806001600160a01b037fcfdbe78f31bc5efa50605e8b11a7b6843971370ea97eb24de6e1a1eb9d2356455c1615612063575f80fd5b61206c33612fca565b60408051610100810182526001600160801b03871681525f6020808301829052828401829052606083018290528a8252600d8082528483206003808201546080870152905460a08601528b84528183529483209485015460c0850152918a905252905460e08201526120de81866140db565b90508688141580156120f8575080516001600160801b0316155b612100575f80fd5b6020808201515f8a8152600d909252604090912054612133916001600160801b031661271060c59290921c607f16020490565b91508181602001516121459190615fd7565b60c08201516040808401515f8b8152600d6020529190912092955061216b929190613ca8565b60808101515f898152600d602052604090206121879184613ca8565b6121c58482604001518861219b9190616032565b5f8a8152600d60205260409020600201546001600160a01b031691906001600160801b0316613ccf565b5f888152600d60205260409020600201546121f3906001600160a01b0316336001600160801b038616612ff0565b86887f3de590341c976ea6fce618ef4a768a15441201ad3ed7c9b438d82c3951de7ced3387856060015161223b8c886040015160809190911b6001600160801b039091161790565b604080516001600160a01b0395861681529390941660208401526001600160801b03918216838501526060830152608089811b918916919091179082015290519081900360a00190a35061228e5f612fca565b9550959350505050565b5f838152600d6020526040808220600390810154858452918320015461145891908461435c565b6040516394c3c33360e01b81523360048201525f907f00000000000000000000000000000000000000000000000000000000000000006001600160a01b0316906394c3c33390602401602060405180830381865afa158015612323573d5f803e3d5ffd5b505050506040513d601f19601f820116820180604052508101906123479190615fac565b600214612352575f80fd5b6001600160a01b0382165f818152600e60209081526040918290206001905590519182527f8e1c2d1a5dce36a56a9dfcb96e5816e793c16d6c897b4e3c0b1f99588bb88a1c9101611099565b6123a83383613035565b61240a5760405162461bcd60e51b815260206004820152602d60248201527f4552433732313a2063616c6c6572206973206e6f7420746f6b656e206f776e6560448201526c1c881bdc88185c1c1c9bdd9959609a1b6064820152608401610a00565b5f828152600a602052604090206002015461244b907f000000000000000000000000000000000000000000000000000000000000000090869060801c6130b1565b612457848484846143e7565b6119a282858561313a565b606061246d82612e7d565b5f612476614470565b90505f8151116124945760405180602001604052805f815250611aa1565b8061249e84614490565b6040516020016124af9291906160a9565b6040516020818303038152906040529392505050565b5f6001600160a01b037fcfdbe78f31bc5efa50605e8b11a7b6843971370ea97eb24de6e1a1eb9d2356455c16156124fa575f80fd5b61250333612fca565b604080516080810182525f808252602082018190529181018290526060810191909152604080516080810182525f8082526020820181905291810182905260608101919091525f868152600d60205260409020600301546d20000000000000000000000000009085906125769190615fd7565b6001600160801b03161115801561258d5750848614155b80156125c757505f868152600d6020526040902054600160ff1b161515806125c757505f858152600d6020526040902054600160ff1b1615155b6125cf575f80fd5b5f868152600d602052604090206125e690856135bf565b5f878152600d6020526040902060020154909250612617906001600160a01b0316336001600160801b038716612ff0565b84156126c1576040808301515f878152600d602052919091206003015461263d9161452d565b6001600160801b0316606082018190525f868152600d602052604090205460d91c603f16612710908103909104026001600160801b0316606082018190525f868152600d60205260409020600201546126a3916001600160a01b03909116903390612ff0565b60608101515f868152600d602052604090206126be916135bf565b90505b5f6126ee6040518060600160405280336001600160a01b0316815260200189815260200188815250613713565b5f818152600b602052604081205491925081900361274057600160095f8282546127189190615ff6565b9250508190555061272b33600954613745565b506009545f828152600b602052604090208190555b604084015161279b908990899060801b602088015160608901516001600160801b031660809190911b17602088015160608901516001600160801b031660809190911b175f878152600a602052604090209493929190613eaf565b5f87156127b75760408501516127b2906002616009565b6127bd565b84604001515b90505f6127eb7f000000000000000000000000000000000000000000000000000000000000000033846138cd565b9050827f54327712026ec7eff19c69f41b88780daaa74a97ae2dcfa56a1de52fb0e07fcd8b8b61282f8a604001518660809190911b6001600160801b039091161790565b8a5160608c01516001600160801b031660809190911b178a5160608c01516001600160801b031660809190911b17604080519586526020860194909452928401919091526060830152608082015260a00160405180910390a260019650505050505050611aa15f612fca565b5f6001600160a01b037fcfdbe78f31bc5efa50605e8b11a7b6843971370ea97eb24de6e1a1eb9d2356455c16156128d0575f80fd5b6128d933612fca565b6128e33385613035565b6128eb575f80fd5b604080516060810182525f8082526020820181905291810191909152604080516060810182525f80825260208201819052918101919091525f868152600a60205260408082208054600190910154915163b88e6d6360e01b8152336004820152909290819081907f00000000000000000000000000000000000000000000000000000000000000006001600160a01b03169063b88e6d63906024016040805180830381865afa1580156129a0573d5f803e3d5ffd5b505050506040513d601f19601f820116820180604052508101906129c49190616065565b6001600160a01b038b165f908152600e602052604090205491935091506001146129ee57816129f0565b885b9850806001600160a01b0316896001600160a01b031614612a115780612a13565b815b6001600160a01b0381165f908152600e6020526040902054909150600114612a3b5781612a3d565b805b9050612ad2600d5f8681526020019081526020015f20600a5f8e81526020019081526020015f206040518060a001604052808e6001600160801b031681526020018d6001600160a01b03168152602001856001600160a01b03168152602001600c548152602001866001600160a01b0316815250600d5f8a81526020019081526020015f2061455d909392919063ffffffff16565b919850965092508315612aed57612aea836002616009565b92505b612b187f000000000000000000000000000000000000000000000000000000000000000033856130b1565b8a7f4741de4d43f1462a092cdf2a25cfc5d5bdf2c96f169d5e64121e800b6fc417ee8686608087901b60208c015160408d01516001600160801b031660809190911b1760208c015160408d01516001600160801b031660809190911b178d518d516001600160801b031660809190911b17604080519687526020870195909552938501929092526060840152608083015260a082015260c00160405180910390a26001975050505050505050611aa15f612fca565b6064815110612bda575f80fd5b5f815167ffffffffffffffff811115612bf557612bf561594a565b604051908082528060200260200182016040528015612c1e578160200160208202803683370190505b5090505f5b8251811015612dfc57600d5f848381518110612c4157612c41616051565b60209081029190910181015182528181019290925260409081015f90812033825260060190925290205482516001600160801b0390911690839083908110612c8b57612c8b616051565b6020026020010181815250506002828281518110612cab57612cab616051565b60200260200101511015612cdd575f828281518110612ccc57612ccc616051565b602002602001018181525050612df4565b6001828281518110612cf157612cf1616051565b6020026020010151612d0391906160bd565b828281518110612d1557612d15616051565b6020026020010181815250506001600d5f858481518110612d3857612d38616051565b602002602001015181526020019081526020015f206006015f336001600160a01b03166001600160a01b031681526020019081526020015f205f6101000a8154816001600160801b0302191690836001600160801b03160217905550612df433838381518110612daa57612daa616051565b6020026020010151600d5f878681518110612dc757612dc7616051565b60209081029190910181015182528101919091526040015f20600201546001600160a01b03169190613ccf565b600101612c23565b507f8124a8d085ceb98e89ac6906c6e138dca5fdbc28a91438e33d7a2ab6c75742fd8282604051610f269291906160d0565b5f6001600160e01b031982166380ac58cd60e01b1480612e5e57506001600160e01b03198216635b5e139f60e01b145b806108d357506301ffc9a760e01b6001600160e01b03198316146108d3565b5f818152600260205260409020546001600160a01b0316612ee05760405162461bcd60e51b815260206004820152601860248201527f4552433732313a20696e76616c696420746f6b656e20494400000000000000006044820152606401610a00565b50565b5f81815260046020526040902080546001600160a01b0319166001600160a01b0384169081179091558190612f17826117a2565b6001600160a01b03167f8c5be1e5ebec7d5bd14f71427d1e84f3dd0314c0f7b2291e5b200ac8c7c3b92560405160405180910390a45050565b815460df82901b90612f7f907b8000000000000000000000000000000000000000000000000000000090616108565b612f899190615ff6565b90915550565b81546001600160df1b0390911690612f899082907fffffffff8000000000000000000000000000000000000000000000000000000016615ff6565b807fcfdbe78f31bc5efa50605e8b11a7b6843971370ea97eb24de6e1a1eb9d2356455d50565b306119a284848385613e0a565b5f608082811d9084901d016001600160801b038381169085160161302c61302383614a61565b6111e083614a61565b95945050505050565b5f80613040836117a2565b9050806001600160a01b0316846001600160a01b0316148061308657506001600160a01b038082165f9081526005602090815260408083209388168352929052205460ff165b806114585750836001600160a01b031661309f84610968565b6001600160a01b031614949350505050565b604051637bd3ca3560e01b81526001600160a01b0383811660048301526001600160801b0383166024830152841690637bd3ca35906044015f604051808303815f87803b158015613100575f80fd5b505af1158015613112573d5f803e3d5ffd5b50505050505050565b5f81815260086020526040902080546001019055610aa1838383614a7b565b5f600a5f8581526020019081526020015f206040518060a00160405290815f820154815260200160018201548152602001600282015481526020016003820154815260200160048201548152505090505f6131be6040518060600160405280866001600160a01b03168152602001845f015181526020018460200151815250613713565b90505f6131f46040518060600160405280866001600160a01b03168152602001855f015181526020018560200151815250613713565b90506132297f00000000000000000000000000000000000000000000000000000000000000008561138d866040015160801c90565b505f818152600b60205260408120549081900361325a575f838152600b6020526040808220548483529120556132a8565b5f878152600a6020526040808220838352912061327691614c59565b5f878152600a60205260408120818155600181018290556002810182905560038101829055600401556132a887614cab565b50505f908152600b602052604081205550505050565b8142111561330e5760405162461bcd60e51b815260206004820152601e60248201527f4552433732315065726d69743a206578706972656420646561646c696e6500006044820152606401610a00565b5f8381526008602090815260408083205481517f0000000000000000000000000000000000000000000000000000000000000000818501526001600160a01b0389168184015260608101889052608081019190915260a08082018790528251808303909101815260c090910190915280519101209061338c82614d3d565b90505f6133998285614d69565b5090505f6001600160a01b038216158015906133ba57506133ba8288613035565b905080806133d657506133d66133cf886117a2565b8487614dab565b806133e857506133e86133cf88610968565b6134345760405162461bcd60e51b815260206004820152601f60248201527f4552433732315065726d69743a20696e76616c6964207369676e6174757265006044820152606401610a00565b61343e8888612ee3565b5050505050505050565b5f306001600160a01b037f0000000000000000000000000000000000000000000000000000000000000000161480156134a057507f000000000000000000000000000000000000000000000000000000000000000046145b156134ca57507f000000000000000000000000000000000000000000000000000000000000000090565b610f3b604080517f8b73c3c69bb8fe3d512ecc4cf759cc79239f7b179b0ffacaa9a75d522b39400f60208201527f0000000000000000000000000000000000000000000000000000000000000000918101919091527f000000000000000000000000000000000000000000000000000000000000000060608201524660808201523060a08201525f9060c00160405160208183030381529060405280519060200120905090565b5f816040516020016135a1919081516001600160a01b039081168252602092830151169181019190915260400190565b60408051601f19818403018152919052805160209091012092915050565b604080516080810182525f8082526020820181905291810182905260608101919091528254613603906001600160801b03841661271060d99290921c603f16020490565b6001600160801b03168082526136199083616032565b6001600160801b031660608201819052600384015461363791614eb1565b6001600160801b031660408201526060810151600584015461366b91906136659060801c60048701546111e0565b90614eb1565b6001600160801b031660208201819052600584015482516136ac92610ce3916136949190615fd7565b60208501516001600160801b031660809190911b1790565b60058401556003830154604082015160608301516136d9929160801b6001600160801b0390911617612ffd565b6003840155600483015460408201516060830151613706929160801b6001600160801b0390911617612ffd565b6004909301929092555090565b6040805182516001600160a01b0316602080830191909152830151818301529082015160608201525f906080016135a1565b6001600160a01b03821661379b5760405162461bcd60e51b815260206004820181905260248201527f4552433732313a206d696e7420746f20746865207a65726f20616464726573736044820152606401610a00565b5f818152600260205260409020546001600160a01b0316156137ff5760405162461bcd60e51b815260206004820152601c60248201527f4552433732313a20746f6b656e20616c7265616479206d696e746564000000006044820152606401610a00565b5f818152600260205260409020546001600160a01b0316156138635760405162461bcd60e51b815260206004820152601c60248201527f4552433732313a20746f6b656e20616c7265616479206d696e746564000000006044820152606401610a00565b6001600160a01b0382165f81815260036020908152604080832080546001019055848352600290915280822080546001600160a01b0319168417905551839291907fddf252ad1be2c89b69c2b068fc378daa952ba7f163c4a11628f55a4df523b3ef908290a45050565b60405163067e356d60e21b81526001600160a01b0383811660048301526001600160801b03831660248301525f91908516906319f8d5b4906044016020604051808303815f875af1158015613924573d5f803e3d5ffd5b505050506040513d601f19601f82011682018060405250810190611458919061611b565b60408051610100810182525f80825260208201819052918101829052606081018290526080810182905260a0810182905260c0810182905260e081019190915261399b83608001518460c001518461435c565b6139a65750816108d3565b825160a08401515f9182916139cf916001600160801b031661271060c59290921c607f16020490565b6001600160801b031660408601819052855186906139ee908390616032565b6001600160801b03169052505b84516001600160801b031615801590613a225750613a2285608001518660c001518661435c565b15613c1057613a43613a388660c0015160801c90565b60e087015190614ed9565b6001600160801b0316613a68613a5d876080015160801c90565b60a088015190614ed9565b6001600160801b03161015613a9857613a93613a88866080015160801c90565b60a087015190614ed9565b613aa9565b613aa9613a388660c0015160801c90565b6080860151909250613abb908361452d565b9050806001600160801b0316855f01516001600160801b03161115613b6d5780855f01818151613aeb9190616032565b6001600160801b031690525060c0850151613b06908361452d565b85602001818151613b179190615fd7565b6001600160801b03908116909152608087810151613b4293509184169085901b17614f08565b614f08565b608086015260c0850151613b6390613b5e846111e0838261452d565b614f2e565b60c0860152613bed565b84516080860151613b7d91614eb1565b60c0860151909250613b8f908361452d565b85602001818151613ba09190615fd7565b6001600160801b039081169091526080878101518851613bc894509092169085901b17614f08565b608086015260c0850151613be490613b5e846111e0838261452d565b60c08601525f85525b8185606001818151613bff9190615fd7565b6001600160801b03169052506139fb565b84516001600160801b031615613c9f57845160a0860151613c45916001600160801b031661271060c59290921c607f16020490565b85604001818151613c569190616032565b6001600160801b03908116909152865160a0880151613c839350911661271060c59290921c607f16020490565b85518690613c92908390615fd7565b6001600160801b03169052505b50929392505050565b600383018290556005830154613cc290608083901b612ffd565b8360050181905550505050565b5f6001600160a01b038416613d0b575f805f8085875af1905080613d0657604051633d2cec6f60e21b815260040160405180910390fd5b6119a2565b60405163a9059cbb60e01b5f52836004528260245260205f60445f80895af13d15601f3d1160015f511416171691505f6060528060405250806119a257604051633c9fd93960e21b815260040160405180910390fd5b606060ff8314613d7b57613d7483614f54565b90506108d3565b818054613d8790615f74565b80601f0160208091040260200160405190810160405280929190818152602001828054613db390615f74565b8015613dfe5780601f10613dd557610100808354040283529160200191613dfe565b820191905f5260205f20905b815481529060010190602001808311613de157829003601f168201915b505050505090506108d3565b5f6001600160a01b038516613e3e57813414613e3957604051633d2cec6f60e21b815260040160405180910390fd5b613ea8565b6040516323b872dd60e01b81526001600160a01b03851660048201526001600160a01b038416602482015282604482015260205f6064835f8a5af13d15601f3d1160015f511416171691505080613ea857604051633c9fd93960e21b815260040160405180910390fd5b5050505050565b60038601546001600160801b03165f03613ec7578486555b8315613ed557600186018490555b613ee3866002015484612ffd565b60028701556003860154613ef79083612ffd565b60038701558315610e3057613f10866004015482612ffd565b6004870155505050505050565b816001600160a01b0316836001600160a01b031603613f7e5760405162461bcd60e51b815260206004820152601960248201527f4552433732313a20617070726f766520746f2063616c6c6572000000000000006044820152606401610a00565b6001600160a01b038381165f81815260056020908152604080832094871680845294825291829020805460ff191686151590811790915591519182527f17307eab39ab6107e8899845ad3d59bd9653f200f220920489ca2b5937696c31910160405180910390a3505050565b5f80613ffa876003015460801c90565b614023614008896003015490565b6136656140198d6005015460801c90565b60048e01546111e0565b61402d9190616032565b60058a0154909150614048906001600160801b038316612ffd565b60058a015561405c8982868989885f614f91565b5f61406b886004015460801c90565b6140796140088a6004015490565b6140839190616032565b60058a015490915061409e906001600160801b038316612ffd565b60058a01556140b28982878a8a895f614f91565b6001600160801b038116608083901b1792506140ce888461533f565b5050979650505050505050565b60408051610100810182525f80825260208201819052918101829052606081018290526080810182905260a0810182905260c0810182905260e081019190915261412e83608001518460c001518461435c565b1561413a5750816108d3565b825160e08401515f918291614163916001600160801b031661271060cc9290921c607f16020490565b6001600160801b031660408601525b84516001600160801b031615801590614199575061419985608001518660c001518661435c565b15613c9f576141af613a388660c0015160801c90565b6001600160801b03166141c9613a5d876080015160801c90565b6001600160801b031610156141ee576141e9613a88866080015160801c90565b6141ff565b6141ff613a388660c0015160801c90565b60c0860151909250614211908361452d565b9050806001600160801b0316855f01516001600160801b031611156142b95780855f018181516142419190616032565b6001600160801b0316905250608085015161425c908361452d565b8560200181815161426d9190615fd7565b6001600160801b0390811690915260c08701516142939250908316608085901b17614f2e565b60c086015260808501516142af90613b3d846111e0838261452d565b6080860152614339565b845160c08601516142c991614eb1565b60808601519092506142db908361452d565b856020018181516142ec9190615fd7565b6001600160801b0390811690915260c087015187516143149350909116608085901b17614f2e565b60c0860152608085015161433090613b3d846111e0838261452d565b60808601525f85525b818560600181815161434b9190615fd7565b6001600160801b0316905250614172565b5f6143678260801c90565b6001600160801b031661437a8460801c90565b6001600160801b0316856001600160801b03166143979190616136565b6143a19190616136565b826001600160801b0316846001600160801b03166143bf8760801c90565b6001600160801b03166143d29190616136565b6143dc9190616136565b11611a9d575f611458565b6143f284848461311b565b6143fe84848484615375565b6119a25760405162461bcd60e51b815260206004820152603260248201527f4552433732313a207472616e7366657220746f206e6f6e20455243373231526560448201527f63656976657220696d706c656d656e74657200000000000000000000000000006064820152608401610a00565b60606040518060600160405280602181526020016161ef60219139905090565b60605f61449c836154c5565b60010190505f8167ffffffffffffffff8111156144bb576144bb61594a565b6040519080825280601f01601f1916602001820160405280156144e5576020820181803683370190505b5090508181016020015b5f19017f3031323334353637383961626364656600000000000000000000000000000000600a86061a8153600a85049450846144ef57509392505050565b5f611aa1836001600160801b0316836001600160801b031661454f8660801c90565b6001600160801b03166155a6565b604080516060810182525f8082526020820181905291810191909152604080516060810182525f80825260208201819052918101919091525f6145b8845f01516136656145ae886002015460801c90565b60038901546111e0565b905060405180606001604052806145e7865f01516136656145dd8c6005015460801c90565b60048d01546111e0565b6001600160801b03168152602001614617865f015161366561460d8a6003015460801c90565b60038b01546111e0565b6001600160801b0390811682528651166020909101528754909350600160ff1b1615158061464b57508554600160ff1b1615155b8015614680575061466b614663886003015460801c90565b8854906155b7565b6001600160801b0316816001600160801b0316105b80156146ad5750614695614663886003015490565b6001600160801b0316845f01516001600160801b0316105b6146e25760405162461bcd60e51b8152600401610a00906020808252600490820152634730313160e01b604082015260600190565b6003870154604084015161470591906001600160801b0316608084901b176155db565b60038801556004870154604084015161472d91906001600160801b0316608084901b176155db565b6004880155600587015483516020850151614757929160801b6001600160801b03909116176155db565b60058801556147668582615601565b602083015183516147779190616032565b6001600160801b039081168452604084015188546147a39290911661271060d39290921c603f16020490565b6001600160801b03166020808501829052845160608701519187015160408089015160808a0151918901516147e6968e969493916147e19190616032565b614f91565b60208301516001600160801b0316156148165760058701546020840151614810919060801b612ffd565b60058801555b600185015415614a5757604051806060016040528061484a836136656148408b6005015460801c90565b60048c01546111e0565b6001600160801b031681526020016148778361366561486d8a6004015460801c90565b60048b01546111e0565b6001600160801b031681526020016148a08361489a61486d8a6002015460801c90565b9061452d565b6001600160801b031681525091506148c76148bf876003015460801c90565b8754906155b7565b6001600160801b0316816001600160801b031610801561490957506148f06148bf876003015490565b6001600160801b031682604001516001600160801b0316105b61493e5760405162461bcd60e51b8152600401610a00906020808252600490820152632398189960e11b604082015260600190565b6003860154604083015161496191906001600160801b0316608084901b176155db565b60038701556004860154604083015161498991906001600160801b0316608084901b176155db565b60048701556005860154825160208401516149b3929160801b6001600160801b03909116176155db565b6005870155602082015182516149c99190616032565b6001600160801b039081168352604083015187546149f59290911661271060d39290921c603f16020490565b6001600160801b03166020830181905215614a275760058601546020830151614a21919060801b612ffd565b60058701555b614a5786835f01518660600151876020015188604001518960800151886020015189604001516147e19190616032565b9450945094915050565b5f6001600160801b03821115614a77575f6108d3565b5090565b826001600160a01b0316614a8e826117a2565b6001600160a01b031614614af25760405162461bcd60e51b815260206004820152602560248201527f4552433732313a207472616e736665722066726f6d20696e636f72726563742060448201526437bbb732b960d91b6064820152608401610a00565b6001600160a01b038216614b545760405162461bcd60e51b8152602060048201526024808201527f4552433732313a207472616e7366657220746f20746865207a65726f206164646044820152637265737360e01b6064820152608401610a00565b826001600160a01b0316614b67826117a2565b6001600160a01b031614614bcb5760405162461bcd60e51b815260206004820152602560248201527f4552433732313a207472616e736665722066726f6d20696e636f72726563742060448201526437bbb732b960d91b6064820152608401610a00565b5f81815260046020908152604080832080546001600160a01b03199081169091556001600160a01b038781168086526003855283862080545f1901905590871680865283862080546001019055868652600290945282852080549092168417909155905184937fddf252ad1be2c89b69c2b068fc378daa952ba7f163c4a11628f55a4df523b3ef91a4505050565b614c6b82600201548260020154612ffd565b8260020181905550614c8582600301548260030154612ffd565b8260030181905550614c9f82600401548260040154612ffd565b82600401819055505050565b5f614cb5826117a2565b9050614cc0826117a2565b5f83815260046020908152604080832080546001600160a01b03199081169091556001600160a01b0385168085526003845282852080545f190190558785526002909352818420805490911690555192935084927fddf252ad1be2c89b69c2b068fc378daa952ba7f163c4a11628f55a4df523b3ef908390a45050565b5f6108d3614d49613448565b8360405161190160f01b8152600281019290925260228201526042902090565b5f808251604103614d9d576020830151604084015160608501515f1a614d9187828585615701565b94509450505050614da4565b505f905060025b9250929050565b5f805f856001600160a01b0316631626ba7e60e01b8686604051602401614dd392919061614d565b60408051601f198184030181529181526020820180517bffffffffffffffffffffffffffffffffffffffffffffffffffffffff166001600160e01b0319909416939093179092529051614e269190616165565b5f60405180830381855afa9150503d805f8114614e5e576040519150601f19603f3d011682016040523d82523d5f602084013e614e63565b606091505b5091509150818015614e76575080516020145b8015614ea757508051630b135d3f60e11b90614e9b9083016020908101908401616170565b6001600160e01b031916145b9695505050505050565b5f611aa1614ebf8460801c90565b6001600160801b0316836001600160801b031661454f8690565b5f6103ff60bb84901c16808203614ef357829150506108d3565b614efe816040616009565b611458908461618b565b5f608082811d9084901d036001600160801b038381169085160161302c61302383614a61565b5f608082811d9084901d016001600160801b038381169085160361302c61302383614a61565b60605f614f60836157be565b6040805160208082528183019092529192505f91906020820181803683375050509182525060208101929092525090565b60646001600160801b03871660dd87901c601f160204614fb18188616032565b965060646001600160801b03881660fa88901c81028290049160f489901c603f90811683028290049260ee8b901c821681028390049260e88c901c831682028190049260e28d901c16909102046001600160a01b03891661513a576150523361501a8988615fd7565b6001600160801b03168f6002015f9054906101000a90046001600160a01b03166001600160a01b0316613ccf9092919063ffffffff16565b61505c8185615fd7565b6001600160a01b038b165f90815260068f0160205260408120805490919061508e9084906001600160801b0316615fd7565b92506101000a8154816001600160801b0302191690836001600160801b03160217905550858185878f6150c19190616032565b6150cb9190616032565b6150d59190616032565b6150df9190615fd7565b6001600160a01b0389165f90815260068f016020526040812080549091906151119084906001600160801b0316615fd7565b92506101000a8154816001600160801b0302191690836001600160801b03160217905550615330565b60018d01546001600160a01b038981169116146151b05760018d01546001600160a01b03165f90815260068e016020526040812080548692906151879084906001600160801b0316615fd7565b92506101000a8154816001600160801b0302191690836001600160801b031602179055506151bd565b6151ba8487615fd7565b95505b876001600160a01b03168a6001600160a01b031614615231576001600160a01b038a165f90815260068e016020526040812080548592906152089084906001600160801b0316615fd7565b92506101000a8154816001600160801b0302191690836001600160801b0316021790555061523e565b61523b8387615fd7565b95505b876001600160a01b0316896001600160a01b0316146152b2576001600160a01b0389165f90815260068e016020526040812080548492906152899084906001600160801b0316615fd7565b92506101000a8154816001600160801b0302191690836001600160801b031602179055506152bf565b6152bc8287615fd7565b95505b6001600160a01b0388165f90815260068e016020526040812080548892906152f19084906001600160801b0316615fd7565b92506101000a8154816001600160801b0302191690836001600160801b03160217905550615330338883886153269190615fd7565b61501a9190615fd7565b50505050505050505050505050565b6153548260030154610ce3611cb28460801c90565b6003830155600182015415610d5157614c9f8260040154610ce3611cb28490565b5f6001600160a01b0384163b156154bd57604051630a85bd0160e11b81526001600160a01b0385169063150b7a02906153b89033908990889088906004016161b8565b6020604051808303815f875af19250505080156153f2575060408051601f3d908101601f191682019092526153ef91810190616170565b60015b6154a3573d80801561541f576040519150601f19603f3d011682016040523d82523d5f602084013e615424565b606091505b5080515f0361549b5760405162461bcd60e51b815260206004820152603260248201527f4552433732313a207472616e7366657220746f206e6f6e20455243373231526560448201527f63656976657220696d706c656d656e74657200000000000000000000000000006064820152608401610a00565b805181602001fd5b6001600160e01b031916630a85bd0160e11b149050611458565b506001611458565b5f807a184f03e93ff9f4daa797ed6e38ed64bf6a1f010000000000000000831061550d577a184f03e93ff9f4daa797ed6e38ed64bf6a1f010000000000000000830492506040015b6d04ee2d6d415b85acef81000000008310615539576d04ee2d6d415b85acef8100000000830492506020015b662386f26fc10000831061555757662386f26fc10000830492506010015b6305f5e100831061556f576305f5e100830492506008015b612710831061558357612710830492506004015b60648310615595576064830492506002015b600a83106108d35760010192915050565b918102915f81840461302c81614a61565b5f6103ff60b184901c168082036155d157829150506108d3565b611458818461618b565b5f608082811d9084901d036001600160801b038381169085160361302c61302383614a61565b5f615666615637615616856003015460801c90565b6001600160801b0316846001600160801b031661454f876002015460801c90565b6111e0615645866003015490565b6001600160801b0316856001600160801b031661454f886002015460801c90565b905082600101545f146156ce575f6156b7615688615645866004015460801c90565b6111e0615696876004015490565b6001600160801b0316866001600160801b031661454f896002015460801c90565b90506156c78460040154826155db565b6004850155505b6156dc8360030154826155db565b600384015560028301546156f490608084901b6155db565b8360020181905550505050565b5f807f7fffffffffffffffffffffffffffffff5d576e7357a4501ddfe92f46681b20a083111561573657505f905060036157b5565b604080515f8082526020820180845289905260ff881692820192909252606081018690526080810185905260019060a0016020604051602081039080840390855afa158015615787573d5f803e3d5ffd5b5050604051601f1901519150506001600160a01b0381166157af575f600192509250506157b5565b91505f90505b94509492505050565b5f60ff8216601f8111156108d357604051632cd44ac360e21b815260040160405180910390fd5b6001600160e01b031981168114612ee0575f80fd5b5f6020828403121561580a575f80fd5b8135611aa1816157e5565b5f81518084528060208401602086015e5f602082860101526020601f19601f83011685010191505092915050565b602081525f611aa16020830184615815565b5f60208284031215615865575f80fd5b5035919050565b6001600160a01b0381168114612ee0575f80fd5b5f8060408385031215615891575f80fd5b823561589c8161586c565b946020939093013593505050565b5f80604083850312156158bb575f80fd5b50508035926020909101359150565b6001600160801b0381168114612ee0575f80fd5b5f80604083850312156158ef575f80fd5b823591506020830135615901816158ca565b809150509250929050565b5f805f6060848603121561591e575f80fd5b83356159298161586c565b925060208401356159398161586c565b929592945050506040919091013590565b634e487b7160e01b5f52604160045260245ffd5b604051601f8201601f1916810167ffffffffffffffff811182821017156159875761598761594a565b604052919050565b5f82601f83011261599e575f80fd5b813567ffffffffffffffff8111156159b8576159b861594a565b6159cb601f8201601f191660200161595e565b8181528460208386010111156159df575f80fd5b816020850160208301375f918101602001919091529392505050565b5f805f805f8060c08789031215615a10575f80fd5b8635615a1b8161586c565b95506020870135615a2b8161586c565b945060408701359350606087013567ffffffffffffffff811115615a4d575f80fd5b615a5989828a0161598f565b9350506080870135915060a087013567ffffffffffffffff811115615a7c575f80fd5b615a8889828a0161598f565b9150509295509295509295565b5f60208284031215615aa5575f80fd5b8135611aa18161586c565b5f8060408385031215615ac1575f80fd5b8235915060208301356159018161586c565b5f805f8060808587031215615ae6575f80fd5b84359350602085013592506040850135615aff8161586c565b9396929550929360600135925050565b803580151581146110a5575f80fd5b5f805f805f8060c08789031215615b33575f80fd5b86359550602087013594506040870135615b4c816158ca565b935060608701359250615b6160808801615b0f565b915060a0870135615b718161586c565b809150509295509295509295565b5f82601f830112615b8e575f80fd5b813567ffffffffffffffff811115615ba857615ba861594a565b8060051b615bb86020820161595e565b91825260208185018101929081019086841115615bd3575f80fd5b6020860192505b83831015614ea7578235825260209283019290910190615bda565b5f8060408385031215615c06575f80fd5b823567ffffffffffffffff811115615c1c575f80fd5b615c2885828601615b7f565b92505060208301356159018161586c565b5f8151808452602084019350602083015f5b82811015615c69578151865260209586019590910190600101615c4b565b5093949350505050565b602081525f611aa16020830184615c39565b5f805f8060808587031215615c98575f80fd5b8435615ca38161586c565b93506020850135925060408501359150606085013567ffffffffffffffff811115615ccc575f80fd5b615cd88782880161598f565b91505092959194509250565b60ff60f81b8816815260e060208201525f615d0260e0830189615815565b8281036040840152615d148189615815565b90508660608401526001600160a01b03861660808401528460a084015282810360c0840152615d438185615c39565b9a9950505050505050505050565b5f805f60608486031215615d63575f80fd5b83359250602084013591506040840135615d7c8161586c565b809150509250925092565b5f805f60608486031215615d99575f80fd5b8335615da48161586c565b95602085013595506040909401359392505050565b5f8060408385031215615dca575f80fd5b8235615dd58161586c565b9150615de360208401615b0f565b90509250929050565b5f805f805f60a08688031215615e00575f80fd5b85359450602086013593506040860135615e19816158ca565b9250606086013591506080860135615e308161586c565b809150509295509295909350565b5f805f60608486031215615e50575f80fd5b505081359360208301359350604090920135919050565b5f805f8060808587031215615e7a575f80fd5b8435615e858161586c565b93506020850135615e958161586c565b925060408501359150606085013567ffffffffffffffff811115615ccc575f80fd5b5f8060408385031215615ec8575f80fd5b8235615ed38161586c565b915060208301356159018161586c565b5f805f60608486031215615ef5575f80fd5b83359250602084013591506040840135615d7c816158ca565b5f805f60608486031215615f20575f80fd5b833592506020840135615f32816158ca565b91506040840135615d7c8161586c565b5f60208284031215615f52575f80fd5b813567ffffffffffffffff811115615f68575f80fd5b61145884828501615b7f565b600181811c90821680615f8857607f821691505b602082108103615fa657634e487b7160e01b5f52602260045260245ffd5b50919050565b5f60208284031215615fbc575f80fd5b5051919050565b634e487b7160e01b5f52601160045260245ffd5b6001600160801b0381811683821601908111156108d3576108d3615fc3565b808201808211156108d3576108d3615fc3565b6001600160801b03818116838216029081169081811461602b5761602b615fc3565b5092915050565b6001600160801b0382811682821603908111156108d3576108d3615fc3565b634e487b7160e01b5f52603260045260245ffd5b5f8060408385031215616076575f80fd5b82516160818161586c565b60208401519092506159018161586c565b5f81518060208401855e5f93019283525090919050565b5f6114586160b78386616092565b84616092565b818103818111156108d3576108d3615fc3565b604081525f6160e26040830185615c39565b828103602084015261302c8185615c39565b634e487b7160e01b5f52601260045260245ffd5b5f82616116576161166160f4565b500690565b5f6020828403121561612b575f80fd5b8151611aa1816158ca565b80820281158282048414176108d3576108d3615fc3565b828152604060208201525f6114586040830184615815565b5f611aa18284616092565b5f60208284031215616180575f80fd5b8151611aa1816157e5565b5f6001600160801b038316806161a3576161a36160f4565b806001600160801b0384160491505092915050565b6001600160a01b03851681526001600160a01b0384166020820152826040820152608060608201525f614ea7608083018461581556fe687474703a2f2f7777772e7474737761702e696f2f6e66743f70726f6f6669643da2646970667358221220fde9b7242a8c66488a9fddaa1ba0f6733bea18b9dced488138a9a9e77509473164736f6c634300081a0033","linkReferences":{}},"methodIdentifiers":{"DOMAIN_SEPARATOR()":"3644e515","addbanlist(address)":"b153b920","approve(address,uint256)":"095ea7b3","balanceOf(address)":"70a08231","banlist(address)":"2973ada7","buyGood(uint256,uint256,uint128,uint256,bool,address)":"578496ab","buyGoodForPay(uint256,uint256,uint128,uint256,address)":"a7e11697","changeGoodOwner(uint256,address)":"2a7c5a91","collectCommission(uint256[])":"f88c3010","collectProof(uint256,address)":"a676a600","disinvestProof(uint256,uint128,address)":"f4662f20","eip712Domain()":"84b0196e","getApproved(uint256)":"081812fc","getGoodState(uint256)":"a6f6a980","getProofState(uint256)":"3f117740","goodWelfare(uint256,uint128)":"18ad50d1","initGood(uint256,uint256,address,uint256)":"4ffef907","initMetaGood(address,uint256,uint256)":"97924ead","investGood(uint256,uint256,uint128)":"f44733ad","isApprovedForAll(address,address)":"e985e9c5","ishigher(uint256,uint256,uint256)":"a7fed925","marketconfig()":"402f5ab5","modifyGoodConfig(uint256,uint256)":"0e21a1ac","name()":"06fdde03","nonces(uint256)":"141a468c","ownerOf(uint256)":"6352211e","payGood(uint256,uint256,address)":"920acbb8","permit(address,uint256,uint256,bytes)":"745a41bc","proofmapping(uint256)":"5e008cc4","queryCommission(uint256[],address)":"6ff73c8e","removebanlist(address)":"9551177a","safeTransferFrom(address,address,uint256)":"42842e0e","safeTransferFrom(address,address,uint256,bytes)":"b88d4fde","safeTransferFromWithPermit(address,address,uint256,bytes,uint256,bytes)":"24744d54","setApprovalForAll(address,bool)":"a22cb465","setMarketConfig(uint256)":"45818e4c","supportsInterface(bytes4)":"01ffc9a7","symbol()":"95d89b41","tokenURI(uint256)":"c87b56dd","totalSupply()":"18160ddd","transferFrom(address,address,uint256)":"23b872dd","updateGoodConfig(uint256,uint256)":"144aeb83"},"id":56}