{"abi":[{"type":"constructor","inputs":[{"name":"_marketcreator","type":"address","internalType":"address"},{"name":"_marketconfig","type":"uint256","internalType":"uint256"}],"stateMutability":"nonpayable"},{"type":"function","name":"addbanlist","inputs":[{"name":"_user","type":"address","internalType":"address"}],"outputs":[{"name":"","type":"bool","internalType":"bool"}],"stateMutability":"nonpayable"},{"type":"function","name":"addreferer","inputs":[{"name":"_referer","type":"address","internalType":"address"}],"outputs":[{"name":"is_success_","type":"bool","internalType":"bool"}],"stateMutability":"nonpayable"},{"type":"function","name":"approve","inputs":[{"name":"to","type":"address","internalType":"address"},{"name":"proofId","type":"uint256","internalType":"uint256"}],"outputs":[],"stateMutability":"nonpayable"},{"type":"function","name":"balanceOf","inputs":[{"name":"owner","type":"address","internalType":"address"}],"outputs":[{"name":"","type":"uint256","internalType":"uint256"}],"stateMutability":"view"},{"type":"function","name":"buyGood","inputs":[{"name":"_goodid1","type":"uint256","internalType":"uint256"},{"name":"_goodid2","type":"uint256","internalType":"uint256"},{"name":"_swapQuantity","type":"uint128","internalType":"uint128"},{"name":"_limitPrice","type":"uint256","internalType":"uint256"},{"name":"_istotal","type":"bool","internalType":"bool"},{"name":"_gater","type":"address","internalType":"address"}],"outputs":[{"name":"goodid2Quantity_","type":"uint128","internalType":"uint128"},{"name":"goodid2FeeQuantity_","type":"uint128","internalType":"uint128"}],"stateMutability":"nonpayable"},{"type":"function","name":"buyGoodForPay","inputs":[{"name":"_goodid1","type":"uint256","internalType":"uint256"},{"name":"_goodid2","type":"uint256","internalType":"uint256"},{"name":"_swapQuantity","type":"uint128","internalType":"uint128"},{"name":"_limitPrice","type":"uint256","internalType":"uint256"},{"name":"_recipent","type":"address","internalType":"address"},{"name":"_gater","type":"address","internalType":"address"}],"outputs":[{"name":"goodid1Quantity_","type":"uint128","internalType":"uint128"},{"name":"goodid1FeeQuantity_","type":"uint128","internalType":"uint128"}],"stateMutability":"nonpayable"},{"type":"function","name":"changeGoodOwner","inputs":[{"name":"_goodid","type":"uint256","internalType":"uint256"},{"name":"_to","type":"address","internalType":"address"}],"outputs":[{"name":"","type":"bool","internalType":"bool"}],"stateMutability":"nonpayable"},{"type":"function","name":"changeProofOwner","inputs":[{"name":"_proofid","type":"uint256","internalType":"uint256"},{"name":"_to","type":"address","internalType":"address"}],"outputs":[{"name":"","type":"bool","internalType":"bool"}],"stateMutability":"nonpayable"},{"type":"function","name":"check_banlist","inputs":[{"name":"_user","type":"address","internalType":"address"}],"outputs":[{"name":"_isban","type":"bool","internalType":"bool"}],"stateMutability":"view"},{"type":"function","name":"collectProofFee","inputs":[{"name":"_proofid","type":"uint256","internalType":"uint256"}],"outputs":[{"name":"profit_","type":"uint256","internalType":"T_BalanceUINT256"}],"stateMutability":"nonpayable"},{"type":"function","name":"collectProtocolFee","inputs":[{"name":"_goodid","type":"uint256","internalType":"uint256"}],"outputs":[{"name":"","type":"uint256","internalType":"uint256"}],"stateMutability":"nonpayable"},{"type":"function","name":"customerno","inputs":[{"name":"","type":"address","internalType":"address"}],"outputs":[{"name":"","type":"uint256","internalType":"uint256"}],"stateMutability":"view"},{"type":"function","name":"customernum","inputs":[],"outputs":[{"name":"","type":"uint256","internalType":"uint256"}],"stateMutability":"view"},{"type":"function","name":"disinvestGood","inputs":[{"name":"_togood","type":"uint256","internalType":"uint256"},{"name":"_valuegood","type":"uint256","internalType":"uint256"},{"name":"_goodQuantity","type":"uint128","internalType":"uint128"},{"name":"_gater","type":"address","internalType":"address"}],"outputs":[{"name":"disinvestNormalResult1_","type":"tuple","internalType":"struct L_Good.S_GoodDisinvestReturn","components":[{"name":"profit","type":"uint128","internalType":"uint128"},{"name":"actual_fee","type":"uint128","internalType":"uint128"},{"name":"actualDisinvestValue","type":"uint128","internalType":"uint128"},{"name":"actualDisinvestQuantity","type":"uint128","internalType":"uint128"}]},{"name":"disinvestValueResult2_","type":"tuple","internalType":"struct L_Good.S_GoodDisinvestReturn","components":[{"name":"profit","type":"uint128","internalType":"uint128"},{"name":"actual_fee","type":"uint128","internalType":"uint128"},{"name":"actualDisinvestValue","type":"uint128","internalType":"uint128"},{"name":"actualDisinvestQuantity","type":"uint128","internalType":"uint128"}]},{"name":"proofno_","type":"uint256","internalType":"uint256"}],"stateMutability":"nonpayable"},{"type":"function","name":"disinvestProof","inputs":[{"name":"_proofid","type":"uint256","internalType":"uint256"},{"name":"_goodQuantity","type":"uint128","internalType":"uint128"},{"name":"_gater","type":"address","internalType":"address"}],"outputs":[{"name":"disinvestNormalResult1_","type":"tuple","internalType":"struct L_Good.S_GoodDisinvestReturn","components":[{"name":"profit","type":"uint128","internalType":"uint128"},{"name":"actual_fee","type":"uint128","internalType":"uint128"},{"name":"actualDisinvestValue","type":"uint128","internalType":"uint128"},{"name":"actualDisinvestQuantity","type":"uint128","internalType":"uint128"}]},{"name":"disinvestValueResult2_","type":"tuple","internalType":"struct L_Good.S_GoodDisinvestReturn","components":[{"name":"profit","type":"uint128","internalType":"uint128"},{"name":"actual_fee","type":"uint128","internalType":"uint128"},{"name":"actualDisinvestValue","type":"uint128","internalType":"uint128"},{"name":"actualDisinvestQuantity","type":"uint128","internalType":"uint128"}]}],"stateMutability":"nonpayable"},{"type":"function","name":"getApproved","inputs":[{"name":"proofId","type":"uint256","internalType":"uint256"}],"outputs":[{"name":"","type":"address","internalType":"address"}],"stateMutability":"view"},{"type":"function","name":"getGoodIdByAddress","inputs":[{"name":"_owner","type":"address","internalType":"address"},{"name":"_key","type":"uint256","internalType":"uint256"}],"outputs":[{"name":"","type":"uint256","internalType":"uint256"}],"stateMutability":"view"},{"type":"function","name":"getGoodState","inputs":[{"name":"_goodid","type":"uint256","internalType":"uint256"}],"outputs":[{"name":"good_","type":"tuple","internalType":"struct L_Good.S_GoodTmpState","components":[{"name":"goodConfig","type":"uint256","internalType":"uint256"},{"name":"owner","type":"address","internalType":"address"},{"name":"erc20address","type":"address","internalType":"address"},{"name":"currentState","type":"uint256","internalType":"T_BalanceUINT256"},{"name":"investState","type":"uint256","internalType":"T_BalanceUINT256"},{"name":"feeQunitityState","type":"uint256","internalType":"T_BalanceUINT256"}]}],"stateMutability":"view"},{"type":"function","name":"getGoodsFee","inputs":[{"name":"_goodid","type":"uint256","internalType":"uint256"},{"name":"user","type":"address","internalType":"address"}],"outputs":[{"name":"","type":"uint256","internalType":"uint256"}],"stateMutability":"view"},{"type":"function","name":"getProofId","inputs":[{"name":"_investproofkey","type":"tuple","internalType":"struct S_ProofKey","components":[{"name":"owner","type":"address","internalType":"address"},{"name":"currentgood","type":"uint256","internalType":"uint256"},{"name":"valuegood","type":"uint256","internalType":"uint256"}]}],"outputs":[{"name":"proof_","type":"uint256","internalType":"uint256"}],"stateMutability":"view"},{"type":"function","name":"getProofState","inputs":[{"name":"_proof","type":"uint256","internalType":"uint256"}],"outputs":[{"name":"proof_","type":"tuple","internalType":"struct L_Proof.S_ProofState","components":[{"name":"owner","type":"address","internalType":"address"},{"name":"currentgood","type":"uint256","internalType":"uint256"},{"name":"valuegood","type":"uint256","internalType":"uint256"},{"name":"state","type":"uint256","internalType":"T_BalanceUINT256"},{"name":"invest","type":"uint256","internalType":"T_BalanceUINT256"},{"name":"valueinvest","type":"uint256","internalType":"T_BalanceUINT256"},{"name":"approval","type":"address","internalType":"address"},{"name":"beneficiary","type":"address","internalType":"address"}]}],"stateMutability":"view"},{"type":"function","name":"goodNum","inputs":[],"outputs":[{"name":"","type":"uint256","internalType":"uint256"}],"stateMutability":"view"},{"type":"function","name":"initGood","inputs":[{"name":"_valuegood","type":"uint256","internalType":"uint256"},{"name":"_initial","type":"uint256","internalType":"T_BalanceUINT256"},{"name":"_erc20address","type":"address","internalType":"address"},{"name":"_goodConfig","type":"uint256","internalType":"uint256"},{"name":"_gater","type":"address","internalType":"address"}],"outputs":[{"name":"","type":"uint256","internalType":"uint256"},{"name":"","type":"uint256","internalType":"uint256"}],"stateMutability":"payable"},{"type":"function","name":"initMetaGood","inputs":[{"name":"_erc20address","type":"address","internalType":"address"},{"name":"_initial","type":"uint256","internalType":"T_BalanceUINT256"},{"name":"_goodConfig","type":"uint256","internalType":"uint256"}],"outputs":[{"name":"","type":"uint256","internalType":"uint256"},{"name":"","type":"uint256","internalType":"uint256"}],"stateMutability":"payable"},{"type":"function","name":"investGood","inputs":[{"name":"_togood","type":"uint256","internalType":"uint256"},{"name":"_valuegood","type":"uint256","internalType":"uint256"},{"name":"_quantity","type":"uint128","internalType":"uint128"},{"name":"_gater","type":"address","internalType":"address"}],"outputs":[{"name":"normalInvest_","type":"tuple","internalType":"struct L_Good.S_GoodInvestReturn","components":[{"name":"actualFeeQuantity","type":"uint128","internalType":"uint128"},{"name":"contructFeeQuantity","type":"uint128","internalType":"uint128"},{"name":"actualInvestValue","type":"uint128","internalType":"uint128"},{"name":"actualInvestQuantity","type":"uint128","internalType":"uint128"}]},{"name":"valueInvest_","type":"tuple","internalType":"struct L_Good.S_GoodInvestReturn","components":[{"name":"actualFeeQuantity","type":"uint128","internalType":"uint128"},{"name":"contructFeeQuantity","type":"uint128","internalType":"uint128"},{"name":"actualInvestValue","type":"uint128","internalType":"uint128"},{"name":"actualInvestQuantity","type":"uint128","internalType":"uint128"}]},{"name":"proofno_","type":"uint256","internalType":"uint256"}],"stateMutability":"nonpayable"},{"type":"function","name":"isApprovedForAll","inputs":[{"name":"owner","type":"address","internalType":"address"},{"name":"operator","type":"address","internalType":"address"}],"outputs":[{"name":"","type":"bool","internalType":"bool"}],"stateMutability":"view"},{"type":"function","name":"marketconfig","inputs":[],"outputs":[{"name":"","type":"uint256","internalType":"uint256"}],"stateMutability":"view"},{"type":"function","name":"marketcreator","inputs":[],"outputs":[{"name":"","type":"address","internalType":"address"}],"stateMutability":"view"},{"type":"function","name":"multicall","inputs":[{"name":"data","type":"bytes[]","internalType":"bytes[]"}],"outputs":[{"name":"results","type":"bytes[]","internalType":"bytes[]"}],"stateMutability":"payable"},{"type":"function","name":"name","inputs":[],"outputs":[{"name":"","type":"string","internalType":"string"}],"stateMutability":"pure"},{"type":"function","name":"ownerOf","inputs":[{"name":"proofId","type":"uint256","internalType":"uint256"}],"outputs":[{"name":"","type":"address","internalType":"address"}],"stateMutability":"view"},{"type":"function","name":"payGood","inputs":[{"name":"_goodid","type":"uint256","internalType":"uint256"},{"name":"_payquanity","type":"uint256","internalType":"uint256"},{"name":"_recipent","type":"address","internalType":"address"}],"outputs":[{"name":"","type":"bool","internalType":"bool"}],"stateMutability":"nonpayable"},{"type":"function","name":"proofseq","inputs":[{"name":"","type":"bytes32","internalType":"bytes32"}],"outputs":[{"name":"","type":"uint256","internalType":"uint256"}],"stateMutability":"view"},{"type":"function","name":"relations","inputs":[{"name":"","type":"address","internalType":"address"}],"outputs":[{"name":"","type":"address","internalType":"address"}],"stateMutability":"view"},{"type":"function","name":"removebanlist","inputs":[{"name":"_user","type":"address","internalType":"address"}],"outputs":[{"name":"","type":"bool","internalType":"bool"}],"stateMutability":"nonpayable"},{"type":"function","name":"safeTransferFrom","inputs":[{"name":"from","type":"address","internalType":"address"},{"name":"to","type":"address","internalType":"address"},{"name":"proofid","type":"uint256","internalType":"uint256"}],"outputs":[],"stateMutability":"nonpayable"},{"type":"function","name":"safeTransferFrom","inputs":[{"name":"from","type":"address","internalType":"address"},{"name":"to","type":"address","internalType":"address"},{"name":"tokenId","type":"uint256","internalType":"uint256"},{"name":"data","type":"bytes","internalType":"bytes"}],"outputs":[],"stateMutability":"nonpayable"},{"type":"function","name":"setApprovalForAll","inputs":[{"name":"operator","type":"address","internalType":"address"},{"name":"approved","type":"bool","internalType":"bool"}],"outputs":[],"stateMutability":"nonpayable"},{"type":"function","name":"setMarketConfig","inputs":[{"name":"_marketconfig","type":"uint256","internalType":"uint256"}],"outputs":[{"name":"","type":"bool","internalType":"bool"}],"stateMutability":"nonpayable"},{"type":"function","name":"supportsInterface","inputs":[{"name":"interfaceId","type":"bytes4","internalType":"bytes4"}],"outputs":[{"name":"","type":"bool","internalType":"bool"}],"stateMutability":"view"},{"type":"function","name":"symbol","inputs":[],"outputs":[{"name":"","type":"string","internalType":"string"}],"stateMutability":"pure"},{"type":"function","name":"tokenByIndex","inputs":[{"name":"_index","type":"uint256","internalType":"uint256"}],"outputs":[{"name":"","type":"uint256","internalType":"uint256"}],"stateMutability":"pure"},{"type":"function","name":"tokenOfOwnerByIndex","inputs":[{"name":"_owner","type":"address","internalType":"address"},{"name":"_index","type":"uint256","internalType":"uint256"}],"outputs":[{"name":"","type":"uint256","internalType":"uint256"}],"stateMutability":"view"},{"type":"function","name":"tokenURI","inputs":[{"name":"proofId","type":"uint256","internalType":"uint256"}],"outputs":[{"name":"","type":"string","internalType":"string"}],"stateMutability":"view"},{"type":"function","name":"totalSupply","inputs":[],"outputs":[{"name":"","type":"uint256","internalType":"uint256"}],"stateMutability":"view"},{"type":"function","name":"transferFrom","inputs":[{"name":"from","type":"address","internalType":"address"},{"name":"to","type":"address","internalType":"address"},{"name":"proofid","type":"uint256","internalType":"uint256"}],"outputs":[],"stateMutability":"nonpayable"},{"type":"function","name":"updateGoodConfig","inputs":[{"name":"_goodid","type":"uint256","internalType":"uint256"},{"name":"_goodConfig","type":"uint256","internalType":"uint256"}],"outputs":[{"name":"","type":"bool","internalType":"bool"}],"stateMutability":"nonpayable"},{"type":"function","name":"updatetoNormalGood","inputs":[{"name":"_goodid","type":"uint256","internalType":"uint256"}],"outputs":[{"name":"","type":"bool","internalType":"bool"}],"stateMutability":"nonpayable"},{"type":"function","name":"updatetoValueGood","inputs":[{"name":"_goodid","type":"uint256","internalType":"uint256"}],"outputs":[{"name":"","type":"bool","internalType":"bool"}],"stateMutability":"nonpayable"},{"type":"event","name":"Approval","inputs":[{"name":"owner","type":"address","indexed":true,"internalType":"address"},{"name":"approved","type":"address","indexed":true,"internalType":"address"},{"name":"tokenId","type":"uint256","indexed":true,"internalType":"uint256"}],"anonymous":false},{"type":"event","name":"ApprovalForAll","inputs":[{"name":"owner","type":"address","indexed":true,"internalType":"address"},{"name":"operator","type":"address","indexed":true,"internalType":"address"},{"name":"approved","type":"bool","indexed":false,"internalType":"bool"}],"anonymous":false},{"type":"event","name":"Transfer","inputs":[{"name":"from","type":"address","indexed":true,"internalType":"address"},{"name":"to","type":"address","indexed":true,"internalType":"address"},{"name":"tokenId","type":"uint256","indexed":true,"internalType":"uint256"}],"anonymous":false},{"type":"event","name":"e_addbanlist","inputs":[{"name":"_user","type":"address","indexed":false,"internalType":"address"}],"anonymous":false},{"type":"event","name":"e_addreferer","inputs":[{"name":"_user","type":"address","indexed":false,"internalType":"address"},{"name":"_referer","type":"address","indexed":false,"internalType":"address"}],"anonymous":false},{"type":"event","name":"e_buyGood","inputs":[{"name":"sellgood","type":"uint256","indexed":true,"internalType":"uint256"},{"name":"forgood","type":"uint256","indexed":true,"internalType":"uint256"},{"name":"fromer","type":"address","indexed":false,"internalType":"address"},{"name":"swapvalue","type":"uint128","indexed":false,"internalType":"uint128"},{"name":"sellgoodstate","type":"uint256","indexed":false,"internalType":"T_BalanceUINT256"},{"name":"forgoodstate","type":"uint256","indexed":false,"internalType":"T_BalanceUINT256"}],"anonymous":false},{"type":"event","name":"e_buyGoodForPay","inputs":[{"name":"buygood","type":"uint256","indexed":true,"internalType":"uint256"},{"name":"usegood","type":"uint256","indexed":true,"internalType":"uint256"},{"name":"fromer","type":"address","indexed":false,"internalType":"address"},{"name":"receipt","type":"address","indexed":false,"internalType":"address"},{"name":"swapvalue","type":"uint128","indexed":false,"internalType":"uint128"},{"name":"buygoodstate","type":"uint256","indexed":false,"internalType":"T_BalanceUINT256"},{"name":"usegoodstate","type":"uint256","indexed":false,"internalType":"T_BalanceUINT256"}],"anonymous":false},{"type":"event","name":"e_changeOwner","inputs":[{"name":"_goodid","type":"uint256","indexed":true,"internalType":"uint256"},{"name":"_owner","type":"address","indexed":false,"internalType":"address"},{"name":"_to","type":"address","indexed":false,"internalType":"address"}],"anonymous":false},{"type":"event","name":"e_collectProofFee","inputs":[{"name":"_proofNo","type":"uint256","indexed":true,"internalType":"uint256"},{"name":"_normalGoodNo","type":"uint256","indexed":false,"internalType":"uint256"},{"name":"_valueGoodNo","type":"uint256","indexed":false,"internalType":"uint256"},{"name":"_profit","type":"uint256","indexed":false,"internalType":"T_BalanceUINT256"},{"name":"_protocalfee","type":"uint256","indexed":false,"internalType":"T_BalanceUINT256"}],"anonymous":false},{"type":"event","name":"e_disinvestProof","inputs":[{"name":"_proofNo","type":"uint256","indexed":true,"internalType":"uint256"},{"name":"_normalGoodNo","type":"uint256","indexed":false,"internalType":"uint256"},{"name":"_valueGoodNo","type":"uint256","indexed":false,"internalType":"uint256"},{"name":"_normalgood","type":"uint256","indexed":false,"internalType":"T_BalanceUINT256"},{"name":"_valuegood","type":"uint256","indexed":false,"internalType":"T_BalanceUINT256"},{"name":"_profit","type":"uint256","indexed":false,"internalType":"T_BalanceUINT256"}],"anonymous":false},{"type":"event","name":"e_initGood","inputs":[{"name":"_proofNo","type":"uint256","indexed":true,"internalType":"uint256"},{"name":"_normalgoodNo","type":"uint256","indexed":false,"internalType":"uint256"},{"name":"_valuegoodNo","type":"uint256","indexed":false,"internalType":"uint256"},{"name":"_erc20address","type":"address","indexed":false,"internalType":"address"},{"name":"_goodConfig","type":"uint256","indexed":false,"internalType":"uint256"},{"name":"_normalinitial","type":"uint256","indexed":false,"internalType":"T_BalanceUINT256"},{"name":"_value","type":"uint256","indexed":false,"internalType":"T_BalanceUINT256"}],"anonymous":false},{"type":"event","name":"e_initMetaGood","inputs":[{"name":"_proofNo","type":"uint256","indexed":true,"internalType":"uint256"},{"name":"_goodNo","type":"uint256","indexed":false,"internalType":"uint256"},{"name":"_erc20address","type":"address","indexed":false,"internalType":"address"},{"name":"_goodConfig","type":"uint256","indexed":false,"internalType":"uint256"},{"name":"_initial","type":"uint256","indexed":false,"internalType":"T_BalanceUINT256"}],"anonymous":false},{"type":"event","name":"e_investGood","inputs":[{"name":"_proofNo","type":"uint256","indexed":true,"internalType":"uint256"},{"name":"_normalGoodNo","type":"uint256","indexed":false,"internalType":"uint256"},{"name":"_valueGoodNo","type":"uint256","indexed":false,"internalType":"uint256"},{"name":"_invest","type":"uint256","indexed":false,"internalType":"T_BalanceUINT256"},{"name":"_valueinvest","type":"uint256","indexed":false,"internalType":"T_BalanceUINT256"}],"anonymous":false},{"type":"event","name":"e_removebanlist","inputs":[{"name":"_user","type":"address","indexed":false,"internalType":"address"}],"anonymous":false},{"type":"event","name":"e_setMarketConfig","inputs":[{"name":"_marketconfig","type":"uint256","indexed":false,"internalType":"uint256"}],"anonymous":false},{"type":"event","name":"e_updateGoodConfig","inputs":[{"name":"_goodid","type":"uint256","indexed":false,"internalType":"uint256"},{"name":"_goodConfig","type":"uint256","indexed":false,"internalType":"uint256"}],"anonymous":false},{"type":"event","name":"e_updatetoNormalGood","inputs":[{"name":"_goodid","type":"uint256","indexed":false,"internalType":"uint256"}],"anonymous":false},{"type":"event","name":"e_updatetoValueGood","inputs":[{"name":"_goodid","type":"uint256","indexed":false,"internalType":"uint256"}],"anonymous":false},{"type":"error","name":"ERC20TransferFailed","inputs":[]},{"type":"error","name":"ERC721InvalidReceiver","inputs":[{"name":"receiver","type":"address","internalType":"address"}]},{"type":"error","name":"NativeTransferFailed","inputs":[]},{"type":"error","name":"err_total","inputs":[]}],"bytecode":{"object":"0x60806040523480156200001157600080fd5b50604051620057f7380380620057f783398101604081905262000034916200005e565b600580546001600160a01b0319166001600160a01b0393909316929092179091556003556200009a565b600080604083850312156200007257600080fd5b82516001600160a01b03811681146200008a57600080fd5b6020939093015192949293505050565b61574d80620000aa6000396000f3fe60806040526004361061031e5760003560e01c80636352211e116101a5578063a6f6a980116100ec578063c3a2b15911610095578063e402d5ea1161006f578063e402d5ea14610ad5578063e985e9c514610ae8578063f4662f2014610b31578063fc5f8dd014610b5f57600080fd5b8063c3a2b15914610a68578063c87b56dd14610a95578063d357da3e14610ab557600080fd5b8063b153b920116100c6578063b153b92014610a08578063b88d4fde14610a28578063c3726ae314610a4857600080fd5b8063a6f6a9801461094d578063a92a1bc9146109c8578063ac9650d8146109e857600080fd5b80639551177a1161014e57806399e23fc21161012857806399e23fc2146108ed5780639caa637b1461090d578063a22cb4651461092d57600080fd5b80639551177a1461087957806395d89b411461089957806397924ead146108c557600080fd5b80638b7badb01161017f5780638b7badb01461080a5780638bdde5d314610839578063920acbb81461085957600080fd5b80636352211e1461077e57806370a08231146107b45780637b43e738146107ea57600080fd5b80632f745c5911610269578063430b9be71161021257806356b7d94c116101ec57806356b7d94c146106e2578063578496ab146107285780635a5da4dd1461076857600080fd5b8063430b9be71461067757806345818e4c146106a45780634f6ccce7146106c457600080fd5b8063402f5ab511610243578063402f5ab51461062b57806340430a491461064157806342842e0e1461065757600080fd5b80632f745c59146105345780633d9951731461057b5780633f1177401461059b57600080fd5b806314484e10116102cb57806318160ddd116102a557806318160ddd146104de57806323b872dd146104f45780632a7c5a911461051457600080fd5b806314484e1014610468578063144aeb8314610488578063161ce5cb146104a857600080fd5b8063081812fc116102fc578063081812fc146103d5578063095ea7b3146104265780630a25dcff1461044857600080fd5b806301ffc9a7146103235780630292eb4a1461035857806306fdde0314610386575b600080fd5b34801561032f57600080fd5b5061034361033e366004614d2c565b610b7f565b60405190151581526020015b60405180910390f35b34801561036457600080fd5b50610378610373366004614d49565b610bd1565b60405190815260200161034f565b34801561039257600080fd5b5060408051808201909152600a81527f545453574150204e46540000000000000000000000000000000000000000000060208201525b60405161034f9190614db2565b3480156103e157600080fd5b5061040e6103f0366004614d49565b6000908152600c60205260409020600601546001600160a01b031690565b6040516001600160a01b03909116815260200161034f565b34801561043257600080fd5b50610446610441366004614ddc565b610cef565b005b34801561045457600080fd5b50610343610463366004614d49565b610dd2565b34801561047457600080fd5b50610343610483366004614d49565b610e68565b34801561049457600080fd5b506103436104a3366004614e06565b610ef2565b3480156104b457600080fd5b5061040e6104c3366004614e28565b6002602052600090815260409020546001600160a01b031681565b3480156104ea57600080fd5b50610378600b5481565b34801561050057600080fd5b5061044661050f366004614e43565b610f9b565b34801561052057600080fd5b5061034361052f366004614e7f565b6110d0565b34801561054057600080fd5b5061037861054f366004614ddc565b6001600160a01b03919091166000908152600d6020908152604080832093835260019093019052205490565b34801561058757600080fd5b5060055461040e906001600160a01b031681565b3480156105a757600080fd5b506105bb6105b6366004614d49565b611180565b60405161034f91906000610100820190506001600160a01b038084511683526020840151602084015260408401516040840152606084015160608401526080840151608084015260a084015160a08401528060c08501511660c08401528060e08501511660e08401525092915050565b34801561063757600080fd5b5061037860035481565b34801561064d57600080fd5b5061037860005481565b34801561066357600080fd5b50610446610672366004614e43565b61123e565b34801561068357600080fd5b50610378610692366004614d49565b600e6020526000908152604090205481565b3480156106b057600080fd5b506103436106bf366004614d49565b61125e565b3480156106d057600080fd5b506103786106df366004614d49565b90565b3480156106ee57600080fd5b506103786106fd366004614e7f565b60008281526006602081815260408084206001600160a01b0386168552909201905290205492915050565b34801561073457600080fd5b50610748610743366004614ed2565b611311565b604080516001600160801b0393841681529290911660208301520161034f565b34801561077457600080fd5b5061037860045481565b34801561078a57600080fd5b5061040e610799366004614d49565b6000908152600c60205260409020546001600160a01b031690565b3480156107c057600080fd5b506103786107cf366004614e28565b6001600160a01b03166000908152600d602052604090205490565b3480156107f657600080fd5b50610748610805366004614f31565b611649565b34801561081657600080fd5b5061082a610825366004614f76565b611936565b60405161034f93929190614fbc565b34801561084557600080fd5b50610343610854366004614e28565b611d19565b34801561086557600080fd5b5061034361087436600461503b565b611de2565b34801561088557600080fd5b50610343610894366004614e28565b611e13565b3480156108a557600080fd5b506040805180820190915260038152622a2a2760e91b60208201526103c8565b6108d86108d3366004615070565b611ea1565b6040805192835260208301919091520161034f565b3480156108f957600080fd5b50610343610908366004614e7f565b612144565b34801561091957600080fd5b506103786109283660046150a3565b6121e5565b34801561093957600080fd5b506104466109483660046150bb565b612217565b34801561095957600080fd5b5061096d610968366004614d49565b612283565b60405161034f9190600060c0820190508251825260208301516001600160a01b0380821660208501528060408601511660408501525050606083015160608301526080830151608083015260a083015160a083015292915050565b3480156109d457600080fd5b506103786109e3366004614ddc565b61232f565b6109fb6109f63660046150e5565b612383565b60405161034f919061515a565b348015610a1457600080fd5b50610343610a23366004614e28565b6124d0565b348015610a3457600080fd5b50610446610a4336600461522d565b612560565b348015610a5457600080fd5b50610378610a63366004614d49565b61257e565b348015610a7457600080fd5b50610378610a83366004614e28565b60016020526000908152604090205481565b348015610aa157600080fd5b506103c8610ab0366004614d49565b6127c8565b348015610ac157600080fd5b5061082a610ad0366004614f76565b612863565b6108d8610ae33660046152d8565b612908565b348015610af457600080fd5b50610343610b03366004615328565b6001600160a01b039182166000908152600f6020908152604080832093909416825291909152205460ff1690565b348015610b3d57600080fd5b50610b51610b4c366004615352565b612d66565b60405161034f929190615385565b348015610b6b57600080fd5b50610343610b7a366004614e28565b6130e1565b60006001600160e01b031982166380ac58cd60e01b1480610bb057506001600160e01b03198216635b5e139f60e01b145b80610bcb57506301ffc9a760e01b6001600160e01b03198316145b92915050565b336000908152600a602052604081205415610beb57600080fd5b6000828152600660208181526040808420338552909201905290205480610c3f5760405162461bcd60e51b815260206004820152600360248201526223981b60e91b60448201526064015b60405180910390fd5b600083815260066020818152604080842033855290920190528120819055600354610c759083606460dd9290921c601f16020490565b60008581526006602081815260408084206005546001600160a01b031685529092019052812080549293508392909190610cb0908490615412565b90915550610ce6905033610cc48385615425565b6000878152600660205260409020600201546001600160a01b03169190613110565b5090505b919050565b6000818152600c602052604090205481906001600160a01b0316331480610d2f57506000818152600c60205260409020600601546001600160a01b031633145b610d6b5760405162461bcd60e51b815260206004820152600d60248201526c1bdb9b1e48185c1c1c9bdd985b609a1b6044820152606401610c36565b6000828152600c6020526040902060060180546001600160a01b0319166001600160a01b03851617905560405182906001600160a01b0385169033907f8c5be1e5ebec7d5bd14f71427d1e84f3dd0314c0f7b2291e5b200ac8c7c3b92590600090a4505050565b6005546000906001600160a01b03163314610e155760405162461bcd60e51b815260206004820152600360248201526223981960e91b6044820152606401610c36565b6000828152600660205260409020610e2c906131aa565b6040518281527f0a838ff9b50f80fde9fe2adbd3d7722a295d5dca4efb862809ffc0c96449676a906020015b60405180910390a1506001919050565b6005546000906001600160a01b03163314610eab5760405162461bcd60e51b815260206004820152600360248201526223981960e91b6044820152606401610c36565b6000828152600660205260409020610ec29061320a565b6040518281527f6a4f4670c5457b20fe7a61d9e026a5137a927eef5fa719db8702fafad694b39390602001610e58565b6000828152600660205260408120600101546001600160a01b03163314610f415760405162461bcd60e51b815260206004820152600360248201526211cc0d60ea1b6044820152606401610c36565b6000838152600660205260409020610f599083613259565b60408051848152602081018490527fc360eef79f1e7d7e7564e3cd446a9839f5a632a38a4d34b507c08e1ceef46147910160405180910390a150600192915050565b6000818152600c602052604090205481906001600160a01b0316331480610fdb57506000818152600c60205260409020600601546001600160a01b031633145b6110175760405162461bcd60e51b815260206004820152600d60248201526c1bdb9b1e48185c1c1c9bdd985b609a1b6044820152606401610c36565b6001600160a01b0384166000908152600d602052604090206110399083613291565b6001600160a01b0383166000908152600d6020526040902061105b90836132d8565b6000828152600c602052604080822080546001600160a01b038088166001600160a01b03199283168117845560068401805484169055600790930180549092169091559151859391928816917fddf252ad1be2c89b69c2b068fc378daa952ba7f163c4a11628f55a4df523b3ef91a450505050565b6000828152600660205260408120600101546001600160a01b031633148061110257506005546001600160a01b031633145b6111345760405162461bcd60e51b815260206004820152600360248201526247303560e81b6044820152606401610c36565b600083815260066020908152604080832060010180546001600160a01b0319166001600160a01b03871690811790915583526007909152902061117790846132d8565b50600192915050565b6111e360405180610100016040528060006001600160a01b03168152602001600081526020016000815260200160008152602001600081526020016000815260200160006001600160a01b0316815260200160006001600160a01b031681525090565b6000828152600c6020818152604080842080546001600160a01b03168652600181015486840152600281015491860191909152600381015460608601526004810154608086015294909252905260059091015460a082015290565b61125983838360405180602001604052806000815250612560565b505050565b6005546000906001600160a01b031633146112a15760405162461bcd60e51b815260206004820152600360248201526223981960e91b6044820152606401610c36565b6112aa8261331d565b6112dc5760405162461bcd60e51b815260206004820152600360248201526247303360e81b6044820152606401610c36565b60038290556040518281527fbd209961024f2694b0afb3c8badd20b6477abb77b336b16892c3fa4b906d323c90602001610e58565b60008060095460001461134c5760405162461bcd60e51b815260206004820152600360248201526247303160e81b6044820152606401610c36565b600160095560408051610100810182526001600160801b038816815260006020808301829052828401829052606083018290528b825260068082528483206003808201546080870152905460a08601528c84528183529483209485015460c0850152918b905252905460e08201526113c4818761338f565b905060018515151480156113e1575080516001600160801b031615155b156113ff57604051632af75bb760e11b815260040160405180910390fd5b60208082015160008a81526006909252604090912054611433916001600160801b031661271060e79290921c607f16020490565b91508181602001516114459190615438565b92506114da816080015182604001516003546040518060400160405280896001600160a01b0316815260200160026000336001600160a01b03166001600160a01b0316815260200190815260200160002060009054906101000a90046001600160a01b03166001600160a01b0316815250600660008f81526020019081526020016000206136d490949392919063ffffffff16565b60c08101516003546040805180820182526001600160a01b0380891682523360009081526002602090815284822054909216828401528d815260069091529190912061152c93909290918691906136d4565b61156d333083600001518a6115419190615438565b60008d8152600660205260409020600201546001600160a01b03169291906001600160801b031661372b565b60008881526006602052604090206002015461159c906001600160a01b0316336001600160801b038616613110565b87897fa79c43e220b5faf022716b06e757294b799a25f33d3c8b0121e614f7b5d988c43384606001516115f086600001518d6115d89190615438565b60408801516001600160801b031660809190911b1790565b6001600160801b03881660808a901b17604080516001600160a01b0390951685526001600160801b0390931660208501529183015260608201526080015b60405180910390a35060006009559097909650945050505050565b6000806009546000146116845760405162461bcd60e51b815260206004820152600360248201526247303160e81b6044820152606401610c36565b600160095560408051610100810182526001600160801b038816815260006020808301829052828401829052606083018290528b825260068082528483206003808201546080870152905460a08601528c84528183529483209485015460c0850152918b905252905460e08201526116fc8187613807565b80519091506001600160801b03161561172857604051632af75bb760e11b815260040160405180910390fd5b60208082015160008b8152600690925260409091205461175c916001600160801b031661271060e79290921c607f16020490565b915081816020015161176e9190615438565b60c0820151604080840151600354825180840184526001600160a01b03808b1682523360009081526002602090815286822054909216828401528f81526006909152939093209497506117c29493926136d4565b60808101516003546040805180820182526001600160a01b0380891682523360009081526002602090815284822054909216828401528e815260069091529190912061181493909290918691906136d4565b6040810151815161186091879161182b908b615438565b6118359190615438565b60008b8152600660205260409020600201546001600160a01b031691906001600160801b0316613110565b600089815260066020526040902060020154611890906001600160a01b031633306001600160801b03871661372b565b87897f3de590341c976ea6fce618ef4a768a15441201ad3ed7c9b438d82c3951de7ced338885606001516118e587600001518e6118cd9190615438565b60408901516001600160801b031660809190911b1790565b6001600160801b03891660808b901b17604080516001600160a01b0396871681529590941660208601526001600160801b03909216928401929092526060830191909152608082015260a00161162e565b60408051608081018252600080825260208201819052918101829052606081019190915260408051608081018252600080825260208201819052918101829052606081019190915260006009546000146119b85760405162461bcd60e51b815260206004820152600360248201526247303160e81b6044820152606401610c36565b60016009556000878152600660205260409020600301546d1000000000000000000000000000906001600160801b03161115611a1c5760405162461bcd60e51b815260206004820152600360248201526226981960e91b6044820152606401610c36565b6003546040805180820182526001600160a01b0380881682523360009081526002602090815284822054909216828401528b8152600690915291909120611a67929091889190613ac0565b600088815260066020526040902060020154909350611a9a906001600160a01b031633306001600160801b03891661372b565b600086815260066020526040902054611ab290613c70565b15611b9457604080840151600088815260066020529190912060030154611ad891613c86565b6001600160801b03166060830181905260008781526006602052604090205460f51c607f16612710908103909104026001600160801b031660608301819052600087815260066020526040902060020154611b42916001600160a01b03909116903390309061372b565b60608201516003546040805180820182526001600160a01b0380891682523360009081526002602090815284822054909216828401528b8152600690915291909120611b919390929091613ac0565b91505b600e6000611bc46040518060600160405280336001600160a01b031681526020018b81526020018a815250613d0f565b815260200190815260200160002054905080600003611c40576001600b6000828254611bf09190615412565b92505081905550600b54600e6000611c2a6040518060600160405280336001600160a01b031681526020018c81526020018b815250613d0f565b815260208101919091526040016000205550600b545b6040830151611c9c908890889060801b602087015160608801516001600160801b031660809190911b17602087015160608801516001600160801b031660809190911b176000878152600c602052604090209493929190613d5b565b8251606080850151845185830151604080518d8152602081018d9052608096871b6001600160801b03958616178183015292861b9190931617928101929092525183927f2a59a1828d11dd251ec75ef5a760dad206f25439d13f166bedac3348f1998335928290030190a260006009819055509450945094915050565b3360009081526001602052604081205415611d5b5760405162461bcd60e51b8152602060048201526002602482015261553160f01b6044820152606401610c36565b6001600080828254611d6d9190615412565b9091555050600080543380835260016020908152604080852093909355600281529282902080546001600160a01b0319166001600160a01b0387169081179091558251918252928101929092527fb1793908770b12d3a01966dc35d4039df91722638868f3a302bff545315b757d9101610e58565b600083815260066020526040812060020154611e08906001600160a01b03168385613110565b5060015b9392505050565b6005546000906001600160a01b03163314611e565760405162461bcd60e51b815260206004820152600360248201526223981960e91b6044820152606401610c36565b6001600160a01b0382166000818152600a602090815260408083209290925590519182527e4ba2ca448db089eb9fb0b25431f0d57664d46141171fed2476281b578d96d49101610e58565b60055460009081906001600160a01b03163314611ee65760405162461bcd60e51b815260206004820152600360248201526223981960e91b6044820152606401610c36565b611eef83613c70565b611f215760405162461bcd60e51b815260206004820152600360248201526226981960e91b6044820152606401610c36565b611f3f6001600160a01b03861633306001600160801b03881661372b565b600160046000828254611f529190615412565b9091555050600454604080518082019091526001600160a01b0387168152336020820152600890600090611f8590613dd8565b815260208082019290925260409081016000908120939093556004805484526006909252808320600381018890558083018890556001600160ff1b03871681556002810180546001600160a01b038b166001600160a01b0319918216179091556001909101805490911633179055905482529020612002906131aa565b60045433600090815260076020526040902061201d916132d8565b604080516060810182523381526004546020820152600091810182905261204390613d0f565b90506001600b60008282546120589190615412565b9091555050600b546000828152600e60205260408120919091556004546120c19161208c6120868960801c90565b60801b90565b6120a660008a5b6001600160801b031660809190911b1790565b600b546000908152600c602052604081209493929190613d5b565b600b54336000908152600d602052604090206120dc916132d8565b600454600b54604080519182526001600160a01b03891660208301528101869052606081018790527f9f234216268c7b4b9373c01c9d1cc757d055e68b6440edbaaf229c63a0313bc79060800160405180910390a2600454600b549250925050935093915050565b6000828152600c60205260408120546001600160a01b031633148061218257506000838152600c60205260409020600601546001600160a01b031633145b6121b35760405162461bcd60e51b8152602060048201526002602482015261503160f01b6044820152606401610c36565b506000828152600c6020526040902080546001600160a01b0383166001600160a01b0319909116179055600192915050565b6000600e816122016121fc36869003860186615458565b613d0f565b8152602001908152602001600020549050919050565b336000818152600f602090815260408083206001600160a01b03871680855290835292819020805460ff191686151590811790915590519081529192917f17307eab39ab6107e8899845ad3d59bd9653f200f220920489ca2b5937696c31910160405180910390a35050565b6122ce6040518060c001604052806000815260200160006001600160a01b0316815260200160006001600160a01b031681526020016000815260200160008152602001600081525090565b60008281526006602081815260408084206003810154606087015260048101546080870152600581015460a08701528054865260018101546001600160a01b0390811687850152969094529190526002909101549092169181019190915290565b6001600160a01b038216600090815260076020526040812054821115612356576000611e0c565b506001600160a01b0391909116600090815260076020908152604080832093835260019093019052205490565b60608167ffffffffffffffff81111561239e5761239e6151be565b6040519080825280602002602001820160405280156123d157816020015b60608152602001906001900390816123bc5790505b50905060005b828110156124c957600080308686858181106123f5576123f56154b9565b905060200281019061240791906154cf565b60405161241592919061551d565b600060405180830381855af49150503d8060008114612450576040519150601f19603f3d011682016040523d82523d6000602084013e612455565b606091505b5091509150816124a15760448151101561246e57600080fd5b60048101905080806020019051810190612488919061552d565b60405162461bcd60e51b8152600401610c369190614db2565b808484815181106124b4576124b46154b9565b602090810291909101015250506001016123d7565b5092915050565b6005546000906001600160a01b031633146125135760405162461bcd60e51b815260206004820152600360248201526223981960e91b6044820152606401610c36565b6001600160a01b0382166000818152600a60209081526040918290206001905590519182527f8e1c2d1a5dce36a56a9dfcb96e5816e793c16d6c897b4e3c0b1f99588bb88a1c9101610e58565b61256b848484610f9b565b6125783385858585613e09565b50505050565b6000818152600c60205260408120546001600160a01b03163314806125bc57506000828152600c60205260409020600701546001600160a01b031633145b6125ee5760405162461bcd60e51b81526020600482015260036024820152624d303960e81b6044820152606401610c36565b6000828152600c6020908152604080832060028101546001820154818652600690945282852084865292909420612626929091613f2b565b9250600061266061265761263a8660801c90565b600354906001600160801b0316606460dd9290921c601f16020490565b6120938661263a565b905061266c8482613fee565b93506126788160801c90565b60008381526006602081815260408084206005546001600160a01b031685529092019052812080546001600160801b0393909316929091906126bb908490615412565b909155506126fa9050336126cf8660801c90565b6000858152600660205260409020600201546001600160a01b031691906001600160801b0316613110565b82156127765760008381526006602081815260408084206005546001600160a01b031685529092019052812080546001600160801b038416929061273f908490615412565b90915550612776905033855b6000868152600660205260409020600201546001600160a01b031691906001600160801b0316613110565b60408051838152602081018590529081018590526060810182905285907fb94973ee24db6275c644bfffacacc4d1d6e8e49ecfcdf5170fc17441e9ada39e9060800160405180910390a2505050919050565b6000818152600c602052604090205460609082906001600160a01b031633146128335760405162461bcd60e51b815260206004820152600a60248201527f6f6e6c79206f776e6572000000000000000000000000000000000000000000006044820152606401610c36565b61283c83614018565b60405160200161284c91906155a4565b604051602081830303815290604052915050919050565b6040805160808101825260008082526020820181905291810182905260608101919091526040805160808101825260008082526020820181905291810182905260608101919091526000600e60006128dd6040518060600160405280336001600160a01b031681526020018b81526020018a815250613d0f565b81526020019081526020016000205490506128f9818686612d66565b90989097509095509350505050565b6000806009546000146129435760405162461bcd60e51b815260206004820152600360248201526247303160e81b6044820152606401610c36565b600160095560008781526006602052604090205461296090613c70565b6129925760405162461bcd60e51b815260206004820152600360248201526226981960e91b6044820152606401610c36565b60006129c36040518060400160405280886001600160a01b03168152602001336001600160a01b0316815250613dd8565b60008181526008602052604090205490915015612a085760405162461bcd60e51b81526020600482015260036024820152624d303160e81b6044820152606401610c36565b612a323330612a178a60801c90565b6001600160a01b038a169291906001600160801b031661372b565b600088815260066020526040902060020154612a62906001600160a01b031633306001600160801b038b1661372b565b6000612aad886003546040805180820182526001600160a01b03808b1682523360009081526002602090815284822054909216828401528f8152600690915291909120929190613ac0565b9050600160046000828254612ac29190615412565b9091555050600454600083815260086020908152604080832084905533835260079091529020612af1916132d8565b612b62612b0682604001516120938b60801c90565b60048054600090815260066020526040902060038101839055908101919091556001600160ff1b03881681556002810180546001600160a01b038b166001600160a01b0319918216179091556001909101805490911633179055565b6001600b6000828254612b759190615412565b9091555050600b546040805160608101825233815260045460208201529081018b9052600e90600090612ba790613d0f565b8152602080820192909252604090810160002092909255815161010081018352338152600454918101919091528082018b905290820151606082019060801b8152602001612bfa60006120938c60801c90565b815260608301516020909101906001600160801b03168152600060208083018290526040928301829052600b80548352600c8252838320855181546001600160a01b03199081166001600160a01b03928316178355878501516001840155878701516002840155606088015160038401556080880151600484015560a0880151600584015560c0880151600684018054831691841691909117905560e090970151600790920180549097169116179094559254338252600d90935220612cbf916132d8565b600b547fd5b1190461e8b8cebdd658c8dd4f092c64be24d6dae8d80a4174dad7899a814e6004548b8a8a612cf66118cd8f60801c90565b875160608901516001600160801b031660809190911b176040805196875260208701959095526001600160a01b03909316938501939093526060840152608083019190915260a082015260c00160405180910390a25050600454600b546000600955909890975095505050505050565b60408051608081018252600080825260208201819052918101829052606081019190915260408051608081018252600080825260208201819052918101829052606081019190915260095415612de45760405162461bcd60e51b815260206004820152600360248201526247303160e81b6044820152606401610c36565b60016009556000858152600c60205260409020546001600160a01b03163314612e355760405162461bcd60e51b81526020600482015260036024820152624d303560e81b6044820152606401610c36565b6000858152600c6020908152604080832060018101546002808301548087526006808752858820600354875180890189526001600160a01b03808f168252338c52958a52888b2054909516858a0152858a529190975294909620919594612ea4949293909290918b91906140b8565b8151600354929650909450600091612ef691612ed491906001600160801b0316606460dd9290921c601f16020490565b8551600354612093916001600160801b0316606460dd9290921c601f16020490565b9050612f028160801c90565b85602001818151612f1391906155f3565b6001600160801b0316905250612f298160801c90565b60008481526006602081815260408084206005546001600160a01b031685529092019052812080546001600160801b039390931692909190612f6c908490615412565b909155505060208501518551612f92913391612f88908b6155f3565b61274b9190615438565b6000888152600c602052604090206002015415613030578084602001818151612fbb91906155f3565b6001600160801b0390811690915260008481526006602081815260408084206005546001600160a01b03168552909201905281208054928516935091613002908490615412565b925050819055506130303385602001518660000151876060015161302691906155f3565b6126cf9190615438565b877f873170cbb945d9e0c4d7269b4b4ecac9684242d175cafda5c12b7cce181e2682848461307689602001518a6060015160809190911b6001600160801b039091161790565b602089015160608a01516001600160801b031660809190911b178a518a516001600160801b031660809190911b17604080519586526020860194909452928401919091526060830152608082015260a00160405180910390a250506000600955509094909350915050565b6001600160a01b0381166000908152600a6020526040812054600114613108576000610bcb565b600192915050565b60006001600160a01b03841661314f5760008060008085875af190508061314a57604051633d2cec6f60e21b815260040160405180910390fd5b612578565b60405163a9059cbb60e01b6000528360045282602452602060006044600080895af13d15601f3d116001600051141617169150600060605280604052508061257857604051633c9fd93960e21b815260040160405180910390fd5b80546131b590613c70565b156131eb5760405162461bcd60e51b8152600401610c36906020808252600490820152634730303760e01b604082015260600190565b80546001600160ff1b031661320481600160ff1b615412565b90915550565b805461321590613c70565b61324a5760405162461bcd60e51b8152600401610c369060208082526004908201526308e6060760e31b604082015260600190565b80546001600160ff1b03169055565b81547f0fffffffffffffffffffffffffffffffffffffffffffffffffffffffffffffff90911690613204908290600f60fc1b16615412565b8154600090815260018084016020818152604080852054868652600288018352818620548652929091528320558354909184916132cf908490615425565b90915550505050565b60018260000160008282546132ed9190615412565b90915550508154600090815260018301602090815260408083208490558454938352600290940190529190912055565b60008060e283901c603f1660e884901c603f1660ee85901c603f1660f486901c603f1661334a8760fa1c90565b6133549190615613565b61335e9190615613565b6133689190615613565b6133729190615613565b90508060ff16606414613386576000611e0c565b60019392505050565b6040805161010081018252600080825260208201819052918101829052606081018290526080810182905260a0810182905260c0810182905260e0810191909152825160a084015160009182916133fa916001600160801b031661271060e09290921c607f16020490565b6001600160801b03166040860181905285518690613419908390615438565b6001600160801b03169052505b84516001600160801b03161580159061344d575061344d85608001518660c0015186614618565b1561363e5761346e6134638660c0015160801c90565b60e0870151906147a3565b6001600160801b0316613493613488876080015160801c90565b60a0880151906147a3565b6001600160801b031610156134c3576134be6134b3866080015160801c90565b60a0870151906147a3565b6134d4565b6134d46134638660c0015160801c90565b60808601519092506134e69083613c86565b9050806001600160801b031685600001516001600160801b0316111561359a5780856000018181516135189190615438565b6001600160801b031690525060c08501516135339083613c86565b8560200181815161354491906155f3565b6001600160801b0390811690915260808781015161356f93509184169085901b176147d3565b6147d3565b608086015260c08501516135909061358b846120938382613c86565b614800565b60c086015261361b565b845160808601516135aa91614823565b60c08601519092506135bc9083613c86565b856020018181516135cd91906155f3565b6001600160801b0390811690915260808781015188516135f594509092169085901b176147d3565b608086015260c08501516136119061358b846120938382613c86565b60c0860152600085525b818560600181815161362d91906155f3565b6001600160801b0316905250613426565b84516001600160801b0316156136cb57845160a0860151613672916001600160801b0316606460f49290921c603f16020490565b856040018181516136839190615438565b6001600160801b03908116909152865160a08801516136af93509116606460f49290921c603f16020490565b855186906136be9083906155f3565b6001600160801b03169052505b50929392505050565b600385018490556005850154613704906136ff606460fa86901c6001600160801b0388160204612086565b61486b565b60058601556001600160801b03831615613724576137248584848461488e565b5050505050565b60006001600160a01b03851661376a5760008060008085875af190508061376557604051633d2cec6f60e21b815260040160405180910390fd5b6137ba565b6040516323b872dd60e01b81526001600160a01b03851660048201526001600160a01b03841660248201528260448201526020600060648360008a5af13d15601f3d116001600051141617169150505b806137245760405162461bcd60e51b815260206004820152601460248201527f5452414e534645525f46524f4d5f4641494c45440000000000000000000000006044820152606401610c36565b6040805161010081018252600080825260208201819052918101829052606081018290526080810182905260a0810182905260c0810182905260e0810191909152825160e08401516000918291613872916001600160801b031661271060e79290921c607f16020490565b6001600160801b031660408601525b84516001600160801b0316158015906138a857506138a885608001518660c0015186614618565b156136cb576138be6134638660c0015160801c90565b6001600160801b03166138d8613488876080015160801c90565b6001600160801b031610156138fd576138f86134b3866080015160801c90565b61390e565b61390e6134638660c0015160801c90565b60c08601519092506139209083613c86565b9050806001600160801b031685600001516001600160801b031611156139ca5780856000018181516139529190615438565b6001600160801b0316905250608085015161396d9083613c86565b8560200181815161397e91906155f3565b6001600160801b0390811690915260c08701516139a49250908316608085901b17614800565b60c086015260808501516139c09061356a846120938382613c86565b6080860152613a4b565b845160c08601516139da91614823565b60808601519092506139ec9083613c86565b856020018181516139fd91906155f3565b6001600160801b0390811690915260c08701518751613a259350909116608085901b17614800565b60c08601526080850151613a419061356a846120938382613c86565b6080860152600085525b84516001600160801b031615613a9d57845160a0860151613a7f916001600160801b0316606460f49290921c603f16020490565b85604001818151613a909190615438565b6001600160801b03169052505b8185606001818151613aaf91906155f3565b6001600160801b0316905250613881565b6040805160808101825260008082526020820181905291810182905260608101919091528454613b05906001600160801b03861661271060f59290921c607f16020490565b613b0f9085615438565b6001600160801b0316606082018190526003860154613b2d91614823565b6001600160801b0316604082015260608101516005860154613b619190613b5b9060801c6004890154612093565b90614823565b6001600160801b031660208201526060810151613b9a90613b829086615438565b84906001600160801b0316606460fa9290921c020490565b6001600160801b031680825260058601546020830151613bd9926136ff91613bc1916155f3565b60208501516001600160801b031660809190911b1790565b6005860155600385015460408201516060830151613c06929160801b6001600160801b039091161761486b565b6003860155600485015460408201516060830151613c33929160801b6001600160801b039091161761486b565b60048601556060810151600090613c4a9086615438565b90506001600160801b03811615613c6757613c678682868661488e565b50949350505050565b600060ff82901c60018114613386576000611e0c565b6000613c928360801c90565b6001600160801b0316600003613caa57506000610bcb565b6000613cb68460801c90565b6001600160801b0316836001600160801b0316613cd08690565b6001600160801b0316613ce3919061562c565b613ced9190615659565b90506001600160801b03811115613d05576000613d07565b805b949350505050565b6040805182516001600160a01b0316602080830191909152830151818301529082015160608201526000906080015b604051602081830303815290604052805190602001209050919050565b60048601546001600160801b0316600003613d8f5785546001600160a01b0319163317865560018601859055600286018490555b613d9d86600301548461486b565b60038701556004860154613db1908361486b565b60048701558315613dd057613dca86600501548261486b565b60058701555b505050505050565b600081604051602001613d3e919081516001600160a01b039081168252602092830151169181019190915260400190565b6001600160a01b0383163b1561372457604051630a85bd0160e11b81526001600160a01b0384169063150b7a0290613e4b90889088908790879060040161566d565b6020604051808303816000875af1925050508015613e86575060408051601f3d908101601f19168201909252613e83918101906156a9565b60015b613eef573d808015613eb4576040519150601f19603f3d011682016040523d82523d6000602084013e613eb9565b606091505b508051600003613ee757604051633250574960e11b81526001600160a01b0385166004820152602401610c36565b805181602001fd5b6001600160e01b03198116630a85bd0160e11b14613dd057604051633250574960e11b81526001600160a01b0385166004820152602401610c36565b6000613fa2613f3e836004015460801c90565b613f67613f4c856004015490565b613b5b613f5d896005015460801c90565b60048a0154612093565b613f719190615438565b8360020154600003613f84576000612093565b6005840154608081901c90613f9890613f4c565b6120939190615438565b9050613fbb84600501546136ff60006120938560801c90565b6005850155600282015415613fe457613fde83600501546136ff60006120938590565b60058401555b611e0c8282614ac0565b6000611e0c613ffd8360801c90565b6140078560801c90565b6140119190615438565b8385613f98565b6060600061402583614b00565b600101905060008167ffffffffffffffff811115614045576140456151be565b6040519080825280601f01601f19166020018201604052801561406f576020820181803683370190505b5090508181016020015b600019017f3031323334353637383961626364656600000000000000000000000000000000600a86061a8153600a850494508461407957509392505050565b604080516080810182526000808252602082018190529181018290526060810191909152604080516080810182526000808252602082018190529181018290526060810191909152875461410b90613c70565b8061411c5750865461411c90613c70565b61414e5760405162461bcd60e51b815260206004820152600360248201526204731360ec1b6044820152606401610c36565b600061416f86613b5b6141658a6003015460801c90565b60048b0154612093565b9050604051806080016040528061419b88613b5b6141918e6005015460801c90565b60048f0154612093565b6001600160801b031681526020016141c888613b5b6141be8c6004015460801c90565b60048d0154612093565b6001600160801b03168152602001826001600160801b03168152602001876001600160801b0316815250925061420d6142058a6003015460801c90565b8a5490614be2565b6001600160801b031683604001516001600160801b031610801561424f575061423a6142058a6003015490565b6001600160801b0316866001600160801b0316105b6142845760405162461bcd60e51b8152600401610c36906020808252600490820152634730313160e01b604082015260600190565b6142b389600301546142ae8560400151866060015160809190911b6001600160801b039091161790565b613fee565b60038a01556004890154604084015160608501516142e0929160801b6001600160801b0390911617613fee565b60048a015560058901548351602085015161430a929160801b6001600160801b0390911617613fee565b60058a01556143198782614c07565b6020830151835161432a9190615438565b6001600160801b03908116845260608401518a546143569290911661271060ee9290921c607f16020490565b6001600160801b031660208401819052156143ad5761439689600501546136ff61208686602001516001600160801b03168961485e90919063ffffffff16565b60058a015560208301516143ad908a90878761488e565b60028701541561460c576143c986613b5b6141658a6005015490565b905060405180608001604052806143f583613b5b6143eb8d6005015460801c90565b60048e0154612093565b6001600160801b0316815260200161442283613b5b6144188c6005015460801c90565b60058d0154612093565b6001600160801b0316815260200161444583613b5b6144188c6003015460801c90565b6001600160801b03168152602001826001600160801b03168152509150614478614470896003015490565b895490614be2565b6001600160801b0316816001600160801b03161080156144bd57506144a4614470896003015460801c90565b6001600160801b031682604001516001600160801b0316105b6144f25760405162461bcd60e51b8152600401610c36906020808252600490820152632398189960e11b604082015260600190565b61451c88600301546142ae8460400151856060015160809190911b6001600160801b039091161790565b6003890155600488015460408301516060840151614549929160801b6001600160801b0390911617613fee565b6004890155600588015482516020840151614573929160801b6001600160801b0390911617613fee565b6005890155602082015182516145899190615438565b6001600160801b039081168352606083015189546145b59290911661271060ee9290921c607f16020490565b6001600160801b0316602083018190521561460c576145f588600501546136ff61208685602001516001600160801b03168961485e90919063ffffffff16565b6005890155602082015161460c908990878761488e565b50965096945050505050565b6000836001600160801b0316158061464057506146358360801c90565b6001600160801b0316155b8061465b57506146508260801c90565b6001600160801b0316155b1561466857506000611e0c565b60001982846146778760801c90565b61468191906156c6565b61468b91906156c6565b6001600160801b031611156146cd5760405162461bcd60e51b81526020600482015260086024820152676f766572666c6f7760c01b6044820152606401610c36565b6000196146da8360801c90565b6146e48560801c90565b6146ee90876156c6565b6146f891906156c6565b6001600160801b0316111561473a5760405162461bcd60e51b81526020600482015260086024820152676f766572666c6f7760c01b6044820152606401610c36565b6147448260801c90565b61474e8460801c90565b61475890866156c6565b61476291906156c6565b6001600160801b031682846147778760801c90565b61478191906156c6565b61478b91906156c6565b6001600160801b031610611e08576000949350505050565b60006103ff60d684901c168082036147be5782915050610bcb565b6147c98160406156c6565b613d0790846156f1565b6000611e0c6147e28360801c90565b6147ec8560801c90565b6147f69190615438565b61209384866155f3565b6000611e0c61480f8360801c90565b6148198560801c90565b61401191906155f3565b6000826001600160801b031660000361483e57506000610bcb565b6000836001600160801b0316836001600160801b0316613cd08660801c90565b606460fa9290921c020490565b6000611e0c61487a8360801c90565b6148848560801c90565b6147f691906155f3565b60208101516001600160a01b03166149855760006064603f60e285901c166001600160801b03861602046064603f60f486901c166001600160801b03871602046148d891906155f3565b60018601546001600160a01b03166000908152600687016020526040812080549293506001600160801b03841692909190614914908490615412565b9091555081905061493760646001600160801b03871660fa87901c020486615438565b6149419190615438565b82516001600160a01b03166000908152600687016020526040812080546001600160801b039390931692909190614979908490615412565b90915550612578915050565b60018401546001600160a01b031660009081526006850160205260408120805460646001600160801b0387811660f488901c603f1602919091041692906149cd908490615412565b90915550506064603f60e884901c166001600160801b03851602046001600160801b031684600601600083602001516001600160a01b03166001600160a01b031681526020019081526020016000206000828254614a2b9190615412565b90915550503360009081526006850160205260408120805460646001600160801b0387811660e288901c603f160291909104169290614a6b908490615412565b909155505080516001600160a01b031660009081526006850160205260408120805460646001600160801b0387811660ee88901c603f160291909104169290614ab5908490615412565b909155505050505050565b614ad582600401546136ff6120868460801c90565b6004830155600282015415614afc57614af682600501546136ff6120868490565b60058301555b5050565b6000807a184f03e93ff9f4daa797ed6e38ed64bf6a1f0100000000000000008310614b49577a184f03e93ff9f4daa797ed6e38ed64bf6a1f010000000000000000830492506040015b6d04ee2d6d415b85acef81000000008310614b75576d04ee2d6d415b85acef8100000000830492506020015b662386f26fc100008310614b9357662386f26fc10000830492506010015b6305f5e1008310614bab576305f5e100830492506008015b6127108310614bbf57612710830492506004015b60648310614bd1576064830492506002015b600a8310610bcb5760010192915050565b60006103ff60cc84901c16808203614bfd5782915050610bcb565b613d0781846156f1565b6000614c7c614c4d614c1d856004015460801c90565b6001600160801b0316846001600160801b0316614c3e876003015460801c90565b6001600160801b031691020490565b612093614c5b866004015490565b6001600160801b0316856001600160801b0316614c3e886003015460801c90565b9050614c8c836004015482613fee565b6004840155600283015415611259576000614ce0614cb1614c5b866005015460801c90565b612093614cbf876005015490565b6001600160801b0316866001600160801b0316614c3e896003015460801c90565b9050614cf0846005015482613fee565b60058501556003840154614d0890608085901b613fee565b600385015550505050565b6001600160e01b031981168114614d2957600080fd5b50565b600060208284031215614d3e57600080fd5b8135613d0581614d13565b600060208284031215614d5b57600080fd5b5035919050565b60005b83811015614d7d578181015183820152602001614d65565b50506000910152565b60008151808452614d9e816020860160208601614d62565b601f01601f19169290920160200192915050565b602081526000611e0c6020830184614d86565b80356001600160a01b0381168114610cea57600080fd5b60008060408385031215614def57600080fd5b614df883614dc5565b946020939093013593505050565b60008060408385031215614e1957600080fd5b50508035926020909101359150565b600060208284031215614e3a57600080fd5b611e0c82614dc5565b600080600060608486031215614e5857600080fd5b614e6184614dc5565b9250614e6f60208501614dc5565b9150604084013590509250925092565b60008060408385031215614e9257600080fd5b82359150614ea260208401614dc5565b90509250929050565b80356001600160801b0381168114610cea57600080fd5b80358015158114610cea57600080fd5b60008060008060008060c08789031215614eeb57600080fd5b8635955060208701359450614f0260408801614eab565b935060608701359250614f1760808801614ec2565b9150614f2560a08801614dc5565b90509295509295509295565b60008060008060008060c08789031215614f4a57600080fd5b8635955060208701359450614f6160408801614eab565b935060608701359250614f1760808801614dc5565b60008060008060808587031215614f8c57600080fd5b8435935060208501359250614fa360408601614eab565b9150614fb160608601614dc5565b905092959194509250565b6101208101614ff9828680516001600160801b03908116835260208083015182169084015260408083015182169084015260609182015116910152565b83516001600160801b0390811660808401526020850151811660a08401526040850151811660c084015260609094015190931660e08201526101000152919050565b60008060006060848603121561505057600080fd5b833592506020840135915061506760408501614dc5565b90509250925092565b60008060006060848603121561508557600080fd5b61508e84614dc5565b95602085013595506040909401359392505050565b6000606082840312156150b557600080fd5b50919050565b600080604083850312156150ce57600080fd5b6150d783614dc5565b9150614ea260208401614ec2565b600080602083850312156150f857600080fd5b823567ffffffffffffffff8082111561511057600080fd5b818501915085601f83011261512457600080fd5b81358181111561513357600080fd5b8660208260051b850101111561514857600080fd5b60209290920196919550909350505050565b600060208083016020845280855180835260408601915060408160051b87010192506020870160005b828110156151b157603f1988860301845261519f858351614d86565b94509285019290850190600101615183565b5092979650505050505050565b634e487b7160e01b600052604160045260246000fd5b604051601f8201601f1916810167ffffffffffffffff811182821017156151fd576151fd6151be565b604052919050565b600067ffffffffffffffff82111561521f5761521f6151be565b50601f01601f191660200190565b6000806000806080858703121561524357600080fd5b61524c85614dc5565b935061525a60208601614dc5565b925060408501359150606085013567ffffffffffffffff81111561527d57600080fd5b8501601f8101871361528e57600080fd5b80356152a161529c82615205565b6151d4565b8181528860208385010111156152b657600080fd5b8160208401602083013760006020838301015280935050505092959194509250565b600080600080600060a086880312156152f057600080fd5b853594506020860135935061530760408701614dc5565b92506060860135915061531c60808701614dc5565b90509295509295909350565b6000806040838503121561533b57600080fd5b61534483614dc5565b9150614ea260208401614dc5565b60008060006060848603121561536757600080fd5b8335925061537760208501614eab565b915061506760408501614dc5565b61010081016153c2828580516001600160801b03908116835260208083015182169084015260408083015182169084015260609182015116910152565b82516001600160801b0390811660808401526020840151811660a08401526040840151811660c084015260608401511660e0830152611e0c565b634e487b7160e01b600052601160045260246000fd5b80820180821115610bcb57610bcb6153fc565b81810381811115610bcb57610bcb6153fc565b6001600160801b038281168282160390808211156124c9576124c96153fc565b60006060828403121561546a57600080fd5b6040516060810181811067ffffffffffffffff8211171561548d5761548d6151be565b60405261549983614dc5565b815260208301356020820152604083013560408201528091505092915050565b634e487b7160e01b600052603260045260246000fd5b6000808335601e198436030181126154e657600080fd5b83018035915067ffffffffffffffff82111561550157600080fd5b60200191503681900382131561551657600080fd5b9250929050565b8183823760009101908152919050565b60006020828403121561553f57600080fd5b815167ffffffffffffffff81111561555657600080fd5b8201601f8101841361556757600080fd5b805161557561529c82615205565b81815285602083850101111561558a57600080fd5b61559b826020830160208601614d62565b95945050505050565b7f687474703a2f2f7777772e74742d737761702e636f6d2f6e66743732313f69648152603d60f81b6020820152600082516155e6816021850160208701614d62565b9190910160210192915050565b6001600160801b038181168382160190808211156124c9576124c96153fc565b60ff8181168382160190811115610bcb57610bcb6153fc565b8082028115828204841417610bcb57610bcb6153fc565b634e487b7160e01b600052601260045260246000fd5b60008261566857615668615643565b500490565b60006001600160a01b0380871683528086166020840152508360408301526080606083015261569f6080830184614d86565b9695505050505050565b6000602082840312156156bb57600080fd5b8151613d0581614d13565b6001600160801b038181168382160280821691908281146156e9576156e96153fc565b505092915050565b60006001600160801b038084168061570b5761570b615643565b9216919091049291505056fea2646970667358221220176215781cc313fd39b4428e5134f5c1eda6108926a49fd0e93181462f2a968564736f6c63430008180033","linkReferences":{}},"methodIdentifiers":{"addbanlist(address)":"b153b920","addreferer(address)":"8bdde5d3","approve(address,uint256)":"095ea7b3","balanceOf(address)":"70a08231","buyGood(uint256,uint256,uint128,uint256,bool,address)":"578496ab","buyGoodForPay(uint256,uint256,uint128,uint256,address,address)":"7b43e738","changeGoodOwner(uint256,address)":"2a7c5a91","changeProofOwner(uint256,address)":"99e23fc2","check_banlist(address)":"fc5f8dd0","collectProofFee(uint256)":"c3726ae3","collectProtocolFee(uint256)":"0292eb4a","customerno(address)":"c3a2b159","customernum()":"40430a49","disinvestGood(uint256,uint256,uint128,address)":"d357da3e","disinvestProof(uint256,uint128,address)":"f4662f20","getApproved(uint256)":"081812fc","getGoodIdByAddress(address,uint256)":"a92a1bc9","getGoodState(uint256)":"a6f6a980","getGoodsFee(uint256,address)":"56b7d94c","getProofId((address,uint256,uint256))":"9caa637b","getProofState(uint256)":"3f117740","goodNum()":"5a5da4dd","initGood(uint256,uint256,address,uint256,address)":"e402d5ea","initMetaGood(address,uint256,uint256)":"97924ead","investGood(uint256,uint256,uint128,address)":"8b7badb0","isApprovedForAll(address,address)":"e985e9c5","marketconfig()":"402f5ab5","marketcreator()":"3d995173","multicall(bytes[])":"ac9650d8","name()":"06fdde03","ownerOf(uint256)":"6352211e","payGood(uint256,uint256,address)":"920acbb8","proofseq(bytes32)":"430b9be7","relations(address)":"161ce5cb","removebanlist(address)":"9551177a","safeTransferFrom(address,address,uint256)":"42842e0e","safeTransferFrom(address,address,uint256,bytes)":"b88d4fde","setApprovalForAll(address,bool)":"a22cb465","setMarketConfig(uint256)":"45818e4c","supportsInterface(bytes4)":"01ffc9a7","symbol()":"95d89b41","tokenByIndex(uint256)":"4f6ccce7","tokenOfOwnerByIndex(address,uint256)":"2f745c59","tokenURI(uint256)":"c87b56dd","totalSupply()":"18160ddd","transferFrom(address,address,uint256)":"23b872dd","updateGoodConfig(uint256,uint256)":"144aeb83","updatetoNormalGood(uint256)":"14484e10","updatetoValueGood(uint256)":"0a25dcff"},"id":1}