{
    "abi": [
        {
            "type": "constructor",
            "inputs": [
                {
                    "name": "_marketcreator",
                    "type": "address",
                    "internalType": "address"
                },
                {
                    "name": "_marketconfig",
                    "type": "uint256",
                    "internalType": "uint256"
                }
            ],
            "stateMutability": "nonpayable"
        },
        {
            "type": "function",
            "name": "DOMAIN_SEPARATOR",
            "inputs": [],
            "outputs": [
                {
                    "name": "",
                    "type": "bytes32",
                    "internalType": "bytes32"
                }
            ],
            "stateMutability": "view"
        },
        {
            "type": "function",
            "name": "addbanlist",
            "inputs": [
                {
                    "name": "_user",
                    "type": "address",
                    "internalType": "address"
                }
            ],
            "outputs": [
                {
                    "name": "",
                    "type": "bool",
                    "internalType": "bool"
                }
            ],
            "stateMutability": "nonpayable"
        },
        {
            "type": "function",
            "name": "approve",
            "inputs": [
                {
                    "name": "to",
                    "type": "address",
                    "internalType": "address"
                },
                {
                    "name": "tokenId",
                    "type": "uint256",
                    "internalType": "uint256"
                }
            ],
            "outputs": [],
            "stateMutability": "nonpayable"
        },
        {
            "type": "function",
            "name": "balanceOf",
            "inputs": [
                {
                    "name": "owner",
                    "type": "address",
                    "internalType": "address"
                }
            ],
            "outputs": [
                {
                    "name": "",
                    "type": "uint256",
                    "internalType": "uint256"
                }
            ],
            "stateMutability": "view"
        },
        {
            "type": "function",
            "name": "banlist",
            "inputs": [
                {
                    "name": "",
                    "type": "address",
                    "internalType": "address"
                }
            ],
            "outputs": [
                {
                    "name": "",
                    "type": "uint256",
                    "internalType": "uint256"
                }
            ],
            "stateMutability": "view"
        },
        {
            "type": "function",
            "name": "buyGood",
            "inputs": [
                {
                    "name": "_goodid1",
                    "type": "uint256",
                    "internalType": "uint256"
                },
                {
                    "name": "_goodid2",
                    "type": "uint256",
                    "internalType": "uint256"
                },
                {
                    "name": "_swapQuantity",
                    "type": "uint128",
                    "internalType": "uint128"
                },
                {
                    "name": "_limitPrice",
                    "type": "uint256",
                    "internalType": "T_BalanceUINT256"
                },
                {
                    "name": "_istotal",
                    "type": "bool",
                    "internalType": "bool"
                }
            ],
            "outputs": [
                {
                    "name": "goodid2Quantity_",
                    "type": "uint128",
                    "internalType": "uint128"
                },
                {
                    "name": "goodid2FeeQuantity_",
                    "type": "uint128",
                    "internalType": "uint128"
                }
            ],
            "stateMutability": "payable"
        },
        {
            "type": "function",
            "name": "buyGoodForPay",
            "inputs": [
                {
                    "name": "_goodid1",
                    "type": "uint256",
                    "internalType": "uint256"
                },
                {
                    "name": "_goodid2",
                    "type": "uint256",
                    "internalType": "uint256"
                },
                {
                    "name": "_swapQuantity",
                    "type": "uint128",
                    "internalType": "uint128"
                },
                {
                    "name": "_limitPrice",
                    "type": "uint256",
                    "internalType": "T_BalanceUINT256"
                },
                {
                    "name": "_recipent",
                    "type": "address",
                    "internalType": "address"
                }
            ],
            "outputs": [
                {
                    "name": "goodid1Quantity_",
                    "type": "uint128",
                    "internalType": "uint128"
                },
                {
                    "name": "goodid1FeeQuantity_",
                    "type": "uint128",
                    "internalType": "uint128"
                }
            ],
            "stateMutability": "payable"
        },
        {
            "type": "function",
            "name": "changeGoodOwner",
            "inputs": [
                {
                    "name": "_goodid",
                    "type": "uint256",
                    "internalType": "uint256"
                },
                {
                    "name": "_to",
                    "type": "address",
                    "internalType": "address"
                }
            ],
            "outputs": [],
            "stateMutability": "nonpayable"
        },
        {
            "type": "function",
            "name": "collectCommission",
            "inputs": [
                {
                    "name": "_goodid",
                    "type": "uint256[]",
                    "internalType": "uint256[]"
                }
            ],
            "outputs": [],
            "stateMutability": "nonpayable"
        },
        {
            "type": "function",
            "name": "collectProof",
            "inputs": [
                {
                    "name": "_proofid",
                    "type": "uint256",
                    "internalType": "uint256"
                },
                {
                    "name": "_gater",
                    "type": "address",
                    "internalType": "address"
                },
                {
                    "name": "_referal",
                    "type": "address",
                    "internalType": "address"
                }
            ],
            "outputs": [
                {
                    "name": "profit_",
                    "type": "uint256",
                    "internalType": "T_BalanceUINT256"
                }
            ],
            "stateMutability": "nonpayable"
        },
        {
            "type": "function",
            "name": "disinvestProof",
            "inputs": [
                {
                    "name": "_proofid",
                    "type": "uint256",
                    "internalType": "uint256"
                },
                {
                    "name": "_goodQuantity",
                    "type": "uint128",
                    "internalType": "uint128"
                },
                {
                    "name": "_gater",
                    "type": "address",
                    "internalType": "address"
                },
                {
                    "name": "_referal",
                    "type": "address",
                    "internalType": "address"
                }
            ],
            "outputs": [
                {
                    "name": "",
                    "type": "bool",
                    "internalType": "bool"
                }
            ],
            "stateMutability": "nonpayable"
        },
        {
            "type": "function",
            "name": "eip712Domain",
            "inputs": [],
            "outputs": [
                {
                    "name": "fields",
                    "type": "bytes1",
                    "internalType": "bytes1"
                },
                {
                    "name": "name",
                    "type": "string",
                    "internalType": "string"
                },
                {
                    "name": "version",
                    "type": "string",
                    "internalType": "string"
                },
                {
                    "name": "chainId",
                    "type": "uint256",
                    "internalType": "uint256"
                },
                {
                    "name": "verifyingContract",
                    "type": "address",
                    "internalType": "address"
                },
                {
                    "name": "salt",
                    "type": "bytes32",
                    "internalType": "bytes32"
                },
                {
                    "name": "extensions",
                    "type": "uint256[]",
                    "internalType": "uint256[]"
                }
            ],
            "stateMutability": "view"
        },
        {
            "type": "function",
            "name": "getApproved",
            "inputs": [
                {
                    "name": "tokenId",
                    "type": "uint256",
                    "internalType": "uint256"
                }
            ],
            "outputs": [
                {
                    "name": "",
                    "type": "address",
                    "internalType": "address"
                }
            ],
            "stateMutability": "view"
        },
        {
            "type": "function",
            "name": "getGoodState",
            "inputs": [
                {
                    "name": "goodkey",
                    "type": "uint256",
                    "internalType": "uint256"
                }
            ],
            "outputs": [
                {
                    "name": "gooddetail",
                    "type": "tuple",
                    "internalType": "struct L_Good.S_GoodTmpState",
                    "components": [
                        {
                            "name": "goodConfig",
                            "type": "uint256",
                            "internalType": "uint256"
                        },
                        {
                            "name": "owner",
                            "type": "address",
                            "internalType": "address"
                        },
                        {
                            "name": "erc20address",
                            "type": "address",
                            "internalType": "address"
                        },
                        {
                            "name": "currentState",
                            "type": "uint256",
                            "internalType": "T_BalanceUINT256"
                        },
                        {
                            "name": "investState",
                            "type": "uint256",
                            "internalType": "T_BalanceUINT256"
                        },
                        {
                            "name": "feeQunitityState",
                            "type": "uint256",
                            "internalType": "T_BalanceUINT256"
                        }
                    ]
                }
            ],
            "stateMutability": "view"
        },
        {
            "type": "function",
            "name": "getProofState",
            "inputs": [
                {
                    "name": "proofid",
                    "type": "uint256",
                    "internalType": "uint256"
                }
            ],
            "outputs": [
                {
                    "name": "_proof",
                    "type": "tuple",
                    "internalType": "struct L_Proof.S_ProofState",
                    "components": [
                        {
                            "name": "currentgood",
                            "type": "uint256",
                            "internalType": "uint256"
                        },
                        {
                            "name": "valuegood",
                            "type": "uint256",
                            "internalType": "uint256"
                        },
                        {
                            "name": "state",
                            "type": "uint256",
                            "internalType": "T_BalanceUINT256"
                        },
                        {
                            "name": "invest",
                            "type": "uint256",
                            "internalType": "T_BalanceUINT256"
                        },
                        {
                            "name": "valueinvest",
                            "type": "uint256",
                            "internalType": "T_BalanceUINT256"
                        },
                        {
                            "name": "beneficiary",
                            "type": "address",
                            "internalType": "address"
                        }
                    ]
                }
            ],
            "stateMutability": "view"
        },
        {
            "type": "function",
            "name": "getState",
            "inputs": [
                {
                    "name": "goodid",
                    "type": "uint256",
                    "internalType": "uint256"
                },
                {
                    "name": "valuegood",
                    "type": "uint256",
                    "internalType": "uint256"
                }
            ],
            "outputs": [
                {
                    "name": "",
                    "type": "uint256",
                    "internalType": "T_BalanceUINT256"
                },
                {
                    "name": "",
                    "type": "uint256",
                    "internalType": "T_BalanceUINT256"
                }
            ],
            "stateMutability": "view"
        },
        {
            "type": "function",
            "name": "goodNum",
            "inputs": [],
            "outputs": [
                {
                    "name": "",
                    "type": "uint256",
                    "internalType": "uint256"
                }
            ],
            "stateMutability": "view"
        },
        {
            "type": "function",
            "name": "goodWelfare",
            "inputs": [
                {
                    "name": "goodid",
                    "type": "uint256",
                    "internalType": "uint256"
                },
                {
                    "name": "welfare",
                    "type": "uint128",
                    "internalType": "uint128"
                }
            ],
            "outputs": [],
            "stateMutability": "payable"
        },
        {
            "type": "function",
            "name": "initGood",
            "inputs": [
                {
                    "name": "_valuegood",
                    "type": "uint256",
                    "internalType": "uint256"
                },
                {
                    "name": "_initial",
                    "type": "uint256",
                    "internalType": "T_BalanceUINT256"
                },
                {
                    "name": "_erc20address",
                    "type": "address",
                    "internalType": "address"
                },
                {
                    "name": "_goodConfig",
                    "type": "uint256",
                    "internalType": "uint256"
                }
            ],
            "outputs": [
                {
                    "name": "",
                    "type": "bool",
                    "internalType": "bool"
                }
            ],
            "stateMutability": "payable"
        },
        {
            "type": "function",
            "name": "initMetaGood",
            "inputs": [
                {
                    "name": "_erc20address",
                    "type": "address",
                    "internalType": "address"
                },
                {
                    "name": "_initial",
                    "type": "uint256",
                    "internalType": "T_BalanceUINT256"
                },
                {
                    "name": "_goodConfig",
                    "type": "uint256",
                    "internalType": "uint256"
                }
            ],
            "outputs": [
                {
                    "name": "",
                    "type": "bool",
                    "internalType": "bool"
                }
            ],
            "stateMutability": "payable"
        },
        {
            "type": "function",
            "name": "investGood",
            "inputs": [
                {
                    "name": "_togood",
                    "type": "uint256",
                    "internalType": "uint256"
                },
                {
                    "name": "_valuegood",
                    "type": "uint256",
                    "internalType": "uint256"
                },
                {
                    "name": "_quantity",
                    "type": "uint128",
                    "internalType": "uint128"
                }
            ],
            "outputs": [
                {
                    "name": "",
                    "type": "bool",
                    "internalType": "bool"
                }
            ],
            "stateMutability": "payable"
        },
        {
            "type": "function",
            "name": "isApprovedForAll",
            "inputs": [
                {
                    "name": "owner",
                    "type": "address",
                    "internalType": "address"
                },
                {
                    "name": "operator",
                    "type": "address",
                    "internalType": "address"
                }
            ],
            "outputs": [
                {
                    "name": "",
                    "type": "bool",
                    "internalType": "bool"
                }
            ],
            "stateMutability": "view"
        },
        {
            "type": "function",
            "name": "marketconfig",
            "inputs": [],
            "outputs": [
                {
                    "name": "",
                    "type": "uint256",
                    "internalType": "uint256"
                }
            ],
            "stateMutability": "view"
        },
        {
            "type": "function",
            "name": "marketcreator",
            "inputs": [],
            "outputs": [
                {
                    "name": "",
                    "type": "address",
                    "internalType": "address"
                }
            ],
            "stateMutability": "view"
        },
        {
            "type": "function",
            "name": "modifyGoodConfig",
            "inputs": [
                {
                    "name": "_goodid",
                    "type": "uint256",
                    "internalType": "uint256"
                },
                {
                    "name": "_goodConfig",
                    "type": "uint256",
                    "internalType": "uint256"
                }
            ],
            "outputs": [
                {
                    "name": "",
                    "type": "bool",
                    "internalType": "bool"
                }
            ],
            "stateMutability": "nonpayable"
        },
        {
            "type": "function",
            "name": "name",
            "inputs": [],
            "outputs": [
                {
                    "name": "",
                    "type": "string",
                    "internalType": "string"
                }
            ],
            "stateMutability": "view"
        },
        {
            "type": "function",
            "name": "nonces",
            "inputs": [
                {
                    "name": "tokenId",
                    "type": "uint256",
                    "internalType": "uint256"
                }
            ],
            "outputs": [
                {
                    "name": "",
                    "type": "uint256",
                    "internalType": "uint256"
                }
            ],
            "stateMutability": "view"
        },
        {
            "type": "function",
            "name": "ownerOf",
            "inputs": [
                {
                    "name": "tokenId",
                    "type": "uint256",
                    "internalType": "uint256"
                }
            ],
            "outputs": [
                {
                    "name": "",
                    "type": "address",
                    "internalType": "address"
                }
            ],
            "stateMutability": "view"
        },
        {
            "type": "function",
            "name": "payGood",
            "inputs": [
                {
                    "name": "_goodid",
                    "type": "uint256",
                    "internalType": "uint256"
                },
                {
                    "name": "_payquanity",
                    "type": "uint256",
                    "internalType": "uint256"
                },
                {
                    "name": "_recipent",
                    "type": "address",
                    "internalType": "address"
                }
            ],
            "outputs": [
                {
                    "name": "",
                    "type": "bool",
                    "internalType": "bool"
                }
            ],
            "stateMutability": "payable"
        },
        {
            "type": "function",
            "name": "permit",
            "inputs": [
                {
                    "name": "spender",
                    "type": "address",
                    "internalType": "address"
                },
                {
                    "name": "tokenId",
                    "type": "uint256",
                    "internalType": "uint256"
                },
                {
                    "name": "deadline",
                    "type": "uint256",
                    "internalType": "uint256"
                },
                {
                    "name": "signature",
                    "type": "bytes",
                    "internalType": "bytes"
                }
            ],
            "outputs": [],
            "stateMutability": "nonpayable"
        },
        {
            "type": "function",
            "name": "proofmapping",
            "inputs": [
                {
                    "name": "",
                    "type": "uint256",
                    "internalType": "uint256"
                }
            ],
            "outputs": [
                {
                    "name": "",
                    "type": "uint256",
                    "internalType": "uint256"
                }
            ],
            "stateMutability": "view"
        },
        {
            "type": "function",
            "name": "queryCommission",
            "inputs": [
                {
                    "name": "_goodid",
                    "type": "uint256[]",
                    "internalType": "uint256[]"
                },
                {
                    "name": "_recipent",
                    "type": "address",
                    "internalType": "address"
                }
            ],
            "outputs": [
                {
                    "name": "",
                    "type": "uint256[]",
                    "internalType": "uint256[]"
                }
            ],
            "stateMutability": "view"
        },
        {
            "type": "function",
            "name": "referals",
            "inputs": [
                {
                    "name": "",
                    "type": "address",
                    "internalType": "address"
                }
            ],
            "outputs": [
                {
                    "name": "",
                    "type": "address",
                    "internalType": "address"
                }
            ],
            "stateMutability": "view"
        },
        {
            "type": "function",
            "name": "removebanlist",
            "inputs": [
                {
                    "name": "_user",
                    "type": "address",
                    "internalType": "address"
                }
            ],
            "outputs": [
                {
                    "name": "",
                    "type": "bool",
                    "internalType": "bool"
                }
            ],
            "stateMutability": "nonpayable"
        },
        {
            "type": "function",
            "name": "safeTransferFrom",
            "inputs": [
                {
                    "name": "from",
                    "type": "address",
                    "internalType": "address"
                },
                {
                    "name": "to",
                    "type": "address",
                    "internalType": "address"
                },
                {
                    "name": "tokenId",
                    "type": "uint256",
                    "internalType": "uint256"
                }
            ],
            "outputs": [],
            "stateMutability": "nonpayable"
        },
        {
            "type": "function",
            "name": "safeTransferFrom",
            "inputs": [
                {
                    "name": "from",
                    "type": "address",
                    "internalType": "address"
                },
                {
                    "name": "to",
                    "type": "address",
                    "internalType": "address"
                },
                {
                    "name": "proofid",
                    "type": "uint256",
                    "internalType": "uint256"
                },
                {
                    "name": "data",
                    "type": "bytes",
                    "internalType": "bytes"
                }
            ],
            "outputs": [],
            "stateMutability": "nonpayable"
        },
        {
            "type": "function",
            "name": "safeTransferFromWithPermit",
            "inputs": [
                {
                    "name": "from",
                    "type": "address",
                    "internalType": "address"
                },
                {
                    "name": "to",
                    "type": "address",
                    "internalType": "address"
                },
                {
                    "name": "tokenId",
                    "type": "uint256",
                    "internalType": "uint256"
                },
                {
                    "name": "_data",
                    "type": "bytes",
                    "internalType": "bytes"
                },
                {
                    "name": "deadline",
                    "type": "uint256",
                    "internalType": "uint256"
                },
                {
                    "name": "signature",
                    "type": "bytes",
                    "internalType": "bytes"
                }
            ],
            "outputs": [],
            "stateMutability": "nonpayable"
        },
        {
            "type": "function",
            "name": "setApprovalForAll",
            "inputs": [
                {
                    "name": "operator",
                    "type": "address",
                    "internalType": "address"
                },
                {
                    "name": "approved",
                    "type": "bool",
                    "internalType": "bool"
                }
            ],
            "outputs": [],
            "stateMutability": "nonpayable"
        },
        {
            "type": "function",
            "name": "setMarketConfig",
            "inputs": [
                {
                    "name": "_marketconfig",
                    "type": "uint256",
                    "internalType": "uint256"
                }
            ],
            "outputs": [
                {
                    "name": "",
                    "type": "bool",
                    "internalType": "bool"
                }
            ],
            "stateMutability": "nonpayable"
        },
        {
            "type": "function",
            "name": "supportsInterface",
            "inputs": [
                {
                    "name": "interfaceId",
                    "type": "bytes4",
                    "internalType": "bytes4"
                }
            ],
            "outputs": [
                {
                    "name": "",
                    "type": "bool",
                    "internalType": "bool"
                }
            ],
            "stateMutability": "view"
        },
        {
            "type": "function",
            "name": "symbol",
            "inputs": [],
            "outputs": [
                {
                    "name": "",
                    "type": "string",
                    "internalType": "string"
                }
            ],
            "stateMutability": "view"
        },
        {
            "type": "function",
            "name": "tokenURI",
            "inputs": [
                {
                    "name": "tokenId",
                    "type": "uint256",
                    "internalType": "uint256"
                }
            ],
            "outputs": [
                {
                    "name": "",
                    "type": "string",
                    "internalType": "string"
                }
            ],
            "stateMutability": "view"
        },
        {
            "type": "function",
            "name": "totalSupply",
            "inputs": [],
            "outputs": [
                {
                    "name": "",
                    "type": "uint256",
                    "internalType": "uint256"
                }
            ],
            "stateMutability": "view"
        },
        {
            "type": "function",
            "name": "transferFrom",
            "inputs": [
                {
                    "name": "from",
                    "type": "address",
                    "internalType": "address"
                },
                {
                    "name": "to",
                    "type": "address",
                    "internalType": "address"
                },
                {
                    "name": "proofid",
                    "type": "uint256",
                    "internalType": "uint256"
                }
            ],
            "outputs": [],
            "stateMutability": "nonpayable"
        },
        {
            "type": "function",
            "name": "updateGoodConfig",
            "inputs": [
                {
                    "name": "_goodid",
                    "type": "uint256",
                    "internalType": "uint256"
                },
                {
                    "name": "_goodConfig",
                    "type": "uint256",
                    "internalType": "uint256"
                }
            ],
            "outputs": [
                {
                    "name": "",
                    "type": "bool",
                    "internalType": "bool"
                }
            ],
            "stateMutability": "nonpayable"
        },
        {
            "type": "event",
            "name": "Approval",
            "inputs": [
                {
                    "name": "owner",
                    "type": "address",
                    "indexed": true,
                    "internalType": "address"
                },
                {
                    "name": "approved",
                    "type": "address",
                    "indexed": true,
                    "internalType": "address"
                },
                {
                    "name": "tokenId",
                    "type": "uint256",
                    "indexed": true,
                    "internalType": "uint256"
                }
            ],
            "anonymous": false
        },
        {
            "type": "event",
            "name": "ApprovalForAll",
            "inputs": [
                {
                    "name": "owner",
                    "type": "address",
                    "indexed": true,
                    "internalType": "address"
                },
                {
                    "name": "operator",
                    "type": "address",
                    "indexed": true,
                    "internalType": "address"
                },
                {
                    "name": "approved",
                    "type": "bool",
                    "indexed": false,
                    "internalType": "bool"
                }
            ],
            "anonymous": false
        },
        {
            "type": "event",
            "name": "EIP712DomainChanged",
            "inputs": [],
            "anonymous": false
        },
        {
            "type": "event",
            "name": "Transfer",
            "inputs": [
                {
                    "name": "from",
                    "type": "address",
                    "indexed": true,
                    "internalType": "address"
                },
                {
                    "name": "to",
                    "type": "address",
                    "indexed": true,
                    "internalType": "address"
                },
                {
                    "name": "tokenId",
                    "type": "uint256",
                    "indexed": true,
                    "internalType": "uint256"
                }
            ],
            "anonymous": false
        },
        {
            "type": "event",
            "name": "e_addbanlist",
            "inputs": [
                {
                    "name": "_user",
                    "type": "address",
                    "indexed": false,
                    "internalType": "address"
                }
            ],
            "anonymous": false
        },
        {
            "type": "event",
            "name": "e_addreferal",
            "inputs": [
                {
                    "name": "referals",
                    "type": "address",
                    "indexed": false,
                    "internalType": "address"
                }
            ],
            "anonymous": false
        },
        {
            "type": "event",
            "name": "e_buyGood",
            "inputs": [
                {
                    "name": "sellgood",
                    "type": "uint256",
                    "indexed": true,
                    "internalType": "uint256"
                },
                {
                    "name": "forgood",
                    "type": "uint256",
                    "indexed": true,
                    "internalType": "uint256"
                },
                {
                    "name": "fromer",
                    "type": "address",
                    "indexed": false,
                    "internalType": "address"
                },
                {
                    "name": "swapvalue",
                    "type": "uint128",
                    "indexed": false,
                    "internalType": "uint128"
                },
                {
                    "name": "sellgoodstate",
                    "type": "uint256",
                    "indexed": false,
                    "internalType": "T_BalanceUINT256"
                },
                {
                    "name": "forgoodstate",
                    "type": "uint256",
                    "indexed": false,
                    "internalType": "T_BalanceUINT256"
                }
            ],
            "anonymous": false
        },
        {
            "type": "event",
            "name": "e_buyGoodForPay",
            "inputs": [
                {
                    "name": "buygood",
                    "type": "uint256",
                    "indexed": true,
                    "internalType": "uint256"
                },
                {
                    "name": "usegood",
                    "type": "uint256",
                    "indexed": true,
                    "internalType": "uint256"
                },
                {
                    "name": "fromer",
                    "type": "address",
                    "indexed": false,
                    "internalType": "address"
                },
                {
                    "name": "receipt",
                    "type": "address",
                    "indexed": false,
                    "internalType": "address"
                },
                {
                    "name": "swapvalue",
                    "type": "uint128",
                    "indexed": false,
                    "internalType": "uint128"
                },
                {
                    "name": "buygoodstate",
                    "type": "uint256",
                    "indexed": false,
                    "internalType": "T_BalanceUINT256"
                },
                {
                    "name": "usegoodstate",
                    "type": "uint256",
                    "indexed": false,
                    "internalType": "T_BalanceUINT256"
                }
            ],
            "anonymous": false
        },
        {
            "type": "event",
            "name": "e_changeOwner",
            "inputs": [
                {
                    "name": "_goodid",
                    "type": "uint256",
                    "indexed": true,
                    "internalType": "uint256"
                },
                {
                    "name": "_owner",
                    "type": "address",
                    "indexed": false,
                    "internalType": "address"
                },
                {
                    "name": "_to",
                    "type": "address",
                    "indexed": false,
                    "internalType": "address"
                }
            ],
            "anonymous": false
        },
        {
            "type": "event",
            "name": "e_changegoodowner",
            "inputs": [
                {
                    "name": "goodid",
                    "type": "uint256",
                    "indexed": false,
                    "internalType": "uint256"
                },
                {
                    "name": "to",
                    "type": "address",
                    "indexed": false,
                    "internalType": "address"
                }
            ],
            "anonymous": false
        },
        {
            "type": "event",
            "name": "e_collectProof",
            "inputs": [
                {
                    "name": "_proofNo",
                    "type": "uint256",
                    "indexed": true,
                    "internalType": "uint256"
                },
                {
                    "name": "_normalGoodNo",
                    "type": "uint256",
                    "indexed": false,
                    "internalType": "uint256"
                },
                {
                    "name": "_valueGoodNo",
                    "type": "uint256",
                    "indexed": false,
                    "internalType": "uint256"
                },
                {
                    "name": "_profit",
                    "type": "uint256",
                    "indexed": false,
                    "internalType": "T_BalanceUINT256"
                }
            ],
            "anonymous": false
        },
        {
            "type": "event",
            "name": "e_collectProtocolFee",
            "inputs": [
                {
                    "name": "goodid",
                    "type": "uint256",
                    "indexed": false,
                    "internalType": "uint256"
                },
                {
                    "name": "feeamount",
                    "type": "uint256",
                    "indexed": false,
                    "internalType": "uint256"
                }
            ],
            "anonymous": false
        },
        {
            "type": "event",
            "name": "e_collectcommission",
            "inputs": [
                {
                    "name": "_gooid",
                    "type": "uint256[]",
                    "indexed": false,
                    "internalType": "uint256[]"
                },
                {
                    "name": "_commisionamount",
                    "type": "uint256[]",
                    "indexed": false,
                    "internalType": "uint256[]"
                }
            ],
            "anonymous": false
        },
        {
            "type": "event",
            "name": "e_disinvestProof",
            "inputs": [
                {
                    "name": "_proofNo",
                    "type": "uint256",
                    "indexed": true,
                    "internalType": "uint256"
                },
                {
                    "name": "_normalGoodNo",
                    "type": "uint256",
                    "indexed": false,
                    "internalType": "uint256"
                },
                {
                    "name": "_valueGoodNo",
                    "type": "uint256",
                    "indexed": false,
                    "internalType": "uint256"
                },
                {
                    "name": "_value",
                    "type": "uint128",
                    "indexed": false,
                    "internalType": "uint128"
                },
                {
                    "name": "_normalgood",
                    "type": "uint256",
                    "indexed": false,
                    "internalType": "T_BalanceUINT256"
                },
                {
                    "name": "_valuegood",
                    "type": "uint256",
                    "indexed": false,
                    "internalType": "T_BalanceUINT256"
                },
                {
                    "name": "_profit",
                    "type": "uint256",
                    "indexed": false,
                    "internalType": "T_BalanceUINT256"
                }
            ],
            "anonymous": false
        },
        {
            "type": "event",
            "name": "e_enpower",
            "inputs": [
                {
                    "name": "_goodid",
                    "type": "uint256",
                    "indexed": false,
                    "internalType": "uint256"
                },
                {
                    "name": "_valuegood",
                    "type": "uint256",
                    "indexed": false,
                    "internalType": "uint256"
                },
                {
                    "name": "_quantity",
                    "type": "uint256",
                    "indexed": false,
                    "internalType": "uint256"
                }
            ],
            "anonymous": false
        },
        {
            "type": "event",
            "name": "e_goodWelfare",
            "inputs": [
                {
                    "name": "goodid",
                    "type": "uint256",
                    "indexed": false,
                    "internalType": "uint256"
                },
                {
                    "name": "welfare",
                    "type": "uint128",
                    "indexed": false,
                    "internalType": "uint128"
                }
            ],
            "anonymous": false
        },
        {
            "type": "event",
            "name": "e_initGood",
            "inputs": [
                {
                    "name": "_proofNo",
                    "type": "uint256",
                    "indexed": true,
                    "internalType": "uint256"
                },
                {
                    "name": "_normalgoodNo",
                    "type": "uint256",
                    "indexed": false,
                    "internalType": "uint256"
                },
                {
                    "name": "_valuegoodNo",
                    "type": "uint256",
                    "indexed": false,
                    "internalType": "uint256"
                },
                {
                    "name": "_erc20address",
                    "type": "address",
                    "indexed": false,
                    "internalType": "address"
                },
                {
                    "name": "_goodConfig",
                    "type": "uint256",
                    "indexed": false,
                    "internalType": "uint256"
                },
                {
                    "name": "_normalinitial",
                    "type": "uint256",
                    "indexed": false,
                    "internalType": "T_BalanceUINT256"
                },
                {
                    "name": "_value",
                    "type": "uint256",
                    "indexed": false,
                    "internalType": "T_BalanceUINT256"
                }
            ],
            "anonymous": false
        },
        {
            "type": "event",
            "name": "e_initMetaGood",
            "inputs": [
                {
                    "name": "_proofNo",
                    "type": "uint256",
                    "indexed": true,
                    "internalType": "uint256"
                },
                {
                    "name": "_goodNo",
                    "type": "uint256",
                    "indexed": false,
                    "internalType": "uint256"
                },
                {
                    "name": "_erc20address",
                    "type": "address",
                    "indexed": false,
                    "internalType": "address"
                },
                {
                    "name": "_goodConfig",
                    "type": "uint256",
                    "indexed": false,
                    "internalType": "uint256"
                },
                {
                    "name": "_initial",
                    "type": "uint256",
                    "indexed": false,
                    "internalType": "T_BalanceUINT256"
                }
            ],
            "anonymous": false
        },
        {
            "type": "event",
            "name": "e_investGood",
            "inputs": [
                {
                    "name": "_proofNo",
                    "type": "uint256",
                    "indexed": true,
                    "internalType": "uint256"
                },
                {
                    "name": "_normalGoodNo",
                    "type": "uint256",
                    "indexed": false,
                    "internalType": "uint256"
                },
                {
                    "name": "_valueGoodNo",
                    "type": "uint256",
                    "indexed": false,
                    "internalType": "uint256"
                },
                {
                    "name": "_value",
                    "type": "uint256",
                    "indexed": false,
                    "internalType": "T_BalanceUINT256"
                },
                {
                    "name": "_invest",
                    "type": "uint256",
                    "indexed": false,
                    "internalType": "T_BalanceUINT256"
                },
                {
                    "name": "_valueinvest",
                    "type": "uint256",
                    "indexed": false,
                    "internalType": "T_BalanceUINT256"
                }
            ],
            "anonymous": false
        },
        {
            "type": "event",
            "name": "e_modifyGoodConfig",
            "inputs": [
                {
                    "name": "_goodid",
                    "type": "uint256",
                    "indexed": false,
                    "internalType": "uint256"
                },
                {
                    "name": "_goodconfig",
                    "type": "uint256",
                    "indexed": false,
                    "internalType": "uint256"
                }
            ],
            "anonymous": false
        },
        {
            "type": "event",
            "name": "e_removebanlist",
            "inputs": [
                {
                    "name": "_user",
                    "type": "address",
                    "indexed": false,
                    "internalType": "address"
                }
            ],
            "anonymous": false
        },
        {
            "type": "event",
            "name": "e_setMarketConfig",
            "inputs": [
                {
                    "name": "_marketconfig",
                    "type": "uint256",
                    "indexed": false,
                    "internalType": "uint256"
                }
            ],
            "anonymous": false
        },
        {
            "type": "event",
            "name": "e_updateGoodConfig",
            "inputs": [
                {
                    "name": "_goodid",
                    "type": "uint256",
                    "indexed": false,
                    "internalType": "uint256"
                },
                {
                    "name": "_goodConfig",
                    "type": "uint256",
                    "indexed": false,
                    "internalType": "uint256"
                }
            ],
            "anonymous": false
        },
        {
            "type": "error",
            "name": "ERC20TransferFailed",
            "inputs": []
        },
        {
            "type": "error",
            "name": "InvalidShortString",
            "inputs": []
        },
        {
            "type": "error",
            "name": "NativeTransferFailed",
            "inputs": []
        },
        {
            "type": "error",
            "name": "StringTooLong",
            "inputs": [
                {
                    "name": "str",
                    "type": "string",
                    "internalType": "string"
                }
            ]
        }
    ],
    "bytecode": {
        "object": "0x6101806040527f49ecf333e5b8c95c40fdafc95c1ad136e8914a8fb55e9dc8bb01eaa83a2df9ad61016052348015610035575f80fd5b5060405161633f38038061633f83398101604081905261005491610218565b604080518082018252600780825266151514c813919560ca1b60208084019190915283518085018552600381526254545360e81b81830152845180860190955260018552603160f81b91850191909152600280546001600160a01b0319166001600160a01b0388161790555f85905591928391829084906100d583826102e7565b5060086100e282826102e7565b506100f29150839050600d6101a0565b6101205261010181600e6101a0565b61014052815160208084019190912060e052815190820120610100524660a05261018d60e05161010051604080517f8b73c3c69bb8fe3d512ecc4cf759cc79239f7b179b0ffacaa9a75d522b39400f60208201529081019290925260608201524660808201523060a08201525f9060c00160405160208183030381529060405280519060200120905090565b60805250503060c052506103f992505050565b5f6020835110156101bb576101b4836101d2565b90506101cc565b816101c684826102e7565b5060ff90505b92915050565b5f80829050601f81511115610205578260405163305a27a960e01b81526004016101fc91906103a1565b60405180910390fd5b8051610210826103d6565b179392505050565b5f8060408385031215610229575f80fd5b82516001600160a01b038116811461023f575f80fd5b6020939093015192949293505050565b634e487b7160e01b5f52604160045260245ffd5b600181811c9082168061027757607f821691505b60208210810361029557634e487b7160e01b5f52602260045260245ffd5b50919050565b601f8211156102e257805f5260205f20601f840160051c810160208510156102c05750805b601f840160051c820191505b818110156102df575f81556001016102cc565b50505b505050565b81516001600160401b038111156103005761030061024f565b6103148161030e8454610263565b8461029b565b6020601f821160018114610346575f831561032f5750848201515b5f19600385901b1c1916600184901b1784556102df565b5f84815260208120601f198516915b828110156103755787850151825560209485019460019092019101610355565b508482101561039257868401515f19600387901b60f8161c191681555b50505050600190811b01905550565b602081525f82518060208401528060208501604085015e5f604082850101526040601f19601f83011684010191505092915050565b80516020808301519190811015610295575f1960209190910360031b1b16919050565b60805160a05160c05160e05161010051610120516101405161016051615eeb6104545f395f61351e01525f611c8d01525f611c6201525f61371c01525f6136f401525f61364f01525f61367901525f6136a30152615eeb5ff3fe6080604052600436106102e2575f3560e01c80635a5da4dd1161018657806395d89b41116100dc578063b153b92011610087578063e985e9c511610062578063e985e9c5146108e6578063f44733ad1461092d578063f88c301014610940575f80fd5b8063b153b92014610889578063b88d4fde146108a8578063c87b56dd146108c7575f80fd5b8063a22cb465116100b7578063a22cb465146107db578063a6f6a980146107fa578063a7e1169714610876575f80fd5b806395d89b411461078057806397924ead14610794578063a128fcf2146107a7575f80fd5b8063745a41bc1161013c5780638e126f73116101175780638e126f731461072f578063920acbb81461074e5780639551177a14610761575f80fd5b8063745a41bc146106ca5780637f0a8265146106e957806384b0196e14610708575f80fd5b80636352211e1161016c5780636352211e146106605780636ff73c8e1461067f57806370a08231146106ab575f80fd5b80635a5da4dd146106205780635e008cc414610635575f80fd5b806324744d541161023b5780633d995173116101f157806342842e0e116101cc57806342842e0e146105cf57806345818e4c146105ee5780634ffef9071461060d575f80fd5b80633d995173146105295780633f11774014610548578063402f5ab5146105bb575f80fd5b80632a7c5a91116102215780632a7c5a91146104c25780632f9da5f0146104e15780633644e51514610515575f80fd5b806324744d54146104785780632973ada714610497575f80fd5b8063141a468c1161029b57806318ad50d11161027657806318ad50d1146104135780631eccc39b1461042657806323b872dd14610459575f80fd5b8063141a468c146103b2578063144aeb83146103df57806318160ddd146103fe575f80fd5b8063081812fc116102cb578063081812fc1461033b578063095ea7b3146103725780630e21a1ac14610393575f80fd5b806301ffc9a7146102e657806306fdde031461031a575b5f80fd5b3480156102f1575f80fd5b5061030561030036600461551a565b61095f565b60405190151581526020015b60405180910390f35b348015610325575f80fd5b5061032e610989565b6040516103119190615563565b348015610346575f80fd5b5061035a610355366004615575565b610a19565b6040516001600160a01b039091168152602001610311565b34801561037d575f80fd5b5061039161038c3660046155a2565b610a3e565b005b34801561039e575f80fd5b506103056103ad3660046155ca565b610b57565b3480156103bd575f80fd5b506103d16103cc366004615575565b610bc9565b604051908152602001610311565b3480156103ea575f80fd5b506103056103f93660046155ca565b610bdc565b348015610409575f80fd5b506103d160105481565b610391610421366004615600565b610c4d565b610439610434366004615639565b610d5a565b604080516001600160801b03938416815292909116602083015201610311565b348015610464575f80fd5b50610391610473366004615685565b610fe2565b348015610483575f80fd5b50610391610492366004615770565b6111e9565b3480156104a2575f80fd5b506103d16104b1366004615806565b60056020525f908152604090205481565b3480156104cd575f80fd5b506103916104dc36600461581f565b611209565b3480156104ec575f80fd5b506105006104fb3660046155ca565b611288565b60408051928352602083019190915201610311565b348015610520575f80fd5b506103d16112aa565b348015610534575f80fd5b5060025461035a906001600160a01b031681565b348015610553575f80fd5b50610567610562366004615575565b6112b8565b60405161031191905f60c08201905082518252602083015160208301526040830151604083015260608301516060830152608083015160808301526001600160a01b0360a08401511660a083015292915050565b3480156105c6575f80fd5b506103d15f5481565b3480156105da575f80fd5b506103916105e9366004615685565b611355565b3480156105f9575f80fd5b50610305610608366004615575565b61136f565b61030561061b366004615840565b6113c8565b34801561062b575f80fd5b506103d160015481565b348015610640575f80fd5b506103d161064f366004615575565b60126020525f908152604090205481565b34801561066b575f80fd5b5061035a61067a366004615575565b61172a565b34801561068a575f80fd5b5061069e6106993660046158f0565b61178e565b604051610311919061596c565b3480156106b6575f80fd5b506103d16106c5366004615806565b611886565b3480156106d5575f80fd5b506103916106e436600461597e565b61191e565b3480156106f4575f80fd5b506103056107033660046159db565b611930565b348015610713575f80fd5b5061071c611c55565b6040516103119796959493929190615a25565b34801561073a575f80fd5b506103d1610749366004615a92565b611cdc565b61030561075c366004615acb565b611f02565b34801561076c575f80fd5b5061030561077b366004615806565b611f7a565b34801561078b575f80fd5b5061032e611fdc565b6103056107a2366004615af4565b611feb565b3480156107b2575f80fd5b5061035a6107c1366004615806565b60066020525f90815260409020546001600160a01b031681565b3480156107e6575f80fd5b506103916107f5366004615b24565b6121af565b348015610805575f80fd5b50610819610814366004615575565b6121be565b60405161031191905f60c082019050825182526001600160a01b0360208401511660208301526001600160a01b036040840151166040830152606083015160608301526080830151608083015260a083015160a083015292915050565b610439610884366004615b4c565b61225f565b348015610894575f80fd5b506103056108a3366004615806565b612493565b3480156108b3575f80fd5b506103916108c2366004615b8c565b6124f7565b3480156108d2575f80fd5b5061032e6108e1366004615575565b612700565b3480156108f1575f80fd5b50610305610900366004615bd8565b6001600160a01b039182165f908152600c6020908152604080832093909416825291909152205460ff1690565b61030561093b366004615c00565b612764565b34801561094b575f80fd5b5061039161095a366004615c29565b612a9e565b5f6001600160e01b03198216635604e22560e01b1480610983575061098382612cff565b92915050565b60606007805461099890615c5b565b80601f01602080910402602001604051908101604052809291908181526020018280546109c490615c5b565b8015610a0f5780601f106109e657610100808354040283529160200191610a0f565b820191905f5260205f20905b8154815290600101906020018083116109f257829003601f168201915b5050505050905090565b5f610a2382612d4e565b505f908152600b60205260409020546001600160a01b031690565b5f610a488261172a565b9050806001600160a01b0316836001600160a01b031603610aba5760405162461bcd60e51b815260206004820152602160248201527f4552433732313a20617070726f76616c20746f2063757272656e74206f776e656044820152603960f91b60648201526084015b60405180910390fd5b336001600160a01b0382161480610ad65750610ad68133610900565b610b485760405162461bcd60e51b815260206004820152603d60248201527f4552433732313a20617070726f76652063616c6c6572206973206e6f7420746f60448201527f6b656e206f776e6572206f7220617070726f76656420666f7220616c6c0000006064820152608401610ab1565b610b528383612db4565b505050565b6002545f906001600160a01b03163314610b6f575f80fd5b5f838152600360205260409020610b869083612e21565b60408051848152602081018490527f5af113730f9ee4153f120c893809feafa233584bbe5e93b5d78e0699c9c8ca5691015b60405180910390a150600192915050565b5f818152600f6020526040812054610983565b5f828152600360205260408120600101546001600160a01b03163314610c00575f80fd5b5f838152600360205260409020610c179083612e60565b60408051848152602081018490527fc360eef79f1e7d7e7564e3cd446a9839f5a632a38a4d34b507c08e1ceef461479101610bb8565b60045415610c59575f80fd5b60016004555f828152600360205260409020600501546d200000000000000000000000000090610c8d90839060801c615ca7565b6001600160801b03161115610ca0575f80fd5b5f82815260036020526040902060020154610cce906001600160a01b0316336001600160801b038416612e9b565b5f82815260036020526040902060050154610cf290608083901b612ea8565b612ea8565b5f838152600360205260409081902060050191909155517f54fe3e24ce316357354d8b9553364de253d61c742d913dfd419149ddf696947a90610d4a90849084909182526001600160801b0316602082015260400190565b60405180910390a150505f600455565b5f806004545f14610d69575f80fd5b600160045560408051610100810182526001600160801b03871681525f6020808301829052828401829052606083018290528a825260038082528483208082015460808601525460a08501528a83528082529382208085015460c0850152918a905292909252905460e0820152610de08186612ed4565b90505f866001600160801b0316118015610e0f5750856001600160801b0316815f01516001600160801b031614155b8015610e1b5750868814155b8015610e3f57506001841515148015610e3d575080516001600160801b031615155b155b610e47575f80fd5b6020808201515f8981526003909252604090912054610e7a916001600160801b031661271060cc9290921c607f16020490565b9150818160200151610e8c9190615cc6565b60808201516040808401515f8c8152600360205291909120929550610eb2929190613234565b60c08101515f888152600360205260409020610ece9184613234565b8051610f0a903390610ee09089615cc6565b5f8b8152600360205260409020600201546001600160a01b031691906001600160801b0316612e9b565b5f87815260036020526040902060020154610f38906001600160a01b0316336001600160801b03861661325b565b86887fa79c43e220b5faf022716b06e757294b799a25f33d3c8b0121e614f7b5d988c4338460600151610f8b865f01518c610f739190615cc6565b60408801516001600160801b031660809190911b1790565b6001600160801b03881660808a901b17604080516001600160a01b0390951685526001600160801b0390931660208501529183015260608201526080015b60405180910390a3505f60045590969095509350505050565b610fec33826132ed565b61104e5760405162461bcd60e51b815260206004820152602d60248201527f4552433732313a2063616c6c6572206973206e6f7420746f6b656e206f776e6560448201526c1c881bdc88185c1c1c9bdd9959609a1b6064820152608401610ab1565b61105983838361336a565b5f8181526011602081815260408084206005810180546001600160a01b031916905581516060810183526001600160a01b038916815281548185015286865293909252600190910154908201526110af90613389565b604080516060810182526001600160a01b03861681525f858152601160208181528483208054828601528884529190526001015492820192909252919250906110f790613389565b5f8181526012602052604081205491925003611127575f828152601260205260408082205483835291205561119b565b5f8381526011602081815260408084208585526012835281852054855292909152909120611154916133d5565b5f838152601160205260408120818155600181018290556002810182905560038101829055600481019190915560050180546001600160a01b031916905561119b83613427565b5f828152601260205260408082208290555184916001600160a01b0380881692908916917fddf252ad1be2c89b69c2b068fc378daa952ba7f163c4a11628f55a4df523b3ef91a45050505050565b6111f5338584846134b9565b611201868686866124f7565b505050505050565b6002546001600160a01b0316331461121f575f80fd5b5f8281526003602090815260409182902060010180546001600160a01b0319166001600160a01b0385169081179091558251858152918201527f0dccb79e09923e42093e54de6132ceba9b88b094d10632520f6eeb8058a6721c91015b60405180910390a15050565b5f828152600360208190526040808320820154848452922001545b9250929050565b5f6112b3613643565b905090565b6112f46040518060c001604052805f81526020015f81526020015f81526020015f81526020015f81526020015f6001600160a01b031681525090565b505f90815260116020908152604091829020825160c0810184528154815260018201549281019290925260028101549282019290925260038201546060820152600482015460808201526005909101546001600160a01b031660a082015290565b610b5283838360405180602001604052805f8152506124f7565b6002545f906001600160a01b03163314611387575f80fd5b5f8290556040518281527fbd209961024f2694b0afb3c8badd20b6477abb77b336b16892c3fa4b906d323c906020015b60405180910390a15060015b919050565b5f6004545f146113d6575f80fd5b6001600455604080518082019091523381526001600160a01b03841660208201525f906114029061376c565b5f818152600360205260409020600101549091506001600160a01b031615801561143e57505f8681526003602052604090205461143e9061379c565b611446575f80fd5b61146e336114548760801c90565b6001600160a01b03871691906001600160801b0316612e9b565b5f8681526003602052604090206002015461149c906001600160a01b0316336001600160801b038816612e9b565b5f8681526003602052604081206114b390876137b9565b90506001805f8282546114c69190615ce5565b925050819055506115516114f582604001516114e28960801c90565b6001600160801b031660809190911b1790565b5f8481526003602052604090209087876003840183905560048401929092556001600160df1b0390911682556002820180546001600160a01b039092166001600160a01b03199283161790556001909101805490911633179055565b600160105f8282546115639190615ce5565b909155505060408051606081018252338152602081018490529081018890525f9061158d90613389565b6010545f8281526012602052604090208190559091506115ae90339061390d565b6040805160c081018252848152602081018a905283820151909182019060801b81526020016115e15f6114e28b60801c90565b81526020016116088460200151856060015160809190911b6001600160801b039091161790565b81525f60209182018190526010805482526011835260409182902084518155928401516001840155908301516002830155606083015160038301556080830151600483015560a090920151600590910180546001600160a01b03929092166001600160a01b0319909216919091179055547fd5b1190461e8b8cebdd658c8dd4f092c64be24d6dae8d80a4174dad7899a814e848a89896116c36116ab8e60801c90565b60408a01516001600160801b031660809190911b1790565b885160608a01516001600160801b031660809190911b176040805196875260208701959095526001600160a01b03909316938501939093526060840152608083019190915260a082015260c00160405180910390a250505f60045550600195945050505050565b5f818152600960205260408120546001600160a01b0316806109835760405162461bcd60e51b815260206004820152601860248201527f4552433732313a20696e76616c696420746f6b656e20494400000000000000006044820152606401610ab1565b6060606483511061179d575f80fd5b5f835167ffffffffffffffff8111156117b8576117b86156bf565b6040519080825280602002602001820160405280156117e1578160200160208202803683370190505b5090505f5b845181101561187e5760035f86838151811061180457611804615cf8565b602002602001015181526020019081526020015f206006015f856001600160a01b03166001600160a01b031681526020019081526020015f205f9054906101000a90046001600160801b03166001600160801b031682828151811061186b5761186b615cf8565b60209081029190910101526001016117e6565b509392505050565b5f6001600160a01b0382166119035760405162461bcd60e51b815260206004820152602960248201527f4552433732313a2061646472657373207a65726f206973206e6f74206120766160448201527f6c6964206f776e657200000000000000000000000000000000000000000000006064820152608401610ab1565b506001600160a01b03165f908152600a602052604090205490565b61192a848484846134b9565b50505050565b5f6004545f1461193e575f80fd5b600160045561194d33866132ed565b611955575f80fd5b60408051606080820183525f8083526020808401829052838501829052845192830185528183528281018290528285018290528982526011815284822080546001918201546001600160a01b038b16855260059093529583205494959394919291146119cc576002546001600160a01b03166119ce565b875b335f908152600660205260409020549098506001600160a01b0316611a1957335f90815260066020526040902080546001600160a01b0319166001600160a01b038916179055611a6a565b335f908152600660209081526040918290205491516001600160a01b0390921680835298507f7da361ef032ddb975b4fa950921c1ecb79041d004acea71333e2dac6ec917c98910160405180910390a15b866001600160a01b0316886001600160a01b031614611a895786611a96565b6002546001600160a01b03165b6001600160a01b0381165f90815260056020526040902054909750600114611ac9576002546001600160a01b0316611acb565b865b9650611b7360035f8481526020019081526020015f2060115f8d81526020019081526020015f206040518060a001604052808d6001600160801b031681526020018c6001600160a01b031681526020018b6001600160a01b031681526020015f54815260200160025f9054906101000a90046001600160a01b03166001600160a01b031681525060035f8881526020019081526020015f20613a95909392919063ffffffff16565b919650945090508115611b8e57611b8b816002615d0c565b90505b897f243abbbd47dee114cad9689e3093459f008e8ca4fa627f9d19c4957934b81eaf848484611bd58a602001518b6040015160809190911b6001600160801b039091161790565b60208a015160408b01516001600160801b031660809190911b178b518b516001600160801b031660809190911b176040805196875260208701959095526001600160801b03909316938501939093526060840152608083019190915260a082015260c00160405180910390a250505f600455506001979650505050505050565b5f60608082808083611c887f0000000000000000000000000000000000000000000000000000000000000000600d613f9a565b611cb37f0000000000000000000000000000000000000000000000000000000000000000600e613f9a565b604080515f80825260208201909252600f60f81b9b939a50919850469750309650945092509050565b5f6004545f14611cea575f80fd5b6001600455611cf933856132ed565b80611d1c57505f848152601160205260409020600501546001600160a01b031633145b611d24575f80fd5b5f84815260116020908152604080832060018082015491546001600160a01b03891686526005909452919093205414611d5d5784611d6a565b6002546001600160a01b03165b335f908152600660205260409020549095506001600160a01b0316611db557335f90815260066020526040902080546001600160a01b0319166001600160a01b038616179055611e06565b335f908152600660209081526040918290205491516001600160a01b0390921680835295507f7da361ef032ddb975b4fa950921c1ecb79041d004acea71333e2dac6ec917c98910160405180910390a15b836001600160a01b0316856001600160a01b031614611e255783611e32565b6002546001600160a01b03165b6001600160a01b0381165f90815260056020526040902054909450600114611e65576002546001600160a01b0316611e67565b835b5f8381526003602081815260408084208b85526011835281852085546002548988529590945291909420949850611eaf94939290918a918a91906001600160a01b0316614043565b604080518381526020810185905290810182905290935086907f172f458c2c853ed38b0114381270db7647bc1f9b612a42852353261a7e3379be9060600160405180910390a250505f6004559392505050565b5f838152600360205260408120600201546001600160a01b0316611f4a575f84815260036020526040902060020154611f45906001600160a01b0316838561325b565b611f70565b5f84815260036020526040902060020154611f70906001600160a01b0316338486614134565b5060019392505050565b6002545f906001600160a01b03163314611f92575f80fd5b6001600160a01b0382165f8181526005602090815260408083209290925590519182527e4ba2ca448db089eb9fb0b25431f0d57664d46141171fed2476281b578d96d491016113b7565b60606008805461099890615c5b565b5f6001545f14801561200157506120018261379c565b612009575f80fd5b6120133384611454565b6001805f8282546120249190615ce5565b9091555050604080518082019091523381526001600160a01b03851660208201525f906120509061376c565b5f818152600360208190526040909120908101869055600481018690556001600160df1b03851681556002810180546001600160a01b0389166001600160a01b031991821617909155600182018054909116331790559091506120b890640100000000612e21565b600160105f8282546120ca9190615ce5565b909155505060408051606081018252338152602081018390525f9181018290526120f390613389565b6010545f82815260126020526040902081905590915061211490339061390d565b612150825f61212c6121268960801c90565b60801b90565b6121365f8a6114e2565b6010545f90815260116020526040812094939291906141d9565b601054604080518481526001600160a01b0389166020820152908101869052606081018790527f9f234216268c7b4b9373c01c9d1cc757d055e68b6440edbaaf229c63a0313bc79060800160405180910390a250600195945050505050565b6121ba338383614247565b5050565b6122036040518060c001604052805f81526020015f6001600160a01b031681526020015f6001600160a01b031681526020015f81526020015f81526020015f81525090565b5f8281526003602081815260408084208054865260018101546001600160a01b0390811687850152600282015416918601919091528083015460608601526004810154608086015294909252905260059091015460a082015290565b5f806004545f1461226e575f80fd5b600160045560408051610100810182526001600160801b03871681525f6020808301829052828401829052606083018290528a825260038082528483208082015460808601525460a08501528a83528082529382208085015460c0850152918a905292909252905460e08201526122e58186614314565b90508688141580156122ff575080516001600160801b0316155b612307575f80fd5b6020808201515f8a8152600390925260409091205461233a916001600160801b031661271060c59290921c607f16020490565b915081816020015161234c9190615ca7565b60c08201516040808401515f8b8152600360205291909120929550612372929190613234565b60808101515f89815260036020526040902061238e9184613234565b6123cc848260400151886123a29190615cc6565b5f8a8152600360205260409020600201546001600160a01b031691906001600160801b031661325b565b5f888152600360205260409020600201546123fa906001600160a01b0316336001600160801b038616612e9b565b86887f3de590341c976ea6fce618ef4a768a15441201ad3ed7c9b438d82c3951de7ced338785606001516124428c886040015160809190911b6001600160801b039091161790565b6001600160801b03891660808b901b17604080516001600160a01b0396871681529590941660208601526001600160801b03909216928401929092526060830191909152608082015260a001610fc9565b6002545f906001600160a01b031633146124ab575f80fd5b6001600160a01b0382165f818152600560209081526040918290206001905590519182527f8e1c2d1a5dce36a56a9dfcb96e5816e793c16d6c897b4e3c0b1f99588bb88a1c91016113b7565b61250133836132ed565b6125635760405162461bcd60e51b815260206004820152602d60248201527f4552433732313a2063616c6c6572206973206e6f7420746f6b656e206f776e6560448201526c1c881bdc88185c1c1c9bdd9959609a1b6064820152608401610ab1565b61256f84848484614595565b5f8281526011602081815260408084206005810180546001600160a01b031916905581516060810183526001600160a01b038a16815281548185015287865293909252600190910154908201526125c590613389565b604080516060810182526001600160a01b03871681525f8681526011602081815284832080548286015289845291905260010154928201929092529192509061260d90613389565b5f818152601260205260408120549192500361263d575f82815260126020526040808220548383529120556126b1565b5f848152601160208181526040808420858552601283528185205485529290915290912061266a916133d5565b5f848152601160205260408120818155600181018290556002810182905560038101829055600481019190915560050180546001600160a01b03191690556126b184613427565b5f828152601260205260408082208290555185916001600160a01b0380891692908a16917fddf252ad1be2c89b69c2b068fc378daa952ba7f163c4a11628f55a4df523b3ef91a4505050505050565b606061270b82612d4e565b5f61271461461e565b90505f8151116127325760405180602001604052805f81525061275d565b8061273c8461463e565b60405160200161274d929190615d4c565b6040516020818303038152906040525b9392505050565b5f6004545f14612772575f80fd5b6001600455604080516080810182525f808252602082018190529181018290526060810191909152604080516080810182525f8082526020820181905291810182905260608101919091525f86815260036020819052604090912001546d20000000000000000000000000009085906127eb9190615ca7565b6001600160801b0316111580156128025750848614155b801561283d57505f868152600360205260409020546128209061379c565b8061283d57505f8581526003602052604090205461283d9061379c565b612845575f80fd5b5f86815260036020526040902061285c90856137b9565b5f8781526003602052604090206002015490925061288d906001600160a01b0316336001600160801b038716612e9b565b8415612938576040808301515f87815260036020819052929020909101546128b4916146db565b6001600160801b0316606082018190525f8681526003602052604090205460d91c603f16612710908103909104026001600160801b0316606082018190525f8681526003602052604090206002015461291a916001600160a01b03909116903390612e9b565b60608101515f868152600360205260409020612935916137b9565b90505b5f6129656040518060600160405280336001600160a01b0316815260200189815260200188815250613389565b5f818152601260205260408120549192508190036129b757600160105f82825461298f9190615ce5565b925050819055506129a23360105461390d565b506010545f8281526012602052604090208190555b6040840151612a12908990899060801b602088015160608901516001600160801b031660809190911b17602088015160608901516001600160801b031660809190911b175f87815260116020526040902094939291906141d9565b604084810151855160608088015187518883015186518f8152602081018f9052608096871b8189015294861b6001600160801b039384161793850193909352841b91161791810191909152905182917f54327712026ec7eff19c69f41b88780daaa74a97ae2dcfa56a1de52fb0e07fcd919081900360a00190a250505f60045550600195945050505050565b6064815110612aab575f80fd5b5f815167ffffffffffffffff811115612ac657612ac66156bf565b604051908082528060200260200182016040528015612aef578160200160208202803683370190505b5090505f5b8251811015612ccd5760035f848381518110612b1257612b12615cf8565b60209081029190910181015182528181019290925260409081015f90812033825260060190925290205482516001600160801b0390911690839083908110612b5c57612b5c615cf8565b6020026020010181815250506002828281518110612b7c57612b7c615cf8565b60200260200101511015612bae575f828281518110612b9d57612b9d615cf8565b602002602001018181525050612cc5565b6001828281518110612bc257612bc2615cf8565b6020026020010151612bd49190615d60565b828281518110612be657612be6615cf8565b602002602001018181525050600160035f858481518110612c0957612c09615cf8565b602002602001015181526020019081526020015f206006015f336001600160a01b03166001600160a01b031681526020019081526020015f205f6101000a8154816001600160801b0302191690836001600160801b03160217905550612cc533838381518110612c7b57612c7b615cf8565b602002602001015160035f878681518110612c9857612c98615cf8565b60209081029190910181015182528101919091526040015f20600201546001600160a01b0316919061325b565b600101612af4565b507f8124a8d085ceb98e89ac6906c6e138dca5fdbc28a91438e33d7a2ab6c75742fd828260405161127c929190615d73565b5f6001600160e01b031982166380ac58cd60e01b1480612d2f57506001600160e01b03198216635b5e139f60e01b145b8061098357506301ffc9a760e01b6001600160e01b0319831614610983565b5f818152600960205260409020546001600160a01b0316612db15760405162461bcd60e51b815260206004820152601860248201527f4552433732313a20696e76616c696420746f6b656e20494400000000000000006044820152606401610ab1565b50565b5f818152600b6020526040902080546001600160a01b0319166001600160a01b0384169081179091558190612de88261172a565b6001600160a01b03167f8c5be1e5ebec7d5bd14f71427d1e84f3dd0314c0f7b2291e5b200ac8c7c3b92560405160405180910390a45050565b815460df82901b90612e50907b8000000000000000000000000000000000000000000000000000000090615db4565b612e5a9190615ce5565b90915550565b81546001600160df1b0390911690612e5a9082907fffffffff8000000000000000000000000000000000000000000000000000000016615ce5565b3061192a84848385614134565b5f61275d612eb68360801c90565b612ec08560801c90565b612eca9190615ca7565b6114e28486615ca7565b60408051610100810182525f80825260208201819052918101829052606081018290526080810182905260a0810182905260c0810182905260e0810191909152612f2783608001518460c0015184614755565b612f32575081610983565b825160a08401515f918291612f5b916001600160801b031661271060c59290921c607f16020490565b6001600160801b03166040860181905285518690612f7a908390615cc6565b6001600160801b03169052505b84516001600160801b031615801590612fae5750612fae85608001518660c0015186614755565b1561319c57612fcf612fc48660c0015160801c90565b60e0870151906147e3565b6001600160801b0316612ff4612fe9876080015160801c90565b60a0880151906147e3565b6001600160801b031610156130245761301f613014866080015160801c90565b60a0870151906147e3565b613035565b613035612fc48660c0015160801c90565b608086015190925061304790836146db565b9050806001600160801b0316855f01516001600160801b031611156130f95780855f018181516130779190615cc6565b6001600160801b031690525060c085015161309290836146db565b856020018181516130a39190615ca7565b6001600160801b039081169091526080878101516130ce93509184169085901b17614812565b614812565b608086015260c08501516130ef906130ea846114e283826146db565b614834565b60c0860152613179565b8451608086015161310991614860565b60c086015190925061311b90836146db565b8560200181815161312c9190615ca7565b6001600160801b03908116909152608087810151885161315494509092169085901b17614812565b608086015260c0850151613170906130ea846114e283826146db565b60c08601525f85525b818560600181815161318b9190615ca7565b6001600160801b0316905250612f87565b84516001600160801b03161561322b57845160a08601516131d1916001600160801b031661271060c59290921c607f16020490565b856040018181516131e29190615cc6565b6001600160801b03908116909152865160a088015161320f9350911661271060c59290921c607f16020490565b8551869061321e908390615ca7565b6001600160801b03169052505b50929392505050565b60038301829055600583015461324e90608083901b612ea8565b8360050181905550505050565b5f6001600160a01b038416613297575f805f8085875af190508061329257604051633d2cec6f60e21b815260040160405180910390fd5b61192a565b60405163a9059cbb60e01b5f52836004528260245260205f60445f80895af13d15601f3d1160015f511416171691505f60605280604052508061192a57604051633c9fd93960e21b815260040160405180910390fd5b5f806132f88361172a565b9050806001600160a01b0316846001600160a01b0316148061333e57506001600160a01b038082165f908152600c602090815260408083209388168352929052205460ff165b806133625750836001600160a01b031661335784610a19565b6001600160a01b0316145b949350505050565b5f818152600f6020526040902080546001019055610b52838383614897565b6040805182516001600160a01b0316602080830191909152830151818301529082015160608201525f906080015b60408051601f19818403018152919052805160209091012092915050565b6133e782600201548260020154612ea8565b826002018190555061340182600301548260030154612ea8565b826003018190555061341b82600401548260040154612ea8565b82600401819055505050565b5f6134318261172a565b905061343c8261172a565b5f838152600b6020908152604080832080546001600160a01b03199081169091556001600160a01b038516808552600a845282852080545f190190558785526009909352818420805490911690555192935084927fddf252ad1be2c89b69c2b068fc378daa952ba7f163c4a11628f55a4df523b3ef908390a45050565b814211156135095760405162461bcd60e51b815260206004820152601e60248201527f4552433732315065726d69743a206578706972656420646561646c696e6500006044820152606401610ab1565b5f838152600f602090815260408083205481517f0000000000000000000000000000000000000000000000000000000000000000818501526001600160a01b0389168184015260608101889052608081019190915260a08082018790528251808303909101815260c090910190915280519101209061358782614a75565b90505f6135948285614aa1565b5090505f6001600160a01b038216158015906135b557506135b582886132ed565b905080806135d157506135d16135ca8861172a565b8487614ae0565b806135e357506135e36135ca88610a19565b61362f5760405162461bcd60e51b815260206004820152601f60248201527f4552433732315065726d69743a20696e76616c6964207369676e6174757265006044820152606401610ab1565b6136398888612db4565b5050505050505050565b5f306001600160a01b037f00000000000000000000000000000000000000000000000000000000000000001614801561369b57507f000000000000000000000000000000000000000000000000000000000000000046145b156136c557507f000000000000000000000000000000000000000000000000000000000000000090565b6112b3604080517f8b73c3c69bb8fe3d512ecc4cf759cc79239f7b179b0ffacaa9a75d522b39400f60208201527f0000000000000000000000000000000000000000000000000000000000000000918101919091527f000000000000000000000000000000000000000000000000000000000000000060608201524660808201523060a08201525f9060c00160405160208183030381529060405280519060200120905090565b5f816040516020016133b7919081516001600160a01b039081168252602092830151169181019190915260400190565b5f60ff82901c600181146137b0575f61275d565b60019392505050565b604080516080810182525f80825260208201819052918101829052606081019190915282546137fd906001600160801b03841661271060d99290921c603f16020490565b6001600160801b03168082526138139083615cc6565b6001600160801b031660608201819052600384015461383191614860565b6001600160801b0316604082015260608101516005840154613865919061385f9060801c60048701546114e2565b90614860565b6001600160801b031660208201819052600584015482516138a692610ced9161388e9190615ca7565b60208501516001600160801b031660809190911b1790565b60058401556003830154604082015160608301516138d3929160801b6001600160801b0390911617612ea8565b6003840155600483015460408201516060830151613900929160801b6001600160801b0390911617612ea8565b6004909301929092555090565b6001600160a01b0382166139635760405162461bcd60e51b815260206004820181905260248201527f4552433732313a206d696e7420746f20746865207a65726f20616464726573736044820152606401610ab1565b5f818152600960205260409020546001600160a01b0316156139c75760405162461bcd60e51b815260206004820152601c60248201527f4552433732313a20746f6b656e20616c7265616479206d696e746564000000006044820152606401610ab1565b5f818152600960205260409020546001600160a01b031615613a2b5760405162461bcd60e51b815260206004820152601c60248201527f4552433732313a20746f6b656e20616c7265616479206d696e746564000000006044820152606401610ab1565b6001600160a01b0382165f818152600a6020908152604080832080546001019055848352600990915280822080546001600160a01b0319168417905551839291907fddf252ad1be2c89b69c2b068fc378daa952ba7f163c4a11628f55a4df523b3ef908290a45050565b604080516060810182525f8082526020820181905291810191909152604080516060810182525f80825260208201819052918101919091525f613af0845f015161385f613ae6886002015460801c90565b60038901546114e2565b90506040518060600160405280613b1f865f015161385f613b158c6005015460801c90565b60048d01546114e2565b6001600160801b03168152602001613b4f865f015161385f613b458a6003015460801c90565b60038b01546114e2565b6001600160801b0390811682528651166020909101528754909350613b739061379c565b80613b8457508554613b849061379c565b8015613bb95750613ba4613b9c886003015460801c90565b885490614be6565b6001600160801b0316816001600160801b0316105b8015613be65750613bce613b9c886003015490565b6001600160801b0316845f01516001600160801b0316105b613c1b5760405162461bcd60e51b8152600401610ab1906020808252600490820152634730313160e01b604082015260600190565b60038701546040840151613c3e91906001600160801b0316608084901b17614c0a565b600388015560048701546040840151613c6691906001600160801b0316608084901b17614c0a565b6004880155600587015483516020850151613c90929160801b6001600160801b0390911617614c0a565b6005880155613c9f8582614c2c565b60208301518351613cb09190615cc6565b6001600160801b03908116845260408401518854613cdc9290911661271060d39290921c603f16020490565b6001600160801b03166020808501829052845160608701519187015160408089015160808a015191890151613d1f968e96949391613d1a9190615cc6565b614d3a565b60208301516001600160801b031615613d4f5760058701546020840151613d49919060801b612ea8565b60058801555b600185015415613f90576040518060600160405280613d838361385f613d798b6005015460801c90565b60048c01546114e2565b6001600160801b03168152602001613db08361385f613da68a6004015460801c90565b60048b01546114e2565b6001600160801b03168152602001613dd983613dd3613da68a6002015460801c90565b906146db565b6001600160801b03168152509150613e00613df8876003015460801c90565b875490614be6565b6001600160801b0316816001600160801b0316108015613e425750613e29613df8876003015490565b6001600160801b031682604001516001600160801b0316105b613e775760405162461bcd60e51b8152600401610ab1906020808252600490820152632398189960e11b604082015260600190565b60038601546040830151613e9a91906001600160801b0316608084901b17614c0a565b600387015560048601546040830151613ec291906001600160801b0316608084901b17614c0a565b6004870155600586015482516020840151613eec929160801b6001600160801b0390911617614c0a565b600587015560208201518251613f029190615cc6565b6001600160801b03908116835260408301518754613f2e9290911661271060d39290921c603f16020490565b6001600160801b03166020830181905215613f605760058601546020830151613f5a919060801b612ea8565b60058701555b613f9086835f0151866060015187602001518860400151896080015188602001518960400151613d1a9190615cc6565b9450945094915050565b606060ff8314613fb457613fad8361516a565b9050610983565b818054613fc090615c5b565b80601f0160208091040260200160405190810160405280929190818152602001828054613fec90615c5b565b80156140375780601f1061400e57610100808354040283529160200191614037565b820191905f5260205f20905b81548152906001019060200180831161401a57829003601f168201915b50505050509050610983565b5f80614053876003015460801c90565b61407c614061896003015490565b61385f6140728d6005015460801c90565b60048e01546114e2565b6140869190615cc6565b60058a01549091506140a1906001600160801b038316612ea8565b60058a01556140b58982868989885f614d3a565b5f6140c4886004015460801c90565b6140d26140618a6004015490565b6140dc9190615cc6565b60058a01549091506140f7906001600160801b038316612ea8565b60058a015561410b8982878a8a895f614d3a565b6001600160801b038116608083901b17925061412788846151a7565b5050979650505050505050565b5f6001600160a01b0385166141685781341461416357604051633d2cec6f60e21b815260040160405180910390fd5b6141d2565b6040516323b872dd60e01b81526001600160a01b03851660048201526001600160a01b038416602482015282604482015260205f6064835f8a5af13d15601f3d1160015f5114161716915050806141d257604051633c9fd93960e21b815260040160405180910390fd5b5050505050565b60038601546001600160801b03165f036141f1578486555b83156141ff57600186018490555b61420d866002015484612ea8565b600287015560038601546142219083612ea8565b600387015583156112015761423a866004015482612ea8565b6004870155505050505050565b816001600160a01b0316836001600160a01b0316036142a85760405162461bcd60e51b815260206004820152601960248201527f4552433732313a20617070726f766520746f2063616c6c6572000000000000006044820152606401610ab1565b6001600160a01b038381165f818152600c6020908152604080832094871680845294825291829020805460ff191686151590811790915591519182527f17307eab39ab6107e8899845ad3d59bd9653f200f220920489ca2b5937696c31910160405180910390a3505050565b60408051610100810182525f80825260208201819052918101829052606081018290526080810182905260a0810182905260c0810182905260e081019190915261436783608001518460c0015184614755565b15614373575081610983565b825160e08401515f91829161439c916001600160801b031661271060cc9290921c607f16020490565b6001600160801b031660408601525b84516001600160801b0316158015906143d257506143d285608001518660c0015186614755565b1561322b576143e8612fc48660c0015160801c90565b6001600160801b0316614402612fe9876080015160801c90565b6001600160801b0316101561442757614422613014866080015160801c90565b614438565b614438612fc48660c0015160801c90565b60c086015190925061444a90836146db565b9050806001600160801b0316855f01516001600160801b031611156144f25780855f0181815161447a9190615cc6565b6001600160801b0316905250608085015161449590836146db565b856020018181516144a69190615ca7565b6001600160801b0390811690915260c08701516144cc9250908316608085901b17614834565b60c086015260808501516144e8906130c9846114e283826146db565b6080860152614572565b845160c086015161450291614860565b608086015190925061451490836146db565b856020018181516145259190615ca7565b6001600160801b0390811690915260c0870151875161454d9350909116608085901b17614834565b60c08601526080850151614569906130c9846114e283826146db565b60808601525f85525b81856060018181516145849190615ca7565b6001600160801b03169052506143ab565b6145a084848461336a565b6145ac848484846151dd565b61192a5760405162461bcd60e51b815260206004820152603260248201527f4552433732313a207472616e7366657220746f206e6f6e20455243373231526560448201527f63656976657220696d706c656d656e74657200000000000000000000000000006064820152608401610ab1565b6060604051806060016040528060238152602001615e9360239139905090565b60605f61464a83615330565b60010190505f8167ffffffffffffffff811115614669576146696156bf565b6040519080825280601f01601f191660200182016040528015614693576020820181803683370190505b5090508181016020015b5f19017f3031323334353637383961626364656600000000000000000000000000000000600a86061a8153600a850494508461469d57509392505050565b5f6146e68360801c90565b6001600160801b03165f036146fc57505f610983565b5f6147078460801c90565b6001600160801b0316836001600160801b03166147218690565b6001600160801b03166147349190615dc7565b61473e9190615dde565b90506001600160801b0381111561275d575f613362565b5f6147608260801c90565b6001600160801b03166147738460801c90565b6001600160801b0316856001600160801b03166147909190615dc7565b61479a9190615dc7565b826001600160801b0316846001600160801b03166147b88760801c90565b6001600160801b03166147cb9190615dc7565b6147d59190615dc7565b11611f70575f949350505050565b5f6103ff60bb84901c168082036147fd5782915050610983565b614808816040615d0c565b6133629084615df1565b5f61275d6148208360801c90565b61482a8560801c90565b612eca9190615cc6565b5f61275d6148428360801c90565b61484c8560801c90565b6148569190615ca7565b6114e28486615cc6565b5f826001600160801b03165f0361487857505f610983565b5f836001600160801b0316836001600160801b03166147218660801c90565b826001600160a01b03166148aa8261172a565b6001600160a01b03161461490e5760405162461bcd60e51b815260206004820152602560248201527f4552433732313a207472616e736665722066726f6d20696e636f72726563742060448201526437bbb732b960d91b6064820152608401610ab1565b6001600160a01b0382166149705760405162461bcd60e51b8152602060048201526024808201527f4552433732313a207472616e7366657220746f20746865207a65726f206164646044820152637265737360e01b6064820152608401610ab1565b826001600160a01b03166149838261172a565b6001600160a01b0316146149e75760405162461bcd60e51b815260206004820152602560248201527f4552433732313a207472616e736665722066726f6d20696e636f72726563742060448201526437bbb732b960d91b6064820152608401610ab1565b5f818152600b6020908152604080832080546001600160a01b03199081169091556001600160a01b03878116808652600a855283862080545f1901905590871680865283862080546001019055868652600990945282852080549092168417909155905184937fddf252ad1be2c89b69c2b068fc378daa952ba7f163c4a11628f55a4df523b3ef91a4505050565b5f610983614a81613643565b8360405161190160f01b8152600281019290925260228201526042902090565b5f808251604103614ad5576020830151604084015160608501515f1a614ac987828585615411565b945094505050506112a3565b505f905060026112a3565b5f805f856001600160a01b0316631626ba7e60e01b8686604051602401614b08929190615e1e565b60408051601f198184030181529181526020820180517bffffffffffffffffffffffffffffffffffffffffffffffffffffffff166001600160e01b0319909416939093179092529051614b5b9190615e36565b5f60405180830381855afa9150503d805f8114614b93576040519150601f19603f3d011682016040523d82523d5f602084013e614b98565b606091505b5091509150818015614bab575080516020145b8015614bdc57508051630b135d3f60e11b90614bd09083016020908101908401615e41565b6001600160e01b031916145b9695505050505050565b5f6103ff60b184901c16808203614c005782915050610983565b6133628184615df1565b5f61275d614c188360801c90565b614c228560801c90565b6148569190615cc6565b5f614ca0614c71614c41856003015460801c90565b6001600160801b0316846001600160801b0316614c62876002015460801c90565b6001600160801b031691020490565b6114e2614c7f866003015490565b6001600160801b0316856001600160801b0316614c62886002015460801c90565b9050614cb0836003015482614c0a565b6003840155600183015415614d1a575f614d03614cd4614c7f866004015460801c90565b6114e2614ce2876004015490565b6001600160801b0316866001600160801b0316614c62896002015460801c90565b9050614d13846004015482614c0a565b6004850155505b6002830154614d2d90608084901b614c0a565b8360020181905550505050565b60646001600160801b03871660dd87901c601f160204614d5a8188615cc6565b96505f806001600160a01b038616614ebb57606460fa89901c6001600160801b038b1602049150614dad33614d8f8685615ca7565b60028d01546001600160a01b031691906001600160801b031661325b565b6064603f60e28a901c166001600160801b038b1602046064603f60f48b901c166001600160801b038c160204614de39190615ca7565b6001600160a01b0388165f90815260068c016020526040812080549293508392909190614e1a9084906001600160801b0316615ca7565b92506101000a8154816001600160801b0302191690836001600160801b031602179055508281838b614e4c9190615cc6565b614e569190615cc6565b614e609190615ca7565b6001600160a01b0386165f90815260068c01602052604081208054909190614e929084906001600160801b0316615ca7565b92506101000a8154816001600160801b0302191690836001600160801b0316021790555061515e565b60018a01546001600160a01b03808716911603614ef857614ef160646001600160801b038b1660f48b901c603f16020484615ca7565b9250614f69565b6064603f60f48a901c166001600160801b038b16020460018b01546001600160a01b03165f90815260068c01602052604081208054909190614f449084906001600160801b0316615ca7565b92506101000a8154816001600160801b0302191690836001600160801b031602179055505b846001600160a01b0316876001600160a01b031603614fa857614fa160646001600160801b038b1660ee8b901c603f16020484615ca7565b9250615015565b6064603f60ee8a901c166001600160801b038b1602046001600160a01b0388165f90815260068c01602052604081208054909190614ff09084906001600160801b0316615ca7565b92506101000a8154816001600160801b0302191690836001600160801b031602179055505b846001600160a01b0316866001600160a01b0316036150545761504d60646001600160801b038b1660e88b901c603f16020484615ca7565b92506150c1565b6064603f60e88a901c166001600160801b038b1602046001600160a01b0387165f90815260068c0160205260408120805490919061509c9084906001600160801b0316615ca7565b92506101000a8154816001600160801b0302191690836001600160801b031602179055505b6001600160a01b0385165f90815260068b016020526040812080548592906150f39084906001600160801b0316615ca7565b92506101000a8154816001600160801b0302191690836001600160801b0316021790555061515e33856151388c6001600160801b03168c6154ce90919063ffffffff16565b6151549060646001600160801b038f1660fa8f901c0204615ca7565b614d8f9190615ca7565b50505050505050505050565b60605f615176836154de565b6040805160208082528183019092529192505f91906020820181803683375050509182525060208101929092525090565b6151bc8260030154610ced6121268460801c90565b60038301556001820154156121ba5761341b8260040154610ced6121268490565b5f6001600160a01b0384163b1561532557604051630a85bd0160e11b81526001600160a01b0385169063150b7a0290615220903390899088908890600401615e5c565b6020604051808303815f875af192505050801561525a575060408051601f3d908101601f1916820190925261525791810190615e41565b60015b61530b573d808015615287576040519150601f19603f3d011682016040523d82523d5f602084013e61528c565b606091505b5080515f036153035760405162461bcd60e51b815260206004820152603260248201527f4552433732313a207472616e7366657220746f206e6f6e20455243373231526560448201527f63656976657220696d706c656d656e74657200000000000000000000000000006064820152608401610ab1565b805181602001fd5b6001600160e01b031916630a85bd0160e11b149050613362565b506001949350505050565b5f807a184f03e93ff9f4daa797ed6e38ed64bf6a1f0100000000000000008310615378577a184f03e93ff9f4daa797ed6e38ed64bf6a1f010000000000000000830492506040015b6d04ee2d6d415b85acef810000000083106153a4576d04ee2d6d415b85acef8100000000830492506020015b662386f26fc1000083106153c257662386f26fc10000830492506010015b6305f5e10083106153da576305f5e100830492506008015b61271083106153ee57612710830492506004015b60648310615400576064830492506002015b600a83106109835760010192915050565b5f807f7fffffffffffffffffffffffffffffff5d576e7357a4501ddfe92f46681b20a083111561544657505f905060036154c5565b604080515f8082526020820180845289905260ff881692820192909252606081018690526080810185905260019060a0016020604051602081039080840390855afa158015615497573d5f803e3d5ffd5b5050604051601f1901519150506001600160a01b0381166154bf575f600192509250506154c5565b91505f90505b94509492505050565b606460e29290921c603f16020490565b5f60ff8216601f81111561098357604051632cd44ac360e21b815260040160405180910390fd5b6001600160e01b031981168114612db1575f80fd5b5f6020828403121561552a575f80fd5b813561275d81615505565b5f81518084528060208401602086015e5f602082860101526020601f19601f83011685010191505092915050565b602081525f61275d6020830184615535565b5f60208284031215615585575f80fd5b5035919050565b80356001600160a01b03811681146113c3575f80fd5b5f80604083850312156155b3575f80fd5b6155bc8361558c565b946020939093013593505050565b5f80604083850312156155db575f80fd5b50508035926020909101359150565b80356001600160801b03811681146113c3575f80fd5b5f8060408385031215615611575f80fd5b82359150615621602084016155ea565b90509250929050565b803580151581146113c3575f80fd5b5f805f805f60a0868803121561564d575f80fd5b8535945060208601359350615664604087016155ea565b9250606086013591506156796080870161562a565b90509295509295909350565b5f805f60608486031215615697575f80fd5b6156a08461558c565b92506156ae6020850161558c565b929592945050506040919091013590565b634e487b7160e01b5f52604160045260245ffd5b604051601f8201601f1916810167ffffffffffffffff811182821017156156fc576156fc6156bf565b604052919050565b5f82601f830112615713575f80fd5b813567ffffffffffffffff81111561572d5761572d6156bf565b615740601f8201601f19166020016156d3565b818152846020838601011115615754575f80fd5b816020850160208301375f918101602001919091529392505050565b5f805f805f8060c08789031215615785575f80fd5b61578e8761558c565b955061579c6020880161558c565b945060408701359350606087013567ffffffffffffffff8111156157be575f80fd5b6157ca89828a01615704565b9350506080870135915060a087013567ffffffffffffffff8111156157ed575f80fd5b6157f989828a01615704565b9150509295509295509295565b5f60208284031215615816575f80fd5b61275d8261558c565b5f8060408385031215615830575f80fd5b823591506156216020840161558c565b5f805f8060808587031215615853575f80fd5b843593506020850135925061586a6040860161558c565b9396929550929360600135925050565b5f82601f830112615889575f80fd5b813567ffffffffffffffff8111156158a3576158a36156bf565b8060051b6158b3602082016156d3565b918252602081850181019290810190868411156158ce575f80fd5b6020860192505b83831015614bdc5782358252602092830192909101906158d5565b5f8060408385031215615901575f80fd5b823567ffffffffffffffff811115615917575f80fd5b6159238582860161587a565b9250506156216020840161558c565b5f8151808452602084019350602083015f5b82811015615962578151865260209586019590910190600101615944565b5093949350505050565b602081525f61275d6020830184615932565b5f805f8060808587031215615991575f80fd5b61599a8561558c565b93506020850135925060408501359150606085013567ffffffffffffffff8111156159c3575f80fd5b6159cf87828801615704565b91505092959194509250565b5f805f80608085870312156159ee575f80fd5b843593506159fe602086016155ea565b9250615a0c6040860161558c565b9150615a1a6060860161558c565b905092959194509250565b60ff60f81b8816815260e060208201525f615a4360e0830189615535565b8281036040840152615a558189615535565b90508660608401526001600160a01b03861660808401528460a084015282810360c0840152615a848185615932565b9a9950505050505050505050565b5f805f60608486031215615aa4575f80fd5b83359250615ab46020850161558c565b9150615ac26040850161558c565b90509250925092565b5f805f60608486031215615add575f80fd5b8335925060208401359150615ac26040850161558c565b5f805f60608486031215615b06575f80fd5b615b0f8461558c565b95602085013595506040909401359392505050565b5f8060408385031215615b35575f80fd5b615b3e8361558c565b91506156216020840161562a565b5f805f805f60a08688031215615b60575f80fd5b8535945060208601359350615b77604087016155ea565b9250606086013591506156796080870161558c565b5f805f8060808587031215615b9f575f80fd5b615ba88561558c565b9350615bb66020860161558c565b925060408501359150606085013567ffffffffffffffff8111156159c3575f80fd5b5f8060408385031215615be9575f80fd5b615bf28361558c565b91506156216020840161558c565b5f805f60608486031215615c12575f80fd5b8335925060208401359150615ac2604085016155ea565b5f60208284031215615c39575f80fd5b813567ffffffffffffffff811115615c4f575f80fd5b6133628482850161587a565b600181811c90821680615c6f57607f821691505b602082108103615c8d57634e487b7160e01b5f52602260045260245ffd5b50919050565b634e487b7160e01b5f52601160045260245ffd5b6001600160801b03818116838216019081111561098357610983615c93565b6001600160801b03828116828216039081111561098357610983615c93565b8082018082111561098357610983615c93565b634e487b7160e01b5f52603260045260245ffd5b6001600160801b038181168382160290811690818114615d2e57615d2e615c93565b5092915050565b5f81518060208401855e5f93019283525090919050565b5f613362615d5a8386615d35565b84615d35565b8181038181111561098357610983615c93565b604081525f615d856040830185615932565b8281036020840152615d978185615932565b95945050505050565b634e487b7160e01b5f52601260045260245ffd5b5f82615dc257615dc2615da0565b500690565b808202811582820484141761098357610983615c93565b5f82615dec57615dec615da0565b500490565b5f6001600160801b03831680615e0957615e09615da0565b806001600160801b0384160491505092915050565b828152604060208201525f6133626040830184615535565b5f61275d8284615d35565b5f60208284031215615e51575f80fd5b815161275d81615505565b6001600160a01b03851681526001600160a01b0384166020820152826040820152608060608201525f614bdc608083018461553556fe687474703a2f2f7777772e74742d737761702e636f6d2f6e66743f70726f6f6669643da2646970667358221220ae807b47f0437f0566d507cef66c9db6b67785b81287b1b448fd585ef342b5b464736f6c634300081a0033",
        "linkReferences": {}
    },
    "methodIdentifiers": {
        "DOMAIN_SEPARATOR()": "3644e515",
        "addbanlist(address)": "b153b920",
        "approve(address,uint256)": "095ea7b3",
        "balanceOf(address)": "70a08231",
        "banlist(address)": "2973ada7",
        "buyGood(uint256,uint256,uint128,uint256,bool)": "1eccc39b",
        "buyGoodForPay(uint256,uint256,uint128,uint256,address)": "a7e11697",
        "changeGoodOwner(uint256,address)": "2a7c5a91",
        "collectCommission(uint256[])": "f88c3010",
        "collectProof(uint256,address,address)": "8e126f73",
        "disinvestProof(uint256,uint128,address,address)": "7f0a8265",
        "eip712Domain()": "84b0196e",
        "getApproved(uint256)": "081812fc",
        "getGoodState(uint256)": "a6f6a980",
        "getProofState(uint256)": "3f117740",
        "getState(uint256,uint256)": "2f9da5f0",
        "goodNum()": "5a5da4dd",
        "goodWelfare(uint256,uint128)": "18ad50d1",
        "initGood(uint256,uint256,address,uint256)": "4ffef907",
        "initMetaGood(address,uint256,uint256)": "97924ead",
        "investGood(uint256,uint256,uint128)": "f44733ad",
        "isApprovedForAll(address,address)": "e985e9c5",
        "marketconfig()": "402f5ab5",
        "marketcreator()": "3d995173",
        "modifyGoodConfig(uint256,uint256)": "0e21a1ac",
        "name()": "06fdde03",
        "nonces(uint256)": "141a468c",
        "ownerOf(uint256)": "6352211e",
        "payGood(uint256,uint256,address)": "920acbb8",
        "permit(address,uint256,uint256,bytes)": "745a41bc",
        "proofmapping(uint256)": "5e008cc4",
        "queryCommission(uint256[],address)": "6ff73c8e",
        "referals(address)": "a128fcf2",
        "removebanlist(address)": "9551177a",
        "safeTransferFrom(address,address,uint256)": "42842e0e",
        "safeTransferFrom(address,address,uint256,bytes)": "b88d4fde",
        "safeTransferFromWithPermit(address,address,uint256,bytes,uint256,bytes)": "24744d54",
        "setApprovalForAll(address,bool)": "a22cb465",
        "setMarketConfig(uint256)": "45818e4c",
        "supportsInterface(bytes4)": "01ffc9a7",
        "symbol()": "95d89b41",
        "tokenURI(uint256)": "c87b56dd",
        "totalSupply()": "18160ddd",
        "transferFrom(address,address,uint256)": "23b872dd",
        "updateGoodConfig(uint256,uint256)": "144aeb83"
    },
    "id": 1
}