{"abi":[{"type":"constructor","inputs":[{"name":"_marketcreator","type":"address","internalType":"address"},{"name":"_marketconfig","type":"uint256","internalType":"uint256"}],"stateMutability":"nonpayable"},{"type":"function","name":"DOMAIN_SEPARATOR","inputs":[],"outputs":[{"name":"","type":"bytes32","internalType":"bytes32"}],"stateMutability":"view"},{"type":"function","name":"addbanlist","inputs":[{"name":"_user","type":"address","internalType":"address"}],"outputs":[{"name":"","type":"bool","internalType":"bool"}],"stateMutability":"nonpayable"},{"type":"function","name":"approve","inputs":[{"name":"to","type":"address","internalType":"address"},{"name":"tokenId","type":"uint256","internalType":"uint256"}],"outputs":[],"stateMutability":"nonpayable"},{"type":"function","name":"balanceOf","inputs":[{"name":"owner","type":"address","internalType":"address"}],"outputs":[{"name":"","type":"uint256","internalType":"uint256"}],"stateMutability":"view"},{"type":"function","name":"banlist","inputs":[{"name":"","type":"address","internalType":"address"}],"outputs":[{"name":"","type":"uint256","internalType":"uint256"}],"stateMutability":"view"},{"type":"function","name":"buyGood","inputs":[{"name":"_goodid1","type":"uint256","internalType":"uint256"},{"name":"_goodid2","type":"uint256","internalType":"uint256"},{"name":"_swapQuantity","type":"uint128","internalType":"uint128"},{"name":"_limitPrice","type":"uint256","internalType":"uint256"},{"name":"_istotal","type":"bool","internalType":"bool"}],"outputs":[{"name":"goodid2Quantity_","type":"uint128","internalType":"uint128"},{"name":"goodid2FeeQuantity_","type":"uint128","internalType":"uint128"}],"stateMutability":"payable"},{"type":"function","name":"buyGoodForPay","inputs":[{"name":"_goodid1","type":"uint256","internalType":"uint256"},{"name":"_goodid2","type":"uint256","internalType":"uint256"},{"name":"_swapQuantity","type":"uint128","internalType":"uint128"},{"name":"_limitPrice","type":"uint256","internalType":"uint256"},{"name":"_recipent","type":"address","internalType":"address"}],"outputs":[{"name":"goodid1Quantity_","type":"uint128","internalType":"uint128"},{"name":"goodid1FeeQuantity_","type":"uint128","internalType":"uint128"}],"stateMutability":"payable"},{"type":"function","name":"changeGoodOwner","inputs":[{"name":"_goodid","type":"uint256","internalType":"uint256"},{"name":"_to","type":"address","internalType":"address"}],"outputs":[{"name":"","type":"bool","internalType":"bool"}],"stateMutability":"nonpayable"},{"type":"function","name":"collectProofFee","inputs":[{"name":"_proofid","type":"uint256","internalType":"uint256"},{"name":"_gater","type":"address","internalType":"address"},{"name":"_referal","type":"address","internalType":"address"}],"outputs":[{"name":"profit_","type":"uint256","internalType":"T_BalanceUINT256"}],"stateMutability":"nonpayable"},{"type":"function","name":"collectProtocolFee","inputs":[{"name":"_goodid","type":"uint256","internalType":"uint256"}],"outputs":[{"name":"feeamount","type":"uint256","internalType":"uint256"}],"stateMutability":"nonpayable"},{"type":"function","name":"disinvestProof","inputs":[{"name":"_proofid","type":"uint256","internalType":"uint256"},{"name":"_goodQuantity","type":"uint128","internalType":"uint128"},{"name":"_gater","type":"address","internalType":"address"},{"name":"_referal","type":"address","internalType":"address"}],"outputs":[{"name":"","type":"bool","internalType":"bool"}],"stateMutability":"nonpayable"},{"type":"function","name":"eip712Domain","inputs":[],"outputs":[{"name":"fields","type":"bytes1","internalType":"bytes1"},{"name":"name","type":"string","internalType":"string"},{"name":"version","type":"string","internalType":"string"},{"name":"chainId","type":"uint256","internalType":"uint256"},{"name":"verifyingContract","type":"address","internalType":"address"},{"name":"salt","type":"bytes32","internalType":"bytes32"},{"name":"extensions","type":"uint256[]","internalType":"uint256[]"}],"stateMutability":"view"},{"type":"function","name":"enpower","inputs":[{"name":"goodkey","type":"uint256","internalType":"uint256"},{"name":"valuegood","type":"uint256","internalType":"uint256"},{"name":"quantity","type":"uint128","internalType":"uint128"}],"outputs":[{"name":"","type":"bool","internalType":"bool"}],"stateMutability":"payable"},{"type":"function","name":"getApproved","inputs":[{"name":"tokenId","type":"uint256","internalType":"uint256"}],"outputs":[{"name":"","type":"address","internalType":"address"}],"stateMutability":"view"},{"type":"function","name":"getGoodState","inputs":[{"name":"goodkey","type":"uint256","internalType":"uint256"}],"outputs":[{"name":"gooddetail","type":"tuple","internalType":"struct L_Good.S_GoodTmpState","components":[{"name":"goodConfig","type":"uint256","internalType":"uint256"},{"name":"owner","type":"address","internalType":"address"},{"name":"erc20address","type":"address","internalType":"address"},{"name":"currentState","type":"uint256","internalType":"T_BalanceUINT256"},{"name":"investState","type":"uint256","internalType":"T_BalanceUINT256"},{"name":"feeQunitityState","type":"uint256","internalType":"T_BalanceUINT256"}]}],"stateMutability":"view"},{"type":"function","name":"getProofState","inputs":[{"name":"proofid","type":"uint256","internalType":"uint256"}],"outputs":[{"name":"_proof","type":"tuple","internalType":"struct L_Proof.S_ProofState","components":[{"name":"currentgood","type":"uint256","internalType":"uint256"},{"name":"valuegood","type":"uint256","internalType":"uint256"},{"name":"state","type":"uint256","internalType":"T_BalanceUINT256"},{"name":"invest","type":"uint256","internalType":"T_BalanceUINT256"},{"name":"valueinvest","type":"uint256","internalType":"T_BalanceUINT256"},{"name":"beneficiary","type":"address","internalType":"address"}]}],"stateMutability":"view"},{"type":"function","name":"goodNum","inputs":[],"outputs":[{"name":"","type":"uint256","internalType":"uint256"}],"stateMutability":"view"},{"type":"function","name":"goodWelfare","inputs":[{"name":"goodid","type":"uint256","internalType":"uint256"},{"name":"welfare","type":"uint128","internalType":"uint128"}],"outputs":[],"stateMutability":"payable"},{"type":"function","name":"initGood","inputs":[{"name":"_valuegood","type":"uint256","internalType":"uint256"},{"name":"_initial","type":"uint256","internalType":"T_BalanceUINT256"},{"name":"_erc20address","type":"address","internalType":"address"},{"name":"_goodConfig","type":"uint256","internalType":"uint256"}],"outputs":[{"name":"","type":"bool","internalType":"bool"}],"stateMutability":"payable"},{"type":"function","name":"initMetaGood","inputs":[{"name":"_erc20address","type":"address","internalType":"address"},{"name":"_initial","type":"uint256","internalType":"T_BalanceUINT256"},{"name":"_goodConfig","type":"uint256","internalType":"uint256"}],"outputs":[{"name":"","type":"bool","internalType":"bool"}],"stateMutability":"payable"},{"type":"function","name":"investGood","inputs":[{"name":"_togood","type":"uint256","internalType":"uint256"},{"name":"_valuegood","type":"uint256","internalType":"uint256"},{"name":"_quantity","type":"uint128","internalType":"uint128"}],"outputs":[{"name":"","type":"bool","internalType":"bool"}],"stateMutability":"payable"},{"type":"function","name":"isApprovedForAll","inputs":[{"name":"owner","type":"address","internalType":"address"},{"name":"operator","type":"address","internalType":"address"}],"outputs":[{"name":"","type":"bool","internalType":"bool"}],"stateMutability":"view"},{"type":"function","name":"marketconfig","inputs":[],"outputs":[{"name":"","type":"uint256","internalType":"uint256"}],"stateMutability":"view"},{"type":"function","name":"marketcreator","inputs":[],"outputs":[{"name":"","type":"address","internalType":"address"}],"stateMutability":"view"},{"type":"function","name":"multicall","inputs":[{"name":"data","type":"bytes[]","internalType":"bytes[]"}],"outputs":[{"name":"results","type":"bytes[]","internalType":"bytes[]"}],"stateMutability":"payable"},{"type":"function","name":"name","inputs":[],"outputs":[{"name":"","type":"string","internalType":"string"}],"stateMutability":"view"},{"type":"function","name":"nonces","inputs":[{"name":"tokenId","type":"uint256","internalType":"uint256"}],"outputs":[{"name":"","type":"uint256","internalType":"uint256"}],"stateMutability":"view"},{"type":"function","name":"ownerOf","inputs":[{"name":"tokenId","type":"uint256","internalType":"uint256"}],"outputs":[{"name":"","type":"address","internalType":"address"}],"stateMutability":"view"},{"type":"function","name":"payGood","inputs":[{"name":"_goodid","type":"uint256","internalType":"uint256"},{"name":"_payquanity","type":"uint256","internalType":"uint256"},{"name":"_recipent","type":"address","internalType":"address"}],"outputs":[{"name":"","type":"bool","internalType":"bool"}],"stateMutability":"payable"},{"type":"function","name":"permit","inputs":[{"name":"spender","type":"address","internalType":"address"},{"name":"tokenId","type":"uint256","internalType":"uint256"},{"name":"deadline","type":"uint256","internalType":"uint256"},{"name":"signature","type":"bytes","internalType":"bytes"}],"outputs":[],"stateMutability":"nonpayable"},{"type":"function","name":"proofmapping","inputs":[{"name":"","type":"uint256","internalType":"uint256"}],"outputs":[{"name":"","type":"uint256","internalType":"uint256"}],"stateMutability":"view"},{"type":"function","name":"referals","inputs":[{"name":"","type":"address","internalType":"address"}],"outputs":[{"name":"","type":"address","internalType":"address"}],"stateMutability":"view"},{"type":"function","name":"removebanlist","inputs":[{"name":"_user","type":"address","internalType":"address"}],"outputs":[{"name":"","type":"bool","internalType":"bool"}],"stateMutability":"nonpayable"},{"type":"function","name":"safeTransferFrom","inputs":[{"name":"from","type":"address","internalType":"address"},{"name":"to","type":"address","internalType":"address"},{"name":"tokenId","type":"uint256","internalType":"uint256"}],"outputs":[],"stateMutability":"nonpayable"},{"type":"function","name":"safeTransferFrom","inputs":[{"name":"from","type":"address","internalType":"address"},{"name":"to","type":"address","internalType":"address"},{"name":"proofid","type":"uint256","internalType":"uint256"},{"name":"data","type":"bytes","internalType":"bytes"}],"outputs":[],"stateMutability":"nonpayable"},{"type":"function","name":"safeTransferFromWithPermit","inputs":[{"name":"from","type":"address","internalType":"address"},{"name":"to","type":"address","internalType":"address"},{"name":"tokenId","type":"uint256","internalType":"uint256"},{"name":"_data","type":"bytes","internalType":"bytes"},{"name":"deadline","type":"uint256","internalType":"uint256"},{"name":"signature","type":"bytes","internalType":"bytes"}],"outputs":[],"stateMutability":"nonpayable"},{"type":"function","name":"setApprovalForAll","inputs":[{"name":"operator","type":"address","internalType":"address"},{"name":"approved","type":"bool","internalType":"bool"}],"outputs":[],"stateMutability":"nonpayable"},{"type":"function","name":"setMarketConfig","inputs":[{"name":"_marketconfig","type":"uint256","internalType":"uint256"}],"outputs":[{"name":"","type":"bool","internalType":"bool"}],"stateMutability":"nonpayable"},{"type":"function","name":"supportsInterface","inputs":[{"name":"interfaceId","type":"bytes4","internalType":"bytes4"}],"outputs":[{"name":"","type":"bool","internalType":"bool"}],"stateMutability":"view"},{"type":"function","name":"symbol","inputs":[],"outputs":[{"name":"","type":"string","internalType":"string"}],"stateMutability":"view"},{"type":"function","name":"tokenURI","inputs":[{"name":"tokenId","type":"uint256","internalType":"uint256"}],"outputs":[{"name":"","type":"string","internalType":"string"}],"stateMutability":"view"},{"type":"function","name":"totalSupply","inputs":[],"outputs":[{"name":"","type":"uint256","internalType":"uint256"}],"stateMutability":"view"},{"type":"function","name":"transferFrom","inputs":[{"name":"from","type":"address","internalType":"address"},{"name":"to","type":"address","internalType":"address"},{"name":"proofid","type":"uint256","internalType":"uint256"}],"outputs":[],"stateMutability":"nonpayable"},{"type":"function","name":"updateGoodConfig","inputs":[{"name":"_goodid","type":"uint256","internalType":"uint256"},{"name":"_goodConfig","type":"uint256","internalType":"uint256"}],"outputs":[{"name":"","type":"bool","internalType":"bool"}],"stateMutability":"nonpayable"},{"type":"function","name":"updatetoNormalGood","inputs":[{"name":"_goodid","type":"uint256","internalType":"uint256"}],"outputs":[{"name":"","type":"bool","internalType":"bool"}],"stateMutability":"nonpayable"},{"type":"function","name":"updatetoValueGood","inputs":[{"name":"_goodid","type":"uint256","internalType":"uint256"}],"outputs":[{"name":"","type":"bool","internalType":"bool"}],"stateMutability":"nonpayable"},{"type":"event","name":"Approval","inputs":[{"name":"owner","type":"address","indexed":true,"internalType":"address"},{"name":"approved","type":"address","indexed":true,"internalType":"address"},{"name":"tokenId","type":"uint256","indexed":true,"internalType":"uint256"}],"anonymous":false},{"type":"event","name":"ApprovalForAll","inputs":[{"name":"owner","type":"address","indexed":true,"internalType":"address"},{"name":"operator","type":"address","indexed":true,"internalType":"address"},{"name":"approved","type":"bool","indexed":false,"internalType":"bool"}],"anonymous":false},{"type":"event","name":"EIP712DomainChanged","inputs":[],"anonymous":false},{"type":"event","name":"Transfer","inputs":[{"name":"from","type":"address","indexed":true,"internalType":"address"},{"name":"to","type":"address","indexed":true,"internalType":"address"},{"name":"tokenId","type":"uint256","indexed":true,"internalType":"uint256"}],"anonymous":false},{"type":"event","name":"e_addbanlist","inputs":[{"name":"_user","type":"address","indexed":false,"internalType":"address"}],"anonymous":false},{"type":"event","name":"e_addreferal","inputs":[{"name":"referals","type":"address","indexed":false,"internalType":"address"}],"anonymous":false},{"type":"event","name":"e_buyGood","inputs":[{"name":"sellgood","type":"uint256","indexed":true,"internalType":"uint256"},{"name":"forgood","type":"uint256","indexed":true,"internalType":"uint256"},{"name":"fromer","type":"address","indexed":false,"internalType":"address"},{"name":"swapvalue","type":"uint128","indexed":false,"internalType":"uint128"},{"name":"sellgoodstate","type":"uint256","indexed":false,"internalType":"T_BalanceUINT256"},{"name":"forgoodstate","type":"uint256","indexed":false,"internalType":"T_BalanceUINT256"}],"anonymous":false},{"type":"event","name":"e_buyGoodForPay","inputs":[{"name":"buygood","type":"uint256","indexed":true,"internalType":"uint256"},{"name":"usegood","type":"uint256","indexed":true,"internalType":"uint256"},{"name":"fromer","type":"address","indexed":false,"internalType":"address"},{"name":"receipt","type":"address","indexed":false,"internalType":"address"},{"name":"swapvalue","type":"uint128","indexed":false,"internalType":"uint128"},{"name":"buygoodstate","type":"uint256","indexed":false,"internalType":"T_BalanceUINT256"},{"name":"usegoodstate","type":"uint256","indexed":false,"internalType":"T_BalanceUINT256"}],"anonymous":false},{"type":"event","name":"e_changeOwner","inputs":[{"name":"_goodid","type":"uint256","indexed":true,"internalType":"uint256"},{"name":"_owner","type":"address","indexed":false,"internalType":"address"},{"name":"_to","type":"address","indexed":false,"internalType":"address"}],"anonymous":false},{"type":"event","name":"e_collectProofFee","inputs":[{"name":"_proofNo","type":"uint256","indexed":true,"internalType":"uint256"},{"name":"_normalGoodNo","type":"uint256","indexed":false,"internalType":"uint256"},{"name":"_valueGoodNo","type":"uint256","indexed":false,"internalType":"uint256"},{"name":"_profit","type":"uint256","indexed":false,"internalType":"T_BalanceUINT256"}],"anonymous":false},{"type":"event","name":"e_collectProtocolFee","inputs":[{"name":"goodid","type":"uint256","indexed":false,"internalType":"uint256"},{"name":"feeamount","type":"uint256","indexed":false,"internalType":"uint256"}],"anonymous":false},{"type":"event","name":"e_disinvestProof","inputs":[{"name":"_proofNo","type":"uint256","indexed":true,"internalType":"uint256"},{"name":"_normalGoodNo","type":"uint256","indexed":false,"internalType":"uint256"},{"name":"_valueGoodNo","type":"uint256","indexed":false,"internalType":"uint256"},{"name":"_normalgood","type":"uint256","indexed":false,"internalType":"T_BalanceUINT256"},{"name":"_valuegood","type":"uint256","indexed":false,"internalType":"T_BalanceUINT256"},{"name":"_profit","type":"uint256","indexed":false,"internalType":"T_BalanceUINT256"}],"anonymous":false},{"type":"event","name":"e_enpower","inputs":[{"name":"_goodid","type":"uint256","indexed":false,"internalType":"uint256"},{"name":"_valuegood","type":"uint256","indexed":false,"internalType":"uint256"},{"name":"_quantity","type":"uint256","indexed":false,"internalType":"uint256"},{"name":"_sender","type":"address","indexed":false,"internalType":"address"}],"anonymous":false},{"type":"event","name":"e_goodWelfare","inputs":[{"name":"goodid","type":"uint256","indexed":false,"internalType":"uint256"},{"name":"welfare","type":"uint128","indexed":false,"internalType":"uint128"}],"anonymous":false},{"type":"event","name":"e_initGood","inputs":[{"name":"_proofNo","type":"uint256","indexed":true,"internalType":"uint256"},{"name":"_normalgoodNo","type":"uint256","indexed":false,"internalType":"uint256"},{"name":"_valuegoodNo","type":"uint256","indexed":false,"internalType":"uint256"},{"name":"_erc20address","type":"address","indexed":false,"internalType":"address"},{"name":"_goodConfig","type":"uint256","indexed":false,"internalType":"uint256"},{"name":"_normalinitial","type":"uint256","indexed":false,"internalType":"T_BalanceUINT256"},{"name":"_value","type":"uint256","indexed":false,"internalType":"T_BalanceUINT256"}],"anonymous":false},{"type":"event","name":"e_initMetaGood","inputs":[{"name":"_proofNo","type":"uint256","indexed":true,"internalType":"uint256"},{"name":"_goodNo","type":"uint256","indexed":false,"internalType":"uint256"},{"name":"_erc20address","type":"address","indexed":false,"internalType":"address"},{"name":"_goodConfig","type":"uint256","indexed":false,"internalType":"uint256"},{"name":"_initial","type":"uint256","indexed":false,"internalType":"T_BalanceUINT256"}],"anonymous":false},{"type":"event","name":"e_investGood","inputs":[{"name":"_proofNo","type":"uint256","indexed":true,"internalType":"uint256"},{"name":"_normalGoodNo","type":"uint256","indexed":false,"internalType":"uint256"},{"name":"_valueGoodNo","type":"uint256","indexed":false,"internalType":"uint256"},{"name":"_invest","type":"uint256","indexed":false,"internalType":"T_BalanceUINT256"},{"name":"_valueinvest","type":"uint256","indexed":false,"internalType":"T_BalanceUINT256"}],"anonymous":false},{"type":"event","name":"e_removebanlist","inputs":[{"name":"_user","type":"address","indexed":false,"internalType":"address"}],"anonymous":false},{"type":"event","name":"e_setMarketConfig","inputs":[{"name":"_marketconfig","type":"uint256","indexed":false,"internalType":"uint256"}],"anonymous":false},{"type":"event","name":"e_updateGoodConfig","inputs":[{"name":"_goodid","type":"uint256","indexed":false,"internalType":"uint256"},{"name":"_goodConfig","type":"uint256","indexed":false,"internalType":"uint256"}],"anonymous":false},{"type":"event","name":"e_updatetoNormalGood","inputs":[{"name":"_goodid","type":"uint256","indexed":false,"internalType":"uint256"}],"anonymous":false},{"type":"event","name":"e_updatetoValueGood","inputs":[{"name":"_goodid","type":"uint256","indexed":false,"internalType":"uint256"}],"anonymous":false},{"type":"error","name":"ERC20TransferFailed","inputs":[]},{"type":"error","name":"InvalidShortString","inputs":[]},{"type":"error","name":"NativeTransferFailed","inputs":[]},{"type":"error","name":"StringTooLong","inputs":[{"name":"str","type":"string","internalType":"string"}]},{"type":"error","name":"err_total","inputs":[]}],"bytecode":{"object":"0x6101806040527f49ecf333e5b8c95c40fdafc95c1ad136e8914a8fb55e9dc8bb01eaa83a2df9ad61016052348015610035575f80fd5b5060405161671138038061671183398101604081905261005491610218565b604080518082018252600780825266151514c813919560ca1b60208084019190915283518085018552600381526254545360e81b81830152845180860190955260018552603160f81b91850191909152600280546001600160a01b0319166001600160a01b0388161790555f85905591928391829084906100d583826102e7565b5060086100e282826102e7565b506100f29150839050600d6101a0565b6101205261010181600e6101a0565b61014052815160208084019190912060e052815190820120610100524660a05261018d60e05161010051604080517f8b73c3c69bb8fe3d512ecc4cf759cc79239f7b179b0ffacaa9a75d522b39400f60208201529081019290925260608201524660808201523060a08201525f9060c00160405160208183030381529060405280519060200120905090565b60805250503060c052506103f992505050565b5f6020835110156101bb576101b4836101d2565b90506101cc565b816101c684826102e7565b5060ff90505b92915050565b5f80829050601f81511115610205578260405163305a27a960e01b81526004016101fc91906103a1565b60405180910390fd5b8051610210826103d6565b179392505050565b5f8060408385031215610229575f80fd5b82516001600160a01b038116811461023f575f80fd5b6020939093015192949293505050565b634e487b7160e01b5f52604160045260245ffd5b600181811c9082168061027757607f821691505b60208210810361029557634e487b7160e01b5f52602260045260245ffd5b50919050565b601f8211156102e257805f5260205f20601f840160051c810160208510156102c05750805b601f840160051c820191505b818110156102df575f81556001016102cc565b50505b505050565b81516001600160401b038111156103005761030061024f565b6103148161030e8454610263565b8461029b565b6020601f821160018114610346575f831561032f5750848201515b5f19600385901b1c1916600184901b1784556102df565b5f84815260208120601f198516915b828110156103755787850151825560209485019460019092019101610355565b508482101561039257868401515f19600387901b60f8161c191681555b50505050600190811b01905550565b602081525f82518060208401528060208501604085015e5f604082850101526040601f19601f83011684010191505092915050565b80516020808301519190811015610295575f1960209190910360031b1b16919050565b60805160a05160c05160e051610100516101205161014051610160516162bd6104545f395f613a0401525f61219601525f61216b01525f613c0201525f613bda01525f613b3501525f613b5f01525f613b8901526162bd5ff3fe6080604052600436106102ed575f3560e01c806345818e4c1161018657806395d89b41116100dc578063ac9650d811610087578063c87b56dd11610062578063c87b56dd146108e3578063e985e9c514610902578063f44733ad14610949575f80fd5b8063ac9650d814610885578063b153b920146108a5578063b88d4fde146108c4575f80fd5b8063a22cb465116100b7578063a22cb465146107d7578063a6f6a980146107f6578063a7e1169714610872575f80fd5b806395d89b411461077c57806397924ead14610790578063a128fcf2146107a3575f80fd5b806370a082311161013c57806384b0196e1161011757806384b0196e14610723578063920acbb81461074a5780639551177a1461075d575f80fd5b806370a08231146106c6578063745a41bc146106e55780637f0a826514610704575f80fd5b80635a5da4dd1161016c5780635a5da4dd146106675780635e008cc41461067c5780636352211e146106a7575f80fd5b806345818e4c146106355780634ffef90714610654575f80fd5b806318ad50d1116102465780632a7c5a91116101f15780633f117740116101cc5780633f1177401461058f578063402f5ab51461060257806342842e0e14610616575f80fd5b80632a7c5a911461053d5780633644e5151461055c5780633d99517314610570575f80fd5b806323b872dd1161022157806323b872dd146104d457806324744d54146104f35780632973ada714610512575f80fd5b806318ad50d11461046f5780631eccc39b146104825780631ed7ca1d146104b5575f80fd5b80630a25dcff116102a6578063144aeb8311610281578063144aeb8314610428578063167639861461044757806318160ddd1461045a575f80fd5b80630a25dcff146103cb578063141a468c146103ea57806314484e1014610409575f80fd5b806306fdde03116102d657806306fdde0314610352578063081812fc14610373578063095ea7b3146103aa575f80fd5b806301ffc9a7146102f15780630292eb4a14610325575b5f80fd5b3480156102fc575f80fd5b5061031061030b3660046158a6565b61095c565b60405190151581526020015b60405180910390f35b348015610330575f80fd5b5061034461033f3660046158c1565b610986565b60405190815260200161031c565b34801561035d575f80fd5b50610366610a2a565b60405161031c9190615906565b34801561037e575f80fd5b5061039261038d3660046158c1565b610aba565b6040516001600160a01b03909116815260200161031c565b3480156103b5575f80fd5b506103c96103c4366004615933565b610adf565b005b3480156103d6575f80fd5b506103106103e53660046158c1565b610bf8565b3480156103f5575f80fd5b506103446104043660046158c1565b610c8c565b348015610414575f80fd5b506103106104233660046158c1565b610c9f565b348015610433575f80fd5b5061031061044236600461595b565b610d27565b610310610455366004615991565b610dce565b348015610465575f80fd5b5061034460105481565b6103c961047d3660046159c3565b610f66565b6104956104903660046159fc565b611071565b604080516001600160801b0393841681529290911660208301520161031c565b3480156104c0575f80fd5b506103446104cf366004615a48565b6112f7565b3480156104df575f80fd5b506103c96104ee366004615a78565b611571565b3480156104fe575f80fd5b506103c961050d366004615b70565b611778565b34801561051d575f80fd5b5061034461052c366004615c06565b60056020525f908152604090205481565b348015610548575f80fd5b50610310610557366004615c1f565b611798565b348015610567575f80fd5b5061034461180e565b34801561057b575f80fd5b50600254610392906001600160a01b031681565b34801561059a575f80fd5b506105ae6105a93660046158c1565b61181c565b60405161031c91905f60c08201905082518252602083015160208301526040830151604083015260608301516060830152608083015160808301526001600160a01b0360a08401511660a083015292915050565b34801561060d575f80fd5b506103445f5481565b348015610621575f80fd5b506103c9610630366004615a78565b6118b9565b348015610640575f80fd5b5061031061064f3660046158c1565b6118d3565b610310610662366004615c40565b611949565b348015610672575f80fd5b5061034460015481565b348015610687575f80fd5b506103446106963660046158c1565b60126020525f908152604090205481565b3480156106b2575f80fd5b506103926106c13660046158c1565b611cff565b3480156106d1575f80fd5b506103446106e0366004615c06565b611d63565b3480156106f0575f80fd5b506103c96106ff366004615c7a565b611dfb565b34801561070f575f80fd5b5061031061071e366004615cd7565b611e0d565b34801561072e575f80fd5b5061073761215e565b60405161031c9796959493929190615d21565b610310610758366004615db7565b6121e5565b348015610768575f80fd5b50610310610777366004615c06565b612214565b348015610787575f80fd5b506103666122a0565b61031061079e366004615de0565b6122af565b3480156107ae575f80fd5b506103926107bd366004615c06565b60066020525f90815260409020546001600160a01b031681565b3480156107e2575f80fd5b506103c96107f1366004615e10565b6124a1565b348015610801575f80fd5b506108156108103660046158c1565b6124b0565b60405161031c91905f60c082019050825182526001600160a01b0360208401511660208301526001600160a01b036040840151166040830152606083015160608301526080830151608083015260a083015160a083015292915050565b610495610880366004615e38565b612551565b610898610893366004615e78565b6127b9565b60405161031c9190615ee9565b3480156108b0575f80fd5b506103106108bf366004615c06565b612900565b3480156108cf575f80fd5b506103c96108de366004615f4c565b61298e565b3480156108ee575f80fd5b506103666108fd3660046158c1565b612b97565b34801561090d575f80fd5b5061031061091c366004615f98565b6001600160a01b039182165f908152600c6020908152604080832093909416825291909152205460ff1690565b610310610957366004615991565b612bfb565b5f6001600160e01b03198216635604e22560e01b1480610980575061098082612f99565b92915050565b5f8181526003602081815260408084203380865260068201845291852080546fffffffffffffffffffffffffffffffff19811690915594869052929091526002909101546001600160801b03909216916109ec916001600160a01b039091169083612fe8565b60408051838152602081018390527fe5b56551be531c17d0c26ed5b513b4756c152f2ec216bd76db42f90ad317513a910160405180910390a1919050565b606060078054610a3990615fc0565b80601f0160208091040260200160405190810160405280929190818152602001828054610a6590615fc0565b8015610ab05780601f10610a8757610100808354040283529160200191610ab0565b820191905f5260205f20905b815481529060010190602001808311610a9357829003601f168201915b5050505050905090565b5f610ac48261307a565b505f908152600b60205260409020546001600160a01b031690565b5f610ae982611cff565b9050806001600160a01b0316836001600160a01b031603610b5b5760405162461bcd60e51b815260206004820152602160248201527f4552433732313a20617070726f76616c20746f2063757272656e74206f776e656044820152603960f91b60648201526084015b60405180910390fd5b336001600160a01b0382161480610b775750610b77813361091c565b610be95760405162461bcd60e51b815260206004820152603d60248201527f4552433732313a20617070726f76652063616c6c6572206973206e6f7420746f60448201527f6b656e206f776e6572206f7220617070726f76656420666f7220616c6c0000006064820152608401610b52565b610bf383836130e0565b505050565b6002545f906001600160a01b03163314610c3a5760405162461bcd60e51b815260206004820152600360248201526223981960e91b6044820152606401610b52565b5f828152600360205260409020610c509061314d565b6040518281527f0a838ff9b50f80fde9fe2adbd3d7722a295d5dca4efb862809ffc0c96449676a906020015b60405180910390a1506001919050565b5f818152600f6020526040812054610980565b6002545f906001600160a01b03163314610ce15760405162461bcd60e51b815260206004820152600360248201526223981960e91b6044820152606401610b52565b5f828152600360205260409020610cf7906131ad565b6040518281527f6a4f4670c5457b20fe7a61d9e026a5137a927eef5fa719db8702fafad694b39390602001610c7c565b5f828152600360205260408120600101546001600160a01b03163314610d755760405162461bcd60e51b815260206004820152600360248201526211cc0d60ea1b6044820152606401610b52565b5f838152600360205260409020610d8c90836131fc565b60408051848152602081018490527fc360eef79f1e7d7e7564e3cd446a9839f5a632a38a4d34b507c08e1ceef46147910160405180910390a150600192915050565b5f6004545f14610e065760405162461bcd60e51b815260206004820152600360248201526247303160e81b6044820152606401610b52565b60016004555f83815260036020526040902054610e229061321b565b610e535760405162461bcd60e51b8152602060048201526002602482015261269960f11b6044820152606401610b52565b5f83815260036020526040902060020154610e81906001600160a01b0316336001600160801b038516613238565b5f83815260036020819052604082200154610e9c90846132de565b5f8581526003602081905260409091200154909150610ec9906001600160801b038516613353565b613353565b5f8581526003602081905260408083208201939093558782529190200154610ef590608083901b613353565b5f868152600360208181526040928390209091019290925580518781529182018690526001600160801b03851682820152336060830152517f5b85f3145546d3198a678943b90fc02170cb5b5b03d3819e92fe2997ebae79a79181900360800190a150505f60045550600192915050565b60045415610f9c5760405162461bcd60e51b815260206004820152600360248201526247303160e81b6044820152606401610b52565b60016004555f828152600360205260409020600501546d200000000000000000000000000090610fd090839060801c61600c565b6001600160801b0316111561100d5760405162461bcd60e51b815260206004820152600360248201526223981b60e91b6044820152606401610b52565b5f8281526003602052604090206002015461103b906001600160a01b0316336001600160801b038416613238565b5f8281526003602052604090206005015461105a90608083901b613353565b5f9283526003602052604083206005015550600455565b5f806004545f146110aa5760405162461bcd60e51b815260206004820152600360248201526247303160e81b6044820152606401610b52565b600160045560408051610100810182526001600160801b03871681525f6020808301829052828401829052606083018290528a825260038082528483208082015460808601525460a08501528a83528082529382208085015460c0850152918a905292909252905460e0820152611121818661337f565b9050600184151514801561113e575080516001600160801b031615155b1561115c57604051632af75bb760e11b815260040160405180910390fd5b6020808201515f898152600390925260409091205461118f916001600160801b031661271060e99290921c607f16020490565b91508181602001516111a1919061602b565b60808201516040808401515f8c81526003602052919091209295506111c79291906136c1565b60c08101515f8881526003602052604090206111e391846136c1565b805161121f9033906111f5908961602b565b5f8b8152600360205260409020600201546001600160a01b031691906001600160801b0316613238565b5f8781526003602052604090206002015461124d906001600160a01b0316336001600160801b038616612fe8565b86887fa79c43e220b5faf022716b06e757294b799a25f33d3c8b0121e614f7b5d988c43384606001516112a0865f01518c611288919061602b565b60408801516001600160801b031660809190911b1790565b6001600160801b03881660808a901b17604080516001600160a01b0390951685526001600160801b0390931660208501529183015260608201526080015b60405180910390a3505f60045590969095509350505050565b5f6004545f1461132f5760405162461bcd60e51b815260206004820152600360248201526247303160e81b6044820152606401610b52565b600160045561133e33856136e8565b8061136157505f848152601160205260409020600501546001600160a01b031633145b6113935760405162461bcd60e51b81526020600482015260036024820152624d303960e81b6044820152606401610b52565b5f84815260116020908152604080832060018082015491546001600160a01b038916865260059094529190932054146113d7576002546001600160a01b03166113d9565b845b335f908152600660205260409020549095506001600160a01b031661142457335f90815260066020526040902080546001600160a01b0319166001600160a01b038616179055611475565b335f908152600660209081526040918290205491516001600160a01b0390921680835295507f7da361ef032ddb975b4fa950921c1ecb79041d004acea71333e2dac6ec917c98910160405180910390a15b836001600160a01b0316856001600160a01b03161461149457836114a1565b6002546001600160a01b03165b6001600160a01b0381165f908152600560205260409020549094506001146114d4576002546001600160a01b03166114d6565b835b5f8381526003602081815260408084208b8552601183528185208554600254898852959094529190942094985061151e94939290918a918a91906001600160a01b0316613764565b604080518381526020810185905290810182905290935086907f42940273b9cd0faecec79fb97b28fdc24d85cea57e8666a824928231126c052f9060600160405180910390a250505f6004559392505050565b61157b33826136e8565b6115dd5760405162461bcd60e51b815260206004820152602d60248201527f4552433732313a2063616c6c6572206973206e6f7420746f6b656e206f776e6560448201526c1c881bdc88185c1c1c9bdd9959609a1b6064820152608401610b52565b6115e8838383613850565b5f8181526011602081815260408084206005810180546001600160a01b031916905581516060810183526001600160a01b0389168152815481850152868652939092526001909101549082015261163e9061386f565b604080516060810182526001600160a01b03861681525f858152601160208181528483208054828601528884529190526001015492820192909252919250906116869061386f565b5f81815260126020526040812054919250036116b6575f828152601260205260408082205483835291205561172a565b5f83815260116020818152604080842085855260128352818520548552929091529091206116e3916138bb565b5f838152601160205260408120818155600181018290556002810182905560038101829055600481019190915560050180546001600160a01b031916905561172a8361390d565b5f828152601260205260408082208290555184916001600160a01b0380881692908916917fddf252ad1be2c89b69c2b068fc378daa952ba7f163c4a11628f55a4df523b3ef91a45050505050565b6117843385848461399f565b6117908686868661298e565b505050505050565b6002545f906001600160a01b031633146117da5760405162461bcd60e51b815260206004820152600360248201526247303560e81b6044820152606401610b52565b505f828152600360205260409020600190810180546001600160a01b0384166001600160a01b031990911617905592915050565b5f611817613b29565b905090565b6118586040518060c001604052805f81526020015f81526020015f81526020015f81526020015f81526020015f6001600160a01b031681525090565b505f90815260116020908152604091829020825160c0810184528154815260018201549281019290925260028101549282019290925260038201546060820152600482015460808201526005909101546001600160a01b031660a082015290565b610bf383838360405180602001604052805f81525061298e565b6002545f906001600160a01b031633146119155760405162461bcd60e51b815260206004820152600360248201526223981960e91b6044820152606401610b52565b5f8290556040518281527fbd209961024f2694b0afb3c8badd20b6477abb77b336b16892c3fa4b906d323c90602001610c7c565b5f6004545f146119815760405162461bcd60e51b815260206004820152600360248201526247303160e81b6044820152606401610b52565b6001600455604080518082019091523381526001600160a01b03841660208201525f906119ad90613c52565b5f818152600360205260409020600101549091506001600160a01b03161580156119e957505f868152600360205260409020546119e99061321b565b611a1b5760405162461bcd60e51b815260206004820152600360248201526226981960e91b6044820152606401610b52565b611a4333611a298760801c90565b6001600160a01b03871691906001600160801b0316613238565b5f86815260036020526040902060020154611a71906001600160a01b0316336001600160801b038816613238565b5f868152600360205260408120611a889087613c82565b90506001805f828254611a9b919061604a565b92505081905550611b26611aca8260400151611ab78960801c90565b6001600160801b031660809190911b1790565b5f8481526003602052604090209087876003840183905560048401929092556001600160fc1b0390911682556002820180546001600160a01b039092166001600160a01b03199283161790556001909101805490911633179055565b600160105f828254611b38919061604a565b909155505060408051606081018252338152602081018490529081018890525f90611b629061386f565b6010545f828152601260205260409020819055909150611b83903390613dd0565b6040805160c081018252848152602081018a905283820151909182019060801b8152602001611bb65f611ab78b60801c90565b8152602001611bdd8460200151856060015160809190911b6001600160801b039091161790565b81525f60209182018190526010805482526011835260409182902084518155928401516001840155908301516002830155606083015160038301556080830151600483015560a090920151600590910180546001600160a01b03929092166001600160a01b0319909216919091179055547fd5b1190461e8b8cebdd658c8dd4f092c64be24d6dae8d80a4174dad7899a814e848a8989611c98611c808e60801c90565b60408a01516001600160801b031660809190911b1790565b885160608a01516001600160801b031660809190911b176040805196875260208701959095526001600160a01b03909316938501939093526060840152608083019190915260a082015260c00160405180910390a250505f60045550600195945050505050565b5f818152600960205260408120546001600160a01b0316806109805760405162461bcd60e51b815260206004820152601860248201527f4552433732313a20696e76616c696420746f6b656e20494400000000000000006044820152606401610b52565b5f6001600160a01b038216611de05760405162461bcd60e51b815260206004820152602960248201527f4552433732313a2061646472657373207a65726f206973206e6f74206120766160448201527f6c6964206f776e657200000000000000000000000000000000000000000000006064820152608401610b52565b506001600160a01b03165f908152600a602052604090205490565b611e078484848461399f565b50505050565b5f6004545f14611e455760405162461bcd60e51b815260206004820152600360248201526247303160e81b6044820152606401610b52565b6001600455611e5433866136e8565b611e865760405162461bcd60e51b81526020600482015260036024820152624d303560e81b6044820152606401610b52565b60408051606080820183525f8083526020808401829052838501829052845192830185528183528281018290528285018290528982526011815284822080546001918201546001600160a01b038b1685526005909352959092205493949293909114611efd576002546001600160a01b0316611eff565b865b335f908152600660205260409020549097506001600160a01b0316611f4a57335f90815260066020526040902080546001600160a01b0319166001600160a01b038816179055611f9b565b335f908152600660209081526040918290205491516001600160a01b0390921680835297507f7da361ef032ddb975b4fa950921c1ecb79041d004acea71333e2dac6ec917c98910160405180910390a15b856001600160a01b0316876001600160a01b031614611fba5785611fc7565b6002546001600160a01b03165b6001600160a01b0381165f90815260056020526040902054909650600114611ffa576002546001600160a01b0316611ffc565b855b95506120a460035f8381526020019081526020015f2060115f8c81526020019081526020015f206040518060a001604052808c6001600160801b031681526020018b6001600160a01b031681526020018a6001600160a01b031681526020015f54815260200160025f9054906101000a90046001600160a01b03166001600160a01b031681525060035f8781526020019081526020015f20613f58909392919063ffffffff16565b8094508195505050887f873170cbb945d9e0c4d7269b4b4ecac9684242d175cafda5c12b7cce181e268283836120f28860200151896040015160809190911b6001600160801b039091161790565b602088015160408901516001600160801b031660809190911b17895189516001600160801b031660809190911b17604080519586526020860194909452928401919091526060830152608082015260a00160405180910390a250505f6004555060019695505050505050565b5f606080828080836121917f0000000000000000000000000000000000000000000000000000000000000000600d61447a565b6121bc7f0000000000000000000000000000000000000000000000000000000000000000600e61447a565b604080515f80825260208201909252600f60f81b9b939a50919850469750309650945092509050565b5f8381526003602052604081206002015461220a906001600160a01b03168385612fe8565b5060019392505050565b6002545f906001600160a01b031633146122565760405162461bcd60e51b815260206004820152600360248201526223981960e91b6044820152606401610b52565b6001600160a01b0382165f8181526005602090815260408083209290925590519182527e4ba2ca448db089eb9fb0b25431f0d57664d46141171fed2476281b578d96d49101610c7c565b606060088054610a3990615fc0565b6002545f906001600160a01b0316331480156122cf57506122cf8261321b565b6123015760405162461bcd60e51b815260206004820152600360248201526223981960e91b6044820152606401610b52565b61230b3384611a29565b6001805f82825461231c919061604a565b9091555050604080518082019091523381526001600160a01b03851660208201525f9061234890613c52565b5f818152600360208190526040909120908101869055600481018690556001600160fc1b03851681556002810180546001600160a01b0389166001600160a01b031991821617909155600182018054909116331790559091506123aa9061314d565b600160105f8282546123bc919061604a565b909155505060408051606081018252338152602081018390525f9181018290526123e59061386f565b6010545f828152601260205260409020819055909150612406903390613dd0565b612442825f61241e6124188960801c90565b60801b90565b6124285f8a611ab7565b6010545f9081526011602052604081209493929190614523565b601054604080518481526001600160a01b0389166020820152908101869052606081018790527f9f234216268c7b4b9373c01c9d1cc757d055e68b6440edbaaf229c63a0313bc79060800160405180910390a250600195945050505050565b6124ac338383614591565b5050565b6124f56040518060c001604052805f81526020015f6001600160a01b031681526020015f6001600160a01b031681526020015f81526020015f81526020015f81525090565b5f8281526003602081815260408084208054865260018101546001600160a01b0390811687850152600282015416918601919091528083015460608601526004810154608086015294909252905260059091015460a082015290565b5f806004545f1461258a5760405162461bcd60e51b815260206004820152600360248201526247303160e81b6044820152606401610b52565b600160045560408051610100810182526001600160801b03871681525f6020808301829052828401829052606083018290528a825260038082528483208082015460808601525460a08501528a83528082529382208085015460c0850152918a905292909252905460e0820152612601818661465e565b80519091506001600160801b03161561262d57604051632af75bb760e11b815260040160405180910390fd5b6020808201515f8a81526003909252604090912054612660916001600160801b031661271060e29290921c607f16020490565b9150818160200151612672919061600c565b60c08201516040808401515f8b81526003602052919091209295506126989291906136c1565b60808101515f8981526003602052604090206126b491846136c1565b6126f2848260400151886126c8919061602b565b5f8a8152600360205260409020600201546001600160a01b031691906001600160801b0316612fe8565b5f88815260036020526040902060020154612720906001600160a01b0316336001600160801b038616613238565b86887f3de590341c976ea6fce618ef4a768a15441201ad3ed7c9b438d82c3951de7ced338785606001516127688c886040015160809190911b6001600160801b039091161790565b6001600160801b03891660808b901b17604080516001600160a01b0396871681529590941660208601526001600160801b03909216928401929092526060830191909152608082015260a0016112de565b60608167ffffffffffffffff8111156127d4576127d4615ab2565b60405190808252806020026020018201604052801561280757816020015b60608152602001906001900390816127f25790505b5090505f5b828110156128f9575f80308686858181106128295761282961605d565b905060200281019061283b9190616071565b6040516128499291906160b4565b5f60405180830381855af49150503d805f8114612881576040519150601f19603f3d011682016040523d82523d5f602084013e612886565b606091505b5091509150816128d15760448151101561289e575f80fd5b600481019050808060200190518101906128b891906160c3565b60405162461bcd60e51b8152600401610b529190615906565b808484815181106128e4576128e461605d565b6020908102919091010152505060010161280c565b5092915050565b6002545f906001600160a01b031633146129425760405162461bcd60e51b815260206004820152600360248201526223981960e91b6044820152606401610b52565b6001600160a01b0382165f818152600560209081526040918290206001905590519182527f8e1c2d1a5dce36a56a9dfcb96e5816e793c16d6c897b4e3c0b1f99588bb88a1c9101610c7c565b61299833836136e8565b6129fa5760405162461bcd60e51b815260206004820152602d60248201527f4552433732313a2063616c6c6572206973206e6f7420746f6b656e206f776e6560448201526c1c881bdc88185c1c1c9bdd9959609a1b6064820152608401610b52565b612a06848484846148c0565b5f8281526011602081815260408084206005810180546001600160a01b031916905581516060810183526001600160a01b038a1681528154818501528786529390925260019091015490820152612a5c9061386f565b604080516060810182526001600160a01b03871681525f86815260116020818152848320805482860152898452919052600101549282019290925291925090612aa49061386f565b5f8181526012602052604081205491925003612ad4575f8281526012602052604080822054838352912055612b48565b5f8481526011602081815260408084208585526012835281852054855292909152909120612b01916138bb565b5f848152601160205260408120818155600181018290556002810182905560038101829055600481019190915560050180546001600160a01b0319169055612b488461390d565b5f828152601260205260408082208290555185916001600160a01b0380891692908a16917fddf252ad1be2c89b69c2b068fc378daa952ba7f163c4a11628f55a4df523b3ef91a4505050505050565b6060612ba28261307a565b5f612bab614949565b90505f815111612bc95760405180602001604052805f815250612bf4565b80612bd384614969565b604051602001612be492919061614f565b6040516020818303038152906040525b9392505050565b5f6004545f14612c335760405162461bcd60e51b815260206004820152600360248201526247303160e81b6044820152606401610b52565b6001600455604080516080810182525f808252602082018190529181018290526060810191909152604080516080810182525f8082526020820181905291810182905260608101919091525f86815260036020819052604090912001546d2000000000000000000000000000908590612cac919061600c565b6001600160801b03161115612ce95760405162461bcd60e51b815260206004820152600360248201526226981960e91b6044820152606401610b52565b5f86815260036020526040902054612d009061321b565b80612d1d57505f85815260036020526040902054612d1d9061321b565b612d4f5760405162461bcd60e51b815260206004820152600360248201526226981960e91b6044820152606401610b52565b5f868152600360205260409020612d669085613c82565b5f87815260036020526040902060020154909250612d97906001600160a01b0316336001600160801b038716613238565b8415612e42576040808301515f8781526003602081905292902090910154612dbe91614a06565b6001600160801b0316606082018190525f8681526003602052604090205460f61c603f16612710908103909104026001600160801b0316606082018190525f86815260036020526040902060020154612e24916001600160a01b03909116903390613238565b60608101515f868152600360205260409020612e3f91613c82565b90505b5f612e6f6040518060600160405280336001600160a01b031681526020018981526020018881525061386f565b5f81815260126020526040812054919250819003612ec157600160105f828254612e99919061604a565b92505081905550612eac33601054613dd0565b506010545f8281526012602052604090208190555b6040840151612f1c908990899060801b602088015160608901516001600160801b031660809190911b17602088015160608901516001600160801b031660809190911b175f8781526011602052604090209493929190614523565b8351606080860151855186830151604080518e8152602081018e9052608096871b6001600160801b03958616178183015292861b9190931617928101929092525183927f2a59a1828d11dd251ec75ef5a760dad206f25439d13f166bedac3348f1998335928290030190a250505f60045550600195945050505050565b5f6001600160e01b031982166380ac58cd60e01b1480612fc957506001600160e01b03198216635b5e139f60e01b145b8061098057506301ffc9a760e01b6001600160e01b0319831614610980565b5f6001600160a01b038416613024575f805f8085875af190508061301f57604051633d2cec6f60e21b815260040160405180910390fd5b611e07565b60405163a9059cbb60e01b5f52836004528260245260205f60445f80895af13d15601f3d1160015f511416171691505f606052806040525080611e0757604051633c9fd93960e21b815260040160405180910390fd5b5f818152600960205260409020546001600160a01b03166130dd5760405162461bcd60e51b815260206004820152601860248201527f4552433732313a20696e76616c696420746f6b656e20494400000000000000006044820152606401610b52565b50565b5f818152600b6020526040902080546001600160a01b0319166001600160a01b038416908117909155819061311482611cff565b6001600160a01b03167f8c5be1e5ebec7d5bd14f71427d1e84f3dd0314c0f7b2291e5b200ac8c7c3b92560405160405180910390a45050565b80546131589061321b565b1561318e5760405162461bcd60e51b8152600401610b52906020808252600490820152634730303760e01b604082015260600190565b80546001600160ff1b03166131a781600160ff1b61604a565b90915550565b80546131b89061321b565b6131ed5760405162461bcd60e51b8152600401610b529060208082526004908201526308e6060760e31b604082015260600190565b80546001600160ff1b03169055565b81546001600160fc1b03909116906131a7908290600f60fc1b1661604a565b5f60ff82901c6001811461322f575f612bf4565b60019392505050565b5f306001600160a01b03851661326d5782341461326857604051633d2cec6f60e21b815260040160405180910390fd5b6132d7565b6040516323b872dd60e01b81526001600160a01b03851660048201526001600160a01b038216602482015283604482015260205f6064835f8a5af13d15601f3d1160015f5114161716925050816132d757604051633c9fd93960e21b815260040160405180910390fd5b5050505050565b5f826001600160801b03165f036132f657505f610980565b5f836001600160801b0316836001600160801b03166133158660801c90565b6001600160801b03166133289190616163565b613332919061618e565b90506001600160801b03811115613349575f61334b565b805b949350505050565b5f612bf46133618360801c90565b61336b8560801c90565b613375919061600c565b611ab7848661600c565b60408051610100810182525f80825260208201819052918101829052606081018290526080810182905260a0810182905260c0810182905260e0810191909152825160a08401515f9182916133e8916001600160801b031661271060e29290921c607f16020490565b6001600160801b0316604086018190528551869061340790839061602b565b6001600160801b03169052505b84516001600160801b03161580159061343b575061343b85608001518660c0015186614a4c565b156136295761345c6134518660c0015160801c90565b60e087015190614b1f565b6001600160801b0316613481613476876080015160801c90565b60a088015190614b1f565b6001600160801b031610156134b1576134ac6134a1866080015160801c90565b60a087015190614b1f565b6134c2565b6134c26134518660c0015160801c90565b60808601519092506134d49083614a06565b9050806001600160801b0316855f01516001600160801b031611156135865780855f01818151613504919061602b565b6001600160801b031690525060c085015161351f9083614a06565b85602001818151613530919061600c565b6001600160801b0390811690915260808781015161355b93509184169085901b17614b4e565b614b4e565b608086015260c085015161357c9061357784611ab78382614a06565b614b70565b60c0860152613606565b84516080860151613596916132de565b60c08601519092506135a89083614a06565b856020018181516135b9919061600c565b6001600160801b0390811690915260808781015188516135e194509092169085901b17614b4e565b608086015260c08501516135fd9061357784611ab78382614a06565b60c08601525f85525b8185606001818151613618919061600c565b6001600160801b0316905250613414565b84516001600160801b0316156136b857845160a086015161365e916001600160801b031661271060e29290921c607f16020490565b8560400181815161366f919061602b565b6001600160801b03908116909152865160a088015161369c9350911661271060e29290921c607f16020490565b855186906136ab90839061600c565b6001600160801b03169052505b50929392505050565b6003830182905560058301546136db90608083901b613353565b8360050181905550505050565b5f806136f383611cff565b9050806001600160a01b0316846001600160a01b0316148061373957506001600160a01b038082165f908152600c602090815260408083209388168352929052205460ff165b8061334b5750836001600160a01b031661375284610aba565b6001600160a01b031614949350505050565b5f80613774876003015460801c90565b6137a3613782896003015490565b61379d6137938d6005015460801c90565b60048e0154611ab7565b906132de565b6137ad919061602b565b90506137c58960050154610ec45f611ab78660801c90565b60058a01556137d8898286898988614b9c565b5f6137e7886004015460801c90565b6137f56137828a6004015490565b6137ff919061602b565b90506138148960050154610ec45f611ab78790565b60058a01556138278982878a8a89614b9c565b6001600160801b038116608083901b1792506138438884615050565b5050979650505050505050565b5f818152600f6020526040902080546001019055610bf3838383615086565b6040805182516001600160a01b0316602080830191909152830151818301529082015160608201525f906080015b60408051601f19818403018152919052805160209091012092915050565b6138cd82600201548260020154613353565b82600201819055506138e782600301548260030154613353565b826003018190555061390182600401548260040154613353565b82600401819055505050565b5f61391782611cff565b905061392282611cff565b5f838152600b6020908152604080832080546001600160a01b03199081169091556001600160a01b038516808552600a845282852080545f190190558785526009909352818420805490911690555192935084927fddf252ad1be2c89b69c2b068fc378daa952ba7f163c4a11628f55a4df523b3ef908390a45050565b814211156139ef5760405162461bcd60e51b815260206004820152601e60248201527f4552433732315065726d69743a206578706972656420646561646c696e6500006044820152606401610b52565b5f838152600f602090815260408083205481517f0000000000000000000000000000000000000000000000000000000000000000818501526001600160a01b0389168184015260608101889052608081019190915260a08082018790528251808303909101815260c0909101909152805191012090613a6d82615264565b90505f613a7a8285615290565b5090505f6001600160a01b03821615801590613a9b5750613a9b82886136e8565b90508080613ab75750613ab7613ab088611cff565b84876152d2565b80613ac95750613ac9613ab088610aba565b613b155760405162461bcd60e51b815260206004820152601f60248201527f4552433732315065726d69743a20696e76616c6964207369676e6174757265006044820152606401610b52565b613b1f88886130e0565b5050505050505050565b5f306001600160a01b037f000000000000000000000000000000000000000000000000000000000000000016148015613b8157507f000000000000000000000000000000000000000000000000000000000000000046145b15613bab57507f000000000000000000000000000000000000000000000000000000000000000090565b611817604080517f8b73c3c69bb8fe3d512ecc4cf759cc79239f7b179b0ffacaa9a75d522b39400f60208201527f0000000000000000000000000000000000000000000000000000000000000000918101919091527f000000000000000000000000000000000000000000000000000000000000000060608201524660808201523060a08201525f9060c00160405160208183030381529060405280519060200120905090565b5f8160405160200161389d919081516001600160a01b039081168252602092830151169181019190915260400190565b604080516080810182525f8082526020820181905291810182905260608101919091528254613cc6906001600160801b03841661271060f69290921c603f16020490565b6001600160801b0316808252613cdc908361602b565b6001600160801b0316606082018190526003840154613cfa916132de565b6001600160801b0316604082015260608101516005840154613d28919061379d9060801c6004870154611ab7565b6001600160801b03166020820181905260058401548251613d6992610ec491613d51919061600c565b60208501516001600160801b031660809190911b1790565b6005840155600383015460408201516060830151613d96929160801b6001600160801b0390911617613353565b6003840155600483015460408201516060830151613dc3929160801b6001600160801b0390911617613353565b6004909301929092555090565b6001600160a01b038216613e265760405162461bcd60e51b815260206004820181905260248201527f4552433732313a206d696e7420746f20746865207a65726f20616464726573736044820152606401610b52565b5f818152600960205260409020546001600160a01b031615613e8a5760405162461bcd60e51b815260206004820152601c60248201527f4552433732313a20746f6b656e20616c7265616479206d696e746564000000006044820152606401610b52565b5f818152600960205260409020546001600160a01b031615613eee5760405162461bcd60e51b815260206004820152601c60248201527f4552433732313a20746f6b656e20616c7265616479206d696e746564000000006044820152606401610b52565b6001600160a01b0382165f818152600a6020908152604080832080546001019055848352600990915280822080546001600160a01b0319168417905551839291907fddf252ad1be2c89b69c2b068fc378daa952ba7f163c4a11628f55a4df523b3ef908290a45050565b604080516060810182525f8082526020820181905291810191909152604080516060810182525f80825260208201819052918101919091528554613f9b9061321b565b80613fac57508454613fac9061321b565b613fde5760405162461bcd60e51b815260206004820152600360248201526204731360ec1b6044820152606401610b52565b5f614001845f015161379d613ff7886002015460801c90565b6003890154611ab7565b90506040518060600160405280614030865f015161379d6140268c6005015460801c90565b60048d0154611ab7565b6001600160801b03168152602001614060865f015161379d6140568a6003015460801c90565b60038b0154611ab7565b6001600160801b03168152602001855f01516001600160801b03168152509250614099614091886003015460801c90565b8854906153d8565b6001600160801b0316816001600160801b03161080156140da57506140c2614091886003015490565b6001600160801b0316845f01516001600160801b0316105b61410f5760405162461bcd60e51b8152600401610b52906020808252600490820152634730313160e01b604082015260600190565b6003870154604084015161413291906001600160801b0316608084901b176153fc565b60038801556004870154604084015161415a91906001600160801b0316608084901b176153fc565b6004880155600587015483516020850151614184929160801b6001600160801b03909116176153fc565b6005880155614193858261541e565b602083015183516141a4919061602b565b6001600160801b039081168452604084015188546141d09290911661271060f09290921c603f16020490565b83602001906001600160801b031690816001600160801b03168152505061420e87845f01518660600151876020015188604001518960800151614b9c565b60208301516001600160801b03161561423e5760058701546020840151614238919060801b613353565b60058801555b6001850154156144705760405180606001604052806142728361379d6142688b6005015460801c90565b60048c0154611ab7565b6001600160801b0316815260200161429f8361379d6142958a6004015460801c90565b60048b0154611ab7565b6001600160801b031681526020016142c8836142c26142958a6002015460801c90565b90614a06565b6001600160801b031681525091506142ef6142e7876003015460801c90565b8754906153d8565b6001600160801b0316816001600160801b031610801561433157506143186142e7876003015490565b6001600160801b031682604001516001600160801b0316105b6143665760405162461bcd60e51b8152600401610b52906020808252600490820152632398189960e11b604082015260600190565b6003860154604083015161438991906001600160801b0316608084901b176153fc565b6003870155600486015460408301516143b191906001600160801b0316608084901b176153fc565b60048701556005860154825160208401516143db929160801b6001600160801b03909116176153fc565b6005870155602082015182516143f1919061602b565b6001600160801b0390811683526040830151875461441d9290911661271060f09290921c603f16020490565b6001600160801b0316602083018190521561444f5760058601546020830151614449919060801b613353565b60058701555b61447086835f01518660600151876020015188604001518960800151614b9c565b5094509492505050565b606060ff83146144945761448d8361552c565b9050610980565b8180546144a090615fc0565b80601f01602080910402602001604051908101604052809291908181526020018280546144cc90615fc0565b80156145175780601f106144ee57610100808354040283529160200191614517565b820191905f5260205f20905b8154815290600101906020018083116144fa57829003601f168201915b50505050509050610980565b60038601546001600160801b03165f0361453b578486555b831561454957600186018490555b614557866002015484613353565b6002870155600386015461456b9083613353565b6003870155831561179057614584866004015482613353565b6004870155505050505050565b816001600160a01b0316836001600160a01b0316036145f25760405162461bcd60e51b815260206004820152601960248201527f4552433732313a20617070726f766520746f2063616c6c6572000000000000006044820152606401610b52565b6001600160a01b038381165f818152600c6020908152604080832094871680845294825291829020805460ff191686151590811790915591519182527f17307eab39ab6107e8899845ad3d59bd9653f200f220920489ca2b5937696c31910160405180910390a3505050565b60408051610100810182525f80825260208201819052918101829052606081018290526080810182905260a0810182905260c0810182905260e0810191909152825160e08401515f9182916146c7916001600160801b031661271060e99290921c607f16020490565b6001600160801b031660408601525b84516001600160801b0316158015906146fd57506146fd85608001518660c0015186614a4c565b156136b8576147136134518660c0015160801c90565b6001600160801b031661472d613476876080015160801c90565b6001600160801b031610156147525761474d6134a1866080015160801c90565b614763565b6147636134518660c0015160801c90565b60c08601519092506147759083614a06565b9050806001600160801b0316855f01516001600160801b0316111561481d5780855f018181516147a5919061602b565b6001600160801b031690525060808501516147c09083614a06565b856020018181516147d1919061600c565b6001600160801b0390811690915260c08701516147f79250908316608085901b17614b70565b60c086015260808501516148139061355684611ab78382614a06565b608086015261489d565b845160c086015161482d916132de565b608086015190925061483f9083614a06565b85602001818151614850919061600c565b6001600160801b0390811690915260c087015187516148789350909116608085901b17614b70565b60c086015260808501516148949061355684611ab78382614a06565b60808601525f85525b81856060018181516148af919061600c565b6001600160801b03169052506146d6565b6148cb848484613850565b6148d784848484615569565b611e075760405162461bcd60e51b815260206004820152603260248201527f4552433732313a207472616e7366657220746f206e6f6e20455243373231526560448201527f63656976657220696d706c656d656e74657200000000000000000000000000006064820152608401610b52565b606060405180606001604052806023815260200161626560239139905090565b60605f614975836156bc565b60010190505f8167ffffffffffffffff81111561499457614994615ab2565b6040519080825280601f01601f1916602001820160405280156149be576020820181803683370190505b5090508181016020015b5f19017f3031323334353637383961626364656600000000000000000000000000000000600a86061a8153600a85049450846149c857509392505050565b5f614a118360801c90565b6001600160801b03165f03614a2757505f610980565b5f614a328460801c90565b6001600160801b0316836001600160801b03166133158690565b5f614a578260801c90565b6001600160801b0316614a6a8460801c90565b6001600160801b0316856001600160801b0316614a879190616163565b614a919190616163565b826001600160801b0316846001600160801b0316614aaf8760801c90565b6001600160801b0316614ac29190616163565b614acc9190616163565b108015614b1257505f826001600160801b0316846001600160801b0316614af38760801c90565b6001600160801b0316614b069190616163565b614b109190616163565b115b61220a575f949350505050565b5f6103ff60d884901c16808203614b395782915050610980565b614b448160406161a1565b61334b90846161c3565b5f612bf4614b5c8360801c90565b614b668560801c90565b613375919061602b565b5f612bf4614b7e8360801c90565b614b888560801c90565b614b92919061600c565b611ab7848661602b565b60646001600160801b03861660dd86901c601f160204614bbc818761602b565b95505f806001600160a01b038516614d8f57606460fa88901c6001600160801b038a16020460028a0154909250614c06906001600160a01b0316336001600160801b038516612fe8565b6064603f60e289901c166001600160801b038a1602046064603f60f48a901c166001600160801b038b160204614c3c919061600c565b9050836001600160a01b0316866001600160a01b031603614c6857614c61818461600c565b9250614ca4565b6001600160a01b0386165f90815260068a016020526040902080546fffffffffffffffffffffffffffffffff19166001600160801b0383161790555b836001600160a01b0316856001600160a01b031603614ce35780614cc8838a61602b565b614cd2919061602b565b614cdc908461600c565b9250614d4f565b80614cee838a61602b565b614cf8919061602b565b6001600160a01b0386165f90815260068b01602052604081208054909190614d2a9084906001600160801b031661600c565b92506101000a8154816001600160801b0302191690836001600160801b031602179055505b6001600160a01b0384165f90815260068a016020526040902080546fffffffffffffffffffffffffffffffff19166001600160801b038516179055615045565b60018901546001600160a01b03808616911603614dcc57614dc560646001600160801b038a1660f48a901c603f1602048461600c565b9250614e3d565b6064603f60f489901c166001600160801b038a16020460018a01546001600160a01b03165f90815260068b01602052604081208054909190614e189084906001600160801b031661600c565b92506101000a8154816001600160801b0302191690836001600160801b031602179055505b836001600160a01b0316866001600160a01b031603614e7c57614e7560646001600160801b038a1660ee8a901c603f1602048461600c565b9250614ee9565b6064603f60ee89901c166001600160801b038a1602046001600160a01b0387165f90815260068b01602052604081208054909190614ec49084906001600160801b031661600c565b92506101000a8154816001600160801b0302191690836001600160801b031602179055505b836001600160a01b0316856001600160a01b031603614f2857614f2160646001600160801b038a1660e88a901c603f1602048461600c565b9250614f95565b6064603f60e889901c166001600160801b038a1602046001600160a01b0386165f90815260068b01602052604081208054909190614f709084906001600160801b031661600c565b92506101000a8154816001600160801b0302191690836001600160801b031602179055505b6001600160a01b0384165f90815260068a01602052604081208054859290614fc79084906001600160801b031661600c565b92506101000a8154816001600160801b0302191690836001600160801b031602179055506150453361500b8a6001600160801b03168a61579d90919063ffffffff16565b6150279060646001600160801b038d1660fa8d901c020461600c565b60028c01546001600160a01b031691906001600160801b0316612fe8565b505050505050505050565b6150658260030154610ec46124188460801c90565b60038301556001820154156124ac576139018260040154610ec46124188490565b826001600160a01b031661509982611cff565b6001600160a01b0316146150fd5760405162461bcd60e51b815260206004820152602560248201527f4552433732313a207472616e736665722066726f6d20696e636f72726563742060448201526437bbb732b960d91b6064820152608401610b52565b6001600160a01b03821661515f5760405162461bcd60e51b8152602060048201526024808201527f4552433732313a207472616e7366657220746f20746865207a65726f206164646044820152637265737360e01b6064820152608401610b52565b826001600160a01b031661517282611cff565b6001600160a01b0316146151d65760405162461bcd60e51b815260206004820152602560248201527f4552433732313a207472616e736665722066726f6d20696e636f72726563742060448201526437bbb732b960d91b6064820152608401610b52565b5f818152600b6020908152604080832080546001600160a01b03199081169091556001600160a01b03878116808652600a855283862080545f1901905590871680865283862080546001019055868652600990945282852080549092168417909155905184937fddf252ad1be2c89b69c2b068fc378daa952ba7f163c4a11628f55a4df523b3ef91a4505050565b5f610980615270613b29565b8360405161190160f01b8152600281019290925260228201526042902090565b5f8082516041036152c4576020830151604084015160608501515f1a6152b8878285856157ad565b945094505050506152cb565b505f905060025b9250929050565b5f805f856001600160a01b0316631626ba7e60e01b86866040516024016152fa9291906161f0565b60408051601f198184030181529181526020820180517bffffffffffffffffffffffffffffffffffffffffffffffffffffffff166001600160e01b031990941693909317909252905161534d9190616208565b5f60405180830381855afa9150503d805f8114615385576040519150601f19603f3d011682016040523d82523d5f602084013e61538a565b606091505b509150915081801561539d575080516020145b80156153ce57508051630b135d3f60e11b906153c29083016020908101908401616213565b6001600160e01b031916145b9695505050505050565b5f6103ff60ce84901c168082036153f25782915050610980565b61334b81846161c3565b5f612bf461540a8360801c90565b6154148560801c90565b614b92919061602b565b5f615492615463615433856003015460801c90565b6001600160801b0316846001600160801b0316615454876002015460801c90565b6001600160801b031691020490565b611ab7615471866003015490565b6001600160801b0316856001600160801b0316615454886002015460801c90565b90506154a28360030154826153fc565b600384015560018301541561550c575f6154f56154c6615471866004015460801c90565b611ab76154d4876004015490565b6001600160801b0316866001600160801b0316615454896002015460801c90565b90506155058460040154826153fc565b6004850155505b600283015461551f90608084901b6153fc565b8360020181905550505050565b60605f6155388361586a565b6040805160208082528183019092529192505f91906020820181803683375050509182525060208101929092525090565b5f6001600160a01b0384163b156156b157604051630a85bd0160e11b81526001600160a01b0385169063150b7a02906155ac90339089908890889060040161622e565b6020604051808303815f875af19250505080156155e6575060408051601f3d908101601f191682019092526155e391810190616213565b60015b615697573d808015615613576040519150601f19603f3d011682016040523d82523d5f602084013e615618565b606091505b5080515f0361568f5760405162461bcd60e51b815260206004820152603260248201527f4552433732313a207472616e7366657220746f206e6f6e20455243373231526560448201527f63656976657220696d706c656d656e74657200000000000000000000000000006064820152608401610b52565b805181602001fd5b6001600160e01b031916630a85bd0160e11b14905061334b565b506001949350505050565b5f807a184f03e93ff9f4daa797ed6e38ed64bf6a1f0100000000000000008310615704577a184f03e93ff9f4daa797ed6e38ed64bf6a1f010000000000000000830492506040015b6d04ee2d6d415b85acef81000000008310615730576d04ee2d6d415b85acef8100000000830492506020015b662386f26fc10000831061574e57662386f26fc10000830492506010015b6305f5e1008310615766576305f5e100830492506008015b612710831061577a57612710830492506004015b6064831061578c576064830492506002015b600a83106109805760010192915050565b606460e29290921c603f16020490565b5f807f7fffffffffffffffffffffffffffffff5d576e7357a4501ddfe92f46681b20a08311156157e257505f90506003615861565b604080515f8082526020820180845289905260ff881692820192909252606081018690526080810185905260019060a0016020604051602081039080840390855afa158015615833573d5f803e3d5ffd5b5050604051601f1901519150506001600160a01b03811661585b575f60019250925050615861565b91505f90505b94509492505050565b5f60ff8216601f81111561098057604051632cd44ac360e21b815260040160405180910390fd5b6001600160e01b0319811681146130dd575f80fd5b5f602082840312156158b6575f80fd5b813561334981615891565b5f602082840312156158d1575f80fd5b5035919050565b5f81518084528060208401602086015e5f602082860101526020601f19601f83011685010191505092915050565b602081525f612bf460208301846158d8565b80356001600160a01b038116811461592e575f80fd5b919050565b5f8060408385031215615944575f80fd5b61594d83615918565b946020939093013593505050565b5f806040838503121561596c575f80fd5b50508035926020909101359150565b80356001600160801b038116811461592e575f80fd5b5f805f606084860312156159a3575f80fd5b83359250602084013591506159ba6040850161597b565b90509250925092565b5f80604083850312156159d4575f80fd5b823591506159e46020840161597b565b90509250929050565b8035801515811461592e575f80fd5b5f805f805f60a08688031215615a10575f80fd5b8535945060208601359350615a276040870161597b565b925060608601359150615a3c608087016159ed565b90509295509295909350565b5f805f60608486031215615a5a575f80fd5b83359250615a6a60208501615918565b91506159ba60408501615918565b5f805f60608486031215615a8a575f80fd5b615a9384615918565b9250615aa160208501615918565b929592945050506040919091013590565b634e487b7160e01b5f52604160045260245ffd5b604051601f8201601f1916810167ffffffffffffffff81118282101715615aef57615aef615ab2565b604052919050565b5f67ffffffffffffffff821115615b1057615b10615ab2565b50601f01601f191660200190565b5f82601f830112615b2d575f80fd5b8135615b40615b3b82615af7565b615ac6565b818152846020838601011115615b54575f80fd5b816020850160208301375f918101602001919091529392505050565b5f805f805f8060c08789031215615b85575f80fd5b615b8e87615918565b9550615b9c60208801615918565b945060408701359350606087013567ffffffffffffffff811115615bbe575f80fd5b615bca89828a01615b1e565b9350506080870135915060a087013567ffffffffffffffff811115615bed575f80fd5b615bf989828a01615b1e565b9150509295509295509295565b5f60208284031215615c16575f80fd5b612bf482615918565b5f8060408385031215615c30575f80fd5b823591506159e460208401615918565b5f805f8060808587031215615c53575f80fd5b8435935060208501359250615c6a60408601615918565b9396929550929360600135925050565b5f805f8060808587031215615c8d575f80fd5b615c9685615918565b93506020850135925060408501359150606085013567ffffffffffffffff811115615cbf575f80fd5b615ccb87828801615b1e565b91505092959194509250565b5f805f8060808587031215615cea575f80fd5b84359350615cfa6020860161597b565b9250615d0860408601615918565b9150615d1660608601615918565b905092959194509250565b60ff60f81b8816815260e060208201525f615d3f60e08301896158d8565b8281036040840152615d5181896158d8565b606084018890526001600160a01b038716608085015260a0840186905283810360c0850152845180825260208087019350909101905f5b81811015615da6578351835260209384019390920191600101615d88565b50909b9a5050505050505050505050565b5f805f60608486031215615dc9575f80fd5b83359250602084013591506159ba60408501615918565b5f805f60608486031215615df2575f80fd5b615dfb84615918565b95602085013595506040909401359392505050565b5f8060408385031215615e21575f80fd5b615e2a83615918565b91506159e4602084016159ed565b5f805f805f60a08688031215615e4c575f80fd5b8535945060208601359350615e636040870161597b565b925060608601359150615a3c60808701615918565b5f8060208385031215615e89575f80fd5b823567ffffffffffffffff811115615e9f575f80fd5b8301601f81018513615eaf575f80fd5b803567ffffffffffffffff811115615ec5575f80fd5b8560208260051b8401011115615ed9575f80fd5b6020919091019590945092505050565b5f602082016020835280845180835260408501915060408160051b8601019250602086015f5b82811015615f4057603f19878603018452615f2b8583516158d8565b94506020938401939190910190600101615f0f565b50929695505050505050565b5f805f8060808587031215615f5f575f80fd5b615f6885615918565b9350615f7660208601615918565b925060408501359150606085013567ffffffffffffffff811115615cbf575f80fd5b5f8060408385031215615fa9575f80fd5b615fb283615918565b91506159e460208401615918565b600181811c90821680615fd457607f821691505b602082108103615ff257634e487b7160e01b5f52602260045260245ffd5b50919050565b634e487b7160e01b5f52601160045260245ffd5b6001600160801b03818116838216019081111561098057610980615ff8565b6001600160801b03828116828216039081111561098057610980615ff8565b8082018082111561098057610980615ff8565b634e487b7160e01b5f52603260045260245ffd5b5f808335601e19843603018112616086575f80fd5b83018035915067ffffffffffffffff8211156160a0575f80fd5b6020019150368190038213156152cb575f80fd5b818382375f9101908152919050565b5f602082840312156160d3575f80fd5b815167ffffffffffffffff8111156160e9575f80fd5b8201601f810184136160f9575f80fd5b8051616107615b3b82615af7565b81815285602083850101111561611b575f80fd5b8160208401602083015e5f91810160200191909152949350505050565b5f81518060208401855e5f93019283525090919050565b5f61334b61615d8386616138565b84616138565b808202811582820484141761098057610980615ff8565b634e487b7160e01b5f52601260045260245ffd5b5f8261619c5761619c61617a565b500490565b6001600160801b0381811683821602908116908181146128f9576128f9615ff8565b5f6001600160801b038316806161db576161db61617a565b806001600160801b0384160491505092915050565b828152604060208201525f61334b60408301846158d8565b5f612bf48284616138565b5f60208284031215616223575f80fd5b815161334981615891565b6001600160a01b03851681526001600160a01b0384166020820152826040820152608060608201525f6153ce60808301846158d856fe687474703a2f2f7777772e74742d737761702e636f6d2f6e66743f70726f6f6669643da264697066735822122043bbf1cb64083ab2ce89c3c378d2e8c5361817424b7849d36730404df1f627b964736f6c634300081a0033","linkReferences":{}},"methodIdentifiers":{"DOMAIN_SEPARATOR()":"3644e515","addbanlist(address)":"b153b920","approve(address,uint256)":"095ea7b3","balanceOf(address)":"70a08231","banlist(address)":"2973ada7","buyGood(uint256,uint256,uint128,uint256,bool)":"1eccc39b","buyGoodForPay(uint256,uint256,uint128,uint256,address)":"a7e11697","changeGoodOwner(uint256,address)":"2a7c5a91","collectProofFee(uint256,address,address)":"1ed7ca1d","collectProtocolFee(uint256)":"0292eb4a","disinvestProof(uint256,uint128,address,address)":"7f0a8265","eip712Domain()":"84b0196e","enpower(uint256,uint256,uint128)":"16763986","getApproved(uint256)":"081812fc","getGoodState(uint256)":"a6f6a980","getProofState(uint256)":"3f117740","goodNum()":"5a5da4dd","goodWelfare(uint256,uint128)":"18ad50d1","initGood(uint256,uint256,address,uint256)":"4ffef907","initMetaGood(address,uint256,uint256)":"97924ead","investGood(uint256,uint256,uint128)":"f44733ad","isApprovedForAll(address,address)":"e985e9c5","marketconfig()":"402f5ab5","marketcreator()":"3d995173","multicall(bytes[])":"ac9650d8","name()":"06fdde03","nonces(uint256)":"141a468c","ownerOf(uint256)":"6352211e","payGood(uint256,uint256,address)":"920acbb8","permit(address,uint256,uint256,bytes)":"745a41bc","proofmapping(uint256)":"5e008cc4","referals(address)":"a128fcf2","removebanlist(address)":"9551177a","safeTransferFrom(address,address,uint256)":"42842e0e","safeTransferFrom(address,address,uint256,bytes)":"b88d4fde","safeTransferFromWithPermit(address,address,uint256,bytes,uint256,bytes)":"24744d54","setApprovalForAll(address,bool)":"a22cb465","setMarketConfig(uint256)":"45818e4c","supportsInterface(bytes4)":"01ffc9a7","symbol()":"95d89b41","tokenURI(uint256)":"c87b56dd","totalSupply()":"18160ddd","transferFrom(address,address,uint256)":"23b872dd","updateGoodConfig(uint256,uint256)":"144aeb83","updatetoNormalGood(uint256)":"14484e10","updatetoValueGood(uint256)":"0a25dcff"},"id":1}