{"abi":[{"type":"constructor","inputs":[{"name":"_marketcreator","type":"address","internalType":"address"},{"name":"_marketconfig","type":"uint256","internalType":"uint256"}],"stateMutability":"nonpayable"},{"type":"function","name":"addbanlist","inputs":[{"name":"_user","type":"address","internalType":"address"}],"outputs":[{"name":"","type":"bool","internalType":"bool"}],"stateMutability":"nonpayable"},{"type":"function","name":"addreferer","inputs":[{"name":"_referer","type":"address","internalType":"address"}],"outputs":[{"name":"is_success_","type":"bool","internalType":"bool"}],"stateMutability":"nonpayable"},{"type":"function","name":"banlist","inputs":[{"name":"","type":"address","internalType":"address"}],"outputs":[{"name":"","type":"uint256","internalType":"uint256"}],"stateMutability":"view"},{"type":"function","name":"buyGood","inputs":[{"name":"_goodid1","type":"uint256","internalType":"uint256"},{"name":"_goodid2","type":"uint256","internalType":"uint256"},{"name":"_swapQuanitity","type":"uint128","internalType":"uint128"},{"name":"_limitPrice","type":"uint256","internalType":"uint256"},{"name":"_istotal","type":"bool","internalType":"bool"},{"name":"_gater","type":"address","internalType":"address"}],"outputs":[{"name":"goodid2Quanitity_","type":"uint128","internalType":"uint128"},{"name":"goodid2FeeQuanitity_","type":"uint128","internalType":"uint128"}],"stateMutability":"payable"},{"type":"function","name":"buyGoodForPay","inputs":[{"name":"_goodid1","type":"uint256","internalType":"uint256"},{"name":"_goodid2","type":"uint256","internalType":"uint256"},{"name":"_swapQuanitity","type":"uint128","internalType":"uint128"},{"name":"_limitPrice","type":"uint256","internalType":"uint256"},{"name":"_recipent","type":"address","internalType":"address"},{"name":"_gater","type":"address","internalType":"address"}],"outputs":[{"name":"goodid1Quanitity_","type":"uint128","internalType":"uint128"},{"name":"goodid1FeeQuanitity_","type":"uint128","internalType":"uint128"}],"stateMutability":"payable"},{"type":"function","name":"changeGoodOwner","inputs":[{"name":"_goodid","type":"uint256","internalType":"uint256"},{"name":"_to","type":"address","internalType":"address"}],"outputs":[{"name":"","type":"bool","internalType":"bool"}],"stateMutability":"nonpayable"},{"type":"function","name":"changeProofOwner","inputs":[{"name":"_proofid","type":"uint256","internalType":"uint256"},{"name":"_to","type":"address","internalType":"address"}],"outputs":[{"name":"","type":"bool","internalType":"bool"}],"stateMutability":"nonpayable"},{"type":"function","name":"check_banlist","inputs":[{"name":"_user","type":"address","internalType":"address"}],"outputs":[{"name":"_isban","type":"bool","internalType":"bool"}],"stateMutability":"view"},{"type":"function","name":"collectProtocolFee","inputs":[{"name":"_goodid","type":"uint256","internalType":"uint256"}],"outputs":[{"name":"","type":"uint256","internalType":"uint256"}],"stateMutability":"payable"},{"type":"function","name":"customerno","inputs":[{"name":"","type":"address","internalType":"address"}],"outputs":[{"name":"","type":"uint256","internalType":"uint256"}],"stateMutability":"view"},{"type":"function","name":"customernum","inputs":[],"outputs":[{"name":"","type":"uint256","internalType":"uint256"}],"stateMutability":"view"},{"type":"function","name":"disinvestNormalGood","inputs":[{"name":"_togood","type":"uint256","internalType":"uint256"},{"name":"_valuegood","type":"uint256","internalType":"uint256"},{"name":"_goodQuanitity","type":"uint128","internalType":"uint128"},{"name":"_gater","type":"address","internalType":"address"}],"outputs":[{"name":"disinvestNormalResult1_","type":"tuple","internalType":"struct L_Good.S_GoodDisinvestReturn","components":[{"name":"profit","type":"uint128","internalType":"uint128"},{"name":"actual_fee","type":"uint128","internalType":"uint128"},{"name":"actualDisinvestValue","type":"uint128","internalType":"uint128"},{"name":"actualDisinvestQuantity","type":"uint128","internalType":"uint128"}]},{"name":"disinvestValueResult2_","type":"tuple","internalType":"struct L_Good.S_GoodDisinvestReturn","components":[{"name":"profit","type":"uint128","internalType":"uint128"},{"name":"actual_fee","type":"uint128","internalType":"uint128"},{"name":"actualDisinvestValue","type":"uint128","internalType":"uint128"},{"name":"actualDisinvestQuantity","type":"uint128","internalType":"uint128"}]}],"stateMutability":"payable"},{"type":"function","name":"disinvestNormalProof","inputs":[{"name":"_normalProof","type":"uint256","internalType":"uint256"},{"name":"_goodQuanitity","type":"uint128","internalType":"uint128"},{"name":"_gater","type":"address","internalType":"address"}],"outputs":[{"name":"disinvestNormalResult1_","type":"tuple","internalType":"struct L_Good.S_GoodDisinvestReturn","components":[{"name":"profit","type":"uint128","internalType":"uint128"},{"name":"actual_fee","type":"uint128","internalType":"uint128"},{"name":"actualDisinvestValue","type":"uint128","internalType":"uint128"},{"name":"actualDisinvestQuantity","type":"uint128","internalType":"uint128"}]},{"name":"disinvestValueResult2_","type":"tuple","internalType":"struct L_Good.S_GoodDisinvestReturn","components":[{"name":"profit","type":"uint128","internalType":"uint128"},{"name":"actual_fee","type":"uint128","internalType":"uint128"},{"name":"actualDisinvestValue","type":"uint128","internalType":"uint128"},{"name":"actualDisinvestQuantity","type":"uint128","internalType":"uint128"}]}],"stateMutability":"payable"},{"type":"function","name":"disinvestValueGood","inputs":[{"name":"_goodid","type":"uint256","internalType":"uint256"},{"name":"_goodQuanitity","type":"uint128","internalType":"uint128"},{"name":"_gater","type":"address","internalType":"address"}],"outputs":[{"name":"disinvestResult_","type":"tuple","internalType":"struct L_Good.S_GoodDisinvestReturn","components":[{"name":"profit","type":"uint128","internalType":"uint128"},{"name":"actual_fee","type":"uint128","internalType":"uint128"},{"name":"actualDisinvestValue","type":"uint128","internalType":"uint128"},{"name":"actualDisinvestQuantity","type":"uint128","internalType":"uint128"}]}],"stateMutability":"payable"},{"type":"function","name":"disinvestValueProof","inputs":[{"name":"_valueproofid","type":"uint256","internalType":"uint256"},{"name":"_goodQuanitity","type":"uint128","internalType":"uint128"},{"name":"_gater","type":"address","internalType":"address"}],"outputs":[{"name":"disinvestResult_","type":"tuple","internalType":"struct L_Good.S_GoodDisinvestReturn","components":[{"name":"profit","type":"uint128","internalType":"uint128"},{"name":"actual_fee","type":"uint128","internalType":"uint128"},{"name":"actualDisinvestValue","type":"uint128","internalType":"uint128"},{"name":"actualDisinvestQuantity","type":"uint128","internalType":"uint128"}]}],"stateMutability":"payable"},{"type":"function","name":"getGoodIdByAddress","inputs":[{"name":"_owner","type":"address","internalType":"address"}],"outputs":[{"name":"","type":"uint256[]","internalType":"uint256[]"}],"stateMutability":"view"},{"type":"function","name":"getGoodState","inputs":[{"name":"_goodid","type":"uint256","internalType":"uint256"}],"outputs":[{"name":"good_","type":"tuple","internalType":"struct L_Good.S_GoodTmpState","components":[{"name":"goodConfig","type":"uint256","internalType":"uint256"},{"name":"owner","type":"address","internalType":"address"},{"name":"erc20address","type":"address","internalType":"address"},{"name":"currentState","type":"uint256","internalType":"T_BalanceUINT256"},{"name":"investState","type":"uint256","internalType":"T_BalanceUINT256"},{"name":"feeQunitityState","type":"uint256","internalType":"T_BalanceUINT256"}]}],"stateMutability":"view"},{"type":"function","name":"getGoodsFee","inputs":[{"name":"_goodid","type":"uint256","internalType":"uint256"},{"name":"user","type":"address","internalType":"address"}],"outputs":[{"name":"","type":"uint256","internalType":"uint256"}],"stateMutability":"view"},{"type":"function","name":"getProofId","inputs":[{"name":"_investproofkey","type":"tuple","internalType":"struct S_ProofKey","components":[{"name":"owner","type":"address","internalType":"address"},{"name":"currentgood","type":"uint256","internalType":"uint256"},{"name":"valuegood","type":"uint256","internalType":"uint256"}]}],"outputs":[{"name":"proof_","type":"uint256","internalType":"uint256"}],"stateMutability":"view"},{"type":"function","name":"getProofState","inputs":[{"name":"_proof","type":"uint256","internalType":"uint256"}],"outputs":[{"name":"proof_","type":"tuple","internalType":"struct L_Proof.S_ProofState","components":[{"name":"owner","type":"address","internalType":"address"},{"name":"currentgood","type":"uint256","internalType":"uint256"},{"name":"valuegood","type":"uint256","internalType":"uint256"},{"name":"state","type":"uint256","internalType":"T_BalanceUINT256"},{"name":"invest","type":"uint256","internalType":"T_BalanceUINT256"},{"name":"valueinvest","type":"uint256","internalType":"T_BalanceUINT256"}]}],"stateMutability":"view"},{"type":"function","name":"goodnum","inputs":[],"outputs":[{"name":"","type":"uint256","internalType":"uint256"}],"stateMutability":"view"},{"type":"function","name":"goodseq","inputs":[{"name":"","type":"bytes32","internalType":"bytes32"}],"outputs":[{"name":"","type":"uint256","internalType":"uint256"}],"stateMutability":"view"},{"type":"function","name":"initMetaGood","inputs":[{"name":"_erc20address","type":"address","internalType":"address"},{"name":"_initial","type":"uint256","internalType":"T_BalanceUINT256"},{"name":"_goodConfig","type":"uint256","internalType":"uint256"}],"outputs":[{"name":"","type":"uint256","internalType":"uint256"},{"name":"","type":"uint256","internalType":"uint256"}],"stateMutability":"payable"},{"type":"function","name":"initNormalGood","inputs":[{"name":"_valuegood","type":"uint256","internalType":"uint256"},{"name":"_initial","type":"uint256","internalType":"T_BalanceUINT256"},{"name":"_erc20address","type":"address","internalType":"address"},{"name":"_goodConfig","type":"uint256","internalType":"uint256"},{"name":"_gater","type":"address","internalType":"address"}],"outputs":[{"name":"","type":"uint256","internalType":"uint256"},{"name":"","type":"uint256","internalType":"uint256"}],"stateMutability":"payable"},{"type":"function","name":"investNormalGood","inputs":[{"name":"_togood","type":"uint256","internalType":"uint256"},{"name":"_valuegood","type":"uint256","internalType":"uint256"},{"name":"_quanitity","type":"uint128","internalType":"uint128"},{"name":"_gater","type":"address","internalType":"address"}],"outputs":[{"name":"normalInvest","type":"tuple","internalType":"struct L_Good.S_GoodInvestReturn","components":[{"name":"actualFeeQuantity","type":"uint128","internalType":"uint128"},{"name":"contructFeeQuantity","type":"uint128","internalType":"uint128"},{"name":"actualInvestValue","type":"uint128","internalType":"uint128"},{"name":"actualInvestQuantity","type":"uint128","internalType":"uint128"}]},{"name":"valueInvest","type":"tuple","internalType":"struct L_Good.S_GoodInvestReturn","components":[{"name":"actualFeeQuantity","type":"uint128","internalType":"uint128"},{"name":"contructFeeQuantity","type":"uint128","internalType":"uint128"},{"name":"actualInvestValue","type":"uint128","internalType":"uint128"},{"name":"actualInvestQuantity","type":"uint128","internalType":"uint128"}]}],"stateMutability":"payable"},{"type":"function","name":"investValueGood","inputs":[{"name":"_goodid","type":"uint256","internalType":"uint256"},{"name":"_goodQuanitity","type":"uint128","internalType":"uint128"},{"name":"_gater","type":"address","internalType":"address"}],"outputs":[{"name":"valueInvest_","type":"tuple","internalType":"struct L_Good.S_GoodInvestReturn","components":[{"name":"actualFeeQuantity","type":"uint128","internalType":"uint128"},{"name":"contructFeeQuantity","type":"uint128","internalType":"uint128"},{"name":"actualInvestValue","type":"uint128","internalType":"uint128"},{"name":"actualInvestQuantity","type":"uint128","internalType":"uint128"}]}],"stateMutability":"payable"},{"type":"function","name":"marketconfig","inputs":[],"outputs":[{"name":"","type":"uint256","internalType":"uint256"}],"stateMutability":"view"},{"type":"function","name":"marketcreator","inputs":[],"outputs":[{"name":"","type":"address","internalType":"address"}],"stateMutability":"view"},{"type":"function","name":"multicall","inputs":[{"name":"data","type":"bytes[]","internalType":"bytes[]"}],"outputs":[{"name":"results","type":"bytes[]","internalType":"bytes[]"}],"stateMutability":"payable"},{"type":"function","name":"ownergoods","inputs":[{"name":"","type":"address","internalType":"address"},{"name":"","type":"uint256","internalType":"uint256"}],"outputs":[{"name":"","type":"uint256","internalType":"uint256"}],"stateMutability":"view"},{"type":"function","name":"ownerproofs","inputs":[{"name":"","type":"address","internalType":"address"},{"name":"","type":"uint256","internalType":"uint256"}],"outputs":[{"name":"","type":"uint256","internalType":"uint256"}],"stateMutability":"view"},{"type":"function","name":"payGood","inputs":[{"name":"_goodid","type":"uint256","internalType":"uint256"},{"name":"_payquanity","type":"uint256","internalType":"uint256"},{"name":"_recipent","type":"address","internalType":"address"}],"outputs":[{"name":"","type":"bool","internalType":"bool"}],"stateMutability":"nonpayable"},{"type":"function","name":"proofnum","inputs":[],"outputs":[{"name":"","type":"uint256","internalType":"uint256"}],"stateMutability":"view"},{"type":"function","name":"proofs","inputs":[{"name":"","type":"uint256","internalType":"uint256"}],"outputs":[{"name":"owner","type":"address","internalType":"address"},{"name":"currentgood","type":"uint256","internalType":"uint256"},{"name":"valuegood","type":"uint256","internalType":"uint256"},{"name":"state","type":"uint256","internalType":"T_BalanceUINT256"},{"name":"invest","type":"uint256","internalType":"T_BalanceUINT256"},{"name":"valueinvest","type":"uint256","internalType":"T_BalanceUINT256"}],"stateMutability":"view"},{"type":"function","name":"proofseq","inputs":[{"name":"","type":"bytes32","internalType":"bytes32"}],"outputs":[{"name":"","type":"uint256","internalType":"uint256"}],"stateMutability":"view"},{"type":"function","name":"relations","inputs":[{"name":"","type":"address","internalType":"address"}],"outputs":[{"name":"","type":"address","internalType":"address"}],"stateMutability":"view"},{"type":"function","name":"removebanlist","inputs":[{"name":"_user","type":"address","internalType":"address"}],"outputs":[{"name":"","type":"bool","internalType":"bool"}],"stateMutability":"nonpayable"},{"type":"function","name":"setMarketConfig","inputs":[{"name":"_marketconfig","type":"uint256","internalType":"uint256"}],"outputs":[{"name":"","type":"bool","internalType":"bool"}],"stateMutability":"nonpayable"},{"type":"function","name":"updateGoodConfig","inputs":[{"name":"_goodid","type":"uint256","internalType":"uint256"},{"name":"_goodConfig","type":"uint256","internalType":"uint256"}],"outputs":[{"name":"","type":"bool","internalType":"bool"}],"stateMutability":"nonpayable"},{"type":"function","name":"updatetoNormalGood","inputs":[{"name":"_goodid","type":"uint256","internalType":"uint256"}],"outputs":[{"name":"","type":"bool","internalType":"bool"}],"stateMutability":"nonpayable"},{"type":"function","name":"updatetoValueGood","inputs":[{"name":"_goodid","type":"uint256","internalType":"uint256"}],"outputs":[{"name":"","type":"bool","internalType":"bool"}],"stateMutability":"nonpayable"},{"type":"event","name":"e_buyGood","inputs":[{"name":"sellgood","type":"uint256","indexed":true,"internalType":"uint256"},{"name":"forgood","type":"uint256","indexed":true,"internalType":"uint256"},{"name":"fromer","type":"address","indexed":false,"internalType":"address"},{"name":"swapvalue","type":"uint128","indexed":false,"internalType":"uint128"},{"name":"sellgoodstate","type":"uint256","indexed":false,"internalType":"T_BalanceUINT256"},{"name":"forgoodstate","type":"uint256","indexed":false,"internalType":"T_BalanceUINT256"}],"anonymous":false},{"type":"event","name":"e_buyGoodForPay","inputs":[{"name":"buygood","type":"uint256","indexed":true,"internalType":"uint256"},{"name":"usegood","type":"uint256","indexed":true,"internalType":"uint256"},{"name":"fromer","type":"address","indexed":false,"internalType":"address"},{"name":"receipt","type":"address","indexed":false,"internalType":"address"},{"name":"swapvalue","type":"uint128","indexed":false,"internalType":"uint128"},{"name":"buygoodstate","type":"uint256","indexed":false,"internalType":"T_BalanceUINT256"},{"name":"usegoodstate","type":"uint256","indexed":false,"internalType":"T_BalanceUINT256"}],"anonymous":false},{"type":"event","name":"e_changeOwner","inputs":[{"name":"_goodid","type":"uint256","indexed":true,"internalType":"uint256"},{"name":"_owner","type":"address","indexed":false,"internalType":"address"},{"name":"_to","type":"address","indexed":false,"internalType":"address"}],"anonymous":false},{"type":"event","name":"e_proof","inputs":[{"name":"","type":"uint256","indexed":true,"internalType":"uint256"}],"anonymous":false},{"type":"error","name":"ERC20TransferFailed","inputs":[]},{"type":"error","name":"NativeTransferFailed","inputs":[]},{"type":"error","name":"err_total","inputs":[]}],"bytecode":{"object":"0x60806040523480156200001157600080fd5b50604051620052e8380380620052e883398101604081905262000034916200005e565b600980546001600160a01b0319166001600160a01b0393909316929092179091556003556200009a565b600080604083850312156200007257600080fd5b82516001600160a01b03811681146200008a57600080fd5b6020939093015192949293505050565b61523e80620000aa6000396000f3fe6080604052600436106102c65760003560e01c8063920acbb811610179578063ad864a79116100d6578063c33c03aa1161008a578063d756d4b711610064578063d756d4b7146108fe578063e1f685e81461092b578063fc5f8dd01461093e57600080fd5b8063c33c03aa146108a8578063c3a2b159146108be578063cbb2aabc146108eb57600080fd5b8063bda984c3116100bb578063bda984c314610862578063c138f7a914610882578063c16b80fe1461089557600080fd5b8063ad864a791461082f578063b153b9201461084257600080fd5b80639ddaf5aa1161012d578063a64d6c9c11610112578063a64d6c9c14610774578063a6f6a98014610794578063ac9650d81461080f57600080fd5b80639ddaf5aa146106c2578063a4500ff31461075357600080fd5b806397924ead1161015e57806397924ead1461065a57806399e23fc2146106825780639caa637b146106a257600080fd5b8063920acbb81461061a5780639551177a1461063a57600080fd5b80633f8cbb2a1161022757806356b7d94c116101db5780636ab107f9116101c05780636ab107f9146105d15780637b43e738146105e75780638bdde5d3146105fa57600080fd5b806356b7d94c14610557578063578496ab1461059e57600080fd5b806340430a491161020c57806340430a49146104f4578063430b9be71461050a57806345818e4c1461053757600080fd5b80633f8cbb2a146104b1578063402f5ab5146104de57600080fd5b80632973ada71161027e5780633be81387116102635780633be81387146103fc5780633d9951731461041c5780633f1177401461043c57600080fd5b80632973ada7146103af5780632a7c5a91146103dc57600080fd5b806314484e10116102af57806314484e1014610321578063144aeb8314610341578063161ce5cb1461036157600080fd5b80630292eb4a146102cb5780630a25dcff146102f1575b600080fd5b6102de6102d9366004614a1f565b61095e565b6040519081526020015b60405180910390f35b3480156102fd57600080fd5b5061031161030c366004614a1f565b610a7f565b60405190151581526020016102e8565b34801561032d57600080fd5b5061031161033c366004614a1f565b610ae1565b34801561034d57600080fd5b5061031161035c366004614a38565b610b3b565b34801561036d57600080fd5b5061039761037c366004614a71565b6002602052600090815260409020546001600160a01b031681565b6040516001600160a01b0390911681526020016102e8565b3480156103bb57600080fd5b506102de6103ca366004614a71565b600a6020526000908152604090205481565b3480156103e857600080fd5b506103116103f7366004614a8c565b610bac565b34801561040857600080fd5b506102de610417366004614ab8565b610cbd565b34801561042857600080fd5b50600954610397906001600160a01b031681565b34801561044857600080fd5b5061045c610457366004614a1f565b610cee565b6040516102e89190600060c0820190506001600160a01b0383511682526020830151602083015260408301516040830152606083015160608301526080830151608083015260a083015160a083015292915050565b3480156104bd57600080fd5b506104d16104cc366004614a71565b610d8b565b6040516102e89190614ae2565b3480156104ea57600080fd5b506102de60035481565b34801561050057600080fd5b506102de60005481565b34801561051657600080fd5b506102de610525366004614a1f565b600e6020526000908152604090205481565b34801561054357600080fd5b50610311610552366004614a1f565b610df7565b34801561056357600080fd5b506102de610572366004614a8c565b60008281526005602090815260408083206001600160a01b038516845260060190915290205492915050565b6105b16105ac366004614b4e565b610e7e565b604080516001600160801b039384168152929091166020830152016102e8565b3480156105dd57600080fd5b506102de60045481565b6105b16105f5366004614baf565b6111b2565b34801561060657600080fd5b50610311610615366004614a71565b61148f565b34801561062657600080fd5b50610311610635366004614bf4565b611528565b34801561064657600080fd5b50610311610655366004614a71565b611559565b61066d610668366004614c29565b6115ba565b604080519283526020830191909152016102e8565b34801561068e57600080fd5b5061031161069d366004614a8c565b6117f3565b3480156106ae57600080fd5b506102de6106bd366004614c5c565b611870565b3480156106ce57600080fd5b5061071c6106dd366004614a1f565b600c602052600090815260409020805460018201546002830154600384015460048501546005909501546001600160a01b039094169492939192909186565b604080516001600160a01b0390971687526020870195909552938501929092526060840152608083015260a082015260c0016102e8565b610766610761366004614c74565b6118a2565b6040516102e8929190614ca7565b610787610782366004614c74565b611bc7565b6040516102e89190614d1e565b3480156107a057600080fd5b506107b46107af366004614a1f565b611e81565b6040516102e89190600060c0820190508251825260208301516001600160a01b0380821660208501528060408601511660408501525050606083015160608301526080830151608083015260a083015160a083015292915050565b61082261081d366004614d5a565b611f2c565b6040516102e89190614e1f565b61076661083d366004614e83565b612079565b34801561084e57600080fd5b5061031161085d366004614a71565b612426565b34801561086e57600080fd5b506102de61087d366004614ab8565b61248a565b610787610890366004614c74565b6124a6565b6107876108a3366004614c74565b6126c3565b3480156108b457600080fd5b506102de600b5481565b3480156108ca57600080fd5b506102de6108d9366004614a71565b60016020526000908152604090205481565b61066d6108f9366004614ec9565b612891565b34801561090a57600080fd5b506102de610919366004614a1f565b60076020526000908152604090205481565b610766610939366004614e83565b612c53565b34801561094a57600080fd5b50610311610959366004614a71565b613012565b336000908152600a60205260408120541561097857600080fd5b6000828152600560209081526040808320338452600601909152902054806109cd5760405162461bcd60e51b815260206004820152600360248201526223981b60e91b60448201526064015b60405180910390fd5b60008381526005602090815260408083203384526006019091528120819055600354610a049083606460dd9290921c601f16020490565b60008581526005602090815260408083206009546001600160a01b03168452600601909152812080549293508392909190610a40908490614f2f565b90915550610a76905033610a548385614f42565b6000878152600560205260409020600201546001600160a01b0316919061303a565b5090505b919050565b6009546000906001600160a01b03163314610ac25760405162461bcd60e51b815260206004820152600360248201526223981960e91b60448201526064016109c4565b6000828152600560205260409020610ad9906130da565b506001919050565b6009546000906001600160a01b03163314610b245760405162461bcd60e51b815260206004820152600360248201526223981960e91b60448201526064016109c4565b6000828152600560205260409020610ad99061313a565b6000828152600560205260408120600101546001600160a01b03163314610b8a5760405162461bcd60e51b815260206004820152600360248201526211cc0d60ea1b60448201526064016109c4565b6000838152600560205260409020610ba29083613189565b5060015b92915050565b6000828152600560205260408120600101546001600160a01b0316331480610bde57506009546001600160a01b031633145b610c105760405162461bcd60e51b815260206004820152600360248201526247303560e81b60448201526064016109c4565b6000838152600560209081526040918290206001015482516001600160a01b0391821681529085169181019190915284917f8ef070efbad4fdeedaefa55813446a48d7e44138ff268ca1cd8daba30a0f7025910160405180910390a2506000828152600560209081526040808320600190810180546001600160a01b0319166001600160a01b03969096169586179055938352600682528220805480850182559083529120019190915590565b60066020528160005260406000208181548110610cd957600080fd5b90600052602060002001600091509150505481565b610d306040518060c0016040528060006001600160a01b0316815260200160008152602001600081526020016000815260200160008152602001600081525090565b6000828152600c6020818152604080842080546001600160a01b03168652600181015486840152600281015491860191909152600381015460608601526004810154608086015294909252905260059091015460a082015290565b6001600160a01b038116600090815260066020908152604091829020805483518184028101840190945280845260609392830182828015610deb57602002820191906000526020600020905b815481526020019060010190808311610dd7575b50505050509050919050565b6009546000906001600160a01b03163314610e3a5760405162461bcd60e51b815260206004820152600360248201526223981960e91b60448201526064016109c4565b610e43826131c1565b610e755760405162461bcd60e51b815260206004820152600360248201526247303360e81b60448201526064016109c4565b50600355600190565b600080600854600014610eb95760405162461bcd60e51b815260206004820152600360248201526247303160e81b60448201526064016109c4565b600160085560408051610100810182526001600160801b038816815260006020808301829052828401829052606083018290528b825260058082528483206003808201546080870152905460a08601528c84528183529483209485015460c0850152918b905252905460e0820152610f318187613233565b90506001851515148015610f4e575080516001600160801b031615155b15610f6c57604051632af75bb760e11b815260040160405180910390fd5b60208082015160008a81526005909252604090912054610fa0916001600160801b031661271060e79290921c607f16020490565b9150818160200151610fb29190614f55565b9250611047816080015182604001516003546040518060400160405280896001600160a01b0316815260200160026000336001600160a01b03166001600160a01b0316815260200190815260200160002060009054906101000a90046001600160a01b03166001600160a01b0316815250600560008f815260200190815260200160002061357890949392919063ffffffff16565b60c08101516003546040805180820182526001600160a01b0380891682523360009081526002602090815284822054909216828401528d81526005909152919091206110999390929091869190613578565b80516110d69033906110ab908a614f55565b60008c8152600560205260409020600201546001600160a01b031691906001600160801b03166135c0565b600088815260056020526040902060020154611105906001600160a01b0316336001600160801b03861661303a565b87897fa79c43e220b5faf022716b06e757294b799a25f33d3c8b0121e614f7b5d988c433846060015161115986600001518d6111419190614f55565b60408801516001600160801b031660809190911b1790565b6001600160801b03881660808a901b17604080516001600160a01b0390951685526001600160801b0390931660208501529183015260608201526080015b60405180910390a35060006008559097909650945050505050565b6000806008546000146111ed5760405162461bcd60e51b815260206004820152600360248201526247303160e81b60448201526064016109c4565b600160085560408051610100810182526001600160801b038816815260006020808301829052828401829052606083018290528b825260058082528483206003808201546080870152905460a08601528c84528183529483209485015460c0850152918b905252905460e08201526112658187613639565b80519091506001600160801b03161561129157604051632af75bb760e11b815260040160405180910390fd5b60208082015160008b815260059092526040909120546112c5916001600160801b031661271060e79290921c607f16020490565b91508181602001516112d79190614f55565b60c0820151604080840151600354825180840184526001600160a01b03808b1682523360009081526002602090815286822054909216828401528f815260059091529390932094975061132b949392613578565b60808101516003546040805180820182526001600160a01b0380891682523360009081526002602090815284822054909216828401528e815260059091529190912061137d9390929091869190613578565b80516113ba90869061138f908a614f55565b60008b8152600560205260409020600201546001600160a01b031691906001600160801b031661303a565b6000898152600560205260409020600201546113e9906001600160a01b0316336001600160801b0386166135c0565b87897f3de590341c976ea6fce618ef4a768a15441201ad3ed7c9b438d82c3951de7ced3388856060015161143e87600001518e6114269190614f55565b60408901516001600160801b031660809190911b1790565b6001600160801b03891660808b901b17604080516001600160a01b0396871681529590941660208601526001600160801b03909216928401929092526060830191909152608082015260a001611197565b33600090815260016020526040812054156114d15760405162461bcd60e51b8152602060048201526002602482015261553160f01b60448201526064016109c4565b60016000808282546114e39190614f2f565b9091555050600080543382526001602081815260408085209390935560029052912080546001600160a01b0319166001600160a01b0394909416939093179092555090565b60008381526005602052604081206002015461154e906001600160a01b0316838561303a565b5060015b9392505050565b6009546000906001600160a01b0316331461159c5760405162461bcd60e51b815260206004820152600360248201526223981960e91b60448201526064016109c4565b506001600160a01b03166000908152600a6020526040812055600190565b60095460009081906001600160a01b031633146115ff5760405162461bcd60e51b815260206004820152600360248201526223981960e91b60448201526064016109c4565b611608836138bb565b61163a5760405162461bcd60e51b815260206004820152600360248201526226981960e91b60448201526064016109c4565b6116576001600160a01b038616336001600160801b0387166135c0565b60016004600082825461166a9190614f2f565b9091555050600454604080518082019091526001600160a01b038716815233602082015260079060009061169d906138d1565b815260208082019290925260409081016000908120939093556004805484526005909252808320600381018890558083018890556001600160ff1b03871681556002810180546001600160a01b038b166001600160a01b031991821617909155600190910180549091163317905590548252902061171a906130da565b33600081815260066020908152604080832060048054825460018101845592865284862090920191909155815160608101835294855254918401919091528201819052906117679061391f565b90506001600b600082825461177c9190614f2f565b9091555050600b546000828152600e60205260409020556004546117e0906117ad6117a78860801c90565b60801b90565b6117c76000895b6001600160801b031660809190911b1790565b600b546000908152600c60205260409020929190613952565b600454600b549250925050935093915050565b6000828152600c60205260408120546001600160a01b0316331461183e5760405162461bcd60e51b8152602060048201526002602482015261503160f01b60448201526064016109c4565b506000828152600c6020526040902080546001600160a01b0383166001600160a01b0319909116179055600192915050565b6000600e8161188c61188736869003860186614f8b565b61391f565b8152602001908152602001600020549050919050565b604080516080810182526000808252602082018190529181018290526060810191909152604080516080810182526000808252602082018190529181018290526060810191909152600854156119205760405162461bcd60e51b815260206004820152600360248201526247303160e81b60448201526064016109c4565b60016008556000858152600c60205260409020600281015490546001600160a01b03163314801561195057508015155b6119825760405162461bcd60e51b81526020600482015260036024820152624d303960e81b60448201526064016109c4565b6000868152600c6020908152604080832060018101548585526005808552838620600354855180870187526001600160a01b03808e168252338a5260028952878a20541681890152848952929096529390952090946119e694919392918b916139b6565b8151600354929650909450600091611a3891611a1691906001600160801b0316606460dd9290921c601f16020490565b85516003546117b4916001600160801b0316606460dd9290921c601f16020490565b9050611a448160801c90565b85602001818151611a559190614fec565b6001600160801b03169052508084602001818151611a739190614fec565b6001600160801b0316905250611a898160801c90565b60008381526005602090815260408083206009546001600160a01b03168452600601909152812080546001600160801b039390931692909190611acd908490614f2f565b909155505060008381526005602090815260408083206009546001600160a01b03168452600601909152812080546001600160801b0384169290611b12908490614f2f565b909155505060208501518551611b63913391611b2e908b614fec565b611b389190614f55565b6000858152600560205260409020600201546001600160a01b031691906001600160801b031661303a565b611bb533856020015186600001518760600151611b809190614fec565b611b8a9190614f55565b6000868152600560205260409020600201546001600160a01b031691906001600160801b031661303a565b50506000600855509094909350915050565b60408051608081018252600080825260208201819052918101829052606081019190915260085415611c215760405162461bcd60e51b815260206004820152600360248201526247303160e81b60448201526064016109c4565b6001600855600084815260056020526040902054611c3e906138bb565b8015611c7457506000848152600560205260409020600301546e010000000000000000000000000000906001600160801b031611155b8015611cad57506000848152600560205260409020600301546e0100000000000000000000000000009060801c6001600160801b031611155b611cdf5760405162461bcd60e51b815260206004820152600360248201526226981b60e91b60448201526064016109c4565b600084815260056020526040902060020154611d0e906001600160a01b0316336001600160801b0386166135c0565b6003546040805180820182526001600160a01b038086168252336000908152600260209081528482205490921682840152888152600590915291909120611d59929091869190613eaf565b90506000600e6000611d8e6040518060600160405280336001600160a01b03168152602001898152602001600081525061391f565b815260200190815260200160002054905080600003611e0b576001600b6000828254611dba9190614f2f565b92505081905550600b54600e6000611df56040518060600160405280336001600160a01b031681526020018a8152602001600081525061391f565b815260208101919091526040016000205550600b545b6040820151611e4990869060801b602085015160608601516001600160801b031660809190911b176000858152600c60205260409020929190613952565b60405181907fe5eb1255799fb22ca9d80c7be5ade81a40ee66578748386701667d3cc4c5e9b990600090a25060006008559392505050565b611ecc6040518060c001604052806000815260200160006001600160a01b0316815260200160006001600160a01b031681526020016000815260200160008152602001600081525090565b600082815260056020818152604080842060038101546060870152600481015460808701528084015460a08701528054865260018101546001600160a01b0390811687850152969094529190526002909101549092169181019190915290565b60608167ffffffffffffffff811115611f4757611f47614f75565b604051908082528060200260200182016040528015611f7a57816020015b6060815260200190600190039081611f655790505b50905060005b828110156120725760008030868685818110611f9e57611f9e61500c565b9050602002810190611fb09190615022565b604051611fbe929190615070565b600060405180830381855af49150503d8060008114611ff9576040519150601f19603f3d011682016040523d82523d6000602084013e611ffe565b606091505b50915091508161204a5760448151101561201757600080fd5b600481019050808060200190518101906120319190615080565b60405162461bcd60e51b81526004016109c4919061512d565b8084848151811061205d5761205d61500c565b60209081029190910101525050600101611f80565b5092915050565b604080516080810182526000808252602082018190529181018290526060810191909152604080516080810182526000808252602082018190529181018290526060810191909152600854156120f75760405162461bcd60e51b815260206004820152600360248201526247303160e81b60448201526064016109c4565b60016008819055506000600e60006121316040518060600160405280336001600160a01b031681526020018b81526020018a81525061391f565b815260200190815260200160002054905060008111801561216857506000818152600c60205260409020546001600160a01b031633145b61219a5760405162461bcd60e51b8152602060048201526003602482015262134c0d60ea1b60448201526064016109c4565b61224560056000888152602001908152602001600020600c6000600e60006121e46040518060600160405280336001600160a01b031681526020018f81526020018e81525061391f565b815260208082019290925260409081016000908120548452838301949094529182018320600354835180850185526001600160a01b03808d168252338752600285528587205416818501528e86526005909352929093209392918a916139b6565b81516003549295509093506000916122979161227591906001600160801b0316606460dd9290921c601f16020490565b84516003546117b4916001600160801b0316606460dd9290921c601f16020490565b90506122a38160801c90565b846020018181516122b49190614fec565b6001600160801b031690525080836020018181516122d29190614fec565b6001600160801b03169052506122e88160801c90565b60008981526005602090815260408083206009546001600160a01b03168452600601909152812080546001600160801b03939093169290919061232c908490614f2f565b909155505060008781526005602090815260408083206009546001600160a01b03168452600601909152812080546001600160801b0384169290612371908490614f2f565b90915550506020840151845161239791339161238d908a614fec565b61138f9190614f55565b6123e9338460200151856000015186606001516123b49190614fec565b6123be9190614f55565b60008a8152600560205260409020600201546001600160a01b031691906001600160801b031661303a565b60405182907fe5eb1255799fb22ca9d80c7be5ade81a40ee66578748386701667d3cc4c5e9b990600090a250506000600855909590945092505050565b6009546000906001600160a01b031633146124695760405162461bcd60e51b815260206004820152600360248201526223981960e91b60448201526064016109c4565b506001600160a01b03166000908152600a6020526040902060019081905590565b600d6020528160005260406000208181548110610cd957600080fd5b604080516080810182526000808252602082018190529181018290526060810191909152600854156125005760405162461bcd60e51b815260206004820152600360248201526247303160e81b60448201526064016109c4565b600160085560408051606081018252338152602081018690526000918101829052600e90829061252f9061391f565b81526020808201929092526040908101600090812054808252600c90935220549091506001600160a01b0316331461258f5760405162461bcd60e51b81526020600482015260036024820152624d303360e81b60448201526064016109c4565b6000818152600c60209081526040808320600354825180840184526001600160a01b03808a168252338752600286528487205416818601528a865260059094529190932087936125e59391929091859190614068565b805160035491945060009161260d916001600160801b0316606460dd9290921c601f16020490565b60008881526005602090815260408083206009546001600160a01b03168452600601909152812080549293506001600160801b03841692909190612652908490614f2f565b90915550506020840151612667908290614fec565b6001600160801b03166020850181905284516126899133916123b4908a614fec565b60405183907fe5eb1255799fb22ca9d80c7be5ade81a40ee66578748386701667d3cc4c5e9b990600090a250506000600855509392505050565b6040805160808101825260008082526020820181905291810182905260608101919091526008541561271d5760405162461bcd60e51b815260206004820152600360248201526247303160e81b60448201526064016109c4565b600160088190556000858152600c602052604090209081015490546001600160a01b03163314801561275e57506000858152600c6020526040902060020154155b6127905760405162461bcd60e51b81526020600482015260036024820152624d303560e81b60448201526064016109c4565b6000858152600c60209081526040808320600354825180840184526001600160a01b03808a168252338752600286528487205416818601528686526005909452919093206127e393909290918891614068565b805160035491935060009161280b916001600160801b0316606460dd9290921c601f16020490565b9050808360200181815161281f9190614fec565b6001600160801b0390811690915260008481526005602090815260408083206009546001600160a01b0316845260060190915281208054928516935091612867908490614f2f565b909155505060208301518351612883913391611b2e9089614fec565b505060006008559392505050565b6000806008546000146128cc5760405162461bcd60e51b815260206004820152600360248201526247303160e81b60448201526064016109c4565b60016008556000878152600560205260409020546128e9906138bb565b61291b5760405162461bcd60e51b815260206004820152600360248201526226981960e91b60448201526064016109c4565b600061294c6040518060400160405280886001600160a01b03168152602001336001600160a01b03168152506138d1565b600081815260076020526040902054909150156129915760405162461bcd60e51b81526020600482015260036024820152624d303160e81b60448201526064016109c4565b6129b93361299f8960801c90565b6001600160a01b03891691906001600160801b03166135c0565b6000888152600560205260409020600201546129e8906001600160a01b0316336001600160801b038a166135c0565b600088815260056020526040812060030154612a0490896142c3565b9050600160046000828254612a199190614f2f565b90915550506004546000838152600760209081526040808320849055338352600682528220805460018101825590835291200155612aba612a5e826117b48b60801c90565b60048054600090815260056020526040902060038101839055908101919091556001600160ff1b03881681556002810180546001600160a01b038b166001600160a01b0319918216179091556001909101805490911633179055565b612b03886003546040805180820182526001600160a01b03808b1682523360009081526002602090815284822054909216828401528f8152600590915291909120929190613eaf565b506000612b346040518060600160405280336001600160a01b0316815260200160045481526020018c81525061391f565b90506001600b6000828254612b499190614f2f565b9091555050600b546000828152600e602090815260409182902092909255805160c0810182523381526004549281019290925281018b905260608101608084901b8152602001612b9e60006117b48d60801c90565b8152602001612bae60008c6117b4565b9052600b80546000908152600c60209081526040808320855181546001600160a01b0319166001600160a01b039091161781558583015160018083019190915586830151600283015560608701516003830155608087015160048084019190915560a090970151600590920191909155338452600d83529083208454815492830182559084529183200155915490546008929092559b909a5098505050505050505050565b60408051608081018252600080825260208201819052918101829052606081019190915260408051608081018252600080825260208201819052918101829052606081019190915260085415612cd15760405162461bcd60e51b815260206004820152600360248201526247303160e81b60448201526064016109c4565b6001600855600085815260056020526040902054612cee906138bb565b8015612d2357506000868152600560205260409020600301546d0100000000000000000000000000906001600160801b031611155b8015612d5b57506000868152600560205260409020600301546d01000000000000000000000000009060801c6001600160801b031611155b612d8d5760405162461bcd60e51b815260206004820152600360248201526226981960e91b60448201526064016109c4565b6003546040805180820182526001600160a01b0380871682523360009081526002602090815284822054909216828401528a8152600590915291909120612dd8929091879190613eaf565b604080820151600088815260056020529190912060030154919350612dfd919061433d565b6001600160801b0316606082018190526003546040805180820182526001600160a01b0380881682523360009081526002602090815284822054909216828401528a8152600590915291909120612e579390929091613eaf565b600087815260056020526040902060020154909150612e89906001600160a01b0316336001600160801b0387166135c0565b612ecc3382606001518360000151612ea19190614fec565b6000888152600560205260409020600201546001600160a01b031691906001600160801b03166135c0565b6000600e6000612efe6040518060600160405280336001600160a01b031681526020018b81526020018a81525061391f565b815260200190815260200160002054905080600003612f7a576001600b6000828254612f2a9190614f2f565b92505081905550600b54600e6000612f646040518060600160405280336001600160a01b031681526020018c81526020018b81525061391f565b815260208101919091526040016000205550600b545b6040830151612fd6908890889060801b602087015160608801516001600160801b031660809190911b17602087015160608801516001600160801b031660809190911b176000878152600c602052604090209493929190614387565b60405181907fe5eb1255799fb22ca9d80c7be5ade81a40ee66578748386701667d3cc4c5e9b990600090a2506000600855909590945092505050565b6001600160a01b0381166000908152600a6020526040812054600114610ad957600092915050565b60006001600160a01b0384166130795760008060008085875af190508061307457604051633d2cec6f60e21b815260040160405180910390fd5b6130d4565b60405163a9059cbb60e01b6000528360045282602452602060006044600080895af13d15601f3d11600160005114161716915060006060528060405250806130d457604051633c9fd93960e21b815260040160405180910390fd5b50505050565b80546130e5906138bb565b1561311b5760405162461bcd60e51b81526004016109c4906020808252600490820152634730303760e01b604082015260600190565b80546001600160ff1b031661313481600160ff1b614f2f565b90915550565b8054613145906138bb565b61317a5760405162461bcd60e51b81526004016109c49060208082526004908201526308e6060760e31b604082015260600190565b80546001600160ff1b03169055565b81547f0fffffffffffffffffffffffffffffffffffffffffffffffffffffffffffffff90911690613134908290600f60fc1b16614f2f565b60008060e283901c603f1660e884901c603f1660ee85901c603f1660f486901c603f166131ee8760fa1c90565b6131f89190615140565b6132029190615140565b61320c9190615140565b6132169190615140565b90508060ff1660641461322a576000611552565b60019392505050565b6040805161010081018252600080825260208201819052918101829052606081018290526080810182905260a0810182905260c0810182905260e0810191909152825160a0840151600091829161329e916001600160801b031661271060e09290921c607f16020490565b6001600160801b031660408601819052855186906132bd908390614f55565b6001600160801b03169052505b84516001600160801b0316158015906132f157506132f185608001518660c0015186614401565b156134e2576133126133078660c0015160801c90565b60e08701519061458c565b6001600160801b031661333761332c876080015160801c90565b60a08801519061458c565b6001600160801b0316101561336757613362613357866080015160801c90565b60a08701519061458c565b613378565b6133786133078660c0015160801c90565b608086015190925061338a908361433d565b9050806001600160801b031685600001516001600160801b0316111561343e5780856000018181516133bc9190614f55565b6001600160801b031690525060c08501516133d7908361433d565b856020018181516133e89190614fec565b6001600160801b0390811690915260808781015161341393509184169085901b176145bc565b6145bc565b608086015260c08501516134349061342f846117b4838261433d565b6145e9565b60c08601526134bf565b8451608086015161344e916142c3565b60c0860151909250613460908361433d565b856020018181516134719190614fec565b6001600160801b03908116909152608087810151885161349994509092169085901b176145bc565b608086015260c08501516134b59061342f846117b4838261433d565b60c0860152600085525b81856060018181516134d19190614fec565b6001600160801b03169052506132ca565b84516001600160801b03161561356f57845160a0860151613516916001600160801b0316606460f49290921c603f16020490565b856040018181516135279190614f55565b6001600160801b03908116909152865160a088015161355393509116606460f49290921c603f16020490565b85518690613562908390614fec565b6001600160801b03169052505b50929392505050565b6003850184905560058501546135a8906135a3606460fa86901c6001600160801b03881602046117a7565b614616565b60058601556135b985848484614639565b5050505050565b6040516323b872dd60e01b81526001600160a01b038381166004830152306024830152604482018390528416906323b872dd906064016020604051808303816000875af1158015613615573d6000803e3d6000fd5b505050506040513d601f19601f820116820180604052508101906130d49190615159565b6040805161010081018252600080825260208201819052918101829052606081018290526080810182905260a0810182905260c0810182905260e0810182905290805b84516001600160801b0316158015906136a357506136a385608001518660c0015186614401565b1561356f576136b96133078660c0015160801c90565b6001600160801b03166136d361332c876080015160801c90565b6001600160801b031610156136f8576136f3613357866080015160801c90565b613709565b6137096133078660c0015160801c90565b60c086015190925061371b908361433d565b9050806001600160801b031685600001516001600160801b031611156137c557808560000181815161374d9190614f55565b6001600160801b03169052506080850151613768908361433d565b856020018181516137799190614fec565b6001600160801b0390811690915260c087015161379f9250908316608085901b176145e9565b60c086015260808501516137bb9061340e846117b4838261433d565b6080860152613846565b845160c08601516137d5916142c3565b60808601519092506137e7908361433d565b856020018181516137f89190614fec565b6001600160801b0390811690915260c087015187516138209350909116608085901b176145e9565b60c0860152608085015161383c9061340e846117b4838261433d565b6080860152600085525b84516001600160801b03161561389857845160a086015161387a916001600160801b0316606460f49290921c603f16020490565b8560400181815161388b9190614f55565b6001600160801b03169052505b81856060018181516138aa9190614fec565b6001600160801b031690525061367c565b600060ff82901c6001811461322a576000611552565b600081604051602001613902919081516001600160a01b039081168252602092830151169181019190915260400190565b604051602081830303815290604052805190602001209050919050565b6040805182516001600160a01b031660208083019190915283015181830152908201516060820152600090608001613902565b60048401546001600160801b03166000036139865783546001600160a01b0319163317845560018401839055600060028501555b613994846004015482614616565b600485015560038401546139a89083614616565b846003018190555050505050565b6040805160808101825260008082526020820181905291810182905260608101919091526040805160808101825260008082526020820181905291810182905260608101919091526000613a2586613a1f613a158a6003015460801c90565b60048b01546117b4565b906142c3565b90506040518060800160405280613a5188613a1f613a478e6005015460801c90565b60048f01546117b4565b6001600160801b03168152602001613a7e88613a1f613a748c6004015460801c90565b60048d01546117b4565b6001600160801b03168152602001826001600160801b03168152602001876001600160801b03168152509250613ac3613abb8a6003015460801c90565b8a549061486c565b6001600160801b031683604001516001600160801b0316108015613b055750613af0613abb8a6003015490565b6001600160801b0316866001600160801b0316105b613b3a5760405162461bcd60e51b81526004016109c4906020808252600490820152634730313160e01b604082015260600190565b6040518060800160405280613b6783613a1f613b5a8d6005015460801c90565b60048e015460801c6117b4565b6001600160801b03168152602001613b9783613a1f613b8a8c6005015460801c90565b60038d015460801c6117b4565b6001600160801b03168152602001826001600160801b03168152602001613bc683613a1f613b8a8c6005015490565b6001600160801b03168152509150613bea613be2896003015490565b89549061486c565b6001600160801b031682606001516001600160801b0316108015613c2f5750613c1a613be2896003015460801c90565b6001600160801b0316816001600160801b0316105b613c645760405162461bcd60e51b81526004016109c4906020808252600490820152632398189960e11b604082015260600190565b613c938960030154613c8e8560400151866060015160809190911b6001600160801b039091161790565b614891565b60038a0155600489015460408401516060850151613cc0929160801b6001600160801b0390911617614891565b60048a0155600589015483516020850151613cea929160801b6001600160801b0390911617614891565b60058a015560208301518351613d009190614f55565b6001600160801b03908116845260608401518a54613d2c9290911661271060ee9290921c607f16020490565b6001600160801b03166020840181905260058a0154613d59916135a390606460fa8a901c909102046117a7565b60058a015560208301516001600160801b031615613d8157613d818984602001518787614639565b613dab8860030154613c8e8460400151856060015160809190911b6001600160801b039091161790565b6003890155600488015460408301516060840151613dd8929160801b6001600160801b0390911617614891565b6004890155600588015482516020840151613e02929160801b6001600160801b0390911617614891565b600589015560208201518251613e189190614f55565b6001600160801b03908116835260608301518954613e449290911661271060ee9290921c607f16020490565b6001600160801b0316602083018190526005890154613e71916135a390606460fa8a901c909102046117a7565b6005890155613e8087876148b4565b60208201516001600160801b031615613ea357613ea38883602001518787614639565b50965096945050505050565b6040805160808101825260008082526020820181905291810182905260608101919091528454613ef4906001600160801b03861661271060f59290921c607f16020490565b613efe9085614f55565b6001600160801b0316606082018190526003860154613f1c916142c3565b6001600160801b0316604082015260608101516005860154613f4a9190613a1f9060801c60048901546117b4565b6001600160801b031660208201526060810151613f8390613f6b9086614f55565b84906001600160801b0316606460fa9290921c020490565b6001600160801b031680825260058601546020830151613fc2926135a391613faa91614fec565b60208501516001600160801b031660809190911b1790565b6005860155600385015460408201516060830151613fef929160801b6001600160801b0390911617614616565b600386015560048501546040820151606083015161401c929160801b6001600160801b0390911617614616565b600486015560608101516000906140339086614f55565b90506001600160801b0381161561405f5761405f868360600151876140589190614f55565b8686614639565b50949350505050565b60408051608081018252600080825260208201819052918101829052606081019190915260405180608001604052806140b686613a1f6140ac8b6005015460801c90565b60048c01546117b4565b6001600160801b031681526020016140d986613a1f613a158a6004015460801c90565b6001600160801b031681526020016140fc86613a1f613a158a6003015460801c90565b6001600160801b03168152602001856001600160801b0316815250905061413261412a876003015460801c90565b87549061486c565b6001600160801b031681604001516001600160801b0316108015614174575061415f61412a876003015490565b6001600160801b0316846001600160801b0316105b6141a95760405162461bcd60e51b81526004016109c4906020808252600490820152634730303960e01b604082015260600190565b6141d38660030154613c8e8360400151846060015160809190911b6001600160801b039091161790565b6003870155600486015460408201516060830151614200929160801b6001600160801b0390911617614891565b600487015560058601548151602083015161422a929160801b6001600160801b0390911617614891565b600587015561423985856149bc565b6020810151815161424a9190614f55565b6001600160801b039081168252606082015187546142769290911661271060ee9290921c607f16020490565b6001600160801b03166020820181905260058701546142a3916135a390606460fa88901c909102046117a7565b600587015560208101516142ba9087908585614639565b95945050505050565b6000826001600160801b03166000036142de57506000610ba6565b6000836001600160801b0316836001600160801b03166142fe8660801c90565b6001600160801b03166143119190615176565b61431b91906151a3565b90506001600160801b03811115614333576000614335565b805b949350505050565b60006143498360801c90565b6001600160801b031660000361436157506000610ba6565b600061436d8460801c90565b6001600160801b0316836001600160801b03166142fe8690565b60048601546001600160801b03166000036143bb5785546001600160a01b0319163317865560018601859055600286018490555b6143c9866003015484614616565b600387015560048601546143dd9083614616565b600487015560058601546143f19082614616565b8660050181905550505050505050565b6000836001600160801b03161580614429575061441e8360801c90565b6001600160801b0316155b8061444457506144398260801c90565b6001600160801b0316155b1561445157506000611552565b60001982846144608760801c90565b61446a91906151b7565b61447491906151b7565b6001600160801b031611156144b65760405162461bcd60e51b81526020600482015260086024820152676f766572666c6f7760c01b60448201526064016109c4565b6000196144c38360801c90565b6144cd8560801c90565b6144d790876151b7565b6144e191906151b7565b6001600160801b031611156145235760405162461bcd60e51b81526020600482015260086024820152676f766572666c6f7760c01b60448201526064016109c4565b61452d8260801c90565b6145378460801c90565b61454190866151b7565b61454b91906151b7565b6001600160801b031682846145608760801c90565b61456a91906151b7565b61457491906151b7565b6001600160801b03161061154e576000949350505050565b60006103ff60d684901c168082036145a75782915050610ba6565b6145b28160406151b7565b61433590846151e2565b60006115526145cb8360801c90565b6145d58560801c90565b6145df9190614f55565b6117b48486614fec565b60006115526145f88360801c90565b6146028560801c90565b61460c9190614fec565b6117b48486614f55565b60006115526146258360801c90565b61462f8560801c90565b6145df9190614fec565b60208101516000906001600160a01b0316614730576064603f60e285901c166001600160801b03861602046064603f60f486901c166001600160801b03871602046146849190614fec565b60018601546001600160a01b03166000908152600687016020526040812080549293506001600160801b038416929091906146c0908490614f2f565b909155508190506146e360646001600160801b03871660fa87901c020486614f55565b6146ed9190614f55565b82516001600160a01b03166000908152600687016020526040812080546001600160801b039390931692909190614725908490614f2f565b909155506135b99050565b60018501546001600160a01b031660009081526006860160205260408120805460646001600160801b0388811660f489901c603f160291909104169290614778908490614f2f565b90915550506064603f60e885901c166001600160801b03861602046001600160801b031685600601600084602001516001600160a01b03166001600160a01b0316815260200190815260200160002060008282546147d69190614f2f565b90915550503360009081526006860160205260408120805460646001600160801b0388811660e289901c603f160291909104169290614816908490614f2f565b909155505081516001600160a01b031660009081526006860160205260408120805460646001600160801b0388811660ee89901c603f160291909104169290614860908490614f2f565b90915550505050505050565b60006103ff60cc84901c168082036148875782915050610ba6565b61433581846151e2565b60006115526148a08360801c90565b6148aa8560801c90565b61460c9190614f55565b60006149066148f76148ca856003015460801c90565b6001600160801b0316846001600160801b03166148e8876004015490565b6001600160801b031691020490565b60048501546117b490856142c3565b9050600061496861493c61491e866005015460801c90565b6001600160801b0316856001600160801b03166148e8886004015490565b6117b461494a876005015490565b6001600160801b0316866001600160801b03166148e8896004015490565b905061498d8460040154613c8e61497c8590565b60801b6001600160801b0387161790565b600485015560058401546149a19082614891565b600585015560038401546139a890613c8e6117a78560801c90565b60006149d26148f76148ca856003015460801c90565b90506149f78360040154613c8e6149e68490565b60801b6001600160801b0386161790565b60048401556003830154614a1290613c8e6117a78460801c90565b8360030181905550505050565b600060208284031215614a3157600080fd5b5035919050565b60008060408385031215614a4b57600080fd5b50508035926020909101359150565b80356001600160a01b0381168114610a7a57600080fd5b600060208284031215614a8357600080fd5b61155282614a5a565b60008060408385031215614a9f57600080fd5b82359150614aaf60208401614a5a565b90509250929050565b60008060408385031215614acb57600080fd5b614ad483614a5a565b946020939093013593505050565b6020808252825182820181905260009190848201906040850190845b81811015614b1a57835183529284019291840191600101614afe565b50909695505050505050565b80356001600160801b0381168114610a7a57600080fd5b8015158114614b4b57600080fd5b50565b60008060008060008060c08789031215614b6757600080fd5b8635955060208701359450614b7e60408801614b26565b9350606087013592506080870135614b9581614b3d565b9150614ba360a08801614a5a565b90509295509295509295565b60008060008060008060c08789031215614bc857600080fd5b8635955060208701359450614bdf60408801614b26565b935060608701359250614b9560808801614a5a565b600080600060608486031215614c0957600080fd5b8335925060208401359150614c2060408501614a5a565b90509250925092565b600080600060608486031215614c3e57600080fd5b614c4784614a5a565b95602085013595506040909401359392505050565b600060608284031215614c6e57600080fd5b50919050565b600080600060608486031215614c8957600080fd5b83359250614c9960208501614b26565b9150614c2060408501614a5a565b6101008101614ce4828580516001600160801b03908116835260208083015182169084015260408083015182169084015260609182015116910152565b82516001600160801b0390811660808401526020840151811660a08401526040840151811660c084015260608401511660e0830152611552565b60808101610ba6828480516001600160801b03908116835260208083015182169084015260408083015182169084015260609182015116910152565b60008060208385031215614d6d57600080fd5b823567ffffffffffffffff80821115614d8557600080fd5b818501915085601f830112614d9957600080fd5b813581811115614da857600080fd5b8660208260051b8501011115614dbd57600080fd5b60209290920196919550909350505050565b60005b83811015614dea578181015183820152602001614dd2565b50506000910152565b60008151808452614e0b816020860160208601614dcf565b601f01601f19169290920160200192915050565b600060208083016020845280855180835260408601915060408160051b87010192506020870160005b82811015614e7657603f19888603018452614e64858351614df3565b94509285019290850190600101614e48565b5092979650505050505050565b60008060008060808587031215614e9957600080fd5b8435935060208501359250614eb060408601614b26565b9150614ebe60608601614a5a565b905092959194509250565b600080600080600060a08688031215614ee157600080fd5b8535945060208601359350614ef860408701614a5a565b925060608601359150614f0d60808701614a5a565b90509295509295909350565b634e487b7160e01b600052601160045260246000fd5b80820180821115610ba657610ba6614f19565b81810381811115610ba657610ba6614f19565b6001600160801b0382811682821603908082111561207257612072614f19565b634e487b7160e01b600052604160045260246000fd5b600060608284031215614f9d57600080fd5b6040516060810181811067ffffffffffffffff82111715614fc057614fc0614f75565b604052614fcc83614a5a565b815260208301356020820152604083013560408201528091505092915050565b6001600160801b0381811683821601908082111561207257612072614f19565b634e487b7160e01b600052603260045260246000fd5b6000808335601e1984360301811261503957600080fd5b83018035915067ffffffffffffffff82111561505457600080fd5b60200191503681900382131561506957600080fd5b9250929050565b8183823760009101908152919050565b60006020828403121561509257600080fd5b815167ffffffffffffffff808211156150aa57600080fd5b818401915084601f8301126150be57600080fd5b8151818111156150d0576150d0614f75565b604051601f8201601f19908116603f011681019083821181831017156150f8576150f8614f75565b8160405282815287602084870101111561511157600080fd5b615122836020830160208801614dcf565b979650505050505050565b6020815260006115526020830184614df3565b60ff8181168382160190811115610ba657610ba6614f19565b60006020828403121561516b57600080fd5b815161433381614b3d565b8082028115828204841417610ba657610ba6614f19565b634e487b7160e01b600052601260045260246000fd5b6000826151b2576151b261518d565b500490565b6001600160801b038181168382160280821691908281146151da576151da614f19565b505092915050565b60006001600160801b03808416806151fc576151fc61518d565b9216919091049291505056fea2646970667358221220b692ccfa1f54e989050643c3c2a781cfc117651f5708669eb4c1be88cba5633d64736f6c63430008180033","linkReferences":{}},"methodIdentifiers":{"addbanlist(address)":"b153b920","addreferer(address)":"8bdde5d3","banlist(address)":"2973ada7","buyGood(uint256,uint256,uint128,uint256,bool,address)":"578496ab","buyGoodForPay(uint256,uint256,uint128,uint256,address,address)":"7b43e738","changeGoodOwner(uint256,address)":"2a7c5a91","changeProofOwner(uint256,address)":"99e23fc2","check_banlist(address)":"fc5f8dd0","collectProtocolFee(uint256)":"0292eb4a","customerno(address)":"c3a2b159","customernum()":"40430a49","disinvestNormalGood(uint256,uint256,uint128,address)":"ad864a79","disinvestNormalProof(uint256,uint128,address)":"a4500ff3","disinvestValueGood(uint256,uint128,address)":"c138f7a9","disinvestValueProof(uint256,uint128,address)":"c16b80fe","getGoodIdByAddress(address)":"3f8cbb2a","getGoodState(uint256)":"a6f6a980","getGoodsFee(uint256,address)":"56b7d94c","getProofId((address,uint256,uint256))":"9caa637b","getProofState(uint256)":"3f117740","goodnum()":"6ab107f9","goodseq(bytes32)":"d756d4b7","initMetaGood(address,uint256,uint256)":"97924ead","initNormalGood(uint256,uint256,address,uint256,address)":"cbb2aabc","investNormalGood(uint256,uint256,uint128,address)":"e1f685e8","investValueGood(uint256,uint128,address)":"a64d6c9c","marketconfig()":"402f5ab5","marketcreator()":"3d995173","multicall(bytes[])":"ac9650d8","ownergoods(address,uint256)":"3be81387","ownerproofs(address,uint256)":"bda984c3","payGood(uint256,uint256,address)":"920acbb8","proofnum()":"c33c03aa","proofs(uint256)":"9ddaf5aa","proofseq(bytes32)":"430b9be7","relations(address)":"161ce5cb","removebanlist(address)":"9551177a","setMarketConfig(uint256)":"45818e4c","updateGoodConfig(uint256,uint256)":"144aeb83","updatetoNormalGood(uint256)":"14484e10","updatetoValueGood(uint256)":"0a25dcff"},"id":1}