{"abi":[{"type":"constructor","inputs":[{"name":"_marketconfig","type":"uint256","internalType":"uint256"},{"name":"_officialcontract","type":"address","internalType":"address"}],"stateMutability":"nonpayable"},{"type":"function","name":"DOMAIN_SEPARATOR","inputs":[],"outputs":[{"name":"","type":"bytes32","internalType":"bytes32"}],"stateMutability":"view"},{"type":"function","name":"addbanlist","inputs":[{"name":"_user","type":"address","internalType":"address"}],"outputs":[{"name":"","type":"bool","internalType":"bool"}],"stateMutability":"nonpayable"},{"type":"function","name":"approve","inputs":[{"name":"to","type":"address","internalType":"address"},{"name":"tokenId","type":"uint256","internalType":"uint256"}],"outputs":[],"stateMutability":"nonpayable"},{"type":"function","name":"balanceOf","inputs":[{"name":"owner","type":"address","internalType":"address"}],"outputs":[{"name":"","type":"uint256","internalType":"uint256"}],"stateMutability":"view"},{"type":"function","name":"banlist","inputs":[{"name":"","type":"address","internalType":"address"}],"outputs":[{"name":"","type":"uint256","internalType":"uint256"}],"stateMutability":"view"},{"type":"function","name":"buyGood","inputs":[{"name":"_goodid1","type":"uint256","internalType":"uint256"},{"name":"_goodid2","type":"uint256","internalType":"uint256"},{"name":"_swapQuantity","type":"uint128","internalType":"uint128"},{"name":"_limitPrice","type":"uint256","internalType":"T_BalanceUINT256"},{"name":"_istotal","type":"bool","internalType":"bool"},{"name":"_referal","type":"address","internalType":"address"}],"outputs":[{"name":"goodid2Quantity_","type":"uint128","internalType":"uint128"},{"name":"goodid2FeeQuantity_","type":"uint128","internalType":"uint128"}],"stateMutability":"payable"},{"type":"function","name":"buyGoodForPay","inputs":[{"name":"_goodid1","type":"uint256","internalType":"uint256"},{"name":"_goodid2","type":"uint256","internalType":"uint256"},{"name":"_swapQuantity","type":"uint128","internalType":"uint128"},{"name":"_limitPrice","type":"uint256","internalType":"T_BalanceUINT256"},{"name":"_recipient","type":"address","internalType":"address"}],"outputs":[{"name":"goodid1Quantity_","type":"uint128","internalType":"uint128"},{"name":"goodid1FeeQuantity_","type":"uint128","internalType":"uint128"}],"stateMutability":"payable"},{"type":"function","name":"changeGoodOwner","inputs":[{"name":"_goodid","type":"uint256","internalType":"uint256"},{"name":"_to","type":"address","internalType":"address"}],"outputs":[],"stateMutability":"nonpayable"},{"type":"function","name":"collectCommission","inputs":[{"name":"_goodid","type":"uint256[]","internalType":"uint256[]"}],"outputs":[],"stateMutability":"nonpayable"},{"type":"function","name":"collectProof","inputs":[{"name":"_proofid","type":"uint256","internalType":"uint256"},{"name":"_gater","type":"address","internalType":"address"}],"outputs":[{"name":"profit_","type":"uint256","internalType":"T_BalanceUINT256"}],"stateMutability":"nonpayable"},{"type":"function","name":"disinvestProof","inputs":[{"name":"_proofid","type":"uint256","internalType":"uint256"},{"name":"_goodQuantity","type":"uint128","internalType":"uint128"},{"name":"_gater","type":"address","internalType":"address"}],"outputs":[{"name":"","type":"bool","internalType":"bool"}],"stateMutability":"nonpayable"},{"type":"function","name":"eip712Domain","inputs":[],"outputs":[{"name":"fields","type":"bytes1","internalType":"bytes1"},{"name":"name","type":"string","internalType":"string"},{"name":"version","type":"string","internalType":"string"},{"name":"chainId","type":"uint256","internalType":"uint256"},{"name":"verifyingContract","type":"address","internalType":"address"},{"name":"salt","type":"bytes32","internalType":"bytes32"},{"name":"extensions","type":"uint256[]","internalType":"uint256[]"}],"stateMutability":"view"},{"type":"function","name":"getApproved","inputs":[{"name":"tokenId","type":"uint256","internalType":"uint256"}],"outputs":[{"name":"","type":"address","internalType":"address"}],"stateMutability":"view"},{"type":"function","name":"getGoodState","inputs":[{"name":"goodkey","type":"uint256","internalType":"uint256"}],"outputs":[{"name":"","type":"tuple","internalType":"struct L_Good.S_GoodTmpState","components":[{"name":"goodConfig","type":"uint256","internalType":"uint256"},{"name":"owner","type":"address","internalType":"address"},{"name":"erc20address","type":"address","internalType":"address"},{"name":"currentState","type":"uint256","internalType":"T_BalanceUINT256"},{"name":"investState","type":"uint256","internalType":"T_BalanceUINT256"},{"name":"feeQuantityState","type":"uint256","internalType":"T_BalanceUINT256"}]}],"stateMutability":"view"},{"type":"function","name":"getProofState","inputs":[{"name":"proofid","type":"uint256","internalType":"uint256"}],"outputs":[{"name":"","type":"tuple","internalType":"struct L_Proof.S_ProofState","components":[{"name":"currentgood","type":"uint256","internalType":"uint256"},{"name":"valuegood","type":"uint256","internalType":"uint256"},{"name":"state","type":"uint256","internalType":"T_BalanceUINT256"},{"name":"invest","type":"uint256","internalType":"T_BalanceUINT256"},{"name":"valueinvest","type":"uint256","internalType":"T_BalanceUINT256"}]}],"stateMutability":"view"},{"type":"function","name":"goodNum","inputs":[],"outputs":[{"name":"","type":"uint256","internalType":"uint256"}],"stateMutability":"view"},{"type":"function","name":"goodWelfare","inputs":[{"name":"goodid","type":"uint256","internalType":"uint256"},{"name":"welfare","type":"uint128","internalType":"uint128"}],"outputs":[],"stateMutability":"payable"},{"type":"function","name":"initGood","inputs":[{"name":"_valuegood","type":"uint256","internalType":"uint256"},{"name":"_initial","type":"uint256","internalType":"T_BalanceUINT256"},{"name":"_erc20address","type":"address","internalType":"address"},{"name":"_goodConfig","type":"uint256","internalType":"uint256"}],"outputs":[{"name":"","type":"bool","internalType":"bool"}],"stateMutability":"payable"},{"type":"function","name":"initMetaGood","inputs":[{"name":"_erc20address","type":"address","internalType":"address"},{"name":"_initial","type":"uint256","internalType":"T_BalanceUINT256"},{"name":"_goodConfig","type":"uint256","internalType":"uint256"}],"outputs":[{"name":"","type":"bool","internalType":"bool"}],"stateMutability":"payable"},{"type":"function","name":"investGood","inputs":[{"name":"_togood","type":"uint256","internalType":"uint256"},{"name":"_valuegood","type":"uint256","internalType":"uint256"},{"name":"_quantity","type":"uint128","internalType":"uint128"}],"outputs":[{"name":"","type":"bool","internalType":"bool"}],"stateMutability":"payable"},{"type":"function","name":"isApprovedForAll","inputs":[{"name":"owner","type":"address","internalType":"address"},{"name":"operator","type":"address","internalType":"address"}],"outputs":[{"name":"","type":"bool","internalType":"bool"}],"stateMutability":"view"},{"type":"function","name":"ishigher","inputs":[{"name":"goodid","type":"uint256","internalType":"uint256"},{"name":"valuegood","type":"uint256","internalType":"uint256"},{"name":"compareprice","type":"uint256","internalType":"uint256"}],"outputs":[{"name":"","type":"bool","internalType":"bool"}],"stateMutability":"view"},{"type":"function","name":"marketconfig","inputs":[],"outputs":[{"name":"","type":"uint256","internalType":"uint256"}],"stateMutability":"view"},{"type":"function","name":"modifyGoodConfig","inputs":[{"name":"_goodid","type":"uint256","internalType":"uint256"},{"name":"_goodConfig","type":"uint256","internalType":"uint256"}],"outputs":[{"name":"","type":"bool","internalType":"bool"}],"stateMutability":"nonpayable"},{"type":"function","name":"name","inputs":[],"outputs":[{"name":"","type":"string","internalType":"string"}],"stateMutability":"view"},{"type":"function","name":"nonces","inputs":[{"name":"tokenId","type":"uint256","internalType":"uint256"}],"outputs":[{"name":"","type":"uint256","internalType":"uint256"}],"stateMutability":"view"},{"type":"function","name":"ownerOf","inputs":[{"name":"tokenId","type":"uint256","internalType":"uint256"}],"outputs":[{"name":"","type":"address","internalType":"address"}],"stateMutability":"view"},{"type":"function","name":"payGood","inputs":[{"name":"_goodid","type":"uint256","internalType":"uint256"},{"name":"_payquanity","type":"uint256","internalType":"uint256"},{"name":"_recipent","type":"address","internalType":"address"}],"outputs":[{"name":"","type":"bool","internalType":"bool"}],"stateMutability":"payable"},{"type":"function","name":"permit","inputs":[{"name":"spender","type":"address","internalType":"address"},{"name":"tokenId","type":"uint256","internalType":"uint256"},{"name":"deadline","type":"uint256","internalType":"uint256"},{"name":"signature","type":"bytes","internalType":"bytes"}],"outputs":[],"stateMutability":"nonpayable"},{"type":"function","name":"proofmapping","inputs":[{"name":"","type":"uint256","internalType":"uint256"}],"outputs":[{"name":"","type":"uint256","internalType":"uint256"}],"stateMutability":"view"},{"type":"function","name":"queryCommission","inputs":[{"name":"_goodid","type":"uint256[]","internalType":"uint256[]"},{"name":"_recipent","type":"address","internalType":"address"}],"outputs":[{"name":"","type":"uint256[]","internalType":"uint256[]"}],"stateMutability":"view"},{"type":"function","name":"removebanlist","inputs":[{"name":"_user","type":"address","internalType":"address"}],"outputs":[{"name":"","type":"bool","internalType":"bool"}],"stateMutability":"nonpayable"},{"type":"function","name":"safeTransferFrom","inputs":[{"name":"from","type":"address","internalType":"address"},{"name":"to","type":"address","internalType":"address"},{"name":"tokenId","type":"uint256","internalType":"uint256"}],"outputs":[],"stateMutability":"nonpayable"},{"type":"function","name":"safeTransferFrom","inputs":[{"name":"from","type":"address","internalType":"address"},{"name":"to","type":"address","internalType":"address"},{"name":"tokenId","type":"uint256","internalType":"uint256"},{"name":"data","type":"bytes","internalType":"bytes"}],"outputs":[],"stateMutability":"nonpayable"},{"type":"function","name":"safeTransferFromWithPermit","inputs":[{"name":"from","type":"address","internalType":"address"},{"name":"to","type":"address","internalType":"address"},{"name":"tokenId","type":"uint256","internalType":"uint256"},{"name":"_data","type":"bytes","internalType":"bytes"},{"name":"deadline","type":"uint256","internalType":"uint256"},{"name":"signature","type":"bytes","internalType":"bytes"}],"outputs":[],"stateMutability":"nonpayable"},{"type":"function","name":"setApprovalForAll","inputs":[{"name":"operator","type":"address","internalType":"address"},{"name":"approved","type":"bool","internalType":"bool"}],"outputs":[],"stateMutability":"nonpayable"},{"type":"function","name":"setMarketConfig","inputs":[{"name":"_marketconfig","type":"uint256","internalType":"uint256"}],"outputs":[{"name":"","type":"bool","internalType":"bool"}],"stateMutability":"nonpayable"},{"type":"function","name":"supportsInterface","inputs":[{"name":"interfaceId","type":"bytes4","internalType":"bytes4"}],"outputs":[{"name":"","type":"bool","internalType":"bool"}],"stateMutability":"view"},{"type":"function","name":"symbol","inputs":[],"outputs":[{"name":"","type":"string","internalType":"string"}],"stateMutability":"view"},{"type":"function","name":"tokenURI","inputs":[{"name":"tokenId","type":"uint256","internalType":"uint256"}],"outputs":[{"name":"","type":"string","internalType":"string"}],"stateMutability":"view"},{"type":"function","name":"totalSupply","inputs":[],"outputs":[{"name":"","type":"uint256","internalType":"uint256"}],"stateMutability":"view"},{"type":"function","name":"transferFrom","inputs":[{"name":"from","type":"address","internalType":"address"},{"name":"to","type":"address","internalType":"address"},{"name":"tokenId","type":"uint256","internalType":"uint256"}],"outputs":[],"stateMutability":"nonpayable"},{"type":"function","name":"updateGoodConfig","inputs":[{"name":"_goodid","type":"uint256","internalType":"uint256"},{"name":"_goodConfig","type":"uint256","internalType":"uint256"}],"outputs":[{"name":"","type":"bool","internalType":"bool"}],"stateMutability":"nonpayable"},{"type":"event","name":"Approval","inputs":[{"name":"owner","type":"address","indexed":true,"internalType":"address"},{"name":"approved","type":"address","indexed":true,"internalType":"address"},{"name":"tokenId","type":"uint256","indexed":true,"internalType":"uint256"}],"anonymous":false},{"type":"event","name":"ApprovalForAll","inputs":[{"name":"owner","type":"address","indexed":true,"internalType":"address"},{"name":"operator","type":"address","indexed":true,"internalType":"address"},{"name":"approved","type":"bool","indexed":false,"internalType":"bool"}],"anonymous":false},{"type":"event","name":"EIP712DomainChanged","inputs":[],"anonymous":false},{"type":"event","name":"Transfer","inputs":[{"name":"from","type":"address","indexed":true,"internalType":"address"},{"name":"to","type":"address","indexed":true,"internalType":"address"},{"name":"tokenId","type":"uint256","indexed":true,"internalType":"uint256"}],"anonymous":false},{"type":"event","name":"e_addbanlist","inputs":[{"name":"_user","type":"address","indexed":false,"internalType":"address"}],"anonymous":false},{"type":"event","name":"e_addreferal","inputs":[{"name":"referals","type":"address","indexed":false,"internalType":"address"}],"anonymous":false},{"type":"event","name":"e_buyGood","inputs":[{"name":"sellgood","type":"uint256","indexed":true,"internalType":"uint256"},{"name":"forgood","type":"uint256","indexed":true,"internalType":"uint256"},{"name":"fromer","type":"address","indexed":false,"internalType":"address"},{"name":"swapvalue","type":"uint128","indexed":false,"internalType":"uint128"},{"name":"sellgoodstate","type":"uint256","indexed":false,"internalType":"T_BalanceUINT256"},{"name":"forgoodstate","type":"uint256","indexed":false,"internalType":"T_BalanceUINT256"}],"anonymous":false},{"type":"event","name":"e_buyGoodForPay","inputs":[{"name":"buygood","type":"uint256","indexed":true,"internalType":"uint256"},{"name":"usegood","type":"uint256","indexed":true,"internalType":"uint256"},{"name":"fromer","type":"address","indexed":false,"internalType":"address"},{"name":"receipt","type":"address","indexed":false,"internalType":"address"},{"name":"swapvalue","type":"uint128","indexed":false,"internalType":"uint128"},{"name":"buygoodstate","type":"uint256","indexed":false,"internalType":"T_BalanceUINT256"},{"name":"usegoodstate","type":"uint256","indexed":false,"internalType":"T_BalanceUINT256"}],"anonymous":false},{"type":"event","name":"e_changeOwner","inputs":[{"name":"_goodid","type":"uint256","indexed":true,"internalType":"uint256"},{"name":"_owner","type":"address","indexed":false,"internalType":"address"},{"name":"_to","type":"address","indexed":false,"internalType":"address"}],"anonymous":false},{"type":"event","name":"e_changegoodowner","inputs":[{"name":"goodid","type":"uint256","indexed":false,"internalType":"uint256"},{"name":"to","type":"address","indexed":false,"internalType":"address"}],"anonymous":false},{"type":"event","name":"e_collectProof","inputs":[{"name":"_proofNo","type":"uint256","indexed":true,"internalType":"uint256"},{"name":"_normalGoodNo","type":"uint256","indexed":false,"internalType":"uint256"},{"name":"_valueGoodNo","type":"uint256","indexed":false,"internalType":"uint256"},{"name":"_profit","type":"uint256","indexed":false,"internalType":"T_BalanceUINT256"}],"anonymous":false},{"type":"event","name":"e_collectProtocolFee","inputs":[{"name":"goodid","type":"uint256","indexed":false,"internalType":"uint256"},{"name":"feeamount","type":"uint256","indexed":false,"internalType":"uint256"}],"anonymous":false},{"type":"event","name":"e_collectcommission","inputs":[{"name":"_gooid","type":"uint256[]","indexed":false,"internalType":"uint256[]"},{"name":"_commisionamount","type":"uint256[]","indexed":false,"internalType":"uint256[]"}],"anonymous":false},{"type":"event","name":"e_disinvestProof","inputs":[{"name":"_proofNo","type":"uint256","indexed":true,"internalType":"uint256"},{"name":"_normalGoodNo","type":"uint256","indexed":false,"internalType":"uint256"},{"name":"_valueGoodNo","type":"uint256","indexed":false,"internalType":"uint256"},{"name":"_value","type":"uint256","indexed":false,"internalType":"T_BalanceUINT256"},{"name":"_normalgood","type":"uint256","indexed":false,"internalType":"T_BalanceUINT256"},{"name":"_valuegood","type":"uint256","indexed":false,"internalType":"T_BalanceUINT256"},{"name":"_profit","type":"uint256","indexed":false,"internalType":"T_BalanceUINT256"}],"anonymous":false},{"type":"event","name":"e_enpower","inputs":[{"name":"_goodid","type":"uint256","indexed":false,"internalType":"uint256"},{"name":"_valuegood","type":"uint256","indexed":false,"internalType":"uint256"},{"name":"_quantity","type":"uint256","indexed":false,"internalType":"uint256"}],"anonymous":false},{"type":"event","name":"e_goodWelfare","inputs":[{"name":"goodid","type":"uint256","indexed":false,"internalType":"uint256"},{"name":"welfare","type":"uint128","indexed":false,"internalType":"uint128"}],"anonymous":false},{"type":"event","name":"e_initGood","inputs":[{"name":"_proofNo","type":"uint256","indexed":false,"internalType":"uint256"},{"name":"_extendinfo","type":"uint256","indexed":false,"internalType":"T_BalanceUINT256"},{"name":"_valuegoodNo","type":"uint256","indexed":false,"internalType":"uint256"},{"name":"_erc20address","type":"address","indexed":false,"internalType":"address"},{"name":"_goodConfig","type":"uint256","indexed":false,"internalType":"uint256"},{"name":"_normalinitial","type":"uint256","indexed":false,"internalType":"T_BalanceUINT256"},{"name":"_value","type":"uint256","indexed":false,"internalType":"T_BalanceUINT256"}],"anonymous":false},{"type":"event","name":"e_initMetaGood","inputs":[{"name":"_proofNo","type":"uint256","indexed":false,"internalType":"uint256"},{"name":"_extendinfo","type":"uint256","indexed":false,"internalType":"T_BalanceUINT256"},{"name":"_erc20address","type":"address","indexed":false,"internalType":"address"},{"name":"_goodConfig","type":"uint256","indexed":false,"internalType":"uint256"},{"name":"_initial","type":"uint256","indexed":false,"internalType":"T_BalanceUINT256"}],"anonymous":false},{"type":"event","name":"e_investGood","inputs":[{"name":"_proofNo","type":"uint256","indexed":true,"internalType":"uint256"},{"name":"_extendinfo","type":"uint256","indexed":false,"internalType":"T_BalanceUINT256"},{"name":"_valueGoodNo","type":"uint256","indexed":false,"internalType":"uint256"},{"name":"_value","type":"uint256","indexed":false,"internalType":"T_BalanceUINT256"},{"name":"_invest","type":"uint256","indexed":false,"internalType":"T_BalanceUINT256"},{"name":"_valueinvest","type":"uint256","indexed":false,"internalType":"T_BalanceUINT256"}],"anonymous":false},{"type":"event","name":"e_modifyGoodConfig","inputs":[{"name":"_goodid","type":"uint256","indexed":false,"internalType":"uint256"},{"name":"_goodconfig","type":"uint256","indexed":false,"internalType":"uint256"}],"anonymous":false},{"type":"event","name":"e_removebanlist","inputs":[{"name":"_user","type":"address","indexed":false,"internalType":"address"}],"anonymous":false},{"type":"event","name":"e_setMarketConfig","inputs":[{"name":"_marketconfig","type":"uint256","indexed":false,"internalType":"uint256"}],"anonymous":false},{"type":"event","name":"e_updateGoodConfig","inputs":[{"name":"_goodid","type":"uint256","indexed":false,"internalType":"uint256"},{"name":"_goodConfig","type":"uint256","indexed":false,"internalType":"uint256"}],"anonymous":false},{"type":"error","name":"ERC20TransferFailed","inputs":[]},{"type":"error","name":"InvalidShortString","inputs":[]},{"type":"error","name":"NativeTransferFailed","inputs":[]},{"type":"error","name":"StringTooLong","inputs":[{"name":"str","type":"string","internalType":"string"}]}],"bytecode":{"object":"0x6101a06040527f49ecf333e5b8c95c40fdafc95c1ad136e8914a8fb55e9dc8bb01eaa83a2df9ad61016052348015610035575f80fd5b5060405161674c38038061674c83398101604081905261005491610212565b81818060405180604001604052806007815260200166151514c813919560ca1b8152506040518060400160405280600381526020016254545360e81b81525081604051806040016040528060018152602001603160f81b8152508383815f90816100be91906102e4565b5060016100cb82826102e4565b506100db9150839050600661019a565b610120526100ea81600761019a565b61014052815160208084019190912060e052815190820120610100524660a05261017660e05161010051604080517f8b73c3c69bb8fe3d512ecc4cf759cc79239f7b179b0ffacaa9a75d522b39400f60208201529081019290925260608201524660808201523060a08201525f9060c00160405160208183030381529060405280519060200120905090565b60805250503060c05250506001600160a01b03166101805250600c55506103f69050565b5f6020835110156101b5576101ae836101cc565b90506101c6565b816101c084826102e4565b5060ff90505b92915050565b5f80829050601f815111156101ff578260405163305a27a960e01b81526004016101f6919061039e565b60405180910390fd5b805161020a826103d3565b179392505050565b5f8060408385031215610223575f80fd5b825160208401519092506001600160a01b0381168114610241575f80fd5b809150509250929050565b634e487b7160e01b5f52604160045260245ffd5b600181811c9082168061027457607f821691505b60208210810361029257634e487b7160e01b5f52602260045260245ffd5b50919050565b601f8211156102df57805f5260205f20601f840160051c810160208510156102bd5750805b601f840160051c820191505b818110156102dc575f81556001016102c9565b50505b505050565b81516001600160401b038111156102fd576102fd61024c565b6103118161030b8454610260565b84610298565b6020601f821160018114610343575f831561032c5750848201515b5f19600385901b1c1916600184901b1784556102dc565b5f84815260208120601f198516915b828110156103725787850151825560209485019460019092019101610352565b508482101561038f57868401515f19600387901b60f8161c191681555b50505050600190811b01905550565b602081525f82518060208401528060208501604085015e5f604082850101526040601f19601f83011684010191505092915050565b80516020808301519190811015610292575f1960209190910360031b1b16919050565b60805160a05160c05160e051610100516101205161014051610160516101805161628f6104bd5f395f8181610add01528181610df801528181610e6d0152818161100c0152818161138a0152818161150e01528181611afa01528181611d3a01528181611e620152818161232a01528181612475015281816128190152818161299e01528181612b3c015261324501525f61336d01525f611a1b01525f6119f001525f61356b01525f61354301525f61349e01525f6134c801525f6134f2015261628f5ff3fe6080604052600436106102cc575f3560e01c80635e008cc41161017b578063a676a600116100d1578063b88d4fde11610087578063f44733ad11610062578063f44733ad1461087e578063f4662f2014610891578063f88c3010146108b0575f80fd5b8063b88d4fde146107f9578063c87b56dd14610818578063e985e9c514610837575f80fd5b8063a7e11697116100b7578063a7e11697146107a8578063a7fed925146107bb578063b153b920146107da575f80fd5b8063a676a6001461070d578063a6f6a9801461072c575f80fd5b806384b0196e1161013157806395d89b411161010c57806395d89b41146106c757806397924ead146106db578063a22cb465146106ee575f80fd5b806384b0196e1461066e578063920acbb8146106955780639551177a146106a8575f80fd5b80636ff73c8e116101615780636ff73c8e1461060457806370a0823114610630578063745a41bc1461064f575f80fd5b80635e008cc4146105ba5780636352211e146105e5575f80fd5b806324744d5411610230578063402f5ab5116101e65780634ffef907116101c15780634ffef9071461055f578063578496ab146105725780635a5da4dd146105a5575f80fd5b8063402f5ab51461050c57806342842e0e1461052157806345818e4c14610540575f80fd5b80632a7c5a91116102165780632a7c5a91146104795780633644e515146104985780633f117740146104ac575f80fd5b806324744d541461042f5780632973ada71461044e575f80fd5b8063141a468c1161028557806318160ddd1161026b57806318160ddd146103e857806318ad50d1146103fd57806323b872dd14610410575f80fd5b8063141a468c1461039c578063144aeb83146103c9575f80fd5b8063081812fc116102b5578063081812fc14610325578063095ea7b31461035c5780630e21a1ac1461037d575f80fd5b806301ffc9a7146102d057806306fdde0314610304575b5f80fd5b3480156102db575f80fd5b506102ef6102ea366004615844565b6108cf565b60405190151581526020015b60405180910390f35b34801561030f575f80fd5b506103186108f9565b6040516102fb919061588d565b348015610330575f80fd5b5061034461033f36600461589f565b610988565b6040516001600160a01b0390911681526020016102fb565b348015610367575f80fd5b5061037b6103763660046158ca565b6109ad565b005b348015610388575f80fd5b506102ef6103973660046158f4565b610ac6565b3480156103a7575f80fd5b506103bb6103b636600461589f565b610bb3565b6040519081526020016102fb565b3480156103d4575f80fd5b506102ef6103e33660046158f4565b610bc6565b3480156103f3575f80fd5b506103bb60095481565b61037b61040b366004615928565b610c37565b34801561041b575f80fd5b5061037b61042a366004615956565b610d75565b34801561043a575f80fd5b5061037b610449366004615a45565b610e38565b348015610459575f80fd5b506103bb610468366004615adf565b600f6020525f908152604090205481565b348015610484575f80fd5b5061037b610493366004615afa565b610e58565b3480156104a3575f80fd5b506103bb610f52565b3480156104b7575f80fd5b506104cb6104c636600461589f565b610f60565b6040516102fb91905f60a082019050825182526020830151602083015260408301516040830152606083015160608301526080830151608083015292915050565b348015610517575f80fd5b506103bb600c5481565b34801561052c575f80fd5b5061037b61053b366004615956565b610fdb565b34801561054b575f80fd5b506102ef61055a36600461589f565b610ff5565b6102ef61056d366004615b1d565b6110ca565b610585610580366004615b68565b61149b565b604080516001600160801b039384168152929091166020830152016102fb565b3480156105b0575f80fd5b506103bb600d5481565b3480156105c5575f80fd5b506103bb6105d436600461589f565b600b6020525f908152604090205481565b3480156105f0575f80fd5b506103446105ff36600461589f565b6117dd565b34801561060f575f80fd5b5061062361061e366004615c3f565b611841565b6040516102fb9190615cbd565b34801561063b575f80fd5b506103bb61064a366004615adf565b611939565b34801561065a575f80fd5b5061037b610669366004615ccf565b6119d1565b348015610679575f80fd5b506106826119e3565b6040516102fb9796959493929190615d2e565b6102ef6106a3366004615d9b565b611a6a565b3480156106b3575f80fd5b506102ef6106c2366004615adf565b611ae3565b3480156106d2575f80fd5b50610318611bc0565b6102ef6106e9366004615dd1565b611bcf565b3480156106f9575f80fd5b5061037b610708366004615e03565b611dd9565b348015610718575f80fd5b506103bb610727366004615afa565b611de4565b348015610737575f80fd5b5061074b61074636600461589f565b611fd7565b6040516102fb91905f60c082019050825182526001600160a01b0360208401511660208301526001600160a01b036040840151166040830152606083015160608301526080830151608083015260a083015160a083015292915050565b6105856107b6366004615e36565b612081565b3480156107c6575f80fd5b506102ef6107d5366004615e88565b6122ec565b3480156107e5575f80fd5b506102ef6107f4366004615adf565b612313565b348015610804575f80fd5b5061037b610813366004615eb1565b6123f2565b348015610823575f80fd5b5061031861083236600461589f565b6124b6565b348015610842575f80fd5b506102ef610851366004615f01565b6001600160a01b039182165f90815260056020908152604080832093909416825291909152205460ff1690565b6102ef61088c366004615f2d565b612519565b34801561089c575f80fd5b506102ef6108ab366004615f58565b6128e5565b3480156108bb575f80fd5b5061037b6108ca366004615f8c565b612c17565b5f6001600160e01b03198216635604e22560e01b14806108f357506108f382612e78565b92915050565b60605f805461090790615fbe565b80601f016020809104026020016040519081016040528092919081815260200182805461093390615fbe565b801561097e5780601f106109555761010080835404028352916020019161097e565b820191905f5260205f20905b81548152906001019060200180831161096157829003601f168201915b5050505050905090565b5f61099282612ec7565b505f908152600460205260409020546001600160a01b031690565b5f6109b7826117dd565b9050806001600160a01b0316836001600160a01b031603610a295760405162461bcd60e51b815260206004820152602160248201527f4552433732313a20617070726f76616c20746f2063757272656e74206f776e656044820152603960f91b60648201526084015b60405180910390fd5b336001600160a01b0382161480610a455750610a458133610851565b610ab75760405162461bcd60e51b815260206004820152603d60248201527f4552433732313a20617070726f76652063616c6c6572206973206e6f7420746f60448201527f6b656e206f776e6572206f7220617070726f76656420666f7220616c6c0000006064820152608401610a20565b610ac18383612f2d565b505050565b6040516394c3c33360e01b81523360048201525f907f00000000000000000000000000000000000000000000000000000000000000006001600160a01b0316906394c3c33390602401602060405180830381865afa158015610b2a573d5f803e3d5ffd5b505050506040513d601f19601f82011682018060405250810190610b4e9190615ff6565b600214610b59575f80fd5b5f838152600e60205260409020610b709083612f9a565b60408051848152602081018490527f5af113730f9ee4153f120c893809feafa233584bbe5e93b5d78e0699c9c8ca5691015b60405180910390a150600192915050565b5f818152600860205260408120546108f3565b5f828152600e60205260408120600101546001600160a01b03163314610bea575f80fd5b5f838152600e60205260409020610c019083612fd9565b60408051848152602081018490527fc360eef79f1e7d7e7564e3cd446a9839f5a632a38a4d34b507c08e1ceef461479101610ba2565b6001600160a01b037fcfdbe78f31bc5efa50605e8b11a7b6843971370ea97eb24de6e1a1eb9d2356455c1615610c6b575f80fd5b610c7433613014565b5f828152600e60205260409020600501546d200000000000000000000000000090610ca390839060801c616021565b6001600160801b03161115610cb6575f80fd5b5f828152600e6020526040902060020154610ce4906001600160a01b0316336001600160801b03841661303a565b5f828152600e6020526040902060050154610d0890608083901b613047565b613047565b5f838152600e60205260409081902060050191909155517f54fe3e24ce316357354d8b9553364de253d61c742d913dfd419149ddf696947a90610d6090849084909182526001600160801b0316602082015260400190565b60405180910390a1610d715f613014565b5050565b610d7f338261307f565b610de15760405162461bcd60e51b815260206004820152602d60248201527f4552433732313a2063616c6c6572206973206e6f7420746f6b656e206f776e6560448201526c1c881bdc88185c1c1c9bdd9959609a1b6064820152608401610a20565b5f818152600a6020526040902060020154610e22907f000000000000000000000000000000000000000000000000000000000000000090859060801c6130fb565b610e2d838383613165565b610ac1818484613184565b610e4433858484613308565b610e50868686866123f2565b505050505050565b6040516394c3c33360e01b81523360048201527f00000000000000000000000000000000000000000000000000000000000000006001600160a01b0316906394c3c33390602401602060405180830381865afa158015610eba573d5f803e3d5ffd5b505050506040513d601f19601f82011682018060405250810190610ede9190615ff6565b600214610ee9575f80fd5b5f828152600e602090815260409182902060010180546001600160a01b0319166001600160a01b0385169081179091558251858152918201527f0dccb79e09923e42093e54de6132ceba9b88b094d10632520f6eeb8058a6721c91015b60405180910390a15050565b5f610f5b613492565b905090565b610f8d6040518060a001604052805f81526020015f81526020015f81526020015f81526020015f81525090565b505f908152600a6020908152604091829020825160a0810184528154815260018201549281019290925260028101549282019290925260038201546060820152600490910154608082015290565b610ac183838360405180602001604052805f8152506123f2565b6040516394c3c33360e01b81523360048201525f907f00000000000000000000000000000000000000000000000000000000000000006001600160a01b0316906394c3c33390602401602060405180830381865afa158015611059573d5f803e3d5ffd5b505050506040513d601f19601f8201168201806040525081019061107d9190615ff6565b600214611088575f80fd5b600c8290556040518281527fbd209961024f2694b0afb3c8badd20b6477abb77b336b16892c3fa4b906d323c906020015b60405180910390a15060015b919050565b5f6001600160a01b037fcfdbe78f31bc5efa50605e8b11a7b6843971370ea97eb24de6e1a1eb9d2356455c16156110ff575f80fd5b61110833613014565b5f6111386040518060400160405280336001600160a01b03168152602001866001600160a01b03168152506135bb565b5f818152600e60205260409020600101549091506001600160a01b031615801561117457505f868152600e6020526040902054600160ff1b1615155b61117c575f80fd5b6111a43361118a8760801c90565b6001600160a01b03871691906001600160801b031661303a565b5f868152600e60205260409020600201546111d2906001600160a01b0316336001600160801b03881661303a565b5f868152600e602052604081206111e99087613609565b90506001600d5f8282546111fd9190616040565b9250508190555061128461122c82604001516112198960801c90565b6001600160801b031660809190911b1790565b5f848152600e602052604090206003810182905560048101919091556001600160df1b03861681556002810180546001600160a01b0389166001600160a01b0319918216179091556001909101805490911633179055565b600160095f8282546112969190616040565b909155505060408051606081018252338152602081018490529081018890525f906112c09061375d565b6009545f828152600b602052604090208190559091506112e190339061378f565b6040805160a081018252848152602081018a905283820151909182019060801b81526020016113145f6112198b60801c90565b815260200161133b8460200151856060015160809190911b6001600160801b039091161790565b815250600a5f60095481526020019081526020015f205f820151815f0155602082015181600101556040820151816002015560608201518160030155608082015181600401559050505f6113c07f000000000000000000000000000000000000000000000000000000000000000033856040015160026113bb9190616053565b613917565b90507fd5b1190461e8b8cebdd658c8dd4f092c64be24d6dae8d80a4174dad7899a814e6009546114036113f287613992565b60801b6001600160801b0385161790565b8b8a8a61142b6114138f60801c90565b60408b01516001600160801b031660809190911b1790565b895160608b01516001600160801b031660809190911b17604080519788526020880196909652948601939093526001600160a01b039091166060850152608084015260a083015260c082015260e00160405180910390a160019450505050506114935f613014565b949350505050565b5f806001600160a01b037fcfdbe78f31bc5efa50605e8b11a7b6843971370ea97eb24de6e1a1eb9d2356455c16156114d1575f80fd5b6114da33613014565b6001600160a01b03831615611566576040516376549e6760e11b81523360048201526001600160a01b0384811660248301527f0000000000000000000000000000000000000000000000000000000000000000169063eca93cce906044015f604051808303815f87803b15801561154f575f80fd5b505af1158015611561573d5f803e3d5ffd5b505050505b60408051610100810182526001600160801b03881681525f6020808301829052828401829052606083018290528b8252600e8082528483206003808201546080870152905460a08601528c84528183529483209485015460c0850152918b905252905460e08201526115d881876139ac565b90505f876001600160801b03161180156116075750866001600160801b0316815f01516001600160801b031614155b80156116135750878914155b801561163757506001851515148015611635575080516001600160801b031615155b155b61163f575f80fd5b6020808201515f8a8152600e909252604090912054611672916001600160801b031661271060cc9290921c607f16020490565b9150818160200151611684919061607c565b60808201516040808401515f8d8152600e602052919091209295506116aa929190613d0c565b60c08101515f898152600e602052604090206116c69184613d0c565b80516117029033906116d8908a61607c565b5f8c8152600e60205260409020600201546001600160a01b031691906001600160801b031661303a565b5f888152600e6020526040902060020154611730906001600160a01b0316336001600160801b038616613d33565b87897fa79c43e220b5faf022716b06e757294b799a25f33d3c8b0121e614f7b5d988c4338460600151611783865f01518d61176b919061607c565b60408801516001600160801b031660809190911b1790565b6001600160801b03881660808a901b17604080516001600160a01b0390951685526001600160801b03909316602085015291830152606082015260800160405180910390a3506117d25f613014565b965096945050505050565b5f818152600260205260408120546001600160a01b0316806108f35760405162461bcd60e51b815260206004820152601860248201527f4552433732313a20696e76616c696420746f6b656e20494400000000000000006044820152606401610a20565b60606064835110611850575f80fd5b5f835167ffffffffffffffff81111561186b5761186b615994565b604051908082528060200260200182016040528015611894578160200160208202803683370190505b5090505f5b845181101561193157600e5f8683815181106118b7576118b761609b565b602002602001015181526020019081526020015f206006015f856001600160a01b03166001600160a01b031681526020019081526020015f205f9054906101000a90046001600160801b03166001600160801b031682828151811061191e5761191e61609b565b6020908102919091010152600101611899565b509392505050565b5f6001600160a01b0382166119b65760405162461bcd60e51b815260206004820152602960248201527f4552433732313a2061646472657373207a65726f206973206e6f74206120766160448201527f6c6964206f776e657200000000000000000000000000000000000000000000006064820152608401610a20565b506001600160a01b03165f9081526003602052604090205490565b6119dd84848484613308565b50505050565b5f60608082808083611a167f00000000000000000000000000000000000000000000000000000000000000006006613dc5565b611a417f00000000000000000000000000000000000000000000000000000000000000006007613dc5565b604080515f80825260208201909252600f60f81b9b939a50919850469750309650945092509050565b5f838152600e60205260408120600201546001600160a01b0316611ab2575f848152600e6020526040902060020154611aad906001600160a01b03168385613d33565b611ad8565b5f848152600e6020526040902060020154611ad8906001600160a01b0316338486613e6e565b5060015b9392505050565b6040516394c3c33360e01b81523360048201525f907f00000000000000000000000000000000000000000000000000000000000000006001600160a01b0316906394c3c33390602401602060405180830381865afa158015611b47573d5f803e3d5ffd5b505050506040513d601f19601f82011682018060405250810190611b6b9190615ff6565b600214611b76575f80fd5b6001600160a01b0382165f818152600f602090815260408083209290925590519182527e4ba2ca448db089eb9fb0b25431f0d57664d46141171fed2476281b578d96d491016110b9565b60606001805461090790615fbe565b5f600d545f148015611be65750600160ff1b821615155b611bee575f80fd5b611bf8338461118a565b6001600d5f828254611c0a9190616040565b9091555050604080518082019091523381526001600160a01b03851660208201525f90611c36906135bb565b5f818152600e6020526040902060038101869055600481018690556001600160df1b03851681556002810180546001600160a01b0389166001600160a01b03199182161790915560018201805490911633179055909150611c9c90640100000000612f9a565b600160095f828254611cae9190616040565b909155505060408051606081018252338152602081018390525f918101829052611cd79061375d565b6009545f828152600b60205260409020819055909150611cf890339061378f565b611d34825f611d10611d0a8960801c90565b60801b90565b611d1a5f8a611219565b6009545f908152600a602052604081209493929190613f13565b5f611d647f0000000000000000000000000000000000000000000000000000000000000000336113bb8960801c90565b90507f9f234216268c7b4b9373c01c9d1cc757d055e68b6440edbaaf229c63a0313bc7600954611d966113f286613992565b6040805192835260208301919091526001600160a01b038a1690820152606081018790526080810188905260a00160405180910390a15060019695505050505050565b610d71338383613f81565b5f6001600160a01b037fcfdbe78f31bc5efa50605e8b11a7b6843971370ea97eb24de6e1a1eb9d2356455c1615611e19575f80fd5b611e2233613014565b611e2c338461307f565b611e34575f80fd5b5f838152600a602052604080822060018101549054915163b88e6d6360e01b815233600482015290929081907f00000000000000000000000000000000000000000000000000000000000000006001600160a01b03169063b88e6d63906024016040805180830381865afa158015611eae573d5f803e3d5ffd5b505050506040513d601f19601f82011682018060405250810190611ed291906160af565b6001600160a01b0388165f908152600f60205260409020549193509150600114611efc5785611efe565b815b9550806001600160a01b0316866001600160a01b031614611f1f5780611f21565b815b6001600160a01b0381165f908152600f6020526040902054909150600114611f495781611f4b565b805b5f858152600e602081815260408084208c8552600a8352818520600c548a8752949093529320939450611f849392918a9086908861404e565b604080518581526020810187905290810182905290955087907f172f458c2c853ed38b0114381270db7647bc1f9b612a42852353261a7e3379be9060600160405180910390a2505050506108f35f613014565b61201c6040518060c001604052805f81526020015f6001600160a01b031681526020015f6001600160a01b031681526020015f81526020015f81526020015f81525090565b506040805160c0810182525f838152600e60208181528483208054855260018101546001600160a01b0390811683870152600282015416958501959095526003850154606085015260048501546080850152949091529092526005015460a082015290565b5f806001600160a01b037fcfdbe78f31bc5efa50605e8b11a7b6843971370ea97eb24de6e1a1eb9d2356455c16156120b7575f80fd5b6120c033613014565b60408051610100810182526001600160801b03871681525f6020808301829052828401829052606083018290528a8252600e8082528483206003808201546080870152905460a08601528b84528183529483209485015460c0850152918a905252905460e0820152612132818661413f565b905086881415801561214c575080516001600160801b0316155b612154575f80fd5b6020808201515f8a8152600e909252604090912054612187916001600160801b031661271060c59290921c607f16020490565b91508181602001516121999190616021565b60c08201516040808401515f8b8152600e602052919091209295506121bf929190613d0c565b60808101515f898152600e602052604090206121db9184613d0c565b612219848260400151886121ef919061607c565b5f8a8152600e60205260409020600201546001600160a01b031691906001600160801b0316613d33565b5f888152600e6020526040902060020154612247906001600160a01b0316336001600160801b03861661303a565b86887f3de590341c976ea6fce618ef4a768a15441201ad3ed7c9b438d82c3951de7ced3387856060015161228f8c886040015160809190911b6001600160801b039091161790565b604080516001600160a01b0395861681529390941660208401526001600160801b03918216838501526060830152608089811b918916919091179082015290519081900360a00190a3506122e25f613014565b9550959350505050565b5f838152600e602052604080822060039081015485845291832001546114939190846143c0565b6040516394c3c33360e01b81523360048201525f907f00000000000000000000000000000000000000000000000000000000000000006001600160a01b0316906394c3c33390602401602060405180830381865afa158015612377573d5f803e3d5ffd5b505050506040513d601f19601f8201168201806040525081019061239b9190615ff6565b6002146123a6575f80fd5b6001600160a01b0382165f818152600f60209081526040918290206001905590519182527f8e1c2d1a5dce36a56a9dfcb96e5816e793c16d6c897b4e3c0b1f99588bb88a1c91016110b9565b6123fc338361307f565b61245e5760405162461bcd60e51b815260206004820152602d60248201527f4552433732313a2063616c6c6572206973206e6f7420746f6b656e206f776e6560448201526c1c881bdc88185c1c1c9bdd9959609a1b6064820152608401610a20565b5f828152600a602052604090206002015461249f907f000000000000000000000000000000000000000000000000000000000000000090869060801c6130fb565b6124ab8484848461444b565b6119dd828585613184565b60606124c182612ec7565b5f6124ca6144d4565b90505f8151116124e85760405180602001604052805f815250611adc565b806124f2846144f4565b6040516020016125039291906160f3565b6040516020818303038152906040529392505050565b5f6001600160a01b037fcfdbe78f31bc5efa50605e8b11a7b6843971370ea97eb24de6e1a1eb9d2356455c161561254e575f80fd5b61255733613014565b604080516080810182525f808252602082018190529181018290526060810191909152604080516080810182525f8082526020820181905291810182905260608101919091525f868152600e60205260409020600301546d20000000000000000000000000009085906125ca9190616021565b6001600160801b0316111580156125e15750848614155b801561261b57505f868152600e6020526040902054600160ff1b1615158061261b57505f858152600e6020526040902054600160ff1b1615155b612623575f80fd5b5f868152600e6020526040902061263a9085613609565b5f878152600e602052604090206002015490925061266b906001600160a01b0316336001600160801b03871661303a565b8415612715576040808301515f878152600e602052919091206003015461269191614591565b6001600160801b0316606082018190525f868152600e602052604090205460d91c603f16612710908103909104026001600160801b0316606082018190525f868152600e60205260409020600201546126f7916001600160a01b0390911690339061303a565b60608101515f868152600e6020526040902061271291613609565b90505b5f6127426040518060600160405280336001600160a01b031681526020018981526020018881525061375d565b5f818152600b602052604081205491925081900361279457600160095f82825461276c9190616040565b9250508190555061277f3360095461378f565b506009545f828152600b602052604090208190555b60408401516127ef908990899060801b602088015160608901516001600160801b031660809190911b17602088015160608901516001600160801b031660809190911b175f878152600a602052604090209493929190613f13565b5f871561280b576040850151612806906002616053565b612811565b84604001515b90505f61283f7f00000000000000000000000000000000000000000000000000000000000000003384613917565b9050827f54327712026ec7eff19c69f41b88780daaa74a97ae2dcfa56a1de52fb0e07fcd61286f6113f28d613992565b60408901518c9060801b8a5160608c01516001600160801b031660809190911b178a5160608c01516001600160801b031660809190911b17604080519586526020860194909452928401919091526060830152608082015260a00160405180910390a260019650505050505050611adc5f613014565b5f6001600160a01b037fcfdbe78f31bc5efa50605e8b11a7b6843971370ea97eb24de6e1a1eb9d2356455c161561291a575f80fd5b61292333613014565b61292d338561307f565b612935575f80fd5b604080516060810182525f8082526020820181905291810191909152604080516060810182525f80825260208201819052918101919091525f868152600a60205260408082208054600190910154915163b88e6d6360e01b8152336004820152909290819081907f00000000000000000000000000000000000000000000000000000000000000006001600160a01b03169063b88e6d63906024016040805180830381865afa1580156129ea573d5f803e3d5ffd5b505050506040513d601f19601f82011682018060405250810190612a0e91906160af565b6001600160a01b038b165f908152600f60205260409020549193509150600114612a385781612a3a565b885b9850806001600160a01b0316896001600160a01b031614612a5b5780612a5d565b815b6001600160a01b0381165f908152600f6020526040902054909150600114612a855781612a87565b805b9050612b1c600e5f8681526020019081526020015f20600a5f8e81526020019081526020015f206040518060a001604052808e6001600160801b031681526020018d6001600160a01b03168152602001856001600160a01b03168152602001600c548152602001866001600160a01b0316815250600e5f8a81526020019081526020015f206145c1909392919063ffffffff16565b919850965092508315612b3757612b34836002616053565b92505b612b627f000000000000000000000000000000000000000000000000000000000000000033856130fb565b8a7f4741de4d43f1462a092cdf2a25cfc5d5bdf2c96f169d5e64121e800b6fc417ee8686608087901b60208c015160408d01516001600160801b031660809190911b1760208c015160408d01516001600160801b031660809190911b178d518d516001600160801b031660809190911b17604080519687526020870195909552938501929092526060840152608083015260a082015260c00160405180910390a26001975050505050505050611adc5f613014565b6064815110612c24575f80fd5b5f815167ffffffffffffffff811115612c3f57612c3f615994565b604051908082528060200260200182016040528015612c68578160200160208202803683370190505b5090505f5b8251811015612e4657600e5f848381518110612c8b57612c8b61609b565b60209081029190910181015182528181019290925260409081015f90812033825260060190925290205482516001600160801b0390911690839083908110612cd557612cd561609b565b6020026020010181815250506002828281518110612cf557612cf561609b565b60200260200101511015612d27575f828281518110612d1657612d1661609b565b602002602001018181525050612e3e565b6001828281518110612d3b57612d3b61609b565b6020026020010151612d4d9190616107565b828281518110612d5f57612d5f61609b565b6020026020010181815250506001600e5f858481518110612d8257612d8261609b565b602002602001015181526020019081526020015f206006015f336001600160a01b03166001600160a01b031681526020019081526020015f205f6101000a8154816001600160801b0302191690836001600160801b03160217905550612e3e33838381518110612df457612df461609b565b6020026020010151600e5f878681518110612e1157612e1161609b565b60209081029190910181015182528101919091526040015f20600201546001600160a01b03169190613d33565b600101612c6d565b507f8124a8d085ceb98e89ac6906c6e138dca5fdbc28a91438e33d7a2ab6c75742fd8282604051610f4692919061611a565b5f6001600160e01b031982166380ac58cd60e01b1480612ea857506001600160e01b03198216635b5e139f60e01b145b806108f357506301ffc9a760e01b6001600160e01b03198316146108f3565b5f818152600260205260409020546001600160a01b0316612f2a5760405162461bcd60e51b815260206004820152601860248201527f4552433732313a20696e76616c696420746f6b656e20494400000000000000006044820152606401610a20565b50565b5f81815260046020526040902080546001600160a01b0319166001600160a01b0384169081179091558190612f61826117dd565b6001600160a01b03167f8c5be1e5ebec7d5bd14f71427d1e84f3dd0314c0f7b2291e5b200ac8c7c3b92560405160405180910390a45050565b815460df82901b90612fc9907b8000000000000000000000000000000000000000000000000000000090616152565b612fd39190616040565b90915550565b81546001600160df1b0390911690612fd39082907fffffffff8000000000000000000000000000000000000000000000000000000016616040565b807fcfdbe78f31bc5efa50605e8b11a7b6843971370ea97eb24de6e1a1eb9d2356455d50565b306119dd84848385613e6e565b5f608082811d9084901d016001600160801b038381169085160161307661306d83613992565b61121983613992565b95945050505050565b5f8061308a836117dd565b9050806001600160a01b0316846001600160a01b031614806130d057506001600160a01b038082165f9081526005602090815260408083209388168352929052205460ff165b806114935750836001600160a01b03166130e984610988565b6001600160a01b031614949350505050565b604051637bd3ca3560e01b81526001600160a01b0383811660048301526001600160801b0383166024830152841690637bd3ca35906044015f604051808303815f87803b15801561314a575f80fd5b505af115801561315c573d5f803e3d5ffd5b50505050505050565b5f81815260086020526040902080546001019055610ac1838383614ac5565b5f600a5f8581526020019081526020015f206040518060a00160405290815f820154815260200160018201548152602001600282015481526020016003820154815260200160048201548152505090505f6132086040518060600160405280866001600160a01b03168152602001845f01518152602001846020015181525061375d565b90505f61323e6040518060600160405280866001600160a01b03168152602001855f01518152602001856020015181525061375d565b90506132737f0000000000000000000000000000000000000000000000000000000000000000856113bb866040015160801c90565b505f818152600b6020526040812054908190036132a4575f838152600b6020526040808220548483529120556132f2565b5f878152600a602052604080822083835291206132c091614ca3565b5f878152600a60205260408120818155600181018290556002810182905560038101829055600401556132f287614cf5565b50505f908152600b602052604081205550505050565b814211156133585760405162461bcd60e51b815260206004820152601e60248201527f4552433732315065726d69743a206578706972656420646561646c696e6500006044820152606401610a20565b5f8381526008602090815260408083205481517f0000000000000000000000000000000000000000000000000000000000000000818501526001600160a01b0389168184015260608101889052608081019190915260a08082018790528251808303909101815260c09091019091528051910120906133d682614d87565b90505f6133e38285614db3565b5090505f6001600160a01b038216158015906134045750613404828861307f565b905080806134205750613420613419886117dd565b8487614df5565b80613432575061343261341988610988565b61347e5760405162461bcd60e51b815260206004820152601f60248201527f4552433732315065726d69743a20696e76616c6964207369676e6174757265006044820152606401610a20565b6134888888612f2d565b5050505050505050565b5f306001600160a01b037f0000000000000000000000000000000000000000000000000000000000000000161480156134ea57507f000000000000000000000000000000000000000000000000000000000000000046145b1561351457507f000000000000000000000000000000000000000000000000000000000000000090565b610f5b604080517f8b73c3c69bb8fe3d512ecc4cf759cc79239f7b179b0ffacaa9a75d522b39400f60208201527f0000000000000000000000000000000000000000000000000000000000000000918101919091527f000000000000000000000000000000000000000000000000000000000000000060608201524660808201523060a08201525f9060c00160405160208183030381529060405280519060200120905090565b5f816040516020016135eb919081516001600160a01b039081168252602092830151169181019190915260400190565b60408051601f19818403018152919052805160209091012092915050565b604080516080810182525f808252602082018190529181018290526060810191909152825461364d906001600160801b03841661271060d99290921c603f16020490565b6001600160801b0316808252613663908361607c565b6001600160801b031660608201819052600384015461368191614efb565b6001600160801b03166040820152606081015160058401546136b591906136af9060801c6004870154611219565b90614efb565b6001600160801b031660208201819052600584015482516136f692610d03916136de9190616021565b60208501516001600160801b031660809190911b1790565b6005840155600383015460408201516060830151613723929160801b6001600160801b0390911617613047565b6003840155600483015460408201516060830151613750929160801b6001600160801b0390911617613047565b6004909301929092555090565b6040805182516001600160a01b0316602080830191909152830151818301529082015160608201525f906080016135eb565b6001600160a01b0382166137e55760405162461bcd60e51b815260206004820181905260248201527f4552433732313a206d696e7420746f20746865207a65726f20616464726573736044820152606401610a20565b5f818152600260205260409020546001600160a01b0316156138495760405162461bcd60e51b815260206004820152601c60248201527f4552433732313a20746f6b656e20616c7265616479206d696e746564000000006044820152606401610a20565b5f818152600260205260409020546001600160a01b0316156138ad5760405162461bcd60e51b815260206004820152601c60248201527f4552433732313a20746f6b656e20616c7265616479206d696e746564000000006044820152606401610a20565b6001600160a01b0382165f81815260036020908152604080832080546001019055848352600290915280822080546001600160a01b0319168417905551839291907fddf252ad1be2c89b69c2b068fc378daa952ba7f163c4a11628f55a4df523b3ef908290a45050565b60405163067e356d60e21b81526001600160a01b0383811660048301526001600160801b03831660248301525f91908516906319f8d5b4906044016020604051808303815f875af115801561396e573d5f803e3d5ffd5b505050506040513d601f19601f820116820180604052508101906114939190616165565b5f6001600160801b038211156139a8575f6108f3565b5090565b60408051610100810182525f80825260208201819052918101829052606081018290526080810182905260a0810182905260c0810182905260e08101919091526139ff83608001518460c00151846143c0565b613a0a5750816108f3565b825160a08401515f918291613a33916001600160801b031661271060c59290921c607f16020490565b6001600160801b03166040860181905285518690613a5290839061607c565b6001600160801b03169052505b84516001600160801b031615801590613a865750613a8685608001518660c00151866143c0565b15613c7457613aa7613a9c8660c0015160801c90565b60e087015190614f23565b6001600160801b0316613acc613ac1876080015160801c90565b60a088015190614f23565b6001600160801b03161015613afc57613af7613aec866080015160801c90565b60a087015190614f23565b613b0d565b613b0d613a9c8660c0015160801c90565b6080860151909250613b1f9083614591565b9050806001600160801b0316855f01516001600160801b03161115613bd15780855f01818151613b4f919061607c565b6001600160801b031690525060c0850151613b6a9083614591565b85602001818151613b7b9190616021565b6001600160801b03908116909152608087810151613ba693509184169085901b17614f52565b614f52565b608086015260c0850151613bc790613bc2846112198382614591565b614f78565b60c0860152613c51565b84516080860151613be191614efb565b60c0860151909250613bf39083614591565b85602001818151613c049190616021565b6001600160801b039081169091526080878101518851613c2c94509092169085901b17614f52565b608086015260c0850151613c4890613bc2846112198382614591565b60c08601525f85525b8185606001818151613c639190616021565b6001600160801b0316905250613a5f565b84516001600160801b031615613d0357845160a0860151613ca9916001600160801b031661271060c59290921c607f16020490565b85604001818151613cba919061607c565b6001600160801b03908116909152865160a0880151613ce79350911661271060c59290921c607f16020490565b85518690613cf6908390616021565b6001600160801b03169052505b50929392505050565b600383018290556005830154613d2690608083901b613047565b8360050181905550505050565b5f6001600160a01b038416613d6f575f805f8085875af1905080613d6a57604051633d2cec6f60e21b815260040160405180910390fd5b6119dd565b60405163a9059cbb60e01b5f52836004528260245260205f60445f80895af13d15601f3d1160015f511416171691505f6060528060405250806119dd57604051633c9fd93960e21b815260040160405180910390fd5b606060ff8314613ddf57613dd883614f9e565b90506108f3565b818054613deb90615fbe565b80601f0160208091040260200160405190810160405280929190818152602001828054613e1790615fbe565b8015613e625780601f10613e3957610100808354040283529160200191613e62565b820191905f5260205f20905b815481529060010190602001808311613e4557829003601f168201915b505050505090506108f3565b5f6001600160a01b038516613ea257813414613e9d57604051633d2cec6f60e21b815260040160405180910390fd5b613f0c565b6040516323b872dd60e01b81526001600160a01b03851660048201526001600160a01b038416602482015282604482015260205f6064835f8a5af13d15601f3d1160015f511416171691505080613f0c57604051633c9fd93960e21b815260040160405180910390fd5b5050505050565b60038601546001600160801b03165f03613f2b578486555b8315613f3957600186018490555b613f47866002015484613047565b60028701556003860154613f5b9083613047565b60038701558315610e5057613f74866004015482613047565b6004870155505050505050565b816001600160a01b0316836001600160a01b031603613fe25760405162461bcd60e51b815260206004820152601960248201527f4552433732313a20617070726f766520746f2063616c6c6572000000000000006044820152606401610a20565b6001600160a01b038381165f81815260056020908152604080832094871680845294825291829020805460ff191686151590811790915591519182527f17307eab39ab6107e8899845ad3d59bd9653f200f220920489ca2b5937696c31910160405180910390a3505050565b5f8061405e876003015460801c90565b61408761406c896003015490565b6136af61407d8d6005015460801c90565b60048e0154611219565b614091919061607c565b60058a01549091506140ac906001600160801b038316613047565b60058a01556140c08982868989885f614fdb565b5f6140cf886004015460801c90565b6140dd61406c8a6004015490565b6140e7919061607c565b60058a0154909150614102906001600160801b038316613047565b60058a01556141168982878a8a895f614fdb565b6001600160801b038116608083901b1792506141328884615389565b5050979650505050505050565b60408051610100810182525f80825260208201819052918101829052606081018290526080810182905260a0810182905260c0810182905260e081019190915261419283608001518460c00151846143c0565b1561419e5750816108f3565b825160e08401515f9182916141c7916001600160801b031661271060cc9290921c607f16020490565b6001600160801b031660408601525b84516001600160801b0316158015906141fd57506141fd85608001518660c00151866143c0565b15613d0357614213613a9c8660c0015160801c90565b6001600160801b031661422d613ac1876080015160801c90565b6001600160801b031610156142525761424d613aec866080015160801c90565b614263565b614263613a9c8660c0015160801c90565b60c08601519092506142759083614591565b9050806001600160801b0316855f01516001600160801b0316111561431d5780855f018181516142a5919061607c565b6001600160801b031690525060808501516142c09083614591565b856020018181516142d19190616021565b6001600160801b0390811690915260c08701516142f79250908316608085901b17614f78565b60c0860152608085015161431390613ba1846112198382614591565b608086015261439d565b845160c086015161432d91614efb565b608086015190925061433f9083614591565b856020018181516143509190616021565b6001600160801b0390811690915260c087015187516143789350909116608085901b17614f78565b60c0860152608085015161439490613ba1846112198382614591565b60808601525f85525b81856060018181516143af9190616021565b6001600160801b03169052506141d6565b5f6143cb8260801c90565b6001600160801b03166143de8460801c90565b6001600160801b0316856001600160801b03166143fb9190616180565b6144059190616180565b826001600160801b0316846001600160801b03166144238760801c90565b6001600160801b03166144369190616180565b6144409190616180565b11611ad8575f611493565b614456848484613165565b614462848484846153bf565b6119dd5760405162461bcd60e51b815260206004820152603260248201527f4552433732313a207472616e7366657220746f206e6f6e20455243373231526560448201527f63656976657220696d706c656d656e74657200000000000000000000000000006064820152608401610a20565b606060405180606001604052806021815260200161623960219139905090565b60605f6145008361550f565b60010190505f8167ffffffffffffffff81111561451f5761451f615994565b6040519080825280601f01601f191660200182016040528015614549576020820181803683370190505b5090508181016020015b5f19017f3031323334353637383961626364656600000000000000000000000000000000600a86061a8153600a850494508461455357509392505050565b5f611adc836001600160801b0316836001600160801b03166145b38660801c90565b6001600160801b03166155f0565b604080516060810182525f8082526020820181905291810191909152604080516060810182525f80825260208201819052918101919091525f61461c845f01516136af614612886002015460801c90565b6003890154611219565b9050604051806060016040528061464b865f01516136af6146418c6005015460801c90565b60048d0154611219565b6001600160801b0316815260200161467b865f01516136af6146718a6003015460801c90565b60038b0154611219565b6001600160801b0390811682528651166020909101528754909350600160ff1b161515806146af57508554600160ff1b1615155b80156146e457506146cf6146c7886003015460801c90565b885490615601565b6001600160801b0316816001600160801b0316105b801561471157506146f96146c7886003015490565b6001600160801b0316845f01516001600160801b0316105b6147465760405162461bcd60e51b8152600401610a20906020808252600490820152634730313160e01b604082015260600190565b6003870154604084015161476991906001600160801b0316608084901b17615625565b60038801556004870154604084015161479191906001600160801b0316608084901b17615625565b60048801556005870154835160208501516147bb929160801b6001600160801b0390911617615625565b60058801556147ca858261564b565b602083015183516147db919061607c565b6001600160801b039081168452604084015188546148079290911661271060d39290921c603f16020490565b6001600160801b03166020808501829052845160608701519187015160408089015160808a01519189015161484a968e96949391614845919061607c565b614fdb565b60208301516001600160801b03161561487a5760058701546020840151614874919060801b613047565b60058801555b600185015415614abb5760405180606001604052806148ae836136af6148a48b6005015460801c90565b60048c0154611219565b6001600160801b031681526020016148db836136af6148d18a6004015460801c90565b60048b0154611219565b6001600160801b03168152602001614904836148fe6148d18a6002015460801c90565b90614591565b6001600160801b0316815250915061492b614923876003015460801c90565b875490615601565b6001600160801b0316816001600160801b031610801561496d5750614954614923876003015490565b6001600160801b031682604001516001600160801b0316105b6149a25760405162461bcd60e51b8152600401610a20906020808252600490820152632398189960e11b604082015260600190565b600386015460408301516149c591906001600160801b0316608084901b17615625565b6003870155600486015460408301516149ed91906001600160801b0316608084901b17615625565b6004870155600586015482516020840151614a17929160801b6001600160801b0390911617615625565b600587015560208201518251614a2d919061607c565b6001600160801b03908116835260408301518754614a599290911661271060d39290921c603f16020490565b6001600160801b03166020830181905215614a8b5760058601546020830151614a85919060801b613047565b60058701555b614abb86835f0151866060015187602001518860400151896080015188602001518960400151614845919061607c565b9450945094915050565b826001600160a01b0316614ad8826117dd565b6001600160a01b031614614b3c5760405162461bcd60e51b815260206004820152602560248201527f4552433732313a207472616e736665722066726f6d20696e636f72726563742060448201526437bbb732b960d91b6064820152608401610a20565b6001600160a01b038216614b9e5760405162461bcd60e51b8152602060048201526024808201527f4552433732313a207472616e7366657220746f20746865207a65726f206164646044820152637265737360e01b6064820152608401610a20565b826001600160a01b0316614bb1826117dd565b6001600160a01b031614614c155760405162461bcd60e51b815260206004820152602560248201527f4552433732313a207472616e736665722066726f6d20696e636f72726563742060448201526437bbb732b960d91b6064820152608401610a20565b5f81815260046020908152604080832080546001600160a01b03199081169091556001600160a01b038781168086526003855283862080545f1901905590871680865283862080546001019055868652600290945282852080549092168417909155905184937fddf252ad1be2c89b69c2b068fc378daa952ba7f163c4a11628f55a4df523b3ef91a4505050565b614cb582600201548260020154613047565b8260020181905550614ccf82600301548260030154613047565b8260030181905550614ce982600401548260040154613047565b82600401819055505050565b5f614cff826117dd565b9050614d0a826117dd565b5f83815260046020908152604080832080546001600160a01b03199081169091556001600160a01b0385168085526003845282852080545f190190558785526002909352818420805490911690555192935084927fddf252ad1be2c89b69c2b068fc378daa952ba7f163c4a11628f55a4df523b3ef908390a45050565b5f6108f3614d93613492565b8360405161190160f01b8152600281019290925260228201526042902090565b5f808251604103614de7576020830151604084015160608501515f1a614ddb8782858561574b565b94509450505050614dee565b505f905060025b9250929050565b5f805f856001600160a01b0316631626ba7e60e01b8686604051602401614e1d929190616197565b60408051601f198184030181529181526020820180517bffffffffffffffffffffffffffffffffffffffffffffffffffffffff166001600160e01b0319909416939093179092529051614e7091906161af565b5f60405180830381855afa9150503d805f8114614ea8576040519150601f19603f3d011682016040523d82523d5f602084013e614ead565b606091505b5091509150818015614ec0575080516020145b8015614ef157508051630b135d3f60e11b90614ee590830160209081019084016161ba565b6001600160e01b031916145b9695505050505050565b5f611adc614f098460801c90565b6001600160801b0316836001600160801b03166145b38690565b5f6103ff60bb84901c16808203614f3d57829150506108f3565b614f48816040616053565b61149390846161d5565b5f608082811d9084901d036001600160801b038381169085160161307661306d83613992565b5f608082811d9084901d016001600160801b038381169085160361307661306d83613992565b60605f614faa83615808565b6040805160208082528183019092529192505f91906020820181803683375050509182525060208101929092525090565b60646001600160801b03871660dd87901c601f160204614ffb818861607c565b965060646001600160801b03881660fa88901c81028290049160f489901c603f90811683028290049260ee8b901c821681028390049260e88c901c831682028190049260e28d901c16909102046001600160a01b0389166151845761509c336150648988616021565b6001600160801b03168f6002015f9054906101000a90046001600160a01b03166001600160a01b0316613d339092919063ffffffff16565b6150a68185616021565b6001600160a01b038b165f90815260068f016020526040812080549091906150d89084906001600160801b0316616021565b92506101000a8154816001600160801b0302191690836001600160801b03160217905550858185878f61510b919061607c565b615115919061607c565b61511f919061607c565b6151299190616021565b6001600160a01b0389165f90815260068f0160205260408120805490919061515b9084906001600160801b0316616021565b92506101000a8154816001600160801b0302191690836001600160801b0316021790555061537a565b60018d01546001600160a01b038981169116146151fa5760018d01546001600160a01b03165f90815260068e016020526040812080548692906151d19084906001600160801b0316616021565b92506101000a8154816001600160801b0302191690836001600160801b03160217905550615207565b6152048487616021565b95505b876001600160a01b03168a6001600160a01b03161461527b576001600160a01b038a165f90815260068e016020526040812080548592906152529084906001600160801b0316616021565b92506101000a8154816001600160801b0302191690836001600160801b03160217905550615288565b6152858387616021565b95505b876001600160a01b0316896001600160a01b0316146152fc576001600160a01b0389165f90815260068e016020526040812080548492906152d39084906001600160801b0316616021565b92506101000a8154816001600160801b0302191690836001600160801b03160217905550615309565b6153068287616021565b95505b6001600160a01b0388165f90815260068e0160205260408120805488929061533b9084906001600160801b0316616021565b92506101000a8154816001600160801b0302191690836001600160801b0316021790555061537a338883886153709190616021565b6150649190616021565b50505050505050505050505050565b61539e8260030154610d03611d0a8460801c90565b6003830155600182015415610d7157614ce98260040154610d03611d0a8490565b5f6001600160a01b0384163b1561550757604051630a85bd0160e11b81526001600160a01b0385169063150b7a0290615402903390899088908890600401616202565b6020604051808303815f875af192505050801561543c575060408051601f3d908101601f19168201909252615439918101906161ba565b60015b6154ed573d808015615469576040519150601f19603f3d011682016040523d82523d5f602084013e61546e565b606091505b5080515f036154e55760405162461bcd60e51b815260206004820152603260248201527f4552433732313a207472616e7366657220746f206e6f6e20455243373231526560448201527f63656976657220696d706c656d656e74657200000000000000000000000000006064820152608401610a20565b805181602001fd5b6001600160e01b031916630a85bd0160e11b149050611493565b506001611493565b5f807a184f03e93ff9f4daa797ed6e38ed64bf6a1f0100000000000000008310615557577a184f03e93ff9f4daa797ed6e38ed64bf6a1f010000000000000000830492506040015b6d04ee2d6d415b85acef81000000008310615583576d04ee2d6d415b85acef8100000000830492506020015b662386f26fc1000083106155a157662386f26fc10000830492506010015b6305f5e10083106155b9576305f5e100830492506008015b61271083106155cd57612710830492506004015b606483106155df576064830492506002015b600a83106108f35760010192915050565b918102915f81840461307681613992565b5f6103ff60b184901c1680820361561b57829150506108f3565b61149381846161d5565b5f608082811d9084901d036001600160801b038381169085160361307661306d83613992565b5f6156b0615681615660856003015460801c90565b6001600160801b0316846001600160801b03166145b3876002015460801c90565b61121961568f866003015490565b6001600160801b0316856001600160801b03166145b3886002015460801c90565b905082600101545f14615718575f6157016156d261568f866004015460801c90565b6112196156e0876004015490565b6001600160801b0316866001600160801b03166145b3896002015460801c90565b9050615711846004015482615625565b6004850155505b615726836003015482615625565b6003840155600283015461573e90608084901b615625565b8360020181905550505050565b5f807f7fffffffffffffffffffffffffffffff5d576e7357a4501ddfe92f46681b20a083111561578057505f905060036157ff565b604080515f8082526020820180845289905260ff881692820192909252606081018690526080810185905260019060a0016020604051602081039080840390855afa1580156157d1573d5f803e3d5ffd5b5050604051601f1901519150506001600160a01b0381166157f9575f600192509250506157ff565b91505f90505b94509492505050565b5f60ff8216601f8111156108f357604051632cd44ac360e21b815260040160405180910390fd5b6001600160e01b031981168114612f2a575f80fd5b5f60208284031215615854575f80fd5b8135611adc8161582f565b5f81518084528060208401602086015e5f602082860101526020601f19601f83011685010191505092915050565b602081525f611adc602083018461585f565b5f602082840312156158af575f80fd5b5035919050565b6001600160a01b0381168114612f2a575f80fd5b5f80604083850312156158db575f80fd5b82356158e6816158b6565b946020939093013593505050565b5f8060408385031215615905575f80fd5b50508035926020909101359150565b6001600160801b0381168114612f2a575f80fd5b5f8060408385031215615939575f80fd5b82359150602083013561594b81615914565b809150509250929050565b5f805f60608486031215615968575f80fd5b8335615973816158b6565b92506020840135615983816158b6565b929592945050506040919091013590565b634e487b7160e01b5f52604160045260245ffd5b604051601f8201601f1916810167ffffffffffffffff811182821017156159d1576159d1615994565b604052919050565b5f82601f8301126159e8575f80fd5b813567ffffffffffffffff811115615a0257615a02615994565b615a15601f8201601f19166020016159a8565b818152846020838601011115615a29575f80fd5b816020850160208301375f918101602001919091529392505050565b5f805f805f8060c08789031215615a5a575f80fd5b8635615a65816158b6565b95506020870135615a75816158b6565b945060408701359350606087013567ffffffffffffffff811115615a97575f80fd5b615aa389828a016159d9565b9350506080870135915060a087013567ffffffffffffffff811115615ac6575f80fd5b615ad289828a016159d9565b9150509295509295509295565b5f60208284031215615aef575f80fd5b8135611adc816158b6565b5f8060408385031215615b0b575f80fd5b82359150602083013561594b816158b6565b5f805f8060808587031215615b30575f80fd5b84359350602085013592506040850135615b49816158b6565b9396929550929360600135925050565b803580151581146110c5575f80fd5b5f805f805f8060c08789031215615b7d575f80fd5b86359550602087013594506040870135615b9681615914565b935060608701359250615bab60808801615b59565b915060a0870135615bbb816158b6565b809150509295509295509295565b5f82601f830112615bd8575f80fd5b813567ffffffffffffffff811115615bf257615bf2615994565b8060051b615c02602082016159a8565b91825260208185018101929081019086841115615c1d575f80fd5b6020860192505b83831015614ef1578235825260209283019290910190615c24565b5f8060408385031215615c50575f80fd5b823567ffffffffffffffff811115615c66575f80fd5b615c7285828601615bc9565b925050602083013561594b816158b6565b5f8151808452602084019350602083015f5b82811015615cb3578151865260209586019590910190600101615c95565b5093949350505050565b602081525f611adc6020830184615c83565b5f805f8060808587031215615ce2575f80fd5b8435615ced816158b6565b93506020850135925060408501359150606085013567ffffffffffffffff811115615d16575f80fd5b615d22878288016159d9565b91505092959194509250565b60ff60f81b8816815260e060208201525f615d4c60e083018961585f565b8281036040840152615d5e818961585f565b90508660608401526001600160a01b03861660808401528460a084015282810360c0840152615d8d8185615c83565b9a9950505050505050505050565b5f805f60608486031215615dad575f80fd5b83359250602084013591506040840135615dc6816158b6565b809150509250925092565b5f805f60608486031215615de3575f80fd5b8335615dee816158b6565b95602085013595506040909401359392505050565b5f8060408385031215615e14575f80fd5b8235615e1f816158b6565b9150615e2d60208401615b59565b90509250929050565b5f805f805f60a08688031215615e4a575f80fd5b85359450602086013593506040860135615e6381615914565b9250606086013591506080860135615e7a816158b6565b809150509295509295909350565b5f805f60608486031215615e9a575f80fd5b505081359360208301359350604090920135919050565b5f805f8060808587031215615ec4575f80fd5b8435615ecf816158b6565b93506020850135615edf816158b6565b925060408501359150606085013567ffffffffffffffff811115615d16575f80fd5b5f8060408385031215615f12575f80fd5b8235615f1d816158b6565b9150602083013561594b816158b6565b5f805f60608486031215615f3f575f80fd5b83359250602084013591506040840135615dc681615914565b5f805f60608486031215615f6a575f80fd5b833592506020840135615f7c81615914565b91506040840135615dc6816158b6565b5f60208284031215615f9c575f80fd5b813567ffffffffffffffff811115615fb2575f80fd5b61149384828501615bc9565b600181811c90821680615fd257607f821691505b602082108103615ff057634e487b7160e01b5f52602260045260245ffd5b50919050565b5f60208284031215616006575f80fd5b5051919050565b634e487b7160e01b5f52601160045260245ffd5b6001600160801b0381811683821601908111156108f3576108f361600d565b808201808211156108f3576108f361600d565b6001600160801b0381811683821602908116908181146160755761607561600d565b5092915050565b6001600160801b0382811682821603908111156108f3576108f361600d565b634e487b7160e01b5f52603260045260245ffd5b5f80604083850312156160c0575f80fd5b82516160cb816158b6565b602084015190925061594b816158b6565b5f81518060208401855e5f93019283525090919050565b5f61149361610183866160dc565b846160dc565b818103818111156108f3576108f361600d565b604081525f61612c6040830185615c83565b82810360208401526130768185615c83565b634e487b7160e01b5f52601260045260245ffd5b5f826161605761616061613e565b500690565b5f60208284031215616175575f80fd5b8151611adc81615914565b80820281158282048414176108f3576108f361600d565b828152604060208201525f611493604083018461585f565b5f611adc82846160dc565b5f602082840312156161ca575f80fd5b8151611adc8161582f565b5f6001600160801b038316806161ed576161ed61613e565b806001600160801b0384160491505092915050565b6001600160a01b03851681526001600160a01b0384166020820152826040820152608060608201525f614ef1608083018461585f56fe687474703a2f2f7777772e7474737761702e696f2f6e66743f70726f6f6669643da2646970667358221220659cafc5127994012718864c993a8e538ee3d7dbc3c9442528dacd7dcc10bf9564736f6c634300081a0033","linkReferences":{}},"methodIdentifiers":{"DOMAIN_SEPARATOR()":"3644e515","addbanlist(address)":"b153b920","approve(address,uint256)":"095ea7b3","balanceOf(address)":"70a08231","banlist(address)":"2973ada7","buyGood(uint256,uint256,uint128,uint256,bool,address)":"578496ab","buyGoodForPay(uint256,uint256,uint128,uint256,address)":"a7e11697","changeGoodOwner(uint256,address)":"2a7c5a91","collectCommission(uint256[])":"f88c3010","collectProof(uint256,address)":"a676a600","disinvestProof(uint256,uint128,address)":"f4662f20","eip712Domain()":"84b0196e","getApproved(uint256)":"081812fc","getGoodState(uint256)":"a6f6a980","getProofState(uint256)":"3f117740","goodNum()":"5a5da4dd","goodWelfare(uint256,uint128)":"18ad50d1","initGood(uint256,uint256,address,uint256)":"4ffef907","initMetaGood(address,uint256,uint256)":"97924ead","investGood(uint256,uint256,uint128)":"f44733ad","isApprovedForAll(address,address)":"e985e9c5","ishigher(uint256,uint256,uint256)":"a7fed925","marketconfig()":"402f5ab5","modifyGoodConfig(uint256,uint256)":"0e21a1ac","name()":"06fdde03","nonces(uint256)":"141a468c","ownerOf(uint256)":"6352211e","payGood(uint256,uint256,address)":"920acbb8","permit(address,uint256,uint256,bytes)":"745a41bc","proofmapping(uint256)":"5e008cc4","queryCommission(uint256[],address)":"6ff73c8e","removebanlist(address)":"9551177a","safeTransferFrom(address,address,uint256)":"42842e0e","safeTransferFrom(address,address,uint256,bytes)":"b88d4fde","safeTransferFromWithPermit(address,address,uint256,bytes,uint256,bytes)":"24744d54","setApprovalForAll(address,bool)":"a22cb465","setMarketConfig(uint256)":"45818e4c","supportsInterface(bytes4)":"01ffc9a7","symbol()":"95d89b41","tokenURI(uint256)":"c87b56dd","totalSupply()":"18160ddd","transferFrom(address,address,uint256)":"23b872dd","updateGoodConfig(uint256,uint256)":"144aeb83"},"id":1}