{
    "abi": [
        {
            "type": "constructor",
            "inputs": [
                {
                    "name": "_marketcreator",
                    "type": "address",
                    "internalType": "address"
                },
                {
                    "name": "_marketconfig",
                    "type": "uint256",
                    "internalType": "uint256"
                }
            ],
            "stateMutability": "nonpayable"
        },
        {
            "type": "function",
            "name": "_ownerproofs",
            "inputs": [
                {
                    "name": "",
                    "type": "address",
                    "internalType": "address"
                },
                {
                    "name": "",
                    "type": "uint256",
                    "internalType": "uint256"
                }
            ],
            "outputs": [
                {
                    "name": "",
                    "type": "uint256",
                    "internalType": "uint256"
                }
            ],
            "stateMutability": "view"
        },
        {
            "type": "function",
            "name": "addbanlist",
            "inputs": [
                {
                    "name": "_user",
                    "type": "address",
                    "internalType": "address"
                }
            ],
            "outputs": [
                {
                    "name": "",
                    "type": "bool",
                    "internalType": "bool"
                }
            ],
            "stateMutability": "nonpayable"
        },
        {
            "type": "function",
            "name": "addreferer",
            "inputs": [
                {
                    "name": "_referer",
                    "type": "address",
                    "internalType": "address"
                }
            ],
            "outputs": [],
            "stateMutability": "nonpayable"
        },
        {
            "type": "function",
            "name": "banlist",
            "inputs": [
                {
                    "name": "",
                    "type": "address",
                    "internalType": "address"
                }
            ],
            "outputs": [
                {
                    "name": "",
                    "type": "uint256",
                    "internalType": "uint256"
                }
            ],
            "stateMutability": "view"
        },
        {
            "type": "function",
            "name": "buyGood",
            "inputs": [
                {
                    "name": "_goodid1",
                    "type": "uint256",
                    "internalType": "uint256"
                },
                {
                    "name": "_goodid2",
                    "type": "uint256",
                    "internalType": "uint256"
                },
                {
                    "name": "_swapQuanitity",
                    "type": "uint128",
                    "internalType": "uint128"
                },
                {
                    "name": "_limitPrice",
                    "type": "uint256",
                    "internalType": "uint256"
                },
                {
                    "name": "_istotal",
                    "type": "bool",
                    "internalType": "bool"
                },
                {
                    "name": "_gater",
                    "type": "address",
                    "internalType": "address"
                }
            ],
            "outputs": [
                {
                    "name": "goodid2Quanitity_",
                    "type": "uint128",
                    "internalType": "uint128"
                },
                {
                    "name": "goodid2FeeQuanitity_",
                    "type": "uint128",
                    "internalType": "uint128"
                }
            ],
            "stateMutability": "payable"
        },
        {
            "type": "function",
            "name": "buyGoodForPay",
            "inputs": [
                {
                    "name": "_goodid1",
                    "type": "uint256",
                    "internalType": "uint256"
                },
                {
                    "name": "_goodid2",
                    "type": "uint256",
                    "internalType": "uint256"
                },
                {
                    "name": "_swapQuanitity",
                    "type": "uint128",
                    "internalType": "uint128"
                },
                {
                    "name": "_limitPrice",
                    "type": "uint256",
                    "internalType": "uint256"
                },
                {
                    "name": "_recipent",
                    "type": "address",
                    "internalType": "address"
                },
                {
                    "name": "_gater",
                    "type": "address",
                    "internalType": "address"
                }
            ],
            "outputs": [
                {
                    "name": "goodid1Quanitity_",
                    "type": "uint128",
                    "internalType": "uint128"
                },
                {
                    "name": "goodid1FeeQuanitity_",
                    "type": "uint128",
                    "internalType": "uint128"
                }
            ],
            "stateMutability": "payable"
        },
        {
            "type": "function",
            "name": "changeOwner",
            "inputs": [
                {
                    "name": "_goodid",
                    "type": "uint256",
                    "internalType": "uint256"
                },
                {
                    "name": "_to",
                    "type": "address",
                    "internalType": "address"
                }
            ],
            "outputs": [
                {
                    "name": "",
                    "type": "bool",
                    "internalType": "bool"
                }
            ],
            "stateMutability": "nonpayable"
        },
        {
            "type": "function",
            "name": "changeProofOwner",
            "inputs": [
                {
                    "name": "_proofid",
                    "type": "uint256",
                    "internalType": "uint256"
                },
                {
                    "name": "_to",
                    "type": "address",
                    "internalType": "address"
                }
            ],
            "outputs": [
                {
                    "name": "",
                    "type": "bool",
                    "internalType": "bool"
                }
            ],
            "stateMutability": "nonpayable"
        },
        {
            "type": "function",
            "name": "collectProtocolFee",
            "inputs": [
                {
                    "name": "_goodid",
                    "type": "uint256",
                    "internalType": "uint256"
                }
            ],
            "outputs": [
                {
                    "name": "",
                    "type": "uint256",
                    "internalType": "uint256"
                }
            ],
            "stateMutability": "payable"
        },
        {
            "type": "function",
            "name": "cusomerno",
            "inputs": [],
            "outputs": [
                {
                    "name": "",
                    "type": "uint256",
                    "internalType": "uint256"
                }
            ],
            "stateMutability": "view"
        },
        {
            "type": "function",
            "name": "customerno",
            "inputs": [
                {
                    "name": "",
                    "type": "address",
                    "internalType": "address"
                }
            ],
            "outputs": [
                {
                    "name": "",
                    "type": "uint256",
                    "internalType": "uint256"
                }
            ],
            "stateMutability": "view"
        },
        {
            "type": "function",
            "name": "disinvestNormalGood",
            "inputs": [
                {
                    "name": "_togood",
                    "type": "uint256",
                    "internalType": "uint256"
                },
                {
                    "name": "_valuegood",
                    "type": "uint256",
                    "internalType": "uint256"
                },
                {
                    "name": "_goodQuanitity",
                    "type": "uint128",
                    "internalType": "uint128"
                },
                {
                    "name": "_gater",
                    "type": "address",
                    "internalType": "address"
                }
            ],
            "outputs": [
                {
                    "name": "disinvestNormalResult1_",
                    "type": "tuple",
                    "internalType": "struct L_Good.S_GoodDisinvestReturn",
                    "components": [
                        {
                            "name": "profit",
                            "type": "uint128",
                            "internalType": "uint128"
                        },
                        {
                            "name": "actual_fee",
                            "type": "uint128",
                            "internalType": "uint128"
                        },
                        {
                            "name": "actualDisinvestValue",
                            "type": "uint128",
                            "internalType": "uint128"
                        },
                        {
                            "name": "actualDisinvestQuantity",
                            "type": "uint128",
                            "internalType": "uint128"
                        }
                    ]
                },
                {
                    "name": "disinvestValueResult2_",
                    "type": "tuple",
                    "internalType": "struct L_Good.S_GoodDisinvestReturn",
                    "components": [
                        {
                            "name": "profit",
                            "type": "uint128",
                            "internalType": "uint128"
                        },
                        {
                            "name": "actual_fee",
                            "type": "uint128",
                            "internalType": "uint128"
                        },
                        {
                            "name": "actualDisinvestValue",
                            "type": "uint128",
                            "internalType": "uint128"
                        },
                        {
                            "name": "actualDisinvestQuantity",
                            "type": "uint128",
                            "internalType": "uint128"
                        }
                    ]
                }
            ],
            "stateMutability": "payable"
        },
        {
            "type": "function",
            "name": "disinvestNormalProof",
            "inputs": [
                {
                    "name": "_normalProof",
                    "type": "uint256",
                    "internalType": "uint256"
                },
                {
                    "name": "_goodQuanitity",
                    "type": "uint128",
                    "internalType": "uint128"
                },
                {
                    "name": "_gater",
                    "type": "address",
                    "internalType": "address"
                }
            ],
            "outputs": [
                {
                    "name": "disinvestNormalResult1_",
                    "type": "tuple",
                    "internalType": "struct L_Good.S_GoodDisinvestReturn",
                    "components": [
                        {
                            "name": "profit",
                            "type": "uint128",
                            "internalType": "uint128"
                        },
                        {
                            "name": "actual_fee",
                            "type": "uint128",
                            "internalType": "uint128"
                        },
                        {
                            "name": "actualDisinvestValue",
                            "type": "uint128",
                            "internalType": "uint128"
                        },
                        {
                            "name": "actualDisinvestQuantity",
                            "type": "uint128",
                            "internalType": "uint128"
                        }
                    ]
                },
                {
                    "name": "disinvestValueResult2_",
                    "type": "tuple",
                    "internalType": "struct L_Good.S_GoodDisinvestReturn",
                    "components": [
                        {
                            "name": "profit",
                            "type": "uint128",
                            "internalType": "uint128"
                        },
                        {
                            "name": "actual_fee",
                            "type": "uint128",
                            "internalType": "uint128"
                        },
                        {
                            "name": "actualDisinvestValue",
                            "type": "uint128",
                            "internalType": "uint128"
                        },
                        {
                            "name": "actualDisinvestQuantity",
                            "type": "uint128",
                            "internalType": "uint128"
                        }
                    ]
                }
            ],
            "stateMutability": "payable"
        },
        {
            "type": "function",
            "name": "disinvestValueGood",
            "inputs": [
                {
                    "name": "_goodid",
                    "type": "uint256",
                    "internalType": "uint256"
                },
                {
                    "name": "_goodQuanitity",
                    "type": "uint128",
                    "internalType": "uint128"
                },
                {
                    "name": "_gater",
                    "type": "address",
                    "internalType": "address"
                }
            ],
            "outputs": [
                {
                    "name": "disinvestResult_",
                    "type": "tuple",
                    "internalType": "struct L_Good.S_GoodDisinvestReturn",
                    "components": [
                        {
                            "name": "profit",
                            "type": "uint128",
                            "internalType": "uint128"
                        },
                        {
                            "name": "actual_fee",
                            "type": "uint128",
                            "internalType": "uint128"
                        },
                        {
                            "name": "actualDisinvestValue",
                            "type": "uint128",
                            "internalType": "uint128"
                        },
                        {
                            "name": "actualDisinvestQuantity",
                            "type": "uint128",
                            "internalType": "uint128"
                        }
                    ]
                }
            ],
            "stateMutability": "payable"
        },
        {
            "type": "function",
            "name": "disinvestValueProof",
            "inputs": [
                {
                    "name": "_valueproofid",
                    "type": "uint256",
                    "internalType": "uint256"
                },
                {
                    "name": "_goodQuanitity",
                    "type": "uint128",
                    "internalType": "uint128"
                },
                {
                    "name": "_gater",
                    "type": "address",
                    "internalType": "address"
                }
            ],
            "outputs": [
                {
                    "name": "disinvestResult_",
                    "type": "tuple",
                    "internalType": "struct L_Good.S_GoodDisinvestReturn",
                    "components": [
                        {
                            "name": "profit",
                            "type": "uint128",
                            "internalType": "uint128"
                        },
                        {
                            "name": "actual_fee",
                            "type": "uint128",
                            "internalType": "uint128"
                        },
                        {
                            "name": "actualDisinvestValue",
                            "type": "uint128",
                            "internalType": "uint128"
                        },
                        {
                            "name": "actualDisinvestQuantity",
                            "type": "uint128",
                            "internalType": "uint128"
                        }
                    ]
                }
            ],
            "stateMutability": "payable"
        },
        {
            "type": "function",
            "name": "getGoodIdByAddress",
            "inputs": [
                {
                    "name": "_owner",
                    "type": "address",
                    "internalType": "address"
                }
            ],
            "outputs": [
                {
                    "name": "",
                    "type": "uint256[]",
                    "internalType": "uint256[]"
                }
            ],
            "stateMutability": "view"
        },
        {
            "type": "function",
            "name": "getGoodState",
            "inputs": [
                {
                    "name": "_goodid",
                    "type": "uint256",
                    "internalType": "uint256"
                }
            ],
            "outputs": [
                {
                    "name": "good_",
                    "type": "tuple",
                    "internalType": "struct L_Good.S_GoodTmpState",
                    "components": [
                        {
                            "name": "goodConfig",
                            "type": "uint256",
                            "internalType": "uint256"
                        },
                        {
                            "name": "owner",
                            "type": "address",
                            "internalType": "address"
                        },
                        {
                            "name": "erc20address",
                            "type": "address",
                            "internalType": "address"
                        },
                        {
                            "name": "currentState",
                            "type": "uint256",
                            "internalType": "T_BalanceUINT256"
                        },
                        {
                            "name": "investState",
                            "type": "uint256",
                            "internalType": "T_BalanceUINT256"
                        },
                        {
                            "name": "feeQunitityState",
                            "type": "uint256",
                            "internalType": "T_BalanceUINT256"
                        }
                    ]
                }
            ],
            "stateMutability": "view"
        },
        {
            "type": "function",
            "name": "getGoodsFee",
            "inputs": [
                {
                    "name": "_goodid",
                    "type": "uint256",
                    "internalType": "uint256"
                },
                {
                    "name": "user",
                    "type": "address",
                    "internalType": "address"
                }
            ],
            "outputs": [
                {
                    "name": "",
                    "type": "uint256",
                    "internalType": "uint256"
                }
            ],
            "stateMutability": "view"
        },
        {
            "type": "function",
            "name": "getProofId",
            "inputs": [
                {
                    "name": "investproofkey",
                    "type": "tuple",
                    "internalType": "struct S_ProofKey",
                    "components": [
                        {
                            "name": "owner",
                            "type": "address",
                            "internalType": "address"
                        },
                        {
                            "name": "currentgood",
                            "type": "uint256",
                            "internalType": "uint256"
                        },
                        {
                            "name": "valuegood",
                            "type": "uint256",
                            "internalType": "uint256"
                        }
                    ]
                }
            ],
            "outputs": [
                {
                    "name": "_proof",
                    "type": "uint256",
                    "internalType": "uint256"
                }
            ],
            "stateMutability": "view"
        },
        {
            "type": "function",
            "name": "getProofState",
            "inputs": [
                {
                    "name": "_proof",
                    "type": "uint256",
                    "internalType": "uint256"
                }
            ],
            "outputs": [
                {
                    "name": "proof_",
                    "type": "tuple",
                    "internalType": "struct L_Proof.S_ProofState",
                    "components": [
                        {
                            "name": "owner",
                            "type": "address",
                            "internalType": "address"
                        },
                        {
                            "name": "currentgood",
                            "type": "uint256",
                            "internalType": "uint256"
                        },
                        {
                            "name": "valuegood",
                            "type": "uint256",
                            "internalType": "uint256"
                        },
                        {
                            "name": "state",
                            "type": "uint256",
                            "internalType": "T_BalanceUINT256"
                        },
                        {
                            "name": "invest",
                            "type": "uint256",
                            "internalType": "T_BalanceUINT256"
                        },
                        {
                            "name": "valueinvest",
                            "type": "uint256",
                            "internalType": "T_BalanceUINT256"
                        }
                    ]
                }
            ],
            "stateMutability": "view"
        },
        {
            "type": "function",
            "name": "goodnum",
            "inputs": [],
            "outputs": [
                {
                    "name": "",
                    "type": "uint256",
                    "internalType": "uint256"
                }
            ],
            "stateMutability": "view"
        },
        {
            "type": "function",
            "name": "goods",
            "inputs": [
                {
                    "name": "",
                    "type": "uint256",
                    "internalType": "uint256"
                }
            ],
            "outputs": [
                {
                    "name": "goodConfig",
                    "type": "uint256",
                    "internalType": "uint256"
                },
                {
                    "name": "owner",
                    "type": "address",
                    "internalType": "address"
                },
                {
                    "name": "erc20address",
                    "type": "address",
                    "internalType": "address"
                },
                {
                    "name": "currentState",
                    "type": "uint256",
                    "internalType": "T_BalanceUINT256"
                },
                {
                    "name": "investState",
                    "type": "uint256",
                    "internalType": "T_BalanceUINT256"
                },
                {
                    "name": "feeQunitityState",
                    "type": "uint256",
                    "internalType": "T_BalanceUINT256"
                }
            ],
            "stateMutability": "view"
        },
        {
            "type": "function",
            "name": "goodseq",
            "inputs": [
                {
                    "name": "",
                    "type": "bytes32",
                    "internalType": "bytes32"
                }
            ],
            "outputs": [
                {
                    "name": "",
                    "type": "uint256",
                    "internalType": "uint256"
                }
            ],
            "stateMutability": "view"
        },
        {
            "type": "function",
            "name": "initMetaGood",
            "inputs": [
                {
                    "name": "_erc20address",
                    "type": "address",
                    "internalType": "address"
                },
                {
                    "name": "_initial",
                    "type": "uint256",
                    "internalType": "T_BalanceUINT256"
                },
                {
                    "name": "_goodConfig",
                    "type": "uint256",
                    "internalType": "uint256"
                }
            ],
            "outputs": [
                {
                    "name": "",
                    "type": "uint256",
                    "internalType": "uint256"
                },
                {
                    "name": "",
                    "type": "uint256",
                    "internalType": "uint256"
                }
            ],
            "stateMutability": "payable"
        },
        {
            "type": "function",
            "name": "initNormalGood",
            "inputs": [
                {
                    "name": "_valuegood",
                    "type": "uint256",
                    "internalType": "uint256"
                },
                {
                    "name": "_initial",
                    "type": "uint256",
                    "internalType": "T_BalanceUINT256"
                },
                {
                    "name": "_erc20address",
                    "type": "address",
                    "internalType": "address"
                },
                {
                    "name": "_goodConfig",
                    "type": "uint256",
                    "internalType": "uint256"
                },
                {
                    "name": "_gater",
                    "type": "address",
                    "internalType": "address"
                }
            ],
            "outputs": [
                {
                    "name": "",
                    "type": "uint256",
                    "internalType": "uint256"
                },
                {
                    "name": "",
                    "type": "uint256",
                    "internalType": "uint256"
                }
            ],
            "stateMutability": "payable"
        },
        {
            "type": "function",
            "name": "investNormalGood",
            "inputs": [
                {
                    "name": "_togood",
                    "type": "uint256",
                    "internalType": "uint256"
                },
                {
                    "name": "_valuegood",
                    "type": "uint256",
                    "internalType": "uint256"
                },
                {
                    "name": "_quanitity",
                    "type": "uint128",
                    "internalType": "uint128"
                },
                {
                    "name": "_gater",
                    "type": "address",
                    "internalType": "address"
                }
            ],
            "outputs": [
                {
                    "name": "normalInvest",
                    "type": "tuple",
                    "internalType": "struct L_Good.S_GoodInvestReturn",
                    "components": [
                        {
                            "name": "actualFeeQuantity",
                            "type": "uint128",
                            "internalType": "uint128"
                        },
                        {
                            "name": "contructFeeQuantity",
                            "type": "uint128",
                            "internalType": "uint128"
                        },
                        {
                            "name": "actualInvestValue",
                            "type": "uint128",
                            "internalType": "uint128"
                        },
                        {
                            "name": "actualInvestQuantity",
                            "type": "uint128",
                            "internalType": "uint128"
                        }
                    ]
                },
                {
                    "name": "valueInvest",
                    "type": "tuple",
                    "internalType": "struct L_Good.S_GoodInvestReturn",
                    "components": [
                        {
                            "name": "actualFeeQuantity",
                            "type": "uint128",
                            "internalType": "uint128"
                        },
                        {
                            "name": "contructFeeQuantity",
                            "type": "uint128",
                            "internalType": "uint128"
                        },
                        {
                            "name": "actualInvestValue",
                            "type": "uint128",
                            "internalType": "uint128"
                        },
                        {
                            "name": "actualInvestQuantity",
                            "type": "uint128",
                            "internalType": "uint128"
                        }
                    ]
                }
            ],
            "stateMutability": "payable"
        },
        {
            "type": "function",
            "name": "investValueGood",
            "inputs": [
                {
                    "name": "_goodid",
                    "type": "uint256",
                    "internalType": "uint256"
                },
                {
                    "name": "_goodQuanitity",
                    "type": "uint128",
                    "internalType": "uint128"
                },
                {
                    "name": "_gater",
                    "type": "address",
                    "internalType": "address"
                }
            ],
            "outputs": [
                {
                    "name": "valueInvest_",
                    "type": "tuple",
                    "internalType": "struct L_Good.S_GoodInvestReturn",
                    "components": [
                        {
                            "name": "actualFeeQuantity",
                            "type": "uint128",
                            "internalType": "uint128"
                        },
                        {
                            "name": "contructFeeQuantity",
                            "type": "uint128",
                            "internalType": "uint128"
                        },
                        {
                            "name": "actualInvestValue",
                            "type": "uint128",
                            "internalType": "uint128"
                        },
                        {
                            "name": "actualInvestQuantity",
                            "type": "uint128",
                            "internalType": "uint128"
                        }
                    ]
                }
            ],
            "stateMutability": "payable"
        },
        {
            "type": "function",
            "name": "marketconfig",
            "inputs": [],
            "outputs": [
                {
                    "name": "",
                    "type": "uint256",
                    "internalType": "uint256"
                }
            ],
            "stateMutability": "view"
        },
        {
            "type": "function",
            "name": "marketcreator",
            "inputs": [],
            "outputs": [
                {
                    "name": "",
                    "type": "address",
                    "internalType": "address"
                }
            ],
            "stateMutability": "view"
        },
        {
            "type": "function",
            "name": "multicall",
            "inputs": [
                {
                    "name": "data",
                    "type": "bytes[]",
                    "internalType": "bytes[]"
                }
            ],
            "outputs": [
                {
                    "name": "results",
                    "type": "bytes[]",
                    "internalType": "bytes[]"
                }
            ],
            "stateMutability": "payable"
        },
        {
            "type": "function",
            "name": "ownergoods",
            "inputs": [
                {
                    "name": "",
                    "type": "address",
                    "internalType": "address"
                },
                {
                    "name": "",
                    "type": "uint256",
                    "internalType": "uint256"
                }
            ],
            "outputs": [
                {
                    "name": "",
                    "type": "uint256",
                    "internalType": "uint256"
                }
            ],
            "stateMutability": "view"
        },
        {
            "type": "function",
            "name": "payGood",
            "inputs": [
                {
                    "name": "_goodid",
                    "type": "uint256",
                    "internalType": "uint256"
                },
                {
                    "name": "_payquanity",
                    "type": "uint256",
                    "internalType": "uint256"
                },
                {
                    "name": "_recipent",
                    "type": "address",
                    "internalType": "address"
                }
            ],
            "outputs": [
                {
                    "name": "",
                    "type": "bool",
                    "internalType": "bool"
                }
            ],
            "stateMutability": "nonpayable"
        },
        {
            "type": "function",
            "name": "proofs",
            "inputs": [
                {
                    "name": "",
                    "type": "uint256",
                    "internalType": "uint256"
                }
            ],
            "outputs": [
                {
                    "name": "owner",
                    "type": "address",
                    "internalType": "address"
                },
                {
                    "name": "currentgood",
                    "type": "uint256",
                    "internalType": "uint256"
                },
                {
                    "name": "valuegood",
                    "type": "uint256",
                    "internalType": "uint256"
                },
                {
                    "name": "state",
                    "type": "uint256",
                    "internalType": "T_BalanceUINT256"
                },
                {
                    "name": "invest",
                    "type": "uint256",
                    "internalType": "T_BalanceUINT256"
                },
                {
                    "name": "valueinvest",
                    "type": "uint256",
                    "internalType": "T_BalanceUINT256"
                }
            ],
            "stateMutability": "view"
        },
        {
            "type": "function",
            "name": "proofseq",
            "inputs": [
                {
                    "name": "",
                    "type": "bytes32",
                    "internalType": "bytes32"
                }
            ],
            "outputs": [
                {
                    "name": "",
                    "type": "uint256",
                    "internalType": "uint256"
                }
            ],
            "stateMutability": "view"
        },
        {
            "type": "function",
            "name": "relations",
            "inputs": [
                {
                    "name": "",
                    "type": "address",
                    "internalType": "address"
                }
            ],
            "outputs": [
                {
                    "name": "",
                    "type": "address",
                    "internalType": "address"
                }
            ],
            "stateMutability": "view"
        },
        {
            "type": "function",
            "name": "removebanlist",
            "inputs": [
                {
                    "name": "_user",
                    "type": "address",
                    "internalType": "address"
                }
            ],
            "outputs": [
                {
                    "name": "",
                    "type": "bool",
                    "internalType": "bool"
                }
            ],
            "stateMutability": "nonpayable"
        },
        {
            "type": "function",
            "name": "setMarketConfig",
            "inputs": [
                {
                    "name": "_marketconfig",
                    "type": "uint256",
                    "internalType": "uint256"
                }
            ],
            "outputs": [
                {
                    "name": "",
                    "type": "bool",
                    "internalType": "bool"
                }
            ],
            "stateMutability": "nonpayable"
        },
        {
            "type": "function",
            "name": "updateGoodConfig",
            "inputs": [
                {
                    "name": "_goodid",
                    "type": "uint256",
                    "internalType": "uint256"
                },
                {
                    "name": "_goodConfig",
                    "type": "uint256",
                    "internalType": "uint256"
                }
            ],
            "outputs": [
                {
                    "name": "",
                    "type": "bool",
                    "internalType": "bool"
                }
            ],
            "stateMutability": "nonpayable"
        },
        {
            "type": "function",
            "name": "updatetoNormalGood",
            "inputs": [
                {
                    "name": "_goodid",
                    "type": "uint256",
                    "internalType": "uint256"
                }
            ],
            "outputs": [
                {
                    "name": "",
                    "type": "bool",
                    "internalType": "bool"
                }
            ],
            "stateMutability": "nonpayable"
        },
        {
            "type": "function",
            "name": "updatetoValueGood",
            "inputs": [
                {
                    "name": "_goodid",
                    "type": "uint256",
                    "internalType": "uint256"
                }
            ],
            "outputs": [
                {
                    "name": "",
                    "type": "bool",
                    "internalType": "bool"
                }
            ],
            "stateMutability": "nonpayable"
        },
        {
            "type": "event",
            "name": "e_buyGood",
            "inputs": [
                {
                    "name": "sellgood",
                    "type": "uint256",
                    "indexed": true,
                    "internalType": "uint256"
                },
                {
                    "name": "forgood",
                    "type": "uint256",
                    "indexed": true,
                    "internalType": "uint256"
                },
                {
                    "name": "fromer",
                    "type": "address",
                    "indexed": false,
                    "internalType": "address"
                },
                {
                    "name": "swapvalue",
                    "type": "uint128",
                    "indexed": false,
                    "internalType": "uint128"
                },
                {
                    "name": "sellgoodstate",
                    "type": "uint256",
                    "indexed": false,
                    "internalType": "T_BalanceUINT256"
                },
                {
                    "name": "forgoodstate",
                    "type": "uint256",
                    "indexed": false,
                    "internalType": "T_BalanceUINT256"
                }
            ],
            "anonymous": false
        },
        {
            "type": "event",
            "name": "e_buyGoodForPay",
            "inputs": [
                {
                    "name": "buygood",
                    "type": "uint256",
                    "indexed": true,
                    "internalType": "uint256"
                },
                {
                    "name": "usegood",
                    "type": "uint256",
                    "indexed": true,
                    "internalType": "uint256"
                },
                {
                    "name": "fromer",
                    "type": "address",
                    "indexed": false,
                    "internalType": "address"
                },
                {
                    "name": "receipt",
                    "type": "address",
                    "indexed": false,
                    "internalType": "address"
                },
                {
                    "name": "swapvalue",
                    "type": "uint128",
                    "indexed": false,
                    "internalType": "uint128"
                },
                {
                    "name": "buygoodstate",
                    "type": "uint256",
                    "indexed": false,
                    "internalType": "T_BalanceUINT256"
                },
                {
                    "name": "usegoodstate",
                    "type": "uint256",
                    "indexed": false,
                    "internalType": "T_BalanceUINT256"
                }
            ],
            "anonymous": false
        },
        {
            "type": "event",
            "name": "e_changeOwner",
            "inputs": [
                {
                    "name": "",
                    "type": "uint256",
                    "indexed": true,
                    "internalType": "uint256"
                },
                {
                    "name": "",
                    "type": "address",
                    "indexed": false,
                    "internalType": "address"
                },
                {
                    "name": "",
                    "type": "address",
                    "indexed": false,
                    "internalType": "address"
                }
            ],
            "anonymous": false
        },
        {
            "type": "event",
            "name": "e_collectProtocolFee",
            "inputs": [
                {
                    "name": "",
                    "type": "uint256",
                    "indexed": true,
                    "internalType": "uint256"
                },
                {
                    "name": "",
                    "type": "address",
                    "indexed": false,
                    "internalType": "address"
                },
                {
                    "name": "",
                    "type": "uint256",
                    "indexed": false,
                    "internalType": "uint256"
                }
            ],
            "anonymous": false
        },
        {
            "type": "event",
            "name": "e_initNormalGood",
            "inputs": [
                {
                    "name": "",
                    "type": "uint256",
                    "indexed": false,
                    "internalType": "uint256"
                },
                {
                    "name": "",
                    "type": "uint256",
                    "indexed": false,
                    "internalType": "uint256"
                },
                {
                    "name": "",
                    "type": "uint256",
                    "indexed": false,
                    "internalType": "T_BalanceUINT256"
                },
                {
                    "name": "",
                    "type": "uint256",
                    "indexed": false,
                    "internalType": "uint256"
                },
                {
                    "name": "",
                    "type": "address",
                    "indexed": false,
                    "internalType": "address"
                },
                {
                    "name": "",
                    "type": "address",
                    "indexed": false,
                    "internalType": "address"
                }
            ],
            "anonymous": false
        },
        {
            "type": "event",
            "name": "e_proof",
            "inputs": [
                {
                    "name": "",
                    "type": "uint256",
                    "indexed": true,
                    "internalType": "uint256"
                }
            ],
            "anonymous": false
        },
        {
            "type": "event",
            "name": "e_updateGood",
            "inputs": [
                {
                    "name": "",
                    "type": "uint256",
                    "indexed": true,
                    "internalType": "uint256"
                },
                {
                    "name": "",
                    "type": "uint256",
                    "indexed": false,
                    "internalType": "uint256"
                }
            ],
            "anonymous": false
        },
        {
            "type": "event",
            "name": "e_updategoodconfig",
            "inputs": [
                {
                    "name": "",
                    "type": "uint256",
                    "indexed": true,
                    "internalType": "uint256"
                },
                {
                    "name": "",
                    "type": "uint256",
                    "indexed": false,
                    "internalType": "uint256"
                },
                {
                    "name": "",
                    "type": "uint256",
                    "indexed": false,
                    "internalType": "uint256"
                }
            ],
            "anonymous": false
        },
        {
            "type": "error",
            "name": "ERC20TransferFailed",
            "inputs": []
        },
        {
            "type": "error",
            "name": "NativeTransferFailed",
            "inputs": []
        },
        {
            "type": "error",
            "name": "err_total",
            "inputs": []
        }
    ],
    "bytecode": {
        "object": "0x60806040523480156200001157600080fd5b50604051620054313803806200543183398101604081905262000034916200005e565b600980546001600160a01b0319166001600160a01b0393909316929092179091556003556200009a565b600080604083850312156200007257600080fd5b82516001600160a01b03811681146200008a57600080fd5b6020939093015192949293505050565b61538780620000aa6000396000f3fe6080604052600436106102bb5760003560e01c80638bdde5d31161016e578063ac9650d8116100cb578063c3a2b1591161007f578063d2db542911610064578063d2db54291461095f578063d756d4b714610975578063e1f685e8146109a257600080fd5b8063c3a2b1591461091f578063cbb2aabc1461094c57600080fd5b8063b153b920116100b0578063b153b920146108d9578063c138f7a9146108f9578063c16b80fe1461090c57600080fd5b8063ac9650d8146108a6578063ad864a79146108c657600080fd5b80639caa637b11610122578063a4500ff311610107578063a4500ff3146107ea578063a64d6c9c1461080b578063a6f6a9801461082b57600080fd5b80639caa637b146107395780639ddaf5aa1461075957600080fd5b80639551177a116101535780639551177a146106d157806397924ead146106f157806399e23fc21461071957600080fd5b80638bdde5d31461068f578063920acbb8146106b157600080fd5b80633f1177401161021c57806356b7d94c116101d05780636ab107f9116101b55780636ab107f914610646578063784796f71461065c5780637b43e7381461067c57600080fd5b806356b7d94c146105cc578063578496ab1461061357600080fd5b8063402f5ab511610201578063402f5ab514610569578063430b9be71461057f57806345818e4c146105ac57600080fd5b80633f117740146104c75780633f8cbb2a1461053c57600080fd5b8063257b2fd0116102735780632f724394116102585780632f724394146103f15780633be81387146104875780633d995173146104a757600080fd5b8063257b2fd0146103a45780632973ada7146103c457600080fd5b806314484e10116102a457806314484e1014610316578063144aeb8314610336578063161ce5cb1461035657600080fd5b80630292eb4a146102c05780630a25dcff146102e6575b600080fd5b6102d36102ce366004614b68565b6109b5565b6040519081526020015b60405180910390f35b3480156102f257600080fd5b50610306610301366004614b68565b610b0f565b60405190151581526020016102dd565b34801561032257600080fd5b50610306610331366004614b68565b610bac565b34801561034257600080fd5b50610306610351366004614b81565b610c39565b34801561036257600080fd5b5061038c610371366004614bba565b6002602052600090815260409020546001600160a01b031681565b6040516001600160a01b0390911681526020016102dd565b3480156103b057600080fd5b506102d36103bf366004614bd5565b610caa565b3480156103d057600080fd5b506102d36103df366004614bba565b600a6020526000908152604090205481565b3480156103fd57600080fd5b5061044e61040c366004614b68565b600560208190526000918252604090912080546001820154600283015460038401546004850154949095015492946001600160a01b0392831694919092169286565b604080519687526001600160a01b03958616602088015293909416928501929092526060840152608083015260a082015260c0016102dd565b34801561049357600080fd5b506102d36104a2366004614bd5565b610cdb565b3480156104b357600080fd5b5060095461038c906001600160a01b031681565b3480156104d357600080fd5b506104e76104e2366004614b68565b610cf7565b6040516102dd9190600060c0820190506001600160a01b0383511682526020830151602083015260408301516040830152606083015160608301526080830151608083015260a083015160a083015292915050565b34801561054857600080fd5b5061055c610557366004614bba565b610d94565b6040516102dd9190614bff565b34801561057557600080fd5b506102d360035481565b34801561058b57600080fd5b506102d361059a366004614b68565b600e6020526000908152604090205481565b3480156105b857600080fd5b506103066105c7366004614b68565b610e00565b3480156105d857600080fd5b506102d36105e7366004614c43565b60008281526005602090815260408083206001600160a01b038516845260060190915290205492915050565b610626610621366004614c97565b610e87565b604080516001600160801b039384168152929091166020830152016102dd565b34801561065257600080fd5b506102d360045481565b34801561066857600080fd5b50610306610677366004614c43565b6111bc565b61062661068a366004614cf8565b6112cd565b34801561069b57600080fd5b506106af6106aa366004614bba565b6115ab565b005b3480156106bd57600080fd5b506103066106cc366004614d3d565b611641565b3480156106dd57600080fd5b506103066106ec366004614bba565b611672565b6107046106ff366004614d72565b6116d3565b604080519283526020830191909152016102dd565b34801561072557600080fd5b50610306610734366004614c43565b61190c565b34801561074557600080fd5b506102d3610754366004614da5565b611989565b34801561076557600080fd5b506107b3610774366004614b68565b600c602052600090815260409020805460018201546002830154600384015460048501546005909501546001600160a01b039094169492939192909186565b604080516001600160a01b0390971687526020870195909552938501929092526060840152608083015260a082015260c0016102dd565b6107fd6107f8366004614dbd565b6119bb565b6040516102dd929190614df0565b61081e610819366004614dbd565b611ce0565b6040516102dd9190614e67565b34801561083757600080fd5b5061084b610846366004614b68565b611f9a565b6040516102dd9190600060c0820190508251825260208301516001600160a01b0380821660208501528060408601511660408501525050606083015160608301526080830151608083015260a083015160a083015292915050565b6108b96108b4366004614ea3565b612045565b6040516102dd9190614f68565b6107fd6108d4366004614fcc565b612192565b3480156108e557600080fd5b506103066108f4366004614bba565b61253f565b61081e610907366004614dbd565b6125a3565b61081e61091a366004614dbd565b6127c0565b34801561092b57600080fd5b506102d361093a366004614bba565b60016020526000908152604090205481565b61070461095a366004615012565b61298e565b34801561096b57600080fd5b506102d360005481565b34801561098157600080fd5b506102d3610990366004614b68565b60076020526000908152604090205481565b6107fd6109b0366004614fcc565b612dca565b336000908152600a6020526040812054156109cf57600080fd5b600082815260056020908152604080832033845260060190915290205480610a245760405162461bcd60e51b815260206004820152600360248201526223981b60e91b60448201526064015b60405180910390fd5b60008381526005602090815260408083203384526006019091528120819055600354610a5b9083606460dd9290921c601f16020490565b604080513381526020810183905291925085917faf9db788ac74fcc3537af8630e9faadb1bb167fe437ae6e8b1a50709ba7eea0c910160405180910390a260008481526005602090815260408083206009546001600160a01b0316845260060190915281208054839290610ad0908490615078565b90915550610b06905033610ae4838561508b565b6000878152600560205260409020600201546001600160a01b03169190613189565b5090505b919050565b6009546000906001600160a01b03163314610b525760405162461bcd60e51b815260206004820152600360248201526223981960e91b6044820152606401610a1b565b6000828152600560205260409020610b6990613229565b817f0efde2539ebe8cd39aba1eaf34533ebd2e6442c1d41f5153b1e11d5d9987a3a46001604051610b9c91815260200190565b60405180910390a2506001919050565b6009546000906001600160a01b03163314610bef5760405162461bcd60e51b815260206004820152600360248201526223981960e91b6044820152606401610a1b565b6000828152600560205260409020610c0690613289565b817f0efde2539ebe8cd39aba1eaf34533ebd2e6442c1d41f5153b1e11d5d9987a3a46000604051610b9c91815260200190565b6000828152600560205260408120600101546001600160a01b03163314610c885760405162461bcd60e51b815260206004820152600360248201526211cc0d60ea1b6044820152606401610a1b565b6000838152600560205260409020610ca090836132d8565b5060015b92915050565b600d6020528160005260406000208181548110610cc657600080fd5b90600052602060002001600091509150505481565b60066020528160005260406000208181548110610cc657600080fd5b610d396040518060c0016040528060006001600160a01b0316815260200160008152602001600081526020016000815260200160008152602001600081525090565b6000828152600c6020818152604080842080546001600160a01b03168652600181015486840152600281015491860191909152600381015460608601526004810154608086015294909252905260059091015460a082015290565b6001600160a01b038116600090815260066020908152604091829020805483518184028101840190945280845260609392830182828015610df457602002820191906000526020600020905b815481526020019060010190808311610de0575b50505050509050919050565b6009546000906001600160a01b03163314610e435760405162461bcd60e51b815260206004820152600360248201526223981960e91b6044820152606401610a1b565b610e4c82613305565b610e7e5760405162461bcd60e51b815260206004820152600360248201526247303360e81b6044820152606401610a1b565b50600355600190565b600080600854600014610ec25760405162461bcd60e51b815260206004820152600360248201526247303160e81b6044820152606401610a1b565b600160085560408051610100810182526001600160801b038816815260006020808301829052828401829052606083018290528b825260058082528483206003808201546080870152905460a08601528c84528183529483209485015460c0850152918b905252905460e0820152610f3a8187613377565b90506001851515148015610f57575080516001600160801b031615155b15610f7557604051632af75bb760e11b815260040160405180910390fd5b60208082015160008a81526005909252604090912054610faa916001600160801b031661271060e19290921c6103ff16020490565b9150818160200151610fbc919061509e565b9250611051816080015182604001516003546040518060400160405280896001600160a01b0316815260200160026000336001600160a01b03166001600160a01b0316815260200190815260200160002060009054906101000a90046001600160a01b03166001600160a01b0316815250600560008f81526020019081526020016000206136bd90949392919063ffffffff16565b60c08101516003546040805180820182526001600160a01b0380891682523360009081526002602090815284822054909216828401528d81526005909152919091206110a393909290918691906136bd565b80516110e09033906110b5908a61509e565b60008c8152600560205260409020600201546001600160a01b031691906001600160801b0316613705565b60008881526005602052604090206002015461110f906001600160a01b0316336001600160801b038616613189565b87897fa79c43e220b5faf022716b06e757294b799a25f33d3c8b0121e614f7b5d988c433846060015161116386600001518d61114b919061509e565b60408801516001600160801b031660809190911b1790565b6001600160801b03881660808a901b17604080516001600160a01b0390951685526001600160801b0390931660208501529183015260608201526080015b60405180910390a35060006008559097909650945050505050565b6000828152600560205260408120600101546001600160a01b03163314806111ee57506009546001600160a01b031633145b6112205760405162461bcd60e51b815260206004820152600360248201526247303560e81b6044820152606401610a1b565b6000838152600560209081526040918290206001015482516001600160a01b0391821681529085169181019190915284917f8ef070efbad4fdeedaefa55813446a48d7e44138ff268ca1cd8daba30a0f7025910160405180910390a2506000828152600560209081526040808320600190810180546001600160a01b0319166001600160a01b03969096169586179055938352600682528220805480850182559083529120019190915590565b6000806008546000146113085760405162461bcd60e51b815260206004820152600360248201526247303160e81b6044820152606401610a1b565b600160085560408051610100810182526001600160801b038816815260006020808301829052828401829052606083018290528b825260058082528483206003808201546080870152905460a08601528c84528183529483209485015460c0850152918b905252905460e0820152611380818761377e565b80519091506001600160801b0316156113ac57604051632af75bb760e11b815260040160405180910390fd5b60208082015160008b815260059092526040909120546113e1916001600160801b031661271060e19290921c6103ff16020490565b91508181602001516113f3919061509e565b60c0820151604080840151600354825180840184526001600160a01b03808b1682523360009081526002602090815286822054909216828401528f81526005909152939093209497506114479493926136bd565b60808101516003546040805180820182526001600160a01b0380891682523360009081526002602090815284822054909216828401528e815260059091529190912061149993909290918691906136bd565b80516114d69086906114ab908a61509e565b60008b8152600560205260409020600201546001600160a01b031691906001600160801b0316613189565b600089815260056020526040902060020154611505906001600160a01b0316336001600160801b038616613705565b87897f3de590341c976ea6fce618ef4a768a15441201ad3ed7c9b438d82c3951de7ced3388856060015161155a87600001518e611542919061509e565b60408901516001600160801b031660809190911b1790565b6001600160801b03891660808b901b17604080516001600160a01b0396871681529590941660208601526001600160801b03909216928401929092526060830191909152608082015260a0016111a1565b33600090815260016020526040902054156115ed5760405162461bcd60e51b8152602060048201526002602482015261553160f01b6044820152606401610a1b565b60016000808282546115ff9190615078565b9091555050600080543382526001602090815260408084209290925560029052902080546001600160a01b0319166001600160a01b0392909216919091179055565b600083815260056020526040812060020154611667906001600160a01b03168385613189565b5060015b9392505050565b6009546000906001600160a01b031633146116b55760405162461bcd60e51b815260206004820152600360248201526223981960e91b6044820152606401610a1b565b506001600160a01b03166000908152600a6020526040812055600190565b60095460009081906001600160a01b031633146117185760405162461bcd60e51b815260206004820152600360248201526223981960e91b6044820152606401610a1b565b61172183613a00565b6117535760405162461bcd60e51b815260206004820152600360248201526226981960e91b6044820152606401610a1b565b6117706001600160a01b038616336001600160801b038716613705565b6001600460008282546117839190615078565b9091555050600454604080518082019091526001600160a01b03871681523360208201526007906000906117b690613a16565b815260208082019290925260409081016000908120939093556004805484526005909252808320600381018890558083018890556001600160ff1b03871681556002810180546001600160a01b038b166001600160a01b031991821617909155600190910180549091163317905590548252902061183390613229565b336000818152600660209081526040808320600480548254600181018455928652848620909201919091558151606081018352948552549184019190915282018190529061188090613a64565b90506001600b60008282546118959190615078565b9091555050600b546000828152600e60205260409020556004546118f9906118c66118c08860801c90565b60801b90565b6118e06000895b6001600160801b031660809190911b1790565b600b546000908152600c60205260409020929190613a97565b600454600b549250925050935093915050565b6000828152600c60205260408120546001600160a01b031633146119575760405162461bcd60e51b8152602060048201526002602482015261503160f01b6044820152606401610a1b565b506000828152600c6020526040902080546001600160a01b0383166001600160a01b0319909116179055600192915050565b6000600e816119a56119a0368690038601866150d4565b613a64565b8152602001908152602001600020549050919050565b60408051608081018252600080825260208201819052918101829052606081019190915260408051608081018252600080825260208201819052918101829052606081019190915260085415611a395760405162461bcd60e51b815260206004820152600360248201526247303160e81b6044820152606401610a1b565b60016008556000858152600c60205260409020600281015490546001600160a01b031633148015611a6957508015155b611a9b5760405162461bcd60e51b81526020600482015260036024820152624d303960e81b6044820152606401610a1b565b6000868152600c6020908152604080832060018101548585526005808552838620600354855180870187526001600160a01b03808e168252338a5260028952878a2054168189015284895292909652939095209094611aff94919392918b91613afb565b8151600354929650909450600091611b5191611b2f91906001600160801b0316606460dd9290921c601f16020490565b85516003546118cd916001600160801b0316606460dd9290921c601f16020490565b9050611b5d8160801c90565b85602001818151611b6e9190615135565b6001600160801b03169052508084602001818151611b8c9190615135565b6001600160801b0316905250611ba28160801c90565b60008381526005602090815260408083206009546001600160a01b03168452600601909152812080546001600160801b039390931692909190611be6908490615078565b909155505060008381526005602090815260408083206009546001600160a01b03168452600601909152812080546001600160801b0384169290611c2b908490615078565b909155505060208501518551611c7c913391611c47908b615135565b611c51919061509e565b6000858152600560205260409020600201546001600160a01b031691906001600160801b0316613189565b611cce33856020015186600001518760600151611c999190615135565b611ca3919061509e565b6000868152600560205260409020600201546001600160a01b031691906001600160801b0316613189565b50506000600855509094909350915050565b60408051608081018252600080825260208201819052918101829052606081019190915260085415611d3a5760405162461bcd60e51b815260206004820152600360248201526247303160e81b6044820152606401610a1b565b6001600855600084815260056020526040902054611d5790613a00565b8015611d8d57506000848152600560205260409020600301546e010000000000000000000000000000906001600160801b031611155b8015611dc657506000848152600560205260409020600301546e0100000000000000000000000000009060801c6001600160801b031611155b611df85760405162461bcd60e51b815260206004820152600360248201526226981b60e91b6044820152606401610a1b565b600084815260056020526040902060020154611e27906001600160a01b0316336001600160801b038616613705565b6003546040805180820182526001600160a01b038086168252336000908152600260209081528482205490921682840152888152600590915291909120611e72929091869190613ff6565b90506000600e6000611ea76040518060600160405280336001600160a01b031681526020018981526020016000815250613a64565b815260200190815260200160002054905080600003611f24576001600b6000828254611ed39190615078565b92505081905550600b54600e6000611f0e6040518060600160405280336001600160a01b031681526020018a81526020016000815250613a64565b815260208101919091526040016000205550600b545b6040820151611f6290869060801b602085015160608601516001600160801b031660809190911b176000858152600c60205260409020929190613a97565b60405181907fe5eb1255799fb22ca9d80c7be5ade81a40ee66578748386701667d3cc4c5e9b990600090a25060006008559392505050565b611fe56040518060c001604052806000815260200160006001600160a01b0316815260200160006001600160a01b031681526020016000815260200160008152602001600081525090565b600082815260056020818152604080842060038101546060870152600481015460808701528084015460a08701528054865260018101546001600160a01b0390811687850152969094529190526002909101549092169181019190915290565b60608167ffffffffffffffff811115612060576120606150be565b60405190808252806020026020018201604052801561209357816020015b606081526020019060019003908161207e5790505b50905060005b8281101561218b57600080308686858181106120b7576120b7615155565b90506020028101906120c9919061516b565b6040516120d79291906151b9565b600060405180830381855af49150503d8060008114612112576040519150601f19603f3d011682016040523d82523d6000602084013e612117565b606091505b5091509150816121635760448151101561213057600080fd5b6004810190508080602001905181019061214a91906151c9565b60405162461bcd60e51b8152600401610a1b9190615276565b8084848151811061217657612176615155565b60209081029190910101525050600101612099565b5092915050565b604080516080810182526000808252602082018190529181018290526060810191909152604080516080810182526000808252602082018190529181018290526060810191909152600854156122105760405162461bcd60e51b815260206004820152600360248201526247303160e81b6044820152606401610a1b565b60016008819055506000600e600061224a6040518060600160405280336001600160a01b031681526020018b81526020018a815250613a64565b815260200190815260200160002054905060008111801561228157506000818152600c60205260409020546001600160a01b031633145b6122b35760405162461bcd60e51b8152602060048201526003602482015262134c0d60ea1b6044820152606401610a1b565b61235e60056000888152602001908152602001600020600c6000600e60006122fd6040518060600160405280336001600160a01b031681526020018f81526020018e815250613a64565b815260208082019290925260409081016000908120548452838301949094529182018320600354835180850185526001600160a01b03808d168252338752600285528587205416818501528e86526005909352929093209392918a91613afb565b81516003549295509093506000916123b09161238e91906001600160801b0316606460dd9290921c601f16020490565b84516003546118cd916001600160801b0316606460dd9290921c601f16020490565b90506123bc8160801c90565b846020018181516123cd9190615135565b6001600160801b031690525080836020018181516123eb9190615135565b6001600160801b03169052506124018160801c90565b60008981526005602090815260408083206009546001600160a01b03168452600601909152812080546001600160801b039390931692909190612445908490615078565b909155505060008781526005602090815260408083206009546001600160a01b03168452600601909152812080546001600160801b038416929061248a908490615078565b9091555050602084015184516124b09133916124a6908a615135565b6114ab919061509e565b612502338460200151856000015186606001516124cd9190615135565b6124d7919061509e565b60008a8152600560205260409020600201546001600160a01b031691906001600160801b0316613189565b60405182907fe5eb1255799fb22ca9d80c7be5ade81a40ee66578748386701667d3cc4c5e9b990600090a250506000600855909590945092505050565b6009546000906001600160a01b031633146125825760405162461bcd60e51b815260206004820152600360248201526223981960e91b6044820152606401610a1b565b506001600160a01b03166000908152600a6020526040902060019081905590565b604080516080810182526000808252602082018190529181018290526060810191909152600854156125fd5760405162461bcd60e51b815260206004820152600360248201526247303160e81b6044820152606401610a1b565b600160085560408051606081018252338152602081018690526000918101829052600e90829061262c90613a64565b81526020808201929092526040908101600090812054808252600c90935220549091506001600160a01b0316331461268c5760405162461bcd60e51b81526020600482015260036024820152624d303360e81b6044820152606401610a1b565b6000818152600c60209081526040808320600354825180840184526001600160a01b03808a168252338752600286528487205416818601528a865260059094529190932087936126e293919290918591906141b0565b805160035491945060009161270a916001600160801b0316606460dd9290921c601f16020490565b60008881526005602090815260408083206009546001600160a01b03168452600601909152812080549293506001600160801b0384169290919061274f908490615078565b90915550506020840151612764908290615135565b6001600160801b03166020850181905284516127869133916124cd908a615135565b60405183907fe5eb1255799fb22ca9d80c7be5ade81a40ee66578748386701667d3cc4c5e9b990600090a250506000600855509392505050565b6040805160808101825260008082526020820181905291810182905260608101919091526008541561281a5760405162461bcd60e51b815260206004820152600360248201526247303160e81b6044820152606401610a1b565b600160088190556000858152600c602052604090209081015490546001600160a01b03163314801561285b57506000858152600c6020526040902060020154155b61288d5760405162461bcd60e51b81526020600482015260036024820152624d303560e81b6044820152606401610a1b565b6000858152600c60209081526040808320600354825180840184526001600160a01b03808a168252338752600286528487205416818601528686526005909452919093206128e0939092909188916141b0565b8051600354919350600091612908916001600160801b0316606460dd9290921c601f16020490565b9050808360200181815161291c9190615135565b6001600160801b0390811690915260008481526005602090815260408083206009546001600160a01b0316845260060190915281208054928516935091612964908490615078565b909155505060208301518351612980913391611c479089615135565b505060006008559392505050565b6000806008546000146129c95760405162461bcd60e51b815260206004820152600360248201526247303160e81b6044820152606401610a1b565b60016008556000878152600560205260409020546129e690613a00565b612a185760405162461bcd60e51b815260206004820152600360248201526226981960e91b6044820152606401610a1b565b6000612a496040518060400160405280886001600160a01b03168152602001336001600160a01b0316815250613a16565b60008181526007602052604090205490915015612a8e5760405162461bcd60e51b81526020600482015260036024820152624d303160e81b6044820152606401610a1b565b612ab633612a9c8960801c90565b6001600160a01b03891691906001600160801b0316613705565b600088815260056020526040902060020154612ae5906001600160a01b0316336001600160801b038a16613705565b600088815260056020526040812060030154612b01908961440c565b9050600160046000828254612b169190615078565b90915550506004546000838152600760209081526040808320849055338352600682528220805460018101825590835291200155612bb7612b5b826118cd8b60801c90565b60048054600090815260056020526040902060038101839055908101919091556001600160ff1b03881681556002810180546001600160a01b038b166001600160a01b0319918216179091556001909101805490911633179055565b612c00886003546040805180820182526001600160a01b03808b1682523360009081526002602090815284822054909216828401528f8152600590915291909120929190613ff6565b506000612c316040518060600160405280336001600160a01b0316815260200160045481526020018c815250613a64565b90506001600b6000828254612c469190615078565b9091555050600b546000828152600e602090815260409182902092909255805160c0810182523381526004549281019290925281018b905260608101608084901b8152602001612c9b60006118cd8d60801c90565b8152602001612cab60008c6118cd565b9052600b80546000908152600c60209081526040808320855181546001600160a01b039091166001600160a01b03199091161781558583015160018083019190915586830151600283015560608701516003830155608087015160048084019190915560a09097015160059092019190915533808552600d84528285209554865492830187559585529290932090920192909255915491517f3e6c4a8fca5655383cb2cb9a6c762ccf6f96e96630d965f113de48ea3ead1e9f92612da6928e928e918d918f91909586526020860194909452604085019290925260608401526001600160a01b0390811660808401521660a082015260c00190565b60405180910390a15050600454600b54600060085590999098509650505050505050565b60408051608081018252600080825260208201819052918101829052606081019190915260408051608081018252600080825260208201819052918101829052606081019190915260085415612e485760405162461bcd60e51b815260206004820152600360248201526247303160e81b6044820152606401610a1b565b6001600855600085815260056020526040902054612e6590613a00565b8015612e9a57506000868152600560205260409020600301546d0100000000000000000000000000906001600160801b031611155b8015612ed257506000868152600560205260409020600301546d01000000000000000000000000009060801c6001600160801b031611155b612f045760405162461bcd60e51b815260206004820152600360248201526226981960e91b6044820152606401610a1b565b6003546040805180820182526001600160a01b0380871682523360009081526002602090815284822054909216828401528a8152600590915291909120612f4f929091879190613ff6565b604080820151600088815260056020529190912060030154919350612f749190614486565b6001600160801b0316606082018190526003546040805180820182526001600160a01b0380881682523360009081526002602090815284822054909216828401528a8152600590915291909120612fce9390929091613ff6565b600087815260056020526040902060020154909150613000906001600160a01b0316336001600160801b038716613705565b61304333826060015183600001516130189190615135565b6000888152600560205260409020600201546001600160a01b031691906001600160801b0316613705565b6000600e60006130756040518060600160405280336001600160a01b031681526020018b81526020018a815250613a64565b8152602001908152602001600020549050806000036130f1576001600b60008282546130a19190615078565b92505081905550600b54600e60006130db6040518060600160405280336001600160a01b031681526020018c81526020018b815250613a64565b815260208101919091526040016000205550600b545b604083015161314d908890889060801b602087015160608801516001600160801b031660809190911b17602087015160608801516001600160801b031660809190911b176000878152600c6020526040902094939291906144d0565b60405181907fe5eb1255799fb22ca9d80c7be5ade81a40ee66578748386701667d3cc4c5e9b990600090a2506000600855909590945092505050565b60006001600160a01b0384166131c85760008060008085875af19050806131c357604051633d2cec6f60e21b815260040160405180910390fd5b613223565b60405163a9059cbb60e01b6000528360045282602452602060006044600080895af13d15601f3d116001600051141617169150600060605280604052508061322357604051633c9fd93960e21b815260040160405180910390fd5b50505050565b805461323490613a00565b1561326a5760405162461bcd60e51b8152600401610a1b906020808252600490820152634730303760e01b604082015260600190565b80546001600160ff1b031661328381600160ff1b615078565b90915550565b805461329490613a00565b6132c95760405162461bcd60e51b8152600401610a1b9060208082526004908201526308e6060760e31b604082015260600190565b80546001600160ff1b03169055565b81546001600160ff1b03909116906132ef90613a00565b6132f7579055565b61328381600160ff1b615078565b60008060e283901c603f1660e884901c603f1660ee85901c603f1660f486901c603f166133328760fa1c90565b61333c9190615289565b6133469190615289565b6133509190615289565b61335a9190615289565b90508060ff1660641461336e57600061166b565b60019392505050565b6040805161010081018252600080825260208201819052918101829052606081018290526080810182905260a0810182905260c0810182905260e0810191909152825160a084015160009182916133e3916001600160801b031661271060d79290921c6103ff16020490565b6001600160801b0316604086018190528551869061340290839061509e565b6001600160801b03169052505b84516001600160801b031615801590613436575061343685608001518660c001518661454a565b156136275761345761344c8660c0015160801c90565b60e0870151906146d5565b6001600160801b031661347c613471876080015160801c90565b60a0880151906146d5565b6001600160801b031610156134ac576134a761349c866080015160801c90565b60a0870151906146d5565b6134bd565b6134bd61344c8660c0015160801c90565b60808601519092506134cf9083614486565b9050806001600160801b031685600001516001600160801b03161115613583578085600001818151613501919061509e565b6001600160801b031690525060c085015161351c9083614486565b8560200181815161352d9190615135565b6001600160801b0390811690915260808781015161355893509184169085901b17614705565b614705565b608086015260c085015161357990613574846118cd8382614486565b614732565b60c0860152613604565b845160808601516135939161440c565b60c08601519092506135a59083614486565b856020018181516135b69190615135565b6001600160801b0390811690915260808781015188516135de94509092169085901b17614705565b608086015260c08501516135fa90613574846118cd8382614486565b60c0860152600085525b81856060018181516136169190615135565b6001600160801b031690525061340f565b84516001600160801b0316156136b457845160a086015161365b916001600160801b0316606460f49290921c603f16020490565b8560400181815161366c919061509e565b6001600160801b03908116909152865160a088015161369893509116606460f49290921c603f16020490565b855186906136a7908390615135565b6001600160801b03169052505b50929392505050565b6003850184905560058501546136ed906136e8606460fa86901c6001600160801b03881602046118c0565b61475f565b60058601556136fe85848484614782565b5050505050565b6040516323b872dd60e01b81526001600160a01b038381166004830152306024830152604482018390528416906323b872dd906064016020604051808303816000875af115801561375a573d6000803e3d6000fd5b505050506040513d601f19601f8201168201806040525081019061322391906152a2565b6040805161010081018252600080825260208201819052918101829052606081018290526080810182905260a0810182905260c0810182905260e0810182905290805b84516001600160801b0316158015906137e857506137e885608001518660c001518661454a565b156136b4576137fe61344c8660c0015160801c90565b6001600160801b0316613818613471876080015160801c90565b6001600160801b0316101561383d5761383861349c866080015160801c90565b61384e565b61384e61344c8660c0015160801c90565b60c08601519092506138609083614486565b9050806001600160801b031685600001516001600160801b0316111561390a578085600001818151613892919061509e565b6001600160801b031690525060808501516138ad9083614486565b856020018181516138be9190615135565b6001600160801b0390811690915260c08701516138e49250908316608085901b17614732565b60c0860152608085015161390090613553846118cd8382614486565b608086015261398b565b845160c086015161391a9161440c565b608086015190925061392c9083614486565b8560200181815161393d9190615135565b6001600160801b0390811690915260c087015187516139659350909116608085901b17614732565b60c0860152608085015161398190613553846118cd8382614486565b6080860152600085525b84516001600160801b0316156139dd57845160a08601516139bf916001600160801b0316606460f49290921c603f16020490565b856040018181516139d0919061509e565b6001600160801b03169052505b81856060018181516139ef9190615135565b6001600160801b03169052506137c1565b600060ff82901c6001811461336e57600061166b565b600081604051602001613a47919081516001600160a01b039081168252602092830151169181019190915260400190565b604051602081830303815290604052805190602001209050919050565b6040805182516001600160a01b031660208083019190915283015181830152908201516060820152600090608001613a47565b60048401546001600160801b0316600003613acb5783546001600160a01b0319163317845560018401839055600060028501555b613ad984600401548261475f565b60048501556003840154613aed908361475f565b846003018190555050505050565b6040805160808101825260008082526020820181905291810182905260608101919091526040805160808101825260008082526020820181905291810182905260608101919091526000613b6a86613b64613b5a8a6003015460801c90565b60048b01546118cd565b9061440c565b90506040518060800160405280613b9688613b64613b8c8e6005015460801c90565b60048f01546118cd565b6001600160801b03168152602001613bc388613b64613bb98c6004015460801c90565b60048d01546118cd565b6001600160801b03168152602001826001600160801b03168152602001876001600160801b03168152509250613c08613c008a6003015460801c90565b8a54906149b5565b6001600160801b031683604001516001600160801b0316108015613c4a5750613c35613c008a6003015490565b6001600160801b0316866001600160801b0316105b613c7f5760405162461bcd60e51b8152600401610a1b906020808252600490820152634730313160e01b604082015260600190565b6040518060800160405280613cac83613b64613c9f8d6005015460801c90565b60048e015460801c6118cd565b6001600160801b03168152602001613cdc83613b64613ccf8c6005015460801c90565b60038d015460801c6118cd565b6001600160801b03168152602001826001600160801b03168152602001613d0b83613b64613ccf8c6005015490565b6001600160801b03168152509150613d2f613d27896003015490565b8954906149b5565b6001600160801b031682606001516001600160801b0316108015613d745750613d5f613d27896003015460801c90565b6001600160801b0316816001600160801b0316105b613da95760405162461bcd60e51b8152600401610a1b906020808252600490820152632398189960e11b604082015260600190565b613dd88960030154613dd38560400151866060015160809190911b6001600160801b039091161790565b6149da565b60038a0155600489015460408401516060850151613e05929160801b6001600160801b03909116176149da565b60048a0155600589015483516020850151613e2f929160801b6001600160801b03909116176149da565b60058a015560208301518351613e45919061509e565b6001600160801b03908116845260608401518a54613e729290911661271060eb9290921c6103ff16020490565b6001600160801b03166020840181905260058a0154613e9f916136e890606460fa8a901c909102046118c0565b60058a015560208301516001600160801b031615613ec757613ec78984602001518787614782565b613ef18860030154613dd38460400151856060015160809190911b6001600160801b039091161790565b6003890155600488015460408301516060840151613f1e929160801b6001600160801b03909116176149da565b6004890155600588015482516020840151613f48929160801b6001600160801b03909116176149da565b600589015560208201518251613f5e919061509e565b6001600160801b03908116835260608301518954613f8b9290911661271060eb9290921c6103ff16020490565b6001600160801b0316602083018190526005890154613fb8916136e890606460fa8a901c909102046118c0565b6005890155613fc787876149fd565b60208201516001600160801b031615613fea57613fea8883602001518787614782565b50965096945050505050565b604080516080810182526000808252602082018190529181018290526060810191909152845461403c906001600160801b03861661271060f59290921c6103ff16020490565b614046908561509e565b6001600160801b03166060820181905260038601546140649161440c565b6001600160801b03166040820152606081015160058601546140929190613b649060801c60048901546118cd565b6001600160801b0316602082015260608101516140cb906140b3908661509e565b84906001600160801b0316606460fa9290921c020490565b6001600160801b03168082526005860154602083015161410a926136e8916140f291615135565b60208501516001600160801b031660809190911b1790565b6005860155600385015460408201516060830151614137929160801b6001600160801b039091161761475f565b6003860155600485015460408201516060830151614164929160801b6001600160801b039091161761475f565b6004860155606081015160009061417b908661509e565b90506001600160801b038116156141a7576141a7868360600151876141a0919061509e565b8686614782565b50949350505050565b60408051608081018252600080825260208201819052918101829052606081019190915260405180608001604052806141fe86613b646141f48b6005015460801c90565b60048c01546118cd565b6001600160801b0316815260200161422186613b64613b5a8a6004015460801c90565b6001600160801b0316815260200161424486613b64613b5a8a6003015460801c90565b6001600160801b03168152602001856001600160801b0316815250905061427a614272876003015460801c90565b8754906149b5565b6001600160801b031681604001516001600160801b03161080156142bc57506142a7614272876003015490565b6001600160801b0316846001600160801b0316105b6142f15760405162461bcd60e51b8152600401610a1b906020808252600490820152634730303960e01b604082015260600190565b61431b8660030154613dd38360400151846060015160809190911b6001600160801b039091161790565b6003870155600486015460408201516060830151614348929160801b6001600160801b03909116176149da565b6004870155600586015481516020830151614372929160801b6001600160801b03909116176149da565b60058701556143818585614b05565b60208101518151614392919061509e565b6001600160801b039081168252606082015187546143bf9290911661271060eb9290921c6103ff16020490565b6001600160801b03166020820181905260058701546143ec916136e890606460fa88901c909102046118c0565b600587015560208101516144039087908585614782565b95945050505050565b6000826001600160801b031660000361442757506000610ca4565b6000836001600160801b0316836001600160801b03166144478660801c90565b6001600160801b031661445a91906152bf565b61446491906152ec565b90506001600160801b0381111561447c57600061447e565b805b949350505050565b60006144928360801c90565b6001600160801b03166000036144aa57506000610ca4565b60006144b68460801c90565b6001600160801b0316836001600160801b03166144478690565b60048601546001600160801b03166000036145045785546001600160a01b0319163317865560018601859055600286018490555b61451286600301548461475f565b60038701556004860154614526908361475f565b6004870155600586015461453a908261475f565b8660050181905550505050505050565b6000836001600160801b0316158061457257506145678360801c90565b6001600160801b0316155b8061458d57506145828260801c90565b6001600160801b0316155b1561459a5750600061166b565b60001982846145a98760801c90565b6145b39190615300565b6145bd9190615300565b6001600160801b031611156145ff5760405162461bcd60e51b81526020600482015260086024820152676f766572666c6f7760c01b6044820152606401610a1b565b60001961460c8360801c90565b6146168560801c90565b6146209087615300565b61462a9190615300565b6001600160801b0316111561466c5760405162461bcd60e51b81526020600482015260086024820152676f766572666c6f7760c01b6044820152606401610a1b565b6146768260801c90565b6146808460801c90565b61468a9086615300565b6146949190615300565b6001600160801b031682846146a98760801c90565b6146b39190615300565b6146bd9190615300565b6001600160801b031610611667576000949350505050565b60006103ff60cd84901c168082036146f05782915050610ca4565b6146fb816040615300565b61447e908461532b565b600061166b6147148360801c90565b61471e8560801c90565b614728919061509e565b6118cd8486615135565b600061166b6147418360801c90565b61474b8560801c90565b6147559190615135565b6118cd848661509e565b600061166b61476e8360801c90565b6147788560801c90565b6147289190615135565b60208101516000906001600160a01b0316614879576064603f60e285901c166001600160801b03861602046064603f60f486901c166001600160801b03871602046147cd9190615135565b60018601546001600160a01b03166000908152600687016020526040812080549293506001600160801b03841692909190614809908490615078565b9091555081905061482c60646001600160801b03871660fa87901c02048661509e565b614836919061509e565b82516001600160a01b03166000908152600687016020526040812080546001600160801b03939093169290919061486e908490615078565b909155506136fe9050565b60018501546001600160a01b031660009081526006860160205260408120805460646001600160801b0388811660f489901c603f1602919091041692906148c1908490615078565b90915550506064603f60e885901c166001600160801b03861602046001600160801b031685600601600084602001516001600160a01b03166001600160a01b03168152602001908152602001600020600082825461491f9190615078565b90915550503360009081526006860160205260408120805460646001600160801b0388811660e289901c603f16029190910416929061495f908490615078565b909155505081516001600160a01b031660009081526006860160205260408120805460646001600160801b0388811660ee89901c603f1602919091041692906149a9908490615078565b90915550505050505050565b60006103ff60c384901c168082036149d05782915050610ca4565b61447e818461532b565b600061166b6149e98360801c90565b6149f38560801c90565b614755919061509e565b6000614a4f614a40614a13856003015460801c90565b6001600160801b0316846001600160801b0316614a31876004015490565b6001600160801b031691020490565b60048501546118cd908561440c565b90506000614ab1614a85614a67866005015460801c90565b6001600160801b0316856001600160801b0316614a31886004015490565b6118cd614a93876005015490565b6001600160801b0316866001600160801b0316614a31896004015490565b9050614ad68460040154613dd3614ac58590565b60801b6001600160801b0387161790565b60048501556005840154614aea90826149da565b60058501556003840154613aed90613dd36118c08560801c90565b6000614b1b614a40614a13856003015460801c90565b9050614b408360040154613dd3614b2f8490565b60801b6001600160801b0386161790565b60048401556003830154614b5b90613dd36118c08460801c90565b8360030181905550505050565b600060208284031215614b7a57600080fd5b5035919050565b60008060408385031215614b9457600080fd5b50508035926020909101359150565b80356001600160a01b0381168114610b0a57600080fd5b600060208284031215614bcc57600080fd5b61166b82614ba3565b60008060408385031215614be857600080fd5b614bf183614ba3565b946020939093013593505050565b6020808252825182820181905260009190848201906040850190845b81811015614c3757835183529284019291840191600101614c1b565b50909695505050505050565b60008060408385031215614c5657600080fd5b82359150614c6660208401614ba3565b90509250929050565b80356001600160801b0381168114610b0a57600080fd5b8015158114614c9457600080fd5b50565b60008060008060008060c08789031215614cb057600080fd5b8635955060208701359450614cc760408801614c6f565b9350606087013592506080870135614cde81614c86565b9150614cec60a08801614ba3565b90509295509295509295565b60008060008060008060c08789031215614d1157600080fd5b8635955060208701359450614d2860408801614c6f565b935060608701359250614cde60808801614ba3565b600080600060608486031215614d5257600080fd5b8335925060208401359150614d6960408501614ba3565b90509250925092565b600080600060608486031215614d8757600080fd5b614d9084614ba3565b95602085013595506040909401359392505050565b600060608284031215614db757600080fd5b50919050565b600080600060608486031215614dd257600080fd5b83359250614de260208501614c6f565b9150614d6960408501614ba3565b6101008101614e2d828580516001600160801b03908116835260208083015182169084015260408083015182169084015260609182015116910152565b82516001600160801b0390811660808401526020840151811660a08401526040840151811660c084015260608401511660e083015261166b565b60808101610ca4828480516001600160801b03908116835260208083015182169084015260408083015182169084015260609182015116910152565b60008060208385031215614eb657600080fd5b823567ffffffffffffffff80821115614ece57600080fd5b818501915085601f830112614ee257600080fd5b813581811115614ef157600080fd5b8660208260051b8501011115614f0657600080fd5b60209290920196919550909350505050565b60005b83811015614f33578181015183820152602001614f1b565b50506000910152565b60008151808452614f54816020860160208601614f18565b601f01601f19169290920160200192915050565b600060208083016020845280855180835260408601915060408160051b87010192506020870160005b82811015614fbf57603f19888603018452614fad858351614f3c565b94509285019290850190600101614f91565b5092979650505050505050565b60008060008060808587031215614fe257600080fd5b8435935060208501359250614ff960408601614c6f565b915061500760608601614ba3565b905092959194509250565b600080600080600060a0868803121561502a57600080fd5b853594506020860135935061504160408701614ba3565b92506060860135915061505660808701614ba3565b90509295509295909350565b634e487b7160e01b600052601160045260246000fd5b80820180821115610ca457610ca4615062565b81810381811115610ca457610ca4615062565b6001600160801b0382811682821603908082111561218b5761218b615062565b634e487b7160e01b600052604160045260246000fd5b6000606082840312156150e657600080fd5b6040516060810181811067ffffffffffffffff82111715615109576151096150be565b60405261511583614ba3565b815260208301356020820152604083013560408201528091505092915050565b6001600160801b0381811683821601908082111561218b5761218b615062565b634e487b7160e01b600052603260045260246000fd5b6000808335601e1984360301811261518257600080fd5b83018035915067ffffffffffffffff82111561519d57600080fd5b6020019150368190038213156151b257600080fd5b9250929050565b8183823760009101908152919050565b6000602082840312156151db57600080fd5b815167ffffffffffffffff808211156151f357600080fd5b818401915084601f83011261520757600080fd5b815181811115615219576152196150be565b604051601f8201601f19908116603f01168101908382118183101715615241576152416150be565b8160405282815287602084870101111561525a57600080fd5b61526b836020830160208801614f18565b979650505050505050565b60208152600061166b6020830184614f3c565b60ff8181168382160190811115610ca457610ca4615062565b6000602082840312156152b457600080fd5b815161447c81614c86565b8082028115828204841417610ca457610ca4615062565b634e487b7160e01b600052601260045260246000fd5b6000826152fb576152fb6152d6565b500490565b6001600160801b0381811683821602808216919082811461532357615323615062565b505092915050565b60006001600160801b0380841680615345576153456152d6565b9216919091049291505056fea2646970667358221220fd8f7408139f04cce8c918c62ae36452d28c1640597de20ec386e5bec8ddfe6e64736f6c63430008180033",
        "linkReferences": {}
    },
    "methodIdentifiers": {
        "_ownerproofs(address,uint256)": "257b2fd0",
        "addbanlist(address)": "b153b920",
        "addreferer(address)": "8bdde5d3",
        "banlist(address)": "2973ada7",
        "buyGood(uint256,uint256,uint128,uint256,bool,address)": "578496ab",
        "buyGoodForPay(uint256,uint256,uint128,uint256,address,address)": "7b43e738",
        "changeOwner(uint256,address)": "784796f7",
        "changeProofOwner(uint256,address)": "99e23fc2",
        "collectProtocolFee(uint256)": "0292eb4a",
        "cusomerno()": "d2db5429",
        "customerno(address)": "c3a2b159",
        "disinvestNormalGood(uint256,uint256,uint128,address)": "ad864a79",
        "disinvestNormalProof(uint256,uint128,address)": "a4500ff3",
        "disinvestValueGood(uint256,uint128,address)": "c138f7a9",
        "disinvestValueProof(uint256,uint128,address)": "c16b80fe",
        "getGoodIdByAddress(address)": "3f8cbb2a",
        "getGoodState(uint256)": "a6f6a980",
        "getGoodsFee(uint256,address)": "56b7d94c",
        "getProofId((address,uint256,uint256))": "9caa637b",
        "getProofState(uint256)": "3f117740",
        "goodnum()": "6ab107f9",
        "goods(uint256)": "2f724394",
        "goodseq(bytes32)": "d756d4b7",
        "initMetaGood(address,uint256,uint256)": "97924ead",
        "initNormalGood(uint256,uint256,address,uint256,address)": "cbb2aabc",
        "investNormalGood(uint256,uint256,uint128,address)": "e1f685e8",
        "investValueGood(uint256,uint128,address)": "a64d6c9c",
        "marketconfig()": "402f5ab5",
        "marketcreator()": "3d995173",
        "multicall(bytes[])": "ac9650d8",
        "ownergoods(address,uint256)": "3be81387",
        "payGood(uint256,uint256,address)": "920acbb8",
        "proofs(uint256)": "9ddaf5aa",
        "proofseq(bytes32)": "430b9be7",
        "relations(address)": "161ce5cb",
        "removebanlist(address)": "9551177a",
        "setMarketConfig(uint256)": "45818e4c",
        "updateGoodConfig(uint256,uint256)": "144aeb83",
        "updatetoNormalGood(uint256)": "14484e10",
        "updatetoValueGood(uint256)": "0a25dcff"
    },
    "id": 1
}