{"abi":[{"type":"constructor","inputs":[{"name":"_marketcreator","type":"address","internalType":"address"},{"name":"_marketconfig","type":"uint256","internalType":"uint256"}],"stateMutability":"nonpayable"},{"type":"function","name":"DOMAIN_SEPARATOR","inputs":[],"outputs":[{"name":"","type":"bytes32","internalType":"bytes32"}],"stateMutability":"view"},{"type":"function","name":"addbanlist","inputs":[{"name":"_user","type":"address","internalType":"address"}],"outputs":[{"name":"","type":"bool","internalType":"bool"}],"stateMutability":"nonpayable"},{"type":"function","name":"approve","inputs":[{"name":"to","type":"address","internalType":"address"},{"name":"tokenId","type":"uint256","internalType":"uint256"}],"outputs":[],"stateMutability":"nonpayable"},{"type":"function","name":"balanceOf","inputs":[{"name":"owner","type":"address","internalType":"address"}],"outputs":[{"name":"","type":"uint256","internalType":"uint256"}],"stateMutability":"view"},{"type":"function","name":"banlist","inputs":[{"name":"","type":"address","internalType":"address"}],"outputs":[{"name":"","type":"uint256","internalType":"uint256"}],"stateMutability":"view"},{"type":"function","name":"buyGood","inputs":[{"name":"_goodid1","type":"uint256","internalType":"uint256"},{"name":"_goodid2","type":"uint256","internalType":"uint256"},{"name":"_swapQuantity","type":"uint128","internalType":"uint128"},{"name":"_limitPrice","type":"uint256","internalType":"T_BalanceUINT256"},{"name":"_istotal","type":"bool","internalType":"bool"}],"outputs":[{"name":"goodid2Quantity_","type":"uint128","internalType":"uint128"},{"name":"goodid2FeeQuantity_","type":"uint128","internalType":"uint128"}],"stateMutability":"payable"},{"type":"function","name":"buyGoodForPay","inputs":[{"name":"_goodid1","type":"uint256","internalType":"uint256"},{"name":"_goodid2","type":"uint256","internalType":"uint256"},{"name":"_swapQuantity","type":"uint128","internalType":"uint128"},{"name":"_limitPrice","type":"uint256","internalType":"T_BalanceUINT256"},{"name":"_recipent","type":"address","internalType":"address"}],"outputs":[{"name":"goodid1Quantity_","type":"uint128","internalType":"uint128"},{"name":"goodid1FeeQuantity_","type":"uint128","internalType":"uint128"}],"stateMutability":"payable"},{"type":"function","name":"changeGoodOwner","inputs":[{"name":"_goodid","type":"uint256","internalType":"uint256"},{"name":"_to","type":"address","internalType":"address"}],"outputs":[{"name":"","type":"bool","internalType":"bool"}],"stateMutability":"nonpayable"},{"type":"function","name":"collectCommission","inputs":[{"name":"_goodid","type":"uint256[]","internalType":"uint256[]"}],"outputs":[{"name":"feeamount","type":"uint256[]","internalType":"uint256[]"}],"stateMutability":"nonpayable"},{"type":"function","name":"collectProof","inputs":[{"name":"_proofid","type":"uint256","internalType":"uint256"},{"name":"_gater","type":"address","internalType":"address"},{"name":"_referal","type":"address","internalType":"address"}],"outputs":[{"name":"profit_","type":"uint256","internalType":"T_BalanceUINT256"}],"stateMutability":"nonpayable"},{"type":"function","name":"disinvestProof","inputs":[{"name":"_proofid","type":"uint256","internalType":"uint256"},{"name":"_goodQuantity","type":"uint128","internalType":"uint128"},{"name":"_gater","type":"address","internalType":"address"},{"name":"_referal","type":"address","internalType":"address"}],"outputs":[{"name":"","type":"bool","internalType":"bool"}],"stateMutability":"nonpayable"},{"type":"function","name":"eip712Domain","inputs":[],"outputs":[{"name":"fields","type":"bytes1","internalType":"bytes1"},{"name":"name","type":"string","internalType":"string"},{"name":"version","type":"string","internalType":"string"},{"name":"chainId","type":"uint256","internalType":"uint256"},{"name":"verifyingContract","type":"address","internalType":"address"},{"name":"salt","type":"bytes32","internalType":"bytes32"},{"name":"extensions","type":"uint256[]","internalType":"uint256[]"}],"stateMutability":"view"},{"type":"function","name":"enpower","inputs":[{"name":"goodid","type":"uint256","internalType":"uint256"},{"name":"valuegood","type":"uint256","internalType":"uint256"},{"name":"quantity","type":"uint128","internalType":"uint128"}],"outputs":[{"name":"","type":"bool","internalType":"bool"}],"stateMutability":"payable"},{"type":"function","name":"getApproved","inputs":[{"name":"tokenId","type":"uint256","internalType":"uint256"}],"outputs":[{"name":"","type":"address","internalType":"address"}],"stateMutability":"view"},{"type":"function","name":"getGoodState","inputs":[{"name":"goodkey","type":"uint256","internalType":"uint256"}],"outputs":[{"name":"gooddetail","type":"tuple","internalType":"struct L_Good.S_GoodTmpState","components":[{"name":"goodConfig","type":"uint256","internalType":"uint256"},{"name":"owner","type":"address","internalType":"address"},{"name":"erc20address","type":"address","internalType":"address"},{"name":"currentState","type":"uint256","internalType":"T_BalanceUINT256"},{"name":"investState","type":"uint256","internalType":"T_BalanceUINT256"},{"name":"feeQunitityState","type":"uint256","internalType":"T_BalanceUINT256"}]}],"stateMutability":"view"},{"type":"function","name":"getProofState","inputs":[{"name":"proofid","type":"uint256","internalType":"uint256"}],"outputs":[{"name":"_proof","type":"tuple","internalType":"struct L_Proof.S_ProofState","components":[{"name":"currentgood","type":"uint256","internalType":"uint256"},{"name":"valuegood","type":"uint256","internalType":"uint256"},{"name":"state","type":"uint256","internalType":"T_BalanceUINT256"},{"name":"invest","type":"uint256","internalType":"T_BalanceUINT256"},{"name":"valueinvest","type":"uint256","internalType":"T_BalanceUINT256"},{"name":"beneficiary","type":"address","internalType":"address"}]}],"stateMutability":"view"},{"type":"function","name":"getState","inputs":[{"name":"goodid","type":"uint256","internalType":"uint256"},{"name":"valuegood","type":"uint256","internalType":"uint256"}],"outputs":[{"name":"","type":"uint256","internalType":"T_BalanceUINT256"},{"name":"","type":"uint256","internalType":"T_BalanceUINT256"}],"stateMutability":"view"},{"type":"function","name":"goodNum","inputs":[],"outputs":[{"name":"","type":"uint256","internalType":"uint256"}],"stateMutability":"view"},{"type":"function","name":"goodWelfare","inputs":[{"name":"goodid","type":"uint256","internalType":"uint256"},{"name":"welfare","type":"uint128","internalType":"uint128"}],"outputs":[],"stateMutability":"payable"},{"type":"function","name":"initGood","inputs":[{"name":"_valuegood","type":"uint256","internalType":"uint256"},{"name":"_initial","type":"uint256","internalType":"T_BalanceUINT256"},{"name":"_erc20address","type":"address","internalType":"address"},{"name":"_goodConfig","type":"uint256","internalType":"uint256"}],"outputs":[{"name":"","type":"bool","internalType":"bool"}],"stateMutability":"payable"},{"type":"function","name":"initMetaGood","inputs":[{"name":"_erc20address","type":"address","internalType":"address"},{"name":"_initial","type":"uint256","internalType":"T_BalanceUINT256"},{"name":"_goodConfig","type":"uint256","internalType":"uint256"}],"outputs":[{"name":"","type":"bool","internalType":"bool"}],"stateMutability":"payable"},{"type":"function","name":"investGood","inputs":[{"name":"_togood","type":"uint256","internalType":"uint256"},{"name":"_valuegood","type":"uint256","internalType":"uint256"},{"name":"_quantity","type":"uint128","internalType":"uint128"}],"outputs":[{"name":"","type":"bool","internalType":"bool"}],"stateMutability":"payable"},{"type":"function","name":"isApprovedForAll","inputs":[{"name":"owner","type":"address","internalType":"address"},{"name":"operator","type":"address","internalType":"address"}],"outputs":[{"name":"","type":"bool","internalType":"bool"}],"stateMutability":"view"},{"type":"function","name":"marketconfig","inputs":[],"outputs":[{"name":"","type":"uint256","internalType":"uint256"}],"stateMutability":"view"},{"type":"function","name":"marketcreator","inputs":[],"outputs":[{"name":"","type":"address","internalType":"address"}],"stateMutability":"view"},{"type":"function","name":"modifyGoodConfig","inputs":[{"name":"_goodid","type":"uint256","internalType":"uint256"},{"name":"_goodConfig","type":"uint256","internalType":"uint256"}],"outputs":[{"name":"","type":"bool","internalType":"bool"}],"stateMutability":"nonpayable"},{"type":"function","name":"name","inputs":[],"outputs":[{"name":"","type":"string","internalType":"string"}],"stateMutability":"view"},{"type":"function","name":"nonces","inputs":[{"name":"tokenId","type":"uint256","internalType":"uint256"}],"outputs":[{"name":"","type":"uint256","internalType":"uint256"}],"stateMutability":"view"},{"type":"function","name":"ownerOf","inputs":[{"name":"tokenId","type":"uint256","internalType":"uint256"}],"outputs":[{"name":"","type":"address","internalType":"address"}],"stateMutability":"view"},{"type":"function","name":"payGood","inputs":[{"name":"_goodid","type":"uint256","internalType":"uint256"},{"name":"_payquanity","type":"uint256","internalType":"uint256"},{"name":"_recipent","type":"address","internalType":"address"}],"outputs":[{"name":"","type":"bool","internalType":"bool"}],"stateMutability":"payable"},{"type":"function","name":"permit","inputs":[{"name":"spender","type":"address","internalType":"address"},{"name":"tokenId","type":"uint256","internalType":"uint256"},{"name":"deadline","type":"uint256","internalType":"uint256"},{"name":"signature","type":"bytes","internalType":"bytes"}],"outputs":[],"stateMutability":"nonpayable"},{"type":"function","name":"proofmapping","inputs":[{"name":"","type":"uint256","internalType":"uint256"}],"outputs":[{"name":"","type":"uint256","internalType":"uint256"}],"stateMutability":"view"},{"type":"function","name":"queryCommission","inputs":[{"name":"_goodid","type":"uint256[]","internalType":"uint256[]"},{"name":"_recipent","type":"address","internalType":"address"}],"outputs":[{"name":"feeamount","type":"uint256[]","internalType":"uint256[]"}],"stateMutability":"view"},{"type":"function","name":"referals","inputs":[{"name":"","type":"address","internalType":"address"}],"outputs":[{"name":"","type":"address","internalType":"address"}],"stateMutability":"view"},{"type":"function","name":"removebanlist","inputs":[{"name":"_user","type":"address","internalType":"address"}],"outputs":[{"name":"","type":"bool","internalType":"bool"}],"stateMutability":"nonpayable"},{"type":"function","name":"safeTransferFrom","inputs":[{"name":"from","type":"address","internalType":"address"},{"name":"to","type":"address","internalType":"address"},{"name":"tokenId","type":"uint256","internalType":"uint256"}],"outputs":[],"stateMutability":"nonpayable"},{"type":"function","name":"safeTransferFrom","inputs":[{"name":"from","type":"address","internalType":"address"},{"name":"to","type":"address","internalType":"address"},{"name":"proofid","type":"uint256","internalType":"uint256"},{"name":"data","type":"bytes","internalType":"bytes"}],"outputs":[],"stateMutability":"nonpayable"},{"type":"function","name":"safeTransferFromWithPermit","inputs":[{"name":"from","type":"address","internalType":"address"},{"name":"to","type":"address","internalType":"address"},{"name":"tokenId","type":"uint256","internalType":"uint256"},{"name":"_data","type":"bytes","internalType":"bytes"},{"name":"deadline","type":"uint256","internalType":"uint256"},{"name":"signature","type":"bytes","internalType":"bytes"}],"outputs":[],"stateMutability":"nonpayable"},{"type":"function","name":"setApprovalForAll","inputs":[{"name":"operator","type":"address","internalType":"address"},{"name":"approved","type":"bool","internalType":"bool"}],"outputs":[],"stateMutability":"nonpayable"},{"type":"function","name":"setMarketConfig","inputs":[{"name":"_marketconfig","type":"uint256","internalType":"uint256"}],"outputs":[{"name":"","type":"bool","internalType":"bool"}],"stateMutability":"nonpayable"},{"type":"function","name":"supportsInterface","inputs":[{"name":"interfaceId","type":"bytes4","internalType":"bytes4"}],"outputs":[{"name":"","type":"bool","internalType":"bool"}],"stateMutability":"view"},{"type":"function","name":"symbol","inputs":[],"outputs":[{"name":"","type":"string","internalType":"string"}],"stateMutability":"view"},{"type":"function","name":"tokenURI","inputs":[{"name":"tokenId","type":"uint256","internalType":"uint256"}],"outputs":[{"name":"","type":"string","internalType":"string"}],"stateMutability":"view"},{"type":"function","name":"totalSupply","inputs":[],"outputs":[{"name":"","type":"uint256","internalType":"uint256"}],"stateMutability":"view"},{"type":"function","name":"transferFrom","inputs":[{"name":"from","type":"address","internalType":"address"},{"name":"to","type":"address","internalType":"address"},{"name":"proofid","type":"uint256","internalType":"uint256"}],"outputs":[],"stateMutability":"nonpayable"},{"type":"function","name":"updateGoodConfig","inputs":[{"name":"_goodid","type":"uint256","internalType":"uint256"},{"name":"_goodConfig","type":"uint256","internalType":"uint256"}],"outputs":[{"name":"","type":"bool","internalType":"bool"}],"stateMutability":"nonpayable"},{"type":"event","name":"Approval","inputs":[{"name":"owner","type":"address","indexed":true,"internalType":"address"},{"name":"approved","type":"address","indexed":true,"internalType":"address"},{"name":"tokenId","type":"uint256","indexed":true,"internalType":"uint256"}],"anonymous":false},{"type":"event","name":"ApprovalForAll","inputs":[{"name":"owner","type":"address","indexed":true,"internalType":"address"},{"name":"operator","type":"address","indexed":true,"internalType":"address"},{"name":"approved","type":"bool","indexed":false,"internalType":"bool"}],"anonymous":false},{"type":"event","name":"EIP712DomainChanged","inputs":[],"anonymous":false},{"type":"event","name":"Transfer","inputs":[{"name":"from","type":"address","indexed":true,"internalType":"address"},{"name":"to","type":"address","indexed":true,"internalType":"address"},{"name":"tokenId","type":"uint256","indexed":true,"internalType":"uint256"}],"anonymous":false},{"type":"event","name":"e_addbanlist","inputs":[{"name":"_user","type":"address","indexed":false,"internalType":"address"}],"anonymous":false},{"type":"event","name":"e_addreferal","inputs":[{"name":"referals","type":"address","indexed":false,"internalType":"address"}],"anonymous":false},{"type":"event","name":"e_buyGood","inputs":[{"name":"sellgood","type":"uint256","indexed":true,"internalType":"uint256"},{"name":"forgood","type":"uint256","indexed":true,"internalType":"uint256"},{"name":"fromer","type":"address","indexed":false,"internalType":"address"},{"name":"swapvalue","type":"uint128","indexed":false,"internalType":"uint128"},{"name":"sellgoodstate","type":"uint256","indexed":false,"internalType":"T_BalanceUINT256"},{"name":"forgoodstate","type":"uint256","indexed":false,"internalType":"T_BalanceUINT256"}],"anonymous":false},{"type":"event","name":"e_buyGoodForPay","inputs":[{"name":"buygood","type":"uint256","indexed":true,"internalType":"uint256"},{"name":"usegood","type":"uint256","indexed":true,"internalType":"uint256"},{"name":"fromer","type":"address","indexed":false,"internalType":"address"},{"name":"receipt","type":"address","indexed":false,"internalType":"address"},{"name":"swapvalue","type":"uint128","indexed":false,"internalType":"uint128"},{"name":"buygoodstate","type":"uint256","indexed":false,"internalType":"T_BalanceUINT256"},{"name":"usegoodstate","type":"uint256","indexed":false,"internalType":"T_BalanceUINT256"}],"anonymous":false},{"type":"event","name":"e_changeOwner","inputs":[{"name":"_goodid","type":"uint256","indexed":true,"internalType":"uint256"},{"name":"_owner","type":"address","indexed":false,"internalType":"address"},{"name":"_to","type":"address","indexed":false,"internalType":"address"}],"anonymous":false},{"type":"event","name":"e_collectProof","inputs":[{"name":"_proofNo","type":"uint256","indexed":true,"internalType":"uint256"},{"name":"_normalGoodNo","type":"uint256","indexed":false,"internalType":"uint256"},{"name":"_valueGoodNo","type":"uint256","indexed":false,"internalType":"uint256"},{"name":"_profit","type":"uint256","indexed":false,"internalType":"T_BalanceUINT256"}],"anonymous":false},{"type":"event","name":"e_collectProtocolFee","inputs":[{"name":"goodid","type":"uint256","indexed":false,"internalType":"uint256"},{"name":"feeamount","type":"uint256","indexed":false,"internalType":"uint256"}],"anonymous":false},{"type":"event","name":"e_disinvestProof","inputs":[{"name":"_proofNo","type":"uint256","indexed":true,"internalType":"uint256"},{"name":"_normalGoodNo","type":"uint256","indexed":false,"internalType":"uint256"},{"name":"_valueGoodNo","type":"uint256","indexed":false,"internalType":"uint256"},{"name":"_value","type":"uint128","indexed":false,"internalType":"uint128"},{"name":"_normalgood","type":"uint256","indexed":false,"internalType":"T_BalanceUINT256"},{"name":"_valuegood","type":"uint256","indexed":false,"internalType":"T_BalanceUINT256"},{"name":"_profit","type":"uint256","indexed":false,"internalType":"T_BalanceUINT256"}],"anonymous":false},{"type":"event","name":"e_enpower","inputs":[{"name":"_goodid","type":"uint256","indexed":false,"internalType":"uint256"},{"name":"_valuegood","type":"uint256","indexed":false,"internalType":"uint256"},{"name":"_quantity","type":"uint256","indexed":false,"internalType":"uint256"}],"anonymous":false},{"type":"event","name":"e_goodWelfare","inputs":[{"name":"goodid","type":"uint256","indexed":false,"internalType":"uint256"},{"name":"welfare","type":"uint128","indexed":false,"internalType":"uint128"}],"anonymous":false},{"type":"event","name":"e_initGood","inputs":[{"name":"_proofNo","type":"uint256","indexed":true,"internalType":"uint256"},{"name":"_normalgoodNo","type":"uint256","indexed":false,"internalType":"uint256"},{"name":"_valuegoodNo","type":"uint256","indexed":false,"internalType":"uint256"},{"name":"_erc20address","type":"address","indexed":false,"internalType":"address"},{"name":"_goodConfig","type":"uint256","indexed":false,"internalType":"uint256"},{"name":"_normalinitial","type":"uint256","indexed":false,"internalType":"T_BalanceUINT256"},{"name":"_value","type":"uint256","indexed":false,"internalType":"T_BalanceUINT256"}],"anonymous":false},{"type":"event","name":"e_initMetaGood","inputs":[{"name":"_proofNo","type":"uint256","indexed":true,"internalType":"uint256"},{"name":"_goodNo","type":"uint256","indexed":false,"internalType":"uint256"},{"name":"_erc20address","type":"address","indexed":false,"internalType":"address"},{"name":"_goodConfig","type":"uint256","indexed":false,"internalType":"uint256"},{"name":"_initial","type":"uint256","indexed":false,"internalType":"T_BalanceUINT256"}],"anonymous":false},{"type":"event","name":"e_investGood","inputs":[{"name":"_proofNo","type":"uint256","indexed":true,"internalType":"uint256"},{"name":"_normalGoodNo","type":"uint256","indexed":false,"internalType":"uint256"},{"name":"_valueGoodNo","type":"uint256","indexed":false,"internalType":"uint256"},{"name":"_value","type":"uint256","indexed":false,"internalType":"T_BalanceUINT256"},{"name":"_invest","type":"uint256","indexed":false,"internalType":"T_BalanceUINT256"},{"name":"_valueinvest","type":"uint256","indexed":false,"internalType":"T_BalanceUINT256"}],"anonymous":false},{"type":"event","name":"e_modifyGoodConfig","inputs":[{"name":"_goodid","type":"uint256","indexed":false,"internalType":"uint256"},{"name":"_goodconfig","type":"uint256","indexed":false,"internalType":"uint256"}],"anonymous":false},{"type":"event","name":"e_removebanlist","inputs":[{"name":"_user","type":"address","indexed":false,"internalType":"address"}],"anonymous":false},{"type":"event","name":"e_setMarketConfig","inputs":[{"name":"_marketconfig","type":"uint256","indexed":false,"internalType":"uint256"}],"anonymous":false},{"type":"event","name":"e_updateGoodConfig","inputs":[{"name":"_goodid","type":"uint256","indexed":false,"internalType":"uint256"},{"name":"_goodConfig","type":"uint256","indexed":false,"internalType":"uint256"}],"anonymous":false},{"type":"error","name":"ERC20TransferFailed","inputs":[]},{"type":"error","name":"InvalidShortString","inputs":[]},{"type":"error","name":"NativeTransferFailed","inputs":[]},{"type":"error","name":"StringTooLong","inputs":[{"name":"str","type":"string","internalType":"string"}]}],"bytecode":{"object":"0x6101806040527f49ecf333e5b8c95c40fdafc95c1ad136e8914a8fb55e9dc8bb01eaa83a2df9ad61016052348015610035575f80fd5b506040516162e83803806162e883398101604081905261005491610218565b604080518082018252600780825266151514c813919560ca1b60208084019190915283518085018552600381526254545360e81b81830152845180860190955260018552603160f81b91850191909152600280546001600160a01b0319166001600160a01b0388161790555f85905591928391829084906100d583826102e7565b5060086100e282826102e7565b506100f29150839050600d6101a0565b6101205261010181600e6101a0565b61014052815160208084019190912060e052815190820120610100524660a05261018d60e05161010051604080517f8b73c3c69bb8fe3d512ecc4cf759cc79239f7b179b0ffacaa9a75d522b39400f60208201529081019290925260608201524660808201523060a08201525f9060c00160405160208183030381529060405280519060200120905090565b60805250503060c052506103f992505050565b5f6020835110156101bb576101b4836101d2565b90506101cc565b816101c684826102e7565b5060ff90505b92915050565b5f80829050601f81511115610205578260405163305a27a960e01b81526004016101fc91906103a1565b60405180910390fd5b8051610210826103d6565b179392505050565b5f8060408385031215610229575f80fd5b82516001600160a01b038116811461023f575f80fd5b6020939093015192949293505050565b634e487b7160e01b5f52604160045260245ffd5b600181811c9082168061027757607f821691505b60208210810361029557634e487b7160e01b5f52602260045260245ffd5b50919050565b601f8211156102e257805f5260205f20601f840160051c810160208510156102c05750805b601f840160051c820191505b818110156102df575f81556001016102cc565b50505b505050565b81516001600160401b038111156103005761030061024f565b6103148161030e8454610263565b8461029b565b6020601f821160018114610346575f831561032f5750848201515b5f19600385901b1c1916600184901b1784556102df565b5f84815260208120601f198516915b828110156103755787850151825560209485019460019092019101610355565b508482101561039257868401515f19600387901b60f8161c191681555b50505050600190811b01905550565b602081525f82518060208401528060208501604085015e5f604082850101526040601f19601f83011684010191505092915050565b80516020808301519190811015610295575f1960209190910360031b1b16919050565b60805160a05160c05160e05161010051610120516101405161016051615e946104545f395f61359c01525f611d7601525f611d4b01525f61379a01525f61377201525f6136cd01525f6136f701525f6137210152615e945ff3fe6080604052600436106102ed575f3560e01c80635a5da4dd1161018657806395d89b41116100dc578063b153b92011610087578063e985e9c511610062578063e985e9c514610904578063f44733ad1461094b578063f88c30101461095e575f80fd5b8063b153b920146108a7578063b88d4fde146108c6578063c87b56dd146108e5575f80fd5b8063a22cb465116100b7578063a22cb465146107f9578063a6f6a98014610818578063a7e1169714610894575f80fd5b806395d89b411461079e57806397924ead146107b2578063a128fcf2146107c5575f80fd5b8063745a41bc1161013c5780638e126f73116101175780638e126f731461074d578063920acbb81461076c5780639551177a1461077f575f80fd5b8063745a41bc146106e85780637f0a82651461070757806384b0196e14610726575f80fd5b80636352211e1161016c5780636352211e1461067e5780636ff73c8e1461069d57806370a08231146106c9575f80fd5b80635a5da4dd1461063e5780635e008cc414610653575f80fd5b806323b872dd116102465780633d995173116101f157806342842e0e116101cc57806342842e0e146105ed57806345818e4c1461060c5780634ffef9071461062b575f80fd5b80633d995173146105475780633f11774014610566578063402f5ab5146105d9575f80fd5b80632a7c5a91116102215780632a7c5a91146104e05780632f9da5f0146104ff5780633644e51514610533575f80fd5b806323b872dd1461047757806324744d54146104965780632973ada7146104b5575f80fd5b8063141a468c116102a657806318160ddd1161028157806318160ddd1461041c57806318ad50d1146104315780631eccc39b14610444575f80fd5b8063141a468c146103bd578063144aeb83146103ea5780631676398614610409575f80fd5b8063081812fc116102d6578063081812fc14610346578063095ea7b31461037d5780630e21a1ac1461039e575f80fd5b806301ffc9a7146102f157806306fdde0314610325575b5f80fd5b3480156102fc575f80fd5b5061031061030b366004615510565b61097d565b60405190151581526020015b60405180910390f35b348015610330575f80fd5b506103396109a7565b60405161031c9190615559565b348015610351575f80fd5b5061036561036036600461556b565b610a37565b6040516001600160a01b03909116815260200161031c565b348015610388575f80fd5b5061039c610397366004615598565b610a5c565b005b3480156103a9575f80fd5b506103106103b83660046155c0565b610b75565b3480156103c8575f80fd5b506103dc6103d736600461556b565b610be7565b60405190815260200161031c565b3480156103f5575f80fd5b506103106104043660046155c0565b610bfa565b6103106104173660046155f6565b610c6b565b348015610427575f80fd5b506103dc60105481565b61039c61043f366004615628565b610db6565b610457610452366004615661565b610ebe565b604080516001600160801b0393841681529290911660208301520161031c565b348015610482575f80fd5b5061039c6104913660046156ad565b611146565b3480156104a1575f80fd5b5061039c6104b0366004615798565b61134d565b3480156104c0575f80fd5b506103dc6104cf36600461582e565b60056020525f908152604090205481565b3480156104eb575f80fd5b506103106104fa366004615847565b61136d565b34801561050a575f80fd5b5061051e6105193660046155c0565b6113b9565b6040805192835260208301919091520161031c565b34801561053e575f80fd5b506103dc6113db565b348015610552575f80fd5b50600254610365906001600160a01b031681565b348015610571575f80fd5b5061058561058036600461556b565b6113e9565b60405161031c91905f60c08201905082518252602083015160208301526040830151604083015260608301516060830152608083015160808301526001600160a01b0360a08401511660a083015292915050565b3480156105e4575f80fd5b506103dc5f5481565b3480156105f8575f80fd5b5061039c6106073660046156ad565b611486565b348015610617575f80fd5b5061031061062636600461556b565b6114a0565b610310610639366004615868565b6114f9565b348015610649575f80fd5b506103dc60015481565b34801561065e575f80fd5b506103dc61066d36600461556b565b60126020525f908152604090205481565b348015610689575f80fd5b5061036561069836600461556b565b61185b565b3480156106a8575f80fd5b506106bc6106b7366004615918565b6118bf565b60405161031c9190615994565b3480156106d4575f80fd5b506103dc6106e336600461582e565b61196f565b3480156106f3575f80fd5b5061039c6107023660046159a6565b611a07565b348015610712575f80fd5b50610310610721366004615a03565b611a19565b348015610731575f80fd5b5061073a611d3e565b60405161031c9796959493929190615a4d565b348015610758575f80fd5b506103dc610767366004615aba565b611dc5565b61031061077a366004615aea565b611feb565b34801561078a575f80fd5b5061031061079936600461582e565b612063565b3480156107a9575f80fd5b506103396120c5565b6103106107c0366004615b13565b6120d4565b3480156107d0575f80fd5b506103656107df36600461582e565b60066020525f90815260409020546001600160a01b031681565b348015610804575f80fd5b5061039c610813366004615b43565b612298565b348015610823575f80fd5b5061083761083236600461556b565b6122a7565b60405161031c91905f60c082019050825182526001600160a01b0360208401511660208301526001600160a01b036040840151166040830152606083015160608301526080830151608083015260a083015160a083015292915050565b6104576108a2366004615b6b565b612348565b3480156108b2575f80fd5b506103106108c136600461582e565b61257c565b3480156108d1575f80fd5b5061039c6108e0366004615bab565b6125e0565b3480156108f0575f80fd5b506103396108ff36600461556b565b6127e9565b34801561090f575f80fd5b5061031061091e366004615bf7565b6001600160a01b039182165f908152600c6020908152604080832093909416825291909152205460ff1690565b6103106109593660046155f6565b61284d565b348015610969575f80fd5b506106bc610978366004615c1f565b612b87565b5f6001600160e01b03198216635604e22560e01b14806109a157506109a182612cec565b92915050565b6060600780546109b690615c51565b80601f01602080910402602001604051908101604052809291908181526020018280546109e290615c51565b8015610a2d5780601f10610a0457610100808354040283529160200191610a2d565b820191905f5260205f20905b815481529060010190602001808311610a1057829003601f168201915b5050505050905090565b5f610a4182612d3b565b505f908152600b60205260409020546001600160a01b031690565b5f610a668261185b565b9050806001600160a01b0316836001600160a01b031603610ad85760405162461bcd60e51b815260206004820152602160248201527f4552433732313a20617070726f76616c20746f2063757272656e74206f776e656044820152603960f91b60648201526084015b60405180910390fd5b336001600160a01b0382161480610af45750610af4813361091e565b610b665760405162461bcd60e51b815260206004820152603d60248201527f4552433732313a20617070726f76652063616c6c6572206973206e6f7420746f60448201527f6b656e206f776e6572206f7220617070726f76656420666f7220616c6c0000006064820152608401610acf565b610b708383612da1565b505050565b6002545f906001600160a01b03163314610b8d575f80fd5b5f838152600360205260409020610ba49083612e0e565b60408051848152602081018490527f5af113730f9ee4153f120c893809feafa233584bbe5e93b5d78e0699c9c8ca5691015b60405180910390a150600192915050565b5f818152600f60205260408120546109a1565b5f828152600360205260408120600101546001600160a01b03163314610c1e575f80fd5b5f838152600360205260409020610c359083612e4d565b60408051848152602081018490527fc360eef79f1e7d7e7564e3cd446a9839f5a632a38a4d34b507c08e1ceef461479101610bd6565b5f6004545f14610c79575f80fd5b60016004555f83815260036020526040902054610c9590612e88565b8015610ca15750828414155b610ca9575f80fd5b5f83815260036020526040902060020154610cd7906001600160a01b0316336001600160801b038516612ea5565b5f83815260036020819052604082200154610cf29084612eb2565b5f8581526003602081905260409091200154909150610d1f906001600160801b038516612f27565b612f27565b5f8581526003602081905260408083208201939093558782529190200154610d4b90608083901b612f27565b5f868152600360208181526040928390209091019290925580518781529182018690526001600160801b03851682820152517fb1bebbfa4edbd2c07f8cf59b3a3acc0e0756fb12f834f128efce8d9d30335b309181900360600190a150505f60045550600192915050565b60045415610dc2575f80fd5b60016004555f828152600360205260409020600501546d200000000000000000000000000090610df690839060801c615c97565b6001600160801b03161115610e09575f80fd5b5f82815260036020526040902060020154610e37906001600160a01b0316336001600160801b038416612ea5565b5f82815260036020526040902060050154610e5690608083901b612f27565b5f838152600360205260409081902060050191909155517f54fe3e24ce316357354d8b9553364de253d61c742d913dfd419149ddf696947a90610eae90849084909182526001600160801b0316602082015260400190565b60405180910390a150505f600455565b5f806004545f14610ecd575f80fd5b600160045560408051610100810182526001600160801b03871681525f6020808301829052828401829052606083018290528a825260038082528483208082015460808601525460a08501528a83528082529382208085015460c0850152918a905292909252905460e0820152610f448186612f53565b90505f866001600160801b0316118015610f735750856001600160801b0316815f01516001600160801b031614155b8015610f7f5750868814155b8015610fa357506001841515148015610fa1575080516001600160801b031615155b155b610fab575f80fd5b6020808201515f8981526003909252604090912054610fde916001600160801b031661271060cc9290921c607f16020490565b9150818160200151610ff09190615cb6565b60808201516040808401515f8c81526003602052919091209295506110169291906132b3565b60c08101515f88815260036020526040902061103291846132b3565b805161106e9033906110449089615cb6565b5f8b8152600360205260409020600201546001600160a01b031691906001600160801b0316612ea5565b5f8781526003602052604090206002015461109c906001600160a01b0316336001600160801b0386166132da565b86887fa79c43e220b5faf022716b06e757294b799a25f33d3c8b0121e614f7b5d988c43384606001516110ef865f01518c6110d79190615cb6565b60408801516001600160801b031660809190911b1790565b6001600160801b03881660808a901b17604080516001600160a01b0390951685526001600160801b0390931660208501529183015260608201526080015b60405180910390a3505f60045590969095509350505050565b611150338261336c565b6111b25760405162461bcd60e51b815260206004820152602d60248201527f4552433732313a2063616c6c6572206973206e6f7420746f6b656e206f776e6560448201526c1c881bdc88185c1c1c9bdd9959609a1b6064820152608401610acf565b6111bd8383836133e8565b5f8181526011602081815260408084206005810180546001600160a01b031916905581516060810183526001600160a01b0389168152815481850152868652939092526001909101549082015261121390613407565b604080516060810182526001600160a01b03861681525f8581526011602081815284832080548286015288845291905260010154928201929092529192509061125b90613407565b5f818152601260205260408120549192500361128b575f82815260126020526040808220548383529120556112ff565b5f83815260116020818152604080842085855260128352818520548552929091529091206112b891613453565b5f838152601160205260408120818155600181018290556002810182905560038101829055600481019190915560050180546001600160a01b03191690556112ff836134a5565b5f828152601260205260408082208290555184916001600160a01b0380881692908916917fddf252ad1be2c89b69c2b068fc378daa952ba7f163c4a11628f55a4df523b3ef91a45050505050565b61135933858484613537565b611365868686866125e0565b505050505050565b6002545f906001600160a01b03163314611385575f80fd5b505f828152600360205260409020600190810180546001600160a01b0384166001600160a01b031990911617905592915050565b5f828152600360208190526040808320820154848452922001545b9250929050565b5f6113e46136c1565b905090565b6114256040518060c001604052805f81526020015f81526020015f81526020015f81526020015f81526020015f6001600160a01b031681525090565b505f90815260116020908152604091829020825160c0810184528154815260018201549281019290925260028101549282019290925260038201546060820152600482015460808201526005909101546001600160a01b031660a082015290565b610b7083838360405180602001604052805f8152506125e0565b6002545f906001600160a01b031633146114b8575f80fd5b5f8290556040518281527fbd209961024f2694b0afb3c8badd20b6477abb77b336b16892c3fa4b906d323c906020015b60405180910390a15060015b919050565b5f6004545f14611507575f80fd5b6001600455604080518082019091523381526001600160a01b03841660208201525f90611533906137ea565b5f818152600360205260409020600101549091506001600160a01b031615801561156f57505f8681526003602052604090205461156f90612e88565b611577575f80fd5b61159f336115858760801c90565b6001600160a01b03871691906001600160801b0316612ea5565b5f868152600360205260409020600201546115cd906001600160a01b0316336001600160801b038816612ea5565b5f8681526003602052604081206115e4908761381a565b90506001805f8282546115f79190615cd5565b9250508190555061168261162682604001516116138960801c90565b6001600160801b031660809190911b1790565b5f8481526003602052604090209087876003840183905560048401929092556001600160df1b0390911682556002820180546001600160a01b039092166001600160a01b03199283161790556001909101805490911633179055565b600160105f8282546116949190615cd5565b909155505060408051606081018252338152602081018490529081018890525f906116be90613407565b6010545f8281526012602052604090208190559091506116df90339061396e565b6040805160c081018252848152602081018a905283820151909182019060801b81526020016117125f6116138b60801c90565b81526020016117398460200151856060015160809190911b6001600160801b039091161790565b81525f60209182018190526010805482526011835260409182902084518155928401516001840155908301516002830155606083015160038301556080830151600483015560a090920151600590910180546001600160a01b03929092166001600160a01b0319909216919091179055547fd5b1190461e8b8cebdd658c8dd4f092c64be24d6dae8d80a4174dad7899a814e848a89896117f46117dc8e60801c90565b60408a01516001600160801b031660809190911b1790565b885160608a01516001600160801b031660809190911b176040805196875260208701959095526001600160a01b03909316938501939093526060840152608083019190915260a082015260c00160405180910390a250505f60045550600195945050505050565b5f818152600960205260408120546001600160a01b0316806109a15760405162461bcd60e51b815260206004820152601860248201527f4552433732313a20696e76616c696420746f6b656e20494400000000000000006044820152606401610acf565b606060648351106118ce575f80fd5b5f5b83518110156119685760035f8583815181106118ee576118ee615ce8565b602002602001015181526020019081526020015f206006015f846001600160a01b03166001600160a01b031681526020019081526020015f205f9054906101000a90046001600160801b03166001600160801b031682828151811061195557611955615ce8565b60209081029190910101526001016118d0565b5092915050565b5f6001600160a01b0382166119ec5760405162461bcd60e51b815260206004820152602960248201527f4552433732313a2061646472657373207a65726f206973206e6f74206120766160448201527f6c6964206f776e657200000000000000000000000000000000000000000000006064820152608401610acf565b506001600160a01b03165f908152600a602052604090205490565b611a1384848484613537565b50505050565b5f6004545f14611a27575f80fd5b6001600455611a36338661336c565b611a3e575f80fd5b60408051606080820183525f8083526020808401829052838501829052845192830185528183528281018290528285018290528982526011815284822080546001918201546001600160a01b038b1685526005909352958320549495939491929114611ab5576002546001600160a01b0316611ab7565b875b335f908152600660205260409020549098506001600160a01b0316611b0257335f90815260066020526040902080546001600160a01b0319166001600160a01b038916179055611b53565b335f908152600660209081526040918290205491516001600160a01b0390921680835298507f7da361ef032ddb975b4fa950921c1ecb79041d004acea71333e2dac6ec917c98910160405180910390a15b866001600160a01b0316886001600160a01b031614611b725786611b7f565b6002546001600160a01b03165b6001600160a01b0381165f90815260056020526040902054909750600114611bb2576002546001600160a01b0316611bb4565b865b9650611c5c60035f8481526020019081526020015f2060115f8d81526020019081526020015f206040518060a001604052808d6001600160801b031681526020018c6001600160a01b031681526020018b6001600160a01b031681526020015f54815260200160025f9054906101000a90046001600160a01b03166001600160a01b031681525060035f8881526020019081526020015f20613af6909392919063ffffffff16565b919650945090508115611c7757611c74816002615cfc565b90505b897f243abbbd47dee114cad9689e3093459f008e8ca4fa627f9d19c4957934b81eaf848484611cbe8a602001518b6040015160809190911b6001600160801b039091161790565b60208a015160408b01516001600160801b031660809190911b178b518b516001600160801b031660809190911b176040805196875260208701959095526001600160801b03909316938501939093526060840152608083019190915260a082015260c00160405180910390a250505f600455506001979650505050505050565b5f60608082808083611d717f0000000000000000000000000000000000000000000000000000000000000000600d613ffb565b611d9c7f0000000000000000000000000000000000000000000000000000000000000000600e613ffb565b604080515f80825260208201909252600f60f81b9b939a50919850469750309650945092509050565b5f6004545f14611dd3575f80fd5b6001600455611de2338561336c565b80611e0557505f848152601160205260409020600501546001600160a01b031633145b611e0d575f80fd5b5f84815260116020908152604080832060018082015491546001600160a01b03891686526005909452919093205414611e465784611e53565b6002546001600160a01b03165b335f908152600660205260409020549095506001600160a01b0316611e9e57335f90815260066020526040902080546001600160a01b0319166001600160a01b038616179055611eef565b335f908152600660209081526040918290205491516001600160a01b0390921680835295507f7da361ef032ddb975b4fa950921c1ecb79041d004acea71333e2dac6ec917c98910160405180910390a15b836001600160a01b0316856001600160a01b031614611f0e5783611f1b565b6002546001600160a01b03165b6001600160a01b0381165f90815260056020526040902054909450600114611f4e576002546001600160a01b0316611f50565b835b5f8381526003602081815260408084208b85526011835281852085546002548988529590945291909420949850611f9894939290918a918a91906001600160a01b03166140a4565b604080518381526020810185905290810182905290935086907f172f458c2c853ed38b0114381270db7647bc1f9b612a42852353261a7e3379be9060600160405180910390a250505f6004559392505050565b5f838152600360205260408120600201546001600160a01b0316612033575f8481526003602052604090206002015461202e906001600160a01b031683856132da565b612059565b5f84815260036020526040902060020154612059906001600160a01b0316338486614195565b5060019392505050565b6002545f906001600160a01b0316331461207b575f80fd5b6001600160a01b0382165f8181526005602090815260408083209290925590519182527e4ba2ca448db089eb9fb0b25431f0d57664d46141171fed2476281b578d96d491016114e8565b6060600880546109b690615c51565b5f6001545f1480156120ea57506120ea82612e88565b6120f2575f80fd5b6120fc3384611585565b6001805f82825461210d9190615cd5565b9091555050604080518082019091523381526001600160a01b03851660208201525f90612139906137ea565b5f818152600360208190526040909120908101869055600481018690556001600160df1b03851681556002810180546001600160a01b0389166001600160a01b031991821617909155600182018054909116331790559091506121a190640100000000612e0e565b600160105f8282546121b39190615cd5565b909155505060408051606081018252338152602081018390525f9181018290526121dc90613407565b6010545f8281526012602052604090208190559091506121fd90339061396e565b612239825f61221561220f8960801c90565b60801b90565b61221f5f8a611613565b6010545f908152601160205260408120949392919061423a565b601054604080518481526001600160a01b0389166020820152908101869052606081018790527f9f234216268c7b4b9373c01c9d1cc757d055e68b6440edbaaf229c63a0313bc79060800160405180910390a250600195945050505050565b6122a33383836142a8565b5050565b6122ec6040518060c001604052805f81526020015f6001600160a01b031681526020015f6001600160a01b031681526020015f81526020015f81526020015f81525090565b5f8281526003602081815260408084208054865260018101546001600160a01b0390811687850152600282015416918601919091528083015460608601526004810154608086015294909252905260059091015460a082015290565b5f806004545f14612357575f80fd5b600160045560408051610100810182526001600160801b03871681525f6020808301829052828401829052606083018290528a825260038082528483208082015460808601525460a08501528a83528082529382208085015460c0850152918a905292909252905460e08201526123ce8186614375565b90508688141580156123e8575080516001600160801b0316155b6123f0575f80fd5b6020808201515f8a81526003909252604090912054612423916001600160801b031661271060c59290921c607f16020490565b91508181602001516124359190615c97565b60c08201516040808401515f8b815260036020529190912092955061245b9291906132b3565b60808101515f89815260036020526040902061247791846132b3565b6124b58482604001518861248b9190615cb6565b5f8a8152600360205260409020600201546001600160a01b031691906001600160801b03166132da565b5f888152600360205260409020600201546124e3906001600160a01b0316336001600160801b038616612ea5565b86887f3de590341c976ea6fce618ef4a768a15441201ad3ed7c9b438d82c3951de7ced3387856060015161252b8c886040015160809190911b6001600160801b039091161790565b6001600160801b03891660808b901b17604080516001600160a01b0396871681529590941660208601526001600160801b03909216928401929092526060830191909152608082015260a00161112d565b6002545f906001600160a01b03163314612594575f80fd5b6001600160a01b0382165f818152600560209081526040918290206001905590519182527f8e1c2d1a5dce36a56a9dfcb96e5816e793c16d6c897b4e3c0b1f99588bb88a1c91016114e8565b6125ea338361336c565b61264c5760405162461bcd60e51b815260206004820152602d60248201527f4552433732313a2063616c6c6572206973206e6f7420746f6b656e206f776e6560448201526c1c881bdc88185c1c1c9bdd9959609a1b6064820152608401610acf565b612658848484846145f6565b5f8281526011602081815260408084206005810180546001600160a01b031916905581516060810183526001600160a01b038a16815281548185015287865293909252600190910154908201526126ae90613407565b604080516060810182526001600160a01b03871681525f868152601160208181528483208054828601528984529190526001015492820192909252919250906126f690613407565b5f8181526012602052604081205491925003612726575f828152601260205260408082205483835291205561279a565b5f848152601160208181526040808420858552601283528185205485529290915290912061275391613453565b5f848152601160205260408120818155600181018290556002810182905560038101829055600481019190915560050180546001600160a01b031916905561279a846134a5565b5f828152601260205260408082208290555185916001600160a01b0380891692908a16917fddf252ad1be2c89b69c2b068fc378daa952ba7f163c4a11628f55a4df523b3ef91a4505050505050565b60606127f482612d3b565b5f6127fd61467f565b90505f81511161281b5760405180602001604052805f815250612846565b806128258461469f565b604051602001612836929190615d35565b6040516020818303038152906040525b9392505050565b5f6004545f1461285b575f80fd5b6001600455604080516080810182525f808252602082018190529181018290526060810191909152604080516080810182525f8082526020820181905291810182905260608101919091525f86815260036020819052604090912001546d20000000000000000000000000009085906128d49190615c97565b6001600160801b0316111580156128eb5750848614155b801561292657505f8681526003602052604090205461290990612e88565b8061292657505f8581526003602052604090205461292690612e88565b61292e575f80fd5b5f868152600360205260409020612945908561381a565b5f87815260036020526040902060020154909250612976906001600160a01b0316336001600160801b038716612ea5565b8415612a21576040808301515f878152600360208190529290209091015461299d9161473c565b6001600160801b0316606082018190525f8681526003602052604090205460d91c603f16612710908103909104026001600160801b0316606082018190525f86815260036020526040902060020154612a03916001600160a01b03909116903390612ea5565b60608101515f868152600360205260409020612a1e9161381a565b90505b5f612a4e6040518060600160405280336001600160a01b0316815260200189815260200188815250613407565b5f81815260126020526040812054919250819003612aa057600160105f828254612a789190615cd5565b92505081905550612a8b3360105461396e565b506010545f8281526012602052604090208190555b6040840151612afb908990899060801b602088015160608901516001600160801b031660809190911b17602088015160608901516001600160801b031660809190911b175f878152601160205260409020949392919061423a565b604084810151855160608088015187518883015186518f8152602081018f9052608096871b8189015294861b6001600160801b039384161793850193909352841b91161791810191909152905182917f54327712026ec7eff19c69f41b88780daaa74a97ae2dcfa56a1de52fb0e07fcd919081900360a00190a250505f60045550600195945050505050565b60606064825110612b96575f80fd5b5f5b8251811015612ce65760035f848381518110612bb657612bb6615ce8565b60209081029190910181015182528181019290925260409081015f90812033825260060190925290205482516001600160801b0390911690839083908110612c0057612c00615ce8565b6020026020010181815250505f60035f858481518110612c2257612c22615ce8565b602002602001015181526020019081526020015f206006015f336001600160a01b03166001600160a01b031681526020019081526020015f205f6101000a8154816001600160801b0302191690836001600160801b03160217905550612cde33838381518110612c9457612c94615ce8565b602002602001015160035f878681518110612cb157612cb1615ce8565b60209081029190910181015182528101919091526040015f20600201546001600160a01b031691906132da565b600101612b98565b50919050565b5f6001600160e01b031982166380ac58cd60e01b1480612d1c57506001600160e01b03198216635b5e139f60e01b145b806109a157506301ffc9a760e01b6001600160e01b03198316146109a1565b5f818152600960205260409020546001600160a01b0316612d9e5760405162461bcd60e51b815260206004820152601860248201527f4552433732313a20696e76616c696420746f6b656e20494400000000000000006044820152606401610acf565b50565b5f818152600b6020526040902080546001600160a01b0319166001600160a01b0384169081179091558190612dd58261185b565b6001600160a01b03167f8c5be1e5ebec7d5bd14f71427d1e84f3dd0314c0f7b2291e5b200ac8c7c3b92560405160405180910390a45050565b815460df82901b90612e3d907b8000000000000000000000000000000000000000000000000000000090615d5d565b612e479190615cd5565b90915550565b81546001600160df1b0390911690612e479082907fffffffff8000000000000000000000000000000000000000000000000000000016615cd5565b5f60ff82901c60018114612e9c575f612846565b60019392505050565b30611a1384848385614195565b5f826001600160801b03165f03612eca57505f6109a1565b5f836001600160801b0316836001600160801b0316612ee98660801c90565b6001600160801b0316612efc9190615d70565b612f069190615d87565b90506001600160801b03811115612f1d575f612f1f565b805b949350505050565b5f612846612f358360801c90565b612f3f8560801c90565b612f499190615c97565b6116138486615c97565b60408051610100810182525f80825260208201819052918101829052606081018290526080810182905260a0810182905260c0810182905260e0810191909152612fa683608001518460c0015184614782565b612fb15750816109a1565b825160a08401515f918291612fda916001600160801b031661271060c59290921c607f16020490565b6001600160801b03166040860181905285518690612ff9908390615cb6565b6001600160801b03169052505b84516001600160801b03161580159061302d575061302d85608001518660c0015186614782565b1561321b5761304e6130438660c0015160801c90565b60e087015190614810565b6001600160801b0316613073613068876080015160801c90565b60a088015190614810565b6001600160801b031610156130a35761309e613093866080015160801c90565b60a087015190614810565b6130b4565b6130b46130438660c0015160801c90565b60808601519092506130c6908361473c565b9050806001600160801b0316855f01516001600160801b031611156131785780855f018181516130f69190615cb6565b6001600160801b031690525060c0850151613111908361473c565b856020018181516131229190615c97565b6001600160801b0390811690915260808781015161314d93509184169085901b1761483f565b61483f565b608086015260c085015161316e9061316984611613838261473c565b614861565b60c08601526131f8565b8451608086015161318891612eb2565b60c086015190925061319a908361473c565b856020018181516131ab9190615c97565b6001600160801b0390811690915260808781015188516131d394509092169085901b1761483f565b608086015260c08501516131ef9061316984611613838261473c565b60c08601525f85525b818560600181815161320a9190615c97565b6001600160801b0316905250613006565b84516001600160801b0316156132aa57845160a0860151613250916001600160801b031661271060c59290921c607f16020490565b856040018181516132619190615cb6565b6001600160801b03908116909152865160a088015161328e9350911661271060c59290921c607f16020490565b8551869061329d908390615c97565b6001600160801b03169052505b50929392505050565b6003830182905560058301546132cd90608083901b612f27565b8360050181905550505050565b5f6001600160a01b038416613316575f805f8085875af190508061331157604051633d2cec6f60e21b815260040160405180910390fd5b611a13565b60405163a9059cbb60e01b5f52836004528260245260205f60445f80895af13d15601f3d1160015f511416171691505f606052806040525080611a1357604051633c9fd93960e21b815260040160405180910390fd5b5f806133778361185b565b9050806001600160a01b0316846001600160a01b031614806133bd57506001600160a01b038082165f908152600c602090815260408083209388168352929052205460ff165b80612f1f5750836001600160a01b03166133d684610a37565b6001600160a01b031614949350505050565b5f818152600f6020526040902080546001019055610b7083838361488d565b6040805182516001600160a01b0316602080830191909152830151818301529082015160608201525f906080015b60408051601f19818403018152919052805160209091012092915050565b61346582600201548260020154612f27565b826002018190555061347f82600301548260030154612f27565b826003018190555061349982600401548260040154612f27565b82600401819055505050565b5f6134af8261185b565b90506134ba8261185b565b5f838152600b6020908152604080832080546001600160a01b03199081169091556001600160a01b038516808552600a845282852080545f190190558785526009909352818420805490911690555192935084927fddf252ad1be2c89b69c2b068fc378daa952ba7f163c4a11628f55a4df523b3ef908390a45050565b814211156135875760405162461bcd60e51b815260206004820152601e60248201527f4552433732315065726d69743a206578706972656420646561646c696e6500006044820152606401610acf565b5f838152600f602090815260408083205481517f0000000000000000000000000000000000000000000000000000000000000000818501526001600160a01b0389168184015260608101889052608081019190915260a08082018790528251808303909101815260c090910190915280519101209061360582614a6b565b90505f6136128285614a97565b5090505f6001600160a01b038216158015906136335750613633828861336c565b9050808061364f575061364f6136488861185b565b8487614ad6565b80613661575061366161364888610a37565b6136ad5760405162461bcd60e51b815260206004820152601f60248201527f4552433732315065726d69743a20696e76616c6964207369676e6174757265006044820152606401610acf565b6136b78888612da1565b5050505050505050565b5f306001600160a01b037f00000000000000000000000000000000000000000000000000000000000000001614801561371957507f000000000000000000000000000000000000000000000000000000000000000046145b1561374357507f000000000000000000000000000000000000000000000000000000000000000090565b6113e4604080517f8b73c3c69bb8fe3d512ecc4cf759cc79239f7b179b0ffacaa9a75d522b39400f60208201527f0000000000000000000000000000000000000000000000000000000000000000918101919091527f000000000000000000000000000000000000000000000000000000000000000060608201524660808201523060a08201525f9060c00160405160208183030381529060405280519060200120905090565b5f81604051602001613435919081516001600160a01b039081168252602092830151169181019190915260400190565b604080516080810182525f808252602082018190529181018290526060810191909152825461385e906001600160801b03841661271060d99290921c603f16020490565b6001600160801b03168082526138749083615cb6565b6001600160801b031660608201819052600384015461389291612eb2565b6001600160801b03166040820152606081015160058401546138c691906138c09060801c6004870154611613565b90612eb2565b6001600160801b0316602082018190526005840154825161390792610d1a916138ef9190615c97565b60208501516001600160801b031660809190911b1790565b6005840155600383015460408201516060830151613934929160801b6001600160801b0390911617612f27565b6003840155600483015460408201516060830151613961929160801b6001600160801b0390911617612f27565b6004909301929092555090565b6001600160a01b0382166139c45760405162461bcd60e51b815260206004820181905260248201527f4552433732313a206d696e7420746f20746865207a65726f20616464726573736044820152606401610acf565b5f818152600960205260409020546001600160a01b031615613a285760405162461bcd60e51b815260206004820152601c60248201527f4552433732313a20746f6b656e20616c7265616479206d696e746564000000006044820152606401610acf565b5f818152600960205260409020546001600160a01b031615613a8c5760405162461bcd60e51b815260206004820152601c60248201527f4552433732313a20746f6b656e20616c7265616479206d696e746564000000006044820152606401610acf565b6001600160a01b0382165f818152600a6020908152604080832080546001019055848352600990915280822080546001600160a01b0319168417905551839291907fddf252ad1be2c89b69c2b068fc378daa952ba7f163c4a11628f55a4df523b3ef908290a45050565b604080516060810182525f8082526020820181905291810191909152604080516060810182525f80825260208201819052918101919091525f613b51845f01516138c0613b47886002015460801c90565b6003890154611613565b90506040518060600160405280613b80865f01516138c0613b768c6005015460801c90565b60048d0154611613565b6001600160801b03168152602001613bb0865f01516138c0613ba68a6003015460801c90565b60038b0154611613565b6001600160801b0390811682528651166020909101528754909350613bd490612e88565b80613be557508554613be590612e88565b8015613c1a5750613c05613bfd886003015460801c90565b885490614bdc565b6001600160801b0316816001600160801b0316105b8015613c475750613c2f613bfd886003015490565b6001600160801b0316845f01516001600160801b0316105b613c7c5760405162461bcd60e51b8152600401610acf906020808252600490820152634730313160e01b604082015260600190565b60038701546040840151613c9f91906001600160801b0316608084901b17614c00565b600388015560048701546040840151613cc791906001600160801b0316608084901b17614c00565b6004880155600587015483516020850151613cf1929160801b6001600160801b0390911617614c00565b6005880155613d008582614c22565b60208301518351613d119190615cb6565b6001600160801b03908116845260408401518854613d3d9290911661271060d39290921c603f16020490565b6001600160801b03166020808501829052845160608701519187015160408089015160808a015191890151613d80968e96949391613d7b9190615cb6565b614d30565b60208301516001600160801b031615613db05760058701546020840151613daa919060801b612f27565b60058801555b600185015415613ff1576040518060600160405280613de4836138c0613dda8b6005015460801c90565b60048c0154611613565b6001600160801b03168152602001613e11836138c0613e078a6004015460801c90565b60048b0154611613565b6001600160801b03168152602001613e3a83613e34613e078a6002015460801c90565b9061473c565b6001600160801b03168152509150613e61613e59876003015460801c90565b875490614bdc565b6001600160801b0316816001600160801b0316108015613ea35750613e8a613e59876003015490565b6001600160801b031682604001516001600160801b0316105b613ed85760405162461bcd60e51b8152600401610acf906020808252600490820152632398189960e11b604082015260600190565b60038601546040830151613efb91906001600160801b0316608084901b17614c00565b600387015560048601546040830151613f2391906001600160801b0316608084901b17614c00565b6004870155600586015482516020840151613f4d929160801b6001600160801b0390911617614c00565b600587015560208201518251613f639190615cb6565b6001600160801b03908116835260408301518754613f8f9290911661271060d39290921c603f16020490565b6001600160801b03166020830181905215613fc15760058601546020830151613fbb919060801b612f27565b60058701555b613ff186835f0151866060015187602001518860400151896080015188602001518960400151613d7b9190615cb6565b9450945094915050565b606060ff83146140155761400e83615160565b90506109a1565b81805461402190615c51565b80601f016020809104026020016040519081016040528092919081815260200182805461404d90615c51565b80156140985780601f1061406f57610100808354040283529160200191614098565b820191905f5260205f20905b81548152906001019060200180831161407b57829003601f168201915b505050505090506109a1565b5f806140b4876003015460801c90565b6140dd6140c2896003015490565b6138c06140d38d6005015460801c90565b60048e0154611613565b6140e79190615cb6565b60058a0154909150614102906001600160801b038316612f27565b60058a01556141168982868989885f614d30565b5f614125886004015460801c90565b6141336140c28a6004015490565b61413d9190615cb6565b60058a0154909150614158906001600160801b038316612f27565b60058a015561416c8982878a8a895f614d30565b6001600160801b038116608083901b179250614188888461519d565b5050979650505050505050565b5f6001600160a01b0385166141c9578134146141c457604051633d2cec6f60e21b815260040160405180910390fd5b614233565b6040516323b872dd60e01b81526001600160a01b03851660048201526001600160a01b038416602482015282604482015260205f6064835f8a5af13d15601f3d1160015f51141617169150508061423357604051633c9fd93960e21b815260040160405180910390fd5b5050505050565b60038601546001600160801b03165f03614252578486555b831561426057600186018490555b61426e866002015484612f27565b600287015560038601546142829083612f27565b600387015583156113655761429b866004015482612f27565b6004870155505050505050565b816001600160a01b0316836001600160a01b0316036143095760405162461bcd60e51b815260206004820152601960248201527f4552433732313a20617070726f766520746f2063616c6c6572000000000000006044820152606401610acf565b6001600160a01b038381165f818152600c6020908152604080832094871680845294825291829020805460ff191686151590811790915591519182527f17307eab39ab6107e8899845ad3d59bd9653f200f220920489ca2b5937696c31910160405180910390a3505050565b60408051610100810182525f80825260208201819052918101829052606081018290526080810182905260a0810182905260c0810182905260e08101919091526143c883608001518460c0015184614782565b156143d45750816109a1565b825160e08401515f9182916143fd916001600160801b031661271060cc9290921c607f16020490565b6001600160801b031660408601525b84516001600160801b031615801590614433575061443385608001518660c0015186614782565b156132aa576144496130438660c0015160801c90565b6001600160801b0316614463613068876080015160801c90565b6001600160801b0316101561448857614483613093866080015160801c90565b614499565b6144996130438660c0015160801c90565b60c08601519092506144ab908361473c565b9050806001600160801b0316855f01516001600160801b031611156145535780855f018181516144db9190615cb6565b6001600160801b031690525060808501516144f6908361473c565b856020018181516145079190615c97565b6001600160801b0390811690915260c087015161452d9250908316608085901b17614861565b60c086015260808501516145499061314884611613838261473c565b60808601526145d3565b845160c086015161456391612eb2565b6080860151909250614575908361473c565b856020018181516145869190615c97565b6001600160801b0390811690915260c087015187516145ae9350909116608085901b17614861565b60c086015260808501516145ca9061314884611613838261473c565b60808601525f85525b81856060018181516145e59190615c97565b6001600160801b031690525061440c565b6146018484846133e8565b61460d848484846151d3565b611a135760405162461bcd60e51b815260206004820152603260248201527f4552433732313a207472616e7366657220746f206e6f6e20455243373231526560448201527f63656976657220696d706c656d656e74657200000000000000000000000000006064820152608401610acf565b6060604051806060016040528060238152602001615e3c60239139905090565b60605f6146ab83615326565b60010190505f8167ffffffffffffffff8111156146ca576146ca6156e7565b6040519080825280601f01601f1916602001820160405280156146f4576020820181803683370190505b5090508181016020015b5f19017f3031323334353637383961626364656600000000000000000000000000000000600a86061a8153600a85049450846146fe57509392505050565b5f6147478360801c90565b6001600160801b03165f0361475d57505f6109a1565b5f6147688460801c90565b6001600160801b0316836001600160801b0316612ee98690565b5f61478d8260801c90565b6001600160801b03166147a08460801c90565b6001600160801b0316856001600160801b03166147bd9190615d70565b6147c79190615d70565b826001600160801b0316846001600160801b03166147e58760801c90565b6001600160801b03166147f89190615d70565b6148029190615d70565b11612059575f949350505050565b5f6103ff60bb84901c1680820361482a57829150506109a1565b614835816040615cfc565b612f1f9084615d9a565b5f61284661484d8360801c90565b6148578560801c90565b612f499190615cb6565b5f61284661486f8360801c90565b6148798560801c90565b6148839190615c97565b6116138486615cb6565b826001600160a01b03166148a08261185b565b6001600160a01b0316146149045760405162461bcd60e51b815260206004820152602560248201527f4552433732313a207472616e736665722066726f6d20696e636f72726563742060448201526437bbb732b960d91b6064820152608401610acf565b6001600160a01b0382166149665760405162461bcd60e51b8152602060048201526024808201527f4552433732313a207472616e7366657220746f20746865207a65726f206164646044820152637265737360e01b6064820152608401610acf565b826001600160a01b03166149798261185b565b6001600160a01b0316146149dd5760405162461bcd60e51b815260206004820152602560248201527f4552433732313a207472616e736665722066726f6d20696e636f72726563742060448201526437bbb732b960d91b6064820152608401610acf565b5f818152600b6020908152604080832080546001600160a01b03199081169091556001600160a01b03878116808652600a855283862080545f1901905590871680865283862080546001019055868652600990945282852080549092168417909155905184937fddf252ad1be2c89b69c2b068fc378daa952ba7f163c4a11628f55a4df523b3ef91a4505050565b5f6109a1614a776136c1565b8360405161190160f01b8152600281019290925260228201526042902090565b5f808251604103614acb576020830151604084015160608501515f1a614abf87828585615407565b945094505050506113d4565b505f905060026113d4565b5f805f856001600160a01b0316631626ba7e60e01b8686604051602401614afe929190615dc7565b60408051601f198184030181529181526020820180517bffffffffffffffffffffffffffffffffffffffffffffffffffffffff166001600160e01b0319909416939093179092529051614b519190615ddf565b5f60405180830381855afa9150503d805f8114614b89576040519150601f19603f3d011682016040523d82523d5f602084013e614b8e565b606091505b5091509150818015614ba1575080516020145b8015614bd257508051630b135d3f60e11b90614bc69083016020908101908401615dea565b6001600160e01b031916145b9695505050505050565b5f6103ff60b184901c16808203614bf657829150506109a1565b612f1f8184615d9a565b5f612846614c0e8360801c90565b614c188560801c90565b6148839190615cb6565b5f614c96614c67614c37856003015460801c90565b6001600160801b0316846001600160801b0316614c58876002015460801c90565b6001600160801b031691020490565b611613614c75866003015490565b6001600160801b0316856001600160801b0316614c58886002015460801c90565b9050614ca6836003015482614c00565b6003840155600183015415614d10575f614cf9614cca614c75866004015460801c90565b611613614cd8876004015490565b6001600160801b0316866001600160801b0316614c58896002015460801c90565b9050614d09846004015482614c00565b6004850155505b6002830154614d2390608084901b614c00565b8360020181905550505050565b60646001600160801b03871660dd87901c601f160204614d508188615cb6565b96505f806001600160a01b038616614eb157606460fa89901c6001600160801b038b1602049150614da333614d858685615c97565b60028d01546001600160a01b031691906001600160801b03166132da565b6064603f60e28a901c166001600160801b038b1602046064603f60f48b901c166001600160801b038c160204614dd99190615c97565b6001600160a01b0388165f90815260068c016020526040812080549293508392909190614e109084906001600160801b0316615c97565b92506101000a8154816001600160801b0302191690836001600160801b031602179055508281838b614e429190615cb6565b614e4c9190615cb6565b614e569190615c97565b6001600160a01b0386165f90815260068c01602052604081208054909190614e889084906001600160801b0316615c97565b92506101000a8154816001600160801b0302191690836001600160801b03160217905550615154565b60018a01546001600160a01b03808716911603614eee57614ee760646001600160801b038b1660f48b901c603f16020484615c97565b9250614f5f565b6064603f60f48a901c166001600160801b038b16020460018b01546001600160a01b03165f90815260068c01602052604081208054909190614f3a9084906001600160801b0316615c97565b92506101000a8154816001600160801b0302191690836001600160801b031602179055505b846001600160a01b0316876001600160a01b031603614f9e57614f9760646001600160801b038b1660ee8b901c603f16020484615c97565b925061500b565b6064603f60ee8a901c166001600160801b038b1602046001600160a01b0388165f90815260068c01602052604081208054909190614fe69084906001600160801b0316615c97565b92506101000a8154816001600160801b0302191690836001600160801b031602179055505b846001600160a01b0316866001600160a01b03160361504a5761504360646001600160801b038b1660e88b901c603f16020484615c97565b92506150b7565b6064603f60e88a901c166001600160801b038b1602046001600160a01b0387165f90815260068c016020526040812080549091906150929084906001600160801b0316615c97565b92506101000a8154816001600160801b0302191690836001600160801b031602179055505b6001600160a01b0385165f90815260068b016020526040812080548592906150e99084906001600160801b0316615c97565b92506101000a8154816001600160801b0302191690836001600160801b03160217905550615154338561512e8c6001600160801b03168c6154c490919063ffffffff16565b61514a9060646001600160801b038f1660fa8f901c0204615c97565b614d859190615c97565b50505050505050505050565b60605f61516c836154d4565b6040805160208082528183019092529192505f91906020820181803683375050509182525060208101929092525090565b6151b28260030154610d1a61220f8460801c90565b60038301556001820154156122a3576134998260040154610d1a61220f8490565b5f6001600160a01b0384163b1561531b57604051630a85bd0160e11b81526001600160a01b0385169063150b7a0290615216903390899088908890600401615e05565b6020604051808303815f875af1925050508015615250575060408051601f3d908101601f1916820190925261524d91810190615dea565b60015b615301573d80801561527d576040519150601f19603f3d011682016040523d82523d5f602084013e615282565b606091505b5080515f036152f95760405162461bcd60e51b815260206004820152603260248201527f4552433732313a207472616e7366657220746f206e6f6e20455243373231526560448201527f63656976657220696d706c656d656e74657200000000000000000000000000006064820152608401610acf565b805181602001fd5b6001600160e01b031916630a85bd0160e11b149050612f1f565b506001949350505050565b5f807a184f03e93ff9f4daa797ed6e38ed64bf6a1f010000000000000000831061536e577a184f03e93ff9f4daa797ed6e38ed64bf6a1f010000000000000000830492506040015b6d04ee2d6d415b85acef8100000000831061539a576d04ee2d6d415b85acef8100000000830492506020015b662386f26fc1000083106153b857662386f26fc10000830492506010015b6305f5e10083106153d0576305f5e100830492506008015b61271083106153e457612710830492506004015b606483106153f6576064830492506002015b600a83106109a15760010192915050565b5f807f7fffffffffffffffffffffffffffffff5d576e7357a4501ddfe92f46681b20a083111561543c57505f905060036154bb565b604080515f8082526020820180845289905260ff881692820192909252606081018690526080810185905260019060a0016020604051602081039080840390855afa15801561548d573d5f803e3d5ffd5b5050604051601f1901519150506001600160a01b0381166154b5575f600192509250506154bb565b91505f90505b94509492505050565b606460e29290921c603f16020490565b5f60ff8216601f8111156109a157604051632cd44ac360e21b815260040160405180910390fd5b6001600160e01b031981168114612d9e575f80fd5b5f60208284031215615520575f80fd5b8135612f1d816154fb565b5f81518084528060208401602086015e5f602082860101526020601f19601f83011685010191505092915050565b602081525f612846602083018461552b565b5f6020828403121561557b575f80fd5b5035919050565b80356001600160a01b03811681146114f4575f80fd5b5f80604083850312156155a9575f80fd5b6155b283615582565b946020939093013593505050565b5f80604083850312156155d1575f80fd5b50508035926020909101359150565b80356001600160801b03811681146114f4575f80fd5b5f805f60608486031215615608575f80fd5b833592506020840135915061561f604085016155e0565b90509250925092565b5f8060408385031215615639575f80fd5b82359150615649602084016155e0565b90509250929050565b803580151581146114f4575f80fd5b5f805f805f60a08688031215615675575f80fd5b853594506020860135935061568c604087016155e0565b9250606086013591506156a160808701615652565b90509295509295909350565b5f805f606084860312156156bf575f80fd5b6156c884615582565b92506156d660208501615582565b929592945050506040919091013590565b634e487b7160e01b5f52604160045260245ffd5b604051601f8201601f1916810167ffffffffffffffff81118282101715615724576157246156e7565b604052919050565b5f82601f83011261573b575f80fd5b813567ffffffffffffffff811115615755576157556156e7565b615768601f8201601f19166020016156fb565b81815284602083860101111561577c575f80fd5b816020850160208301375f918101602001919091529392505050565b5f805f805f8060c087890312156157ad575f80fd5b6157b687615582565b95506157c460208801615582565b945060408701359350606087013567ffffffffffffffff8111156157e6575f80fd5b6157f289828a0161572c565b9350506080870135915060a087013567ffffffffffffffff811115615815575f80fd5b61582189828a0161572c565b9150509295509295509295565b5f6020828403121561583e575f80fd5b61284682615582565b5f8060408385031215615858575f80fd5b8235915061564960208401615582565b5f805f806080858703121561587b575f80fd5b843593506020850135925061589260408601615582565b9396929550929360600135925050565b5f82601f8301126158b1575f80fd5b813567ffffffffffffffff8111156158cb576158cb6156e7565b8060051b6158db602082016156fb565b918252602081850181019290810190868411156158f6575f80fd5b6020860192505b83831015614bd25782358252602092830192909101906158fd565b5f8060408385031215615929575f80fd5b823567ffffffffffffffff81111561593f575f80fd5b61594b858286016158a2565b92505061564960208401615582565b5f8151808452602084019350602083015f5b8281101561598a57815186526020958601959091019060010161596c565b5093949350505050565b602081525f612846602083018461595a565b5f805f80608085870312156159b9575f80fd5b6159c285615582565b93506020850135925060408501359150606085013567ffffffffffffffff8111156159eb575f80fd5b6159f78782880161572c565b91505092959194509250565b5f805f8060808587031215615a16575f80fd5b84359350615a26602086016155e0565b9250615a3460408601615582565b9150615a4260608601615582565b905092959194509250565b60ff60f81b8816815260e060208201525f615a6b60e083018961552b565b8281036040840152615a7d818961552b565b90508660608401526001600160a01b03861660808401528460a084015282810360c0840152615aac818561595a565b9a9950505050505050505050565b5f805f60608486031215615acc575f80fd5b83359250615adc60208501615582565b915061561f60408501615582565b5f805f60608486031215615afc575f80fd5b833592506020840135915061561f60408501615582565b5f805f60608486031215615b25575f80fd5b615b2e84615582565b95602085013595506040909401359392505050565b5f8060408385031215615b54575f80fd5b615b5d83615582565b915061564960208401615652565b5f805f805f60a08688031215615b7f575f80fd5b8535945060208601359350615b96604087016155e0565b9250606086013591506156a160808701615582565b5f805f8060808587031215615bbe575f80fd5b615bc785615582565b9350615bd560208601615582565b925060408501359150606085013567ffffffffffffffff8111156159eb575f80fd5b5f8060408385031215615c08575f80fd5b615c1183615582565b915061564960208401615582565b5f60208284031215615c2f575f80fd5b813567ffffffffffffffff811115615c45575f80fd5b612f1f848285016158a2565b600181811c90821680615c6557607f821691505b602082108103612ce657634e487b7160e01b5f52602260045260245ffd5b634e487b7160e01b5f52601160045260245ffd5b6001600160801b0381811683821601908111156109a1576109a1615c83565b6001600160801b0382811682821603908111156109a1576109a1615c83565b808201808211156109a1576109a1615c83565b634e487b7160e01b5f52603260045260245ffd5b6001600160801b03818116838216029081169081811461196857611968615c83565b5f81518060208401855e5f93019283525090919050565b5f612f1f615d438386615d1e565b84615d1e565b634e487b7160e01b5f52601260045260245ffd5b5f82615d6b57615d6b615d49565b500690565b80820281158282048414176109a1576109a1615c83565b5f82615d9557615d95615d49565b500490565b5f6001600160801b03831680615db257615db2615d49565b806001600160801b0384160491505092915050565b828152604060208201525f612f1f604083018461552b565b5f6128468284615d1e565b5f60208284031215615dfa575f80fd5b8151612f1d816154fb565b6001600160a01b03851681526001600160a01b0384166020820152826040820152608060608201525f614bd2608083018461552b56fe687474703a2f2f7777772e74742d737761702e636f6d2f6e66743f70726f6f6669643da2646970667358221220435a0bafa81cfdf43102f2eae369d2e9f27f4faf45a872b46f9a0774d325a50a64736f6c634300081a0033","linkReferences":{}},"methodIdentifiers":{"DOMAIN_SEPARATOR()":"3644e515","addbanlist(address)":"b153b920","approve(address,uint256)":"095ea7b3","balanceOf(address)":"70a08231","banlist(address)":"2973ada7","buyGood(uint256,uint256,uint128,uint256,bool)":"1eccc39b","buyGoodForPay(uint256,uint256,uint128,uint256,address)":"a7e11697","changeGoodOwner(uint256,address)":"2a7c5a91","collectCommission(uint256[])":"f88c3010","collectProof(uint256,address,address)":"8e126f73","disinvestProof(uint256,uint128,address,address)":"7f0a8265","eip712Domain()":"84b0196e","enpower(uint256,uint256,uint128)":"16763986","getApproved(uint256)":"081812fc","getGoodState(uint256)":"a6f6a980","getProofState(uint256)":"3f117740","getState(uint256,uint256)":"2f9da5f0","goodNum()":"5a5da4dd","goodWelfare(uint256,uint128)":"18ad50d1","initGood(uint256,uint256,address,uint256)":"4ffef907","initMetaGood(address,uint256,uint256)":"97924ead","investGood(uint256,uint256,uint128)":"f44733ad","isApprovedForAll(address,address)":"e985e9c5","marketconfig()":"402f5ab5","marketcreator()":"3d995173","modifyGoodConfig(uint256,uint256)":"0e21a1ac","name()":"06fdde03","nonces(uint256)":"141a468c","ownerOf(uint256)":"6352211e","payGood(uint256,uint256,address)":"920acbb8","permit(address,uint256,uint256,bytes)":"745a41bc","proofmapping(uint256)":"5e008cc4","queryCommission(uint256[],address)":"6ff73c8e","referals(address)":"a128fcf2","removebanlist(address)":"9551177a","safeTransferFrom(address,address,uint256)":"42842e0e","safeTransferFrom(address,address,uint256,bytes)":"b88d4fde","safeTransferFromWithPermit(address,address,uint256,bytes,uint256,bytes)":"24744d54","setApprovalForAll(address,bool)":"a22cb465","setMarketConfig(uint256)":"45818e4c","supportsInterface(bytes4)":"01ffc9a7","symbol()":"95d89b41","tokenURI(uint256)":"c87b56dd","totalSupply()":"18160ddd","transferFrom(address,address,uint256)":"23b872dd","updateGoodConfig(uint256,uint256)":"144aeb83"},"id":1}