{"abi":[{"type":"constructor","inputs":[{"name":"_marketcreator","type":"address","internalType":"address"},{"name":"_marketconfig","type":"uint256","internalType":"uint256"}],"stateMutability":"nonpayable"},{"type":"function","name":"addbanlist","inputs":[{"name":"_user","type":"address","internalType":"address"}],"outputs":[{"name":"","type":"bool","internalType":"bool"}],"stateMutability":"nonpayable"},{"type":"function","name":"addreferer","inputs":[{"name":"_referer","type":"address","internalType":"address"}],"outputs":[{"name":"is_success_","type":"bool","internalType":"bool"}],"stateMutability":"nonpayable"},{"type":"function","name":"approve","inputs":[{"name":"to","type":"address","internalType":"address"},{"name":"proofId","type":"uint256","internalType":"uint256"}],"outputs":[],"stateMutability":"nonpayable"},{"type":"function","name":"balanceOf","inputs":[{"name":"owner","type":"address","internalType":"address"}],"outputs":[{"name":"","type":"uint256","internalType":"uint256"}],"stateMutability":"view"},{"type":"function","name":"buyGood","inputs":[{"name":"_goodid1","type":"uint256","internalType":"uint256"},{"name":"_goodid2","type":"uint256","internalType":"uint256"},{"name":"_swapQuanitity","type":"uint128","internalType":"uint128"},{"name":"_limitPrice","type":"uint256","internalType":"uint256"},{"name":"_istotal","type":"bool","internalType":"bool"},{"name":"_gater","type":"address","internalType":"address"}],"outputs":[{"name":"goodid2Quanitity_","type":"uint128","internalType":"uint128"},{"name":"goodid2FeeQuanitity_","type":"uint128","internalType":"uint128"}],"stateMutability":"nonpayable"},{"type":"function","name":"buyGoodForPay","inputs":[{"name":"_goodid1","type":"uint256","internalType":"uint256"},{"name":"_goodid2","type":"uint256","internalType":"uint256"},{"name":"_swapQuanitity","type":"uint128","internalType":"uint128"},{"name":"_limitPrice","type":"uint256","internalType":"uint256"},{"name":"_recipent","type":"address","internalType":"address"},{"name":"_gater","type":"address","internalType":"address"}],"outputs":[{"name":"goodid1Quanitity_","type":"uint128","internalType":"uint128"},{"name":"goodid1FeeQuanitity_","type":"uint128","internalType":"uint128"}],"stateMutability":"nonpayable"},{"type":"function","name":"changeGoodOwner","inputs":[{"name":"_goodid","type":"uint256","internalType":"uint256"},{"name":"_to","type":"address","internalType":"address"}],"outputs":[{"name":"","type":"bool","internalType":"bool"}],"stateMutability":"nonpayable"},{"type":"function","name":"changeProofOwner","inputs":[{"name":"_proofid","type":"uint256","internalType":"uint256"},{"name":"_to","type":"address","internalType":"address"}],"outputs":[{"name":"","type":"bool","internalType":"bool"}],"stateMutability":"nonpayable"},{"type":"function","name":"check_banlist","inputs":[{"name":"_user","type":"address","internalType":"address"}],"outputs":[{"name":"_isban","type":"bool","internalType":"bool"}],"stateMutability":"view"},{"type":"function","name":"collectNormalProofFee","inputs":[{"name":"_normalProofid","type":"uint256","internalType":"uint256"}],"outputs":[{"name":"profit_","type":"uint256","internalType":"T_BalanceUINT256"}],"stateMutability":"nonpayable"},{"type":"function","name":"collectProtocolFee","inputs":[{"name":"_goodid","type":"uint256","internalType":"uint256"}],"outputs":[{"name":"","type":"uint256","internalType":"uint256"}],"stateMutability":"nonpayable"},{"type":"function","name":"collectValueProofFee","inputs":[{"name":"_valueProofid","type":"uint256","internalType":"uint256"}],"outputs":[{"name":"profit_","type":"uint128","internalType":"uint128"}],"stateMutability":"nonpayable"},{"type":"function","name":"customerno","inputs":[{"name":"","type":"address","internalType":"address"}],"outputs":[{"name":"","type":"uint256","internalType":"uint256"}],"stateMutability":"view"},{"type":"function","name":"customernum","inputs":[],"outputs":[{"name":"","type":"uint256","internalType":"uint256"}],"stateMutability":"view"},{"type":"function","name":"disinvestNormalGood","inputs":[{"name":"_togood","type":"uint256","internalType":"uint256"},{"name":"_valuegood","type":"uint256","internalType":"uint256"},{"name":"_goodQuanitity","type":"uint128","internalType":"uint128"},{"name":"_gater","type":"address","internalType":"address"}],"outputs":[{"name":"disinvestNormalResult1_","type":"tuple","internalType":"struct L_Good.S_GoodDisinvestReturn","components":[{"name":"profit","type":"uint128","internalType":"uint128"},{"name":"actual_fee","type":"uint128","internalType":"uint128"},{"name":"actualDisinvestValue","type":"uint128","internalType":"uint128"},{"name":"actualDisinvestQuantity","type":"uint128","internalType":"uint128"}]},{"name":"disinvestValueResult2_","type":"tuple","internalType":"struct L_Good.S_GoodDisinvestReturn","components":[{"name":"profit","type":"uint128","internalType":"uint128"},{"name":"actual_fee","type":"uint128","internalType":"uint128"},{"name":"actualDisinvestValue","type":"uint128","internalType":"uint128"},{"name":"actualDisinvestQuantity","type":"uint128","internalType":"uint128"}]},{"name":"normalproofno_","type":"uint256","internalType":"uint256"}],"stateMutability":"nonpayable"},{"type":"function","name":"disinvestNormalProof","inputs":[{"name":"_normalProof","type":"uint256","internalType":"uint256"},{"name":"_goodQuanitity","type":"uint128","internalType":"uint128"},{"name":"_gater","type":"address","internalType":"address"}],"outputs":[{"name":"disinvestNormalResult1_","type":"tuple","internalType":"struct L_Good.S_GoodDisinvestReturn","components":[{"name":"profit","type":"uint128","internalType":"uint128"},{"name":"actual_fee","type":"uint128","internalType":"uint128"},{"name":"actualDisinvestValue","type":"uint128","internalType":"uint128"},{"name":"actualDisinvestQuantity","type":"uint128","internalType":"uint128"}]},{"name":"disinvestValueResult2_","type":"tuple","internalType":"struct L_Good.S_GoodDisinvestReturn","components":[{"name":"profit","type":"uint128","internalType":"uint128"},{"name":"actual_fee","type":"uint128","internalType":"uint128"},{"name":"actualDisinvestValue","type":"uint128","internalType":"uint128"},{"name":"actualDisinvestQuantity","type":"uint128","internalType":"uint128"}]}],"stateMutability":"nonpayable"},{"type":"function","name":"disinvestValueGood","inputs":[{"name":"_goodid","type":"uint256","internalType":"uint256"},{"name":"_goodQuanitity","type":"uint128","internalType":"uint128"},{"name":"_gater","type":"address","internalType":"address"}],"outputs":[{"name":"disinvestResult_","type":"tuple","internalType":"struct L_Good.S_GoodDisinvestReturn","components":[{"name":"profit","type":"uint128","internalType":"uint128"},{"name":"actual_fee","type":"uint128","internalType":"uint128"},{"name":"actualDisinvestValue","type":"uint128","internalType":"uint128"},{"name":"actualDisinvestQuantity","type":"uint128","internalType":"uint128"}]},{"name":"valueProofno_","type":"uint256","internalType":"uint256"}],"stateMutability":"nonpayable"},{"type":"function","name":"disinvestValueProof","inputs":[{"name":"_valueproofid","type":"uint256","internalType":"uint256"},{"name":"_goodQuanitity","type":"uint128","internalType":"uint128"},{"name":"_gater","type":"address","internalType":"address"}],"outputs":[{"name":"disinvestResult_","type":"tuple","internalType":"struct L_Good.S_GoodDisinvestReturn","components":[{"name":"profit","type":"uint128","internalType":"uint128"},{"name":"actual_fee","type":"uint128","internalType":"uint128"},{"name":"actualDisinvestValue","type":"uint128","internalType":"uint128"},{"name":"actualDisinvestQuantity","type":"uint128","internalType":"uint128"}]}],"stateMutability":"nonpayable"},{"type":"function","name":"getApproved","inputs":[{"name":"proofId","type":"uint256","internalType":"uint256"}],"outputs":[{"name":"","type":"address","internalType":"address"}],"stateMutability":"view"},{"type":"function","name":"getGoodIdByAddress","inputs":[{"name":"_owner","type":"address","internalType":"address"},{"name":"_key","type":"uint256","internalType":"uint256"}],"outputs":[{"name":"","type":"uint256","internalType":"uint256"}],"stateMutability":"view"},{"type":"function","name":"getGoodState","inputs":[{"name":"_goodid","type":"uint256","internalType":"uint256"}],"outputs":[{"name":"good_","type":"tuple","internalType":"struct L_Good.S_GoodTmpState","components":[{"name":"goodConfig","type":"uint256","internalType":"uint256"},{"name":"owner","type":"address","internalType":"address"},{"name":"erc20address","type":"address","internalType":"address"},{"name":"currentState","type":"uint256","internalType":"T_BalanceUINT256"},{"name":"investState","type":"uint256","internalType":"T_BalanceUINT256"},{"name":"feeQunitityState","type":"uint256","internalType":"T_BalanceUINT256"}]}],"stateMutability":"view"},{"type":"function","name":"getGoodsFee","inputs":[{"name":"_goodid","type":"uint256","internalType":"uint256"},{"name":"user","type":"address","internalType":"address"}],"outputs":[{"name":"","type":"uint256","internalType":"uint256"}],"stateMutability":"view"},{"type":"function","name":"getProofId","inputs":[{"name":"_investproofkey","type":"tuple","internalType":"struct S_ProofKey","components":[{"name":"owner","type":"address","internalType":"address"},{"name":"currentgood","type":"uint256","internalType":"uint256"},{"name":"valuegood","type":"uint256","internalType":"uint256"}]}],"outputs":[{"name":"proof_","type":"uint256","internalType":"uint256"}],"stateMutability":"view"},{"type":"function","name":"getProofState","inputs":[{"name":"_proof","type":"uint256","internalType":"uint256"}],"outputs":[{"name":"proof_","type":"tuple","internalType":"struct L_Proof.S_ProofState","components":[{"name":"owner","type":"address","internalType":"address"},{"name":"currentgood","type":"uint256","internalType":"uint256"},{"name":"valuegood","type":"uint256","internalType":"uint256"},{"name":"state","type":"uint256","internalType":"T_BalanceUINT256"},{"name":"invest","type":"uint256","internalType":"T_BalanceUINT256"},{"name":"valueinvest","type":"uint256","internalType":"T_BalanceUINT256"},{"name":"approval","type":"address","internalType":"address"},{"name":"beneficiary","type":"address","internalType":"address"}]}],"stateMutability":"view"},{"type":"function","name":"goodnum","inputs":[],"outputs":[{"name":"","type":"uint256","internalType":"uint256"}],"stateMutability":"view"},{"type":"function","name":"initMetaGood","inputs":[{"name":"_erc20address","type":"address","internalType":"address"},{"name":"_initial","type":"uint256","internalType":"T_BalanceUINT256"},{"name":"_goodConfig","type":"uint256","internalType":"uint256"}],"outputs":[{"name":"","type":"uint256","internalType":"uint256"},{"name":"","type":"uint256","internalType":"uint256"}],"stateMutability":"nonpayable"},{"type":"function","name":"initNormalGood","inputs":[{"name":"_valuegood","type":"uint256","internalType":"uint256"},{"name":"_initial","type":"uint256","internalType":"T_BalanceUINT256"},{"name":"_erc20address","type":"address","internalType":"address"},{"name":"_goodConfig","type":"uint256","internalType":"uint256"},{"name":"_gater","type":"address","internalType":"address"}],"outputs":[{"name":"","type":"uint256","internalType":"uint256"},{"name":"","type":"uint256","internalType":"uint256"}],"stateMutability":"nonpayable"},{"type":"function","name":"investNormalGood","inputs":[{"name":"_togood","type":"uint256","internalType":"uint256"},{"name":"_valuegood","type":"uint256","internalType":"uint256"},{"name":"_quanitity","type":"uint128","internalType":"uint128"},{"name":"_gater","type":"address","internalType":"address"}],"outputs":[{"name":"normalInvest_","type":"tuple","internalType":"struct L_Good.S_GoodInvestReturn","components":[{"name":"actualFeeQuantity","type":"uint128","internalType":"uint128"},{"name":"contructFeeQuantity","type":"uint128","internalType":"uint128"},{"name":"actualInvestValue","type":"uint128","internalType":"uint128"},{"name":"actualInvestQuantity","type":"uint128","internalType":"uint128"}]},{"name":"valueInvest_","type":"tuple","internalType":"struct L_Good.S_GoodInvestReturn","components":[{"name":"actualFeeQuantity","type":"uint128","internalType":"uint128"},{"name":"contructFeeQuantity","type":"uint128","internalType":"uint128"},{"name":"actualInvestValue","type":"uint128","internalType":"uint128"},{"name":"actualInvestQuantity","type":"uint128","internalType":"uint128"}]},{"name":"proofno_","type":"uint256","internalType":"uint256"}],"stateMutability":"nonpayable"},{"type":"function","name":"investValueGood","inputs":[{"name":"_goodid","type":"uint256","internalType":"uint256"},{"name":"_goodQuanitity","type":"uint128","internalType":"uint128"},{"name":"_gater","type":"address","internalType":"address"}],"outputs":[{"name":"valueInvest_","type":"tuple","internalType":"struct L_Good.S_GoodInvestReturn","components":[{"name":"actualFeeQuantity","type":"uint128","internalType":"uint128"},{"name":"contructFeeQuantity","type":"uint128","internalType":"uint128"},{"name":"actualInvestValue","type":"uint128","internalType":"uint128"},{"name":"actualInvestQuantity","type":"uint128","internalType":"uint128"}]},{"name":"valueProofno_","type":"uint256","internalType":"uint256"}],"stateMutability":"nonpayable"},{"type":"function","name":"isApprovedForAll","inputs":[{"name":"owner","type":"address","internalType":"address"},{"name":"operator","type":"address","internalType":"address"}],"outputs":[{"name":"","type":"bool","internalType":"bool"}],"stateMutability":"view"},{"type":"function","name":"marketconfig","inputs":[],"outputs":[{"name":"","type":"uint256","internalType":"uint256"}],"stateMutability":"view"},{"type":"function","name":"marketcreator","inputs":[],"outputs":[{"name":"","type":"address","internalType":"address"}],"stateMutability":"view"},{"type":"function","name":"multicall","inputs":[{"name":"data","type":"bytes[]","internalType":"bytes[]"}],"outputs":[{"name":"results","type":"bytes[]","internalType":"bytes[]"}],"stateMutability":"payable"},{"type":"function","name":"name","inputs":[],"outputs":[{"name":"","type":"string","internalType":"string"}],"stateMutability":"pure"},{"type":"function","name":"ownerOf","inputs":[{"name":"proofId","type":"uint256","internalType":"uint256"}],"outputs":[{"name":"","type":"address","internalType":"address"}],"stateMutability":"view"},{"type":"function","name":"payGood","inputs":[{"name":"_goodid","type":"uint256","internalType":"uint256"},{"name":"_payquanity","type":"uint256","internalType":"uint256"},{"name":"_recipent","type":"address","internalType":"address"}],"outputs":[{"name":"","type":"bool","internalType":"bool"}],"stateMutability":"nonpayable"},{"type":"function","name":"proofseq","inputs":[{"name":"","type":"bytes32","internalType":"bytes32"}],"outputs":[{"name":"","type":"uint256","internalType":"uint256"}],"stateMutability":"view"},{"type":"function","name":"relations","inputs":[{"name":"","type":"address","internalType":"address"}],"outputs":[{"name":"","type":"address","internalType":"address"}],"stateMutability":"view"},{"type":"function","name":"removebanlist","inputs":[{"name":"_user","type":"address","internalType":"address"}],"outputs":[{"name":"","type":"bool","internalType":"bool"}],"stateMutability":"nonpayable"},{"type":"function","name":"safeTransferFrom","inputs":[{"name":"from","type":"address","internalType":"address"},{"name":"to","type":"address","internalType":"address"},{"name":"proofid","type":"uint256","internalType":"uint256"}],"outputs":[],"stateMutability":"nonpayable"},{"type":"function","name":"safeTransferFrom","inputs":[{"name":"from","type":"address","internalType":"address"},{"name":"to","type":"address","internalType":"address"},{"name":"tokenId","type":"uint256","internalType":"uint256"},{"name":"data","type":"bytes","internalType":"bytes"}],"outputs":[],"stateMutability":"nonpayable"},{"type":"function","name":"setApprovalForAll","inputs":[{"name":"operator","type":"address","internalType":"address"},{"name":"approved","type":"bool","internalType":"bool"}],"outputs":[],"stateMutability":"nonpayable"},{"type":"function","name":"setMarketConfig","inputs":[{"name":"_marketconfig","type":"uint256","internalType":"uint256"}],"outputs":[{"name":"","type":"bool","internalType":"bool"}],"stateMutability":"nonpayable"},{"type":"function","name":"supportsInterface","inputs":[{"name":"interfaceId","type":"bytes4","internalType":"bytes4"}],"outputs":[{"name":"","type":"bool","internalType":"bool"}],"stateMutability":"view"},{"type":"function","name":"symbol","inputs":[],"outputs":[{"name":"","type":"string","internalType":"string"}],"stateMutability":"pure"},{"type":"function","name":"tokenByIndex","inputs":[{"name":"_index","type":"uint256","internalType":"uint256"}],"outputs":[{"name":"","type":"uint256","internalType":"uint256"}],"stateMutability":"pure"},{"type":"function","name":"tokenOfOwnerByIndex","inputs":[{"name":"_owner","type":"address","internalType":"address"},{"name":"_index","type":"uint256","internalType":"uint256"}],"outputs":[{"name":"","type":"uint256","internalType":"uint256"}],"stateMutability":"view"},{"type":"function","name":"tokenURI","inputs":[{"name":"proofId","type":"uint256","internalType":"uint256"}],"outputs":[{"name":"","type":"string","internalType":"string"}],"stateMutability":"view"},{"type":"function","name":"totalSupply","inputs":[],"outputs":[{"name":"","type":"uint256","internalType":"uint256"}],"stateMutability":"view"},{"type":"function","name":"transferFrom","inputs":[{"name":"from","type":"address","internalType":"address"},{"name":"to","type":"address","internalType":"address"},{"name":"proofid","type":"uint256","internalType":"uint256"}],"outputs":[],"stateMutability":"nonpayable"},{"type":"function","name":"updateGoodConfig","inputs":[{"name":"_goodid","type":"uint256","internalType":"uint256"},{"name":"_goodConfig","type":"uint256","internalType":"uint256"}],"outputs":[{"name":"","type":"bool","internalType":"bool"}],"stateMutability":"nonpayable"},{"type":"function","name":"updatetoNormalGood","inputs":[{"name":"_goodid","type":"uint256","internalType":"uint256"}],"outputs":[{"name":"","type":"bool","internalType":"bool"}],"stateMutability":"nonpayable"},{"type":"function","name":"updatetoValueGood","inputs":[{"name":"_goodid","type":"uint256","internalType":"uint256"}],"outputs":[{"name":"","type":"bool","internalType":"bool"}],"stateMutability":"nonpayable"},{"type":"event","name":"Approval","inputs":[{"name":"owner","type":"address","indexed":true,"internalType":"address"},{"name":"approved","type":"address","indexed":true,"internalType":"address"},{"name":"tokenId","type":"uint256","indexed":true,"internalType":"uint256"}],"anonymous":false},{"type":"event","name":"ApprovalForAll","inputs":[{"name":"owner","type":"address","indexed":true,"internalType":"address"},{"name":"operator","type":"address","indexed":true,"internalType":"address"},{"name":"approved","type":"bool","indexed":false,"internalType":"bool"}],"anonymous":false},{"type":"event","name":"Transfer","inputs":[{"name":"from","type":"address","indexed":true,"internalType":"address"},{"name":"to","type":"address","indexed":true,"internalType":"address"},{"name":"tokenId","type":"uint256","indexed":true,"internalType":"uint256"}],"anonymous":false},{"type":"event","name":"e_buyGood","inputs":[{"name":"sellgood","type":"uint256","indexed":true,"internalType":"uint256"},{"name":"forgood","type":"uint256","indexed":true,"internalType":"uint256"},{"name":"fromer","type":"address","indexed":false,"internalType":"address"},{"name":"swapvalue","type":"uint128","indexed":false,"internalType":"uint128"},{"name":"sellgoodstate","type":"uint256","indexed":false,"internalType":"T_BalanceUINT256"},{"name":"forgoodstate","type":"uint256","indexed":false,"internalType":"T_BalanceUINT256"}],"anonymous":false},{"type":"event","name":"e_buyGoodForPay","inputs":[{"name":"buygood","type":"uint256","indexed":true,"internalType":"uint256"},{"name":"usegood","type":"uint256","indexed":true,"internalType":"uint256"},{"name":"fromer","type":"address","indexed":false,"internalType":"address"},{"name":"receipt","type":"address","indexed":false,"internalType":"address"},{"name":"swapvalue","type":"uint128","indexed":false,"internalType":"uint128"},{"name":"buygoodstate","type":"uint256","indexed":false,"internalType":"T_BalanceUINT256"},{"name":"usegoodstate","type":"uint256","indexed":false,"internalType":"T_BalanceUINT256"}],"anonymous":false},{"type":"event","name":"e_changeOwner","inputs":[{"name":"_goodid","type":"uint256","indexed":true,"internalType":"uint256"},{"name":"_owner","type":"address","indexed":false,"internalType":"address"},{"name":"_to","type":"address","indexed":false,"internalType":"address"}],"anonymous":false},{"type":"event","name":"e_proof","inputs":[{"name":"","type":"uint256","indexed":true,"internalType":"uint256"}],"anonymous":false},{"type":"error","name":"ERC20TransferFailed","inputs":[]},{"type":"error","name":"ERC721InvalidReceiver","inputs":[{"name":"receiver","type":"address","internalType":"address"}]},{"type":"error","name":"NativeTransferFailed","inputs":[]},{"type":"error","name":"err_total","inputs":[]}],"bytecode":{"object":"0x60806040523480156200001157600080fd5b50604051620066ac380380620066ac83398101604081905262000034916200005e565b600580546001600160a01b0319166001600160a01b0393909316929092179091556003556200009a565b600080604083850312156200007257600080fd5b82516001600160a01b03811681146200008a57600080fd5b6020939093015192949293505050565b61660280620000aa6000396000f3fe60806040526004361061034a5760003560e01c806370a08231116101bb578063a6f6a980116100f7578063c16b80fe11610095578063cbb2aabc1161006f578063cbb2aabc14610bcf578063e1f685e814610bef578063e985e9c514610c0f578063fc5f8dd014610c5857600080fd5b8063c16b80fe14610b55578063c3a2b15914610b82578063c87b56dd14610baf57600080fd5b8063ad864a79116100d1578063ad864a7914610ac6578063b153b92014610af5578063b88d4fde14610b15578063c138f7a914610b3557600080fd5b8063a6f6a98014610a0b578063a92a1bc914610a86578063ac9650d814610aa657600080fd5b806397924ead116101645780639caa637b1161013e5780639caa637b1461096f578063a22cb4651461098f578063a4500ff3146109af578063a64d6c9c146109dd57600080fd5b806397924ead146108fa57806399e23fc21461092f5780639c7b91401461094f57600080fd5b8063920acbb811610195578063920acbb81461088e5780639551177a146108ae57806395d89b41146108ce57600080fd5b806370a08231146108185780637b43e7381461084e5780638bdde5d31461086e57600080fd5b80633d9951731161028a578063430b9be71161023357806356b7d94c1161020d57806356b7d94c14610746578063578496ab1461078c5780636352211e146107cc5780636ab107f91461080257600080fd5b8063430b9be7146106db57806345818e4c146107085780634f6ccce71461072857600080fd5b806340430a491161026457806340430a491461066d57806342842e0e1461068357806342ff43b1146106a357600080fd5b80633d995173146105a75780633f117740146105c7578063402f5ab51461065757600080fd5b806314484e10116102f757806318160ddd116102d157806318160ddd1461050a57806323b872dd146105205780632a7c5a91146105405780632f745c591461056057600080fd5b806314484e1014610494578063144aeb83146104b4578063161ce5cb146104d457600080fd5b8063081812fc11610328578063081812fc14610401578063095ea7b3146104525780630a25dcff1461047457600080fd5b806301ffc9a71461034f5780630292eb4a1461038457806306fdde03146103b2575b600080fd5b34801561035b57600080fd5b5061036f61036a366004615b1f565b610c78565b60405190151581526020015b60405180910390f35b34801561039057600080fd5b506103a461039f366004615b3c565b610cca565b60405190815260200161037b565b3480156103be57600080fd5b5060408051808201909152600a81527f545453574150204e46540000000000000000000000000000000000000000000060208201525b60405161037b9190615ba5565b34801561040d57600080fd5b5061043a61041c366004615b3c565b6000908152600c60205260409020600601546001600160a01b031690565b6040516001600160a01b03909116815260200161037b565b34801561045e57600080fd5b5061047261046d366004615bcf565b610de8565b005b34801561048057600080fd5b5061036f61048f366004615b3c565b610ecb565b3480156104a057600080fd5b5061036f6104af366004615b3c565b610f2d565b3480156104c057600080fd5b5061036f6104cf366004615bf9565b610f87565b3480156104e057600080fd5b5061043a6104ef366004615c1b565b6002602052600090815260409020546001600160a01b031681565b34801561051657600080fd5b506103a4600b5481565b34801561052c57600080fd5b5061047261053b366004615c36565b610ff7565b34801561054c57600080fd5b5061036f61055b366004615c72565b61112c565b34801561056c57600080fd5b506103a461057b366004615bcf565b6001600160a01b03919091166000908152600d6020908152604080832093835260019093019052205490565b3480156105b357600080fd5b5060055461043a906001600160a01b031681565b3480156105d357600080fd5b506105e76105e2366004615b3c565b6111d3565b60405161037b91906000610100820190506001600160a01b038084511683526020840151602084015260408401516040840152606084015160608401526080840151608084015260a084015160a08401528060c08501511660c08401528060e08501511660e08401525092915050565b34801561066357600080fd5b506103a460035481565b34801561067957600080fd5b506103a460005481565b34801561068f57600080fd5b5061047261069e366004615c36565b611291565b3480156106af57600080fd5b506106c36106be366004615b3c565b6112b1565b6040516001600160801b03909116815260200161037b565b3480156106e757600080fd5b506103a46106f6366004615b3c565b600e6020526000908152604090205481565b34801561071457600080fd5b5061036f610723366004615b3c565b611440565b34801561073457600080fd5b506103a4610743366004615b3c565b90565b34801561075257600080fd5b506103a4610761366004615c72565b60008281526006602081815260408084206001600160a01b0386168552909201905290205492915050565b34801561079857600080fd5b506107ac6107a7366004615cc3565b6114c7565b604080516001600160801b0393841681529290911660208301520161037b565b3480156107d857600080fd5b5061043a6107e7366004615b3c565b6000908152600c60205260409020546001600160a01b031690565b34801561080e57600080fd5b506103a460045481565b34801561082457600080fd5b506103a4610833366004615c1b565b6001600160a01b03166000908152600d602052604090205490565b34801561085a57600080fd5b506107ac610869366004615d24565b6117fb565b34801561087a57600080fd5b5061036f610889366004615c1b565b611ae7565b34801561089a57600080fd5b5061036f6108a9366004615d69565b611b80565b3480156108ba57600080fd5b5061036f6108c9366004615c1b565b611bb2565b3480156108da57600080fd5b506040805180820190915260038152622a2a2760e91b60208201526103f4565b34801561090657600080fd5b5061091a610915366004615d9e565b611c13565b6040805192835260208301919091520161037b565b34801561093b57600080fd5b5061036f61094a366004615c72565b611e5b565b34801561095b57600080fd5b506103a461096a366004615b3c565b611efc565b34801561097b57600080fd5b506103a461098a366004615dd1565b61213c565b34801561099b57600080fd5b506104726109aa366004615de9565b61216e565b3480156109bb57600080fd5b506109cf6109ca366004615e20565b6121da565b60405161037b929190615e53565b3480156109e957600080fd5b506109fd6109f8366004615e20565b6124a7565b60405161037b929190615eca565b348015610a1757600080fd5b50610a2b610a26366004615b3c565b612765565b60405161037b9190600060c0820190508251825260208301516001600160a01b0380821660208501528060408601511660408501525050606083015160608301526080830151608083015260a083015160a083015292915050565b348015610a9257600080fd5b506103a4610aa1366004615bcf565b612811565b610ab9610ab4366004615f13565b612865565b60405161037b9190615f88565b348015610ad257600080fd5b50610ae6610ae1366004615fec565b6129b2565b60405161037b93929190616032565b348015610b0157600080fd5b5061036f610b10366004615c1b565b612d7b565b348015610b2157600080fd5b50610472610b30366004616120565b612ddf565b348015610b4157600080fd5b506109fd610b50366004615e20565b612dfd565b348015610b6157600080fd5b50610b75610b70366004615e20565b61304d565b60405161037b91906161cb565b348015610b8e57600080fd5b506103a4610b9d366004615c1b565b60016020526000908152604090205481565b348015610bbb57600080fd5b506103f4610bca366004615b3c565b61321a565b348015610bdb57600080fd5b5061091a610bea366004616207565b6132b5565b348015610bfb57600080fd5b50610ae6610c0a366004615fec565b613682565b348015610c1b57600080fd5b5061036f610c2a366004616257565b6001600160a01b039182166000908152600f6020908152604080832093909416825291909152205460ff1690565b348015610c6457600080fd5b5061036f610c73366004615c1b565b613a5e565b60006001600160e01b031982166380ac58cd60e01b1480610ca957506001600160e01b03198216635b5e139f60e01b145b80610cc457506301ffc9a760e01b6001600160e01b03198316145b92915050565b336000908152600a602052604081205415610ce457600080fd5b6000828152600660208181526040808420338552909201905290205480610d385760405162461bcd60e51b815260206004820152600360248201526223981b60e91b60448201526064015b60405180910390fd5b600083815260066020818152604080842033855290920190528120819055600354610d6e9083606460dd9290921c601f16020490565b60008581526006602081815260408084206005546001600160a01b031685529092019052812080549293508392909190610da9908490616297565b90915550610ddf905033610dbd83856162aa565b6000878152600660205260409020600201546001600160a01b03169190613a95565b5090505b919050565b6000818152600c602052604090205481906001600160a01b0316331480610e2857506000818152600c60205260409020600601546001600160a01b031633145b610e645760405162461bcd60e51b815260206004820152600d60248201526c1bdb9b1e48185c1c1c9bdd985b609a1b6044820152606401610d2f565b6000828152600c6020526040902060060180546001600160a01b0319166001600160a01b03851617905560405182906001600160a01b0385169033907f8c5be1e5ebec7d5bd14f71427d1e84f3dd0314c0f7b2291e5b200ac8c7c3b92590600090a4505050565b6005546000906001600160a01b03163314610f0e5760405162461bcd60e51b815260206004820152600360248201526223981960e91b6044820152606401610d2f565b6000828152600660205260409020610f2590613b2f565b506001919050565b6005546000906001600160a01b03163314610f705760405162461bcd60e51b815260206004820152600360248201526223981960e91b6044820152606401610d2f565b6000828152600660205260409020610f2590613b8f565b6000828152600660205260408120600101546001600160a01b03163314610fd65760405162461bcd60e51b815260206004820152600360248201526211cc0d60ea1b6044820152606401610d2f565b6000838152600660205260409020610fee9083613bde565b50600192915050565b6000818152600c602052604090205481906001600160a01b031633148061103757506000818152600c60205260409020600601546001600160a01b031633145b6110735760405162461bcd60e51b815260206004820152600d60248201526c1bdb9b1e48185c1c1c9bdd985b609a1b6044820152606401610d2f565b6001600160a01b0384166000908152600d602052604090206110959083613c16565b6001600160a01b0383166000908152600d602052604090206110b79083613c5d565b6000828152600c602052604080822080546001600160a01b038088166001600160a01b03199283168117845560068401805484169055600790930180549092169091559151859391928816917fddf252ad1be2c89b69c2b068fc378daa952ba7f163c4a11628f55a4df523b3ef91a450505050565b6000828152600660205260408120600101546001600160a01b031633148061115e57506005546001600160a01b031633145b6111905760405162461bcd60e51b815260206004820152600360248201526247303560e81b6044820152606401610d2f565b600083815260066020908152604080832060010180546001600160a01b0319166001600160a01b038716908117909155835260079091529020610fee9084613c5d565b61123660405180610100016040528060006001600160a01b03168152602001600081526020016000815260200160008152602001600081526020016000815260200160006001600160a01b0316815260200160006001600160a01b031681525090565b6000828152600c6020818152604080842080546001600160a01b03168652600181015486840152600281015491860191909152600381015460608601526004810154608086015294909252905260059091015460a082015290565b6112ac83838360405180602001604052806000815250612ddf565b505050565b6000818152600c60205260408120546001600160a01b03163314806112ef57506000828152600c60205260409020600701546001600160a01b031633145b801561130a57506000828152600c6020526040902060020154155b61133c5760405162461bcd60e51b81526020600482015260036024820152624d303960e81b6044820152606401610d2f565b6000828152600c6020908152604080832060018101548085526006909352922090916113689190613ca2565b9150600061138a836001600160801b0316600354613a8590919063ffffffff16565b905061139681846162bd565b60008381526006602081815260408084206005546001600160a01b031685529092019052812080549295506001600160801b038416929091906113da908490616297565b909155505060008281526006602052604090206002015461140e906001600160a01b0316336001600160801b038616613a95565b60405184907fe5eb1255799fb22ca9d80c7be5ade81a40ee66578748386701667d3cc4c5e9b990600090a25050919050565b6005546000906001600160a01b031633146114835760405162461bcd60e51b815260206004820152600360248201526223981960e91b6044820152606401610d2f565b61148c82613d1a565b6114be5760405162461bcd60e51b815260206004820152600360248201526247303360e81b6044820152606401610d2f565b50600355600190565b6000806009546000146115025760405162461bcd60e51b815260206004820152600360248201526247303160e81b6044820152606401610d2f565b600160095560408051610100810182526001600160801b038816815260006020808301829052828401829052606083018290528b825260068082528483206003808201546080870152905460a08601528c84528183529483209485015460c0850152918b905252905460e082015261157a8187613d8c565b90506001851515148015611597575080516001600160801b031615155b156115b557604051632af75bb760e11b815260040160405180910390fd5b60208082015160008a815260069092526040909120546115e9916001600160801b031661271060e79290921c607f16020490565b91508181602001516115fb91906162bd565b9250611690816080015182604001516003546040518060400160405280896001600160a01b0316815260200160026000336001600160a01b03166001600160a01b0316815260200190815260200160002060009054906101000a90046001600160a01b03166001600160a01b0316815250600660008f81526020019081526020016000206140d190949392919063ffffffff16565b60c08101516003546040805180820182526001600160a01b0380891682523360009081526002602090815284822054909216828401528d81526006909152919091206116e293909290918691906140d1565b805161171f9033906116f4908a6162bd565b60008c8152600660205260409020600201546001600160a01b031691906001600160801b0316614123565b60008881526006602052604090206002015461174e906001600160a01b0316336001600160801b038616613a95565b87897fa79c43e220b5faf022716b06e757294b799a25f33d3c8b0121e614f7b5d988c43384606001516117a286600001518d61178a91906162bd565b60408801516001600160801b031660809190911b1790565b6001600160801b03881660808a901b17604080516001600160a01b0390951685526001600160801b0390931660208501529183015260608201526080015b60405180910390a35060006009559097909650945050505050565b6000806009546000146118365760405162461bcd60e51b815260206004820152600360248201526247303160e81b6044820152606401610d2f565b600160095560408051610100810182526001600160801b038816815260006020808301829052828401829052606083018290528b825260068082528483206003808201546080870152905460a08601528c84528183529483209485015460c0850152918b905252905460e08201526118ae8187614238565b80519091506001600160801b0316156118da57604051632af75bb760e11b815260040160405180910390fd5b60208082015160008b8152600690925260409091205461190e916001600160801b031661271060e79290921c607f16020490565b915081816020015161192091906162bd565b60c0820151604080840151600354825180840184526001600160a01b03808b1682523360009081526002602090815286822054909216828401528f81526006909152939093209497506119749493926140d1565b60808101516003546040805180820182526001600160a01b0380891682523360009081526002602090815284822054909216828401528e81526006909152919091206119c693909290918691906140d1565b60408101518151611a129187916119dd908b6162bd565b6119e791906162bd565b60008b8152600660205260409020600201546001600160a01b031691906001600160801b0316613a95565b600089815260066020526040902060020154611a41906001600160a01b0316336001600160801b038616614123565b87897f3de590341c976ea6fce618ef4a768a15441201ad3ed7c9b438d82c3951de7ced33888560600151611a9687600001518e611a7e91906162bd565b60408901516001600160801b031660809190911b1790565b6001600160801b03891660808b901b17604080516001600160a01b0396871681529590941660208601526001600160801b03909216928401929092526060830191909152608082015260a0016117e0565b3360009081526001602052604081205415611b295760405162461bcd60e51b8152602060048201526002602482015261553160f01b6044820152606401610d2f565b6001600080828254611b3b9190616297565b9091555050600080543382526001602081815260408085209390935560029052912080546001600160a01b0319166001600160a01b0394909416939093179092555090565b600083815260066020526040812060020154611ba7906001600160a01b03163384866144f1565b5060015b9392505050565b6005546000906001600160a01b03163314611bf55760405162461bcd60e51b815260206004820152600360248201526223981960e91b6044820152606401610d2f565b506001600160a01b03166000908152600a6020526040812055600190565b60055460009081906001600160a01b03163314611c585760405162461bcd60e51b815260206004820152600360248201526223981960e91b6044820152606401610d2f565b611c6183614610565b611c935760405162461bcd60e51b815260206004820152600360248201526226981960e91b6044820152606401610d2f565b611cb06001600160a01b038616336001600160801b038716614123565b600160046000828254611cc39190616297565b9091555050600454604080518082019091526001600160a01b0387168152336020820152600890600090611cf690614626565b815260208082019290925260409081016000908120939093556004805484526006909252808320600381018890558083018890556001600160ff1b03871681556002810180546001600160a01b038b166001600160a01b0319918216179091556001909101805490911633179055905482529020611d7390613b2f565b600454336000908152600760205260409020611d8e91613c5d565b6040805160608101825233815260045460208201526000918101829052611db490614674565b90506001600b6000828254611dc99190616297565b9091555050600b546000828152600e6020526040902055600454611e2d90611dfa611df48860801c90565b60801b90565b611e146000895b6001600160801b031660809190911b1790565b600b546000908152600c602052604090209291906146a7565b600b54336000908152600d60205260409020611e4891613c5d565b600454600b549250925050935093915050565b6000828152600c60205260408120546001600160a01b0316331480611e9957506000838152600c60205260409020600601546001600160a01b031633145b611eca5760405162461bcd60e51b8152602060048201526002602482015261503160f01b6044820152606401610d2f565b506000828152600c6020526040902080546001600160a01b0383166001600160a01b0319909116179055600192915050565b6000818152600c60205260408120546001600160a01b0316331480611f3a57506000828152600c60205260409020600701546001600160a01b031633145b8015611f5657506000828152600c602052604090206002015415155b611f885760405162461bcd60e51b81526020600482015260036024820152624d303960e81b6044820152606401610d2f565b6000828152600c6020908152604080832060028101546001820154818652600690945282852084865292909420611fc092909161470b565b92506000611ffa611ff1611fd48660801c90565b600354906001600160801b0316606460dd9290921c601f16020490565b611e0186611fd4565b905061200684826147b3565b93506120128160801c90565b60008381526006602081815260408084206005546001600160a01b031685529092019052812080546001600160801b039390931692909190612055908490616297565b909155505060008381526006602081815260408084206005546001600160a01b031685529092019052812080546001600160801b0384169290612099908490616297565b909155506120d89050336120ad8660801c90565b6000858152600660205260409020600201546001600160a01b031691906001600160801b0316613a95565b61210933855b6000868152600660205260409020600201546001600160a01b031691906001600160801b0316613a95565b60405185907fe5eb1255799fb22ca9d80c7be5ade81a40ee66578748386701667d3cc4c5e9b990600090a2505050919050565b6000600e81612158612153368690038601866162dd565b614674565b8152602001908152602001600020549050919050565b336000818152600f602090815260408083206001600160a01b03871680855290835292819020805460ff191686151590811790915590519081529192917f17307eab39ab6107e8899845ad3d59bd9653f200f220920489ca2b5937696c31910160405180910390a35050565b604080516080810182526000808252602082018190529181018290526060810191909152604080516080810182526000808252602082018190529181018290526060810191909152600954156122585760405162461bcd60e51b815260206004820152600360248201526247303160e81b6044820152606401610d2f565b60016009556000858152600c60205260409020600281015490546001600160a01b03163314801561228857508015155b6122ba5760405162461bcd60e51b81526020600482015260036024820152624d303960e81b6044820152606401610d2f565b6000868152600c6020908152604080832060018101548585526006808552838620600354855180870187526001600160a01b03808e168252338a5260028952878a205416818901528489529290965293909520909461231e94919392918b916147dd565b81516003549296509094506000916123709161234e91906001600160801b0316606460dd9290921c601f16020490565b8551600354611e01916001600160801b0316606460dd9290921c601f16020490565b905061237c8160801c90565b8560200181815161238d919061633e565b6001600160801b031690525080846020018181516123ab919061633e565b6001600160801b03169052506123c18160801c90565b60008381526006602081815260408084206005546001600160a01b031685529092019052812080546001600160801b039390931692909190612404908490616297565b909155505060008381526006602081815260408084206005546001600160a01b031685529092019052812080546001600160801b0384169290612448908490616297565b90915550506020850151855161246e913391612464908b61633e565b6120ad91906162bd565b6124953385602001518660000151876060015161248b919061633e565b6120de91906162bd565b50506000600955509094909350915050565b60408051608081018252600080825260208201819052918101829052606081019190915260006009546000146125055760405162461bcd60e51b815260206004820152600360248201526247303160e81b6044820152606401610d2f565b600160095560008581526006602052604090205461252290614610565b801561255857506000858152600660205260409020600301546e010000000000000000000000000000906001600160801b031611155b801561259157506000858152600660205260409020600301546e0100000000000000000000000000009060801c6001600160801b031611155b6125c35760405162461bcd60e51b815260206004820152600360248201526226981b60e91b6044820152606401610d2f565b6000858152600660205260409020600201546125f2906001600160a01b0316336001600160801b038716614123565b6003546040805180820182526001600160a01b03808716825233600090815260026020908152848220549092168284015289815260069091529190912061263d929091879190614cd0565b9150600e60006126706040518060600160405280336001600160a01b031681526020018981526020016000815250614674565b8152602001908152602001600020549050806000036126ed576001600b600082825461269c9190616297565b92505081905550600b54600e60006126d76040518060600160405280336001600160a01b031681526020018a81526020016000815250614674565b815260208101919091526040016000205550600b545b604082015161272b90869060801b602085015160608601516001600160801b031660809190911b176000858152600c602052604090209291906146a7565b60405181907fe5eb1255799fb22ca9d80c7be5ade81a40ee66578748386701667d3cc4c5e9b990600090a260006009559094909350915050565b6127b06040518060c001604052806000815260200160006001600160a01b0316815260200160006001600160a01b031681526020016000815260200160008152602001600081525090565b60008281526006602081815260408084206003810154606087015260048101546080870152600581015460a08701528054865260018101546001600160a01b0390811687850152969094529190526002909101549092169181019190915290565b6001600160a01b038216600090815260076020526040812054821115612838576000611bab565b506001600160a01b0391909116600090815260076020908152604080832093835260019093019052205490565b60608167ffffffffffffffff811115612880576128806160b1565b6040519080825280602002602001820160405280156128b357816020015b606081526020019060019003908161289e5790505b50905060005b828110156129ab57600080308686858181106128d7576128d761635e565b90506020028101906128e99190616374565b6040516128f79291906163c2565b600060405180830381855af49150503d8060008114612932576040519150601f19603f3d011682016040523d82523d6000602084013e612937565b606091505b5091509150816129835760448151101561295057600080fd5b6004810190508080602001905181019061296a91906163d2565b60405162461bcd60e51b8152600401610d2f9190615ba5565b808484815181106129965761299661635e565b602090810291909101015250506001016128b9565b5092915050565b6040805160808101825260008082526020820181905291810182905260608101919091526040805160808101825260008082526020820181905291810182905260608101919091526000600954600014612a345760405162461bcd60e51b815260206004820152600360248201526247303160e81b6044820152606401610d2f565b60016009556040805160608101825233815260208101899052908101879052600e90600090612a6290614674565b8152602001908152602001600020549050600081118015612a9957506000818152600c60205260409020546001600160a01b031633145b8015612ac857506000818152600c60205260409020600401546001600160801b0316856001600160801b031611155b612afa5760405162461bcd60e51b8152602060048201526003602482015262134c0d60ea1b6044820152606401610d2f565b612ba560066000888152602001908152602001600020600c6000600e6000612b446040518060600160405280336001600160a01b031681526020018f81526020018e815250614674565b815260208082019290925260409081016000908120548452838301949094529182018320600354835180850185526001600160a01b03808d168252338752600285528587205416818501528e86526006909352929093209392918a916147dd565b8151600354929550909350600091612bf791612bd591906001600160801b0316606460dd9290921c601f16020490565b8451600354611e01916001600160801b0316606460dd9290921c601f16020490565b9050612c038160801c90565b84602001818151612c14919061633e565b6001600160801b03169052508083602001818151612c32919061633e565b6001600160801b0316905250612c488160801c90565b60008981526006602081815260408084206005546001600160a01b031685529092019052812080546001600160801b039390931692909190612c8b908490616297565b909155505060008781526006602081815260408084206005546001600160a01b031685529092019052812080546001600160801b0384169290612ccf908490616297565b909155505060208401518451612ceb9133916119dd908a61633e565b612d3d33846020015185600001518660600151612d08919061633e565b612d1291906162bd565b60008a8152600660205260409020600201546001600160a01b031691906001600160801b0316613a95565b60405182907fe5eb1255799fb22ca9d80c7be5ade81a40ee66578748386701667d3cc4c5e9b990600090a25060006009819055509450945094915050565b6005546000906001600160a01b03163314612dbe5760405162461bcd60e51b815260206004820152600360248201526223981960e91b6044820152606401610d2f565b506001600160a01b03166000908152600a6020526040902060019081905590565b612dea848484610ff7565b612df73385858585614e7a565b50505050565b6040805160808101825260008082526020820181905291810182905260608101919091526000600954600014612e5b5760405162461bcd60e51b815260206004820152600360248201526247303160e81b6044820152606401610d2f565b600160095560408051606081018252338152602081018790526000918101829052600e9190612e8990614674565b81526020808201929092526040908101600090812054808252600c90935220549091506001600160a01b031633148015612ee657506000818152600c60205260409020600401546001600160801b0316846001600160801b031611155b612f185760405162461bcd60e51b81526020600482015260036024820152624d303360e81b6044820152606401610d2f565b6000818152600c60209081526040808320600354825180840184526001600160a01b03808a168252338752600286528487205416818601528a86526006909452919093208793612f6e9391929091859190614f9c565b8051600354919450600091612f96916001600160801b0316606460dd9290921c601f16020490565b60008881526006602081815260408084206005546001600160a01b031685529092019052812080549293506001600160801b03841692909190612fda908490616297565b90915550506020840151612fef90829061633e565b6001600160801b0316602085018190528451613011913391612d08908a61633e565b60405183907fe5eb1255799fb22ca9d80c7be5ade81a40ee66578748386701667d3cc4c5e9b990600090a2505060006009559094909350915050565b604080516080810182526000808252602082018190529181018290526060810191909152600954156130a75760405162461bcd60e51b815260206004820152600360248201526247303160e81b6044820152606401610d2f565b600160098190556000858152600c602052604090209081015490546001600160a01b0316331480156130e857506000858152600c6020526040902060020154155b61311a5760405162461bcd60e51b81526020600482015260036024820152624d303560e81b6044820152606401610d2f565b6000858152600c60209081526040808320600354825180840184526001600160a01b03808a1682523387526002865284872054168186015286865260069094529190932061316d93909290918891614f9c565b8051600354919350600091613195916001600160801b0316606460dd9290921c601f16020490565b905080836020018181516131a9919061633e565b6001600160801b0390811690915260008481526006602081815260408084206005546001600160a01b031685529092019052812080549285169350916131f0908490616297565b90915550506020830151835161320c913391612464908961633e565b505060006009559392505050565b6000818152600c602052604090205460609082906001600160a01b031633146132855760405162461bcd60e51b815260206004820152600a60248201527f6f6e6c79206f776e6572000000000000000000000000000000000000000000006044820152606401610d2f565b61328e836151f2565b60405160200161329e9190616440565b604051602081830303815290604052915050919050565b6000806009546000146132f05760405162461bcd60e51b815260206004820152600360248201526247303160e81b6044820152606401610d2f565b600160095560008781526006602052604090205461330d90614610565b61333f5760405162461bcd60e51b815260206004820152600360248201526226981960e91b6044820152606401610d2f565b60006133706040518060400160405280886001600160a01b03168152602001336001600160a01b0316815250614626565b600081815260086020526040902054909150156133b55760405162461bcd60e51b81526020600482015260036024820152624d303160e81b6044820152606401610d2f565b6133dd336133c38960801c90565b6001600160a01b03891691906001600160801b0316614123565b60008881526006602052604090206002015461340c906001600160a01b0316336001600160801b038a16614123565b6000613457886003546040805180820182526001600160a01b03808b1682523360009081526002602090815284822054909216828401528f8152600690915291909120929190614cd0565b6040015190506001600460008282546134709190616297565b909155505060045460008381526008602090815260408083208490553383526007909152902061349f91613c5d565b61350c6134b082611e018b60801c90565b60048054600090815260066020526040902060038101839055908101919091556001600160ff1b03881681556002810180546001600160a01b038b166001600160a01b0319918216179091556001909101805490911633179055565b600061353c6040518060600160405280336001600160a01b0316815260200160045481526020018c815250614674565b90506001600b60008282546135519190616297565b9091555050600b546000828152600e6020908152604091829020929092558051610100810182523381526004549281019290925281018b905260608101608084901b81526020016135a76000611e018d60801c90565b81526020016135b760008c611e01565b8152600060208083018290526040928301829052600b80548352600c8252838320855181546001600160a01b03199081166001600160a01b03928316178355878501516001840155878701516002840155606088015160038401556080880151600484015560a0880151600584015560c0880151600684018054831691841691909117905560e090970151600790920180549097169116179094559254338252600d9093522061366691613c5d565b5050600454600b54600060095590999098509650505050505050565b60408051608081018252600080825260208201819052918101829052606081019190915260408051608081018252600080825260208201819052918101829052606081019190915260006009546000146137045760405162461bcd60e51b815260206004820152600360248201526247303160e81b6044820152606401610d2f565b600160095560008681526006602052604090205461372190614610565b801561375657506000878152600660205260409020600301546d0100000000000000000000000000906001600160801b031611155b801561378e57506000878152600660205260409020600301546d01000000000000000000000000009060801c6001600160801b031611155b6137c05760405162461bcd60e51b815260206004820152600360248201526226981960e91b6044820152606401610d2f565b6003546040805180820182526001600160a01b0380881682523360009081526002602090815284822054909216828401528b815260069091529190912061380b929091889190614cd0565b6040808201516000898152600660205291909120600301549194506138309190615292565b6001600160801b03166060830181905260008781526006602052604090205460f51c607f16612710908103909104026001600160801b031660608301819052600087815260066020526040902060020154613898916001600160a01b03909116903390614123565b60608201516003546040805180820182526001600160a01b0380891682523360009081526002602090815284822054909216828401528b81526006909152919091206138e79390929091614cd0565b600088815260066020526040902060020154909250613919906001600160a01b0316336001600160801b038816614123565b600e60006139496040518060600160405280336001600160a01b031681526020018b81526020018a815250614674565b8152602001908152602001600020549050806000036139c5576001600b60008282546139759190616297565b92505081905550600b54600e60006139af6040518060600160405280336001600160a01b031681526020018c81526020018b815250614674565b815260208101919091526040016000205550600b545b6040830151613a21908890889060801b602087015160608801516001600160801b031660809190911b17602087015160608801516001600160801b031660809190911b176000878152600c60205260409020949392919061531b565b60405181907fe5eb1255799fb22ca9d80c7be5ade81a40ee66578748386701667d3cc4c5e9b990600090a260006009819055509450945094915050565b6001600160a01b0381166000908152600a6020526040812054600114610f25576000610cc4565b606460dd9290921c601f16020490565b60006001600160a01b038416613ad45760008060008085875af1905080613acf57604051633d2cec6f60e21b815260040160405180910390fd5b612df7565b60405163a9059cbb60e01b6000528360045282602452602060006044600080895af13d15601f3d1160016000511416171691506000606052806040525080612df757604051633c9fd93960e21b815260040160405180910390fd5b8054613b3a90614610565b15613b705760405162461bcd60e51b8152600401610d2f906020808252600490820152634730303760e01b604082015260600190565b80546001600160ff1b0316613b8981600160ff1b616297565b90915550565b8054613b9a90614610565b613bcf5760405162461bcd60e51b8152600401610d2f9060208082526004908201526308e6060760e31b604082015260600190565b80546001600160ff1b03169055565b81547f0fffffffffffffffffffffffffffffffffffffffffffffffffffffffffffffff90911690613b89908290600f60fc1b16616297565b815460009081526001808401602081815260408085205486865260028801835281862054865292909152832055835490918491613c549084906162aa565b90915550505050565b6001826000016000828254613c729190616297565b90915550508154600090815260018301602090815260408083208490558454938352600290940190529190912055565b6000613cb2826004015460801c90565b613ce1613cc0846004015490565b613cdb613cd1876005015460801c90565b6004880154611e01565b90615395565b613ceb91906162bd565b6005840154909150613d0b906001600160801b0383166153d0565b6153d0565b6005840155610cc482826153fd565b60008060e283901c603f1660e884901c603f1660ee85901c603f1660f486901c603f16613d478760fa1c90565b613d51919061648f565b613d5b919061648f565b613d65919061648f565b613d6f919061648f565b90508060ff16606414613d83576000611bab565b60019392505050565b6040805161010081018252600080825260208201819052918101829052606081018290526080810182905260a0810182905260c0810182905260e0810191909152825160a08401516000918291613df7916001600160801b031661271060e09290921c607f16020490565b6001600160801b03166040860181905285518690613e169083906162bd565b6001600160801b03169052505b84516001600160801b031615801590613e4a5750613e4a85608001518660c001518661541c565b1561403b57613e6b613e608660c0015160801c90565b60e0870151906155a7565b6001600160801b0316613e90613e85876080015160801c90565b60a0880151906155a7565b6001600160801b03161015613ec057613ebb613eb0866080015160801c90565b60a0870151906155a7565b613ed1565b613ed1613e608660c0015160801c90565b6080860151909250613ee39083615292565b9050806001600160801b031685600001516001600160801b03161115613f97578085600001818151613f1591906162bd565b6001600160801b031690525060c0850151613f309083615292565b85602001818151613f41919061633e565b6001600160801b03908116909152608087810151613f6c93509184169085901b176155d7565b6155d7565b608086015260c0850151613f8d90613f8884611e018382615292565b6155fa565b60c0860152614018565b84516080860151613fa791615395565b60c0860151909250613fb99083615292565b85602001818151613fca919061633e565b6001600160801b039081169091526080878101518851613ff294509092169085901b176155d7565b608086015260c085015161400e90613f8884611e018382615292565b60c0860152600085525b818560600181815161402a919061633e565b6001600160801b0316905250613e23565b84516001600160801b0316156140c857845160a086015161406f916001600160801b0316606460f49290921c603f16020490565b8560400181815161408091906162bd565b6001600160801b03908116909152865160a08801516140ac93509116606460f49290921c603f16020490565b855186906140bb90839061633e565b6001600160801b03169052505b50929392505050565b6003850184905560058501546140fc90613d06606460fa86901c6001600160801b0388160204611df4565b60058601556001600160801b0383161561411c5761411c8584848461562a565b5050505050565b604080516001600160a01b038481166024830152306044830152606480830185905283518084039091018152608490920183526020820180517bffffffffffffffffffffffffffffffffffffffffffffffffffffffff166323b872dd60e01b179052915160009283929087169161419a91906164a8565b6000604051808303816000865af19150503d80600081146141d7576040519150601f19603f3d011682016040523d82523d6000602084013e6141dc565b606091505b509150915081801561420657508051158061420657508080602001905181019061420691906164c4565b61411c5760405162461bcd60e51b815260206004820152600360248201526229aa2360e91b6044820152606401610d2f565b6040805161010081018252600080825260208201819052918101829052606081018290526080810182905260a0810182905260c0810182905260e0810191909152825160e084015160009182916142a3916001600160801b031661271060e79290921c607f16020490565b6001600160801b031660408601525b84516001600160801b0316158015906142d957506142d985608001518660c001518661541c565b156140c8576142ef613e608660c0015160801c90565b6001600160801b0316614309613e85876080015160801c90565b6001600160801b0316101561432e57614329613eb0866080015160801c90565b61433f565b61433f613e608660c0015160801c90565b60c08601519092506143519083615292565b9050806001600160801b031685600001516001600160801b031611156143fb57808560000181815161438391906162bd565b6001600160801b0316905250608085015161439e9083615292565b856020018181516143af919061633e565b6001600160801b0390811690915260c08701516143d59250908316608085901b176155fa565b60c086015260808501516143f190613f6784611e018382615292565b608086015261447c565b845160c086015161440b91615395565b608086015190925061441d9083615292565b8560200181815161442e919061633e565b6001600160801b0390811690915260c087015187516144569350909116608085901b176155fa565b60c0860152608085015161447290613f6784611e018382615292565b6080860152600085525b84516001600160801b0316156144ce57845160a08601516144b0916001600160801b0316606460f49290921c603f16020490565b856040018181516144c191906162bd565b6001600160801b03169052505b81856060018181516144e0919061633e565b6001600160801b03169052506142b2565b604080516001600160a01b0385811660248301528481166044830152606480830185905283518084039091018152608490920183526020820180517bffffffffffffffffffffffffffffffffffffffffffffffffffffffff166323b872dd60e01b179052915160009283929088169161456a91906164a8565b6000604051808303816000865af19150503d80600081146145a7576040519150601f19603f3d011682016040523d82523d6000602084013e6145ac565b606091505b50915091508180156145d65750805115806145d65750808060200190518101906145d691906164c4565b6146085760405162461bcd60e51b815260206004820152600360248201526229aa2360e91b6044820152606401610d2f565b505050505050565b600060ff82901c60018114613d83576000611bab565b600081604051602001614657919081516001600160a01b039081168252602092830151169181019190915260400190565b604051602081830303815290604052805190602001209050919050565b6040805182516001600160a01b031660208083019190915283015181830152908201516060820152600090608001614657565b60048401546001600160801b03166000036146db5783546001600160a01b0319163317845560018401839055600060028501555b6146e98460040154826153d0565b600485015560038401546146fd90836153d0565b846003018190555050505050565b600061476f61471e836004015460801c90565b61474761472c856004015490565b613cdb61473d896005015460801c90565b60048a0154611e01565b61475191906162bd565b6005840154608081901c906147659061472c565b611e0191906162bd565b90506147888460050154613d066000611e018560801c90565b84600501819055506147a48360050154613d066000611e018590565b6005840155611bab828261585c565b6000611bab6147c28360801c90565b6147cc8560801c90565b6147d691906162bd565b8385614765565b604080516080810182526000808252602082018190529181018290526060810191909152604080516080810182526000808252602082018190529181018290526060810191909152600061484686613cdb61483c8a6003015460801c90565b60048b0154611e01565b9050604051806080016040528061487288613cdb6148688e6005015460801c90565b60048f0154611e01565b6001600160801b0316815260200161489f88613cdb6148958c6004015460801c90565b60048d0154611e01565b6001600160801b03168152602001826001600160801b03168152602001876001600160801b031681525092506148e46148dc8a6003015460801c90565b8a5490615894565b6001600160801b031683604001516001600160801b031610801561492657506149116148dc8a6003015490565b6001600160801b0316866001600160801b0316105b61495b5760405162461bcd60e51b8152600401610d2f906020808252600490820152634730313160e01b604082015260600190565b604051806080016040528061498883613cdb61497b8d6005015460801c90565b60048e015460801c611e01565b6001600160801b031681526020016149b883613cdb6149ab8c6005015460801c90565b60038d015460801c611e01565b6001600160801b03168152602001826001600160801b031681526020016149e783613cdb6149ab8c6005015490565b6001600160801b03168152509150614a0b614a03896003015490565b895490615894565b6001600160801b031682606001516001600160801b0316108015614a505750614a3b614a03896003015460801c90565b6001600160801b0316816001600160801b0316105b614a855760405162461bcd60e51b8152600401610d2f906020808252600490820152632398189960e11b604082015260600190565b614ab48960030154614aaf8560400151866060015160809190911b6001600160801b039091161790565b6147b3565b60038a0155600489015460408401516060850151614ae1929160801b6001600160801b03909116176147b3565b60048a0155600589015483516020850151614b0b929160801b6001600160801b03909116176147b3565b60058a015560208301518351614b2191906162bd565b6001600160801b03908116845260608401518a54614b4d9290911661271060ee9290921c607f16020490565b6001600160801b03166020840181905260058a0154614b7a91613d0690606460fa8a901c90910204611df4565b60058a015560208301516001600160801b031615614ba257614ba2898460200151878761562a565b614bcc8860030154614aaf8460400151856060015160809190911b6001600160801b039091161790565b6003890155600488015460408301516060840151614bf9929160801b6001600160801b03909116176147b3565b6004890155600588015482516020840151614c23929160801b6001600160801b03909116176147b3565b600589015560208201518251614c3991906162bd565b6001600160801b03908116835260608301518954614c659290911661271060ee9290921c607f16020490565b6001600160801b0316602083018190526005890154614c9291613d0690606460fa8a901c90910204611df4565b6005890155614ca187876158b9565b60208201516001600160801b031615614cc457614cc4888360200151878761562a565b50965096945050505050565b6040805160808101825260008082526020820181905291810182905260608101919091528454614d15906001600160801b03861661271060f59290921c607f16020490565b614d1f90856162bd565b6001600160801b0316606082018190526003860154614d3d91615395565b6001600160801b0316604082015260608101516005860154614d6b9190613cdb9060801c6004890154611e01565b6001600160801b031660208201526060810151614da490614d8c90866162bd565b84906001600160801b0316606460fa9290921c020490565b6001600160801b031680825260058601546020830151614de392613d0691614dcb9161633e565b60208501516001600160801b031660809190911b1790565b6005860155600385015460408201516060830151614e10929160801b6001600160801b03909116176153d0565b6003860155600485015460408201516060830151614e3d929160801b6001600160801b03909116176153d0565b60048601556060810151600090614e5490866162bd565b90506001600160801b03811615614e7157614e718682868661562a565b50949350505050565b6001600160a01b0383163b1561411c57604051630a85bd0160e11b81526001600160a01b0384169063150b7a0290614ebc9088908890879087906004016164e1565b6020604051808303816000875af1925050508015614ef7575060408051601f3d908101601f19168201909252614ef49181019061651d565b60015b614f60573d808015614f25576040519150601f19603f3d011682016040523d82523d6000602084013e614f2a565b606091505b508051600003614f5857604051633250574960e11b81526001600160a01b0385166004820152602401610d2f565b805181602001fd5b6001600160e01b03198116630a85bd0160e11b1461460857604051633250574960e11b81526001600160a01b0385166004820152602401610d2f565b6040805160808101825260008082526020820181905291810182905260608101919091526040518060800160405280614fea86613cdb614fe08b6005015460801c90565b60048c0154611e01565b6001600160801b0316815260200161500d86613cdb61483c8a6004015460801c90565b6001600160801b0316815260200161503086613cdb61483c8a6003015460801c90565b6001600160801b03168152602001856001600160801b0316815250905061506661505e876003015460801c90565b875490615894565b6001600160801b031681604001516001600160801b03161080156150a8575061509361505e876003015490565b6001600160801b0316846001600160801b0316105b6150dd5760405162461bcd60e51b8152600401610d2f906020808252600490820152634730303960e01b604082015260600190565b6151078660030154614aaf8360400151846060015160809190911b6001600160801b039091161790565b6003870155600486015460408201516060830151615134929160801b6001600160801b03909116176147b3565b600487015560058601548151602083015161515e929160801b6001600160801b03909116176147b3565b600587015561516d85856159c1565b60608101518654615192916001600160801b031661271060ee9290921c607f16020490565b6001600160801b031660208201819052156151e9576151d28660050154613d06611df484602001516001600160801b03168761561d90919063ffffffff16565b600587015560208101516151e9908790858561562a565b95945050505050565b606060006151ff83615a24565b600101905060008167ffffffffffffffff81111561521f5761521f6160b1565b6040519080825280601f01601f191660200182016040528015615249576020820181803683370190505b5090508181016020015b600019017f3031323334353637383961626364656600000000000000000000000000000000600a86061a8153600a850494508461525357509392505050565b600061529e8360801c90565b6001600160801b03166000036152b657506000610cc4565b60006152c28460801c90565b6001600160801b0316836001600160801b03166152dc8690565b6001600160801b03166152ef9190616550565b6152f99190616567565b90506001600160801b03811115615311576000615313565b805b949350505050565b60048601546001600160801b031660000361534f5785546001600160a01b0319163317865560018601859055600286018490555b61535d8660030154846153d0565b6003870155600486015461537190836153d0565b6004870155600586015461538590826153d0565b8660050181905550505050505050565b6000826001600160801b03166000036153b057506000610cc4565b6000836001600160801b0316836001600160801b03166152dc8660801c90565b6000611bab6153df8360801c90565b6153e98560801c90565b6153f3919061633e565b611e01848661633e565b600482015461541090608083901b6153d0565b82600401819055505050565b6000836001600160801b0316158061544457506154398360801c90565b6001600160801b0316155b8061545f57506154548260801c90565b6001600160801b0316155b1561546c57506000611bab565b600019828461547b8760801c90565b615485919061657b565b61548f919061657b565b6001600160801b031611156154d15760405162461bcd60e51b81526020600482015260086024820152676f766572666c6f7760c01b6044820152606401610d2f565b6000196154de8360801c90565b6154e88560801c90565b6154f2908761657b565b6154fc919061657b565b6001600160801b0316111561553e5760405162461bcd60e51b81526020600482015260086024820152676f766572666c6f7760c01b6044820152606401610d2f565b6155488260801c90565b6155528460801c90565b61555c908661657b565b615566919061657b565b6001600160801b0316828461557b8760801c90565b615585919061657b565b61558f919061657b565b6001600160801b031610611ba7576000949350505050565b60006103ff60d684901c168082036155c25782915050610cc4565b6155cd81604061657b565b61531390846165a6565b6000611bab6155e68360801c90565b6155f08560801c90565b6153f391906162bd565b6000611bab6156098360801c90565b6156138560801c90565b6147d6919061633e565b606460fa9290921c020490565b60208101516001600160a01b03166157215760006064603f60e285901c166001600160801b03861602046064603f60f486901c166001600160801b0387160204615674919061633e565b60018601546001600160a01b03166000908152600687016020526040812080549293506001600160801b038416929091906156b0908490616297565b909155508190506156d360646001600160801b03871660fa87901c0204866162bd565b6156dd91906162bd565b82516001600160a01b03166000908152600687016020526040812080546001600160801b039390931692909190615715908490616297565b90915550612df7915050565b60018401546001600160a01b031660009081526006850160205260408120805460646001600160801b0387811660f488901c603f160291909104169290615769908490616297565b90915550506064603f60e884901c166001600160801b03851602046001600160801b031684600601600083602001516001600160a01b03166001600160a01b0316815260200190815260200160002060008282546157c79190616297565b90915550503360009081526006850160205260408120805460646001600160801b0387811660e288901c603f160291909104169290615807908490616297565b909155505080516001600160a01b031660009081526006850160205260408120805460646001600160801b0387811660ee88901c603f160291909104169290615851908490616297565b909155505050505050565b6158718260040154613d06611df48460801c90565b6004830155600582015461588890613d0683611df4565b82600501819055505050565b60006103ff60cc84901c168082036158af5782915050610cc4565b61531381846165a6565b600061590b6158fc6158cf856003015460801c90565b6001600160801b0316846001600160801b03166158ed876004015490565b6001600160801b031691020490565b6004850154611e019085615395565b9050600061596d615941615923866005015460801c90565b6001600160801b0316856001600160801b03166158ed886004015490565b611e0161594f876005015490565b6001600160801b0316866001600160801b03166158ed896004015490565b90506159928460040154614aaf6159818590565b60801b6001600160801b0387161790565b600485015560058401546159a690826147b3565b600585015560038401546146fd90614aaf611df48560801c90565b60006159d76158fc6158cf856003015460801c90565b90506159fc8360040154614aaf6159eb8490565b60801b6001600160801b0386161790565b60048401556003830154615a1790614aaf611df48460801c90565b8360030181905550505050565b6000807a184f03e93ff9f4daa797ed6e38ed64bf6a1f0100000000000000008310615a6d577a184f03e93ff9f4daa797ed6e38ed64bf6a1f010000000000000000830492506040015b6d04ee2d6d415b85acef81000000008310615a99576d04ee2d6d415b85acef8100000000830492506020015b662386f26fc100008310615ab757662386f26fc10000830492506010015b6305f5e1008310615acf576305f5e100830492506008015b6127108310615ae357612710830492506004015b60648310615af5576064830492506002015b600a8310610cc45760010192915050565b6001600160e01b031981168114615b1c57600080fd5b50565b600060208284031215615b3157600080fd5b813561531181615b06565b600060208284031215615b4e57600080fd5b5035919050565b60005b83811015615b70578181015183820152602001615b58565b50506000910152565b60008151808452615b91816020860160208601615b55565b601f01601f19169290920160200192915050565b602081526000611bab6020830184615b79565b80356001600160a01b0381168114610de357600080fd5b60008060408385031215615be257600080fd5b615beb83615bb8565b946020939093013593505050565b60008060408385031215615c0c57600080fd5b50508035926020909101359150565b600060208284031215615c2d57600080fd5b611bab82615bb8565b600080600060608486031215615c4b57600080fd5b615c5484615bb8565b9250615c6260208501615bb8565b9150604084013590509250925092565b60008060408385031215615c8557600080fd5b82359150615c9560208401615bb8565b90509250929050565b80356001600160801b0381168114610de357600080fd5b8015158114615b1c57600080fd5b60008060008060008060c08789031215615cdc57600080fd5b8635955060208701359450615cf360408801615c9e565b9350606087013592506080870135615d0a81615cb5565b9150615d1860a08801615bb8565b90509295509295509295565b60008060008060008060c08789031215615d3d57600080fd5b8635955060208701359450615d5460408801615c9e565b935060608701359250615d0a60808801615bb8565b600080600060608486031215615d7e57600080fd5b8335925060208401359150615d9560408501615bb8565b90509250925092565b600080600060608486031215615db357600080fd5b615dbc84615bb8565b95602085013595506040909401359392505050565b600060608284031215615de357600080fd5b50919050565b60008060408385031215615dfc57600080fd5b615e0583615bb8565b91506020830135615e1581615cb5565b809150509250929050565b600080600060608486031215615e3557600080fd5b83359250615e4560208501615c9e565b9150615d9560408501615bb8565b6101008101615e90828580516001600160801b03908116835260208083015182169084015260408083015182169084015260609182015116910152565b82516001600160801b0390811660808401526020840151811660a08401526040840151811660c084015260608401511660e0830152611bab565b60a08101615f06828580516001600160801b03908116835260208083015182169084015260408083015182169084015260609182015116910152565b8260808301529392505050565b60008060208385031215615f2657600080fd5b823567ffffffffffffffff80821115615f3e57600080fd5b818501915085601f830112615f5257600080fd5b813581811115615f6157600080fd5b8660208260051b8501011115615f7657600080fd5b60209290920196919550909350505050565b600060208083016020845280855180835260408601915060408160051b87010192506020870160005b82811015615fdf57603f19888603018452615fcd858351615b79565b94509285019290850190600101615fb1565b5092979650505050505050565b6000806000806080858703121561600257600080fd5b843593506020850135925061601960408601615c9e565b915061602760608601615bb8565b905092959194509250565b610120810161606f828680516001600160801b03908116835260208083015182169084015260408083015182169084015260609182015116910152565b83516001600160801b0390811660808401526020850151811660a08401526040850151811660c084015260609094015190931660e08201526101000152919050565b634e487b7160e01b600052604160045260246000fd5b604051601f8201601f1916810167ffffffffffffffff811182821017156160f0576160f06160b1565b604052919050565b600067ffffffffffffffff821115616112576161126160b1565b50601f01601f191660200190565b6000806000806080858703121561613657600080fd5b61613f85615bb8565b935061614d60208601615bb8565b925060408501359150606085013567ffffffffffffffff81111561617057600080fd5b8501601f8101871361618157600080fd5b803561619461618f826160f8565b6160c7565b8181528860208385010111156161a957600080fd5b8160208401602083013760006020838301015280935050505092959194509250565b60808101610cc4828480516001600160801b03908116835260208083015182169084015260408083015182169084015260609182015116910152565b600080600080600060a0868803121561621f57600080fd5b853594506020860135935061623660408701615bb8565b92506060860135915061624b60808701615bb8565b90509295509295909350565b6000806040838503121561626a57600080fd5b61627383615bb8565b9150615c9560208401615bb8565b634e487b7160e01b600052601160045260246000fd5b80820180821115610cc457610cc4616281565b81810381811115610cc457610cc4616281565b6001600160801b038281168282160390808211156129ab576129ab616281565b6000606082840312156162ef57600080fd5b6040516060810181811067ffffffffffffffff82111715616312576163126160b1565b60405261631e83615bb8565b815260208301356020820152604083013560408201528091505092915050565b6001600160801b038181168382160190808211156129ab576129ab616281565b634e487b7160e01b600052603260045260246000fd5b6000808335601e1984360301811261638b57600080fd5b83018035915067ffffffffffffffff8211156163a657600080fd5b6020019150368190038213156163bb57600080fd5b9250929050565b8183823760009101908152919050565b6000602082840312156163e457600080fd5b815167ffffffffffffffff8111156163fb57600080fd5b8201601f8101841361640c57600080fd5b805161641a61618f826160f8565b81815285602083850101111561642f57600080fd5b6151e9826020830160208601615b55565b7f687474703a2f2f7777772e74742d737761702e636f6d2f6e66743732313f69648152603d60f81b602082015260008251616482816021850160208701615b55565b9190910160210192915050565b60ff8181168382160190811115610cc457610cc4616281565b600082516164ba818460208701615b55565b9190910192915050565b6000602082840312156164d657600080fd5b815161531181615cb5565b60006001600160a01b038087168352808616602084015250836040830152608060608301526165136080830184615b79565b9695505050505050565b60006020828403121561652f57600080fd5b815161531181615b06565b634e487b7160e01b600052601260045260246000fd5b8082028115828204841417610cc457610cc4616281565b6000826165765761657661653a565b500490565b6001600160801b0381811683821602808216919082811461659e5761659e616281565b505092915050565b60006001600160801b03808416806165c0576165c061653a565b9216919091049291505056fea264697066735822122095e549b362c919640c752a8d4b1050d38a76214e58f56c803d4f44aba8d471cc64736f6c63430008180033","linkReferences":{}},"methodIdentifiers":{"addbanlist(address)":"b153b920","addreferer(address)":"8bdde5d3","approve(address,uint256)":"095ea7b3","balanceOf(address)":"70a08231","buyGood(uint256,uint256,uint128,uint256,bool,address)":"578496ab","buyGoodForPay(uint256,uint256,uint128,uint256,address,address)":"7b43e738","changeGoodOwner(uint256,address)":"2a7c5a91","changeProofOwner(uint256,address)":"99e23fc2","check_banlist(address)":"fc5f8dd0","collectNormalProofFee(uint256)":"9c7b9140","collectProtocolFee(uint256)":"0292eb4a","collectValueProofFee(uint256)":"42ff43b1","customerno(address)":"c3a2b159","customernum()":"40430a49","disinvestNormalGood(uint256,uint256,uint128,address)":"ad864a79","disinvestNormalProof(uint256,uint128,address)":"a4500ff3","disinvestValueGood(uint256,uint128,address)":"c138f7a9","disinvestValueProof(uint256,uint128,address)":"c16b80fe","getApproved(uint256)":"081812fc","getGoodIdByAddress(address,uint256)":"a92a1bc9","getGoodState(uint256)":"a6f6a980","getGoodsFee(uint256,address)":"56b7d94c","getProofId((address,uint256,uint256))":"9caa637b","getProofState(uint256)":"3f117740","goodnum()":"6ab107f9","initMetaGood(address,uint256,uint256)":"97924ead","initNormalGood(uint256,uint256,address,uint256,address)":"cbb2aabc","investNormalGood(uint256,uint256,uint128,address)":"e1f685e8","investValueGood(uint256,uint128,address)":"a64d6c9c","isApprovedForAll(address,address)":"e985e9c5","marketconfig()":"402f5ab5","marketcreator()":"3d995173","multicall(bytes[])":"ac9650d8","name()":"06fdde03","ownerOf(uint256)":"6352211e","payGood(uint256,uint256,address)":"920acbb8","proofseq(bytes32)":"430b9be7","relations(address)":"161ce5cb","removebanlist(address)":"9551177a","safeTransferFrom(address,address,uint256)":"42842e0e","safeTransferFrom(address,address,uint256,bytes)":"b88d4fde","setApprovalForAll(address,bool)":"a22cb465","setMarketConfig(uint256)":"45818e4c","supportsInterface(bytes4)":"01ffc9a7","symbol()":"95d89b41","tokenByIndex(uint256)":"4f6ccce7","tokenOfOwnerByIndex(address,uint256)":"2f745c59","tokenURI(uint256)":"c87b56dd","totalSupply()":"18160ddd","transferFrom(address,address,uint256)":"23b872dd","updateGoodConfig(uint256,uint256)":"144aeb83","updatetoNormalGood(uint256)":"14484e10","updatetoValueGood(uint256)":"0a25dcff"},"id":1}