{"abi":[{"type":"constructor","inputs":[{"name":"_marketconfig","type":"uint256","internalType":"uint256"},{"name":"_officialTokenContract","type":"address","internalType":"address"},{"name":"_marketcreator","type":"address","internalType":"address"},{"name":"_securitykeeper","type":"address","internalType":"address"}],"stateMutability":"nonpayable"},{"type":"function","name":"addbanlist","inputs":[{"name":"_user","type":"address","internalType":"address"}],"outputs":[{"name":"","type":"bool","internalType":"bool"}],"stateMutability":"nonpayable"},{"type":"function","name":"buyGood","inputs":[{"name":"_goodid1","type":"address","internalType":"address"},{"name":"_goodid2","type":"address","internalType":"address"},{"name":"_swapQuantity","type":"uint128","internalType":"uint128"},{"name":"_limitPrice","type":"uint256","internalType":"uint256"},{"name":"_istotal","type":"bool","internalType":"bool"},{"name":"_referal","type":"address","internalType":"address"},{"name":"data","type":"bytes","internalType":"bytes"}],"outputs":[{"name":"goodid2Quantity_","type":"uint128","internalType":"uint128"},{"name":"goodid2FeeQuantity_","type":"uint128","internalType":"uint128"}],"stateMutability":"payable"},{"type":"function","name":"changeGoodOwner","inputs":[{"name":"_goodid","type":"address","internalType":"address"},{"name":"_to","type":"address","internalType":"address"}],"outputs":[],"stateMutability":"nonpayable"},{"type":"function","name":"changemarketcreator","inputs":[{"name":"_newmarketor","type":"address","internalType":"address"}],"outputs":[],"stateMutability":"nonpayable"},{"type":"function","name":"collectCommission","inputs":[{"name":"_goodid","type":"address[]","internalType":"address[]"}],"outputs":[],"stateMutability":"nonpayable"},{"type":"function","name":"collectProof","inputs":[{"name":"_proofid","type":"uint256","internalType":"uint256"},{"name":"_gater","type":"address","internalType":"address"}],"outputs":[{"name":"profit_","type":"uint256","internalType":"uint256"}],"stateMutability":"nonpayable"},{"type":"function","name":"disinvestProof","inputs":[{"name":"_proofid","type":"uint256","internalType":"uint256"},{"name":"_goodQuantity","type":"uint128","internalType":"uint128"},{"name":"_gater","type":"address","internalType":"address"}],"outputs":[{"name":"","type":"bool","internalType":"bool"}],"stateMutability":"nonpayable"},{"type":"function","name":"flashFee","inputs":[{"name":"token","type":"address","internalType":"address"},{"name":"amount","type":"uint256","internalType":"uint256"}],"outputs":[{"name":"","type":"uint256","internalType":"uint256"}],"stateMutability":"view"},{"type":"function","name":"flashLoan","inputs":[{"name":"receiver","type":"address","internalType":"contract IERC3156FlashBorrower"},{"name":"token","type":"address","internalType":"address"},{"name":"amount","type":"uint256","internalType":"uint256"},{"name":"data","type":"bytes","internalType":"bytes"}],"outputs":[{"name":"","type":"bool","internalType":"bool"}],"stateMutability":"nonpayable"},{"type":"function","name":"getGoodState","inputs":[{"name":"goodkey","type":"address","internalType":"address"}],"outputs":[{"name":"","type":"tuple","internalType":"struct S_GoodTmpState","components":[{"name":"goodConfig","type":"uint256","internalType":"uint256"},{"name":"owner","type":"address","internalType":"address"},{"name":"currentState","type":"uint256","internalType":"uint256"},{"name":"investState","type":"uint256","internalType":"uint256"},{"name":"feeQuantityState","type":"uint256","internalType":"uint256"}]}],"stateMutability":"view"},{"type":"function","name":"getProofState","inputs":[{"name":"proofid","type":"uint256","internalType":"uint256"}],"outputs":[{"name":"","type":"tuple","internalType":"struct S_ProofState","components":[{"name":"currentgood","type":"address","internalType":"address"},{"name":"valuegood","type":"address","internalType":"address"},{"name":"state","type":"uint256","internalType":"uint256"},{"name":"invest","type":"uint256","internalType":"uint256"},{"name":"valueinvest","type":"uint256","internalType":"uint256"}]}],"stateMutability":"view"},{"type":"function","name":"goodWelfare","inputs":[{"name":"goodid","type":"address","internalType":"address"},{"name":"welfare","type":"uint128","internalType":"uint128"},{"name":"data","type":"bytes","internalType":"bytes"}],"outputs":[],"stateMutability":"payable"},{"type":"function","name":"initGood","inputs":[{"name":"_valuegood","type":"address","internalType":"address"},{"name":"_initial","type":"uint256","internalType":"uint256"},{"name":"_erc20address","type":"address","internalType":"address"},{"name":"_goodConfig","type":"uint256","internalType":"uint256"},{"name":"_normaldata","type":"bytes","internalType":"bytes"},{"name":"_valuedata","type":"bytes","internalType":"bytes"}],"outputs":[{"name":"","type":"bool","internalType":"bool"}],"stateMutability":"payable"},{"type":"function","name":"initMetaGood","inputs":[{"name":"_erc20address","type":"address","internalType":"address"},{"name":"_initial","type":"uint256","internalType":"uint256"},{"name":"_goodConfig","type":"uint256","internalType":"uint256"},{"name":"data","type":"bytes","internalType":"bytes"}],"outputs":[{"name":"","type":"bool","internalType":"bool"}],"stateMutability":"payable"},{"type":"function","name":"investGood","inputs":[{"name":"_togood","type":"address","internalType":"address"},{"name":"_valuegood","type":"address","internalType":"address"},{"name":"_quantity","type":"uint128","internalType":"uint128"},{"name":"data1","type":"bytes","internalType":"bytes"},{"name":"data2","type":"bytes","internalType":"bytes"}],"outputs":[{"name":"","type":"bool","internalType":"bool"}],"stateMutability":"payable"},{"type":"function","name":"ishigher","inputs":[{"name":"goodid","type":"address","internalType":"address"},{"name":"valuegood","type":"address","internalType":"address"},{"name":"compareprice","type":"uint256","internalType":"uint256"}],"outputs":[{"name":"","type":"bool","internalType":"bool"}],"stateMutability":"view"},{"type":"function","name":"marketconfig","inputs":[],"outputs":[{"name":"","type":"uint256","internalType":"uint256"}],"stateMutability":"view"},{"type":"function","name":"marketcreator","inputs":[],"outputs":[{"name":"","type":"address","internalType":"address"}],"stateMutability":"view"},{"type":"function","name":"maxFlashLoan","inputs":[{"name":"good","type":"address","internalType":"address"}],"outputs":[{"name":"","type":"uint256","internalType":"uint256"}],"stateMutability":"view"},{"type":"function","name":"modifyGoodConfig","inputs":[{"name":"_goodid","type":"address","internalType":"address"},{"name":"_goodConfig","type":"uint256","internalType":"uint256"}],"outputs":[{"name":"","type":"bool","internalType":"bool"}],"stateMutability":"nonpayable"},{"type":"function","name":"payGood","inputs":[{"name":"_goodid","type":"address","internalType":"address"},{"name":"_payquanity","type":"uint128","internalType":"uint128"},{"name":"_recipent","type":"address","internalType":"address"},{"name":"transdata","type":"bytes","internalType":"bytes"}],"outputs":[{"name":"","type":"bool","internalType":"bool"}],"stateMutability":"payable"},{"type":"function","name":"queryCommission","inputs":[{"name":"_goodid","type":"address[]","internalType":"address[]"},{"name":"_recipent","type":"address","internalType":"address"}],"outputs":[{"name":"","type":"uint256[]","internalType":"uint256[]"}],"stateMutability":"view"},{"type":"function","name":"removeMarketor","inputs":[{"name":"_user","type":"address","internalType":"address"}],"outputs":[],"stateMutability":"nonpayable"},{"type":"function","name":"removeSecurityKeeper","inputs":[],"outputs":[],"stateMutability":"nonpayable"},{"type":"function","name":"removebanlist","inputs":[{"name":"_user","type":"address","internalType":"address"}],"outputs":[{"name":"","type":"bool","internalType":"bool"}],"stateMutability":"nonpayable"},{"type":"function","name":"securityKeeper","inputs":[{"name":"token","type":"address","internalType":"address"},{"name":"amount","type":"uint256","internalType":"uint256"}],"outputs":[],"stateMutability":"nonpayable"},{"type":"function","name":"setMarketConfig","inputs":[{"name":"_marketconfig","type":"uint256","internalType":"uint256"}],"outputs":[{"name":"","type":"bool","internalType":"bool"}],"stateMutability":"nonpayable"},{"type":"function","name":"setMarketor","inputs":[{"name":"_newmarketor","type":"address","internalType":"address"}],"outputs":[],"stateMutability":"nonpayable"},{"type":"function","name":"updateGoodConfig","inputs":[{"name":"_goodid","type":"address","internalType":"address"},{"name":"_goodConfig","type":"uint256","internalType":"uint256"}],"outputs":[{"name":"","type":"bool","internalType":"bool"}],"stateMutability":"nonpayable"},{"type":"function","name":"userConfig","inputs":[{"name":"","type":"address","internalType":"address"}],"outputs":[{"name":"","type":"uint256","internalType":"uint256"}],"stateMutability":"view"},{"type":"event","name":"e_buyGood","inputs":[{"name":"sellgood","type":"address","indexed":true,"internalType":"address"},{"name":"forgood","type":"address","indexed":true,"internalType":"address"},{"name":"fromer","type":"address","indexed":false,"internalType":"address"},{"name":"swapvalue","type":"uint128","indexed":false,"internalType":"uint128"},{"name":"sellgoodstate","type":"uint256","indexed":false,"internalType":"uint256"},{"name":"forgoodstate","type":"uint256","indexed":false,"internalType":"uint256"}],"anonymous":false},{"type":"event","name":"e_changegoodowner","inputs":[{"name":"goodid","type":"address","indexed":false,"internalType":"address"},{"name":"to","type":"address","indexed":false,"internalType":"address"}],"anonymous":false},{"type":"event","name":"e_changemarketcreator","inputs":[{"name":"_newmarketor","type":"address","indexed":false,"internalType":"address"}],"anonymous":false},{"type":"event","name":"e_collectProof","inputs":[{"name":"_proofNo","type":"uint256","indexed":true,"internalType":"uint256"},{"name":"_normalGoodNo","type":"address","indexed":false,"internalType":"address"},{"name":"_valueGoodNo","type":"address","indexed":false,"internalType":"address"},{"name":"_profit","type":"uint256","indexed":false,"internalType":"uint256"}],"anonymous":false},{"type":"event","name":"e_collectProtocolFee","inputs":[{"name":"goodid","type":"address","indexed":false,"internalType":"address"},{"name":"feeamount","type":"uint256","indexed":false,"internalType":"uint256"}],"anonymous":false},{"type":"event","name":"e_collectcommission","inputs":[{"name":"_gooid","type":"address[]","indexed":false,"internalType":"address[]"},{"name":"_commisionamount","type":"uint256[]","indexed":false,"internalType":"uint256[]"}],"anonymous":false},{"type":"event","name":"e_disinvestProof","inputs":[{"name":"_proofNo","type":"uint256","indexed":true,"internalType":"uint256"},{"name":"_normalGoodNo","type":"address","indexed":false,"internalType":"address"},{"name":"_valueGoodNo","type":"address","indexed":false,"internalType":"address"},{"name":"_value","type":"uint256","indexed":false,"internalType":"uint256"},{"name":"_normalgood","type":"uint256","indexed":false,"internalType":"uint256"},{"name":"_valuegood","type":"uint256","indexed":false,"internalType":"uint256"},{"name":"_profit","type":"uint256","indexed":false,"internalType":"uint256"}],"anonymous":false},{"type":"event","name":"e_enpower","inputs":[{"name":"_goodid","type":"uint256","indexed":false,"internalType":"uint256"},{"name":"_valuegood","type":"uint256","indexed":false,"internalType":"uint256"},{"name":"_quantity","type":"uint256","indexed":false,"internalType":"uint256"}],"anonymous":false},{"type":"event","name":"e_goodWelfare","inputs":[{"name":"goodid","type":"address","indexed":false,"internalType":"address"},{"name":"welfare","type":"uint128","indexed":false,"internalType":"uint128"}],"anonymous":false},{"type":"event","name":"e_initGood","inputs":[{"name":"_proofNo","type":"uint256","indexed":false,"internalType":"uint256"},{"name":"_goodid","type":"address","indexed":false,"internalType":"address"},{"name":"_valuegoodNo","type":"address","indexed":false,"internalType":"address"},{"name":"_goodConfig","type":"uint256","indexed":false,"internalType":"uint256"},{"name":"_construct","type":"uint256","indexed":false,"internalType":"uint256"},{"name":"_normalinitial","type":"uint256","indexed":false,"internalType":"uint256"},{"name":"_value","type":"uint256","indexed":false,"internalType":"uint256"}],"anonymous":false},{"type":"event","name":"e_initMetaGood","inputs":[{"name":"_proofNo","type":"uint256","indexed":false,"internalType":"uint256"},{"name":"_goodid","type":"address","indexed":false,"internalType":"address"},{"name":"_construct","type":"uint256","indexed":false,"internalType":"uint256"},{"name":"_goodConfig","type":"uint256","indexed":false,"internalType":"uint256"},{"name":"_initial","type":"uint256","indexed":false,"internalType":"uint256"}],"anonymous":false},{"type":"event","name":"e_investGood","inputs":[{"name":"_proofNo","type":"uint256","indexed":true,"internalType":"uint256"},{"name":"_normalgoodid","type":"address","indexed":false,"internalType":"address"},{"name":"_valueGoodNo","type":"address","indexed":false,"internalType":"address"},{"name":"_value","type":"uint256","indexed":false,"internalType":"uint256"},{"name":"_invest","type":"uint256","indexed":false,"internalType":"uint256"},{"name":"_valueinvest","type":"uint256","indexed":false,"internalType":"uint256"}],"anonymous":false},{"type":"event","name":"e_modifiedUserConfig","inputs":[{"name":"_user","type":"address","indexed":false,"internalType":"address"},{"name":"config","type":"uint256","indexed":false,"internalType":"uint256"}],"anonymous":false},{"type":"event","name":"e_modifyGoodConfig","inputs":[{"name":"_goodid","type":"address","indexed":false,"internalType":"address"},{"name":"_goodconfig","type":"uint256","indexed":false,"internalType":"uint256"}],"anonymous":false},{"type":"event","name":"e_setMarketConfig","inputs":[{"name":"_marketconfig","type":"uint256","indexed":false,"internalType":"uint256"}],"anonymous":false},{"type":"event","name":"e_transferdel","inputs":[{"name":"delproofid","type":"uint256","indexed":false,"internalType":"uint256"},{"name":"existsproofid","type":"uint256","indexed":false,"internalType":"uint256"}],"anonymous":false},{"type":"event","name":"e_updateGoodConfig","inputs":[{"name":"_goodid","type":"address","indexed":false,"internalType":"address"},{"name":"_goodConfig","type":"uint256","indexed":false,"internalType":"uint256"}],"anonymous":false},{"type":"error","name":"ERC20PermitFailed","inputs":[]},{"type":"error","name":"ERC20TransferFailed","inputs":[]},{"type":"error","name":"ERC3156ExceededMaxLoan","inputs":[{"name":"maxLoan","type":"uint256","internalType":"uint256"}]},{"type":"error","name":"ERC3156InvalidReceiver","inputs":[{"name":"receiver","type":"address","internalType":"address"}]},{"type":"error","name":"ERC3156UnsupportedToken","inputs":[{"name":"token","type":"address","internalType":"address"}]},{"type":"error","name":"NativeTransferFailed","inputs":[]},{"type":"error","name":"noEnoughOutputError","inputs":[]}],"bytecode":{"object":"0x60a0346100ce57601f6148bd38819003918201601f19168301916001600160401b038311848410176100d2578084926080946040528339810103126100ce5780519061004d602082016100e6565b91610066606061005f604085016100e6565b93016100e6565b6080939093525f55600480546001600160a01b039283166001600160a01b031991821617909155600580549290931691161790556040516147c290816100fb8239608051818181610cab01528181611254015281816117b00152818161227c01526127af0152f35b5f80fd5b634e487b7160e01b5f52604160045260245ffd5b51906001600160a01b03821682036100ce5756fe60806040526004361015610011575f80fd5b5f3560e01c806306cf4e7f146101f457806308238466146101ef5780630d2700ab146101ea578063102e5c27146101e557806313a124c3146101e05780631412723a146101db5780633d995173146101d65780633f117740146101d1578063402f5ab5146101cc57806341e12373146101c757806344436184146101c257806345818e4c146101bd57806351ff9a16146101b85780635cffe9de146101b35780635f35b0b3146101ae5780635f755d65146101a9578063613255ab146101a45780639551177a1461019f5780639b2227941461019a578063a06ad0e814610195578063a3b74a4914610190578063a676a6001461018b578063b153b92014610186578063b1efb92114610181578063c9544f181461017c578063cc00da2d14610177578063d9d98ce414610172578063f29771cb1461016d578063f4662f20146101685763f878e80914610163575f80fd5b611ab9565b6116e3565b611643565b6115f7565b611594565b611560565b6114dd565b611469565b611129565b611084565b61100a565b610f54565b610e98565b610e67565b610dee565b610db3565b610d1f565b610b8f565b610b2f565b610a62565b6109bf565b6109a3565b6108e5565b6108bd565b61083e565b6107b0565b610741565b6105e1565b610479565b61034b565b6001600160a01b0381160361020a57565b5f80fd5b60a4359061021b826101f9565b565b6001600160801b0381160361020a57565b634e487b7160e01b5f52604160045260245ffd5b60a081019081106001600160401b0382111761025d57604052565b61022e565b604081019081106001600160401b0382111761025d57604052565b90601f801991011681019081106001600160401b0382111761025d57604052565b6040519061021b60a08361027d565b6040519061021b60608361027d565b6040519061021b6101008361027d565b6040519061021b60408361027d565b6040519061021b60808361027d565b6001600160401b03811161025d57601f01601f191660200190565b81601f8201121561020a5780359061031c826102ea565b9261032a604051948561027d565b8284526020838301011161020a57815f926020809301838601378301015290565b606036600319011261020a57600435610363816101f9565b60243561036f8161021d565b6044356001600160401b03811161020a5761038e903690600401610305565b915f8051602061474d8339815191525c6001600160a01b031661020a57335f8051602061474d8339815191525d6001600160a01b0381165f908152600160205260409020600401546001606d1b906001600160801b03906103f390859060801c611ea2565b161161020a577f0dc5e2150c5754dc0bcd8d76ca2d23850fc9a2a3115c69bb4fbdbedc25074a0092610430906001600160801b038416338461298e565b610450600461043e83610d9a565b015461044a8460801b90565b906129a4565b600461045b83610d9a565b015561046c60405192839283611ebb565b0390a161047761297c565b005b3461020a57602036600319011261020a5761055f600435610499816101f9565b6104a1611ede565b506001600160a01b038181165f9081526001602081905260409091208054910154909291169060026104d282610d9a565b015461050d60046104ef60036104e786610d9a565b015494610d9a565b0154936104fa61029e565b9586526001600160a01b03166020860152565b6040840152606083015260808201526040519182918291909160808060a08301948051845260018060a01b03602082015116602085015260408101516040850152606081015160608501520151910152565b0390f35b6001600160401b03811161025d5760051b60200190565b9080601f8301121561020a57813561059181610563565b9261059f604051948561027d565b81845260208085019260051b82010192831161020a57602001905b8282106105c75750505090565b6020809183356105d6816101f9565b8152019101906105ba565b3461020a57602036600319011261020a576004356001600160401b03811161020a5761061190369060040161057a565b610627815161062260648210611e87565b611f08565b5f5b825181101561070a5760019061067333600561065d61065861064b868a611f3a565b516001600160a01b031690565b610d9a565b019060018060a01b03165f5260205260405f2090565b5461067e8285611f3a565b52600261068b8285611f3a565b5110156106a5575f61069d8285611f3a565b525b01610629565b6106b86106b28285611f3a565b51611f62565b6106c28285611f3a565b526106e26106dc33600561065d61065861064b878b611f3a565b60019055565b6107056106f261064b8387611f3a565b6106fc8386611f3a565b519033906129cd565b61069f565b507f477bb716eacccc001de50dcdd6e25241283d080e6afb27443908b20f4e738b5e9161073c60405192839283611f70565b0390a1005b3461020a57602036600319011261020a5760043561075e816101f9565b6004546001600160a01b0316330361020a576001600160a01b0381165f908152600360205260409020805460021781555f8051602061472d83398151915291905b549061073c60405192839283611fca565b60e036600319011261020a576004356107c8816101f9565b602435906107d5826101f9565b6044356107e18161021d565b608435606435811515820361020a576107f861020e565b9260c435956001600160401b03871161020a5761081c610822973690600401610305565b95611fe5565b604080516001600160801b039384168152919092166020820152f35b3461020a57606036600319011261020a5761055f6108a1600435610861816101f9565b60243561086d816101f9565b6044356001600160a01b039283165f9081526001602052604080822060029081015494909516825290209092015490612d93565b60405190151581529081906020820190565b5f91031261020a57565b3461020a575f36600319011261020a576004546040516001600160a01b039091168152602090f35b3461020a57602036600319011261020a57600435610901611ede565b505f52600260205261055f60405f2060046040519161091f83610242565b60018060a01b03815416835260018060a01b0360018201541660208401526002810154604084015260038101546060840152015460808201526040519182918291909160808060a083019460018060a01b03815116845260018060a01b03602082015116602085015260408101516040850152606081015160608501520151910152565b3461020a575f36600319011261020a5760205f54604051908152f35b3461020a57604036600319011261020a576004356109dc816101f9565b6024356109e8816101f9565b335f526003602052600260405f2054161561020a577f42e3c955499470d3dc1078d90519d90691c504c8856ea058daf2c1436c2dab4c9160018060a01b0381165f526001602052610a3f82600160405f2001612325565b604080516001600160a01b0392831681529290911660208301528190810161073c565b3461020a57604036600319011261020a57600435610a7f816101f9565b6005546001600160a01b0316330361020a576104779060018060a01b0381165f526001602052610b0e610ade610ad2610abf600460405f20015460801c90565b6004610aca86610d9a565b01549061230c565b6001600160801b031690565b5f6004610aea85610d9a565b0155610b086002610afa85610d9a565b01546001600160801b031690565b90612344565b905f6002610b1b83610d9a565b01556005546001600160a01b0316906129cd565b3461020a57602036600319011261020a57600480549035906001600160a01b0316330361020a576020817fbd209961024f2694b0afb3c8badd20b6477abb77b336b16892c3fa4b906d323c925f55604051908152a1602060405160018152f35b608036600319011261020a57600435610ba7816101f9565b602435906044356064356001600160401b03811161020a57610bcd903690600401610305565b6004549091906001600160a01b0316330361020a57600160ff1b81161561020a577f8f2eb922ee1b2f92e0051f7949a8c191264807725a1e435e91abebd28583830a936001600160801b03811692610d109290610c2c9085338861298e565b610c3f8183610c3a88610d9a565b612df3565b610c50610c4b86610d9a565b612e18565b610ccf610c7b610c5e6102ad565b3381526001600160a01b03881660208201525f6040820152612e4f565b94610ca8610c91875f52600260205260405f2090565b918560801c9289610ca28560801b90565b91612e95565b337f0000000000000000000000000000000000000000000000000000000000000000612f47565b604080519586526001600160a01b0390961660208601526001600160801b0316948401949094526060830193909352608082019290925290819060a0820190565b0390a160405160018152602090f35b3461020a57608036600319011261020a57600435610d3c816101f9565b60243590610d49826101f9565b604435606435916001600160401b03831161020a573660238401121561020a578260040135916001600160401b03831161020a57366024848601011161020a5761055f9460246108a19501926124b8565b6001600160a01b03165f90815260016020526040902090565b3461020a57602036600319011261020a57600435610dd0816101f9565b60018060a01b03165f526003602052602060405f2054604051908152f35b60c036600319011261020a57600435610e06816101f9565b6024359060443590610e17826101f9565b6064356084356001600160401b03811161020a57610e39903690600401610305565b9060a435936001600160401b03851161020a5761055f95610e616108a1963690600401610305565b9461260a565b3461020a57602036600319011261020a576020610e90600435610e89816101f9565b30906138e8565b604051908152f35b3461020a57602036600319011261020a57600435610eb5816101f9565b335f526003602052600260405f2054161561020a576001600160a01b0381165f90815260036020526040908190208054600119169081905590515f8051602061472d8339815191529290918291610d10919083611fca565b90602080835192838152019201905f5b818110610f2a5750505090565b8251845260209384019390920191600101610f1d565b906020610f51928181520190610f0d565b90565b3461020a57604036600319011261020a576004356001600160401b03811161020a57610f8490369060040161057a565b60243590610f91826101f9565b8051606481101561020a57610fa590611f08565b915f5b8251811015610ffc576001906001600160a01b03610fc68286611f3a565b51165f908152602083815260408083206001600160a01b0387168452600501909152902054610ff58287611f3a565b5201610fa8565b6040518061055f8682610f40565b3461020a57602036600319011261020a57600435611027816101f9565b600454906001600160a01b038216330361020a576001600160a01b03166001600160a01b03199190911681176004556040519081527fa8d3850ce581f2add46670c1408b76ca1d0d4ef627eed4a89802ff670940082d90602090a1005b3461020a57604036600319011261020a576004356110a1816101f9565b6001600160a01b038181165f81815260016020819052604090912001546024359216330361020a575f52600160205260405f20916307ffffff60e51b83541660018060e51b0383168101809111611124577f075a13b9dbfb2e30d678551b8c2a4f9ede7468ca5273fa902a41d0e5775666699355610d1060405192839283611fca565b611e8e565b3461020a57604036600319011261020a57600435602435611149816101f9565b5f8051602061474d8339815191525c6001600160a01b031661020a57335f8051602061474d8339815191525d611200826111fa61119e611191835f52600260205260405f2090565b546001600160a01b031690565b6111f56111c660016111b8865f52600260205260405f2090565b01546001600160a01b031690565b6111e56111d16102ad565b338152936001600160a01b03166020850152565b6001600160a01b03166040830152565b612e4f565b14611e87565b61121760016111b8845f52600260205260405f2090565b9161122d611191825f52600260205260405f2090565b6040805163b88e6d6360e01b81523360048201529491939190856024816001600160a01b037f0000000000000000000000000000000000000000000000000000000000000000165afa9182156114645761055f957f1129f35303e34d7efabdbd85614ed662beb4fc6942852b7a3e5a4f92074cbf3193611349925f925f92611430575b506001600160a01b0381165f9081526003602052604090206112d6905b54600116151590565b1561142a575081905b6001600160a01b03828116908216036114255750815b6001600160a01b0381165f908152600360205260409020611315906112cd565b1561141e575b61132488610d9a565b9161132e86610d9a565b611340895f52600260205260405f2090565b905f5494613952565b9361135933600561065d84610d9a565b54600281116113f8575b506001600160a01b0382166113ae575b604080516001600160a01b0392831681529290911660208301528101849052606090a261139e61297c565b6040519081529081906020820190565b6113bd33600561065d85610d9a565b54600281116113cd575b50611373565b6113eb6113f2916113e66106dc33600561065d89610d9a565b611f62565b33846129cd565b5f6113c7565b611411611418916113e66106dc33600561065d88610d9a565b33836129cd565b5f611363565b508161131b565b6112f5565b906112df565b909250611455915060403d60401161145d575b61144d818361027d565b810190612929565b90915f6112b0565b503d611443565b612301565b3461020a57602036600319011261020a57600435611486816101f9565b335f526003602052600260405f2054161561020a576001600160a01b0381165f908152600360205260409081902080546001179081905590515f8051602061472d8339815191529290918291610d10919083611fca565b3461020a57604036600319011261020a576004356114fa816101f9565b602435335f526003602052600260405f2054161561020a577fe40cf68f61d9a4e510244481f5aa34ba68de31cf3f9aa360604d688115d640c89160018060a01b0381165f5260016020526115518260405f20612e35565b610d1060405192839283611fca565b3461020a575f36600319011261020a576004546001600160a01b0316330361020a57600580546001600160a01b0319169055005b3461020a57602036600319011261020a576004356115b1816101f9565b6004546001600160a01b0316330361020a576001600160a01b0381165f90815260036020526040902080546002191681555f8051602061472d833981519152919061079f565b3461020a57604036600319011261020a576020610e90600435611619816101f9565b6001600160a01b03165f90815260018352604090205461271060df9190911c603f16602435020490565b608036600319011261020a5760043561165b816101f9565b602435906116688261021d565b604435611674816101f9565b6064356001600160401b03811161020a57611693903690600401610305565b6001600160a01b0383166001036116c457506116b8926001600160801b0316916129cd565b60405160018152602090f35b6116de9390926001600160801b039091169190339061325d565b6116b8565b3461020a57606036600319011261020a576004356024356117038161021d565b60443590611710826101f9565b5f8051602061474d8339815191525c6001600160a01b031661020a57335f8051602061474d8339815191525d611758836111fa61119e611191835f52600260205260405f2090565b61176061294e565b5061176961294e565b5061177f611191845f52600260205260405f2090565b61179660016111b8865f52600260205260405f2090565b6040805163b88e6d6360e01b8152336004820152949193917f000000000000000000000000000000000000000000000000000000000000000091866024816001600160a01b0386165afa9586156114645761190d6119f994868a89611908611948967f63741ac8918076a6393e6e12659431a4927b53e16190a6b00af6a06697d868b89d611942995f925f92611a95575b506001600160a01b0381165f908152600360205260409020611848906112cd565b15611a8d57905b6001600160a01b0382811690821603611a885750815b6001600160a01b0381165f908152600360205260409020611885906112cd565b15611a74576118b26118a361189d6118f39399610d9a565b96610d9a565b965f52600260205260405f2090565b966118e35f54936118d36118c461029e565b6001600160801b03909c168c52565b6001600160a01b031660208b0152565b6001600160a01b03166040890152565b60608701526001600160a01b03166080860152565b613aa1565b809294919561192133600561065d8c610d9a565b5460018111611a4d575b506001600160a01b038a16611a04575b3390614008565b60801b90565b60208201519092906119ba90611981906001600160801b03165b60408501516001600160801b03165b60018060801b03169060801b1790565b916119716119ac61199e611962602085015160018060801b031690565b95516001600160801b031690565b91516001600160801b031690565b604080516001600160a01b039788168152979096166020880152948601929092526060850191909152608084015260a0830191909152819060c0820190565b0390a26116b861297c565b611a1333600561065d8d610d9a565b548a60018211611a25575b505061193b565b611a46916113e66106dc611a3f93600561065d3392610d9a565b338c6129cd565b5f8a611a1e565b611a67611a6e916113e66106dc8d600561065d3392610d9a565b338b6129cd565b5f61192b565b506118f36118b26118a361189d8599610d9a565b611865565b50819061184f565b909250611ab1915060403d60401161145d5761144d818361027d565b90915f611827565b60a036600319011261020a57600435611ad1816101f9565b602435611add816101f9565b60443590611aea8261021d565b6064356001600160401b03811161020a57611b09903690600401610305565b926084356001600160401b03811161020a57611b29903690600401610305565b5f8051602061474d8339815191525c6001600160a01b031661020a57335f8051602061474d8339815191525d611bc8611b60612886565b95611b69612886565b956001606d1b6001600160801b03611b8d836002611b868a610d9a565b0154611ea2565b16111580611e71575b80611e3c575b611ba590611e87565b611bb88882611bb388610d9a565b6137b6565b6001600160801b0316338561298e565b6001600160a01b0383161590848215611d89575b5050611be66102ad565b3381526001600160a01b03831660208201526001600160a01b0384166040820152611c1090612e4f565b94611c23865f52600260205260405f2090565b6040820180519196909390916001600160801b031690611c438260801b90565b60208501519091906001600160801b0316606086018051909a9189916001600160801b03166001600160801b031660809190911b1760208701516001600160801b03166060880180519096918d916001600160801b03166001600160801b031660809190911b1793611cb495612eda565b5f146119ac611d307fee89c9fd704272905456294f1b2b88581ebe0241f72c15b4f3db31d19388f6af9a6119716119ac611d226119f99b611d3e9961197198611d7557508051611d10906119ac906001600160801b0316610ca8565b60801b6001600160801b039091161790565b99516001600160801b031690565b94516001600160801b031690565b604080516001600160a01b0396871681529690951660208701529385019190915260608401526080830191909152819060a0820190565b6119ac611d84611d1092612909565b610ca8565b611e3591611e23611db46002611d9e89610d9a565b015460408b01516001600160801b031690614057565b6001600160801b03166060840190815291611e08611dfb611dd48a610d9a565b548551611de9906001600160801b0316610ad2565b603f6127109260d91c16820390040290565b6001600160801b03168452565b8251611e1c906001600160801b0316610ad2565b338961298e565b611e2f6119ac87610d9a565b906137b6565b5f84611bdc565b50611e55611e4986610d9a565b54600160ff1b16151590565b80611b9c5750611ba5611e6a611e4988610d9a565b9050611b9c565b506001600160a01b038581169087161415611b96565b1561020a57565b634e487b7160e01b5f52601160045260245ffd5b6001600160801b03918216908216019190821161112457565b6001600160a01b0390911681526001600160801b03909116602082015260400190565b60405190611eeb82610242565b5f6080838281528260208201528260408201528260608201520152565b90611f1282610563565b611f1f604051918261027d565b8281528092611f30601f1991610563565b0190602036910137565b8051821015611f4e5760209160051b010190565b634e487b7160e01b5f52603260045260245ffd5b5f1981019190821161112457565b9291604084019360408152825180955260206060820193015f955b808710611fa7575050610f519394506020818403910152610f0d565b81516001600160a01b031685526001969096019560209485019490910190611f8b565b6001600160a01b039091168152602081019190915260400190565b93969591949092905f8051602061474d8339815191525c6001600160a01b031661020a57335f8051602061474d8339815191525d6001600160a01b03811661227a575b50600261203485610d9a565b01549461204085610d9a565b54600261204c86610d9a565b01549361205886610d9a565b54946120626102bc565b6001600160801b038516815295602087019b5f8d526120aa60408901975f895260608a01965f885260808b019d8e5260a08b015260c08a0194855260e08a0193845289612a51565b6001600160801b038616801515919082612259575b5081612242575b8161220a575b506120d690611e87565b519a516001600160801b03169a6001600160801b038c1661271060cc9290921c607f1602049a8b6121069161230c565b9861211089610d9a565b905186516001600160801b03169061212792612d62565b8a61213188610d9a565b915161213c92612d62565b84516001600160801b0316612151908461230c565b6001600160801b03166121669190338961298e565b61217a6001600160801b03881633876129cd565b516001600160801b031692516001600160801b03166121989161230c565b9051604080513381526001600160801b039485166020820152608093841b928516929092179082015291871685821b1760608301526001600160a01b0392831693909216917fe9174eb0d60b5dfcb132e979d11319f32d4a3ebdbf5abbb9600950c1cf8fab5b91a3919061021b61297c565b6001915015151480612220575b156120d66120cc565b5086516120d690612239906001600160801b0316610ad2565b15159050612217565b6001600160a01b038b8116908b16141591506120c6565b895191925090612271906001600160801b0316610ad2565b1415905f6120bf565b7f00000000000000000000000000000000000000000000000000000000000000006001600160a01b0316803b1561020a576040516376549e6760e11b81523360048201526001600160a01b039290921660248301525f908290604490829084905af18015611464571561202857806122f55f6122fb9361027d565b806108b3565b5f612028565b6040513d5f823e3d90fd5b6001600160801b03918216908216039190821161112457565b80546001600160a01b0319166001600160a01b03909216919091179055565b9190820180921161112457565b9081602091031261020a575190565b6001600160a01b039182168152911660208201526040810191909152606081019190915260a060808201819052810183905260c09290918190848401375f828201840152601f01601f1916010190565b604051906123c06101408361027d565b610102825261030360f41b610120837f307830303030303030303030303030303030303030303030303030303030303060208201525f8051602061476d83398151915260408201527f323030303030303030303030303030303030303030303030303030303030303060608201525f8051602061476d83398151915260808201527f303130303030303030303030303030303030303030303030303030303030303060a08201525f8051602061476d83398151915260c08201527f343030303030303030303030303030303030303030303030303030303030303060e08201525f8051602061476d8339815191526101008201520152565b9294939091906124c830846138e8565b8083116125f85750602061252a916124f4846124e387610d9a565b5490603f6127109260df1c16020490565b6001600160a01b039096169761250b858a886129cd565b6040516323e30c8b60e01b8152938492839289888a3360048801612360565b03815f8a5af18015611464577f439148f0bbc682ca079e46d6e2c2f0c1e3b820f1a291b069d8882abf8cf18dd9915f916125c9575b50036125ae57906106586125a9949561257e610ad28661259a96612344565b906125876123b0565b916001600160801b03169030908561325d565b6004019081549060801b019055565b600190565b62678c5b60e81b5f526001600160a01b03851660045260245ffd5b6125eb915060203d6020116125f1575b6125e3818361027d565b810190612351565b5f61255f565b503d6125d9565b63fd9a760960e01b5f5260045260245ffd5b94919392915f8051602061474d8339815191525c6001600160a01b031661020a57335f8051602061474d8339815191525d6001600160a01b0361265160016111b888610d9a565b16158061286f575b61266290611e87565b8160801c80943391612674928861298e565b612689906001600160801b038316338861298e565b612691612886565b908161269c87610d9a565b916126a6926137b6565b6126af84610d9a565b604082018051909190849086906001600160801b031660801b6001600160801b03909116176126dd92612df3565b6126e56102ad565b3381526001600160a01b03861660208201526001600160a01b038716604082015261270f90612e4f565b815160208401516060850180519397909390926001600160801b0319608091821b81169390911b166001600160801b03919091161761274c61029e565b6001600160a01b038a168152916001600160a01b038b1660208401526040830152826060830152608082015261278a875f52600260205260405f2090565b90612794916128ba565b82516001600160801b03166127a890612909565b6127d390337f0000000000000000000000000000000000000000000000000000000000000000612f47565b925193519151604080519788526001600160a01b039889166020890152989097169786019790975260608501939093526001600160801b0390811660808581019190915295861b9181169190911760a08401526001600160801b03199190941b16919092161760c08201527f3fc0293a5a7bc73de220f0814bbbebc31e77ffcd41bf5e8be187471747bd7caa9060e090a160019061021b61297c565b5061266261287f611e4988610d9a565b9050612659565b60405190608082018281106001600160401b0382111761025d576040525f6060838281528260208201528260408201520152565b9060806004916128d360018060a01b0382511685612325565b60208101516128ee906001600160a01b031660018601612325565b60408101516002850155606081015160038501550151910155565b60011b6002600160801b03811691906002600160811b0316820361112457565b919082604091031261020a5760208251612942816101f9565b920151610f51816101f9565b60405190606082018281106001600160401b0382111761025d576040525f6040838281528260208201520152565b5f5f8051602061474d8339815191525d565b61021b93926001600160801b031691309161325d565b611971906129b98360801d8260801d01614072565b926001600160801b03918216911601614072565b90919060016001600160a01b03821603612a0657505f808080936129f1955af11590565b6129f757565b633d2cec6f60e21b5f5260045ffd5b60445f8080936020956040519763a9059cbb60e01b84526004526024525af13d15601f3d1160015f5114161716905f60605260405215612a4257565b633c9fd93960e21b5f5260045ffd5b6080810191825190612a6a8160c0850193845190612d93565b612a75575b50505050565b60a0830190612aa18251612a92610ad2875160018060801b031690565b607f6127109260c51c16020490565b6001600160801b031660408501908152908151612ae790612ada906001600160801b031687516001600160801b031661230c565b61230c565b6001600160801b03168652565b8451612afb906001600160801b0316610ad2565b151580612d4e575b15612cd457612b1e8351612b18885160801c90565b906140c4565b60e0860190612b36610ad28351612b18895160801c90565b6001600160801b0390911610612cbb57612b59612c489151612b18875160801c90565b8751612b658282614057565b885190916001600160801b03918216918316821115612c4d5750508751612bff9190612bac90612b9f9083906001600160801b031661230c565b6001600160801b03168a52565b612be6612bba848a51614057565b60208b0180519091612bd9916001600160801b0316611ea2565b611ea2565b6001600160801b03169052565b8951906001600160801b0316608084901b175b9061410b565b8852612c2b8651612c25612c138483614057565b6001600160801b0316608085901b1790565b90614120565b86525b6060870180519091612bd9916001600160801b0316611ea2565b612ae7565b909150612c5a92506140ed565b612c82612c68828851614057565b6020890180519091612bd9916001600160801b0316611ea2565b87518751612c9d9190612bf9906001600160801b0316612c13565b8852612cb18651612c25612c138483614057565b86525f8752612c2e565b50612c48612ccf8451612b18895160801c90565b612b59565b5083519194509150612cee906001600160801b0316610ad2565b928315612a6f57612d28612bd992612bd9612d18612d4597855190607f6127109260c51c16020490565b82516001600160801b031661230c565b5182516001600160801b031690612d3f9082612a92565b90611ea2565b5f808080612a6f565b50612d5d818751865190612d93565b612b03565b600490612d7c926002820155019182549060801b906129a4565b9055565b8181029291811591840414171561112457565b9091612de491612dda90612dc7612db76001600160801b038716608084901c612d80565b6001600160801b03851690612d80565b9460801c906001600160801b0316612d80565b9060801c90612d80565b1015612def57600190565b5f90565b909161021b92806002840155600383015560018060e51b031681556001339101612325565b80546001600160e51b0316600160ff1b8101919082106111245755565b60018060e51b038154169160e51b82018092116111245755565b6040805182516001600160a01b03908116602080840191825285015182168385015293909201519091166060808301919091528152612e8f60808261027d565b51902090565b91612ec16002612d7c94959395600381019660018060801b0388541615612eca575b50019182546129a4565b905582546129a4565b612ed49082612325565b5f612eb7565b93612f06919293600386019360018060801b0385541615612f37575b50612ec1600287019182546129a4565b90556001600160a01b038116612f1b57505050565b81612f2e6004926001612d7c9501612325565b019182546129a4565b612f419087612325565b5f612ef6565b91612f6c926020925f60405180968195829463067e356d60e21b845260048401611ebb565b03926001600160a01b03165af1908115611464575f91612f8a575090565b90506020813d602011612fb7575b81612fa56020938361027d565b8101031261020a5751610f518161021d565b3d9150612f98565b519060ff8216820361020a57565b60208183031261020a578051906001600160401b03821161020a57019060408282031261020a576040519161300183610262565b61300a81612fbf565b83526020810151906001600160401b03821161020a570181601f8201121561020a57805190613038826102ea565b92613046604051948561027d565b8284526020838301011161020a57815f9260208093018386015e83010152602082015290565b908160c091031261020a576040519060c08201908282106001600160401b0383111761025d5760a0916040528051835260208101516020840152604081015160408401526130bc60608201612fbf565b606084015260808101516080840152015160a082015290565b929190604051936020850152604084015260ff60f81b1660608301526041825261021b60618361027d565b805180835260209291819084018484015e5f828201840152601f01601f1916010190565b909261317c610100936040610f5197966131518682516020809160018060a01b0381511684520151910152565b60208181015187840152910151606086015281516001600160a01b03166080860152015160a0840152565b6001600160a01b031660c082015260e081018290520190613100565b6040610f5194936101009360018060a01b0316835265ffffffffffff6060825160018060a01b03815116602087015260018060a01b036020820151168587015282858201511682870152015116608084015260018060a01b0360208201511660a0840152015160c08201528160e08201520190613100565b908160a091031261020a5760806040519161322a83610242565b805183526020810151602084015261324460408201612fbf565b6040840152606081015160608401520151608082015290565b936132719060208082518301019101612fcd565b60016001600160a01b0386160361328f57505050905034036129f757565b60ff61329c825160ff1690565b16600181036132b057505061021b9361415d565b60028103613490575060206132d091015160208082518301019101613210565b6001600160a01b0385169073898118e029aa17ed4763f432c1bdc1085d166cde820361340857604051623f675f60e91b81526001600160a01b038416600482015291602090839060249082905afa908115611464576133c25f9392849384916133e9575b506133b460208401519361334c604082015160ff1690565b60608201516080909201516040516323f2ebc360e21b60208201526001600160a01b038b16602482015230604482015260648101959095526084850196909652600160a485015260ff1660c484015260e4830152610104820193909352918290610124820190565b03601f19810183528261027d565b60208151910182885af1156133da5761021b9361415d565b63203aa5b560e11b5f5260045ffd5b613402915060203d6020116125f1576125e3818361027d565b5f613334565b5f91508061348b8392516133b4602084015193613429604082015160ff1690565b606082015160809092015160405163d505accf60e01b60208201526001600160a01b03808c1660248301528c1660448201526064810195909552608485019690965260ff1660a484015260c483015260e4820193909352918290610104820190565b6133c2565b91949390916003810361353057506134a89150614149565b9273419c606ed7dd9e411826a26ce9f146ed5a5f7c343b1561020a57604051631b63c28b60e11b81526001600160a01b03918216600482015291811660248301529283166044820152911660648201525f816084818373419c606ed7dd9e411826a26ce9f146ed5a5f7c345af18015611464576135225750565b806122f55f61021b9361027d565b6004810361369257509060206135519101516020808251830101910161306c565b9061360f61355f8351614149565b926135b9613576604083015165ffffffffffff1690565b61359e6135816102db565b6001600160a01b038a168152966001600160a01b03166020880152565b65ffffffffffff604087015265ffffffffffff166060860152565b60208101516135c66102ad565b9485526001600160a01b038616602086015260408501526080810151906136096135f9606060a084015193015160ff1690565b60f81b6001600160f81b03191690565b916130d5565b9173419c606ed7dd9e411826a26ce9f146ed5a5f7c343b1561020a576040516302b67b5760e41b8152925f918491829161364e91908a60048501613198565b03818373419c606ed7dd9e411826a26ce9f146ed5a5f7c345af1918215611464576134a89261367e575b50614149565b806122f55f61368c9361027d565b5f613678565b6005146136a1575b5050505050565b6136bb60206137389301516020808251830101910161306c565b9081516136d86136c96102cc565b6001600160a01b039097168752565b602086015260408201516020830151906136f06102ad565b968752602087015260408601526137176137086102cc565b6001600160a01b039095168552565b60208401526080810151906136096135f9606060a084015193015160ff1690565b9173419c606ed7dd9e411826a26ce9f146ed5a5f7c343b1561020a576137745f93604051958694859463187945bd60e11b865260048601613124565b03818373419c606ed7dd9e411826a26ce9f146ed5a5f7c345af18015611464576137a2575b8080808061369a565b806122f55f6137b09361027d565b5f613799565b80549092919061271060d99190911c603f166001600160801b03831602046001600160801b0316825281516001600160801b03166137f39161230c565b6001600160801b0316606082018181526002840180549092613814916140ed565b6001600160801b0316604084019081529260048501908154906138378260801c90565b60039097018054909760801b6001600160801b039091161784516001600160801b0316613863916140ed565b6001600160801b039081166020830181815292516138819216611ea2565b90516001600160801b03166001600160801b031660809190911b176138a5916129a4565b9055815492516001600160801b031690516001600160801b03166001600160801b031660809190911b1791826138da916129a4565b9055815490612d7c916129a4565b6001600160a01b0316600181036138fe57503190565b6040516370a0823160e01b81526001600160a01b039092166004830152602090829060249082905afa908115611464575f91613939575b5090565b610f51915060203d6020116125f1576125e3818361027d565b94939092969591966004860195838383888a548d6003870154600160801b6001900316600160801b600190031983161790600301549081613992916140ed565b9060801c61399f9161230c565b9b8c916139b6906001600160801b038416906129a4565b90556139c1956141ac565b60048401805460038601549196916001600160801b03166001600160801b031982161760048b015490816139f4916140ed565b9060801c613a019161230c565b9687916001600160801b038316613a17916129a4565b9055613a22956141ac565b6001600160801b031660809190911b17918261021b916145de565b15613a4457565b606460405162461bcd60e51b81526020600482015260046024820152634730313160e01b6044820152fd5b15613a7657565b606460405162461bcd60e51b81526020600482015260046024820152632398189960e11b6044820152fd5b91939092613aad61294e565b50613ab661294e565b93613ac5600287015460801c90565b6003870154969060801b6001600160801b038816178351909590613b7690613af7906001600160801b031680986140ed565b96613b66613b3c82613b2c613b3182613b2c613b1760048b015460801c90565b60038b015460018060801b03169060801b1790565b6140ed565b9d611d108160801c90565b613b56613b476102ad565b6001600160801b03909d168d52565b6001600160801b031660208c0152565b6001600160801b031660408a0152565b613d04602089613baa8454613b9081600160ff1b16151590565b908115613ff7575b81613fd0575b81613f9c575b50613a3d565b6002840180546040830151613be59290613bd990613bd2908e906001600160801b0316611971565b809361463b565b9055600386015461463b565b600385015560048401548151613c4891613c3b916001600160801b031684860151613c2c906001600160801b03165b92608083901b6001600160801b038516175b9061463b565b6004890155612ad58d8a614650565b6001600160801b03168252565b83546040820151613c8791613c7891613c69906001600160801b0316610ad2565b603f6127109260d31c16020490565b6001600160801b031682840152565b8051613cf6906001600160801b03166060890151848a01516001600160a01b031660408b01516001600160a01b031660808c01519091906001600160a01b03166040870151909390613cef906001600160801b0316888a01516001600160801b03169061230c565b948a61445f565b01516001600160801b031690565b6001600160801b038116613f7e575b505060018101546001600160a01b0316613d2c57505050565b61021b929550613dcf613d5f86613b2c613d4a600487015460801c90565b600387015460018060801b03169060801b1790565b91613dbf613d9488613d8f6004850154611d106002613d8685613b2c85611d108160801c90565b97015460801c90565b614057565b91613daf613da06102ad565b6001600160801b039096168652565b6001600160801b03166020850152565b6001600160801b03166040830152565b8095613e3b8354613e0d600286015491613df5610ad2613def8560801c90565b83614625565b6001600160801b038b16109081613f4d575b50613a6f565b6040840151613e2c906001600160801b031660808a901b17809261463b565b6002860155600385015461463b565b600384015560048301548251613e8691613e79916001600160801b03166020860151613e6f906001600160801b0316613c14565b600488015561230c565b6001600160801b03168352565b82546040830151613eb791613ea791613c69906001600160801b0316610ad2565b6001600160801b03166020840152565b60208201516001600160801b031680613f31575b82516001600160801b031660608301516020840151909190613f2b906001600160a01b031693612ad56040613f1c6080613f0d838b015160018060a01b031690565b9901516001600160a01b031690565b9801516001600160801b031690565b9561445f565b613f43600485015461044a8360801b90565b6004850155613ecb565b60408701516001600160801b03169150613f6c90610ad2908590614625565b6001600160801b03909116105f613e07565b613f9260049161044a838501549160801b90565b9101555f80613d13565b8951909150613fbe90610ad2906001600160801b031692600289015490614625565b6001600160801b03909116105f613ba4565b9050613fe6610ad2613def600289015460801c90565b6001600160801b038c161090613b9e565b8854600160ff1b1615159150613b98565b6001600160a01b031691823b1561020a5761403c925f9283604051809681958294637bd3ca3560e01b845260048401611ebb565b03925af180156114645761404d5750565b5f61021b9161027d565b610f5191608082901c6001600160801b039182169190921602045b6001600160801b03811161408c576001600160801b031690565b505f90565b6001600160801b039091169081156140b0576001600160801b03160490565b634e487b7160e01b5f52601260045260245ffd5b60bb1c6103ff16801561393557600a0260018060801b03811690810361112457610f5191614091565b610f51916001600160801b0380831660809390931c91160204614072565b611971906129b98360801d8260801d03614072565b611971906141358360801d8260801d01614072565b926001600160801b03908116911603614072565b6001600160a01b03811690810361408c5790565b6040516323b872dd60e01b81526001600160a01b03928316600482015292909116602483015260448201929092526020915f9160649183905af13d15601f3d1160015f511416171615612a4257565b939092916141d0606460dd83901c601f166001600160801b0387160204809561230c565b6001600160801b03811693909190606460fa83901c86020491606460f482901c603f168702049489614227606460ee85901c603f168a020498606460e886901c603f168202045b9490603f60649260e21c16020490565b976001600160a01b03831690816143095750505050506142475f83611ea2565b335f9081526005909801602081905260409098206001600160801b039190911681549061427391612344565b905561427f8585611ea2565b6001600160801b0316906142a390889060018060a01b03165f5260205260405f2090565b908154906142b091612344565b90556142bb9161230c565b906142c59161230c565b906142cf9161230c565b906142d991611ea2565b6001600160801b0316916142fc919060018060a01b03165f5260205260405f2090565b90815490612d7c91612344565b612bd49750918b939161440d9b9593610ad29b98975f9b6144209f600161433791015460018060a01b031690565b6001600160a01b039586169581168614158e1461444e576001600160a01b03165f908152600589016020526040902061437e905b805490926001600160801b031690612344565b90555b6001600160a01b0381168414158c1461443d576001600160a01b03165f90815260058701602052604090206143b59061436b565b90555b14158814614423576001600160a01b03165f908152600580840160205260409091206144069361436b9390916143eb9085565b90555b019a8b9060018060a01b03165f5260205260405f2090565b9055611ea2565b335f908152602093909352604090922090565b55565b50600561443761436b926144069495611ea2565b936143ee565b506144489196611ea2565b946143b8565b506144599198611ea2565b96614381565b9495909390929091614487606460dd83901c601f166001600160801b0388160204809661230c565b6001600160801b03811694909290606460fa84901c87020492606460f482901c603f16880204958a6144d2606460ee85901c603f168b020499606460e886901c603f16820204614217565b986001600160a01b03831690816144f25750505050506142479083611ea2565b612bd49850908c94939291610ad29b989761440d9d979b6144209f600161452091015460018060a01b031690565b6001600160a01b0395861695811686146145cd576001600160a01b03165f90815260058901602052604090206145559061436b565b90555b6001600160a01b03811684146145bc576001600160a01b03165f90815260058701602052604090206145899061436b565b90555b14614423576001600160a01b03165f908152600580840160205260409091206144069361436b9390916143eb9085565b506145c79196611ea2565b9461458c565b506145d89198611ea2565b96614558565b6003810180546145f9906001600160801b03198516906129a4565b905560018101546001600160a01b0316614611575050565b6004612d7c91019182549060801b906129a4565b60b11c6103ff16801561393557610f5191614091565b611971906141358360801d8260801d03614072565b90612d7c90600383016146d46146a382549561466c8760801c90565b906146b460028201986119716146838b5460801c90565b6001600160801b03908116968a8216968892889291168202839004614072565b936001600160801b03160204614072565b60018201549093906001600160a01b03166146e1575b505050825461463b565b905582549060801b613c26565b613c266004614722930193611971855493614710818460018060801b036147088960801c90565b160204614072565b926001600160801b0386160204614072565b90555f80806146ca56fe5d72191643a9d630c58937d62f5e056dcfa8dbf1aced1cb2f655ee1d7ecaf577cfdbe78f31bc5efa50605e8b11a7b6843971370ea97eb24de6e1a1eb9d2356453030303030303030303030303030303030303030303030303030303030303030a2646970667358221220ec6046e0c380ae5ccbda7c32500110036b98badd7cb9e9e272903a66ee92c83964736f6c634300081a0033","linkReferences":{}},"methodIdentifiers":{"addbanlist(address)":"b153b920","buyGood(address,address,uint128,uint256,bool,address,bytes)":"13a124c3","changeGoodOwner(address,address)":"41e12373","changemarketcreator(address)":"a06ad0e8","collectCommission(address[])":"0d2700ab","collectProof(uint256,address)":"a676a600","disinvestProof(uint256,uint128,address)":"f4662f20","flashFee(address,uint256)":"d9d98ce4","flashLoan(address,address,uint256,bytes)":"5cffe9de","getGoodState(address)":"08238466","getProofState(uint256)":"3f117740","goodWelfare(address,uint128,bytes)":"06cf4e7f","initGood(address,uint256,address,uint256,bytes,bytes)":"5f755d65","initMetaGood(address,uint256,uint256,bytes)":"51ff9a16","investGood(address,address,uint128,bytes,bytes)":"f878e809","ishigher(address,address,uint256)":"1412723a","marketconfig()":"402f5ab5","marketcreator()":"3d995173","maxFlashLoan(address)":"613255ab","modifyGoodConfig(address,uint256)":"b1efb921","payGood(address,uint128,address,bytes)":"f29771cb","queryCommission(address[],address)":"9b222794","removeMarketor(address)":"cc00da2d","removeSecurityKeeper()":"c9544f18","removebanlist(address)":"9551177a","securityKeeper(address,uint256)":"44436184","setMarketConfig(uint256)":"45818e4c","setMarketor(address)":"102e5c27","updateGoodConfig(address,uint256)":"a3b74a49","userConfig(address)":"5f35b0b3"},"id":63}