{"abi":[{"type":"constructor","inputs":[{"name":"_usdt","type":"address","internalType":"address"},{"name":"_dao_admin","type":"address","internalType":"address"},{"name":"_ttsconfig","type":"uint256","internalType":"uint256"}],"stateMutability":"nonpayable"},{"type":"function","name":"DOMAIN_SEPARATOR","inputs":[],"outputs":[{"name":"","type":"bytes32","internalType":"bytes32"}],"stateMutability":"view"},{"type":"function","name":"addShare","inputs":[{"name":"_share","type":"tuple","internalType":"struct s_share","components":[{"name":"leftamount","type":"uint128","internalType":"uint128"},{"name":"metric","type":"uint120","internalType":"uint120"},{"name":"chips","type":"uint8","internalType":"uint8"}]},{"name":"owner","type":"address","internalType":"address"}],"outputs":[],"stateMutability":"nonpayable"},{"type":"function","name":"addauths","inputs":[{"name":"_auths","type":"address","internalType":"address"},{"name":"_priv","type":"uint256","internalType":"uint256"}],"outputs":[],"stateMutability":"nonpayable"},{"type":"function","name":"addreferral","inputs":[{"name":"user","type":"address","internalType":"address"},{"name":"referral","type":"address","internalType":"address"}],"outputs":[],"stateMutability":"nonpayable"},{"type":"function","name":"allowance","inputs":[{"name":"","type":"address","internalType":"address"},{"name":"","type":"address","internalType":"address"}],"outputs":[{"name":"","type":"uint256","internalType":"uint256"}],"stateMutability":"view"},{"type":"function","name":"approve","inputs":[{"name":"spender","type":"address","internalType":"address"},{"name":"amount","type":"uint256","internalType":"uint256"}],"outputs":[{"name":"","type":"bool","internalType":"bool"}],"stateMutability":"nonpayable"},{"type":"function","name":"auths","inputs":[{"name":"","type":"address","internalType":"address"}],"outputs":[{"name":"","type":"uint256","internalType":"uint256"}],"stateMutability":"view"},{"type":"function","name":"balanceOf","inputs":[{"name":"","type":"address","internalType":"address"}],"outputs":[{"name":"","type":"uint256","internalType":"uint256"}],"stateMutability":"view"},{"type":"function","name":"burn","inputs":[{"name":"account","type":"address","internalType":"address"},{"name":"value","type":"uint256","internalType":"uint256"}],"outputs":[],"stateMutability":"nonpayable"},{"type":"function","name":"burnShare","inputs":[{"name":"owner","type":"address","internalType":"address"}],"outputs":[],"stateMutability":"nonpayable"},{"type":"function","name":"changeDAOAdmin","inputs":[{"name":"_recipient","type":"address","internalType":"address"}],"outputs":[],"stateMutability":"nonpayable"},{"type":"function","name":"decimals","inputs":[],"outputs":[{"name":"","type":"uint8","internalType":"uint8"}],"stateMutability":"view"},{"type":"function","name":"getreferralanddaoadmin","inputs":[{"name":"_customer","type":"address","internalType":"address"}],"outputs":[{"name":"","type":"address","internalType":"address"},{"name":"","type":"address","internalType":"address"}],"stateMutability":"view"},{"type":"function","name":"left_share","inputs":[],"outputs":[{"name":"","type":"uint128","internalType":"uint128"}],"stateMutability":"view"},{"type":"function","name":"name","inputs":[],"outputs":[{"name":"","type":"string","internalType":"string"}],"stateMutability":"view"},{"type":"function","name":"nonces","inputs":[{"name":"","type":"address","internalType":"address"}],"outputs":[{"name":"","type":"uint256","internalType":"uint256"}],"stateMutability":"view"},{"type":"function","name":"permit","inputs":[{"name":"owner","type":"address","internalType":"address"},{"name":"spender","type":"address","internalType":"address"},{"name":"value","type":"uint256","internalType":"uint256"},{"name":"deadline","type":"uint256","internalType":"uint256"},{"name":"v","type":"uint8","internalType":"uint8"},{"name":"r","type":"bytes32","internalType":"bytes32"},{"name":"s","type":"bytes32","internalType":"bytes32"}],"outputs":[],"stateMutability":"nonpayable"},{"type":"function","name":"permitShare","inputs":[{"name":"_share","type":"tuple","internalType":"struct s_share","components":[{"name":"leftamount","type":"uint128","internalType":"uint128"},{"name":"metric","type":"uint120","internalType":"uint120"},{"name":"chips","type":"uint8","internalType":"uint8"}]},{"name":"dealline","type":"uint128","internalType":"uint128"},{"name":"signature","type":"bytes","internalType":"bytes"}],"outputs":[],"stateMutability":"nonpayable"},{"type":"function","name":"poolstate","inputs":[],"outputs":[{"name":"","type":"uint256","internalType":"uint256"}],"stateMutability":"view"},{"type":"function","name":"publicSell","inputs":[{"name":"usdtamount","type":"uint256","internalType":"uint256"},{"name":"data","type":"bytes","internalType":"bytes"}],"outputs":[],"stateMutability":"nonpayable"},{"type":"function","name":"publicsell","inputs":[],"outputs":[{"name":"","type":"uint128","internalType":"uint128"}],"stateMutability":"view"},{"type":"function","name":"referrals","inputs":[{"name":"","type":"address","internalType":"address"}],"outputs":[{"name":"","type":"address","internalType":"address"}],"stateMutability":"view"},{"type":"function","name":"rmauths","inputs":[{"name":"_auths","type":"address","internalType":"address"}],"outputs":[],"stateMutability":"nonpayable"},{"type":"function","name":"setEnv","inputs":[{"name":"_marketcontract","type":"address","internalType":"address"}],"outputs":[],"stateMutability":"nonpayable"},{"type":"function","name":"setRatio","inputs":[{"name":"_ratio","type":"uint256","internalType":"uint256"}],"outputs":[],"stateMutability":"nonpayable"},{"type":"function","name":"shareHash","inputs":[{"name":"_share","type":"tuple","internalType":"struct s_share","components":[{"name":"leftamount","type":"uint128","internalType":"uint128"},{"name":"metric","type":"uint120","internalType":"uint120"},{"name":"chips","type":"uint8","internalType":"uint8"}]},{"name":"owner","type":"address","internalType":"address"},{"name":"leftamount","type":"uint128","internalType":"uint128"},{"name":"deadline","type":"uint128","internalType":"uint128"}],"outputs":[{"name":"","type":"bytes32","internalType":"bytes32"}],"stateMutability":"pure"},{"type":"function","name":"shareMint","inputs":[],"outputs":[],"stateMutability":"nonpayable"},{"type":"function","name":"shares","inputs":[{"name":"","type":"address","internalType":"address"}],"outputs":[{"name":"leftamount","type":"uint128","internalType":"uint128"},{"name":"metric","type":"uint120","internalType":"uint120"},{"name":"chips","type":"uint8","internalType":"uint8"}],"stateMutability":"view"},{"type":"function","name":"stake","inputs":[{"name":"_staker","type":"address","internalType":"address"},{"name":"proofvalue","type":"uint128","internalType":"uint128"}],"outputs":[{"name":"netconstruct","type":"uint128","internalType":"uint128"}],"stateMutability":"nonpayable"},{"type":"function","name":"stakeproof","inputs":[{"name":"","type":"uint256","internalType":"uint256"}],"outputs":[{"name":"fromcontract","type":"address","internalType":"address"},{"name":"proofstate","type":"uint256","internalType":"uint256"}],"stateMutability":"view"},{"type":"function","name":"stakestate","inputs":[],"outputs":[{"name":"","type":"uint256","internalType":"uint256"}],"stateMutability":"view"},{"type":"function","name":"symbol","inputs":[],"outputs":[{"name":"","type":"string","internalType":"string"}],"stateMutability":"view"},{"type":"function","name":"totalSupply","inputs":[],"outputs":[{"name":"","type":"uint256","internalType":"uint256"}],"stateMutability":"view"},{"type":"function","name":"transfer","inputs":[{"name":"to","type":"address","internalType":"address"},{"name":"amount","type":"uint256","internalType":"uint256"}],"outputs":[{"name":"","type":"bool","internalType":"bool"}],"stateMutability":"nonpayable"},{"type":"function","name":"transferFrom","inputs":[{"name":"from","type":"address","internalType":"address"},{"name":"to","type":"address","internalType":"address"},{"name":"amount","type":"uint256","internalType":"uint256"}],"outputs":[{"name":"","type":"bool","internalType":"bool"}],"stateMutability":"nonpayable"},{"type":"function","name":"ttstokenconfig","inputs":[],"outputs":[{"name":"","type":"uint256","internalType":"uint256"}],"stateMutability":"view"},{"type":"function","name":"unstake","inputs":[{"name":"_staker","type":"address","internalType":"address"},{"name":"proofvalue","type":"uint128","internalType":"uint128"}],"outputs":[],"stateMutability":"nonpayable"},{"type":"function","name":"withdrawPublicSell","inputs":[{"name":"amount","type":"uint256","internalType":"uint256"},{"name":"recipient","type":"address","internalType":"address"}],"outputs":[],"stateMutability":"nonpayable"},{"type":"event","name":"Approval","inputs":[{"name":"owner","type":"address","indexed":true,"internalType":"address"},{"name":"spender","type":"address","indexed":true,"internalType":"address"},{"name":"amount","type":"uint256","indexed":false,"internalType":"uint256"}],"anonymous":false},{"type":"event","name":"Transfer","inputs":[{"name":"from","type":"address","indexed":true,"internalType":"address"},{"name":"to","type":"address","indexed":true,"internalType":"address"},{"name":"amount","type":"uint256","indexed":false,"internalType":"uint256"}],"anonymous":false},{"type":"event","name":"e_addShare","inputs":[{"name":"recipient","type":"address","indexed":false,"internalType":"address"},{"name":"leftamount","type":"uint128","indexed":false,"internalType":"uint128"},{"name":"metric","type":"uint120","indexed":false,"internalType":"uint120"},{"name":"chips","type":"uint8","indexed":false,"internalType":"uint8"}],"anonymous":false},{"type":"event","name":"e_addauths","inputs":[{"name":"auths","type":"address","indexed":false,"internalType":"address"},{"name":"priv","type":"uint256","indexed":false,"internalType":"uint256"}],"anonymous":false},{"type":"event","name":"e_addreferral","inputs":[{"name":"users","type":"address","indexed":false,"internalType":"address"},{"name":"referral","type":"address","indexed":false,"internalType":"address"}],"anonymous":false},{"type":"event","name":"e_burnShare","inputs":[{"name":"owner","type":"address","indexed":false,"internalType":"address"}],"anonymous":false},{"type":"event","name":"e_publicsell","inputs":[{"name":"usdtamount","type":"uint256","indexed":false,"internalType":"uint256"},{"name":"ttsamount","type":"uint256","indexed":false,"internalType":"uint256"}],"anonymous":false},{"type":"event","name":"e_rmauths","inputs":[{"name":"auths","type":"address","indexed":false,"internalType":"address"}],"anonymous":false},{"type":"event","name":"e_setdaoadmin","inputs":[{"name":"recipient","type":"address","indexed":false,"internalType":"address"}],"anonymous":false},{"type":"event","name":"e_setenv","inputs":[{"name":"marketcontract","type":"address","indexed":false,"internalType":"address"}],"anonymous":false},{"type":"event","name":"e_shareMint","inputs":[{"name":"mintamount","type":"uint128","indexed":false,"internalType":"uint128"},{"name":"owner","type":"address","indexed":false,"internalType":"address"}],"anonymous":false},{"type":"event","name":"e_stakeinfo","inputs":[{"name":"recipient","type":"address","indexed":false,"internalType":"address"},{"name":"proofvalue","type":"uint256","indexed":false,"internalType":"uint256"},{"name":"unstakestate","type":"uint256","indexed":false,"internalType":"uint256"},{"name":"stakestate","type":"uint256","indexed":false,"internalType":"uint256"},{"name":"poolstate","type":"uint256","indexed":false,"internalType":"uint256"}],"anonymous":false},{"type":"event","name":"e_syncChainStake","inputs":[{"name":"chain","type":"uint32","indexed":false,"internalType":"uint32"},{"name":"poolasset","type":"uint128","indexed":false,"internalType":"uint128"},{"name":"proofstate","type":"uint256","indexed":false,"internalType":"uint256"}],"anonymous":false},{"type":"event","name":"e_updatepool","inputs":[{"name":"poolstate","type":"uint256","indexed":false,"internalType":"uint256"}],"anonymous":false},{"type":"event","name":"e_updatettsconfig","inputs":[{"name":"ttsconfig","type":"uint256","indexed":false,"internalType":"uint256"}],"anonymous":false},{"type":"error","name":"ERC20PermitFailed","inputs":[]},{"type":"error","name":"ERC20TransferFailed","inputs":[]},{"type":"error","name":"InvalidSignature","inputs":[]},{"type":"error","name":"InvalidSignatureLength","inputs":[]},{"type":"error","name":"InvalidSigner","inputs":[]},{"type":"error","name":"NativeETHTransferFailed","inputs":[]},{"type":"error","name":"TTSwapError","inputs":[{"name":"seq","type":"uint256","internalType":"uint256"}]}],"bytecode":{"object":"0x610100806040523461046b576060816136c28038038091610020828561046f565b83398101031261046b5761003381610492565b90604061004260208301610492565b910151906040519261005560408561046f565b600c84526b2a2a29bbb0b8102a37b5b2b760a11b60208501526040519361007d60408661046f565b600385526254545360e81b60208601528051906001600160401b03821161038f5781906100aa5f546104a6565b601f8111610411575b50602090601f83116001146103ae575f926103a3575b50508160011b915f199060031b1c1916175f555b83516001600160401b03811161038f576100f86001546104a6565b601f811161032c575b50602094601f82116001146102c9579481929394955f926102be575b50508160011b915f199060031b1c1916176001555b60066080524660a0526040515f905f54918161014d846104a6565b9182825260208201946001811690815f146102a25750600114610258575b6101779250038261046f565b51902060405160208101917f8b73c3c69bb8fe3d512ecc4cf759cc79239f7b179b0ffacaa9a75d522b39400f83526040820152466060820152306080820152608081526101c560a08261046f565b51902060c052600d80546001600160801b03199081166528ed6103d0001790915560e0919091524260801b16600855600b80546001600160a01b0319166001600160a01b03929092169190911790556006556040516131c390816104df823960805181610e11015260a05181611f12015260c05181611f38015260e05181818161085301528181610c990152611c9a0152f35b505f80805290915f5160206136a25f395f51905f525b8183106102865750509060206101779282010161016b565b602091935080600191548385880101520191019091839261026e565b60ff191686525061017792151560051b8201602001905061016b565b015190505f8061011d565b601f1982169560015f52805f20915f5b888110610314575083600195969798106102fc575b505050811b01600155610132565b01515f1960f88460031b161c191690555f80806102ee565b919260206001819286850151815501940192016102d9565b60015f527fb10e2d527612073b26eecdfd717e6a320cf44b4afac2b0732d9fcbe2b7fa0cf6601f830160051c81019160208410610385575b601f0160051c01905b81811061037a5750610101565b5f815560010161036d565b9091508190610364565b634e487b7160e01b5f52604160045260245ffd5b015190505f806100c9565b5f8080528281209350601f198516905b8181106103f957509084600195949392106103e1575b505050811b015f556100dd565b01515f1960f88460031b161c191690555f80806103d4565b929360206001819287860151815501950193016103be565b5f80529091505f5160206136a25f395f51905f52601f840160051c81019160208510610461575b90601f859493920160051c01905b81811061045357506100b3565b5f8155849350600101610446565b9091508190610438565b5f80fd5b601f909101601f19168101906001600160401b0382119082101761038f57604052565b51906001600160a01b038216820361046b57565b90600182811c921680156104d4575b60208310146104c057565b634e487b7160e01b5f52602260045260245ffd5b91607f16916104b556fe60806040526004361015610011575f80fd5b5f3560e01c806306afa12a1461027457806306fdde031461026f578063095ea7b31461026a57806318160ddd1461026557806319f8d5b4146102605780631aab145d1461025b57806323b872dd14610256578063297f24bf146102515780632ff908cc1461024c578063313ce567146102475780633644e515146102425780633cba316b1461023d5780633fc199c11461023857806344d91d9a1461023357806345fda7071461022e578063542128dd14610229578063623059a51461022457806364e72dbd1461021f57806369a5ac321461021a57806370a08231146102155780637bd3ca35146102105780637ecebe001461020b578063845fcee41461020657806395d89b41146102015780639ca423b3146101fc5780639dc29fac146101f7578063a9059cbb146101f2578063b2237ba3146101ed578063b88e6d63146101e8578063baf02f1b146101e3578063cae97640146101de578063ce6b9b8b146101d9578063ce7c2ac2146101d4578063d505accf146101cf578063dd62ed3e146101ca578063de5712d4146101c5578063e7b43e7d146101c05763eca93cce146101bb575f80fd5b611cd2565b611c55565b611c35565b611bde565b6119f5565b61199b565b611945565b611928565b6118a6565b61185c565b6117a5565b611731565b6116cb565b61168b565b6115e6565b6115c9565b611591565b611346565b61130e565b611288565b611250565b611233565b61119c565b611174565b61105b565b610f75565b610e57565b610e35565b610df8565b610d6d565b610bd2565b610a6f565b6107af565b610595565b61054c565b6104c4565b6103af565b346102c15760203660031901126102c1576004355f908152600a6020908152604091829020805460019091015483516001600160a01b0390921682529181019190915290819081015b0390f35b5f80fd5b5f9103126102c157565b90600182811c921680156102fd575b60208310146102e957565b634e487b7160e01b5f52602260045260245ffd5b91607f16916102de565b634e487b7160e01b5f52604160045260245ffd5b606081019081106001600160401b0382111761033657604052565b610307565b604081019081106001600160401b0382111761033657604052565b90601f801991011681019081106001600160401b0382111761033657604052565b805180835260209291819084018484015e5f828201840152601f01601f1916010190565b9060206103ac928181520190610377565b90565b346102c1575f3660031901126102c1576040515f5f546103ce816102cf565b808452906001811690811561045e5750600114610402575b6102bd836103f681850382610356565b6040519182918261039b565b5f8080527f290decd9548b62a8d60345a988386fc84ba6bc95484008f6362f93160ef3e563939250905b808210610444575090915081016020016103f66103e6565b91926001816020925483858801015201910190929161042c565b60ff191660208086019190915291151560051b840190910191506103f690506103e6565b600435906001600160a01b03821682036102c157565b602435906001600160a01b03821682036102c157565b606435906001600160a01b03821682036102c157565b346102c15760403660031901126102c1576104dd610482565b60243590335f526004602052816105078260405f209060018060a01b03165f5260205260405f2090565b556040519182526001600160a01b03169033907f8c5be1e5ebec7d5bd14f71427d1e84f3dd0314c0f7b2291e5b200ac8c7c3b92590602090a360405160018152602090f35b346102c1575f3660031901126102c1576020600254604051908152f35b602435906001600160801b03821682036102c157565b606435906001600160801b03821682036102c157565b346102c15760403660031901126102c1576105ae610482565b6105b6610569565b335f908152600f60205260409020545f190161079b577fff4f1caf741747da03068e051490a9f142dac5b961014b67ce28f5465061a68f6102bd926105f9612130565b6001610706604051602081019061062381610615338886611842565b03601f198101835282610356565b5190206106e360095496848060801b03881680155f14610771575061066361065e5f995b60808b901b6001600160801b038c16175b90612237565b600955565b6008546106829061067d906001600160801b038416610658565b600855565b6106b733610698855f52600a60205260405f2090565b80546001600160a01b0319166001600160a01b03909216919091179055565b61065888866106ce865f52600a60205260405f2090565b01549260801b6001600160801b039091161790565b836106f6835f52600a60205260405f2090565b01555f52600a60205260405f2090565b0154906107546001600160801b0385165b600854600954604080516001600160a01b0390961686526020860196909652948401919091526060830152608082019290925290819060a0820190565b0390a16040516001600160801b0390911681529081906020820190565b61065e61079561066392888060801b036008541690898060801b0386160204612fb5565b99610647565b63d1b5191160e01b5f52601a60045260245ffd5b346102c1575f3660031901126102c1576107ca600654612260565b15610a5b57600c5461088f906020906107f9906107ed906001600160a01b031681565b6001600160a01b031690565b335f908152600760205260409020610836906108319061082c90610827905460801c6001600160781b031690565b611daf565b611dc7565b611e22565b604051630a09391d60e11b81523060048201526001600160a01b037f0000000000000000000000000000000000000000000000000000000000000000166024820152604481019190915292839190829081906064820190565b03915afa908115610a56575f91610a27575b5080156109ff575b6109eb57335f9081526007602052604090207fed6a74b410387b51432c864b8acdae396c38c662efa18b7a42f83487ff229595906109e69061091a906108f7905b546001600160801b031690565b335f908152600760205260409020546109149060f81c5b60ff1690565b90611e53565b335f9081526007602052604090206109649080546109479084906001600160801b0316611e86565b611e86565b81546001600160801b0319166001600160801b0391909116179055565b335f9081526007602052604090206109b390805461098d9060801c6001600160781b0316611e9f565b8154600160801b600160f81b03191660809190911b600160801b600160f81b0316179055565b6109c66001600160801b03821633612273565b604080516001600160801b03909216825233602083015290918291820190565b0390a1005b63d1b5191160e01b5f52601760045260245ffd5b50335f9081526007602052604090206001600160801b0390610a20906108ea565b16156108a9565b610a49915060203d602011610a4f575b610a418183610356565b810190611e30565b5f6108a1565b503d610a37565b611e48565b63d1b5191160e01b5f52600f60045260245ffd5b346102c15760603660031901126102c157610a88610482565b610a90610498565b6001600160a01b0382165f818152600460209081526040808320338452909152902054604435939192919060018101610b42575b506001600160a01b03165f9081526003602052604090205f51602061314e5f395f51905f5291610b33915b610afa868254611ecf565b90556001600160a01b0381165f9081526003602052604090208054860190556040519485526001600160a01b0316939081906020820190565b0390a360405160018152602090f35b91848303928311610ba057610aef610b33925f51602061314e5f395f51905f5294610b9633610b818460018060a01b03165f52600460205260405f2090565b9060018060a01b03165f5260205260405f2090565b5592505091610ac4565b611d9b565b9181601f840112156102c1578235916001600160401b0383116102c157602083818601950101116102c157565b346102c15760403660031901126102c1576004356024356001600160401b0381116102c157610c05903690600401610ba5565b9190610c12600654612260565b15610a5b57600d54610c5a90610c35906001600160801b0385169060801c611ef6565b600d80546001600160801b031660809290921b6001600160801b031916919091179055565b600d5464746a52880060809190911c11610d59577fcf0848d99e9b2ad96811072e657199bc9567c2cc9b614097727a852b27f5358d92610cbd918330337f000000000000000000000000000000000000000000000000000000000000000061255c565b5f90610ccb600d5460801c90565b6001600160801b0381166428bed016008111610d125750509050610cee81611e0c565b90610cf98233612273565b60408051918252602082019290925290819081016109e6565b644bab82720010610d3957509050610d2981611df6565b90610d348233612273565b610cf9565b64746a528800906001600160801b031611610cf9579050610d2981611de0565b63d1b5191160e01b5f52601860045260245ffd5b346102c15760203660031901126102c157610d86610482565b600b546001600160a01b03163303610de457600c80546001600160a01b0319166001600160a01b0390921691821790556040519081527f5497e30355b3c259b1bd1d2577607edc2872c70543f17f29bcab333caf74c31590602090a1005b63d1b5191160e01b5f52601060045260245ffd5b346102c1575f3660031901126102c157602060405160ff7f0000000000000000000000000000000000000000000000000000000000000000168152f35b346102c1575f3660031901126102c1576020610e4f611f0f565b604051908152f35b346102c15760203660031901126102c157610e70610482565b600b54906001600160a01b0382163303610ecd576001600160a01b03166001600160a01b0319919091168117600b556040519081527f853baecd5c22fcf8a4d994474a066771c51cfe6022b046e92a09874610cd128190602090a1005b63d1b5191160e01b5f52601360045260245ffd5b60405190610ef0604083610356565b565b60405190610ef0606083610356565b60405190610ef0608083610356565b60ff8116036102c157565b60609060031901126102c15760405190610f348261031b565b816004356001600160801b03811681036102c15781526024356001600160781b03811681036102c1576020820152604060443591610f7183610f10565b0152565b346102c15760a03660031901126102c157610f8f36610f1b565b610f9761057f565b906084356001600160401b0381116102c157610fb7903690600401610ba5565b92906001600160801b03821642116110475761104593610ff061103e93335f52600760205260018060801b0360405f2054163387612012565b610615611026610ffe611f0f565b92604051928391602083019586909160429261190160f01b8352600283015260228201520190565b519020600b549091906001600160a01b031692612b14565b3390612c9d565b005b63d1b5191160e01b5f52602460045260245ffd5b346102c15760203660031901126102c157611074610482565b61107f600654612260565b15610a5b57600b546001600160a01b03163303611160576001600160a01b0381165f90815260076020526040812054909161115d9161110f906110ed906110dc906110d0906001600160801b031681565b6001600160401b031690565b600d546001600160801b0316611ef6565b600d80546001600160801b0319166001600160801b0392909216919091179055565b6040516001600160a01b03821681527fee1c541a26a2ceb2a600bf578887002fd1bdbbc7fb67e2b4c4bce896eac8a36f90602090a16001600160a01b03165f90815260076020526040902090565b55005b63d1b5191160e01b5f52601660045260245ffd5b346102c1575f3660031901126102c157600d546040516001600160801b039091168152602090f35b346102c15760403660031901126102c1576111b5610482565b602435600b546001600160a01b0316330361121f576001600160a01b039091165f818152600f602090815260409182902084905581519283528201929092527f967d50df84a5ebb45902fa277d5c3b0bc6403497c9fd6da2ecbd9ed420038f1491819081016109e6565b63d1b5191160e01b5f52601460045260245ffd5b346102c1575f3660031901126102c1576020600654604051908152f35b346102c15760203660031901126102c1576001600160a01b03611271610482565b165f52600f602052602060405f2054604051908152f35b346102c15760203660031901126102c1576112a1610482565b600b546001600160a01b031633036112fa576001600160a01b03165f818152600f602090815260408083209290925590519182527f3680a8b72561b4141a1464124f40242ac80a59d51d29649d9b0b442c255b628991a1005b63d1b5191160e01b5f52601560045260245ffd5b346102c15760203660031901126102c1576001600160a01b0361132f610482565b165f526003602052602060405f2054604051908152f35b346102c15760403660031901126102c15761135f610482565b611367610569565b335f908152600f60205260409020545f190161157d577fff4f1caf741747da03068e051490a9f142dac5b961014b67ce28f5465061a68f916113a7612130565b60405160208101906113be81610615338686611842565b519020916113f06113e460016113dc865f52600a60205260405f2090565b015460801c90565b6001600160801b031690565b6001600160801b0382161061150657506109e661071761141d60016113dc865f52600a60205260405f2090565b9360016114e16114c382611439855f52600a60205260405f2090565b0154809861145d611452875f52600a60205260405f2090565b60015f918281550155565b6114a361067d61146f60095460801c90565b6008549061149d9061149090869060801b6001600160801b03851617612ee8565b946001600160801b031690565b90612ebf565b6009546109429061065e90608084901b6001600160801b0386161761149d565b92828060801b038416806114f6575b505f52600a60205260405f2090565b01549460801b6001600160801b039091161790565b6115009088612273565b5f6114d2565b916107178160016114e16114c3611534888461152d6109e6995f52600a60205260405f2090565b0154612ea0565b80986115638561154c885f52600a60205260405f2090565b0154608083901b6001600160801b0385161761149d565b85611576885f52600a60205260405f2090565b015561145d565b63d1b5191160e01b5f52601b60045260245ffd5b346102c15760203660031901126102c1576001600160a01b036115b2610482565b165f526005602052602060405f2054604051908152f35b346102c1575f3660031901126102c1576020600954604051908152f35b346102c1575f3660031901126102c1576040515f600154611606816102cf565b808452906001811690811561045e575060011461162d576102bd836103f681850382610356565b60015f9081527fb10e2d527612073b26eecdfd717e6a320cf44b4afac2b0732d9fcbe2b7fa0cf6939250905b808210611671575090915081016020016103f66103e6565b919260018160209254838588010152019101909291611659565b346102c15760203660031901126102c1576001600160a01b036116ac610482565b165f52600e602052602060018060a01b0360405f205416604051908152f35b346102c15760403660031901126102c1576116e4610482565b6001600160a01b03165f81815260036020526040902080546024359291838203918211610ba0575f935f51602061314e5f395f51905f5292602092558060025403600255604051908152a3005b346102c15760403660031901126102c15761174a610482565b60243590335f52600360205260405f20805490838203918211610ba0575560018060a01b031690815f52600360205260405f208181540190555f51602061314e5f395f51905f5260405180610b333394829190602083019252565b346102c15760203660031901126102c1576004356127108111801561182b575b611817576117e29061ffff63ffffffff1960065416911601600655565b6006546040519081527f23a413df5b1fc0945373ace790cb8288a224212397d5bfc6e2a9b82a4396bbc49080602081016109e6565b63d1b5191160e01b5f52601160045260245ffd5b50335f52600f602052600260405f205414156117c5565b6001600160a01b0391821681529116602082015260400190565b346102c15760203660031901126102c157611875610482565b600b546001600160a01b039182165f908152600e6020526040908190205490519283926102bd928216911683611842565b346102c15760803660031901126102c1576118c036610f1b565b6118c86104ae565b6118d3600654612260565b15610a5b57600d5482516001600160801b039182169116118015611913575b6118ff5761104591612c9d565b63d1b5191160e01b5f52601260045260245ffd5b50600b546001600160a01b03163314156118f2565b346102c1575f3660031901126102c1576020600854604051908152f35b346102c15760c03660031901126102c15761195f36610f1b565b6119676104ae565b906084356001600160801b03811681036102c15760a435906001600160801b03821682036102c157602093610e4f93612012565b346102c15760203660031901126102c1576001600160a01b036119bc610482565b165f526007602052606060405f20546040519060018060801b038116825260018060781b038160801c16602083015260f81c6040820152f35b346102c15760e03660031901126102c157611a0e610482565b611a16610498565b6044359060205f608435606435611a2c82610f10565b611b3560a4359160c43590611a43428210156120ad565b610615611b0b8b8b611ae28c610615611a5a611f0f565b6001600160a01b0386165f90815260056020526040902090989080549060018201905560405195602094879586019889919260a093969594919660c08401977f6e71edae12b1b97f4d1f60370fef10105fa2faae0126114a169c64845d6126c98552600180871b03166020850152600180861b03166040840152606083015260808201520152565b5190206040519283918b83019586909160429261190160f01b8352600283015260228201520190565b51902092604051948594859094939260ff6060936080840197845216602083015260408201520152565b838052039060015afa15610a5657611bc68183611ba77f8c5be1e5ebec7d5bd14f71427d1e84f3dd0314c0f7b2291e5b200ac8c7c3b92594610b815f51611b8e60018060a01b0382168015159081611bcb575b506120f3565b6001600160a01b03165f90815260046020526040902090565b556040519384526001600160a01b039081169416929081906020820190565b0390a3005b6001600160a01b038d161490505f611b88565b346102c15760403660031901126102c1576020611c2c611bfc610482565b611c04610498565b6001600160a01b039182165f9081526004855260408082209290931681526020919091522090565b54604051908152f35b346102c1575f3660031901126102c1576020600d5460801c604051908152f35b346102c15760403660031901126102c157600435611c71610498565b90611c7d600654612260565b15610a5b57600b546001600160a01b03163303611cbe57611045917f0000000000000000000000000000000000000000000000000000000000000000612f06565b63d1b5191160e01b5f52601960045260245ffd5b346102c15760403660031901126102c157611ceb610482565b611cf3610498565b335f52600f602052600160405f20541480611d7a575b80611d64575b611d1557005b81611d55826106987f0b5e322b4b5330962013e8d6519462c133d50320ee476828060995c1acadef629560018060a01b03165f52600e60205260405f2090565b6109e660405192839283611842565b506001600160a01b038281169082161415611d0f565b506001600160a01b038281165f908152600e60205260409020541615611d09565b634e487b7160e01b5f52601160045260245ffd5b6001600160781b031660ff8111610ba0576001901b90565b908160801b91808304600160801b1490151715610ba057565b908160041b9180830460101490151715610ba057565b90601482029180830460141490151715610ba057565b90601882029180830460181490151715610ba057565b9060148201809211610ba057565b908160209103126102c1575180151581036102c15790565b6040513d5f823e3d90fd5b6001600160801b03909116908115611e72576001600160801b03160490565b634e487b7160e01b5f52601260045260245ffd5b6001600160801b039182169082160391908211610ba057565b6001600160781b0390811660010191908211610ba057565b65b5e620f48000039065b5e620f480008211610ba057565b91908203918211610ba057565b6001600160801b03908116620151800191908211610ba057565b6001600160801b039182169082160191908211610ba057565b467f000000000000000000000000000000000000000000000000000000000000000003611f5a577f000000000000000000000000000000000000000000000000000000000000000090565b604051905f915f5490611f6c826102cf565b808252602082019260018116908115611ff75750600114611fa1575b50611f99816103ac94950382610356565b519020613102565b5f8080529094507f290decd9548b62a8d60345a988386fc84ba6bc95484008f6362f93160ef3e5635b858210611fe1575081016020019350611f99611f88565b6001816020925483858701015201910190611fca565b60ff1916845250151560051b81016020019350611f99611f88565b805160408083015160209384015182517f3b56bd48df0b3a6f22436551081af98e406daa66d534242ffe5c4744697bfb649581019586526001600160801b039485169381019390935260ff90911660608301526001600160781b031660808201526001600160a01b039390931660a084015292831660c08301529290911660e08083019190915281526120a761010082610356565b51902090565b156120b457565b60405162461bcd60e51b815260206004820152601760248201527614115493525517d11150511312539157d1561412549151604a1b6044820152606490fd5b156120fa57565b60405162461bcd60e51b815260206004820152600e60248201526d24a72b20a624a22fa9a4a3a722a960911b6044820152606490fd5b6008546121456121408260801c90565b611edc565b426001600160801b03909116106121595750565b61216d9061067d906102a360871b90612237565b61217b6113e4600254611eb7565b620f42406001600160801b038216101561221b57506121bc61065e620f42405b6106586121b6600954926006549061ffff6127109216020490565b60801b90565b7f640eaa6ba71a4f457fdf8b26b0a8a0a6096d6d2bf731d07d47717534847ce55d6122166122066121ef60085460801c90565b60095460801c5b60018060801b03169060801b1790565b6040519081529081906020820190565b0390a1565b6121bc9061065e9061474a6001600160801b039091160461219b565b6121f69061224c8360801d8260801d01612fb5565b926001600160801b03918216911601612fb5565b60ff1c60010361226f57600190565b5f90565b60025490828201809211610ba05760205f51602061314e5f395f51905f52915f9360025560018060a01b0316938484526003825260408420818154019055604051908152a3565b6020818303126102c1578035906001600160401b0382116102c15701906040828203126102c157604051916122ee8361033b565b80356122f981610f10565b83526020810135906001600160401b0382116102c1570181601f820112156102c1578035906001600160401b0382116103365760405192612344601f8401601f191660200185610356565b828452602083830101116102c157815f9260208093018386013783010152602082015290565b908160c09103126102c1576040519060c08201908282106001600160401b038311176103365760a09160405280518352602081015160208401526040810151604084015260608101516123bc81610f10565b606084015260808101516080840152015160a082015290565b929190604051936020850152604084015260ff60f81b16606083015260418252610ef0606183610356565b90926124586101009360406103ac979661242d8682516020809160018060a01b0381511684520151910152565b60208181015187840152910151606086015281516001600160a01b03166080860152015160a0840152565b6001600160a01b031660c082015260e081018290520190610377565b60406103ac94936101009360018060a01b0316835265ffffffffffff6060825160018060a01b03815116602087015260018060a01b036020820151168587015282858201511682870152015116608084015260018060a01b0360208201511660a0840152015160c08201528160e08201520190610377565b908160a09103126102c1576040519060a08201908282106001600160401b03831117610336576080916040528051835260208101516020840152604081015161253481610f10565b6040840152606081015160608401520151608082015290565b908160209103126102c1575190565b94939091929361256b86612fd4565b1561257e5750505050610ef091506130b8565b60036001600160a01b0387160361259b575050610ef09350613008565b806125ab575050610ef093613069565b906125b8918101906122ba565b60ff6125c5825160ff1690565b16600281036127a6575060206125e6910151602080825183010191016124ec565b6001600160a01b0385169073898118e029aa17ed4763f432c1bdc1085d166cde820361272057604051623f675f60e91b81526001600160a01b038416600482015291602090839060249082905afa908115610a56576126ca5f9392849384916126f1575b50610615602084015193612662604082015160ff1690565b60608201516080909201516040516323f2ebc360e21b60208201526001600160a01b038b16602482015230604482015260648101959095526084850196909652600160a485015260ff1660c484015260e4830152610104820193909352918290610124820190565b60208151910182885af1156126e257610ef093613069565b63203aa5b560e11b5f5260045ffd5b612713915060203d602011612719575b61270b8183610356565b81019061254d565b5f61264a565b503d612701565b5f9150806127a1839251610615602084015193612741604082015160ff1690565b606082015160809092015160405163d505accf60e01b60208201526001600160a01b038b1660248201523060448201526064810195909552608485019690965260ff1660a484015260c483015260e4820193909352918290610104820190565b6126ca565b91949390916003810361284c57506127be9150612ff4565b9273419c606ed7dd9e411826a26ce9f146ed5a5f7c343b156102c157604051631b63c28b60e11b81526001600160a01b03918216600482015291811660248301529283166044820152911660648201525f816084818373419c606ed7dd9e411826a26ce9f146ed5a5f7c345af18015610a56576128385750565b806128465f610ef093610356565b806102c5565b600481036129a5575090602061286d9101516020808251830101910161236a565b9061292261287b8351612ff4565b926128d5612892604083015165ffffffffffff1690565b6128ba61289d610f01565b6001600160a01b038a168152966001600160a01b03166020880152565b65ffffffffffff604087015265ffffffffffff166060860152565b60208101516128e2610ef2565b948552306020860152604085015260808101519061291c61290c606060a084015193015160ff1690565b60f81b6001600160f81b03191690565b916123d5565b9173419c606ed7dd9e411826a26ce9f146ed5a5f7c343b156102c1576040516302b67b5760e41b8152925f918491829161296191908a60048501612474565b03818373419c606ed7dd9e411826a26ce9f146ed5a5f7c345af1918215610a56576127be92612991575b50612ff4565b806128465f61299f93610356565b5f61298b565b6005146129b4575b5050505050565b6129ce6020612a4b9301516020808251830101910161236a565b9081516129eb6129dc610ee1565b6001600160a01b039097168752565b60208601526040820151602083015190612a03610ef2565b96875260208701526040860152612a2a612a1b610ee1565b6001600160a01b039095168552565b602084015260808101519061291c61290c606060a084015193015160ff1690565b9173419c606ed7dd9e411826a26ce9f146ed5a5f7c343b156102c157612a875f93604051958694859463187945bd60e11b865260048601612400565b03818373419c606ed7dd9e411826a26ce9f146ed5a5f7c345af18015610a5657612ab5575b808080806129ad565b806128465f612ac393610356565b5f612aac565b91908260409103126102c1576020823592013590565b60ff601b9116019060ff8211610ba057565b9060401015612b005760400190565b634e487b7160e01b5f52603260045260245ffd5b9060418103612bcd5790602092612b7f83612b57612b51612b43612b3b5f98880188612ac9565b949097612af1565b356001600160f81b03191690565b60f81c90565b935b604051948594859094939260ff6060936080840197845216602083015260408201520152565b838052039060015afa15610a56575f516001600160a01b0316908115612bbe576001600160a01b031603612baf57565b632057875960e21b5f5260045ffd5b638baa579f60e01b5f5260045ffd5b9060408203612c1357602092612bea825f94612b7f940190612ac9565b9092906001600160ff1b03811690612c0d90612c089060ff1c61090e565b612adf565b93612b59565b634be6321b60e01b5f5260045ffd5b90604051612c2f8161031b565b91546001600160801b0381168352608081901c6001600160781b0316602084015260f81c6040830152565b8151602083015160409093015160f81b6001600160f81b031916600160801b600160f81b0360809490941b939093166001600160801b0390911617919091179055565b7f68e68b059416c2836fd602f01cc46a42a185922f060ff76722815bac3240712991612cec6110ed612cdb6110d06110d0865160018060801b031690565b600d546001600160801b0316611e86565b6001600160a01b0381165f9081526007602052604090206001600160801b0390612d15906108ea565b16612db3576001600160a01b0381165f908152600760205260409020612d3c908390612c5a565b8151612216906001600160801b03166020840151909390612d6c906040906001600160781b031692015160ff1690565b604080516001600160a01b0390951685526001600160801b0390951660208501526001600160781b039091169383019390935260ff90921660608201529081906080820190565b6001600160a01b0381165f908152600760205260409020612e8390612dd790612c22565b8351612e0790612dfa906001600160801b031683516001600160801b0316611ef6565b6001600160801b03168252565b612e3660408201612e19815160ff1690565b604087015160ff1660ff811660ff831610612e97575060ff169052565b6020818101805191860151612e67926001600160781b039081169116808210612e8857506001600160781b03169052565b6001600160a01b0383165f908152600760205260409020612c5a565b612d3c565b6001600160781b031690915250565b905060ff169052565b6103ac91608082901c6001600160801b03918216919092160204612fb5565b6121f690612ed48360801d8260801d03612fb5565b926001600160801b03908116911603612fb5565b6103ac916001600160801b0380831660809390931c91160204612fb5565b919091612f1281612fd4565b15612f3c57505f80808093612f27955af11590565b612f2d57565b633607a14f60e11b5f5260045ffd5b6001600160a01b038116600303612f6c5750610ef09173dcad3a6d3569df655070ded06cb7a1b2ccd1d3af612f06565b60445f8080936020956040519763a9059cbb60e01b84526004526024525af13d15601f3d1160015f5114161716905f606052604052610ef0575b633c9fd93960e21b5f5260045ffd5b6001600160801b038111612fcf576001600160801b031690565b505f90565b6001600160a01b031660018114908115612fec575090565b600291501490565b6001600160a01b038116908103612fcf5790565b6040516323b872dd60e01b81526001600160a01b0391821660048201529116602482015260448101919091526020905f906064908273dcad3a6d3569df655070ded06cb7a1b2ccd1d3af5af13d15601f3d1160015f511416171615612fa657565b6040516323b872dd60e01b81526001600160a01b03928316600482015292909116602483015260448201929092526020915f9160649183905af13d15601f3d1160015f511416171615612fa657565b5f51602061316e5f395f51905f525c81116130ee575f51602061316e5f395f51905f525c035f51602061316e5f395f51905f525d565b63d1b5191160e01b5f52601c60045260245ffd5b60405160208101917f8b73c3c69bb8fe3d512ecc4cf759cc79239f7b179b0ffacaa9a75d522b39400f83526040820152466060820152306080820152608081526120a760a08261035656feddf252ad1be2c89b69c2b068fc378daa952ba7f163c4a11628f55a4df523b3efcbe27d488af5b5c1b0bd8d89be6fdfeaed3ad42719044fd9b728f33df1d6f1d1a2646970667358221220a487fa7e251d07e92316edfd8a46cb8fbe5a7954b18d1258fb9eede79d47b19d64736f6c634300081d0033290decd9548b62a8d60345a988386fc84ba6bc95484008f6362f93160ef3e563","linkReferences":{}},"methodIdentifiers":{"DOMAIN_SEPARATOR()":"3644e515","addShare((uint128,uint120,uint8),address)":"baf02f1b","addauths(address,uint256)":"542128dd","addreferral(address,address)":"eca93cce","allowance(address,address)":"dd62ed3e","approve(address,uint256)":"095ea7b3","auths(address)":"64e72dbd","balanceOf(address)":"70a08231","burn(address,uint256)":"9dc29fac","burnShare(address)":"44d91d9a","changeDAOAdmin(address)":"3cba316b","decimals()":"313ce567","getreferralanddaoadmin(address)":"b88e6d63","left_share()":"45fda707","name()":"06fdde03","nonces(address)":"7ecebe00","permit(address,address,uint256,uint256,uint8,bytes32,bytes32)":"d505accf","permitShare((uint128,uint120,uint8),uint128,bytes)":"3fc199c1","poolstate()":"845fcee4","publicSell(uint256,bytes)":"297f24bf","publicsell()":"de5712d4","referrals(address)":"9ca423b3","rmauths(address)":"69a5ac32","setEnv(address)":"2ff908cc","setRatio(uint256)":"b2237ba3","shareHash((uint128,uint120,uint8),address,uint128,uint128)":"ce6b9b8b","shareMint()":"1aab145d","shares(address)":"ce7c2ac2","stake(address,uint128)":"19f8d5b4","stakeproof(uint256)":"06afa12a","stakestate()":"cae97640","symbol()":"95d89b41","totalSupply()":"18160ddd","transfer(address,uint256)":"a9059cbb","transferFrom(address,address,uint256)":"23b872dd","ttstokenconfig()":"623059a5","unstake(address,uint128)":"7bd3ca35","withdrawPublicSell(uint256,address)":"e7b43e7d"},"id":49}