{"abi":[{"type":"constructor","inputs":[{"name":"_marketconfig","type":"uint256","internalType":"uint256"},{"name":"_officialTokenContract","type":"address","internalType":"address"},{"name":"_officialNFTContract","type":"address","internalType":"address"},{"name":"_marketcreator","type":"address","internalType":"address"},{"name":"_securitykeeper","type":"address","internalType":"address"}],"stateMutability":"nonpayable"},{"type":"function","name":"addbanlist","inputs":[{"name":"_user","type":"address","internalType":"address"}],"outputs":[{"name":"","type":"bool","internalType":"bool"}],"stateMutability":"nonpayable"},{"type":"function","name":"buyGood","inputs":[{"name":"_goodid1","type":"address","internalType":"address"},{"name":"_goodid2","type":"address","internalType":"address"},{"name":"_swapQuantity","type":"uint128","internalType":"uint128"},{"name":"_limitPrice","type":"uint256","internalType":"uint256"},{"name":"_istotal","type":"bool","internalType":"bool"},{"name":"_referal","type":"address","internalType":"address"},{"name":"data","type":"bytes","internalType":"bytes"}],"outputs":[{"name":"goodid2Quantity_","type":"uint128","internalType":"uint128"},{"name":"goodid2FeeQuantity_","type":"uint128","internalType":"uint128"}],"stateMutability":"payable"},{"type":"function","name":"buyGoodForPay","inputs":[{"name":"_goodid1","type":"address","internalType":"address"},{"name":"_goodid2","type":"address","internalType":"address"},{"name":"_swapQuantity","type":"uint128","internalType":"uint128"},{"name":"_limitPrice","type":"uint256","internalType":"uint256"},{"name":"_recipient","type":"address","internalType":"address"},{"name":"data","type":"bytes","internalType":"bytes"}],"outputs":[{"name":"goodid1Quantity_","type":"uint128","internalType":"uint128"},{"name":"goodid1FeeQuantity_","type":"uint128","internalType":"uint128"}],"stateMutability":"payable"},{"type":"function","name":"changeGoodOwner","inputs":[{"name":"_goodid","type":"address","internalType":"address"},{"name":"_to","type":"address","internalType":"address"}],"outputs":[],"stateMutability":"nonpayable"},{"type":"function","name":"changemarketcreator","inputs":[{"name":"_newmarketor","type":"address","internalType":"address"}],"outputs":[],"stateMutability":"nonpayable"},{"type":"function","name":"collectCommission","inputs":[{"name":"_goodid","type":"address[]","internalType":"address[]"}],"outputs":[],"stateMutability":"nonpayable"},{"type":"function","name":"collectProof","inputs":[{"name":"_proofid","type":"uint256","internalType":"uint256"},{"name":"_gater","type":"address","internalType":"address"}],"outputs":[{"name":"profit_","type":"uint256","internalType":"uint256"}],"stateMutability":"nonpayable"},{"type":"function","name":"delproofdata","inputs":[{"name":"proofid","type":"uint256","internalType":"uint256"},{"name":"from","type":"address","internalType":"address"},{"name":"to","type":"address","internalType":"address"}],"outputs":[],"stateMutability":"nonpayable"},{"type":"function","name":"disinvestProof","inputs":[{"name":"_proofid","type":"uint256","internalType":"uint256"},{"name":"_goodQuantity","type":"uint128","internalType":"uint128"},{"name":"_gater","type":"address","internalType":"address"}],"outputs":[{"name":"","type":"bool","internalType":"bool"}],"stateMutability":"nonpayable"},{"type":"function","name":"flashFee","inputs":[{"name":"token","type":"address","internalType":"address"},{"name":"amount","type":"uint256","internalType":"uint256"}],"outputs":[{"name":"","type":"uint256","internalType":"uint256"}],"stateMutability":"view"},{"type":"function","name":"flashLoan","inputs":[{"name":"receiver","type":"address","internalType":"contract IERC3156FlashBorrower"},{"name":"token","type":"address","internalType":"address"},{"name":"amount","type":"uint256","internalType":"uint256"},{"name":"data","type":"bytes","internalType":"bytes"}],"outputs":[{"name":"","type":"bool","internalType":"bool"}],"stateMutability":"nonpayable"},{"type":"function","name":"getGoodState","inputs":[{"name":"goodkey","type":"address","internalType":"address"}],"outputs":[{"name":"","type":"tuple","internalType":"struct S_GoodTmpState","components":[{"name":"goodConfig","type":"uint256","internalType":"uint256"},{"name":"owner","type":"address","internalType":"address"},{"name":"currentState","type":"uint256","internalType":"uint256"},{"name":"investState","type":"uint256","internalType":"uint256"},{"name":"feeQuantityState","type":"uint256","internalType":"uint256"}]}],"stateMutability":"view"},{"type":"function","name":"getProofState","inputs":[{"name":"proofid","type":"uint256","internalType":"uint256"}],"outputs":[{"name":"","type":"tuple","internalType":"struct S_ProofState","components":[{"name":"currentgood","type":"address","internalType":"address"},{"name":"valuegood","type":"address","internalType":"address"},{"name":"state","type":"uint256","internalType":"uint256"},{"name":"invest","type":"uint256","internalType":"uint256"},{"name":"valueinvest","type":"uint256","internalType":"uint256"}]}],"stateMutability":"view"},{"type":"function","name":"goodWelfare","inputs":[{"name":"goodid","type":"address","internalType":"address"},{"name":"welfare","type":"uint128","internalType":"uint128"},{"name":"data","type":"bytes","internalType":"bytes"}],"outputs":[],"stateMutability":"payable"},{"type":"function","name":"initGood","inputs":[{"name":"_valuegood","type":"address","internalType":"address"},{"name":"_initial","type":"uint256","internalType":"uint256"},{"name":"_erc20address","type":"address","internalType":"address"},{"name":"_goodConfig","type":"uint256","internalType":"uint256"},{"name":"_normaldata","type":"bytes","internalType":"bytes"},{"name":"_valuedata","type":"bytes","internalType":"bytes"}],"outputs":[{"name":"","type":"bool","internalType":"bool"}],"stateMutability":"payable"},{"type":"function","name":"initMetaGood","inputs":[{"name":"_erc20address","type":"address","internalType":"address"},{"name":"_initial","type":"uint256","internalType":"uint256"},{"name":"_goodConfig","type":"uint256","internalType":"uint256"},{"name":"data","type":"bytes","internalType":"bytes"}],"outputs":[{"name":"","type":"bool","internalType":"bool"}],"stateMutability":"payable"},{"type":"function","name":"investGood","inputs":[{"name":"_togood","type":"address","internalType":"address"},{"name":"_valuegood","type":"address","internalType":"address"},{"name":"_quantity","type":"uint128","internalType":"uint128"},{"name":"data1","type":"bytes","internalType":"bytes"},{"name":"data2","type":"bytes","internalType":"bytes"}],"outputs":[{"name":"","type":"bool","internalType":"bool"}],"stateMutability":"payable"},{"type":"function","name":"ishigher","inputs":[{"name":"goodid","type":"address","internalType":"address"},{"name":"valuegood","type":"address","internalType":"address"},{"name":"compareprice","type":"uint256","internalType":"uint256"}],"outputs":[{"name":"","type":"bool","internalType":"bool"}],"stateMutability":"view"},{"type":"function","name":"marketconfig","inputs":[],"outputs":[{"name":"","type":"uint256","internalType":"uint256"}],"stateMutability":"view"},{"type":"function","name":"marketcreator","inputs":[],"outputs":[{"name":"","type":"address","internalType":"address"}],"stateMutability":"view"},{"type":"function","name":"maxFlashLoan","inputs":[{"name":"good","type":"address","internalType":"address"}],"outputs":[{"name":"","type":"uint256","internalType":"uint256"}],"stateMutability":"view"},{"type":"function","name":"modifyGoodConfig","inputs":[{"name":"_goodid","type":"address","internalType":"address"},{"name":"_goodConfig","type":"uint256","internalType":"uint256"}],"outputs":[{"name":"","type":"bool","internalType":"bool"}],"stateMutability":"nonpayable"},{"type":"function","name":"payGood","inputs":[{"name":"_goodid","type":"address","internalType":"address"},{"name":"_payquanity","type":"uint128","internalType":"uint128"},{"name":"_recipent","type":"address","internalType":"address"},{"name":"transdata","type":"bytes","internalType":"bytes"}],"outputs":[{"name":"","type":"bool","internalType":"bool"}],"stateMutability":"payable"},{"type":"function","name":"proofmapping","inputs":[{"name":"proofkey","type":"uint256","internalType":"uint256"}],"outputs":[{"name":"proofid","type":"uint256","internalType":"uint256"}],"stateMutability":"view"},{"type":"function","name":"queryCommission","inputs":[{"name":"_goodid","type":"address[]","internalType":"address[]"},{"name":"_recipent","type":"address","internalType":"address"}],"outputs":[{"name":"","type":"uint256[]","internalType":"uint256[]"}],"stateMutability":"view"},{"type":"function","name":"removeMarketor","inputs":[{"name":"_user","type":"address","internalType":"address"}],"outputs":[],"stateMutability":"nonpayable"},{"type":"function","name":"removeSecurityKeeper","inputs":[],"outputs":[],"stateMutability":"nonpayable"},{"type":"function","name":"removebanlist","inputs":[{"name":"_user","type":"address","internalType":"address"}],"outputs":[{"name":"","type":"bool","internalType":"bool"}],"stateMutability":"nonpayable"},{"type":"function","name":"securityKeeper","inputs":[{"name":"token","type":"address","internalType":"address"},{"name":"amount","type":"uint256","internalType":"uint256"}],"outputs":[],"stateMutability":"nonpayable"},{"type":"function","name":"setMarketConfig","inputs":[{"name":"_marketconfig","type":"uint256","internalType":"uint256"}],"outputs":[{"name":"","type":"bool","internalType":"bool"}],"stateMutability":"nonpayable"},{"type":"function","name":"setMarketor","inputs":[{"name":"_newmarketor","type":"address","internalType":"address"}],"outputs":[],"stateMutability":"nonpayable"},{"type":"function","name":"updateGoodConfig","inputs":[{"name":"_goodid","type":"address","internalType":"address"},{"name":"_goodConfig","type":"uint256","internalType":"uint256"}],"outputs":[{"name":"","type":"bool","internalType":"bool"}],"stateMutability":"nonpayable"},{"type":"function","name":"userConfig","inputs":[{"name":"","type":"address","internalType":"address"}],"outputs":[{"name":"","type":"uint256","internalType":"uint256"}],"stateMutability":"view"},{"type":"event","name":"e_buyGood","inputs":[{"name":"sellgood","type":"address","indexed":true,"internalType":"address"},{"name":"forgood","type":"address","indexed":true,"internalType":"address"},{"name":"fromer","type":"address","indexed":false,"internalType":"address"},{"name":"swapvalue","type":"uint128","indexed":false,"internalType":"uint128"},{"name":"sellgoodstate","type":"uint256","indexed":false,"internalType":"uint256"},{"name":"forgoodstate","type":"uint256","indexed":false,"internalType":"uint256"}],"anonymous":false},{"type":"event","name":"e_buyGoodForPay","inputs":[{"name":"buygood","type":"address","indexed":true,"internalType":"address"},{"name":"usegood","type":"address","indexed":true,"internalType":"address"},{"name":"fromer","type":"address","indexed":false,"internalType":"address"},{"name":"receipt","type":"address","indexed":false,"internalType":"address"},{"name":"swapvalue","type":"uint128","indexed":false,"internalType":"uint128"},{"name":"buygoodstate","type":"uint256","indexed":false,"internalType":"uint256"},{"name":"usegoodstate","type":"uint256","indexed":false,"internalType":"uint256"}],"anonymous":false},{"type":"event","name":"e_changegoodowner","inputs":[{"name":"goodid","type":"address","indexed":false,"internalType":"address"},{"name":"to","type":"address","indexed":false,"internalType":"address"}],"anonymous":false},{"type":"event","name":"e_changemarketcreator","inputs":[{"name":"_newmarketor","type":"address","indexed":false,"internalType":"address"}],"anonymous":false},{"type":"event","name":"e_collectProof","inputs":[{"name":"_proofNo","type":"uint256","indexed":true,"internalType":"uint256"},{"name":"_normalGoodNo","type":"address","indexed":false,"internalType":"address"},{"name":"_valueGoodNo","type":"address","indexed":false,"internalType":"address"},{"name":"_profit","type":"uint256","indexed":false,"internalType":"uint256"}],"anonymous":false},{"type":"event","name":"e_collectProtocolFee","inputs":[{"name":"goodid","type":"address","indexed":false,"internalType":"address"},{"name":"feeamount","type":"uint256","indexed":false,"internalType":"uint256"}],"anonymous":false},{"type":"event","name":"e_collectcommission","inputs":[{"name":"_gooid","type":"address[]","indexed":false,"internalType":"address[]"},{"name":"_commisionamount","type":"uint256[]","indexed":false,"internalType":"uint256[]"}],"anonymous":false},{"type":"event","name":"e_disinvestProof","inputs":[{"name":"_proofNo","type":"uint256","indexed":true,"internalType":"uint256"},{"name":"_normalGoodNo","type":"address","indexed":false,"internalType":"address"},{"name":"_valueGoodNo","type":"address","indexed":false,"internalType":"address"},{"name":"_value","type":"uint256","indexed":false,"internalType":"uint256"},{"name":"_normalgood","type":"uint256","indexed":false,"internalType":"uint256"},{"name":"_valuegood","type":"uint256","indexed":false,"internalType":"uint256"},{"name":"_profit","type":"uint256","indexed":false,"internalType":"uint256"}],"anonymous":false},{"type":"event","name":"e_enpower","inputs":[{"name":"_goodid","type":"uint256","indexed":false,"internalType":"uint256"},{"name":"_valuegood","type":"uint256","indexed":false,"internalType":"uint256"},{"name":"_quantity","type":"uint256","indexed":false,"internalType":"uint256"}],"anonymous":false},{"type":"event","name":"e_goodWelfare","inputs":[{"name":"goodid","type":"address","indexed":false,"internalType":"address"},{"name":"welfare","type":"uint128","indexed":false,"internalType":"uint128"}],"anonymous":false},{"type":"event","name":"e_initGood","inputs":[{"name":"_proofNo","type":"uint256","indexed":false,"internalType":"uint256"},{"name":"_goodid","type":"address","indexed":false,"internalType":"address"},{"name":"_valuegoodNo","type":"address","indexed":false,"internalType":"address"},{"name":"_goodConfig","type":"uint256","indexed":false,"internalType":"uint256"},{"name":"_construct","type":"uint256","indexed":false,"internalType":"uint256"},{"name":"_normalinitial","type":"uint256","indexed":false,"internalType":"uint256"},{"name":"_value","type":"uint256","indexed":false,"internalType":"uint256"}],"anonymous":false},{"type":"event","name":"e_initMetaGood","inputs":[{"name":"_proofNo","type":"uint256","indexed":false,"internalType":"uint256"},{"name":"_goodid","type":"address","indexed":false,"internalType":"address"},{"name":"_construct","type":"uint256","indexed":false,"internalType":"uint256"},{"name":"_goodConfig","type":"uint256","indexed":false,"internalType":"uint256"},{"name":"_initial","type":"uint256","indexed":false,"internalType":"uint256"}],"anonymous":false},{"type":"event","name":"e_investGood","inputs":[{"name":"_proofNo","type":"uint256","indexed":true,"internalType":"uint256"},{"name":"_normalgoodid","type":"address","indexed":false,"internalType":"address"},{"name":"_valueGoodNo","type":"address","indexed":false,"internalType":"address"},{"name":"_value","type":"uint256","indexed":false,"internalType":"uint256"},{"name":"_invest","type":"uint256","indexed":false,"internalType":"uint256"},{"name":"_valueinvest","type":"uint256","indexed":false,"internalType":"uint256"}],"anonymous":false},{"type":"event","name":"e_modifiedUserConfig","inputs":[{"name":"_user","type":"address","indexed":false,"internalType":"address"},{"name":"config","type":"uint256","indexed":false,"internalType":"uint256"}],"anonymous":false},{"type":"event","name":"e_modifyGoodConfig","inputs":[{"name":"_goodid","type":"address","indexed":false,"internalType":"address"},{"name":"_goodconfig","type":"uint256","indexed":false,"internalType":"uint256"}],"anonymous":false},{"type":"event","name":"e_setMarketConfig","inputs":[{"name":"_marketconfig","type":"uint256","indexed":false,"internalType":"uint256"}],"anonymous":false},{"type":"event","name":"e_transferdel","inputs":[{"name":"delproofid","type":"uint256","indexed":false,"internalType":"uint256"},{"name":"existsproofid","type":"uint256","indexed":false,"internalType":"uint256"}],"anonymous":false},{"type":"event","name":"e_updateGoodConfig","inputs":[{"name":"_goodid","type":"address","indexed":false,"internalType":"address"},{"name":"_goodConfig","type":"uint256","indexed":false,"internalType":"uint256"}],"anonymous":false},{"type":"error","name":"ERC20PermitFailed","inputs":[]},{"type":"error","name":"ERC20TransferFailed","inputs":[]},{"type":"error","name":"ERC3156ExceededMaxLoan","inputs":[{"name":"maxLoan","type":"uint256","internalType":"uint256"}]},{"type":"error","name":"ERC3156InvalidReceiver","inputs":[{"name":"receiver","type":"address","internalType":"address"}]},{"type":"error","name":"ERC3156UnsupportedToken","inputs":[{"name":"token","type":"address","internalType":"address"}]},{"type":"error","name":"NativeTransferFailed","inputs":[]},{"type":"error","name":"noEnoughOutputError","inputs":[]}],"bytecode":{"object":"0x60c03461010957601f61541138819003918201601f19168301916001600160401b0383118484101761010d5780849260a0946040528339810103126101095780519061004d60208201610121565b9161005a60408301610121565b610072608061006b60608601610121565b9401610121565b60809490945260a0525f55600580546001600160a01b039283166001600160a01b031991821617909155600680549290931691161790556040516152db90816101368239608051818181610afc01528181610c66015281816113520152818161193c015261216e015260a051818181610c2c015281816112980152818161188c015281816120d6015281816127700152612ed90152f35b5f80fd5b634e487b7160e01b5f52604160045260245ffd5b51906001600160a01b03821682036101095756fe60806040526004361015610011575f80fd5b5f3560e01c806306cf4e7f14610224578063082384661461021f5780630d2700ab1461021a578063102e5c271461021557806313a124c3146102105780631412723a1461020b5780631faa5a56146102065780633d995173146102015780633f117740146101fc578063402f5ab5146101f757806341e12373146101f257806344436184146101ed57806345818e4c146101e857806351ff9a16146101e35780635cffe9de146101de5780635e008cc4146101d95780635f35b0b3146101d45780635f755d65146101cf578063613255ab146101ca5780639551177a146101c55780639b222794146101c0578063a06ad0e8146101bb578063a3b74a49146101b6578063a676a600146101b1578063b153b920146101ac578063b1efb921146101a7578063c9544f18146101a2578063cc00da2d1461019d578063ccfd766414610198578063d9d98ce414610193578063f29771cb1461018e578063f4662f20146101895763f878e80914610184575f80fd5b612477565b612059565b611fb9565b611f6d565b611d09565b611ca6565b611c72565b611bef565b611b7b565b61181c565b611777565b6116fd565b611647565b61158b565b61155a565b6114e1565b6114a6565b611463565b6113da565b6111b0565b611150565b61108f565b610fec565b610fd0565b610f12565b610eea565b610bfb565b610b86565b6107dd565b610764565b610604565b61049c565b61036e565b6001600160a01b0381160361023a57565b5f80fd5b6001600160801b0381160361023a57565b634e487b7160e01b5f52604160045260245ffd5b60a081019081106001600160401b0382111761027e57604052565b61024f565b604081019081106001600160401b0382111761027e57604052565b90601f801991011681019081106001600160401b0382111761027e57604052565b604051906102ce60a08361029e565b565b604051906102ce60608361029e565b604051906102ce6101008361029e565b604051906102ce60408361029e565b604051906102ce60808361029e565b6001600160401b03811161027e57601f01601f191660200190565b81601f8201121561023a5780359061033f8261030d565b9261034d604051948561029e565b8284526020838301011161023a57815f926020809301838601378301015290565b606036600319011261023a5760043561038681610229565b6024356103928161023e565b6044356001600160401b03811161023a576103b1903690600401610328565b915f805160206152668339815191525c6001600160a01b031661023a57335f805160206152668339815191525d6001600160a01b0381165f908152600160205260409020600401546001606d1b906001600160801b039061041690859060801c61291c565b161161023a577f0dc5e2150c5754dc0bcd8d76ca2d23850fc9a2a3115c69bb4fbdbedc25074a0092610453906001600160801b0384163384613205565b61047360046104618361148d565b015461046d8460801b90565b9061321b565b600461047e8361148d565b015561048f60405192839283612935565b0390a161049a6131f3565b005b3461023a57602036600319011261023a576105826004356104bc81610229565b6104c4612958565b506001600160a01b038181165f9081526001602081905260409091208054910154909291169060026104f58261148d565b01546105306004610512600361050a8661148d565b01549461148d565b01549361051d6102bf565b9586526001600160a01b03166020860152565b6040840152606083015260808201526040519182918291909160808060a08301948051845260018060a01b03602082015116602085015260408101516040850152606081015160608501520151910152565b0390f35b6001600160401b03811161027e5760051b60200190565b9080601f8301121561023a5781356105b481610586565b926105c2604051948561029e565b81845260208085019260051b82010192831161023a57602001905b8282106105ea5750505090565b6020809183356105f981610229565b8152019101906105dd565b3461023a57602036600319011261023a576004356001600160401b03811161023a5761063490369060040161059d565b61064a815161064560648210612901565b612982565b5f5b825181101561072d5760019061069633600561068061067b61066e868a6129b4565b516001600160a01b031690565b61148d565b019060018060a01b03165f5260205260405f2090565b546106a182856129b4565b5260026106ae82856129b4565b5110156106c8575f6106c082856129b4565b525b0161064c565b6106db6106d582856129b4565b516129dc565b6106e582856129b4565b526107056106ff33600561068061067b61066e878b6129b4565b60019055565b61072861071561066e83876129b4565b61071f83866129b4565b51903390613244565b6106c2565b507f477bb716eacccc001de50dcdd6e25241283d080e6afb27443908b20f4e738b5e9161075f604051928392836129ea565b0390a1005b3461023a57602036600319011261023a5760043561078181610229565b6005546001600160a01b0316330361023a576001600160a01b0381165f908152600460205260409020805460021781555f8051602061524683398151915291905b549061075f60405192839283612a44565b8015150361023a57565b60e036600319011261023a576004356107f581610229565b60243561080181610229565b6044359161080e8361023e565b6084359160643561081e846107d3565b60a4359061082b82610229565b60c4356001600160401b03811161023a5761084a903690600401610328565b915f805160206152668339815191525c6001600160a01b031661023a57335f805160206152668339815191525d6001600160a01b038116610afa575b5060026108928561148d565b01549561089e8561148d565b5460026108aa8661148d565b0154936108b68661148d565b54946108c06102df565b6001600160801b03851681529560208701995f8b5261090860408901975f895260608a01965f885260808b019e8f5260a08b015260c08a0194855260e08a01938452896132c8565b6001600160801b038616801515919082610ad9575b5081610ac2575b81610a82575b5061093490612901565b5198516001600160801b0316986001600160801b038a1661271060cc9290921c607f160204988961096491612a6a565b9961096e8961148d565b905186516001600160801b031690610985926135d9565b8861098f8861148d565b915161099a926135d9565b84516001600160801b03166109af9084612a6a565b6001600160801b03166109c491903389613205565b6109d86001600160801b0389163387613244565b516001600160801b031692516001600160801b03166109f691612a6a565b9051604080513381526001600160801b039485166020820152608093841b928516929092179082015291851686821b1760608301526001600160a01b0392831693909216917fe9174eb0d60b5dfcb132e979d11319f32d4a3ebdbf5abbb9600950c1cf8fab5b91a3610a666131f3565b604080516001600160801b039384168152919092166020820152f35b6001915015151480610a98575b1561093461092a565b50865161093490610ab9906001600160801b03165b6001600160801b031690565b15159050610a8f565b6001600160a01b038b8116908b1614159150610924565b895191925090610af1906001600160801b0316610aad565b1415905f61091d565b7f00000000000000000000000000000000000000000000000000000000000000006001600160a01b0316803b1561023a576040516376549e6760e11b81523360048201526001600160a01b039290921660248301525f908290604490829084905af18015610b8157156108865780610b755f610b7b9361029e565b80610ee0565b5f610886565b612a5f565b3461023a57606036600319011261023a57610582610be9600435610ba981610229565b602435610bb581610229565b6044356001600160a01b039283165f908152600160205260408082206002908101549490951682529020909201549061360a565b60405190151581529081906020820190565b3461023a57606036600319011261023a57602435610d02600435610c1e83610229565b604435610c2a81610229565b7f00000000000000000000000000000000000000000000000000000000000000006001600160a01b031690610d9390610c64338414612901565b7f000000000000000000000000000000000000000000000000000000000000000090610caf610ca86002610ca0885f52600360205260405f2090565b015460801c90565b888461366a565b610d8d6040610d84610d41610cd4610ccf8a5f52600360205260405f2090565b612a83565b9a610d3c8c610d2d6020610cee835160018060a01b031690565b92018051909e6001600160a01b0390911690565b91610d1d610d0e6102d0565b6001600160a01b039096168652565b6001600160a01b03166020850152565b6001600160a01b031682860152565b6136b9565b8a51995190996001600160a01b0390811691610d3c9116610d75610d636102d0565b6001600160a01b038916815293610d1d565b6001600160a01b031682850152565b98015160801c90565b916136ff565b50610da6845f52600260205260405f2090565b5480610dec57505050805f92610dda610dca610de9945f52600260205260405f2090565b54915f52600260205260405f2090565b555f52600260205260405f2090565b55005b9092919350610e1e610e06825f52600360205260405f2090565b610e18865f52600360205260405f2090565b90613777565b610e50610e33855f52600360205260405f2090565b60045f918281558260018201558260028201558260038201550155565b823b1561023a57604051630852cd8d60e31b815260048101859052925f908490602490829084905af1908115610b81575f94610de9947f335d27656e7f9578ae51244b214940ee63a03fbed3788497ee4237a186aad1e493610ecc575b50604080519182526020820192909252a15f52600260205260405f2090565b80610b7588610eda9361029e565b5f610ead565b5f91031261023a57565b3461023a575f36600319011261023a576005546040516001600160a01b039091168152602090f35b3461023a57602036600319011261023a57600435610f2e612958565b505f52600360205261058260405f20600460405191610f4c83610263565b60018060a01b03815416835260018060a01b0360018201541660208401526002810154604084015260038101546060840152015460808201526040519182918291909160808060a083019460018060a01b03815116845260018060a01b03602082015116602085015260408101516040850152606081015160608501520151910152565b3461023a575f36600319011261023a5760205f54604051908152f35b3461023a57604036600319011261023a5760043561100981610229565b60243561101581610229565b335f526004602052600260405f2054161561023a577f42e3c955499470d3dc1078d90519d90691c504c8856ea058daf2c1436c2dab4c9160018060a01b0381165f52600160205261106c82600160405f2001612acb565b604080516001600160a01b0392831681529290911660208301528190810161075f565b3461023a57604036600319011261023a576004356110ac81610229565b6006546001600160a01b0316330361023a5761049a9060018060a01b0381165f52600160205261112f6110ff610aad6110ec600460405f20015460801c90565b60046110f78661148d565b015490612a6a565b5f600461110b8561148d565b0155611129600261111b8561148d565b01546001600160801b031690565b90612aea565b905f600261113c8361148d565b01556006546001600160a01b031690613244565b3461023a57602036600319011261023a57600554600435906001600160a01b0316330361023a576020817fbd209961024f2694b0afb3c8badd20b6477abb77b336b16892c3fa4b906d323c925f55604051908152a1602060405160018152f35b608036600319011261023a576004356111c881610229565b604435906024356064356001600160401b03811161023a576111ee903690600401610328565b6005549093906001600160a01b0316330361023a5761129591611218600160ff1b83161515612901565b6001600160801b0381169461122f90863387613205565b611242828261123d8761148d565b6137b8565b61125361124e8561148d565b6137dd565b61127b61125e6102d0565b3381526001600160a01b03861660208201525f60408201526136b9565b61128481613814565b9384915f52600260205260405f2090565b557f00000000000000000000000000000000000000000000000000000000000000006001600160a01b031691823b1561023a575f60405180946340c10f1960e01b82528183816112e98a3360048401612a44565b03925af18015610b81577f8f2eb922ee1b2f92e0051f7949a8c191264807725a1e435e91abebd28583830a966113b794611376926113c6575b5061134f611338875f52600360205260405f2090565b918560801c92896113498560801b90565b91613839565b337f00000000000000000000000000000000000000000000000000000000000000006136ff565b604080519586526001600160a01b0390961660208601526001600160801b0316948401949094526060830193909352608082019290925290819060a0820190565b0390a160405160018152602090f35b80610b755f6113d49361029e565b5f611322565b3461023a57608036600319011261023a576004356113f781610229565b6024359061140482610229565b604435606435916001600160401b03831161023a573660238401121561023a578260040135916001600160401b03831161023a57366024848601011161023a57610582946024610be9950192612c5e565b5f52600260205260405f2090565b3461023a57602036600319011261023a576004355f526002602052602060405f2054604051908152f35b6001600160a01b03165f90815260016020526040902090565b3461023a57602036600319011261023a576004356114c381610229565b60018060a01b03165f526004602052602060405f2054604051908152f35b60c036600319011261023a576004356114f981610229565b602435906044359061150a82610229565b6064356084356001600160401b03811161023a5761152c903690600401610328565b9060a435936001600160401b03851161023a5761058295611554610be9963690600401610328565b94612db0565b3461023a57602036600319011261023a57602061158360043561157c81610229565b309061420c565b604051908152f35b3461023a57602036600319011261023a576004356115a881610229565b335f526004602052600260405f2054161561023a576001600160a01b0381165f90815260046020526040908190208054600119169081905590515f8051602061524683398151915292909182916113b7919083612a44565b90602080835192838152019201905f5b81811061161d5750505090565b8251845260209384019390920191600101611610565b906020611644928181520190611600565b90565b3461023a57604036600319011261023a576004356001600160401b03811161023a5761167790369060040161059d565b6024359061168482610229565b8051606481101561023a5761169890612982565b915f5b82518110156116ef576001906001600160a01b036116b982866129b4565b51165f908152602083815260408083206001600160a01b03871684526005019091529020546116e882876129b4565b520161169b565b604051806105828682611633565b3461023a57602036600319011261023a5760043561171a81610229565b600554906001600160a01b038216330361023a576001600160a01b03166001600160a01b03199190911681176005556040519081527fa8d3850ce581f2add46670c1408b76ca1d0d4ef627eed4a89802ff670940082d90602090a1005b3461023a57604036600319011261023a5760043561179481610229565b6001600160a01b038181165f81815260016020819052604090912001546024359216330361023a575f52600160205260405f20916307ffffff60e51b83541660018060e51b0383168101809111611817577f075a13b9dbfb2e30d678551b8c2a4f9ede7468ca5273fa902a41d0e57756666993556113b760405192839283612a44565b612908565b3461023a57604036600319011261023a5760043560243561183c81610229565b5f805160206152668339815191525c6001600160a01b031661023a57335f805160206152668339815191525d60405163430c208160e01b815260208180611887863360048401612a44565b03815f7f00000000000000000000000000000000000000000000000000000000000000006001600160a01b03165af18015610b81576118cd915f91611b4c575b50612901565b6118f260016118e4845f52600360205260405f2090565b01546001600160a01b031690565b91611915611908825f52600360205260405f2090565b546001600160a01b031690565b6040805163b88e6d6360e01b81523360048201529491939190856024816001600160a01b037f0000000000000000000000000000000000000000000000000000000000000000165afa918215610b8157610582957f1129f35303e34d7efabdbd85614ed662beb4fc6942852b7a3e5a4f92074cbf3193611a31925f925f92611b18575b506001600160a01b0381165f9081526004602052604090206119be905b54600116151590565b15611b12575081905b6001600160a01b0382811690821603611b0d5750815b6001600160a01b0381165f9081526004602052604090206119fd906119b5565b15611b06575b611a0c8861148d565b91611a168661148d565b611a28895f52600360205260405f2090565b905f5494614276565b93611a413360056106808461148d565b5460028111611ae0575b506001600160a01b038216611a96575b604080516001600160a01b0392831681529290911660208301528101849052606090a2611a866131f3565b6040519081529081906020820190565b611aa53360056106808561148d565b5460028111611ab5575b50611a5b565b611ad3611ada91611ace6106ff3360056106808961148d565b6129dc565b3384613244565b5f611aaf565b611af9611b0091611ace6106ff3360056106808861148d565b3383613244565b5f611a4b565b5081611a03565b6119dd565b906119c7565b909250611b3d915060403d604011611b45575b611b35818361029e565b8101906131a0565b90915f611998565b503d611b2b565b611b6e915060203d602011611b74575b611b66818361029e565b81019061318b565b5f6118c7565b503d611b5c565b3461023a57602036600319011261023a57600435611b9881610229565b335f526004602052600260405f2054161561023a576001600160a01b0381165f908152600460205260409081902080546001179081905590515f8051602061524683398151915292909182916113b7919083612a44565b3461023a57604036600319011261023a57600435611c0c81610229565b602435335f526004602052600260405f2054161561023a577fe40cf68f61d9a4e510244481f5aa34ba68de31cf3f9aa360604d688115d640c89160018060a01b0381165f526001602052611c638260405f206137fa565b6113b760405192839283612a44565b3461023a575f36600319011261023a576005546001600160a01b0316330361023a57600680546001600160a01b0319169055005b3461023a57602036600319011261023a57600435611cc381610229565b6005546001600160a01b0316330361023a576001600160a01b0381165f90815260046020526040902080546002191681555f8051602061524683398151915291906107c2565b60c036600319011261023a57600435611d2181610229565b602435611d2d81610229565b60443590611d3a8261023e565b60643590608435611d4a81610229565b60a4356001600160401b03811161023a57611d69903690600401610328565b925f805160206152668339815191525c6001600160a01b031661023a57335f805160206152668339815191525d6002611da18761148d565b015494611dad8761148d565b54946002611dba8661148d565b015497611dc68661148d565b5491611dd06102df565b6001600160801b03851681529660208801995f8b52611e1860408a01975f895260608b01965f885260808c0193845260a08c019c8d5260c08c019e8f5260e08c01528a614361565b6001600160a01b038281169a90851699611e3c908b8d14159081611f525750612901565b519a516001600160801b03169a6001600160801b038c1661271060c59290921c607f1602049a8b611e6c9161291c565b9b611e768361148d565b905188516001600160801b031690611e8d926135d9565b8a611e978561148d565b9151611ea2926135d9565b855187906001600160801b0316611eb99087612a6a565b6001600160801b031690611ecc92613244565b611ee2916001600160801b038b16903390613205565b519151604080513381526001600160a01b0390951660208601526001600160801b0393841690850152608091821b90831617606084015290851686821b17908201527f6cf01bd7290ca456adc58f838641d629cb223064c72dabf9a6255d86a854762d9060a090a3610a666131f3565b51611f6691506001600160801b0316610aad565b155f6118c7565b3461023a57604036600319011261023a576020611583600435611f8f81610229565b6001600160a01b03165f90815260018352604090205461271060df9190911c603f16602435020490565b608036600319011261023a57600435611fd181610229565b60243590611fde8261023e565b604435611fea81610229565b6064356001600160401b03811161023a57612009903690600401610328565b6001600160a01b03831660010361203a575061202e926001600160801b031691613244565b60405160018152602090f35b6120549390926001600160801b0390911691903390613b89565b61202e565b3461023a57606036600319011261023a576004356024356120798161023e565b6044359061208682610229565b5f805160206152668339815191525c6001600160a01b031661023a57335f805160206152668339815191525d60405163430c208160e01b8152602081806120d1873360048401612a44565b03815f7f00000000000000000000000000000000000000000000000000000000000000006001600160a01b03165af18015610b8157612116915f91611b4c5750612901565b61211e6131c5565b506121276131c5565b5061213d611908845f52600360205260405f2090565b61215460016118e4865f52600360205260405f2090565b6040805163b88e6d6360e01b8152336004820152949193917f000000000000000000000000000000000000000000000000000000000000000091866024816001600160a01b0386165afa958615610b81576122cb6123b794868a896122c6612306967f63741ac8918076a6393e6e12659431a4927b53e16190a6b00af6a06697d868b89d612300995f925f92612453575b506001600160a01b0381165f908152600460205260409020612206906119b5565b1561244b57905b6001600160a01b03828116908216036124465750815b6001600160a01b0381165f908152600460205260409020612243906119b5565b156124325761227061226161225b6122b1939961148d565b9661148d565b965f52600360205260405f2090565b966122a15f54936122916122826102bf565b6001600160801b03909c168c52565b6001600160a01b031660208b0152565b6001600160a01b03166040890152565b60608701526001600160a01b03166080860152565b614609565b80929491956122df3360056106808c61148d565b546001811161240b575b506001600160a01b038a166123c2575b339061366a565b60801b90565b60208201519092906123789061233f906001600160801b03165b60408501516001600160801b03165b60018060801b03169060801b1790565b9161232f61236a61235c612320602085015160018060801b031690565b95516001600160801b031690565b91516001600160801b031690565b604080516001600160a01b039788168152979096166020880152948601929092526060850191909152608084015260a0830191909152819060c0820190565b0390a261202e6131f3565b6123d13360056106808d61148d565b548a600182116123e3575b50506122f9565b61240491611ace6106ff6123fd936005610680339261148d565b338c613244565b5f8a6123dc565b61242561242c91611ace6106ff8d6005610680339261148d565b338b613244565b5f6122e9565b506122b161227061226161225b859961148d565b612223565b50819061220d565b90925061246f915060403d604011611b4557611b35818361029e565b90915f6121e5565b60a036600319011261023a5760043561248f81610229565b60243561249b81610229565b604435906124a88261023e565b6064356001600160401b03811161023a576124c7903690600401610328565b926084356001600160401b03811161023a576124e7903690600401610328565b5f805160206152668339815191525c6001600160a01b031661023a57335f805160206152668339815191525d61258661251e6130e8565b956125276130e8565b956001606d1b6001600160801b0361254b8360026125448a61148d565b015461291c565b161115806128eb575b806128b6575b61256390612901565b61257688826125718861148d565b6140da565b6001600160801b03163385613205565b6001600160a01b0383161590848215612803575b50506125cd6125a76102d0565b3381526001600160a01b03841660208201526001600160a01b03851660408201526136b9565b946125e0865f52600260205260405f2090565b54958615612762575b506125fc865f52600360205260405f2090565b6040820180519196909390916001600160801b03169061261c8260801b90565b60208501519091906001600160801b0316606086018051909a9189916001600160801b03166001600160801b031660809190911b1760208701516001600160801b03166060880180519096918d916001600160801b03166001600160801b031660809190911b179361268d9561387e565b5f1461236a6127097fee89c9fd704272905456294f1b2b88581ebe0241f72c15b4f3db31d19388f6af9a61232f61236a6126fb6123b79b6127179961232f9861274e575080516126e99061236a906001600160801b031661134f565b60801b6001600160801b039091161790565b99516001600160801b031690565b94516001600160801b031690565b604080516001600160a01b0396871681529690951660208701529385019190915260608401526080830191909152819060a0820190565b61236a61275d6126e99261316b565b61134f565b955061276d86613814565b957f00000000000000000000000000000000000000000000000000000000000000006001600160a01b031690813b1561023a576040516340c10f1960e01b8152915f9083908183816127c38e3360048401612a44565b03925af1908115610b815788926127e8926127ef575b505f52600260205260405f2090565b555f6125e9565b80610b755f6127fd9361029e565b5f6127d9565b6128af9161289d61282e60026128188961148d565b015460408b01516001600160801b031690614b70565b6001600160801b0316606084019081529161288261287561284e8a61148d565b548551612863906001600160801b0316610aad565b603f6127109260d91c16820390040290565b6001600160801b03168452565b8251612896906001600160801b0316610aad565b3389613205565b6128a961236a8761148d565b906140da565b5f8461259a565b506128cf6128c38661148d565b54600160ff1b16151590565b8061255a57506125636128e46128c38861148d565b905061255a565b506001600160a01b038581169087161415612554565b1561023a57565b634e487b7160e01b5f52601160045260245ffd5b6001600160801b03918216908216019190821161181757565b6001600160a01b0390911681526001600160801b03909116602082015260400190565b6040519061296582610263565b5f6080838281528260208201528260408201528260608201520152565b9061298c82610586565b612999604051918261029e565b82815280926129aa601f1991610586565b0190602036910137565b80518210156129c85760209160051b010190565b634e487b7160e01b5f52603260045260245ffd5b5f1981019190821161181757565b9291604084019360408152825180955260206060820193015f955b808710612a215750506116449394506020818403910152611600565b81516001600160a01b031685526001969096019560209485019490910190612a05565b6001600160a01b039091168152602081019190915260400190565b6040513d5f823e3d90fd5b6001600160801b03918216908216039190821161181757565b90604051612a9081610263565b82546001600160a01b039081168252600184015416602082015260028301546040820152600383015460608201526004909201546080830152565b80546001600160a01b0319166001600160a01b03909216919091179055565b9190820180921161181757565b9081602091031261023a575190565b6001600160a01b039182168152911660208201526040810191909152606081019190915260a060808201819052810183905260c09290918190848401375f828201840152601f01601f1916010190565b60405190612b666101408361029e565b610102825261030360f41b610120837f307830303030303030303030303030303030303030303030303030303030303060208201525f8051602061528683398151915260408201527f323030303030303030303030303030303030303030303030303030303030303060608201525f8051602061528683398151915260808201527f303130303030303030303030303030303030303030303030303030303030303060a08201525f8051602061528683398151915260c08201527f343030303030303030303030303030303030303030303030303030303030303060e08201525f805160206152868339815191526101008201520152565b929493909190612c6e308461420c565b808311612d9e57506020612cd091612c9a84612c898761148d565b5490603f6127109260df1c16020490565b6001600160a01b0390961697612cb1858a88613244565b6040516323e30c8b60e01b8152938492839289888a3360048801612b06565b03815f8a5af18015610b81577f439148f0bbc682ca079e46d6e2c2f0c1e3b820f1a291b069d8882abf8cf18dd9915f91612d6f575b5003612d54579061067b612d4f9495612d24610aad86612d4096612aea565b90612d2d612b56565b916001600160801b031690309085613b89565b6004019081549060801b019055565b600190565b62678c5b60e81b5f526001600160a01b03851660045260245ffd5b612d91915060203d602011612d97575b612d89818361029e565b810190612af7565b5f612d05565b503d612d7f565b63fd9a760960e01b5f5260045260245ffd5b929491939290915f805160206152668339815191525c6001600160a01b031661023a57612e2f90335f805160206152668339815191525d6001600160a01b03612dfd60016118e48961148d565b1615806130d1575b612e0e90612901565b612e1e8460801c95863389613205565b6001600160801b0384163384613205565b612e45612e3a6130e8565b80936125718461148d565b612e4e8461148d565b91612e72866040830194612e6c876126e9885160018060801b031690565b906137b8565b612ea3612e7d6102d0565b3381526001600160a01b03871660208201526001600160a01b03841660408201526136b9565b92612ead84613814565b612ebf855f52600260205260405f2090565b555f84815260026020526040902054966001600160a01b037f000000000000000000000000000000000000000000000000000000000000000016803b1561023a576040516340c10f1960e01b8152985f918a91829084908290612f26903360048401612a44565b03925af1948515610b815761232f61232f61236a61305061302261305e956114557f3fc0293a5a7bc73de220f0814bbbebc31e77ffcd41bf5e8be187471747bd7caa9f8f908f6130af9f8f928f918f612300612f9791612fea94612fbf946130bd575b50516001600160801b031690565b60208401519093906060906001600160801b031691018051909e6001600160801b0390911690565b93612fda612fcb6102bf565b6001600160a01b039097168752565b6001600160a01b03166020860152565b60408401526060830152608082015261301d61300e845f52600260205260405f2090565b545f52600360205260405f2090565b61311c565b549a61232f61304261134f61303d8b5160018060801b031690565b61316b565b98516001600160801b031690565b96516001600160801b031690565b604080519788526001600160a01b039889166020890152949097169386019390935260608501929092526001600160801b03909116608084015260a083015260c082019290925290819060e0820190565b0390a16001906102ce6131f3565b80610b755f6130cb9361029e565b5f612f89565b50612e0e6130e16128c38561148d565b9050612e05565b60405190608082018281106001600160401b0382111761027e576040525f6060838281528260208201528260408201520152565b90608060049161313560018060a01b0382511685612acb565b6020810151613150906001600160a01b031660018601612acb565b60408101516002850155606081015160038501550151910155565b60011b6002600160801b03811691906002600160811b0316820361181757565b9081602091031261023a5751611644816107d3565b919082604091031261023a57602082516131b981610229565b92015161164481610229565b60405190606082018281106001600160401b0382111761027e576040525f6040838281528260208201520152565b5f5f805160206152668339815191525d565b6102ce93926001600160801b0316913091613b89565b61232f906132308360801d8260801d01614b8b565b926001600160801b03918216911601614b8b565b90919060016001600160a01b0382160361327d57505f80808093613268955af11590565b61326e57565b633d2cec6f60e21b5f5260045ffd5b60445f8080936020956040519763a9059cbb60e01b84526004526024525af13d15601f3d1160015f5114161716905f606052604052156132b957565b633c9fd93960e21b5f5260045ffd5b60808101918251906132e18160c085019384519061360a565b6132ec575b50505050565b60a08301906133188251613309610aad875160018060801b031690565b607f6127109260c51c16020490565b6001600160801b03166040850190815290815161335e90613351906001600160801b031687516001600160801b0316612a6a565b612a6a565b6001600160801b03168652565b8451613372906001600160801b0316610aad565b1515806135c5575b1561354b57613395835161338f885160801c90565b90614bdd565b60e08601906133ad610aad835161338f895160801c90565b6001600160801b0390911610613532576133d06134bf915161338f875160801c90565b87516133dc8282614b70565b885190916001600160801b039182169183168211156134c457505087516134769190613423906134169083906001600160801b0316612a6a565b6001600160801b03168a52565b61345d613431848a51614b70565b60208b0180519091613450916001600160801b031661291c565b61291c565b6001600160801b03169052565b8951906001600160801b0316608084901b175b90614c24565b88526134a2865161349c61348a8483614b70565b6001600160801b0316608085901b1790565b90614c39565b86525b6060870180519091613450916001600160801b031661291c565b61335e565b9091506134d19250614c06565b6134f96134df828851614b70565b6020890180519091613450916001600160801b031661291c565b875187516135149190613470906001600160801b031661348a565b8852613528865161349c61348a8483614b70565b86525f87526134a5565b506134bf613546845161338f895160801c90565b6133d0565b5083519194509150613565906001600160801b0316610aad565b9283156132e65761359f6134509261345061358f6135bc97855190607f6127109260c51c16020490565b82516001600160801b0316612a6a565b5182516001600160801b0316906135b69082613309565b9061291c565b5f8080806132e6565b506135d481875186519061360a565b61337a565b6004906135f3926002820155019182549060801b9061321b565b9055565b8181029291811591840414171561181757565b909161365b916136519061363e61362e6001600160801b038716608084901c6135f7565b6001600160801b038516906135f7565b9460801c906001600160801b03166135f7565b9060801c906135f7565b101561366657600190565b5f90565b6001600160a01b031691823b1561023a5761369e925f9283604051809681958294637bd3ca3560e01b845260048401612935565b03925af18015610b81576136af5750565b5f6102ce9161029e565b6040805182516001600160a01b039081166020808401918252850151821683850152939092015190911660608083019190915281526136f960808261029e565b51902090565b91613724926020925f60405180968195829463067e356d60e21b845260048401612935565b03926001600160a01b03165af1908115610b81575f91613742575090565b90506020813d60201161376f575b8161375d6020938361029e565b8101031261023a57516116448161023e565b3d9150613750565b60046135f39160028101613791815460028701549061321b565b9055600381016137a7815460038701549061321b565b90550191600483549101549061321b565b90916102ce92806002840155600383015560018060e51b031681556001339101612acb565b80546001600160e51b0316600160ff1b8101919082106118175755565b60018060e51b038154169160e51b82018092116118175755565b60405160208101918252306040820152426060820152606081526136f960808261029e565b9161386560026135f394959395600381019660018060801b038854161561386e575b500191825461321b565b9055825461321b565b6138789082612acb565b5f61385b565b936138aa919293600386019360018060801b03855416156138db575b506138656002870191825461321b565b90556001600160a01b0381166138bf57505050565b816138d260049260016135f39501612acb565b0191825461321b565b6138e59087612acb565b5f61389a565b519060ff8216820361023a57565b60208183031261023a578051906001600160401b03821161023a57019060408282031261023a576040519161392d83610283565b613936816138eb565b83526020810151906001600160401b03821161023a570181601f8201121561023a578051906139648261030d565b92613972604051948561029e565b8284526020838301011161023a57815f9260208093018386015e83010152602082015290565b908160c091031261023a576040519060c08201908282106001600160401b0383111761027e5760a0916040528051835260208101516020840152604081015160408401526139e8606082016138eb565b606084015260808101516080840152015160a082015290565b929190604051936020850152604084015260ff60f81b166060830152604182526102ce60618361029e565b805180835260209291819084018484015e5f828201840152601f01601f1916010190565b9092613aa86101009360406116449796613a7d8682516020809160018060a01b0381511684520151910152565b60208181015187840152910151606086015281516001600160a01b03166080860152015160a0840152565b6001600160a01b031660c082015260e081018290520190613a2c565b604061164494936101009360018060a01b0316835265ffffffffffff6060825160018060a01b03815116602087015260018060a01b036020820151168587015282858201511682870152015116608084015260018060a01b0360208201511660a0840152015160c08201528160e08201520190613a2c565b908160a091031261023a57608060405191613b5683610263565b8051835260208101516020840152613b70604082016138eb565b6040840152606081015160608401520151608082015290565b93613b9d90602080825183010191016138f9565b60016001600160a01b03861603613bbb575050509050340361326e57565b60ff613bc8825160ff1690565b1660018103613bdc5750506102ce93614c76565b60028103613dc357506020613bfc91015160208082518301019101613b3c565b6001600160a01b03851673898118e029aa17ed4763f432c1bdc1085d166cde8103613d3957604051623f675f60e91b81526001600160a01b038416600482015290602090829060249082905afa8015610b8157613cfe92613cf05f939284938491613d1a575b50613ce2602084015193613c7a604082015160ff1690565b60608201516080909201516040516323f2ebc360e21b60208201526001600160a01b038c16602482015230604482015260648101959095526084850196909652600160a485015260ff1660c484015260e4830152610104820193909352918290610124820190565b03601f19810183528261029e565b60208151910182895af11590565b613d0b576102ce93614c76565b63203aa5b560e11b5f5260045ffd5b613d33915060203d602011612d9757612d89818361029e565b5f613c62565b505f8082613dbe613cfe9451613ce2602084015193613d5c604082015160ff1690565b606082015160809092015160405163d505accf60e01b60208201526001600160a01b03808d1660248301528d1660448201526064810195909552608485019690965260ff1660a484015260c483015260e4820193909352918290610104820190565b613cf0565b919493909160038103613e635750613ddb9150614c62565b9273419c606ed7dd9e411826a26ce9f146ed5a5f7c343b1561023a57604051631b63c28b60e11b81526001600160a01b03918216600482015291811660248301529283166044820152911660648201525f816084818373419c606ed7dd9e411826a26ce9f146ed5a5f7c345af18015610b8157613e555750565b80610b755f6102ce9361029e565b60048103613fc55750906020613e8491015160208082518301019101613998565b90613f42613e928351614c62565b92613eec613ea9604083015165ffffffffffff1690565b613ed1613eb46102fe565b6001600160a01b038a168152966001600160a01b03166020880152565b65ffffffffffff604087015265ffffffffffff166060860152565b6020810151613ef96102d0565b9485526001600160a01b03861660208601526040850152608081015190613f3c613f2c606060a084015193015160ff1690565b60f81b6001600160f81b03191690565b91613a01565b9173419c606ed7dd9e411826a26ce9f146ed5a5f7c343b1561023a576040516302b67b5760e41b8152925f9184918291613f8191908a60048501613ac4565b03818373419c606ed7dd9e411826a26ce9f146ed5a5f7c345af1918215610b8157613ddb92613fb1575b50614c62565b80610b755f613fbf9361029e565b5f613fab565b600514613fd4575b5050505050565b613fee602061405c93015160208082518301019101613998565b908151613ffc612fcb6102ef565b602086015260408201516020830151906140146102d0565b9687526020870152604086015261403b61402c6102ef565b6001600160a01b039095168552565b6020840152608081015190613f3c613f2c606060a084015193015160ff1690565b9173419c606ed7dd9e411826a26ce9f146ed5a5f7c343b1561023a576140985f93604051958694859463187945bd60e11b865260048601613a50565b03818373419c606ed7dd9e411826a26ce9f146ed5a5f7c345af18015610b81576140c6575b80808080613fcd565b80610b755f6140d49361029e565b5f6140bd565b80549092919061271060d99190911c603f166001600160801b03831602046001600160801b0316825281516001600160801b031661411791612a6a565b6001600160801b031660608201818152600284018054909261413891614c06565b6001600160801b03166040840190815292600485019081549061415b8260801c90565b60039097018054909760801b6001600160801b039091161784516001600160801b031661418791614c06565b6001600160801b039081166020830181815292516141a5921661291c565b90516001600160801b03166001600160801b031660809190911b176141c99161321b565b9055815492516001600160801b031690516001600160801b03166001600160801b031660809190911b1791826141fe9161321b565b90558154906135f39161321b565b6001600160a01b03166001810361422257503190565b6040516370a0823160e01b81526001600160a01b039092166004830152602090829060249082905afa908115610b81575f9161425d575b5090565b611644915060203d602011612d9757612d89818361029e565b94939092969591966004860195838383888a548d6003870154600160801b6001900316600160801b6001900319831617906003015490816142b691614c06565b9060801c6142c391612a6a565b9b8c916142da906001600160801b0384169061321b565b90556142e595614cc5565b60048401805460038601549196916001600160801b03166001600160801b031982161760048b0154908161431891614c06565b9060801c61432591612a6a565b9687916001600160801b03831661433b9161321b565b905561434695614cc5565b6001600160801b031660809190911b1791826102ce916150f7565b6080810180519261438061437c8260c086019687519061360a565b1590565b61438a5750505050565b60e08301906143c96143b983516143aa610aad885160018060801b031690565b607f6127109260cc1c16020490565b6001600160801b03166040860152565b83516143dd906001600160801b0316610aad565b151580614591575b156145835760a084016143fe815161338f865160801c90565b614411610aad855161338f8a5160801c90565b6001600160801b039091161061456b57506144f8614435835161338f885160801c90565b86516144418282614b70565b875190916001600160801b039182169183168211156144fd57505086516144c791906144889061447b9083906001600160801b0316612a6a565b6001600160801b03168952565b6144b0614496848951614b70565b60208a0180519091613450916001600160801b031661291c565b8851906001600160801b0316608084901b1761349c565b87526144db855161347061348a8483614b70565b85525b6060860180519091613450916001600160801b031661291c565b6143c9565b90915061450a9250614c06565b614532614518828751614b70565b6020880180519091613450916001600160801b031661291c565b8651865161454d919061349c906001600160801b031661348a565b8752614561855161347061348a8483614b70565b85525f86526144de565b61457e6144f8915161338f865160801c90565b614435565b50505050505f8080806132e6565b506145a081845187519061360a565b6143e5565b156145ac57565b606460405162461bcd60e51b81526020600482015260046024820152634730313160e01b6044820152fd5b156145de57565b606460405162461bcd60e51b81526020600482015260046024820152632398189960e11b6044820152fd5b919390926146156131c5565b5061461e6131c5565b9361462d600287015460801c90565b6003870154969060801b6001600160801b0388161783519095906146de9061465f906001600160801b03168098614c06565b966146ce6146a4826146946146998261469461467f60048b015460801c90565b60038b015460018060801b03169060801b1790565b614c06565b9d6126e98160801c90565b6146be6146af6102d0565b6001600160801b03909d168d52565b6001600160801b031660208c0152565b6001600160801b031660408a0152565b61486c60208961471284546146f881600160ff1b16151590565b908115614b5f575b81614b38575b81614b04575b506145a5565b600284018054604083015161474d92906147419061473a908e906001600160801b031661232f565b8093615154565b90556003860154615154565b6003850155600484015481516147b0916147a3916001600160801b031684860151614794906001600160801b03165b92608083901b6001600160801b038516175b90615154565b600489015561334c8d8a615169565b6001600160801b03168252565b835460408201516147ef916147e0916147d1906001600160801b0316610aad565b603f6127109260d31c16020490565b6001600160801b031682840152565b805161485e906001600160801b03166060890151848a01516001600160a01b031660408b01516001600160a01b031660808c01519091906001600160a01b03166040870151909390614857906001600160801b0316888a01516001600160801b031690612a6a565b948a614f78565b01516001600160801b031690565b6001600160801b038116614ae6575b505060018101546001600160a01b031661489457505050565b6102ce9295506149376148c7866146946148b2600487015460801c90565b600387015460018060801b03169060801b1790565b916149276148fc886148f760048501546126e960026148ee85614694856126e98160801c90565b97015460801c90565b614b70565b916149176149086102d0565b6001600160801b039096168652565b6001600160801b03166020850152565b6001600160801b03166040830152565b80956149a3835461497560028601549161495d610aad6149578560801c90565b8361513e565b6001600160801b038b16109081614ab5575b506145d7565b6040840151614994906001600160801b031660808a901b178092615154565b60028601556003850154615154565b6003840155600483015482516149ee916149e1916001600160801b031660208601516149d7906001600160801b031661477c565b6004880155612a6a565b6001600160801b03168352565b82546040830151614a1f91614a0f916147d1906001600160801b0316610aad565b6001600160801b03166020840152565b60208201516001600160801b031680614a99575b82516001600160801b031660608301516020840151909190614a93906001600160a01b03169361334c6040614a846080614a75838b015160018060a01b031690565b9901516001600160a01b031690565b9801516001600160801b031690565b95614f78565b614aab600485015461046d8360801b90565b6004850155614a33565b60408701516001600160801b03169150614ad490610aad90859061513e565b6001600160801b03909116105f61496f565b614afa60049161046d838501549160801b90565b9101555f8061487b565b8951909150614b2690610aad906001600160801b03169260028901549061513e565b6001600160801b03909116105f61470c565b9050614b4e610aad614957600289015460801c90565b6001600160801b038c161090614706565b8854600160ff1b1615159150614700565b61164491608082901c6001600160801b039182169190921602045b6001600160801b038111614ba5576001600160801b031690565b505f90565b6001600160801b03909116908115614bc9576001600160801b03160490565b634e487b7160e01b5f52601260045260245ffd5b60bb1c6103ff16801561425957600a0260018060801b0381169081036118175761164491614baa565b611644916001600160801b0380831660809390931c91160204614b8b565b61232f906132308360801d8260801d03614b8b565b61232f90614c4e8360801d8260801d01614b8b565b926001600160801b03908116911603614b8b565b6001600160a01b038116908103614ba55790565b6040516323b872dd60e01b81526001600160a01b03928316600482015292909116602483015260448201929092526020915f9160649183905af13d15601f3d1160015f5114161716156132b957565b93909291614ce9606460dd83901c601f166001600160801b03871602048095612a6a565b6001600160801b03811693909190606460fa83901c86020491606460f482901c603f168702049489614d40606460ee85901c603f168a020498606460e886901c603f168202045b9490603f60649260e21c16020490565b976001600160a01b0383169081614e22575050505050614d605f8361291c565b335f9081526005909801602081905260409098206001600160801b0391909116815490614d8c91612aea565b9055614d98858561291c565b6001600160801b031690614dbc90889060018060a01b03165f5260205260405f2090565b90815490614dc991612aea565b9055614dd491612a6a565b90614dde91612a6a565b90614de891612a6a565b90614df29161291c565b6001600160801b031691614e15919060018060a01b03165f5260205260405f2090565b908154906135f391612aea565b61344b9750918b9391614f269b9593610aad9b98975f9b614f399f6001614e5091015460018060a01b031690565b6001600160a01b039586169581168614158e14614f67576001600160a01b03165f9081526005890160205260409020614e97905b805490926001600160801b031690612aea565b90555b6001600160a01b0381168414158c14614f56576001600160a01b03165f9081526005870160205260409020614ece90614e84565b90555b14158814614f3c576001600160a01b03165f90815260058084016020526040909120614f1f93614e84939091614f049085565b90555b019a8b9060018060a01b03165f5260205260405f2090565b905561291c565b335f908152602093909352604090922090565b55565b506005614f50614e8492614f1f949561291c565b93614f07565b50614f61919661291c565b94614ed1565b50614f72919861291c565b96614e9a565b9495909390929091614fa0606460dd83901c601f166001600160801b03881602048096612a6a565b6001600160801b03811694909290606460fa84901c87020492606460f482901c603f16880204958a614feb606460ee85901c603f168b020499606460e886901c603f16820204614d30565b986001600160a01b038316908161500b575050505050614d60908361291c565b61344b9850908c94939291610aad9b9897614f269d979b614f399f600161503991015460018060a01b031690565b6001600160a01b0395861695811686146150e6576001600160a01b03165f908152600589016020526040902061506e90614e84565b90555b6001600160a01b03811684146150d5576001600160a01b03165f90815260058701602052604090206150a290614e84565b90555b14614f3c576001600160a01b03165f90815260058084016020526040909120614f1f93614e84939091614f049085565b506150e0919661291c565b946150a5565b506150f1919861291c565b96615071565b600381018054615112906001600160801b031985169061321b565b905560018101546001600160a01b031661512a575050565b60046135f391019182549060801b9061321b565b60b11c6103ff1680156142595761164491614baa565b61232f90614c4e8360801d8260801d03614b8b565b906135f390600383016151ed6151bc8254956151858760801c90565b906151cd600282019861232f61519c8b5460801c90565b6001600160801b03908116968a8216968892889291168202839004614b8b565b936001600160801b03160204614b8b565b60018201549093906001600160a01b03166151fa575b5050508254615154565b905582549060801b61478e565b61478e600461523b93019361232f855493615229818460018060801b036152218960801c90565b160204614b8b565b926001600160801b0386160204614b8b565b90555f80806151e356fe5d72191643a9d630c58937d62f5e056dcfa8dbf1aced1cb2f655ee1d7ecaf577cfdbe78f31bc5efa50605e8b11a7b6843971370ea97eb24de6e1a1eb9d2356453030303030303030303030303030303030303030303030303030303030303030a26469706673582212205b9d08f291a7bfafec283760fdf85bbf551689430057e1949286b79deb1177dd64736f6c634300081a0033","linkReferences":{}},"methodIdentifiers":{"addbanlist(address)":"b153b920","buyGood(address,address,uint128,uint256,bool,address,bytes)":"13a124c3","buyGoodForPay(address,address,uint128,uint256,address,bytes)":"ccfd7664","changeGoodOwner(address,address)":"41e12373","changemarketcreator(address)":"a06ad0e8","collectCommission(address[])":"0d2700ab","collectProof(uint256,address)":"a676a600","delproofdata(uint256,address,address)":"1faa5a56","disinvestProof(uint256,uint128,address)":"f4662f20","flashFee(address,uint256)":"d9d98ce4","flashLoan(address,address,uint256,bytes)":"5cffe9de","getGoodState(address)":"08238466","getProofState(uint256)":"3f117740","goodWelfare(address,uint128,bytes)":"06cf4e7f","initGood(address,uint256,address,uint256,bytes,bytes)":"5f755d65","initMetaGood(address,uint256,uint256,bytes)":"51ff9a16","investGood(address,address,uint128,bytes,bytes)":"f878e809","ishigher(address,address,uint256)":"1412723a","marketconfig()":"402f5ab5","marketcreator()":"3d995173","maxFlashLoan(address)":"613255ab","modifyGoodConfig(address,uint256)":"b1efb921","payGood(address,uint128,address,bytes)":"f29771cb","proofmapping(uint256)":"5e008cc4","queryCommission(address[],address)":"9b222794","removeMarketor(address)":"cc00da2d","removeSecurityKeeper()":"c9544f18","removebanlist(address)":"9551177a","securityKeeper(address,uint256)":"44436184","setMarketConfig(uint256)":"45818e4c","setMarketor(address)":"102e5c27","updateGoodConfig(address,uint256)":"a3b74a49","userConfig(address)":"5f35b0b3"},"id":70}