{"abi":[{"type":"constructor","inputs":[{"name":"_creator","type":"address","internalType":"address"},{"name":"_ttswap_market","type":"address","internalType":"contract I_TTSwap_Market"},{"name":"_ttswap_token","type":"address","internalType":"contract IERC20"},{"name":"_ROCKET_TOKEN_RETH","type":"address","internalType":"contract IRocketTokenRETH"},{"name":"_rocketstorage","type":"address","internalType":"contract IRocketStorage"}],"stateMutability":"nonpayable"},{"type":"receive","stateMutability":"payable"},{"type":"function","name":"changeManager","inputs":[{"name":"_manager","type":"address","internalType":"address"}],"outputs":[],"stateMutability":"nonpayable"},{"type":"function","name":"collectTTSReward","inputs":[],"outputs":[],"stateMutability":"nonpayable"},{"type":"function","name":"divest","inputs":[{"name":"_goodQuantity","type":"uint128","internalType":"uint128"}],"outputs":[],"stateMutability":"nonpayable"},{"type":"function","name":"invest","inputs":[{"name":"_goodQuantity","type":"uint128","internalType":"uint128"}],"outputs":[],"stateMutability":"nonpayable"},{"type":"function","name":"rethStaking","inputs":[],"outputs":[{"name":"","type":"uint256","internalType":"uint256"}],"stateMutability":"view"},{"type":"function","name":"sethState","inputs":[],"outputs":[{"name":"","type":"uint256","internalType":"uint256"}],"stateMutability":"view"},{"type":"function","name":"stakeEth","inputs":[{"name":"token","type":"address","internalType":"address"},{"name":"_stakeamount","type":"uint128","internalType":"uint128"}],"outputs":[],"stateMutability":"payable"},{"type":"function","name":"stakeRocketPoolETH","inputs":[{"name":"stakeamount","type":"uint128","internalType":"uint128"}],"outputs":[{"name":"rethAmount","type":"uint128","internalType":"uint128"}],"stateMutability":"nonpayable"},{"type":"function","name":"swethState","inputs":[],"outputs":[{"name":"","type":"uint256","internalType":"uint256"}],"stateMutability":"view"},{"type":"function","name":"syncReward","inputs":[{"name":"token","type":"address","internalType":"address"}],"outputs":[{"name":"reward","type":"uint128","internalType":"uint128"}],"stateMutability":"nonpayable"},{"type":"function","name":"totalStake","inputs":[],"outputs":[{"name":"","type":"uint256","internalType":"uint256"}],"stateMutability":"view"},{"type":"function","name":"totalState","inputs":[],"outputs":[{"name":"","type":"uint256","internalType":"uint256"}],"stateMutability":"view"},{"type":"function","name":"unstakeEthSome","inputs":[{"name":"token","type":"address","internalType":"address"},{"name":"amount","type":"uint128","internalType":"uint128"}],"outputs":[{"name":"reward","type":"uint128","internalType":"uint128"}],"stateMutability":"nonpayable"},{"type":"function","name":"unstakeRocketPoolETH","inputs":[{"name":"rethAmount","type":"uint128","internalType":"uint128"}],"outputs":[],"stateMutability":"nonpayable"},{"type":"event","name":"e_Received","inputs":[{"name":"amount","type":"uint256","indexed":false,"internalType":"uint256"}],"anonymous":false},{"type":"event","name":"e_collecttts","inputs":[{"name":"amount","type":"uint256","indexed":false,"internalType":"uint256"}],"anonymous":false},{"type":"event","name":"e_rocketpoolUnstaked","inputs":[{"name":"totalStake","type":"uint256","indexed":false,"internalType":"uint256"},{"name":"totalState","type":"uint256","indexed":false,"internalType":"uint256"},{"name":"reward","type":"uint128","indexed":false,"internalType":"uint128"}],"anonymous":false},{"type":"event","name":"e_stakeRocketPoolETH","inputs":[{"name":"totalStake","type":"uint256","indexed":false,"internalType":"uint256"}],"anonymous":false},{"type":"event","name":"e_stakeSETH","inputs":[{"name":"totalStake","type":"uint256","indexed":false,"internalType":"uint256"},{"name":"totalState","type":"uint256","indexed":false,"internalType":"uint256"},{"name":"sethShare","type":"uint256","indexed":false,"internalType":"uint256"},{"name":"rethStaking","type":"uint256","indexed":false,"internalType":"uint256"},{"name":"stakeamount","type":"uint128","indexed":false,"internalType":"uint128"}],"anonymous":false},{"type":"event","name":"e_stakeSWETH","inputs":[{"name":"totalStake","type":"uint256","indexed":false,"internalType":"uint256"},{"name":"totalState","type":"uint256","indexed":false,"internalType":"uint256"},{"name":"swethShare","type":"uint256","indexed":false,"internalType":"uint256"},{"name":"rethStaking","type":"uint256","indexed":false,"internalType":"uint256"},{"name":"stakeamount","type":"uint128","indexed":false,"internalType":"uint128"}],"anonymous":false},{"type":"event","name":"e_stakeeth_devest","inputs":[{"name":"rethStaking","type":"uint256","indexed":false,"internalType":"uint256"}],"anonymous":false},{"type":"event","name":"e_stakeeth_invest","inputs":[{"name":"rethStaking","type":"uint256","indexed":false,"internalType":"uint256"}],"anonymous":false},{"type":"event","name":"e_unstakeSETH","inputs":[{"name":"totalStake","type":"uint256","indexed":false,"internalType":"uint256"},{"name":"totalState","type":"uint256","indexed":false,"internalType":"uint256"},{"name":"sethShare","type":"uint256","indexed":false,"internalType":"uint256"},{"name":"rethStaking","type":"uint256","indexed":false,"internalType":"uint256"},{"name":"unstakeAmount","type":"uint256","indexed":false,"internalType":"uint256"}],"anonymous":false},{"type":"event","name":"e_unstakeSWETH","inputs":[{"name":"totalStake","type":"uint256","indexed":false,"internalType":"uint256"},{"name":"totalState","type":"uint256","indexed":false,"internalType":"uint256"},{"name":"swethShare","type":"uint256","indexed":false,"internalType":"uint256"},{"name":"rethStaking","type":"uint256","indexed":false,"internalType":"uint256"},{"name":"unstakeAmount","type":"uint256","indexed":false,"internalType":"uint256"}],"anonymous":false},{"type":"error","name":"DepositFailed","inputs":[]},{"type":"error","name":"ERC20TransferFailed","inputs":[]},{"type":"error","name":"NativeETHTransferFailed","inputs":[]},{"type":"error","name":"TTSwapError","inputs":[{"name":"seq","type":"uint256","internalType":"uint256"}]}],"bytecode":{"object":"0x6101003461015657601f61210338819003918201601f19168301916001600160401b0383118484101761015a5780849260a0946040528339810103126101565780516001600160a01b038116908190036101565760208201516001600160a01b0381168103610156576040830151906001600160a01b0382168203610156576060840151936001600160a01b03851685036101565760800151926001600160a01b038416840361015657600580546001600160a01b0319908116929092179055600680549091163317905560c05260e05260a052608052604051611f94908161016f823960805181818161051e015281816106d701528181610f6f015281816111dc015281816113b30152611a31015260a05181610d97015260c0518181816103bd015281816104aa0152818161072e01528181610ada01528181610b7b01528181610ce9015261141a015260e0518161044a0152f35b5f80fd5b634e487b7160e01b5f52604160045260245ffdfe60806040526004361015610022575b3615610018575f80fd5b6100206119b7565b005b5f3560e01c80630c408b1614610101578063384e54b5146100fc5780633f9958f2146100f75780634fbda438146100f257806361a5192c146100ed5780636cd837af146100e85780638b0e9f3f146100e35780638c706eb5146100de5780638efa0487146100d95780639bd74e1d146100d45780639f58a561146100cf578063a3fbbaae146100ca578063a8d0c726146100c55763baeb91ae0361000e57611382565b611164565b611113565b6110f7565b610d19565b610b1e565b6108fa565b6108dd565b6108c0565b6108a3565b610696565b610679565b61040b565b610154565b6001600160a01b0381160361011757565b5f80fd5b6001600160801b0381160361011757565b60409060031901126101175760043561014481610106565b906024356101518161011b565b90565b34610117576101623661012c565b905f516020611f3f5f395f51905f525c6001600160a01b03166103ed57335f516020611f3f5f395f51905f525d61019f61019b826119f5565b1590565b80156103ba575b6103a6576020916101b5611a14565b6001600160a01b0382166002036102fd577f03ca9cf38d4ce2aa5ec7845761f60c395d791f0d30ed5b588b9d5766b888f2fe9061029161026f6001546102386101fe8583611b7f565b9161023161022c610225610213865f54611b9d565b9560801b6001600160801b0387161790565b8093611bbc565b600155565b5f54611bbc565b5f556006546001600160a01b03165b9061026a60096001600160801b03831604926001600160801b0384169089611c67565b6116d6565b9361028961027d84876116b8565b6001600160801b031690565b903390611c67565b6003545f5460015460045491936102df92906001600160801b0316608088901b175b91604051958695869192608093969594919660a084019784526020840152604083015260608201520152565b0390a15b6102eb6119e3565b6040516001600160801b039091168152f35b7f1a520e8262a7518907a54fcaf0b6d186c0c80fed7857860bc615c2df7c4b8de89061037861026f60025461034f6103358583611b7f565b9161023161034a610225610213865f54611b9d565b600255565b5f5561036761036161027d83876116b8565b87611bf5565b6006546001600160a01b0316610247565b6003545f54600254600454919361039e92906001600160801b0316608088901b176102b3565b0390a16102e3565b63d1b5191160e01b5f52602560045260245ffd5b507f00000000000000000000000000000000000000000000000000000000000000006001600160a01b03163314156101a6565b63d1b5191160e01b5f52600360045260245ffd5b5f91031261011757565b34610117575f366003190112610117576006546001600160a01b03163303610117576040516370a0823160e01b81523060048201526001600160a01b037f00000000000000000000000000000000000000000000000000000000000000001690602081602481855afa908115610618575f9161064a575b506001600160801b03168061049357005b60405163095ea7b360e01b81526001600160a01b037f000000000000000000000000000000000000000000000000000000000000000016600482018190526001600160801b03831660248301526020826044815f885af19081156106185761058194604093859361061d575b5083516378a8f3c360e11b81526001600160a01b0391821660048201527f000000000000000000000000000000000000000000000000000000000000000090911660248201526001600160801b039092166044830152600160648301525f6084830181905260c060a484015260c48301819052919485928391829060e4820190565b03925af1918215610618577f2830a90fac4765f504d820b52c9dfbd66dfb00a95dcf6e782243478e46a44b05926105e0926105d0925f926105e5575b5060801b6001600160801b039091161790565b6040519081529081906020820190565b0390a1005b61060891925060403d604011610611575b61060081836116f6565b81019061175e565b9050905f6105bd565b503d6105f6565b61173b565b61063e9060203d602011610643575b61063681836116f6565b810190611746565b6104ff565b503d61062c565b61066c915060203d602011610672575b61066481836116f6565b81019061172c565b5f610482565b503d61065a565b34610117575f366003190112610117576020600154604051908152f35b34610117576020366003190112610117576004356106b38161011b565b600654906001600160a01b0382163303610117576107106106d2611774565b3081527f00000000000000000000000000000000000000000000000000000000000000006001600160a01b031660208201525b5f6040820152611d16565b60405162fc45dd60e61b815260048101829052906001600160a01b037f00000000000000000000000000000000000000000000000000000000000000001660a083602481845afa948515610618575f6107a3869261079761078661027d60606107e69c60409b8891610874575b50015160801c90565b6001600160801b03861611156116ef565b6001600160a01b031690565b85516307a3317960e51b815260048101959095526001600160801b0390921660248501526001600160a01b03909116604484015291948592839182906064820190565b03925af1908115610618576108119261080c92610846575b506004549060801b90611d5c565b600455565b6004546040519081527f92998adb9d780ebedf7690be5ca91b335882d7c5533142a287aa7feda28dd3309080602081016105e0565b6108679060403d60401161086d575b61085f81836116f6565b8101906117f0565b506107fe565b503d610855565b610896915060a03d60a01161089c575b61088e81836116f6565b810190611785565b5f61077d565b503d610884565b34610117575f366003190112610117576020600254604051908152f35b34610117575f366003190112610117576020600454604051908152f35b34610117575f366003190112610117576020600354604051908152f35b346101175760203660031901126101175760043561091781610106565b5f516020611f3f5f395f51905f525c6001600160a01b0316610b0a57335f516020611f3f5f395f51905f525d61094f61019b826119f5565b8015610ad7575b6103a657602090610965611a14565b6001600160a01b038116600203610a4d57610a13610a005f546109d161022c61099d60015461026a6109978260801c90565b86611b9d565b926109c36109ab8583611b7f565b91608083901b6001600160801b038716175b90611bbc565b5f556001549060801b6109bd565b6006546001600160a01b03169061026a60096001600160801b03831604926001600160801b0384169087611c67565b916001600160801b038316903390611c67565b7f03ca9cf38d4ce2aa5ec7845761f60c395d791f0d30ed5b588b9d5766b888f2fe6003545f54906102df6001546004546102b38760801b90565b610a9d610a005f54610a8a61034a610a6e60025461026a6109978260801c90565b92610a7c6109ab8583611b7f565b5f556002549060801b6109bd565b6109d16001600160801b03821685611bf5565b7f1a520e8262a7518907a54fcaf0b6d186c0c80fed7857860bc615c2df7c4b8de86003545f549061039e6002546004546102b38760801b90565b507f00000000000000000000000000000000000000000000000000000000000000006001600160a01b0316331415610956565b63d1b5191160e01b5f52600360045260245ffd5b610b273661012c565b5f516020611f3f5f395f51905f525c6001600160a01b0316610b0a57335f516020611f3f5f395f51905f525d610b5f61019b836119f5565b8015610ce6575b6103a6576001600160801b038116610ba981307f00000000000000000000000000000000000000000000000000000000000000006001600160a01b031686611d85565b5f54928315610cd957610bdc610bd584610bc38188611b7f565b60801b6001600160801b039091161790565b8095611e1c565b5f556001600160a01b038116600203610c62575050610c2161022c7f98742f24b32588ba36de8bae553846319fdc5b703def3876f94d1ea44d13575e93600154611e1c565b6003545f546001546004546040805194855260208501939093529183015260608201526001600160801b0391909116608082015260a090a15b6100206119e3565b90610c9c91610c9761034a7f4eaf8b4d93b127ef701a9fe9b93a91d6c7d003aa2535cea4ee0cbd422cd375cb96600254611e1c565b611e31565b6003545f546002546004546040805194855260208501939093529183015260608201526001600160801b0391909116608082015260a090a1610c5a565b610bdc610bd58480610bc3565b507f00000000000000000000000000000000000000000000000000000000000000006001600160a01b0316331415610b66565b3461011757602036600319011261011757600435610d368161011b565b6006546001600160a01b03163303610117576040516f636f6e74726163742e6164647265737360801b60208083019182527f726f636b657444414f50726f746f636f6c53657474696e67734465706f73697460308401526001600160a01b037f00000000000000000000000000000000000000000000000000000000000000001692610df69290610dd481605081015b03601f1981018352826116f6565b519020604051809381926321f8a72160e01b8352600483019190602083019252565b0381855afa90811561061857610e88916020915f916110da575b506040516f636f6e74726163742e6164647265737360801b838201908152701c9bd8dad95d11195c1bdcda5d141bdbdb607a1b60108201526001600160a01b0392909216949190610e648160218401610dc6565b5190209060405180809581946321f8a72160e01b8352600483019190602083019252565b03915afa908115610618575f916110ab575b50604051636ada784760e01b81526001600160a01b03919091169190602081600481855afa801561061857610ed6915f9161108c575b5061182a565b604051629032ff60e51b815290602082600481865afa918215610618575f92611067575b50602060049160405192838092637eb6744f60e11b82525afa801561061857610f42915f91611048575b506001600160801b03851692610f3b90849061188a565b1115611897565b6040516321a3781f60e11b81526001600160801b0384166004820152926020846024816001600160a01b037f0000000000000000000000000000000000000000000000000000000000000000165afa90811561061857610fbe610fdc93610fd793611025975f91611029575b506001600160801b031695611bf5565b6003549060801b6001600160801b038516175b90611e1c565b600355565b6003546040519081527f08de5306b0e0e53b162e3e26b9db564392ed26f49857e4c092278c7a5ef1dccf90602090a16040516001600160801b0390911681529081906020820190565b0390f35b611042915060203d6020116106725761066481836116f6565b5f610fae565b611061915060203d6020116106725761066481836116f6565b5f610f24565b6004919250611084602091823d84116106725761066481836116f6565b929150610efa565b6110a5915060203d6020116106435761063681836116f6565b5f610ed0565b6110cd915060203d6020116110d3575b6110c581836116f6565b810190611815565b5f610e9a565b503d6110bb565b6110f19150823d84116110d3576110c581836116f6565b5f610e10565b34610117575f3660031901126101175760205f54604051908152f35b346101175760203660031901126101175760043561113081610106565b6005546001600160a01b0316330361011757600680546001600160a01b0319166001600160a01b0392909216919091179055005b34610117576020366003190112610117576004356111818161011b565b6006546001600160a01b03163303610117576001600160801b0381166111a88115156118e3565b6111b482600354611b7f565b604051638b32fa2360e01b81526001600160801b038416600482015290916001600160a01b037f00000000000000000000000000000000000000000000000000000000000000001691602081602481865afa908115610618575f91611363575b506040516370a0823160e01b81523060048201526001600160801b039190911691602082602481875afa801561061857611257925f91611344575b50101561192f565b61126183826116d6565b92823b1561011757604051630852cd8d60e31b81526001600160801b0386166004820152925f908490602490829084905af1928315610618577f09ce91f9bf23e98bbffef1ed1b2a12d913606db577b6fabf9a81cb368f7900f2956112e2610fd7946109bd936112fa9761132a575b505f54906001600160801b0316610fd1565b5f556003549260801b6001600160801b039091161790565b6003545f546040805192835260208301919091526001600160801b039092169181019190915280606081016105e0565b806113385f61133e936116f6565b80610401565b5f6112d0565b61135d915060203d6020116106725761066481836116f6565b5f61124f565b61137c915060203d6020116106725761066481836116f6565b5f611214565b346101175760203660031901126101175760043561139f8161011b565b6006546001600160a01b03163303610117577f00000000000000000000000000000000000000000000000000000000000000006001600160a01b03166113fd6113e6611774565b3081526001600160a01b0383166020820152610705565b60405162fc45dd60e61b8152600481018290526001600160a01b037f00000000000000000000000000000000000000000000000000000000000000001693919060a081602481885afa908115610618575f91611685575b506060015160801c61163b57505f5b6001600160801b038281169116811015806115bb575b61148391506116ef565b61149661080c600454610fd18460801b90565b60405163095ea7b360e01b81526001600160a01b03841660048201526001600160801b0382166024820152926020846044815f875af19283156106185761153f946020946115a0575b5060405163f878e80960e01b81526001600160a01b0390911660048201525f602482018190526001600160801b03909316604482015260a0606482015260a4810183905260c0608482015260c481018390529384928391829060e4820190565b03925af1801561061857611583575b6004546040519081527f1aabc5bac43d0320859dde3d2ff7ff75d8e57946f27d1bb12bcb59eb7079979b9080602081016105e0565b61159b9060203d6020116106435761063681836116f6565b61154e565b6115b690853d87116106435761063681836116f6565b6114df565b506040516370a0823160e01b815230600482015290602082602481875afa9182156106185761027d61160461148394611615935f9161161c575b506001600160801b0316611997565b600a6001600160801b039091160490565b1015611479565b611635915060203d6020116106725761066481836116f6565b5f6115f5565b60405162fc45dd60e61b8152600481019190915260a081602481875afa9081156106185761167b606061168093611604935f916108745750015160801c90565b611977565b611463565b61169e915060a03d60a01161089c5761088e81836116f6565b5f611454565b634e487b7160e01b5f52601160045260245ffd5b6001600160801b0391821690821601919082116116d157565b6116a4565b6001600160801b0391821690821603919082116116d157565b1561011757565b90601f8019910116810190811067ffffffffffffffff82111761171857604052565b634e487b7160e01b5f52604160045260245ffd5b90816020910312610117575190565b6040513d5f823e3d90fd5b90816020910312610117575180151581036101175790565b9190826040910312610117576020825192015190565b604051906117836060836116f6565b565b908160a0910312610117576040519060a082019082821067ffffffffffffffff8311176117185760809160405280516117bd81610106565b835260208101516117cd81610106565b602084015260408101516040840152606081015160608401520151608082015290565b919082604091031261011757602082516118098161011b565b9201516101518161011b565b90816020910312610117575161015181610106565b1561183157565b60405162461bcd60e51b815260206004820152602b60248201527f526f636b657420506f6f6c206465706f73697473206172652063757272656e7460448201526a1b1e48191a5cd8589b195960aa1b6064820152608490fd5b919082018092116116d157565b1561189e57565b60405162461bcd60e51b815260206004820152601a60248201527f4465706f73697420706f6f6c2073697a652065786365656465640000000000006044820152606490fd5b156118ea57565b60405162461bcd60e51b815260206004820152601d60248201527f416d6f756e74206d7573742062652067726561746572207468616e20300000006044820152606490fd5b1561193657565b60405162461bcd60e51b8152602060048201526019602482015278496e73756666696369656e7420724554482062616c616e636560381b6044820152606490fd5b60011b6002600160801b03811691906002600160811b031682036116d157565b60031b6008600160801b03811691906008600160831b031682036116d157565b7f523e899a52e7d85e90429d2280f7c0d23bfc8046b66a4a172cc67f2f9a8f85fc6020604051348152a1565b5f5f516020611f3f5f395f51905f525d565b60018060a01b031660038114908115611a0c575090565b600291501490565b6040516370a0823160e01b81523060048201526001600160a01b037f00000000000000000000000000000000000000000000000000000000000000001690602081602481855afa91821561061857611a8c61027d611ab8946020945f91611b62575b50611a8661027d60045460801c90565b9061188a565b604051638b32fa2360e01b81526001600160801b03909116600482015292839190829081906024820190565b03915afa908115610618575f91611b43575b50600354906001600160801b0316608082901c808210611b3a57611aed916116d6565b905b6001600160801b038216611b01575050565b81611b19610fd761080c93610fd16117839660801b90565b5f5490611b30906001600160801b03168092611e1c565b5f55600454611e1c565b50505f90611aef565b611b5c915060203d6020116106725761066481836116f6565b5f611aca565b611b799150853d87116106725761066481836116f6565b5f611a76565b610151916001600160801b0380831660809390931c91160204611ea6565b61015191608082901c6001600160801b03918216919092160204611ea6565b611be590611bd18360801d8260801d03611ea6565b926001600160801b03908116911603611ea6565b60018060801b03169060801b1790565b906001600160a01b038216600314611c4b575b5f60048160209360405195630d0e30db60e41b83525af13d15601f3d1160015f5114161716905f60605260405215611c3c57565b6379cacff160e01b5f5260045ffd5b732387fd72c1da19f6486b843f5da562679fbb40579150611c08565b919091611c7381611ec5565b15611c9d57505f80808093611c88955af11590565b611c8e57565b633607a14f60e11b5f5260045ffd5b6001600160a01b038116600303611ccd575061178391732387fd72c1da19f6486b843f5da562679fbb4057611c67565b60445f8080936020956040519763a9059cbb60e01b84526004526024525af13d15601f3d1160015f5114161716905f606052604052611783575b633c9fd93960e21b5f5260045ffd5b6040805182516001600160a01b03908116602080840191825285015182168385015293909201519091166060808301919091528152611d566080826116f6565b51902090565b611be590611d718360801d8260801d03611ea6565b926001600160801b03918216911601611ea6565b929190611d9184611ec5565b15611da857505f809350809281925af115611c8e57565b6001600160a01b038416600303611dc3576117839350611edd565b6040516323b872dd60e01b81526001600160a01b0391821660048201529116602482015260448101919091526020915f9160649183905af13d15601f3d1160015f511416171661178357633c9fd93960e21b5f5260045ffd5b611be590611d718360801d8260801d01611ea6565b6001600160a01b0316600314611e445750565b732387fd72c1da19f6486b843f5da562679fbb40573b156101175760405190632e1a7d4d60e01b825260048201525f8160248183732387fd72c1da19f6486b843f5da562679fbb40575af1801561061857611e9c5750565b5f611783916116f6565b6001600160801b038111611ec0576001600160801b031690565b505f90565b6001600160a01b031660018114908115611a0c575090565b6040516323b872dd60e01b81526001600160a01b0391821660048201529116602482015260448101919091526020905f9060649082732387fd72c1da19f6486b843f5da562679fbb40575af13d15601f3d1160015f511416171615611d075756fee8b57f2a24cc49561abc37cc14eb27f7e291d1ac82b5f173f246cc4b4de01451a2646970667358221220c791e6193c551780ac77086b5e433812c12eadc0b33ac711845bb8a4d2494df964736f6c634300081d0033","linkReferences":{}},"methodIdentifiers":{"changeManager(address)":"a3fbbaae","collectTTSReward()":"384e54b5","divest(uint128)":"4fbda438","invest(uint128)":"baeb91ae","rethStaking()":"6cd837af","sethState()":"3f9958f2","stakeEth(address,uint128)":"8efa0487","stakeRocketPoolETH(uint128)":"9bd74e1d","swethState()":"61a5192c","syncReward(address)":"8c706eb5","totalStake()":"8b0e9f3f","totalState()":"9f58a561","unstakeEthSome(address,uint128)":"0c408b16","unstakeRocketPoolETH(uint128)":"a8d0c726"},"id":48}