{"abi":[{"type":"constructor","inputs":[{"name":"_usdt","type":"address","internalType":"address"},{"name":"_dao_admin","type":"address","internalType":"address"},{"name":"_ttsconfig","type":"uint256","internalType":"uint256"}],"stateMutability":"nonpayable"},{"type":"function","name":"DOMAIN_SEPARATOR","inputs":[],"outputs":[{"name":"","type":"bytes32","internalType":"bytes32"}],"stateMutability":"view"},{"type":"function","name":"addShare","inputs":[{"name":"_share","type":"tuple","internalType":"struct s_share","components":[{"name":"recipient","type":"address","internalType":"address"},{"name":"leftamount","type":"uint128","internalType":"uint128"},{"name":"metric","type":"uint120","internalType":"uint120"},{"name":"chips","type":"uint8","internalType":"uint8"}]}],"outputs":[],"stateMutability":"nonpayable"},{"type":"function","name":"addauths","inputs":[{"name":"_auths","type":"address","internalType":"address"},{"name":"_priv","type":"uint256","internalType":"uint256"}],"outputs":[],"stateMutability":"nonpayable"},{"type":"function","name":"addreferral","inputs":[{"name":"user","type":"address","internalType":"address"},{"name":"referral","type":"address","internalType":"address"}],"outputs":[],"stateMutability":"nonpayable"},{"type":"function","name":"allowance","inputs":[{"name":"owner","type":"address","internalType":"address"},{"name":"spender","type":"address","internalType":"address"}],"outputs":[{"name":"","type":"uint256","internalType":"uint256"}],"stateMutability":"view"},{"type":"function","name":"approve","inputs":[{"name":"spender","type":"address","internalType":"address"},{"name":"amount","type":"uint256","internalType":"uint256"}],"outputs":[{"name":"","type":"bool","internalType":"bool"}],"stateMutability":"nonpayable"},{"type":"function","name":"auths","inputs":[{"name":"","type":"address","internalType":"address"}],"outputs":[{"name":"","type":"uint256","internalType":"uint256"}],"stateMutability":"view"},{"type":"function","name":"balanceOf","inputs":[{"name":"account","type":"address","internalType":"address"}],"outputs":[{"name":"","type":"uint256","internalType":"uint256"}],"stateMutability":"view"},{"type":"function","name":"burn","inputs":[{"name":"account","type":"address","internalType":"address"},{"name":"value","type":"uint256","internalType":"uint256"}],"outputs":[],"stateMutability":"nonpayable"},{"type":"function","name":"burnShare","inputs":[{"name":"index","type":"uint8","internalType":"uint8"}],"outputs":[],"stateMutability":"nonpayable"},{"type":"function","name":"chain_deposit","inputs":[{"name":"chainid","type":"uint32","internalType":"uint32"},{"name":"asset","type":"uint128","internalType":"uint128"}],"outputs":[],"stateMutability":"nonpayable"},{"type":"function","name":"chain_withdraw","inputs":[{"name":"chainid","type":"uint32","internalType":"uint32"},{"name":"asset","type":"uint128","internalType":"uint128"}],"outputs":[],"stateMutability":"nonpayable"},{"type":"function","name":"chainindex","inputs":[],"outputs":[{"name":"","type":"uint32","internalType":"uint32"}],"stateMutability":"view"},{"type":"function","name":"chains","inputs":[{"name":"","type":"uint32","internalType":"uint32"}],"outputs":[{"name":"asset","type":"uint256","internalType":"uint256"},{"name":"proofstate","type":"uint256","internalType":"uint256"},{"name":"recipient","type":"address","internalType":"address"}],"stateMutability":"view"},{"type":"function","name":"changeDAOAdmin","inputs":[{"name":"_recipient","type":"address","internalType":"address"}],"outputs":[],"stateMutability":"nonpayable"},{"type":"function","name":"dao_admin","inputs":[],"outputs":[{"name":"","type":"address","internalType":"address"}],"stateMutability":"view"},{"type":"function","name":"decimals","inputs":[],"outputs":[{"name":"","type":"uint8","internalType":"uint8"}],"stateMutability":"pure"},{"type":"function","name":"decreaseAllowance","inputs":[{"name":"spender","type":"address","internalType":"address"},{"name":"subtractedValue","type":"uint256","internalType":"uint256"}],"outputs":[{"name":"","type":"bool","internalType":"bool"}],"stateMutability":"nonpayable"},{"type":"function","name":"eip712Domain","inputs":[],"outputs":[{"name":"fields","type":"bytes1","internalType":"bytes1"},{"name":"name","type":"string","internalType":"string"},{"name":"version","type":"string","internalType":"string"},{"name":"chainId","type":"uint256","internalType":"uint256"},{"name":"verifyingContract","type":"address","internalType":"address"},{"name":"salt","type":"bytes32","internalType":"bytes32"},{"name":"extensions","type":"uint256[]","internalType":"uint256[]"}],"stateMutability":"view"},{"type":"function","name":"getreferralanddaoadmin","inputs":[{"name":"_customer","type":"address","internalType":"address"}],"outputs":[{"name":"","type":"address","internalType":"address"},{"name":"","type":"address","internalType":"address"}],"stateMutability":"view"},{"type":"function","name":"increaseAllowance","inputs":[{"name":"spender","type":"address","internalType":"address"},{"name":"addedValue","type":"uint256","internalType":"uint256"}],"outputs":[{"name":"","type":"bool","internalType":"bool"}],"stateMutability":"nonpayable"},{"type":"function","name":"left_share","inputs":[],"outputs":[{"name":"","type":"uint128","internalType":"uint128"}],"stateMutability":"view"},{"type":"function","name":"marketcontract","inputs":[],"outputs":[{"name":"","type":"address","internalType":"address"}],"stateMutability":"view"},{"type":"function","name":"name","inputs":[],"outputs":[{"name":"","type":"string","internalType":"string"}],"stateMutability":"view"},{"type":"function","name":"nonces","inputs":[{"name":"owner","type":"address","internalType":"address"}],"outputs":[{"name":"","type":"uint256","internalType":"uint256"}],"stateMutability":"view"},{"type":"function","name":"normalgoodid","inputs":[],"outputs":[{"name":"","type":"uint256","internalType":"uint256"}],"stateMutability":"view"},{"type":"function","name":"permit","inputs":[{"name":"owner","type":"address","internalType":"address"},{"name":"spender","type":"address","internalType":"address"},{"name":"value","type":"uint256","internalType":"uint256"},{"name":"deadline","type":"uint256","internalType":"uint256"},{"name":"v","type":"uint8","internalType":"uint8"},{"name":"r","type":"bytes32","internalType":"bytes32"},{"name":"s","type":"bytes32","internalType":"bytes32"}],"outputs":[],"stateMutability":"nonpayable"},{"type":"function","name":"poolstate","inputs":[],"outputs":[{"name":"","type":"uint256","internalType":"uint256"}],"stateMutability":"view"},{"type":"function","name":"public_Sell","inputs":[{"name":"usdtamount","type":"uint256","internalType":"uint256"}],"outputs":[],"stateMutability":"nonpayable"},{"type":"function","name":"publicsell","inputs":[],"outputs":[{"name":"","type":"uint128","internalType":"uint128"}],"stateMutability":"view"},{"type":"function","name":"referrals","inputs":[{"name":"","type":"address","internalType":"address"}],"outputs":[{"name":"","type":"address","internalType":"address"}],"stateMutability":"view"},{"type":"function","name":"rmauths","inputs":[{"name":"_auths","type":"address","internalType":"address"}],"outputs":[],"stateMutability":"nonpayable"},{"type":"function","name":"setEnv","inputs":[{"name":"_normalgoodid","type":"uint256","internalType":"uint256"},{"name":"_valuegoodid","type":"uint256","internalType":"uint256"},{"name":"_marketcontract","type":"address","internalType":"address"}],"outputs":[],"stateMutability":"nonpayable"},{"type":"function","name":"setMainTriggerMarket","inputs":[{"name":"Maintriggeradd","type":"address","internalType":"address"},{"name":"marketadd","type":"address","internalType":"address"}],"outputs":[],"stateMutability":"nonpayable"},{"type":"function","name":"shareMint","inputs":[{"name":"index","type":"uint8","internalType":"uint8"}],"outputs":[],"stateMutability":"nonpayable"},{"type":"function","name":"shares_index","inputs":[],"outputs":[{"name":"","type":"uint32","internalType":"uint32"}],"stateMutability":"view"},{"type":"function","name":"stake","inputs":[{"name":"_staker","type":"address","internalType":"address"},{"name":"proofvalue","type":"uint128","internalType":"uint128"}],"outputs":[{"name":"netconstruct","type":"uint128","internalType":"uint128"}],"stateMutability":"nonpayable"},{"type":"function","name":"stakeproof","inputs":[{"name":"","type":"uint256","internalType":"uint256"}],"outputs":[{"name":"fromcontract","type":"address","internalType":"address"},{"name":"proofstate","type":"uint256","internalType":"uint256"}],"stateMutability":"view"},{"type":"function","name":"stakestate","inputs":[],"outputs":[{"name":"","type":"uint256","internalType":"uint256"}],"stateMutability":"view"},{"type":"function","name":"subchainDeposit","inputs":[{"name":"asset","type":"uint128","internalType":"uint128"},{"name":"recipient","type":"address","internalType":"address"}],"outputs":[],"stateMutability":"nonpayable"},{"type":"function","name":"subchainWithdraw","inputs":[{"name":"asset","type":"uint128","internalType":"uint128"},{"name":"recipient","type":"address","internalType":"address"}],"outputs":[],"stateMutability":"nonpayable"},{"type":"function","name":"symbol","inputs":[],"outputs":[{"name":"","type":"string","internalType":"string"}],"stateMutability":"view"},{"type":"function","name":"syncChainStake","inputs":[{"name":"chainid","type":"uint32","internalType":"uint32"},{"name":"chainvalue","type":"uint128","internalType":"uint128"}],"outputs":[{"name":"poolasset","type":"uint128","internalType":"uint128"}],"stateMutability":"nonpayable"},{"type":"function","name":"syncPoolAsset","inputs":[{"name":"amount","type":"uint128","internalType":"uint128"}],"outputs":[],"stateMutability":"nonpayable"},{"type":"function","name":"totalSupply","inputs":[],"outputs":[{"name":"","type":"uint256","internalType":"uint256"}],"stateMutability":"view"},{"type":"function","name":"transfer","inputs":[{"name":"to","type":"address","internalType":"address"},{"name":"amount","type":"uint256","internalType":"uint256"}],"outputs":[{"name":"","type":"bool","internalType":"bool"}],"stateMutability":"nonpayable"},{"type":"function","name":"transferFrom","inputs":[{"name":"from","type":"address","internalType":"address"},{"name":"to","type":"address","internalType":"address"},{"name":"amount","type":"uint256","internalType":"uint256"}],"outputs":[{"name":"","type":"bool","internalType":"bool"}],"stateMutability":"nonpayable"},{"type":"function","name":"ttstokenconfig","inputs":[],"outputs":[{"name":"","type":"uint256","internalType":"uint256"}],"stateMutability":"view"},{"type":"function","name":"unstake","inputs":[{"name":"_staker","type":"address","internalType":"address"},{"name":"proofvalue","type":"uint128","internalType":"uint128"}],"outputs":[],"stateMutability":"nonpayable"},{"type":"function","name":"usdt","inputs":[],"outputs":[{"name":"","type":"address","internalType":"address"}],"stateMutability":"view"},{"type":"function","name":"valuegoodid","inputs":[],"outputs":[{"name":"","type":"uint256","internalType":"uint256"}],"stateMutability":"view"},{"type":"function","name":"withdrawPublicSell","inputs":[{"name":"amount","type":"uint256","internalType":"uint256"},{"name":"recipient","type":"address","internalType":"address"}],"outputs":[],"stateMutability":"nonpayable"},{"type":"event","name":"Approval","inputs":[{"name":"owner","type":"address","indexed":true,"internalType":"address"},{"name":"spender","type":"address","indexed":true,"internalType":"address"},{"name":"value","type":"uint256","indexed":false,"internalType":"uint256"}],"anonymous":false},{"type":"event","name":"EIP712DomainChanged","inputs":[],"anonymous":false},{"type":"event","name":"Transfer","inputs":[{"name":"from","type":"address","indexed":true,"internalType":"address"},{"name":"to","type":"address","indexed":true,"internalType":"address"},{"name":"value","type":"uint256","indexed":false,"internalType":"uint256"}],"anonymous":false},{"type":"event","name":"e_addShare","inputs":[{"name":"recipient","type":"address","indexed":false,"internalType":"address"},{"name":"leftamount","type":"uint256","indexed":false,"internalType":"uint256"},{"name":"metric","type":"uint120","indexed":false,"internalType":"uint120"},{"name":"chips","type":"uint8","indexed":false,"internalType":"uint8"},{"name":"index","type":"uint32","indexed":false,"internalType":"uint32"}],"anonymous":false},{"type":"event","name":"e_addauths","inputs":[{"name":"auths","type":"address","indexed":false,"internalType":"address"},{"name":"priv","type":"uint256","indexed":false,"internalType":"uint256"}],"anonymous":false},{"type":"event","name":"e_addreferral","inputs":[{"name":"users","type":"address","indexed":false,"internalType":"address"},{"name":"referral","type":"address","indexed":false,"internalType":"address"}],"anonymous":false},{"type":"event","name":"e_burnShare","inputs":[{"name":"index","type":"uint32","indexed":false,"internalType":"uint32"}],"anonymous":false},{"type":"event","name":"e_publicsell","inputs":[{"name":"usdtamount","type":"uint256","indexed":false,"internalType":"uint256"},{"name":"ttsamount","type":"uint256","indexed":false,"internalType":"uint256"}],"anonymous":false},{"type":"event","name":"e_rmauths","inputs":[{"name":"auths","type":"address","indexed":false,"internalType":"address"}],"anonymous":false},{"type":"event","name":"e_setdaoadmin","inputs":[{"name":"recipient","type":"address","indexed":false,"internalType":"address"}],"anonymous":false},{"type":"event","name":"e_setenv","inputs":[{"name":"normalgoodid","type":"uint256","indexed":false,"internalType":"uint256"},{"name":"valuegoodid","type":"uint256","indexed":false,"internalType":"uint256"},{"name":"marketcontract","type":"address","indexed":false,"internalType":"address"}],"anonymous":false},{"type":"event","name":"e_shareMint","inputs":[{"name":"mintamount","type":"uint128","indexed":false,"internalType":"uint128"},{"name":"index","type":"uint32","indexed":false,"internalType":"uint32"}],"anonymous":false},{"type":"event","name":"e_syncChainStake","inputs":[{"name":"chain","type":"uint32","indexed":false,"internalType":"uint32"},{"name":"poolasset","type":"uint128","indexed":false,"internalType":"uint128"},{"name":"proofstate","type":"uint256","indexed":false,"internalType":"uint256"}],"anonymous":false},{"type":"event","name":"e_unstake","inputs":[{"name":"recipient","type":"address","indexed":false,"internalType":"address"},{"name":"proofvalue","type":"uint256","indexed":false,"internalType":"uint256"},{"name":"unstakestate","type":"uint256","indexed":false,"internalType":"uint256"},{"name":"stakestate","type":"uint256","indexed":false,"internalType":"uint256"},{"name":"poolstate","type":"uint256","indexed":false,"internalType":"uint256"}],"anonymous":false},{"type":"event","name":"e_updatepool","inputs":[{"name":"poolstate","type":"uint256","indexed":false,"internalType":"uint256"}],"anonymous":false},{"type":"error","name":"InvalidShortString","inputs":[]},{"type":"error","name":"StringTooLong","inputs":[{"name":"str","type":"string","internalType":"string"}]}],"bytecode":{"object":"0x610180604052601380546001600160801b0319166601c6bf52634000179055348015610029575f80fd5b5060405161399538038061399583398101604081905261004891610274565b6040518060400160405280600c81526020016b2a2a29bbb0b8102a37b5b2b760a11b81525080604051806040016040528060018152602001603160f81b8152506040518060400160405280600c81526020016b2a2a29bbb0b8102a37b5b2b760a11b8152506040518060400160405280600381526020016254545360e81b81525081600390816100d89190610345565b5060046100e58282610345565b506100f5915083905060056101e1565b610120526101048160066101e1565b61014052815160208084019190912060e052815190820120610100524660a05261019060e05161010051604080517f8b73c3c69bb8fe3d512ecc4cf759cc79239f7b179b0ffacaa9a75d522b39400f60208201529081019290925260608201524660808201523060a08201525f9060c00160405160208183030381529060405280519060200120905090565b60809081523060c0526001600160a01b0387166101605242901b92506101b4915050565b600b55601180546001600160a01b0319166001600160a01b03939093169290921790915560095550610457565b5f6020835110156101fc576101f583610213565b905061020d565b816102078482610345565b5060ff90505b92915050565b5f80829050601f81511115610246578260405163305a27a960e01b815260040161023d91906103ff565b60405180910390fd5b805161025182610434565b179392505050565b80516001600160a01b038116811461026f575f80fd5b919050565b5f805f60608486031215610286575f80fd5b61028f84610259565b925061029d60208501610259565b9150604084015190509250925092565b634e487b7160e01b5f52604160045260245ffd5b600181811c908216806102d557607f821691505b6020821081036102f357634e487b7160e01b5f52602260045260245ffd5b50919050565b601f82111561034057805f5260205f20601f840160051c8101602085101561031e5750805b601f840160051c820191505b8181101561033d575f815560010161032a565b50505b505050565b81516001600160401b0381111561035e5761035e6102ad565b6103728161036c84546102c1565b846102f9565b6020601f8211600181146103a4575f831561038d5750848201515b5f19600385901b1c1916600184901b17845561033d565b5f84815260208120601f198516915b828110156103d357878501518255602094850194600190920191016103b3565b50848210156103f057868401515f19600387901b60f8161c191681555b50505050600190811b01905550565b602081525f82518060208401528060208501604085015e5f604082850101526040601f19601f83011684010191505092915050565b805160208083015191908110156102f3575f1960209190910360031b1b16919050565b60805160a05160c05160e051610100516101205161014051610160516134d56104c05f395f81816104820152818161127b0152611f9d01525f6117c701525f61179c01525f61291a01525f6128f201525f61284d01525f61287701525f6128a101526134d55ff3fe608060405234801561000f575f80fd5b506004361061033b575f3560e01c80637bd3ca35116101b3578063b3e08a69116100f3578063dd62ed3e1161009e578063e7b43e7d11610079578063e7b43e7d1461084f578063eca93cce14610862578063f35da46214610875578063f6f9b80d1461087e575f80fd5b8063dd62ed3e146107ea578063de5712d414610822578063df8765481461083c575f80fd5b8063cae97640116100ce578063cae97640146107bb578063cd993b11146107c4578063d505accf146107d7575f80fd5b8063b3e08a6914610742578063b88e6d6314610755578063c3bb7fff146107a8575f80fd5b80639241bda61161015e5780639dc29fac116101395780639dc29fac146106f6578063a457c2d714610709578063a538e6a91461071c578063a9059cbb1461072f575f80fd5b80639241bda6146106b357806395d89b41146106c65780639ca423b3146106ce575f80fd5b8063845fcee41161018e578063845fcee41461063457806384b0196e1461063d5780638b203dd414610658575f80fd5b80637bd3ca35146105e25780637ecebe00146105f55780638378e56314610608575f80fd5b80633644e5151161027e578063542128dd11610229578063696bb4ad11610204578063696bb4ad1461056857806369a5ac32146105945780636c0deba1146105a757806370a08231146105ba575f80fd5b8063542128dd1461052d578063623059a51461054057806364e72dbd14610549575f80fd5b80633cba316b116102595780633cba316b146104f457806345fda7071461050757806347036e751461051a575f80fd5b80633644e515146104c657806339509351146104ce5780633b107e21146104e1575f80fd5b806318160ddd116102e95780632bf960da116102c45780632bf960da146104525780632f48ab7d1461047d57806330fd6b29146104a4578063313ce567146104b7575f80fd5b806318160ddd1461040c57806319f8d5b41461041457806323b872dd1461043f575f80fd5b806306fdde031161031957806306fdde03146103c1578063095ea7b3146103d65780630a4273e6146103f9575f80fd5b806301bddf1b1461033f57806302517e8b1461035457806306afa12a14610370575b5f80fd5b61035261034d366004612d86565b610891565b005b61035d600f5481565b6040519081526020015b60405180910390f35b6103a261037e366004612dbb565b600d6020525f9081526040902080546001909101546001600160a01b039091169082565b604080516001600160a01b039093168352602083019190915201610367565b6103c9610955565b6040516103679190612e00565b6103e96103e4366004612e26565b6109e5565b6040519015158152602001610367565b610352610407366004612e50565b6109fe565b60025461035d565b610427610422366004612e7c565b610a43565b6040516001600160801b039091168152602001610367565b6103e961044d366004612e98565b610b72565b601254610465906001600160a01b031681565b6040516001600160a01b039091168152602001610367565b6104657f000000000000000000000000000000000000000000000000000000000000000081565b6104276104b2366004612d86565b610b95565b60405160068152602001610367565b61035d610f11565b6103e96104dc366004612e26565b610f1f565b6103526104ef366004612ed6565b610f5d565b610352610502366004612eef565b61114b565b601354610427906001600160801b031681565b610352610528366004612dbb565b6111b8565b61035261053b366004612e26565b61142c565b61035d60095481565b61035d610557366004612eef565b60156020525f908152604090205481565b60125461057f90600160a01b900463ffffffff1681565b60405163ffffffff9091168152602001610367565b6103526105a2366004612eef565b61149b565b6103526105b5366004612f0a565b611505565b61035d6105c8366004612eef565b6001600160a01b03165f9081526020819052604090205490565b6103526105f0366004612e7c565b61154a565b61035d610603366004612eef565b611772565b60125461057f907801000000000000000000000000000000000000000000000000900463ffffffff1681565b61035d600c5481565b61064561178f565b6040516103679796959493929190612f25565b61068f610666366004612fbb565b600e6020525f90815260409020805460018201546002909201549091906001600160a01b031683565b6040805193845260208401929092526001600160a01b031690820152606001610367565b6103526106c1366004612fe2565b611816565b6103c961190c565b6104656106dc366004612eef565b60146020525f90815260409020546001600160a01b031681565b610352610704366004612e26565b61191b565b6103e9610717366004612e26565b611925565b601154610465906001600160a01b031681565b6103e961073d366004612e26565b6119d3565b610352610750366004612ffd565b6119e0565b610788610763366004612eef565b6011546001600160a01b039182165f9081526014602052604090205490821692911690565b604080516001600160a01b03938416815292909116602083015201610367565b6103526107b6366004612d86565b611a50565b61035d600b5481565b6103526107d2366004612e50565b611b27565b6103526107e5366004613019565b611b68565b61035d6107f8366004612ffd565b6001600160a01b039182165f90815260016020908152604080832093909416825291909152205490565b60135461042790600160801b90046001600160801b031681565b61035261084a366004612fe2565b611cc9565b61035261085d366004613085565b611f45565b610352610870366004612ffd565b61200c565b61035d60105481565b61035261088c3660046130a8565b6120c7565b61089c600954612155565b6108a4575f80fd5b335f908152601560205260409020546006148015610909575063ffffffff82165f908152600e60205260409020600201546001600160a01b0316331480610909575063ffffffff82165f908152600e60205260409020600201546001600160a01b0316155b610911575f80fd5b63ffffffff82165f908152600e602052604090205461093990608083901b612173565b612173565b63ffffffff9092165f908152600e602052604090209190915550565b606060038054610964906130de565b80601f0160208091040260200160405190810160405280929190818152602001828054610990906130de565b80156109db5780601f106109b2576101008083540402835291602001916109db565b820191905f5260205f20905b8154815290600101906020018083116109be57829003601f168201915b5050505050905090565b5f336109f28185856121ab565b60019150505b92915050565b610a09600954612155565b15610a12575f80fd5b335f90815260156020526040902054600614610a2c575f80fd5b610a3f81836001600160801b03166122ce565b5050565b335f90815260156020526040812054600114610a5d575f80fd5b610a656123fe565b604080516001600160a01b038516602080830191909152338284015282518083038401815260609092019092528051910120600c546001600160801b031615610ae357610ade610ab4600c5490565b6001600160801b0316846001600160801b0316610ad0600b5490565b6001600160801b03166124ec565b610ae5565b5f5b600c54909250610b04906001600160801b038416608085901b176124fd565b600c55600b54610b1d906001600160801b0385166124fd565b600b555f818152600d6020526040902080546001600160a01b0319163317815560010154610b5a90608085901b6001600160801b038516176124fd565b5f918252600d60205260409091206001015592915050565b5f33610b7f858285612523565b610b8a8585856125b3565b506001949350505050565b5f610ba1600954612155565b610ba9575f80fd5b335f908152601560205260409020546006148015610c0e575063ffffffff83165f908152600e60205260409020600201546001600160a01b0316331480610c0e575063ffffffff83165f908152600e60205260409020600201546001600160a01b0316155b610c16575f80fd5b5f8363ffffffff165f03610d04576001601260188282829054906101000a900463ffffffff16610c469190613124565b92506101000a81548163ffffffff021916908363ffffffff160217905550601260189054906101000a900463ffffffff169350610c88610ab4600c5460801c90565b600c54909150610ca7906001600160801b038316608084901b176124fd565b600c55600b54610cc0906001600160801b0385166124fd565b600b5563ffffffff84165f908152600e602052604090206001600160801b038216608085901b17600182015560020180546001600160a01b03191633179055610ea9565b610d4d610d13600c5460801c90565b63ffffffff86165f908152600e60205260409020600101546001600160801b03919091169060801c6001600160801b0316610ad0600b5490565b600c5463ffffffff86165f908152600e6020526040902060010154919350610d89916109349085905b6001600160801b031660809190911b1790565b600c55600b5463ffffffff85165f908152600e6020526040812060010154610db892916109349160801c610d76565b600b5563ffffffff84165f908152600e602052604090206001015460801c610de09083613140565b9150610df1610ab4600c5460801c90565b600c54909150610e10906001600160801b038316608084901b176124fd565b600c55600b54610e29906001600160801b0385166124fd565b600b556001600160801b038116608084901b1763ffffffff85165f908152600e60205260409020600181019190915554610e72906001600160801b038416608085901b176124fd565b63ffffffff85165f908152600e6020526040902090815560020154610ea9906001600160a01b03166001600160801b038416612784565b63ffffffff84165f818152600e60209081526040918290206001015482519384526001600160801b0386169184019190915282820152517f2dbd6c60950a71a3b42582ce495af627a70477170cea6ce5bbd4017f3e9308929181900360600190a15092915050565b5f610f1a612841565b905090565b335f8181526001602090815260408083206001600160a01b03871684529091528120549091906109f29082908690610f5890879061315f565b6121ab565b610f68600954612155565b610f70575f80fd5b5f610f816040830160208401612f0a565b601354610f9791906001600160801b0316613140565b6001600160801b031610158015610fc157506011546001600160a01b0316336001600160a01b0316145b610fc9575f80fd5b610fd96040820160208301612f0a565b6013805467ffffffffffffffff92909216915f906110019084906001600160801b0316613140565b92506101000a8154816001600160801b0302191690836001600160801b031602179055506001601260148282829054906101000a900463ffffffff166110479190613124565b82546101009290920a63ffffffff818102199093169183160217909155601254600160a01b9004165f908152600a602052604090208291506110898282613186565b507f259b626a3ac57abbad46c244a9bc2a13c0b530c618e9654be9351bd104cffcae90506110ba6020830183612eef565b6110ca6040840160208501612f0a565b6110da606085016040860161326d565b6110ea6080860160608701612fe2565b601254604080516001600160a01b0390961686526001600160801b0390941660208601526001600160781b039092169284019290925260ff9091166060830152600160a01b900463ffffffff16608082015260a0015b60405180910390a150565b6011546001600160a01b0316336001600160a01b03161461116a575f80fd5b601180546001600160a01b0319166001600160a01b0383169081179091556040519081527f853baecd5c22fcf8a4d994474a066771c51cfe6022b046e92a09874610cd128190602001611140565b6111c3600954612155565b6111cb575f80fd5b80601360108282829054906101000a90046001600160801b03166111ef9190613288565b92506101000a8154816001600160801b0302191690836001600160801b0316021790555061121b600690565b61122b9060ff16624c4b406132a7565b62ffffff16601360109054906101000a90046001600160801b03166001600160801b03161115611259575f80fd5b6040516323b872dd60e01b8152336004820152306024820152604481018290527f00000000000000000000000000000000000000000000000000000000000000006001600160a01b0316906323b872dd906064016020604051808303815f875af11580156112c9573d5f803e3d5ffd5b505050506040513d601f19601f820116820180604052508101906112ed91906132cc565b15611429575f6113016006621ab3f06132a7565b62ffffff16601360109054906101000a90046001600160801b03166001600160801b031611611351576113356005836132ff565b611340906006613312565b905061134c3382612784565b6113ed565b61135f6006623197506132a7565b62ffffff16601360109054906101000a90046001600160801b03166001600160801b03161161139457508061134c3382612784565b6113a26006624c4b406132a7565b62ffffff16601360109054906101000a90046001600160801b03166001600160801b0316116113ed576113d66005836132ff565b6113e1906004613312565b90506113ed3382612784565b60408051838152602081018390527fcf0848d99e9b2ad96811072e657199bc9567c2cc9b614097727a852b27f5358d91015b60405180910390a1505b50565b6011546001600160a01b0316336001600160a01b03161461144b575f80fd5b6001600160a01b0382165f81815260156020908152604091829020849055815192835282018390527f967d50df84a5ebb45902fa277d5c3b0bc6403497c9fd6da2ecbd9ed420038f14910161141f565b6011546001600160a01b0316336001600160a01b0316146114ba575f80fd5b6001600160a01b0381165f8181526015602090815260408083209290925590519182527f3680a8b72561b4141a1464124f40242ac80a59d51d29649d9b0b442c255b62899101611140565b611510600954612155565b15611519575f80fd5b335f90815260156020526040902054600514611533575f80fd5b600c5461154490608083901b6124fd565b600c5550565b335f90815260156020526040902054600114611564575f80fd5b61156c6123fe565b604080516001600160a01b0384166020808301919091523382840152825180830384018152606090920183528151918101919091205f818152600d909252918120600101549091829160801c6001600160801b038516106115fb575f818152600d6020526040812060018101805482546001600160a01b03191690925591909155608081901c94509150611655565b5f818152600d6020526040902060010154611616908561296a565b5f828152600d6020526040902060010154909250611643906001600160801b038416608087901b17612173565b5f828152600d60205260409020600101555b61167684611670611668600c5460801c90565b600b54610d76565b9061298c565b600b5490935061168f906001600160801b038616612173565b600b55600c546116ae906001600160801b038416608086901b17612173565b600c556116bb8284613140565b92506001600160801b038316156116df576116df85846001600160801b0316612784565b7f62025eae57aa13c48667a44135999b1c087e0e00de741759cefa772a4eb025678561170e86610d76600b5490565b6001600160801b038616608086901b175f858152600d602090815260409182902060010154600c5483516001600160a01b03909716875291860194909452908401919091526060830191909152608082015260a00160405180910390a15050505050565b6001600160a01b0381165f908152600760205260408120546109f8565b5f606080828080836117c27f000000000000000000000000000000000000000000000000000000000000000060056129b4565b6117ed7f000000000000000000000000000000000000000000000000000000000000000060066129b4565b604080515f80825260208201909252600f60f81b9b939a50919850469750309650945092509050565b611821600954612155565b611829575f80fd5b6011546001600160a01b0316336001600160a01b031614611848575f80fd5b60ff81165f908152600a60205260408120600101546013805467ffffffffffffffff9092169290916118849084906001600160801b0316613288565b92506101000a8154816001600160801b0302191690836001600160801b031602179055507f568d364b674966bdb889933148a94e885581320f54b5d65d04bda235eea7fe48816040516118e0919060ff91909116815260200190565b60405180910390a160ff165f908152600a6020526040812080546001600160a01b031916815560010155565b606060048054610964906130de565b610a3f82826122ce565b335f8181526001602090815260408083206001600160a01b0387168452909152812054909190838110156119c65760405162461bcd60e51b815260206004820152602560248201527f45524332303a2064656372656173656420616c6c6f77616e63652062656c6f7760448201527f207a65726f00000000000000000000000000000000000000000000000000000060648201526084015b60405180910390fd5b610b8a82868684036121ab565b5f336109f28185856125b3565b6011546001600160a01b031633146119f6575f80fd5b604051630c5ee4e160e21b81526001600160a01b03828116600483015283169063317b9384906024015f604051808303815f87803b158015611a36575f80fd5b505af1158015611a48573d5f803e3d5ffd5b505050505050565b611a5b600954612155565b611a63575f80fd5b335f908152601560205260409020546006148015611ac8575063ffffffff82165f908152600e60205260409020600201546001600160a01b0316331480611ac8575063ffffffff82165f908152600e60205260409020600201546001600160a01b0316155b611ad0575f80fd5b63ffffffff82165f908152600e6020526040902054611af390608083901b6124fd565b63ffffffff83165f908152600e602090815260408083208490553383529082905290205460809190911c1115610a3f575f80fd5b611b32600954612155565b15611b3b575f80fd5b335f90815260156020526040902054600614611b55575f80fd5b610a3f81836001600160801b0316612784565b83421115611bb85760405162461bcd60e51b815260206004820152601d60248201527f45524332305065726d69743a206578706972656420646561646c696e6500000060448201526064016119bd565b5f7f6e71edae12b1b97f4d1f60370fef10105fa2faae0126114a169c64845d6126c9888888611be68c612a5d565b6040805160208101969096526001600160a01b0394851690860152929091166060840152608083015260a082015260c0810186905260e0016040516020818303038152906040528051906020012090505f611c4082612a84565b90505f611c4f82878787612ab0565b9050896001600160a01b0316816001600160a01b031614611cb25760405162461bcd60e51b815260206004820152601e60248201527f45524332305065726d69743a20696e76616c6964207369676e6174757265000060448201526064016119bd565b611cbd8a8a8a6121ab565b50505050505050505050565b611cd4600954612155565b611cdc575f80fd5b601254600f5460105460ff84165f908152600a60205260409020600101546001600160a01b039093169263a7fed925929190611d2990600160801b90046001600160781b0316600261340c565b611d3790600160801b613312565b611d4290600a61315f565b6040517fffffffff0000000000000000000000000000000000000000000000000000000060e086901b168152600481019390935260248301919091526044820152606401602060405180830381865afa158015611da1573d5f803e3d5ffd5b505050506040513d601f19601f82011682018060405250810190611dc591906132cc565b158015611df4575060ff81165f908152600a60205260409020546001600160a01b0316336001600160a01b0316145b611dfc575f80fd5b60ff8082165f908152600a60205260408120600101549091611e3191600160f81b8104909116906001600160801b0316613420565b60ff83165f908152600a6020526040812060010180549293508392909190611e639084906001600160801b0316613140565b92506101000a8154816001600160801b0302191690836001600160801b031602179055506001600a5f8460ff1663ffffffff1681526020019081526020015f2060010160108282829054906101000a90046001600160781b0316611ec7919061344d565b92506101000a8154816001600160781b0302191690836001600160781b03160217905550611f04611ef53390565b826001600160801b0316612784565b604080516001600160801b038316815260ff841660208201527f83592ad363894b5c4d81b2113457c5a1683230ce1c133eefa927d17f65cd5ca0910161141f565b611f50600954612155565b611f58575f80fd5b6011546001600160a01b0316336001600160a01b031614611f77575f80fd5b60405163a9059cbb60e01b81526001600160a01b038281166004830152602482018490527f0000000000000000000000000000000000000000000000000000000000000000169063a9059cbb906044016020604051808303815f875af1158015611fe3573d5f803e3d5ffd5b505050506040513d601f19601f8201168201806040525081019061200791906132cc565b505050565b335f90815260156020526040902054600114801561204157506001600160a01b038281165f9081526014602052604090205416155b801561205f5750806001600160a01b0316826001600160a01b031614155b15610a3f576001600160a01b038281165f8181526014602090815260409182902080546001600160a01b031916948616948517905581519283528201929092527f0b5e322b4b5330962013e8d6519462c133d50320ee476828060995c1acadef62910161141f565b6011546001600160a01b0316336001600160a01b0316146120e6575f80fd5b600f8390556010829055601280546001600160a01b0319166001600160a01b0383169081179091556040805185815260208101859052908101919091527f2c13ec80363c5c6acca850e78e87c50c5f15ae0398a319963393eeb01c11045d9060600160405180910390a1505050565b5f60ff82901c60018114612169575f61216c565b60015b9392505050565b5f608082811d9084901d036001600160801b03838116908516036121a261219983612ad6565b610d7683612ad6565b95945050505050565b6001600160a01b03831661220d5760405162461bcd60e51b8152602060048201526024808201527f45524332303a20617070726f76652066726f6d20746865207a65726f206164646044820152637265737360e01b60648201526084016119bd565b6001600160a01b03821661226e5760405162461bcd60e51b815260206004820152602260248201527f45524332303a20617070726f766520746f20746865207a65726f206164647265604482015261737360f01b60648201526084016119bd565b6001600160a01b038381165f8181526001602090815260408083209487168084529482529182902085905590518481527f8c5be1e5ebec7d5bd14f71427d1e84f3dd0314c0f7b2291e5b200ac8c7c3b925910160405180910390a3505050565b6001600160a01b03821661232e5760405162461bcd60e51b815260206004820152602160248201527f45524332303a206275726e2066726f6d20746865207a65726f206164647265736044820152607360f81b60648201526084016119bd565b6001600160a01b0382165f90815260208190526040902054818110156123a15760405162461bcd60e51b815260206004820152602260248201527f45524332303a206275726e20616d6f756e7420657863656564732062616c616e604482015261636560f01b60648201526084016119bd565b6001600160a01b0383165f818152602081815260408083208686039055600280548790039055518581529192917fddf252ad1be2c89b69c2b068fc378daa952ba7f163c4a11628f55a4df523b3ef910160405180910390a3505050565b4261240b600b5460801c90565b6124189062015180613288565b6001600160801b031610156124ea57600b546124479072015180000000000000000000000000000000006124fd565b600b555f61245a60066302faf08061346c565b63ffffffff1661246960025490565b116124785763a34ce6cb61248e565b61477c61248460025490565b61248e91906132ff565b600c549091506124a290608083901b6124fd565b600c55600b547f640eaa6ba71a4f457fdf8b26b0a8a0a6096d6d2bf731d07d47717534847ce55d906124dc9060801c600c5460801c610d76565b604051908152602001611140565b565b918102915f8184046121a281612ad6565b5f608082811d9084901d016001600160801b03838116908516016121a261219983612ad6565b6001600160a01b038381165f908152600160209081526040808320938616835292905220545f1981146125ad57818110156125a05760405162461bcd60e51b815260206004820152601d60248201527f45524332303a20696e73756666696369656e7420616c6c6f77616e636500000060448201526064016119bd565b6125ad84848484036121ab565b50505050565b6001600160a01b03831661262f5760405162461bcd60e51b815260206004820152602560248201527f45524332303a207472616e736665722066726f6d20746865207a65726f20616460448201527f647265737300000000000000000000000000000000000000000000000000000060648201526084016119bd565b6001600160a01b0382166126915760405162461bcd60e51b815260206004820152602360248201527f45524332303a207472616e7366657220746f20746865207a65726f206164647260448201526265737360e81b60648201526084016119bd565b6001600160a01b0383165f908152602081905260409020548181101561271f5760405162461bcd60e51b815260206004820152602660248201527f45524332303a207472616e7366657220616d6f756e742065786365656473206260448201527f616c616e6365000000000000000000000000000000000000000000000000000060648201526084016119bd565b6001600160a01b038481165f81815260208181526040808320878703905593871680835291849020805487019055925185815290927fddf252ad1be2c89b69c2b068fc378daa952ba7f163c4a11628f55a4df523b3ef910160405180910390a36125ad565b6001600160a01b0382166127da5760405162461bcd60e51b815260206004820152601f60248201527f45524332303a206d696e7420746f20746865207a65726f20616464726573730060448201526064016119bd565b8060025f8282546127eb919061315f565b90915550506001600160a01b0382165f81815260208181526040808320805486019055518481527fddf252ad1be2c89b69c2b068fc378daa952ba7f163c4a11628f55a4df523b3ef910160405180910390a35050565b5f306001600160a01b037f00000000000000000000000000000000000000000000000000000000000000001614801561289957507f000000000000000000000000000000000000000000000000000000000000000046145b156128c357507f000000000000000000000000000000000000000000000000000000000000000090565b610f1a604080517f8b73c3c69bb8fe3d512ecc4cf759cc79239f7b179b0ffacaa9a75d522b39400f60208201527f0000000000000000000000000000000000000000000000000000000000000000918101919091527f000000000000000000000000000000000000000000000000000000000000000060608201524660808201523060a08201525f9060c00160405160208183030381529060405280519060200120905090565b5f61216c836001600160801b0316836001600160801b0316610ad08660801c90565b5f61216c61299a8460801c90565b6001600160801b0316836001600160801b0316610ad08690565b606060ff83146129ce576129c783612af0565b90506109f8565b8180546129da906130de565b80601f0160208091040260200160405190810160405280929190818152602001828054612a06906130de565b8015612a515780601f10612a2857610100808354040283529160200191612a51565b820191905f5260205f20905b815481529060010190602001808311612a3457829003601f168201915b505050505090506109f8565b6001600160a01b0381165f9081526007602052604090208054600181018255905b50919050565b5f6109f8612a90612841565b8360405161190160f01b8152600281019290925260228201526042902090565b5f805f612abf87878787612b2d565b91509150612acc81612bea565b5095945050505050565b5f6001600160801b03821115612aec575f6109f8565b5090565b60605f612afc83612d33565b6040805160208082528183019092529192505f91906020820181803683375050509182525060208101929092525090565b5f807f7fffffffffffffffffffffffffffffff5d576e7357a4501ddfe92f46681b20a0831115612b6257505f90506003612be1565b604080515f8082526020820180845289905260ff881692820192909252606081018690526080810185905260019060a0016020604051602081039080840390855afa158015612bb3573d5f803e3d5ffd5b5050604051601f1901519150506001600160a01b038116612bdb575f60019250925050612be1565b91505f90505b94509492505050565b5f816004811115612bfd57612bfd61348b565b03612c055750565b6001816004811115612c1957612c1961348b565b03612c665760405162461bcd60e51b815260206004820152601860248201527f45434453413a20696e76616c6964207369676e6174757265000000000000000060448201526064016119bd565b6002816004811115612c7a57612c7a61348b565b03612cc75760405162461bcd60e51b815260206004820152601f60248201527f45434453413a20696e76616c6964207369676e6174757265206c656e6774680060448201526064016119bd565b6003816004811115612cdb57612cdb61348b565b036114295760405162461bcd60e51b815260206004820152602260248201527f45434453413a20696e76616c6964207369676e6174757265202773272076616c604482015261756560f01b60648201526084016119bd565b5f60ff8216601f8111156109f857604051632cd44ac360e21b815260040160405180910390fd5b803563ffffffff81168114612d6d575f80fd5b919050565b6001600160801b0381168114611429575f80fd5b5f8060408385031215612d97575f80fd5b612da083612d5a565b91506020830135612db081612d72565b809150509250929050565b5f60208284031215612dcb575f80fd5b5035919050565b5f81518084528060208401602086015e5f602082860101526020601f19601f83011685010191505092915050565b602081525f61216c6020830184612dd2565b6001600160a01b0381168114611429575f80fd5b5f8060408385031215612e37575f80fd5b8235612e4281612e12565b946020939093013593505050565b5f8060408385031215612e61575f80fd5b8235612e6c81612d72565b91506020830135612db081612e12565b5f8060408385031215612e8d575f80fd5b8235612da081612e12565b5f805f60608486031215612eaa575f80fd5b8335612eb581612e12565b92506020840135612ec581612e12565b929592945050506040919091013590565b5f6080828403128015612ee7575f80fd5b509092915050565b5f60208284031215612eff575f80fd5b813561216c81612e12565b5f60208284031215612f1a575f80fd5b813561216c81612d72565b60ff60f81b8816815260e060208201525f612f4360e0830189612dd2565b8281036040840152612f558189612dd2565b606084018890526001600160a01b038716608085015260a0840186905283810360c0850152845180825260208087019350909101905f5b81811015612faa578351835260209384019390920191600101612f8c565b50909b9a5050505050505050505050565b5f60208284031215612fcb575f80fd5b61216c82612d5a565b60ff81168114611429575f80fd5b5f60208284031215612ff2575f80fd5b813561216c81612fd4565b5f806040838503121561300e575f80fd5b8235612e6c81612e12565b5f805f805f805f60e0888a03121561302f575f80fd5b873561303a81612e12565b9650602088013561304a81612e12565b95506040880135945060608801359350608088013561306881612fd4565b9699959850939692959460a0840135945060c09093013592915050565b5f8060408385031215613096575f80fd5b823591506020830135612db081612e12565b5f805f606084860312156130ba575f80fd5b833592506020840135915060408401356130d381612e12565b809150509250925092565b600181811c908216806130f257607f821691505b602082108103612a7e57634e487b7160e01b5f52602260045260245ffd5b634e487b7160e01b5f52601160045260245ffd5b63ffffffff81811683821601908111156109f8576109f8613110565b6001600160801b0382811682821603908111156109f8576109f8613110565b808201808211156109f8576109f8613110565b6001600160781b0381168114611429575f80fd5b813561319181612e12565b6001600160a01b0381166001600160a01b0319835416178255506001810160208301356131bd81612d72565b815460408501356131cd81613172565b7effffffffffffffffffffffffffffff000000000000000000000000000000008160801b166001600160801b03841660ff60f81b8416171784555050505f606084013561321981612fd4565b82547effffffffffffffffffffffffffffffffffffffffffffffffffffffffffffff1660f89190911b7fff000000000000000000000000000000000000000000000000000000000000001617909155505050565b5f6020828403121561327d575f80fd5b813561216c81613172565b6001600160801b0381811683821601908111156109f8576109f8613110565b62ffffff81811683821602908116908181146132c5576132c5613110565b5092915050565b5f602082840312156132dc575f80fd5b8151801515811461216c575f80fd5b634e487b7160e01b5f52601260045260245ffd5b5f8261330d5761330d6132eb565b500490565b80820281158282048414176109f8576109f8613110565b6001815b60018411156133645780850481111561334857613348613110565b600184161561335657908102905b60019390931c92800261332d565b935093915050565b5f8261337a575060016109f8565b8161338657505f6109f8565b816001811461339c57600281146133a6576133c2565b60019150506109f8565b60ff8411156133b7576133b7613110565b50506001821b6109f8565b5060208310610133831016604e8410600b84101617156133e5575081810a6109f8565b6133f15f198484613329565b805f190482111561340457613404613110565b029392505050565b5f61216c6001600160781b0384168361336c565b5f6001600160801b03831680613438576134386132eb565b806001600160801b0384160491505092915050565b6001600160781b0381811683821601908111156109f8576109f8613110565b63ffffffff81811683821602908116908181146132c5576132c5613110565b634e487b7160e01b5f52602160045260245ffdfea26469706673582212209677d9d1d361034766565eccca2d6b2b8c72c9d0ae19aac1beff990c66ed544f64736f6c634300081a0033","linkReferences":{}},"methodIdentifiers":{"DOMAIN_SEPARATOR()":"3644e515","addShare((address,uint128,uint120,uint8))":"3b107e21","addauths(address,uint256)":"542128dd","addreferral(address,address)":"eca93cce","allowance(address,address)":"dd62ed3e","approve(address,uint256)":"095ea7b3","auths(address)":"64e72dbd","balanceOf(address)":"70a08231","burn(address,uint256)":"9dc29fac","burnShare(uint8)":"9241bda6","chain_deposit(uint32,uint128)":"01bddf1b","chain_withdraw(uint32,uint128)":"c3bb7fff","chainindex()":"8378e563","chains(uint32)":"8b203dd4","changeDAOAdmin(address)":"3cba316b","dao_admin()":"a538e6a9","decimals()":"313ce567","decreaseAllowance(address,uint256)":"a457c2d7","eip712Domain()":"84b0196e","getreferralanddaoadmin(address)":"b88e6d63","increaseAllowance(address,uint256)":"39509351","left_share()":"45fda707","marketcontract()":"2bf960da","name()":"06fdde03","nonces(address)":"7ecebe00","normalgoodid()":"02517e8b","permit(address,address,uint256,uint256,uint8,bytes32,bytes32)":"d505accf","poolstate()":"845fcee4","public_Sell(uint256)":"47036e75","publicsell()":"de5712d4","referrals(address)":"9ca423b3","rmauths(address)":"69a5ac32","setEnv(uint256,uint256,address)":"f6f9b80d","setMainTriggerMarket(address,address)":"b3e08a69","shareMint(uint8)":"df876548","shares_index()":"696bb4ad","stake(address,uint128)":"19f8d5b4","stakeproof(uint256)":"06afa12a","stakestate()":"cae97640","subchainDeposit(uint128,address)":"cd993b11","subchainWithdraw(uint128,address)":"0a4273e6","symbol()":"95d89b41","syncChainStake(uint32,uint128)":"30fd6b29","syncPoolAsset(uint128)":"6c0deba1","totalSupply()":"18160ddd","transfer(address,uint256)":"a9059cbb","transferFrom(address,address,uint256)":"23b872dd","ttstokenconfig()":"623059a5","unstake(address,uint128)":"7bd3ca35","usdt()":"2f48ab7d","valuegoodid()":"f35da462","withdrawPublicSell(uint256,address)":"e7b43e7d"},"id":57}