{"abi":[{"type":"constructor","inputs":[{"name":"_marketconfig","type":"uint256","internalType":"uint256"},{"name":"_officialTokenContract","type":"address","internalType":"address"},{"name":"_officialNFTContract","type":"address","internalType":"address"},{"name":"_officelimitorder","type":"address","internalType":"address"},{"name":"_marketcreator","type":"address","internalType":"address"},{"name":"_securitykeeper","type":"address","internalType":"address"}],"stateMutability":"nonpayable"},{"type":"function","name":"addbanlist","inputs":[{"name":"_user","type":"address","internalType":"address"}],"outputs":[{"name":"","type":"bool","internalType":"bool"}],"stateMutability":"nonpayable"},{"type":"function","name":"batchTakelimitOrder","inputs":[{"name":"_inputData","type":"bytes","internalType":"bytes"},{"name":"_tolerance","type":"uint96","internalType":"uint96"},{"name":"_takecaller","type":"address","internalType":"address"},{"name":"ordernum","type":"uint8","internalType":"uint8"}],"outputs":[{"name":"","type":"bool[]","internalType":"bool[]"}],"stateMutability":"payable"},{"type":"function","name":"buyGood","inputs":[{"name":"_goodid1","type":"address","internalType":"address"},{"name":"_goodid2","type":"address","internalType":"address"},{"name":"_swapQuantity","type":"uint128","internalType":"uint128"},{"name":"_limitPrice","type":"uint256","internalType":"uint256"},{"name":"_istotal","type":"bool","internalType":"bool"},{"name":"_referal","type":"address","internalType":"address"},{"name":"data","type":"bytes","internalType":"bytes"}],"outputs":[{"name":"goodid2Quantity_","type":"uint128","internalType":"uint128"},{"name":"goodid2FeeQuantity_","type":"uint128","internalType":"uint128"}],"stateMutability":"payable"},{"type":"function","name":"buyGoodForPay","inputs":[{"name":"_goodid1","type":"address","internalType":"address"},{"name":"_goodid2","type":"address","internalType":"address"},{"name":"_swapQuantity","type":"uint128","internalType":"uint128"},{"name":"_limitPrice","type":"uint256","internalType":"uint256"},{"name":"_recipient","type":"address","internalType":"address"},{"name":"data","type":"bytes","internalType":"bytes"}],"outputs":[{"name":"goodid1Quantity_","type":"uint128","internalType":"uint128"},{"name":"goodid1FeeQuantity_","type":"uint128","internalType":"uint128"}],"stateMutability":"payable"},{"type":"function","name":"changeGoodOwner","inputs":[{"name":"_goodid","type":"address","internalType":"address"},{"name":"_to","type":"address","internalType":"address"}],"outputs":[],"stateMutability":"nonpayable"},{"type":"function","name":"changemarketcreator","inputs":[{"name":"_newmarketor","type":"address","internalType":"address"}],"outputs":[],"stateMutability":"nonpayable"},{"type":"function","name":"collectCommission","inputs":[{"name":"_goodid","type":"address[]","internalType":"address[]"}],"outputs":[],"stateMutability":"nonpayable"},{"type":"function","name":"collectProof","inputs":[{"name":"_proofid","type":"uint256","internalType":"uint256"},{"name":"_gater","type":"address","internalType":"address"}],"outputs":[{"name":"profit_","type":"uint256","internalType":"uint256"}],"stateMutability":"nonpayable"},{"type":"function","name":"delproofdata","inputs":[{"name":"proofid","type":"uint256","internalType":"uint256"},{"name":"from","type":"address","internalType":"address"},{"name":"to","type":"address","internalType":"address"}],"outputs":[],"stateMutability":"nonpayable"},{"type":"function","name":"disinvestProof","inputs":[{"name":"_proofid","type":"uint256","internalType":"uint256"},{"name":"_goodQuantity","type":"uint128","internalType":"uint128"},{"name":"_gater","type":"address","internalType":"address"}],"outputs":[{"name":"","type":"bool","internalType":"bool"}],"stateMutability":"nonpayable"},{"type":"function","name":"flashFee","inputs":[{"name":"token","type":"address","internalType":"address"},{"name":"amount","type":"uint256","internalType":"uint256"}],"outputs":[{"name":"","type":"uint256","internalType":"uint256"}],"stateMutability":"view"},{"type":"function","name":"flashLoan","inputs":[{"name":"receiver","type":"address","internalType":"contract IERC3156FlashBorrower"},{"name":"token","type":"address","internalType":"address"},{"name":"amount","type":"uint256","internalType":"uint256"},{"name":"data","type":"bytes","internalType":"bytes"}],"outputs":[{"name":"","type":"bool","internalType":"bool"}],"stateMutability":"nonpayable"},{"type":"function","name":"flashLoan1","inputs":[{"name":"receiver","type":"address","internalType":"contract IERC3156FlashBorrower"},{"name":"token","type":"address","internalType":"address"},{"name":"amount","type":"uint256","internalType":"uint256"},{"name":"data","type":"bytes","internalType":"bytes"},{"name":"transdata","type":"bytes","internalType":"bytes"}],"outputs":[{"name":"","type":"bool","internalType":"bool"}],"stateMutability":"nonpayable"},{"type":"function","name":"getGoodState","inputs":[{"name":"goodkey","type":"address","internalType":"address"}],"outputs":[{"name":"","type":"tuple","internalType":"struct S_GoodTmpState","components":[{"name":"goodConfig","type":"uint256","internalType":"uint256"},{"name":"owner","type":"address","internalType":"address"},{"name":"currentState","type":"uint256","internalType":"uint256"},{"name":"investState","type":"uint256","internalType":"uint256"},{"name":"feeQuantityState","type":"uint256","internalType":"uint256"}]}],"stateMutability":"view"},{"type":"function","name":"getProofState","inputs":[{"name":"proofid","type":"uint256","internalType":"uint256"}],"outputs":[{"name":"","type":"tuple","internalType":"struct S_ProofState","components":[{"name":"currentgood","type":"address","internalType":"address"},{"name":"valuegood","type":"address","internalType":"address"},{"name":"state","type":"uint256","internalType":"uint256"},{"name":"invest","type":"uint256","internalType":"uint256"},{"name":"valueinvest","type":"uint256","internalType":"uint256"}]}],"stateMutability":"view"},{"type":"function","name":"goodWelfare","inputs":[{"name":"goodid","type":"address","internalType":"address"},{"name":"welfare","type":"uint128","internalType":"uint128"},{"name":"data","type":"bytes","internalType":"bytes"}],"outputs":[],"stateMutability":"payable"},{"type":"function","name":"initGood","inputs":[{"name":"_valuegood","type":"address","internalType":"address"},{"name":"_initial","type":"uint256","internalType":"uint256"},{"name":"_erc20address","type":"address","internalType":"address"},{"name":"_goodConfig","type":"uint256","internalType":"uint256"},{"name":"data1","type":"bytes","internalType":"bytes"},{"name":"data2","type":"bytes","internalType":"bytes"}],"outputs":[{"name":"","type":"bool","internalType":"bool"}],"stateMutability":"payable"},{"type":"function","name":"initMetaGood","inputs":[{"name":"_erc20address","type":"address","internalType":"address"},{"name":"_initial","type":"uint256","internalType":"uint256"},{"name":"_goodConfig","type":"uint256","internalType":"uint256"},{"name":"data","type":"bytes","internalType":"bytes"}],"outputs":[{"name":"","type":"bool","internalType":"bool"}],"stateMutability":"payable"},{"type":"function","name":"investGood","inputs":[{"name":"_togood","type":"address","internalType":"address"},{"name":"_valuegood","type":"address","internalType":"address"},{"name":"_quantity","type":"uint128","internalType":"uint128"},{"name":"data1","type":"bytes","internalType":"bytes"},{"name":"data2","type":"bytes","internalType":"bytes"}],"outputs":[{"name":"","type":"bool","internalType":"bool"}],"stateMutability":"payable"},{"type":"function","name":"ishigher","inputs":[{"name":"goodid","type":"address","internalType":"address"},{"name":"valuegood","type":"address","internalType":"address"},{"name":"compareprice","type":"uint256","internalType":"uint256"}],"outputs":[{"name":"","type":"bool","internalType":"bool"}],"stateMutability":"view"},{"type":"function","name":"marketconfig","inputs":[],"outputs":[{"name":"","type":"uint256","internalType":"uint256"}],"stateMutability":"view"},{"type":"function","name":"marketcreator","inputs":[],"outputs":[{"name":"","type":"address","internalType":"address"}],"stateMutability":"view"},{"type":"function","name":"maxFlashLoan","inputs":[{"name":"good","type":"address","internalType":"address"}],"outputs":[{"name":"","type":"uint256","internalType":"uint256"}],"stateMutability":"view"},{"type":"function","name":"modifyGoodConfig","inputs":[{"name":"_goodid","type":"address","internalType":"address"},{"name":"_goodConfig","type":"uint256","internalType":"uint256"}],"outputs":[{"name":"","type":"bool","internalType":"bool"}],"stateMutability":"nonpayable"},{"type":"function","name":"payGood","inputs":[{"name":"_goodid","type":"address","internalType":"address"},{"name":"_payquanity","type":"uint128","internalType":"uint128"},{"name":"_recipent","type":"address","internalType":"address"},{"name":"transdata","type":"bytes","internalType":"bytes"}],"outputs":[{"name":"","type":"bool","internalType":"bool"}],"stateMutability":"payable"},{"type":"function","name":"proofmapping","inputs":[{"name":"proofkey","type":"uint256","internalType":"uint256"}],"outputs":[{"name":"proofid","type":"uint256","internalType":"uint256"}],"stateMutability":"view"},{"type":"function","name":"queryCommission","inputs":[{"name":"_goodid","type":"address[]","internalType":"address[]"},{"name":"_recipent","type":"address","internalType":"address"}],"outputs":[{"name":"","type":"uint256[]","internalType":"uint256[]"}],"stateMutability":"view"},{"type":"function","name":"removeMarketor","inputs":[{"name":"_user","type":"address","internalType":"address"}],"outputs":[],"stateMutability":"nonpayable"},{"type":"function","name":"removeSecurityKeeper","inputs":[],"outputs":[],"stateMutability":"nonpayable"},{"type":"function","name":"removebanlist","inputs":[{"name":"_user","type":"address","internalType":"address"}],"outputs":[{"name":"","type":"bool","internalType":"bool"}],"stateMutability":"nonpayable"},{"type":"function","name":"securityKeeper","inputs":[{"name":"token","type":"address","internalType":"address"},{"name":"amount","type":"uint256","internalType":"uint256"}],"outputs":[],"stateMutability":"nonpayable"},{"type":"function","name":"setMarketConfig","inputs":[{"name":"_marketconfig","type":"uint256","internalType":"uint256"}],"outputs":[{"name":"","type":"bool","internalType":"bool"}],"stateMutability":"nonpayable"},{"type":"function","name":"setMarketor","inputs":[{"name":"_newmarketor","type":"address","internalType":"address"}],"outputs":[],"stateMutability":"nonpayable"},{"type":"function","name":"takeLimitOrder","inputs":[{"name":"_inputParams","type":"tuple","internalType":"struct S_takeGoodInputPrams","components":[{"name":"fromerc20","type":"address","internalType":"address"},{"name":"toerc20","type":"address","internalType":"address"},{"name":"swapQuantity","type":"uint256","internalType":"uint256"},{"name":"sender","type":"address","internalType":"address"}]},{"name":"_tolerance","type":"uint96","internalType":"uint96"},{"name":"_takecaller","type":"address","internalType":"address"}],"outputs":[{"name":"_isSuccess","type":"bool","internalType":"bool"}],"stateMutability":"payable"},{"type":"function","name":"updateGoodConfig","inputs":[{"name":"_goodid","type":"address","internalType":"address"},{"name":"_goodConfig","type":"uint256","internalType":"uint256"}],"outputs":[{"name":"","type":"bool","internalType":"bool"}],"stateMutability":"nonpayable"},{"type":"function","name":"userConfig","inputs":[{"name":"","type":"address","internalType":"address"}],"outputs":[{"name":"","type":"uint256","internalType":"uint256"}],"stateMutability":"view"},{"type":"event","name":"e_buyGood","inputs":[{"name":"sellgood","type":"address","indexed":true,"internalType":"address"},{"name":"forgood","type":"address","indexed":true,"internalType":"address"},{"name":"fromer","type":"address","indexed":false,"internalType":"address"},{"name":"swapvalue","type":"uint128","indexed":false,"internalType":"uint128"},{"name":"sellgoodstate","type":"uint256","indexed":false,"internalType":"uint256"},{"name":"forgoodstate","type":"uint256","indexed":false,"internalType":"uint256"}],"anonymous":false},{"type":"event","name":"e_buyGoodForPay","inputs":[{"name":"buygood","type":"address","indexed":true,"internalType":"address"},{"name":"usegood","type":"address","indexed":true,"internalType":"address"},{"name":"fromer","type":"address","indexed":false,"internalType":"address"},{"name":"receipt","type":"address","indexed":false,"internalType":"address"},{"name":"swapvalue","type":"uint128","indexed":false,"internalType":"uint128"},{"name":"buygoodstate","type":"uint256","indexed":false,"internalType":"uint256"},{"name":"usegoodstate","type":"uint256","indexed":false,"internalType":"uint256"}],"anonymous":false},{"type":"event","name":"e_changegoodowner","inputs":[{"name":"goodid","type":"address","indexed":false,"internalType":"address"},{"name":"to","type":"address","indexed":false,"internalType":"address"}],"anonymous":false},{"type":"event","name":"e_changemarketcreator","inputs":[{"name":"_newmarketor","type":"address","indexed":false,"internalType":"address"}],"anonymous":false},{"type":"event","name":"e_collectProof","inputs":[{"name":"_proofNo","type":"uint256","indexed":true,"internalType":"uint256"},{"name":"_normalGoodNo","type":"address","indexed":false,"internalType":"address"},{"name":"_valueGoodNo","type":"address","indexed":false,"internalType":"address"},{"name":"_profit","type":"uint256","indexed":false,"internalType":"uint256"}],"anonymous":false},{"type":"event","name":"e_collectProtocolFee","inputs":[{"name":"goodid","type":"address","indexed":false,"internalType":"address"},{"name":"feeamount","type":"uint256","indexed":false,"internalType":"uint256"}],"anonymous":false},{"type":"event","name":"e_collectcommission","inputs":[{"name":"_gooid","type":"address[]","indexed":false,"internalType":"address[]"},{"name":"_commisionamount","type":"uint256[]","indexed":false,"internalType":"uint256[]"}],"anonymous":false},{"type":"event","name":"e_disinvestProof","inputs":[{"name":"_proofNo","type":"uint256","indexed":true,"internalType":"uint256"},{"name":"_normalGoodNo","type":"address","indexed":false,"internalType":"address"},{"name":"_valueGoodNo","type":"address","indexed":false,"internalType":"address"},{"name":"_value","type":"uint256","indexed":false,"internalType":"uint256"},{"name":"_normalgood","type":"uint256","indexed":false,"internalType":"uint256"},{"name":"_valuegood","type":"uint256","indexed":false,"internalType":"uint256"},{"name":"_profit","type":"uint256","indexed":false,"internalType":"uint256"}],"anonymous":false},{"type":"event","name":"e_enpower","inputs":[{"name":"_goodid","type":"uint256","indexed":false,"internalType":"uint256"},{"name":"_valuegood","type":"uint256","indexed":false,"internalType":"uint256"},{"name":"_quantity","type":"uint256","indexed":false,"internalType":"uint256"}],"anonymous":false},{"type":"event","name":"e_goodWelfare","inputs":[{"name":"goodid","type":"address","indexed":false,"internalType":"address"},{"name":"welfare","type":"uint128","indexed":false,"internalType":"uint128"}],"anonymous":false},{"type":"event","name":"e_initGood","inputs":[{"name":"_proofNo","type":"uint256","indexed":false,"internalType":"uint256"},{"name":"_goodid","type":"address","indexed":false,"internalType":"address"},{"name":"_valuegoodNo","type":"address","indexed":false,"internalType":"address"},{"name":"_goodConfig","type":"uint256","indexed":false,"internalType":"uint256"},{"name":"_construct","type":"uint256","indexed":false,"internalType":"uint256"},{"name":"_normalinitial","type":"uint256","indexed":false,"internalType":"uint256"},{"name":"_value","type":"uint256","indexed":false,"internalType":"uint256"}],"anonymous":false},{"type":"event","name":"e_initMetaGood","inputs":[{"name":"_proofNo","type":"uint256","indexed":false,"internalType":"uint256"},{"name":"_goodid","type":"address","indexed":false,"internalType":"address"},{"name":"_construct","type":"uint256","indexed":false,"internalType":"uint256"},{"name":"_goodConfig","type":"uint256","indexed":false,"internalType":"uint256"},{"name":"_initial","type":"uint256","indexed":false,"internalType":"uint256"}],"anonymous":false},{"type":"event","name":"e_investGood","inputs":[{"name":"_proofNo","type":"uint256","indexed":true,"internalType":"uint256"},{"name":"_normalgoodid","type":"address","indexed":false,"internalType":"address"},{"name":"_valueGoodNo","type":"address","indexed":false,"internalType":"address"},{"name":"_value","type":"uint256","indexed":false,"internalType":"uint256"},{"name":"_invest","type":"uint256","indexed":false,"internalType":"uint256"},{"name":"_valueinvest","type":"uint256","indexed":false,"internalType":"uint256"}],"anonymous":false},{"type":"event","name":"e_modifiedUserConfig","inputs":[{"name":"_user","type":"address","indexed":false,"internalType":"address"},{"name":"config","type":"uint256","indexed":false,"internalType":"uint256"}],"anonymous":false},{"type":"event","name":"e_modifyGoodConfig","inputs":[{"name":"_goodid","type":"address","indexed":false,"internalType":"address"},{"name":"_goodconfig","type":"uint256","indexed":false,"internalType":"uint256"}],"anonymous":false},{"type":"event","name":"e_setMarketConfig","inputs":[{"name":"_marketconfig","type":"uint256","indexed":false,"internalType":"uint256"}],"anonymous":false},{"type":"event","name":"e_transferdel","inputs":[{"name":"delproofid","type":"uint256","indexed":false,"internalType":"uint256"},{"name":"existsproofid","type":"uint256","indexed":false,"internalType":"uint256"}],"anonymous":false},{"type":"event","name":"e_updateGoodConfig","inputs":[{"name":"_goodid","type":"address","indexed":false,"internalType":"address"},{"name":"_goodConfig","type":"uint256","indexed":false,"internalType":"uint256"}],"anonymous":false},{"type":"error","name":"ERC20TransferFailed","inputs":[]},{"type":"error","name":"ERC3156ExceededMaxLoan","inputs":[{"name":"maxLoan","type":"uint256","internalType":"uint256"}]},{"type":"error","name":"ERC3156InvalidReceiver","inputs":[{"name":"receiver","type":"address","internalType":"address"}]},{"type":"error","name":"ERC3156UnsupportedToken","inputs":[{"name":"token","type":"address","internalType":"address"}]},{"type":"error","name":"NativeTransferFailed","inputs":[]},{"type":"error","name":"noEnoughOutputError","inputs":[]}],"bytecode":{"object":"0x60e060405234801561000f575f80fd5b506040516164ac3803806164ac83398101604081905261002e91610091565b6001600160a01b0394851660805292841660a0525f94909455821660c052600580546001600160a01b03199081169484169490941790556006805490931691161790556100fa565b80516001600160a01b038116811461008c575f80fd5b919050565b5f805f805f8060c087890312156100a6575f80fd5b865195506100b660208801610076565b94506100c460408801610076565b93506100d260608801610076565b92506100e060808801610076565b91506100ee60a08801610076565b90509295509295509295565b60805160a05160c0516163266101865f395f613d1c01525f8181610f81015281816111980152818161157c0152818161190a01528181611e0801528181612919015261302201525f8181610c4c01528181610fc1015281816110bb0152818161161a01528181611a8001528181611ebe01528181612a0401528181612c9e015261312001526163265ff3fe608060405260043610610243575f3560e01c8063613255ab11610131578063c9544f18116100ac578063df2a84541161007c578063f29771cb11610062578063f29771cb1461070c578063f4662f201461071f578063f878e8091461073e575f80fd5b8063df2a8454146106da578063e9044db6146106f9575f80fd5b8063c9544f1814610675578063cc00da2d14610689578063ccfd7664146106a8578063d9d98ce4146106bb575f80fd5b8063a3b74a4911610101578063b153b920116100e7578063b153b92014610617578063b1efb92114610636578063c2ed2bc014610655575f80fd5b8063a3b74a49146105d9578063a676a600146105f8575f80fd5b8063613255ab146105505780639551177a1461056f5780639b2227941461058e578063a06ad0e8146105ba575f80fd5b8063402f5ab5116101c157806351ff9a16116101915780635e008cc4116101775780635e008cc4146104e75780635f35b0b3146105125780635f755d651461053d575f80fd5b806351ff9a16146104b55780635cffe9de146104c8575f80fd5b8063402f5ab51461043657806341e1237314610458578063444361841461047757806345818e4c14610496575f80fd5b806313a124c3116102165780631faa5a56116101fc5780631faa5a561461036e5780633d9951731461038d5780633f117740146103c4575f80fd5b806313a124c31461030c5780631412723a1461033f575f80fd5b806306cf4e7f14610247578063082384661461025c5780630d2700ab146102ce578063102e5c27146102ed575b5f80fd5b61025a610255366004615537565b610751565b005b348015610267575f80fd5b5061027b610276366004615595565b610884565b6040516102c591905f60a082019050825182526001600160a01b03602084015116602083015260408301516040830152606083015160608301526080830151608083015292915050565b60405180910390f35b3480156102d9575f80fd5b5061025a6102e8366004615641565b610917565b3480156102f8575f80fd5b5061025a610307366004615595565b610b7a565b61031f61031a366004615680565b610bec565b604080516001600160801b039384168152929091166020830152016102c5565b34801561034a575f80fd5b5061035e61035936600461571e565b610f37565b60405190151581526020016102c5565b348015610379575f80fd5b5061025a61038836600461575c565b610f76565b348015610398575f80fd5b506005546103ac906001600160a01b031681565b6040516001600160a01b0390911681526020016102c5565b3480156103cf575f80fd5b506103e36103de36600461579b565b611240565b6040516102c591905f60a0820190506001600160a01b0383511682526001600160a01b03602084015116602083015260408301516040830152606083015160608301526080830151608083015292915050565b348015610441575f80fd5b5061044a5f5481565b6040519081526020016102c5565b348015610463575f80fd5b5061025a6104723660046157b2565b6112d8565b348015610482575f80fd5b5061025a6104913660046157e9565b611358565b3480156104a1575f80fd5b5061035e6104b036600461579b565b611405565b61035e6104c3366004615813565b61145e565b3480156104d3575f80fd5b5061035e6104e23660046158b7565b6116b4565b3480156104f2575f80fd5b5061044a61050136600461579b565b60026020525f908152604090205481565b34801561051d575f80fd5b5061044a61052c366004615595565b60046020525f908152604090205481565b61035e61054b366004615925565b611720565b34801561055b575f80fd5b5061044a61056a366004615595565b611b4e565b34801561057a575f80fd5b5061035e610589366004615595565b611b68565b348015610599575f80fd5b506105ad6105a83660046159bf565b611bd8565b6040516102c59190615a3d565b3480156105c5575f80fd5b5061025a6105d4366004615595565b611cc7565b3480156105e4575f80fd5b5061035e6105f33660046157e9565b611d2b565b348015610603575f80fd5b5061044a610612366004615a4f565b611dc1565b348015610622575f80fd5b5061035e610631366004615595565b612149565b348015610641575f80fd5b5061035e6106503660046157e9565b6121b8565b610668610663366004615a9b565b612232565b6040516102c59190615b12565b348015610680575f80fd5b5061025a61238b565b348015610694575f80fd5b5061025a6106a3366004615595565b6123b3565b61031f6106b6366004615b56565b61241f565b3480156106c6575f80fd5b5061044a6106d53660046157e9565b612693565b3480156106e5575f80fd5b5061035e6106f4366004615bc8565b6126c1565b61035e610707366004615cc3565b612833565b61035e61071a366004615cfd565b612874565b34801561072a575f80fd5b5061035e610739366004615d56565b6128d2565b61035e61074c366004615d7a565b612d85565b6001600160a01b035f805160206162d18339815191525c1615610772575f80fd5b61077b336131fd565b6001600160a01b0383165f908152600160205260409020600401546d2000000000000000000000000000906107b490849060801c615e29565b6001600160801b031611156107c7575f80fd5b6107e56001600160a01b038416336001600160801b03851684613210565b6001600160a01b0383165f9081526001602052604090206004015461081390608084901b61322e565b61322e565b6001600160a01b0384165f818152600160209081526040918290206004019390935580519182526001600160801b038516928201929092527f0dc5e2150c5754dc0bcd8d76ca2d23850fc9a2a3115c69bb4fbdbedc25074a00910160405180910390a161087f5f6131fd565b505050565b6108ba6040518060a001604052805f81526020015f6001600160a01b031681526020015f81526020015f81526020015f81525090565b506040805160a0810182526001600160a01b039283165f8181526001602081815285832080548652808301549097168186015260028701549585019590955260038601546060850152919052909152600490910154608082015290565b6064815110610924575f80fd5b5f815167ffffffffffffffff81111561093f5761093f61542d565b604051908082528060200260200182016040528015610968578160200160208202803683370190505b5090505f5b8251811015610b3c5760015f84838151811061098b5761098b615e48565b60200260200101516001600160a01b03166001600160a01b031681526020019081526020015f206005015f336001600160a01b03166001600160a01b031681526020019081526020015f20548282815181106109e9576109e9615e48565b6020026020010181815250506002828281518110610a0957610a09615e48565b60200260200101511015610a3b575f828281518110610a2a57610a2a615e48565b602002602001018181525050610b34565b6001828281518110610a4f57610a4f615e48565b6020026020010151610a619190615e5c565b828281518110610a7357610a73615e48565b6020026020010181815250506001805f858481518110610a9557610a95615e48565b60200260200101516001600160a01b03166001600160a01b031681526020019081526020015f206005015f336001600160a01b03166001600160a01b031681526020019081526020015f2081905550610b3433838381518110610afa57610afa615e48565b6020026020010151858481518110610b1457610b14615e48565b60200260200101516001600160a01b031661325d9092919063ffffffff16565b60010161096d565b507f477bb716eacccc001de50dcdd6e25241283d080e6afb27443908b20f4e738b5e8282604051610b6e929190615e6f565b60405180910390a15050565b6005546001600160a01b03163314610b90575f80fd5b6001600160a01b0381165f818152600460209081526040918290208054600217908190558251938452908301527f5d72191643a9d630c58937d62f5e056dcfa8dbf1aced1cb2f655ee1d7ecaf57791015b60405180910390a150565b5f806001600160a01b035f805160206162d18339815191525c1615610c0f575f80fd5b610c18336131fd565b6001600160a01b03841615610ca4576040516376549e6760e11b81523360048201526001600160a01b0385811660248301527f0000000000000000000000000000000000000000000000000000000000000000169063eca93cce906044015f604051808303815f87803b158015610c8d575f80fd5b505af1158015610c9f573d5f803e3d5ffd5b505050505b60408051610100810182526001600160801b03891681525f6020808301829052828401829052606083018290526001600160a01b03808e16835260018083528584206002808201546080880152905460a0870152918e168085528184529584209182015460c08601529490925292909252905460e0820152610d2681886132f8565b5f886001600160801b0316118015610d535750876001600160801b0316815f01516001600160801b031614155b8015610d715750886001600160a01b03168a6001600160a01b031614155b8015610d9557506001861515148015610d93575080516001600160801b031615155b155b610d9d575f80fd5b602081015160e0820151610dc5916001600160801b031661271060cc9290921c607f16020490565b9150818160200151610dd79190615ec5565b60808201516040808401516001600160a01b038e165f908152600160205291909120929550610e0792919061360e565b60c08101516001600160a01b038a165f908152600160205260409020610e2d918461360e565b8051610e5a903390610e3f908b615ec5565b6001600160a01b038d1691906001600160801b031687613210565b610e776001600160a01b038a16336001600160801b03861661325d565b886001600160a01b03168a6001600160a01b03167fe9174eb0d60b5dfcb132e979d11319f32d4a3ebdbf5abbb9600950c1cf8fab5b338460600151610edc865f01518e610ec49190615ec5565b60408801516001600160801b031660809190911b1790565b6001600160801b03881660808a901b17604080516001600160a01b0390951685526001600160801b03909316602085015291830152606082015260800160405180910390a350610f2b5f6131fd565b97509795505050505050565b6001600160a01b038084165f90815260016020526040808220600290810154938616835290822001549091610f6c9184613635565b90505b9392505050565b336001600160a01b037f00000000000000000000000000000000000000000000000000000000000000001614610faa575f80fd5b5f83815260036020526040902060020154610feb907f000000000000000000000000000000000000000000000000000000000000000090849060801c6136ca565b5f838152600360208181526040808420815160a08101835281546001600160a01b03908116825260018301548116828601908152600284015483860152958301546060808401919091526004909301546080830152835192830184528881168352815181169483019490945293519092169082015290919061106c90613734565b90505f6110b46040518060600160405280866001600160a01b03168152602001855f01516001600160a01b0316815260200185602001516001600160a01b0316815250613734565b90506110ee7f0000000000000000000000000000000000000000000000000000000000000000856110e9866040015160801c90565b613787565b505f818152600260205260408120549081900361111f575f838152600260205260408082205484835291205561122a565b5f87815260036020526040808220838352912061113b91613802565b5f87815260036020819052604080832080546001600160a01b031990811682556001820180549091169055600281018490559182018390556004918201929092559051630852cd8d60e31b81529081018890526001600160a01b037f000000000000000000000000000000000000000000000000000000000000000016906342966c68906024015f604051808303815f87803b1580156111d9575f80fd5b505af11580156111eb573d5f803e3d5ffd5b5050604080518a8152602081018590527f335d27656e7f9578ae51244b214940ee63a03fbed3788497ee4237a186aad1e4935001905060405180910390a15b50505f9081526002602052604081205550505050565b61127f6040518060a001604052805f6001600160a01b031681526020015f6001600160a01b031681526020015f81526020015f81526020015f81525090565b505f90815260036020818152604092839020835160a08101855281546001600160a01b03908116825260018301541692810192909252600281015493820193909352908201546060820152600490910154608082015290565b335f908152600460205260409020546002166112f2575f80fd5b6001600160a01b038281165f8181526001602081815260409283902090910180546001600160a01b031916948616948517905581519283528201929092527f42e3c955499470d3dc1078d90519d90691c504c8856ea058daf2c1436c2dab4c9101610b6e565b6006546001600160a01b0316331461136e575f80fd5b6001600160a01b0382165f9081526001602052604090206004015461139790608081901c615ec5565b6001600160a01b0383165f9081526001602052604081206004810191909155600201546001600160801b0391821692506113d2911682615ee4565b6001600160a01b038084165f81815260016020526040812060020155600654929350611401929091168361325d565b5050565b6005545f906001600160a01b0316331461141d575f80fd5b5f8290556040518281527fbd209961024f2694b0afb3c8badd20b6477abb77b336b16892c3fa4b906d323c906020015b60405180910390a15060015b919050565b6005545f906001600160a01b03163314611476575f80fd5b600160ff1b8316611485575f80fd5b6114a36001600160a01b038616336001600160801b03871685613210565b6001600160a01b0385165f9081526001602052604090206114ef9085856002830182905560038301919091556001600160e51b0316815560010180546001600160a01b03191633179055565b6001600160a01b0385165f90815260016020526040902061151590640100000000613854565b604080516060810182523381526001600160a01b03871660208201525f91810182905261154190613734565b90505f61154d82613893565b5f8381526002602052604090819020829055516340c10f1960e01b8152336004820152602481018290529091507f00000000000000000000000000000000000000000000000000000000000000006001600160a01b0316906340c10f19906044015f604051808303815f87803b1580156115c5575f80fd5b505af11580156115d7573d5f803e3d5ffd5b50505050611614875f6115f36115ed8a60801c90565b60801b90565b895f868152600360205260408120949392916001600160801b0316906138b6565b5f6116447f0000000000000000000000000000000000000000000000000000000000000000336110e98a60801c90565b604080518481526001600160a01b038b1660208201526001600160801b0383168183015260608101899052608081018a905290519192507f8f2eb922ee1b2f92e0051f7949a8c191264807725a1e435e91abebd28583830a919081900360a00190a1506001979650505050505050565b5f61171486868686866040518060400160405280600160ff16815260200160405180604001604052806002815260200161060b60f31b8152508152506040516020016117009190615ef7565b6040516020818303038152906040526126c1565b90505b95945050505050565b5f6001600160a01b035f805160206162d18339815191525c1615611742575f80fd5b61174b336131fd565b6001600160a01b038581165f90815260016020819052604090912001541615801561179257506001600160a01b0387165f90815260016020526040902054600160ff1b1615155b61179a575f80fd5b6117c3336117a88860801c90565b6001600160a01b03881691906001600160801b031686613210565b6117e16001600160a01b038816336001600160801b03891685613210565b604080516080810182525f8082526020808301829052828401829052606083018290526001600160a01b038b1682526001905291909120611823908883613954565b61189361184b82604001516118388a60801c90565b6001600160801b031660809190911b1790565b6001600160a01b0388165f90815260016020526040902090876002830182905560038301919091556001600160e51b0316815560010180546001600160a01b03191633179055565b5f6118d26040518060600160405280336001600160a01b03168152602001896001600160a01b031681526020018b6001600160a01b0316815250613734565b90506118dd81613893565b5f8281526002602052604090819020829055516340c10f1960e01b815233600482015260248101919091527f00000000000000000000000000000000000000000000000000000000000000006001600160a01b0316906340c10f19906044015f604051808303815f87803b158015611953575f80fd5b505af1158015611965573d5f803e3d5ffd5b50506040805160a0810182526001600160a01b03808c1682528d16602082015285820151909350908301915060801b81526020016119a38a60801c90565b6001600160801b031681526020016119d38460200151856060015160809190911b6001600160801b039091161790565b90525f828152600260208181526040808420805485526003808452828620875181546001600160a01b039182166001600160a01b0319918216178355898701516001840180549190931691161790558784015181870155606088015191810191909155608090960151600490960195909555928590528190529154908401517f3fc0293a5a7bc73de220f0814bbbebc31e77ffcd41bf5e8be187471747bd7caa928a918d918b91611aac917f00000000000000000000000000000000000000000000000000000000000000009133916110e99190615f42565b611ad1611ab98f60801c90565b60408a01516001600160801b031660809190911b1790565b885160608a01516001600160801b031660809190911b17604080519788526001600160a01b039687166020890152949095169386019390935260608501919091526001600160801b0316608084015260a083015260c082015260e00160405180910390a1600192505050611b445f6131fd565b9695505050505050565b5f611b626001600160a01b03831630613a85565b92915050565b335f90815260046020526040812054600216611b82575f80fd5b6001600160a01b0382165f81815260046020908152604091829020805460011916908190558251938452908301527f5d72191643a9d630c58937d62f5e056dcfa8dbf1aced1cb2f655ee1d7ecaf577910161144d565b60606064835110611be7575f80fd5b5f835167ffffffffffffffff811115611c0257611c0261542d565b604051908082528060200260200182016040528015611c2b578160200160208202803683370190505b5090505f5b8451811015611cbf5760015f868381518110611c4e57611c4e615e48565b60200260200101516001600160a01b03166001600160a01b031681526020019081526020015f206005015f856001600160a01b03166001600160a01b031681526020019081526020015f2054828281518110611cac57611cac615e48565b6020908102919091010152600101611c30565b509392505050565b6005546001600160a01b03163314611cdd575f80fd5b600580546001600160a01b0319166001600160a01b0383169081179091556040519081527fa8d3850ce581f2add46670c1408b76ca1d0d4ef627eed4a89802ff670940082d90602001610be1565b6001600160a01b038281165f908152600160208190526040822001549091163314611d54575f80fd5b6001600160a01b0383165f908152600160205260409020611d759083613b10565b604080516001600160a01b0385168152602081018490527f075a13b9dbfb2e30d678551b8c2a4f9ede7468ca5273fa902a41d0e57756666991015b60405180910390a150600192915050565b5f6001600160a01b035f805160206162d18339815191525c1615611de3575f80fd5b611dec336131fd565b60405163430c208160e01b8152336004820152602481018490527f00000000000000000000000000000000000000000000000000000000000000006001600160a01b03169063430c2081906044016020604051808303815f875af1158015611e56573d5f803e3d5ffd5b505050506040513d601f19601f82011682018060405250810190611e7a9190615f6b565b611e82575f80fd5b5f8381526003602052604080822060018101549054915163b88e6d6360e01b81523360048201526001600160a01b0391821693928216929182917f00000000000000000000000000000000000000000000000000000000000000009091169063b88e6d63906024016040805180830381865afa158015611f04573d5f803e3d5ffd5b505050506040513d601f19601f82011682018060405250810190611f289190615f86565b6001600160a01b0388165f908152600460205260409020549193509150600116611f525785611f54565b815b9550806001600160a01b0316866001600160a01b031614611f755780611f77565b815b6001600160a01b0381165f90815260046020526040902054909150600116611f9f5781611fa1565b805b6001600160a01b038086165f9081526001602081815260408084208d8552600383528185208554968b16865293909252909220939450611fe693928a90869088613b4b565b6001600160a01b0384165f90815260016020818152604080842033855260050190915290912054919650811115612063576001600160a01b0384165f90815260016020818152604080842033808652600590910190925290922081905561206391906120529084615e5c565b6001600160a01b038716919061325d565b6001600160a01b038516156120ee57506001600160a01b0384165f90815260016020818152604080842033855260050190915290912054908111156120ee576001600160a01b0385165f9081526001602081815260408084203380865260059091019092529092208190556120ee91906120dd9084615e5c565b6001600160a01b038816919061325d565b604080516001600160a01b0380871682528716602082015290810187905288907f1129f35303e34d7efabdbd85614ed662beb4fc6942852b7a3e5a4f92074cbf319060600160405180910390a25050505050611b625f6131fd565b335f90815260046020526040812054600216612163575f80fd5b6001600160a01b0382165f818152600460209081526040918290208054600117908190558251938452908301527f5d72191643a9d630c58937d62f5e056dcfa8dbf1aced1cb2f655ee1d7ecaf577910161144d565b335f908152600460205260408120546002166121d2575f80fd5b6001600160a01b0383165f9081526001602052604090206121f39083613854565b604080516001600160a01b0385168152602081018490527fe40cf68f61d9a4e510244481f5aa34ba68de31cf3f9aa360604d688115d640c89101611db0565b60606001600160a01b035f805160206162d18339815191525c1615612255575f80fd5b61225e336131fd565b5f8260ff1667ffffffffffffffff81111561227b5761227b61542d565b6040519080825280602002602001820160405280156122cb57816020015b604080516080810182525f8082526020808301829052928201819052606082015282525f199092019101816122995790505b5090506122da86880188615fb3565b90505f8360ff1667ffffffffffffffff8111156122f9576122f961542d565b604051908082528060200260200182016040528015612322578160200160208202803683370190505b5090505f5b825181101561237e5761235483828151811061234557612345615e48565b60200260200101518888613c3c565b82828151811061236657612366615e48565b91151560209283029190910190910152600101612327565b509150506117175f6131fd565b6005546001600160a01b031633146123a1575f80fd5b600680546001600160a01b0319169055565b6005546001600160a01b031633146123c9575f80fd5b6001600160a01b0381165f81815260046020908152604091829020805460021916908190558251938452908301527f5d72191643a9d630c58937d62f5e056dcfa8dbf1aced1cb2f655ee1d7ecaf5779101610be1565b5f806001600160a01b035f805160206162d18339815191525c1615612442575f80fd5b61244b336131fd565b60408051610100810182526001600160801b03881681525f6020808301829052828401829052606083018290526001600160a01b03808d16835260018083528584206002808201546080880152905460a0870152918d168085528184529584209182015460c08601529490925292909252905460e08201526124cd8187613f95565b876001600160a01b0316896001600160a01b0316141580156124f7575080516001600160801b0316155b6124ff575f80fd5b602081015160a0820151612527916001600160801b031661271060c59290921c607f16020490565b91508181602001516125399190615e29565b60c08201516040808401516001600160a01b038c165f90815260016020529190912092955061256992919061360e565b60808101516001600160a01b038a165f90815260016020526040902061258f918461360e565b6125bd858260400151896125a39190615ec5565b6001600160a01b038b1691906001600160801b031661325d565b6125db6001600160a01b038a16336001600160801b03861687613210565b876001600160a01b0316896001600160a01b03167f6cf01bd7290ca456adc58f838641d629cb223064c72dabf9a6255d86a854762d338885606001516126358d886040015160809190911b6001600160801b039091161790565b604080516001600160a01b0395861681529390941660208401526001600160801b03918216838501526060830152608089811b918916919091179082015290519081900360a00190a3506126885f6131fd565b965096945050505050565b6001600160a01b0382165f90815260016020526040812054610f6f908361271060df9290921c603f16020490565b5f806126cc87611b4e565b9050808611156126f75760405163fd9a760960e01b8152600481018290526024015b60405180910390fd5b5f6127028888612693565b90506127186001600160a01b0389168a8961325d565b6040516323e30c8b60e01b81527f439148f0bbc682ca079e46d6e2c2f0c1e3b820f1a291b069d8882abf8cf18dd9906001600160a01b038b16906323e30c8b906127709033908d908d9088908e908e90600401616044565b6020604051808303815f875af115801561278c573d5f803e3d5ffd5b505050506040513d601f19601f820116820180604052508101906127b091906160a0565b146127d85760405162678c5b60e81b81526001600160a01b038a1660048201526024016126ee565b61280389306127e7848b615ee4565b6001600160a01b038c169291906001600160801b0316886141ce565b6001600160a01b0388165f90815260016020526040902061282490826143e2565b50600198975050505050505050565b5f6001600160a01b035f805160206162d18339815191525c1615612855575f80fd5b61285e336131fd565b612869848484613c3c565b9050610f6f5f6131fd565b5f5f196001600160a01b038616016128a8576128a36001600160a01b038616846001600160801b03871661325d565b6128c7565b6128c76001600160a01b03861633856001600160801b038816866141ce565b506001949350505050565b5f6001600160a01b035f805160206162d18339815191525c16156128f4575f80fd5b6128fd336131fd565b60405163430c208160e01b8152336004820152602481018590527f00000000000000000000000000000000000000000000000000000000000000006001600160a01b03169063430c2081906044016020604051808303815f875af1158015612967573d5f803e3d5ffd5b505050506040513d601f19601f8201168201806040525081019061298b9190615f6b565b612993575f80fd5b60408051606080820183525f808352602080840182905283850182905284519283018552818352828101829052828501829052888252600390528381208054600190910154945163b88e6d6360e01b8152336004820152939492936001600160a01b039182169382169291829182917f0000000000000000000000000000000000000000000000000000000000000000169063b88e6d63906024016040805180830381865afa158015612a48573d5f803e3d5ffd5b505050506040513d601f19601f82011682018060405250810190612a6c9190615f86565b6001600160a01b038b165f908152600460205260409020549193509150600116612a965781612a98565b885b9850806001600160a01b0316896001600160a01b031614612ab95780612abb565b815b6001600160a01b0381165f90815260046020526040902054909150600116612ae35781612ae5565b805b9050612b9d60015f866001600160a01b03166001600160a01b031681526020019081526020015f2060035f8e81526020019081526020015f206040518060a001604052808e6001600160801b031681526020018d6001600160a01b03168152602001856001600160a01b031681526020015f548152602001866001600160a01b031681525060015f8a6001600160a01b03166001600160a01b031681526020019081526020015f2061441b909392919063ffffffff16565b6001600160a01b0388165f90815260016020818152604080842033855260050190915290912054939a509198509450811115612c1f576001600160a01b0386165f908152600160208181526040808420338086526005909101909252909220819055612c1f9190612c0e9084615e5c565b6001600160a01b038916919061325d565b6001600160a01b03851615612c9957506001600160a01b0384165f9081526001602081815260408084203385526005019091529091205490811115612c99576001600160a01b0385165f908152600160208181526040808420338086526005909101909252909220819055612c9991906120dd9084615e5c565b612cc47f000000000000000000000000000000000000000000000000000000000000000033866136ca565b8b7f63741ac8918076a6393e6e12659431a4927b53e16190a6b00af6a06697d868b88787608088901b60208d015160408e01516001600160801b031660809190911b1760208d015160408e01516001600160801b031660809190911b178e518e516001600160801b031660809190911b17604080516001600160a01b039788168152969095166020870152938501929092526060840152608083015260a082015260c00160405180910390a2600198505050505050505050610f6f5f6131fd565b5f6001600160a01b035f805160206162d18339815191525c1615612da7575f80fd5b612db0336131fd565b60408051608080820183525f808352602080840182905283850182905260608085018390528551938401865282845283820183905283860183905283018290526001600160a01b038b1682526001905292909220600201549091906d200000000000000000000000000090612e26908890615e29565b6001600160801b031611158015612e4f5750866001600160a01b0316886001600160a01b031614155b8015612e9d57506001600160a01b0388165f90815260016020526040902054600160ff1b16151580612e9d57506001600160a01b0387165f90815260016020526040902054600160ff1b1615155b612ea5575f80fd5b6001600160a01b0388165f908152600160205260409020612ec7908784613954565b612ee56001600160a01b038916336001600160801b03891688613210565b6001600160a01b03871615612fa3576040808301516001600160a01b0389165f90815260016020529190912060020154612f1e91614928565b6001600160801b0316606082018190526001600160a01b0388165f9081526001602052604090205460d91c603f16612710908103909104026001600160801b031660608201819052612f7d906001600160a01b03891690339087613210565b60608101516001600160a01b0388165f908152600160205260409020612fa39183613954565b5f612fe26040518060600160405280336001600160a01b031681526020018b6001600160a01b031681526020018a6001600160a01b0316815250613734565b5f818152600260205260408120549192508190036130925761300382613893565b6040516340c10f1960e01b8152336004820152602481018290529091507f00000000000000000000000000000000000000000000000000000000000000006001600160a01b0316906340c10f19906044015f604051808303815f87803b15801561306b575f80fd5b505af115801561307d573d5f803e3d5ffd5b5050505f838152600260205260409020829055505b60408401516130ed908b908b9060801b602088015160608901516001600160801b031660809190911b17602088015160608901516001600160801b031660809190911b175f87815260036020526040902094939291906138b6565b5f6001600160a01b038a161561311257604085015161310d906002615f42565b613118565b84604001515b90505f6131467f00000000000000000000000000000000000000000000000000000000000000003384613787565b9050827fee89c9fd704272905456294f1b2b88581ebe0241f72c15b4f3db31d19388f6af8d8d61318a8a604001518660809190911b6001600160801b039091161790565b8a5160608c01516001600160801b031660809190911b178a5160608c01516001600160801b031660809190911b17604080516001600160a01b039687168152959094166020860152928401919091526060830152608082015260a00160405180910390a2600196505050505050506117175f5b805f805160206162d18339815191525d50565b306132278585836001600160801b038716866141ce565b5050505050565b5f608082811d9084901d016001600160801b038381169085160161171761325483614958565b61183883614958565b5f60016001600160a01b0385160361329c575f805f8085875af190508061329757604051633d2cec6f60e21b815260040160405180910390fd5b6132f2565b60405163a9059cbb60e01b5f52836004528260245260205f60445f80895af13d15601f3d1160015f511416171691505f6060528060405250806132f257604051633c9fd93960e21b815260040160405180910390fd5b50505050565b61330b82608001518360c0015183613635565b1561140157815160a08301515f918291613339916001600160801b031661271060c59290921c607f16020490565b6001600160801b03166040850181905284518590613358908390615ec5565b6001600160801b03169052505b83516001600160801b03161580159061338c575061338c84608001518560c0015185613635565b1561357a576133ad6133a28560c0015160801c90565b60e086015190614972565b6001600160801b03166133d26133c7866080015160801c90565b60a087015190614972565b6001600160801b03161015613402576133fd6133f2856080015160801c90565b60a086015190614972565b613413565b6134136133a28560c0015160801c90565b60808501519092506134259083614928565b9050806001600160801b0316845f01516001600160801b031611156134d75780845f018181516134559190615ec5565b6001600160801b031690525060c08401516134709083614928565b846020018181516134819190615e29565b6001600160801b039081169091526080868101516134ac93509184169085901b176149a9565b6149a9565b608085015260c08401516134cd906134c8846118388382614928565b6149cf565b60c0850152613557565b835160808501516134e7916149f5565b60c08501519092506134f99083614928565b8460200181815161350a9190615e29565b6001600160801b03908116909152608086810151875161353294509092169085901b176149a9565b608085015260c084015161354e906134c8846118388382614928565b60c08501525f84525b81846060018181516135699190615e29565b6001600160801b0316905250613365565b83516001600160801b0316156132f257835160a08501516135af916001600160801b031661271060c59290921c607f16020490565b846040018181516135c09190615ec5565b6001600160801b03908116909152855160a08701516135ed9350911661271060c59290921c607f16020490565b845185906135fc908390615e29565b6001600160801b031690525050505050565b60028301829055600483015461362890608083901b61322e565b8360040181905550505050565b5f6136408260801c90565b6001600160801b03166136538460801c90565b6001600160801b0316856001600160801b031661367091906160b7565b61367a91906160b7565b826001600160801b0316846001600160801b03166136988760801c90565b6001600160801b03166136ab91906160b7565b6136b591906160b7565b116136c0575f610f6c565b5060019392505050565b604051637bd3ca3560e01b81526001600160a01b0383811660048301526001600160801b0383166024830152841690637bd3ca35906044015f604051808303815f87803b158015613719575f80fd5b505af115801561372b573d5f803e3d5ffd5b50505050505050565b6040805182516001600160a01b039081166020808401919091528401518116828401529183015190911660608201525f906080015b60408051601f19818403018152919052805160209091012092915050565b60405163067e356d60e21b81526001600160a01b0383811660048301526001600160801b03831660248301525f91908516906319f8d5b4906044016020604051808303815f875af11580156137de573d5f803e3d5ffd5b505050506040513d601f19601f82011682018060405250810190610f6c91906160ce565b6138148260020154826002015461322e565b826002018190555061382e8260030154826003015461322e565b82600301819055506138488260040154826004015461322e565b82600401819055505050565b815460df82901b90613883907b80000000000000000000000000000000000000000000000000000000906160fd565b61388d9190615ee4565b90915550565b604080516020810183905230918101919091524260608201525f90608001613769565b60038601546001600160801b03165f036138e45785546001600160a01b0319166001600160a01b0386161786555b6138f286600201548461322e565b60028701556003860154613906908361322e565b60038701556001600160a01b0384161561394c576001860180546001600160a01b0319166001600160a01b0386161790556004860154613946908261322e565b60048701555b505050505050565b8254613975906001600160801b03841661271060d99290921c603f16020490565b6001600160801b031680825261398b9083615ec5565b6001600160801b03166060820181905260028401546139a9916149f5565b6001600160801b03166040820152606081015160048401546139dd91906139d79060801c6003870154611838565b906149f5565b6001600160801b03166020820181905260048401548251613a1e9261080e91613a069190615e29565b60208501516001600160801b031660809190911b1790565b6004840155600283015460408201516060830151613a4b929160801b6001600160801b039091161761322e565b6002840155600383015460408201516060830151613a78929160801b6001600160801b039091161761322e565b8360030181905550505050565b5f60016001600160a01b03841603613aa857506001600160a01b03811631611b62565b6040516370a0823160e01b81526001600160a01b0383811660048301528416906370a0823190602401602060405180830381865afa158015613aec573d5f803e3d5ffd5b505050506040513d601f19601f82011682018060405250810190610f6f91906160a0565b81546001600160e51b039091169061388d9082907fffffffe00000000000000000000000000000000000000000000000000000000016615ee4565b5f80613b5b876003015460801c90565b613b84613b69896003015490565b6139d7613b7a8d6004015460801c90565b60038e0154611838565b613b8e9190615ec5565b60048a0154909150613ba9906001600160801b03831661322e565b60048a0155613bbd8982868989885f614a1d565b5f613bcc886004015460801c90565b613bda613b698a6004015490565b613be49190615ec5565b60048a0154909150613bff906001600160801b03831661322e565b60048a0155613c138982878a8a895f614a1d565b6001600160801b038116608083901b179250613c2f8884614d3c565b5050979650505050505050565b5f611388836bffffffffffffffffffffffff161115613c59575f80fd5b60408051610160810182525f80825260208201819052918101829052606081018290526080810182905260a0810182905260c0810182905260e081018290526101008101829052610120810182905261014081019190915284516001600160a01b039081165f9081526001602090815260408083206002908101548a518616855282852054938b018051871686528386209092015491519095168452922054613d089385938a9391928a614d7b565b613d1181614e97565b336001600160a01b037f000000000000000000000000000000000000000000000000000000000000000016148015613d5e57505f613d53866040015160801c90565b6001600160801b0316115b8015613d72575080516001600160801b0316155b8015613d97575084602001516001600160a01b0316855f01516001600160a01b031614155b15613da157600191505b60408501516001600160801b03168160a001516001600160801b03161015613dc7575f91505b8115611cbf57613dfe8560600151613de0876040015190565b60208801516001600160a01b031691906001600160801b031661325d565b5f613e0a866040015190565b8260a00151613e199190615ec5565b9050613e4884613e2a600284616110565b60208901516001600160a01b031691906001600160801b031661325d565b613e53600282616110565b8260800151613e629190615e29565b6001600160801b0316608083015260c082015160408084015188516001600160a01b03165f908152600160205291909120613e9e92909161360e565b61010082015160808301516020808901516001600160a01b03165f908152600190915260409020613ed092909161360e565b85602001516001600160a01b0316865f01516001600160a01b03167fe9174eb0d60b5dfcb132e979d11319f32d4a3ebdbf5abbb9600950c1cf8fab5b88606001518560600151613f3f613f278c6040015160801c90565b60408901516001600160801b031660809190911b1790565b60a08801516080808a01516001600160801b031691901b17604080516001600160a01b0390951685526001600160801b03909316602085015291830152606082015260800160405180910390a350509392505050565b613fa882608001518360c0015183613635565b61140157815160e08301515f918291613fd5916001600160801b031661271060cc9290921c607f16020490565b6001600160801b031660408501525b83516001600160801b03161580159061400b575061400b84608001518560c0015185613635565b156132f2576140216133a28560c0015160801c90565b6001600160801b031661403b6133c7866080015160801c90565b6001600160801b031610156140605761405b6133f2856080015160801c90565b614071565b6140716133a28560c0015160801c90565b60c08501519092506140839083614928565b9050806001600160801b0316845f01516001600160801b0316111561412b5780845f018181516140b39190615ec5565b6001600160801b031690525060808401516140ce9083614928565b846020018181516140df9190615e29565b6001600160801b0390811690915260c08601516141059250908316608085901b176149cf565b60c08501526080840151614121906134a7846118388382614928565b60808501526141ab565b835160c085015161413b916149f5565b608085015190925061414d9083614928565b8460200181815161415e9190615e29565b6001600160801b0390811690915260c086015186516141869350909116608085901b176149cf565b60c085015260808401516141a2906134a7846118388382614928565b60808501525f84525b81846060018181516141bd9190615e29565b6001600160801b0316905250613fe4565b5f80828060200190518101906141e4919061613d565b905060016001600160a01b038816036142205783341461421757604051633d2cec6f60e21b815260040160405180910390fd5b6001915061372b565b805160ff1660010361429b576040516323b872dd60e01b81526001600160a01b03871660048201526001600160a01b038616602482015284604482015260205f6064835f8c5af13d15601f3d1160015f51141617169250508161429657604051633c9fd93960e21b815260040160405180910390fd5b61372b565b805160ff1660020361372b575f81602001518060200190518101906142c091906161f7565b80516040808301516060840151608085015160a086015160c0870151945163d505accf60e01b81526001600160a01b0396871660048201523060248201526044810194909452606484019290925260ff16608483015260a482015260c481019190915291925089169063d505accf9060e4015f604051808303815f87803b158015614349575f80fd5b505af115801561435b573d5f803e3d5ffd5b50506040516323b872dd60e01b81526001600160a01b038a811660048301528981166024830152604482018990528b1692506323b872dd91506064016020604051808303815f875af11580156143b3573d5f803e3d5ffd5b505050506040513d601f19601f820116820180604052508101906143d79190615f6b565b50600192505061372b565b7001000000000000000000000000000000006143fe81836160fd565b836004015461440d9190615ee4565b901b82600401819055505050565b604080516060810182525f8082526020820181905291810191909152604080516060810182525f80825260208201819052918101919091525f614476845f01516139d761446c886002015460801c90565b6003890154611838565b905060405180606001604052806144a5865f01516139d761449b8c6004015460801c90565b60038d0154611838565b6001600160801b031681526020016144d5865f01516139d76144cb8a6003015460801c90565b60038b0154611838565b6001600160801b0390811682528651166020909101528754909350600160ff1b1615158061450957508554600160ff1b1615155b801561453e5750614529614521886002015460801c90565b8854906151d0565b6001600160801b0316816001600160801b0316105b801561456b5750614553614521886002015490565b6001600160801b0316845f01516001600160801b0316105b6145a05760405162461bcd60e51b81526004016126ee906020808252600490820152634730313160e01b604082015260600190565b600287015460408401516145c391906001600160801b0316608084901b176151f4565b6002880155600387015460408401516145eb91906001600160801b0316608084901b176151f4565b6003880155600487015483516020850151614615929160801b6001600160801b03909116176151f4565b6004880155614624858261521a565b602083015183516146359190615ec5565b6001600160801b039081168452604084015188546146619290911661271060d39290921c603f16020490565b6001600160801b03166020808501829052845160608701519187015160408089015160808a0151918901516146a4968e9694939161469f9190615ec5565b614a1d565b60208301516001600160801b0316156146d457600487015460208401516146ce919060801b61322e565b60048801555b60018501546001600160a01b03161561491e576040518060600160405280614711836139d76147078b6004015460801c90565b60038c0154611838565b6001600160801b0316815260200161473e836139d76147348a6004015460801c90565b60048b0154611838565b6001600160801b03168152602001614767836147616147348a6002015460801c90565b90614928565b6001600160801b0316815250915061478e614786876002015460801c90565b8754906151d0565b6001600160801b0316816001600160801b03161080156147d057506147b7614786876002015490565b6001600160801b031682604001516001600160801b0316105b6148055760405162461bcd60e51b81526004016126ee906020808252600490820152632398189960e11b604082015260600190565b6002860154604083015161482891906001600160801b0316608084901b176151f4565b60028701556003860154604083015161485091906001600160801b0316608084901b176151f4565b600387015560048601548251602084015161487a929160801b6001600160801b03909116176151f4565b6004870155602082015182516148909190615ec5565b6001600160801b039081168352604083015187546148bc9290911661271060d39290921c603f16020490565b6001600160801b031660208301819052156148ee57600486015460208301516148e8919060801b61322e565b60048701555b61491e86835f015186606001518760200151886040015189608001518860200151896040015161469f9190615ec5565b9450945094915050565b5f610f6f836001600160801b0316836001600160801b031661494a8660801c90565b6001600160801b0316615323565b5f6001600160801b0382111561496e575f611b62565b5090565b5f6103ff60bb84901c1680820361498c5782915050611b62565b61499781600a615f42565b6149a19084616110565b949350505050565b5f608082811d9084901d036001600160801b038381169085160161171761325483614958565b5f608082811d9084901d016001600160801b038381169085160361171761325483614958565b5f610f6f614a038460801c90565b6001600160801b0316836001600160801b031661494a8690565b60646001600160801b03871660dd87901c601f160204614a3d8188615ec5565b965060646001600160801b03881660fa88901c81028290049160f489901c603f90811683028290049260ee8b901c821681028390049260e88c901c831682028190049260e28d901c16909102046001600160a01b038916614b9657614aa28786615e29565b335f90815260058f016020526040812080546001600160801b039390931692909190614acf908490615ee4565b90915550614adf90508185615e29565b6001600160801b03168d6005015f8c6001600160a01b03166001600160a01b031681526020019081526020015f205f828254614b1b9190615ee4565b92505081905550858185878f614b319190615ec5565b614b3b9190615ec5565b614b459190615ec5565b614b4f9190615e29565b6001600160801b03168d6005015f8a6001600160a01b03166001600160a01b031681526020019081526020015f205f828254614b8b9190615ee4565b90915550614d2d9050565b60018d01546001600160a01b03898116911614614bee5760018d01546001600160a01b03165f90815260058e016020526040812080546001600160801b0387169290614be3908490615ee4565b90915550614bfb9050565b614bf88487615e29565b95505b876001600160a01b03168a6001600160a01b031614614c51576001600160a01b038a165f90815260058e016020526040812080546001600160801b0386169290614c46908490615ee4565b90915550614c5e9050565b614c5b8387615e29565b95505b876001600160a01b0316896001600160a01b031614614cb4576001600160a01b0389165f90815260058e016020526040812080546001600160801b0385169290614ca9908490615ee4565b90915550614cc19050565b614cbe8287615e29565b95505b6001600160a01b0388165f90815260058e016020526040812080546001600160801b0389169290614cf3908490615ee4565b90915550879050614d048287615e29565b614d0e9190615e29565b335f90815260058f01602052604090206001600160801b039190911690555b50505050505050505050505050565b614d51826003015461080e6115ed8460801c90565b600383015560018201546001600160a01b03161561140157613848826004015461080e6115ed8490565b6040860151608090811c885260c0880186905260e08801859052610100880184905261012088018390525f90614db590859088901c615f42565b6001600160801b031690505f614dcc8960c0015190565b6101008a015160801c614ddf9190615f42565b6001600160801b03169050808210614e3a57608081614e0085612710616275565b614e18906bffffffffffffffffffffffff16856160b7565b614e229190616299565b614e2f911b612710615ee4565b6101408a0152614e8c565b81614e47846127106162ac565b614e5f906bffffffffffffffffffffffff16836160b7565b614e699190616299565b614e859071271000000000000000000000000000000000615ee4565b6101408a01525b505050505050505050565b614ea081615334565b1561517757805160e08201515f918291614ece916001600160801b031661271060c59290921c607f16020490565b6001600160801b03166040840181905283518490614eed908390615ec5565b6001600160801b03169052505b614f0383615334565b156150e557614f26614f1a84610100015160801c90565b61012085015190614972565b6001600160801b0316614f406133a28560c0015160801c90565b6001600160801b03161015614f7057614f6b614f608460c0015160801c90565b60e085015190614972565b614f82565b614f82614f1a84610100015160801c90565b60c0840151909250614f949083614928565b9050806001600160801b0316835f01516001600160801b0316111561503f5780835f01818151614fc49190615ec5565b6001600160801b0316905250610100830151614fe09083614928565b83602001818151614ff19190615e29565b6001600160801b0390811690915260c08501516150179250908316608085901b176149a9565b60c0840152610100830151615034906134c8846118388382614928565b6101008401526150c2565b825160c084015161504f916149f5565b6101008401519092506150629083614928565b836020018181516150739190615e29565b6001600160801b0390811690915260c0850151855161509b9350909116608085901b176149a9565b60c08401526101008301516150b8906134c8846118388382614928565b6101008401525f83525b81836060018181516150d49190615e29565b6001600160801b0316905250614efa565b82516001600160801b03161561517457825160e084015161511a916001600160801b031661271060c59290921c607f16020490565b8360400181815161512b9190615ec5565b6001600160801b03908116909152845160e08601516151589350911661271060c59290921c607f16020490565b83518490615167908390615e29565b6001600160801b03169052505b50505b60208101516101208201516151a0916001600160801b031661271060cc9290921c607f16020490565b6001600160801b03166080820181905260208201516151bf9190615ec5565b6001600160801b031660a090910152565b5f6103ff60b184901c168082036151ea5782915050611b62565b6149a18184616110565b5f608082811d9084901d036001600160801b038381169085160361171761325483614958565b5f61527f61525061522f856003015460801c90565b6001600160801b0316846001600160801b031661494a876002015460801c90565b61183861525e866003015490565b6001600160801b0316856001600160801b031661494a886002015460801c90565b60018401549091506001600160a01b0316156152f0575f6152d96152aa61525e866004015460801c90565b6118386152b8876004015490565b6001600160801b0316866001600160801b031661494a896002015460801c90565b90506152e98460040154826151f4565b6004850155505b6152fe8360030154826151f4565b6003840155600283015461531690608084901b6151f4565b8360020181905550505050565b918102915f81840461171781614958565b5f61534482610140015160801c90565b6001600160801b031661535c83610100015160801c90565b6001600160801b03166153708460c0015190565b6001600160801b031661538391906160b7565b61538d91906160b7565b6101408301516001600160801b03166153a884610100015190565b6001600160801b03166153bf8560c0015160801c90565b6001600160801b03166153d291906160b7565b6153dc91906160b7565b11156153e8575f6153eb565b60015b8015611b62575050516001600160801b0316151590565b6001600160a01b0381168114615416575f80fd5b50565b6001600160801b0381168114615416575f80fd5b634e487b7160e01b5f52604160045260245ffd5b6040805190810167ffffffffffffffff811182821017156154645761546461542d565b60405290565b60405160e0810167ffffffffffffffff811182821017156154645761546461542d565b604051601f8201601f1916810167ffffffffffffffff811182821017156154b6576154b661542d565b604052919050565b5f67ffffffffffffffff8211156154d7576154d761542d565b50601f01601f191660200190565b5f82601f8301126154f4575f80fd5b8135615507615502826154be565b61548d565b81815284602083860101111561551b575f80fd5b816020850160208301375f918101602001919091529392505050565b5f805f60608486031215615549575f80fd5b833561555481615402565b9250602084013561556481615419565b9150604084013567ffffffffffffffff81111561557f575f80fd5b61558b868287016154e5565b9150509250925092565b5f602082840312156155a5575f80fd5b8135610f6f81615402565b5f67ffffffffffffffff8211156155c9576155c961542d565b5060051b60200190565b5f82601f8301126155e2575f80fd5b81356155f0615502826155b0565b8082825260208201915060208360051b860101925085831115615611575f80fd5b602085015b8381101561563757803561562981615402565b835260209283019201615616565b5095945050505050565b5f60208284031215615651575f80fd5b813567ffffffffffffffff811115615667575f80fd5b6149a1848285016155d3565b8015158114615416575f80fd5b5f805f805f805f60e0888a031215615696575f80fd5b87356156a181615402565b965060208801356156b181615402565b955060408801356156c181615419565b94506060880135935060808801356156d881615673565b925060a08801356156e881615402565b915060c088013567ffffffffffffffff811115615703575f80fd5b61570f8a828b016154e5565b91505092959891949750929550565b5f805f60608486031215615730575f80fd5b833561573b81615402565b9250602084013561574b81615402565b929592945050506040919091013590565b5f805f6060848603121561576e575f80fd5b83359250602084013561578081615402565b9150604084013561579081615402565b809150509250925092565b5f602082840312156157ab575f80fd5b5035919050565b5f80604083850312156157c3575f80fd5b82356157ce81615402565b915060208301356157de81615402565b809150509250929050565b5f80604083850312156157fa575f80fd5b823561580581615402565b946020939093013593505050565b5f805f8060808587031215615826575f80fd5b843561583181615402565b93506020850135925060408501359150606085013567ffffffffffffffff81111561585a575f80fd5b615866878288016154e5565b91505092959194509250565b5f8083601f840112615882575f80fd5b50813567ffffffffffffffff811115615899575f80fd5b6020830191508360208285010111156158b0575f80fd5b9250929050565b5f805f805f608086880312156158cb575f80fd5b85356158d681615402565b945060208601356158e681615402565b935060408601359250606086013567ffffffffffffffff811115615908575f80fd5b61591488828901615872565b969995985093965092949392505050565b5f805f805f8060c0878903121561593a575f80fd5b863561594581615402565b955060208701359450604087013561595c81615402565b935060608701359250608087013567ffffffffffffffff81111561597e575f80fd5b61598a89828a016154e5565b92505060a087013567ffffffffffffffff8111156159a6575f80fd5b6159b289828a016154e5565b9150509295509295509295565b5f80604083850312156159d0575f80fd5b823567ffffffffffffffff8111156159e6575f80fd5b6159f2858286016155d3565b92505060208301356157de81615402565b5f8151808452602084019350602083015f5b82811015615a33578151865260209586019590910190600101615a15565b5093949350505050565b602081525f610f6f6020830184615a03565b5f8060408385031215615a60575f80fd5b8235915060208301356157de81615402565b80356bffffffffffffffffffffffff81168114611459575f80fd5b60ff81168114615416575f80fd5b5f805f805f60808688031215615aaf575f80fd5b853567ffffffffffffffff811115615ac5575f80fd5b615ad188828901615872565b9096509450615ae4905060208701615a72565b92506040860135615af481615402565b91506060860135615b0481615a8d565b809150509295509295909350565b602080825282518282018190525f918401906040840190835b81811015615b4b5783511515835260209384019390920191600101615b2b565b509095945050505050565b5f805f805f8060c08789031215615b6b575f80fd5b8635615b7681615402565b95506020870135615b8681615402565b94506040870135615b9681615419565b9350606087013592506080870135615bad81615402565b915060a087013567ffffffffffffffff8111156159a6575f80fd5b5f805f805f8060a08789031215615bdd575f80fd5b8635615be881615402565b95506020870135615bf881615402565b945060408701359350606087013567ffffffffffffffff811115615c1a575f80fd5b615c2689828a01615872565b909450925050608087013567ffffffffffffffff8111156159a6575f80fd5b5f60808284031215615c55575f80fd5b6040516080810167ffffffffffffffff81118282101715615c7857615c7861542d565b6040529050808235615c8981615402565b81526020830135615c9981615402565b6020820152604083810135908201526060830135615cb681615402565b6060919091015292915050565b5f805f60c08486031215615cd5575f80fd5b615cdf8585615c45565b9250615ced60808501615a72565b915060a084013561579081615402565b5f805f8060808587031215615d10575f80fd5b8435615d1b81615402565b93506020850135615d2b81615419565b92506040850135615d3b81615402565b9150606085013567ffffffffffffffff81111561585a575f80fd5b5f805f60608486031215615d68575f80fd5b83359250602084013561578081615419565b5f805f805f60a08688031215615d8e575f80fd5b8535615d9981615402565b94506020860135615da981615402565b93506040860135615db981615419565b9250606086013567ffffffffffffffff811115615dd4575f80fd5b615de0888289016154e5565b925050608086013567ffffffffffffffff811115615dfc575f80fd5b615e08888289016154e5565b9150509295509295909350565b634e487b7160e01b5f52601160045260245ffd5b6001600160801b038181168382160190811115611b6257611b62615e15565b634e487b7160e01b5f52603260045260245ffd5b81810381811115611b6257611b62615e15565b604080825283519082018190525f9060208501906060840190835b81811015615eb15783516001600160a01b0316835260209384019390920191600101615e8a565b50508381036020850152611b448186615a03565b6001600160801b038281168282160390811115611b6257611b62615e15565b80820180821115611b6257611b62615e15565b6020815260ff82511660208201525f602083015160408084015280518060608501528060208301608086015e5f608082860101526080601f19601f8301168501019250505092915050565b6001600160801b038181168382160290811690818114615f6457615f64615e15565b5092915050565b5f60208284031215615f7b575f80fd5b8151610f6f81615673565b5f8060408385031215615f97575f80fd5b8251615fa281615402565b60208401519092506157de81615402565b5f60208284031215615fc3575f80fd5b813567ffffffffffffffff811115615fd9575f80fd5b8201601f81018413615fe9575f80fd5b8035615ff7615502826155b0565b8082825260208201915060208360071b850101925086831115616018575f80fd5b6020840193505b82841015611b44576160318785615c45565b825260208201915060808401935061601f565b6001600160a01b03871681526001600160a01b038616602082015284604082015283606082015260a060808201528160a0820152818360c08301375f81830160c090810191909152601f909201601f1916010195945050505050565b5f602082840312156160b0575f80fd5b5051919050565b8082028115828204841417611b6257611b62615e15565b5f602082840312156160de575f80fd5b8151610f6f81615419565b634e487b7160e01b5f52601260045260245ffd5b5f8261610b5761610b6160e9565b500690565b5f6001600160801b03831680616128576161286160e9565b806001600160801b0384160491505092915050565b5f6020828403121561614d575f80fd5b815167ffffffffffffffff811115616163575f80fd5b820160408185031215616174575f80fd5b61617c615441565b815161618781615a8d565b8152602082015167ffffffffffffffff8111156161a2575f80fd5b80830192505084601f8301126161b6575f80fd5b81516161c4615502826154be565b8181528660208386010111156161d8575f80fd5b8160208501602083015e5f602092820183015290820152949350505050565b5f60e0828403128015616208575f80fd5b5061621161546a565b825161621c81615402565b8152602083015161622c81615402565b60208201526040838101519082015260608084015190820152608083015161625381615a8d565b608082015260a0838101519082015260c0928301519281019290925250919050565b6bffffffffffffffffffffffff8181168382160190811115611b6257611b62615e15565b5f826162a7576162a76160e9565b500490565b6bffffffffffffffffffffffff8281168282160390811115611b6257611b62615e1556fecfdbe78f31bc5efa50605e8b11a7b6843971370ea97eb24de6e1a1eb9d235645a26469706673582212207a2103bd97546b26f6ac2967012fe3bdd750007a73436315eb1e68feaf3d3e8e64736f6c634300081a0033","linkReferences":{}},"methodIdentifiers":{"addbanlist(address)":"b153b920","batchTakelimitOrder(bytes,uint96,address,uint8)":"c2ed2bc0","buyGood(address,address,uint128,uint256,bool,address,bytes)":"13a124c3","buyGoodForPay(address,address,uint128,uint256,address,bytes)":"ccfd7664","changeGoodOwner(address,address)":"41e12373","changemarketcreator(address)":"a06ad0e8","collectCommission(address[])":"0d2700ab","collectProof(uint256,address)":"a676a600","delproofdata(uint256,address,address)":"1faa5a56","disinvestProof(uint256,uint128,address)":"f4662f20","flashFee(address,uint256)":"d9d98ce4","flashLoan(address,address,uint256,bytes)":"5cffe9de","flashLoan1(address,address,uint256,bytes,bytes)":"df2a8454","getGoodState(address)":"08238466","getProofState(uint256)":"3f117740","goodWelfare(address,uint128,bytes)":"06cf4e7f","initGood(address,uint256,address,uint256,bytes,bytes)":"5f755d65","initMetaGood(address,uint256,uint256,bytes)":"51ff9a16","investGood(address,address,uint128,bytes,bytes)":"f878e809","ishigher(address,address,uint256)":"1412723a","marketconfig()":"402f5ab5","marketcreator()":"3d995173","maxFlashLoan(address)":"613255ab","modifyGoodConfig(address,uint256)":"b1efb921","payGood(address,uint128,address,bytes)":"f29771cb","proofmapping(uint256)":"5e008cc4","queryCommission(address[],address)":"9b222794","removeMarketor(address)":"cc00da2d","removeSecurityKeeper()":"c9544f18","removebanlist(address)":"9551177a","securityKeeper(address,uint256)":"44436184","setMarketConfig(uint256)":"45818e4c","setMarketor(address)":"102e5c27","takeLimitOrder((address,address,uint256,address),uint96,address)":"e9044db6","updateGoodConfig(address,uint256)":"a3b74a49","userConfig(address)":"5f35b0b3"},"id":57}