{"abi":[{"type":"constructor","inputs":[{"name":"_marketconfig","type":"uint256","internalType":"uint256"},{"name":"_officialTokenContract","type":"address","internalType":"address"},{"name":"_marketcreator","type":"address","internalType":"address"},{"name":"_securitykeeper","type":"address","internalType":"address"}],"stateMutability":"nonpayable"},{"type":"function","name":"addbanlist","inputs":[{"name":"_user","type":"address","internalType":"address"}],"outputs":[{"name":"","type":"bool","internalType":"bool"}],"stateMutability":"nonpayable"},{"type":"function","name":"buyGood","inputs":[{"name":"_goodid1","type":"address","internalType":"address"},{"name":"_goodid2","type":"address","internalType":"address"},{"name":"_swapQuantity","type":"uint128","internalType":"uint128"},{"name":"_limitPrice","type":"uint256","internalType":"uint256"},{"name":"_istotal","type":"bool","internalType":"bool"},{"name":"_referal","type":"address","internalType":"address"},{"name":"data","type":"bytes","internalType":"bytes"}],"outputs":[{"name":"goodid2Quantity_","type":"uint128","internalType":"uint128"},{"name":"goodid2FeeQuantity_","type":"uint128","internalType":"uint128"}],"stateMutability":"payable"},{"type":"function","name":"changeGoodOwner","inputs":[{"name":"_goodid","type":"address","internalType":"address"},{"name":"_to","type":"address","internalType":"address"}],"outputs":[],"stateMutability":"nonpayable"},{"type":"function","name":"changemarketcreator","inputs":[{"name":"_newmarketor","type":"address","internalType":"address"}],"outputs":[],"stateMutability":"nonpayable"},{"type":"function","name":"collectCommission","inputs":[{"name":"_goodid","type":"address[]","internalType":"address[]"}],"outputs":[],"stateMutability":"payable"},{"type":"function","name":"collectProof","inputs":[{"name":"_proofid","type":"uint256","internalType":"uint256"},{"name":"_gater","type":"address","internalType":"address"}],"outputs":[{"name":"profit_","type":"uint256","internalType":"uint256"}],"stateMutability":"payable"},{"type":"function","name":"disinvestProof","inputs":[{"name":"_proofid","type":"uint256","internalType":"uint256"},{"name":"_goodQuantity","type":"uint128","internalType":"uint128"},{"name":"_gater","type":"address","internalType":"address"}],"outputs":[{"name":"","type":"bool","internalType":"bool"}],"stateMutability":"payable"},{"type":"function","name":"flashFee","inputs":[{"name":"token","type":"address","internalType":"address"},{"name":"amount","type":"uint256","internalType":"uint256"}],"outputs":[{"name":"","type":"uint256","internalType":"uint256"}],"stateMutability":"view"},{"type":"function","name":"flashLoan","inputs":[{"name":"receiver","type":"address","internalType":"contract IERC3156FlashBorrower"},{"name":"token","type":"address","internalType":"address"},{"name":"amount","type":"uint256","internalType":"uint256"},{"name":"data","type":"bytes","internalType":"bytes"}],"outputs":[{"name":"","type":"bool","internalType":"bool"}],"stateMutability":"nonpayable"},{"type":"function","name":"getGoodState","inputs":[{"name":"goodkey","type":"address","internalType":"address"}],"outputs":[{"name":"","type":"tuple","internalType":"struct S_GoodTmpState","components":[{"name":"goodConfig","type":"uint256","internalType":"uint256"},{"name":"owner","type":"address","internalType":"address"},{"name":"currentState","type":"uint256","internalType":"uint256"},{"name":"investState","type":"uint256","internalType":"uint256"},{"name":"feeQuantityState","type":"uint256","internalType":"uint256"}]}],"stateMutability":"view"},{"type":"function","name":"getProofState","inputs":[{"name":"proofid","type":"uint256","internalType":"uint256"}],"outputs":[{"name":"","type":"tuple","internalType":"struct S_ProofState","components":[{"name":"currentgood","type":"address","internalType":"address"},{"name":"valuegood","type":"address","internalType":"address"},{"name":"state","type":"uint256","internalType":"uint256"},{"name":"invest","type":"uint256","internalType":"uint256"},{"name":"valueinvest","type":"uint256","internalType":"uint256"}]}],"stateMutability":"view"},{"type":"function","name":"goodWelfare","inputs":[{"name":"goodid","type":"address","internalType":"address"},{"name":"welfare","type":"uint128","internalType":"uint128"},{"name":"data","type":"bytes","internalType":"bytes"}],"outputs":[],"stateMutability":"payable"},{"type":"function","name":"initGood","inputs":[{"name":"_valuegood","type":"address","internalType":"address"},{"name":"_initial","type":"uint256","internalType":"uint256"},{"name":"_erc20address","type":"address","internalType":"address"},{"name":"_goodConfig","type":"uint256","internalType":"uint256"},{"name":"_normaldata","type":"bytes","internalType":"bytes"},{"name":"_valuedata","type":"bytes","internalType":"bytes"}],"outputs":[{"name":"","type":"bool","internalType":"bool"}],"stateMutability":"payable"},{"type":"function","name":"initMetaGood","inputs":[{"name":"_erc20address","type":"address","internalType":"address"},{"name":"_initial","type":"uint256","internalType":"uint256"},{"name":"_goodConfig","type":"uint256","internalType":"uint256"},{"name":"data","type":"bytes","internalType":"bytes"}],"outputs":[{"name":"","type":"bool","internalType":"bool"}],"stateMutability":"payable"},{"type":"function","name":"investGood","inputs":[{"name":"_togood","type":"address","internalType":"address"},{"name":"_valuegood","type":"address","internalType":"address"},{"name":"_quantity","type":"uint128","internalType":"uint128"},{"name":"data1","type":"bytes","internalType":"bytes"},{"name":"data2","type":"bytes","internalType":"bytes"}],"outputs":[{"name":"","type":"bool","internalType":"bool"}],"stateMutability":"payable"},{"type":"function","name":"ishigher","inputs":[{"name":"goodid","type":"address","internalType":"address"},{"name":"valuegood","type":"address","internalType":"address"},{"name":"compareprice","type":"uint256","internalType":"uint256"}],"outputs":[{"name":"","type":"bool","internalType":"bool"}],"stateMutability":"view"},{"type":"function","name":"marketconfig","inputs":[],"outputs":[{"name":"","type":"uint256","internalType":"uint256"}],"stateMutability":"view"},{"type":"function","name":"marketcreator","inputs":[],"outputs":[{"name":"","type":"address","internalType":"address"}],"stateMutability":"view"},{"type":"function","name":"maxFlashLoan","inputs":[{"name":"good","type":"address","internalType":"address"}],"outputs":[{"name":"","type":"uint256","internalType":"uint256"}],"stateMutability":"view"},{"type":"function","name":"modifyGoodConfig","inputs":[{"name":"_goodid","type":"address","internalType":"address"},{"name":"_goodConfig","type":"uint256","internalType":"uint256"}],"outputs":[{"name":"","type":"bool","internalType":"bool"}],"stateMutability":"nonpayable"},{"type":"function","name":"multicall","inputs":[{"name":"data","type":"bytes[]","internalType":"bytes[]"}],"outputs":[{"name":"results","type":"bytes[]","internalType":"bytes[]"}],"stateMutability":"payable"},{"type":"function","name":"queryCommission","inputs":[{"name":"_goodid","type":"address[]","internalType":"address[]"},{"name":"_recipent","type":"address","internalType":"address"}],"outputs":[{"name":"","type":"uint256[]","internalType":"uint256[]"}],"stateMutability":"view"},{"type":"function","name":"removeMarketor","inputs":[{"name":"_user","type":"address","internalType":"address"}],"outputs":[],"stateMutability":"nonpayable"},{"type":"function","name":"removeSecurityKeeper","inputs":[],"outputs":[],"stateMutability":"nonpayable"},{"type":"function","name":"removebanlist","inputs":[{"name":"_user","type":"address","internalType":"address"}],"outputs":[{"name":"","type":"bool","internalType":"bool"}],"stateMutability":"nonpayable"},{"type":"function","name":"securityKeeper","inputs":[{"name":"token","type":"address","internalType":"address"}],"outputs":[],"stateMutability":"payable"},{"type":"function","name":"setMarketConfig","inputs":[{"name":"_marketconfig","type":"uint256","internalType":"uint256"}],"outputs":[{"name":"","type":"bool","internalType":"bool"}],"stateMutability":"nonpayable"},{"type":"function","name":"setMarketor","inputs":[{"name":"_newmarketor","type":"address","internalType":"address"}],"outputs":[],"stateMutability":"nonpayable"},{"type":"function","name":"updateGoodConfig","inputs":[{"name":"_goodid","type":"address","internalType":"address"},{"name":"_goodConfig","type":"uint256","internalType":"uint256"}],"outputs":[{"name":"","type":"bool","internalType":"bool"}],"stateMutability":"nonpayable"},{"type":"function","name":"userConfig","inputs":[{"name":"","type":"address","internalType":"address"}],"outputs":[{"name":"","type":"uint256","internalType":"uint256"}],"stateMutability":"view"},{"type":"event","name":"e_buyGood","inputs":[{"name":"sellgood","type":"address","indexed":true,"internalType":"address"},{"name":"forgood","type":"address","indexed":true,"internalType":"address"},{"name":"fromer","type":"address","indexed":false,"internalType":"address"},{"name":"swapvalue","type":"uint128","indexed":false,"internalType":"uint128"},{"name":"sellgoodstate","type":"uint256","indexed":false,"internalType":"uint256"},{"name":"forgoodstate","type":"uint256","indexed":false,"internalType":"uint256"}],"anonymous":false},{"type":"event","name":"e_changegoodowner","inputs":[{"name":"goodid","type":"address","indexed":false,"internalType":"address"},{"name":"to","type":"address","indexed":false,"internalType":"address"}],"anonymous":false},{"type":"event","name":"e_changemarketcreator","inputs":[{"name":"_newmarketor","type":"address","indexed":false,"internalType":"address"}],"anonymous":false},{"type":"event","name":"e_collectProof","inputs":[{"name":"_proofNo","type":"uint256","indexed":true,"internalType":"uint256"},{"name":"_normalGoodNo","type":"address","indexed":false,"internalType":"address"},{"name":"_valueGoodNo","type":"address","indexed":false,"internalType":"address"},{"name":"_profit","type":"uint256","indexed":false,"internalType":"uint256"}],"anonymous":false},{"type":"event","name":"e_collectProtocolFee","inputs":[{"name":"goodid","type":"address","indexed":false,"internalType":"address"},{"name":"feeamount","type":"uint256","indexed":false,"internalType":"uint256"}],"anonymous":false},{"type":"event","name":"e_collectcommission","inputs":[{"name":"_gooid","type":"address[]","indexed":false,"internalType":"address[]"},{"name":"_commisionamount","type":"uint256[]","indexed":false,"internalType":"uint256[]"}],"anonymous":false},{"type":"event","name":"e_disinvestProof","inputs":[{"name":"_proofNo","type":"uint256","indexed":true,"internalType":"uint256"},{"name":"_normalGoodNo","type":"address","indexed":false,"internalType":"address"},{"name":"_valueGoodNo","type":"address","indexed":false,"internalType":"address"},{"name":"_value","type":"uint256","indexed":false,"internalType":"uint256"},{"name":"_normalgood","type":"uint256","indexed":false,"internalType":"uint256"},{"name":"_valuegood","type":"uint256","indexed":false,"internalType":"uint256"},{"name":"_profit","type":"uint256","indexed":false,"internalType":"uint256"}],"anonymous":false},{"type":"event","name":"e_enpower","inputs":[{"name":"_goodid","type":"uint256","indexed":false,"internalType":"uint256"},{"name":"_valuegood","type":"uint256","indexed":false,"internalType":"uint256"},{"name":"_quantity","type":"uint256","indexed":false,"internalType":"uint256"}],"anonymous":false},{"type":"event","name":"e_goodWelfare","inputs":[{"name":"goodid","type":"address","indexed":false,"internalType":"address"},{"name":"welfare","type":"uint128","indexed":false,"internalType":"uint128"}],"anonymous":false},{"type":"event","name":"e_initGood","inputs":[{"name":"_proofNo","type":"uint256","indexed":false,"internalType":"uint256"},{"name":"_goodid","type":"address","indexed":false,"internalType":"address"},{"name":"_valuegoodNo","type":"address","indexed":false,"internalType":"address"},{"name":"_goodConfig","type":"uint256","indexed":false,"internalType":"uint256"},{"name":"_construct","type":"uint256","indexed":false,"internalType":"uint256"},{"name":"_normalinitial","type":"uint256","indexed":false,"internalType":"uint256"},{"name":"_value","type":"uint256","indexed":false,"internalType":"uint256"}],"anonymous":false},{"type":"event","name":"e_initMetaGood","inputs":[{"name":"_proofNo","type":"uint256","indexed":false,"internalType":"uint256"},{"name":"_goodid","type":"address","indexed":false,"internalType":"address"},{"name":"_construct","type":"uint256","indexed":false,"internalType":"uint256"},{"name":"_goodConfig","type":"uint256","indexed":false,"internalType":"uint256"},{"name":"_initial","type":"uint256","indexed":false,"internalType":"uint256"}],"anonymous":false},{"type":"event","name":"e_investGood","inputs":[{"name":"_proofNo","type":"uint256","indexed":true,"internalType":"uint256"},{"name":"_normalgoodid","type":"address","indexed":false,"internalType":"address"},{"name":"_valueGoodNo","type":"address","indexed":false,"internalType":"address"},{"name":"_value","type":"uint256","indexed":false,"internalType":"uint256"},{"name":"_invest","type":"uint256","indexed":false,"internalType":"uint256"},{"name":"_valueinvest","type":"uint256","indexed":false,"internalType":"uint256"}],"anonymous":false},{"type":"event","name":"e_modifiedUserConfig","inputs":[{"name":"_user","type":"address","indexed":false,"internalType":"address"},{"name":"config","type":"uint256","indexed":false,"internalType":"uint256"}],"anonymous":false},{"type":"event","name":"e_modifyGoodConfig","inputs":[{"name":"_goodid","type":"address","indexed":false,"internalType":"address"},{"name":"_goodconfig","type":"uint256","indexed":false,"internalType":"uint256"}],"anonymous":false},{"type":"event","name":"e_setMarketConfig","inputs":[{"name":"_marketconfig","type":"uint256","indexed":false,"internalType":"uint256"}],"anonymous":false},{"type":"event","name":"e_transferdel","inputs":[{"name":"delproofid","type":"uint256","indexed":false,"internalType":"uint256"},{"name":"existsproofid","type":"uint256","indexed":false,"internalType":"uint256"}],"anonymous":false},{"type":"event","name":"e_updateGoodConfig","inputs":[{"name":"_goodid","type":"address","indexed":false,"internalType":"address"},{"name":"_goodConfig","type":"uint256","indexed":false,"internalType":"uint256"}],"anonymous":false},{"type":"error","name":"ERC20PermitFailed","inputs":[]},{"type":"error","name":"ERC20TransferFailed","inputs":[]},{"type":"error","name":"ERC3156ExceededMaxLoan","inputs":[{"name":"maxLoan","type":"uint256","internalType":"uint256"}]},{"type":"error","name":"ERC3156InvalidReceiver","inputs":[{"name":"receiver","type":"address","internalType":"address"}]},{"type":"error","name":"ERC3156UnsupportedToken","inputs":[{"name":"token","type":"address","internalType":"address"}]},{"type":"error","name":"TTSwapError","inputs":[{"name":"seq","type":"uint256","internalType":"uint256"}]},{"type":"error","name":"noEnoughOutputError","inputs":[]}],"bytecode":{"object":"0x60a0346100ce57601f614b7538819003918201601f19168301916001600160401b038311848410176100d2578084926080946040528339810103126100ce5780519061004d602082016100e6565b91610066606061005f604085016100e6565b93016100e6565b6080939093525f55600480546001600160a01b039283166001600160a01b03199182161790915560058054929093169116179055604051614a7a90816100fb8239608051818181610d3f0152818161145701528181611a2d01528181612563015261284e0152f35b5f80fd5b634e487b7160e01b5f52604160045260245ffd5b51906001600160a01b03821682036100ce5756fe60806040526004361015610011575f80fd5b5f3560e01c806306cf4e7f146101f457806308238466146101ef5780630d2700ab146101ea578063102e5c27146101e557806313a124c3146101e05780631412723a146101db5780633c9fe544146101d65780633d995173146101d15780633f117740146101cc578063402f5ab5146101c757806341e12373146101c257806345818e4c146101bd57806351ff9a16146101b85780635cffe9de146101b35780635f35b0b3146101ae5780635f755d65146101a9578063613255ab146101a45780639551177a1461019f5780639b2227941461019a578063a06ad0e814610195578063a3b74a4914610190578063a676a6001461018b578063ac9650d814610186578063b153b92014610181578063b1efb9211461017c578063c9544f1814610177578063cc00da2d14610172578063d9d98ce41461016d578063f4662f20146101685763f878e80914610163575f80fd5b611d52565b61195b565b61190f565b61189d565b611855565b6117e1565b61176d565b611706565b61132d565b61128d565b611213565b611149565b61107e565b61104d565b610fd2565b610f97565b610dce565b610c12565b610bb1565b610afa565b610ade565b610a20565b6109f8565b610916565b6108a1565b610811565b610787565b6105ec565b6103c8565b61025b565b6001600160a01b0381160361020a57565b5f80fd5b60a4359061021b826101f9565b565b6001600160801b0381160361020a57565b9181601f8401121561020a578235916001600160401b03831161020a576020838186019501011161020a57565b606036600319011261020a57600435610273816101f9565b60243561027f8161021d565b6044356001600160401b03811161020a5761029e90369060040161022e565b92905f80516020614a058339815191525c6001600160a01b03166103b457335f80516020614a058339815191525d6102d4612b97565b6001600160a01b0382165f908152600160205260409020600401546001606d1b906001600160801b039061031190869060801c612157565b612157565b1610156103a0577f0dc5e2150c5754dc0bcd8d76ca2d23850fc9a2a3115c69bb4fbdbedc25074a009361034f916001600160801b0385163385612c6c565b61036f600461035d83610f7e565b01546103698460801b90565b906131af565b600461037a83610f7e565b015561038b60405192839283612175565b0390a1610396612bf4565b61039e612b85565b005b63d1b5191160e01b5f52600c60045260245ffd5b63d1b5191160e01b5f52600360045260245ffd5b3461020a57602036600319011261020a576104ae6004356103e8816101f9565b6103f0612198565b506001600160a01b038181165f90815260016020819052604090912080549101549092911690600261042182610f7e565b015461045c600461043e600361043686610f7e565b015494610f7e565b015493610449610522565b9586526001600160a01b03166020860152565b6040840152606083015260808201526040519182918291909160808060a08301948051845260018060a01b03602082015116602085015260408101516040850152606081015160608501520151910152565b0390f35b634e487b7160e01b5f52604160045260245ffd5b60a081019081106001600160401b038211176104e157604052565b6104b2565b604081019081106001600160401b038211176104e157604052565b90601f801991011681019081106001600160401b038211176104e157604052565b6040519061021b60a083610501565b6040519061021b606083610501565b6040519061021b61010083610501565b6040519061021b604083610501565b6040519061021b608083610501565b6001600160401b0381116104e15760051b60200190565b9080601f8301121561020a57813561059c8161056e565b926105aa6040519485610501565b81845260208085019260051b82010192831161020a57602001905b8282106105d25750505090565b6020809183356105e1816101f9565b8152019101906105c5565b602036600319011261020a576004356001600160401b03811161020a57610617903690600401610585565b5f80516020614a058339815191525c6001600160a01b03166103b457335f80516020614a058339815191525d61064b612b97565b60648151116107735761065e81516121c2565b5f5b8251811015610741576001906106aa33600561069461068f610682868a612208565b516001600160a01b031690565b610f7e565b019060018060a01b03165f5260205260405f2090565b546106b58285612208565b5260026106c28285612208565b5110156106dc575f6106d48285612208565b525b01610660565b6106ef6106e98285612208565b51612221565b6106f98285612208565b5261071961071333600561069461068f610682878b612208565b60019055565b61073c6107296106828387612208565b6107338386612208565b519033906131d8565b6106d6565b507f477bb716eacccc001de50dcdd6e25241283d080e6afb27443908b20f4e738b5e9161038b6040519283928361222f565b63d1b5191160e01b5f52600b60045260245ffd5b3461020a57602036600319011261020a576004356107a4816101f9565b6004546001600160a01b031633036107fd576001600160a01b0381165f908152600360205260409081902080546002179081905590515f805160206149c583398151915292909182916107f8919083612289565b0390a1005b63d1b5191160e01b5f52600160045260245ffd5b60e036600319011261020a57600435610829816101f9565b602435610835816101f9565b604435916108428361021d565b606435608435801515810361020a5761085961020e565b9160c435956001600160401b03871161020a5761087d61088597369060040161022e565b9690956122a4565b604080516001600160801b039384168152919092166020820152f35b3461020a57606036600319011261020a576104ae6109046004356108c4816101f9565b6024356108d0816101f9565b6044356001600160a01b039283165f908152600160205260408082206002908101549490951682529020909201549061358e565b60405190151581529081906020820190565b602036600319011261020a5760043561092e816101f9565b610936612b97565b6005546001600160a01b0316330361020a576109e69060018060a01b0381165f5260016020526109c5610995610989610976600460405f20015460801c90565b600461098186610f7e565b0154906125fc565b6001600160801b031690565b5f60046109a185610f7e565b01556109bf60026109b185610f7e565b01546001600160801b031690565b90612615565b905f60026109d283610f7e565b01556005546001600160a01b0316906131d8565b61039e612bf4565b5f91031261020a57565b3461020a575f36600319011261020a576004546040516001600160a01b039091168152602090f35b3461020a57602036600319011261020a57600435610a3c612198565b505f5260026020526104ae60405f20600460405191610a5a836104c6565b60018060a01b03815416835260018060a01b0360018201541660208401526002810154604084015260038101546060840152015460808201526040519182918291909160808060a083019460018060a01b03815116845260018060a01b03602082015116602085015260408101516040850152606081015160608501520151910152565b3461020a575f36600319011261020a5760205f54604051908152f35b3461020a57604036600319011261020a57600435610b17816101f9565b602435610b23816101f9565b335f526003602052600260405f20541615610b9d577f42e3c955499470d3dc1078d90519d90691c504c8856ea058daf2c1436c2dab4c9160018060a01b0381165f526001602052610b7a82600160405f2001612622565b604080516001600160a01b039283168152929091166020830152819081016107f8565b63d1b5191160e01b5f52600260045260245ffd5b3461020a57602036600319011261020a57600480549035906001600160a01b031633036107fd576020817fbd209961024f2694b0afb3c8badd20b6477abb77b336b16892c3fa4b906d323c925f55604051908152a160405160018152602090f35b608036600319011261020a57600435610c2a816101f9565b604435906024356064356001600160401b03811161020a57610c5090369060040161022e565b600454919290916001600160a01b031633036107fd57610c6e612b97565b600160ff1b851615610c7f565b1590565b610dbb577f8f2eb922ee1b2f92e0051f7949a8c191264807725a1e435e91abebd28583830a946001600160801b03821693610da493610cc091863389612c6c565b610cd38183610cce88610f7e565b6135ee565b610ce4610cdf86610f7e565b613613565b610d63610d0f610cf2610531565b3381526001600160a01b03881660208201525f604082015261364a565b94610d3c610d25875f52600260205260405f2090565b918560801c9289610d368560801b90565b91613690565b337f0000000000000000000000000000000000000000000000000000000000000000613742565b604080519586526001600160a01b0390961660208601526001600160801b0316948401949094526060830193909352608082019290925290819060a0820190565b0390a1610daf612bf4565b60405160018152602090f35b63d1b5191160e01b5f526004805260245ffd5b3461020a57608036600319011261020a57600435610deb816101f9565b60243590610df8826101f9565b604435916064356001600160401b03811161020a57610e1b90369060040161022e565b90939060016001600160a01b03841614610f6a57610e39308461393b565b808311610f5857506020610e9b91610e6584610e5487610f7e565b5490603f6127109260df1c16020490565b6001600160a01b0390961696610e7c8589886131d8565b6040516323e30c8b60e01b8152938492839289888a3360048801612650565b03815f895af18015610f53577f439148f0bbc682ca079e46d6e2c2f0c1e3b820f1a291b069d8882abf8cf18dd9915f91610f24575b5003610f09579061068f610daf94610ef161098961098987610efa97612615565b903090846137ba565b6004019081549060801b019055565b62678c5b60e81b5f526001600160a01b03841660045260245ffd5b610f46915060203d602011610f4c575b610f3e8183610501565b810190612641565b5f610ed0565b503d610f34565b6125f1565b63fd9a760960e01b5f5260045260245ffd5b63d1b5191160e01b5f52601d60045260245ffd5b6001600160a01b03165f90815260016020526040902090565b3461020a57602036600319011261020a57600435610fb4816101f9565b60018060a01b03165f526003602052602060405f2054604051908152f35b60c036600319011261020a57600435610fea816101f9565b60443590602435610ffa836101f9565b606435916084356001600160401b03811161020a5761101d90369060040161022e565b9060a435946001600160401b03861161020a576104ae9661104561090497369060040161022e565b9690956126a0565b3461020a57602036600319011261020a57602061107660043561106f816101f9565b309061393b565b604051908152f35b3461020a57602036600319011261020a5760043561109b816101f9565b335f526003602052600260405f20541615610b9d576001600160a01b0381165f90815260036020526040908190208054600119169081905590515f805160206149c583398151915292909182916110f3919083612289565b0390a160405160018152602090f35b90602080835192838152019201905f5b81811061111f5750505090565b8251845260209384019390920191600101611112565b906020611146928181520190611102565b90565b3461020a57604036600319011261020a576004356001600160401b03811161020a57611179903690600401610585565b60243590611186826101f9565b6064815110156111ff5761119a81516121c2565b915f5b82518110156111f1576001906001600160a01b036111bb8286612208565b51165f908152602083815260408083206001600160a01b03871684526005019091529020546111ea8287612208565b520161119d565b604051806104ae8682611135565b63d1b5191160e01b5f52600b60045260245ffd5b3461020a57602036600319011261020a57600435611230816101f9565b60045490336001600160a01b038316036107fd576001600160a01b03166001600160a01b03199190911681176004556040519081527fa8d3850ce581f2add46670c1408b76ca1d0d4ef627eed4a89802ff670940082d90602090a1005b3461020a57604036600319011261020a576004356112aa816101f9565b6024356001600160a01b038281165f8181526001602081905260409091200154909391163303611319577f075a13b9dbfb2e30d678551b8c2a4f9ede7468ca5273fa902a41d0e577566669925f52600160205261130a8260405f206139a5565b6110f360405192839283612289565b63d1b5191160e01b5f52600a60045260245ffd5b604036600319011261020a57600435602435611348816101f9565b5f80516020614a058339815191525c6001600160a01b03166103b457335f80516020614a058339815191525d61137c612b97565b816113fe6113a2611395835f52600260205260405f2090565b546001600160a01b031690565b6113f96113ca60016113bc865f52600260205260405f2090565b01546001600160a01b031690565b6113e96113d5610531565b338152936001600160a01b03166020850152565b6001600160a01b03166040830152565b61364a565b0361166f5761141a60016113bc845f52600260205260405f2090565b91611430611395825f52600260205260405f2090565b6040805163b88e6d6360e01b81523360048201529491939190856024816001600160a01b037f0000000000000000000000000000000000000000000000000000000000000000165afa918215610f53576104ae957f1129f35303e34d7efabdbd85614ed662beb4fc6942852b7a3e5a4f92074cbf319361154c925f925f9261163b575b506001600160a01b0381165f9081526003602052604090206114d9905b54600116151590565b15611635575081905b6001600160a01b03828116908216036116305750815b6001600160a01b0381165f908152600360205260409020611518906114d0565b15611629575b61152788610f7e565b9161153186610f7e565b611543895f52600260205260405f2090565b905f54946139c5565b9361155c33600561069484610f7e565b5460028111611603575b506001600160a01b0382166115b9575b604080516001600160a01b0392831681529290911660208301528101849052606090a26115a1612bf4565b6115a9612b85565b6040519081529081906020820190565b6115c833600561069485610f7e565b54600281116115d8575b50611576565b6115f66115fd916115f161071333600561069489610f7e565b612221565b33846131d8565b5f6115d2565b61161c611623916115f161071333600561069488610f7e565b33836131d8565b5f611566565b508161151e565b6114f8565b906114e2565b909250611660915060403d604011611668575b6116588183610501565b8101906129e2565b90915f6114b3565b503d61164e565b63d1b5191160e01b5f52600960045260245ffd5b805180835260209291819084018484015e5f828201840152601f01601f1916010190565b602081016020825282518091526040820191602060408360051b8301019401925f915b8383106116d957505050505090565b90919293946020806116f7600193603f198682030187528951611683565b970193019301919392906116ca565b602036600319011261020a576004356001600160401b03811161020a573660238201121561020a578060040135906001600160401b03821161020a573660248360051b8301011161020a576104ae9160246117619201612a07565b604051918291826116a7565b3461020a57602036600319011261020a5760043561178a816101f9565b335f526003602052600260405f20541615610b9d576001600160a01b0381165f908152600360205260409081902080546001179081905590515f805160206149c583398151915292909182916110f3919083612289565b3461020a57604036600319011261020a576004356117fe816101f9565b602435335f526003602052600260405f20541615610b9d577fe40cf68f61d9a4e510244481f5aa34ba68de31cf3f9aa360604d688115d640c89160018060a01b0381165f52600160205261130a8260405f20613630565b3461020a575f36600319011261020a576004546001600160a01b0316330361188957600580546001600160a01b0319169055005b63d1b5191160e01b5f52600e60045260245ffd5b3461020a57602036600319011261020a576004356118ba816101f9565b6004546001600160a01b031633036107fd576001600160a01b0381165f90815260036020526040908190208054600219169081905590515f805160206149c583398151915292909182916107f8919083612289565b3461020a57604036600319011261020a576020611076600435611931816101f9565b6001600160a01b03165f90815260018352604090205461271060df9190911c603f16602435020490565b606036600319011261020a576004356024356119768161021d565b60443590611983826101f9565b5f80516020614a058339815191525c6001600160a01b03166103b457335f80516020614a058339815191525d6119b7612b97565b826119d06113a2611395835f52600260205260405f2090565b03611d3e576119dd612b57565b506119e6612b57565b506119fc611395845f52600260205260405f2090565b611a1360016113bc865f52600260205260405f2090565b6040805163b88e6d6360e01b8152336004820152949193917f000000000000000000000000000000000000000000000000000000000000000091866024816001600160a01b0386165afa958615610f5357611b8a611c7694868a89611b85611bc5967f63741ac8918076a6393e6e12659431a4927b53e16190a6b00af6a06697d868b89d611bbf995f925f92611d1a575b506001600160a01b0381165f908152600360205260409020611ac5906114d0565b15611d1257905b6001600160a01b0382811690821603611d0d5750815b6001600160a01b0381165f908152600360205260409020611b02906114d0565b15611cf957611b2f611b20611b1a611b709399610f7e565b96610f7e565b965f52600260205260405f2090565b96611b605f5493611b50611b41610522565b6001600160801b03909c168c52565b6001600160a01b031660208b0152565b6001600160a01b03166040890152565b60608701526001600160a01b03166080860152565b613ab0565b8092949195611b9e3360056106948c610f7e565b5460018111611cd2575b506001600160a01b038a16611c89575b3390614024565b60801b90565b6020820151909290611c3790611bfe906001600160801b03165b60408501516001600160801b03165b60018060801b03169060801b1790565b91611bee611c29611c1b611bdf602085015160018060801b031690565b95516001600160801b031690565b91516001600160801b031690565b604080516001600160a01b039788168152979096166020880152948601929092526060850191909152608084015260a0830191909152819060c0820190565b0390a2611c81612bf4565b610daf612b85565b611c983360056106948d610f7e565b548a60018211611caa575b5050611bb8565b611ccb916115f1610713611cc49360056106943392610f7e565b338c6131d8565b5f8a611ca3565b611cec611cf3916115f16107138d60056106943392610f7e565b338b6131d8565b5f611ba8565b50611b70611b2f611b20611b1a8599610f7e565b611ae2565b508190611acc565b909250611d36915060403d604011611668576116588183610501565b90915f611aa4565b63d1b5191160e01b5f52600860045260245ffd5b60a036600319011261020a57600435611d6a816101f9565b602435611d76816101f9565b60443590611d838261021d565b6064356001600160401b03811161020a57611da290369060040161022e565b9390926084356001600160401b03811161020a57611dc490369060040161022e565b90915f80516020614a058339815191525c6001600160a01b03166103b457335f80516020614a058339815191525d611dfa612b97565b611e0261293f565b96611e0b61293f565b966001606d1b6001600160801b03611e2f856002611e288b610f7e565b0154612157565b161080159061212e575b80156120f6575b6120e25782611e5b8a611e6b95611e568a610f7e565b613809565b6001600160801b03163387612c6c565b6001600160a01b03841615918590831561202e575b505050611e8b610531565b3381526001600160a01b03831660208201526001600160a01b0384166040820152611eb59061364a565b94611ec8865f52600260205260405f2090565b6040820180519196909390916001600160801b031690611ee88260801b90565b60208501519091906001600160801b0316606086018051909a9189916001600160801b03166001600160801b031660809190911b1760208701516001600160801b03166060880180519096918d916001600160801b03166001600160801b031660809190911b1793611f59956136d5565b5f14611c29611fd57fee89c9fd704272905456294f1b2b88581ebe0241f72c15b4f3db31d19388f6af9a611bee611c29611fc7611c769b611fe399611bee9861201a57508051611fb590611c29906001600160801b0316610d3c565b60801b6001600160801b039091161790565b99516001600160801b031690565b94516001600160801b031690565b604080516001600160a01b0396871681529690951660208701529385019190915260608401526080830191909152819060a0820190565b611c29612029611fb5926129c2565b610d3c565b6120c86120da9361205960026120438a610f7e565b015460408c01516001600160801b031690614073565b6001600160801b031660608501908152926120ad6120a06120798b610f7e565b54865161208e906001600160801b0316610989565b603f6127109260d91c16820390040290565b6001600160801b03168552565b83516120c1906001600160801b0316610989565b338a612c6c565b6120d4611c2987610f7e565b90613809565b5f8481611e80565b63d1b5191160e01b5f52600760045260245ffd5b5061210f61210387610f7e565b54600160ff1b16151590565b801561211c575b15611e40565b5061212961210388610f7e565b612116565b506001600160a01b0386811690881614611e39565b634e487b7160e01b5f52601160045260245ffd5b6001600160801b03918216908216019190821161217057565b612143565b6001600160a01b0390911681526001600160801b03909116602082015260400190565b604051906121a5826104c6565b5f6080838281528260208201528260408201528260608201520152565b906121cc8261056e565b6121d96040519182610501565b82815280926121ea601f199161056e565b0190602036910137565b634e487b7160e01b5f52603260045260245ffd5b805182101561221c5760209160051b010190565b6121f4565b5f1981019190821161217057565b9291604084019360408152825180955260206060820193015f955b8087106122665750506111469394506020818403910152611102565b81516001600160a01b03168552600196909601956020948501949091019061224a565b6001600160a01b039091168152602081019190915260400190565b94979690939291905f80516020614a058339815191525c6001600160a01b03166103b457335f80516020614a058339815191525d6122e0612b97565b6001600160a01b038916612561575b5f985060026122fd87610f7e565b01549661230987610f7e565b5491600261231688610f7e565b015461232188610f7e565b5461232a610540565b6001600160801b038716815297602089019d8e5261237160408a01985f8a5260608b01975f895260808c019e8f5260a08c015260c08b0194855260e08b019384528a613258565b6001600160801b03871680159190821561252f575b508115612519575b81156124ea575b506124d657519b516001600160801b03169b6001600160801b038d1661271060cc9290921c607f1602049b8c6123ca916125fc565b996123d48a610f7e565b905187516001600160801b0316906123eb9261355d565b8b6123f589610f7e565b91516124009261355d565b85516001600160801b031661241590856125fc565b6001600160801b031661242a9290338a612c6c565b61243e6001600160801b03881633876131d8565b516001600160801b031692516001600160801b031661245c916125fc565b9051604080513381526001600160801b039485166020820152608093841b928516929092179082015291871685821b1760608301526001600160a01b0392831693909216917fe9174eb0d60b5dfcb132e979d11319f32d4a3ebdbf5abbb9600950c1cf8fab5b91a36124cc612bf4565b919061021b612b85565b63d1b5191160e01b5f52600660045260245ffd5b60019150151514806124fd575b5f612395565b508751612512906001600160801b0316610989565b15156124f7565b6001600160a01b038c8116908c1614915061238e565b8a519192509061255890610989906001600160801b03168b516001600160801b03165b90612157565b1015905f612386565b7f00000000000000000000000000000000000000000000000000000000000000006001600160a01b0316803b1561020a576040516376549e6760e11b81523360048201526001600160a01b039a909a1660248b01525f908a90604490829084905af1988915610f53575f996125d7575b506122ef565b806125e58b6125eb93610501565b806109ee565b5f6125d1565b6040513d5f823e3d90fd5b6001600160801b03918216908216039190821161217057565b9190820180921161217057565b80546001600160a01b0319166001600160a01b03909216919091179055565b9081602091031261020a575190565b6001600160a01b039182168152911660208201526040810191909152606081019190915260a060808201819052810183905260c09290918190848401375f828201840152601f01601f1916010190565b9691959293909291905f80516020614a058339815191525c6001600160a01b03166103b457335f80516020614a058339815191525d6126dd612b97565b6001600160a01b036126f360016113bc8a610f7e565b161580159061292a575b61291657608084901c956127139187338a612c6c565b612728916001600160801b0384163389612c6c565b61273061293f565b908161273b87610f7e565b9161274592613809565b61274e84610f7e565b604082018051909190849086906001600160801b031660801b6001600160801b039091161761277c926135ee565b612784610531565b3381526001600160a01b03861660208201526001600160a01b03871660408201526127ae9061364a565b815160208401516060850180519397909390926001600160801b0319608091821b81169390911b166001600160801b0391909116176127eb610522565b6001600160a01b038a168152916001600160a01b038b16602084015260408301528260608301526080820152612829875f52600260205260405f2090565b9061283391612973565b82516001600160801b0316612847906129c2565b61287290337f0000000000000000000000000000000000000000000000000000000000000000613742565b925193519151604080519788526001600160a01b039889166020890152989097169786019790975260608501939093526001600160801b0390811660808581019190915295861b9181169190911760a08401526001600160801b03199190941b16919092161760c08201527f3fc0293a5a7bc73de220f0814bbbebc31e77ffcd41bf5e8be187471747bd7caa9060e090a161290b612bf4565b60019061021b612b85565b63d1b5191160e01b5f52600560045260245ffd5b5061293a610c7b6121038a610f7e565b6126fd565b60405190608082018281106001600160401b038211176104e1576040525f6060838281528260208201528260408201520152565b90608060049161298c60018060a01b0382511685612622565b60208101516129a7906001600160a01b031660018601612622565b60408101516002850155606081015160038501550151910155565b60011b6002600160801b03811691906002600160811b0316820361217057565b919082604091031261020a57602082516129fb816101f9565b920151611146816101f9565b612a0f612b97565b612a188261056e565b91612a266040519384610501565b808352601f19612a358261056e565b015f5b818110612aae5750505f5b818110612a56575050509061021b612bf4565b5f80612a63838587612abf565b90612a7360405180938193612b00565b0390305af4612a80612b28565b9015612aa65790600191612a948287612208565b52612a9f8186612208565b5001612a43565b602081519101fd5b806060602080938801015201612a38565b919081101561221c5760051b81013590601e198136030182121561020a5701908135916001600160401b03831161020a57602001823603811361020a579190565b908092918237015f815290565b6001600160401b0381116104e157601f01601f191660200190565b3d15612b52573d90612b3982612b0d565b91612b476040519384610501565b82523d5f602084013e565b606090565b60405190606082018281106001600160401b038211176104e1576040525f6040838281528260208201520152565b5f5f80516020614a058339815191525d565b5f805160206149e58339815191525c15612bcf575b60015f805160206149e58339815191525c015f805160206149e58339815191525d565b345f80516020614a258339815191525d5f5f805160206149e58339815191525d612bac565b5f195f805160206149e58339815191525c015f805160206149e58339815191525d5f805160206149e58339815191525c15612c2b57565b5f8080805f80516020614a258339815191525c815f80516020614a258339815191525d335af115612c5857565b63d1b5191160e01b5f52601d60045260245ffd5b90936001600160801b03909216929091612c89919081019061409d565b6001600160a01b0382169060018203612ca95750505061021b915061497a565b60ff612cb6825160ff1690565b1660018103612ccd5750505061021b9230916137ba565b60028103612ea257506020612ced910151602080825183010191016142c0565b73898118e029aa17ed4763f432c1bdc1085d166cde8203612e1c57604051623f675f60e91b81526001600160a01b038616600482015291602090839060249082905afa908115610f5357612dd45f939284938491612dfd575b50612dc6602084015193612d5e604082015160ff1690565b60608201516080909201516040516323f2ebc360e21b60208201526001600160a01b038d16602482015230604482015260648101959095526084850196909652600160a485015260ff1660c484015260e4830152610104820193909352918290610124820190565b03601f198101835282610501565b60208151910182855af115612dee5761021b9230916137ba565b63203aa5b560e11b5f5260045ffd5b612e16915060203d602011610f4c57610f3e8183610501565b5f612d46565b5f915080612e9d839251612dc6602084015193612e3d604082015160ff1690565b606082015160809092015160405163d505accf60e01b60208201526001600160a01b038d1660248201523060448201526064810195909552608485019690965260ff1660a484015260c483015260e4820193909352918290610104820190565b612dd4565b9294939290915060038103612f41575050612ebc90614966565b73419c606ed7dd9e411826a26ce9f146ed5a5f7c343b1561020a57604051631b63c28b60e11b81526001600160a01b0392831660048201523060248201529082166044820152911660648201525f816084818373419c606ed7dd9e411826a26ce9f146ed5a5f7c345af18015610f5357612f335750565b806125e55f61021b93610501565b6004810361309957506020612f619101516020808251830101910161413e565b90613016612f6f8351614966565b92612fc9612f86604083015165ffffffffffff1690565b612fae612f9161055f565b6001600160a01b038a168152966001600160a01b03166020880152565b65ffffffffffff604087015265ffffffffffff166060860152565b6020810151612fd6610531565b9485523060208601526040850152608081015190613010613000606060a084015193015160ff1690565b60f81b6001600160f81b03191690565b916141a9565b9173419c606ed7dd9e411826a26ce9f146ed5a5f7c343b1561020a576040516302b67b5760e41b8152925f918491829161305591908860048501614248565b03818373419c606ed7dd9e411826a26ce9f146ed5a5f7c345af1918215610f5357612ebc92613085575b50614966565b806125e55f61309393610501565b5f61307f565b9293926005146130aa575b50505050565b6130c460206131329201516020808251830101910161413e565b80516130e06130d1610550565b6001600160a01b039096168652565b602085015260408101516020820151906130f8610531565b9586526020860152604085015261310d610550565b308152926020840152608081015190613010613000606060a084015193015160ff1690565b9173419c606ed7dd9e411826a26ce9f146ed5a5f7c343b1561020a5761316e5f93604051958694859463187945bd60e11b8652600486016141d4565b03818373419c606ed7dd9e411826a26ce9f146ed5a5f7c345af18015610f535761319b575b8080806130a4565b806125e55f6131a993610501565b5f613193565b611bee906131c48360801d8260801d0161430f565b926001600160801b0391821691160161430f565b6001600160a01b03811660010361320c5750505f80516020614a258339815191525c015f80516020614a258339815191525d565b60445f808093602095966040519763a9059cbb60e01b84526004526024525af13d15601f3d1160015f5114161716905f6060526040521561324957565b633c9fd93960e21b5f5260045ffd5b60808101918251906132718160c085019384519061358e565b61327b5750505050565b60a08301906132a78251613298610989875160018060801b031690565b607f6127109260c51c16020490565b6001600160801b0316604085019081529081516132ed906132e0906001600160801b031687516001600160801b03166125fc565b6125fc565b6001600160801b03168652565b8451613301906001600160801b0316610989565b151580613549575b156134d557613324835161331e885160801c90565b90614361565b60e086019061333c610989835161331e895160801c90565b6001600160801b03909116106134bc5761335f613449915161331e875160801c90565b875161336b8282614073565b885190916001600160801b0391821691831682111561344e575050875161340091906133b2906133a59083906001600160801b03166125fc565b6001600160801b03168a52565b6133e76133c0848a51614073565b60208b01805190916133da916001600160801b0316612157565b6001600160801b03169052565b8951906001600160801b0316608084901b175b906143a8565b885261342c86516134266134148483614073565b6001600160801b0316608085901b1790565b906143bd565b86525b60608701805190916133da916001600160801b0316612157565b6132ed565b90915061345b925061438a565b613483613469828851614073565b60208901805190916133da916001600160801b0316612157565b8751875161349e91906133fa906001600160801b0316613414565b88526134b286516134266134148483614073565b86525f875261342f565b506134496134d0845161331e895160801c90565b61335f565b50835191945091506134ef906001600160801b0316610989565b9283156130a4576135296133da926133da61351961354097855190607f6127109260c51c16020490565b82516001600160801b03166125fc565b5182516001600160801b0316906125529082613298565b5f8080806130a4565b5061355881875186519061358e565b613309565b600490613577926002820155019182549060801b906131af565b9055565b8181029291811591840414171561217057565b90916135df916135d5906135c26135b26001600160801b038716608084901c61357b565b6001600160801b0385169061357b565b9460801c906001600160801b031661357b565b9060801c9061357b565b10156135ea57600190565b5f90565b909161021b92806002840155600383015560018060e51b031681556001339101612622565b80546001600160e51b0316600160ff1b8101919082106121705755565b60018060e51b038154169160e51b82018092116121705755565b6040805182516001600160a01b0390811660208084019182528501518216838501529390920151909116606080830191909152815261368a608082610501565b51902090565b916136bc600261357794959395600381019660018060801b03885416156136c5575b50019182546131af565b905582546131af565b6136cf9082612622565b5f6136b2565b93613701919293600386019360018060801b0385541615613732575b506136bc600287019182546131af565b90556001600160a01b03811661371657505050565b8161372960049260016135779501612622565b019182546131af565b61373c9087612622565b5f6136f1565b91613767926020925f60405180968195829463067e356d60e21b845260048401612175565b03926001600160a01b03165af1908115610f53575f91613785575090565b90506020813d6020116137b2575b816137a060209383610501565b8101031261020a57516111468161021d565b3d9150613793565b6040516323b872dd60e01b81526001600160a01b03928316600482015292909116602483015260448201929092526020915f9160649183905af13d15601f3d1160015f51141617161561324957565b80549092919061271060d99190911c603f166001600160801b03831602046001600160801b0316825281516001600160801b0316613846916125fc565b6001600160801b03166060820181815260028401805490926138679161438a565b6001600160801b03166040840190815292600485019081549061388a8260801c90565b60039097018054909760801b6001600160801b039091161784516001600160801b03166138b69161438a565b6001600160801b039081166020830181815292516138d49216612157565b90516001600160801b03166001600160801b031660809190911b176138f8916131af565b9055815492516001600160801b031690516001600160801b03166001600160801b031660809190911b17918261392d916131af565b9055815490613577916131af565b6001600160a01b03166001810361395157503190565b6040516370a0823160e01b81526001600160a01b039092166004830152602090829060249082905afa908115610f53575f9161398c575b5090565b611146915060203d602011610f4c57610f3e8183610501565b6307ffffff60e51b8154169160018060e51b031682018092116121705755565b94939092969591966004860195838383888a548d6003870154600160801b6001900316600160801b600190031983161790600301549081613a059161438a565b9060801c613a12916125fc565b9b8c91613a29906001600160801b038416906131af565b9055613a34956143e6565b60048401805460038601549196916001600160801b03166001600160801b031982161760048b01549081613a679161438a565b9060801c613a74916125fc565b9687916001600160801b038316613a8a916131af565b9055613a95956143e6565b6001600160801b031660809190911b17918261021b91614818565b9291939093613abd612b57565b50613ac6612b57565b93613ad5600283015460801c90565b60038301549690613aff9060801b6001600160801b0389161786516001600160801b03169061438a565b948254976002840198895490613b21610989613b1b8460801c90565b8361485f565b6001600160801b038a1611908115613ff5575b50613fe157613c0190613bd1613b87613bc1613b97613b6f613b5a60048c015460801c90565b60038c015460018060801b03169060801b1790565b8851613b92906001600160801b03169485809361438a565b98611fb58160801c90565b61438a565b613bb1613ba2610531565b6001600160801b039098168852565b6001600160801b03166020870152565b6001600160801b03166040850152565b6040830151929a8b93613bf5906001600160801b031660808c901b175b8093614875565b90556003860154614875565b600385015560048401548151613c6491613c57916001600160801b03166020850151613c48906001600160801b031692608083901b6001600160801b038516175b90614875565b60048901556132db8b8a61488a565b6001600160801b03168252565b83546040820151613ca491613c9491613c85906001600160801b0316610989565b603f6127109260d31c16020490565b6001600160801b03166020830152565b80516001600160801b0316916060810194613d396020875194613d2b82860197613cd4895160018060a01b031690565b9760408801976080613cec8a5160018060a01b031690565b91018051909a906001600160a01b03166040870151909390613d24906001600160801b0316888a01516001600160801b0316906125fc565b948a614699565b01516001600160801b031690565b6001600160801b038116613fc3575b505060018601546001600160a01b0316613d65575b505050505050565b909192939497506004840192613d7c845460801c90565b600386018054909791613d9f918b9160801b6001600160801b039091161761438a565b99613dd18a613dcc6004840154611fb56002613dc385613b9285611fb58160801c90565b96015460801c90565b614073565b95613dec613ddd610531565b6001600160801b03909d168d52565b6001600160801b0390911660208c01908152906001600160801b0390961660408c01908152958b8854928c60028b0194855491613e35610989613e2f8560801c90565b8461485f565b6001600160801b039091161190828c8315613f92575b505050613f7e57613f3a613f2a8f94613f0c613f5c9f958f8f80613c85610989613eff94613f569f8f6132db9f90613f489f613f3a9f613eaf90613ef095613ea6613bee6133a597611bee613c579f5160018060801b031690565b90558254614875565b905580548c519091906001600160801b03168b51909190613ee9906001600160801b031693608084901b6001600160801b03861617613c42565b90556125fc565b5492516001600160801b031690565b516001600160801b031690565b966001600160801b038816613f67575b50516001600160801b031690565b965197516001600160a01b031690565b97516001600160a01b031690565b97516001600160801b031690565b95614699565b5f8080808080613d5d565b613f7681546103698a60801b90565b90555f613f1c565b63d1b5191160e01b5f52600f60045260245ffd5b51919250613faf9161098991906001600160801b03165b9361485f565b6001600160801b03909116115f828c613e4b565b613fd7600491610369838501549160801b90565b9101555f80613d48565b63d1b5191160e01b5f52600e60045260245ffd5b8451909150614012906109899084906001600160801b0316613fa9565b6001600160801b03909116115f613b34565b6001600160a01b031691823b1561020a57614058925f9283604051809681958294637bd3ca3560e01b845260048401612175565b03925af18015610f53576140695750565b5f61021b91610501565b61114691608082901c6001600160801b0391821691909216020461430f565b60ff81160361020a57565b60208183031261020a578035906001600160401b03821161020a57019060408282031261020a57604051916140d1836104e6565b80356140dc81614092565b83526020810135906001600160401b03821161020a570181601f8201121561020a5780359061410a82612b0d565b926141186040519485610501565b8284526020838301011161020a57815f9260208093018386013783010152602082015290565b908160c091031261020a576040519060c08201908282106001600160401b038311176104e15760a091604052805183526020810151602084015260408101516040840152606081015161419081614092565b606084015260808101516080840152015160a082015290565b929190604051936020850152604084015260ff60f81b1660608301526041825261021b606183610501565b909261422c61010093604061114697966142018682516020809160018060a01b0381511684520151910152565b60208181015187840152910151606086015281516001600160a01b03166080860152015160a0840152565b6001600160a01b031660c082015260e081018290520190611683565b604061114694936101009360018060a01b0316835265ffffffffffff6060825160018060a01b03815116602087015260018060a01b036020820151168587015282858201511682870152015116608084015260018060a01b0360208201511660a0840152015160c08201528160e08201520190611683565b908160a091031261020a576080604051916142da836104c6565b805183526020810151602084015260408101516142f681614092565b6040840152606081015160608401520151608082015290565b6001600160801b038111614329576001600160801b031690565b505f90565b6001600160801b0390911690811561434d576001600160801b03160490565b634e487b7160e01b5f52601260045260245ffd5b60bb1c6103ff16801561398857600a0260018060801b038116908103612170576111469161432e565b611146916001600160801b0380831660809390931c9116020461430f565b611bee906131c48360801d8260801d0361430f565b611bee906143d28360801d8260801d0161430f565b926001600160801b0390811691160361430f565b9390929161440a606460dd83901c601f166001600160801b038716020480956125fc565b6001600160801b03811693909190606460fa83901c86020491606460f482901c603f168702049489614461606460ee85901c603f168a020498606460e886901c603f168202045b9490603f60649260e21c16020490565b976001600160a01b03831690816145435750505050506144815f83612157565b335f9081526005909801602081905260409098206001600160801b03919091168154906144ad91612615565b90556144b98585612157565b6001600160801b0316906144dd90889060018060a01b03165f5260205260405f2090565b908154906144ea91612615565b90556144f5916125fc565b906144ff916125fc565b90614509916125fc565b9061451391612157565b6001600160801b031691614536919060018060a01b03165f5260205260405f2090565b9081549061357791612615565b61030c9750918b93916146479b95936109899b98975f9b61465a9f600161457191015460018060a01b031690565b6001600160a01b039586169581168614158e14614688576001600160a01b03165f90815260058901602052604090206145b8905b805490926001600160801b031690612615565b90555b6001600160a01b0381168414158c14614677576001600160a01b03165f90815260058701602052604090206145ef906145a5565b90555b1415881461465d576001600160a01b03165f90815260058084016020526040909120614640936145a59390916146259085565b90555b019a8b9060018060a01b03165f5260205260405f2090565b9055612157565b335f908152602093909352604090922090565b55565b5060056146716145a5926146409495612157565b93614628565b506146829196612157565b946145f2565b506146939198612157565b966145bb565b94959093909290916146c1606460dd83901c601f166001600160801b038816020480966125fc565b6001600160801b03811694909290606460fa84901c87020492606460f482901c603f16880204958a61470c606460ee85901c603f168b020499606460e886901c603f16820204614451565b986001600160a01b038316908161472c5750505050506144819083612157565b61030c9850908c949392916109899b98976146479d979b61465a9f600161475a91015460018060a01b031690565b6001600160a01b039586169581168614614807576001600160a01b03165f908152600589016020526040902061478f906145a5565b90555b6001600160a01b03811684146147f6576001600160a01b03165f90815260058701602052604090206147c3906145a5565b90555b1461465d576001600160a01b03165f90815260058084016020526040909120614640936145a59390916146259085565b506148019196612157565b946147c6565b506148129198612157565b96614792565b600381018054614833906001600160801b03198516906131af565b905560018101546001600160a01b031661484b575050565b600461357791019182549060801b906131af565b60b11c6103ff168015613988576111469161432e565b611bee906143d28360801d8260801d0361430f565b90613577906003830161490e6148dd8254956148a68760801c90565b906148ee6002820198611bee6148bd8b5460801c90565b6001600160801b03908116968a821696889288929116820283900461430f565b936001600160801b0316020461430f565b60018201549093906001600160a01b031661491b575b5050508254614875565b905582549060801b613c42565b613c42600461495c930193611bee85549361494a818460018060801b036149428960801c90565b16020461430f565b926001600160801b038616020461430f565b90555f8080614904565b6001600160a01b0381169081036143295790565b5f80516020614a258339815191525c81116149b0575f80516020614a258339815191525c035f80516020614a258339815191525d565b63d1b5191160e01b5f52601c60045260245ffdfe5d72191643a9d630c58937d62f5e056dcfa8dbf1aced1cb2f655ee1d7ecaf57787b52c29898e62efc1f9a9b00a26dcbdaee98d728c56841703077b7c0d20dee7e2afc7ec4dbb9bfdb1b8e8bcf21a055747c25bf2faaea9cb5a134005381f4843cbe27d488af5b5c1b0bd8d89be6fdfeaed3ad42719044fd9b728f33df1d6f1d1a26469706673582212206b9447b977facda43c07a64fd2f2f98acb7d9849695fc4ebf1553e44aa0f82ec64736f6c634300081a0033","linkReferences":{}},"methodIdentifiers":{"addbanlist(address)":"b153b920","buyGood(address,address,uint128,uint256,bool,address,bytes)":"13a124c3","changeGoodOwner(address,address)":"41e12373","changemarketcreator(address)":"a06ad0e8","collectCommission(address[])":"0d2700ab","collectProof(uint256,address)":"a676a600","disinvestProof(uint256,uint128,address)":"f4662f20","flashFee(address,uint256)":"d9d98ce4","flashLoan(address,address,uint256,bytes)":"5cffe9de","getGoodState(address)":"08238466","getProofState(uint256)":"3f117740","goodWelfare(address,uint128,bytes)":"06cf4e7f","initGood(address,uint256,address,uint256,bytes,bytes)":"5f755d65","initMetaGood(address,uint256,uint256,bytes)":"51ff9a16","investGood(address,address,uint128,bytes,bytes)":"f878e809","ishigher(address,address,uint256)":"1412723a","marketconfig()":"402f5ab5","marketcreator()":"3d995173","maxFlashLoan(address)":"613255ab","modifyGoodConfig(address,uint256)":"b1efb921","multicall(bytes[])":"ac9650d8","queryCommission(address[],address)":"9b222794","removeMarketor(address)":"cc00da2d","removeSecurityKeeper()":"c9544f18","removebanlist(address)":"9551177a","securityKeeper(address)":"3c9fe544","setMarketConfig(uint256)":"45818e4c","setMarketor(address)":"102e5c27","updateGoodConfig(address,uint256)":"a3b74a49","userConfig(address)":"5f35b0b3"},"id":46}