{"abi":[{"type":"constructor","inputs":[{"name":"_marketconfig","type":"uint256","internalType":"uint256"},{"name":"_officialTokenContract","type":"address","internalType":"address"},{"name":"_officialNFTContract","type":"address","internalType":"address"},{"name":"_officelimitorder","type":"address","internalType":"address"},{"name":"_marketcreator","type":"address","internalType":"address"}],"stateMutability":"nonpayable"},{"type":"function","name":"addauths","inputs":[{"name":"_newmarketor","type":"address","internalType":"address"},{"name":"_auths","type":"uint256","internalType":"uint256"}],"outputs":[],"stateMutability":"nonpayable"},{"type":"function","name":"addbanlist","inputs":[{"name":"_user","type":"address","internalType":"address"}],"outputs":[{"name":"","type":"bool","internalType":"bool"}],"stateMutability":"nonpayable"},{"type":"function","name":"banlist","inputs":[{"name":"","type":"address","internalType":"address"}],"outputs":[{"name":"","type":"uint256","internalType":"uint256"}],"stateMutability":"view"},{"type":"function","name":"batchTakelimitOrder","inputs":[{"name":"_inputData","type":"bytes[]","internalType":"bytes[]"},{"name":"_tolerance","type":"uint96","internalType":"uint96"},{"name":"_takecaller","type":"address","internalType":"address"}],"outputs":[{"name":"result","type":"bool[]","internalType":"bool[]"}],"stateMutability":"payable"},{"type":"function","name":"buyGood","inputs":[{"name":"_goodid1","type":"address","internalType":"address"},{"name":"_goodid2","type":"address","internalType":"address"},{"name":"_swapQuantity","type":"uint128","internalType":"uint128"},{"name":"_limitPrice","type":"uint256","internalType":"uint256"},{"name":"_istotal","type":"bool","internalType":"bool"},{"name":"_referal","type":"address","internalType":"address"}],"outputs":[{"name":"goodid2Quantity_","type":"uint128","internalType":"uint128"},{"name":"goodid2FeeQuantity_","type":"uint128","internalType":"uint128"}],"stateMutability":"payable"},{"type":"function","name":"buyGoodForPay","inputs":[{"name":"_goodid1","type":"address","internalType":"address"},{"name":"_goodid2","type":"address","internalType":"address"},{"name":"_swapQuantity","type":"uint128","internalType":"uint128"},{"name":"_limitPrice","type":"uint256","internalType":"uint256"},{"name":"_recipient","type":"address","internalType":"address"}],"outputs":[{"name":"goodid1Quantity_","type":"uint128","internalType":"uint128"},{"name":"goodid1FeeQuantity_","type":"uint128","internalType":"uint128"}],"stateMutability":"payable"},{"type":"function","name":"changeGoodOwner","inputs":[{"name":"_goodid","type":"address","internalType":"address"},{"name":"_to","type":"address","internalType":"address"}],"outputs":[],"stateMutability":"nonpayable"},{"type":"function","name":"changemarketor","inputs":[{"name":"_newmarketor","type":"address","internalType":"address"}],"outputs":[],"stateMutability":"nonpayable"},{"type":"function","name":"collectCommission","inputs":[{"name":"_goodid","type":"address[]","internalType":"address[]"}],"outputs":[],"stateMutability":"nonpayable"},{"type":"function","name":"collectProof","inputs":[{"name":"_proofid","type":"uint256","internalType":"uint256"},{"name":"_gater","type":"address","internalType":"address"}],"outputs":[{"name":"profit_","type":"uint256","internalType":"uint256"}],"stateMutability":"nonpayable"},{"type":"function","name":"delproofdata","inputs":[{"name":"proofid","type":"uint256","internalType":"uint256"},{"name":"from","type":"address","internalType":"address"},{"name":"to","type":"address","internalType":"address"}],"outputs":[],"stateMutability":"nonpayable"},{"type":"function","name":"disinvestProof","inputs":[{"name":"_proofid","type":"uint256","internalType":"uint256"},{"name":"_goodQuantity","type":"uint128","internalType":"uint128"},{"name":"_gater","type":"address","internalType":"address"}],"outputs":[{"name":"","type":"bool","internalType":"bool"}],"stateMutability":"nonpayable"},{"type":"function","name":"flashFee","inputs":[{"name":"token","type":"address","internalType":"address"},{"name":"amount","type":"uint256","internalType":"uint256"}],"outputs":[{"name":"","type":"uint256","internalType":"uint256"}],"stateMutability":"view"},{"type":"function","name":"flashLoan","inputs":[{"name":"receiver","type":"address","internalType":"contract IERC3156FlashBorrower"},{"name":"token","type":"address","internalType":"address"},{"name":"amount","type":"uint256","internalType":"uint256"},{"name":"data","type":"bytes","internalType":"bytes"}],"outputs":[{"name":"","type":"bool","internalType":"bool"}],"stateMutability":"nonpayable"},{"type":"function","name":"getGoodState","inputs":[{"name":"goodkey","type":"address","internalType":"address"}],"outputs":[{"name":"","type":"tuple","internalType":"struct S_GoodTmpState","components":[{"name":"goodConfig","type":"uint256","internalType":"uint256"},{"name":"owner","type":"address","internalType":"address"},{"name":"currentState","type":"uint256","internalType":"uint256"},{"name":"investState","type":"uint256","internalType":"uint256"},{"name":"feeQuantityState","type":"uint256","internalType":"uint256"}]}],"stateMutability":"view"},{"type":"function","name":"getProofState","inputs":[{"name":"proofid","type":"uint256","internalType":"uint256"}],"outputs":[{"name":"","type":"tuple","internalType":"struct S_ProofState","components":[{"name":"currentgood","type":"address","internalType":"address"},{"name":"valuegood","type":"address","internalType":"address"},{"name":"state","type":"uint256","internalType":"uint256"},{"name":"invest","type":"uint256","internalType":"uint256"},{"name":"valueinvest","type":"uint256","internalType":"uint256"}]}],"stateMutability":"view"},{"type":"function","name":"goodWelfare","inputs":[{"name":"goodid","type":"address","internalType":"address"},{"name":"welfare","type":"uint128","internalType":"uint128"}],"outputs":[],"stateMutability":"payable"},{"type":"function","name":"initGood","inputs":[{"name":"_valuegood","type":"address","internalType":"address"},{"name":"_initial","type":"uint256","internalType":"uint256"},{"name":"_erc20address","type":"address","internalType":"address"},{"name":"_goodConfig","type":"uint256","internalType":"uint256"}],"outputs":[{"name":"","type":"bool","internalType":"bool"}],"stateMutability":"payable"},{"type":"function","name":"initMetaGood","inputs":[{"name":"_erc20address","type":"address","internalType":"address"},{"name":"_initial","type":"uint256","internalType":"uint256"},{"name":"_goodConfig","type":"uint256","internalType":"uint256"}],"outputs":[{"name":"","type":"bool","internalType":"bool"}],"stateMutability":"payable"},{"type":"function","name":"investGood","inputs":[{"name":"_togood","type":"address","internalType":"address"},{"name":"_valuegood","type":"address","internalType":"address"},{"name":"_quantity","type":"uint128","internalType":"uint128"}],"outputs":[{"name":"","type":"bool","internalType":"bool"}],"stateMutability":"payable"},{"type":"function","name":"ishigher","inputs":[{"name":"goodid","type":"address","internalType":"address"},{"name":"valuegood","type":"address","internalType":"address"},{"name":"compareprice","type":"uint256","internalType":"uint256"}],"outputs":[{"name":"","type":"bool","internalType":"bool"}],"stateMutability":"view"},{"type":"function","name":"loanproofs","inputs":[{"name":"","type":"address","internalType":"address"},{"name":"","type":"address","internalType":"address"}],"outputs":[{"name":"","type":"uint256","internalType":"uint256"}],"stateMutability":"view"},{"type":"function","name":"marketconfig","inputs":[],"outputs":[{"name":"","type":"uint256","internalType":"uint256"}],"stateMutability":"view"},{"type":"function","name":"marketcreator","inputs":[],"outputs":[{"name":"","type":"address","internalType":"address"}],"stateMutability":"view"},{"type":"function","name":"maxFlashLoan","inputs":[{"name":"good","type":"address","internalType":"address"}],"outputs":[{"name":"","type":"uint256","internalType":"uint256"}],"stateMutability":"view"},{"type":"function","name":"modifyGoodConfig","inputs":[{"name":"_goodid","type":"address","internalType":"address"},{"name":"_goodConfig","type":"uint256","internalType":"uint256"}],"outputs":[{"name":"","type":"bool","internalType":"bool"}],"stateMutability":"nonpayable"},{"type":"function","name":"payGood","inputs":[{"name":"_goodid","type":"address","internalType":"address"},{"name":"_payquanity","type":"uint256","internalType":"uint256"},{"name":"_recipent","type":"address","internalType":"address"}],"outputs":[{"name":"","type":"bool","internalType":"bool"}],"stateMutability":"payable"},{"type":"function","name":"proofmapping","inputs":[{"name":"proofkey","type":"uint256","internalType":"uint256"}],"outputs":[{"name":"proofid","type":"uint256","internalType":"uint256"}],"stateMutability":"view"},{"type":"function","name":"queryCommission","inputs":[{"name":"_goodid","type":"address[]","internalType":"address[]"},{"name":"_recipent","type":"address","internalType":"address"}],"outputs":[{"name":"","type":"uint256[]","internalType":"uint256[]"}],"stateMutability":"view"},{"type":"function","name":"removeauths","inputs":[{"name":"_newmarketor","type":"address","internalType":"address"}],"outputs":[],"stateMutability":"nonpayable"},{"type":"function","name":"removebanlist","inputs":[{"name":"_user","type":"address","internalType":"address"}],"outputs":[{"name":"","type":"bool","internalType":"bool"}],"stateMutability":"nonpayable"},{"type":"function","name":"setMarketConfig","inputs":[{"name":"_marketconfig","type":"uint256","internalType":"uint256"}],"outputs":[{"name":"","type":"bool","internalType":"bool"}],"stateMutability":"nonpayable"},{"type":"function","name":"takeLimitOrder","inputs":[{"name":"_inputData","type":"bytes","internalType":"bytes"},{"name":"_tolerance","type":"uint96","internalType":"uint96"},{"name":"_takecaller","type":"address","internalType":"address"}],"outputs":[{"name":"_isSuccess","type":"bool","internalType":"bool"}],"stateMutability":"payable"},{"type":"function","name":"updateGoodConfig","inputs":[{"name":"_goodid","type":"address","internalType":"address"},{"name":"_goodConfig","type":"uint256","internalType":"uint256"}],"outputs":[{"name":"","type":"bool","internalType":"bool"}],"stateMutability":"nonpayable"},{"type":"event","name":"debuggg","inputs":[{"name":"","type":"bool","indexed":false,"internalType":"bool"},{"name":"","type":"bool","indexed":false,"internalType":"bool"}],"anonymous":false},{"type":"event","name":"e_addbanlist","inputs":[{"name":"_user","type":"address","indexed":false,"internalType":"address"}],"anonymous":false},{"type":"event","name":"e_buyGood","inputs":[{"name":"sellgood","type":"address","indexed":true,"internalType":"address"},{"name":"forgood","type":"address","indexed":true,"internalType":"address"},{"name":"fromer","type":"address","indexed":false,"internalType":"address"},{"name":"swapvalue","type":"uint128","indexed":false,"internalType":"uint128"},{"name":"sellgoodstate","type":"uint256","indexed":false,"internalType":"uint256"},{"name":"forgoodstate","type":"uint256","indexed":false,"internalType":"uint256"}],"anonymous":false},{"type":"event","name":"e_buyGoodForPay","inputs":[{"name":"buygood","type":"address","indexed":true,"internalType":"address"},{"name":"usegood","type":"address","indexed":true,"internalType":"address"},{"name":"fromer","type":"address","indexed":false,"internalType":"address"},{"name":"receipt","type":"address","indexed":false,"internalType":"address"},{"name":"swapvalue","type":"uint128","indexed":false,"internalType":"uint128"},{"name":"buygoodstate","type":"uint256","indexed":false,"internalType":"uint256"},{"name":"usegoodstate","type":"uint256","indexed":false,"internalType":"uint256"}],"anonymous":false},{"type":"event","name":"e_changeOwner","inputs":[{"name":"_goodid","type":"uint256","indexed":true,"internalType":"uint256"},{"name":"_owner","type":"address","indexed":false,"internalType":"address"},{"name":"_to","type":"address","indexed":false,"internalType":"address"}],"anonymous":false},{"type":"event","name":"e_changegoodowner","inputs":[{"name":"goodid","type":"address","indexed":false,"internalType":"address"},{"name":"to","type":"address","indexed":false,"internalType":"address"}],"anonymous":false},{"type":"event","name":"e_collectProof","inputs":[{"name":"_proofNo","type":"uint256","indexed":true,"internalType":"uint256"},{"name":"_normalGoodNo","type":"address","indexed":false,"internalType":"address"},{"name":"_valueGoodNo","type":"address","indexed":false,"internalType":"address"},{"name":"_profit","type":"uint256","indexed":false,"internalType":"uint256"}],"anonymous":false},{"type":"event","name":"e_collectProtocolFee","inputs":[{"name":"goodid","type":"address","indexed":false,"internalType":"address"},{"name":"feeamount","type":"uint256","indexed":false,"internalType":"uint256"}],"anonymous":false},{"type":"event","name":"e_collectcommission","inputs":[{"name":"_gooid","type":"address[]","indexed":false,"internalType":"address[]"},{"name":"_commisionamount","type":"uint256[]","indexed":false,"internalType":"uint256[]"}],"anonymous":false},{"type":"event","name":"e_disinvestProof","inputs":[{"name":"_proofNo","type":"uint256","indexed":true,"internalType":"uint256"},{"name":"_normalGoodNo","type":"address","indexed":false,"internalType":"address"},{"name":"_valueGoodNo","type":"address","indexed":false,"internalType":"address"},{"name":"_value","type":"uint256","indexed":false,"internalType":"uint256"},{"name":"_normalgood","type":"uint256","indexed":false,"internalType":"uint256"},{"name":"_valuegood","type":"uint256","indexed":false,"internalType":"uint256"},{"name":"_profit","type":"uint256","indexed":false,"internalType":"uint256"}],"anonymous":false},{"type":"event","name":"e_enpower","inputs":[{"name":"_goodid","type":"uint256","indexed":false,"internalType":"uint256"},{"name":"_valuegood","type":"uint256","indexed":false,"internalType":"uint256"},{"name":"_quantity","type":"uint256","indexed":false,"internalType":"uint256"}],"anonymous":false},{"type":"event","name":"e_goodWelfare","inputs":[{"name":"goodid","type":"address","indexed":false,"internalType":"address"},{"name":"welfare","type":"uint128","indexed":false,"internalType":"uint128"}],"anonymous":false},{"type":"event","name":"e_initGood","inputs":[{"name":"_proofNo","type":"uint256","indexed":false,"internalType":"uint256"},{"name":"_goodid","type":"address","indexed":false,"internalType":"address"},{"name":"_valuegoodNo","type":"address","indexed":false,"internalType":"address"},{"name":"_goodConfig","type":"uint256","indexed":false,"internalType":"uint256"},{"name":"_construct","type":"uint256","indexed":false,"internalType":"uint256"},{"name":"_normalinitial","type":"uint256","indexed":false,"internalType":"uint256"},{"name":"_value","type":"uint256","indexed":false,"internalType":"uint256"}],"anonymous":false},{"type":"event","name":"e_initMetaGood","inputs":[{"name":"_proofNo","type":"uint256","indexed":false,"internalType":"uint256"},{"name":"_goodid","type":"address","indexed":false,"internalType":"address"},{"name":"_construct","type":"uint256","indexed":false,"internalType":"uint256"},{"name":"_goodConfig","type":"uint256","indexed":false,"internalType":"uint256"},{"name":"_initial","type":"uint256","indexed":false,"internalType":"uint256"}],"anonymous":false},{"type":"event","name":"e_investGood","inputs":[{"name":"_proofNo","type":"uint256","indexed":true,"internalType":"uint256"},{"name":"_normalgoodid","type":"address","indexed":false,"internalType":"address"},{"name":"_valueGoodNo","type":"address","indexed":false,"internalType":"address"},{"name":"_value","type":"uint256","indexed":false,"internalType":"uint256"},{"name":"_invest","type":"uint256","indexed":false,"internalType":"uint256"},{"name":"_valueinvest","type":"uint256","indexed":false,"internalType":"uint256"}],"anonymous":false},{"type":"event","name":"e_modifyGoodConfig","inputs":[{"name":"_goodid","type":"address","indexed":false,"internalType":"address"},{"name":"_goodconfig","type":"uint256","indexed":false,"internalType":"uint256"}],"anonymous":false},{"type":"event","name":"e_removebanlist","inputs":[{"name":"_user","type":"address","indexed":false,"internalType":"address"}],"anonymous":false},{"type":"event","name":"e_setMarketConfig","inputs":[{"name":"_marketconfig","type":"uint256","indexed":false,"internalType":"uint256"}],"anonymous":false},{"type":"event","name":"e_transferdel","inputs":[{"name":"delproofid","type":"uint256","indexed":false,"internalType":"uint256"},{"name":"existsproofid","type":"uint256","indexed":false,"internalType":"uint256"}],"anonymous":false},{"type":"event","name":"e_updateGoodConfig","inputs":[{"name":"_goodid","type":"address","indexed":false,"internalType":"address"},{"name":"_goodConfig","type":"uint256","indexed":false,"internalType":"uint256"}],"anonymous":false},{"type":"error","name":"ERC20TransferFailed","inputs":[]},{"type":"error","name":"ERC3156ExceededMaxLoan","inputs":[{"name":"maxLoan","type":"uint256","internalType":"uint256"}]},{"type":"error","name":"ERC3156InvalidReceiver","inputs":[{"name":"receiver","type":"address","internalType":"address"}]},{"type":"error","name":"ERC3156UnsupportedToken","inputs":[{"name":"token","type":"address","internalType":"address"}]},{"type":"error","name":"NativeTransferFailed","inputs":[]},{"type":"error","name":"noEnoughOutputError","inputs":[]}],"bytecode":{"object":"0x60e060405234801561000f575f80fd5b50604051615b19380380615b1983398101604081905261002e91610085565b6001600160a01b0393841660805291831660a0525f9390935591811660c052600780546001600160a01b031916929091169190911790556100df565b80516001600160a01b0381168114610080575f80fd5b919050565b5f805f805f60a08688031215610099575f80fd5b855194506100a96020870161006a565b93506100b76040870161006a565b92506100c56060870161006a565b91506100d36080870161006a565b90509295509295909350565b60805160a05160c0516159ae61016b5f395f61282701525f81816109fd01528181610f210152818161113801528181611ad101528181611fd7015281816122da0152612afa01525f8181610afb01528181610f610152818161105b0152818161146801528181611c47015281816120750152818161239001528181612be50152612e7f01526159ae5ff3fe60806040526004361061020e575f3560e01c80635dd7e4ae11610117578063a676a600116100ac578063e8a1fa481161007c578063f4970aaa11610062578063f4970aaa146106ab578063f57ca502146106be578063f66d6485146106dd575f80fd5b8063e8a1fa4814610679578063f4662f201461068c575f80fd5b8063a676a600146105fd578063b153b9201461061c578063b1efb9211461063b578063d9d98ce41461065a575f80fd5b80639551177a116100e75780639551177a1461058057806397924ead1461059f5780639b222794146105b2578063a3b74a49146105de575f80fd5b80635dd7e4ae146105105780635e008cc414610523578063613255ab1461054e578063629fa7041461056d575f80fd5b806335d3ec16116101a757806341e123731161017757806346f74c1a1161015d57806346f74c1a1461049f578063542128dd146104d25780635cffe9de146104f1575f80fd5b806341e123731461046157806345818e4c14610480575f80fd5b806335d3ec16146103845780633d995173146103a45780633f117740146103db578063402f5ab51461044d575f80fd5b80631412723a116101e25780631412723a146103085780631faa5a56146103275780632973ada714610346578063328ecd9614610371575f80fd5b80620ce2e0146102125780630475ea8a1461023a578063082384661461027e5780630d2700ab146102e7575b5f80fd5b610225610220366004614f6d565b6106fc565b60405190151581526020015b60405180910390f35b348015610245575f80fd5b50610270610254366004614fb5565b600560209081525f928352604080842090915290825290205481565b604051908152602001610231565b348015610289575f80fd5b5061029d610298366004614fec565b610be3565b60405161023191905f60a082019050825182526001600160a01b03602084015116602083015260408301516040830152606083015160608301526080830151608083015292915050565b3480156102f2575f80fd5b506103066103013660046150d5565b610c76565b005b348015610313575f80fd5b50610225610322366004615107565b610ed9565b348015610332575f80fd5b50610306610341366004615145565b610f16565b348015610351575f80fd5b50610270610360366004614fec565b60046020525f908152604090205481565b61022561037f366004615179565b6111e0565b6103976103923660046151c8565b61122a565b604051610231919061525a565b3480156103af575f80fd5b506007546103c3906001600160a01b031681565b6040516001600160a01b039091168152602001610231565b3480156103e6575f80fd5b506103fa6103f536600461529e565b611297565b60405161023191905f60a0820190506001600160a01b0383511682526001600160a01b03602084015116602083015260408301516040830152606083015160608301526080830151608083015292915050565b348015610458575f80fd5b506102705f5481565b34801561046c575f80fd5b5061030661047b366004614fb5565b61132f565b34801561048b575f80fd5b5061022561049a36600461529e565b6113af565b6104b26104ad3660046152c2565b611408565b604080516001600160801b03938416815292909116602083015201610231565b3480156104dd575f80fd5b506103066104ec366004615337565b611751565b3480156104fc575f80fd5b5061022561050b3660046153a6565b611782565b61022561051e366004615414565b6118e9565b34801561052e575f80fd5b5061027061053d36600461529e565b60026020525f908152604090205481565b348015610559575f80fd5b50610270610568366004614fec565b611d0b565b61030661057b366004615459565b611d25565b34801561058b575f80fd5b5061022561059a366004614fec565b611e56565b6102256105ad366004615485565b611eba565b3480156105bd575f80fd5b506105d16105cc3660046154b7565b61210e565b6040516102319190615535565b3480156105e9575f80fd5b506102256105f8366004615337565b6121fd565b348015610608575f80fd5b50610270610617366004615547565b612293565b348015610627575f80fd5b50610225610636366004614fec565b61261b565b348015610646575f80fd5b50610225610655366004615337565b612681565b348015610665575f80fd5b50610270610674366004615337565b6126fb565b61022561068736600461556a565b612729565b348015610697575f80fd5b506102256106a63660046155b2565b612ab3565b6104b26106b93660046155d6565b612f66565b3480156106c9575f80fd5b506103066106d8366004614fec565b6131d8565b3480156106e8575f80fd5b506103066106f7366004614fec565b613210565b5f6001600160a01b035f805160206159598339815191525c161561071e575f80fd5b6107273361323f565b60408051608080820183525f808352602080840182905283850182905260608085018390528551938401865282845283820183905283860183905283018290526001600160a01b0389811683526001825285832054908916835291859020548551600160ff1b9384161515815292161515908201528351929391927f914f2bec24addb3853a76db2a2fba09a088a1d285b09f88f8789d2edb132a7fc929181900390910190a16001600160a01b0386165f908152600160205260409020600201546d20000000000000000000000000009061080390869061564e565b6001600160801b03161115801561082c5750846001600160a01b0316866001600160a01b031614155b801561087a57506001600160a01b0386165f90815260016020526040902054600160ff1b1615158061087a57506001600160a01b0385165f90815260016020526040902054600160ff1b1615155b610882575f80fd5b6001600160a01b0386165f9081526001602052604090206108a4908584613252565b6108c16001600160a01b038716336001600160801b038716613383565b6001600160a01b0385161561097e576040808301516001600160a01b0387165f908152600160205291909120600201546108fa91613396565b6001600160801b0316606082018190526001600160a01b0386165f9081526001602052604090205460d91c603f16612710908103909104026001600160801b031660608201819052610958906001600160a01b038716903390613383565b60608101516001600160a01b0386165f90815260016020526040902061097e9183613252565b5f6109bd6040518060600160405280336001600160a01b03168152602001896001600160a01b03168152602001886001600160a01b03168152506133c6565b5f81815260026020526040812054919250819003610a6d576109de82613419565b6040516340c10f1960e01b8152336004820152602481018290529091507f00000000000000000000000000000000000000000000000000000000000000006001600160a01b0316906340c10f19906044015f604051808303815f87803b158015610a46575f80fd5b505af1158015610a58573d5f803e3d5ffd5b5050505f838152600260205260409020829055505b6040840151610ac8908990899060801b602088015160608901516001600160801b031660809190911b17602088015160608901516001600160801b031660809190911b175f878152600360205260409020949392919061343c565b5f6001600160a01b03881615610aed576040850151610ae890600261566d565b610af3565b84604001515b90505f610b217f000000000000000000000000000000000000000000000000000000000000000033846134da565b9050827fee89c9fd704272905456294f1b2b88581ebe0241f72c15b4f3db31d19388f6af8b8b610b658a604001518660809190911b6001600160801b039091161790565b8a5160608c01516001600160801b031660809190911b178a5160608c01516001600160801b031660809190911b17604080516001600160a01b039687168152959094166020860152928401919091526060830152608082015260a00160405180910390a260019650505050505050610bdc5f61323f565b9392505050565b610c196040518060a001604052805f81526020015f6001600160a01b031681526020015f81526020015f81526020015f81525090565b506040805160a0810182526001600160a01b039283165f8181526001602081815285832080548652808301549097168186015260028701549585019590955260038601546060850152919052909152600490910154608082015290565b6064815110610c83575f80fd5b5f815167ffffffffffffffff811115610c9e57610c9e615007565b604051908082528060200260200182016040528015610cc7578160200160208202803683370190505b5090505f5b8251811015610e9b5760015f848381518110610cea57610cea615696565b60200260200101516001600160a01b03166001600160a01b031681526020019081526020015f206005015f336001600160a01b03166001600160a01b031681526020019081526020015f2054828281518110610d4857610d48615696565b6020026020010181815250506002828281518110610d6857610d68615696565b60200260200101511015610d9a575f828281518110610d8957610d89615696565b602002602001018181525050610e93565b6001828281518110610dae57610dae615696565b6020026020010151610dc091906156aa565b828281518110610dd257610dd2615696565b6020026020010181815250506001805f858481518110610df457610df4615696565b60200260200101516001600160a01b03166001600160a01b031681526020019081526020015f206005015f336001600160a01b03166001600160a01b031681526020019081526020015f2081905550610e9333838381518110610e5957610e59615696565b6020026020010151858481518110610e7357610e73615696565b60200260200101516001600160a01b03166135559092919063ffffffff16565b600101610ccc565b507f477bb716eacccc001de50dcdd6e25241283d080e6afb27443908b20f4e738b5e8282604051610ecd9291906156bd565b60405180910390a15050565b6001600160a01b038084165f90815260016020526040808220600290810154938616835290822001549091610f0e91846135ea565b949350505050565b336001600160a01b037f00000000000000000000000000000000000000000000000000000000000000001614610f4a575f80fd5b5f83815260036020526040902060020154610f8b907f000000000000000000000000000000000000000000000000000000000000000090849060801c613675565b5f838152600360208181526040808420815160a08101835281546001600160a01b03908116825260018301548116828601908152600284015483860152958301546060808401919091526004909301546080830152835192830184528881168352815181169483019490945293519092169082015290919061100c906133c6565b90505f6110546040518060600160405280866001600160a01b03168152602001855f01516001600160a01b0316815260200185602001516001600160a01b03168152506133c6565b905061108e7f000000000000000000000000000000000000000000000000000000000000000085611089866040015160801c90565b6134da565b505f81815260026020526040812054908190036110bf575f83815260026020526040808220548483529120556111ca565b5f8781526003602052604080822083835291206110db916136df565b5f87815260036020819052604080832080546001600160a01b031990811682556001820180549091169055600281018490559182018390556004918201929092559051630852cd8d60e31b81529081018890526001600160a01b037f000000000000000000000000000000000000000000000000000000000000000016906342966c68906024015f604051808303815f87803b158015611179575f80fd5b505af115801561118b573d5f803e3d5ffd5b5050604080518a8152602081018590527f335d27656e7f9578ae51244b214940ee63a03fbed3788497ee4237a186aad1e4935001905060405180910390a15b50505f9081526002602052604081205550505050565b5f5f196001600160a01b0385160161120b576112066001600160a01b0385168385613555565b611220565b6112206001600160a01b038516338486613731565b5060019392505050565b60605f5b8481101561128e5761126486868381811061124b5761124b615696565b905060200281019061125d9190615713565b8686612729565b82828151811061127657611276615696565b9115156020928302919091019091015260010161122e565b50949350505050565b6112d66040518060a001604052805f6001600160a01b031681526020015f6001600160a01b031681526020015f81526020015f81526020015f81525090565b505f90815260036020818152604092839020835160a08101855281546001600160a01b03908116825260018301541692810192909252600281015493820193909352908201546060820152600490910154608082015290565b335f90815260066020526040902054600114611349575f80fd5b6001600160a01b038281165f8181526001602081815260409283902090910180546001600160a01b031916948616948517905581519283528201929092527f42e3c955499470d3dc1078d90519d90691c504c8856ea058daf2c1436c2dab4c9101610ecd565b6007545f906001600160a01b031633146113c7575f80fd5b5f8290556040518281527fbd209961024f2694b0afb3c8badd20b6477abb77b336b16892c3fa4b906d323c906020015b60405180910390a15060015b919050565b5f806001600160a01b035f805160206159598339815191525c161561142b575f80fd5b6114343361323f565b6001600160a01b038316156114c0576040516376549e6760e11b81523360048201526001600160a01b0384811660248301527f0000000000000000000000000000000000000000000000000000000000000000169063eca93cce906044015f604051808303815f87803b1580156114a9575f80fd5b505af11580156114bb573d5f803e3d5ffd5b505050505b60408051610100810182526001600160801b03881681525f6020808301829052828401829052606083018290526001600160a01b03808d16835260018083528584206002808201546080880152905460a0870152918d168085528184529584209182015460c08601529490925292909252905460e082015261154281876137d9565b5f876001600160801b031611801561156f5750866001600160801b0316815f01516001600160801b031614155b801561158d5750876001600160a01b0316896001600160a01b031614155b80156115b1575060018515151480156115af575080516001600160801b031615155b155b6115b9575f80fd5b602081015160e08201516115e1916001600160801b031661271060cc9290921c607f16020490565b91508181602001516115f39190615756565b60808201516040808401516001600160a01b038d165f908152600160205291909120929550611623929190613aef565b60c08101516001600160a01b0389165f9081526001602052604090206116499184613aef565b805161167590339061165b908a615756565b6001600160a01b038c1691906001600160801b0316613383565b6116926001600160a01b038916336001600160801b038616613555565b876001600160a01b0316896001600160a01b03167fe9174eb0d60b5dfcb132e979d11319f32d4a3ebdbf5abbb9600950c1cf8fab5b3384606001516116f7865f01518d6116df9190615756565b60408801516001600160801b031660809190911b1790565b6001600160801b03881660808a901b17604080516001600160a01b0390951685526001600160801b03909316602085015291830152606082015260800160405180910390a3506117465f61323f565b965096945050505050565b6007546001600160a01b03163314611767575f80fd5b6001600160a01b039091165f90815260066020526040902055565b5f8061178d86611d0b565b9050808511156117b85760405163fd9a760960e01b8152600481018290526024015b60405180910390fd5b5f6117c387876126fb565b90506117d96001600160a01b0388168988613555565b6040516323e30c8b60e01b81527f439148f0bbc682ca079e46d6e2c2f0c1e3b820f1a291b069d8882abf8cf18dd9906001600160a01b038a16906323e30c8b906118319033908c908c9088908d908d90600401615775565b6020604051808303815f875af115801561184d573d5f803e3d5ffd5b505050506040513d601f19601f8201168201806040525081019061187191906157d1565b146118995760405162678c5b60e81b81526001600160a01b03891660048201526024016117af565b6118ba88306118a8848a6157e8565b6001600160a01b038b16929190613731565b6001600160a01b0387165f9081526001602052604090206118db9082613b16565b506001979650505050505050565b5f6001600160a01b035f805160206159598339815191525c161561190b575f80fd5b6119143361323f565b6001600160a01b038381165f90815260016020819052604090912001541615801561195b57506001600160a01b0385165f90815260016020526040902054600160ff1b1615155b611963575f80fd5b61198b336119718660801c90565b6001600160a01b03861691906001600160801b0316613383565b6119a86001600160a01b038616336001600160801b038716613383565b604080516080810182525f8082526020808301829052828401829052606083018290526001600160a01b038916825260019052919091206119ea908683613252565b611a5a611a1282604001516119ff8860801c90565b6001600160801b031660809190911b1790565b6001600160a01b0386165f90815260016020526040902090856002830182905560038301919091556001600160e51b0316815560010180546001600160a01b03191633179055565b5f611a996040518060600160405280336001600160a01b03168152602001876001600160a01b03168152602001896001600160a01b03168152506133c6565b9050611aa481613419565b5f8281526002602052604090819020829055516340c10f1960e01b815233600482015260248101919091527f00000000000000000000000000000000000000000000000000000000000000006001600160a01b0316906340c10f19906044015f604051808303815f87803b158015611b1a575f80fd5b505af1158015611b2c573d5f803e3d5ffd5b50506040805160a0810182526001600160a01b03808a1682528b16602082015285820151909350908301915060801b8152602001611b6a8860801c90565b6001600160801b03168152602001611b9a8460200151856060015160809190911b6001600160801b039091161790565b90525f828152600260208181526040808420805485526003808452828620875181546001600160a01b039182166001600160a01b0319918216178355898701516001840180549190931691161790558784015181870155606088015191810191909155608090960151600490960195909555928590528190529154908401517f3fc0293a5a7bc73de220f0814bbbebc31e77ffcd41bf5e8be187471747bd7caa9288918b918991611c73917f0000000000000000000000000000000000000000000000000000000000000000913391611089919061566d565b611c98611c808d60801c90565b60408a01516001600160801b031660809190911b1790565b885160608a01516001600160801b031660809190911b17604080519788526001600160a01b039687166020890152949095169386019390935260608501919091526001600160801b0316608084015260a083015260c082015260e00160405180910390a1600192505050610f0e5f61323f565b5f611d1f6001600160a01b03831630613b4f565b92915050565b6001600160a01b035f805160206159598339815191525c1615611d46575f80fd5b611d4f3361323f565b6001600160a01b0382165f908152600160205260409020600401546d200000000000000000000000000090611d8890839060801c61564e565b6001600160801b03161115611d9b575f80fd5b611db86001600160a01b038316336001600160801b038416613383565b6001600160a01b0382165f90815260016020526040902060040154611de690608083901b613bda565b613bda565b6001600160a01b0383165f818152600160209081526040918290206004019390935580519182526001600160801b038416928201929092527f0dc5e2150c5754dc0bcd8d76ca2d23850fc9a2a3115c69bb4fbdbedc25074a00910160405180910390a1611e525f61323f565b5050565b335f90815260066020526040812054600114611e70575f80fd5b6001600160a01b0382165f8181526004602090815260408083209290925590519182527e4ba2ca448db089eb9fb0b25431f0d57664d46141171fed2476281b578d96d491016113f7565b6007545f906001600160a01b03163314611ed2575f80fd5b600160ff1b8216611ee1575f80fd5b611efe6001600160a01b038516336001600160801b038616613383565b6001600160a01b0384165f908152600160205260409020611f4a9084846002830182905560038301919091556001600160e51b0316815560010180546001600160a01b03191633179055565b6001600160a01b0384165f908152600160205260409020611f7090640100000000613c12565b604080516060810182523381526001600160a01b03861660208201525f918101829052611f9c906133c6565b90505f611fa882613419565b5f8381526002602052604090819020829055516340c10f1960e01b8152336004820152602481018290529091507f00000000000000000000000000000000000000000000000000000000000000006001600160a01b0316906340c10f19906044015f604051808303815f87803b158015612020575f80fd5b505af1158015612032573d5f803e3d5ffd5b5050505061206f865f61204e6120488960801c90565b60801b90565b885f868152600360205260408120949392916001600160801b03169061343c565b5f61209f7f0000000000000000000000000000000000000000000000000000000000000000336110898960801c90565b604080518481526001600160a01b038a1660208201526001600160801b03831681830152606081018890526080810189905290519192507f8f2eb922ee1b2f92e0051f7949a8c191264807725a1e435e91abebd28583830a919081900360a00190a15060019695505050505050565b6060606483511061211d575f80fd5b5f835167ffffffffffffffff81111561213857612138615007565b604051908082528060200260200182016040528015612161578160200160208202803683370190505b5090505f5b84518110156121f55760015f86838151811061218457612184615696565b60200260200101516001600160a01b03166001600160a01b031681526020019081526020015f206005015f856001600160a01b03166001600160a01b031681526020019081526020015f20548282815181106121e2576121e2615696565b6020908102919091010152600101612166565b509392505050565b6001600160a01b038281165f908152600160208190526040822001549091163314612226575f80fd5b6001600160a01b0383165f9081526001602052604090206122479083613c51565b604080516001600160a01b0385168152602081018490527f075a13b9dbfb2e30d678551b8c2a4f9ede7468ca5273fa902a41d0e57756666991015b60405180910390a150600192915050565b5f6001600160a01b035f805160206159598339815191525c16156122b5575f80fd5b6122be3361323f565b60405163430c208160e01b8152336004820152602481018490527f00000000000000000000000000000000000000000000000000000000000000006001600160a01b03169063430c2081906044016020604051808303815f875af1158015612328573d5f803e3d5ffd5b505050506040513d601f19601f8201168201806040525081019061234c91906157fb565b612354575f80fd5b5f8381526003602052604080822060018101549054915163b88e6d6360e01b81523360048201526001600160a01b0391821693928216929182917f00000000000000000000000000000000000000000000000000000000000000009091169063b88e6d63906024016040805180830381865afa1580156123d6573d5f803e3d5ffd5b505050506040513d601f19601f820116820180604052508101906123fa9190615816565b6001600160a01b0388165f9081526004602052604090205491935091506001146124245785612426565b815b9550806001600160a01b0316866001600160a01b0316146124475780612449565b815b6001600160a01b0381165f908152600460205260409020549091506001146124715781612473565b805b6001600160a01b038086165f9081526001602081815260408084208d8552600383528185208554968b168652939092529092209394506124b893928a90869088613c8c565b6001600160a01b0384165f90815260016020818152604080842033855260050190915290912054919650811115612535576001600160a01b0384165f908152600160208181526040808420338086526005909101909252909220819055612535919061252490846156aa565b6001600160a01b0387169190613555565b6001600160a01b038516156125c057506001600160a01b0384165f90815260016020818152604080842033855260050190915290912054908111156125c0576001600160a01b0385165f9081526001602081815260408084203380865260059091019092529092208190556125c091906125af90846156aa565b6001600160a01b0388169190613555565b604080516001600160a01b0380871682528716602082015290810187905288907f1129f35303e34d7efabdbd85614ed662beb4fc6942852b7a3e5a4f92074cbf319060600160405180910390a25050505050611d1f5f61323f565b335f90815260066020526040812054600114612635575f80fd5b6001600160a01b0382165f818152600460209081526040918290206001905590519182527f8e1c2d1a5dce36a56a9dfcb96e5816e793c16d6c897b4e3c0b1f99588bb88a1c91016113f7565b335f9081526006602052604081205460011461269b575f80fd5b6001600160a01b0383165f9081526001602052604090206126bc9083613c12565b604080516001600160a01b0385168152602081018490527fe40cf68f61d9a4e510244481f5aa34ba68de31cf3f9aa360604d688115d640c89101612282565b6001600160a01b0382165f90815260016020526040812054610bdc908361271060df9290921c603f16020490565b5f6001600160a01b035f805160206159598339815191525c161561274b575f80fd5b6127543361323f565b5f61276185870187615843565b60408051610160810182525f80825260208201819052918101829052606081018290526080810182905260a0810182905260c0810182905260e081018290526101008101829052610120810182905261014081019190915290915081516001600160a01b039081165f908152600160209081526040808320600290810154875186168552828520549388018051871686528386209092015491519095168452922054612813938593879391928b613d7d565b61281c81613e7b565b336001600160a01b037f00000000000000000000000000000000000000000000000000000000000000001614801561286957505f61285e836040015160801c90565b6001600160801b0316115b801561287d575080516001600160801b0316155b80156128a2575081602001516001600160a01b0316825f01516001600160a01b031614155b6128aa575f80fd5b60408201516001600160801b03168160a001516001600160801b0316116128e457604051633a16847560e11b815260040160405180910390fd5b61291582606001516128f7846040015190565b60208501516001600160a01b031691906001600160801b0316613555565b5f612921836040015190565b8260a001516129309190615756565b905061295f856129416002846158d3565b60208601516001600160a01b031691906001600160801b0316613555565b61296a6002826158d3565b8260800151612979919061564e565b6001600160801b0316608083015260c082015160408084015185516001600160a01b03165f9081526001602052919091206129b5929091613aef565b61010082015160808301516020808601516001600160a01b03165f9081526001909152604090206129e7929091613aef565b82602001516001600160a01b0316835f01516001600160a01b03167fe9174eb0d60b5dfcb132e979d11319f32d4a3ebdbf5abbb9600950c1cf8fab5b85606001518560600151612a56612a3e896040015160801c90565b60408901516001600160801b031660809190911b1790565b60a08801516080808a01516001600160801b031691901b17604080516001600160a01b0390951685526001600160801b03909316602085015291830152606082015260800160405180910390a360019350505050610f0e5f61323f565b5f6001600160a01b035f805160206159598339815191525c1615612ad5575f80fd5b612ade3361323f565b60405163430c208160e01b8152336004820152602481018590527f00000000000000000000000000000000000000000000000000000000000000006001600160a01b03169063430c2081906044016020604051808303815f875af1158015612b48573d5f803e3d5ffd5b505050506040513d601f19601f82011682018060405250810190612b6c91906157fb565b612b74575f80fd5b60408051606080820183525f808352602080840182905283850182905284519283018552818352828101829052828501829052888252600390528381208054600190910154945163b88e6d6360e01b8152336004820152939492936001600160a01b039182169382169291829182917f0000000000000000000000000000000000000000000000000000000000000000169063b88e6d63906024016040805180830381865afa158015612c29573d5f803e3d5ffd5b505050506040513d601f19601f82011682018060405250810190612c4d9190615816565b6001600160a01b038b165f908152600460205260409020549193509150600114612c775781612c79565b885b9850806001600160a01b0316896001600160a01b031614612c9a5780612c9c565b815b6001600160a01b0381165f90815260046020526040902054909150600114612cc45781612cc6565b805b9050612d7e60015f866001600160a01b03166001600160a01b031681526020019081526020015f2060035f8e81526020019081526020015f206040518060a001604052808e6001600160801b031681526020018d6001600160a01b03168152602001856001600160a01b031681526020015f548152602001866001600160a01b031681525060015f8a6001600160a01b03166001600160a01b031681526020019081526020015f206141b4909392919063ffffffff16565b6001600160a01b0388165f90815260016020818152604080842033855260050190915290912054939a509198509450811115612e00576001600160a01b0386165f908152600160208181526040808420338086526005909101909252909220819055612e009190612def90846156aa565b6001600160a01b0389169190613555565b6001600160a01b03851615612e7a57506001600160a01b0384165f9081526001602081815260408084203385526005019091529091205490811115612e7a576001600160a01b0385165f908152600160208181526040808420338086526005909101909252909220819055612e7a91906125af90846156aa565b612ea57f00000000000000000000000000000000000000000000000000000000000000003386613675565b8b7f63741ac8918076a6393e6e12659431a4927b53e16190a6b00af6a06697d868b88787608088901b60208d015160408e01516001600160801b031660809190911b1760208d015160408e01516001600160801b031660809190911b178e518e516001600160801b031660809190911b17604080516001600160a01b039788168152969095166020870152938501929092526060840152608083015260a082015260c00160405180910390a2600198505050505050505050610bdc5f61323f565b5f806001600160a01b035f805160206159598339815191525c1615612f89575f80fd5b612f923361323f565b60408051610100810182526001600160801b03871681525f6020808301829052828401829052606083018290526001600160a01b03808c16835260018083528584206002808201546080880152905460a0870152918c168085528184529584209182015460c08601529490925292909252905460e082015261301481866146c1565b866001600160a01b0316886001600160a01b03161415801561303e575080516001600160801b0316155b613046575f80fd5b602081015160a082015161306e916001600160801b031661271060c59290921c607f16020490565b9150818160200151613080919061564e565b60c08201516040808401516001600160a01b038b165f9081526001602052919091209295506130b0929190613aef565b60808101516001600160a01b0389165f9081526001602052604090206130d69184613aef565b613104848260400151886130ea9190615756565b6001600160a01b038a1691906001600160801b0316613555565b6131216001600160a01b038916336001600160801b038616613383565b866001600160a01b0316886001600160a01b03167f6cf01bd7290ca456adc58f838641d629cb223064c72dabf9a6255d86a854762d3387856060015161317b8c886040015160809190911b6001600160801b039091161790565b604080516001600160a01b0395861681529390941660208401526001600160801b03918216838501526060830152608089811b918916919091179082015290519081900360a00190a3506131ce5f61323f565b9550959350505050565b6007546001600160a01b031633146131ee575f80fd5b600780546001600160a01b0319166001600160a01b0392909216919091179055565b6007546001600160a01b03163314613226575f80fd5b6001600160a01b03165f90815260066020526040812055565b805f805160206159598339815191525d50565b8254613273906001600160801b03841661271060d99290921c603f16020490565b6001600160801b03168082526132899083615756565b6001600160801b03166060820181905260028401546132a7916148fa565b6001600160801b03166040820152606081015160048401546132db91906132d59060801c60038701546119ff565b906148fa565b6001600160801b0316602082018190526004840154825161331c92611de191613304919061564e565b60208501516001600160801b031660809190911b1790565b6004840155600283015460408201516060830151613349929160801b6001600160801b0390911617613bda565b6002840155600383015460408201516060830151613376929160801b6001600160801b0390911617613bda565b8360030181905550505050565b3061339084848385613731565b50505050565b5f610bdc836001600160801b0316836001600160801b03166133b88660801c90565b6001600160801b0316614922565b6040805182516001600160a01b039081166020808401919091528401518116828401529183015190911660608201525f906080015b60408051601f19818403018152919052805160209091012092915050565b604080516020810183905230918101919091524260608201525f906080016133fb565b60038601546001600160801b03165f0361346a5785546001600160a01b0319166001600160a01b0386161786555b613478866002015484613bda565b6002870155600386015461348c9083613bda565b60038701556001600160a01b038416156134d2576001860180546001600160a01b0319166001600160a01b03861617905560048601546134cc9082613bda565b60048701555b505050505050565b60405163067e356d60e21b81526001600160a01b0383811660048301526001600160801b03831660248301525f91908516906319f8d5b4906044016020604051808303815f875af1158015613531573d5f803e3d5ffd5b505050506040513d601f19601f82011682018060405250810190610f0e9190615900565b5f60016001600160a01b03851603613594575f805f8085875af190508061358f57604051633d2cec6f60e21b815260040160405180910390fd5b613390565b60405163a9059cbb60e01b5f52836004528260245260205f60445f80895af13d15601f3d1160015f511416171691505f60605280604052508061339057604051633c9fd93960e21b815260040160405180910390fd5b5f6135f58260801c90565b6001600160801b03166136088460801c90565b6001600160801b0316856001600160801b0316613625919061591b565b61362f919061591b565b826001600160801b0316846001600160801b031661364d8760801c90565b6001600160801b0316613660919061591b565b61366a919061591b565b11611220575f610f0e565b604051637bd3ca3560e01b81526001600160a01b0383811660048301526001600160801b0383166024830152841690637bd3ca35906044015f604051808303815f87803b1580156136c4575f80fd5b505af11580156136d6573d5f803e3d5ffd5b50505050505050565b6136f182600201548260020154613bda565b826002018190555061370b82600301548260030154613bda565b826003018190555061372582600401548260040154613bda565b82600401819055505050565b5f60016001600160a01b038616036137685781341461376357604051633d2cec6f60e21b815260040160405180910390fd5b6137d2565b6040516323b872dd60e01b81526001600160a01b03851660048201526001600160a01b038416602482015282604482015260205f6064835f8a5af13d15601f3d1160015f5114161716915050806137d257604051633c9fd93960e21b815260040160405180910390fd5b5050505050565b6137ec82608001518360c00151836135ea565b15611e5257815160a08301515f91829161381a916001600160801b031661271060c59290921c607f16020490565b6001600160801b03166040850181905284518590613839908390615756565b6001600160801b03169052505b83516001600160801b03161580159061386d575061386d84608001518560c00151856135ea565b15613a5b5761388e6138838560c0015160801c90565b60e086015190614933565b6001600160801b03166138b36138a8866080015160801c90565b60a087015190614933565b6001600160801b031610156138e3576138de6138d3856080015160801c90565b60a086015190614933565b6138f4565b6138f46138838560c0015160801c90565b60808501519092506139069083613396565b9050806001600160801b0316845f01516001600160801b031611156139b85780845f018181516139369190615756565b6001600160801b031690525060c08401516139519083613396565b84602001818151613962919061564e565b6001600160801b0390811690915260808681015161398d93509184169085901b17614962565b614962565b608085015260c08401516139ae906139a9846119ff8382613396565b614988565b60c0850152613a38565b835160808501516139c8916148fa565b60c08501519092506139da9083613396565b846020018181516139eb919061564e565b6001600160801b039081169091526080868101518751613a1394509092169085901b17614962565b608085015260c0840151613a2f906139a9846119ff8382613396565b60c08501525f84525b8184606001818151613a4a919061564e565b6001600160801b0316905250613846565b83516001600160801b03161561339057835160a0850151613a90916001600160801b031661271060c59290921c607f16020490565b84604001818151613aa19190615756565b6001600160801b03908116909152855160a0870151613ace9350911661271060c59290921c607f16020490565b84518590613add90839061564e565b6001600160801b031690525050505050565b600283018290556004830154613b0990608083901b613bda565b8360040181905550505050565b700100000000000000000000000000000000613b328183615932565b8360040154613b4191906157e8565b901b82600401819055505050565b5f60016001600160a01b03841603613b7257506001600160a01b03811631611d1f565b6040516370a0823160e01b81526001600160a01b0383811660048301528416906370a0823190602401602060405180830381865afa158015613bb6573d5f803e3d5ffd5b505050506040513d601f19601f82011682018060405250810190610bdc91906157d1565b5f608082811d9084901d016001600160801b0383811690851601613c09613c00836149aa565b6119ff836149aa565b95945050505050565b815460df82901b90613c41907b8000000000000000000000000000000000000000000000000000000090615932565b613c4b91906157e8565b90915550565b81546001600160e51b0390911690613c4b9082907fffffffe000000000000000000000000000000000000000000000000000000000166157e8565b5f80613c9c876003015460801c90565b613cc5613caa896003015490565b6132d5613cbb8d6004015460801c90565b60038e01546119ff565b613ccf9190615756565b60048a0154909150613cea906001600160801b038316613bda565b60048a0155613cfe8982868989885f6149c4565b5f613d0d886004015460801c90565b613d1b613caa8a6004015490565b613d259190615756565b60048a0154909150613d40906001600160801b038316613bda565b60048a0155613d548982878a8a895f6149c4565b6001600160801b038116608083901b179250613d708884614ce3565b5050979650505050505050565b604086015160801c6001600160801b0316875260c0870185905260e08701849052610100870183905261012087018290525f613db98460801c90565b60c0890151613dc8919061566d565b6001600160801b031690505f613de389610100015160801c90565b60c08a0151613df2919061566d565b6001600160801b03169050613e156bffffffffffffffffffffffff84168361591b565b613e1f90836157e8565b9150808210613e4f5761279081613e388461271061591b565b613e429190615945565b901b6101408a0152613e70565b613e598282615945565b613e649060806157e8565b612710901b6101408a01525b505050505050505050565b613e8481614d22565b1561415b57805160e08201515f918291613eb2916001600160801b031661271060c59290921c607f16020490565b6001600160801b03166040840181905283518490613ed1908390615756565b6001600160801b03169052505b613ee783614d22565b156140c957613f0a613efe84610100015160801c90565b61012085015190614933565b6001600160801b0316613f246138838560c0015160801c90565b6001600160801b03161015613f5457613f4f613f448460c0015160801c90565b60e085015190614933565b613f66565b613f66613efe84610100015160801c90565b60c0840151909250613f789083613396565b9050806001600160801b0316835f01516001600160801b031611156140235780835f01818151613fa89190615756565b6001600160801b0316905250610100830151613fc49083613396565b83602001818151613fd5919061564e565b6001600160801b0390811690915260c0850151613ffb9250908316608085901b17614962565b60c0840152610100830151614018906139a9846119ff8382613396565b6101008401526140a6565b825160c0840151614033916148fa565b6101008401519092506140469083613396565b83602001818151614057919061564e565b6001600160801b0390811690915260c0850151855161407f9350909116608085901b17614962565b60c084015261010083015161409c906139a9846119ff8382613396565b6101008401525f83525b81836060018181516140b8919061564e565b6001600160801b0316905250613ede565b82516001600160801b03161561415857825160e08401516140fe916001600160801b031661271060c59290921c607f16020490565b8360400181815161410f9190615756565b6001600160801b03908116909152845160e086015161413c9350911661271060c59290921c607f16020490565b8351849061414b90839061564e565b6001600160801b03169052505b50505b6020810151610120820151614184916001600160801b031661271060cc9290921c607f16020490565b6001600160801b03166080820181905260208201516141a39190615756565b6001600160801b031660a090910152565b604080516060810182525f8082526020820181905291810191909152604080516060810182525f80825260208201819052918101919091525f61420f845f01516132d5614205886002015460801c90565b60038901546119ff565b9050604051806060016040528061423e865f01516132d56142348c6004015460801c90565b60038d01546119ff565b6001600160801b0316815260200161426e865f01516132d56142648a6003015460801c90565b60038b01546119ff565b6001600160801b0390811682528651166020909101528754909350600160ff1b161515806142a257508554600160ff1b1615155b80156142d757506142c26142ba886002015460801c90565b885490614def565b6001600160801b0316816001600160801b0316105b801561430457506142ec6142ba886002015490565b6001600160801b0316845f01516001600160801b0316105b6143395760405162461bcd60e51b81526004016117af906020808252600490820152634730313160e01b604082015260600190565b6002870154604084015161435c91906001600160801b0316608084901b17614e13565b60028801556003870154604084015161438491906001600160801b0316608084901b17614e13565b60038801556004870154835160208501516143ae929160801b6001600160801b0390911617614e13565b60048801556143bd8582614e39565b602083015183516143ce9190615756565b6001600160801b039081168452604084015188546143fa9290911661271060d39290921c603f16020490565b6001600160801b03166020808501829052845160608701519187015160408089015160808a01519189015161443d968e969493916144389190615756565b6149c4565b60208301516001600160801b03161561446d5760048701546020840151614467919060801b613bda565b60048801555b60018501546001600160a01b0316156146b75760405180606001604052806144aa836132d56144a08b6004015460801c90565b60038c01546119ff565b6001600160801b031681526020016144d7836132d56144cd8a6004015460801c90565b60048b01546119ff565b6001600160801b03168152602001614500836144fa6144cd8a6002015460801c90565b90613396565b6001600160801b0316815250915061452761451f876002015460801c90565b875490614def565b6001600160801b0316816001600160801b0316108015614569575061455061451f876002015490565b6001600160801b031682604001516001600160801b0316105b61459e5760405162461bcd60e51b81526004016117af906020808252600490820152632398189960e11b604082015260600190565b600286015460408301516145c191906001600160801b0316608084901b17614e13565b6002870155600386015460408301516145e991906001600160801b0316608084901b17614e13565b6003870155600486015482516020840151614613929160801b6001600160801b0390911617614e13565b6004870155602082015182516146299190615756565b6001600160801b039081168352604083015187546146559290911661271060d39290921c603f16020490565b6001600160801b031660208301819052156146875760048601546020830151614681919060801b613bda565b60048701555b6146b786835f01518660600151876020015188604001518960800151886020015189604001516144389190615756565b9450945094915050565b6146d482608001518360c00151836135ea565b611e5257815160e08301515f918291614701916001600160801b031661271060cc9290921c607f16020490565b6001600160801b031660408501525b83516001600160801b031615801590614737575061473784608001518560c00151856135ea565b156133905761474d6138838560c0015160801c90565b6001600160801b03166147676138a8866080015160801c90565b6001600160801b0316101561478c576147876138d3856080015160801c90565b61479d565b61479d6138838560c0015160801c90565b60c08501519092506147af9083613396565b9050806001600160801b0316845f01516001600160801b031611156148575780845f018181516147df9190615756565b6001600160801b031690525060808401516147fa9083613396565b8460200181815161480b919061564e565b6001600160801b0390811690915260c08601516148319250908316608085901b17614988565b60c0850152608084015161484d90613988846119ff8382613396565b60808501526148d7565b835160c0850151614867916148fa565b60808501519092506148799083613396565b8460200181815161488a919061564e565b6001600160801b0390811690915260c086015186516148b29350909116608085901b17614988565b60c085015260808401516148ce90613988846119ff8382613396565b60808501525f84525b81846060018181516148e9919061564e565b6001600160801b0316905250614710565b5f610bdc6149088460801c90565b6001600160801b0316836001600160801b03166133b88690565b918102915f818404613c09816149aa565b5f6103ff60bb84901c1680820361494d5782915050611d1f565b61495881604061566d565b610f0e90846158d3565b5f608082811d9084901d036001600160801b0383811690851601613c09613c00836149aa565b5f608082811d9084901d016001600160801b0383811690851603613c09613c00835b5f6001600160801b038211156149c0575f611d1f565b5090565b60646001600160801b03871660dd87901c601f1602046149e48188615756565b965060646001600160801b03881660fa88901c81028290049160f489901c603f90811683028290049260ee8b901c821681028390049260e88c901c831682028190049260e28d901c16909102046001600160a01b038916614b3d57614a49878661564e565b335f90815260058f016020526040812080546001600160801b039390931692909190614a769084906157e8565b90915550614a869050818561564e565b6001600160801b03168d6005015f8c6001600160a01b03166001600160a01b031681526020019081526020015f205f828254614ac291906157e8565b92505081905550858185878f614ad89190615756565b614ae29190615756565b614aec9190615756565b614af6919061564e565b6001600160801b03168d6005015f8a6001600160a01b03166001600160a01b031681526020019081526020015f205f828254614b3291906157e8565b90915550614cd49050565b60018d01546001600160a01b03898116911614614b955760018d01546001600160a01b03165f90815260058e016020526040812080546001600160801b0387169290614b8a9084906157e8565b90915550614ba29050565b614b9f848761564e565b95505b876001600160a01b03168a6001600160a01b031614614bf8576001600160a01b038a165f90815260058e016020526040812080546001600160801b0386169290614bed9084906157e8565b90915550614c059050565b614c02838761564e565b95505b876001600160a01b0316896001600160a01b031614614c5b576001600160a01b0389165f90815260058e016020526040812080546001600160801b0385169290614c509084906157e8565b90915550614c689050565b614c65828761564e565b95505b6001600160a01b0388165f90815260058e016020526040812080546001600160801b0389169290614c9a9084906157e8565b90915550879050614cab828761564e565b614cb5919061564e565b335f90815260058f01602052604090206001600160801b039190911690555b50505050505050505050505050565b614cf88260030154611de16120488460801c90565b600383015560018201546001600160a01b031615611e52576137258260040154611de16120488490565b5f614d3282610140015160801c90565b6001600160801b0316614d4a83610100015160801c90565b6001600160801b0316614d5e8460c0015190565b6001600160801b0316614d71919061591b565b614d7b919061591b565b6101408301516001600160801b0316614d9684610100015190565b6001600160801b0316614dad8560c0015160801c90565b6001600160801b0316614dc0919061591b565b614dca919061591b565b11614dd5575f614dd8565b60015b8015611d1f575050516001600160801b0316151590565b5f6103ff60b184901c16808203614e095782915050611d1f565b610f0e81846158d3565b5f608082811d9084901d036001600160801b0383811690851603613c09613c00836149aa565b5f614e9e614e6f614e4e856003015460801c90565b6001600160801b0316846001600160801b03166133b8876002015460801c90565b6119ff614e7d866003015490565b6001600160801b0316856001600160801b03166133b8886002015460801c90565b60018401549091506001600160a01b031615614f0f575f614ef8614ec9614e7d866004015460801c90565b6119ff614ed7876004015490565b6001600160801b0316866001600160801b03166133b8896002015460801c90565b9050614f08846004015482614e13565b6004850155505b614f1d836003015482614e13565b60038401556002830154614f3590608084901b614e13565b8360020181905550505050565b6001600160a01b0381168114614f56575f80fd5b50565b6001600160801b0381168114614f56575f80fd5b5f805f60608486031215614f7f575f80fd5b8335614f8a81614f42565b92506020840135614f9a81614f42565b91506040840135614faa81614f59565b809150509250925092565b5f8060408385031215614fc6575f80fd5b8235614fd181614f42565b91506020830135614fe181614f42565b809150509250929050565b5f60208284031215614ffc575f80fd5b8135610bdc81614f42565b634e487b7160e01b5f52604160045260245ffd5b604051601f8201601f1916810167ffffffffffffffff8111828210171561504457615044615007565b604052919050565b5f82601f83011261505b575f80fd5b813567ffffffffffffffff81111561507557615075615007565b8060051b6150856020820161501b565b918252602081850181019290810190868411156150a0575f80fd5b6020860192505b838310156150cb5782356150ba81614f42565b8252602092830192909101906150a7565b9695505050505050565b5f602082840312156150e5575f80fd5b813567ffffffffffffffff8111156150fb575f80fd5b610f0e8482850161504c565b5f805f60608486031215615119575f80fd5b833561512481614f42565b9250602084013561513481614f42565b929592945050506040919091013590565b5f805f60608486031215615157575f80fd5b83359250602084013561516981614f42565b91506040840135614faa81614f42565b5f805f6060848603121561518b575f80fd5b833561519681614f42565b9250602084013591506040840135614faa81614f42565b80356bffffffffffffffffffffffff81168114611403575f80fd5b5f805f80606085870312156151db575f80fd5b843567ffffffffffffffff8111156151f1575f80fd5b8501601f81018713615201575f80fd5b803567ffffffffffffffff811115615217575f80fd5b8760208260051b840101111561522b575f80fd5b60209182019550935061523f9086016151ad565b9150604085013561524f81614f42565b939692955090935050565b602080825282518282018190525f918401906040840190835b818110156152935783511515835260209384019390920191600101615273565b509095945050505050565b5f602082840312156152ae575f80fd5b5035919050565b8015158114614f56575f80fd5b5f805f805f8060c087890312156152d7575f80fd5b86356152e281614f42565b955060208701356152f281614f42565b9450604087013561530281614f59565b9350606087013592506080870135615319816152b5565b915060a087013561532981614f42565b809150509295509295509295565b5f8060408385031215615348575f80fd5b823561535381614f42565b946020939093013593505050565b5f8083601f840112615371575f80fd5b50813567ffffffffffffffff811115615388575f80fd5b60208301915083602082850101111561539f575f80fd5b9250929050565b5f805f805f608086880312156153ba575f80fd5b85356153c581614f42565b945060208601356153d581614f42565b935060408601359250606086013567ffffffffffffffff8111156153f7575f80fd5b61540388828901615361565b969995985093965092949392505050565b5f805f8060808587031215615427575f80fd5b843561543281614f42565b935060208501359250604085013561544981614f42565b9396929550929360600135925050565b5f806040838503121561546a575f80fd5b823561547581614f42565b91506020830135614fe181614f59565b5f805f60608486031215615497575f80fd5b83356154a281614f42565b95602085013595506040909401359392505050565b5f80604083850312156154c8575f80fd5b823567ffffffffffffffff8111156154de575f80fd5b6154ea8582860161504c565b9250506020830135614fe181614f42565b5f8151808452602084019350602083015f5b8281101561552b57815186526020958601959091019060010161550d565b5093949350505050565b602081525f610bdc60208301846154fb565b5f8060408385031215615558575f80fd5b823591506020830135614fe181614f42565b5f805f806060858703121561557d575f80fd5b843567ffffffffffffffff811115615593575f80fd5b61559f87828801615361565b909550935061523f9050602086016151ad565b5f805f606084860312156155c4575f80fd5b83359250602084013561516981614f59565b5f805f805f60a086880312156155ea575f80fd5b85356155f581614f42565b9450602086013561560581614f42565b9350604086013561561581614f59565b925060608601359150608086013561562c81614f42565b809150509295509295909350565b634e487b7160e01b5f52601160045260245ffd5b6001600160801b038181168382160190811115611d1f57611d1f61563a565b6001600160801b03818116838216029081169081811461568f5761568f61563a565b5092915050565b634e487b7160e01b5f52603260045260245ffd5b81810381811115611d1f57611d1f61563a565b604080825283519082018190525f9060208501906060840190835b818110156156ff5783516001600160a01b03168352602093840193909201916001016156d8565b505083810360208501526150cb81866154fb565b5f808335601e19843603018112615728575f80fd5b83018035915067ffffffffffffffff821115615742575f80fd5b60200191503681900382131561539f575f80fd5b6001600160801b038281168282160390811115611d1f57611d1f61563a565b6001600160a01b03871681526001600160a01b038616602082015284604082015283606082015260a060808201528160a0820152818360c08301375f81830160c090810191909152601f909201601f1916010195945050505050565b5f602082840312156157e1575f80fd5b5051919050565b80820180821115611d1f57611d1f61563a565b5f6020828403121561580b575f80fd5b8151610bdc816152b5565b5f8060408385031215615827575f80fd5b825161583281614f42565b6020840151909250614fe181614f42565b5f6080828403128015615854575f80fd5b506040516080810167ffffffffffffffff8111828210171561587857615878615007565b604052823561588681614f42565b8152602083013561589681614f42565b60208201526040838101359082015260608301356158b381614f42565b60608201529392505050565b634e487b7160e01b5f52601260045260245ffd5b5f6001600160801b038316806158eb576158eb6158bf565b806001600160801b0384160491505092915050565b5f60208284031215615910575f80fd5b8151610bdc81614f59565b8082028115828204841417611d1f57611d1f61563a565b5f82615940576159406158bf565b500690565b5f82615953576159536158bf565b50049056fecfdbe78f31bc5efa50605e8b11a7b6843971370ea97eb24de6e1a1eb9d235645a26469706673582212205f4310995c9c1046a8170b392a8b41340a925e17be1c5fe912e7a878431ac09d64736f6c634300081a0033","linkReferences":{}},"methodIdentifiers":{"addauths(address,uint256)":"542128dd","addbanlist(address)":"b153b920","banlist(address)":"2973ada7","batchTakelimitOrder(bytes[],uint96,address)":"35d3ec16","buyGood(address,address,uint128,uint256,bool,address)":"46f74c1a","buyGoodForPay(address,address,uint128,uint256,address)":"f4970aaa","changeGoodOwner(address,address)":"41e12373","changemarketor(address)":"f57ca502","collectCommission(address[])":"0d2700ab","collectProof(uint256,address)":"a676a600","delproofdata(uint256,address,address)":"1faa5a56","disinvestProof(uint256,uint128,address)":"f4662f20","flashFee(address,uint256)":"d9d98ce4","flashLoan(address,address,uint256,bytes)":"5cffe9de","getGoodState(address)":"08238466","getProofState(uint256)":"3f117740","goodWelfare(address,uint128)":"629fa704","initGood(address,uint256,address,uint256)":"5dd7e4ae","initMetaGood(address,uint256,uint256)":"97924ead","investGood(address,address,uint128)":"000ce2e0","ishigher(address,address,uint256)":"1412723a","loanproofs(address,address)":"0475ea8a","marketconfig()":"402f5ab5","marketcreator()":"3d995173","maxFlashLoan(address)":"613255ab","modifyGoodConfig(address,uint256)":"b1efb921","payGood(address,uint256,address)":"328ecd96","proofmapping(uint256)":"5e008cc4","queryCommission(address[],address)":"9b222794","removeauths(address)":"f66d6485","removebanlist(address)":"9551177a","setMarketConfig(uint256)":"45818e4c","takeLimitOrder(bytes,uint96,address)":"e8a1fa48","updateGoodConfig(address,uint256)":"a3b74a49"},"id":57}