{"abi":[{"type":"constructor","inputs":[{"name":"_marketconfig","type":"uint256","internalType":"uint256"},{"name":"_officialTokenContract","type":"address","internalType":"address"},{"name":"_officialNFTContract","type":"address","internalType":"address"},{"name":"_officelimitorder","type":"address","internalType":"address"},{"name":"_marketcreator","type":"address","internalType":"address"}],"stateMutability":"nonpayable"},{"type":"function","name":"addbanlist","inputs":[{"name":"_user","type":"address","internalType":"address"}],"outputs":[{"name":"","type":"bool","internalType":"bool"}],"stateMutability":"nonpayable"},{"type":"function","name":"batchTakelimitOrder","inputs":[{"name":"_inputData","type":"bytes","internalType":"bytes"},{"name":"_tolerance","type":"uint96","internalType":"uint96"},{"name":"_takecaller","type":"address","internalType":"address"},{"name":"ordernum","type":"uint8","internalType":"uint8"}],"outputs":[{"name":"","type":"bool[]","internalType":"bool[]"}],"stateMutability":"payable"},{"type":"function","name":"buyGood","inputs":[{"name":"_goodid1","type":"address","internalType":"address"},{"name":"_goodid2","type":"address","internalType":"address"},{"name":"_swapQuantity","type":"uint128","internalType":"uint128"},{"name":"_limitPrice","type":"uint256","internalType":"uint256"},{"name":"_istotal","type":"bool","internalType":"bool"},{"name":"_referal","type":"address","internalType":"address"}],"outputs":[{"name":"goodid2Quantity_","type":"uint128","internalType":"uint128"},{"name":"goodid2FeeQuantity_","type":"uint128","internalType":"uint128"}],"stateMutability":"payable"},{"type":"function","name":"buyGoodForPay","inputs":[{"name":"_goodid1","type":"address","internalType":"address"},{"name":"_goodid2","type":"address","internalType":"address"},{"name":"_swapQuantity","type":"uint128","internalType":"uint128"},{"name":"_limitPrice","type":"uint256","internalType":"uint256"},{"name":"_recipient","type":"address","internalType":"address"}],"outputs":[{"name":"goodid1Quantity_","type":"uint128","internalType":"uint128"},{"name":"goodid1FeeQuantity_","type":"uint128","internalType":"uint128"}],"stateMutability":"payable"},{"type":"function","name":"changeGoodOwner","inputs":[{"name":"_goodid","type":"address","internalType":"address"},{"name":"_to","type":"address","internalType":"address"}],"outputs":[],"stateMutability":"nonpayable"},{"type":"function","name":"changemarketcreator","inputs":[{"name":"_newmarketor","type":"address","internalType":"address"}],"outputs":[],"stateMutability":"nonpayable"},{"type":"function","name":"collectCommission","inputs":[{"name":"_goodid","type":"address[]","internalType":"address[]"}],"outputs":[],"stateMutability":"nonpayable"},{"type":"function","name":"collectProof","inputs":[{"name":"_proofid","type":"uint256","internalType":"uint256"},{"name":"_gater","type":"address","internalType":"address"}],"outputs":[{"name":"profit_","type":"uint256","internalType":"uint256"}],"stateMutability":"nonpayable"},{"type":"function","name":"delproofdata","inputs":[{"name":"proofid","type":"uint256","internalType":"uint256"},{"name":"from","type":"address","internalType":"address"},{"name":"to","type":"address","internalType":"address"}],"outputs":[],"stateMutability":"nonpayable"},{"type":"function","name":"disinvestProof","inputs":[{"name":"_proofid","type":"uint256","internalType":"uint256"},{"name":"_goodQuantity","type":"uint128","internalType":"uint128"},{"name":"_gater","type":"address","internalType":"address"}],"outputs":[{"name":"","type":"bool","internalType":"bool"}],"stateMutability":"nonpayable"},{"type":"function","name":"flashFee","inputs":[{"name":"token","type":"address","internalType":"address"},{"name":"amount","type":"uint256","internalType":"uint256"}],"outputs":[{"name":"","type":"uint256","internalType":"uint256"}],"stateMutability":"view"},{"type":"function","name":"flashLoan","inputs":[{"name":"receiver","type":"address","internalType":"contract IERC3156FlashBorrower"},{"name":"token","type":"address","internalType":"address"},{"name":"amount","type":"uint256","internalType":"uint256"},{"name":"data","type":"bytes","internalType":"bytes"}],"outputs":[{"name":"","type":"bool","internalType":"bool"}],"stateMutability":"nonpayable"},{"type":"function","name":"getGoodState","inputs":[{"name":"goodkey","type":"address","internalType":"address"}],"outputs":[{"name":"","type":"tuple","internalType":"struct S_GoodTmpState","components":[{"name":"goodConfig","type":"uint256","internalType":"uint256"},{"name":"owner","type":"address","internalType":"address"},{"name":"currentState","type":"uint256","internalType":"uint256"},{"name":"investState","type":"uint256","internalType":"uint256"},{"name":"feeQuantityState","type":"uint256","internalType":"uint256"}]}],"stateMutability":"view"},{"type":"function","name":"getProofState","inputs":[{"name":"proofid","type":"uint256","internalType":"uint256"}],"outputs":[{"name":"","type":"tuple","internalType":"struct S_ProofState","components":[{"name":"currentgood","type":"address","internalType":"address"},{"name":"valuegood","type":"address","internalType":"address"},{"name":"state","type":"uint256","internalType":"uint256"},{"name":"invest","type":"uint256","internalType":"uint256"},{"name":"valueinvest","type":"uint256","internalType":"uint256"}]}],"stateMutability":"view"},{"type":"function","name":"goodWelfare","inputs":[{"name":"goodid","type":"address","internalType":"address"},{"name":"welfare","type":"uint128","internalType":"uint128"}],"outputs":[],"stateMutability":"payable"},{"type":"function","name":"initGood","inputs":[{"name":"_valuegood","type":"address","internalType":"address"},{"name":"_initial","type":"uint256","internalType":"uint256"},{"name":"_erc20address","type":"address","internalType":"address"},{"name":"_goodConfig","type":"uint256","internalType":"uint256"}],"outputs":[{"name":"","type":"bool","internalType":"bool"}],"stateMutability":"payable"},{"type":"function","name":"initMetaGood","inputs":[{"name":"_erc20address","type":"address","internalType":"address"},{"name":"_initial","type":"uint256","internalType":"uint256"},{"name":"_goodConfig","type":"uint256","internalType":"uint256"}],"outputs":[{"name":"","type":"bool","internalType":"bool"}],"stateMutability":"payable"},{"type":"function","name":"investGood","inputs":[{"name":"_togood","type":"address","internalType":"address"},{"name":"_valuegood","type":"address","internalType":"address"},{"name":"_quantity","type":"uint128","internalType":"uint128"}],"outputs":[{"name":"","type":"bool","internalType":"bool"}],"stateMutability":"payable"},{"type":"function","name":"ishigher","inputs":[{"name":"goodid","type":"address","internalType":"address"},{"name":"valuegood","type":"address","internalType":"address"},{"name":"compareprice","type":"uint256","internalType":"uint256"}],"outputs":[{"name":"","type":"bool","internalType":"bool"}],"stateMutability":"view"},{"type":"function","name":"marketconfig","inputs":[],"outputs":[{"name":"","type":"uint256","internalType":"uint256"}],"stateMutability":"view"},{"type":"function","name":"marketcreator","inputs":[],"outputs":[{"name":"","type":"address","internalType":"address"}],"stateMutability":"view"},{"type":"function","name":"maxFlashLoan","inputs":[{"name":"good","type":"address","internalType":"address"}],"outputs":[{"name":"","type":"uint256","internalType":"uint256"}],"stateMutability":"view"},{"type":"function","name":"modifyGoodConfig","inputs":[{"name":"_goodid","type":"address","internalType":"address"},{"name":"_goodConfig","type":"uint256","internalType":"uint256"}],"outputs":[{"name":"","type":"bool","internalType":"bool"}],"stateMutability":"nonpayable"},{"type":"function","name":"payGood","inputs":[{"name":"_goodid","type":"address","internalType":"address"},{"name":"_payquanity","type":"uint256","internalType":"uint256"},{"name":"_recipent","type":"address","internalType":"address"}],"outputs":[{"name":"","type":"bool","internalType":"bool"}],"stateMutability":"payable"},{"type":"function","name":"proofmapping","inputs":[{"name":"proofkey","type":"uint256","internalType":"uint256"}],"outputs":[{"name":"proofid","type":"uint256","internalType":"uint256"}],"stateMutability":"view"},{"type":"function","name":"queryCommission","inputs":[{"name":"_goodid","type":"address[]","internalType":"address[]"},{"name":"_recipent","type":"address","internalType":"address"}],"outputs":[{"name":"","type":"uint256[]","internalType":"uint256[]"}],"stateMutability":"view"},{"type":"function","name":"removeMarketor","inputs":[{"name":"_user","type":"address","internalType":"address"}],"outputs":[],"stateMutability":"nonpayable"},{"type":"function","name":"removebanlist","inputs":[{"name":"_user","type":"address","internalType":"address"}],"outputs":[{"name":"","type":"bool","internalType":"bool"}],"stateMutability":"nonpayable"},{"type":"function","name":"setMarketConfig","inputs":[{"name":"_marketconfig","type":"uint256","internalType":"uint256"}],"outputs":[{"name":"","type":"bool","internalType":"bool"}],"stateMutability":"nonpayable"},{"type":"function","name":"setMarketor","inputs":[{"name":"_newmarketor","type":"address","internalType":"address"}],"outputs":[],"stateMutability":"nonpayable"},{"type":"function","name":"takeLimitOrder","inputs":[{"name":"_inputParams","type":"tuple","internalType":"struct S_takeGoodInputPrams","components":[{"name":"fromerc20","type":"address","internalType":"address"},{"name":"toerc20","type":"address","internalType":"address"},{"name":"swapQuantity","type":"uint256","internalType":"uint256"},{"name":"sender","type":"address","internalType":"address"}]},{"name":"_tolerance","type":"uint96","internalType":"uint96"},{"name":"_takecaller","type":"address","internalType":"address"}],"outputs":[{"name":"_isSuccess","type":"bool","internalType":"bool"}],"stateMutability":"payable"},{"type":"function","name":"updateGoodConfig","inputs":[{"name":"_goodid","type":"address","internalType":"address"},{"name":"_goodConfig","type":"uint256","internalType":"uint256"}],"outputs":[{"name":"","type":"bool","internalType":"bool"}],"stateMutability":"nonpayable"},{"type":"function","name":"userConfig","inputs":[{"name":"","type":"address","internalType":"address"}],"outputs":[{"name":"","type":"uint256","internalType":"uint256"}],"stateMutability":"view"},{"type":"event","name":"e_buyGood","inputs":[{"name":"sellgood","type":"address","indexed":true,"internalType":"address"},{"name":"forgood","type":"address","indexed":true,"internalType":"address"},{"name":"fromer","type":"address","indexed":false,"internalType":"address"},{"name":"swapvalue","type":"uint128","indexed":false,"internalType":"uint128"},{"name":"sellgoodstate","type":"uint256","indexed":false,"internalType":"uint256"},{"name":"forgoodstate","type":"uint256","indexed":false,"internalType":"uint256"}],"anonymous":false},{"type":"event","name":"e_buyGoodForPay","inputs":[{"name":"buygood","type":"address","indexed":true,"internalType":"address"},{"name":"usegood","type":"address","indexed":true,"internalType":"address"},{"name":"fromer","type":"address","indexed":false,"internalType":"address"},{"name":"receipt","type":"address","indexed":false,"internalType":"address"},{"name":"swapvalue","type":"uint128","indexed":false,"internalType":"uint128"},{"name":"buygoodstate","type":"uint256","indexed":false,"internalType":"uint256"},{"name":"usegoodstate","type":"uint256","indexed":false,"internalType":"uint256"}],"anonymous":false},{"type":"event","name":"e_changegoodowner","inputs":[{"name":"goodid","type":"address","indexed":false,"internalType":"address"},{"name":"to","type":"address","indexed":false,"internalType":"address"}],"anonymous":false},{"type":"event","name":"e_changemarketcreator","inputs":[{"name":"_newmarketor","type":"address","indexed":false,"internalType":"address"}],"anonymous":false},{"type":"event","name":"e_collectProof","inputs":[{"name":"_proofNo","type":"uint256","indexed":true,"internalType":"uint256"},{"name":"_normalGoodNo","type":"address","indexed":false,"internalType":"address"},{"name":"_valueGoodNo","type":"address","indexed":false,"internalType":"address"},{"name":"_profit","type":"uint256","indexed":false,"internalType":"uint256"}],"anonymous":false},{"type":"event","name":"e_collectProtocolFee","inputs":[{"name":"goodid","type":"address","indexed":false,"internalType":"address"},{"name":"feeamount","type":"uint256","indexed":false,"internalType":"uint256"}],"anonymous":false},{"type":"event","name":"e_collectcommission","inputs":[{"name":"_gooid","type":"address[]","indexed":false,"internalType":"address[]"},{"name":"_commisionamount","type":"uint256[]","indexed":false,"internalType":"uint256[]"}],"anonymous":false},{"type":"event","name":"e_disinvestProof","inputs":[{"name":"_proofNo","type":"uint256","indexed":true,"internalType":"uint256"},{"name":"_normalGoodNo","type":"address","indexed":false,"internalType":"address"},{"name":"_valueGoodNo","type":"address","indexed":false,"internalType":"address"},{"name":"_value","type":"uint256","indexed":false,"internalType":"uint256"},{"name":"_normalgood","type":"uint256","indexed":false,"internalType":"uint256"},{"name":"_valuegood","type":"uint256","indexed":false,"internalType":"uint256"},{"name":"_profit","type":"uint256","indexed":false,"internalType":"uint256"}],"anonymous":false},{"type":"event","name":"e_enpower","inputs":[{"name":"_goodid","type":"uint256","indexed":false,"internalType":"uint256"},{"name":"_valuegood","type":"uint256","indexed":false,"internalType":"uint256"},{"name":"_quantity","type":"uint256","indexed":false,"internalType":"uint256"}],"anonymous":false},{"type":"event","name":"e_goodWelfare","inputs":[{"name":"goodid","type":"address","indexed":false,"internalType":"address"},{"name":"welfare","type":"uint128","indexed":false,"internalType":"uint128"}],"anonymous":false},{"type":"event","name":"e_initGood","inputs":[{"name":"_proofNo","type":"uint256","indexed":false,"internalType":"uint256"},{"name":"_goodid","type":"address","indexed":false,"internalType":"address"},{"name":"_valuegoodNo","type":"address","indexed":false,"internalType":"address"},{"name":"_goodConfig","type":"uint256","indexed":false,"internalType":"uint256"},{"name":"_construct","type":"uint256","indexed":false,"internalType":"uint256"},{"name":"_normalinitial","type":"uint256","indexed":false,"internalType":"uint256"},{"name":"_value","type":"uint256","indexed":false,"internalType":"uint256"}],"anonymous":false},{"type":"event","name":"e_initMetaGood","inputs":[{"name":"_proofNo","type":"uint256","indexed":false,"internalType":"uint256"},{"name":"_goodid","type":"address","indexed":false,"internalType":"address"},{"name":"_construct","type":"uint256","indexed":false,"internalType":"uint256"},{"name":"_goodConfig","type":"uint256","indexed":false,"internalType":"uint256"},{"name":"_initial","type":"uint256","indexed":false,"internalType":"uint256"}],"anonymous":false},{"type":"event","name":"e_investGood","inputs":[{"name":"_proofNo","type":"uint256","indexed":true,"internalType":"uint256"},{"name":"_normalgoodid","type":"address","indexed":false,"internalType":"address"},{"name":"_valueGoodNo","type":"address","indexed":false,"internalType":"address"},{"name":"_value","type":"uint256","indexed":false,"internalType":"uint256"},{"name":"_invest","type":"uint256","indexed":false,"internalType":"uint256"},{"name":"_valueinvest","type":"uint256","indexed":false,"internalType":"uint256"}],"anonymous":false},{"type":"event","name":"e_modifiedUserConfig","inputs":[{"name":"_user","type":"address","indexed":false,"internalType":"address"},{"name":"config","type":"uint256","indexed":false,"internalType":"uint256"}],"anonymous":false},{"type":"event","name":"e_modifyGoodConfig","inputs":[{"name":"_goodid","type":"address","indexed":false,"internalType":"address"},{"name":"_goodconfig","type":"uint256","indexed":false,"internalType":"uint256"}],"anonymous":false},{"type":"event","name":"e_setMarketConfig","inputs":[{"name":"_marketconfig","type":"uint256","indexed":false,"internalType":"uint256"}],"anonymous":false},{"type":"event","name":"e_transferdel","inputs":[{"name":"delproofid","type":"uint256","indexed":false,"internalType":"uint256"},{"name":"existsproofid","type":"uint256","indexed":false,"internalType":"uint256"}],"anonymous":false},{"type":"event","name":"e_updateGoodConfig","inputs":[{"name":"_goodid","type":"address","indexed":false,"internalType":"address"},{"name":"_goodConfig","type":"uint256","indexed":false,"internalType":"uint256"}],"anonymous":false},{"type":"error","name":"ERC20TransferFailed","inputs":[]},{"type":"error","name":"ERC3156ExceededMaxLoan","inputs":[{"name":"maxLoan","type":"uint256","internalType":"uint256"}]},{"type":"error","name":"ERC3156InvalidReceiver","inputs":[{"name":"receiver","type":"address","internalType":"address"}]},{"type":"error","name":"ERC3156UnsupportedToken","inputs":[{"name":"token","type":"address","internalType":"address"}]},{"type":"error","name":"NativeTransferFailed","inputs":[]},{"type":"error","name":"noEnoughOutputError","inputs":[]}],"bytecode":{"object":"0x60e060405234801561000f575f80fd5b50604051615cb3380380615cb383398101604081905261002e91610085565b6001600160a01b0393841660805291831660a0525f9390935591811660c052600580546001600160a01b031916929091169190911790556100df565b80516001600160a01b0381168114610080575f80fd5b919050565b5f805f805f60a08688031215610099575f80fd5b855194506100a96020870161006a565b93506100b76040870161006a565b92506100c56060870161006a565b91506100d36080870161006a565b90509295509295909350565b60805160a05160c051615b4861016b5f395f613c0201525f818161094701528181610edd015281816110f4015281816119f101528181611f030152818161226a015261290f01525f8181610a4501528181610f1d01528181611017015281816113b701528181611b6701528181611fa101528181612320015281816129fa0152612c940152615b485ff3fe6080604052600436106101f4575f3560e01c80635f35b0b311610117578063a676a600116100ac578063cc00da2d1161007c578063e9044db611610062578063e9044db614610667578063f4662f201461067a578063f4970aaa14610699575f80fd5b8063cc00da2d14610629578063d9d98ce414610648575f80fd5b8063a676a600146105ac578063b153b920146105cb578063b1efb921146105ea578063c2ed2bc014610609575f80fd5b806397924ead116100e757806397924ead1461052f5780639b22279414610542578063a06ad0e81461056e578063a3b74a491461058d575f80fd5b80635f35b0b3146104b3578063613255ab146104de578063629fa704146104fd5780639551177a14610510575f80fd5b80633f1177401161018d57806346f74c1a1161015d57806346f74c1a146104235780635cffe9de146104565780635dd7e4ae146104755780635e008cc414610488575f80fd5b80633f11774014610351578063402f5ab5146103c357806341e12373146103e557806345818e4c14610404575f80fd5b80631412723a116101c85780631412723a146102c95780631faa5a56146102e8578063328ecd96146103075780633d9951731461031a575f80fd5b80620ce2e0146101f857806308238466146102205780630d2700ab14610289578063102e5c27146102aa575b5f80fd5b61020b61020636600461508a565b6106ac565b60405190151581526020015b60405180910390f35b34801561022b575f80fd5b5061023f61023a3660046150d2565b610b2d565b60405161021791905f60a082019050825182526001600160a01b03602084015116602083015260408301516040830152606083015160608301526080830151608083015292915050565b348015610294575f80fd5b506102a86102a33660046151c8565b610bc0565b005b3480156102b5575f80fd5b506102a86102c43660046150d2565b610e23565b3480156102d4575f80fd5b5061020b6102e33660046151fa565b610e95565b3480156102f3575f80fd5b506102a8610302366004615238565b610ed2565b61020b61031536600461526c565b61119c565b348015610325575f80fd5b50600554610339906001600160a01b031681565b6040516001600160a01b039091168152602001610217565b34801561035c575f80fd5b5061037061036b3660046152a0565b6111e6565b60405161021791905f60a0820190506001600160a01b0383511682526001600160a01b03602084015116602083015260408301516040830152606083015160608301526080830151608083015292915050565b3480156103ce575f80fd5b506103d75f5481565b604051908152602001610217565b3480156103f0575f80fd5b506102a86103ff3660046152b7565b61127e565b34801561040f575f80fd5b5061020b61041e3660046152a0565b6112fe565b6104366104313660046152fb565b611357565b604080516001600160801b03938416815292909116602083015201610217565b348015610461575f80fd5b5061020b6104703660046153b5565b6116a0565b61020b610483366004615423565b611809565b348015610493575f80fd5b506103d76104a23660046152a0565b60026020525f908152604090205481565b3480156104be575f80fd5b506103d76104cd3660046150d2565b60046020525f908152604090205481565b3480156104e9575f80fd5b506103d76104f83660046150d2565b611c2b565b6102a861050b366004615468565b611c45565b34801561051b575f80fd5b5061020b61052a3660046150d2565b611d76565b61020b61053d366004615494565b611de6565b34801561054d575f80fd5b5061056161055c3660046154c6565b61203a565b6040516102179190615544565b348015610579575f80fd5b506102a86105883660046150d2565b612129565b348015610598575f80fd5b5061020b6105a7366004615556565b61218d565b3480156105b7575f80fd5b506103d76105c6366004615580565b612223565b3480156105d6575f80fd5b5061020b6105e53660046150d2565b6125ab565b3480156105f5575f80fd5b5061020b610604366004615556565b61261a565b61061c6106173660046155be565b612694565b604051610217919061563a565b348015610634575f80fd5b506102a86106433660046150d2565b6127ed565b348015610653575f80fd5b506103d7610662366004615556565b612859565b61020b6106753660046156fc565b612887565b348015610685575f80fd5b5061020b610694366004615736565b6128c8565b6104366106a736600461575a565b612d7b565b5f6001600160a01b035f80516020615af38339815191525c16156106ce575f80fd5b6106d733612fed565b60408051608080820183525f808352602080840182905283850182905260608085018390528551938401865282845283820183905283860183905283018290526001600160a01b03891682526001905292909220600201549091906d20000000000000000000000000009061074d9086906157c4565b6001600160801b0316111580156107765750846001600160a01b0316866001600160a01b031614155b80156107c457506001600160a01b0386165f90815260016020526040902054600160ff1b161515806107c457506001600160a01b0385165f90815260016020526040902054600160ff1b1615155b6107cc575f80fd5b6001600160a01b0386165f9081526001602052604090206107ee908584613000565b61080b6001600160a01b038716336001600160801b038716613131565b6001600160a01b038516156108c8576040808301516001600160a01b0387165f9081526001602052919091206002015461084491613144565b6001600160801b0316606082018190526001600160a01b0386165f9081526001602052604090205460d91c603f16612710908103909104026001600160801b0316606082018190526108a2906001600160a01b038716903390613131565b60608101516001600160a01b0386165f9081526001602052604090206108c89183613000565b5f6109076040518060600160405280336001600160a01b03168152602001896001600160a01b03168152602001886001600160a01b0316815250613174565b5f818152600260205260408120549192508190036109b757610928826131c7565b6040516340c10f1960e01b8152336004820152602481018290529091507f00000000000000000000000000000000000000000000000000000000000000006001600160a01b0316906340c10f19906044015f604051808303815f87803b158015610990575f80fd5b505af11580156109a2573d5f803e3d5ffd5b5050505f838152600260205260409020829055505b6040840151610a12908990899060801b602088015160608901516001600160801b031660809190911b17602088015160608901516001600160801b031660809190911b175f87815260036020526040902094939291906131ea565b5f6001600160a01b03881615610a37576040850151610a329060026157e3565b610a3d565b84604001515b90505f610a6b7f00000000000000000000000000000000000000000000000000000000000000003384613288565b9050827fee89c9fd704272905456294f1b2b88581ebe0241f72c15b4f3db31d19388f6af8b8b610aaf8a604001518660809190911b6001600160801b039091161790565b8a5160608c01516001600160801b031660809190911b178a5160608c01516001600160801b031660809190911b17604080516001600160a01b039687168152959094166020860152928401919091526060830152608082015260a00160405180910390a260019650505050505050610b265f612fed565b9392505050565b610b636040518060a001604052805f81526020015f6001600160a01b031681526020015f81526020015f81526020015f81525090565b506040805160a0810182526001600160a01b039283165f8181526001602081815285832080548652808301549097168186015260028701549585019590955260038601546060850152919052909152600490910154608082015290565b6064815110610bcd575f80fd5b5f815167ffffffffffffffff811115610be857610be86150ed565b604051908082528060200260200182016040528015610c11578160200160208202803683370190505b5090505f5b8251811015610de55760015f848381518110610c3457610c3461580c565b60200260200101516001600160a01b03166001600160a01b031681526020019081526020015f206005015f336001600160a01b03166001600160a01b031681526020019081526020015f2054828281518110610c9257610c9261580c565b6020026020010181815250506002828281518110610cb257610cb261580c565b60200260200101511015610ce4575f828281518110610cd357610cd361580c565b602002602001018181525050610ddd565b6001828281518110610cf857610cf861580c565b6020026020010151610d0a9190615820565b828281518110610d1c57610d1c61580c565b6020026020010181815250506001805f858481518110610d3e57610d3e61580c565b60200260200101516001600160a01b03166001600160a01b031681526020019081526020015f206005015f336001600160a01b03166001600160a01b031681526020019081526020015f2081905550610ddd33838381518110610da357610da361580c565b6020026020010151858481518110610dbd57610dbd61580c565b60200260200101516001600160a01b03166133039092919063ffffffff16565b600101610c16565b507f477bb716eacccc001de50dcdd6e25241283d080e6afb27443908b20f4e738b5e8282604051610e17929190615833565b60405180910390a15050565b6005546001600160a01b03163314610e39575f80fd5b6001600160a01b0381165f818152600460209081526040918290208054600217908190558251938452908301527f5d72191643a9d630c58937d62f5e056dcfa8dbf1aced1cb2f655ee1d7ecaf57791015b60405180910390a150565b6001600160a01b038084165f90815260016020526040808220600290810154938616835290822001549091610eca9184613398565b949350505050565b336001600160a01b037f00000000000000000000000000000000000000000000000000000000000000001614610f06575f80fd5b5f83815260036020526040902060020154610f47907f000000000000000000000000000000000000000000000000000000000000000090849060801c613423565b5f838152600360208181526040808420815160a08101835281546001600160a01b039081168252600183015481168286019081526002840154838601529583015460608084019190915260049093015460808301528351928301845288811683528151811694830194909452935190921690820152909190610fc890613174565b90505f6110106040518060600160405280866001600160a01b03168152602001855f01516001600160a01b0316815260200185602001516001600160a01b0316815250613174565b905061104a7f000000000000000000000000000000000000000000000000000000000000000085611045866040015160801c90565b613288565b505f818152600260205260408120549081900361107b575f8381526002602052604080822054848352912055611186565b5f8781526003602052604080822083835291206110979161348d565b5f87815260036020819052604080832080546001600160a01b031990811682556001820180549091169055600281018490559182018390556004918201929092559051630852cd8d60e31b81529081018890526001600160a01b037f000000000000000000000000000000000000000000000000000000000000000016906342966c68906024015f604051808303815f87803b158015611135575f80fd5b505af1158015611147573d5f803e3d5ffd5b5050604080518a8152602081018590527f335d27656e7f9578ae51244b214940ee63a03fbed3788497ee4237a186aad1e4935001905060405180910390a15b50505f9081526002602052604081205550505050565b5f5f196001600160a01b038516016111c7576111c26001600160a01b0385168385613303565b6111dc565b6111dc6001600160a01b0385163384866134df565b5060019392505050565b6112256040518060a001604052805f6001600160a01b031681526020015f6001600160a01b031681526020015f81526020015f81526020015f81525090565b505f90815260036020818152604092839020835160a08101855281546001600160a01b03908116825260018301541692810192909252600281015493820193909352908201546060820152600490910154608082015290565b335f90815260046020526040902054600216611298575f80fd5b6001600160a01b038281165f8181526001602081815260409283902090910180546001600160a01b031916948616948517905581519283528201929092527f42e3c955499470d3dc1078d90519d90691c504c8856ea058daf2c1436c2dab4c9101610e17565b6005545f906001600160a01b03163314611316575f80fd5b5f8290556040518281527fbd209961024f2694b0afb3c8badd20b6477abb77b336b16892c3fa4b906d323c906020015b60405180910390a15060015b919050565b5f806001600160a01b035f80516020615af38339815191525c161561137a575f80fd5b61138333612fed565b6001600160a01b0383161561140f576040516376549e6760e11b81523360048201526001600160a01b0384811660248301527f0000000000000000000000000000000000000000000000000000000000000000169063eca93cce906044015f604051808303815f87803b1580156113f8575f80fd5b505af115801561140a573d5f803e3d5ffd5b505050505b60408051610100810182526001600160801b03881681525f6020808301829052828401829052606083018290526001600160a01b03808d16835260018083528584206002808201546080880152905460a0870152918d168085528184529584209182015460c08601529490925292909252905460e08201526114918187613587565b5f876001600160801b03161180156114be5750866001600160801b0316815f01516001600160801b031614155b80156114dc5750876001600160a01b0316896001600160a01b031614155b8015611500575060018515151480156114fe575080516001600160801b031615155b155b611508575f80fd5b602081015160e0820151611530916001600160801b031661271060cc9290921c607f16020490565b91508181602001516115429190615893565b60808201516040808401516001600160a01b038d165f90815260016020529190912092955061157292919061389d565b60c08101516001600160a01b0389165f908152600160205260409020611598918461389d565b80516115c49033906115aa908a615893565b6001600160a01b038c1691906001600160801b0316613131565b6115e16001600160a01b038916336001600160801b038616613303565b876001600160a01b0316896001600160a01b03167fe9174eb0d60b5dfcb132e979d11319f32d4a3ebdbf5abbb9600950c1cf8fab5b338460600151611646865f01518d61162e9190615893565b60408801516001600160801b031660809190911b1790565b6001600160801b03881660808a901b17604080516001600160a01b0390951685526001600160801b03909316602085015291830152606082015260800160405180910390a3506116955f612fed565b965096945050505050565b5f806116ab86611c2b565b9050808511156116d65760405163fd9a760960e01b8152600481018290526024015b60405180910390fd5b5f6116e18787612859565b90506116f76001600160a01b0388168988613303565b6040516323e30c8b60e01b81527f439148f0bbc682ca079e46d6e2c2f0c1e3b820f1a291b069d8882abf8cf18dd9906001600160a01b038a16906323e30c8b9061174f9033908c908c9088908d908d906004016158b2565b6020604051808303815f875af115801561176b573d5f803e3d5ffd5b505050506040513d601f19601f8201168201806040525081019061178f919061590e565b146117b75760405162678c5b60e81b81526001600160a01b03891660048201526024016116cd565b6117d888306117c6848a615925565b6001600160a01b038b169291906134df565b6001600160a01b0387165f9081526001602052604090206117f990826138c4565b6001925050505b95945050505050565b5f6001600160a01b035f80516020615af38339815191525c161561182b575f80fd5b61183433612fed565b6001600160a01b038381165f90815260016020819052604090912001541615801561187b57506001600160a01b0385165f90815260016020526040902054600160ff1b1615155b611883575f80fd5b6118ab336118918660801c90565b6001600160a01b03861691906001600160801b0316613131565b6118c86001600160a01b038616336001600160801b038716613131565b604080516080810182525f8082526020808301829052828401829052606083018290526001600160a01b0389168252600190529190912061190a908683613000565b61197a611932826040015161191f8860801c90565b6001600160801b031660809190911b1790565b6001600160a01b0386165f90815260016020526040902090856002830182905560038301919091556001600160e51b0316815560010180546001600160a01b03191633179055565b5f6119b96040518060600160405280336001600160a01b03168152602001876001600160a01b03168152602001896001600160a01b0316815250613174565b90506119c4816131c7565b5f8281526002602052604090819020829055516340c10f1960e01b815233600482015260248101919091527f00000000000000000000000000000000000000000000000000000000000000006001600160a01b0316906340c10f19906044015f604051808303815f87803b158015611a3a575f80fd5b505af1158015611a4c573d5f803e3d5ffd5b50506040805160a0810182526001600160a01b03808a1682528b16602082015285820151909350908301915060801b8152602001611a8a8860801c90565b6001600160801b03168152602001611aba8460200151856060015160809190911b6001600160801b039091161790565b90525f828152600260208181526040808420805485526003808452828620875181546001600160a01b039182166001600160a01b0319918216178355898701516001840180549190931691161790558784015181870155606088015191810191909155608090960151600490960195909555928590528190529154908401517f3fc0293a5a7bc73de220f0814bbbebc31e77ffcd41bf5e8be187471747bd7caa9288918b918991611b93917f000000000000000000000000000000000000000000000000000000000000000091339161104591906157e3565b611bb8611ba08d60801c90565b60408a01516001600160801b031660809190911b1790565b885160608a01516001600160801b031660809190911b17604080519788526001600160a01b039687166020890152949095169386019390935260608501919091526001600160801b0316608084015260a083015260c082015260e00160405180910390a1600192505050610eca5f612fed565b5f611c3f6001600160a01b038316306138fd565b92915050565b6001600160a01b035f80516020615af38339815191525c1615611c66575f80fd5b611c6f33612fed565b6001600160a01b0382165f908152600160205260409020600401546d200000000000000000000000000090611ca890839060801c6157c4565b6001600160801b03161115611cbb575f80fd5b611cd86001600160a01b038316336001600160801b038416613131565b6001600160a01b0382165f90815260016020526040902060040154611d0690608083901b613988565b613988565b6001600160a01b0383165f818152600160209081526040918290206004019390935580519182526001600160801b038416928201929092527f0dc5e2150c5754dc0bcd8d76ca2d23850fc9a2a3115c69bb4fbdbedc25074a00910160405180910390a1611d725f612fed565b5050565b335f90815260046020526040812054600216611d90575f80fd5b6001600160a01b0382165f81815260046020908152604091829020805460011916908190558251938452908301527f5d72191643a9d630c58937d62f5e056dcfa8dbf1aced1cb2f655ee1d7ecaf5779101611346565b6005545f906001600160a01b03163314611dfe575f80fd5b600160ff1b8216611e0d575f80fd5b611e2a6001600160a01b038516336001600160801b038616613131565b6001600160a01b0384165f908152600160205260409020611e769084846002830182905560038301919091556001600160e51b0316815560010180546001600160a01b03191633179055565b6001600160a01b0384165f908152600160205260409020611e9c906401000000006139b7565b604080516060810182523381526001600160a01b03861660208201525f918101829052611ec890613174565b90505f611ed4826131c7565b5f8381526002602052604090819020829055516340c10f1960e01b8152336004820152602481018290529091507f00000000000000000000000000000000000000000000000000000000000000006001600160a01b0316906340c10f19906044015f604051808303815f87803b158015611f4c575f80fd5b505af1158015611f5e573d5f803e3d5ffd5b50505050611f9b865f611f7a611f748960801c90565b60801b90565b885f868152600360205260408120949392916001600160801b0316906131ea565b5f611fcb7f0000000000000000000000000000000000000000000000000000000000000000336110458960801c90565b604080518481526001600160a01b038a1660208201526001600160801b03831681830152606081018890526080810189905290519192507f8f2eb922ee1b2f92e0051f7949a8c191264807725a1e435e91abebd28583830a919081900360a00190a15060019695505050505050565b60606064835110612049575f80fd5b5f835167ffffffffffffffff811115612064576120646150ed565b60405190808252806020026020018201604052801561208d578160200160208202803683370190505b5090505f5b84518110156121215760015f8683815181106120b0576120b061580c565b60200260200101516001600160a01b03166001600160a01b031681526020019081526020015f206005015f856001600160a01b03166001600160a01b031681526020019081526020015f205482828151811061210e5761210e61580c565b6020908102919091010152600101612092565b509392505050565b6005546001600160a01b0316331461213f575f80fd5b600580546001600160a01b0319166001600160a01b0383169081179091556040519081527fa8d3850ce581f2add46670c1408b76ca1d0d4ef627eed4a89802ff670940082d90602001610e8a565b6001600160a01b038281165f9081526001602081905260408220015490911633146121b6575f80fd5b6001600160a01b0383165f9081526001602052604090206121d790836139f6565b604080516001600160a01b0385168152602081018490527f075a13b9dbfb2e30d678551b8c2a4f9ede7468ca5273fa902a41d0e57756666991015b60405180910390a150600192915050565b5f6001600160a01b035f80516020615af38339815191525c1615612245575f80fd5b61224e33612fed565b60405163430c208160e01b8152336004820152602481018490527f00000000000000000000000000000000000000000000000000000000000000006001600160a01b03169063430c2081906044016020604051808303815f875af11580156122b8573d5f803e3d5ffd5b505050506040513d601f19601f820116820180604052508101906122dc9190615938565b6122e4575f80fd5b5f8381526003602052604080822060018101549054915163b88e6d6360e01b81523360048201526001600160a01b0391821693928216929182917f00000000000000000000000000000000000000000000000000000000000000009091169063b88e6d63906024016040805180830381865afa158015612366573d5f803e3d5ffd5b505050506040513d601f19601f8201168201806040525081019061238a9190615953565b6001600160a01b0388165f9081526004602052604090205491935091506001166123b457856123b6565b815b9550806001600160a01b0316866001600160a01b0316146123d757806123d9565b815b6001600160a01b0381165f908152600460205260409020549091506001166124015781612403565b805b6001600160a01b038086165f9081526001602081815260408084208d8552600383528185208554968b1686529390925290922093945061244893928a90869088613a31565b6001600160a01b0384165f908152600160208181526040808420338552600501909152909120549196508111156124c5576001600160a01b0384165f9081526001602081815260408084203380865260059091019092529092208190556124c591906124b49084615820565b6001600160a01b0387169190613303565b6001600160a01b0385161561255057506001600160a01b0384165f9081526001602081815260408084203385526005019091529091205490811115612550576001600160a01b0385165f908152600160208181526040808420338086526005909101909252909220819055612550919061253f9084615820565b6001600160a01b0388169190613303565b604080516001600160a01b0380871682528716602082015290810187905288907f1129f35303e34d7efabdbd85614ed662beb4fc6942852b7a3e5a4f92074cbf319060600160405180910390a25050505050611c3f5f612fed565b335f908152600460205260408120546002166125c5575f80fd5b6001600160a01b0382165f818152600460209081526040918290208054600117908190558251938452908301527f5d72191643a9d630c58937d62f5e056dcfa8dbf1aced1cb2f655ee1d7ecaf5779101611346565b335f90815260046020526040812054600216612634575f80fd5b6001600160a01b0383165f90815260016020526040902061265590836139b7565b604080516001600160a01b0385168152602081018490527fe40cf68f61d9a4e510244481f5aa34ba68de31cf3f9aa360604d688115d640c89101612212565b60606001600160a01b035f80516020615af38339815191525c16156126b7575f80fd5b6126c033612fed565b5f8260ff1667ffffffffffffffff8111156126dd576126dd6150ed565b60405190808252806020026020018201604052801561272d57816020015b604080516080810182525f8082526020808301829052928201819052606082015282525f199092019101816126fb5790505b50905061273c86880188615980565b90505f8360ff1667ffffffffffffffff81111561275b5761275b6150ed565b604051908082528060200260200182016040528015612784578160200160208202803683370190505b5090505f5b82518110156127e0576127b68382815181106127a7576127a761580c565b60200260200101518888613b22565b8282815181106127c8576127c861580c565b91151560209283029190910190910152600101612789565b509150506118005f612fed565b6005546001600160a01b03163314612803575f80fd5b6001600160a01b0381165f81815260046020908152604091829020805460021916908190558251938452908301527f5d72191643a9d630c58937d62f5e056dcfa8dbf1aced1cb2f655ee1d7ecaf5779101610e8a565b6001600160a01b0382165f90815260016020526040812054610b26908361271060df9290921c603f16020490565b5f6001600160a01b035f80516020615af38339815191525c16156128a9575f80fd5b6128b233612fed565b6128bd848484613b22565b9050610b265f612fed565b5f6001600160a01b035f80516020615af38339815191525c16156128ea575f80fd5b6128f333612fed565b60405163430c208160e01b8152336004820152602481018590527f00000000000000000000000000000000000000000000000000000000000000006001600160a01b03169063430c2081906044016020604051808303815f875af115801561295d573d5f803e3d5ffd5b505050506040513d601f19601f820116820180604052508101906129819190615938565b612989575f80fd5b60408051606080820183525f808352602080840182905283850182905284519283018552818352828101829052828501829052888252600390528381208054600190910154945163b88e6d6360e01b8152336004820152939492936001600160a01b039182169382169291829182917f0000000000000000000000000000000000000000000000000000000000000000169063b88e6d63906024016040805180830381865afa158015612a3e573d5f803e3d5ffd5b505050506040513d601f19601f82011682018060405250810190612a629190615953565b6001600160a01b038b165f908152600460205260409020549193509150600116612a8c5781612a8e565b885b9850806001600160a01b0316896001600160a01b031614612aaf5780612ab1565b815b6001600160a01b0381165f90815260046020526040902054909150600116612ad95781612adb565b805b9050612b9360015f866001600160a01b03166001600160a01b031681526020019081526020015f2060035f8e81526020019081526020015f206040518060a001604052808e6001600160801b031681526020018d6001600160a01b03168152602001856001600160a01b031681526020015f548152602001866001600160a01b031681525060015f8a6001600160a01b03166001600160a01b031681526020019081526020015f20613e7b909392919063ffffffff16565b6001600160a01b0388165f90815260016020818152604080842033855260050190915290912054939a509198509450811115612c15576001600160a01b0386165f908152600160208181526040808420338086526005909101909252909220819055612c159190612c049084615820565b6001600160a01b0389169190613303565b6001600160a01b03851615612c8f57506001600160a01b0384165f9081526001602081815260408084203385526005019091529091205490811115612c8f576001600160a01b0385165f908152600160208181526040808420338086526005909101909252909220819055612c8f919061253f9084615820565b612cba7f00000000000000000000000000000000000000000000000000000000000000003386613423565b8b7f63741ac8918076a6393e6e12659431a4927b53e16190a6b00af6a06697d868b88787608088901b60208d015160408e01516001600160801b031660809190911b1760208d015160408e01516001600160801b031660809190911b178e518e516001600160801b031660809190911b17604080516001600160a01b039788168152969095166020870152938501929092526060840152608083015260a082015260c00160405180910390a2600198505050505050505050610b265f612fed565b5f806001600160a01b035f80516020615af38339815191525c1615612d9e575f80fd5b612da733612fed565b60408051610100810182526001600160801b03871681525f6020808301829052828401829052606083018290526001600160a01b03808c16835260018083528584206002808201546080880152905460a0870152918c168085528184529584209182015460c08601529490925292909252905460e0820152612e298186614388565b866001600160a01b0316886001600160a01b031614158015612e53575080516001600160801b0316155b612e5b575f80fd5b602081015160a0820151612e83916001600160801b031661271060c59290921c607f16020490565b9150818160200151612e9591906157c4565b60c08201516040808401516001600160a01b038b165f908152600160205291909120929550612ec592919061389d565b60808101516001600160a01b0389165f908152600160205260409020612eeb918461389d565b612f1984826040015188612eff9190615893565b6001600160a01b038a1691906001600160801b0316613303565b612f366001600160a01b038916336001600160801b038616613131565b866001600160a01b0316886001600160a01b03167f6cf01bd7290ca456adc58f838641d629cb223064c72dabf9a6255d86a854762d33878560600151612f908c886040015160809190911b6001600160801b039091161790565b604080516001600160a01b0395861681529390941660208401526001600160801b03918216838501526060830152608089811b918916919091179082015290519081900360a00190a350612fe35f612fed565b9550959350505050565b805f80516020615af38339815191525d50565b8254613021906001600160801b03841661271060d99290921c603f16020490565b6001600160801b03168082526130379083615893565b6001600160801b0316606082018190526002840154613055916145c1565b6001600160801b031660408201526060810151600484015461308991906130839060801c600387015461191f565b906145c1565b6001600160801b031660208201819052600484015482516130ca92611d01916130b291906157c4565b60208501516001600160801b031660809190911b1790565b60048401556002830154604082015160608301516130f7929160801b6001600160801b0390911617613988565b6002840155600383015460408201516060830151613124929160801b6001600160801b0390911617613988565b8360030181905550505050565b3061313e848483856134df565b50505050565b5f610b26836001600160801b0316836001600160801b03166131668660801c90565b6001600160801b03166145e9565b6040805182516001600160a01b039081166020808401919091528401518116828401529183015190911660608201525f906080015b60408051601f19818403018152919052805160209091012092915050565b604080516020810183905230918101919091524260608201525f906080016131a9565b60038601546001600160801b03165f036132185785546001600160a01b0319166001600160a01b0386161786555b613226866002015484613988565b6002870155600386015461323a9083613988565b60038701556001600160a01b03841615613280576001860180546001600160a01b0319166001600160a01b038616179055600486015461327a9082613988565b60048701555b505050505050565b60405163067e356d60e21b81526001600160a01b0383811660048301526001600160801b03831660248301525f91908516906319f8d5b4906044016020604051808303815f875af11580156132df573d5f803e3d5ffd5b505050506040513d601f19601f82011682018060405250810190610eca9190615a11565b5f60016001600160a01b03851603613342575f805f8085875af190508061333d57604051633d2cec6f60e21b815260040160405180910390fd5b61313e565b60405163a9059cbb60e01b5f52836004528260245260205f60445f80895af13d15601f3d1160015f511416171691505f60605280604052508061313e57604051633c9fd93960e21b815260040160405180910390fd5b5f6133a38260801c90565b6001600160801b03166133b68460801c90565b6001600160801b0316856001600160801b03166133d39190615a2c565b6133dd9190615a2c565b826001600160801b0316846001600160801b03166133fb8760801c90565b6001600160801b031661340e9190615a2c565b6134189190615a2c565b116111dc575f610eca565b604051637bd3ca3560e01b81526001600160a01b0383811660048301526001600160801b0383166024830152841690637bd3ca35906044015f604051808303815f87803b158015613472575f80fd5b505af1158015613484573d5f803e3d5ffd5b50505050505050565b61349f82600201548260020154613988565b82600201819055506134b982600301548260030154613988565b82600301819055506134d382600401548260040154613988565b82600401819055505050565b5f60016001600160a01b038616036135165781341461351157604051633d2cec6f60e21b815260040160405180910390fd5b613580565b6040516323b872dd60e01b81526001600160a01b03851660048201526001600160a01b038416602482015282604482015260205f6064835f8a5af13d15601f3d1160015f51141617169150508061358057604051633c9fd93960e21b815260040160405180910390fd5b5050505050565b61359a82608001518360c0015183613398565b15611d7257815160a08301515f9182916135c8916001600160801b031661271060c59290921c607f16020490565b6001600160801b031660408501819052845185906135e7908390615893565b6001600160801b03169052505b83516001600160801b03161580159061361b575061361b84608001518560c0015185613398565b156138095761363c6136318560c0015160801c90565b60e0860151906145fa565b6001600160801b0316613661613656866080015160801c90565b60a0870151906145fa565b6001600160801b031610156136915761368c613681856080015160801c90565b60a0860151906145fa565b6136a2565b6136a26136318560c0015160801c90565b60808501519092506136b49083613144565b9050806001600160801b0316845f01516001600160801b031611156137665780845f018181516136e49190615893565b6001600160801b031690525060c08401516136ff9083613144565b8460200181815161371091906157c4565b6001600160801b0390811690915260808681015161373b93509184169085901b17614629565b614629565b608085015260c084015161375c906137578461191f8382613144565b61464f565b60c08501526137e6565b83516080850151613776916145c1565b60c08501519092506137889083613144565b8460200181815161379991906157c4565b6001600160801b0390811690915260808681015187516137c194509092169085901b17614629565b608085015260c08401516137dd906137578461191f8382613144565b60c08501525f84525b81846060018181516137f891906157c4565b6001600160801b03169052506135f4565b83516001600160801b03161561313e57835160a085015161383e916001600160801b031661271060c59290921c607f16020490565b8460400181815161384f9190615893565b6001600160801b03908116909152855160a087015161387c9350911661271060c59290921c607f16020490565b8451859061388b9083906157c4565b6001600160801b031690525050505050565b6002830182905560048301546138b790608083901b613988565b8360040181905550505050565b7001000000000000000000000000000000006138e08183615a57565b83600401546138ef9190615925565b901b82600401819055505050565b5f60016001600160a01b0384160361392057506001600160a01b03811631611c3f565b6040516370a0823160e01b81526001600160a01b0383811660048301528416906370a0823190602401602060405180830381865afa158015613964573d5f803e3d5ffd5b505050506040513d601f19601f82011682018060405250810190610b26919061590e565b5f608082811d9084901d016001600160801b03838116908516016118006139ae83614671565b61191f83614671565b815460df82901b906139e6907b8000000000000000000000000000000000000000000000000000000090615a57565b6139f09190615925565b90915550565b81546001600160e51b03909116906139f09082907fffffffe00000000000000000000000000000000000000000000000000000000016615925565b5f80613a41876003015460801c90565b613a6a613a4f896003015490565b613083613a608d6004015460801c90565b60038e015461191f565b613a749190615893565b60048a0154909150613a8f906001600160801b038316613988565b60048a0155613aa38982868989885f61468b565b5f613ab2886004015460801c90565b613ac0613a4f8a6004015490565b613aca9190615893565b60048a0154909150613ae5906001600160801b038316613988565b60048a0155613af98982878a8a895f61468b565b6001600160801b038116608083901b179250613b1588846149aa565b5050979650505050505050565b5f611388836bffffffffffffffffffffffff161115613b3f575f80fd5b60408051610160810182525f80825260208201819052918101829052606081018290526080810182905260a0810182905260c0810182905260e081018290526101008101829052610120810182905261014081019190915284516001600160a01b039081165f9081526001602090815260408083206002908101548a518616855282852054938b018051871686528386209092015491519095168452922054613bee9385938a9391928a6149e9565b613bf781614b05565b336001600160a01b037f000000000000000000000000000000000000000000000000000000000000000016148015613c4457505f613c39866040015160801c90565b6001600160801b0316115b8015613c58575080516001600160801b0316155b8015613c7d575084602001516001600160a01b0316855f01516001600160a01b031614155b15613c8757600191505b60408501516001600160801b03168160a001516001600160801b03161015613cad575f91505b811561212157613ce48560600151613cc6876040015190565b60208801516001600160a01b031691906001600160801b0316613303565b5f613cf0866040015190565b8260a00151613cff9190615893565b9050613d2e84613d10600284615a6a565b60208901516001600160a01b031691906001600160801b0316613303565b613d39600282615a6a565b8260800151613d4891906157c4565b6001600160801b0316608083015260c082015160408084015188516001600160a01b03165f908152600160205291909120613d8492909161389d565b61010082015160808301516020808901516001600160a01b03165f908152600190915260409020613db692909161389d565b85602001516001600160a01b0316865f01516001600160a01b03167fe9174eb0d60b5dfcb132e979d11319f32d4a3ebdbf5abbb9600950c1cf8fab5b88606001518560600151613e25613e0d8c6040015160801c90565b60408901516001600160801b031660809190911b1790565b60a08801516080808a01516001600160801b031691901b17604080516001600160a01b0390951685526001600160801b03909316602085015291830152606082015260800160405180910390a350509392505050565b604080516060810182525f8082526020820181905291810191909152604080516060810182525f80825260208201819052918101919091525f613ed6845f0151613083613ecc886002015460801c90565b600389015461191f565b90506040518060600160405280613f05865f0151613083613efb8c6004015460801c90565b60038d015461191f565b6001600160801b03168152602001613f35865f0151613083613f2b8a6003015460801c90565b60038b015461191f565b6001600160801b0390811682528651166020909101528754909350600160ff1b16151580613f6957508554600160ff1b1615155b8015613f9e5750613f89613f81886002015460801c90565b885490614e3e565b6001600160801b0316816001600160801b0316105b8015613fcb5750613fb3613f81886002015490565b6001600160801b0316845f01516001600160801b0316105b6140005760405162461bcd60e51b81526004016116cd906020808252600490820152634730313160e01b604082015260600190565b6002870154604084015161402391906001600160801b0316608084901b17614e62565b60028801556003870154604084015161404b91906001600160801b0316608084901b17614e62565b6003880155600487015483516020850151614075929160801b6001600160801b0390911617614e62565b60048801556140848582614e88565b602083015183516140959190615893565b6001600160801b039081168452604084015188546140c19290911661271060d39290921c603f16020490565b6001600160801b03166020808501829052845160608701519187015160408089015160808a015191890151614104968e969493916140ff9190615893565b61468b565b60208301516001600160801b031615614134576004870154602084015161412e919060801b613988565b60048801555b60018501546001600160a01b03161561437e576040518060600160405280614171836130836141678b6004015460801c90565b60038c015461191f565b6001600160801b0316815260200161419e836130836141948a6004015460801c90565b60048b015461191f565b6001600160801b031681526020016141c7836141c16141948a6002015460801c90565b90613144565b6001600160801b031681525091506141ee6141e6876002015460801c90565b875490614e3e565b6001600160801b0316816001600160801b031610801561423057506142176141e6876002015490565b6001600160801b031682604001516001600160801b0316105b6142655760405162461bcd60e51b81526004016116cd906020808252600490820152632398189960e11b604082015260600190565b6002860154604083015161428891906001600160801b0316608084901b17614e62565b6002870155600386015460408301516142b091906001600160801b0316608084901b17614e62565b60038701556004860154825160208401516142da929160801b6001600160801b0390911617614e62565b6004870155602082015182516142f09190615893565b6001600160801b0390811683526040830151875461431c9290911661271060d39290921c603f16020490565b6001600160801b0316602083018190521561434e5760048601546020830151614348919060801b613988565b60048701555b61437e86835f01518660600151876020015188604001518960800151886020015189604001516140ff9190615893565b9450945094915050565b61439b82608001518360c0015183613398565b611d7257815160e08301515f9182916143c8916001600160801b031661271060cc9290921c607f16020490565b6001600160801b031660408501525b83516001600160801b0316158015906143fe57506143fe84608001518560c0015185613398565b1561313e576144146136318560c0015160801c90565b6001600160801b031661442e613656866080015160801c90565b6001600160801b031610156144535761444e613681856080015160801c90565b614464565b6144646136318560c0015160801c90565b60c08501519092506144769083613144565b9050806001600160801b0316845f01516001600160801b0316111561451e5780845f018181516144a69190615893565b6001600160801b031690525060808401516144c19083613144565b846020018181516144d291906157c4565b6001600160801b0390811690915260c08601516144f89250908316608085901b1761464f565b60c08501526080840151614514906137368461191f8382613144565b608085015261459e565b835160c085015161452e916145c1565b60808501519092506145409083613144565b8460200181815161455191906157c4565b6001600160801b0390811690915260c086015186516145799350909116608085901b1761464f565b60c08501526080840151614595906137368461191f8382613144565b60808501525f84525b81846060018181516145b091906157c4565b6001600160801b03169052506143d7565b5f610b266145cf8460801c90565b6001600160801b0316836001600160801b03166131668690565b918102915f81840461180081614671565b5f6103ff60bb84901c168082036146145782915050611c3f565b61461f8160406157e3565b610eca9084615a6a565b5f608082811d9084901d036001600160801b03838116908516016118006139ae83614671565b5f608082811d9084901d016001600160801b03838116908516036118006139ae835b5f6001600160801b03821115614687575f611c3f565b5090565b60646001600160801b03871660dd87901c601f1602046146ab8188615893565b965060646001600160801b03881660fa88901c81028290049160f489901c603f90811683028290049260ee8b901c821681028390049260e88c901c831682028190049260e28d901c16909102046001600160a01b0389166148045761471087866157c4565b335f90815260058f016020526040812080546001600160801b03939093169290919061473d908490615925565b9091555061474d905081856157c4565b6001600160801b03168d6005015f8c6001600160a01b03166001600160a01b031681526020019081526020015f205f8282546147899190615925565b92505081905550858185878f61479f9190615893565b6147a99190615893565b6147b39190615893565b6147bd91906157c4565b6001600160801b03168d6005015f8a6001600160a01b03166001600160a01b031681526020019081526020015f205f8282546147f99190615925565b9091555061499b9050565b60018d01546001600160a01b0389811691161461485c5760018d01546001600160a01b03165f90815260058e016020526040812080546001600160801b0387169290614851908490615925565b909155506148699050565b61486684876157c4565b95505b876001600160a01b03168a6001600160a01b0316146148bf576001600160a01b038a165f90815260058e016020526040812080546001600160801b03861692906148b4908490615925565b909155506148cc9050565b6148c983876157c4565b95505b876001600160a01b0316896001600160a01b031614614922576001600160a01b0389165f90815260058e016020526040812080546001600160801b0385169290614917908490615925565b9091555061492f9050565b61492c82876157c4565b95505b6001600160a01b0388165f90815260058e016020526040812080546001600160801b0389169290614961908490615925565b9091555087905061497282876157c4565b61497c91906157c4565b335f90815260058f01602052604090206001600160801b039190911690555b50505050505050505050505050565b6149bf8260030154611d01611f748460801c90565b600383015560018201546001600160a01b031615611d72576134d38260040154611d01611f748490565b6040860151608090811c885260c0880186905260e08801859052610100880184905261012088018390525f90614a2390859088901c6157e3565b6001600160801b031690505f614a3a8960c0015190565b6101008a015160801c614a4d91906157e3565b6001600160801b03169050808210614aa857608081614a6e85612710615a97565b614a86906bffffffffffffffffffffffff1685615a2c565b614a909190615abb565b614a9d911b612710615925565b6101408a0152614afa565b81614ab584612710615ace565b614acd906bffffffffffffffffffffffff1683615a2c565b614ad79190615abb565b614af39071271000000000000000000000000000000000615925565b6101408a01525b505050505050505050565b614b0e81614f91565b15614de557805160e08201515f918291614b3c916001600160801b031661271060c59290921c607f16020490565b6001600160801b03166040840181905283518490614b5b908390615893565b6001600160801b03169052505b614b7183614f91565b15614d5357614b94614b8884610100015160801c90565b610120850151906145fa565b6001600160801b0316614bae6136318560c0015160801c90565b6001600160801b03161015614bde57614bd9614bce8460c0015160801c90565b60e0850151906145fa565b614bf0565b614bf0614b8884610100015160801c90565b60c0840151909250614c029083613144565b9050806001600160801b0316835f01516001600160801b03161115614cad5780835f01818151614c329190615893565b6001600160801b0316905250610100830151614c4e9083613144565b83602001818151614c5f91906157c4565b6001600160801b0390811690915260c0850151614c859250908316608085901b17614629565b60c0840152610100830151614ca2906137578461191f8382613144565b610100840152614d30565b825160c0840151614cbd916145c1565b610100840151909250614cd09083613144565b83602001818151614ce191906157c4565b6001600160801b0390811690915260c08501518551614d099350909116608085901b17614629565b60c0840152610100830151614d26906137578461191f8382613144565b6101008401525f83525b8183606001818151614d4291906157c4565b6001600160801b0316905250614b68565b82516001600160801b031615614de257825160e0840151614d88916001600160801b031661271060c59290921c607f16020490565b83604001818151614d999190615893565b6001600160801b03908116909152845160e0860151614dc69350911661271060c59290921c607f16020490565b83518490614dd59083906157c4565b6001600160801b03169052505b50505b6020810151610120820151614e0e916001600160801b031661271060cc9290921c607f16020490565b6001600160801b0316608082018190526020820151614e2d9190615893565b6001600160801b031660a090910152565b5f6103ff60b184901c16808203614e585782915050611c3f565b610eca8184615a6a565b5f608082811d9084901d036001600160801b03838116908516036118006139ae83614671565b5f614eed614ebe614e9d856003015460801c90565b6001600160801b0316846001600160801b0316613166876002015460801c90565b61191f614ecc866003015490565b6001600160801b0316856001600160801b0316613166886002015460801c90565b60018401549091506001600160a01b031615614f5e575f614f47614f18614ecc866004015460801c90565b61191f614f26876004015490565b6001600160801b0316866001600160801b0316613166896002015460801c90565b9050614f57846004015482614e62565b6004850155505b614f6c836003015482614e62565b60038401556002830154614f8490608084901b614e62565b8360020181905550505050565b5f614fa182610140015160801c90565b6001600160801b0316614fb983610100015160801c90565b6001600160801b0316614fcd8460c0015190565b6001600160801b0316614fe09190615a2c565b614fea9190615a2c565b6101408301516001600160801b031661500584610100015190565b6001600160801b031661501c8560c0015160801c90565b6001600160801b031661502f9190615a2c565b6150399190615a2c565b1115615045575f615048565b60015b8015611c3f575050516001600160801b0316151590565b6001600160a01b0381168114615073575f80fd5b50565b6001600160801b0381168114615073575f80fd5b5f805f6060848603121561509c575f80fd5b83356150a78161505f565b925060208401356150b78161505f565b915060408401356150c781615076565b809150509250925092565b5f602082840312156150e2575f80fd5b8135610b268161505f565b634e487b7160e01b5f52604160045260245ffd5b604051601f8201601f1916810167ffffffffffffffff8111828210171561512a5761512a6150ed565b604052919050565b5f67ffffffffffffffff82111561514b5761514b6150ed565b5060051b60200190565b5f82601f830112615164575f80fd5b813561517761517282615132565b615101565b8082825260208201915060208360051b860101925085831115615198575f80fd5b602085015b838110156151be5780356151b08161505f565b83526020928301920161519d565b5095945050505050565b5f602082840312156151d8575f80fd5b813567ffffffffffffffff8111156151ee575f80fd5b610eca84828501615155565b5f805f6060848603121561520c575f80fd5b83356152178161505f565b925060208401356152278161505f565b929592945050506040919091013590565b5f805f6060848603121561524a575f80fd5b83359250602084013561525c8161505f565b915060408401356150c78161505f565b5f805f6060848603121561527e575f80fd5b83356152898161505f565b92506020840135915060408401356150c78161505f565b5f602082840312156152b0575f80fd5b5035919050565b5f80604083850312156152c8575f80fd5b82356152d38161505f565b915060208301356152e38161505f565b809150509250929050565b8015158114615073575f80fd5b5f805f805f8060c08789031215615310575f80fd5b863561531b8161505f565b9550602087013561532b8161505f565b9450604087013561533b81615076565b9350606087013592506080870135615352816152ee565b915060a08701356153628161505f565b809150509295509295509295565b5f8083601f840112615380575f80fd5b50813567ffffffffffffffff811115615397575f80fd5b6020830191508360208285010111156153ae575f80fd5b9250929050565b5f805f805f608086880312156153c9575f80fd5b85356153d48161505f565b945060208601356153e48161505f565b935060408601359250606086013567ffffffffffffffff811115615406575f80fd5b61541288828901615370565b969995985093965092949392505050565b5f805f8060808587031215615436575f80fd5b84356154418161505f565b93506020850135925060408501356154588161505f565b9396929550929360600135925050565b5f8060408385031215615479575f80fd5b82356154848161505f565b915060208301356152e381615076565b5f805f606084860312156154a6575f80fd5b83356154b18161505f565b95602085013595506040909401359392505050565b5f80604083850312156154d7575f80fd5b823567ffffffffffffffff8111156154ed575f80fd5b6154f985828601615155565b92505060208301356152e38161505f565b5f8151808452602084019350602083015f5b8281101561553a57815186526020958601959091019060010161551c565b5093949350505050565b602081525f610b26602083018461550a565b5f8060408385031215615567575f80fd5b82356155728161505f565b946020939093013593505050565b5f8060408385031215615591575f80fd5b8235915060208301356152e38161505f565b80356bffffffffffffffffffffffff81168114611352575f80fd5b5f805f805f608086880312156155d2575f80fd5b853567ffffffffffffffff8111156155e8575f80fd5b6155f488828901615370565b90965094506156079050602087016155a3565b925060408601356156178161505f565b9150606086013560ff8116811461562c575f80fd5b809150509295509295909350565b602080825282518282018190525f918401906040840190835b818110156156735783511515835260209384019390920191600101615653565b509095945050505050565b5f6080828403121561568e575f80fd5b6040516080810167ffffffffffffffff811182821017156156b1576156b16150ed565b60405290508082356156c28161505f565b815260208301356156d28161505f565b60208201526040838101359082015260608301356156ef8161505f565b6060919091015292915050565b5f805f60c0848603121561570e575f80fd5b615718858561567e565b9250615726608085016155a3565b915060a08401356150c78161505f565b5f805f60608486031215615748575f80fd5b83359250602084013561525c81615076565b5f805f805f60a0868803121561576e575f80fd5b85356157798161505f565b945060208601356157898161505f565b9350604086013561579981615076565b925060608601359150608086013561562c8161505f565b634e487b7160e01b5f52601160045260245ffd5b6001600160801b038181168382160190811115611c3f57611c3f6157b0565b6001600160801b038181168382160290811690818114615805576158056157b0565b5092915050565b634e487b7160e01b5f52603260045260245ffd5b81810381811115611c3f57611c3f6157b0565b604080825283519082018190525f9060208501906060840190835b818110156158755783516001600160a01b031683526020938401939092019160010161584e565b50508381036020850152615889818661550a565b9695505050505050565b6001600160801b038281168282160390811115611c3f57611c3f6157b0565b6001600160a01b03871681526001600160a01b038616602082015284604082015283606082015260a060808201528160a0820152818360c08301375f81830160c090810191909152601f909201601f1916010195945050505050565b5f6020828403121561591e575f80fd5b5051919050565b80820180821115611c3f57611c3f6157b0565b5f60208284031215615948575f80fd5b8151610b26816152ee565b5f8060408385031215615964575f80fd5b825161596f8161505f565b60208401519092506152e38161505f565b5f60208284031215615990575f80fd5b813567ffffffffffffffff8111156159a6575f80fd5b8201601f810184136159b6575f80fd5b80356159c461517282615132565b8082825260208201915060208360071b8501019250868311156159e5575f80fd5b6020840193505b82841015615889576159fe878561567e565b82526020820191506080840193506159ec565b5f60208284031215615a21575f80fd5b8151610b2681615076565b8082028115828204841417611c3f57611c3f6157b0565b634e487b7160e01b5f52601260045260245ffd5b5f82615a6557615a65615a43565b500690565b5f6001600160801b03831680615a8257615a82615a43565b806001600160801b0384160491505092915050565b6bffffffffffffffffffffffff8181168382160190811115611c3f57611c3f6157b0565b5f82615ac957615ac9615a43565b500490565b6bffffffffffffffffffffffff8281168282160390811115611c3f57611c3f6157b056fecfdbe78f31bc5efa50605e8b11a7b6843971370ea97eb24de6e1a1eb9d235645a2646970667358221220e8228e446763ef5837b2ed95165c8565428f17407c2bced80e1268407d0d4d7b64736f6c634300081a0033","linkReferences":{}},"methodIdentifiers":{"addbanlist(address)":"b153b920","batchTakelimitOrder(bytes,uint96,address,uint8)":"c2ed2bc0","buyGood(address,address,uint128,uint256,bool,address)":"46f74c1a","buyGoodForPay(address,address,uint128,uint256,address)":"f4970aaa","changeGoodOwner(address,address)":"41e12373","changemarketcreator(address)":"a06ad0e8","collectCommission(address[])":"0d2700ab","collectProof(uint256,address)":"a676a600","delproofdata(uint256,address,address)":"1faa5a56","disinvestProof(uint256,uint128,address)":"f4662f20","flashFee(address,uint256)":"d9d98ce4","flashLoan(address,address,uint256,bytes)":"5cffe9de","getGoodState(address)":"08238466","getProofState(uint256)":"3f117740","goodWelfare(address,uint128)":"629fa704","initGood(address,uint256,address,uint256)":"5dd7e4ae","initMetaGood(address,uint256,uint256)":"97924ead","investGood(address,address,uint128)":"000ce2e0","ishigher(address,address,uint256)":"1412723a","marketconfig()":"402f5ab5","marketcreator()":"3d995173","maxFlashLoan(address)":"613255ab","modifyGoodConfig(address,uint256)":"b1efb921","payGood(address,uint256,address)":"328ecd96","proofmapping(uint256)":"5e008cc4","queryCommission(address[],address)":"9b222794","removeMarketor(address)":"cc00da2d","removebanlist(address)":"9551177a","setMarketConfig(uint256)":"45818e4c","setMarketor(address)":"102e5c27","takeLimitOrder((address,address,uint256,address),uint96,address)":"e9044db6","updateGoodConfig(address,uint256)":"a3b74a49","userConfig(address)":"5f35b0b3"},"id":57}