{"abi":[{"type":"constructor","inputs":[{"name":"_usdt","type":"address","internalType":"address"},{"name":"_dao_admin","type":"address","internalType":"address"},{"name":"_ttsconfig","type":"uint256","internalType":"uint256"}],"stateMutability":"nonpayable"},{"type":"function","name":"DOMAIN_SEPARATOR","inputs":[],"outputs":[{"name":"","type":"bytes32","internalType":"bytes32"}],"stateMutability":"view"},{"type":"function","name":"addShare","inputs":[{"name":"_share","type":"tuple","internalType":"struct s_share","components":[{"name":"recipient","type":"address","internalType":"address"},{"name":"leftamount","type":"uint128","internalType":"uint128"},{"name":"metric","type":"uint120","internalType":"uint120"},{"name":"chips","type":"uint8","internalType":"uint8"}]}],"outputs":[],"stateMutability":"nonpayable"},{"type":"function","name":"addauths","inputs":[{"name":"_auths","type":"address","internalType":"address"},{"name":"_priv","type":"uint256","internalType":"uint256"}],"outputs":[],"stateMutability":"nonpayable"},{"type":"function","name":"addreferral","inputs":[{"name":"user","type":"address","internalType":"address"},{"name":"referral","type":"address","internalType":"address"}],"outputs":[],"stateMutability":"nonpayable"},{"type":"function","name":"allowance","inputs":[{"name":"owner","type":"address","internalType":"address"},{"name":"spender","type":"address","internalType":"address"}],"outputs":[{"name":"","type":"uint256","internalType":"uint256"}],"stateMutability":"view"},{"type":"function","name":"approve","inputs":[{"name":"spender","type":"address","internalType":"address"},{"name":"amount","type":"uint256","internalType":"uint256"}],"outputs":[{"name":"","type":"bool","internalType":"bool"}],"stateMutability":"nonpayable"},{"type":"function","name":"auths","inputs":[{"name":"","type":"address","internalType":"address"}],"outputs":[{"name":"","type":"uint256","internalType":"uint256"}],"stateMutability":"view"},{"type":"function","name":"balanceOf","inputs":[{"name":"account","type":"address","internalType":"address"}],"outputs":[{"name":"","type":"uint256","internalType":"uint256"}],"stateMutability":"view"},{"type":"function","name":"burn","inputs":[{"name":"account","type":"address","internalType":"address"},{"name":"value","type":"uint256","internalType":"uint256"}],"outputs":[],"stateMutability":"nonpayable"},{"type":"function","name":"burnShare","inputs":[{"name":"index","type":"uint8","internalType":"uint8"}],"outputs":[],"stateMutability":"nonpayable"},{"type":"function","name":"changeDAOAdmin","inputs":[{"name":"_recipient","type":"address","internalType":"address"}],"outputs":[],"stateMutability":"nonpayable"},{"type":"function","name":"dao_admin","inputs":[],"outputs":[{"name":"","type":"address","internalType":"address"}],"stateMutability":"view"},{"type":"function","name":"decimals","inputs":[],"outputs":[{"name":"","type":"uint8","internalType":"uint8"}],"stateMutability":"pure"},{"type":"function","name":"decreaseAllowance","inputs":[{"name":"spender","type":"address","internalType":"address"},{"name":"subtractedValue","type":"uint256","internalType":"uint256"}],"outputs":[{"name":"","type":"bool","internalType":"bool"}],"stateMutability":"nonpayable"},{"type":"function","name":"eip712Domain","inputs":[],"outputs":[{"name":"fields","type":"bytes1","internalType":"bytes1"},{"name":"name","type":"string","internalType":"string"},{"name":"version","type":"string","internalType":"string"},{"name":"chainId","type":"uint256","internalType":"uint256"},{"name":"verifyingContract","type":"address","internalType":"address"},{"name":"salt","type":"bytes32","internalType":"bytes32"},{"name":"extensions","type":"uint256[]","internalType":"uint256[]"}],"stateMutability":"view"},{"type":"function","name":"getreferralanddaoadmin","inputs":[{"name":"_customer","type":"address","internalType":"address"}],"outputs":[{"name":"","type":"address","internalType":"address"},{"name":"","type":"address","internalType":"address"}],"stateMutability":"view"},{"type":"function","name":"increaseAllowance","inputs":[{"name":"spender","type":"address","internalType":"address"},{"name":"addedValue","type":"uint256","internalType":"uint256"}],"outputs":[{"name":"","type":"bool","internalType":"bool"}],"stateMutability":"nonpayable"},{"type":"function","name":"left_share","inputs":[],"outputs":[{"name":"","type":"uint128","internalType":"uint128"}],"stateMutability":"view"},{"type":"function","name":"marketcontract","inputs":[],"outputs":[{"name":"","type":"address","internalType":"address"}],"stateMutability":"view"},{"type":"function","name":"name","inputs":[],"outputs":[{"name":"","type":"string","internalType":"string"}],"stateMutability":"view"},{"type":"function","name":"nonces","inputs":[{"name":"owner","type":"address","internalType":"address"}],"outputs":[{"name":"","type":"uint256","internalType":"uint256"}],"stateMutability":"view"},{"type":"function","name":"normalgoodid","inputs":[],"outputs":[{"name":"","type":"address","internalType":"address"}],"stateMutability":"view"},{"type":"function","name":"permit","inputs":[{"name":"owner","type":"address","internalType":"address"},{"name":"spender","type":"address","internalType":"address"},{"name":"value","type":"uint256","internalType":"uint256"},{"name":"deadline","type":"uint256","internalType":"uint256"},{"name":"v","type":"uint8","internalType":"uint8"},{"name":"r","type":"bytes32","internalType":"bytes32"},{"name":"s","type":"bytes32","internalType":"bytes32"}],"outputs":[],"stateMutability":"nonpayable"},{"type":"function","name":"poolstate","inputs":[],"outputs":[{"name":"","type":"uint256","internalType":"uint256"}],"stateMutability":"view"},{"type":"function","name":"publicSell","inputs":[{"name":"usdtamount","type":"uint256","internalType":"uint256"},{"name":"data","type":"bytes","internalType":"bytes"}],"outputs":[],"stateMutability":"nonpayable"},{"type":"function","name":"publicsell","inputs":[],"outputs":[{"name":"","type":"uint128","internalType":"uint128"}],"stateMutability":"view"},{"type":"function","name":"referrals","inputs":[{"name":"","type":"address","internalType":"address"}],"outputs":[{"name":"","type":"address","internalType":"address"}],"stateMutability":"view"},{"type":"function","name":"rmauths","inputs":[{"name":"_auths","type":"address","internalType":"address"}],"outputs":[],"stateMutability":"nonpayable"},{"type":"function","name":"setEnv","inputs":[{"name":"_normalgoodid","type":"address","internalType":"address"},{"name":"_valuegoodid","type":"address","internalType":"address"},{"name":"_marketcontract","type":"address","internalType":"address"}],"outputs":[],"stateMutability":"nonpayable"},{"type":"function","name":"setRatio","inputs":[{"name":"_ratio","type":"uint256","internalType":"uint256"}],"outputs":[],"stateMutability":"nonpayable"},{"type":"function","name":"shareMint","inputs":[{"name":"index","type":"uint8","internalType":"uint8"}],"outputs":[],"stateMutability":"nonpayable"},{"type":"function","name":"shares","inputs":[{"name":"","type":"uint32","internalType":"uint32"}],"outputs":[{"name":"recipient","type":"address","internalType":"address"},{"name":"leftamount","type":"uint128","internalType":"uint128"},{"name":"metric","type":"uint120","internalType":"uint120"},{"name":"chips","type":"uint8","internalType":"uint8"}],"stateMutability":"view"},{"type":"function","name":"shares_index","inputs":[],"outputs":[{"name":"","type":"uint32","internalType":"uint32"}],"stateMutability":"view"},{"type":"function","name":"stake","inputs":[{"name":"_staker","type":"address","internalType":"address"},{"name":"proofvalue","type":"uint128","internalType":"uint128"}],"outputs":[{"name":"netconstruct","type":"uint128","internalType":"uint128"}],"stateMutability":"nonpayable"},{"type":"function","name":"stakeproof","inputs":[{"name":"","type":"uint256","internalType":"uint256"}],"outputs":[{"name":"fromcontract","type":"address","internalType":"address"},{"name":"proofstate","type":"uint256","internalType":"uint256"}],"stateMutability":"view"},{"type":"function","name":"stakestate","inputs":[],"outputs":[{"name":"","type":"uint256","internalType":"uint256"}],"stateMutability":"view"},{"type":"function","name":"symbol","inputs":[],"outputs":[{"name":"","type":"string","internalType":"string"}],"stateMutability":"view"},{"type":"function","name":"totalSupply","inputs":[],"outputs":[{"name":"","type":"uint256","internalType":"uint256"}],"stateMutability":"view"},{"type":"function","name":"transfer","inputs":[{"name":"to","type":"address","internalType":"address"},{"name":"amount","type":"uint256","internalType":"uint256"}],"outputs":[{"name":"","type":"bool","internalType":"bool"}],"stateMutability":"nonpayable"},{"type":"function","name":"transferFrom","inputs":[{"name":"from","type":"address","internalType":"address"},{"name":"to","type":"address","internalType":"address"},{"name":"amount","type":"uint256","internalType":"uint256"}],"outputs":[{"name":"","type":"bool","internalType":"bool"}],"stateMutability":"nonpayable"},{"type":"function","name":"ttstokenconfig","inputs":[],"outputs":[{"name":"","type":"uint256","internalType":"uint256"}],"stateMutability":"view"},{"type":"function","name":"unstake","inputs":[{"name":"_staker","type":"address","internalType":"address"},{"name":"proofvalue","type":"uint128","internalType":"uint128"}],"outputs":[],"stateMutability":"nonpayable"},{"type":"function","name":"usdt","inputs":[],"outputs":[{"name":"","type":"address","internalType":"address"}],"stateMutability":"view"},{"type":"function","name":"valuegoodid","inputs":[],"outputs":[{"name":"","type":"address","internalType":"address"}],"stateMutability":"view"},{"type":"function","name":"withdrawPublicSell","inputs":[{"name":"amount","type":"uint256","internalType":"uint256"},{"name":"recipient","type":"address","internalType":"address"}],"outputs":[],"stateMutability":"nonpayable"},{"type":"event","name":"Approval","inputs":[{"name":"owner","type":"address","indexed":true,"internalType":"address"},{"name":"spender","type":"address","indexed":true,"internalType":"address"},{"name":"value","type":"uint256","indexed":false,"internalType":"uint256"}],"anonymous":false},{"type":"event","name":"EIP712DomainChanged","inputs":[],"anonymous":false},{"type":"event","name":"Transfer","inputs":[{"name":"from","type":"address","indexed":true,"internalType":"address"},{"name":"to","type":"address","indexed":true,"internalType":"address"},{"name":"value","type":"uint256","indexed":false,"internalType":"uint256"}],"anonymous":false},{"type":"event","name":"e_addShare","inputs":[{"name":"recipient","type":"address","indexed":false,"internalType":"address"},{"name":"leftamount","type":"uint256","indexed":false,"internalType":"uint256"},{"name":"metric","type":"uint120","indexed":false,"internalType":"uint120"},{"name":"chips","type":"uint8","indexed":false,"internalType":"uint8"},{"name":"index","type":"uint32","indexed":false,"internalType":"uint32"}],"anonymous":false},{"type":"event","name":"e_addauths","inputs":[{"name":"auths","type":"address","indexed":false,"internalType":"address"},{"name":"priv","type":"uint256","indexed":false,"internalType":"uint256"}],"anonymous":false},{"type":"event","name":"e_addreferral","inputs":[{"name":"users","type":"address","indexed":false,"internalType":"address"},{"name":"referral","type":"address","indexed":false,"internalType":"address"}],"anonymous":false},{"type":"event","name":"e_burnShare","inputs":[{"name":"index","type":"uint32","indexed":false,"internalType":"uint32"}],"anonymous":false},{"type":"event","name":"e_publicsell","inputs":[{"name":"usdtamount","type":"uint256","indexed":false,"internalType":"uint256"},{"name":"ttsamount","type":"uint256","indexed":false,"internalType":"uint256"}],"anonymous":false},{"type":"event","name":"e_rmauths","inputs":[{"name":"auths","type":"address","indexed":false,"internalType":"address"}],"anonymous":false},{"type":"event","name":"e_setdaoadmin","inputs":[{"name":"recipient","type":"address","indexed":false,"internalType":"address"}],"anonymous":false},{"type":"event","name":"e_setenv","inputs":[{"name":"normalgoodid","type":"address","indexed":false,"internalType":"address"},{"name":"valuegoodid","type":"address","indexed":false,"internalType":"address"},{"name":"marketcontract","type":"address","indexed":false,"internalType":"address"}],"anonymous":false},{"type":"event","name":"e_shareMint","inputs":[{"name":"mintamount","type":"uint128","indexed":false,"internalType":"uint128"},{"name":"index","type":"uint32","indexed":false,"internalType":"uint32"}],"anonymous":false},{"type":"event","name":"e_syncChainStake","inputs":[{"name":"chain","type":"uint32","indexed":false,"internalType":"uint32"},{"name":"poolasset","type":"uint128","indexed":false,"internalType":"uint128"},{"name":"proofstate","type":"uint256","indexed":false,"internalType":"uint256"}],"anonymous":false},{"type":"event","name":"e_unstake","inputs":[{"name":"recipient","type":"address","indexed":false,"internalType":"address"},{"name":"proofvalue","type":"uint256","indexed":false,"internalType":"uint256"},{"name":"unstakestate","type":"uint256","indexed":false,"internalType":"uint256"},{"name":"stakestate","type":"uint256","indexed":false,"internalType":"uint256"},{"name":"poolstate","type":"uint256","indexed":false,"internalType":"uint256"}],"anonymous":false},{"type":"event","name":"e_updatepool","inputs":[{"name":"poolstate","type":"uint256","indexed":false,"internalType":"uint256"}],"anonymous":false},{"type":"event","name":"e_updatettsconfig","inputs":[{"name":"ttsconfig","type":"uint256","indexed":false,"internalType":"uint256"}],"anonymous":false},{"type":"error","name":"ERC20PermitFailed","inputs":[]},{"type":"error","name":"ERC20TransferFailed","inputs":[]},{"type":"error","name":"InvalidShortString","inputs":[]},{"type":"error","name":"NativeTransferFailed","inputs":[]},{"type":"error","name":"StringTooLong","inputs":[{"name":"str","type":"string","internalType":"string"}]}],"bytecode":{"object":"0x61018080604052346104d457606081613c48803803809161002082856104d8565b8339810103126104d457610033816104fb565b906040610042602083016104fb565b910151916040516100546040826104d8565b600c8152602081016b2a2a29bbb0b8102a37b5b2b760a11b81526040519061007d6040836104d8565b600c82526b2a2a29bbb0b8102a37b5b2b760a11b6020830152604051926100a56040856104d8565b600384526254545360e81b6020850152604051936100c46040866104d8565b60018552603160f81b60208601908152845190946001600160401b0382116103d75760035490600182811c921680156104ca575b60208310146103b95781601f84931161045c575b50602090601f83116001146103f6575f926103eb575b50508160011b915f199060031b1c1916176003555b8051906001600160401b0382116103d75760045490600182811c921680156103cd575b60208310146103b95781601f84931161034b575b50602090601f83116001146102e5575f926102da575b50508160011b915f199060031b1c1916176004555b6101a28161050f565b610120526101af84610696565b61014052519020918260e05251902080610100524660a0526040519060208201927f8b73c3c69bb8fe3d512ecc4cf759cc79239f7b179b0ffacaa9a75d522b39400f8452604083015260608201524660808201523060a082015260a0815261021860c0826104d8565b51902060809081523060c052601280546001600160801b03199081166601c6bf52634000179091556101609290925242901b16600b55601080546001600160a01b0319166001600160a01b039290921691909117905560095560405161347990816107cf823960805181612f83015260a05181613040015260c05181612f4d015260e05181612fd201526101005181612ff8015261012051816110e8015261014051816111110152610160518181816108ad01528181611b650152611f1a0152f35b015190505f80610184565b60045f9081528281209350601f198516905b818110610333575090846001959493921061031b575b505050811b01600455610199565b01515f1960f88460031b161c191690555f808061030d565b929360206001819287860151815501950193016102f7565b60045f529091507f8a35acfbc15ff81a39ae7d344fd709f28e8600b4aa8c65c6b64bfe7fe36bd19b601f840160051c810191602085106103af575b90601f859493920160051c01905b8181106103a1575061016e565b5f8155849350600101610394565b9091508190610386565b634e487b7160e01b5f52602260045260245ffd5b91607f169161015a565b634e487b7160e01b5f52604160045260245ffd5b015190505f80610122565b60035f9081528281209350601f198516905b818110610444575090846001959493921061042c575b505050811b01600355610137565b01515f1960f88460031b161c191690555f808061041e565b92936020600181928786015181550195019301610408565b60035f529091507fc2575a0e9e593c00f959f8c92f12db2869c3395a3b0502d05e2516446f71f85b601f840160051c810191602085106104c0575b90601f859493920160051c01905b8181106104b2575061010c565b5f81558493506001016104a5565b9091508190610497565b91607f16916100f8565b5f80fd5b601f909101601f19168101906001600160401b038211908210176103d757604052565b51906001600160a01b03821682036104d457565b908151602081105f14610589575090601f81511161054957602081519101516020821061053a571790565b5f198260200360031b1b161790565b604460209160405192839163305a27a960e01b83528160048401528051918291826024860152018484015e5f828201840152601f01601f19168101030190fd5b6001600160401b0381116103d757600554600181811c9116801561068c575b60208210146103b957601f8111610659575b50602092601f82116001146105f857928192935f926105ed575b50508160011b915f199060031b1c19161760055560ff90565b015190505f806105d4565b601f1982169360055f52805f20915f5b8681106106415750836001959610610629575b505050811b0160055560ff90565b01515f1960f88460031b161c191690555f808061061b565b91926020600181928685015181550194019201610608565b60055f52601f60205f20910160051c810190601f830160051c015b81811061068157506105ba565b5f8155600101610674565b90607f16906105a8565b908151602081105f146106c1575090601f81511161054957602081519101516020821061053a571790565b6001600160401b0381116103d757600654600181811c911680156107c4575b60208210146103b957601f8111610791575b50602092601f821160011461073057928192935f92610725575b50508160011b915f199060031b1c19161760065560ff90565b015190505f8061070c565b601f1982169360065f52805f20915f5b8681106107795750836001959610610761575b505050811b0160065560ff90565b01515f1960f88460031b161c191690555f8080610753565b91926020600181928685015181550194019201610740565b60065f52601f60205f20910160051c810190601f830160051c015b8181106107b957506106f2565b5f81556001016107ac565b90607f16906106e056fe60806040526004361015610011575f80fd5b5f3560e01c806302517e8b146102e457806306afa12a146102df57806306fdde03146102da578063095ea7b3146102d557806318160ddd146102d057806319f8d5b4146102cb57806323b872dd146102c6578063297f24bf146102c15780632bf960da146102bc5780632f48ab7d146102b7578063313ce567146102b25780633644e515146102ad57806339509351146102a85780633b107e21146102a35780633cba316b1461029e57806345fda70714610299578063542128dd14610294578063623059a51461028f57806364e72dbd1461028a578063696bb4ad1461028557806369a5ac32146102805780636f55aece1461027b57806370a08231146102765780637bd3ca35146102715780637ecebe001461026c578063845fcee41461026757806384b0196e146102625780639241bda61461025d57806395d89b41146102585780639ca423b3146102535780639dc29fac1461024e578063a457c2d714610249578063a538e6a914610244578063a9059cbb1461023f578063b2237ba31461023a578063b88e6d6314610235578063cae9764014610230578063d505accf1461022b578063dd62ed3e14610226578063de5712d414610221578063df8765481461021c578063e7b43e7d14610217578063eca93cce14610212578063f35da4621461020d5763fa82add514610208575f80fd5b611cdf565b611cb7565b611c01565b611b21565b611855565b611835565b6117f1565b611678565b61165b565b61160d565b61157b565b611551565b611529565b61147b565b611384565b611341565b61129c565b6111d8565b6110d0565b6110b3565b611078565b610e18565b610dde565b610d61565b610cf0565b610cca565b610c8f565b610c72565b610bea565b610bc2565b610b48565b610978565b610919565b6108f7565b6108dc565b610898565b610870565b6107f9565b610689565b61050f565b6104bc565b610487565b6103a0565b61031f565b6102f7565b5f9103126102f357565b5f80fd5b346102f3575f3660031901126102f357600e546040516001600160a01b039091168152602090f35b346102f35760203660031901126102f3576004355f908152600d6020908152604091829020805460019091015483516001600160a01b03909216825291810191909152f35b0390f35b805180835260209291819084018484015e5f828201840152601f01601f1916010190565b90602061039d928181520190610368565b90565b346102f3575f3660031901126102f3576040515f6003546103c081611da2565b808452906001811690811561045257506001146103f4575b610364836103e88185038261078e565b6040519182918261038c565b60035f9081527fc2575a0e9e593c00f959f8c92f12db2869c3395a3b0502d05e2516446f71f85b939250905b808210610438575090915081016020016103e86103d8565b919260018160209254838588010152019101909291610420565b60ff191660208086019190915291151560051b840190910191506103e890506103d8565b6001600160a01b038116036102f357565b346102f35760403660031901126102f3576104b16004356104a781610476565b60243590336122da565b602060405160018152f35b346102f3575f3660031901126102f3576020600254604051908152f35b6001600160801b038116036102f357565b60409060031901126102f35760043561050281610476565b9060243561039d816104d9565b346102f357610364610520366104ea565b335f908152601460205260409020909190610540906001905b5414611e5b565b61054861240c565b60405161056d8161055f60208201943390866115f3565b03601f19810183528261078e565b519020600c549160019061064390610634906001600160801b0386168061065f57506105b46105af5f975b608089901b6001600160801b038a16175b906124da565b600c55565b600b546105d3906105ce906001600160801b0384166105a9565b600b55565b610608336105e9875f52600d60205260405f2090565b80546001600160a01b0319166001600160a01b03909216919091179055565b6105a9868561061f885f52600d60205260405f2090565b01549260801b6001600160801b039091161790565b925f52600d60205260405f2090565b01556040516001600160801b0390911681529081906020820190565b6105af6106836105b492878060801b03600b541690888060801b03861602046131f7565b97610598565b346102f35760603660031901126102f3576004356106a681610476565b6024356106b281610476565b6001600160a01b0382165f9081526001602081815260408084203385529091529091205492604435929184016106f9575b6106ed93506125b6565b60405160018152602090f35b82841061071557610710836106ed950333836122da565b6106e3565b60405162461bcd60e51b815260206004820152601d60248201527f45524332303a20696e73756666696369656e7420616c6c6f77616e63650000006044820152606490fd5b634e487b7160e01b5f52604160045260245ffd5b604081019081106001600160401b0382111761078957604052565b61075a565b90601f801991011681019081106001600160401b0382111761078957604052565b604051906107be60408361078e565b565b604051906107be60608361078e565b604051906107be60808361078e565b6001600160401b03811161078957601f01601f191660200190565b346102f35760403660031901126102f3576024356004356001600160401b0382116102f357366023830112156102f357816004013590610838826107de565b91610846604051938461078e565b80835236602482860101116102f3576020815f92602461086e97018387013784010152611e62565b005b346102f3575f3660031901126102f3576011546040516001600160a01b039091168152602090f35b346102f3575f3660031901126102f3576040517f00000000000000000000000000000000000000000000000000000000000000006001600160a01b03168152602090f35b346102f3575f3660031901126102f357602060405160068152f35b346102f3575f3660031901126102f3576020610911612f4a565b604051908152f35b346102f35760403660031901126102f35760043561093681610476565b602435335f52600160205261095e8260405f209060018060a01b03165f5260205260405f2090565b54908101809111610973576104b191336122da565b611ff8565b346102f35760803660031901126102f3576109946009546126a0565b156102f357601254610a2990610a07906001600160801b03166109be6109b86120e0565b826120ec565b506010546109e7906109e0906001600160a01b03165b6001600160a01b031690565b3314611e5b565b610a016109f56109f56120e0565b6001600160401b031690565b906120ec565b601280546001600160801b0319166001600160801b0392909216919091179055565b610a6c610a47610a4260115463ffffffff9060a01c1690565b612105565b6011805463ffffffff60a01b191660a09290921b63ffffffff60a01b16919091179055565b610a9e610a99610a8560115463ffffffff9060a01c1690565b63ffffffff165f52600a60205260405f2090565b61214b565b7f259b626a3ac57abbad46c244a9bc2a13c0b530c618e9654be9351bd104cffcae610ac761211d565b610acf6120e0565b90610b43610adb612129565b610ae361213f565b60115460a01c63ffffffff16604080516001600160a01b0390961686526001600160801b0390961660208601526001600160781b039092169484019490945260ff909316606083015263ffffffff909216608082015290819060a0820190565b0390a1005b346102f35760203660031901126102f357600435610b6581610476565b601054906001600160a01b03821633036102f3576001600160a01b03166001600160a01b03199190911681176010556040519081527f853baecd5c22fcf8a4d994474a066771c51cfe6022b046e92a09874610cd128190602090a1005b346102f3575f3660031901126102f3576012546040516001600160801b039091168152602090f35b346102f35760403660031901126102f357600435610c0781610476565b601054602435906001600160a01b031633036102f3576001600160a01b039091165f8181526014602090815260409182902084905581519283528201929092527f967d50df84a5ebb45902fa277d5c3b0bc6403497c9fd6da2ecbd9ed420038f149181908101610b43565b346102f3575f3660031901126102f3576020600954604051908152f35b346102f35760203660031901126102f357600435610cac81610476565b60018060a01b03165f526014602052602060405f2054604051908152f35b346102f3575f3660031901126102f357602063ffffffff60115460a01c16604051908152f35b346102f35760203660031901126102f357600435610d0d81610476565b6010546001600160a01b031633036102f35760207f3680a8b72561b4141a1464124f40242ac80a59d51d29649d9b0b442c255b62899160018060a01b0316805f52601482525f6040812055604051908152a1005b346102f35760203660031901126102f35760043563ffffffff81168091036102f3575f908152600a6020908152604091829020805460019091015483516001600160a01b0390921682526001600160801b03811692820192909252608082811c6001600160781b03169382019390935260f89190911c6060820152f35b346102f35760203660031901126102f357600435610dfb81610476565b60018060a01b03165f525f602052602060405f2054604051908152f35b346102f3577f62025eae57aa13c48667a44135999b1c087e0e00de741759cefa772a4eb02567610e47366104ea565b9081610e6860016105393360018060a01b03165f52601460205260405f2090565b610e7061240c565b6040516020810190610e878161055f3387866115f3565b51902092610eb9610ead6001610ea5875f52600d60205260405f2090565b015460801c90565b6001600160801b031690565b6001600160801b03831610611012575050610b43610fc5610ee76001610ea5865f52600d60205260405f2090565b936001610fb0610f9282610f03855f52600d60205260405f2090565b01548098610f27610f1c875f52600d60205260405f2090565b60015f918281550155565b610f6d6105ce610f39600c5460801c90565b600b5490610f6790610f5a90869060801b6001600160801b038516176130ae565b946001600160801b031690565b90613085565b600c54610f8d906105af90608084901b6001600160801b03861617610f67565b6120ec565b92828060801b03841680611002575b505f52600d60205260405f2090565b01549460801b6001600160801b039091161790565b600b54600c54604080516001600160a01b0390961686526020860196909652948401919091526060830152608082019290925290819060a0820190565b61100c9088612ea7565b5f610fa1565b836001610fb0610f9285610fc595611044610b43988661103d61105e9d5f52600d60205260405f2090565b0154613066565b998a92610f67848861061f8b5f52600d60205260405f2090565b85611071885f52600d60205260405f2090565b0155610f27565b346102f35760203660031901126102f35760043561109581610476565b60018060a01b03165f526007602052602060405f2054604051908152f35b346102f3575f3660031901126102f3576020600c54604051908152f35b346102f3575f3660031901126102f35761117461110c7f00000000000000000000000000000000000000000000000000000000000000006130cc565b6111357f000000000000000000000000000000000000000000000000000000000000000061312c565b6020604051611144828261078e565b5f81528161118281830194601f198301368737604051978897600f60f81b895260e0858a015260e0890190610368565b908782036040890152610368565b914660608701523060808701525f60a087015285830360c087015251918281520192915f5b8281106111b657505050500390f35b8351855286955093810193928101926001016111a7565b60ff8116036102f357565b346102f35760203660031901126102f3576004356111f5816111cd565b6112006009546126a0565b156102f3576010546001600160a01b031633036102f357610f1c8160ff61086e93165f52600a60205261125c610a0761124b6109f56109f5600160405f20015460018060801b031690565b6012546001600160801b0316612026565b60405160ff821681527f568d364b674966bdb889933148a94e885581320f54b5d65d04bda235eea7fe4890602090a160ff165f52600a60205260405f2090565b346102f3575f3660031901126102f3576040515f6004546112bc81611da2565b808452906001811690811561045257506001146112e357610364836103e88185038261078e565b60045f9081527f8a35acfbc15ff81a39ae7d344fd709f28e8600b4aa8c65c6b64bfe7fe36bd19b939250905b808210611327575090915081016020016103e86103d8565b91926001816020925483858801015201910190929161130f565b346102f35760203660031901126102f35760043561135e81610476565b60018060a01b03165f526013602052602060018060a01b0360405f205416604051908152f35b346102f35760403660031901126102f3576004356113a181610476565b6001600160a01b038116602435811561142c5761142781846114095f80516020613424833981519152946113e55f9860018060a01b03165f525f60205260405f2090565b546113f282821015613163565b039160018060a01b03165f525f60205260405f2090565b556114178160025403600255565b6040519081529081906020820190565b0390a3005b60405162461bcd60e51b815260206004820152602160248201527f45524332303a206275726e2066726f6d20746865207a65726f206164647265736044820152607360f81b6064820152608490fd5b346102f35760403660031901126102f35760043561149881610476565b60243590335f5260016020526114c18160405f209060018060a01b03165f5260205260405f2090565b54918083106114d6576106ed920390336122da565b60405162461bcd60e51b815260206004820152602560248201527f45524332303a2064656372656173656420616c6c6f77616e63652062656c6f77604482015264207a65726f60d81b6064820152608490fd5b346102f3575f3660031901126102f3576010546040516001600160a01b039091168152602090f35b346102f35760403660031901126102f3576104b160043561157181610476565b60243590336125b6565b346102f35760203660031901126102f357600435612710811115806115dd575b156102f35760207f23a413df5b1fc0945373ace790cb8288a224212397d5bfc6e2a9b82a4396bbc49161ffff80196009541691160180600955604051908152a1005b50335f526014602052600260405f20541461159b565b6001600160a01b0391821681529116602082015260400190565b346102f35760203660031901126102f35760043561162a81610476565b6010546001600160a01b039182165f90815260136020526040908190205490519283926103649282169116836115f3565b346102f3575f3660031901126102f3576020600b54604051908152f35b346102f35760e03660031901126102f35760043561169581610476565b6024356116a181610476565b60443590606435926084356116b5816111cd565b60a4359460c4358142116117875761086e966117829361176a86896117628a61055f61176f996116fe8660018060a01b03165f52600760205260405f2090815491600183019055565b604051958694602086019889919260a093969594919660c08401977f6e71edae12b1b97f4d1f60370fef10105fa2faae0126114a169c64845d6126c98552600180871b03166020850152600180861b03166040840152606083015260808201520152565b5190206131ba565b6131e0565b6001600160a01b03838116911614612208565b6122da565b60405162461bcd60e51b815260206004820152601d60248201527f45524332305065726d69743a206578706972656420646561646c696e650000006044820152606490fd5b60409060031901126102f3576004356117e481610476565b9060243561039d81610476565b346102f357602061182c611804366117cc565b6001600160a01b039182165f9081526001855260408082209290931681526020919091522090565b54604051908152f35b346102f3575f3660031901126102f357602060125460801c604051908152f35b346102f35760203660031901126102f357600435611872816111cd565b61187d6009546126a0565b156102f35760115461193a91906020906118a1906109d4906001600160a01b031681565b600e546001600160a01b0316600f549091906001600160a01b03166118ff6118fa6118f56118f060016118df8a60ff165f52600a60205260405f2090565b015460801c6001600160781b031690565b612254565b61208d565b6120d2565b604051630a09391d60e11b81526001600160a01b03948516600482015293909116602484015260448301529093849190829081906064820190565b03915afa8015611b1c577f83592ad363894b5c4d81b2113457c5a1683230ce1c133eefa927d17f65cd5ca0925f91611aed575b501580611ab8575b61197e90611e5b565b6119da6119a9600161199b8460ff165f52600a60205260405f2090565b01546001600160801b031690565b6119d46119ce60016119c68660ff165f52600a60205260405f2090565b015460f81c90565b60ff1690565b9061228f565b611a2860016119f48460ff165f52600a60205260405f2090565b018054611a0b9084906001600160801b03166120ec565b81546001600160801b0319166001600160801b0391909116179055565b611a806001611a428460ff165f52600a60205260405f2090565b018054611a5a9060801c6001600160781b03166122c2565b8154600160801b600160f81b03191660809190911b600160801b600160f81b0316179055565b611a936001600160801b03821633612ea7565b604080516001600160801b03909216825260ff90921660208201529081908101610b43565b5061197e611ae46109d4611ad78460ff165f52600a60205260405f2090565b546001600160a01b031690565b33149050611975565b611b0f915060203d602011611b15575b611b07818361078e565b81019061226c565b5f61196d565b503d611afd565b612284565b346102f35760403660031901126102f357602435600435611b4182610476565b611b4c6009546126a0565b156102f3576010546001600160a01b031633036102f3577f000000000000000000000000000000000000000000000000000000000000000060016001600160a01b03821603611bba57505f80808093611ba5955af11590565b611bab57005b633d2cec6f60e21b5f5260045ffd5b60445f8080936020956040519763a9059cbb60e01b84526004526024525af13d15601f3d1160015f51141617169060405215611bf257005b633c9fd93960e21b5f5260045ffd5b346102f357611c0f366117cc565b335f526014602052600160405f20541480611c96575b80611c80575b611c3157005b81611c71826105e97f0b5e322b4b5330962013e8d6519462c133d50320ee476828060995c1acadef629560018060a01b03165f52601360205260405f2090565b610b43604051928392836115f3565b506001600160a01b038281169082161415611c2b565b506001600160a01b038281165f908152601360205260409020541615611c25565b346102f3575f3660031901126102f357600f546040516001600160a01b039091168152602090f35b346102f35760603660031901126102f357600435611cfc81610476565b602435611d0881610476565b60443590611d1582610476565b6010546001600160a01b031633036102f357600e80546001600160a01b039485166001600160a01b03199182168117909255600f8054938616938216841790556011805494909516931683179093556040805193845260208401919091528201527fad9bacb6411ac6d3f45f8cabf2c4629890ab593e58ad9c108ffef19037ce2796908060608101610b43565b90600182811c92168015611dd0575b6020831014611dbc57565b634e487b7160e01b5f52602260045260245ffd5b91607f1691611db1565b5f9291815491611de983611da2565b8083529260018116908115611e3e5750600114611e0557505050565b5f9081526020812093945091925b838310611e24575060209250010190565b600181602092949394548385870101520191019190611e13565b915050602093945060ff929192191683830152151560051b010190565b156102f357565b90611e6e6009546126a0565b156102f3576012547fcf0848d99e9b2ad96811072e657199bc9567c2cc9b614097727a852b27f5358d9290611ed990611eb4906001600160801b0384169060801c612026565b601280546001600160801b031660809290921b6001600160801b031916919091179055565b611f3e611ee860125460801c90565b92611f15600694611f03611efb8761203f565b62ffffff1690565b6001600160801b039091161115611e5b565b8230337f0000000000000000000000000000000000000000000000000000000000000000612946565b5f91611f4c60125460801c90565b90611f59611efb82612059565b6001600160801b03909216918211611fa75750509050611f82611f7d826005900490565b6120bc565b90611f8d8233612ea7565b60408051918252602082019290925290819081015b0390a1565b611fb3611efb82612073565b8211611fce57505080915090611fc98133612ea7565b611f8d565b611efb611fda9161203f565b10611f8d579050611fed600582046120a6565b90611fc98233612ea7565b634e487b7160e01b5f52601160045260245ffd5b6001600160801b0390811662015180019190821161097357565b6001600160801b03918216908216019190821161097357565b62ffffff16624c4b40029062ffffff821691820361097357565b62ffffff16621ab3f0029062ffffff821691820361097357565b62ffffff1662319750029062ffffff821691820361097357565b908160801b91808304600160801b149015171561097357565b908160021b918083046004149015171561097357565b9060068202918083046006149015171561097357565b90600a820180921161097357565b60243561039d816104d9565b6001600160801b03918216908216039190821161097357565b63ffffffff60019116019063ffffffff821161097357565b60043561039d81610476565b6044356001600160781b03811681036102f35790565b60643561039d816111cd565b60019061217960043561215d81610476565b82546001600160a01b0319166001600160a01b03909116178255565b016121a5602435612189816104d9565b82546001600160801b0319166001600160801b03909116178255565b6044356001600160781b03811681036102f3578154600160801b600160f81b03191660809190911b600160801b600160f81b03161781556064356121e8816111cd565b81546001600160f81b031660f89190911b6001600160f81b031916179055565b1561220f57565b60405162461bcd60e51b815260206004820152601e60248201527f45524332305065726d69743a20696e76616c6964207369676e617475726500006044820152606490fd5b6001600160781b031660ff8111610973576001901b90565b908160209103126102f3575180151581036102f35790565b6040513d5f823e3d90fd5b6001600160801b039091169081156122ae576001600160801b03160490565b634e487b7160e01b5f52601260045260245ffd5b6001600160781b039081166001019190821161097357565b6001600160a01b038116919082156123bb576001600160a01b03821693841561236b57806123557f8c5be1e5ebec7d5bd14f71427d1e84f3dd0314c0f7b2291e5b200ac8c7c3b925946123406123669560018060a01b03165f52600160205260405f2090565b9060018060a01b03165f5260205260405f2090565b556040519081529081906020820190565b0390a3565b60405162461bcd60e51b815260206004820152602260248201527f45524332303a20617070726f766520746f20746865207a65726f206164647265604482015261737360f01b6064820152608490fd5b60405162461bcd60e51b8152602060048201526024808201527f45524332303a20617070726f76652066726f6d20746865207a65726f206164646044820152637265737360e01b6064820152608490fd5b600b5461241b8160801c61200c565b426001600160801b039091161061242f5750565b612443906105ce906102a360871b906124da565b6002546311e1a3008111156124c9576105af61246461247f9261477c900490565b6105a9600c54916009549061ffff6127109216020460801b90565b7f640eaa6ba71a4f457fdf8b26b0a8a0a6096d6d2bf731d07d47717534847ce55d611fa26114176124b2600b5460801c90565b600c5460801c5b60018060801b03169060801b1790565b5061247f6105af63a34ce6cb612464565b6124b9906124ef8360801d8260801d016131f7565b926001600160801b039182169116016131f7565b1561250a57565b60405162461bcd60e51b815260206004820152602360248201527f45524332303a207472616e7366657220746f20746865207a65726f206164647260448201526265737360e81b6064820152608490fd5b1561256257565b60405162461bcd60e51b815260206004820152602660248201527f45524332303a207472616e7366657220616d6f756e7420657863656564732062604482015265616c616e636560d01b6064820152608490fd5b916001600160a01b03831691821561264d575f80516020613424833981519152916126376123669260018060a01b038116966125f3881515612503565b61261d846126108360018060a01b03165f525f60205260405f2090565b546113f28282101561255b565b556001600160a01b03165f90815260208190526040902090565b8054820190556040519081529081906020820190565b60405162461bcd60e51b815260206004820152602560248201527f45524332303a207472616e736665722066726f6d20746865207a65726f206164604482015264647265737360d81b6064820152608490fd5b60ff1c6001036126af57600190565b5f90565b6020818303126102f3578051906001600160401b0382116102f35701906040828203126102f357604051916126e78361076e565b80516126f2816111cd565b83526020810151906001600160401b0382116102f3570181601f820112156102f357805190612720826107de565b9261272e604051948561078e565b828452602083830101116102f357815f9260208093018386015e83010152602082015290565b908160c09103126102f3576040519060c08201908282106001600160401b038311176107895760a09160405280518352602081015160208401526040810151604084015260608101516127a6816111cd565b606084015260808101516080840152015160a082015290565b929190604051936020850152604084015260ff60f81b166060830152604182526107be60618361078e565b909261284261010093604061039d97966128178682516020809160018060a01b0381511684520151910152565b60208181015187840152910151606086015281516001600160a01b03166080860152015160a0840152565b6001600160a01b031660c082015260e081018290520190610368565b604061039d94936101009360018060a01b0316835265ffffffffffff6060825160018060a01b03815116602087015260018060a01b036020820151168587015282858201511682870152015116608084015260018060a01b0360208201511660a0840152015160c08201528160e08201520190610368565b908160a09103126102f3576040519060a08201908282106001600160401b03831117610789576080916040528051835260208101516020840152604081015161291e816111cd565b6040840152606081015160608401520151608082015290565b908160209103126102f3575190565b9361295a90602080825183010191016126b3565b60016001600160a01b038616036129785750505090503403611bab57565b60ff612985825160ff1690565b16600181036129995750506107be9361322a565b60028103612b7b575060206129b9910151602080825183010191016128d6565b6001600160a01b0385169073898118e029aa17ed4763f432c1bdc1085d166cde8203612af357604051623f675f60e91b81526001600160a01b038416600482015291602090839060249082905afa908115611b1c57612a9d5f939284938491612ac4575b5061055f602084015193612a35604082015160ff1690565b60608201516080909201516040516323f2ebc360e21b60208201526001600160a01b038b16602482015230604482015260648101959095526084850196909652600160a485015260ff1660c484015260e4830152610104820193909352918290610124820190565b60208151910182885af115612ab5576107be9361322a565b63203aa5b560e11b5f5260045ffd5b612ae6915060203d602011612aec575b612ade818361078e565b810190612937565b5f612a1d565b503d612ad4565b5f915080612b7683925161055f602084015193612b14604082015160ff1690565b606082015160809092015160405163d505accf60e01b60208201526001600160a01b03808c1660248301528c1660448201526064810195909552608485019690965260ff1660a484015260c483015260e4820193909352918290610104820190565b612a9d565b919493909160038103612c215750612b939150613216565b9273419c606ed7dd9e411826a26ce9f146ed5a5f7c343b156102f357604051631b63c28b60e11b81526001600160a01b03918216600482015291811660248301529283166044820152911660648201525f816084818373419c606ed7dd9e411826a26ce9f146ed5a5f7c345af18015611b1c57612c0d5750565b80612c1b5f6107be9361078e565b806102e9565b60048103612d835750906020612c4291015160208082518301019101612754565b90612d00612c508351613216565b92612caa612c67604083015165ffffffffffff1690565b612c8f612c726107cf565b6001600160a01b038a168152966001600160a01b03166020880152565b65ffffffffffff604087015265ffffffffffff166060860152565b6020810151612cb76107c0565b9485526001600160a01b03861660208601526040850152608081015190612cfa612cea606060a084015193015160ff1690565b60f81b6001600160f81b03191690565b916127bf565b9173419c606ed7dd9e411826a26ce9f146ed5a5f7c343b156102f3576040516302b67b5760e41b8152925f9184918291612d3f91908a6004850161285e565b03818373419c606ed7dd9e411826a26ce9f146ed5a5f7c345af1918215611b1c57612b9392612d6f575b50613216565b80612c1b5f612d7d9361078e565b5f612d69565b600514612d92575b5050505050565b612dac6020612e2993015160208082518301019101612754565b908151612dc9612dba6107af565b6001600160a01b039097168752565b60208601526040820151602083015190612de16107c0565b96875260208701526040860152612e08612df96107af565b6001600160a01b039095168552565b6020840152608081015190612cfa612cea606060a084015193015160ff1690565b9173419c606ed7dd9e411826a26ce9f146ed5a5f7c343b156102f357612e655f93604051958694859463187945bd60e11b8652600486016127ea565b03818373419c606ed7dd9e411826a26ce9f146ed5a5f7c345af18015611b1c57612e93575b80808080612d8b565b80612c1b5f612ea19361078e565b5f612e8a565b6001600160a01b03811691908215612f05576002549180830180931161097357612ef35f80516020613424833981519152925f9460025560018060a01b03165f525f60205260405f2090565b805482019055604051908152602090a3565b60405162461bcd60e51b815260206004820152601f60248201527f45524332303a206d696e7420746f20746865207a65726f2061646472657373006044820152606490fd5b307f00000000000000000000000000000000000000000000000000000000000000006001600160a01b0316148061303d575b15612fa5577f000000000000000000000000000000000000000000000000000000000000000090565b60405160208101907f8b73c3c69bb8fe3d512ecc4cf759cc79239f7b179b0ffacaa9a75d522b39400f82527f000000000000000000000000000000000000000000000000000000000000000060408201527f000000000000000000000000000000000000000000000000000000000000000060608201524660808201523060a082015260a0815261303760c08261078e565b51902090565b507f00000000000000000000000000000000000000000000000000000000000000004614612f7c565b61039d91608082901c6001600160801b039182169190921602046131f7565b6124b99061309a8360801d8260801d036131f7565b926001600160801b039081169116036131f7565b61039d916001600160801b0380831660809390931c911602046131f7565b60ff81146131125760ff811690601f821161310357604051916130f060408461078e565b6020808452838101919036833783525290565b632cd44ac360e21b5f5260045ffd5b5060405161039d81613125816005611dda565b038261078e565b60ff81146131505760ff811690601f821161310357604051916130f060408461078e565b5060405161039d81613125816006611dda565b1561316a57565b60405162461bcd60e51b815260206004820152602260248201527f45524332303a206275726e20616d6f756e7420657863656564732062616c616e604482015261636560f01b6064820152608490fd5b6042906131c5612f4a565b906040519161190160f01b8352600283015260228201522090565b9161039d93916131ef93613279565b919091613308565b6001600160801b038111613211576001600160801b031690565b505f90565b6001600160a01b0381169081036132115790565b6040516323b872dd60e01b81526001600160a01b03928316600482015292909116602483015260448201929092526020915f9160649183905af13d15601f3d1160015f511416171615611bf257565b6fa2a8918ca85bafe22016d0b997e4df60600160ff1b0384116132df576020935f9360ff60809460405194855216868401526040830152606082015282805260015afa15611b1c575f516001600160a01b038116156132d757905f90565b505f90600190565b505050505f90600390565b600511156132f457565b634e487b7160e01b5f52602160045260245ffd5b613311816132ea565b806133195750565b613322816132ea565b6001810361336a5760405162461bcd60e51b815260206004820152601860248201527745434453413a20696e76616c6964207369676e617475726560401b6044820152606490fd5b613373816132ea565b600281036133c05760405162461bcd60e51b815260206004820152601f60248201527f45434453413a20696e76616c6964207369676e6174757265206c656e677468006044820152606490fd5b806133cc6003926132ea565b146133d357565b60405162461bcd60e51b815260206004820152602260248201527f45434453413a20696e76616c6964207369676e6174757265202773272076616c604482015261756560f01b6064820152608490fdfeddf252ad1be2c89b69c2b068fc378daa952ba7f163c4a11628f55a4df523b3efa26469706673582212208a58690f72ad66be6292475963596cc525a27fb565e8aec1347664191c05471064736f6c634300081a0033","linkReferences":{}},"methodIdentifiers":{"DOMAIN_SEPARATOR()":"3644e515","addShare((address,uint128,uint120,uint8))":"3b107e21","addauths(address,uint256)":"542128dd","addreferral(address,address)":"eca93cce","allowance(address,address)":"dd62ed3e","approve(address,uint256)":"095ea7b3","auths(address)":"64e72dbd","balanceOf(address)":"70a08231","burn(address,uint256)":"9dc29fac","burnShare(uint8)":"9241bda6","changeDAOAdmin(address)":"3cba316b","dao_admin()":"a538e6a9","decimals()":"313ce567","decreaseAllowance(address,uint256)":"a457c2d7","eip712Domain()":"84b0196e","getreferralanddaoadmin(address)":"b88e6d63","increaseAllowance(address,uint256)":"39509351","left_share()":"45fda707","marketcontract()":"2bf960da","name()":"06fdde03","nonces(address)":"7ecebe00","normalgoodid()":"02517e8b","permit(address,address,uint256,uint256,uint8,bytes32,bytes32)":"d505accf","poolstate()":"845fcee4","publicSell(uint256,bytes)":"297f24bf","publicsell()":"de5712d4","referrals(address)":"9ca423b3","rmauths(address)":"69a5ac32","setEnv(address,address,address)":"fa82add5","setRatio(uint256)":"b2237ba3","shareMint(uint8)":"df876548","shares(uint32)":"6f55aece","shares_index()":"696bb4ad","stake(address,uint128)":"19f8d5b4","stakeproof(uint256)":"06afa12a","stakestate()":"cae97640","symbol()":"95d89b41","totalSupply()":"18160ddd","transfer(address,uint256)":"a9059cbb","transferFrom(address,address,uint256)":"23b872dd","ttstokenconfig()":"623059a5","unstake(address,uint128)":"7bd3ca35","usdt()":"2f48ab7d","valuegoodid()":"f35da462","withdrawPublicSell(uint256,address)":"e7b43e7d"},"id":64}