{"abi":[{"type":"constructor","inputs":[{"name":"_officialTokenContract","type":"address","internalType":"address"}],"stateMutability":"nonpayable"},{"type":"function","name":"DOMAIN_SEPARATOR","inputs":[],"outputs":[{"name":"","type":"bytes32","internalType":"bytes32"}],"stateMutability":"view"},{"type":"function","name":"approve","inputs":[{"name":"to","type":"address","internalType":"address"},{"name":"tokenId","type":"uint256","internalType":"uint256"}],"outputs":[],"stateMutability":"nonpayable"},{"type":"function","name":"balanceOf","inputs":[{"name":"owner","type":"address","internalType":"address"}],"outputs":[{"name":"","type":"uint256","internalType":"uint256"}],"stateMutability":"view"},{"type":"function","name":"burn","inputs":[{"name":"tokenId","type":"uint256","internalType":"uint256"}],"outputs":[],"stateMutability":"nonpayable"},{"type":"function","name":"eip712Domain","inputs":[],"outputs":[{"name":"fields","type":"bytes1","internalType":"bytes1"},{"name":"name","type":"string","internalType":"string"},{"name":"version","type":"string","internalType":"string"},{"name":"chainId","type":"uint256","internalType":"uint256"},{"name":"verifyingContract","type":"address","internalType":"address"},{"name":"salt","type":"bytes32","internalType":"bytes32"},{"name":"extensions","type":"uint256[]","internalType":"uint256[]"}],"stateMutability":"view"},{"type":"function","name":"getApproved","inputs":[{"name":"tokenId","type":"uint256","internalType":"uint256"}],"outputs":[{"name":"","type":"address","internalType":"address"}],"stateMutability":"view"},{"type":"function","name":"isApprovedForAll","inputs":[{"name":"owner","type":"address","internalType":"address"},{"name":"operator","type":"address","internalType":"address"}],"outputs":[{"name":"","type":"bool","internalType":"bool"}],"stateMutability":"view"},{"type":"function","name":"isApprovedOrOwner","inputs":[{"name":"spender","type":"address","internalType":"address"},{"name":"tokenId","type":"uint256","internalType":"uint256"}],"outputs":[{"name":"","type":"bool","internalType":"bool"}],"stateMutability":"view"},{"type":"function","name":"mint","inputs":[{"name":"recipent","type":"address","internalType":"address"},{"name":"tokenid","type":"uint256","internalType":"uint256"}],"outputs":[],"stateMutability":"nonpayable"},{"type":"function","name":"name","inputs":[],"outputs":[{"name":"","type":"string","internalType":"string"}],"stateMutability":"view"},{"type":"function","name":"nonces","inputs":[{"name":"tokenId","type":"uint256","internalType":"uint256"}],"outputs":[{"name":"","type":"uint256","internalType":"uint256"}],"stateMutability":"view"},{"type":"function","name":"ownerOf","inputs":[{"name":"tokenId","type":"uint256","internalType":"uint256"}],"outputs":[{"name":"","type":"address","internalType":"address"}],"stateMutability":"view"},{"type":"function","name":"permit","inputs":[{"name":"spender","type":"address","internalType":"address"},{"name":"tokenId","type":"uint256","internalType":"uint256"},{"name":"deadline","type":"uint256","internalType":"uint256"},{"name":"signature","type":"bytes","internalType":"bytes"}],"outputs":[],"stateMutability":"nonpayable"},{"type":"function","name":"safeTransferFrom","inputs":[{"name":"from","type":"address","internalType":"address"},{"name":"to","type":"address","internalType":"address"},{"name":"tokenId","type":"uint256","internalType":"uint256"}],"outputs":[],"stateMutability":"nonpayable"},{"type":"function","name":"safeTransferFrom","inputs":[{"name":"from","type":"address","internalType":"address"},{"name":"to","type":"address","internalType":"address"},{"name":"tokenId","type":"uint256","internalType":"uint256"},{"name":"data","type":"bytes","internalType":"bytes"}],"outputs":[],"stateMutability":"nonpayable"},{"type":"function","name":"safeTransferFromWithPermit","inputs":[{"name":"from","type":"address","internalType":"address"},{"name":"to","type":"address","internalType":"address"},{"name":"tokenId","type":"uint256","internalType":"uint256"},{"name":"_data","type":"bytes","internalType":"bytes"},{"name":"deadline","type":"uint256","internalType":"uint256"},{"name":"signature","type":"bytes","internalType":"bytes"}],"outputs":[],"stateMutability":"nonpayable"},{"type":"function","name":"setApprovalForAll","inputs":[{"name":"operator","type":"address","internalType":"address"},{"name":"approved","type":"bool","internalType":"bool"}],"outputs":[],"stateMutability":"nonpayable"},{"type":"function","name":"supportsInterface","inputs":[{"name":"interfaceId","type":"bytes4","internalType":"bytes4"}],"outputs":[{"name":"","type":"bool","internalType":"bool"}],"stateMutability":"view"},{"type":"function","name":"symbol","inputs":[],"outputs":[{"name":"","type":"string","internalType":"string"}],"stateMutability":"view"},{"type":"function","name":"tokenURI","inputs":[{"name":"tokenId","type":"uint256","internalType":"uint256"}],"outputs":[{"name":"","type":"string","internalType":"string"}],"stateMutability":"view"},{"type":"function","name":"transferFrom","inputs":[{"name":"from","type":"address","internalType":"address"},{"name":"to","type":"address","internalType":"address"},{"name":"tokenId","type":"uint256","internalType":"uint256"}],"outputs":[],"stateMutability":"nonpayable"},{"type":"event","name":"Approval","inputs":[{"name":"owner","type":"address","indexed":true,"internalType":"address"},{"name":"approved","type":"address","indexed":true,"internalType":"address"},{"name":"tokenId","type":"uint256","indexed":true,"internalType":"uint256"}],"anonymous":false},{"type":"event","name":"ApprovalForAll","inputs":[{"name":"owner","type":"address","indexed":true,"internalType":"address"},{"name":"operator","type":"address","indexed":true,"internalType":"address"},{"name":"approved","type":"bool","indexed":false,"internalType":"bool"}],"anonymous":false},{"type":"event","name":"EIP712DomainChanged","inputs":[],"anonymous":false},{"type":"event","name":"Transfer","inputs":[{"name":"from","type":"address","indexed":true,"internalType":"address"},{"name":"to","type":"address","indexed":true,"internalType":"address"},{"name":"tokenId","type":"uint256","indexed":true,"internalType":"uint256"}],"anonymous":false},{"type":"error","name":"InvalidShortString","inputs":[]},{"type":"error","name":"StringTooLong","inputs":[{"name":"str","type":"string","internalType":"string"}]}],"bytecode":{"object":"0x6101a06040527f49ecf333e5b8c95c40fdafc95c1ad136e8914a8fb55e9dc8bb01eaa83a2df9ad61016052348015610035575f80fd5b5060405161245f38038061245f8339810160408190526100549161020b565b6040518060400160405280600a815260200169151514ddd85c0813919560b21b8152506040518060400160405280600381526020016254545360e81b81525081604051806040016040528060018152602001603160f81b8152508383815f90816100be91906102d0565b5060016100cb82826102d0565b506100db91508390506006610193565b610120526100ea816007610193565b61014052815160208084019190912060e052815190820120610100524660a05261017660e05161010051604080517f8b73c3c69bb8fe3d512ecc4cf759cc79239f7b179b0ffacaa9a75d522b39400f60208201529081019290925260608201524660808201523060a08201525f9060c00160405160208183030381529060405280519060200120905090565b60805250503060c05250506001600160a01b0316610180526103e2565b5f6020835110156101ae576101a7836101c5565b90506101bf565b816101b984826102d0565b5060ff90505b92915050565b5f80829050601f815111156101f8578260405163305a27a960e01b81526004016101ef919061038a565b60405180910390fd5b8051610203826103bf565b179392505050565b5f6020828403121561021b575f80fd5b81516001600160a01b0381168114610231575f80fd5b9392505050565b634e487b7160e01b5f52604160045260245ffd5b600181811c9082168061026057607f821691505b60208210810361027e57634e487b7160e01b5f52602260045260245ffd5b50919050565b601f8211156102cb57805f5260205f20601f840160051c810160208510156102a95750805b601f840160051c820191505b818110156102c8575f81556001016102b5565b50505b505050565b81516001600160401b038111156102e9576102e9610238565b6102fd816102f7845461024c565b84610284565b6020601f82116001811461032f575f83156103185750848201515b5f19600385901b1c1916600184901b1784556102c8565b5f84815260208120601f198516915b8281101561035e578785015182556020948501946001909201910161033e565b508482101561037b57868401515f19600387901b60f8161c191681555b50505050600190811b01905550565b602081525f82518060208401528060208501604085015e5f604082850101526040601f19601f83011684010191505092915050565b8051602080830151919081101561027e575f1960209190910360031b1b16919050565b60805160a05160c05160e051610100516101205161014051610160516101805161201161044e5f395f8181610698015261075101525f610d1001525f61093101525f61090601525f610f0401525f610edc01525f610e3701525f610e6101525f610e8b01526120115ff3fe608060405234801561000f575f80fd5b506004361061016e575f3560e01c806342966c68116100d257806384b0196e11610088578063b88d4fde11610063578063b88d4fde146102f9578063c87b56dd1461030c578063e985e9c51461031f575f80fd5b806384b0196e146102c357806395d89b41146102de578063a22cb465146102e6575f80fd5b80636352211e116100b85780636352211e1461028a57806370a082311461029d578063745a41bc146102b0575f80fd5b806342966c6814610264578063430c208114610277575f80fd5b806323b872dd116101275780633644e5151161010d5780633644e5151461023657806340c10f191461023e57806342842e0e14610251575f80fd5b806323b872dd1461021057806324744d5414610223575f80fd5b8063081812fc11610157578063081812fc146101af578063095ea7b3146101da578063141a468c146101ef575f80fd5b806301ffc9a71461017257806306fdde031461019a575b5f80fd5b610185610180366004611ae6565b61035a565b60405190151581526020015b60405180910390f35b6101a2610384565b6040516101919190611b2f565b6101c26101bd366004611b41565b610413565b6040516001600160a01b039091168152602001610191565b6101ed6101e8366004611b73565b610438565b005b6102026101fd366004611b41565b610551565b604051908152602001610191565b6101ed61021e366004611b9b565b610564565b6101ed610231366004611c74565b610655565b610202610675565b6101ed61024c366004611b73565b610683565b6101ed61025f366004611b9b565b610722565b6101ed610272366004611b41565b61073c565b610185610285366004611b73565b6107d9565b6101c2610298366004611b41565b6107eb565b6102026102ab366004611d0a565b61084f565b6101ed6102be366004611d23565b6108e7565b6102cb6108f9565b6040516101919796959493929190611d80565b6101a2610980565b6101ed6102f4366004611e16565b61098f565b6101ed610307366004611e4f565b61099a565b6101a261031a366004611b41565b610a8d565b61018561032d366004611e9b565b6001600160a01b039182165f90815260056020908152604080832093909416825291909152205460ff1690565b5f6001600160e01b03198216635604e22560e01b148061037e575061037e82610af0565b92915050565b60605f805461039290611ecc565b80601f01602080910402602001604051908101604052809291908181526020018280546103be90611ecc565b80156104095780601f106103e057610100808354040283529160200191610409565b820191905f5260205f20905b8154815290600101906020018083116103ec57829003601f168201915b5050505050905090565b5f61041d82610b3f565b505f908152600460205260409020546001600160a01b031690565b5f610442826107eb565b9050806001600160a01b0316836001600160a01b0316036104b45760405162461bcd60e51b815260206004820152602160248201527f4552433732313a20617070726f76616c20746f2063757272656e74206f776e656044820152603960f91b60648201526084015b60405180910390fd5b336001600160a01b03821614806104d057506104d0813361032d565b6105425760405162461bcd60e51b815260206004820152603d60248201527f4552433732313a20617070726f76652063616c6c6572206973206e6f7420746f60448201527f6b656e206f776e6572206f7220617070726f76656420666f7220616c6c00000060648201526084016104ab565b61054c8383610ba2565b505050565b5f8181526008602052604081205461037e565b61056e3382610c0f565b6105d05760405162461bcd60e51b815260206004820152602d60248201527f4552433732313a2063616c6c6572206973206e6f7420746f6b656e206f776e6560448201526c1c881bdc88185c1c1c9bdd9959609a1b60648201526084016104ab565b6105db838383610c8c565b5f8181526009602052604090819020549051630fd52d2b60e11b8152600481018390526001600160a01b038581166024830152848116604483015290911690631faa5a56906064015f604051808303815f87803b15801561063a575f80fd5b505af115801561064c573d5f803e3d5ffd5b50505050505050565b61066133858484610cab565b61066d8686868661099a565b505050505050565b5f61067e610e2b565b905090565b6040516394c3c33360e01b81523360048201527f00000000000000000000000000000000000000000000000000000000000000006001600160a01b0316906394c3c33390602401602060405180830381865afa1580156106e5573d5f803e3d5ffd5b505050506040513d601f19601f820116820180604052508101906107099190611f04565b600114610714575f80fd5b61071e8282610f54565b5050565b61054c83838360405180602001604052805f81525061099a565b6040516394c3c33360e01b81523360048201527f00000000000000000000000000000000000000000000000000000000000000006001600160a01b0316906394c3c33390602401602060405180830381865afa15801561079e573d5f803e3d5ffd5b505050506040513d601f19601f820116820180604052508101906107c29190611f04565b6001146107cd575f80fd5b6107d6816110dc565b50565b5f6107e48383610c0f565b9392505050565b5f818152600260205260408120546001600160a01b03168061037e5760405162461bcd60e51b815260206004820152601860248201527f4552433732313a20696e76616c696420746f6b656e204944000000000000000060448201526064016104ab565b5f6001600160a01b0382166108cc5760405162461bcd60e51b815260206004820152602960248201527f4552433732313a2061646472657373207a65726f206973206e6f74206120766160448201527f6c6964206f776e6572000000000000000000000000000000000000000000000060648201526084016104ab565b506001600160a01b03165f9081526003602052604090205490565b6108f384848484610cab565b50505050565b5f6060808280808361092c7f0000000000000000000000000000000000000000000000000000000000000000600661116e565b6109577f0000000000000000000000000000000000000000000000000000000000000000600761116e565b604080515f80825260208201909252600f60f81b9b939a50919850469750309650945092509050565b60606001805461039290611ecc565b61071e338383611217565b6109a43383610c0f565b610a065760405162461bcd60e51b815260206004820152602d60248201527f4552433732313a2063616c6c6572206973206e6f7420746f6b656e206f776e6560448201526c1c881bdc88185c1c1c9bdd9959609a1b60648201526084016104ab565b610a12848484846112e4565b5f8281526009602052604090819020549051630fd52d2b60e11b8152600481018490526001600160a01b038681166024830152858116604483015290911690631faa5a56906064015f604051808303815f87803b158015610a71575f80fd5b505af1158015610a83573d5f803e3d5ffd5b5050505050505050565b6060610a9882610b3f565b5f610aa161136d565b90505f815111610abf5760405180602001604052805f8152506107e4565b80610ac98461138d565b604051602001610ada929190611f32565b6040516020818303038152906040529392505050565b5f6001600160e01b031982166380ac58cd60e01b1480610b2057506001600160e01b03198216635b5e139f60e01b145b8061037e57506301ffc9a760e01b6001600160e01b031983161461037e565b5f818152600260205260409020546001600160a01b03166107d65760405162461bcd60e51b815260206004820152601860248201527f4552433732313a20696e76616c696420746f6b656e204944000000000000000060448201526064016104ab565b5f81815260046020526040902080546001600160a01b0319166001600160a01b0384169081179091558190610bd6826107eb565b6001600160a01b03167f8c5be1e5ebec7d5bd14f71427d1e84f3dd0314c0f7b2291e5b200ac8c7c3b92560405160405180910390a45050565b5f80610c1a836107eb565b9050806001600160a01b0316846001600160a01b03161480610c6057506001600160a01b038082165f9081526005602090815260408083209388168352929052205460ff165b80610c845750836001600160a01b0316610c7984610413565b6001600160a01b0316145b949350505050565b5f8181526008602052604090208054600101905561054c83838361142a565b81421115610cfb5760405162461bcd60e51b815260206004820152601e60248201527f4552433732315065726d69743a206578706972656420646561646c696e65000060448201526064016104ab565b5f8381526008602090815260408083205481517f0000000000000000000000000000000000000000000000000000000000000000818501526001600160a01b0389168184015260608101889052608081019190915260a08082018790528251808303909101815260c0909101909152805191012090610d7982611608565b90505f610d868285611634565b5090505f6001600160a01b03821615801590610da75750610da78288610c0f565b90508080610dc35750610dc3610dbc886107eb565b8487611676565b80610dd55750610dd5610dbc88610413565b610e215760405162461bcd60e51b815260206004820152601f60248201527f4552433732315065726d69743a20696e76616c6964207369676e61747572650060448201526064016104ab565b610a838888610ba2565b5f306001600160a01b037f000000000000000000000000000000000000000000000000000000000000000016148015610e8357507f000000000000000000000000000000000000000000000000000000000000000046145b15610ead57507f000000000000000000000000000000000000000000000000000000000000000090565b61067e604080517f8b73c3c69bb8fe3d512ecc4cf759cc79239f7b179b0ffacaa9a75d522b39400f60208201527f0000000000000000000000000000000000000000000000000000000000000000918101919091527f000000000000000000000000000000000000000000000000000000000000000060608201524660808201523060a08201525f9060c00160405160208183030381529060405280519060200120905090565b6001600160a01b038216610faa5760405162461bcd60e51b815260206004820181905260248201527f4552433732313a206d696e7420746f20746865207a65726f206164647265737360448201526064016104ab565b5f818152600260205260409020546001600160a01b03161561100e5760405162461bcd60e51b815260206004820152601c60248201527f4552433732313a20746f6b656e20616c7265616479206d696e7465640000000060448201526064016104ab565b5f818152600260205260409020546001600160a01b0316156110725760405162461bcd60e51b815260206004820152601c60248201527f4552433732313a20746f6b656e20616c7265616479206d696e7465640000000060448201526064016104ab565b6001600160a01b0382165f81815260036020908152604080832080546001019055848352600290915280822080546001600160a01b0319168417905551839291907fddf252ad1be2c89b69c2b068fc378daa952ba7f163c4a11628f55a4df523b3ef908290a45050565b5f6110e6826107eb565b90506110f1826107eb565b5f83815260046020908152604080832080546001600160a01b03199081169091556001600160a01b0385168085526003845282852080545f190190558785526002909352818420805490911690555192935084927fddf252ad1be2c89b69c2b068fc378daa952ba7f163c4a11628f55a4df523b3ef908390a45050565b606060ff8314611188576111818361177c565b905061037e565b81805461119490611ecc565b80601f01602080910402602001604051908101604052809291908181526020018280546111c090611ecc565b801561120b5780601f106111e25761010080835404028352916020019161120b565b820191905f5260205f20905b8154815290600101906020018083116111ee57829003601f168201915b5050505050905061037e565b816001600160a01b0316836001600160a01b0316036112785760405162461bcd60e51b815260206004820152601960248201527f4552433732313a20617070726f766520746f2063616c6c65720000000000000060448201526064016104ab565b6001600160a01b038381165f81815260056020908152604080832094871680845294825291829020805460ff191686151590811790915591519182527f17307eab39ab6107e8899845ad3d59bd9653f200f220920489ca2b5937696c31910160405180910390a3505050565b6112ef848484610c8c565b6112fb848484846117b9565b6108f35760405162461bcd60e51b815260206004820152603260248201527f4552433732313a207472616e7366657220746f206e6f6e20455243373231526560448201527f63656976657220696d706c656d656e746572000000000000000000000000000060648201526084016104ab565b6060604051806060016040528060218152602001611fbb60219139905090565b60605f6113998361190c565b60010190505f8167ffffffffffffffff8111156113b8576113b8611bd5565b6040519080825280601f01601f1916602001820160405280156113e2576020820181803683370190505b5090508181016020015b5f19017f3031323334353637383961626364656600000000000000000000000000000000600a86061a8153600a85049450846113ec57509392505050565b826001600160a01b031661143d826107eb565b6001600160a01b0316146114a15760405162461bcd60e51b815260206004820152602560248201527f4552433732313a207472616e736665722066726f6d20696e636f72726563742060448201526437bbb732b960d91b60648201526084016104ab565b6001600160a01b0382166115035760405162461bcd60e51b8152602060048201526024808201527f4552433732313a207472616e7366657220746f20746865207a65726f206164646044820152637265737360e01b60648201526084016104ab565b826001600160a01b0316611516826107eb565b6001600160a01b03161461157a5760405162461bcd60e51b815260206004820152602560248201527f4552433732313a207472616e736665722066726f6d20696e636f72726563742060448201526437bbb732b960d91b60648201526084016104ab565b5f81815260046020908152604080832080546001600160a01b03199081169091556001600160a01b038781168086526003855283862080545f1901905590871680865283862080546001019055868652600290945282852080549092168417909155905184937fddf252ad1be2c89b69c2b068fc378daa952ba7f163c4a11628f55a4df523b3ef91a4505050565b5f61037e611614610e2b565b8360405161190160f01b8152600281019290925260228201526042902090565b5f808251604103611668576020830151604084015160608501515f1a61165c878285856119ed565b9450945050505061166f565b505f905060025b9250929050565b5f805f856001600160a01b0316631626ba7e60e01b868660405160240161169e929190611f46565b60408051601f198184030181529181526020820180517bffffffffffffffffffffffffffffffffffffffffffffffffffffffff166001600160e01b03199094169390931790925290516116f19190611f5e565b5f60405180830381855afa9150503d805f8114611729576040519150601f19603f3d011682016040523d82523d5f602084013e61172e565b606091505b5091509150818015611741575080516020145b801561177257508051630b135d3f60e11b906117669083016020908101908401611f69565b6001600160e01b031916145b9695505050505050565b60605f61178883611aaa565b6040805160208082528183019092529192505f91906020820181803683375050509182525060208101929092525090565b5f6001600160a01b0384163b1561190157604051630a85bd0160e11b81526001600160a01b0385169063150b7a02906117fc903390899088908890600401611f84565b6020604051808303815f875af1925050508015611836575060408051601f3d908101601f1916820190925261183391810190611f69565b60015b6118e7573d808015611863576040519150601f19603f3d011682016040523d82523d5f602084013e611868565b606091505b5080515f036118df5760405162461bcd60e51b815260206004820152603260248201527f4552433732313a207472616e7366657220746f206e6f6e20455243373231526560448201527f63656976657220696d706c656d656e746572000000000000000000000000000060648201526084016104ab565b805181602001fd5b6001600160e01b031916630a85bd0160e11b149050610c84565b506001949350505050565b5f807a184f03e93ff9f4daa797ed6e38ed64bf6a1f0100000000000000008310611954577a184f03e93ff9f4daa797ed6e38ed64bf6a1f010000000000000000830492506040015b6d04ee2d6d415b85acef81000000008310611980576d04ee2d6d415b85acef8100000000830492506020015b662386f26fc10000831061199e57662386f26fc10000830492506010015b6305f5e10083106119b6576305f5e100830492506008015b61271083106119ca57612710830492506004015b606483106119dc576064830492506002015b600a831061037e5760010192915050565b5f807f7fffffffffffffffffffffffffffffff5d576e7357a4501ddfe92f46681b20a0831115611a2257505f90506003611aa1565b604080515f8082526020820180845289905260ff881692820192909252606081018690526080810185905260019060a0016020604051602081039080840390855afa158015611a73573d5f803e3d5ffd5b5050604051601f1901519150506001600160a01b038116611a9b575f60019250925050611aa1565b91505f90505b94509492505050565b5f60ff8216601f81111561037e57604051632cd44ac360e21b815260040160405180910390fd5b6001600160e01b0319811681146107d6575f80fd5b5f60208284031215611af6575f80fd5b81356107e481611ad1565b5f81518084528060208401602086015e5f602082860101526020601f19601f83011685010191505092915050565b602081525f6107e46020830184611b01565b5f60208284031215611b51575f80fd5b5035919050565b80356001600160a01b0381168114611b6e575f80fd5b919050565b5f8060408385031215611b84575f80fd5b611b8d83611b58565b946020939093013593505050565b5f805f60608486031215611bad575f80fd5b611bb684611b58565b9250611bc460208501611b58565b929592945050506040919091013590565b634e487b7160e01b5f52604160045260245ffd5b5f82601f830112611bf8575f80fd5b813567ffffffffffffffff811115611c1257611c12611bd5565b604051601f8201601f19908116603f0116810167ffffffffffffffff81118282101715611c4157611c41611bd5565b604052818152838201602001851015611c58575f80fd5b816020850160208301375f918101602001919091529392505050565b5f805f805f8060c08789031215611c89575f80fd5b611c9287611b58565b9550611ca060208801611b58565b945060408701359350606087013567ffffffffffffffff811115611cc2575f80fd5b611cce89828a01611be9565b9350506080870135915060a087013567ffffffffffffffff811115611cf1575f80fd5b611cfd89828a01611be9565b9150509295509295509295565b5f60208284031215611d1a575f80fd5b6107e482611b58565b5f805f8060808587031215611d36575f80fd5b611d3f85611b58565b93506020850135925060408501359150606085013567ffffffffffffffff811115611d68575f80fd5b611d7487828801611be9565b91505092959194509250565b60ff60f81b8816815260e060208201525f611d9e60e0830189611b01565b8281036040840152611db08189611b01565b606084018890526001600160a01b038716608085015260a0840186905283810360c0850152845180825260208087019350909101905f5b81811015611e05578351835260209384019390920191600101611de7565b50909b9a5050505050505050505050565b5f8060408385031215611e27575f80fd5b611e3083611b58565b915060208301358015158114611e44575f80fd5b809150509250929050565b5f805f8060808587031215611e62575f80fd5b611e6b85611b58565b9350611e7960208601611b58565b925060408501359150606085013567ffffffffffffffff811115611d68575f80fd5b5f8060408385031215611eac575f80fd5b611eb583611b58565b9150611ec360208401611b58565b90509250929050565b600181811c90821680611ee057607f821691505b602082108103611efe57634e487b7160e01b5f52602260045260245ffd5b50919050565b5f60208284031215611f14575f80fd5b5051919050565b5f81518060208401855e5f93019283525090919050565b5f610c84611f408386611f1b565b84611f1b565b828152604060208201525f610c846040830184611b01565b5f6107e48284611f1b565b5f60208284031215611f79575f80fd5b81516107e481611ad1565b6001600160a01b03851681526001600160a01b0384166020820152826040820152608060608201525f6117726080830184611b0156fe687474703a2f2f7777772e7474737761702e696f2f6e66743f70726f6f6669643da26469706673582212201f4875e5e25a7caf1b261a5ae58bc283108725f3b71635416b2e6afdd3dac51264736f6c634300081a0033","linkReferences":{}},"methodIdentifiers":{"DOMAIN_SEPARATOR()":"3644e515","approve(address,uint256)":"095ea7b3","balanceOf(address)":"70a08231","burn(uint256)":"42966c68","eip712Domain()":"84b0196e","getApproved(uint256)":"081812fc","isApprovedForAll(address,address)":"e985e9c5","isApprovedOrOwner(address,uint256)":"430c2081","mint(address,uint256)":"40c10f19","name()":"06fdde03","nonces(uint256)":"141a468c","ownerOf(uint256)":"6352211e","permit(address,uint256,uint256,bytes)":"745a41bc","safeTransferFrom(address,address,uint256)":"42842e0e","safeTransferFrom(address,address,uint256,bytes)":"b88d4fde","safeTransferFromWithPermit(address,address,uint256,bytes,uint256,bytes)":"24744d54","setApprovalForAll(address,bool)":"a22cb465","supportsInterface(bytes4)":"01ffc9a7","symbol()":"95d89b41","tokenURI(uint256)":"c87b56dd","transferFrom(address,address,uint256)":"23b872dd"},"id":57}