{"abi":[{"type":"constructor","inputs":[{"name":"_marketconfig","type":"uint256","internalType":"uint256"},{"name":"_officialTokenContract","type":"address","internalType":"address"},{"name":"_officialNFTContract","type":"address","internalType":"address"},{"name":"_officelimitorder","type":"address","internalType":"address"},{"name":"_marketcreator","type":"address","internalType":"address"},{"name":"_securitykeeper","type":"address","internalType":"address"}],"stateMutability":"nonpayable"},{"type":"function","name":"addbanlist","inputs":[{"name":"_user","type":"address","internalType":"address"}],"outputs":[{"name":"","type":"bool","internalType":"bool"}],"stateMutability":"nonpayable"},{"type":"function","name":"batchTakelimitOrder","inputs":[{"name":"_inputData","type":"bytes","internalType":"bytes"},{"name":"_tolerance","type":"uint96","internalType":"uint96"},{"name":"_takecaller","type":"address","internalType":"address"},{"name":"ordernum","type":"uint8","internalType":"uint8"}],"outputs":[{"name":"","type":"bool[]","internalType":"bool[]"}],"stateMutability":"payable"},{"type":"function","name":"buyGood","inputs":[{"name":"_goodid1","type":"address","internalType":"address"},{"name":"_goodid2","type":"address","internalType":"address"},{"name":"_swapQuantity","type":"uint128","internalType":"uint128"},{"name":"_limitPrice","type":"uint256","internalType":"uint256"},{"name":"_istotal","type":"bool","internalType":"bool"},{"name":"_referal","type":"address","internalType":"address"},{"name":"data","type":"bytes","internalType":"bytes"}],"outputs":[{"name":"goodid2Quantity_","type":"uint128","internalType":"uint128"},{"name":"goodid2FeeQuantity_","type":"uint128","internalType":"uint128"}],"stateMutability":"payable"},{"type":"function","name":"buyGoodForPay","inputs":[{"name":"_goodid1","type":"address","internalType":"address"},{"name":"_goodid2","type":"address","internalType":"address"},{"name":"_swapQuantity","type":"uint128","internalType":"uint128"},{"name":"_limitPrice","type":"uint256","internalType":"uint256"},{"name":"_recipient","type":"address","internalType":"address"},{"name":"data","type":"bytes","internalType":"bytes"}],"outputs":[{"name":"goodid1Quantity_","type":"uint128","internalType":"uint128"},{"name":"goodid1FeeQuantity_","type":"uint128","internalType":"uint128"}],"stateMutability":"payable"},{"type":"function","name":"changeGoodOwner","inputs":[{"name":"_goodid","type":"address","internalType":"address"},{"name":"_to","type":"address","internalType":"address"}],"outputs":[],"stateMutability":"nonpayable"},{"type":"function","name":"changemarketcreator","inputs":[{"name":"_newmarketor","type":"address","internalType":"address"}],"outputs":[],"stateMutability":"nonpayable"},{"type":"function","name":"collectCommission","inputs":[{"name":"_goodid","type":"address[]","internalType":"address[]"}],"outputs":[],"stateMutability":"nonpayable"},{"type":"function","name":"collectProof","inputs":[{"name":"_proofid","type":"uint256","internalType":"uint256"},{"name":"_gater","type":"address","internalType":"address"}],"outputs":[{"name":"profit_","type":"uint256","internalType":"uint256"}],"stateMutability":"nonpayable"},{"type":"function","name":"delproofdata","inputs":[{"name":"proofid","type":"uint256","internalType":"uint256"},{"name":"from","type":"address","internalType":"address"},{"name":"to","type":"address","internalType":"address"}],"outputs":[],"stateMutability":"nonpayable"},{"type":"function","name":"disinvestProof","inputs":[{"name":"_proofid","type":"uint256","internalType":"uint256"},{"name":"_goodQuantity","type":"uint128","internalType":"uint128"},{"name":"_gater","type":"address","internalType":"address"}],"outputs":[{"name":"","type":"bool","internalType":"bool"}],"stateMutability":"nonpayable"},{"type":"function","name":"flashFee","inputs":[{"name":"token","type":"address","internalType":"address"},{"name":"amount","type":"uint256","internalType":"uint256"}],"outputs":[{"name":"","type":"uint256","internalType":"uint256"}],"stateMutability":"view"},{"type":"function","name":"flashLoan","inputs":[{"name":"receiver","type":"address","internalType":"contract IERC3156FlashBorrower"},{"name":"token","type":"address","internalType":"address"},{"name":"amount","type":"uint256","internalType":"uint256"},{"name":"data","type":"bytes","internalType":"bytes"}],"outputs":[{"name":"","type":"bool","internalType":"bool"}],"stateMutability":"nonpayable"},{"type":"function","name":"flashLoan1","inputs":[{"name":"receiver","type":"address","internalType":"contract IERC3156FlashBorrower"},{"name":"token","type":"address","internalType":"address"},{"name":"amount","type":"uint256","internalType":"uint256"},{"name":"data","type":"bytes","internalType":"bytes"},{"name":"transdata","type":"bytes","internalType":"bytes"}],"outputs":[{"name":"","type":"bool","internalType":"bool"}],"stateMutability":"nonpayable"},{"type":"function","name":"getGoodState","inputs":[{"name":"goodkey","type":"address","internalType":"address"}],"outputs":[{"name":"","type":"tuple","internalType":"struct S_GoodTmpState","components":[{"name":"goodConfig","type":"uint256","internalType":"uint256"},{"name":"owner","type":"address","internalType":"address"},{"name":"currentState","type":"uint256","internalType":"uint256"},{"name":"investState","type":"uint256","internalType":"uint256"},{"name":"feeQuantityState","type":"uint256","internalType":"uint256"}]}],"stateMutability":"view"},{"type":"function","name":"getProofState","inputs":[{"name":"proofid","type":"uint256","internalType":"uint256"}],"outputs":[{"name":"","type":"tuple","internalType":"struct S_ProofState","components":[{"name":"currentgood","type":"address","internalType":"address"},{"name":"valuegood","type":"address","internalType":"address"},{"name":"state","type":"uint256","internalType":"uint256"},{"name":"invest","type":"uint256","internalType":"uint256"},{"name":"valueinvest","type":"uint256","internalType":"uint256"}]}],"stateMutability":"view"},{"type":"function","name":"goodWelfare","inputs":[{"name":"goodid","type":"address","internalType":"address"},{"name":"welfare","type":"uint128","internalType":"uint128"},{"name":"data","type":"bytes","internalType":"bytes"}],"outputs":[],"stateMutability":"payable"},{"type":"function","name":"initGood","inputs":[{"name":"_valuegood","type":"address","internalType":"address"},{"name":"_initial","type":"uint256","internalType":"uint256"},{"name":"_erc20address","type":"address","internalType":"address"},{"name":"_goodConfig","type":"uint256","internalType":"uint256"},{"name":"_normaldata","type":"bytes","internalType":"bytes"},{"name":"_valuedata","type":"bytes","internalType":"bytes"}],"outputs":[{"name":"","type":"bool","internalType":"bool"}],"stateMutability":"payable"},{"type":"function","name":"initMetaGood","inputs":[{"name":"_erc20address","type":"address","internalType":"address"},{"name":"_initial","type":"uint256","internalType":"uint256"},{"name":"_goodConfig","type":"uint256","internalType":"uint256"},{"name":"data","type":"bytes","internalType":"bytes"}],"outputs":[{"name":"","type":"bool","internalType":"bool"}],"stateMutability":"payable"},{"type":"function","name":"investGood","inputs":[{"name":"_togood","type":"address","internalType":"address"},{"name":"_valuegood","type":"address","internalType":"address"},{"name":"_quantity","type":"uint128","internalType":"uint128"},{"name":"data1","type":"bytes","internalType":"bytes"},{"name":"data2","type":"bytes","internalType":"bytes"}],"outputs":[{"name":"","type":"bool","internalType":"bool"}],"stateMutability":"payable"},{"type":"function","name":"ishigher","inputs":[{"name":"goodid","type":"address","internalType":"address"},{"name":"valuegood","type":"address","internalType":"address"},{"name":"compareprice","type":"uint256","internalType":"uint256"}],"outputs":[{"name":"","type":"bool","internalType":"bool"}],"stateMutability":"view"},{"type":"function","name":"marketconfig","inputs":[],"outputs":[{"name":"","type":"uint256","internalType":"uint256"}],"stateMutability":"view"},{"type":"function","name":"marketcreator","inputs":[],"outputs":[{"name":"","type":"address","internalType":"address"}],"stateMutability":"view"},{"type":"function","name":"maxFlashLoan","inputs":[{"name":"good","type":"address","internalType":"address"}],"outputs":[{"name":"","type":"uint256","internalType":"uint256"}],"stateMutability":"view"},{"type":"function","name":"modifyGoodConfig","inputs":[{"name":"_goodid","type":"address","internalType":"address"},{"name":"_goodConfig","type":"uint256","internalType":"uint256"}],"outputs":[{"name":"","type":"bool","internalType":"bool"}],"stateMutability":"nonpayable"},{"type":"function","name":"payGood","inputs":[{"name":"_goodid","type":"address","internalType":"address"},{"name":"_payquanity","type":"uint128","internalType":"uint128"},{"name":"_recipent","type":"address","internalType":"address"},{"name":"transdata","type":"bytes","internalType":"bytes"}],"outputs":[{"name":"","type":"bool","internalType":"bool"}],"stateMutability":"payable"},{"type":"function","name":"proofmapping","inputs":[{"name":"proofkey","type":"uint256","internalType":"uint256"}],"outputs":[{"name":"proofid","type":"uint256","internalType":"uint256"}],"stateMutability":"view"},{"type":"function","name":"queryCommission","inputs":[{"name":"_goodid","type":"address[]","internalType":"address[]"},{"name":"_recipent","type":"address","internalType":"address"}],"outputs":[{"name":"","type":"uint256[]","internalType":"uint256[]"}],"stateMutability":"view"},{"type":"function","name":"removeMarketor","inputs":[{"name":"_user","type":"address","internalType":"address"}],"outputs":[],"stateMutability":"nonpayable"},{"type":"function","name":"removeSecurityKeeper","inputs":[],"outputs":[],"stateMutability":"nonpayable"},{"type":"function","name":"removebanlist","inputs":[{"name":"_user","type":"address","internalType":"address"}],"outputs":[{"name":"","type":"bool","internalType":"bool"}],"stateMutability":"nonpayable"},{"type":"function","name":"securityKeeper","inputs":[{"name":"token","type":"address","internalType":"address"},{"name":"amount","type":"uint256","internalType":"uint256"}],"outputs":[],"stateMutability":"nonpayable"},{"type":"function","name":"setMarketConfig","inputs":[{"name":"_marketconfig","type":"uint256","internalType":"uint256"}],"outputs":[{"name":"","type":"bool","internalType":"bool"}],"stateMutability":"nonpayable"},{"type":"function","name":"setMarketor","inputs":[{"name":"_newmarketor","type":"address","internalType":"address"}],"outputs":[],"stateMutability":"nonpayable"},{"type":"function","name":"takeLimitOrder","inputs":[{"name":"_inputParams","type":"tuple","internalType":"struct S_takeGoodInputPrams","components":[{"name":"fromerc20","type":"address","internalType":"address"},{"name":"toerc20","type":"address","internalType":"address"},{"name":"swapQuantity","type":"uint256","internalType":"uint256"},{"name":"sender","type":"address","internalType":"address"}]},{"name":"_tolerance","type":"uint96","internalType":"uint96"},{"name":"_takecaller","type":"address","internalType":"address"}],"outputs":[{"name":"_isSuccess","type":"bool","internalType":"bool"}],"stateMutability":"payable"},{"type":"function","name":"updateGoodConfig","inputs":[{"name":"_goodid","type":"address","internalType":"address"},{"name":"_goodConfig","type":"uint256","internalType":"uint256"}],"outputs":[{"name":"","type":"bool","internalType":"bool"}],"stateMutability":"nonpayable"},{"type":"function","name":"userConfig","inputs":[{"name":"","type":"address","internalType":"address"}],"outputs":[{"name":"","type":"uint256","internalType":"uint256"}],"stateMutability":"view"},{"type":"event","name":"e_buyGood","inputs":[{"name":"sellgood","type":"address","indexed":true,"internalType":"address"},{"name":"forgood","type":"address","indexed":true,"internalType":"address"},{"name":"fromer","type":"address","indexed":false,"internalType":"address"},{"name":"swapvalue","type":"uint128","indexed":false,"internalType":"uint128"},{"name":"sellgoodstate","type":"uint256","indexed":false,"internalType":"uint256"},{"name":"forgoodstate","type":"uint256","indexed":false,"internalType":"uint256"}],"anonymous":false},{"type":"event","name":"e_buyGoodForPay","inputs":[{"name":"buygood","type":"address","indexed":true,"internalType":"address"},{"name":"usegood","type":"address","indexed":true,"internalType":"address"},{"name":"fromer","type":"address","indexed":false,"internalType":"address"},{"name":"receipt","type":"address","indexed":false,"internalType":"address"},{"name":"swapvalue","type":"uint128","indexed":false,"internalType":"uint128"},{"name":"buygoodstate","type":"uint256","indexed":false,"internalType":"uint256"},{"name":"usegoodstate","type":"uint256","indexed":false,"internalType":"uint256"}],"anonymous":false},{"type":"event","name":"e_changegoodowner","inputs":[{"name":"goodid","type":"address","indexed":false,"internalType":"address"},{"name":"to","type":"address","indexed":false,"internalType":"address"}],"anonymous":false},{"type":"event","name":"e_changemarketcreator","inputs":[{"name":"_newmarketor","type":"address","indexed":false,"internalType":"address"}],"anonymous":false},{"type":"event","name":"e_collectProof","inputs":[{"name":"_proofNo","type":"uint256","indexed":true,"internalType":"uint256"},{"name":"_normalGoodNo","type":"address","indexed":false,"internalType":"address"},{"name":"_valueGoodNo","type":"address","indexed":false,"internalType":"address"},{"name":"_profit","type":"uint256","indexed":false,"internalType":"uint256"}],"anonymous":false},{"type":"event","name":"e_collectProtocolFee","inputs":[{"name":"goodid","type":"address","indexed":false,"internalType":"address"},{"name":"feeamount","type":"uint256","indexed":false,"internalType":"uint256"}],"anonymous":false},{"type":"event","name":"e_collectcommission","inputs":[{"name":"_gooid","type":"address[]","indexed":false,"internalType":"address[]"},{"name":"_commisionamount","type":"uint256[]","indexed":false,"internalType":"uint256[]"}],"anonymous":false},{"type":"event","name":"e_disinvestProof","inputs":[{"name":"_proofNo","type":"uint256","indexed":true,"internalType":"uint256"},{"name":"_normalGoodNo","type":"address","indexed":false,"internalType":"address"},{"name":"_valueGoodNo","type":"address","indexed":false,"internalType":"address"},{"name":"_value","type":"uint256","indexed":false,"internalType":"uint256"},{"name":"_normalgood","type":"uint256","indexed":false,"internalType":"uint256"},{"name":"_valuegood","type":"uint256","indexed":false,"internalType":"uint256"},{"name":"_profit","type":"uint256","indexed":false,"internalType":"uint256"}],"anonymous":false},{"type":"event","name":"e_enpower","inputs":[{"name":"_goodid","type":"uint256","indexed":false,"internalType":"uint256"},{"name":"_valuegood","type":"uint256","indexed":false,"internalType":"uint256"},{"name":"_quantity","type":"uint256","indexed":false,"internalType":"uint256"}],"anonymous":false},{"type":"event","name":"e_goodWelfare","inputs":[{"name":"goodid","type":"address","indexed":false,"internalType":"address"},{"name":"welfare","type":"uint128","indexed":false,"internalType":"uint128"}],"anonymous":false},{"type":"event","name":"e_initGood","inputs":[{"name":"_proofNo","type":"uint256","indexed":false,"internalType":"uint256"},{"name":"_goodid","type":"address","indexed":false,"internalType":"address"},{"name":"_valuegoodNo","type":"address","indexed":false,"internalType":"address"},{"name":"_goodConfig","type":"uint256","indexed":false,"internalType":"uint256"},{"name":"_construct","type":"uint256","indexed":false,"internalType":"uint256"},{"name":"_normalinitial","type":"uint256","indexed":false,"internalType":"uint256"},{"name":"_value","type":"uint256","indexed":false,"internalType":"uint256"}],"anonymous":false},{"type":"event","name":"e_initMetaGood","inputs":[{"name":"_proofNo","type":"uint256","indexed":false,"internalType":"uint256"},{"name":"_goodid","type":"address","indexed":false,"internalType":"address"},{"name":"_construct","type":"uint256","indexed":false,"internalType":"uint256"},{"name":"_goodConfig","type":"uint256","indexed":false,"internalType":"uint256"},{"name":"_initial","type":"uint256","indexed":false,"internalType":"uint256"}],"anonymous":false},{"type":"event","name":"e_investGood","inputs":[{"name":"_proofNo","type":"uint256","indexed":true,"internalType":"uint256"},{"name":"_normalgoodid","type":"address","indexed":false,"internalType":"address"},{"name":"_valueGoodNo","type":"address","indexed":false,"internalType":"address"},{"name":"_value","type":"uint256","indexed":false,"internalType":"uint256"},{"name":"_invest","type":"uint256","indexed":false,"internalType":"uint256"},{"name":"_valueinvest","type":"uint256","indexed":false,"internalType":"uint256"}],"anonymous":false},{"type":"event","name":"e_modifiedUserConfig","inputs":[{"name":"_user","type":"address","indexed":false,"internalType":"address"},{"name":"config","type":"uint256","indexed":false,"internalType":"uint256"}],"anonymous":false},{"type":"event","name":"e_modifyGoodConfig","inputs":[{"name":"_goodid","type":"address","indexed":false,"internalType":"address"},{"name":"_goodconfig","type":"uint256","indexed":false,"internalType":"uint256"}],"anonymous":false},{"type":"event","name":"e_setMarketConfig","inputs":[{"name":"_marketconfig","type":"uint256","indexed":false,"internalType":"uint256"}],"anonymous":false},{"type":"event","name":"e_transferdel","inputs":[{"name":"delproofid","type":"uint256","indexed":false,"internalType":"uint256"},{"name":"existsproofid","type":"uint256","indexed":false,"internalType":"uint256"}],"anonymous":false},{"type":"event","name":"e_updateGoodConfig","inputs":[{"name":"_goodid","type":"address","indexed":false,"internalType":"address"},{"name":"_goodConfig","type":"uint256","indexed":false,"internalType":"uint256"}],"anonymous":false},{"type":"error","name":"ERC20TransferFailed","inputs":[]},{"type":"error","name":"ERC3156ExceededMaxLoan","inputs":[{"name":"maxLoan","type":"uint256","internalType":"uint256"}]},{"type":"error","name":"ERC3156InvalidReceiver","inputs":[{"name":"receiver","type":"address","internalType":"address"}]},{"type":"error","name":"ERC3156UnsupportedToken","inputs":[{"name":"token","type":"address","internalType":"address"}]},{"type":"error","name":"NativeTransferFailed","inputs":[]},{"type":"error","name":"noEnoughOutputError","inputs":[]}],"bytecode":{"object":"0x60e03461012357601f61608e38819003918201601f19168301916001600160401b038311848410176101275780849260c0946040528339810103126101235780519061004d6020820161013b565b9161005a6040830161013b565b906100676060840161013b565b9161008060a06100796080870161013b565b950161013b565b60809590955260a0525f5560c052600580546001600160a01b039283166001600160a01b03199182161790915560068054929093169116179055604051615f3e90816101508239608051818181610b4201528181610cac0152818161139801528181611a100152612579015260a051818181610c72015281816112de01528181611960015281816124e101528181612b7b01526130a4015260c051816140ac0152f35b5f80fd5b634e487b7160e01b5f52604160045260245ffd5b51906001600160a01b03821682036101235756fe60806040526004361015610011575f80fd5b5f3560e01c806306cf4e7f14610254578063082384661461024f5780630d2700ab1461024a578063102e5c271461024557806313a124c3146102405780631412723a1461023b5780631faa5a56146102365780633d995173146102315780633f1177401461022c578063402f5ab51461022757806341e1237314610222578063444361841461021d57806345818e4c1461021857806351ff9a16146102135780635cffe9de1461020e5780635e008cc4146102095780635f35b0b3146102045780635f755d65146101ff578063613255ab146101fa5780639551177a146101f55780639b222794146101f0578063a06ad0e8146101eb578063a3b74a49146101e6578063a676a600146101e1578063b153b920146101dc578063b1efb921146101d7578063c2ed2bc0146101d2578063c9544f18146101cd578063cc00da2d146101c8578063ccfd7664146101c3578063d9d98ce4146101be578063df2a8454146101b9578063e9044db6146101b4578063f29771cb146101af578063f4662f20146101aa5763f878e809146101a5575f80fd5b612882565b612464565b6123c4565b612305565b612233565b6121e7565b611f83565b611f20565b611eec565b611db8565b611cc3565b611c4f565b6118f0565b61184b565b6117d1565b61171b565b61165f565b61162e565b6115b5565b61157a565b611537565b61144d565b6111f6565b611196565b6110d5565b611032565b611016565b610f58565b610f30565b610c41565b610bcc565b610828565b6107af565b61064f565b6104e7565b6103b9565b6001600160a01b0381160361026a57565b5f80fd5b6001600160801b0381160361026a57565b634e487b7160e01b5f52604160045260245ffd5b60a081019081106001600160401b038211176102ae57604052565b61027f565b604081019081106001600160401b038211176102ae57604052565b608081019081106001600160401b038211176102ae57604052565b90601f801991011681019081106001600160401b038211176102ae57604052565b6040519061031960a0836102e9565b565b604051906103196060836102e9565b60405190610319610100836102e9565b604051906103196040836102e9565b604051906103196080836102e9565b6001600160401b0381116102ae57601f01601f191660200190565b81601f8201121561026a5780359061038a82610358565b9261039860405194856102e9565b8284526020838301011161026a57815f926020809301838601378301015290565b606036600319011261026a576004356103d181610259565b6024356103dd8161026e565b6044356001600160401b03811161026a576103fc903690600401610373565b915f80516020615ee98339815191525c6001600160a01b031661026a57335f80516020615ee98339815191525d6001600160a01b0381165f908152600160205260409020600401546001606d1b906001600160801b039061046190859060801c612d27565b161161026a577f0dc5e2150c5754dc0bcd8d76ca2d23850fc9a2a3115c69bb4fbdbedc25074a009261049e906001600160801b03841633846135f9565b6104be60046104ac83611561565b01546104b88460801b90565b9061360f565b60046104c983611561565b01556104da60405192839283612d40565b0390a16104e56135e7565b005b3461026a57602036600319011261026a576105cd60043561050781610259565b61050f612d63565b506001600160a01b038181165f90815260016020819052604090912080549101549092911690600261054082611561565b015461057b600461055d600361055586611561565b015494611561565b01549361056861030a565b9586526001600160a01b03166020860152565b6040840152606083015260808201526040519182918291909160808060a08301948051845260018060a01b03602082015116602085015260408101516040850152606081015160608501520151910152565b0390f35b6001600160401b0381116102ae5760051b60200190565b9080601f8301121561026a5781356105ff816105d1565b9261060d60405194856102e9565b81845260208085019260051b82010192831161026a57602001905b8282106106355750505090565b60208091833561064481610259565b815201910190610628565b3461026a57602036600319011261026a576004356001600160401b03811161026a5761067f9036906004016105e8565b610695815161069060648210612d0c565b612d8d565b5f5b8251811015610778576001906106e13360056106cb6106c66106b9868a612dbf565b516001600160a01b031690565b611561565b019060018060a01b03165f5260205260405f2090565b546106ec8285612dbf565b5260026106f98285612dbf565b511015610713575f61070b8285612dbf565b525b01610697565b6107266107208285612dbf565b51612de7565b6107308285612dbf565b5261075061074a3360056106cb6106c66106b9878b612dbf565b60019055565b6107736107606106b98387612dbf565b61076a8386612dbf565b51903390613638565b61070d565b507f477bb716eacccc001de50dcdd6e25241283d080e6afb27443908b20f4e738b5e916107aa60405192839283612df5565b0390a1005b3461026a57602036600319011261026a576004356107cc81610259565b6005546001600160a01b0316330361026a576001600160a01b0381165f908152600460205260409020805460021781555f80516020615ec983398151915291905b54906107aa60405192839283612e4f565b8015150361026a57565b60e036600319011261026a5760043561084081610259565b60243561084c81610259565b604435916108598361026e565b608435916064356108698461081e565b60a4359061087682610259565b60c4356001600160401b03811161026a57610895903690600401610373565b915f80516020615ee98339815191525c6001600160a01b031661026a57335f80516020615ee98339815191525d6001600160a01b038116610b40575b5060026108dd85611561565b0154956108e985611561565b5460026108f586611561565b01549361090186611561565b549461090b61032a565b6001600160801b03851681529560208701995f8b5261095360408901975f895260608a01965f885260808b019e8f5260a08b015260c08a0194855260e08a01938452896136bc565b6001600160801b038616801515919082610b1f575b5081610b08575b81610ac8575b5061097f90612d0c565b5198516001600160801b0316986001600160801b038a1661271060cc9290921c607f16020498896109af91612e75565b996109b989611561565b905186516001600160801b0316906109d0926139d7565b886109da88611561565b91516109e5926139d7565b84516001600160801b03166109fa9084612e75565b6001600160801b0316610a0f919033896135f9565b610a236001600160801b0389163387613638565b516001600160801b031692516001600160801b0316610a4191612e75565b90516040516001600160a01b039485169590941693928392610a80926001600160801b0389811660808c811b919091179493901b911617903385612e8e565b037fe9174eb0d60b5dfcb132e979d11319f32d4a3ebdbf5abbb9600950c1cf8fab5b91a3610aac6135e7565b604080516001600160801b039384168152919092166020820152f35b6001915015151480610ade575b1561097f610975565b50865161097f90610aff906001600160801b03165b6001600160801b031690565b15159050610ad5565b6001600160a01b038b8116908b161415915061096f565b895191925090610b37906001600160801b0316610af3565b1415905f610968565b7f00000000000000000000000000000000000000000000000000000000000000006001600160a01b0316803b1561026a576040516376549e6760e11b81523360048201526001600160a01b039290921660248301525f908290604490829084905af18015610bc757156108d15780610bbb5f610bc1936102e9565b80610f26565b5f6108d1565b612e6a565b3461026a57606036600319011261026a576105cd610c2f600435610bef81610259565b602435610bfb81610259565b6044356001600160a01b039283165f9081526001602052604080822060029081015494909516825290209092015490613a08565b60405190151581529081906020820190565b3461026a57606036600319011261026a57602435610d48600435610c6483610259565b604435610c7081610259565b7f00000000000000000000000000000000000000000000000000000000000000006001600160a01b031690610dd990610caa338414612d0c565b7f000000000000000000000000000000000000000000000000000000000000000090610cf5610cee6002610ce6885f52600360205260405f2090565b015460801c90565b8884613a68565b610dd36040610dca610d87610d1a610d158a5f52600360205260405f2090565b612ec1565b9a610d828c610d736020610d34835160018060a01b031690565b92018051909e6001600160a01b0390911690565b91610d63610d5461031b565b6001600160a01b039096168652565b6001600160a01b03166020850152565b6001600160a01b031682860152565b613ab7565b8a51995190996001600160a01b0390811691610d829116610dbb610da961031b565b6001600160a01b038916815293610d63565b6001600160a01b031682850152565b98015160801c90565b91613afd565b50610dec845f52600260205260405f2090565b5480610e3257505050805f92610e20610e10610e2f945f52600260205260405f2090565b54915f52600260205260405f2090565b555f52600260205260405f2090565b55005b9092919350610e64610e4c825f52600360205260405f2090565b610e5e865f52600360205260405f2090565b90613b75565b610e96610e79855f52600360205260405f2090565b60045f918281558260018201558260028201558260038201550155565b823b1561026a57604051630852cd8d60e31b815260048101859052925f908490602490829084905af1908115610bc7575f94610e2f947f335d27656e7f9578ae51244b214940ee63a03fbed3788497ee4237a186aad1e493610f12575b50604080519182526020820192909252a15f52600260205260405f2090565b80610bbb88610f20936102e9565b5f610ef3565b5f91031261026a57565b3461026a575f36600319011261026a576005546040516001600160a01b039091168152602090f35b3461026a57602036600319011261026a57600435610f74612d63565b505f5260036020526105cd60405f20600460405191610f9283610293565b60018060a01b03815416835260018060a01b0360018201541660208401526002810154604084015260038101546060840152015460808201526040519182918291909160808060a083019460018060a01b03815116845260018060a01b03602082015116602085015260408101516040850152606081015160608501520151910152565b3461026a575f36600319011261026a5760205f54604051908152f35b3461026a57604036600319011261026a5760043561104f81610259565b60243561105b81610259565b335f526004602052600260405f2054161561026a577f42e3c955499470d3dc1078d90519d90691c504c8856ea058daf2c1436c2dab4c9160018060a01b0381165f5260016020526110b282600160405f2001612f09565b604080516001600160a01b039283168152929091166020830152819081016107aa565b3461026a57604036600319011261026a576004356110f281610259565b6006546001600160a01b0316330361026a576104e59060018060a01b0381165f526001602052611175611145610af3611132600460405f20015460801c90565b600461113d86611561565b015490612e75565b5f600461115185611561565b015561116f600261116185611561565b01546001600160801b031690565b90612f4a565b905f600261118283611561565b01556006546001600160a01b031690613638565b3461026a57602036600319011261026a57600554600435906001600160a01b0316330361026a576020817fbd209961024f2694b0afb3c8badd20b6477abb77b336b16892c3fa4b906d323c925f55604051908152a1602060405160018152f35b608036600319011261026a5760043561120e81610259565b604435906024356064356001600160401b03811161026a57611234903690600401610373565b6005549093906001600160a01b0316330361026a576112db9161125e600160ff1b83161515612d0c565b6001600160801b03811694611275908633876135f9565b611288828261128387611561565b613bb6565b61129961129485611561565b613bef565b6112c16112a461031b565b3381526001600160a01b03861660208201525f6040820152613ab7565b6112ca81613c26565b9384915f52600260205260405f2090565b557f00000000000000000000000000000000000000000000000000000000000000006001600160a01b031691823b1561026a575f60405180946340c10f1960e01b825281838161132f8a3360048401612e4f565b03925af18015610bc7577f8f2eb922ee1b2f92e0051f7949a8c191264807725a1e435e91abebd28583830a966113fd946113bc9261140c575b5061139561137e875f52600360205260405f2090565b918560801c928961138f8560801b90565b91613c4b565b337f0000000000000000000000000000000000000000000000000000000000000000613afd565b604080519586526001600160a01b0390961660208601526001600160801b0316948401949094526060830193909352608082019290925290819060a0820190565b0390a160405160018152602090f35b80610bbb5f61141a936102e9565b5f611368565b9181601f8401121561026a578235916001600160401b03831161026a576020838186019501011161026a57565b3461026a57608036600319011261026a5760043561146a81610259565b6024359061147782610259565b604435916064356001600160401b03811161026a576105cd93611518926114a460ff933690600401611420565b929091604051966114b4886102b3565b600188526115136040986115058a516114cd8c826102e9565b6002815261060b60f31b6020820152602083019081528b51998a9360208086015251168c840152518b60608401526080830190612f57565b03601f1981018852876102e9565b61347f565b905190151581529081906020820190565b5f52600260205260405f2090565b3461026a57602036600319011261026a576004355f526002602052602060405f2054604051908152f35b6001600160a01b03165f90815260016020526040902090565b3461026a57602036600319011261026a5760043561159781610259565b60018060a01b03165f526004602052602060405f2054604051908152f35b60c036600319011261026a576004356115cd81610259565b60243590604435906115de82610259565b6064356084356001600160401b03811161026a57611600903690600401610373565b9060a435936001600160401b03851161026a576105cd95611628610c2f963690600401610373565b94612f7b565b3461026a57602036600319011261026a57602061165760043561165081610259565b3090613e2f565b604051908152f35b3461026a57602036600319011261026a5760043561167c81610259565b335f526004602052600260405f2054161561026a576001600160a01b0381165f90815260046020526040908190208054600119169081905590515f80516020615ec983398151915292909182916113fd919083612e4f565b90602080835192838152019201905f5b8181106116f15750505090565b82518452602093840193909201916001016116e4565b9060206117189281815201906116d4565b90565b3461026a57604036600319011261026a576004356001600160401b03811161026a5761174b9036906004016105e8565b6024359061175882610259565b8051606481101561026a5761176c90612d8d565b915f5b82518110156117c3576001906001600160a01b0361178d8286612dbf565b51165f908152602083815260408083206001600160a01b03871684526005019091529020546117bc8287612dbf565b520161176f565b604051806105cd8682611707565b3461026a57602036600319011261026a576004356117ee81610259565b600554906001600160a01b038216330361026a576001600160a01b03166001600160a01b03199190911681176005556040519081527fa8d3850ce581f2add46670c1408b76ca1d0d4ef627eed4a89802ff670940082d90602090a1005b3461026a57604036600319011261026a5760043561186881610259565b6001600160a01b038181165f81815260016020819052604090912001546024359216330361026a575f52600160205260405f20916307ffffff60e51b83541660018060e51b03831681018091116118eb577f075a13b9dbfb2e30d678551b8c2a4f9ede7468ca5273fa902a41d0e57756666993556113fd60405192839283612e4f565b612d13565b3461026a57604036600319011261026a5760043560243561191081610259565b5f80516020615ee98339815191525c6001600160a01b031661026a57335f80516020615ee98339815191525d60405163430c208160e01b81526020818061195b863360048401612e4f565b03815f7f00000000000000000000000000000000000000000000000000000000000000006001600160a01b03165af18015610bc7576119a1915f91611c20575b50612d0c565b6119c660016119b8845f52600360205260405f2090565b01546001600160a01b031690565b916119e96119dc825f52600360205260405f2090565b546001600160a01b031690565b6040805163b88e6d6360e01b81523360048201529491939190856024816001600160a01b037f0000000000000000000000000000000000000000000000000000000000000000165afa918215610bc7576105cd957f1129f35303e34d7efabdbd85614ed662beb4fc6942852b7a3e5a4f92074cbf3193611b05925f925f92611bec575b506001600160a01b0381165f908152600460205260409020611a92905b54600116151590565b15611be6575081905b6001600160a01b0382811690821603611be15750815b6001600160a01b0381165f908152600460205260409020611ad190611a89565b15611bda575b611ae088611561565b91611aea86611561565b611afc895f52600360205260405f2090565b905f5494613e99565b93611b153360056106cb84611561565b5460018111611bb4575b506001600160a01b038216611b6a575b604080516001600160a01b0392831681529290911660208301528101849052606090a2611b5a6135e7565b6040519081529081906020820190565b611b793360056106cb85611561565b5460018111611b89575b50611b2f565b611ba7611bae91611ba261074a3360056106cb89611561565b612de7565b3384613638565b5f611b83565b611bcd611bd491611ba261074a3360056106cb88611561565b3383613638565b5f611b1f565b5081611ad7565b611ab1565b90611a9b565b909250611c11915060403d604011611c19575b611c0981836102e9565b810190613377565b90915f611a6c565b503d611bff565b611c42915060203d602011611c48575b611c3a81836102e9565b810190613362565b5f61199b565b503d611c30565b3461026a57602036600319011261026a57600435611c6c81610259565b335f526004602052600260405f2054161561026a576001600160a01b0381165f908152600460205260409081902080546001179081905590515f80516020615ec983398151915292909182916113fd919083612e4f565b3461026a57604036600319011261026a57600435611ce081610259565b602435335f526004602052600260405f2054161561026a577fe40cf68f61d9a4e510244481f5aa34ba68de31cf3f9aa360604d688115d640c89160018060a01b0381165f526001602052611d378260405f20613c0c565b6113fd60405192839283612e4f565b602435906001600160601b038216820361026a57565b608435906001600160601b038216820361026a57565b60ff81160361026a57565b60206040818301928281528451809452019201905f5b818110611da05750505090565b82511515845260209384019390920191600101611d93565b608036600319011261026a576004356001600160401b03811161026a57611de3903690600401611420565b611deb611d46565b9160443590611df982610259565b606435611e0581611d72565b5f80516020615ee98339815191525c6001600160a01b031661026a5760ff90335f80516020615ee98339815191525d1692611e3f846105d1565b611e4c60405191826102e9565b848152601f19611e5b866105d1565b01905f5b828110611ed55750505081611e7991611e7f93019061339c565b92612d8d565b925f5b8351811015611ebd5780611eb7611ea68585611ea06001968a612dbf565b5161400a565b611eb08389612dbf565b9015159052565b01611e82565b6105cd85611ec96135e7565b60405191829182611d7d565b602090611ee06132b3565b82828501015201611e5f565b3461026a575f36600319011261026a576005546001600160a01b0316330361026a57600680546001600160a01b0319169055005b3461026a57602036600319011261026a57600435611f3d81610259565b6005546001600160a01b0316330361026a576001600160a01b0381165f90815260046020526040902080546002191681555f80516020615ec9833981519152919061080d565b60c036600319011261026a57600435611f9b81610259565b602435611fa781610259565b60443590611fb48261026e565b60643590608435611fc481610259565b60a4356001600160401b03811161026a57611fe3903690600401610373565b925f80516020615ee98339815191525c6001600160a01b031661026a57335f80516020615ee98339815191525d600261201b87611561565b01549461202787611561565b5494600261203486611561565b01549761204086611561565b549161204a61032a565b6001600160801b03851681529660208801995f8b5261209260408a01975f895260608b01965f885260808c0193845260a08c019c8d5260c08c019e8f5260e08c01528a61432e565b6001600160a01b038281169a908516996120b6908b8d141590816121cc5750612d0c565b519a516001600160801b03169a6001600160801b038c1661271060c59290921c607f1602049a8b6120e691612d27565b9b6120f083611561565b905188516001600160801b031690612107926139d7565b8a61211185611561565b915161211c926139d7565b855187906001600160801b03166121339087612e75565b6001600160801b03169061214692613638565b61215c916001600160801b038b169033906135f9565b519151604080513381526001600160a01b0390951660208601526001600160801b0393841690850152608091821b90831617606084015290851686821b17908201527f6cf01bd7290ca456adc58f838641d629cb223064c72dabf9a6255d86a854762d9060a090a3610aac6135e7565b516121e091506001600160801b0316610af3565b155f61199b565b3461026a57604036600319011261026a57602061165760043561220981610259565b6001600160a01b03165f90815260018352604090205461271060df9190911c603f16602435020490565b3461026a5760a036600319011261026a5760043561225081610259565b6024359061225d82610259565b604435906064356001600160401b03811161026a57612280903690600401611420565b90608435936001600160401b03851161026a576105cd956122a8610c2f963690600401610373565b9461347f565b919082608091031261026a576040516122c6816102ce565b606080829480356122d681610259565b845260208101356122e681610259565b60208501526040810135604085015201359161230183610259565b0152565b366003190160c0811261026a5760801361026a57604051612325816102ce565b60043561233181610259565b815260243561233f81610259565b6020820152604435604082015260643561235881610259565b6060820152612365611d5c565b9060a43561237281610259565b5f80516020615ee98339815191525c6001600160a01b031661026a576020926123aa92335f80516020615ee98339815191525d61400a565b5f5f80516020615ee98339815191525d6040519015158152f35b608036600319011261026a576004356123dc81610259565b602435906123e98261026e565b6044356123f581610259565b6064356001600160401b03811161026a57612414903690600401610373565b6001600160a01b0383166001036124455750612439926001600160801b031691613638565b60405160018152602090f35b61245f9390926001600160801b039091169190339061476c565b612439565b3461026a57606036600319011261026a576004356024356124848161026e565b6044359061249182610259565b5f80516020615ee98339815191525c6001600160a01b031661026a57335f80516020615ee98339815191525d60405163430c208160e01b8152602081806124dc873360048401612e4f565b03815f7f00000000000000000000000000000000000000000000000000000000000000006001600160a01b03165af18015610bc757612521915f91611c205750612d0c565b6125296135b9565b506125326135b9565b506125486119dc845f52600360205260405f2090565b61255f60016119b8865f52600360205260405f2090565b6040805163b88e6d6360e01b8152336004820152949193917f000000000000000000000000000000000000000000000000000000000000000091866024816001600160a01b0386165afa958615610bc7576126d66127c294868a896126d1612711967f63741ac8918076a6393e6e12659431a4927b53e16190a6b00af6a06697d868b89d61270b995f925f9261285e575b506001600160a01b0381165f90815260046020526040902061261190611a89565b1561285657905b6001600160a01b03828116908216036128515750815b6001600160a01b0381165f90815260046020526040902061264e90611a89565b1561283d5761267b61266c6126666126bc9399611561565b96611561565b965f52600360205260405f2090565b966126ac5f549361269c61268d61030a565b6001600160801b03909c168c52565b6001600160a01b031660208b0152565b6001600160a01b03166040890152565b60608701526001600160a01b03166080860152565b614c42565b80929491956126ea3360056106cb8c611561565b5460018111612816575b506001600160a01b038a166127cd575b3390613a68565b60801b90565b60208201519092906127839061274a906001600160801b03165b60408501516001600160801b03165b60018060801b03169060801b1790565b9161273a61277561276761272b602085015160018060801b031690565b95516001600160801b031690565b91516001600160801b031690565b604080516001600160a01b039788168152979096166020880152948601929092526060850191909152608084015260a0830191909152819060c0820190565b0390a26124396135e7565b6127dc3360056106cb8d611561565b548a600182116127ee575b5050612704565b61280f91611ba261074a6128089360056106cb3392611561565b338c613638565b5f8a6127e7565b61283061283791611ba261074a8d60056106cb3392611561565b338b613638565b5f6126f4565b506126bc61267b61266c6126668599611561565b61262e565b508190612618565b90925061287a915060403d604011611c1957611c0981836102e9565b90915f6125f0565b60a036600319011261026a5760043561289a81610259565b6024356128a681610259565b604435906128b38261026e565b6064356001600160401b03811161026a576128d2903690600401610373565b926084356001600160401b03811161026a576128f2903690600401610373565b5f80516020615ee98339815191525c6001600160a01b031661026a57335f80516020615ee98339815191525d6129916129296132b3565b956129326132b3565b956001606d1b6001600160801b0361295683600261294f8a611561565b0154612d27565b16111580612cf6575b80612cc1575b61296e90612d0c565b612981888261297c88611561565b613cfd565b6001600160801b031633856135f9565b6001600160a01b0383161590848215612c0e575b50506129d86129b261031b565b3381526001600160a01b03841660208201526001600160a01b0385166040820152613ab7565b946129eb865f52600260205260405f2090565b54958615612b6d575b50612a07865f52600360205260405f2090565b6040820180519196909390916001600160801b031690612a278260801b90565b60208501519091906001600160801b0316606086018051909a9189916001600160801b03166001600160801b031660809190911b1760208701516001600160801b03166060880180519096918d916001600160801b03166001600160801b031660809190911b1793612a9895613c90565b5f14612775612b147fee89c9fd704272905456294f1b2b88581ebe0241f72c15b4f3db31d19388f6af9a61273a612775612b066127c29b612b229961273a98612b5957508051612af490612775906001600160801b0316611395565b60801b6001600160801b039091161790565b99516001600160801b031690565b94516001600160801b031690565b604080516001600160a01b0396871681529690951660208701529385019190915260608401526080830191909152819060a0820190565b612775612b68612af492613326565b611395565b9550612b7886613c26565b957f00000000000000000000000000000000000000000000000000000000000000006001600160a01b031690813b1561026a576040516340c10f1960e01b8152915f908390818381612bce8e3360048401612e4f565b03925af1908115610bc7578892612bf392612bfa575b505f52600260205260405f2090565b555f6129f4565b80610bbb5f612c08936102e9565b5f612be4565b612cba91612ca8612c396002612c2389611561565b015460408b01516001600160801b0316906151aa565b6001600160801b03166060840190815291612c8d612c80612c598a611561565b548551612c6e906001600160801b0316610af3565b603f6127109260d91c16820390040290565b6001600160801b03168452565b8251612ca1906001600160801b0316610af3565b33896135f9565b612cb461277587611561565b90613cfd565b5f846129a5565b50612cda612cce86611561565b54600160ff1b16151590565b80612965575061296e612cef612cce88611561565b9050612965565b506001600160a01b03858116908716141561295f565b1561026a57565b634e487b7160e01b5f52601160045260245ffd5b6001600160801b0391821690821601919082116118eb57565b6001600160a01b0390911681526001600160801b03909116602082015260400190565b60405190612d7082610293565b5f6080838281528260208201528260408201528260608201520152565b90612d97826105d1565b612da460405191826102e9565b8281528092612db5601f19916105d1565b0190602036910137565b8051821015612dd35760209160051b010190565b634e487b7160e01b5f52603260045260245ffd5b5f198101919082116118eb57565b9291604084019360408152825180955260206060820193015f955b808710612e2c57505061171893945060208184039101526116d4565b81516001600160a01b031685526001969096019560209485019490910190612e10565b6001600160a01b039091168152602081019190915260400190565b6040513d5f823e3d90fd5b6001600160801b0391821690821603919082116118eb57565b6001600160a01b0390911681526001600160801b0390911660208201526040810191909152606081019190915260800190565b90604051612ece81610293565b82546001600160a01b039081168252600184015416602082015260028301546040820152600383015460608201526004909201546080830152565b80546001600160a01b0319166001600160a01b03909216919091179055565b61027160841b908101919082106118eb57565b9061271082018092116118eb57565b919082018092116118eb57565b805180835260209291819084018484015e5f828201840152601f01601f1916010190565b929491939290915f80516020615ee98339815191525c6001600160a01b031661026a57612ffa90335f80516020615ee98339815191525d6001600160a01b03612fc860016119b889611561565b16158061329c575b612fd990612d0c565b612fe98460801c958633896135f9565b6001600160801b03841633846135f9565b6130106130056132b3565b809361297c84611561565b61301984611561565b9161303d86604083019461303787612af4885160018060801b031690565b90613bb6565b61306e61304861031b565b3381526001600160a01b03871660208201526001600160a01b0384166040820152613ab7565b9261307884613c26565b61308a855f52600260205260405f2090565b555f84815260026020526040902054966001600160a01b037f000000000000000000000000000000000000000000000000000000000000000016803b1561026a576040516340c10f1960e01b8152985f918a918290849082906130f1903360048401612e4f565b03925af1948515610bc75761273a61273a61277561321b6131ed613229956115297f3fc0293a5a7bc73de220f0814bbbebc31e77ffcd41bf5e8be187471747bd7caa9f8f908f61327a9f8f928f918f61270b613162916131b59461318a94613288575b50516001600160801b031690565b60208401519093906060906001600160801b031691018051909e6001600160801b0390911690565b936131a561319661030a565b6001600160a01b039097168752565b6001600160a01b03166020860152565b6040840152606083015260808201526131e86131d9845f52600260205260405f2090565b545f52600360205260405f2090565b6132d7565b549a61273a61320d6113956132088b5160018060801b031690565b613326565b98516001600160801b031690565b96516001600160801b031690565b604080519788526001600160a01b039889166020890152949097169386019390935260608501929092526001600160801b03909116608084015260a083015260c082019290925290819060e0820190565b0390a16001906103196135e7565b80610bbb5f613296936102e9565b5f613154565b50612fd96132ac612cce85611561565b9050612fd0565b604051906132c0826102ce565b5f6060838281528260208201528260408201520152565b9060806004916132f060018060a01b0382511685612f09565b602081015161330b906001600160a01b031660018601612f09565b60408101516002850155606081015160038501550151910155565b60011b6002600160801b03811691906002600160811b031682036118eb57565b6001600160801b0391821690821602908116919082036118eb57565b9081602091031261026a57516117188161081e565b919082604091031261026a576020825161339081610259565b92015161171881610259565b60208183031261026a578035906001600160401b03821161026a570181601f8201121561026a5780356133ce816105d1565b926133dc60405194856102e9565b81845260208085019260071b8401019281841161026a57602001915b838310613406575050505090565b602060809161341584866122ae565b8152019201916133f8565b9081602091031261026a575190565b6001600160a01b039182168152911660208201526040810191909152606081019190915260a060808201819052810183905260c09290918190848401375f828201840152601f01601f1916010190565b939594919092956134903085613e2f565b8083116135a7575060206134f2916134bc846134ab88611561565b5490603f6127109260df1c16020490565b6001600160a01b03909716986134d3858b89613638565b6040516323e30c8b60e01b815293849283928a888b336004880161342f565b03815f8b5af18015610bc7577f439148f0bbc682ca079e46d6e2c2f0c1e3b820f1a291b069d8882abf8cf18dd9915f91613578575b500361355d576135539291613558959661354a610af3610af3886106c696612f4a565b9030908561476c565b614bc2565b600190565b62678c5b60e81b5f526001600160a01b03861660045260245ffd5b61359a915060203d6020116135a0575b61359281836102e9565b810190613420565b5f613527565b503d613588565b63fd9a760960e01b5f5260045260245ffd5b60405190606082018281106001600160401b038211176102ae576040525f6040838281528260208201520152565b5f5f80516020615ee98339815191525d565b61031993926001600160801b031691309161476c565b61273a906136248360801d8260801d016151c5565b926001600160801b039182169116016151c5565b90919060016001600160a01b0382160361367157505f8080809361365c955af11590565b61366257565b633d2cec6f60e21b5f5260045ffd5b60445f8080936020956040519763a9059cbb60e01b84526004526024525af13d15601f3d1160015f5114161716905f606052604052156136ad57565b633c9fd93960e21b5f5260045ffd5b60808101918251906136d58160c0850193845190613a08565b6136e0575b50505050565b60a083019061370c82516136fd610af3875160018060801b031690565b607f6127109260c51c16020490565b6001600160801b03166040850190815290815161375290613745906001600160801b031687516001600160801b0316612e75565b612e75565b6001600160801b03168652565b8451613766906001600160801b0316610af3565b1515806139c3575b1561393f576137898351613783885160801c90565b906151e4565b60e08601906137a1610af38351613783895160801c90565b6001600160801b0390911610613926576137c46138b39151613783875160801c90565b87516137d082826151aa565b885190916001600160801b039182169183168211156138b8575050875161386a91906138179061380a9083906001600160801b0316612e75565b6001600160801b03168a52565b613851613825848a516151aa565b60208b0180519091613844916001600160801b0316612d27565b612d27565b6001600160801b03169052565b8951906001600160801b0316608084901b175b9061522b565b8852613896865161389061387e84836151aa565b6001600160801b0316608085901b1790565b90615240565b86525b6060870180519091613844916001600160801b0316612d27565b613752565b9091506138c5925061520d565b6138ed6138d38288516151aa565b6020890180519091613844916001600160801b0316612d27565b875187516139089190613864906001600160801b031661387e565b885261391c865161389061387e84836151aa565b86525f8752613899565b506138b361393a8451613783895160801c90565b6137c4565b5083519194509150613959906001600160801b0316610af3565b9283156136da57613993613844926138446139836139ba97855190607f6127109260c51c16020490565b82516001600160801b0316612e75565b5182516139b4906001600160801b03165b916001600160801b0383166136fd565b90612d27565b5f8080806136da565b506139d2818751865190613a08565b61376e565b6004906139f1926002820155019182549060801b9061360f565b9055565b818102929181159184041417156118eb57565b9091613a5991613a4f90613a3c613a2c6001600160801b038716608084901c6139f5565b6001600160801b038516906139f5565b9460801c906001600160801b03166139f5565b9060801c906139f5565b1015613a6457600190565b5f90565b6001600160a01b031691823b1561026a57613a9c925f9283604051809681958294637bd3ca3560e01b845260048401612d40565b03925af18015610bc757613aad5750565b5f610319916102e9565b6040805182516001600160a01b03908116602080840191825285015182168385015293909201519091166060808301919091528152613af76080826102e9565b51902090565b91613b22926020925f60405180968195829463067e356d60e21b845260048401612d40565b03926001600160a01b03165af1908115610bc7575f91613b40575090565b90506020813d602011613b6d575b81613b5b602093836102e9565b8101031261026a57516117188161026e565b3d9150613b4e565b60046139f19160028101613b8f815460028701549061360f565b905560038101613ba5815460038701549061360f565b90550191600483549101549061360f565b909161031992806002840155600383015560018060e51b031681556001339101612f09565b634e487b7160e01b5f52601260045260245ffd5b80546001600160e51b0316600160ff1b8101919082106118eb5755565b60018060e51b038154169160e51b82018092116118eb5755565b6040516020810191825230604082015242606082015260608152613af76080826102e9565b91613c7760026139f194959395600381019660018060801b0388541615613c80575b500191825461360f565b9055825461360f565b613c8a9082612f09565b5f613c6d565b93613cbc919293600386019360018060801b0385541615613ced575b50613c776002870191825461360f565b90556001600160a01b038116613cd157505050565b81613ce460049260016139f19501612f09565b0191825461360f565b613cf79087612f09565b5f613cac565b80549092919061271060d99190911c603f166001600160801b03831602046001600160801b0316825281516001600160801b0316613d3a91612e75565b6001600160801b0316606082018181526002840180549092613d5b9161520d565b6001600160801b031660408401908152926004850190815490613d7e8260801c90565b60039097018054909760801b6001600160801b039091161784516001600160801b0316613daa9161520d565b6001600160801b03908116602083018181529251613dc89216612d27565b90516001600160801b03166001600160801b031660809190911b17613dec9161360f565b9055815492516001600160801b031690516001600160801b03166001600160801b031660809190911b179182613e219161360f565b90558154906139f19161360f565b6001600160a01b031660018103613e4557503190565b6040516370a0823160e01b81526001600160a01b039092166004830152602090829060249082905afa908115610bc7575f91613e80575b5090565b611718915060203d6020116135a05761359281836102e9565b94939092969591966004860195838383888a548d6003870154600160801b6001900316600160801b600190031983161790600301549081613ed99161520d565b9060801c613ee691612e75565b9b8c91613efd906001600160801b0384169061360f565b9055613f0895615269565b60048401805460038601549196916001600160801b03166001600160801b031982161760048b01549081613f3b9161520d565b9060801c613f4891612e75565b9687916001600160801b038316613f5e9161360f565b9055613f6995615269565b6001600160801b031660809190911b1791826103199161569b565b6040519061016082018281106001600160401b038211176102ae576040525f610140838281528260208201528260408201528260608201528260808201528260a08201528260c08201528260e082015282610100820152826101208201520152565b6001600160801b03909116908115614005576001600160801b03160490565b613bdb565b5f93926140246113886001600160601b0385161115612d0c565b61402c613f84565b906140a060026140456106c6865160018060a01b031690565b0154845190959061405e906001600160a01b0316611561565b546020860180519097919060029061407e906001600160a01b0316611561565b01548851909190614097906001600160a01b0316611561565b54928888615728565b6140a9826157f6565b337f00000000000000000000000000000000000000000000000000000000000000006001600160a01b0316148061431e575b8061430c575b806142f3575b6142ea575b60a0820180519092906001600160801b03166040850180519095919391906001600160801b0316936001600160801b031684116142e2575b88614133575b50505050505050565b86516001600160a01b03166060820180519095906001600160a01b031661415992613638565b84516001600160801b0316865161416f91612e75565b87516001600160a01b03169060011c60016001607f1b0316926001600160801b0384169061419c92613638565b60808301805190926141b6916001600160801b0316612d27565b6001600160801b0316825280516001600160a01b03166141d590611561565b60c084015160408501805190939291906001600160801b0316906141f8926139d7565b87516001600160a01b031661420c90611561565b61010085015193516001600160801b03168094614228926139d7565b516001600160a01b031696516001600160a01b031693516001600160a01b03166060909301516001600160801b0316955160801c90516001600160801b03166001600160801b031660809190911b1793516001600160801b031660801b6001600160801b03909116176040516001600160a01b039384169690931694929384936142b29385612e8e565b037fe9174eb0d60b5dfcb132e979d11319f32d4a3ebdbf5abbb9600950c1cf8fab5b91a35f80808080808061412a565b5f9850614124565b600195506140ec565b50825184516001600160a01b03908116911614156140e7565b5081516001600160801b0316156140e1565b50604083015160801c15156140db565b6080810180519261434d6143498260c0860196875190613a08565b1590565b6143575750505050565b60e08301906143966143868351614377610af3885160018060801b031690565b607f6127109260cc1c16020490565b6001600160801b03166040860152565b83516143aa906001600160801b0316610af3565b15158061455e575b156145505760a084016143cb8151613783865160801c90565b6143de610af385516137838a5160801c90565b6001600160801b039091161061453857506144c56144028351613783885160801c90565b865161440e82826151aa565b875190916001600160801b039182169183168211156144ca57505086516144949190614455906144489083906001600160801b0316612e75565b6001600160801b03168952565b61447d6144638489516151aa565b60208a0180519091613844916001600160801b0316612d27565b8851906001600160801b0316608084901b17613890565b87526144a8855161386461387e84836151aa565b85525b6060860180519091613844916001600160801b0316612d27565b614396565b9091506144d7925061520d565b6144ff6144e58287516151aa565b6020880180519091613844916001600160801b0316612d27565b8651865161451a9190613890906001600160801b031661387e565b875261452e855161386461387e84836151aa565b85525f86526144ab565b61454b6144c59151613783865160801c90565b614402565b50505050505f8080806136da565b5061456d818451875190613a08565b6143b2565b60208183031261026a578051906001600160401b03821161026a57019060408282031261026a57604051916145a6836102b3565b80516145b181611d72565b83526020810151906001600160401b03821161026a570181601f8201121561026a578051906145df82610358565b926145ed60405194856102e9565b8284526020838301011161026a57815f9260208093018386015e83010152602082015290565b908160c091031261026a576040519060c08201908282106001600160401b038311176102ae5760a091604052805183526020810151602084015260408101516040840152606081015161466581611d72565b606084015260808101516080840152015160a082015290565b929190604051936020850152604084015260ff60f81b166060830152604182526103196061836102e9565b909261470161010093604061171897966146d68682516020809160018060a01b0381511684520151910152565b60208181015187840152910151606086015281516001600160a01b03166080860152015160a0840152565b6001600160a01b031660c082015260e081018290520190612f57565b908160a091031261026a5760806040519161473783610293565b8051835260208101516020840152604081015161475381611d72565b6040840152606081015160608401520151608082015290565b936147809060208082518301019101614572565b60016001600160a01b0386160361479e575050509050340361366257565b60ff6147ab825160ff1690565b16600181036147bf57505061031993615cdc565b60028103614995575060206147df9101516020808251830101910161471d565b6001600160a01b0385169073898118e029aa17ed4763f432c1bdc1085d166cde820361490d57604051623f675f60e91b81526001600160a01b038416600482015291602090839060249082905afa908115610bc7576148d15f9392849384916148ee575b506148c360208401519361485b604082015160ff1690565b60608201516080909201516040516323f2ebc360e21b60208201526001600160a01b038b16602482015230604482015260648101959095526084850196909652600160a485015260ff1660c484015260e4830152610104820193909352918290610124820190565b03601f1981018352826102e9565b60208151910182885af16148e55750505050565b6139ba93615cdc565b614907915060203d6020116135a05761359281836102e9565b5f614843565b5f9150806149908392516148c360208401519361492e604082015160ff1690565b606082015160809092015160405163d505accf60e01b60208201526001600160a01b03808c1660248301528c1660448201526064810195909552608485019690965260ff1660a484015260c483015260e4820193909352918290610104820190565b6148d1565b919493909160038103614a3a57506149ad9150615cc8565b9273419c606ed7dd9e411826a26ce9f146ed5a5f7c343b1561026a57604051631b63c28b60e11b81526001600160a01b03918216600482015291811660248301529283166044820152911660648201525f8180608481015b03818373419c606ed7dd9e411826a26ce9f146ed5a5f7c345af18015610bc757614a2c5750565b80610bbb5f610319936102e9565b60048103614a975750614a92614a6060206149ad9401516020808251830101910161471d565b8051906020810151614a76604083015160ff1690565b906080606084015193015193888b60018060a01b038c16615b59565b615cc8565b600514614aa6575b5050505050565b614ac06020614b4493015160208082518301019101614613565b908151614ace61319661033a565b60208601526040820151602083015190614ae661031b565b96875260208701526040860152614b0d614afe61033a565b6001600160a01b039095168552565b6020840152608081015190614b3e614b2e606060a084015193015160ff1690565b60f81b6001600160f81b03191690565b9161467e565b9173419c606ed7dd9e411826a26ce9f146ed5a5f7c343b1561026a57614b805f93604051958694859463187945bd60e11b8652600486016146a9565b03818373419c606ed7dd9e411826a26ce9f146ed5a5f7c345af18015610bc757614bae575b80808080614a9f565b80610bbb5f614bbc936102e9565b5f614ba5565b600401805490916001600160801b03168101106118eb575f9055565b15614be557565b606460405162461bcd60e51b81526020600482015260046024820152634730313160e01b6044820152fd5b15614c1757565b606460405162461bcd60e51b81526020600482015260046024820152632398189960e11b6044820152fd5b91939092614c4e6135b9565b50614c576135b9565b93614c66600287015460801c90565b6003870154969060801b6001600160801b038816178351909590614d1790614c98906001600160801b0316809861520d565b96614d07614cdd82614ccd614cd282614ccd614cb860048b015460801c90565b60038b015460018060801b03169060801b1790565b61520d565b9d612af48160801c90565b614cf7614ce861031b565b6001600160801b03909d168d52565b6001600160801b031660208c0152565b6001600160801b031660408a0152565b614ea6602089614d4b8454614d3181600160ff1b16151590565b908115615199575b81615172575b8161513e575b50614bde565b6002840180546040830151614d869290614d7a90614d73908e906001600160801b031661273a565b8093615d41565b90556003860154615d41565b600385015560048401548151614de991614ddc916001600160801b031684860151614dcd906001600160801b03165b92608083901b6001600160801b038516175b90615d41565b60048901556137408d8a615d56565b6001600160801b03168252565b83546040820151614e2891614e1991614e0a906001600160801b0316610af3565b603f6127109260d31c16020490565b6001600160801b031682840152565b8051614e98906001600160801b03166060890151848a01516001600160a01b031660408b01516001600160a01b031660808c01519091906001600160a01b03166040870151909390614e91906001600160801b0316888a01516001600160801b03165b90612e75565b948a61551c565b01516001600160801b031690565b6001600160801b038116615120575b505060018101546001600160a01b0316614ece57505050565b610319929550614f71614f0186614ccd614eec600487015460801c90565b600387015460018060801b03169060801b1790565b91614f61614f3688614f316004850154612af46002614f2885614ccd85612af48160801c90565b97015460801c90565b6151aa565b91614f51614f4261031b565b6001600160801b039096168652565b6001600160801b03166020850152565b6001600160801b03166040830152565b8095614fdd8354614faf600286015491614f97610af3614f918560801c90565b83615d2b565b6001600160801b038b161090816150ef575b50614c10565b6040840151614fce906001600160801b031660808a901b178092615d41565b60028601556003850154615d41565b6003840155600483015482516150289161501b916001600160801b03166020860151615011906001600160801b0316614db5565b6004880155612e75565b6001600160801b03168352565b825460408301516150599161504991614e0a906001600160801b0316610af3565b6001600160801b03166020840152565b60208201516001600160801b0316806150d3575b82516001600160801b0316606083015160208401519091906150cd906001600160a01b03169361374060406150be60806150af838b015160018060a01b031690565b9901516001600160a01b031690565b9801516001600160801b031690565b9561551c565b6150e560048501546104b88360801b90565b600485015561506d565b60408701516001600160801b0316915061510e90610af3908590615d2b565b6001600160801b03909116105f614fa9565b6151346004916104b8838501549160801b90565b9101555f80614eb5565b895190915061516090610af3906001600160801b031692600289015490615d2b565b6001600160801b03909116105f614d45565b9050615188610af3614f91600289015460801c90565b6001600160801b038c161090614d3f565b8854600160ff1b1615159150614d39565b61171891608082901c6001600160801b039182169190921602045b6001600160801b0381116151df576001600160801b031690565b505f90565b60bb1c6103ff168015613e7c57600a0260018060801b0381169081036118eb5761171891613fe6565b611718916001600160801b0380831660809390931c911602046151c5565b61273a906136248360801d8260801d036151c5565b61273a906152558360801d8260801d016151c5565b926001600160801b039081169116036151c5565b9390929161528d606460dd83901c601f166001600160801b03871602048095612e75565b6001600160801b03811693909190606460fa83901c86020491606460f482901c603f1687020494896152e4606460ee85901c603f168a020498606460e886901c603f168202045b9490603f60649260e21c16020490565b976001600160a01b03831690816153c65750505050506153045f83612d27565b335f9081526005909801602081905260409098206001600160801b039190911681549061533091612f4a565b905561533c8585612d27565b6001600160801b03169061536090889060018060a01b03165f5260205260405f2090565b9081549061536d91612f4a565b905561537891612e75565b9061538291612e75565b9061538c91612e75565b9061539691612d27565b6001600160801b0316916153b9919060018060a01b03165f5260205260405f2090565b908154906139f191612f4a565b61383f9750918b93916154ca9b9593610af39b98975f9b6154dd9f60016153f491015460018060a01b031690565b6001600160a01b039586169581168614158e1461550b576001600160a01b03165f908152600589016020526040902061543b905b805490926001600160801b031690612f4a565b90555b6001600160a01b0381168414158c146154fa576001600160a01b03165f908152600587016020526040902061547290615428565b90555b141588146154e0576001600160a01b03165f908152600580840160205260409091206154c3936154289390916154a89085565b90555b019a8b9060018060a01b03165f5260205260405f2090565b9055612d27565b335f908152602093909352604090922090565b55565b5060056154f4615428926154c39495612d27565b936154ab565b506155059196612d27565b94615475565b506155169198612d27565b9661543e565b9495909390929091615544606460dd83901c601f166001600160801b03881602048096612e75565b6001600160801b03811694909290606460fa84901c87020492606460f482901c603f16880204958a61558f606460ee85901c603f168b020499606460e886901c603f168202046152d4565b986001600160a01b03831690816155af5750505050506153049083612d27565b61383f9850908c94939291610af39b98976154ca9d979b6154dd9f60016155dd91015460018060a01b031690565b6001600160a01b03958616958116861461568a576001600160a01b03165f908152600589016020526040902061561290615428565b90555b6001600160a01b0381168414615679576001600160a01b03165f908152600587016020526040902061564690615428565b90555b146154e0576001600160a01b03165f908152600580840160205260409091206154c3936154289390916154a89085565b506156849196612d27565b94615649565b506156959198612d27565b96615615565b6003810180546156b6906001600160801b031985169061360f565b905560018101546001600160a01b03166156ce575050565b60046139f191019182549060801b9061360f565b6001600160601b031661271003906001600160601b0382116118eb57565b8115614005570490565b6001600160601b031661271001906001600160601b0382116118eb57565b959392615790615788610af38996615783615798976101409b6157626157556040610af39b015160801c90565b6001600160801b03168c52565b60c08b019782895260e08c01526101206101008c019b858d52015260801c90565b613346565b945160801c90565b905190613346565b908181106157db576157d1916157cc61270b926157c66157ba6157d69761570a565b6001600160601b031690565b906139f5565b615700565b612f3b565b910152565b6157cc6157f1926157c66157ba6157d6966156e2565b612f28565b6157ff81615e32565b615860575b8060a0615852610120610319940151614e8b6127756158346020870193614377610af3865160018060801b031690565b6001600160801b03166080870190815292516001600160801b031690565b6001600160801b0316910152565b60e081019061587d82516136fd610af3845160018060801b031690565b6001600160801b03166040820190815280516158b09061501b906001600160801b031684516001600160801b0316612e75565b6158b982615e32565b15615a39576159c583516158d660c0850191613783835160801c90565b61012085018051916158f5610af3610100890194613783865160801c90565b6001600160801b0390911610615a22576159159051613783835160801c90565b915b805161592384826151aa565b875190916001600160801b039182169183168211156159ca5750508651615982919061595d906144489083906001600160801b0316612e75565b61596b6144638686516151aa565b8251906001600160801b0316608086901b17613864565b90526159a8815161389061599685836151aa565b6001600160801b0316608086901b1790565b90525b6060840180519091613844916001600160801b0316612d27565b6158b0565b9091506159d892945061520d565b916159e76144e58484516151aa565b80518651615a0491906001600160801b0316608086901b17613864565b9052615a18815161389061599685836151aa565b90525f84526159ab565b50615a338651613783845160801c90565b91615917565b8151610319936001600160801b03909116919082615a5c575b5050509050615804565b8051615a9793614ddc93615a8292909161384491613983916001600160801b03166136fd565b5183516139b4906001600160801b03166139a4565b5f8080615a52565b519065ffffffffffff8216820361026a57565b9081606091031261026a578051615ac881610259565b916117186040615ada60208501615a9f565b9301615a9f565b604061171894936101009360018060a01b0316835265ffffffffffff6060825160018060a01b03815116602087015260018060a01b036020820151168587015282858201511682870152015116608084015260018060a01b0360208201511660a0840152015160c08201528160e08201520190612f57565b60405163927da10560e01b81526001600160a01b03838116600483015291821660248201819052918416604482015290979196909590949193909260608760648173419c606ed7dd9e411826a26ce9f146ed5a5f7c345afa968715610bc757615c5097615c3893615c1d925f92615c8c575b50615bd8615c0291615cc8565b615bf2615be3610349565b6001600160a01b03909e168e52565b6001600160a01b031660208d0152565b65ffffffffffff60408c015265ffffffffffff1660608b0152565b615c2561031b565b9889526001600160a01b03166020890152565b604087015260f81b6001600160f81b0319169161467e565b9173419c606ed7dd9e411826a26ce9f146ed5a5f7c343b1561026a575f91614a0560405194859384936302b67b5760e41b855260048501615ae1565b615c02919250615cb6615bd89160603d606011615cc1575b615cae81836102e9565b810190615ab2565b915050929150615bcb565b503d615ca4565b6001600160a01b0381169081036151df5790565b6040516323b872dd60e01b81526001600160a01b03928316600482015292909116602483015260448201929092526020915f9160649183905af13d15601f3d1160015f5114161716156136ad57565b60b11c6103ff168015613e7c5761171891613fe6565b61273a906152558360801d8260801d036151c5565b906139f19060038301615dda615da9825495615d728760801c90565b90615dba600282019861273a615d898b5460801c90565b6001600160801b03908116968a82169688928892911682028390046151c5565b936001600160801b031602046151c5565b60018201549093906001600160a01b0316615de7575b5050508254615d41565b905582549060801b614dc7565b614dc76004615e2893019361273a855493615e16818460018060801b03615e0e8960801c90565b1602046151c5565b926001600160801b03861602046151c5565b90555f8080615dd0565b60c08101615e9e815160801c6157c6610af3615e96615e6061010088019460018060801b03865116906139f5565b936157c6610af3615e806101408b0197885160018060801b0316906139f5565b985192516001600160801b039093169260801c90565b925160801c90565b10615ec1576001905b81615eb0575090565b516001600160801b03161515919050565b5f90615ea756fe5d72191643a9d630c58937d62f5e056dcfa8dbf1aced1cb2f655ee1d7ecaf577cfdbe78f31bc5efa50605e8b11a7b6843971370ea97eb24de6e1a1eb9d235645a26469706673582212202c1f776faf8889db1acca4de46a7ede2830b2cc3ca4638ee1c187a404f8d506364736f6c634300081a0033","linkReferences":{}},"methodIdentifiers":{"addbanlist(address)":"b153b920","batchTakelimitOrder(bytes,uint96,address,uint8)":"c2ed2bc0","buyGood(address,address,uint128,uint256,bool,address,bytes)":"13a124c3","buyGoodForPay(address,address,uint128,uint256,address,bytes)":"ccfd7664","changeGoodOwner(address,address)":"41e12373","changemarketcreator(address)":"a06ad0e8","collectCommission(address[])":"0d2700ab","collectProof(uint256,address)":"a676a600","delproofdata(uint256,address,address)":"1faa5a56","disinvestProof(uint256,uint128,address)":"f4662f20","flashFee(address,uint256)":"d9d98ce4","flashLoan(address,address,uint256,bytes)":"5cffe9de","flashLoan1(address,address,uint256,bytes,bytes)":"df2a8454","getGoodState(address)":"08238466","getProofState(uint256)":"3f117740","goodWelfare(address,uint128,bytes)":"06cf4e7f","initGood(address,uint256,address,uint256,bytes,bytes)":"5f755d65","initMetaGood(address,uint256,uint256,bytes)":"51ff9a16","investGood(address,address,uint128,bytes,bytes)":"f878e809","ishigher(address,address,uint256)":"1412723a","marketconfig()":"402f5ab5","marketcreator()":"3d995173","maxFlashLoan(address)":"613255ab","modifyGoodConfig(address,uint256)":"b1efb921","payGood(address,uint128,address,bytes)":"f29771cb","proofmapping(uint256)":"5e008cc4","queryCommission(address[],address)":"9b222794","removeMarketor(address)":"cc00da2d","removeSecurityKeeper()":"c9544f18","removebanlist(address)":"9551177a","securityKeeper(address,uint256)":"44436184","setMarketConfig(uint256)":"45818e4c","setMarketor(address)":"102e5c27","takeLimitOrder((address,address,uint256,address),uint96,address)":"e9044db6","updateGoodConfig(address,uint256)":"a3b74a49","userConfig(address)":"5f35b0b3"},"id":73}