{"abi":[{"type":"constructor","inputs":[{"name":"_usdt","type":"address","internalType":"address"},{"name":"_dao_admin","type":"address","internalType":"address"},{"name":"_ttsconfig","type":"uint256","internalType":"uint256"}],"stateMutability":"nonpayable"},{"type":"function","name":"DOMAIN_SEPARATOR","inputs":[],"outputs":[{"name":"","type":"bytes32","internalType":"bytes32"}],"stateMutability":"view"},{"type":"function","name":"addShare","inputs":[{"name":"_share","type":"tuple","internalType":"struct s_share","components":[{"name":"recipient","type":"address","internalType":"address"},{"name":"leftamount","type":"uint128","internalType":"uint128"},{"name":"metric","type":"uint120","internalType":"uint120"},{"name":"chips","type":"uint8","internalType":"uint8"}]}],"outputs":[],"stateMutability":"nonpayable"},{"type":"function","name":"addauths","inputs":[{"name":"_auths","type":"address","internalType":"address"},{"name":"_priv","type":"uint256","internalType":"uint256"}],"outputs":[],"stateMutability":"nonpayable"},{"type":"function","name":"addreferral","inputs":[{"name":"user","type":"address","internalType":"address"},{"name":"referral","type":"address","internalType":"address"}],"outputs":[],"stateMutability":"nonpayable"},{"type":"function","name":"allowance","inputs":[{"name":"owner","type":"address","internalType":"address"},{"name":"spender","type":"address","internalType":"address"}],"outputs":[{"name":"","type":"uint256","internalType":"uint256"}],"stateMutability":"view"},{"type":"function","name":"approve","inputs":[{"name":"spender","type":"address","internalType":"address"},{"name":"amount","type":"uint256","internalType":"uint256"}],"outputs":[{"name":"","type":"bool","internalType":"bool"}],"stateMutability":"nonpayable"},{"type":"function","name":"auths","inputs":[{"name":"","type":"address","internalType":"address"}],"outputs":[{"name":"","type":"uint256","internalType":"uint256"}],"stateMutability":"view"},{"type":"function","name":"balanceOf","inputs":[{"name":"account","type":"address","internalType":"address"}],"outputs":[{"name":"","type":"uint256","internalType":"uint256"}],"stateMutability":"view"},{"type":"function","name":"burn","inputs":[{"name":"account","type":"address","internalType":"address"},{"name":"value","type":"uint256","internalType":"uint256"}],"outputs":[],"stateMutability":"nonpayable"},{"type":"function","name":"burnShare","inputs":[{"name":"index","type":"uint8","internalType":"uint8"}],"outputs":[],"stateMutability":"nonpayable"},{"type":"function","name":"chain_deposit","inputs":[{"name":"chainid","type":"uint32","internalType":"uint32"},{"name":"asset","type":"uint128","internalType":"uint128"}],"outputs":[],"stateMutability":"nonpayable"},{"type":"function","name":"chain_withdraw","inputs":[{"name":"chainid","type":"uint32","internalType":"uint32"},{"name":"asset","type":"uint128","internalType":"uint128"}],"outputs":[],"stateMutability":"nonpayable"},{"type":"function","name":"chainindex","inputs":[],"outputs":[{"name":"","type":"uint32","internalType":"uint32"}],"stateMutability":"view"},{"type":"function","name":"chains","inputs":[{"name":"","type":"uint32","internalType":"uint32"}],"outputs":[{"name":"asset","type":"uint256","internalType":"uint256"},{"name":"proofstate","type":"uint256","internalType":"uint256"},{"name":"recipient","type":"address","internalType":"address"}],"stateMutability":"view"},{"type":"function","name":"changeDAOAdmin","inputs":[{"name":"_recipient","type":"address","internalType":"address"}],"outputs":[],"stateMutability":"nonpayable"},{"type":"function","name":"dao_admin","inputs":[],"outputs":[{"name":"","type":"address","internalType":"address"}],"stateMutability":"view"},{"type":"function","name":"decimals","inputs":[],"outputs":[{"name":"","type":"uint8","internalType":"uint8"}],"stateMutability":"pure"},{"type":"function","name":"decreaseAllowance","inputs":[{"name":"spender","type":"address","internalType":"address"},{"name":"subtractedValue","type":"uint256","internalType":"uint256"}],"outputs":[{"name":"","type":"bool","internalType":"bool"}],"stateMutability":"nonpayable"},{"type":"function","name":"eip712Domain","inputs":[],"outputs":[{"name":"fields","type":"bytes1","internalType":"bytes1"},{"name":"name","type":"string","internalType":"string"},{"name":"version","type":"string","internalType":"string"},{"name":"chainId","type":"uint256","internalType":"uint256"},{"name":"verifyingContract","type":"address","internalType":"address"},{"name":"salt","type":"bytes32","internalType":"bytes32"},{"name":"extensions","type":"uint256[]","internalType":"uint256[]"}],"stateMutability":"view"},{"type":"function","name":"getreferralanddaoadmin","inputs":[{"name":"_customer","type":"address","internalType":"address"}],"outputs":[{"name":"","type":"address","internalType":"address"},{"name":"","type":"address","internalType":"address"}],"stateMutability":"view"},{"type":"function","name":"increaseAllowance","inputs":[{"name":"spender","type":"address","internalType":"address"},{"name":"addedValue","type":"uint256","internalType":"uint256"}],"outputs":[{"name":"","type":"bool","internalType":"bool"}],"stateMutability":"nonpayable"},{"type":"function","name":"left_share","inputs":[],"outputs":[{"name":"","type":"uint128","internalType":"uint128"}],"stateMutability":"view"},{"type":"function","name":"marketcontract","inputs":[],"outputs":[{"name":"","type":"address","internalType":"address"}],"stateMutability":"view"},{"type":"function","name":"name","inputs":[],"outputs":[{"name":"","type":"string","internalType":"string"}],"stateMutability":"view"},{"type":"function","name":"nonces","inputs":[{"name":"owner","type":"address","internalType":"address"}],"outputs":[{"name":"","type":"uint256","internalType":"uint256"}],"stateMutability":"view"},{"type":"function","name":"normalgoodid","inputs":[],"outputs":[{"name":"","type":"uint256","internalType":"uint256"}],"stateMutability":"view"},{"type":"function","name":"permit","inputs":[{"name":"owner","type":"address","internalType":"address"},{"name":"spender","type":"address","internalType":"address"},{"name":"value","type":"uint256","internalType":"uint256"},{"name":"deadline","type":"uint256","internalType":"uint256"},{"name":"v","type":"uint8","internalType":"uint8"},{"name":"r","type":"bytes32","internalType":"bytes32"},{"name":"s","type":"bytes32","internalType":"bytes32"}],"outputs":[],"stateMutability":"nonpayable"},{"type":"function","name":"public_Sell","inputs":[{"name":"usdtamount","type":"uint256","internalType":"uint256"}],"outputs":[],"stateMutability":"nonpayable"},{"type":"function","name":"publicsell","inputs":[],"outputs":[{"name":"","type":"uint128","internalType":"uint128"}],"stateMutability":"view"},{"type":"function","name":"referrals","inputs":[{"name":"","type":"address","internalType":"address"}],"outputs":[{"name":"","type":"address","internalType":"address"}],"stateMutability":"view"},{"type":"function","name":"rmauths","inputs":[{"name":"_auths","type":"address","internalType":"address"}],"outputs":[],"stateMutability":"nonpayable"},{"type":"function","name":"setEnv","inputs":[{"name":"_normalgoodid","type":"uint256","internalType":"uint256"},{"name":"_valuegoodid","type":"uint256","internalType":"uint256"},{"name":"_marketcontract","type":"address","internalType":"address"}],"outputs":[],"stateMutability":"nonpayable"},{"type":"function","name":"setMainTriggerMarket","inputs":[{"name":"Maintriggeradd","type":"address","internalType":"address"},{"name":"marketadd","type":"address","internalType":"address"}],"outputs":[],"stateMutability":"nonpayable"},{"type":"function","name":"shareMint","inputs":[{"name":"index","type":"uint8","internalType":"uint8"}],"outputs":[],"stateMutability":"nonpayable"},{"type":"function","name":"shares_index","inputs":[],"outputs":[{"name":"","type":"uint32","internalType":"uint32"}],"stateMutability":"view"},{"type":"function","name":"stake","inputs":[{"name":"_staker","type":"address","internalType":"address"},{"name":"proofvalue","type":"uint128","internalType":"uint128"}],"outputs":[{"name":"netconstruct","type":"uint128","internalType":"uint128"}],"stateMutability":"nonpayable"},{"type":"function","name":"stakeproof","inputs":[{"name":"","type":"uint256","internalType":"uint256"}],"outputs":[{"name":"fromcontract","type":"address","internalType":"address"},{"name":"proofstate","type":"uint256","internalType":"uint256"}],"stateMutability":"view"},{"type":"function","name":"subchainDeposit","inputs":[{"name":"asset","type":"uint128","internalType":"uint128"},{"name":"recipient","type":"address","internalType":"address"}],"outputs":[],"stateMutability":"nonpayable"},{"type":"function","name":"subchainWithdraw","inputs":[{"name":"asset","type":"uint128","internalType":"uint128"},{"name":"recipient","type":"address","internalType":"address"}],"outputs":[],"stateMutability":"nonpayable"},{"type":"function","name":"symbol","inputs":[],"outputs":[{"name":"","type":"string","internalType":"string"}],"stateMutability":"view"},{"type":"function","name":"syncChainStake","inputs":[{"name":"chainid","type":"uint32","internalType":"uint32"},{"name":"chainvalue","type":"uint128","internalType":"uint128"}],"outputs":[{"name":"poolasset","type":"uint128","internalType":"uint128"}],"stateMutability":"nonpayable"},{"type":"function","name":"syncPoolAsset","inputs":[{"name":"amount","type":"uint128","internalType":"uint128"}],"outputs":[],"stateMutability":"nonpayable"},{"type":"function","name":"totalSupply","inputs":[],"outputs":[{"name":"","type":"uint256","internalType":"uint256"}],"stateMutability":"view"},{"type":"function","name":"transfer","inputs":[{"name":"to","type":"address","internalType":"address"},{"name":"amount","type":"uint256","internalType":"uint256"}],"outputs":[{"name":"","type":"bool","internalType":"bool"}],"stateMutability":"nonpayable"},{"type":"function","name":"transferFrom","inputs":[{"name":"from","type":"address","internalType":"address"},{"name":"to","type":"address","internalType":"address"},{"name":"amount","type":"uint256","internalType":"uint256"}],"outputs":[{"name":"","type":"bool","internalType":"bool"}],"stateMutability":"nonpayable"},{"type":"function","name":"ttstokenconfig","inputs":[],"outputs":[{"name":"","type":"uint256","internalType":"uint256"}],"stateMutability":"view"},{"type":"function","name":"unstake","inputs":[{"name":"_staker","type":"address","internalType":"address"},{"name":"proofvalue","type":"uint128","internalType":"uint128"}],"outputs":[],"stateMutability":"nonpayable"},{"type":"function","name":"usdt","inputs":[],"outputs":[{"name":"","type":"address","internalType":"address"}],"stateMutability":"view"},{"type":"function","name":"valuegoodid","inputs":[],"outputs":[{"name":"","type":"uint256","internalType":"uint256"}],"stateMutability":"view"},{"type":"function","name":"withdrawPublicSell","inputs":[{"name":"amount","type":"uint256","internalType":"uint256"},{"name":"recipient","type":"address","internalType":"address"}],"outputs":[],"stateMutability":"nonpayable"},{"type":"event","name":"Approval","inputs":[{"name":"owner","type":"address","indexed":true,"internalType":"address"},{"name":"spender","type":"address","indexed":true,"internalType":"address"},{"name":"value","type":"uint256","indexed":false,"internalType":"uint256"}],"anonymous":false},{"type":"event","name":"EIP712DomainChanged","inputs":[],"anonymous":false},{"type":"event","name":"Transfer","inputs":[{"name":"from","type":"address","indexed":true,"internalType":"address"},{"name":"to","type":"address","indexed":true,"internalType":"address"},{"name":"value","type":"uint256","indexed":false,"internalType":"uint256"}],"anonymous":false},{"type":"event","name":"e_addShare","inputs":[{"name":"recipient","type":"address","indexed":false,"internalType":"address"},{"name":"leftamount","type":"uint256","indexed":false,"internalType":"uint256"},{"name":"metric","type":"uint120","indexed":false,"internalType":"uint120"},{"name":"chips","type":"uint8","indexed":false,"internalType":"uint8"},{"name":"index","type":"uint32","indexed":false,"internalType":"uint32"}],"anonymous":false},{"type":"event","name":"e_addauths","inputs":[{"name":"auths","type":"address","indexed":false,"internalType":"address"},{"name":"priv","type":"uint256","indexed":false,"internalType":"uint256"}],"anonymous":false},{"type":"event","name":"e_addreferral","inputs":[{"name":"users","type":"address","indexed":false,"internalType":"address"},{"name":"referral","type":"address","indexed":false,"internalType":"address"}],"anonymous":false},{"type":"event","name":"e_burnShare","inputs":[{"name":"index","type":"uint32","indexed":false,"internalType":"uint32"}],"anonymous":false},{"type":"event","name":"e_publicsell","inputs":[{"name":"usdtamount","type":"uint256","indexed":false,"internalType":"uint256"},{"name":"ttsamount","type":"uint256","indexed":false,"internalType":"uint256"}],"anonymous":false},{"type":"event","name":"e_rmauths","inputs":[{"name":"auths","type":"address","indexed":false,"internalType":"address"}],"anonymous":false},{"type":"event","name":"e_setdaoadmin","inputs":[{"name":"recipient","type":"address","indexed":false,"internalType":"address"}],"anonymous":false},{"type":"event","name":"e_setenv","inputs":[{"name":"normalgoodid","type":"uint256","indexed":false,"internalType":"uint256"},{"name":"valuegoodid","type":"uint256","indexed":false,"internalType":"uint256"},{"name":"marketcontract","type":"address","indexed":false,"internalType":"address"}],"anonymous":false},{"type":"event","name":"e_shareMint","inputs":[{"name":"mintamount","type":"uint128","indexed":false,"internalType":"uint128"},{"name":"index","type":"uint32","indexed":false,"internalType":"uint32"}],"anonymous":false},{"type":"event","name":"e_syncChainStake","inputs":[{"name":"chain","type":"uint32","indexed":false,"internalType":"uint32"},{"name":"poolasset","type":"uint128","indexed":false,"internalType":"uint128"},{"name":"proofstate","type":"uint256","indexed":false,"internalType":"uint256"}],"anonymous":false},{"type":"event","name":"e_unstake","inputs":[{"name":"recipient","type":"address","indexed":false,"internalType":"address"},{"name":"proofvalue","type":"uint128","indexed":false,"internalType":"uint128"},{"name":"unstakestate","type":"uint256","indexed":false,"internalType":"uint256"},{"name":"stakestate","type":"uint256","indexed":false,"internalType":"uint256"}],"anonymous":false},{"type":"event","name":"e_updatepool","inputs":[{"name":"poolstate","type":"uint256","indexed":false,"internalType":"uint256"},{"name":"stakestate","type":"uint256","indexed":false,"internalType":"uint256"}],"anonymous":false},{"type":"error","name":"InvalidShortString","inputs":[]},{"type":"error","name":"StringTooLong","inputs":[{"name":"str","type":"string","internalType":"string"}]}],"bytecode":{"object":"0x610180604052601380546001600160801b0319166601c6bf52634000179055348015610029575f80fd5b5060405161397a38038061397a83398101604081905261004891610274565b6040518060400160405280600c81526020016b2a2a29bbb0b8102a37b5b2b760a11b81525080604051806040016040528060018152602001603160f81b8152506040518060400160405280600c81526020016b2a2a29bbb0b8102a37b5b2b760a11b8152506040518060400160405280600381526020016254545360e81b81525081600390816100d89190610345565b5060046100e58282610345565b506100f5915083905060056101e1565b610120526101048160066101e1565b61014052815160208084019190912060e052815190820120610100524660a05261019060e05161010051604080517f8b73c3c69bb8fe3d512ecc4cf759cc79239f7b179b0ffacaa9a75d522b39400f60208201529081019290925260608201524660808201523060a08201525f9060c00160405160208183030381529060405280519060200120905090565b60809081523060c0526001600160a01b0387166101605242901b92506101b4915050565b600b55601180546001600160a01b0319166001600160a01b03939093169290921790915560095550610457565b5f6020835110156101fc576101f583610213565b905061020d565b816102078482610345565b5060ff90505b92915050565b5f80829050601f81511115610246578260405163305a27a960e01b815260040161023d91906103ff565b60405180910390fd5b805161025182610434565b179392505050565b80516001600160a01b038116811461026f575f80fd5b919050565b5f805f60608486031215610286575f80fd5b61028f84610259565b925061029d60208501610259565b9150604084015190509250925092565b634e487b7160e01b5f52604160045260245ffd5b600181811c908216806102d557607f821691505b6020821081036102f357634e487b7160e01b5f52602260045260245ffd5b50919050565b601f82111561034057805f5260205f20601f840160051c8101602085101561031e5750805b601f840160051c820191505b8181101561033d575f815560010161032a565b50505b505050565b81516001600160401b0381111561035e5761035e6102ad565b6103728161036c84546102c1565b846102f9565b6020601f8211600181146103a4575f831561038d5750848201515b5f19600385901b1c1916600184901b17845561033d565b5f84815260208120601f198516915b828110156103d357878501518255602094850194600190920191016103b3565b50848210156103f057868401515f19600387901b60f8161c191681555b50505050600190811b01905550565b602081525f82518060208401528060208501604085015e5f604082850101526040601f19601f83011684010191505092915050565b805160208083015191908110156102f3575f1960209190910360031b1b16919050565b60805160a05160c05160e051610100516101205161014051610160516134ba6104c05f395f818161046c015281816112530152611f6201525f61178c01525f61176101525f6128e201525f6128ba01525f61281501525f61283f01525f61286901526134ba5ff3fe608060405234801561000f575f80fd5b5060043610610325575f3560e01c806370a08231116101a8578063a9059cbb116100f3578063dd62ed3e1161009e578063e7b43e7d11610079578063e7b43e7d14610827578063eca93cce1461083a578063f35da4621461084d578063f6f9b80d14610856575f80fd5b8063dd62ed3e146107c2578063de5712d4146107fa578063df87654814610814575f80fd5b8063c3bb7fff116100ce578063c3bb7fff14610789578063cd993b111461079c578063d505accf146107af575f80fd5b8063a9059cbb14610710578063b3e08a6914610723578063b88e6d6314610736575f80fd5b80639241bda6116101535780639dc29fac1161012e5780639dc29fac146106d7578063a457c2d7146106ea578063a538e6a9146106fd575f80fd5b80639241bda61461069457806395d89b41146106a75780639ca423b3146106af575f80fd5b80638378e563116101835780638378e563146105f257806384b0196e1461061e5780638b203dd414610639575f80fd5b806370a08231146105a45780637bd3ca35146105cc5780637ecebe00146105df575f80fd5b8063313ce5671161027357806347036e751161021e57806364e72dbd116101f957806364e72dbd14610533578063696bb4ad1461055257806369a5ac321461057e5780636c0deba114610591575f80fd5b806347036e7514610504578063542128dd14610517578063623059a51461052a575f80fd5b80633b107e211161024e5780633b107e21146104cb5780633cba316b146104de57806345fda707146104f1575f80fd5b8063313ce567146104a15780633644e515146104b057806339509351146104b8575f80fd5b806318160ddd116102d35780632bf960da116102ae5780632bf960da1461043c5780632f48ab7d1461046757806330fd6b291461048e575f80fd5b806318160ddd146103f657806319f8d5b4146103fe57806323b872dd14610429575f80fd5b806306fdde031161030357806306fdde03146103ab578063095ea7b3146103c05780630a4273e6146103e3575f80fd5b806301bddf1b1461032957806302517e8b1461033e57806306afa12a1461035a575b5f80fd5b61033c610337366004612d4e565b610869565b005b610347600f5481565b6040519081526020015b60405180910390f35b61038c610368366004612d83565b600d6020525f9081526040902080546001909101546001600160a01b039091169082565b604080516001600160a01b039093168352602083019190915201610351565b6103b361092d565b6040516103519190612dc8565b6103d36103ce366004612dee565b6109bd565b6040519015158152602001610351565b61033c6103f1366004612e18565b6109d6565b600254610347565b61041161040c366004612e44565b610a1b565b6040516001600160801b039091168152602001610351565b6103d3610437366004612e60565b610b4a565b60125461044f906001600160a01b031681565b6040516001600160a01b039091168152602001610351565b61044f7f000000000000000000000000000000000000000000000000000000000000000081565b61041161049c366004612d4e565b610b6d565b60405160068152602001610351565b610347610ee9565b6103d36104c6366004612dee565b610ef7565b61033c6104d9366004612e9e565b610f35565b61033c6104ec366004612eb7565b611123565b601354610411906001600160801b031681565b61033c610512366004612d83565b611190565b61033c610525366004612dee565b611404565b61034760095481565b610347610541366004612eb7565b60156020525f908152604090205481565b60125461056990600160a01b900463ffffffff1681565b60405163ffffffff9091168152602001610351565b61033c61058c366004612eb7565b611473565b61033c61059f366004612ed2565b6114dd565b6103476105b2366004612eb7565b6001600160a01b03165f9081526020819052604090205490565b61033c6105da366004612e44565b611522565b6103476105ed366004612eb7565b611737565b601254610569907801000000000000000000000000000000000000000000000000900463ffffffff1681565b610626611754565b6040516103519796959493929190612eed565b610670610647366004612f83565b600e6020525f90815260409020805460018201546002909201549091906001600160a01b031683565b6040805193845260208401929092526001600160a01b031690820152606001610351565b61033c6106a2366004612faa565b6117db565b6103b36118d1565b61044f6106bd366004612eb7565b60146020525f90815260409020546001600160a01b031681565b61033c6106e5366004612dee565b6118e0565b6103d36106f8366004612dee565b6118ea565b60115461044f906001600160a01b031681565b6103d361071e366004612dee565b611998565b61033c610731366004612fc5565b6119a5565b610769610744366004612eb7565b6011546001600160a01b039182165f9081526014602052604090205490821692911690565b604080516001600160a01b03938416815292909116602083015201610351565b61033c610797366004612d4e565b611a15565b61033c6107aa366004612e18565b611aec565b61033c6107bd366004612fe1565b611b2d565b6103476107d0366004612fc5565b6001600160a01b039182165f90815260016020908152604080832093909416825291909152205490565b60135461041190600160801b90046001600160801b031681565b61033c610822366004612faa565b611c8e565b61033c61083536600461304d565b611f0a565b61033c610848366004612fc5565b611fd1565b61034760105481565b61033c610864366004613070565b61208c565b61087460095461211a565b61087c575f80fd5b335f9081526015602052604090205460061480156108e1575063ffffffff82165f908152600e60205260409020600201546001600160a01b03163314806108e1575063ffffffff82165f908152600e60205260409020600201546001600160a01b0316155b6108e9575f80fd5b63ffffffff82165f908152600e602052604090205461091190608083901b612138565b612138565b63ffffffff9092165f908152600e602052604090209190915550565b60606003805461093c906130a6565b80601f0160208091040260200160405190810160405280929190818152602001828054610968906130a6565b80156109b35780601f1061098a576101008083540402835291602001916109b3565b820191905f5260205f20905b81548152906001019060200180831161099657829003601f168201915b5050505050905090565b5f336109ca818585612170565b60019150505b92915050565b6109e160095461211a565b156109ea575f80fd5b335f90815260156020526040902054600614610a04575f80fd5b610a1781836001600160801b0316612293565b5050565b335f90815260156020526040812054600114610a35575f80fd5b610a3d6123c3565b604080516001600160a01b038516602080830191909152338284015282518083038401815260609092019092528051910120600c546001600160801b031615610abb57610ab6610a8c600c5490565b6001600160801b0316846001600160801b0316610aa8600b5490565b6001600160801b03166124b4565b610abd565b5f5b600c54909250610adc906001600160801b038416608085901b176124c5565b600c55600b54610af5906001600160801b0385166124c5565b600b555f818152600d6020526040902080546001600160a01b0319163317815560010154610b3290608085901b6001600160801b038516176124c5565b5f918252600d60205260409091206001015592915050565b5f33610b578582856124eb565b610b6285858561257b565b506001949350505050565b5f610b7960095461211a565b610b81575f80fd5b335f908152601560205260409020546006148015610be6575063ffffffff83165f908152600e60205260409020600201546001600160a01b0316331480610be6575063ffffffff83165f908152600e60205260409020600201546001600160a01b0316155b610bee575f80fd5b5f8363ffffffff165f03610cdc576001601260188282829054906101000a900463ffffffff16610c1e91906130ec565b92506101000a81548163ffffffff021916908363ffffffff160217905550601260189054906101000a900463ffffffff169350610c60610a8c600c5460801c90565b600c54909150610c7f906001600160801b038316608084901b176124c5565b600c55600b54610c98906001600160801b0385166124c5565b600b5563ffffffff84165f908152600e602052604090206001600160801b038216608085901b17600182015560020180546001600160a01b03191633179055610e81565b610d25610ceb600c5460801c90565b63ffffffff86165f908152600e60205260409020600101546001600160801b03919091169060801c6001600160801b0316610aa8600b5490565b600c5463ffffffff86165f908152600e6020526040902060010154919350610d619161090c9085905b6001600160801b031660809190911b1790565b600c55600b5463ffffffff85165f908152600e6020526040812060010154610d90929161090c9160801c610d4e565b600b5563ffffffff84165f908152600e602052604090206001015460801c610db89083613108565b9150610dc9610a8c600c5460801c90565b600c54909150610de8906001600160801b038316608084901b176124c5565b600c55600b54610e01906001600160801b0385166124c5565b600b556001600160801b038116608084901b1763ffffffff85165f908152600e60205260409020600181019190915554610e4a906001600160801b038416608085901b176124c5565b63ffffffff85165f908152600e6020526040902090815560020154610e81906001600160a01b03166001600160801b03841661274c565b63ffffffff84165f818152600e60209081526040918290206001015482519384526001600160801b0386169184019190915282820152517f2dbd6c60950a71a3b42582ce495af627a70477170cea6ce5bbd4017f3e9308929181900360600190a15092915050565b5f610ef2612809565b905090565b335f8181526001602090815260408083206001600160a01b03871684529091528120549091906109ca9082908690610f30908790613127565b612170565b610f4060095461211a565b610f48575f80fd5b5f610f596040830160208401612ed2565b601354610f6f91906001600160801b0316613108565b6001600160801b031610158015610f9957506011546001600160a01b0316336001600160a01b0316145b610fa1575f80fd5b610fb16040820160208301612ed2565b6013805467ffffffffffffffff92909216915f90610fd99084906001600160801b0316613108565b92506101000a8154816001600160801b0302191690836001600160801b031602179055506001601260148282829054906101000a900463ffffffff1661101f91906130ec565b82546101009290920a63ffffffff818102199093169183160217909155601254600160a01b9004165f908152600a60205260409020829150611061828261314e565b507f259b626a3ac57abbad46c244a9bc2a13c0b530c618e9654be9351bd104cffcae90506110926020830183612eb7565b6110a26040840160208501612ed2565b6110b26060850160408601613235565b6110c26080860160608701612faa565b601254604080516001600160a01b0390961686526001600160801b0390941660208601526001600160781b039092169284019290925260ff9091166060830152600160a01b900463ffffffff16608082015260a0015b60405180910390a150565b6011546001600160a01b0316336001600160a01b031614611142575f80fd5b601180546001600160a01b0319166001600160a01b0383169081179091556040519081527f853baecd5c22fcf8a4d994474a066771c51cfe6022b046e92a09874610cd128190602001611118565b61119b60095461211a565b6111a3575f80fd5b80601360108282829054906101000a90046001600160801b03166111c79190613250565b92506101000a8154816001600160801b0302191690836001600160801b031602179055506111f3600690565b6112039060ff16624c4b4061326f565b62ffffff16601360109054906101000a90046001600160801b03166001600160801b03161115611231575f80fd5b6040516323b872dd60e01b8152336004820152306024820152604481018290527f00000000000000000000000000000000000000000000000000000000000000006001600160a01b0316906323b872dd906064016020604051808303815f875af11580156112a1573d5f803e3d5ffd5b505050506040513d601f19601f820116820180604052508101906112c59190613294565b15611401575f6112d96006621ab3f061326f565b62ffffff16601360109054906101000a90046001600160801b03166001600160801b0316116113295761130d6005836132c7565b6113189060066132da565b9050611324338261274c565b6113c5565b61133760066231975061326f565b62ffffff16601360109054906101000a90046001600160801b03166001600160801b03161161136c575080611324338261274c565b61137a6006624c4b4061326f565b62ffffff16601360109054906101000a90046001600160801b03166001600160801b0316116113c5576113ae6005836132c7565b6113b99060046132da565b90506113c5338261274c565b60408051838152602081018390527fcf0848d99e9b2ad96811072e657199bc9567c2cc9b614097727a852b27f5358d91015b60405180910390a1505b50565b6011546001600160a01b0316336001600160a01b031614611423575f80fd5b6001600160a01b0382165f81815260156020908152604091829020849055815192835282018390527f967d50df84a5ebb45902fa277d5c3b0bc6403497c9fd6da2ecbd9ed420038f1491016113f7565b6011546001600160a01b0316336001600160a01b031614611492575f80fd5b6001600160a01b0381165f8181526015602090815260408083209290925590519182527f3680a8b72561b4141a1464124f40242ac80a59d51d29649d9b0b442c255b62899101611118565b6114e860095461211a565b156114f1575f80fd5b335f9081526015602052604090205460051461150b575f80fd5b600c5461151c90608083901b6124c5565b600c5550565b335f9081526015602052604090205460011461153c575f80fd5b6115446123c3565b604080516001600160a01b0384166020808301919091523382840152825180830384018152606090920183528151918101919091205f818152600d909252918120600101549091829160801c6001600160801b038516106115d3575f818152600d6020526040812060018101805482546001600160a01b03191690925591909155608081901c9450915061162d565b5f818152600d60205260409020600101546115ee9085612932565b5f828152600d602052604090206001015490925061161b906001600160801b038416608087901b17612138565b5f828152600d60205260409020600101555b61164e84611648611640600c5460801c90565b600b54610d4e565b90612954565b600b54909350611667906001600160801b038616612138565b600b55600c54611686906001600160801b038416608086901b17612138565b600c556116938284613108565b92506001600160801b038316156116b7576116b785846001600160801b031661274c565b7fcd22d1cb8932396ecce835a81db9f8f268ec6f820ba46a7d202f275064de27c485856001600160801b038616608086901b175f858152600d60209081526040918290206001015482516001600160a01b0390961686526001600160801b0390941690850152830152606082015260800160405180910390a15050505050565b6001600160a01b0381165f908152600760205260408120546109d0565b5f606080828080836117877f0000000000000000000000000000000000000000000000000000000000000000600561297c565b6117b27f0000000000000000000000000000000000000000000000000000000000000000600661297c565b604080515f80825260208201909252600f60f81b9b939a50919850469750309650945092509050565b6117e660095461211a565b6117ee575f80fd5b6011546001600160a01b0316336001600160a01b03161461180d575f80fd5b60ff81165f908152600a60205260408120600101546013805467ffffffffffffffff9092169290916118499084906001600160801b0316613250565b92506101000a8154816001600160801b0302191690836001600160801b031602179055507f568d364b674966bdb889933148a94e885581320f54b5d65d04bda235eea7fe48816040516118a5919060ff91909116815260200190565b60405180910390a160ff165f908152600a6020526040812080546001600160a01b031916815560010155565b60606004805461093c906130a6565b610a178282612293565b335f8181526001602090815260408083206001600160a01b03871684529091528120549091908381101561198b5760405162461bcd60e51b815260206004820152602560248201527f45524332303a2064656372656173656420616c6c6f77616e63652062656c6f7760448201527f207a65726f00000000000000000000000000000000000000000000000000000060648201526084015b60405180910390fd5b610b628286868403612170565b5f336109ca81858561257b565b6011546001600160a01b031633146119bb575f80fd5b604051630c5ee4e160e21b81526001600160a01b03828116600483015283169063317b9384906024015f604051808303815f87803b1580156119fb575f80fd5b505af1158015611a0d573d5f803e3d5ffd5b505050505050565b611a2060095461211a565b611a28575f80fd5b335f908152601560205260409020546006148015611a8d575063ffffffff82165f908152600e60205260409020600201546001600160a01b0316331480611a8d575063ffffffff82165f908152600e60205260409020600201546001600160a01b0316155b611a95575f80fd5b63ffffffff82165f908152600e6020526040902054611ab890608083901b6124c5565b63ffffffff83165f908152600e602090815260408083208490553383529082905290205460809190911c1115610a17575f80fd5b611af760095461211a565b15611b00575f80fd5b335f90815260156020526040902054600614611b1a575f80fd5b610a1781836001600160801b031661274c565b83421115611b7d5760405162461bcd60e51b815260206004820152601d60248201527f45524332305065726d69743a206578706972656420646561646c696e650000006044820152606401611982565b5f7f6e71edae12b1b97f4d1f60370fef10105fa2faae0126114a169c64845d6126c9888888611bab8c612a25565b6040805160208101969096526001600160a01b0394851690860152929091166060840152608083015260a082015260c0810186905260e0016040516020818303038152906040528051906020012090505f611c0582612a4c565b90505f611c1482878787612a78565b9050896001600160a01b0316816001600160a01b031614611c775760405162461bcd60e51b815260206004820152601e60248201527f45524332305065726d69743a20696e76616c6964207369676e617475726500006044820152606401611982565b611c828a8a8a612170565b50505050505050505050565b611c9960095461211a565b611ca1575f80fd5b601254600f5460105460ff84165f908152600a60205260409020600101546001600160a01b039093169263a7fed925929190611cee90600160801b90046001600160781b031660026133d4565b611cfc90600160801b6132da565b611d0790600a613127565b6040517fffffffff0000000000000000000000000000000000000000000000000000000060e086901b168152600481019390935260248301919091526044820152606401602060405180830381865afa158015611d66573d5f803e3d5ffd5b505050506040513d601f19601f82011682018060405250810190611d8a9190613294565b158015611db9575060ff81165f908152600a60205260409020546001600160a01b0316336001600160a01b0316145b611dc1575f80fd5b60ff8082165f908152600a60205260408120600101549091611df691600160f81b8104909116906001600160801b03166133e8565b60ff83165f908152600a6020526040812060010180549293508392909190611e289084906001600160801b0316613108565b92506101000a8154816001600160801b0302191690836001600160801b031602179055506001600a5f8460ff1663ffffffff1681526020019081526020015f2060010160108282829054906101000a90046001600160781b0316611e8c9190613415565b92506101000a8154816001600160781b0302191690836001600160781b03160217905550611ec9611eba3390565b826001600160801b031661274c565b604080516001600160801b038316815260ff841660208201527f83592ad363894b5c4d81b2113457c5a1683230ce1c133eefa927d17f65cd5ca091016113f7565b611f1560095461211a565b611f1d575f80fd5b6011546001600160a01b0316336001600160a01b031614611f3c575f80fd5b60405163a9059cbb60e01b81526001600160a01b038281166004830152602482018490527f0000000000000000000000000000000000000000000000000000000000000000169063a9059cbb906044016020604051808303815f875af1158015611fa8573d5f803e3d5ffd5b505050506040513d601f19601f82011682018060405250810190611fcc9190613294565b505050565b335f90815260156020526040902054600114801561200657506001600160a01b038281165f9081526014602052604090205416155b80156120245750806001600160a01b0316826001600160a01b031614155b15610a17576001600160a01b038281165f8181526014602090815260409182902080546001600160a01b031916948616948517905581519283528201929092527f0b5e322b4b5330962013e8d6519462c133d50320ee476828060995c1acadef6291016113f7565b6011546001600160a01b0316336001600160a01b0316146120ab575f80fd5b600f8390556010829055601280546001600160a01b0319166001600160a01b0383169081179091556040805185815260208101859052908101919091527f2c13ec80363c5c6acca850e78e87c50c5f15ae0398a319963393eeb01c11045d9060600160405180910390a1505050565b5f60ff82901c6001811461212e575f612131565b60015b9392505050565b5f608082811d9084901d036001600160801b038381169085160361216761215e83612a9e565b610d4e83612a9e565b95945050505050565b6001600160a01b0383166121d25760405162461bcd60e51b8152602060048201526024808201527f45524332303a20617070726f76652066726f6d20746865207a65726f206164646044820152637265737360e01b6064820152608401611982565b6001600160a01b0382166122335760405162461bcd60e51b815260206004820152602260248201527f45524332303a20617070726f766520746f20746865207a65726f206164647265604482015261737360f01b6064820152608401611982565b6001600160a01b038381165f8181526001602090815260408083209487168084529482529182902085905590518481527f8c5be1e5ebec7d5bd14f71427d1e84f3dd0314c0f7b2291e5b200ac8c7c3b925910160405180910390a3505050565b6001600160a01b0382166122f35760405162461bcd60e51b815260206004820152602160248201527f45524332303a206275726e2066726f6d20746865207a65726f206164647265736044820152607360f81b6064820152608401611982565b6001600160a01b0382165f90815260208190526040902054818110156123665760405162461bcd60e51b815260206004820152602260248201527f45524332303a206275726e20616d6f756e7420657863656564732062616c616e604482015261636560f01b6064820152608401611982565b6001600160a01b0383165f818152602081815260408083208686039055600280548790039055518581529192917fddf252ad1be2c89b69c2b068fc378daa952ba7f163c4a11628f55a4df523b3ef910160405180910390a3505050565b426123d0600b5460801c90565b6123dd9062015180613250565b6001600160801b031610156124b257600b5461240c9072015180000000000000000000000000000000006124c5565b600b555f61241f60066302faf080613434565b63ffffffff1661242e60025490565b11612449576124406006610ab4613453565b61ffff1661245f565b61477c61245560025490565b61245f91906132c7565b600c5490915061247390608083901b6124c5565b600c819055600b546040517f8288d0d3063eba413cf9eea42df98c32074b7b6d554adf408bdb0546e468c4049261111892908252602082015260400190565b565b918102915f81840461216781612a9e565b5f608082811d9084901d016001600160801b038381169085160161216761215e83612a9e565b6001600160a01b038381165f908152600160209081526040808320938616835292905220545f19811461257557818110156125685760405162461bcd60e51b815260206004820152601d60248201527f45524332303a20696e73756666696369656e7420616c6c6f77616e63650000006044820152606401611982565b6125758484848403612170565b50505050565b6001600160a01b0383166125f75760405162461bcd60e51b815260206004820152602560248201527f45524332303a207472616e736665722066726f6d20746865207a65726f20616460448201527f64726573730000000000000000000000000000000000000000000000000000006064820152608401611982565b6001600160a01b0382166126595760405162461bcd60e51b815260206004820152602360248201527f45524332303a207472616e7366657220746f20746865207a65726f206164647260448201526265737360e81b6064820152608401611982565b6001600160a01b0383165f90815260208190526040902054818110156126e75760405162461bcd60e51b815260206004820152602660248201527f45524332303a207472616e7366657220616d6f756e742065786365656473206260448201527f616c616e636500000000000000000000000000000000000000000000000000006064820152608401611982565b6001600160a01b038481165f81815260208181526040808320878703905593871680835291849020805487019055925185815290927fddf252ad1be2c89b69c2b068fc378daa952ba7f163c4a11628f55a4df523b3ef910160405180910390a3612575565b6001600160a01b0382166127a25760405162461bcd60e51b815260206004820152601f60248201527f45524332303a206d696e7420746f20746865207a65726f2061646472657373006044820152606401611982565b8060025f8282546127b39190613127565b90915550506001600160a01b0382165f81815260208181526040808320805486019055518481527fddf252ad1be2c89b69c2b068fc378daa952ba7f163c4a11628f55a4df523b3ef910160405180910390a35050565b5f306001600160a01b037f00000000000000000000000000000000000000000000000000000000000000001614801561286157507f000000000000000000000000000000000000000000000000000000000000000046145b1561288b57507f000000000000000000000000000000000000000000000000000000000000000090565b610ef2604080517f8b73c3c69bb8fe3d512ecc4cf759cc79239f7b179b0ffacaa9a75d522b39400f60208201527f0000000000000000000000000000000000000000000000000000000000000000918101919091527f000000000000000000000000000000000000000000000000000000000000000060608201524660808201523060a08201525f9060c00160405160208183030381529060405280519060200120905090565b5f612131836001600160801b0316836001600160801b0316610aa88660801c90565b5f6121316129628460801c90565b6001600160801b0316836001600160801b0316610aa88690565b606060ff83146129965761298f83612ab8565b90506109d0565b8180546129a2906130a6565b80601f01602080910402602001604051908101604052809291908181526020018280546129ce906130a6565b8015612a195780601f106129f057610100808354040283529160200191612a19565b820191905f5260205f20905b8154815290600101906020018083116129fc57829003601f168201915b505050505090506109d0565b6001600160a01b0381165f9081526007602052604090208054600181018255905b50919050565b5f6109d0612a58612809565b8360405161190160f01b8152600281019290925260228201526042902090565b5f805f612a8787878787612af5565b91509150612a9481612bb2565b5095945050505050565b5f6001600160801b03821115612ab4575f6109d0565b5090565b60605f612ac483612cfb565b6040805160208082528183019092529192505f91906020820181803683375050509182525060208101929092525090565b5f807f7fffffffffffffffffffffffffffffff5d576e7357a4501ddfe92f46681b20a0831115612b2a57505f90506003612ba9565b604080515f8082526020820180845289905260ff881692820192909252606081018690526080810185905260019060a0016020604051602081039080840390855afa158015612b7b573d5f803e3d5ffd5b5050604051601f1901519150506001600160a01b038116612ba3575f60019250925050612ba9565b91505f90505b94509492505050565b5f816004811115612bc557612bc5613470565b03612bcd5750565b6001816004811115612be157612be1613470565b03612c2e5760405162461bcd60e51b815260206004820152601860248201527f45434453413a20696e76616c6964207369676e617475726500000000000000006044820152606401611982565b6002816004811115612c4257612c42613470565b03612c8f5760405162461bcd60e51b815260206004820152601f60248201527f45434453413a20696e76616c6964207369676e6174757265206c656e677468006044820152606401611982565b6003816004811115612ca357612ca3613470565b036114015760405162461bcd60e51b815260206004820152602260248201527f45434453413a20696e76616c6964207369676e6174757265202773272076616c604482015261756560f01b6064820152608401611982565b5f60ff8216601f8111156109d057604051632cd44ac360e21b815260040160405180910390fd5b803563ffffffff81168114612d35575f80fd5b919050565b6001600160801b0381168114611401575f80fd5b5f8060408385031215612d5f575f80fd5b612d6883612d22565b91506020830135612d7881612d3a565b809150509250929050565b5f60208284031215612d93575f80fd5b5035919050565b5f81518084528060208401602086015e5f602082860101526020601f19601f83011685010191505092915050565b602081525f6121316020830184612d9a565b6001600160a01b0381168114611401575f80fd5b5f8060408385031215612dff575f80fd5b8235612e0a81612dda565b946020939093013593505050565b5f8060408385031215612e29575f80fd5b8235612e3481612d3a565b91506020830135612d7881612dda565b5f8060408385031215612e55575f80fd5b8235612d6881612dda565b5f805f60608486031215612e72575f80fd5b8335612e7d81612dda565b92506020840135612e8d81612dda565b929592945050506040919091013590565b5f6080828403128015612eaf575f80fd5b509092915050565b5f60208284031215612ec7575f80fd5b813561213181612dda565b5f60208284031215612ee2575f80fd5b813561213181612d3a565b60ff60f81b8816815260e060208201525f612f0b60e0830189612d9a565b8281036040840152612f1d8189612d9a565b606084018890526001600160a01b038716608085015260a0840186905283810360c0850152845180825260208087019350909101905f5b81811015612f72578351835260209384019390920191600101612f54565b50909b9a5050505050505050505050565b5f60208284031215612f93575f80fd5b61213182612d22565b60ff81168114611401575f80fd5b5f60208284031215612fba575f80fd5b813561213181612f9c565b5f8060408385031215612fd6575f80fd5b8235612e3481612dda565b5f805f805f805f60e0888a031215612ff7575f80fd5b873561300281612dda565b9650602088013561301281612dda565b95506040880135945060608801359350608088013561303081612f9c565b9699959850939692959460a0840135945060c09093013592915050565b5f806040838503121561305e575f80fd5b823591506020830135612d7881612dda565b5f805f60608486031215613082575f80fd5b8335925060208401359150604084013561309b81612dda565b809150509250925092565b600181811c908216806130ba57607f821691505b602082108103612a4657634e487b7160e01b5f52602260045260245ffd5b634e487b7160e01b5f52601160045260245ffd5b63ffffffff81811683821601908111156109d0576109d06130d8565b6001600160801b0382811682821603908111156109d0576109d06130d8565b808201808211156109d0576109d06130d8565b6001600160781b0381168114611401575f80fd5b813561315981612dda565b6001600160a01b0381166001600160a01b03198354161782555060018101602083013561318581612d3a565b815460408501356131958161313a565b7effffffffffffffffffffffffffffff000000000000000000000000000000008160801b166001600160801b03841660ff60f81b8416171784555050505f60608401356131e181612f9c565b82547effffffffffffffffffffffffffffffffffffffffffffffffffffffffffffff1660f89190911b7fff000000000000000000000000000000000000000000000000000000000000001617909155505050565b5f60208284031215613245575f80fd5b81356121318161313a565b6001600160801b0381811683821601908111156109d0576109d06130d8565b62ffffff818116838216029081169081811461328d5761328d6130d8565b5092915050565b5f602082840312156132a4575f80fd5b81518015158114612131575f80fd5b634e487b7160e01b5f52601260045260245ffd5b5f826132d5576132d56132b3565b500490565b80820281158282048414176109d0576109d06130d8565b6001815b600184111561332c57808504811115613310576133106130d8565b600184161561331e57908102905b60019390931c9280026132f5565b935093915050565b5f82613342575060016109d0565b8161334e57505f6109d0565b8160018114613364576002811461336e5761338a565b60019150506109d0565b60ff84111561337f5761337f6130d8565b50506001821b6109d0565b5060208310610133831016604e8410600b84101617156133ad575081810a6109d0565b6133b95f1984846132f1565b805f19048211156133cc576133cc6130d8565b029392505050565b5f6121316001600160781b03841683613334565b5f6001600160801b03831680613400576134006132b3565b806001600160801b0384160491505092915050565b6001600160781b0381811683821601908111156109d0576109d06130d8565b63ffffffff818116838216029081169081811461328d5761328d6130d8565b61ffff818116838216029081169081811461328d5761328d6130d8565b634e487b7160e01b5f52602160045260245ffdfea26469706673582212206a801533681d39578709ee43f1111f23bb8546aa84e605d1fa2b7c3d23b01ceb64736f6c634300081a0033","linkReferences":{}},"methodIdentifiers":{"DOMAIN_SEPARATOR()":"3644e515","addShare((address,uint128,uint120,uint8))":"3b107e21","addauths(address,uint256)":"542128dd","addreferral(address,address)":"eca93cce","allowance(address,address)":"dd62ed3e","approve(address,uint256)":"095ea7b3","auths(address)":"64e72dbd","balanceOf(address)":"70a08231","burn(address,uint256)":"9dc29fac","burnShare(uint8)":"9241bda6","chain_deposit(uint32,uint128)":"01bddf1b","chain_withdraw(uint32,uint128)":"c3bb7fff","chainindex()":"8378e563","chains(uint32)":"8b203dd4","changeDAOAdmin(address)":"3cba316b","dao_admin()":"a538e6a9","decimals()":"313ce567","decreaseAllowance(address,uint256)":"a457c2d7","eip712Domain()":"84b0196e","getreferralanddaoadmin(address)":"b88e6d63","increaseAllowance(address,uint256)":"39509351","left_share()":"45fda707","marketcontract()":"2bf960da","name()":"06fdde03","nonces(address)":"7ecebe00","normalgoodid()":"02517e8b","permit(address,address,uint256,uint256,uint8,bytes32,bytes32)":"d505accf","public_Sell(uint256)":"47036e75","publicsell()":"de5712d4","referrals(address)":"9ca423b3","rmauths(address)":"69a5ac32","setEnv(uint256,uint256,address)":"f6f9b80d","setMainTriggerMarket(address,address)":"b3e08a69","shareMint(uint8)":"df876548","shares_index()":"696bb4ad","stake(address,uint128)":"19f8d5b4","stakeproof(uint256)":"06afa12a","subchainDeposit(uint128,address)":"cd993b11","subchainWithdraw(uint128,address)":"0a4273e6","symbol()":"95d89b41","syncChainStake(uint32,uint128)":"30fd6b29","syncPoolAsset(uint128)":"6c0deba1","totalSupply()":"18160ddd","transfer(address,uint256)":"a9059cbb","transferFrom(address,address,uint256)":"23b872dd","ttstokenconfig()":"623059a5","unstake(address,uint128)":"7bd3ca35","usdt()":"2f48ab7d","valuegoodid()":"f35da462","withdrawPublicSell(uint256,address)":"e7b43e7d"},"id":57}