{"abi":[{"type":"constructor","inputs":[{"name":"_creator","type":"address","internalType":"address"},{"name":"_ttswap_market","type":"address","internalType":"contract I_TTSwap_Market"},{"name":"_ttswap_token","type":"address","internalType":"contract IERC20"}],"stateMutability":"nonpayable"},{"type":"receive","stateMutability":"payable"},{"type":"function","name":"changeManager","inputs":[{"name":"_manager","type":"address","internalType":"address"}],"outputs":[],"stateMutability":"nonpayable"},{"type":"function","name":"collectTTSReward","inputs":[],"outputs":[],"stateMutability":"nonpayable"},{"type":"function","name":"divest","inputs":[{"name":"_goodQuantity","type":"uint128","internalType":"uint128"}],"outputs":[],"stateMutability":"nonpayable"},{"type":"function","name":"invest","inputs":[{"name":"_goodQuantity","type":"uint128","internalType":"uint128"}],"outputs":[],"stateMutability":"nonpayable"},{"type":"function","name":"rethStaking","inputs":[],"outputs":[{"name":"","type":"uint256","internalType":"uint256"}],"stateMutability":"view"},{"type":"function","name":"sethState","inputs":[],"outputs":[{"name":"","type":"uint256","internalType":"uint256"}],"stateMutability":"view"},{"type":"function","name":"stakeEth","inputs":[{"name":"token","type":"address","internalType":"address"},{"name":"_stakeamount","type":"uint128","internalType":"uint128"}],"outputs":[],"stateMutability":"payable"},{"type":"function","name":"stakeRocketPoolETH","inputs":[{"name":"stakeamount","type":"uint128","internalType":"uint128"}],"outputs":[{"name":"rethAmount","type":"uint256","internalType":"uint256"}],"stateMutability":"nonpayable"},{"type":"function","name":"swethState","inputs":[],"outputs":[{"name":"","type":"uint256","internalType":"uint256"}],"stateMutability":"view"},{"type":"function","name":"syncReward","inputs":[{"name":"token","type":"address","internalType":"address"}],"outputs":[{"name":"reward","type":"uint128","internalType":"uint128"}],"stateMutability":"nonpayable"},{"type":"function","name":"totalStake","inputs":[],"outputs":[{"name":"","type":"uint256","internalType":"uint256"}],"stateMutability":"view"},{"type":"function","name":"totalState","inputs":[],"outputs":[{"name":"","type":"uint256","internalType":"uint256"}],"stateMutability":"view"},{"type":"function","name":"unstakeEthSome","inputs":[{"name":"token","type":"address","internalType":"address"},{"name":"amount","type":"uint128","internalType":"uint128"}],"outputs":[{"name":"reward","type":"uint128","internalType":"uint128"}],"stateMutability":"nonpayable"},{"type":"function","name":"unstakeRocketPoolETH","inputs":[{"name":"rethAmount","type":"uint256","internalType":"uint256"}],"outputs":[],"stateMutability":"nonpayable"},{"type":"event","name":"e_Received","inputs":[{"name":"","type":"uint256","indexed":false,"internalType":"uint256"}],"anonymous":false},{"type":"event","name":"e_collecttts","inputs":[{"name":"amount","type":"uint256","indexed":false,"internalType":"uint256"}],"anonymous":false},{"type":"event","name":"e_getReward","inputs":[{"name":"","type":"uint128","indexed":false,"internalType":"uint128"}],"anonymous":false},{"type":"event","name":"e_rocketpoolUnstaked","inputs":[{"name":"totalStake","type":"uint256","indexed":false,"internalType":"uint256"},{"name":"totalState","type":"uint256","indexed":false,"internalType":"uint256"},{"name":"reward","type":"uint128","indexed":false,"internalType":"uint128"}],"anonymous":false},{"type":"event","name":"e_stakeRocketPoolETH","inputs":[{"name":"totalStake","type":"uint256","indexed":false,"internalType":"uint256"}],"anonymous":false},{"type":"event","name":"e_stakeSETH","inputs":[{"name":"TotalStake","type":"uint256","indexed":false,"internalType":"uint256"},{"name":"TotalState","type":"uint256","indexed":false,"internalType":"uint256"},{"name":"sethShare","type":"uint256","indexed":false,"internalType":"uint256"},{"name":"rethStaking","type":"uint256","indexed":false,"internalType":"uint256"},{"name":"stakeamount","type":"uint128","indexed":false,"internalType":"uint128"}],"anonymous":false},{"type":"event","name":"e_stakeSWETH","inputs":[{"name":"TotalStake","type":"uint256","indexed":false,"internalType":"uint256"},{"name":"TotalState","type":"uint256","indexed":false,"internalType":"uint256"},{"name":"swethShare","type":"uint256","indexed":false,"internalType":"uint256"},{"name":"rethStaking","type":"uint256","indexed":false,"internalType":"uint256"},{"name":"stakeamount","type":"uint128","indexed":false,"internalType":"uint128"}],"anonymous":false},{"type":"event","name":"e_stakeeth_devest","inputs":[{"name":"rethStaking","type":"uint256","indexed":false,"internalType":"uint256"}],"anonymous":false},{"type":"event","name":"e_stakeeth_invest","inputs":[{"name":"rethStaking","type":"uint256","indexed":false,"internalType":"uint256"}],"anonymous":false},{"type":"event","name":"e_unstakeSETH","inputs":[{"name":"TotalStake","type":"uint256","indexed":false,"internalType":"uint256"},{"name":"TotalState","type":"uint256","indexed":false,"internalType":"uint256"},{"name":"sethShare","type":"uint256","indexed":false,"internalType":"uint256"},{"name":"rethStaking","type":"uint256","indexed":false,"internalType":"uint256"},{"name":"reward","type":"uint128","indexed":false,"internalType":"uint128"}],"anonymous":false},{"type":"event","name":"e_unstakeSWETH","inputs":[{"name":"TotalStake","type":"uint256","indexed":false,"internalType":"uint256"},{"name":"TotalState","type":"uint256","indexed":false,"internalType":"uint256"},{"name":"swethShare","type":"uint256","indexed":false,"internalType":"uint256"},{"name":"rethStaking","type":"uint256","indexed":false,"internalType":"uint256"},{"name":"reward","type":"uint128","indexed":false,"internalType":"uint128"}],"anonymous":false},{"type":"error","name":"DepositFailed","inputs":[]},{"type":"error","name":"ERC20TransferFailed","inputs":[]},{"type":"error","name":"NativeETHTransferFailed","inputs":[]},{"type":"error","name":"TTSwapError","inputs":[{"name":"seq","type":"uint256","internalType":"uint256"}]}],"bytecode":{"object":"0x60c0346100f057601f611f2238819003918201601f19168301916001600160401b038311848410176100f4578084926060946040528339810103126100f05780516001600160a01b03811691908290036100f0576020810151906001600160a01b03821682036100f05760400151916001600160a01b03831683036100f057600580546001600160a01b0319908116929092179055600680549091163317905560805260a052604051611e19908161010982396080518181816103ab01528181610498015281816106d501528181610a6901528181610b0a01528181610c620152610f95015260a051816104380152f35b5f80fd5b634e487b7160e01b5f52604160045260245ffdfe60806040526004361015610022575b3615610018575f80fd5b6100206117a9565b005b5f3560e01c80630c408b1614610101578063384e54b5146100fc5780633f9958f2146100f75780634fbda438146100f257806361a5192c146100ed5780636cd837af146100e85780638b0e9f3f146100e35780638c706eb5146100de5780638efa0487146100d95780639bd74e1d146100d45780639f58a561146100cf578063a3fbbaae146100ca578063baeb91ae146100c55763faec944f0361000e57611248565b610f3e565b610eed565b610ed1565b610c92565b610aad565b6108cb565b6108ae565b610891565b610874565b61065b565b61063e565b6103f9565b610154565b6001600160a01b0381160361011757565b5f80fd5b6001600160801b0381160361011757565b60409060031901126101175760043561014481610106565b906024356101518161011b565b90565b34610117576101623661012c565b5f516020611da45f395f51905f525c6001600160a01b03166103db57335f516020611da45f395f51905f525d61019e61019a836117e7565b1590565b80156103a8575b610394576020916101b4611806565b6001600160a01b0381166002036102e95761028e9061028661023461027f60015461021c6101e2888361198d565b916102156102106102096101f7865f546119ab565b9560801b6001600160801b0387161790565b80936119ca565b600155565b5f546119ca565b5f5561024b6102466003546102406102348b86611494565b6001600160801b031690565b906119ca565b600355565b6006546001600160a01b03169061027a60096001600160801b03831604926001600160801b0384169088611aad565b6114b2565b9485611494565b903390611aad565b7e7eae90b8d9268fb13c0576f93212da41ea2978b508b025f334bf36e71e31966003545f54906102cb8460015460045490604051958695866114cb565b0390a15b6102d76117d5565b6040516001600160801b039091168152f35b61034e9061028661023461027f600254610320610306888361198d565b9161021561031b6102096101f7865f546119ab565b600255565b5f556103386102466003546102406102348b86611494565b61024b610348610234838a611494565b86611a4a565b7f68c77a7603d76e9e9f58f3ee37e0fc655cd802f33a50555cca4ce2e054aed8876003545f549061038c8460025460045490604051958695866114cb565b0390a16102cf565b63d1b5191160e01b5f52602560045260245ffd5b507f00000000000000000000000000000000000000000000000000000000000000006001600160a01b03163314156101a5565b63d1b5191160e01b5f52600360045260245ffd5b5f91031261011757565b34610117575f366003190112610117576006546001600160a01b03163303610117576040516370a0823160e01b81523060048201526001600160a01b037f00000000000000000000000000000000000000000000000000000000000000001690602081602481855afa9081156105dd575f9161060f575b506001600160801b03168061048157005b60405163095ea7b360e01b81526001600160a01b037f000000000000000000000000000000000000000000000000000000000000000016600482018190526001600160801b03831660248301526020826044815f885af19081156105dd576105599460409385936105e2575b5083516378a8f3c360e11b81526001600160a01b0390911660048201525f516020611dc45f395f51905f5260248201526001600160801b039092166044830152600160648301525f6084830181905260c060a484015260c48301819052919485928391829060e4820190565b03925af19081156105dd577f2830a90fac4765f504d820b52c9dfbd66dfb00a95dcf6e782243478e46a44b05926105aa926105af575b506040516001600160801b0390911681529081906020820190565b0390a1005b6105d09060403d6040116105d6575b6105c881836114fd565b810190611565565b5061058f565b503d6105be565b611542565b6106039060203d602011610608575b6105fb81836114fd565b81019061154d565b6104ed565b503d6105f1565b610631915060203d602011610637575b61062981836114fd565b810190611533565b5f610470565b503d61061f565b34610117575f366003190112610117576020600154604051908152f35b34610117576020366003190112610117576004356106788161011b565b6006546001600160a01b0381163303610117576106b761069661157b565b3081525f516020611dc45f395f51905f5260208201525f6040820152611b5b565b60405162fc45dd60e61b815260048101829052906001600160a01b037f00000000000000000000000000000000000000000000000000000000000000001660a083602481845afa9384156105dd575f61074a879261073e61072d610234606061078d9b60409b8891610845575b50015160801c90565b6001600160801b03861611156114f6565b6001600160a01b031690565b85516307a3317960e51b815260048101959095526001600160801b0390921660248501526001600160a01b03909116604484015291938492839182906064820190565b03925af180156105dd576107d6926107d1925f9261080b575b506107b4826107cb92611494565b600454926001600160801b031660809190911b1790565b90611ba1565b600455565b6004546040519081527f92998adb9d780ebedf7690be5ca91b335882d7c5533142a287aa7feda28dd3309080602081016105aa565b6107cb9192506108356107b49160403d60401161083e575b61082d81836114fd565b8101906115f7565b509291506107a6565b503d610823565b610867915060a03d60a01161086d575b61085f81836114fd565b81019061158c565b5f610724565b503d610855565b34610117575f366003190112610117576020600254604051908152f35b34610117575f366003190112610117576020600454604051908152f35b34610117575f366003190112610117576020600354604051908152f35b34610117576020366003190112610117576004356108e881610106565b5f516020611da45f395f51905f525c6001600160a01b0316610a9957335f516020611da45f395f51905f525d61092061019a826117e7565b8015610a66575b61039457602090610936611806565b6001600160a01b0381166002036109fc5761028e6109e95f546109a061021061096e60015461027a6109688260801c90565b866119ab565b9261099261097c858361198d565b91608083901b6001600160801b03871617610240565b5f556001549060801b610240565b6003546109ba90610246906001600160801b038416610240565b6006546001600160a01b03169061027a60096001600160801b03831604926001600160801b0384169087611aad565b916001600160801b038316903390611aad565b61034e6109e95f54610a3961031b610a1d60025461027a6109688260801c90565b92610a2b61097c858361198d565b5f556002549060801b610240565b600354610a5390610246906001600160801b038416610240565b6109ba6001600160801b03821685611a4a565b507f00000000000000000000000000000000000000000000000000000000000000006001600160a01b0316331415610927565b63d1b5191160e01b5f52600360045260245ffd5b610ab63661012c565b5f516020611da45f395f51905f525c6001600160a01b0316610a9957335f516020611da45f395f51905f525d610aee61019a836117e7565b8015610c5f575b610394576001600160801b038116610b3881307f00000000000000000000000000000000000000000000000000000000000000006001600160a01b031686611bca565b600354610b5490610246906001600160801b0385165b90611c70565b5f54928315610c5257610b87610b8084610b6e818861198d565b60801b6001600160801b039091161790565b8095611c70565b5f556001600160a01b038116600203610bf4575050610bcc6102107f98742f24b32588ba36de8bae553846319fdc5b703def3876f94d1ea44d13575e93600154611c70565b600354610be85f549260015460045490604051958695866114cb565b0390a15b6100206117d5565b90610c2e91610c2961031b7f4eaf8b4d93b127ef701a9fe9b93a91d6c7d003aa2535cea4ee0cbd422cd375cb96600254611c70565b611c85565b600354610c4a5f549260025460045490604051958695866114cb565b0390a1610bec565b610b87610b808480610b6e565b507f00000000000000000000000000000000000000000000000000000000000000006001600160a01b0316331415610af5565b3461011757602036600319011261011757600435610caf8161011b565b6006546001600160a01b0316330361011757604051636ada784760e01b81526020816004817347b600d9127a473e45b693a7badd9f4d929d5b765afa80156105dd57610d02915f91610eb2575b5061161c565b604051629032ff60e51b81529060208260048173320f3aab9405e38b955178bbe75c477decba0c275afa9182156105dd575f92610e91575b50604051637eb6744f60e11b8152906020826004817347b600d9127a473e45b693a7badd9f4d929d5b765afa80156105dd57610dee93610d9f610da4926020955f91610e74575b506001600160801b03851692610d9890849061167c565b1115611689565b6119f3565b600354610dc59061024690608084901b6001600160801b0385161790611cfa565b6040516321a3781f60e11b81526001600160801b03909116600482015291829081906024820190565b03815f516020611dc45f395f51905f525afa80156105dd57610e51915f91610e55575b506003546040519081527f08de5306b0e0e53b162e3e26b9db564392ed26f49857e4c092278c7a5ef1dccf90602090a16040519081529081906020820190565b0390f35b610e6e915060203d6020116106375761062981836114fd565b5f610e11565b610e8b9150863d88116106375761062981836114fd565b5f610d81565b610eab91925060203d6020116106375761062981836114fd565b905f610d3a565b610ecb915060203d602011610608576105fb81836114fd565b5f610cfc565b34610117575f3660031901126101175760205f54604051908152f35b3461011757602036600319011261011757600435610f0a81610106565b6005546001600160a01b0316330361011757600680546001600160a01b0319166001600160a01b0392909216919091179055005b3461011757602036600319011261011757600435610f5b8161011b565b6006546001600160a01b0316330361011757610f7861069661157b565b60405162fc45dd60e61b8152600481018290526001600160a01b037f000000000000000000000000000000000000000000000000000000000000000016919060a081602481865afa9081156105dd575f91611229575b506060015160801c6111df57505f5b6001600160801b03838116911681101580611152575b610ffd91506114f6565b6110106107d1600454610b4e8560801b90565b5f516020611dc45f395f51905f523b156101175760405163095ea7b360e01b81526001600160a01b03821660048201526001600160801b0383166024820152905f82604481835f516020611dc45f395f51905f525af19081156105dd575f936020936110d793611138575b5060405194858094819363f878e80960e01b83526004830160e0915f516020611dc45f395f51905f5282525f602083015260018060801b0316604082015260a060608201525f60a082015260c060808201525f60c08201520190565b03925af180156105dd5761111b575b6004546040519081527f1aabc5bac43d0320859dde3d2ff7ff75d8e57946f27d1bb12bcb59eb7079979b9080602081016105aa565b6111339060203d602011610608576105fb81836114fd565b6110e6565b806111468761114c936114fd565b806103ef565b5f61107b565b506040516370a0823160e01b8152306004820152906020826024815f516020611dc45f395f51905f525afa9182156105dd576102346111a8610ffd946111b9935f916111c0575b506001600160801b03166116f5565b600a6001600160801b039091160490565b1015610ff3565b6111d9915060203d6020116106375761062981836114fd565b5f611199565b60405162fc45dd60e61b8152600481019190915260a081602481855afa9081156105dd5761121f6060611224936111a8935f916108455750015160801c90565b6116d5565b610fdd565b611242915060a03d60a01161086d5761085f81836114fd565b5f610fce565b3461011757602036600319011261011757600654600435906001600160a01b031633036101175761127a811515611715565b6040516370a0823160e01b81523060048201526020816024815f516020611dc45f395f51905f525afa9081156105dd576112bf9183915f91611461575b501015611761565b604051638b32fa2360e01b8152600481018290526020816024815f516020611dc45f395f51905f525afa9081156105dd575f91611442575b506003546001600160801b0391909116919060801c9061135b6107d1611334600454946113248660801c90565b60018060801b03169060801b1790565b9361024061135461134e60018060801b038716809861198d565b886114b2565b9560801b90565b5f516020611dc45f395f51905f523b1561011757604051630852cd8d60e31b815260048101919091525f81602481835f516020611dc45f395f51905f525af180156105dd577f09ce91f9bf23e98bbffef1ed1b2a12d913606db577b6fabf9a81cb368f7900f2936113ea926102469261142e575b5060035490608081901b6001600160801b03909116176107cb565b5f546113ff906001600160801b038316610b4e565b5f8190556003546040805191825260208201929092526001600160801b039092169082015280606081016105aa565b806111465f61143c936114fd565b5f6113cf565b61145b915060203d6020116106375761062981836114fd565b5f6112f7565b61147a915060203d6020116106375761062981836114fd565b5f6112b7565b634e487b7160e01b5f52601160045260245ffd5b6001600160801b0391821690821601919082116114ad57565b611480565b6001600160801b0391821690821603919082116114ad57565b93909594919260809360a08601978652602086015260408501526060840152600180831b0316910152565b1561011757565b90601f8019910116810190811067ffffffffffffffff82111761151f57604052565b634e487b7160e01b5f52604160045260245ffd5b90816020910312610117575190565b6040513d5f823e3d90fd5b90816020910312610117575180151581036101175790565b9190826040910312610117576020825192015190565b6040519061158a6060836114fd565b565b908160a0910312610117576040519060a082019082821067ffffffffffffffff83111761151f5760809160405280516115c481610106565b835260208101516115d481610106565b602084015260408101516040840152606081015160608401520151608082015290565b919082604091031261011757602082516116108161011b565b9201516101518161011b565b1561162357565b60405162461bcd60e51b815260206004820152602b60248201527f526f636b657420506f6f6c206465706f73697473206172652063757272656e7460448201526a1b1e48191a5cd8589b195960aa1b6064820152608490fd5b919082018092116114ad57565b1561169057565b60405162461bcd60e51b815260206004820152601a60248201527f4465706f73697420706f6f6c2073697a652065786365656465640000000000006044820152606490fd5b60011b6002600160801b03811691906002600160811b031682036114ad57565b60031b6008600160801b03811691906008600160831b031682036114ad57565b1561171c57565b60405162461bcd60e51b815260206004820152601d60248201527f416d6f756e74206d7573742062652067726561746572207468616e20300000006044820152606490fd5b1561176857565b60405162461bcd60e51b8152602060048201526019602482015278496e73756666696369656e7420724554482062616c616e636560381b6044820152606490fd5b7f523e899a52e7d85e90429d2280f7c0d23bfc8046b66a4a172cc67f2f9a8f85fc6020604051348152a1565b5f5f516020611da45f395f51905f525d565b60018060a01b0316600381149081156117fe575090565b600291501490565b6040516370a0823160e01b81523060048201526020816024815f516020611dc45f395f51905f525afa9081156105dd57611860610234611889936020935f91611970575b5061185a61023460045460801c90565b9061167c565b604051638b32fa2360e01b81526001600160801b03909116600482015291829081906024820190565b03815f516020611dc45f395f51905f525afa80156105dd57611928915f91611951575b50600354906001600160801b0316608082901c808210611942576118d661024691611917936114b2565b925b6040516001600160801b03851681527f0d656c7b449fe8ae42410e65df0ef295c8eefa404d39bdc6d4533285b8a4531890602090a1610b4e8460801b90565b5f54906001600160801b0316610b4e565b5f5561158a6107d161193c60045460801c90565b60801b90565b50506119176102465f926118d8565b61196a915060203d6020116106375761062981836114fd565b5f6118ac565b6119879150843d86116106375761062981836114fd565b5f61184a565b610151916001600160801b0380831660809390931c91160204611d0b565b61015191608082901c6001600160801b03918216919092160204611d0b565b611324906119df8360801d8260801d03611d0b565b926001600160801b03908116911603611d0b565b60205f60048160405194630d0e30db60e41b825273320f3aab9405e38b955178bbe75c477decba0c275af13d15601f3d1160015f5114161716905f60605260405215611a3b57565b6379cacff160e01b5f5260045ffd5b906001600160a01b038216600314611a91575b5f60048160209360405195630d0e30db60e41b83525af13d15601f3d1160015f5114161716905f60605260405215611a3b57565b73dcad3a6d3569df655070ded06cb7a1b2ccd1d3af9150611a5d565b919091611ab981611d2a565b15611ae357505f80808093611ace955af11590565b611ad457565b633c9fd93960e21b5f5260045ffd5b6001600160a01b038116600303611b13575061158a9173dcad3a6d3569df655070ded06cb7a1b2ccd1d3af611aad565b60445f8080936020956040519763a9059cbb60e01b84526004526024525af13d15601f3d1160015f5114161716905f60605260405261158a57633c9fd93960e21b5f5260045ffd5b6040805182516001600160a01b03908116602080840191825285015182168385015293909201519091166060808301919091528152611b9b6080826114fd565b51902090565b61132490611bb68360801d8260801d03611d0b565b926001600160801b03918216911601611d0b565b929190611bd684611d2a565b15611bfc57505f809350809281925af115611bed57565b633607a14f60e11b5f5260045ffd5b6001600160a01b038416600303611c175761158a9350611d42565b6040516323b872dd60e01b81526001600160a01b0391821660048201529116602482015260448101919091526020915f9160649183905af13d15601f3d1160015f511416171661158a57633c9fd93960e21b5f5260045ffd5b61132490611bb68360801d8260801d01611d0b565b6001600160a01b0316600314611c985750565b73dcad3a6d3569df655070ded06cb7a1b2ccd1d3af3b156101175760405190632e1a7d4d60e01b825260048201525f816024818373dcad3a6d3569df655070ded06cb7a1b2ccd1d3af5af180156105dd57611cf05750565b5f61158a916114fd565b611324906119df8360801d8260801d015b6001600160801b038111611d25576001600160801b031690565b505f90565b6001600160a01b0316600181149081156117fe575090565b6040516323b872dd60e01b81526001600160a01b0391821660048201529116602482015260448101919091526020905f906064908273dcad3a6d3569df655070ded06cb7a1b2ccd1d3af5af13d15601f3d1160015f511416171615611ad45756fee8b57f2a24cc49561abc37cc14eb27f7e291d1ac82b5f173f246cc4b4de014510000000000000000000000007322c24752f79c05ffd1e2a6fcb97020c1c264f1a2646970667358221220fe9e1bda1b36ee5aa709fc50bb9213b954a7af7c9c944c50026d07917bdc94f364736f6c634300081d0033","linkReferences":{}},"methodIdentifiers":{"changeManager(address)":"a3fbbaae","collectTTSReward()":"384e54b5","divest(uint128)":"4fbda438","invest(uint128)":"baeb91ae","rethStaking()":"6cd837af","sethState()":"3f9958f2","stakeEth(address,uint128)":"8efa0487","stakeRocketPoolETH(uint128)":"9bd74e1d","swethState()":"61a5192c","syncReward(address)":"8c706eb5","totalStake()":"8b0e9f3f","totalState()":"9f58a561","unstakeEthSome(address,uint128)":"0c408b16","unstakeRocketPoolETH(uint256)":"faec944f"},"id":48}