{"abi":[{"type":"constructor","inputs":[{"name":"_usdt","type":"address","internalType":"address"},{"name":"_dao_admin","type":"address","internalType":"address"},{"name":"_ttsconfig","type":"uint256","internalType":"uint256"}],"stateMutability":"nonpayable"},{"type":"function","name":"DOMAIN_SEPARATOR","inputs":[],"outputs":[{"name":"","type":"bytes32","internalType":"bytes32"}],"stateMutability":"view"},{"type":"function","name":"addShare","inputs":[{"name":"_share","type":"tuple","internalType":"struct s_share","components":[{"name":"recipient","type":"address","internalType":"address"},{"name":"leftamount","type":"uint128","internalType":"uint128"},{"name":"metric","type":"uint120","internalType":"uint120"},{"name":"chips","type":"uint8","internalType":"uint8"}]}],"outputs":[],"stateMutability":"nonpayable"},{"type":"function","name":"addauths","inputs":[{"name":"_auths","type":"address","internalType":"address"},{"name":"_priv","type":"uint256","internalType":"uint256"}],"outputs":[],"stateMutability":"nonpayable"},{"type":"function","name":"addreferral","inputs":[{"name":"user","type":"address","internalType":"address"},{"name":"referral","type":"address","internalType":"address"}],"outputs":[],"stateMutability":"nonpayable"},{"type":"function","name":"allowance","inputs":[{"name":"owner","type":"address","internalType":"address"},{"name":"spender","type":"address","internalType":"address"}],"outputs":[{"name":"","type":"uint256","internalType":"uint256"}],"stateMutability":"view"},{"type":"function","name":"approve","inputs":[{"name":"spender","type":"address","internalType":"address"},{"name":"amount","type":"uint256","internalType":"uint256"}],"outputs":[{"name":"","type":"bool","internalType":"bool"}],"stateMutability":"nonpayable"},{"type":"function","name":"auths","inputs":[{"name":"","type":"address","internalType":"address"}],"outputs":[{"name":"","type":"uint256","internalType":"uint256"}],"stateMutability":"view"},{"type":"function","name":"balanceOf","inputs":[{"name":"account","type":"address","internalType":"address"}],"outputs":[{"name":"","type":"uint256","internalType":"uint256"}],"stateMutability":"view"},{"type":"function","name":"burn","inputs":[{"name":"account","type":"address","internalType":"address"},{"name":"value","type":"uint256","internalType":"uint256"}],"outputs":[],"stateMutability":"nonpayable"},{"type":"function","name":"burnShare","inputs":[{"name":"index","type":"uint8","internalType":"uint8"}],"outputs":[],"stateMutability":"nonpayable"},{"type":"function","name":"chain_deposit","inputs":[{"name":"chainid","type":"uint32","internalType":"uint32"},{"name":"asset","type":"uint128","internalType":"uint128"}],"outputs":[],"stateMutability":"nonpayable"},{"type":"function","name":"chain_withdraw","inputs":[{"name":"chainid","type":"uint32","internalType":"uint32"},{"name":"asset","type":"uint128","internalType":"uint128"}],"outputs":[],"stateMutability":"nonpayable"},{"type":"function","name":"chainindex","inputs":[],"outputs":[{"name":"","type":"uint32","internalType":"uint32"}],"stateMutability":"view"},{"type":"function","name":"chains","inputs":[{"name":"","type":"uint32","internalType":"uint32"}],"outputs":[{"name":"asset","type":"uint256","internalType":"uint256"},{"name":"proofstate","type":"uint256","internalType":"uint256"},{"name":"recipient","type":"address","internalType":"address"}],"stateMutability":"view"},{"type":"function","name":"changeDAOAdmin","inputs":[{"name":"_recipient","type":"address","internalType":"address"}],"outputs":[],"stateMutability":"nonpayable"},{"type":"function","name":"dao_admin","inputs":[],"outputs":[{"name":"","type":"address","internalType":"address"}],"stateMutability":"view"},{"type":"function","name":"decimals","inputs":[],"outputs":[{"name":"","type":"uint8","internalType":"uint8"}],"stateMutability":"pure"},{"type":"function","name":"decreaseAllowance","inputs":[{"name":"spender","type":"address","internalType":"address"},{"name":"subtractedValue","type":"uint256","internalType":"uint256"}],"outputs":[{"name":"","type":"bool","internalType":"bool"}],"stateMutability":"nonpayable"},{"type":"function","name":"eip712Domain","inputs":[],"outputs":[{"name":"fields","type":"bytes1","internalType":"bytes1"},{"name":"name","type":"string","internalType":"string"},{"name":"version","type":"string","internalType":"string"},{"name":"chainId","type":"uint256","internalType":"uint256"},{"name":"verifyingContract","type":"address","internalType":"address"},{"name":"salt","type":"bytes32","internalType":"bytes32"},{"name":"extensions","type":"uint256[]","internalType":"uint256[]"}],"stateMutability":"view"},{"type":"function","name":"getreferralanddaoadmin","inputs":[{"name":"_customer","type":"address","internalType":"address"}],"outputs":[{"name":"","type":"address","internalType":"address"},{"name":"","type":"address","internalType":"address"}],"stateMutability":"view"},{"type":"function","name":"increaseAllowance","inputs":[{"name":"spender","type":"address","internalType":"address"},{"name":"addedValue","type":"uint256","internalType":"uint256"}],"outputs":[{"name":"","type":"bool","internalType":"bool"}],"stateMutability":"nonpayable"},{"type":"function","name":"left_share","inputs":[],"outputs":[{"name":"","type":"uint128","internalType":"uint128"}],"stateMutability":"view"},{"type":"function","name":"marketcontract","inputs":[],"outputs":[{"name":"","type":"address","internalType":"address"}],"stateMutability":"view"},{"type":"function","name":"name","inputs":[],"outputs":[{"name":"","type":"string","internalType":"string"}],"stateMutability":"view"},{"type":"function","name":"nonces","inputs":[{"name":"owner","type":"address","internalType":"address"}],"outputs":[{"name":"","type":"uint256","internalType":"uint256"}],"stateMutability":"view"},{"type":"function","name":"normalgoodid","inputs":[],"outputs":[{"name":"","type":"address","internalType":"address"}],"stateMutability":"view"},{"type":"function","name":"permit","inputs":[{"name":"owner","type":"address","internalType":"address"},{"name":"spender","type":"address","internalType":"address"},{"name":"value","type":"uint256","internalType":"uint256"},{"name":"deadline","type":"uint256","internalType":"uint256"},{"name":"v","type":"uint8","internalType":"uint8"},{"name":"r","type":"bytes32","internalType":"bytes32"},{"name":"s","type":"bytes32","internalType":"bytes32"}],"outputs":[],"stateMutability":"nonpayable"},{"type":"function","name":"poolstate","inputs":[],"outputs":[{"name":"","type":"uint256","internalType":"uint256"}],"stateMutability":"view"},{"type":"function","name":"public_Sell","inputs":[{"name":"usdtamount","type":"uint256","internalType":"uint256"}],"outputs":[],"stateMutability":"nonpayable"},{"type":"function","name":"publicsell","inputs":[],"outputs":[{"name":"","type":"uint128","internalType":"uint128"}],"stateMutability":"view"},{"type":"function","name":"referrals","inputs":[{"name":"","type":"address","internalType":"address"}],"outputs":[{"name":"","type":"address","internalType":"address"}],"stateMutability":"view"},{"type":"function","name":"rmauths","inputs":[{"name":"_auths","type":"address","internalType":"address"}],"outputs":[],"stateMutability":"nonpayable"},{"type":"function","name":"setEnv","inputs":[{"name":"_normalgoodid","type":"address","internalType":"address"},{"name":"_valuegoodid","type":"address","internalType":"address"},{"name":"_marketcontract","type":"address","internalType":"address"}],"outputs":[],"stateMutability":"nonpayable"},{"type":"function","name":"shareMint","inputs":[{"name":"index","type":"uint8","internalType":"uint8"}],"outputs":[],"stateMutability":"nonpayable"},{"type":"function","name":"shares_index","inputs":[],"outputs":[{"name":"","type":"uint32","internalType":"uint32"}],"stateMutability":"view"},{"type":"function","name":"stake","inputs":[{"name":"_staker","type":"address","internalType":"address"},{"name":"proofvalue","type":"uint128","internalType":"uint128"}],"outputs":[{"name":"netconstruct","type":"uint128","internalType":"uint128"}],"stateMutability":"nonpayable"},{"type":"function","name":"stakeproof","inputs":[{"name":"","type":"uint256","internalType":"uint256"}],"outputs":[{"name":"fromcontract","type":"address","internalType":"address"},{"name":"proofstate","type":"uint256","internalType":"uint256"}],"stateMutability":"view"},{"type":"function","name":"stakestate","inputs":[],"outputs":[{"name":"","type":"uint256","internalType":"uint256"}],"stateMutability":"view"},{"type":"function","name":"subchainDeposit","inputs":[{"name":"asset","type":"uint128","internalType":"uint128"},{"name":"recipient","type":"address","internalType":"address"}],"outputs":[],"stateMutability":"nonpayable"},{"type":"function","name":"subchainWithdraw","inputs":[{"name":"asset","type":"uint128","internalType":"uint128"},{"name":"recipient","type":"address","internalType":"address"}],"outputs":[],"stateMutability":"nonpayable"},{"type":"function","name":"symbol","inputs":[],"outputs":[{"name":"","type":"string","internalType":"string"}],"stateMutability":"view"},{"type":"function","name":"syncChainStake","inputs":[{"name":"chainid","type":"uint32","internalType":"uint32"},{"name":"chainvalue","type":"uint128","internalType":"uint128"}],"outputs":[{"name":"poolasset","type":"uint128","internalType":"uint128"}],"stateMutability":"nonpayable"},{"type":"function","name":"syncPoolAsset","inputs":[{"name":"amount","type":"uint128","internalType":"uint128"}],"outputs":[],"stateMutability":"nonpayable"},{"type":"function","name":"totalSupply","inputs":[],"outputs":[{"name":"","type":"uint256","internalType":"uint256"}],"stateMutability":"view"},{"type":"function","name":"transfer","inputs":[{"name":"to","type":"address","internalType":"address"},{"name":"amount","type":"uint256","internalType":"uint256"}],"outputs":[{"name":"","type":"bool","internalType":"bool"}],"stateMutability":"nonpayable"},{"type":"function","name":"transferFrom","inputs":[{"name":"from","type":"address","internalType":"address"},{"name":"to","type":"address","internalType":"address"},{"name":"amount","type":"uint256","internalType":"uint256"}],"outputs":[{"name":"","type":"bool","internalType":"bool"}],"stateMutability":"nonpayable"},{"type":"function","name":"ttstokenconfig","inputs":[],"outputs":[{"name":"","type":"uint256","internalType":"uint256"}],"stateMutability":"view"},{"type":"function","name":"unstake","inputs":[{"name":"_staker","type":"address","internalType":"address"},{"name":"proofvalue","type":"uint128","internalType":"uint128"}],"outputs":[],"stateMutability":"nonpayable"},{"type":"function","name":"usdt","inputs":[],"outputs":[{"name":"","type":"address","internalType":"address"}],"stateMutability":"view"},{"type":"function","name":"valuegoodid","inputs":[],"outputs":[{"name":"","type":"address","internalType":"address"}],"stateMutability":"view"},{"type":"function","name":"withdrawPublicSell","inputs":[{"name":"amount","type":"uint256","internalType":"uint256"},{"name":"recipient","type":"address","internalType":"address"}],"outputs":[],"stateMutability":"nonpayable"},{"type":"event","name":"Approval","inputs":[{"name":"owner","type":"address","indexed":true,"internalType":"address"},{"name":"spender","type":"address","indexed":true,"internalType":"address"},{"name":"value","type":"uint256","indexed":false,"internalType":"uint256"}],"anonymous":false},{"type":"event","name":"EIP712DomainChanged","inputs":[],"anonymous":false},{"type":"event","name":"Transfer","inputs":[{"name":"from","type":"address","indexed":true,"internalType":"address"},{"name":"to","type":"address","indexed":true,"internalType":"address"},{"name":"value","type":"uint256","indexed":false,"internalType":"uint256"}],"anonymous":false},{"type":"event","name":"e_addShare","inputs":[{"name":"recipient","type":"address","indexed":false,"internalType":"address"},{"name":"leftamount","type":"uint256","indexed":false,"internalType":"uint256"},{"name":"metric","type":"uint120","indexed":false,"internalType":"uint120"},{"name":"chips","type":"uint8","indexed":false,"internalType":"uint8"},{"name":"index","type":"uint32","indexed":false,"internalType":"uint32"}],"anonymous":false},{"type":"event","name":"e_addauths","inputs":[{"name":"auths","type":"address","indexed":false,"internalType":"address"},{"name":"priv","type":"uint256","indexed":false,"internalType":"uint256"}],"anonymous":false},{"type":"event","name":"e_addreferral","inputs":[{"name":"users","type":"address","indexed":false,"internalType":"address"},{"name":"referral","type":"address","indexed":false,"internalType":"address"}],"anonymous":false},{"type":"event","name":"e_burnShare","inputs":[{"name":"index","type":"uint32","indexed":false,"internalType":"uint32"}],"anonymous":false},{"type":"event","name":"e_publicsell","inputs":[{"name":"usdtamount","type":"uint256","indexed":false,"internalType":"uint256"},{"name":"ttsamount","type":"uint256","indexed":false,"internalType":"uint256"}],"anonymous":false},{"type":"event","name":"e_rmauths","inputs":[{"name":"auths","type":"address","indexed":false,"internalType":"address"}],"anonymous":false},{"type":"event","name":"e_setdaoadmin","inputs":[{"name":"recipient","type":"address","indexed":false,"internalType":"address"}],"anonymous":false},{"type":"event","name":"e_setenv","inputs":[{"name":"normalgoodid","type":"address","indexed":false,"internalType":"address"},{"name":"valuegoodid","type":"address","indexed":false,"internalType":"address"},{"name":"marketcontract","type":"address","indexed":false,"internalType":"address"}],"anonymous":false},{"type":"event","name":"e_shareMint","inputs":[{"name":"mintamount","type":"uint128","indexed":false,"internalType":"uint128"},{"name":"index","type":"uint32","indexed":false,"internalType":"uint32"}],"anonymous":false},{"type":"event","name":"e_syncChainStake","inputs":[{"name":"chain","type":"uint32","indexed":false,"internalType":"uint32"},{"name":"poolasset","type":"uint128","indexed":false,"internalType":"uint128"},{"name":"proofstate","type":"uint256","indexed":false,"internalType":"uint256"}],"anonymous":false},{"type":"event","name":"e_unstake","inputs":[{"name":"recipient","type":"address","indexed":false,"internalType":"address"},{"name":"proofvalue","type":"uint256","indexed":false,"internalType":"uint256"},{"name":"unstakestate","type":"uint256","indexed":false,"internalType":"uint256"},{"name":"stakestate","type":"uint256","indexed":false,"internalType":"uint256"},{"name":"poolstate","type":"uint256","indexed":false,"internalType":"uint256"}],"anonymous":false},{"type":"event","name":"e_updatepool","inputs":[{"name":"poolstate","type":"uint256","indexed":false,"internalType":"uint256"}],"anonymous":false},{"type":"error","name":"InvalidShortString","inputs":[]},{"type":"error","name":"StringTooLong","inputs":[{"name":"str","type":"string","internalType":"string"}]}],"bytecode":{"object":"0x610180604052601380546001600160801b0319166601c6bf52634000179055348015610029575f80fd5b5060405161394a38038061394a83398101604081905261004891610274565b6040518060400160405280600c81526020016b2a2a29bbb0b8102a37b5b2b760a11b81525080604051806040016040528060018152602001603160f81b8152506040518060400160405280600c81526020016b2a2a29bbb0b8102a37b5b2b760a11b8152506040518060400160405280600381526020016254545360e81b81525081600390816100d89190610345565b5060046100e58282610345565b506100f5915083905060056101e1565b610120526101048160066101e1565b61014052815160208084019190912060e052815190820120610100524660a05261019060e05161010051604080517f8b73c3c69bb8fe3d512ecc4cf759cc79239f7b179b0ffacaa9a75d522b39400f60208201529081019290925260608201524660808201523060a08201525f9060c00160405160208183030381529060405280519060200120905090565b60809081523060c0526001600160a01b0387166101605242901b92506101b4915050565b600b55601180546001600160a01b0319166001600160a01b03939093169290921790915560095550610457565b5f6020835110156101fc576101f583610213565b905061020d565b816102078482610345565b5060ff90505b92915050565b5f80829050601f81511115610246578260405163305a27a960e01b815260040161023d91906103ff565b60405180910390fd5b805161025182610434565b179392505050565b80516001600160a01b038116811461026f575f80fd5b919050565b5f805f60608486031215610286575f80fd5b61028f84610259565b925061029d60208501610259565b9150604084015190509250925092565b634e487b7160e01b5f52604160045260245ffd5b600181811c908216806102d557607f821691505b6020821081036102f357634e487b7160e01b5f52602260045260245ffd5b50919050565b601f82111561034057805f5260205f20601f840160051c8101602085101561031e5750805b601f840160051c820191505b8181101561033d575f815560010161032a565b50505b505050565b81516001600160401b0381111561035e5761035e6102ad565b6103728161036c84546102c1565b846102f9565b6020601f8211600181146103a4575f831561038d5750848201515b5f19600385901b1c1916600184901b17845561033d565b5f84815260208120601f198516915b828110156103d357878501518255602094850194600190920191016103b3565b50848210156103f057868401515f19600387901b60f8161c191681555b50505050600190811b01905550565b602081525f82518060208401528060208501604085015e5f604082850101526040601f19601f83011684010191505092915050565b805160208083015191908110156102f3575f1960209190910360031b1b16919050565b60805160a05160c05160e0516101005161012051610140516101605161348a6104c05f395f818161047d0152818161126d0152611f2b01525f6117b901525f61178e01525f6128bd01525f61289501525f6127f001525f61281a01525f612844015261348a5ff3fe608060405234801561000f575f80fd5b5060043610610330575f3560e01c806370a08231116101b3578063a9059cbb116100f3578063dd62ed3e1161009e578063e7b43e7d11610079578063e7b43e7d14610837578063eca93cce1461084a578063f35da4621461085d578063fa82add514610870575f80fd5b8063dd62ed3e146107d2578063de5712d41461080a578063df87654814610824575f80fd5b8063cae97640116100ce578063cae97640146107a3578063cd993b11146107ac578063d505accf146107bf575f80fd5b8063a9059cbb1461072a578063b88e6d631461073d578063c3bb7fff14610790575f80fd5b80638b203dd41161015e5780639ca423b3116101395780639ca423b3146106c95780639dc29fac146106f1578063a457c2d714610704578063a538e6a914610717575f80fd5b80638b203dd4146106535780639241bda6146106ae57806395d89b41146106c1575f80fd5b80638378e5631161018e5780638378e56314610603578063845fcee41461062f57806384b0196e14610638575f80fd5b806370a08231146105b55780637bd3ca35146105dd5780637ecebe00146105f0575f80fd5b8063313ce5671161027e57806347036e751161022957806364e72dbd1161020457806364e72dbd14610544578063696bb4ad1461056357806369a5ac321461058f5780636c0deba1146105a2575f80fd5b806347036e7514610515578063542128dd14610528578063623059a51461053b575f80fd5b80633b107e21116102595780633b107e21146104dc5780633cba316b146104ef57806345fda70714610502575f80fd5b8063313ce567146104b25780633644e515146104c157806339509351146104c9575f80fd5b806318160ddd116102de5780632bf960da116102b95780632bf960da146104655780632f48ab7d1461047857806330fd6b291461049f575f80fd5b806318160ddd1461041557806319f8d5b41461042757806323b872dd14610452575f80fd5b806306fdde031161030e57806306fdde03146103ca578063095ea7b3146103df5780630a4273e614610402575f80fd5b806301bddf1b1461033457806302517e8b1461034957806306afa12a14610379575b5f80fd5b610347610342366004612d29565b610883565b005b600f5461035c906001600160a01b031681565b6040516001600160a01b0390911681526020015b60405180910390f35b6103ab610387366004612d5e565b600d6020525f9081526040902080546001909101546001600160a01b039091169082565b604080516001600160a01b039093168352602083019190915201610370565b6103d2610947565b6040516103709190612da3565b6103f26103ed366004612dc9565b6109d7565b6040519015158152602001610370565b610347610410366004612df3565b6109f0565b6002545b604051908152602001610370565b61043a610435366004612e1f565b610a35565b6040516001600160801b039091168152602001610370565b6103f2610460366004612e3b565b610b64565b60125461035c906001600160a01b031681565b61035c7f000000000000000000000000000000000000000000000000000000000000000081565b61043a6104ad366004612d29565b610b87565b60405160068152602001610370565b610419610f03565b6103f26104d7366004612dc9565b610f11565b6103476104ea366004612e79565b610f4f565b6103476104fd366004612e92565b61113d565b60135461043a906001600160801b031681565b610347610523366004612d5e565b6111aa565b610347610536366004612dc9565b61141e565b61041960095481565b610419610552366004612e92565b60156020525f908152604090205481565b60125461057a90600160a01b900463ffffffff1681565b60405163ffffffff9091168152602001610370565b61034761059d366004612e92565b61148d565b6103476105b0366004612ead565b6114f7565b6104196105c3366004612e92565b6001600160a01b03165f9081526020819052604090205490565b6103476105eb366004612e1f565b61153c565b6104196105fe366004612e92565b611764565b60125461057a907801000000000000000000000000000000000000000000000000900463ffffffff1681565b610419600c5481565b610640611781565b6040516103709796959493929190612ec8565b61068a610661366004612f5e565b600e6020525f90815260409020805460018201546002909201549091906001600160a01b031683565b6040805193845260208401929092526001600160a01b031690820152606001610370565b6103476106bc366004612f85565b611808565b6103d26118fe565b61035c6106d7366004612e92565b60146020525f90815260409020546001600160a01b031681565b6103476106ff366004612dc9565b61190d565b6103f2610712366004612dc9565b611917565b60115461035c906001600160a01b031681565b6103f2610738366004612dc9565b6119c5565b61077061074b366004612e92565b6011546001600160a01b039182165f9081526014602052604090205490821692911690565b604080516001600160a01b03938416815292909116602083015201610370565b61034761079e366004612d29565b6119d2565b610419600b5481565b6103476107ba366004612df3565b611aa9565b6103476107cd366004612fa0565b611aea565b6104196107e036600461300c565b6001600160a01b039182165f90815260016020908152604080832093909416825291909152205490565b60135461043a90600160801b90046001600160801b031681565b610347610832366004612f85565b611c4b565b610347610845366004613028565b611ed3565b61034761085836600461300c565b611f9a565b60105461035c906001600160a01b031681565b61034761087e36600461304b565b612055565b61088e6009546120f8565b610896575f80fd5b335f9081526015602052604090205460061480156108fb575063ffffffff82165f908152600e60205260409020600201546001600160a01b03163314806108fb575063ffffffff82165f908152600e60205260409020600201546001600160a01b0316155b610903575f80fd5b63ffffffff82165f908152600e602052604090205461092b90608083901b612116565b612116565b63ffffffff9092165f908152600e602052604090209190915550565b60606003805461095690613093565b80601f016020809104026020016040519081016040528092919081815260200182805461098290613093565b80156109cd5780601f106109a4576101008083540402835291602001916109cd565b820191905f5260205f20905b8154815290600101906020018083116109b057829003601f168201915b5050505050905090565b5f336109e481858561214e565b60019150505b92915050565b6109fb6009546120f8565b15610a04575f80fd5b335f90815260156020526040902054600614610a1e575f80fd5b610a3181836001600160801b0316612271565b5050565b335f90815260156020526040812054600114610a4f575f80fd5b610a576123a1565b604080516001600160a01b038516602080830191909152338284015282518083038401815260609092019092528051910120600c546001600160801b031615610ad557610ad0610aa6600c5490565b6001600160801b0316846001600160801b0316610ac2600b5490565b6001600160801b031661248f565b610ad7565b5f5b600c54909250610af6906001600160801b038416608085901b176124a0565b600c55600b54610b0f906001600160801b0385166124a0565b600b555f818152600d6020526040902080546001600160a01b0319163317815560010154610b4c90608085901b6001600160801b038516176124a0565b5f918252600d60205260409091206001015592915050565b5f33610b718582856124c6565b610b7c858585612556565b506001949350505050565b5f610b936009546120f8565b610b9b575f80fd5b335f908152601560205260409020546006148015610c00575063ffffffff83165f908152600e60205260409020600201546001600160a01b0316331480610c00575063ffffffff83165f908152600e60205260409020600201546001600160a01b0316155b610c08575f80fd5b5f8363ffffffff165f03610cf6576001601260188282829054906101000a900463ffffffff16610c3891906130d9565b92506101000a81548163ffffffff021916908363ffffffff160217905550601260189054906101000a900463ffffffff169350610c7a610aa6600c5460801c90565b600c54909150610c99906001600160801b038316608084901b176124a0565b600c55600b54610cb2906001600160801b0385166124a0565b600b5563ffffffff84165f908152600e602052604090206001600160801b038216608085901b17600182015560020180546001600160a01b03191633179055610e9b565b610d3f610d05600c5460801c90565b63ffffffff86165f908152600e60205260409020600101546001600160801b03919091169060801c6001600160801b0316610ac2600b5490565b600c5463ffffffff86165f908152600e6020526040902060010154919350610d7b916109269085905b6001600160801b031660809190911b1790565b600c55600b5463ffffffff85165f908152600e6020526040812060010154610daa92916109269160801c610d68565b600b5563ffffffff84165f908152600e602052604090206001015460801c610dd290836130f5565b9150610de3610aa6600c5460801c90565b600c54909150610e02906001600160801b038316608084901b176124a0565b600c55600b54610e1b906001600160801b0385166124a0565b600b556001600160801b038116608084901b1763ffffffff85165f908152600e60205260409020600181019190915554610e64906001600160801b038416608085901b176124a0565b63ffffffff85165f908152600e6020526040902090815560020154610e9b906001600160a01b03166001600160801b038416612727565b63ffffffff84165f818152600e60209081526040918290206001015482519384526001600160801b0386169184019190915282820152517f2dbd6c60950a71a3b42582ce495af627a70477170cea6ce5bbd4017f3e9308929181900360600190a15092915050565b5f610f0c6127e4565b905090565b335f8181526001602090815260408083206001600160a01b03871684529091528120549091906109e49082908690610f4a908790613114565b61214e565b610f5a6009546120f8565b610f62575f80fd5b5f610f736040830160208401612ead565b601354610f8991906001600160801b03166130f5565b6001600160801b031610158015610fb357506011546001600160a01b0316336001600160a01b0316145b610fbb575f80fd5b610fcb6040820160208301612ead565b6013805467ffffffffffffffff92909216915f90610ff39084906001600160801b03166130f5565b92506101000a8154816001600160801b0302191690836001600160801b031602179055506001601260148282829054906101000a900463ffffffff1661103991906130d9565b82546101009290920a63ffffffff818102199093169183160217909155601254600160a01b9004165f908152600a6020526040902082915061107b828261313b565b507f259b626a3ac57abbad46c244a9bc2a13c0b530c618e9654be9351bd104cffcae90506110ac6020830183612e92565b6110bc6040840160208501612ead565b6110cc6060850160408601613222565b6110dc6080860160608701612f85565b601254604080516001600160a01b0390961686526001600160801b0390941660208601526001600160781b039092169284019290925260ff9091166060830152600160a01b900463ffffffff16608082015260a0015b60405180910390a150565b6011546001600160a01b0316336001600160a01b03161461115c575f80fd5b601180546001600160a01b0319166001600160a01b0383169081179091556040519081527f853baecd5c22fcf8a4d994474a066771c51cfe6022b046e92a09874610cd128190602001611132565b6111b56009546120f8565b6111bd575f80fd5b80601360108282829054906101000a90046001600160801b03166111e1919061323d565b92506101000a8154816001600160801b0302191690836001600160801b0316021790555061120d600690565b61121d9060ff16624c4b4061325c565b62ffffff16601360109054906101000a90046001600160801b03166001600160801b0316111561124b575f80fd5b6040516323b872dd60e01b8152336004820152306024820152604481018290527f00000000000000000000000000000000000000000000000000000000000000006001600160a01b0316906323b872dd906064016020604051808303815f875af11580156112bb573d5f803e3d5ffd5b505050506040513d601f19601f820116820180604052508101906112df9190613281565b1561141b575f6112f36006621ab3f061325c565b62ffffff16601360109054906101000a90046001600160801b03166001600160801b031611611343576113276005836132b4565b6113329060066132c7565b905061133e3382612727565b6113df565b61135160066231975061325c565b62ffffff16601360109054906101000a90046001600160801b03166001600160801b03161161138657508061133e3382612727565b6113946006624c4b4061325c565b62ffffff16601360109054906101000a90046001600160801b03166001600160801b0316116113df576113c86005836132b4565b6113d39060046132c7565b90506113df3382612727565b60408051838152602081018390527fcf0848d99e9b2ad96811072e657199bc9567c2cc9b614097727a852b27f5358d91015b60405180910390a1505b50565b6011546001600160a01b0316336001600160a01b03161461143d575f80fd5b6001600160a01b0382165f81815260156020908152604091829020849055815192835282018390527f967d50df84a5ebb45902fa277d5c3b0bc6403497c9fd6da2ecbd9ed420038f149101611411565b6011546001600160a01b0316336001600160a01b0316146114ac575f80fd5b6001600160a01b0381165f8181526015602090815260408083209290925590519182527f3680a8b72561b4141a1464124f40242ac80a59d51d29649d9b0b442c255b62899101611132565b6115026009546120f8565b1561150b575f80fd5b335f90815260156020526040902054600514611525575f80fd5b600c5461153690608083901b6124a0565b600c5550565b335f90815260156020526040902054600114611556575f80fd5b61155e6123a1565b604080516001600160a01b0384166020808301919091523382840152825180830384018152606090920183528151918101919091205f818152600d909252918120600101549091829160801c6001600160801b038516106115ed575f818152600d6020526040812060018101805482546001600160a01b03191690925591909155608081901c94509150611647565b5f818152600d6020526040902060010154611608908561290d565b5f828152600d6020526040902060010154909250611635906001600160801b038416608087901b17612116565b5f828152600d60205260409020600101555b6116688461166261165a600c5460801c90565b600b54610d68565b9061292f565b600b54909350611681906001600160801b038616612116565b600b55600c546116a0906001600160801b038416608086901b17612116565b600c556116ad82846130f5565b92506001600160801b038316156116d1576116d185846001600160801b0316612727565b7f62025eae57aa13c48667a44135999b1c087e0e00de741759cefa772a4eb025678561170086610d68600b5490565b6001600160801b038616608086901b175f858152600d602090815260409182902060010154600c5483516001600160a01b03909716875291860194909452908401919091526060830191909152608082015260a00160405180910390a15050505050565b6001600160a01b0381165f908152600760205260408120546109ea565b5f606080828080836117b47f00000000000000000000000000000000000000000000000000000000000000006005612957565b6117df7f00000000000000000000000000000000000000000000000000000000000000006006612957565b604080515f80825260208201909252600f60f81b9b939a50919850469750309650945092509050565b6118136009546120f8565b61181b575f80fd5b6011546001600160a01b0316336001600160a01b03161461183a575f80fd5b60ff81165f908152600a60205260408120600101546013805467ffffffffffffffff9092169290916118769084906001600160801b031661323d565b92506101000a8154816001600160801b0302191690836001600160801b031602179055507f568d364b674966bdb889933148a94e885581320f54b5d65d04bda235eea7fe48816040516118d2919060ff91909116815260200190565b60405180910390a160ff165f908152600a6020526040812080546001600160a01b031916815560010155565b60606004805461095690613093565b610a318282612271565b335f8181526001602090815260408083206001600160a01b0387168452909152812054909190838110156119b85760405162461bcd60e51b815260206004820152602560248201527f45524332303a2064656372656173656420616c6c6f77616e63652062656c6f7760448201527f207a65726f00000000000000000000000000000000000000000000000000000060648201526084015b60405180910390fd5b610b7c828686840361214e565b5f336109e4818585612556565b6119dd6009546120f8565b6119e5575f80fd5b335f908152601560205260409020546006148015611a4a575063ffffffff82165f908152600e60205260409020600201546001600160a01b0316331480611a4a575063ffffffff82165f908152600e60205260409020600201546001600160a01b0316155b611a52575f80fd5b63ffffffff82165f908152600e6020526040902054611a7590608083901b6124a0565b63ffffffff83165f908152600e602090815260408083208490553383529082905290205460809190911c1115610a31575f80fd5b611ab46009546120f8565b15611abd575f80fd5b335f90815260156020526040902054600614611ad7575f80fd5b610a3181836001600160801b0316612727565b83421115611b3a5760405162461bcd60e51b815260206004820152601d60248201527f45524332305065726d69743a206578706972656420646561646c696e6500000060448201526064016119af565b5f7f6e71edae12b1b97f4d1f60370fef10105fa2faae0126114a169c64845d6126c9888888611b688c612a00565b6040805160208101969096526001600160a01b0394851690860152929091166060840152608083015260a082015260c0810186905260e0016040516020818303038152906040528051906020012090505f611bc282612a27565b90505f611bd182878787612a53565b9050896001600160a01b0316816001600160a01b031614611c345760405162461bcd60e51b815260206004820152601e60248201527f45524332305065726d69743a20696e76616c6964207369676e6174757265000060448201526064016119af565b611c3f8a8a8a61214e565b50505050505050505050565b611c566009546120f8565b611c5e575f80fd5b601254600f5460105460ff84165f908152600a60205260409020600101546001600160a01b0393841693631412723a938116921690611cae90600160801b90046001600160781b031660026133c1565b611cbc90600160801b6132c7565b611cc790600a613114565b6040517fffffffff0000000000000000000000000000000000000000000000000000000060e086901b1681526001600160a01b0393841660048201529290911660248301526044820152606401602060405180830381865afa158015611d2f573d5f803e3d5ffd5b505050506040513d601f19601f82011682018060405250810190611d539190613281565b158015611d82575060ff81165f908152600a60205260409020546001600160a01b0316336001600160a01b0316145b611d8a575f80fd5b60ff8082165f908152600a60205260408120600101549091611dbf91600160f81b8104909116906001600160801b03166133d5565b60ff83165f908152600a6020526040812060010180549293508392909190611df19084906001600160801b03166130f5565b92506101000a8154816001600160801b0302191690836001600160801b031602179055506001600a5f8460ff1663ffffffff1681526020019081526020015f2060010160108282829054906101000a90046001600160781b0316611e559190613402565b92506101000a8154816001600160781b0302191690836001600160781b03160217905550611e92611e833390565b826001600160801b0316612727565b604080516001600160801b038316815260ff841660208201527f83592ad363894b5c4d81b2113457c5a1683230ce1c133eefa927d17f65cd5ca09101611411565b611ede6009546120f8565b611ee6575f80fd5b6011546001600160a01b0316336001600160a01b031614611f05575f80fd5b60405163a9059cbb60e01b81526001600160a01b038281166004830152602482018490527f0000000000000000000000000000000000000000000000000000000000000000169063a9059cbb906044016020604051808303815f875af1158015611f71573d5f803e3d5ffd5b505050506040513d601f19601f82011682018060405250810190611f959190613281565b505050565b335f908152601560205260409020546001148015611fcf57506001600160a01b038281165f9081526014602052604090205416155b8015611fed5750806001600160a01b0316826001600160a01b031614155b15610a31576001600160a01b038281165f8181526014602090815260409182902080546001600160a01b031916948616948517905581519283528201929092527f0b5e322b4b5330962013e8d6519462c133d50320ee476828060995c1acadef629101611411565b6011546001600160a01b0316336001600160a01b031614612074575f80fd5b600f80546001600160a01b038581166001600160a01b0319928316811790935560108054868316908416811790915560128054928616929093168217909255604080519384526020840192909252908201527fad9bacb6411ac6d3f45f8cabf2c4629890ab593e58ad9c108ffef19037ce27969060600160405180910390a1505050565b5f60ff82901c6001811461210c575f61210f565b60015b9392505050565b5f608082811d9084901d036001600160801b038381169085160361214561213c83612a79565b610d6883612a79565b95945050505050565b6001600160a01b0383166121b05760405162461bcd60e51b8152602060048201526024808201527f45524332303a20617070726f76652066726f6d20746865207a65726f206164646044820152637265737360e01b60648201526084016119af565b6001600160a01b0382166122115760405162461bcd60e51b815260206004820152602260248201527f45524332303a20617070726f766520746f20746865207a65726f206164647265604482015261737360f01b60648201526084016119af565b6001600160a01b038381165f8181526001602090815260408083209487168084529482529182902085905590518481527f8c5be1e5ebec7d5bd14f71427d1e84f3dd0314c0f7b2291e5b200ac8c7c3b925910160405180910390a3505050565b6001600160a01b0382166122d15760405162461bcd60e51b815260206004820152602160248201527f45524332303a206275726e2066726f6d20746865207a65726f206164647265736044820152607360f81b60648201526084016119af565b6001600160a01b0382165f90815260208190526040902054818110156123445760405162461bcd60e51b815260206004820152602260248201527f45524332303a206275726e20616d6f756e7420657863656564732062616c616e604482015261636560f01b60648201526084016119af565b6001600160a01b0383165f818152602081815260408083208686039055600280548790039055518581529192917fddf252ad1be2c89b69c2b068fc378daa952ba7f163c4a11628f55a4df523b3ef910160405180910390a3505050565b426123ae600b5460801c90565b6123bb906201518061323d565b6001600160801b0316101561248d57600b546123ea9072015180000000000000000000000000000000006124a0565b600b555f6123fd60066302faf080613421565b63ffffffff1661240c60025490565b1161241b5763a34ce6cb612431565b61477c61242760025490565b61243191906132b4565b600c5490915061244590608083901b6124a0565b600c55600b547f640eaa6ba71a4f457fdf8b26b0a8a0a6096d6d2bf731d07d47717534847ce55d9061247f9060801c600c5460801c610d68565b604051908152602001611132565b565b918102915f81840461214581612a79565b5f608082811d9084901d016001600160801b038381169085160161214561213c83612a79565b6001600160a01b038381165f908152600160209081526040808320938616835292905220545f19811461255057818110156125435760405162461bcd60e51b815260206004820152601d60248201527f45524332303a20696e73756666696369656e7420616c6c6f77616e636500000060448201526064016119af565b612550848484840361214e565b50505050565b6001600160a01b0383166125d25760405162461bcd60e51b815260206004820152602560248201527f45524332303a207472616e736665722066726f6d20746865207a65726f20616460448201527f647265737300000000000000000000000000000000000000000000000000000060648201526084016119af565b6001600160a01b0382166126345760405162461bcd60e51b815260206004820152602360248201527f45524332303a207472616e7366657220746f20746865207a65726f206164647260448201526265737360e81b60648201526084016119af565b6001600160a01b0383165f90815260208190526040902054818110156126c25760405162461bcd60e51b815260206004820152602660248201527f45524332303a207472616e7366657220616d6f756e742065786365656473206260448201527f616c616e6365000000000000000000000000000000000000000000000000000060648201526084016119af565b6001600160a01b038481165f81815260208181526040808320878703905593871680835291849020805487019055925185815290927fddf252ad1be2c89b69c2b068fc378daa952ba7f163c4a11628f55a4df523b3ef910160405180910390a3612550565b6001600160a01b03821661277d5760405162461bcd60e51b815260206004820152601f60248201527f45524332303a206d696e7420746f20746865207a65726f20616464726573730060448201526064016119af565b8060025f82825461278e9190613114565b90915550506001600160a01b0382165f81815260208181526040808320805486019055518481527fddf252ad1be2c89b69c2b068fc378daa952ba7f163c4a11628f55a4df523b3ef910160405180910390a35050565b5f306001600160a01b037f00000000000000000000000000000000000000000000000000000000000000001614801561283c57507f000000000000000000000000000000000000000000000000000000000000000046145b1561286657507f000000000000000000000000000000000000000000000000000000000000000090565b610f0c604080517f8b73c3c69bb8fe3d512ecc4cf759cc79239f7b179b0ffacaa9a75d522b39400f60208201527f0000000000000000000000000000000000000000000000000000000000000000918101919091527f000000000000000000000000000000000000000000000000000000000000000060608201524660808201523060a08201525f9060c00160405160208183030381529060405280519060200120905090565b5f61210f836001600160801b0316836001600160801b0316610ac28660801c90565b5f61210f61293d8460801c90565b6001600160801b0316836001600160801b0316610ac28690565b606060ff83146129715761296a83612a93565b90506109ea565b81805461297d90613093565b80601f01602080910402602001604051908101604052809291908181526020018280546129a990613093565b80156129f45780601f106129cb576101008083540402835291602001916129f4565b820191905f5260205f20905b8154815290600101906020018083116129d757829003601f168201915b505050505090506109ea565b6001600160a01b0381165f9081526007602052604090208054600181018255905b50919050565b5f6109ea612a336127e4565b8360405161190160f01b8152600281019290925260228201526042902090565b5f805f612a6287878787612ad0565b91509150612a6f81612b8d565b5095945050505050565b5f6001600160801b03821115612a8f575f6109ea565b5090565b60605f612a9f83612cd6565b6040805160208082528183019092529192505f91906020820181803683375050509182525060208101929092525090565b5f807f7fffffffffffffffffffffffffffffff5d576e7357a4501ddfe92f46681b20a0831115612b0557505f90506003612b84565b604080515f8082526020820180845289905260ff881692820192909252606081018690526080810185905260019060a0016020604051602081039080840390855afa158015612b56573d5f803e3d5ffd5b5050604051601f1901519150506001600160a01b038116612b7e575f60019250925050612b84565b91505f90505b94509492505050565b5f816004811115612ba057612ba0613440565b03612ba85750565b6001816004811115612bbc57612bbc613440565b03612c095760405162461bcd60e51b815260206004820152601860248201527f45434453413a20696e76616c6964207369676e6174757265000000000000000060448201526064016119af565b6002816004811115612c1d57612c1d613440565b03612c6a5760405162461bcd60e51b815260206004820152601f60248201527f45434453413a20696e76616c6964207369676e6174757265206c656e6774680060448201526064016119af565b6003816004811115612c7e57612c7e613440565b0361141b5760405162461bcd60e51b815260206004820152602260248201527f45434453413a20696e76616c6964207369676e6174757265202773272076616c604482015261756560f01b60648201526084016119af565b5f60ff8216601f8111156109ea57604051632cd44ac360e21b815260040160405180910390fd5b803563ffffffff81168114612d10575f80fd5b919050565b6001600160801b038116811461141b575f80fd5b5f8060408385031215612d3a575f80fd5b612d4383612cfd565b91506020830135612d5381612d15565b809150509250929050565b5f60208284031215612d6e575f80fd5b5035919050565b5f81518084528060208401602086015e5f602082860101526020601f19601f83011685010191505092915050565b602081525f61210f6020830184612d75565b6001600160a01b038116811461141b575f80fd5b5f8060408385031215612dda575f80fd5b8235612de581612db5565b946020939093013593505050565b5f8060408385031215612e04575f80fd5b8235612e0f81612d15565b91506020830135612d5381612db5565b5f8060408385031215612e30575f80fd5b8235612d4381612db5565b5f805f60608486031215612e4d575f80fd5b8335612e5881612db5565b92506020840135612e6881612db5565b929592945050506040919091013590565b5f6080828403128015612e8a575f80fd5b509092915050565b5f60208284031215612ea2575f80fd5b813561210f81612db5565b5f60208284031215612ebd575f80fd5b813561210f81612d15565b60ff60f81b8816815260e060208201525f612ee660e0830189612d75565b8281036040840152612ef88189612d75565b606084018890526001600160a01b038716608085015260a0840186905283810360c0850152845180825260208087019350909101905f5b81811015612f4d578351835260209384019390920191600101612f2f565b50909b9a5050505050505050505050565b5f60208284031215612f6e575f80fd5b61210f82612cfd565b60ff8116811461141b575f80fd5b5f60208284031215612f95575f80fd5b813561210f81612f77565b5f805f805f805f60e0888a031215612fb6575f80fd5b8735612fc181612db5565b96506020880135612fd181612db5565b955060408801359450606088013593506080880135612fef81612f77565b9699959850939692959460a0840135945060c09093013592915050565b5f806040838503121561301d575f80fd5b8235612e0f81612db5565b5f8060408385031215613039575f80fd5b823591506020830135612d5381612db5565b5f805f6060848603121561305d575f80fd5b833561306881612db5565b9250602084013561307881612db5565b9150604084013561308881612db5565b809150509250925092565b600181811c908216806130a757607f821691505b602082108103612a2157634e487b7160e01b5f52602260045260245ffd5b634e487b7160e01b5f52601160045260245ffd5b63ffffffff81811683821601908111156109ea576109ea6130c5565b6001600160801b0382811682821603908111156109ea576109ea6130c5565b808201808211156109ea576109ea6130c5565b6001600160781b038116811461141b575f80fd5b813561314681612db5565b6001600160a01b0381166001600160a01b03198354161782555060018101602083013561317281612d15565b8154604085013561318281613127565b7effffffffffffffffffffffffffffff000000000000000000000000000000008160801b166001600160801b03841660ff60f81b8416171784555050505f60608401356131ce81612f77565b82547effffffffffffffffffffffffffffffffffffffffffffffffffffffffffffff1660f89190911b7fff000000000000000000000000000000000000000000000000000000000000001617909155505050565b5f60208284031215613232575f80fd5b813561210f81613127565b6001600160801b0381811683821601908111156109ea576109ea6130c5565b62ffffff818116838216029081169081811461327a5761327a6130c5565b5092915050565b5f60208284031215613291575f80fd5b8151801515811461210f575f80fd5b634e487b7160e01b5f52601260045260245ffd5b5f826132c2576132c26132a0565b500490565b80820281158282048414176109ea576109ea6130c5565b6001815b6001841115613319578085048111156132fd576132fd6130c5565b600184161561330b57908102905b60019390931c9280026132e2565b935093915050565b5f8261332f575060016109ea565b8161333b57505f6109ea565b8160018114613351576002811461335b57613377565b60019150506109ea565b60ff84111561336c5761336c6130c5565b50506001821b6109ea565b5060208310610133831016604e8410600b841016171561339a575081810a6109ea565b6133a65f1984846132de565b805f19048211156133b9576133b96130c5565b029392505050565b5f61210f6001600160781b03841683613321565b5f6001600160801b038316806133ed576133ed6132a0565b806001600160801b0384160491505092915050565b6001600160781b0381811683821601908111156109ea576109ea6130c5565b63ffffffff818116838216029081169081811461327a5761327a6130c5565b634e487b7160e01b5f52602160045260245ffdfea26469706673582212207378758549ad0b9a9570cd167b164ed1b18541f51d1a14302e44c6b1c58d8ffe64736f6c634300081a0033","linkReferences":{}},"methodIdentifiers":{"DOMAIN_SEPARATOR()":"3644e515","addShare((address,uint128,uint120,uint8))":"3b107e21","addauths(address,uint256)":"542128dd","addreferral(address,address)":"eca93cce","allowance(address,address)":"dd62ed3e","approve(address,uint256)":"095ea7b3","auths(address)":"64e72dbd","balanceOf(address)":"70a08231","burn(address,uint256)":"9dc29fac","burnShare(uint8)":"9241bda6","chain_deposit(uint32,uint128)":"01bddf1b","chain_withdraw(uint32,uint128)":"c3bb7fff","chainindex()":"8378e563","chains(uint32)":"8b203dd4","changeDAOAdmin(address)":"3cba316b","dao_admin()":"a538e6a9","decimals()":"313ce567","decreaseAllowance(address,uint256)":"a457c2d7","eip712Domain()":"84b0196e","getreferralanddaoadmin(address)":"b88e6d63","increaseAllowance(address,uint256)":"39509351","left_share()":"45fda707","marketcontract()":"2bf960da","name()":"06fdde03","nonces(address)":"7ecebe00","normalgoodid()":"02517e8b","permit(address,address,uint256,uint256,uint8,bytes32,bytes32)":"d505accf","poolstate()":"845fcee4","public_Sell(uint256)":"47036e75","publicsell()":"de5712d4","referrals(address)":"9ca423b3","rmauths(address)":"69a5ac32","setEnv(address,address,address)":"fa82add5","shareMint(uint8)":"df876548","shares_index()":"696bb4ad","stake(address,uint128)":"19f8d5b4","stakeproof(uint256)":"06afa12a","stakestate()":"cae97640","subchainDeposit(uint128,address)":"cd993b11","subchainWithdraw(uint128,address)":"0a4273e6","symbol()":"95d89b41","syncChainStake(uint32,uint128)":"30fd6b29","syncPoolAsset(uint128)":"6c0deba1","totalSupply()":"18160ddd","transfer(address,uint256)":"a9059cbb","transferFrom(address,address,uint256)":"23b872dd","ttstokenconfig()":"623059a5","unstake(address,uint128)":"7bd3ca35","usdt()":"2f48ab7d","valuegoodid()":"f35da462","withdrawPublicSell(uint256,address)":"e7b43e7d"},"id":59}