{"abi":[{"type":"constructor","inputs":[{"name":"_marketconfig","type":"uint256","internalType":"uint256"},{"name":"_officialTokenContract","type":"address","internalType":"address"},{"name":"_officialNFTContract","type":"address","internalType":"address"},{"name":"_officialTrigger","type":"address","internalType":"address"}],"stateMutability":"nonpayable"},{"type":"function","name":"addbanlist","inputs":[{"name":"_user","type":"address","internalType":"address"}],"outputs":[{"name":"","type":"bool","internalType":"bool"}],"stateMutability":"nonpayable"},{"type":"function","name":"banlist","inputs":[{"name":"","type":"address","internalType":"address"}],"outputs":[{"name":"","type":"uint256","internalType":"uint256"}],"stateMutability":"view"},{"type":"function","name":"buyGood","inputs":[{"name":"_goodid1","type":"uint256","internalType":"uint256"},{"name":"_goodid2","type":"uint256","internalType":"uint256"},{"name":"_swapQuantity","type":"uint128","internalType":"uint128"},{"name":"_limitPrice","type":"uint256","internalType":"uint256"},{"name":"_istotal","type":"bool","internalType":"bool"},{"name":"_referal","type":"address","internalType":"address"}],"outputs":[{"name":"goodid2Quantity_","type":"uint128","internalType":"uint128"},{"name":"goodid2FeeQuantity_","type":"uint128","internalType":"uint128"}],"stateMutability":"payable"},{"type":"function","name":"buyGoodForPay","inputs":[{"name":"_goodid1","type":"uint256","internalType":"uint256"},{"name":"_goodid2","type":"uint256","internalType":"uint256"},{"name":"_swapQuantity","type":"uint128","internalType":"uint128"},{"name":"_limitPrice","type":"uint256","internalType":"uint256"},{"name":"_recipient","type":"address","internalType":"address"}],"outputs":[{"name":"goodid1Quantity_","type":"uint128","internalType":"uint128"},{"name":"goodid1FeeQuantity_","type":"uint128","internalType":"uint128"}],"stateMutability":"payable"},{"type":"function","name":"changeGoodOwner","inputs":[{"name":"_goodid","type":"uint256","internalType":"uint256"},{"name":"_to","type":"address","internalType":"address"}],"outputs":[],"stateMutability":"nonpayable"},{"type":"function","name":"collectCommission","inputs":[{"name":"_goodid","type":"uint256[]","internalType":"uint256[]"}],"outputs":[],"stateMutability":"nonpayable"},{"type":"function","name":"collectProof","inputs":[{"name":"_proofid","type":"uint256","internalType":"uint256"},{"name":"_gater","type":"address","internalType":"address"}],"outputs":[{"name":"profit_","type":"uint256","internalType":"uint256"}],"stateMutability":"nonpayable"},{"type":"function","name":"delproofdata","inputs":[{"name":"proofid","type":"uint256","internalType":"uint256"},{"name":"from","type":"address","internalType":"address"},{"name":"to","type":"address","internalType":"address"}],"outputs":[],"stateMutability":"nonpayable"},{"type":"function","name":"disinvestProof","inputs":[{"name":"_proofid","type":"uint256","internalType":"uint256"},{"name":"_goodQuantity","type":"uint128","internalType":"uint128"},{"name":"_gater","type":"address","internalType":"address"}],"outputs":[{"name":"","type":"bool","internalType":"bool"}],"stateMutability":"nonpayable"},{"type":"function","name":"getGoodState","inputs":[{"name":"goodkey","type":"uint256","internalType":"uint256"}],"outputs":[{"name":"","type":"tuple","internalType":"struct S_GoodTmpState","components":[{"name":"goodConfig","type":"uint256","internalType":"uint256"},{"name":"owner","type":"address","internalType":"address"},{"name":"erc20address","type":"address","internalType":"address"},{"name":"trigger","type":"address","internalType":"address"},{"name":"currentState","type":"uint256","internalType":"uint256"},{"name":"investState","type":"uint256","internalType":"uint256"},{"name":"feeQuantityState","type":"uint256","internalType":"uint256"}]}],"stateMutability":"view"},{"type":"function","name":"getProofState","inputs":[{"name":"proofid","type":"uint256","internalType":"uint256"}],"outputs":[{"name":"","type":"tuple","internalType":"struct S_ProofState","components":[{"name":"currentgood","type":"uint256","internalType":"uint256"},{"name":"valuegood","type":"uint256","internalType":"uint256"},{"name":"state","type":"uint256","internalType":"uint256"},{"name":"invest","type":"uint256","internalType":"uint256"},{"name":"valueinvest","type":"uint256","internalType":"uint256"}]}],"stateMutability":"view"},{"type":"function","name":"goodWelfare","inputs":[{"name":"goodid","type":"uint256","internalType":"uint256"},{"name":"welfare","type":"uint128","internalType":"uint128"}],"outputs":[],"stateMutability":"payable"},{"type":"function","name":"initGood","inputs":[{"name":"_valuegood","type":"uint256","internalType":"uint256"},{"name":"_initial","type":"uint256","internalType":"uint256"},{"name":"_erc20address","type":"address","internalType":"address"},{"name":"_goodConfig","type":"uint256","internalType":"uint256"}],"outputs":[{"name":"","type":"bool","internalType":"bool"}],"stateMutability":"payable"},{"type":"function","name":"initMetaGood","inputs":[{"name":"_erc20address","type":"address","internalType":"address"},{"name":"_initial","type":"uint256","internalType":"uint256"},{"name":"_goodConfig","type":"uint256","internalType":"uint256"}],"outputs":[{"name":"","type":"bool","internalType":"bool"}],"stateMutability":"payable"},{"type":"function","name":"investGood","inputs":[{"name":"_togood","type":"uint256","internalType":"uint256"},{"name":"_valuegood","type":"uint256","internalType":"uint256"},{"name":"_quantity","type":"uint128","internalType":"uint128"}],"outputs":[{"name":"","type":"bool","internalType":"bool"}],"stateMutability":"payable"},{"type":"function","name":"ishigher","inputs":[{"name":"goodid","type":"uint256","internalType":"uint256"},{"name":"valuegood","type":"uint256","internalType":"uint256"},{"name":"compareprice","type":"uint256","internalType":"uint256"}],"outputs":[{"name":"","type":"bool","internalType":"bool"}],"stateMutability":"view"},{"type":"function","name":"marketconfig","inputs":[],"outputs":[{"name":"","type":"uint256","internalType":"uint256"}],"stateMutability":"view"},{"type":"function","name":"modifyGoodConfig","inputs":[{"name":"_goodid","type":"uint256","internalType":"uint256"},{"name":"_goodConfig","type":"uint256","internalType":"uint256"}],"outputs":[{"name":"","type":"bool","internalType":"bool"}],"stateMutability":"nonpayable"},{"type":"function","name":"payGood","inputs":[{"name":"_goodid","type":"uint256","internalType":"uint256"},{"name":"_payquanity","type":"uint256","internalType":"uint256"},{"name":"_recipent","type":"address","internalType":"address"}],"outputs":[{"name":"","type":"bool","internalType":"bool"}],"stateMutability":"payable"},{"type":"function","name":"proofmapping","inputs":[{"name":"proofkey","type":"uint256","internalType":"uint256"}],"outputs":[{"name":"proofid","type":"uint256","internalType":"uint256"}],"stateMutability":"view"},{"type":"function","name":"queryCommission","inputs":[{"name":"_goodid","type":"uint256[]","internalType":"uint256[]"},{"name":"_recipent","type":"address","internalType":"address"}],"outputs":[{"name":"","type":"uint256[]","internalType":"uint256[]"}],"stateMutability":"view"},{"type":"function","name":"removebanlist","inputs":[{"name":"_user","type":"address","internalType":"address"}],"outputs":[{"name":"","type":"bool","internalType":"bool"}],"stateMutability":"nonpayable"},{"type":"function","name":"setGoodTrigger","inputs":[{"name":"goodid","type":"uint256","internalType":"uint256"},{"name":"apptrigeraddress","type":"address","internalType":"address"},{"name":"config","type":"uint256","internalType":"uint256"}],"outputs":[],"stateMutability":"nonpayable"},{"type":"function","name":"setMarketConfig","inputs":[{"name":"_marketconfig","type":"uint256","internalType":"uint256"}],"outputs":[{"name":"","type":"bool","internalType":"bool"}],"stateMutability":"nonpayable"},{"type":"function","name":"updateGoodConfig","inputs":[{"name":"_goodid","type":"uint256","internalType":"uint256"},{"name":"_goodConfig","type":"uint256","internalType":"uint256"}],"outputs":[{"name":"","type":"bool","internalType":"bool"}],"stateMutability":"nonpayable"},{"type":"event","name":"e_addbanlist","inputs":[{"name":"_user","type":"address","indexed":false,"internalType":"address"}],"anonymous":false},{"type":"event","name":"e_buyGood","inputs":[{"name":"sellgood","type":"uint256","indexed":true,"internalType":"uint256"},{"name":"forgood","type":"uint256","indexed":true,"internalType":"uint256"},{"name":"fromer","type":"address","indexed":false,"internalType":"address"},{"name":"swapvalue","type":"uint128","indexed":false,"internalType":"uint128"},{"name":"sellgoodstate","type":"uint256","indexed":false,"internalType":"uint256"},{"name":"forgoodstate","type":"uint256","indexed":false,"internalType":"uint256"}],"anonymous":false},{"type":"event","name":"e_buyGoodForPay","inputs":[{"name":"buygood","type":"uint256","indexed":true,"internalType":"uint256"},{"name":"usegood","type":"uint256","indexed":true,"internalType":"uint256"},{"name":"fromer","type":"address","indexed":false,"internalType":"address"},{"name":"receipt","type":"address","indexed":false,"internalType":"address"},{"name":"swapvalue","type":"uint128","indexed":false,"internalType":"uint128"},{"name":"buygoodstate","type":"uint256","indexed":false,"internalType":"uint256"},{"name":"usegoodstate","type":"uint256","indexed":false,"internalType":"uint256"}],"anonymous":false},{"type":"event","name":"e_changeOwner","inputs":[{"name":"_goodid","type":"uint256","indexed":true,"internalType":"uint256"},{"name":"_owner","type":"address","indexed":false,"internalType":"address"},{"name":"_to","type":"address","indexed":false,"internalType":"address"}],"anonymous":false},{"type":"event","name":"e_changegoodowner","inputs":[{"name":"goodid","type":"uint256","indexed":false,"internalType":"uint256"},{"name":"to","type":"address","indexed":false,"internalType":"address"}],"anonymous":false},{"type":"event","name":"e_collectProof","inputs":[{"name":"_proofNo","type":"uint256","indexed":true,"internalType":"uint256"},{"name":"_normalGoodNo","type":"uint256","indexed":false,"internalType":"uint256"},{"name":"_valueGoodNo","type":"uint256","indexed":false,"internalType":"uint256"},{"name":"_profit","type":"uint256","indexed":false,"internalType":"uint256"}],"anonymous":false},{"type":"event","name":"e_collectProtocolFee","inputs":[{"name":"goodid","type":"uint256","indexed":false,"internalType":"uint256"},{"name":"feeamount","type":"uint256","indexed":false,"internalType":"uint256"}],"anonymous":false},{"type":"event","name":"e_collectcommission","inputs":[{"name":"_gooid","type":"uint256[]","indexed":false,"internalType":"uint256[]"},{"name":"_commisionamount","type":"uint256[]","indexed":false,"internalType":"uint256[]"}],"anonymous":false},{"type":"event","name":"e_disinvestProof","inputs":[{"name":"_proofNo","type":"uint256","indexed":true,"internalType":"uint256"},{"name":"_normalGoodNo","type":"uint256","indexed":false,"internalType":"uint256"},{"name":"_valueGoodNo","type":"uint256","indexed":false,"internalType":"uint256"},{"name":"_value","type":"uint256","indexed":false,"internalType":"uint256"},{"name":"_normalgood","type":"uint256","indexed":false,"internalType":"uint256"},{"name":"_valuegood","type":"uint256","indexed":false,"internalType":"uint256"},{"name":"_profit","type":"uint256","indexed":false,"internalType":"uint256"}],"anonymous":false},{"type":"event","name":"e_enpower","inputs":[{"name":"_goodid","type":"uint256","indexed":false,"internalType":"uint256"},{"name":"_valuegood","type":"uint256","indexed":false,"internalType":"uint256"},{"name":"_quantity","type":"uint256","indexed":false,"internalType":"uint256"}],"anonymous":false},{"type":"event","name":"e_goodWelfare","inputs":[{"name":"goodid","type":"uint256","indexed":false,"internalType":"uint256"},{"name":"welfare","type":"uint128","indexed":false,"internalType":"uint128"}],"anonymous":false},{"type":"event","name":"e_initGood","inputs":[{"name":"_proofNo","type":"uint256","indexed":false,"internalType":"uint256"},{"name":"_goodid","type":"uint256","indexed":false,"internalType":"uint256"},{"name":"_valuegoodNo","type":"uint256","indexed":false,"internalType":"uint256"},{"name":"_erc20address","type":"address","indexed":false,"internalType":"address"},{"name":"_goodConfig","type":"uint256","indexed":false,"internalType":"uint256"},{"name":"_construct","type":"uint256","indexed":false,"internalType":"uint256"},{"name":"_normalinitial","type":"uint256","indexed":false,"internalType":"uint256"},{"name":"_value","type":"uint256","indexed":false,"internalType":"uint256"}],"anonymous":false},{"type":"event","name":"e_initMetaGood","inputs":[{"name":"_proofNo","type":"uint256","indexed":false,"internalType":"uint256"},{"name":"_goodid","type":"uint256","indexed":false,"internalType":"uint256"},{"name":"_construct","type":"uint256","indexed":false,"internalType":"uint256"},{"name":"_erc20address","type":"address","indexed":false,"internalType":"address"},{"name":"_goodConfig","type":"uint256","indexed":false,"internalType":"uint256"},{"name":"_initial","type":"uint256","indexed":false,"internalType":"uint256"}],"anonymous":false},{"type":"event","name":"e_investGood","inputs":[{"name":"_proofNo","type":"uint256","indexed":true,"internalType":"uint256"},{"name":"_normalgoodid","type":"uint256","indexed":false,"internalType":"uint256"},{"name":"_valueGoodNo","type":"uint256","indexed":false,"internalType":"uint256"},{"name":"_value","type":"uint256","indexed":false,"internalType":"uint256"},{"name":"_invest","type":"uint256","indexed":false,"internalType":"uint256"},{"name":"_valueinvest","type":"uint256","indexed":false,"internalType":"uint256"}],"anonymous":false},{"type":"event","name":"e_modifyGoodConfig","inputs":[{"name":"_goodid","type":"uint256","indexed":false,"internalType":"uint256"},{"name":"_goodconfig","type":"uint256","indexed":false,"internalType":"uint256"}],"anonymous":false},{"type":"event","name":"e_removebanlist","inputs":[{"name":"_user","type":"address","indexed":false,"internalType":"address"}],"anonymous":false},{"type":"event","name":"e_setGoodTrigger","inputs":[{"name":"goodid","type":"uint256","indexed":false,"internalType":"uint256"},{"name":"triggeraddress","type":"address","indexed":false,"internalType":"address"},{"name":"goodconfig","type":"uint256","indexed":false,"internalType":"uint256"}],"anonymous":false},{"type":"event","name":"e_setMarketConfig","inputs":[{"name":"_marketconfig","type":"uint256","indexed":false,"internalType":"uint256"}],"anonymous":false},{"type":"event","name":"e_transferdel","inputs":[{"name":"delproofid","type":"uint256","indexed":false,"internalType":"uint256"},{"name":"existsproofid","type":"uint256","indexed":false,"internalType":"uint256"}],"anonymous":false},{"type":"event","name":"e_updateGoodConfig","inputs":[{"name":"_goodid","type":"uint256","indexed":false,"internalType":"uint256"},{"name":"_goodConfig","type":"uint256","indexed":false,"internalType":"uint256"}],"anonymous":false},{"type":"error","name":"ERC20TransferFailed","inputs":[]},{"type":"error","name":"NativeTransferFailed","inputs":[]}],"bytecode":{"object":"0x60e060405234801561000f575f80fd5b5060405161504038038061504083398101604081905261002e9161006b565b6001600160a01b0392831660805290821660a0525f929092551660c0526100b5565b80516001600160a01b0381168114610066575f80fd5b919050565b5f805f806080858703121561007e575f80fd5b8451935061008e60208601610050565b925061009c60408601610050565b91506100aa60608601610050565b905092959194509250565b60805160a05160c051614ea461019c5f395f81816112b50152818161130501528181611e8001528181611ed00152818161227b015261243501525f81816108cd01528181610aad01528181610fb5015281816119a901528181611b420152818161251c015261274101525f818161063c0152818161090d015281816109e901528181610b7201528181610cde015281816110ff015281816112400152818161172c015281816117ff01528181611a4701528181611bea015281816121620152818161261101528181612824015281816129c301528181612a200152612a540152614ea45ff3fe60806040526004361061018e575f3560e01c80635e008cc4116100dc578063a6f6a98011610087578063b153b92011610062578063b153b920146104e5578063f44733ad14610504578063f4662f2014610517578063f88c301014610536575f80fd5b8063a6f6a98014610424578063a7e11697146104b3578063a7fed925146104c6575f80fd5b80639551177a116100b75780639551177a146103d357806397924ead146103f2578063a676a60014610405575f80fd5b80635e008cc4146103695780636ff73c8e14610394578063920acbb8146103c0575f80fd5b80632a7c5a911161013c57806345818e4c1161011757806345818e4c146103045780634ffef90714610323578063578496ab14610336575f80fd5b80632a7c5a91146102715780633f11774014610290578063402f5ab5146102f0575f80fd5b806318ad50d11161016c57806318ad50d1146102065780631faa5a56146102195780632973ada714610238575f80fd5b806306e27369146101925780630e21a1ac146101b3578063144aeb83146101e7575b5f80fd5b34801561019d575f80fd5b506101b16101ac366004614825565b610555565b005b3480156101be575f80fd5b506101d26101cd36600461485a565b610625565b60405190151581526020015b60405180910390f35b3480156101f2575f80fd5b506101d261020136600461485a565b610713565b6101b161021436600461488e565b610784565b348015610224575f80fd5b506101b16102333660046148bc565b6108c2565b348015610243575f80fd5b506102636102523660046148fb565b60046020525f908152604090205481565b6040519081526020016101de565b34801561027c575f80fd5b506101b161028b366004614916565b610b5d565b34801561029b575f80fd5b506102af6102aa366004614939565b610c57565b6040516101de91905f60a082019050825182526020830151602083015260408301516040830152606083015160608301526080830151608083015292915050565b3480156102fb575f80fd5b506102635f5481565b34801561030f575f80fd5b506101d261031e366004614939565b610cd1565b6101d2610331366004614950565b610dae565b610349610344366004614999565b6111cd565b604080516001600160801b039384168152929091166020830152016101de565b348015610374575f80fd5b50610263610383366004614939565b60026020525f908152604090205481565b34801561039f575f80fd5b506103b36103ae366004614aac565b6115a4565b6040516101de9190614b2a565b6101d26103ce366004614b3c565b61169c565b3480156103de575f80fd5b506101d26103ed3660046148fb565b611715565b6101d2610400366004614b67565b6117f2565b348015610410575f80fd5b5061026361041f366004614916565b611ae8565b34801561042f575f80fd5b5061044361043e366004614939565b611d5e565b6040516101de91905f60e082019050825182526001600160a01b0360208401511660208301526001600160a01b0360408401511660408301526001600160a01b0360608401511660608301526080830151608083015260a083015160a083015260c083015160c083015292915050565b6103496104c1366004614b99565b611e24565b3480156104d1575f80fd5b506101d26104e0366004614beb565b612124565b3480156104f0575f80fd5b506101d26104ff3660046148fb565b61214b565b6101d2610512366004614c14565b61222a565b348015610522575f80fd5b506101d2610531366004614c3f565b6126e7565b348015610541575f80fd5b506101b1610550366004614c63565b612b2f565b5f83815260016020819052604090912001546001600160a01b0316331461057a575f80fd5b5f83815260016020908152604091829020805460df9490941b600f60df1b167ffffffff87fffffffffffffffffffffffffffffffffffffffffffffffffffffff9094168401808255600390910180546001600160a01b0319166001600160a01b0387169081179091558351878152928301529181018290527ff9c8db0c5294b561be909ddf03e9adcd15b0240463d521d6a0a88082a43db13f9060600160405180910390a150505050565b6040516364e72dbd60e01b81523360048201525f907f00000000000000000000000000000000000000000000000000000000000000006001600160a01b0316906364e72dbd90602401602060405180830381865afa158015610689573d5f803e3d5ffd5b505050506040513d601f19601f820116820180604052508101906106ad9190614c95565b6003146106b8575f80fd5b5f8381526001602052604090206106cf9083612d8f565b60408051848152602081018490527f5af113730f9ee4153f120c893809feafa233584bbe5e93b5d78e0699c9c8ca5691015b60405180910390a15060015b92915050565b5f828152600160208190526040822001546001600160a01b03163314610737575f80fd5b5f83815260016020526040902061074e9083612db6565b60408051848152602081018490527fc360eef79f1e7d7e7564e3cd446a9839f5a632a38a4d34b507c08e1ceef461479101610701565b6001600160a01b037fcfdbe78f31bc5efa50605e8b11a7b6843971370ea97eb24de6e1a1eb9d2356455c16156107b8575f80fd5b6107c133612df1565b5f828152600160205260409020600601546d2000000000000000000000000000906107f090839060801c614cc0565b6001600160801b03161115610803575f80fd5b5f82815260016020526040902060020154610831906001600160a01b0316336001600160801b038416612e17565b5f8281526001602052604090206006015461085590608083901b612e2a565b612e2a565b5f838152600160205260409081902060060191909155517f54fe3e24ce316357354d8b9553364de253d61c742d913dfd419149ddf696947a906108ad90849084909182526001600160801b0316602082015260400190565b60405180910390a16108be5f612df1565b5050565b336001600160a01b037f000000000000000000000000000000000000000000000000000000000000000016146108f6575f80fd5b5f83815260036020526040902060020154610937907f000000000000000000000000000000000000000000000000000000000000000090849060801c612e62565b5f838152600360208181526040808420815160a081018352815481526001820154818501908152600283015482850152948201546060808301919091526004909201546080820152825191820183526001600160a01b038816825280519382019390935292519083015291906109ac90612ecc565b90505f6109e26040518060600160405280866001600160a01b03168152602001855f015181526020018560200151815250612ecc565b9050610a1c7f000000000000000000000000000000000000000000000000000000000000000085610a17866040015160801c90565b612f18565b505f8181526002602052604081205490819003610a4d575f8381526002602052604080822054848352912055610b47565b5f878152600360205260408082208383529120610a6991612f93565b5f87815260036020819052604080832083815560018101849055600281018490559182018390556004918201929092559051630852cd8d60e31b81529081018890527f00000000000000000000000000000000000000000000000000000000000000006001600160a01b0316906342966c68906024015f604051808303815f87803b158015610af6575f80fd5b505af1158015610b08573d5f803e3d5ffd5b5050604080518a8152602081018590527f335d27656e7f9578ae51244b214940ee63a03fbed3788497ee4237a186aad1e4935001905060405180910390a15b50505f9081526002602052604081205550505050565b6040516364e72dbd60e01b81523360048201527f00000000000000000000000000000000000000000000000000000000000000006001600160a01b0316906364e72dbd90602401602060405180830381865afa158015610bbf573d5f803e3d5ffd5b505050506040513d601f19601f82011682018060405250810190610be39190614c95565b600314610bee575f80fd5b5f8281526001602081815260409283902090910180546001600160a01b0319166001600160a01b0385169081179091558251858152918201527f0dccb79e09923e42093e54de6132ceba9b88b094d10632520f6eeb8058a6721c91015b60405180910390a15050565b610c846040518060a001604052805f81526020015f81526020015f81526020015f81526020015f81525090565b505f90815260036020818152604092839020835160a08101855281548152600182015492810192909252600281015493820193909352908201546060820152600490910154608082015290565b5f336001600160a01b03167f00000000000000000000000000000000000000000000000000000000000000006001600160a01b031663a538e6a96040518163ffffffff1660e01b8152600401602060405180830381865afa158015610d38573d5f803e3d5ffd5b505050506040513d601f19601f82011682018060405250810190610d5c9190614cdf565b6001600160a01b031614610d6e575f80fd5b5f8290556040518281527fbd209961024f2694b0afb3c8badd20b6477abb77b336b16892c3fa4b906d323c906020015b60405180910390a1506001919050565b5f6001600160a01b037fcfdbe78f31bc5efa50605e8b11a7b6843971370ea97eb24de6e1a1eb9d2356455c1615610de3575f80fd5b610dec33612df1565b5f610e1c6040518060400160405280336001600160a01b03168152602001866001600160a01b0316815250612fe5565b5f81815260016020819052604090912001549091506001600160a01b0316158015610e5957505f86815260016020526040902054600160ff1b1615155b610e61575f80fd5b610e8933610e6f8760801c90565b6001600160a01b03871691906001600160801b0316612e17565b5f86815260016020526040902060020154610eb7906001600160a01b0316336001600160801b038816612e17565b5f868152600160205260408120610ece9087613015565b9050610f50610ef88260400151610ee58960801c90565b6001600160801b031660809190911b1790565b5f8481526001602081905260409091206004810183905560058101929092556001600160df1b03871682556002820180546001600160a01b038a166001600160a01b0319918216179091559101805490911633179055565b5f610f7d6040518060600160405280336001600160a01b031681526020018581526020018a815250612ecc565b9050610f8881613169565b5f8281526002602052604090819020829055516340c10f1960e01b815233600482015260248101919091527f00000000000000000000000000000000000000000000000000000000000000006001600160a01b0316906340c10f19906044015f604051808303815f87803b158015610ffe575f80fd5b505af1158015611010573d5f803e3d5ffd5b50506040805160a081018252868152602081018c905285820151909350908301915060801b81526020016110448960801c90565b6001600160801b031681526020016110748460200151856060015160809190911b6001600160801b039091161790565b90525f828152600260208181526040808420805485526003808452828620875181558785015160018201558784015181870155606088015191810191909155608090960151600490960195909555928590528190529154908401517f7f24d62c59fa0f0a64c80fbbd1fce113d877d6c18a97ad6dffe701f290f123849286918c918b918b9161112a917f0000000000000000000000000000000000000000000000000000000000000000913391610a1791614cfa565b61114f6111378f60801c90565b60408b01516001600160801b031660809190911b1790565b895160608b01516001600160801b031660809190911b17604080519889526020890197909752958701949094526001600160a01b03909216606086015260808501526001600160801b031660a084015260c083015260e08201526101000160405180910390a1600193505050506111c55f612df1565b949350505050565b5f806001600160a01b037fcfdbe78f31bc5efa50605e8b11a7b6843971370ea97eb24de6e1a1eb9d2356455c1615611203575f80fd5b61120c33612df1565b6001600160a01b03831615611298576040516376549e6760e11b81523360048201526001600160a01b0384811660248301527f0000000000000000000000000000000000000000000000000000000000000000169063eca93cce906044015f604051808303815f87803b158015611281575f80fd5b505af1158015611293573d5f803e3d5ffd5b505050505b5f87815260016020526040808220600401548a835291206112e8917f0000000000000000000000000000000000000000000000000000000000000000908a906001600160801b038b16903361318c565b5f88815260016020526040808220600401548983529120611338917f0000000000000000000000000000000000000000000000000000000000000000908b906001600160801b038b169033613244565b60408051610100810182526001600160801b03881681525f6020808301829052828401829052606083018290528b825260018082528483206004808201546080870152905460a08601528c84528183529483209485015460c0850152918b905252905460e08201526113aa81876132af565b90505f876001600160801b03161180156113d95750866001600160801b0316815f01516001600160801b031614155b80156113e55750878914155b801561140957506001851515148015611407575080516001600160801b031615155b155b611411575f80fd5b602081015160e0820151611439916001600160801b031661271060cc9290921c607f16020490565b915081816020015161144b9190614d23565b60808201516040808401515f8d815260016020529190912092955061147192919061360f565b60c08101515f89815260016020526040902061148d918461360f565b80516114c990339061149f908a614d23565b5f8c8152600160205260409020600201546001600160a01b031691906001600160801b0316612e17565b5f888152600160205260409020600201546114f7906001600160a01b0316336001600160801b038616613636565b87897fa79c43e220b5faf022716b06e757294b799a25f33d3c8b0121e614f7b5d988c433846060015161154a865f01518d6115329190614d23565b60408801516001600160801b031660809190911b1790565b6001600160801b03881660808a901b17604080516001600160a01b0390951685526001600160801b03909316602085015291830152606082015260800160405180910390a3506115995f612df1565b965096945050505050565b606060648351106115b3575f80fd5b5f835167ffffffffffffffff8111156115ce576115ce6149fc565b6040519080825280602002602001820160405280156115f7578160200160208202803683370190505b5090505f5b84518110156116945760015f86838151811061161a5761161a614d42565b602002602001015181526020019081526020015f206007015f856001600160a01b03166001600160a01b031681526020019081526020015f205f9054906101000a90046001600160801b03166001600160801b031682828151811061168157611681614d42565b60209081029190910101526001016115fc565b509392505050565b5f838152600160205260408120600201546001600160a01b03166116e4575f848152600160205260409020600201546116df906001600160a01b03168385613636565b61170a565b5f8481526001602052604090206002015461170a906001600160a01b03163384866136c8565b5060015b9392505050565b6040516364e72dbd60e01b81523360048201525f907f00000000000000000000000000000000000000000000000000000000000000006001600160a01b0316906364e72dbd90602401602060405180830381865afa158015611779573d5f803e3d5ffd5b505050506040513d601f19601f8201168201806040525081019061179d9190614c95565b6003146117a8575f80fd5b6001600160a01b0382165f8181526004602090815260408083209290925590519182527e4ba2ca448db089eb9fb0b25431f0d57664d46141171fed2476281b578d96d49101610d9e565b5f336001600160a01b03167f00000000000000000000000000000000000000000000000000000000000000006001600160a01b031663a538e6a96040518163ffffffff1660e01b8152600401602060405180830381865afa158015611859573d5f803e3d5ffd5b505050506040513d601f19601f8201168201806040525081019061187d9190614cdf565b6001600160a01b03161461188f575f80fd5b600160ff1b821661189e575f80fd5b6118a83384610e6f565b5f6118d86040518060400160405280336001600160a01b03168152602001876001600160a01b0316815250612fe5565b5f81815260016020819052604090912060048101879055600581018790556001600160df1b03861681556002810180546001600160a01b038a166001600160a01b0319918216179091559181018054909216331790915590915061194190640100000000612d8f565b5f61196e6040518060600160405280336001600160a01b031681526020018481526020015f815250612ecc565b90505f61197a82613169565b5f8381526002602052604090819020829055516340c10f1960e01b8152336004820152602481018290529091507f00000000000000000000000000000000000000000000000000000000000000006001600160a01b0316906340c10f19906044015f604051808303815f87803b1580156119f2575f80fd5b505af1158015611a04573d5f803e3d5ffd5b50505050611a41835f611a20611a1a8a60801c90565b60801b90565b895f868152600360205260408120949392916001600160801b03169061376d565b5f611a717f000000000000000000000000000000000000000000000000000000000000000033610a178a60801c90565b60408051848152602081018790526001600160801b038316818301526001600160a01b038b1660608201526080810189905260a081018a905290519192507f1c22db4272b2564e441961f166415a2651ae43c8d8992212cb4cac04e81f54cc919081900360c00190a1506001979650505050505050565b5f6001600160a01b037fcfdbe78f31bc5efa50605e8b11a7b6843971370ea97eb24de6e1a1eb9d2356455c1615611b1d575f80fd5b611b2633612df1565b60405163430c208160e01b8152336004820152602481018490527f00000000000000000000000000000000000000000000000000000000000000006001600160a01b03169063430c2081906044016020604051808303815f875af1158015611b90573d5f803e3d5ffd5b505050506040513d601f19601f82011682018060405250810190611bb49190614d56565b611bbc575f80fd5b5f8381526003602052604080822060018101549054915163b88e6d6360e01b815233600482015290929081907f00000000000000000000000000000000000000000000000000000000000000006001600160a01b03169063b88e6d63906024016040805180830381865afa158015611c36573d5f803e3d5ffd5b505050506040513d601f19601f82011682018060405250810190611c5a9190614d71565b6001600160a01b0388165f908152600460205260409020549193509150600114611c845785611c86565b815b9550806001600160a01b0316866001600160a01b031614611ca75780611ca9565b815b6001600160a01b0381165f90815260046020526040902054909150600114611cd15781611cd3565b805b5f8581526001602081815260408084208c85526003835281852085548a8752949093529320939450611d0b9392918a908690886137db565b604080518581526020810187905290810182905290955087907f172f458c2c853ed38b0114381270db7647bc1f9b612a42852353261a7e3379be9060600160405180910390a25050505061070d5f612df1565b611db26040518060e001604052805f81526020015f6001600160a01b031681526020015f6001600160a01b031681526020015f6001600160a01b031681526020015f81526020015f81526020015f81525090565b506040805160e0810182525f8381526001602081815284832080548552808301546001600160a01b039081168387015260028201548116968601969096526003810154909516606085015260048501546080850152600585015460a0850152949091529092526006015460c082015290565b5f806001600160a01b037fcfdbe78f31bc5efa50605e8b11a7b6843971370ea97eb24de6e1a1eb9d2356455c1615611e5a575f80fd5b611e6333612df1565b5f86815260016020526040808220600401548983529120611eb3917f00000000000000000000000000000000000000000000000000000000000000009089906001600160801b038a16903361318c565b5f87815260016020526040808220600401548883529120611f03917f0000000000000000000000000000000000000000000000000000000000000000908a906001600160801b038a169033613244565b60408051610100810182526001600160801b03871681525f6020808301829052828401829052606083018290528a825260018082528483206004808201546080870152905460a08601528b84528183529483209485015460c0850152918a905252905460e0820152611f7581866138cc565b9050868814158015611f8f575080516001600160801b0316155b611f97575f80fd5b602081015160a0820151611fbf916001600160801b031661271060c59290921c607f16020490565b9150818160200151611fd19190614cc0565b60c08201516040808401515f8b8152600160205291909120929550611ff792919061360f565b60808101515f898152600160205260409020612013918461360f565b612051848260400151886120279190614d23565b5f8a8152600160205260409020600201546001600160a01b031691906001600160801b0316613636565b5f8881526001602052604090206002015461207f906001600160a01b0316336001600160801b038616612e17565b86887f3de590341c976ea6fce618ef4a768a15441201ad3ed7c9b438d82c3951de7ced338785606001516120c78c886040015160809190911b6001600160801b039091161790565b604080516001600160a01b0395861681529390941660208401526001600160801b03918216838501526060830152608089811b918916919091179082015290519081900360a00190a35061211a5f612df1565b9550959350505050565b5f8381526001602052604080822060049081015485845291832001546111c5919084613b4d565b6040516364e72dbd60e01b81523360048201525f907f00000000000000000000000000000000000000000000000000000000000000006001600160a01b0316906364e72dbd90602401602060405180830381865afa1580156121af573d5f803e3d5ffd5b505050506040513d601f19601f820116820180604052508101906121d39190614c95565b6003146121de575f80fd5b6001600160a01b0382165f818152600460209081526040918290206001905590519182527f8e1c2d1a5dce36a56a9dfcb96e5816e793c16d6c897b4e3c0b1f99588bb88a1c9101610d9e565b5f6001600160a01b037fcfdbe78f31bc5efa50605e8b11a7b6843971370ea97eb24de6e1a1eb9d2356455c161561225f575f80fd5b61226833612df1565b5f8481526001602052604090206122aa907f00000000000000000000000000000000000000000000000000000000000000006001600160801b03851633613bd8565b604080516080810182525f808252602082018190529181018290526060810191909152604080516080810182525f8082526020820181905291810182905260608101919091525f868152600160205260409020600401546d200000000000000000000000000090859061231d9190614cc0565b6001600160801b0316111580156123345750848614155b801561236e57505f86815260016020526040902054600160ff1b1615158061236e57505f85815260016020526040902054600160ff1b1615155b612376575f80fd5b5f86815260016020526040902061238d9085613015565b5f878152600160205260409020600201549092506123be906001600160a01b0316336001600160801b038716612e17565b84156124af576040808301515f878152600160205291909120600401546123e491613c7a565b6001600160801b0316606082018190525f8681526001602052604090205460d91c603f16612710908103909104026001600160801b0316606082018190525f86815260016020526040902061245b917f00000000000000000000000000000000000000000000000000000000000000009033613bd8565b60608101515f86815260016020526040902060020154612491916001600160a01b039091169033906001600160801b0316612e17565b60608101515f8681526001602052604090206124ac91613015565b90505b5f6124dc6040518060600160405280336001600160a01b0316815260200189815260200188815250612ecc565b5f8181526002602052604081205491925081900361258c576124fd82613169565b6040516340c10f1960e01b8152336004820152602481018290529091507f00000000000000000000000000000000000000000000000000000000000000006001600160a01b0316906340c10f19906044015f604051808303815f87803b158015612565575f80fd5b505af1158015612577573d5f803e3d5ffd5b5050505f838152600260205260409020829055505b60408401516125e7908990899060801b602088015160608901516001600160801b031660809190911b17602088015160608901516001600160801b031660809190911b175f878152600360205260409020949392919061376d565b5f87156126035760408501516125fe906002614cfa565b612609565b84604001515b90505f6126377f00000000000000000000000000000000000000000000000000000000000000003384612f18565b9050827f54327712026ec7eff19c69f41b88780daaa74a97ae2dcfa56a1de52fb0e07fcd8b8b61267b8a604001518660809190911b6001600160801b039091161790565b8a5160608c01516001600160801b031660809190911b178a5160608c01516001600160801b031660809190911b17604080519586526020860194909452928401919091526060830152608082015260a00160405180910390a26001965050505050505061170e5f612df1565b5f6001600160a01b037fcfdbe78f31bc5efa50605e8b11a7b6843971370ea97eb24de6e1a1eb9d2356455c161561271c575f80fd5b61272533612df1565b60405163430c208160e01b8152336004820152602481018590527f00000000000000000000000000000000000000000000000000000000000000006001600160a01b03169063430c2081906044016020604051808303815f875af115801561278f573d5f803e3d5ffd5b505050506040513d601f19601f820116820180604052508101906127b39190614d56565b6127bb575f80fd5b604080516060810182525f8082526020820181905291810191909152604080516060810182525f80825260208201819052918101919091525f868152600360205260408082208054600190910154915163b88e6d6360e01b8152336004820152909290819081907f00000000000000000000000000000000000000000000000000000000000000006001600160a01b03169063b88e6d63906024016040805180830381865afa158015612870573d5f803e3d5ffd5b505050506040513d601f19601f820116820180604052508101906128949190614d71565b6001600160a01b038b165f9081526004602052604090205491935091506001146128be57816128c0565b885b9850806001600160a01b0316896001600160a01b0316146128e157806128e3565b815b6001600160a01b0381165f9081526004602052604090205490915060011461290b578161290d565b805b90506129a160015f8681526020019081526020015f2060035f8e81526020019081526020015f206040518060a001604052808e6001600160801b031681526020018d6001600160a01b03168152602001856001600160a01b031681526020015f548152602001866001600160a01b031681525060015f8a81526020019081526020015f20613caa909392919063ffffffff16565b6040808401515f8a8152600160205291909120939a5091985094506129f291907f0000000000000000000000000000000000000000000000000000000000000000906001600160801b0316336141b7565b8315612a4f57612a03836002614cfa565b6040808901515f878152600160205291909120919450612a4f91907f0000000000000000000000000000000000000000000000000000000000000000906001600160801b0316336141b7565b612a7a7f00000000000000000000000000000000000000000000000000000000000000003385612e62565b8a7f4741de4d43f1462a092cdf2a25cfc5d5bdf2c96f169d5e64121e800b6fc417ee8686608087901b60208c015160408d01516001600160801b031660809190911b1760208c015160408d01516001600160801b031660809190911b178d518d516001600160801b031660809190911b17604080519687526020870195909552938501929092526060840152608083015260a082015260c00160405180910390a2600197505050505050505061170e5f612df1565b6064815110612b3c575f80fd5b5f815167ffffffffffffffff811115612b5757612b576149fc565b604051908082528060200260200182016040528015612b80578160200160208202803683370190505b5090505f5b8251811015612d5d5760015f848381518110612ba357612ba3614d42565b60209081029190910181015182528181019290925260409081015f90812033825260070190925290205482516001600160801b0390911690839083908110612bed57612bed614d42565b6020026020010181815250506002828281518110612c0d57612c0d614d42565b60200260200101511015612c3f575f828281518110612c2e57612c2e614d42565b602002602001018181525050612d55565b6001828281518110612c5357612c53614d42565b6020026020010151612c659190614d9e565b828281518110612c7757612c77614d42565b6020026020010181815250506001805f858481518110612c9957612c99614d42565b602002602001015181526020019081526020015f206007015f336001600160a01b03166001600160a01b031681526020019081526020015f205f6101000a8154816001600160801b0302191690836001600160801b03160217905550612d5533838381518110612d0b57612d0b614d42565b602002602001015160015f878681518110612d2857612d28614d42565b60209081029190910181015182528101919091526040015f20600201546001600160a01b03169190613636565b600101612b85565b507f8124a8d085ceb98e89ac6906c6e138dca5fdbc28a91438e33d7a2ab6c75742fd8282604051610c4b929190614db1565b815460df82901b90612da690600160df1b90614de9565b612db09190614dfc565b90915550565b81546001600160df1b0390911690612db09082907fffffffff8000000000000000000000000000000000000000000000000000000016614dfc565b807fcfdbe78f31bc5efa50605e8b11a7b6843971370ea97eb24de6e1a1eb9d2356455d50565b30612e24848483856136c8565b50505050565b5f608082811d9084901d016001600160801b0383811690851601612e59612e5083614212565b610ee583614212565b95945050505050565b604051637bd3ca3560e01b81526001600160a01b0383811660048301526001600160801b0383166024830152841690637bd3ca35906044015f604051808303815f87803b158015612eb1575f80fd5b505af1158015612ec3573d5f803e3d5ffd5b50505050505050565b6040805182516001600160a01b0316602080830191909152830151818301529082015160608201525f906080015b60408051601f19818403018152919052805160209091012092915050565b60405163067e356d60e21b81526001600160a01b0383811660048301526001600160801b03831660248301525f91908516906319f8d5b4906044016020604051808303815f875af1158015612f6f573d5f803e3d5ffd5b505050506040513d601f19601f820116820180604052508101906111c59190614e0f565b612fa582600201548260020154612e2a565b8260020181905550612fbf82600301548260030154612e2a565b8260030181905550612fd982600401548260040154612e2a565b82600401819055505050565b5f81604051602001612efa919081516001600160a01b039081168252602092830151169181019190915260400190565b604080516080810182525f8082526020820181905291810182905260608101919091528254613059906001600160801b03841661271060d99290921c603f16020490565b6001600160801b031680825261306f9083614d23565b6001600160801b031660608201819052600484015461308d9161422c565b6001600160801b03166040820152606081015160068401546130c191906130bb9060801c6005870154610ee5565b9061422c565b6001600160801b0316602082018190526006840154825161310292610850916130ea9190614cc0565b60208501516001600160801b031660809190911b1790565b600684015560048301546040820151606083015161312f929160801b6001600160801b0390911617612e2a565b600484015560058301546040820151606083015161315c929160801b6001600160801b0390911617612e2a565b6005909301929092555090565b604080516020810183905230918101919091524260608201525f90608001612efa565b8554600160e21b161561323c576003860154600480880154604051635eb77ef360e11b81526001600160a01b0393841692810192909252602482018790526044820186905260648201526084810184905282821660a48201529086169063bd6efde69060c4015b6020604051808303815f875af115801561320f573d5f803e3d5ffd5b505050506040513d601f19601f820116820180604052508101906132339190614d56565b1561323c575f80fd5b505050505050565b8554600160e11b161561323c57600386015460048088015460405163010be28560e61b81526001600160a01b0393841692810192909252602482018790526044820186905260648201526084810184905282821660a4820152908616906342f8a1409060c4016131f3565b60408051610100810182525f80825260208201819052918101829052606081018290526080810182905260a0810182905260c0810182905260e081019190915261330283608001518460c0015184613b4d565b61330d57508161070d565b825160a08401515f918291613336916001600160801b031661271060c59290921c607f16020490565b6001600160801b03166040860181905285518690613355908390614d23565b6001600160801b03169052505b84516001600160801b031615801590613389575061338985608001518660c0015186613b4d565b15613577576133aa61339f8660c0015160801c90565b60e087015190614254565b6001600160801b03166133cf6133c4876080015160801c90565b60a088015190614254565b6001600160801b031610156133ff576133fa6133ef866080015160801c90565b60a087015190614254565b613410565b61341061339f8660c0015160801c90565b60808601519092506134229083613c7a565b9050806001600160801b0316855f01516001600160801b031611156134d45780855f018181516134529190614d23565b6001600160801b031690525060c085015161346d9083613c7a565b8560200181815161347e9190614cc0565b6001600160801b039081169091526080878101516134a993509184169085901b17614283565b614283565b608086015260c08501516134ca906134c584610ee58382613c7a565b6142a9565b60c0860152613554565b845160808601516134e49161422c565b60c08601519092506134f69083613c7a565b856020018181516135079190614cc0565b6001600160801b03908116909152608087810151885161352f94509092169085901b17614283565b608086015260c085015161354b906134c584610ee58382613c7a565b60c08601525f85525b81856060018181516135669190614cc0565b6001600160801b0316905250613362565b84516001600160801b03161561360657845160a08601516135ac916001600160801b031661271060c59290921c607f16020490565b856040018181516135bd9190614d23565b6001600160801b03908116909152865160a08801516135ea9350911661271060c59290921c607f16020490565b855186906135f9908390614cc0565b6001600160801b03169052505b50929392505050565b60048301829055600683015461362990608083901b612e2a565b8360060181905550505050565b5f6001600160a01b038416613672575f805f8085875af190508061366d57604051633d2cec6f60e21b815260040160405180910390fd5b612e24565b60405163a9059cbb60e01b5f52836004528260245260205f60445f80895af13d15601f3d1160015f511416171691505f606052806040525080612e2457604051633c9fd93960e21b815260040160405180910390fd5b5f6001600160a01b0385166136fc578134146136f757604051633d2cec6f60e21b815260040160405180910390fd5b613766565b6040516323b872dd60e01b81526001600160a01b03851660048201526001600160a01b038416602482015282604482015260205f6064835f8a5af13d15601f3d1160015f51141617169150508061376657604051633c9fd93960e21b815260040160405180910390fd5b5050505050565b60038601546001600160801b03165f03613785578486555b831561379357600186018490555b6137a1866002015484612e2a565b600287015560038601546137b59083612e2a565b6003870155831561323c576137ce866004015482612e2a565b6004870155505050505050565b5f806137eb876003015460801c90565b6138146137f9896003015490565b6130bb61380a8d6006015460801c90565b60058e0154610ee5565b61381e9190614d23565b60068a0154909150613839906001600160801b038316612e2a565b60068a015561384d8982868989885f6142cf565b5f61385c886004015460801c90565b61386a6137f98a6004015490565b6138749190614d23565b60068a015490915061388f906001600160801b038316612e2a565b60068a01556138a38982878a8a895f6142cf565b6001600160801b038116608083901b1792506138bf888461467d565b5050979650505050505050565b60408051610100810182525f80825260208201819052918101829052606081018290526080810182905260a0810182905260c0810182905260e081019190915261391f83608001518460c0015184613b4d565b1561392b57508161070d565b825160e08401515f918291613954916001600160801b031661271060cc9290921c607f16020490565b6001600160801b031660408601525b84516001600160801b03161580159061398a575061398a85608001518660c0015186613b4d565b15613606576139a061339f8660c0015160801c90565b6001600160801b03166139ba6133c4876080015160801c90565b6001600160801b031610156139df576139da6133ef866080015160801c90565b6139f0565b6139f061339f8660c0015160801c90565b60c0860151909250613a029083613c7a565b9050806001600160801b0316855f01516001600160801b03161115613aaa5780855f01818151613a329190614d23565b6001600160801b03169052506080850151613a4d9083613c7a565b85602001818151613a5e9190614cc0565b6001600160801b0390811690915260c0870151613a849250908316608085901b176142a9565b60c08601526080850151613aa0906134a484610ee58382613c7a565b6080860152613b2a565b845160c0860151613aba9161422c565b6080860151909250613acc9083613c7a565b85602001818151613add9190614cc0565b6001600160801b0390811690915260c08701518751613b059350909116608085901b176142a9565b60c08601526080850151613b21906134a484610ee58382613c7a565b60808601525f85525b8185606001818151613b3c9190614cc0565b6001600160801b0316905250613963565b5f613b588260801c90565b6001600160801b0316613b6b8460801c90565b6001600160801b0316856001600160801b0316613b889190614e2a565b613b929190614e2a565b826001600160801b0316846001600160801b0316613bb08760801c90565b6001600160801b0316613bc39190614e2a565b613bcd9190614e2a565b1161170a575f6111c5565b8354600160e01b1615612e24576003840154600480860154604051632023707d60e01b81526001600160a01b0393841692810192909252602482018590526044820152828216606482015290841690632023707d906084015b6020604051808303815f875af1158015613c4d573d5f803e3d5ffd5b505050506040513d601f19601f82011682018060405250810190613c719190614d56565b15612e24575f80fd5b5f61170e836001600160801b0316836001600160801b0316613c9c8660801c90565b6001600160801b03166146b3565b604080516060810182525f8082526020820181905291810191909152604080516060810182525f80825260208201819052918101919091525f613d05845f01516130bb613cfb886002015460801c90565b6003890154610ee5565b90506040518060600160405280613d34865f01516130bb613d2a8c6006015460801c90565b60058d0154610ee5565b6001600160801b03168152602001613d64865f01516130bb613d5a8a6003015460801c90565b60038b0154610ee5565b6001600160801b0390811682528651166020909101528754909350600160ff1b16151580613d9857508554600160ff1b1615155b8015613dcd5750613db8613db0886004015460801c90565b8854906146c4565b6001600160801b0316816001600160801b0316105b8015613dfa5750613de2613db0886004015490565b6001600160801b0316845f01516001600160801b0316105b613e385760405162461bcd60e51b8152600401613e2f906020808252600490820152634730313160e01b604082015260600190565b60405180910390fd5b60048701546040840151613e5b91906001600160801b0316608084901b176146e8565b600488015560058701546040840151613e8391906001600160801b0316608084901b176146e8565b6005880155600687015483516020850151613ead929160801b6001600160801b03909116176146e8565b6006880155613ebc858261470e565b60208301518351613ecd9190614d23565b6001600160801b03908116845260408401518854613ef99290911661271060d39290921c603f16020490565b6001600160801b03166020808501829052845160608701519187015160408089015160808a015191890151613f3c968e96949391613f379190614d23565b6142cf565b60208301516001600160801b031615613f6c5760068701546020840151613f66919060801b612e2a565b60068801555b6001850154156141ad576040518060600160405280613fa0836130bb613f968b6006015460801c90565b60058c0154610ee5565b6001600160801b03168152602001613fcd836130bb613fc38a6004015460801c90565b60048b0154610ee5565b6001600160801b03168152602001613ff683613ff0613fc38a6002015460801c90565b90613c7a565b6001600160801b0316815250915061401d614015876004015460801c90565b8754906146c4565b6001600160801b0316816001600160801b031610801561405f5750614046614015876004015490565b6001600160801b031682604001516001600160801b0316105b6140945760405162461bcd60e51b8152600401613e2f906020808252600490820152632398189960e11b604082015260600190565b600486015460408301516140b791906001600160801b0316608084901b176146e8565b6004870155600586015460408301516140df91906001600160801b0316608084901b176146e8565b6005870155600686015482516020840151614109929160801b6001600160801b03909116176146e8565b60068701556020820151825161411f9190614d23565b6001600160801b0390811683526040830151875461414b9290911661271060d39290921c603f16020490565b6001600160801b0316602083018190521561417d5760068601546020830151614177919060801b612e2a565b60068701555b6141ad86835f0151866060015187602001518860400151896080015188602001518960400151613f379190614d23565b9450945094915050565b8354600160df1b1615612e2457600384015460048086015460405162d687e960e01b81526001600160a01b039384169281019290925260248201859052604482015282821660648201529084169062d687e990608401613c31565b5f6001600160801b03821115614228575f61070d565b5090565b5f61170e61423a8460801c90565b6001600160801b0316836001600160801b0316613c9c8690565b5f6103ff60bb84901c1680820361426e578291505061070d565b614279816040614cfa565b6111c59084614e41565b5f608082811d9084901d036001600160801b0383811690851601612e59612e5083614212565b5f608082811d9084901d016001600160801b0383811690851603612e59612e5083614212565b60646001600160801b03871660dd87901c601f1602046142ef8188614d23565b965060646001600160801b03881660fa88901c81028290049160f489901c603f90811683028290049260ee8b901c821681028390049260e88c901c831682028190049260e28d901c16909102046001600160a01b03891661447857614390336143588988614cc0565b6001600160801b03168f6002015f9054906101000a90046001600160a01b03166001600160a01b03166136369092919063ffffffff16565b61439a8185614cc0565b6001600160a01b038b165f90815260078f016020526040812080549091906143cc9084906001600160801b0316614cc0565b92506101000a8154816001600160801b0302191690836001600160801b03160217905550858185878f6143ff9190614d23565b6144099190614d23565b6144139190614d23565b61441d9190614cc0565b6001600160a01b0389165f90815260078f0160205260408120805490919061444f9084906001600160801b0316614cc0565b92506101000a8154816001600160801b0302191690836001600160801b0316021790555061466e565b60018d01546001600160a01b038981169116146144ee5760018d01546001600160a01b03165f90815260078e016020526040812080548692906144c59084906001600160801b0316614cc0565b92506101000a8154816001600160801b0302191690836001600160801b031602179055506144fb565b6144f88487614cc0565b95505b876001600160a01b03168a6001600160a01b03161461456f576001600160a01b038a165f90815260078e016020526040812080548592906145469084906001600160801b0316614cc0565b92506101000a8154816001600160801b0302191690836001600160801b0316021790555061457c565b6145798387614cc0565b95505b876001600160a01b0316896001600160a01b0316146145f0576001600160a01b0389165f90815260078e016020526040812080548492906145c79084906001600160801b0316614cc0565b92506101000a8154816001600160801b0302191690836001600160801b031602179055506145fd565b6145fa8287614cc0565b95505b6001600160a01b0388165f90815260078e0160205260408120805488929061462f9084906001600160801b0316614cc0565b92506101000a8154816001600160801b0302191690836001600160801b0316021790555061466e338883886146649190614cc0565b6143589190614cc0565b50505050505050505050505050565b6146928260030154610850611a1a8460801c90565b60038301556001820154156108be57612fd98260040154610850611a1a8490565b918102915f818404612e5981614212565b5f6103ff60b184901c168082036146de578291505061070d565b6111c58184614e41565b5f608082811d9084901d036001600160801b0383811690851603612e59612e5083614212565b5f614773614744614723856003015460801c90565b6001600160801b0316846001600160801b0316613c9c876002015460801c90565b610ee5614752866003015490565b6001600160801b0316856001600160801b0316613c9c886002015460801c90565b905082600101545f146147db575f6147c4614795614752866004015460801c90565b610ee56147a3876004015490565b6001600160801b0316866001600160801b0316613c9c896002015460801c90565b90506147d48460040154826146e8565b6004850155505b6147e98360030154826146e8565b6003840155600283015461480190608084901b6146e8565b8360020181905550505050565b6001600160a01b0381168114614822575f80fd5b50565b5f805f60608486031215614837575f80fd5b8335925060208401356148498161480e565b929592945050506040919091013590565b5f806040838503121561486b575f80fd5b50508035926020909101359150565b6001600160801b0381168114614822575f80fd5b5f806040838503121561489f575f80fd5b8235915060208301356148b18161487a565b809150509250929050565b5f805f606084860312156148ce575f80fd5b8335925060208401356148e08161480e565b915060408401356148f08161480e565b809150509250925092565b5f6020828403121561490b575f80fd5b813561170e8161480e565b5f8060408385031215614927575f80fd5b8235915060208301356148b18161480e565b5f60208284031215614949575f80fd5b5035919050565b5f805f8060808587031215614963575f80fd5b8435935060208501359250604085013561497c8161480e565b9396929550929360600135925050565b8015158114614822575f80fd5b5f805f805f8060c087890312156149ae575f80fd5b863595506020870135945060408701356149c78161487a565b93506060870135925060808701356149de8161498c565b915060a08701356149ee8161480e565b809150509295509295509295565b634e487b7160e01b5f52604160045260245ffd5b5f82601f830112614a1f575f80fd5b813567ffffffffffffffff811115614a3957614a396149fc565b8060051b604051601f19603f830116810181811067ffffffffffffffff82111715614a6657614a666149fc565b604052918252602081850181019290810186841115614a83575f80fd5b6020860192505b83831015614aa2578235815260209283019201614a8a565b5095945050505050565b5f8060408385031215614abd575f80fd5b823567ffffffffffffffff811115614ad3575f80fd5b614adf85828601614a10565b92505060208301356148b18161480e565b5f8151808452602084019350602083015f5b82811015614b20578151865260209586019590910190600101614b02565b5093949350505050565b602081525f61170e6020830184614af0565b5f805f60608486031215614b4e575f80fd5b833592506020840135915060408401356148f08161480e565b5f805f60608486031215614b79575f80fd5b8335614b848161480e565b95602085013595506040909401359392505050565b5f805f805f60a08688031215614bad575f80fd5b85359450602086013593506040860135614bc68161487a565b9250606086013591506080860135614bdd8161480e565b809150509295509295909350565b5f805f60608486031215614bfd575f80fd5b505081359360208301359350604090920135919050565b5f805f60608486031215614c26575f80fd5b833592506020840135915060408401356148f08161487a565b5f805f60608486031215614c51575f80fd5b8335925060208401356148e08161487a565b5f60208284031215614c73575f80fd5b813567ffffffffffffffff811115614c89575f80fd5b6111c584828501614a10565b5f60208284031215614ca5575f80fd5b5051919050565b634e487b7160e01b5f52601160045260245ffd5b6001600160801b03818116838216019081111561070d5761070d614cac565b5f60208284031215614cef575f80fd5b815161170e8161480e565b6001600160801b038181168382160290811690818114614d1c57614d1c614cac565b5092915050565b6001600160801b03828116828216039081111561070d5761070d614cac565b634e487b7160e01b5f52603260045260245ffd5b5f60208284031215614d66575f80fd5b815161170e8161498c565b5f8060408385031215614d82575f80fd5b8251614d8d8161480e565b60208401519092506148b18161480e565b8181038181111561070d5761070d614cac565b604081525f614dc36040830185614af0565b8281036020840152612e598185614af0565b634e487b7160e01b5f52601260045260245ffd5b5f82614df757614df7614dd5565b500690565b8082018082111561070d5761070d614cac565b5f60208284031215614e1f575f80fd5b815161170e8161487a565b808202811582820484141761070d5761070d614cac565b5f6001600160801b03831680614e5957614e59614dd5565b806001600160801b038416049150509291505056fea264697066735822122095f992c63549a5894874819112206530b1d1f3875de8f09bf85038211286d4f564736f6c634300081a0033","linkReferences":{}},"methodIdentifiers":{"addbanlist(address)":"b153b920","banlist(address)":"2973ada7","buyGood(uint256,uint256,uint128,uint256,bool,address)":"578496ab","buyGoodForPay(uint256,uint256,uint128,uint256,address)":"a7e11697","changeGoodOwner(uint256,address)":"2a7c5a91","collectCommission(uint256[])":"f88c3010","collectProof(uint256,address)":"a676a600","delproofdata(uint256,address,address)":"1faa5a56","disinvestProof(uint256,uint128,address)":"f4662f20","getGoodState(uint256)":"a6f6a980","getProofState(uint256)":"3f117740","goodWelfare(uint256,uint128)":"18ad50d1","initGood(uint256,uint256,address,uint256)":"4ffef907","initMetaGood(address,uint256,uint256)":"97924ead","investGood(uint256,uint256,uint128)":"f44733ad","ishigher(uint256,uint256,uint256)":"a7fed925","marketconfig()":"402f5ab5","modifyGoodConfig(uint256,uint256)":"0e21a1ac","payGood(uint256,uint256,address)":"920acbb8","proofmapping(uint256)":"5e008cc4","queryCommission(uint256[],address)":"6ff73c8e","removebanlist(address)":"9551177a","setGoodTrigger(uint256,address,uint256)":"06e27369","setMarketConfig(uint256)":"45818e4c","updateGoodConfig(uint256,uint256)":"144aeb83"},"id":55}