{"abi":[{"type":"constructor","inputs":[{"name":"_usdt","type":"address","internalType":"address"},{"name":"_dao_admin","type":"address","internalType":"address"},{"name":"_ttsconfig","type":"uint256","internalType":"uint256"}],"stateMutability":"nonpayable"},{"type":"function","name":"DOMAIN_SEPARATOR","inputs":[],"outputs":[{"name":"","type":"bytes32","internalType":"bytes32"}],"stateMutability":"view"},{"type":"function","name":"addShare","inputs":[{"name":"_share","type":"tuple","internalType":"struct s_share","components":[{"name":"recipient","type":"address","internalType":"address"},{"name":"leftamount","type":"uint128","internalType":"uint128"},{"name":"metric","type":"uint120","internalType":"uint120"},{"name":"chips","type":"uint8","internalType":"uint8"}]}],"outputs":[],"stateMutability":"nonpayable"},{"type":"function","name":"addauths","inputs":[{"name":"_auths","type":"address","internalType":"address"},{"name":"_priv","type":"uint256","internalType":"uint256"}],"outputs":[],"stateMutability":"nonpayable"},{"type":"function","name":"addreferral","inputs":[{"name":"user","type":"address","internalType":"address"},{"name":"referral","type":"address","internalType":"address"}],"outputs":[],"stateMutability":"nonpayable"},{"type":"function","name":"allowance","inputs":[{"name":"owner","type":"address","internalType":"address"},{"name":"spender","type":"address","internalType":"address"}],"outputs":[{"name":"","type":"uint256","internalType":"uint256"}],"stateMutability":"view"},{"type":"function","name":"approve","inputs":[{"name":"spender","type":"address","internalType":"address"},{"name":"amount","type":"uint256","internalType":"uint256"}],"outputs":[{"name":"","type":"bool","internalType":"bool"}],"stateMutability":"nonpayable"},{"type":"function","name":"auths","inputs":[{"name":"","type":"address","internalType":"address"}],"outputs":[{"name":"","type":"uint256","internalType":"uint256"}],"stateMutability":"view"},{"type":"function","name":"balanceOf","inputs":[{"name":"account","type":"address","internalType":"address"}],"outputs":[{"name":"","type":"uint256","internalType":"uint256"}],"stateMutability":"view"},{"type":"function","name":"burn","inputs":[{"name":"account","type":"address","internalType":"address"},{"name":"value","type":"uint256","internalType":"uint256"}],"outputs":[],"stateMutability":"nonpayable"},{"type":"function","name":"burnShare","inputs":[{"name":"index","type":"uint8","internalType":"uint8"}],"outputs":[],"stateMutability":"nonpayable"},{"type":"function","name":"chain_deposit","inputs":[{"name":"chainid","type":"uint32","internalType":"uint32"},{"name":"asset","type":"uint128","internalType":"uint128"}],"outputs":[],"stateMutability":"nonpayable"},{"type":"function","name":"chain_withdraw","inputs":[{"name":"chainid","type":"uint32","internalType":"uint32"},{"name":"asset","type":"uint128","internalType":"uint128"}],"outputs":[],"stateMutability":"nonpayable"},{"type":"function","name":"chainindex","inputs":[],"outputs":[{"name":"","type":"uint32","internalType":"uint32"}],"stateMutability":"view"},{"type":"function","name":"chains","inputs":[{"name":"","type":"uint32","internalType":"uint32"}],"outputs":[{"name":"asset","type":"uint256","internalType":"uint256"},{"name":"proofstate","type":"uint256","internalType":"uint256"},{"name":"recipient","type":"address","internalType":"address"}],"stateMutability":"view"},{"type":"function","name":"changeDAOAdmin","inputs":[{"name":"_recipient","type":"address","internalType":"address"}],"outputs":[],"stateMutability":"nonpayable"},{"type":"function","name":"dao_admin","inputs":[],"outputs":[{"name":"","type":"address","internalType":"address"}],"stateMutability":"view"},{"type":"function","name":"decimals","inputs":[],"outputs":[{"name":"","type":"uint8","internalType":"uint8"}],"stateMutability":"pure"},{"type":"function","name":"decreaseAllowance","inputs":[{"name":"spender","type":"address","internalType":"address"},{"name":"subtractedValue","type":"uint256","internalType":"uint256"}],"outputs":[{"name":"","type":"bool","internalType":"bool"}],"stateMutability":"nonpayable"},{"type":"function","name":"eip712Domain","inputs":[],"outputs":[{"name":"fields","type":"bytes1","internalType":"bytes1"},{"name":"name","type":"string","internalType":"string"},{"name":"version","type":"string","internalType":"string"},{"name":"chainId","type":"uint256","internalType":"uint256"},{"name":"verifyingContract","type":"address","internalType":"address"},{"name":"salt","type":"bytes32","internalType":"bytes32"},{"name":"extensions","type":"uint256[]","internalType":"uint256[]"}],"stateMutability":"view"},{"type":"function","name":"getreferralanddaoadmin","inputs":[{"name":"_customer","type":"address","internalType":"address"}],"outputs":[{"name":"","type":"address","internalType":"address"},{"name":"","type":"address","internalType":"address"}],"stateMutability":"view"},{"type":"function","name":"increaseAllowance","inputs":[{"name":"spender","type":"address","internalType":"address"},{"name":"addedValue","type":"uint256","internalType":"uint256"}],"outputs":[{"name":"","type":"bool","internalType":"bool"}],"stateMutability":"nonpayable"},{"type":"function","name":"left_share","inputs":[],"outputs":[{"name":"","type":"uint128","internalType":"uint128"}],"stateMutability":"view"},{"type":"function","name":"marketcontract","inputs":[],"outputs":[{"name":"","type":"address","internalType":"address"}],"stateMutability":"view"},{"type":"function","name":"name","inputs":[],"outputs":[{"name":"","type":"string","internalType":"string"}],"stateMutability":"view"},{"type":"function","name":"nonces","inputs":[{"name":"owner","type":"address","internalType":"address"}],"outputs":[{"name":"","type":"uint256","internalType":"uint256"}],"stateMutability":"view"},{"type":"function","name":"normalgoodid","inputs":[],"outputs":[{"name":"","type":"address","internalType":"address"}],"stateMutability":"view"},{"type":"function","name":"permit","inputs":[{"name":"owner","type":"address","internalType":"address"},{"name":"spender","type":"address","internalType":"address"},{"name":"value","type":"uint256","internalType":"uint256"},{"name":"deadline","type":"uint256","internalType":"uint256"},{"name":"v","type":"uint8","internalType":"uint8"},{"name":"r","type":"bytes32","internalType":"bytes32"},{"name":"s","type":"bytes32","internalType":"bytes32"}],"outputs":[],"stateMutability":"nonpayable"},{"type":"function","name":"poolstate","inputs":[],"outputs":[{"name":"","type":"uint256","internalType":"uint256"}],"stateMutability":"view"},{"type":"function","name":"public_Sell","inputs":[{"name":"usdtamount","type":"uint256","internalType":"uint256"}],"outputs":[],"stateMutability":"nonpayable"},{"type":"function","name":"publicsell","inputs":[],"outputs":[{"name":"","type":"uint128","internalType":"uint128"}],"stateMutability":"view"},{"type":"function","name":"referrals","inputs":[{"name":"","type":"address","internalType":"address"}],"outputs":[{"name":"","type":"address","internalType":"address"}],"stateMutability":"view"},{"type":"function","name":"rmauths","inputs":[{"name":"_auths","type":"address","internalType":"address"}],"outputs":[],"stateMutability":"nonpayable"},{"type":"function","name":"setEnv","inputs":[{"name":"_normalgoodid","type":"address","internalType":"address"},{"name":"_valuegoodid","type":"address","internalType":"address"},{"name":"_marketcontract","type":"address","internalType":"address"}],"outputs":[],"stateMutability":"nonpayable"},{"type":"function","name":"shareMint","inputs":[{"name":"index","type":"uint8","internalType":"uint8"}],"outputs":[],"stateMutability":"nonpayable"},{"type":"function","name":"shares","inputs":[{"name":"","type":"uint32","internalType":"uint32"}],"outputs":[{"name":"recipient","type":"address","internalType":"address"},{"name":"leftamount","type":"uint128","internalType":"uint128"},{"name":"metric","type":"uint120","internalType":"uint120"},{"name":"chips","type":"uint8","internalType":"uint8"}],"stateMutability":"view"},{"type":"function","name":"shares_index","inputs":[],"outputs":[{"name":"","type":"uint32","internalType":"uint32"}],"stateMutability":"view"},{"type":"function","name":"stake","inputs":[{"name":"_staker","type":"address","internalType":"address"},{"name":"proofvalue","type":"uint128","internalType":"uint128"}],"outputs":[{"name":"netconstruct","type":"uint128","internalType":"uint128"}],"stateMutability":"nonpayable"},{"type":"function","name":"stakeproof","inputs":[{"name":"","type":"uint256","internalType":"uint256"}],"outputs":[{"name":"fromcontract","type":"address","internalType":"address"},{"name":"proofstate","type":"uint256","internalType":"uint256"}],"stateMutability":"view"},{"type":"function","name":"stakestate","inputs":[],"outputs":[{"name":"","type":"uint256","internalType":"uint256"}],"stateMutability":"view"},{"type":"function","name":"subchainDeposit","inputs":[{"name":"asset","type":"uint128","internalType":"uint128"},{"name":"recipient","type":"address","internalType":"address"}],"outputs":[],"stateMutability":"nonpayable"},{"type":"function","name":"subchainWithdraw","inputs":[{"name":"asset","type":"uint128","internalType":"uint128"},{"name":"recipient","type":"address","internalType":"address"}],"outputs":[],"stateMutability":"nonpayable"},{"type":"function","name":"symbol","inputs":[],"outputs":[{"name":"","type":"string","internalType":"string"}],"stateMutability":"view"},{"type":"function","name":"syncChainStake","inputs":[{"name":"chainid","type":"uint32","internalType":"uint32"},{"name":"chainvalue","type":"uint128","internalType":"uint128"}],"outputs":[{"name":"poolasset","type":"uint128","internalType":"uint128"}],"stateMutability":"nonpayable"},{"type":"function","name":"syncPoolAsset","inputs":[{"name":"amount","type":"uint128","internalType":"uint128"}],"outputs":[],"stateMutability":"nonpayable"},{"type":"function","name":"totalSupply","inputs":[],"outputs":[{"name":"","type":"uint256","internalType":"uint256"}],"stateMutability":"view"},{"type":"function","name":"transfer","inputs":[{"name":"to","type":"address","internalType":"address"},{"name":"amount","type":"uint256","internalType":"uint256"}],"outputs":[{"name":"","type":"bool","internalType":"bool"}],"stateMutability":"nonpayable"},{"type":"function","name":"transferFrom","inputs":[{"name":"from","type":"address","internalType":"address"},{"name":"to","type":"address","internalType":"address"},{"name":"amount","type":"uint256","internalType":"uint256"}],"outputs":[{"name":"","type":"bool","internalType":"bool"}],"stateMutability":"nonpayable"},{"type":"function","name":"ttstokenconfig","inputs":[],"outputs":[{"name":"","type":"uint256","internalType":"uint256"}],"stateMutability":"view"},{"type":"function","name":"unstake","inputs":[{"name":"_staker","type":"address","internalType":"address"},{"name":"proofvalue","type":"uint128","internalType":"uint128"}],"outputs":[],"stateMutability":"nonpayable"},{"type":"function","name":"usdt","inputs":[],"outputs":[{"name":"","type":"address","internalType":"address"}],"stateMutability":"view"},{"type":"function","name":"valuegoodid","inputs":[],"outputs":[{"name":"","type":"address","internalType":"address"}],"stateMutability":"view"},{"type":"function","name":"withdrawPublicSell","inputs":[{"name":"amount","type":"uint256","internalType":"uint256"},{"name":"recipient","type":"address","internalType":"address"}],"outputs":[],"stateMutability":"nonpayable"},{"type":"event","name":"Approval","inputs":[{"name":"owner","type":"address","indexed":true,"internalType":"address"},{"name":"spender","type":"address","indexed":true,"internalType":"address"},{"name":"value","type":"uint256","indexed":false,"internalType":"uint256"}],"anonymous":false},{"type":"event","name":"EIP712DomainChanged","inputs":[],"anonymous":false},{"type":"event","name":"Transfer","inputs":[{"name":"from","type":"address","indexed":true,"internalType":"address"},{"name":"to","type":"address","indexed":true,"internalType":"address"},{"name":"value","type":"uint256","indexed":false,"internalType":"uint256"}],"anonymous":false},{"type":"event","name":"e_addShare","inputs":[{"name":"recipient","type":"address","indexed":false,"internalType":"address"},{"name":"leftamount","type":"uint256","indexed":false,"internalType":"uint256"},{"name":"metric","type":"uint120","indexed":false,"internalType":"uint120"},{"name":"chips","type":"uint8","indexed":false,"internalType":"uint8"},{"name":"index","type":"uint32","indexed":false,"internalType":"uint32"}],"anonymous":false},{"type":"event","name":"e_addauths","inputs":[{"name":"auths","type":"address","indexed":false,"internalType":"address"},{"name":"priv","type":"uint256","indexed":false,"internalType":"uint256"}],"anonymous":false},{"type":"event","name":"e_addreferral","inputs":[{"name":"users","type":"address","indexed":false,"internalType":"address"},{"name":"referral","type":"address","indexed":false,"internalType":"address"}],"anonymous":false},{"type":"event","name":"e_burnShare","inputs":[{"name":"index","type":"uint32","indexed":false,"internalType":"uint32"}],"anonymous":false},{"type":"event","name":"e_publicsell","inputs":[{"name":"usdtamount","type":"uint256","indexed":false,"internalType":"uint256"},{"name":"ttsamount","type":"uint256","indexed":false,"internalType":"uint256"}],"anonymous":false},{"type":"event","name":"e_rmauths","inputs":[{"name":"auths","type":"address","indexed":false,"internalType":"address"}],"anonymous":false},{"type":"event","name":"e_setdaoadmin","inputs":[{"name":"recipient","type":"address","indexed":false,"internalType":"address"}],"anonymous":false},{"type":"event","name":"e_setenv","inputs":[{"name":"normalgoodid","type":"address","indexed":false,"internalType":"address"},{"name":"valuegoodid","type":"address","indexed":false,"internalType":"address"},{"name":"marketcontract","type":"address","indexed":false,"internalType":"address"}],"anonymous":false},{"type":"event","name":"e_shareMint","inputs":[{"name":"mintamount","type":"uint128","indexed":false,"internalType":"uint128"},{"name":"index","type":"uint32","indexed":false,"internalType":"uint32"}],"anonymous":false},{"type":"event","name":"e_syncChainStake","inputs":[{"name":"chain","type":"uint32","indexed":false,"internalType":"uint32"},{"name":"poolasset","type":"uint128","indexed":false,"internalType":"uint128"},{"name":"proofstate","type":"uint256","indexed":false,"internalType":"uint256"}],"anonymous":false},{"type":"event","name":"e_unstake","inputs":[{"name":"recipient","type":"address","indexed":false,"internalType":"address"},{"name":"proofvalue","type":"uint256","indexed":false,"internalType":"uint256"},{"name":"unstakestate","type":"uint256","indexed":false,"internalType":"uint256"},{"name":"stakestate","type":"uint256","indexed":false,"internalType":"uint256"},{"name":"poolstate","type":"uint256","indexed":false,"internalType":"uint256"}],"anonymous":false},{"type":"event","name":"e_updatepool","inputs":[{"name":"poolstate","type":"uint256","indexed":false,"internalType":"uint256"}],"anonymous":false},{"type":"error","name":"InvalidShortString","inputs":[]},{"type":"error","name":"StringTooLong","inputs":[{"name":"str","type":"string","internalType":"string"}]}],"bytecode":{"object":"0x610180604052601380546001600160801b0319166601c6bf52634000179055348015610029575f80fd5b506040516139df3803806139df83398101604081905261004891610274565b6040518060400160405280600c81526020016b2a2a29bbb0b8102a37b5b2b760a11b81525080604051806040016040528060018152602001603160f81b8152506040518060400160405280600c81526020016b2a2a29bbb0b8102a37b5b2b760a11b8152506040518060400160405280600381526020016254545360e81b81525081600390816100d89190610345565b5060046100e58282610345565b506100f5915083905060056101e1565b610120526101048160066101e1565b61014052815160208084019190912060e052815190820120610100524660a05261019060e05161010051604080517f8b73c3c69bb8fe3d512ecc4cf759cc79239f7b179b0ffacaa9a75d522b39400f60208201529081019290925260608201524660808201523060a08201525f9060c00160405160208183030381529060405280519060200120905090565b60809081523060c0526001600160a01b0387166101605242901b92506101b4915050565b600b55601180546001600160a01b0319166001600160a01b03939093169290921790915560095550610457565b5f6020835110156101fc576101f583610213565b905061020d565b816102078482610345565b5060ff90505b92915050565b5f80829050601f81511115610246578260405163305a27a960e01b815260040161023d91906103ff565b60405180910390fd5b805161025182610434565b179392505050565b80516001600160a01b038116811461026f575f80fd5b919050565b5f805f60608486031215610286575f80fd5b61028f84610259565b925061029d60208501610259565b9150604084015190509250925092565b634e487b7160e01b5f52604160045260245ffd5b600181811c908216806102d557607f821691505b6020821081036102f357634e487b7160e01b5f52602260045260245ffd5b50919050565b601f82111561034057805f5260205f20601f840160051c8101602085101561031e5750805b601f840160051c820191505b8181101561033d575f815560010161032a565b50505b505050565b81516001600160401b0381111561035e5761035e6102ad565b6103728161036c84546102c1565b846102f9565b6020601f8211600181146103a4575f831561038d5750848201515b5f19600385901b1c1916600184901b17845561033d565b5f84815260208120601f198516915b828110156103d357878501518255602094850194600190920191016103b3565b50848210156103f057868401515f19600387901b60f8161c191681555b50505050600190811b01905550565b602081525f82518060208401528060208501604085015e5f604082850101526040601f19601f83011684010191505092915050565b805160208083015191908110156102f3575f1960209190910360031b1b16919050565b60805160a05160c05160e0516101005161012051610140516101605161351f6104c05f395f8181610488015281816113130152611fc001525f61184e01525f61182301525f61295201525f61292a01525f61288501525f6128af01525f6128d9015261351f5ff3fe608060405234801561000f575f80fd5b506004361061033b575f3560e01c806370a08231116101b3578063a9059cbb116100f3578063dd62ed3e1161009e578063e7b43e7d11610079578063e7b43e7d146108dd578063eca93cce146108f0578063f35da46214610903578063fa82add514610916575f80fd5b8063dd62ed3e14610878578063de5712d4146108b0578063df876548146108ca575f80fd5b8063cae97640116100ce578063cae9764014610849578063cd993b1114610852578063d505accf14610865575f80fd5b8063a9059cbb146107d0578063b88e6d63146107e3578063c3bb7fff14610836575f80fd5b80638b203dd41161015e5780639ca423b3116101395780639ca423b31461076f5780639dc29fac14610797578063a457c2d7146107aa578063a538e6a9146107bd575f80fd5b80638b203dd4146106f95780639241bda61461075457806395d89b4114610767575f80fd5b80638378e5631161018e5780638378e563146106a9578063845fcee4146106d557806384b0196e146106de575f80fd5b806370a082311461065b5780637bd3ca35146106835780637ecebe0014610696575f80fd5b80633644e5151161027e578063542128dd11610229578063696bb4ad11610204578063696bb4ad1461056e57806369a5ac321461059a5780636c0deba1146105ad5780636f55aece146105c0575f80fd5b8063542128dd14610533578063623059a51461054657806364e72dbd1461054f575f80fd5b80633cba316b116102595780633cba316b146104fa57806345fda7071461050d57806347036e7514610520575f80fd5b80633644e515146104cc57806339509351146104d45780633b107e21146104e7575f80fd5b806318160ddd116102e95780632bf960da116102c45780632bf960da146104705780632f48ab7d1461048357806330fd6b29146104aa578063313ce567146104bd575f80fd5b806318160ddd1461042057806319f8d5b41461043257806323b872dd1461045d575f80fd5b806306fdde031161031957806306fdde03146103d5578063095ea7b3146103ea5780630a4273e61461040d575f80fd5b806301bddf1b1461033f57806302517e8b1461035457806306afa12a14610384575b5f80fd5b61035261034d366004612dbe565b610929565b005b600f54610367906001600160a01b031681565b6040516001600160a01b0390911681526020015b60405180910390f35b6103b6610392366004612df3565b600d6020525f9081526040902080546001909101546001600160a01b039091169082565b604080516001600160a01b03909316835260208301919091520161037b565b6103dd6109ed565b60405161037b9190612e38565b6103fd6103f8366004612e5e565b610a7d565b604051901515815260200161037b565b61035261041b366004612e88565b610a96565b6002545b60405190815260200161037b565b610445610440366004612eb4565b610adb565b6040516001600160801b03909116815260200161037b565b6103fd61046b366004612ed0565b610c0a565b601254610367906001600160a01b031681565b6103677f000000000000000000000000000000000000000000000000000000000000000081565b6104456104b8366004612dbe565b610c2d565b6040516006815260200161037b565b610424610fa9565b6103fd6104e2366004612e5e565b610fb7565b6103526104f5366004612f0e565b610ff5565b610352610508366004612f27565b6111e3565b601354610445906001600160801b031681565b61035261052e366004612df3565b611250565b610352610541366004612e5e565b6114c4565b61042460095481565b61042461055d366004612f27565b60156020525f908152604090205481565b60125461058590600160a01b900463ffffffff1681565b60405163ffffffff909116815260200161037b565b6103526105a8366004612f27565b611533565b6103526105bb366004612f42565b61159d565b6106186105ce366004612f5d565b600a6020525f9081526040902080546001909101546001600160a01b03909116906001600160801b03811690600160801b81046001600160781b031690600160f81b900460ff1684565b604080516001600160a01b0390951685526001600160801b0390931660208501526001600160781b039091169183019190915260ff16606082015260800161037b565b610424610669366004612f27565b6001600160a01b03165f9081526020819052604090205490565b610352610691366004612eb4565b6115e2565b6104246106a4366004612f27565b6117f9565b601254610585907801000000000000000000000000000000000000000000000000900463ffffffff1681565b610424600c5481565b6106e6611816565b60405161037b9796959493929190612f76565b610730610707366004612f5d565b600e6020525f90815260409020805460018201546002909201549091906001600160a01b031683565b6040805193845260208401929092526001600160a01b03169082015260600161037b565b61035261076236600461301a565b61189d565b6103dd611993565b61036761077d366004612f27565b60146020525f90815260409020546001600160a01b031681565b6103526107a5366004612e5e565b6119a2565b6103fd6107b8366004612e5e565b6119ac565b601154610367906001600160a01b031681565b6103fd6107de366004612e5e565b611a5a565b6108166107f1366004612f27565b6011546001600160a01b039182165f9081526014602052604090205490821692911690565b604080516001600160a01b0393841681529290911660208301520161037b565b610352610844366004612dbe565b611a67565b610424600b5481565b610352610860366004612e88565b611b3e565b610352610873366004613035565b611b7f565b6104246108863660046130a1565b6001600160a01b039182165f90815260016020908152604080832093909416825291909152205490565b60135461044590600160801b90046001600160801b031681565b6103526108d836600461301a565b611ce0565b6103526108eb3660046130bd565b611f68565b6103526108fe3660046130a1565b61202f565b601054610367906001600160a01b031681565b6103526109243660046130e0565b6120ea565b61093460095461218d565b61093c575f80fd5b335f9081526015602052604090205460061480156109a1575063ffffffff82165f908152600e60205260409020600201546001600160a01b03163314806109a1575063ffffffff82165f908152600e60205260409020600201546001600160a01b0316155b6109a9575f80fd5b63ffffffff82165f908152600e60205260409020546109d190608083901b6121ab565b6121ab565b63ffffffff9092165f908152600e602052604090209190915550565b6060600380546109fc90613128565b80601f0160208091040260200160405190810160405280929190818152602001828054610a2890613128565b8015610a735780601f10610a4a57610100808354040283529160200191610a73565b820191905f5260205f20905b815481529060010190602001808311610a5657829003601f168201915b5050505050905090565b5f33610a8a8185856121e3565b60019150505b92915050565b610aa160095461218d565b15610aaa575f80fd5b335f90815260156020526040902054600614610ac4575f80fd5b610ad781836001600160801b0316612306565b5050565b335f90815260156020526040812054600114610af5575f80fd5b610afd612436565b604080516001600160a01b038516602080830191909152338284015282518083038401815260609092019092528051910120600c546001600160801b031615610b7b57610b76610b4c600c5490565b6001600160801b0316846001600160801b0316610b68600b5490565b6001600160801b0316612524565b610b7d565b5f5b600c54909250610b9c906001600160801b038416608085901b17612535565b600c55600b54610bb5906001600160801b038516612535565b600b555f818152600d6020526040902080546001600160a01b0319163317815560010154610bf290608085901b6001600160801b03851617612535565b5f918252600d60205260409091206001015592915050565b5f33610c1785828561255b565b610c228585856125eb565b506001949350505050565b5f610c3960095461218d565b610c41575f80fd5b335f908152601560205260409020546006148015610ca6575063ffffffff83165f908152600e60205260409020600201546001600160a01b0316331480610ca6575063ffffffff83165f908152600e60205260409020600201546001600160a01b0316155b610cae575f80fd5b5f8363ffffffff165f03610d9c576001601260188282829054906101000a900463ffffffff16610cde919061316e565b92506101000a81548163ffffffff021916908363ffffffff160217905550601260189054906101000a900463ffffffff169350610d20610b4c600c5460801c90565b600c54909150610d3f906001600160801b038316608084901b17612535565b600c55600b54610d58906001600160801b038516612535565b600b5563ffffffff84165f908152600e602052604090206001600160801b038216608085901b17600182015560020180546001600160a01b03191633179055610f41565b610de5610dab600c5460801c90565b63ffffffff86165f908152600e60205260409020600101546001600160801b03919091169060801c6001600160801b0316610b68600b5490565b600c5463ffffffff86165f908152600e6020526040902060010154919350610e21916109cc9085905b6001600160801b031660809190911b1790565b600c55600b5463ffffffff85165f908152600e6020526040812060010154610e5092916109cc9160801c610e0e565b600b5563ffffffff84165f908152600e602052604090206001015460801c610e78908361318a565b9150610e89610b4c600c5460801c90565b600c54909150610ea8906001600160801b038316608084901b17612535565b600c55600b54610ec1906001600160801b038516612535565b600b556001600160801b038116608084901b1763ffffffff85165f908152600e60205260409020600181019190915554610f0a906001600160801b038416608085901b17612535565b63ffffffff85165f908152600e6020526040902090815560020154610f41906001600160a01b03166001600160801b0384166127bc565b63ffffffff84165f818152600e60209081526040918290206001015482519384526001600160801b0386169184019190915282820152517f2dbd6c60950a71a3b42582ce495af627a70477170cea6ce5bbd4017f3e9308929181900360600190a15092915050565b5f610fb2612879565b905090565b335f8181526001602090815260408083206001600160a01b0387168452909152812054909190610a8a9082908690610ff09087906131a9565b6121e3565b61100060095461218d565b611008575f80fd5b5f6110196040830160208401612f42565b60135461102f91906001600160801b031661318a565b6001600160801b03161015801561105957506011546001600160a01b0316336001600160a01b0316145b611061575f80fd5b6110716040820160208301612f42565b6013805467ffffffffffffffff92909216915f906110999084906001600160801b031661318a565b92506101000a8154816001600160801b0302191690836001600160801b031602179055506001601260148282829054906101000a900463ffffffff166110df919061316e565b82546101009290920a63ffffffff818102199093169183160217909155601254600160a01b9004165f908152600a6020526040902082915061112182826131d0565b507f259b626a3ac57abbad46c244a9bc2a13c0b530c618e9654be9351bd104cffcae90506111526020830183612f27565b6111626040840160208501612f42565b61117260608501604086016132b7565b611182608086016060870161301a565b601254604080516001600160a01b0390961686526001600160801b0390941660208601526001600160781b039092169284019290925260ff9091166060830152600160a01b900463ffffffff16608082015260a0015b60405180910390a150565b6011546001600160a01b0316336001600160a01b031614611202575f80fd5b601180546001600160a01b0319166001600160a01b0383169081179091556040519081527f853baecd5c22fcf8a4d994474a066771c51cfe6022b046e92a09874610cd1281906020016111d8565b61125b60095461218d565b611263575f80fd5b80601360108282829054906101000a90046001600160801b031661128791906132d2565b92506101000a8154816001600160801b0302191690836001600160801b031602179055506112b3600690565b6112c39060ff16624c4b406132f1565b62ffffff16601360109054906101000a90046001600160801b03166001600160801b031611156112f1575f80fd5b6040516323b872dd60e01b8152336004820152306024820152604481018290527f00000000000000000000000000000000000000000000000000000000000000006001600160a01b0316906323b872dd906064016020604051808303815f875af1158015611361573d5f803e3d5ffd5b505050506040513d601f19601f820116820180604052508101906113859190613316565b156114c1575f6113996006621ab3f06132f1565b62ffffff16601360109054906101000a90046001600160801b03166001600160801b0316116113e9576113cd600583613349565b6113d890600661335c565b90506113e433826127bc565b611485565b6113f76006623197506132f1565b62ffffff16601360109054906101000a90046001600160801b03166001600160801b03161161142c5750806113e433826127bc565b61143a6006624c4b406132f1565b62ffffff16601360109054906101000a90046001600160801b03166001600160801b0316116114855761146e600583613349565b61147990600461335c565b905061148533826127bc565b60408051838152602081018390527fcf0848d99e9b2ad96811072e657199bc9567c2cc9b614097727a852b27f5358d91015b60405180910390a1505b50565b6011546001600160a01b0316336001600160a01b0316146114e3575f80fd5b6001600160a01b0382165f81815260156020908152604091829020849055815192835282018390527f967d50df84a5ebb45902fa277d5c3b0bc6403497c9fd6da2ecbd9ed420038f1491016114b7565b6011546001600160a01b0316336001600160a01b031614611552575f80fd5b6001600160a01b0381165f8181526015602090815260408083209290925590519182527f3680a8b72561b4141a1464124f40242ac80a59d51d29649d9b0b442c255b628991016111d8565b6115a860095461218d565b156115b1575f80fd5b335f908152601560205260409020546005146115cb575f80fd5b600c546115dc90608083901b612535565b600c5550565b335f908152601560205260409020546001146115fc575f80fd5b611604612436565b604080516001600160a01b0384166020808301919091523382840152825180830384018152606090920183528151918101919091205f818152600d909252918120600101549091829160801c6001600160801b03851610611693575f818152600d6020526040812060018101805482546001600160a01b03191690925591909155608081901c945091506116ed565b5f818152600d60205260409020600101546116ae90856129a2565b5f828152600d60205260409020600101549092506116db906001600160801b038416608087901b176121ab565b5f828152600d60205260409020600101555b61170e84611708611700600c5460801c90565b600b54610e0e565b906129c4565b600b54909350611727906001600160801b0386166121ab565b600b55600c54611746906001600160801b038416608086901b176121ab565b600c55611753828461318a565b92506001600160801b038316156117775761177785846001600160801b03166127bc565b5f818152600d602090815260409182902060010154600b54600c5484516001600160a01b038b16815293840192909252608086811b6001600160801b0389161784860152606084019190915282015290517f62025eae57aa13c48667a44135999b1c087e0e00de741759cefa772a4eb025679181900360a00190a15050505050565b6001600160a01b0381165f90815260076020526040812054610a90565b5f606080828080836118497f000000000000000000000000000000000000000000000000000000000000000060056129ec565b6118747f000000000000000000000000000000000000000000000000000000000000000060066129ec565b604080515f80825260208201909252600f60f81b9b939a50919850469750309650945092509050565b6118a860095461218d565b6118b0575f80fd5b6011546001600160a01b0316336001600160a01b0316146118cf575f80fd5b60ff81165f908152600a60205260408120600101546013805467ffffffffffffffff90921692909161190b9084906001600160801b03166132d2565b92506101000a8154816001600160801b0302191690836001600160801b031602179055507f568d364b674966bdb889933148a94e885581320f54b5d65d04bda235eea7fe4881604051611967919060ff91909116815260200190565b60405180910390a160ff165f908152600a6020526040812080546001600160a01b031916815560010155565b6060600480546109fc90613128565b610ad78282612306565b335f8181526001602090815260408083206001600160a01b038716845290915281205490919083811015611a4d5760405162461bcd60e51b815260206004820152602560248201527f45524332303a2064656372656173656420616c6c6f77616e63652062656c6f7760448201527f207a65726f00000000000000000000000000000000000000000000000000000060648201526084015b60405180910390fd5b610c2282868684036121e3565b5f33610a8a8185856125eb565b611a7260095461218d565b611a7a575f80fd5b335f908152601560205260409020546006148015611adf575063ffffffff82165f908152600e60205260409020600201546001600160a01b0316331480611adf575063ffffffff82165f908152600e60205260409020600201546001600160a01b0316155b611ae7575f80fd5b63ffffffff82165f908152600e6020526040902054611b0a90608083901b612535565b63ffffffff83165f908152600e602090815260408083208490553383529082905290205460809190911c1115610ad7575f80fd5b611b4960095461218d565b15611b52575f80fd5b335f90815260156020526040902054600614611b6c575f80fd5b610ad781836001600160801b03166127bc565b83421115611bcf5760405162461bcd60e51b815260206004820152601d60248201527f45524332305065726d69743a206578706972656420646561646c696e650000006044820152606401611a44565b5f7f6e71edae12b1b97f4d1f60370fef10105fa2faae0126114a169c64845d6126c9888888611bfd8c612a95565b6040805160208101969096526001600160a01b0394851690860152929091166060840152608083015260a082015260c0810186905260e0016040516020818303038152906040528051906020012090505f611c5782612abc565b90505f611c6682878787612ae8565b9050896001600160a01b0316816001600160a01b031614611cc95760405162461bcd60e51b815260206004820152601e60248201527f45524332305065726d69743a20696e76616c6964207369676e617475726500006044820152606401611a44565b611cd48a8a8a6121e3565b50505050505050505050565b611ceb60095461218d565b611cf3575f80fd5b601254600f5460105460ff84165f908152600a60205260409020600101546001600160a01b0393841693631412723a938116921690611d4390600160801b90046001600160781b03166002613456565b611d5190600160801b61335c565b611d5c90600a6131a9565b6040517fffffffff0000000000000000000000000000000000000000000000000000000060e086901b1681526001600160a01b0393841660048201529290911660248301526044820152606401602060405180830381865afa158015611dc4573d5f803e3d5ffd5b505050506040513d601f19601f82011682018060405250810190611de89190613316565b158015611e17575060ff81165f908152600a60205260409020546001600160a01b0316336001600160a01b0316145b611e1f575f80fd5b60ff8082165f908152600a60205260408120600101549091611e5491600160f81b8104909116906001600160801b031661346a565b60ff83165f908152600a6020526040812060010180549293508392909190611e869084906001600160801b031661318a565b92506101000a8154816001600160801b0302191690836001600160801b031602179055506001600a5f8460ff1663ffffffff1681526020019081526020015f2060010160108282829054906101000a90046001600160781b0316611eea9190613497565b92506101000a8154816001600160781b0302191690836001600160781b03160217905550611f27611f183390565b826001600160801b03166127bc565b604080516001600160801b038316815260ff841660208201527f83592ad363894b5c4d81b2113457c5a1683230ce1c133eefa927d17f65cd5ca091016114b7565b611f7360095461218d565b611f7b575f80fd5b6011546001600160a01b0316336001600160a01b031614611f9a575f80fd5b60405163a9059cbb60e01b81526001600160a01b038281166004830152602482018490527f0000000000000000000000000000000000000000000000000000000000000000169063a9059cbb906044016020604051808303815f875af1158015612006573d5f803e3d5ffd5b505050506040513d601f19601f8201168201806040525081019061202a9190613316565b505050565b335f90815260156020526040902054600114801561206457506001600160a01b038281165f9081526014602052604090205416155b80156120825750806001600160a01b0316826001600160a01b031614155b15610ad7576001600160a01b038281165f8181526014602090815260409182902080546001600160a01b031916948616948517905581519283528201929092527f0b5e322b4b5330962013e8d6519462c133d50320ee476828060995c1acadef6291016114b7565b6011546001600160a01b0316336001600160a01b031614612109575f80fd5b600f80546001600160a01b038581166001600160a01b0319928316811790935560108054868316908416811790915560128054928616929093168217909255604080519384526020840192909252908201527fad9bacb6411ac6d3f45f8cabf2c4629890ab593e58ad9c108ffef19037ce27969060600160405180910390a1505050565b5f60ff82901c600181146121a1575f6121a4565b60015b9392505050565b5f608082811d9084901d036001600160801b03838116908516036121da6121d183612b0e565b610e0e83612b0e565b95945050505050565b6001600160a01b0383166122455760405162461bcd60e51b8152602060048201526024808201527f45524332303a20617070726f76652066726f6d20746865207a65726f206164646044820152637265737360e01b6064820152608401611a44565b6001600160a01b0382166122a65760405162461bcd60e51b815260206004820152602260248201527f45524332303a20617070726f766520746f20746865207a65726f206164647265604482015261737360f01b6064820152608401611a44565b6001600160a01b038381165f8181526001602090815260408083209487168084529482529182902085905590518481527f8c5be1e5ebec7d5bd14f71427d1e84f3dd0314c0f7b2291e5b200ac8c7c3b925910160405180910390a3505050565b6001600160a01b0382166123665760405162461bcd60e51b815260206004820152602160248201527f45524332303a206275726e2066726f6d20746865207a65726f206164647265736044820152607360f81b6064820152608401611a44565b6001600160a01b0382165f90815260208190526040902054818110156123d95760405162461bcd60e51b815260206004820152602260248201527f45524332303a206275726e20616d6f756e7420657863656564732062616c616e604482015261636560f01b6064820152608401611a44565b6001600160a01b0383165f818152602081815260408083208686039055600280548790039055518581529192917fddf252ad1be2c89b69c2b068fc378daa952ba7f163c4a11628f55a4df523b3ef910160405180910390a3505050565b42612443600b5460801c90565b61245090620151806132d2565b6001600160801b0316101561252257600b5461247f907201518000000000000000000000000000000000612535565b600b555f61249260066302faf0806134b6565b63ffffffff166124a160025490565b116124b05763a34ce6cb6124c6565b61477c6124bc60025490565b6124c69190613349565b600c549091506124da90608083901b612535565b600c55600b547f640eaa6ba71a4f457fdf8b26b0a8a0a6096d6d2bf731d07d47717534847ce55d906125149060801c600c5460801c610e0e565b6040519081526020016111d8565b565b918102915f8184046121da81612b0e565b5f608082811d9084901d016001600160801b03838116908516016121da6121d183612b0e565b6001600160a01b038381165f908152600160209081526040808320938616835292905220545f1981146125e557818110156125d85760405162461bcd60e51b815260206004820152601d60248201527f45524332303a20696e73756666696369656e7420616c6c6f77616e63650000006044820152606401611a44565b6125e584848484036121e3565b50505050565b6001600160a01b0383166126675760405162461bcd60e51b815260206004820152602560248201527f45524332303a207472616e736665722066726f6d20746865207a65726f20616460448201527f64726573730000000000000000000000000000000000000000000000000000006064820152608401611a44565b6001600160a01b0382166126c95760405162461bcd60e51b815260206004820152602360248201527f45524332303a207472616e7366657220746f20746865207a65726f206164647260448201526265737360e81b6064820152608401611a44565b6001600160a01b0383165f90815260208190526040902054818110156127575760405162461bcd60e51b815260206004820152602660248201527f45524332303a207472616e7366657220616d6f756e742065786365656473206260448201527f616c616e636500000000000000000000000000000000000000000000000000006064820152608401611a44565b6001600160a01b038481165f81815260208181526040808320878703905593871680835291849020805487019055925185815290927fddf252ad1be2c89b69c2b068fc378daa952ba7f163c4a11628f55a4df523b3ef910160405180910390a36125e5565b6001600160a01b0382166128125760405162461bcd60e51b815260206004820152601f60248201527f45524332303a206d696e7420746f20746865207a65726f2061646472657373006044820152606401611a44565b8060025f82825461282391906131a9565b90915550506001600160a01b0382165f81815260208181526040808320805486019055518481527fddf252ad1be2c89b69c2b068fc378daa952ba7f163c4a11628f55a4df523b3ef910160405180910390a35050565b5f306001600160a01b037f0000000000000000000000000000000000000000000000000000000000000000161480156128d157507f000000000000000000000000000000000000000000000000000000000000000046145b156128fb57507f000000000000000000000000000000000000000000000000000000000000000090565b610fb2604080517f8b73c3c69bb8fe3d512ecc4cf759cc79239f7b179b0ffacaa9a75d522b39400f60208201527f0000000000000000000000000000000000000000000000000000000000000000918101919091527f000000000000000000000000000000000000000000000000000000000000000060608201524660808201523060a08201525f9060c00160405160208183030381529060405280519060200120905090565b5f6121a4836001600160801b0316836001600160801b0316610b688660801c90565b5f6121a46129d28460801c90565b6001600160801b0316836001600160801b0316610b688690565b606060ff8314612a06576129ff83612b28565b9050610a90565b818054612a1290613128565b80601f0160208091040260200160405190810160405280929190818152602001828054612a3e90613128565b8015612a895780601f10612a6057610100808354040283529160200191612a89565b820191905f5260205f20905b815481529060010190602001808311612a6c57829003601f168201915b50505050509050610a90565b6001600160a01b0381165f9081526007602052604090208054600181018255905b50919050565b5f610a90612ac8612879565b8360405161190160f01b8152600281019290925260228201526042902090565b5f805f612af787878787612b65565b91509150612b0481612c22565b5095945050505050565b5f6001600160801b03821115612b24575f610a90565b5090565b60605f612b3483612d6b565b6040805160208082528183019092529192505f91906020820181803683375050509182525060208101929092525090565b5f807f7fffffffffffffffffffffffffffffff5d576e7357a4501ddfe92f46681b20a0831115612b9a57505f90506003612c19565b604080515f8082526020820180845289905260ff881692820192909252606081018690526080810185905260019060a0016020604051602081039080840390855afa158015612beb573d5f803e3d5ffd5b5050604051601f1901519150506001600160a01b038116612c13575f60019250925050612c19565b91505f90505b94509492505050565b5f816004811115612c3557612c356134d5565b03612c3d5750565b6001816004811115612c5157612c516134d5565b03612c9e5760405162461bcd60e51b815260206004820152601860248201527f45434453413a20696e76616c6964207369676e617475726500000000000000006044820152606401611a44565b6002816004811115612cb257612cb26134d5565b03612cff5760405162461bcd60e51b815260206004820152601f60248201527f45434453413a20696e76616c6964207369676e6174757265206c656e677468006044820152606401611a44565b6003816004811115612d1357612d136134d5565b036114c15760405162461bcd60e51b815260206004820152602260248201527f45434453413a20696e76616c6964207369676e6174757265202773272076616c604482015261756560f01b6064820152608401611a44565b5f60ff8216601f811115610a9057604051632cd44ac360e21b815260040160405180910390fd5b803563ffffffff81168114612da5575f80fd5b919050565b6001600160801b03811681146114c1575f80fd5b5f8060408385031215612dcf575f80fd5b612dd883612d92565b91506020830135612de881612daa565b809150509250929050565b5f60208284031215612e03575f80fd5b5035919050565b5f81518084528060208401602086015e5f602082860101526020601f19601f83011685010191505092915050565b602081525f6121a46020830184612e0a565b6001600160a01b03811681146114c1575f80fd5b5f8060408385031215612e6f575f80fd5b8235612e7a81612e4a565b946020939093013593505050565b5f8060408385031215612e99575f80fd5b8235612ea481612daa565b91506020830135612de881612e4a565b5f8060408385031215612ec5575f80fd5b8235612dd881612e4a565b5f805f60608486031215612ee2575f80fd5b8335612eed81612e4a565b92506020840135612efd81612e4a565b929592945050506040919091013590565b5f6080828403128015612f1f575f80fd5b509092915050565b5f60208284031215612f37575f80fd5b81356121a481612e4a565b5f60208284031215612f52575f80fd5b81356121a481612daa565b5f60208284031215612f6d575f80fd5b6121a482612d92565b60ff60f81b8816815260e060208201525f612f9460e0830189612e0a565b8281036040840152612fa68189612e0a565b606084018890526001600160a01b038716608085015260a0840186905283810360c0850152845180825260208087019350909101905f5b81811015612ffb578351835260209384019390920191600101612fdd565b50909b9a5050505050505050505050565b60ff811681146114c1575f80fd5b5f6020828403121561302a575f80fd5b81356121a48161300c565b5f805f805f805f60e0888a03121561304b575f80fd5b873561305681612e4a565b9650602088013561306681612e4a565b9550604088013594506060880135935060808801356130848161300c565b9699959850939692959460a0840135945060c09093013592915050565b5f80604083850312156130b2575f80fd5b8235612ea481612e4a565b5f80604083850312156130ce575f80fd5b823591506020830135612de881612e4a565b5f805f606084860312156130f2575f80fd5b83356130fd81612e4a565b9250602084013561310d81612e4a565b9150604084013561311d81612e4a565b809150509250925092565b600181811c9082168061313c57607f821691505b602082108103612ab657634e487b7160e01b5f52602260045260245ffd5b634e487b7160e01b5f52601160045260245ffd5b63ffffffff8181168382160190811115610a9057610a9061315a565b6001600160801b038281168282160390811115610a9057610a9061315a565b80820180821115610a9057610a9061315a565b6001600160781b03811681146114c1575f80fd5b81356131db81612e4a565b6001600160a01b0381166001600160a01b03198354161782555060018101602083013561320781612daa565b81546040850135613217816131bc565b7effffffffffffffffffffffffffffff000000000000000000000000000000008160801b166001600160801b03841660ff60f81b8416171784555050505f60608401356132638161300c565b82547effffffffffffffffffffffffffffffffffffffffffffffffffffffffffffff1660f89190911b7fff000000000000000000000000000000000000000000000000000000000000001617909155505050565b5f602082840312156132c7575f80fd5b81356121a4816131bc565b6001600160801b038181168382160190811115610a9057610a9061315a565b62ffffff818116838216029081169081811461330f5761330f61315a565b5092915050565b5f60208284031215613326575f80fd5b815180151581146121a4575f80fd5b634e487b7160e01b5f52601260045260245ffd5b5f8261335757613357613335565b500490565b8082028115828204841417610a9057610a9061315a565b6001815b60018411156133ae578085048111156133925761339261315a565b60018416156133a057908102905b60019390931c928002613377565b935093915050565b5f826133c457506001610a90565b816133d057505f610a90565b81600181146133e657600281146133f05761340c565b6001915050610a90565b60ff8411156134015761340161315a565b50506001821b610a90565b5060208310610133831016604e8410600b841016171561342f575081810a610a90565b61343b5f198484613373565b805f190482111561344e5761344e61315a565b029392505050565b5f6121a46001600160781b038416836133b6565b5f6001600160801b0383168061348257613482613335565b806001600160801b0384160491505092915050565b6001600160781b038181168382160190811115610a9057610a9061315a565b63ffffffff818116838216029081169081811461330f5761330f61315a565b634e487b7160e01b5f52602160045260245ffdfea264697066735822122025472080394f6170d6157028de5b4ebc75f27096b3606e00cba3969efff6453764736f6c634300081a0033","linkReferences":{}},"methodIdentifiers":{"DOMAIN_SEPARATOR()":"3644e515","addShare((address,uint128,uint120,uint8))":"3b107e21","addauths(address,uint256)":"542128dd","addreferral(address,address)":"eca93cce","allowance(address,address)":"dd62ed3e","approve(address,uint256)":"095ea7b3","auths(address)":"64e72dbd","balanceOf(address)":"70a08231","burn(address,uint256)":"9dc29fac","burnShare(uint8)":"9241bda6","chain_deposit(uint32,uint128)":"01bddf1b","chain_withdraw(uint32,uint128)":"c3bb7fff","chainindex()":"8378e563","chains(uint32)":"8b203dd4","changeDAOAdmin(address)":"3cba316b","dao_admin()":"a538e6a9","decimals()":"313ce567","decreaseAllowance(address,uint256)":"a457c2d7","eip712Domain()":"84b0196e","getreferralanddaoadmin(address)":"b88e6d63","increaseAllowance(address,uint256)":"39509351","left_share()":"45fda707","marketcontract()":"2bf960da","name()":"06fdde03","nonces(address)":"7ecebe00","normalgoodid()":"02517e8b","permit(address,address,uint256,uint256,uint8,bytes32,bytes32)":"d505accf","poolstate()":"845fcee4","public_Sell(uint256)":"47036e75","publicsell()":"de5712d4","referrals(address)":"9ca423b3","rmauths(address)":"69a5ac32","setEnv(address,address,address)":"fa82add5","shareMint(uint8)":"df876548","shares(uint32)":"6f55aece","shares_index()":"696bb4ad","stake(address,uint128)":"19f8d5b4","stakeproof(uint256)":"06afa12a","stakestate()":"cae97640","subchainDeposit(uint128,address)":"cd993b11","subchainWithdraw(uint128,address)":"0a4273e6","symbol()":"95d89b41","syncChainStake(uint32,uint128)":"30fd6b29","syncPoolAsset(uint128)":"6c0deba1","totalSupply()":"18160ddd","transfer(address,uint256)":"a9059cbb","transferFrom(address,address,uint256)":"23b872dd","ttstokenconfig()":"623059a5","unstake(address,uint128)":"7bd3ca35","usdt()":"2f48ab7d","valuegoodid()":"f35da462","withdrawPublicSell(uint256,address)":"e7b43e7d"},"id":55}