{"abi":[{"type":"constructor","inputs":[{"name":"_marketconfig","type":"uint256","internalType":"uint256"},{"name":"_officialTokenContract","type":"address","internalType":"address"},{"name":"_marketcreator","type":"address","internalType":"address"},{"name":"_securitykeeper","type":"address","internalType":"address"}],"stateMutability":"nonpayable"},{"type":"function","name":"addbanlist","inputs":[{"name":"_user","type":"address","internalType":"address"}],"outputs":[{"name":"","type":"bool","internalType":"bool"}],"stateMutability":"nonpayable"},{"type":"function","name":"buyGood","inputs":[{"name":"_goodid1","type":"address","internalType":"address"},{"name":"_goodid2","type":"address","internalType":"address"},{"name":"_swapQuantity","type":"uint128","internalType":"uint128"},{"name":"_limitPrice","type":"uint256","internalType":"uint256"},{"name":"_istotal","type":"bool","internalType":"bool"},{"name":"_referal","type":"address","internalType":"address"},{"name":"data","type":"bytes","internalType":"bytes"}],"outputs":[{"name":"goodid2Quantity_","type":"uint128","internalType":"uint128"},{"name":"goodid2FeeQuantity_","type":"uint128","internalType":"uint128"}],"stateMutability":"payable"},{"type":"function","name":"changeGoodOwner","inputs":[{"name":"_goodid","type":"address","internalType":"address"},{"name":"_to","type":"address","internalType":"address"}],"outputs":[],"stateMutability":"nonpayable"},{"type":"function","name":"changemarketcreator","inputs":[{"name":"_newmarketor","type":"address","internalType":"address"}],"outputs":[],"stateMutability":"nonpayable"},{"type":"function","name":"collectCommission","inputs":[{"name":"_goodid","type":"address[]","internalType":"address[]"}],"outputs":[],"stateMutability":"nonpayable"},{"type":"function","name":"collectProof","inputs":[{"name":"_proofid","type":"uint256","internalType":"uint256"},{"name":"_gater","type":"address","internalType":"address"}],"outputs":[{"name":"profit_","type":"uint256","internalType":"uint256"}],"stateMutability":"nonpayable"},{"type":"function","name":"disinvestProof","inputs":[{"name":"_proofid","type":"uint256","internalType":"uint256"},{"name":"_goodQuantity","type":"uint128","internalType":"uint128"},{"name":"_gater","type":"address","internalType":"address"}],"outputs":[{"name":"","type":"bool","internalType":"bool"}],"stateMutability":"nonpayable"},{"type":"function","name":"flashFee","inputs":[{"name":"token","type":"address","internalType":"address"},{"name":"amount","type":"uint256","internalType":"uint256"}],"outputs":[{"name":"","type":"uint256","internalType":"uint256"}],"stateMutability":"view"},{"type":"function","name":"flashLoan","inputs":[{"name":"receiver","type":"address","internalType":"contract IERC3156FlashBorrower"},{"name":"token","type":"address","internalType":"address"},{"name":"amount","type":"uint256","internalType":"uint256"},{"name":"data","type":"bytes","internalType":"bytes"}],"outputs":[{"name":"","type":"bool","internalType":"bool"}],"stateMutability":"nonpayable"},{"type":"function","name":"getGoodState","inputs":[{"name":"goodkey","type":"address","internalType":"address"}],"outputs":[{"name":"","type":"tuple","internalType":"struct S_GoodTmpState","components":[{"name":"goodConfig","type":"uint256","internalType":"uint256"},{"name":"owner","type":"address","internalType":"address"},{"name":"currentState","type":"uint256","internalType":"uint256"},{"name":"investState","type":"uint256","internalType":"uint256"},{"name":"feeQuantityState","type":"uint256","internalType":"uint256"}]}],"stateMutability":"view"},{"type":"function","name":"getProofState","inputs":[{"name":"proofid","type":"uint256","internalType":"uint256"}],"outputs":[{"name":"","type":"tuple","internalType":"struct S_ProofState","components":[{"name":"currentgood","type":"address","internalType":"address"},{"name":"valuegood","type":"address","internalType":"address"},{"name":"state","type":"uint256","internalType":"uint256"},{"name":"invest","type":"uint256","internalType":"uint256"},{"name":"valueinvest","type":"uint256","internalType":"uint256"}]}],"stateMutability":"view"},{"type":"function","name":"goodWelfare","inputs":[{"name":"goodid","type":"address","internalType":"address"},{"name":"welfare","type":"uint128","internalType":"uint128"},{"name":"data","type":"bytes","internalType":"bytes"}],"outputs":[],"stateMutability":"payable"},{"type":"function","name":"initGood","inputs":[{"name":"_valuegood","type":"address","internalType":"address"},{"name":"_initial","type":"uint256","internalType":"uint256"},{"name":"_erc20address","type":"address","internalType":"address"},{"name":"_goodConfig","type":"uint256","internalType":"uint256"},{"name":"_normaldata","type":"bytes","internalType":"bytes"},{"name":"_valuedata","type":"bytes","internalType":"bytes"}],"outputs":[{"name":"","type":"bool","internalType":"bool"}],"stateMutability":"payable"},{"type":"function","name":"initMetaGood","inputs":[{"name":"_erc20address","type":"address","internalType":"address"},{"name":"_initial","type":"uint256","internalType":"uint256"},{"name":"_goodConfig","type":"uint256","internalType":"uint256"},{"name":"data","type":"bytes","internalType":"bytes"}],"outputs":[{"name":"","type":"bool","internalType":"bool"}],"stateMutability":"payable"},{"type":"function","name":"investGood","inputs":[{"name":"_togood","type":"address","internalType":"address"},{"name":"_valuegood","type":"address","internalType":"address"},{"name":"_quantity","type":"uint128","internalType":"uint128"},{"name":"data1","type":"bytes","internalType":"bytes"},{"name":"data2","type":"bytes","internalType":"bytes"}],"outputs":[{"name":"","type":"bool","internalType":"bool"}],"stateMutability":"payable"},{"type":"function","name":"ishigher","inputs":[{"name":"goodid","type":"address","internalType":"address"},{"name":"valuegood","type":"address","internalType":"address"},{"name":"compareprice","type":"uint256","internalType":"uint256"}],"outputs":[{"name":"","type":"bool","internalType":"bool"}],"stateMutability":"view"},{"type":"function","name":"marketconfig","inputs":[],"outputs":[{"name":"","type":"uint256","internalType":"uint256"}],"stateMutability":"view"},{"type":"function","name":"marketcreator","inputs":[],"outputs":[{"name":"","type":"address","internalType":"address"}],"stateMutability":"view"},{"type":"function","name":"maxFlashLoan","inputs":[{"name":"good","type":"address","internalType":"address"}],"outputs":[{"name":"","type":"uint256","internalType":"uint256"}],"stateMutability":"view"},{"type":"function","name":"modifyGoodConfig","inputs":[{"name":"_goodid","type":"address","internalType":"address"},{"name":"_goodConfig","type":"uint256","internalType":"uint256"}],"outputs":[{"name":"","type":"bool","internalType":"bool"}],"stateMutability":"nonpayable"},{"type":"function","name":"payGood","inputs":[{"name":"_goodid","type":"address","internalType":"address"},{"name":"_payquanity","type":"uint128","internalType":"uint128"},{"name":"_recipent","type":"address","internalType":"address"},{"name":"transdata","type":"bytes","internalType":"bytes"}],"outputs":[{"name":"","type":"bool","internalType":"bool"}],"stateMutability":"payable"},{"type":"function","name":"queryCommission","inputs":[{"name":"_goodid","type":"address[]","internalType":"address[]"},{"name":"_recipent","type":"address","internalType":"address"}],"outputs":[{"name":"","type":"uint256[]","internalType":"uint256[]"}],"stateMutability":"view"},{"type":"function","name":"removeMarketor","inputs":[{"name":"_user","type":"address","internalType":"address"}],"outputs":[],"stateMutability":"nonpayable"},{"type":"function","name":"removeSecurityKeeper","inputs":[],"outputs":[],"stateMutability":"nonpayable"},{"type":"function","name":"removebanlist","inputs":[{"name":"_user","type":"address","internalType":"address"}],"outputs":[{"name":"","type":"bool","internalType":"bool"}],"stateMutability":"nonpayable"},{"type":"function","name":"securityKeeper","inputs":[{"name":"token","type":"address","internalType":"address"},{"name":"amount","type":"uint256","internalType":"uint256"}],"outputs":[],"stateMutability":"nonpayable"},{"type":"function","name":"setMarketConfig","inputs":[{"name":"_marketconfig","type":"uint256","internalType":"uint256"}],"outputs":[{"name":"","type":"bool","internalType":"bool"}],"stateMutability":"nonpayable"},{"type":"function","name":"setMarketor","inputs":[{"name":"_newmarketor","type":"address","internalType":"address"}],"outputs":[],"stateMutability":"nonpayable"},{"type":"function","name":"updateGoodConfig","inputs":[{"name":"_goodid","type":"address","internalType":"address"},{"name":"_goodConfig","type":"uint256","internalType":"uint256"}],"outputs":[{"name":"","type":"bool","internalType":"bool"}],"stateMutability":"nonpayable"},{"type":"function","name":"userConfig","inputs":[{"name":"","type":"address","internalType":"address"}],"outputs":[{"name":"","type":"uint256","internalType":"uint256"}],"stateMutability":"view"},{"type":"event","name":"e_buyGood","inputs":[{"name":"sellgood","type":"address","indexed":true,"internalType":"address"},{"name":"forgood","type":"address","indexed":true,"internalType":"address"},{"name":"fromer","type":"address","indexed":false,"internalType":"address"},{"name":"swapvalue","type":"uint128","indexed":false,"internalType":"uint128"},{"name":"sellgoodstate","type":"uint256","indexed":false,"internalType":"uint256"},{"name":"forgoodstate","type":"uint256","indexed":false,"internalType":"uint256"}],"anonymous":false},{"type":"event","name":"e_changegoodowner","inputs":[{"name":"goodid","type":"address","indexed":false,"internalType":"address"},{"name":"to","type":"address","indexed":false,"internalType":"address"}],"anonymous":false},{"type":"event","name":"e_changemarketcreator","inputs":[{"name":"_newmarketor","type":"address","indexed":false,"internalType":"address"}],"anonymous":false},{"type":"event","name":"e_collectProof","inputs":[{"name":"_proofNo","type":"uint256","indexed":true,"internalType":"uint256"},{"name":"_normalGoodNo","type":"address","indexed":false,"internalType":"address"},{"name":"_valueGoodNo","type":"address","indexed":false,"internalType":"address"},{"name":"_profit","type":"uint256","indexed":false,"internalType":"uint256"}],"anonymous":false},{"type":"event","name":"e_collectProtocolFee","inputs":[{"name":"goodid","type":"address","indexed":false,"internalType":"address"},{"name":"feeamount","type":"uint256","indexed":false,"internalType":"uint256"}],"anonymous":false},{"type":"event","name":"e_collectcommission","inputs":[{"name":"_gooid","type":"address[]","indexed":false,"internalType":"address[]"},{"name":"_commisionamount","type":"uint256[]","indexed":false,"internalType":"uint256[]"}],"anonymous":false},{"type":"event","name":"e_disinvestProof","inputs":[{"name":"_proofNo","type":"uint256","indexed":true,"internalType":"uint256"},{"name":"_normalGoodNo","type":"address","indexed":false,"internalType":"address"},{"name":"_valueGoodNo","type":"address","indexed":false,"internalType":"address"},{"name":"_value","type":"uint256","indexed":false,"internalType":"uint256"},{"name":"_normalgood","type":"uint256","indexed":false,"internalType":"uint256"},{"name":"_valuegood","type":"uint256","indexed":false,"internalType":"uint256"},{"name":"_profit","type":"uint256","indexed":false,"internalType":"uint256"}],"anonymous":false},{"type":"event","name":"e_enpower","inputs":[{"name":"_goodid","type":"uint256","indexed":false,"internalType":"uint256"},{"name":"_valuegood","type":"uint256","indexed":false,"internalType":"uint256"},{"name":"_quantity","type":"uint256","indexed":false,"internalType":"uint256"}],"anonymous":false},{"type":"event","name":"e_goodWelfare","inputs":[{"name":"goodid","type":"address","indexed":false,"internalType":"address"},{"name":"welfare","type":"uint128","indexed":false,"internalType":"uint128"}],"anonymous":false},{"type":"event","name":"e_initGood","inputs":[{"name":"_proofNo","type":"uint256","indexed":false,"internalType":"uint256"},{"name":"_goodid","type":"address","indexed":false,"internalType":"address"},{"name":"_valuegoodNo","type":"address","indexed":false,"internalType":"address"},{"name":"_goodConfig","type":"uint256","indexed":false,"internalType":"uint256"},{"name":"_construct","type":"uint256","indexed":false,"internalType":"uint256"},{"name":"_normalinitial","type":"uint256","indexed":false,"internalType":"uint256"},{"name":"_value","type":"uint256","indexed":false,"internalType":"uint256"}],"anonymous":false},{"type":"event","name":"e_initMetaGood","inputs":[{"name":"_proofNo","type":"uint256","indexed":false,"internalType":"uint256"},{"name":"_goodid","type":"address","indexed":false,"internalType":"address"},{"name":"_construct","type":"uint256","indexed":false,"internalType":"uint256"},{"name":"_goodConfig","type":"uint256","indexed":false,"internalType":"uint256"},{"name":"_initial","type":"uint256","indexed":false,"internalType":"uint256"}],"anonymous":false},{"type":"event","name":"e_investGood","inputs":[{"name":"_proofNo","type":"uint256","indexed":true,"internalType":"uint256"},{"name":"_normalgoodid","type":"address","indexed":false,"internalType":"address"},{"name":"_valueGoodNo","type":"address","indexed":false,"internalType":"address"},{"name":"_value","type":"uint256","indexed":false,"internalType":"uint256"},{"name":"_invest","type":"uint256","indexed":false,"internalType":"uint256"},{"name":"_valueinvest","type":"uint256","indexed":false,"internalType":"uint256"}],"anonymous":false},{"type":"event","name":"e_modifiedUserConfig","inputs":[{"name":"_user","type":"address","indexed":false,"internalType":"address"},{"name":"config","type":"uint256","indexed":false,"internalType":"uint256"}],"anonymous":false},{"type":"event","name":"e_modifyGoodConfig","inputs":[{"name":"_goodid","type":"address","indexed":false,"internalType":"address"},{"name":"_goodconfig","type":"uint256","indexed":false,"internalType":"uint256"}],"anonymous":false},{"type":"event","name":"e_setMarketConfig","inputs":[{"name":"_marketconfig","type":"uint256","indexed":false,"internalType":"uint256"}],"anonymous":false},{"type":"event","name":"e_transferdel","inputs":[{"name":"delproofid","type":"uint256","indexed":false,"internalType":"uint256"},{"name":"existsproofid","type":"uint256","indexed":false,"internalType":"uint256"}],"anonymous":false},{"type":"event","name":"e_updateGoodConfig","inputs":[{"name":"_goodid","type":"address","indexed":false,"internalType":"address"},{"name":"_goodConfig","type":"uint256","indexed":false,"internalType":"uint256"}],"anonymous":false},{"type":"error","name":"ERC20PermitFailed","inputs":[]},{"type":"error","name":"ERC20TransferFailed","inputs":[]},{"type":"error","name":"ERC3156ExceededMaxLoan","inputs":[{"name":"maxLoan","type":"uint256","internalType":"uint256"}]},{"type":"error","name":"ERC3156InvalidReceiver","inputs":[{"name":"receiver","type":"address","internalType":"address"}]},{"type":"error","name":"ERC3156UnsupportedToken","inputs":[{"name":"token","type":"address","internalType":"address"}]},{"type":"error","name":"NativeTransferFailed","inputs":[]},{"type":"error","name":"noEnoughOutputError","inputs":[]}],"bytecode":{"object":"0x60a0346100ce57601f61478438819003918201601f19168301916001600160401b038311848410176100d2578084926080946040528339810103126100ce5780519061004d602082016100e6565b91610066606061005f604085016100e6565b93016100e6565b6080939093525f55600480546001600160a01b039283166001600160a01b0319918216179091556005805492909316911617905560405161468990816100fb8239608051818181610c7a0152818161136a015281816118b90152818161238d01526126730152f35b5f80fd5b634e487b7160e01b5f52604160045260245ffd5b51906001600160a01b03821682036100ce5756fe60806040526004361015610011575f80fd5b5f3560e01c806306cf4e7f146101f457806308238466146101ef5780630d2700ab146101ea578063102e5c27146101e557806313a124c3146101e05780631412723a146101db5780633d995173146101d65780633f117740146101d1578063402f5ab5146101cc57806341e12373146101c757806344436184146101c257806345818e4c146101bd57806351ff9a16146101b85780635cffe9de146101b35780635f35b0b3146101ae5780635f755d65146101a9578063613255ab146101a45780639551177a1461019f5780639b2227941461019a578063a06ad0e814610195578063a3b74a4914610190578063a676a6001461018b578063b153b92014610186578063b1efb92114610181578063c9544f181461017c578063cc00da2d14610177578063d9d98ce414610172578063f29771cb1461016d578063f4662f20146101685763f878e80914610163575f80fd5b611bc2565b6117ec565b611754565b611708565b6116a5565b611671565b6115ee565b61157a565b61123f565b61119a565b611120565b61106a565b610fae565b610f7d565b610f02565b610ec7565b610cee565b610b5e565b610afe565b610a31565b61098e565b610972565b6108b4565b61088c565b61080d565b61077d565b61070e565b6105ae565b61038a565b61025b565b6001600160a01b0381160361020a57565b5f80fd5b60a4359061021b826101f9565b565b6001600160801b0381160361020a57565b9181601f8401121561020a578235916001600160401b03831161020a576020838186019501011161020a57565b606036600319011261020a57600435610273816101f9565b60243561027f8161021d565b6044356001600160401b03811161020a5761029e90369060040161022e565b92905f805160206146348339815191525c6001600160a01b031661020a57335f805160206146348339815191525d6001600160a01b0382165f908152600160205260409020600401546001606d1b906001600160801b039061030490869060801c611fb3565b161161020a577f0dc5e2150c5754dc0bcd8d76ca2d23850fc9a2a3115c69bb4fbdbedc25074a0093610341916001600160801b0385163385612852565b610361600461034f83610eae565b015461035b8460801b90565b90612869565b600461036c83610eae565b015561037d60405192839283611fcc565b0390a1610388612840565b005b3461020a57602036600319011261020a576104706004356103aa816101f9565b6103b2611fef565b506001600160a01b038181165f9081526001602081905260409091208054910154909291169060026103e382610eae565b015461041e600461040060036103f886610eae565b015494610eae565b01549361040b6104e4565b9586526001600160a01b03166020860152565b6040840152606083015260808201526040519182918291909160808060a08301948051845260018060a01b03602082015116602085015260408101516040850152606081015160608501520151910152565b0390f35b634e487b7160e01b5f52604160045260245ffd5b60a081019081106001600160401b038211176104a357604052565b610474565b604081019081106001600160401b038211176104a357604052565b90601f801991011681019081106001600160401b038211176104a357604052565b6040519061021b60a0836104c3565b6040519061021b6060836104c3565b6040519061021b610100836104c3565b6040519061021b6040836104c3565b6040519061021b6080836104c3565b6001600160401b0381116104a35760051b60200190565b9080601f8301121561020a57813561055e81610530565b9261056c60405194856104c3565b81845260208085019260051b82010192831161020a57602001905b8282106105945750505090565b6020809183356105a3816101f9565b815201910190610587565b3461020a57602036600319011261020a576004356001600160401b03811161020a576105de903690600401610547565b6105f481516105ef60648210611f98565b612019565b5f5b82518110156106d75760019061064033600561062a610625610618868a61204b565b516001600160a01b031690565b610eae565b019060018060a01b03165f5260205260405f2090565b5461064b828561204b565b526002610658828561204b565b511015610672575f61066a828561204b565b525b016105f6565b61068561067f828561204b565b51612073565b61068f828561204b565b526106af6106a933600561062a610625610618878b61204b565b60019055565b6106d26106bf610618838761204b565b6106c9838661204b565b51903390612892565b61066c565b507f477bb716eacccc001de50dcdd6e25241283d080e6afb27443908b20f4e738b5e9161070960405192839283612081565b0390a1005b3461020a57602036600319011261020a5760043561072b816101f9565b6004546001600160a01b0316330361020a576001600160a01b0381165f908152600360205260409020805460021781555f8051602061461483398151915291905b5490610709604051928392836120db565b60e036600319011261020a57600435610795816101f9565b6024356107a1816101f9565b604435916107ae8361021d565b606435608435801515810361020a576107c561020e565b9160c435956001600160401b03871161020a576107e96107f197369060040161022e565b9690956120f6565b604080516001600160801b039384168152919092166020820152f35b3461020a57606036600319011261020a57610470610870600435610830816101f9565b60243561083c816101f9565b6044356001600160a01b039283165f9081526001602052604080822060029081015494909516825290209092015490612c58565b60405190151581529081906020820190565b5f91031261020a57565b3461020a575f36600319011261020a576004546040516001600160a01b039091168152602090f35b3461020a57602036600319011261020a576004356108d0611fef565b505f52600260205261047060405f206004604051916108ee83610488565b60018060a01b03815416835260018060a01b0360018201541660208401526002810154604084015260038101546060840152015460808201526040519182918291909160808060a083019460018060a01b03815116845260018060a01b03602082015116602085015260408101516040850152606081015160608501520151910152565b3461020a575f36600319011261020a5760205f54604051908152f35b3461020a57604036600319011261020a576004356109ab816101f9565b6024356109b7816101f9565b335f526003602052600260405f2054161561020a577f42e3c955499470d3dc1078d90519d90691c504c8856ea058daf2c1436c2dab4c9160018060a01b0381165f526001602052610a0e82600160405f200161243f565b604080516001600160a01b03928316815292909116602083015281908101610709565b3461020a57604036600319011261020a57600435610a4e816101f9565b6005546001600160a01b0316330361020a576103889060018060a01b0381165f526001602052610add610aad610aa1610a8e600460405f20015460801c90565b6004610a9986610eae565b015490612426565b6001600160801b031690565b5f6004610ab985610eae565b0155610ad76002610ac985610eae565b01546001600160801b031690565b9061245e565b905f6002610aea83610eae565b01556005546001600160a01b031690612892565b3461020a57602036600319011261020a57600480549035906001600160a01b0316330361020a576020817fbd209961024f2694b0afb3c8badd20b6477abb77b336b16892c3fa4b906d323c925f55604051908152a1602060405160018152f35b608036600319011261020a57600435610b76816101f9565b604435906024356064356001600160401b03811161020a57610b9c90369060040161022e565b600454919290916001600160a01b0316330361020a57600160ff1b85161561020a577f8f2eb922ee1b2f92e0051f7949a8c191264807725a1e435e91abebd28583830a946001600160801b03821693610cdf93610bfb91863389612852565b610c0e8183610c0988610eae565b612cb8565b610c1f610c1a86610eae565b612cdd565b610c9e610c4a610c2d6104f3565b3381526001600160a01b03881660208201525f6040820152612d14565b94610c77610c60875f52600260205260405f2090565b918560801c9289610c718560801b90565b91612d5a565b337f0000000000000000000000000000000000000000000000000000000000000000612e0c565b604080519586526001600160a01b0390961660208601526001600160801b0316948401949094526060830193909352608082019290925290819060a0820190565b0390a160405160018152602090f35b3461020a57608036600319011261020a57600435610d0b816101f9565b60243590610d18826101f9565b604435916064356001600160401b03811161020a57610d3b90369060040161022e565b909390610d48308461302d565b808311610e9c57506020610daa91610d7484610d6387610eae565b5490603f6127109260df1c16020490565b6001600160a01b0390961696610d8b858988612892565b6040516323e30c8b60e01b8152938492839289888a336004880161247a565b03815f895af18015610e97577f439148f0bbc682ca079e46d6e2c2f0c1e3b820f1a291b069d8882abf8cf18dd9915f91610e68575b5003610e4d57610e2493610e159291849160016001600160a01b03851603610e30575061062591610e0f9161245e565b82612ed3565b6004019081549060801b019055565b60405160018152602090f35b90610aa1610aa161062594610e449361245e565b90309084612e84565b62678c5b60e81b5f526001600160a01b03841660045260245ffd5b610e8a915060203d602011610e90575b610e8281836104c3565b81019061246b565b5f610ddf565b503d610e78565b61241b565b63fd9a760960e01b5f5260045260245ffd5b6001600160a01b03165f90815260016020526040902090565b3461020a57602036600319011261020a57600435610ee4816101f9565b60018060a01b03165f526003602052602060405f2054604051908152f35b60c036600319011261020a57600435610f1a816101f9565b60443590602435610f2a836101f9565b606435916084356001600160401b03811161020a57610f4d90369060040161022e565b9060a435946001600160401b03861161020a5761047096610f7561087097369060040161022e565b9690956124ca565b3461020a57602036600319011261020a576020610fa6600435610f9f816101f9565b309061302d565b604051908152f35b3461020a57602036600319011261020a57600435610fcb816101f9565b335f526003602052600260405f2054161561020a576001600160a01b0381165f90815260036020526040908190208054600119169081905590515f805160206146148339815191529290918291610cdf9190836120db565b90602080835192838152019201905f5b8181106110405750505090565b8251845260209384019390920191600101611033565b906020611067928181520190611023565b90565b3461020a57604036600319011261020a576004356001600160401b03811161020a5761109a903690600401610547565b602435906110a7826101f9565b8051606481101561020a576110bb90612019565b915f5b8251811015611112576001906001600160a01b036110dc828661204b565b51165f908152602083815260408083206001600160a01b038716845260050190915290205461110b828761204b565b52016110be565b604051806104708682611056565b3461020a57602036600319011261020a5760043561113d816101f9565b600454906001600160a01b038216330361020a576001600160a01b03166001600160a01b03199190911681176004556040519081527fa8d3850ce581f2add46670c1408b76ca1d0d4ef627eed4a89802ff670940082d90602090a1005b3461020a57604036600319011261020a576004356111b7816101f9565b6001600160a01b038181165f81815260016020819052604090912001546024359216330361020a575f52600160205260405f20916307ffffff60e51b83541660018060e51b038316810180911161123a577f075a13b9dbfb2e30d678551b8c2a4f9ede7468ca5273fa902a41d0e5775666699355610cdf604051928392836120db565b611f9f565b3461020a57604036600319011261020a5760043560243561125f816101f9565b5f805160206146348339815191525c6001600160a01b031661020a57335f805160206146348339815191525d611316826113106112b46112a7835f52600260205260405f2090565b546001600160a01b031690565b61130b6112dc60016112ce865f52600260205260405f2090565b01546001600160a01b031690565b6112fb6112e76104f3565b338152936001600160a01b03166020850152565b6001600160a01b03166040830152565b612d14565b14611f98565b61132d60016112ce845f52600260205260405f2090565b916113436112a7825f52600260205260405f2090565b6040805163b88e6d6360e01b81523360048201529491939190856024816001600160a01b037f0000000000000000000000000000000000000000000000000000000000000000165afa918215610e9757610470957f1129f35303e34d7efabdbd85614ed662beb4fc6942852b7a3e5a4f92074cbf319361145f925f925f92611546575b506001600160a01b0381165f9081526003602052604090206113ec905b54600116151590565b15611540575081905b6001600160a01b038281169082160361153b5750815b6001600160a01b0381165f90815260036020526040902061142b906113e3565b15611534575b61143a88610eae565b9161144486610eae565b611456895f52600260205260405f2090565b905f5494613097565b9361146f33600561062a84610eae565b546002811161150e575b506001600160a01b0382166114c4575b604080516001600160a01b0392831681529290911660208301528101849052606090a26114b4612840565b6040519081529081906020820190565b6114d333600561062a85610eae565b54600281116114e3575b50611489565b611501611508916114fc6106a933600561062a89610eae565b612073565b3384612892565b5f6114dd565b61152761152e916114fc6106a933600561062a88610eae565b3383612892565b5f611479565b5081611431565b61140b565b906113f5565b90925061156b915060403d604011611573575b61156381836104c3565b8101906127ed565b90915f6113c6565b503d611559565b3461020a57602036600319011261020a57600435611597816101f9565b335f526003602052600260405f2054161561020a576001600160a01b0381165f908152600360205260409081902080546001179081905590515f805160206146148339815191529290918291610cdf9190836120db565b3461020a57604036600319011261020a5760043561160b816101f9565b602435335f526003602052600260405f2054161561020a577fe40cf68f61d9a4e510244481f5aa34ba68de31cf3f9aa360604d688115d640c89160018060a01b0381165f5260016020526116628260405f20612cfa565b610cdf604051928392836120db565b3461020a575f36600319011261020a576004546001600160a01b0316330361020a57600580546001600160a01b0319169055005b3461020a57602036600319011261020a576004356116c2816101f9565b6004546001600160a01b0316330361020a576001600160a01b0381165f90815260036020526040902080546002191681555f80516020614614833981519152919061076c565b3461020a57604036600319011261020a576020610fa660043561172a816101f9565b6001600160a01b03165f90815260018352604090205461271060df9190911c603f16602435020490565b608036600319011261020a5760043561176c816101f9565b602435906117798261021d565b604435611785816101f9565b6064356001600160401b03811161020a576117a490369060040161022e565b93906001600160a01b0384166001036117cc5750610e2493506001600160801b031691612892565b6117e7949390926001600160801b0390921691903390613432565b610e24565b3461020a57606036600319011261020a5760043560243561180c8161021d565b60443590611819826101f9565b5f805160206146348339815191525c6001600160a01b031661020a57335f805160206146348339815191525d611861836113106112b46112a7835f52600260205260405f2090565b611869612812565b50611872612812565b506118886112a7845f52600260205260405f2090565b61189f60016112ce865f52600260205260405f2090565b6040805163b88e6d6360e01b8152336004820152949193917f000000000000000000000000000000000000000000000000000000000000000091866024816001600160a01b0386165afa958615610e9757611a16611b0294868a89611a11611a51967f63741ac8918076a6393e6e12659431a4927b53e16190a6b00af6a06697d868b89d611a4b995f925f92611b9e575b506001600160a01b0381165f908152600360205260409020611951906113e3565b15611b9657905b6001600160a01b0382811690821603611b915750815b6001600160a01b0381165f90815260036020526040902061198e906113e3565b15611b7d576119bb6119ac6119a66119fc9399610eae565b96610eae565b965f52600260205260405f2090565b966119ec5f54936119dc6119cd6104e4565b6001600160801b03909c168c52565b6001600160a01b031660208b0152565b6001600160a01b03166040890152565b60608701526001600160a01b03166080860152565b6139e8565b8092949195611a2a33600561062a8c610eae565b5460018111611b56575b506001600160a01b038a16611b0d575b3390613f3e565b60801b90565b6020820151909290611ac390611a8a906001600160801b03165b60408501516001600160801b03165b60018060801b03169060801b1790565b91611a7a611ab5611aa7611a6b602085015160018060801b031690565b95516001600160801b031690565b91516001600160801b031690565b604080516001600160a01b039788168152979096166020880152948601929092526060850191909152608084015260a0830191909152819060c0820190565b0390a2610e24612840565b611b1c33600561062a8d610eae565b548a60018211611b2e575b5050611a44565b611b4f916114fc6106a9611b4893600561062a3392610eae565b338c612892565b5f8a611b27565b611b70611b77916114fc6106a98d600561062a3392610eae565b338b612892565b5f611a34565b506119fc6119bb6119ac6119a68599610eae565b61196e565b508190611958565b909250611bba915060403d6040116115735761156381836104c3565b90915f611930565b60a036600319011261020a57600435611bda816101f9565b602435611be6816101f9565b60443590611bf38261021d565b6064356001600160401b03811161020a57611c1290369060040161022e565b6084949194356001600160401b03811161020a57611c3490369060040161022e565b90915f805160206146348339815191525c6001600160a01b031661020a57611cd690335f805160206146348339815191525d611c6e61274a565b97611c7761274a565b976001606d1b6001600160801b03611c9b836002611c948c610eae565b0154611fb3565b16111580611f82575b80611f4d575b611cb390611f98565b611cc68a82611cc18a610eae565b612efb565b6001600160801b03163387612852565b6001600160a01b038416159185908315611e99575b505050611cf66104f3565b3381526001600160a01b03831660208201526001600160a01b0384166040820152611d2090612d14565b94611d33865f52600260205260405f2090565b6040820180519196909390916001600160801b031690611d538260801b90565b60208501519091906001600160801b0316606086018051909a9189916001600160801b03166001600160801b031660809190911b1760208701516001600160801b03166060880180519096918d916001600160801b03166001600160801b031660809190911b1793611dc495612d9f565b5f14611ab5611e407fee89c9fd704272905456294f1b2b88581ebe0241f72c15b4f3db31d19388f6af9a611a7a611ab5611e32611b029b611e4e99611a7a98611e8557508051611e2090611ab5906001600160801b0316610c77565b60801b6001600160801b039091161790565b99516001600160801b031690565b94516001600160801b031690565b604080516001600160a01b0396871681529690951660208701529385019190915260608401526080830191909152819060a0820190565b611ab5611e94611e20926127cd565b610c77565b611f33611f4593611ec46002611eae8a610eae565b015460408c01516001600160801b031690613f8d565b6001600160801b03166060850190815292611f18611f0b611ee48b610eae565b548651611ef9906001600160801b0316610aa1565b603f6127109260d91c16820390040290565b6001600160801b03168552565b8351611f2c906001600160801b0316610aa1565b338a612852565b611f3f611ab587610eae565b90612efb565b5f8481611ceb565b50611f66611f5a88610eae565b54600160ff1b16151590565b80611caa5750611cb3611f7b611f5a8a610eae565b9050611caa565b506001600160a01b038781169089161415611ca4565b1561020a57565b634e487b7160e01b5f52601160045260245ffd5b6001600160801b03918216908216019190821161123a57565b6001600160a01b0390911681526001600160801b03909116602082015260400190565b60405190611ffc82610488565b5f6080838281528260208201528260408201528260608201520152565b9061202382610530565b61203060405191826104c3565b8281528092612041601f1991610530565b0190602036910137565b805182101561205f5760209160051b010190565b634e487b7160e01b5f52603260045260245ffd5b5f1981019190821161123a57565b9291604084019360408152825180955260206060820193015f955b8087106120b85750506110679394506020818403910152611023565b81516001600160a01b03168552600196909601956020948501949091019061209c565b6001600160a01b039091168152602081019190915260400190565b94979690939291905f805160206146348339815191525c6001600160a01b031661020a57335f805160206146348339815191525d6001600160a01b03891661238b575b5f9850600261214787610eae565b01549661215387610eae565b5491600261216088610eae565b015461216b88610eae565b54612174610502565b6001600160801b038716815297602089019d8e526121bb60408a01985f8a5260608b01975f895260808c019e8f5260a08c015260c08b0194855260e08b019384528a612916565b6001600160801b03871680151591908261236a575b5081612353575b8161231b575b506121e790611f98565b519b516001600160801b03169b6001600160801b038d1661271060cc9290921c607f1602049b8c61221791612426565b996122218a610eae565b905187516001600160801b03169061223892612c27565b8b61224289610eae565b915161224d92612c27565b85516001600160801b03166122629085612426565b6001600160801b03166122779290338a612852565b61228b6001600160801b0388163387612892565b516001600160801b031692516001600160801b03166122a991612426565b9051604080513381526001600160801b039485166020820152608093841b928516929092179082015291871685821b1760608301526001600160a01b0392831693909216917fe9174eb0d60b5dfcb132e979d11319f32d4a3ebdbf5abbb9600950c1cf8fab5b91a3919061021b612840565b6001915015151480612331575b156121e76121dd565b5087516121e79061234a906001600160801b0316610aa1565b15159050612328565b6001600160a01b038c8116908c16141591506121d7565b8a5191925090612382906001600160801b0316610aa1565b1415905f6121d0565b7f00000000000000000000000000000000000000000000000000000000000000006001600160a01b0316803b1561020a576040516376549e6760e11b81523360048201526001600160a01b039a909a1660248b01525f908a90604490829084905af1988915610e97575f99612401575b50612139565b8061240f8b612415936104c3565b80610882565b5f6123fb565b6040513d5f823e3d90fd5b6001600160801b03918216908216039190821161123a57565b80546001600160a01b0319166001600160a01b03909216919091179055565b9190820180921161123a57565b9081602091031261020a575190565b6001600160a01b039182168152911660208201526040810191909152606081019190915260a060808201819052810183905260c09290918190848401375f828201840152601f01601f1916010190565b9691959293909291905f805160206146348339815191525c6001600160a01b031661020a57335f805160206146348339815191525d6001600160a01b0361251560016112ce8a610eae565b161580612733575b61252690611f98565b608084901c956125389187338a612852565b61254d916001600160801b0384163389612852565b61255561274a565b908161256087610eae565b9161256a92612efb565b61257384610eae565b604082018051909190849086906001600160801b031660801b6001600160801b03909116176125a192612cb8565b6125a96104f3565b3381526001600160a01b03861660208201526001600160a01b03871660408201526125d390612d14565b815160208401516060850180519397909390926001600160801b0319608091821b81169390911b166001600160801b0391909116176126106104e4565b6001600160a01b038a168152916001600160a01b038b1660208401526040830152826060830152608082015261264e875f52600260205260405f2090565b906126589161277e565b82516001600160801b031661266c906127cd565b61269790337f0000000000000000000000000000000000000000000000000000000000000000612e0c565b925193519151604080519788526001600160a01b039889166020890152989097169786019790975260608501939093526001600160801b0390811660808581019190915295861b9181169190911760a08401526001600160801b03199190941b16919092161760c08201527f3fc0293a5a7bc73de220f0814bbbebc31e77ffcd41bf5e8be187471747bd7caa9060e090a160019061021b612840565b50612526612743611f5a8a610eae565b905061251d565b60405190608082018281106001600160401b038211176104a3576040525f6060838281528260208201528260408201520152565b90608060049161279760018060a01b038251168561243f565b60208101516127b2906001600160a01b03166001860161243f565b60408101516002850155606081015160038501550151910155565b60011b6002600160801b03811691906002600160811b0316820361123a57565b919082604091031261020a5760208251612806816101f9565b920151611067816101f9565b60405190606082018281106001600160401b038211176104a3576040525f6040838281528260208201520152565b5f5f805160206146348339815191525d565b61021b9493926001600160801b0316913091613432565b611a7a9061287e8360801d8260801d01613fa8565b926001600160801b03918216911601613fa8565b90919060016001600160a01b038216036128cb57505f808080936128b6955af11590565b6128bc57565b633d2cec6f60e21b5f5260045ffd5b60445f8080936020956040519763a9059cbb60e01b84526004526024525af13d15601f3d1160015f5114161716905f6060526040521561290757565b633c9fd93960e21b5f5260045ffd5b608081019182519061292f8160c0850193845190612c58565b61293a575b50505050565b60a08301906129668251612957610aa1875160018060801b031690565b607f6127109260c51c16020490565b6001600160801b0316604085019081529081516129ac9061299f906001600160801b031687516001600160801b0316612426565b612426565b6001600160801b03168652565b84516129c0906001600160801b0316610aa1565b151580612c13575b15612b99576129e383516129dd885160801c90565b90613ffa565b60e08601906129fb610aa183516129dd895160801c90565b6001600160801b0390911610612b8057612a1e612b0d91516129dd875160801c90565b8751612a2a8282613f8d565b885190916001600160801b03918216918316821115612b125750508751612ac49190612a7190612a649083906001600160801b0316612426565b6001600160801b03168a52565b612aab612a7f848a51613f8d565b60208b0180519091612a9e916001600160801b0316611fb3565b611fb3565b6001600160801b03169052565b8951906001600160801b0316608084901b175b90614041565b8852612af08651612aea612ad88483613f8d565b6001600160801b0316608085901b1790565b90614056565b86525b6060870180519091612a9e916001600160801b0316611fb3565b6129ac565b909150612b1f9250614023565b612b47612b2d828851613f8d565b6020890180519091612a9e916001600160801b0316611fb3565b87518751612b629190612abe906001600160801b0316612ad8565b8852612b768651612aea612ad88483613f8d565b86525f8752612af3565b50612b0d612b9484516129dd895160801c90565b612a1e565b5083519194509150612bb3906001600160801b0316610aa1565b92831561293457612bed612a9e92612a9e612bdd612c0a97855190607f6127109260c51c16020490565b82516001600160801b0316612426565b5182516001600160801b031690612c049082612957565b90611fb3565b5f808080612934565b50612c22818751865190612c58565b6129c8565b600490612c41926002820155019182549060801b90612869565b9055565b8181029291811591840414171561123a57565b9091612ca991612c9f90612c8c612c7c6001600160801b038716608084901c612c45565b6001600160801b03851690612c45565b9460801c906001600160801b0316612c45565b9060801c90612c45565b1015612cb457600190565b5f90565b909161021b92806002840155600383015560018060e51b03168155600133910161243f565b80546001600160e51b0316600160ff1b81019190821061123a5755565b60018060e51b038154169160e51b820180921161123a5755565b6040805182516001600160a01b03908116602080840191825285015182168385015293909201519091166060808301919091528152612d546080826104c3565b51902090565b91612d866002612c4194959395600381019660018060801b0388541615612d8f575b5001918254612869565b90558254612869565b612d99908261243f565b5f612d7c565b93612dcb919293600386019360018060801b0385541615612dfc575b50612d8660028701918254612869565b90556001600160a01b038116612de057505050565b81612df36004926001612c41950161243f565b01918254612869565b612e06908761243f565b5f612dbb565b91612e31926020925f60405180968195829463067e356d60e21b845260048401611fcc565b03926001600160a01b03165af1908115610e97575f91612e4f575090565b90506020813d602011612e7c575b81612e6a602093836104c3565b8101031261020a57516110678161021d565b3d9150612e5d565b6040516323b872dd60e01b81526001600160a01b03928316600482015292909116602483015260448201929092526020915f9160649183905af13d15601f3d1160015f51141617161561290757565b90341490811591612ee6575b506128bc57565b6001600160a01b03166001141590505f612edf565b80549092919061271060d99190911c603f166001600160801b03831602046001600160801b0316825281516001600160801b0316612f3891612426565b6001600160801b0316606082018181526002840180549092612f5991614023565b6001600160801b031660408401908152926004850190815490612f7c8260801c90565b60039097018054909760801b6001600160801b039091161784516001600160801b0316612fa891614023565b6001600160801b03908116602083018181529251612fc69216611fb3565b90516001600160801b03166001600160801b031660809190911b17612fea91612869565b9055815492516001600160801b031690516001600160801b03166001600160801b031660809190911b17918261301f91612869565b9055815490612c4191612869565b6001600160a01b03166001810361304357503190565b6040516370a0823160e01b81526001600160a01b039092166004830152602090829060249082905afa908115610e97575f9161307e575b5090565b611067915060203d602011610e9057610e8281836104c3565b94939092969591966004860195838383888a548d6003870154600160801b6001900316600160801b6001900319831617906003015490816130d791614023565b9060801c6130e491612426565b9b8c916130fb906001600160801b03841690612869565b90556131069561407f565b60048401805460038601549196916001600160801b03166001600160801b031982161760048b0154908161313991614023565b9060801c61314691612426565b9687916001600160801b03831661315c91612869565b90556131679561407f565b6001600160801b031660809190911b17918261021b916144b1565b60ff81160361020a57565b60208183031261020a578035906001600160401b03821161020a57019060408282031261020a57604051916131c1836104a8565b80356131cc81613182565b83526020810135906001600160401b03821161020a570181601f8201121561020a578035906001600160401b0382116104a35760405192613217601f8401601f1916602001856104c3565b8284526020838301011161020a57815f9260208093018386013783010152602082015290565b908160c091031261020a576040519060c08201908282106001600160401b038311176104a35760a091604052805183526020810151602084015260408101516040840152606081015161328f81613182565b606084015260808101516080840152015160a082015290565b929190604051936020850152604084015260ff60f81b1660608301526041825261021b6061836104c3565b805180835260209291819084018484015e5f828201840152601f01601f1916010190565b909261334f61010093604061106797966133248682516020809160018060a01b0381511684520151910152565b60208181015187840152910151606086015281516001600160a01b03166080860152015160a0840152565b6001600160a01b031660c082015260e0810182905201906132d3565b604061106794936101009360018060a01b0316835265ffffffffffff6060825160018060a01b03815116602087015260018060a01b036020820151168587015282858201511682870152015116608084015260018060a01b0360208201511660a0840152015160c08201528160e082015201906132d3565b908160a091031261020a576080604051916133fd83610488565b8051835260208101516020840152604081015161341981613182565b6040840152606081015160608401520151608082015290565b94936134439192939481019061318d565b6001600160a01b03851690600182036134645750505050905034036128bc57565b60ff613471825160ff1690565b16600181036134865750505061021b93612e84565b6002810361365b575060206134a6910151602080825183010191016133e3565b73898118e029aa17ed4763f432c1bdc1085d166cde82036135d357604051623f675f60e91b81526001600160a01b038416600482015291602090839060249082905afa908115610e975761358d5f9392849384916135b4575b5061357f602084015193613517604082015160ff1690565b60608201516080909201516040516323f2ebc360e21b60208201526001600160a01b038b16602482015230604482015260648101959095526084850196909652600160a485015260ff1660c484015260e4830152610104820193909352918290610124820190565b03601f1981018352826104c3565b60208151910182885af1156135a55761021b93612e84565b63203aa5b560e11b5f5260045ffd5b6135cd915060203d602011610e9057610e8281836104c3565b5f6134ff565b5f91508061365683925161357f6020840151936135f4604082015160ff1690565b606082015160809092015160405163d505accf60e01b60208201526001600160a01b03808c1660248301528c1660448201526064810195909552608485019690965260ff1660a484015260c483015260e4820193909352918290610104820190565b61358d565b909295949150600381145f146136fe575061367691506144f8565b9273419c606ed7dd9e411826a26ce9f146ed5a5f7c343b1561020a57604051631b63c28b60e11b81526001600160a01b03918216600482015291811660248301529283166044820152911660648201525f816084818373419c606ed7dd9e411826a26ce9f146ed5a5f7c345af18015610e97576136f05750565b8061240f5f61021b936104c3565b60048103613860575090602061371f9101516020808251830101910161323d565b906137dd61372d83516144f8565b92613787613744604083015165ffffffffffff1690565b61376c61374f610521565b6001600160a01b038a168152966001600160a01b03166020880152565b65ffffffffffff604087015265ffffffffffff166060860152565b60208101516137946104f3565b9485526001600160a01b038616602086015260408501526080810151906137d76137c7606060a084015193015160ff1690565b60f81b6001600160f81b03191690565b916132a8565b9173419c606ed7dd9e411826a26ce9f146ed5a5f7c343b1561020a576040516302b67b5760e41b8152925f918491829161381c91908a6004850161336b565b03818373419c606ed7dd9e411826a26ce9f146ed5a5f7c345af1918215610e97576136769261384c575b506144f8565b8061240f5f61385a936104c3565b5f613846565b60051461386f575b5050505050565b61388960206139069301516020808251830101910161323d565b9081516138a6613897610512565b6001600160a01b039097168752565b602086015260408201516020830151906138be6104f3565b968752602087015260408601526138e56138d6610512565b6001600160a01b039095168552565b60208401526080810151906137d76137c7606060a084015193015160ff1690565b9173419c606ed7dd9e411826a26ce9f146ed5a5f7c343b1561020a576139425f93604051958694859463187945bd60e11b8652600486016132f7565b03818373419c606ed7dd9e411826a26ce9f146ed5a5f7c345af18015610e9757613970575b80808080613868565b8061240f5f61397e936104c3565b5f613967565b1561398b57565b606460405162461bcd60e51b81526020600482015260046024820152634730313160e01b6044820152fd5b156139bd57565b606460405162461bcd60e51b81526020600482015260046024820152632398189960e11b6044820152fd5b9390926139f3612812565b506139fc612812565b936002840193613a0d855460801c90565b60038201549590613a379060801b6001600160801b0388161785516001600160801b031690614023565b95613a6889548a613a4d82600160ff1b16151590565b918215613f2d575b82613f00575b82613ecb575b5050613984565b60048901908154613a799060801c90565b60038b018054909b9160801b6001600160801b039091161787516001600160801b0316613aa7818093614023565b93613ab28160801c90565b60801b6001600160801b039091161790613acb91614023565b92613ad46104f3565b6001600160801b03918216815293811660208501908152911660408401818152600284018054959e939591938f93909260808f901b9091179190613b19908390614522565b9055815490613b2791614522565b9055845481516001600160801b031685519091906001600160801b031690608083901b6001600160801b03831617613b5e91614522565b8755613b6a8d8a614537565b613b7391612426565b6001600160801b03168152825482516001600160801b03166001600160801b031661271060d39290921c603f1602046001600160801b03168452516001600160801b0316606089015160208a01519192916001600160a01b031660408b01516001600160a01b031660808c01519092906001600160a01b031693516001600160801b031687516001600160801b0316613c0b91612426565b94613c1596614332565b516001600160801b031680613eb4575b505060018201546001600160a01b0316613c3f5750505050565b612c0a939650613ce390613cd3613ca888613ca36004613c8383613c7e613c69848d015460801c90565b60038d015460018060801b03169060801b1790565b614023565b970154611e20613c9b84613c7e84611e208160801c90565b965460801c90565b613f8d565b91613cc3613cb46104f3565b6001600160801b039096168652565b6001600160801b03166020850152565b6001600160801b03166040830152565b8095613d4f8354613d21600286015491613d09610aa1613d038560801c90565b8361450c565b6001600160801b038b16109081613e83575b506139b6565b6040840151613d40906001600160801b031660808a901b178092614522565b60028601556003850154614522565b600384015560048301548251613dad91613da0916001600160801b03166020860151613d96906001600160801b031692608083901b6001600160801b038516175b90614522565b6004880155612426565b6001600160801b03168352565b82546040830151613ded91613ddd91613dce906001600160801b0316610aa1565b603f6127109260d31c16020490565b6001600160801b03166020840152565b60208201516001600160801b031680613e67575b82516001600160801b031660608301516020840151909190613e61906001600160a01b03169361299a6040613e526080613e43838b015160018060a01b031690565b9901516001600160a01b031690565b9801516001600160801b031690565b95614332565b613e79600485015461035b8360801b90565b6004850155613e01565b60408701516001600160801b03169150613ea290610aa190859061450c565b6001600160801b03909116105f613d1b565b8154613ec29160801b61035b565b90555f80613c25565b88516002909201546001600160801b039092169250613eed91610aa19161450c565b6001600160801b03909116108a5f613a61565b9150613f1c610aa1613f16600284015460801c90565b8461450c565b6001600160801b038b161091613a5b565b8754600160ff1b1615159250613a55565b6001600160a01b031691823b1561020a57613f72925f9283604051809681958294637bd3ca3560e01b845260048401611fcc565b03925af18015610e9757613f835750565b5f61021b916104c3565b61106791608082901c6001600160801b039182169190921602045b6001600160801b038111613fc2576001600160801b031690565b505f90565b6001600160801b03909116908115613fe6576001600160801b03160490565b634e487b7160e01b5f52601260045260245ffd5b60bb1c6103ff16801561307a57600a0260018060801b03811690810361123a5761106791613fc7565b611067916001600160801b0380831660809390931c91160204613fa8565b611a7a9061287e8360801d8260801d03613fa8565b611a7a9061406b8360801d8260801d01613fa8565b926001600160801b03908116911603613fa8565b939092916140a3606460dd83901c601f166001600160801b03871602048095612426565b6001600160801b03811693909190606460fa83901c86020491606460f482901c603f1687020494896140fa606460ee85901c603f168a020498606460e886901c603f168202045b9490603f60649260e21c16020490565b976001600160a01b03831690816141dc57505050505061411a5f83611fb3565b335f9081526005909801602081905260409098206001600160801b03919091168154906141469161245e565b90556141528585611fb3565b6001600160801b03169061417690889060018060a01b03165f5260205260405f2090565b908154906141839161245e565b905561418e91612426565b9061419891612426565b906141a291612426565b906141ac91611fb3565b6001600160801b0316916141cf919060018060a01b03165f5260205260405f2090565b90815490612c419161245e565b612a999750918b93916142e09b9593610aa19b98975f9b6142f39f600161420a91015460018060a01b031690565b6001600160a01b039586169581168614158e14614321576001600160a01b03165f9081526005890160205260409020614251905b805490926001600160801b03169061245e565b90555b6001600160a01b0381168414158c14614310576001600160a01b03165f90815260058701602052604090206142889061423e565b90555b141588146142f6576001600160a01b03165f908152600580840160205260409091206142d99361423e9390916142be9085565b90555b019a8b9060018060a01b03165f5260205260405f2090565b9055611fb3565b335f908152602093909352604090922090565b55565b50600561430a61423e926142d99495611fb3565b936142c1565b5061431b9196611fb3565b9461428b565b5061432c9198611fb3565b96614254565b949590939092909161435a606460dd83901c601f166001600160801b03881602048096612426565b6001600160801b03811694909290606460fa84901c87020492606460f482901c603f16880204958a6143a5606460ee85901c603f168b020499606460e886901c603f168202046140ea565b986001600160a01b03831690816143c557505050505061411a9083611fb3565b612a999850908c94939291610aa19b98976142e09d979b6142f39f60016143f391015460018060a01b031690565b6001600160a01b0395861695811686146144a0576001600160a01b03165f90815260058901602052604090206144289061423e565b90555b6001600160a01b038116841461448f576001600160a01b03165f908152600587016020526040902061445c9061423e565b90555b146142f6576001600160a01b03165f908152600580840160205260409091206142d99361423e9390916142be9085565b5061449a9196611fb3565b9461445f565b506144ab9198611fb3565b9661442b565b6003810180546144cc906001600160801b0319851690612869565b905560018101546001600160a01b03166144e4575050565b6004612c4191019182549060801b90612869565b6001600160a01b038116908103613fc25790565b60b11c6103ff16801561307a5761106791613fc7565b611a7a9061406b8360801d8260801d03613fa8565b90612c4190600383016145bb61458a8254956145538760801c90565b9061459b6002820198611a7a61456a8b5460801c90565b6001600160801b03908116968a8216968892889291168202839004613fa8565b936001600160801b03160204613fa8565b60018201549093906001600160a01b03166145c8575b5050508254614522565b905582549060801b613d90565b613d906004614609930193611a7a8554936145f7818460018060801b036145ef8960801c90565b160204613fa8565b926001600160801b0386160204613fa8565b90555f80806145b156fe5d72191643a9d630c58937d62f5e056dcfa8dbf1aced1cb2f655ee1d7ecaf577cfdbe78f31bc5efa50605e8b11a7b6843971370ea97eb24de6e1a1eb9d235645a2646970667358221220d558d5b02191dcfdf8b35299211a59cbb8e7392413b17de8f227dd1372b457f464736f6c634300081a0033","linkReferences":{}},"methodIdentifiers":{"addbanlist(address)":"b153b920","buyGood(address,address,uint128,uint256,bool,address,bytes)":"13a124c3","changeGoodOwner(address,address)":"41e12373","changemarketcreator(address)":"a06ad0e8","collectCommission(address[])":"0d2700ab","collectProof(uint256,address)":"a676a600","disinvestProof(uint256,uint128,address)":"f4662f20","flashFee(address,uint256)":"d9d98ce4","flashLoan(address,address,uint256,bytes)":"5cffe9de","getGoodState(address)":"08238466","getProofState(uint256)":"3f117740","goodWelfare(address,uint128,bytes)":"06cf4e7f","initGood(address,uint256,address,uint256,bytes,bytes)":"5f755d65","initMetaGood(address,uint256,uint256,bytes)":"51ff9a16","investGood(address,address,uint128,bytes,bytes)":"f878e809","ishigher(address,address,uint256)":"1412723a","marketconfig()":"402f5ab5","marketcreator()":"3d995173","maxFlashLoan(address)":"613255ab","modifyGoodConfig(address,uint256)":"b1efb921","payGood(address,uint128,address,bytes)":"f29771cb","queryCommission(address[],address)":"9b222794","removeMarketor(address)":"cc00da2d","removeSecurityKeeper()":"c9544f18","removebanlist(address)":"9551177a","securityKeeper(address,uint256)":"44436184","setMarketConfig(uint256)":"45818e4c","setMarketor(address)":"102e5c27","updateGoodConfig(address,uint256)":"a3b74a49","userConfig(address)":"5f35b0b3"},"id":61}