{"abi":[{"type":"constructor","inputs":[{"name":"_officialToken","type":"address","internalType":"address"}],"stateMutability":"nonpayable"},{"type":"function","name":"main_divest","inputs":[{"name":"triggercontract","type":"address","internalType":"address"},{"name":"divestquanity","type":"uint256","internalType":"uint256"},{"name":"currentstate","type":"uint256","internalType":"uint256"},{"name":"recipent","type":"address","internalType":"address"}],"outputs":[{"name":"","type":"bool","internalType":"bool"}],"stateMutability":"nonpayable"},{"type":"function","name":"main_invest","inputs":[{"name":"triggercontract","type":"address","internalType":"address"},{"name":"investquanity","type":"uint256","internalType":"uint256"},{"name":"currentstate","type":"uint256","internalType":"uint256"},{"name":"recipent","type":"address","internalType":"address"}],"outputs":[{"name":"","type":"bool","internalType":"bool"}],"stateMutability":"nonpayable"},{"type":"function","name":"main_swapmake","inputs":[{"name":"triggercontract","type":"address","internalType":"address"},{"name":"opgood","type":"uint256","internalType":"uint256"},{"name":"trade","type":"uint256","internalType":"uint256"},{"name":"currentstate","type":"uint256","internalType":"uint256"},{"name":"opstate","type":"uint256","internalType":"uint256"},{"name":"recipent","type":"address","internalType":"address"}],"outputs":[{"name":"","type":"bool","internalType":"bool"}],"stateMutability":"nonpayable"},{"type":"function","name":"main_swaptake","inputs":[{"name":"triggercontract","type":"address","internalType":"address"},{"name":"opgood","type":"uint256","internalType":"uint256"},{"name":"trade","type":"uint256","internalType":"uint256"},{"name":"currentstate","type":"uint256","internalType":"uint256"},{"name":"opstate","type":"uint256","internalType":"uint256"},{"name":"recipent","type":"address","internalType":"address"}],"outputs":[{"name":"","type":"bool","internalType":"bool"}],"stateMutability":"nonpayable"},{"type":"function","name":"officialMarket","inputs":[],"outputs":[{"name":"","type":"address","internalType":"address"}],"stateMutability":"view"},{"type":"function","name":"officialToken","inputs":[],"outputs":[{"name":"","type":"address","internalType":"address"}],"stateMutability":"view"},{"type":"function","name":"setofficialMarket","inputs":[{"name":"_officialMarket","type":"address","internalType":"address"}],"outputs":[],"stateMutability":"nonpayable"}],"bytecode":{"object":"0x60a0604052348015600e575f80fd5b506040516104d93803806104d9833981016040819052602b91603b565b6001600160a01b03166080526066565b5f60208284031215604a575f80fd5b81516001600160a01b0381168114605f575f80fd5b9392505050565b6080516104546100855f395f818161010f015261022501526104545ff3fe608060405234801561000f575f80fd5b5060043610610079575f3560e01c8063317b938411610058578063317b9384146100e257806342f8a140146100f7578063682bae511461010a578063bd6efde6146100f7575f80fd5b8062d687e91461007d5780632023707d146100a5578063222419a9146100b8575b5f80fd5b61009061008b366004610348565b610131565b60405190151581526020015b60405180910390f35b6100906100b3366004610348565b6101c8565b5f546100ca906001600160a01b031681565b6040516001600160a01b03909116815260200161009c565b6100f56100f036600461038b565b61021a565b005b6100906101053660046103ab565b610287565b6100ca7f000000000000000000000000000000000000000000000000000000000000000081565b5f80546001600160a01b03163314610147575f80fd5b60405163bf2f96c160e01b815260048101859052602481018490526001600160a01b03838116604483015286169063bf2f96c1906064015b6020604051808303815f875af115801561019b573d5f803e3d5ffd5b505050506040513d601f19601f820116820180604052508101906101bf91906103ff565b95945050505050565b5f80546001600160a01b031633146101de575f80fd5b6040516319ce0a8b60e31b815260048101859052602481018490526001600160a01b03838116604483015286169063ce7054589060640161017f565b336001600160a01b037f0000000000000000000000000000000000000000000000000000000000000000161461024e575f80fd5b5f80547fffffffffffffffffffffffff0000000000000000000000000000000000000000166001600160a01b0392909216919091179055565b5f80546001600160a01b0316331461029d575f80fd5b60405163e12950a960e01b8152600481018790526024810186905260448101859052606481018490526001600160a01b03838116608483015288169063e12950a99060a4016020604051808303815f875af11580156102fe573d5f803e3d5ffd5b505050506040513d601f19601f8201168201806040525081019061032291906103ff565b979650505050505050565b80356001600160a01b0381168114610343575f80fd5b919050565b5f805f806080858703121561035b575f80fd5b6103648561032d565b935060208501359250604085013591506103806060860161032d565b905092959194509250565b5f6020828403121561039b575f80fd5b6103a48261032d565b9392505050565b5f805f805f8060c087890312156103c0575f80fd5b6103c98761032d565b9550602087013594506040870135935060608701359250608087013591506103f360a0880161032d565b90509295509295509295565b5f6020828403121561040f575f80fd5b815180151581146103a4575f80fdfea264697066735822122001f6277a5a62f4a7afed776d0d44e2ea580c25663f5d7f69dde59b5dbbf2ea2764736f6c634300081a0033","linkReferences":{}},"methodIdentifiers":{"main_divest(address,uint256,uint256,address)":"00d687e9","main_invest(address,uint256,uint256,address)":"2023707d","main_swapmake(address,uint256,uint256,uint256,uint256,address)":"42f8a140","main_swaptake(address,uint256,uint256,uint256,uint256,address)":"bd6efde6","officialMarket()":"222419a9","officialToken()":"682bae51","setofficialMarket(address)":"317b9384"},"id":54}