{"abi":[{"type":"constructor","inputs":[{"name":"_marketor","type":"address","internalType":"address"}],"stateMutability":"nonpayable"},{"type":"function","name":"addLimitOrder","inputs":[{"name":"_orders","type":"tuple[]","internalType":"struct S_orderDetails[]","components":[{"name":"timestamp","type":"uint96","internalType":"uint96"},{"name":"sender","type":"address","internalType":"address"},{"name":"fromerc20","type":"address","internalType":"address"},{"name":"toerc20","type":"address","internalType":"address"},{"name":"amount","type":"uint256","internalType":"uint256"}]}],"outputs":[],"stateMutability":"nonpayable"},{"type":"function","name":"addauths","inputs":[{"name":"_marketor","type":"address","internalType":"address"},{"name":"_auths","type":"uint256","internalType":"uint256"}],"outputs":[],"stateMutability":"nonpayable"},{"type":"function","name":"addmaxslot","inputs":[{"name":"_maxslot","type":"uint256","internalType":"uint256"}],"outputs":[],"stateMutability":"nonpayable"},{"type":"function","name":"auths","inputs":[{"name":"","type":"address","internalType":"address"}],"outputs":[{"name":"","type":"uint256","internalType":"uint256"}],"stateMutability":"view"},{"type":"function","name":"changemarketcreator","inputs":[{"name":"_newmarketor","type":"address","internalType":"address"}],"outputs":[],"stateMutability":"nonpayable"},{"type":"function","name":"cleandeadorder","inputs":[{"name":"ids","type":"uint256[]","internalType":"uint256[]"},{"name":"smallorder","type":"bool","internalType":"bool"}],"outputs":[],"stateMutability":"nonpayable"},{"type":"function","name":"marketcreator","inputs":[],"outputs":[{"name":"","type":"address","internalType":"address"}],"stateMutability":"view"},{"type":"function","name":"maxfreeremain","inputs":[],"outputs":[{"name":"","type":"uint96","internalType":"uint96"}],"stateMutability":"view"},{"type":"function","name":"maxslot","inputs":[],"outputs":[{"name":"","type":"uint256","internalType":"uint256"}],"stateMutability":"view"},{"type":"function","name":"orderpointer","inputs":[],"outputs":[{"name":"","type":"uint256","internalType":"uint256"}],"stateMutability":"view"},{"type":"function","name":"orders","inputs":[{"name":"","type":"uint256","internalType":"uint256"}],"outputs":[{"name":"timestamp","type":"uint96","internalType":"uint96"},{"name":"sender","type":"address","internalType":"address"},{"name":"fromerc20","type":"address","internalType":"address"},{"name":"toerc20","type":"address","internalType":"address"},{"name":"amount","type":"uint256","internalType":"uint256"}],"stateMutability":"view"},{"type":"function","name":"queryLimitOrder","inputs":[{"name":"_ordersids","type":"uint256[]","internalType":"uint256[]"}],"outputs":[{"name":"","type":"tuple[]","internalType":"struct S_orderDetails[]","components":[{"name":"timestamp","type":"uint96","internalType":"uint96"},{"name":"sender","type":"address","internalType":"address"},{"name":"fromerc20","type":"address","internalType":"address"},{"name":"toerc20","type":"address","internalType":"address"},{"name":"amount","type":"uint256","internalType":"uint256"}]}],"stateMutability":"view"},{"type":"function","name":"queryOrderStatus","inputs":[{"name":"_ordersid","type":"uint256","internalType":"uint256"}],"outputs":[{"name":"","type":"bool","internalType":"bool"}],"stateMutability":"view"},{"type":"function","name":"queryOrdersStatus","inputs":[{"name":"_ordersids","type":"uint256[]","internalType":"uint256[]"}],"outputs":[{"name":"","type":"bool[]","internalType":"bool[]"}],"stateMutability":"view"},{"type":"function","name":"removeLimitOrder","inputs":[{"name":"orderid","type":"uint256","internalType":"uint256"}],"outputs":[],"stateMutability":"nonpayable"},{"type":"function","name":"removeauths","inputs":[{"name":"_marketor","type":"address","internalType":"address"}],"outputs":[],"stateMutability":"nonpayable"},{"type":"function","name":"setMaxfreeRemain","inputs":[{"name":"times","type":"uint96","internalType":"uint96"}],"outputs":[],"stateMutability":"nonpayable"},{"type":"function","name":"takeBatchLimitOrdersAMM","inputs":[{"name":"orderids","type":"uint256[]","internalType":"uint256[]"},{"name":"_tolerance","type":"uint96","internalType":"uint96"},{"name":"_takecontract","type":"address","internalType":"contract I_TTSwap_LimitOrderTaker"},{"name":"_takecaller","type":"address","internalType":"address"},{"name":"_isall","type":"bool","internalType":"bool"}],"outputs":[{"name":"","type":"bool[]","internalType":"bool[]"}],"stateMutability":"nonpayable"},{"type":"function","name":"takeLimitOrderAMM","inputs":[{"name":"orderid","type":"uint256","internalType":"uint256"},{"name":"_tolerance","type":"uint96","internalType":"uint96"},{"name":"_takecontract","type":"address","internalType":"contract I_TTSwap_LimitOrderTaker"},{"name":"_takecaller","type":"address","internalType":"address"}],"outputs":[{"name":"_isSuccess","type":"bool","internalType":"bool"}],"stateMutability":"nonpayable"},{"type":"function","name":"takeLimitOrderNormal","inputs":[{"name":"orderids","type":"uint256[]","internalType":"uint256[]"}],"outputs":[],"stateMutability":"nonpayable"},{"type":"function","name":"updateLimitOrder","inputs":[{"name":"orderid","type":"uint256","internalType":"uint256"},{"name":"_order","type":"tuple","internalType":"struct S_orderDetails","components":[{"name":"timestamp","type":"uint96","internalType":"uint96"},{"name":"sender","type":"address","internalType":"address"},{"name":"fromerc20","type":"address","internalType":"address"},{"name":"toerc20","type":"address","internalType":"address"},{"name":"amount","type":"uint256","internalType":"uint256"}]}],"outputs":[],"stateMutability":"nonpayable"},{"type":"event","name":"e_addLimitOrder","inputs":[{"name":"_orderid","type":"uint256","indexed":false,"internalType":"uint256"},{"name":"_sender","type":"address","indexed":false,"internalType":"address"},{"name":"_fromerc20","type":"address","indexed":false,"internalType":"address"},{"name":"_toerc20","type":"address","indexed":false,"internalType":"address"},{"name":"_amount","type":"uint256","indexed":false,"internalType":"uint256"}],"anonymous":false},{"type":"event","name":"e_addauths","inputs":[{"name":"_marketor","type":"address","indexed":false,"internalType":"address"},{"name":"_auths","type":"uint256","indexed":false,"internalType":"uint256"}],"anonymous":false},{"type":"event","name":"e_addmaxslot","inputs":[{"name":"","type":"uint256","indexed":false,"internalType":"uint256"}],"anonymous":false},{"type":"event","name":"e_changemarketcreator","inputs":[{"name":"_newmarketcreator","type":"address","indexed":false,"internalType":"address"}],"anonymous":false},{"type":"event","name":"e_cleandeadorder","inputs":[{"name":"_orderid","type":"uint256","indexed":false,"internalType":"uint256"},{"name":"_feeamount","type":"uint256","indexed":false,"internalType":"uint256"},{"name":"_reciver","type":"address","indexed":false,"internalType":"address"}],"anonymous":false},{"type":"event","name":"e_cleandeadorders","inputs":[{"name":"_orderids","type":"uint256[]","indexed":false,"internalType":"uint256[]"}],"anonymous":false},{"type":"event","name":"e_deploy","inputs":[{"name":"marketcreator","type":"address","indexed":false,"internalType":"address"},{"name":"maxfreeremain","type":"uint256","indexed":false,"internalType":"uint256"},{"name":"","type":"uint256","indexed":false,"internalType":"uint256"}],"anonymous":false},{"type":"event","name":"e_removeLimitOrder","inputs":[{"name":"_orderid","type":"uint256","indexed":false,"internalType":"uint256"}],"anonymous":false},{"type":"event","name":"e_removeauths","inputs":[{"name":"_marketor","type":"address","indexed":false,"internalType":"address"}],"anonymous":false},{"type":"event","name":"e_setmaxfreeremain","inputs":[{"name":"_maxfreeremain","type":"uint96","indexed":false,"internalType":"uint96"}],"anonymous":false},{"type":"event","name":"e_takeOrder","inputs":[{"name":"_orderid","type":"uint256","indexed":false,"internalType":"uint256"}],"anonymous":false},{"type":"event","name":"e_updateLimitOrder","inputs":[{"name":"_orderid","type":"uint256","indexed":false,"internalType":"uint256"},{"name":"_fromerc20","type":"address","indexed":false,"internalType":"address"},{"name":"_toerc20","type":"address","indexed":false,"internalType":"address"},{"name":"_amount","type":"uint256","indexed":false,"internalType":"uint256"}],"anonymous":false},{"type":"error","name":"ERC20TransferFailed","inputs":[]},{"type":"error","name":"NativeTransferFailed","inputs":[]},{"type":"error","name":"lessAmountError","inputs":[{"name":"_orderid","type":"uint256","internalType":"uint256"}]}],"bytecode":{"object":"0x6080604052348015600e575f80fd5b50604051612693380380612693833981016040819052602b91609e565b62268d6f60a41b6001600160a01b03821690811760058190556103e85f81905560408051938452600160a01b9092046001600160601b03166020840152908201527f808babd30ff81f5b4adccf3f670c96e578e38ceabbf694a13475ae37de0043ce9060600160405180910390a15060c9565b5f6020828403121560ad575f80fd5b81516001600160a01b038116811460c2575f80fd5b9392505050565b6125bd806100d65f395ff3fe608060405234801561000f575f80fd5b506004361061016e575f3560e01c80635be7b788116100d2578063a06ad0e811610088578063dcda429d11610063578063dcda429d146103ac578063e2c2f283146103bf578063f66d6485146103df575f80fd5b8063a06ad0e8146102d0578063a85c38ef146102e3578063ba5726721461037a575f80fd5b806365ddabed116100b857806365ddabed146102a25780636eaa0cba146102b55780639dbbca5f146102c8575f80fd5b80635be7b7881461027057806364e72dbd14610283575f80fd5b8063499591fe11610127578063542128dd1161010d578063542128dd14610237578063564164511461024a57806358088c121461025d575f80fd5b8063499591fe146102045780634a849e3514610217575f80fd5b80631b952b3b116101575780631b952b3b146101a357806320ced07c146101c65780633d995173146101d9575f80fd5b806315b7e29714610172578063160d04f214610187575b5f80fd5b610185610180366004611dba565b6103f2565b005b61019060015481565b6040519081526020015b60405180910390f35b6101b66101b1366004611e03565b610470565b604051901515815260200161019a565b6101b66101d4366004611dba565b6106aa565b6005546101ec906001600160a01b031681565b6040516001600160a01b03909116815260200161019a565b610185610212366004611e51565b6106ce565b61022a610225366004611f3c565b610752565b60405161019a9190611f76565b610185610245366004611fba565b610804565b610185610258366004612072565b610872565b61018561026b366004611dba565b610a37565b61022a61027e3660046120aa565b610a91565b61019061029136600461212d565b60046020525f908152604090205481565b6101856102b0366004611f3c565b6110b7565b6101856102c3366004612148565b6112db565b6101905f5481565b6101856102de36600461212d565b6115d8565b6103396102f1366004611dba565b600360208190525f918252604090912080546001820154600283015492909301546001600160601b038216936001600160a01b03600160601b90930483169390831692169085565b604080516001600160601b0390961686526001600160a01b03948516602087015292841692850192909252919091166060830152608082015260a00161019a565b60055461039490600160a01b90046001600160601b031681565b6040516001600160601b03909116815260200161019a565b6101856103ba366004612197565b61163c565b6103d26103cd366004611f3c565b611825565b60405161019a9190612232565b6101856103ed36600461212d565b611ad4565b5f81815260036020526040902054600160601b90046001600160a01b0316331461041a575f80fd5b600881901c5f9081526002602052604090208054600160ff84161b191690556040518181527f819a71a589292d274fb52415373f4cb49b577ec0e842dfa039d992dc38d3053b906020015b60405180910390a150565b604080516080810182525f80825260208201819052918101829052606081018290525f86815260036020526040812080546002909101546104c5916001600160a01b0391821691600160601b90910416611b5e565b604080516080810182525f8a81526003602081815284832060018101546001600160a01b03908116865260028201548116838701528184015486880152938e905291905254600160601b900481166060830152915163748226db60e11b815290945091925086169063e9044db6906105459085908a9089906004016122bd565b6020604051808303815f875af1158015610561573d5f803e3d5ffd5b505050506040513d601f19601f82011682018060405250810190610585919061232d565b505f87815260036020526040812080546002909101546105b9916001600160a01b0391821691600160601b90910416611b5e565b5f89815260036020819052604090912001549091506001600160801b03166105e1838361235c565b10156106085760405163424b2c2f60e01b8152600481018990526024015b60405180910390fd5b5f88815260036020819052604090912080549181015460019091015461064a926001600160a01b0391821692600160601b90910490911690899060801c611bf0565b600888901c5f9081526002602052604090208054600160ff8b161b191690556040518881527f40e0d127017b9c9ff8852374b313d997f022e0c42e857ed394394b45214092339060200160405180910390a1506001979650505050505050565b600881901c5f90815260026020526040812054600160ff84161b1615155b92915050565b630268d6f0816001600160601b03161180156106f457506005546001600160a01b031633145b6106fc575f80fd5b600580546001600160a01b0316600160a01b6001600160601b038416908102919091179091556040519081527f4e92768b14c8bda9ff5e5e7c486ec2644831d5b16bc66966f4427d791a1ae62b90602001610465565b60605f825167ffffffffffffffff81111561076f5761076f611e6a565b604051908082528060200260200182016040528015610798578160200160208202803683370190505b5090505f5b83518110156107fd576107d38482815181106107bb576107bb61236f565b60200260200101516002611c9190919063ffffffff16565b8282815181106107e5576107e561236f565b9115156020928302919091019091015260010161079d565b5092915050565b6005546001600160a01b0316331461081a575f80fd5b6001600160a01b0382165f81815260046020908152604091829020849055815192835282018390527f967d50df84a5ebb45902fa277d5c3b0bc6403497c9fd6da2ecbd9ed420038f1491015b60405180910390a15050565b5f82815260036020526040902054600160601b90046001600160a01b0316331480156108b75750600882901c5f90815260026020526040902054600160ff84161b1615155b6108bf575f80fd5b6040808201515f848152600360205291909120600101546001600160a01b0390811691161461091c576040818101515f84815260036020529190912060010180546001600160a01b0319166001600160a01b039092169190911790555b60608101515f838152600360205260409020600201546001600160a01b039081169116146109775760608101515f83815260036020526040902060020180546001600160a01b0319166001600160a01b039092169190911790555b60808101515f8381526003602081905260409091200154146109ab5760808101515f83815260036020819052604090912001555b5f8281526003602090815260409182902080546bffffffffffffffffffffffff1916426001600160601b03161790558282015160608085015160808087015186518981526001600160a01b039586169681019690965293909116948401949094528201527f249ccd56175700337a7a3021ae4d04abcc8f01ff32d64f802a416cd7217c595a9101610866565b335f908152600460205260409020546001148015610a5557505f5481115b610a5d575f80fd5b5f8190556040518181527f5e0e68bb2163e5ce5ba96f4e636ef0fe987aecb974185e6decaf76eedba4673790602001610465565b60605f865167ffffffffffffffff811115610aae57610aae611e6a565b604051908082528060200260200182016040528015610ad7578160200160208202803683370190505b5090505f875167ffffffffffffffff811115610af557610af5611e6a565b604051908082528060200260200182016040528015610b4557816020015b604080516080810182525f8082526020808301829052928201819052606082015282525f19909201910181610b135790505b5090505f885167ffffffffffffffff811115610b6357610b63611e6a565b604051908082528060200260200182016040528015610b8c578160200160208202803683370190505b5090505f805b8a51811015610da357610c1f60035f8d8481518110610bb357610bb361236f565b602002602001015181526020019081526020015f205f01600c9054906101000a90046001600160a01b031660035f8e8581518110610bf357610bf361236f565b60209081029190910181015182528101919091526040015f20600201546001600160a01b031690611b5e565b858281518110610c3157610c3161236f565b602002602001018181525050610c528b82815181106107bb576107bb61236f565b15610d9b57604051806080016040528060035f8e8581518110610c7757610c7761236f565b602002602001015181526020019081526020015f206001015f9054906101000a90046001600160a01b03166001600160a01b0316815260200160035f8e8581518110610cc557610cc561236f565b602002602001015181526020019081526020015f206002015f9054906101000a90046001600160a01b03166001600160a01b0316815260200160035f8e8581518110610d1357610d1361236f565b602002602001015181526020019081526020015f2060030154815260200160035f8e8581518110610d4657610d4661236f565b602002602001015181526020019081526020015f205f01600c9054906101000a90046001600160a01b03166001600160a01b0316815250848281518110610d8f57610d8f61236f565b60200260200101819052505b600101610b92565b886001600160a01b031663c2ed2bc085604051602001610dc39190612383565b60408051601f19818403018152908290528e517fffffffff0000000000000000000000000000000000000000000000000000000060e085901b168352610e0f928f918e91600401612401565b5f604051808303815f875af1158015610e2a573d5f803e3d5ffd5b505050506040513d5f823e601f3d908101601f19168201604052610e519190810190612460565b92505f90505b8a518110156110a857610eb6848281518110610e7557610e7561236f565b602002602001015160600151858381518110610e9357610e9361236f565b6020026020010151602001516001600160a01b0316611b5e90919063ffffffff16565b915081858281518110610ecb57610ecb61236f565b6020026020010151610ef7868481518110610ee857610ee861236f565b60200260200101516040015190565b6001600160801b0316610f0a91906124f0565b1015610f74578615610f4c578a8181518110610f2857610f2861236f565b602002602001015160405163424b2c2f60e01b81526004016105ff91815260200190565b5f838281518110610f5f57610f5f61236f565b911515602092830291909101909101526110a0565b610ffc848281518110610f8957610f8961236f565b6020026020010151606001518a610fbd878581518110610fab57610fab61236f565b60200260200101516040015160801c90565b6001600160801b0316878581518110610fd857610fd861236f565b60200260200101515f01516001600160a01b0316611bf0909392919063ffffffff16565b6110298b82815181106110115761101161236f565b60200260200101516002611b3590919063ffffffff16565b7f40e0d127017b9c9ff8852374b313d997f022e0c42e857ed394394b45214092338b828151811061105c5761105c61236f565b602002602001015160405161107391815260200190565b60405180910390a1600183828151811061108f5761108f61236f565b911515602092830291909101909101525b600101610e57565b50909998505050505050505050565b5f5b81518110156112d7576110d78282815181106107bb576107bb61236f565b156112cf576111a360035f8484815181106110f4576110f461236f565b602002602001015181526020019081526020015f205f01600c9054906101000a90046001600160a01b03163361115760035f8787815181106111385761113861236f565b602002602001015181526020019081526020015f206003015460801c90565b6001600160801b031660035f8787815181106111755761117561236f565b60209081029190910181015182528101919091526040015f20600101546001600160a01b0316929190611bf0565b6112673360035f8585815181106111bc576111bc61236f565b602002602001015181526020019081526020015f205f01600c9054906101000a90046001600160a01b031661121b60035f8787815181106111ff576111ff61236f565b602002602001015181526020019081526020015f206003015490565b6001600160801b031660035f8787815181106112395761123961236f565b60209081029190910181015182528101919091526040015f20600201546001600160a01b0316929190611bf0565b61127c8282815181106110115761101161236f565b7f40e0d127017b9c9ff8852374b313d997f022e0c42e857ed394394b45214092338282815181106112af576112af61236f565b60200260200101516040516112c691815260200190565b60405180910390a15b6001016110b9565b5050565b335f908152600460205260409020546001146112f5575f80fd5b5f808215611382575f5b845181101561134557600881901c5f90815260026020526040902054600160ff83161b161561133d5761133d8582815181106110115761101161236f565b6001016112ff565b507f56e9d16e5207883abc366e8ca2cf12a5fb5b7f2dde2c81c26a7cc2ab7abc8bc7846040516113759190612503565b60405180910390a16115d2565b5f5b84518110156115d05760035f8683815181106113a2576113a261236f565b60209081029190910181015182528101919091526040015f20546113cf906001600160601b03164261235c565b92506113e68582815181106107bb576107bb61236f565b80156114035750600554600160a01b90046001600160601b031683115b156115c857600554600160a01b90046001600160601b03168311611427575f611444565b60055461144490600160a01b90046001600160601b03168461235c565b9250821561145e57611459620d2f008461253a565b611460565b5f5b92505f831161146f575f61147a565b61147a83600a6124f0565b92506064831161148a578261148d565b60645b925082156115c8576103e8836114b160035f8986815181106111385761113861236f565b6001600160801b03166114c49190612559565b6114ce919061253a565b915061152a60035f8784815181106114e8576114e861236f565b602002602001015181526020019081526020015f205f01600c9054906101000a90046001600160a01b0316338460035f8a87815181106111755761117561236f565b61155985828151811061153f5761153f61236f565b60200260200101515f6002611cb49092919063ffffffff16565b7f165f8fabc98e0a023ab52a03812592bb846c7908a2641c4043d010861a456b9885828151811061158c5761158c61236f565b602002602001015183336040516115bf9392919092835260208301919091526001600160a01b0316604082015260600190565b60405180910390a15b600101611384565b505b50505050565b6005546001600160a01b031633146115ee575f80fd5b600580546001600160a01b0319166001600160a01b0383169081179091556040519081527fa8d3850ce581f2add46670c1408b76ca1d0d4ef627eed4a89802ff670940082d90602001610465565b5f5b81518110156112d7576001545f5461165891600291611d01565b600181905550428282815181106116715761167161236f565b60209081029190910101516001600160601b039091169052815182908290811061169d5761169d61236f565b602090810291909101810151600180545f908152600380855260408083208551868801516001600160601b03909116600160601b6001600160a01b03928316021782558287015182870180546001600160a01b0319908116928416929092179055606088015160028085018054909316919093161790556080909601519201919091558254600881901c83529390945292909220805460ff9092169290921b1790557fed73586b9277e2c9c4f2da2ef2a05c854908458f4c1fc03d45d126dd5cc9f0f76001548383815181106117755761177561236f565b6020026020010151602001518484815181106117935761179361236f565b6020026020010151604001518585815181106117b1576117b161236f565b6020026020010151606001518686815181106117cf576117cf61236f565b6020026020010151608001516040516118159594939291909485526001600160a01b03938416602086015291831660408501529091166060830152608082015260a00190565b60405180910390a160010161163e565b60605f825167ffffffffffffffff81111561184257611842611e6a565b60405190808252806020026020018201604052801561189957816020015b6040805160a0810182525f808252602080830182905292820181905260608201819052608082015282525f199092019101816118605790505b5090505f5b83518110156107fd5760035f8583815181106118bc576118bc61236f565b602002602001015181526020019081526020015f205f015f9054906101000a90046001600160601b03168282815181106118f8576118f861236f565b60200260200101515f01906001600160601b031690816001600160601b03168152505060035f8583815181106119305761193061236f565b602002602001015181526020019081526020015f205f01600c9054906101000a90046001600160a01b031682828151811061196d5761196d61236f565b6020026020010151602001906001600160a01b031690816001600160a01b03168152505060035f8583815181106119a6576119a661236f565b602002602001015181526020019081526020015f206001015f9054906101000a90046001600160a01b03168282815181106119e3576119e361236f565b6020026020010151604001906001600160a01b031690816001600160a01b03168152505060035f858381518110611a1c57611a1c61236f565b602002602001015181526020019081526020015f206002015f9054906101000a90046001600160a01b0316828281518110611a5957611a5961236f565b6020026020010151606001906001600160a01b031690816001600160a01b03168152505060035f858381518110611a9257611a9261236f565b602002602001015181526020019081526020015f2060030154828281518110611abd57611abd61236f565b60209081029190910101516080015260010161189e565b6005546001600160a01b03163314611aea575f80fd5b6001600160a01b0381165f8181526004602090815260408083209290925590519182527f9a821e99e211e800333328bcb1c6366ea4b42ec0afe08976ad13ff7e2244a6479101610465565b600881901c5f90815260209290925260409091208054600160ff9093169290921b199091169055565b5f60016001600160a01b03841603611b8157506001600160a01b038116316106c8565b6040516370a0823160e01b81526001600160a01b0383811660048301528416906370a0823190602401602060405180830381865afa158015611bc5573d5f803e3d5ffd5b505050506040513d601f19601f82011682018060405250810190611be99190612570565b9392505050565b5f60016001600160a01b03861603611c2757813414611c2257604051633d2cec6f60e21b815260040160405180910390fd5b6115d0565b6040516323b872dd60e01b81526001600160a01b03851660048201526001600160a01b038416602482015282604482015260205f6064835f8a5af13d15601f3d1160015f5114161716915050806115d057604051633c9fd93960e21b815260040160405180910390fd5b600881901c5f90815260208390526040902054600160ff83161b16151592915050565b8015611cdd57600882901c5f9081526020849052604090208054600160ff85161b179055505050565b600882901c5f9081526020849052604090208054600160ff85161b19169055505050565b5f6001600884901c825b8215611d8257505f8181526020879052604090205460ff909516945b60ff86108015611d345750825b15611d5557611d448660016124f0565b95506001861b811615159250611d27565b8561010003611d7d57848214611d7557611d708260016124f0565b611d77565b5f5b91505f95505b611d0b565b611d9086600884901b6124f0565b600887901c5f9081526020899052604090208054600160ff8a161b17905593505050509392505050565b5f60208284031215611dca575f80fd5b5035919050565b80356001600160601b0381168114611de7575f80fd5b919050565b6001600160a01b0381168114611e00575f80fd5b50565b5f805f8060808587031215611e16575f80fd5b84359350611e2660208601611dd1565b92506040850135611e3681611dec565b91506060850135611e4681611dec565b939692955090935050565b5f60208284031215611e61575f80fd5b611be982611dd1565b634e487b7160e01b5f52604160045260245ffd5b604051601f8201601f1916810167ffffffffffffffff81118282101715611ea757611ea7611e6a565b604052919050565b5f67ffffffffffffffff821115611ec857611ec8611e6a565b5060051b60200190565b5f82601f830112611ee1575f80fd5b8135611ef4611eef82611eaf565b611e7e565b8082825260208201915060208360051b860101925085831115611f15575f80fd5b602085015b83811015611f32578035835260209283019201611f1a565b5095945050505050565b5f60208284031215611f4c575f80fd5b813567ffffffffffffffff811115611f62575f80fd5b611f6e84828501611ed2565b949350505050565b602080825282518282018190525f918401906040840190835b81811015611faf5783511515835260209384019390920191600101611f8f565b509095945050505050565b5f8060408385031215611fcb575f80fd5b8235611fd681611dec565b946020939093013593505050565b5f60a08284031215611ff4575f80fd5b60405160a0810167ffffffffffffffff8111828210171561201757612017611e6a565b60405290508061202683611dd1565b8152602083013561203681611dec565b6020820152604083013561204981611dec565b6040820152606083013561205c81611dec565b6060820152608092830135920191909152919050565b5f8060c08385031215612083575f80fd5b823591506120948460208501611fe4565b90509250929050565b8015158114611e00575f80fd5b5f805f805f60a086880312156120be575f80fd5b853567ffffffffffffffff8111156120d4575f80fd5b6120e088828901611ed2565b9550506120ef60208701611dd1565b935060408601356120ff81611dec565b9250606086013561210f81611dec565b9150608086013561211f8161209d565b809150509295509295909350565b5f6020828403121561213d575f80fd5b8135611be981611dec565b5f8060408385031215612159575f80fd5b823567ffffffffffffffff81111561216f575f80fd5b61217b85828601611ed2565b925050602083013561218c8161209d565b809150509250929050565b5f602082840312156121a7575f80fd5b813567ffffffffffffffff8111156121bd575f80fd5b8201601f810184136121cd575f80fd5b80356121db611eef82611eaf565b80828252602082019150602060a084028501019250868311156121fc575f80fd5b6020840193505b82841015612228576122158785611fe4565b825260208201915060a084019350612203565b9695505050505050565b602080825282518282018190525f918401906040840190835b81811015611faf5783516001600160601b0381511684526001600160a01b0360208201511660208501526001600160a01b0360408201511660408501526001600160a01b036060820151166060850152608081015160808501525060a08301925060208401935060018101905061224b565b60c0810161230782866001600160a01b0381511682526001600160a01b036020820151166020830152604081015160408301526001600160a01b0360608201511660608301525050565b6001600160601b03841660808301526001600160a01b03831660a0830152949350505050565b5f6020828403121561233d575f80fd5b8151611be98161209d565b634e487b7160e01b5f52601160045260245ffd5b818103818111156106c8576106c8612348565b634e487b7160e01b5f52603260045260245ffd5b602080825282518282018190525f918401906040840190835b81811015611faf576123eb8385516001600160a01b0381511682526001600160a01b036020820151166020830152604081015160408301526001600160a01b0360608201511660608301525050565b602093909301926080929092019160010161239c565b608081525f8551806080840152806020880160a085015e5f60a0828501015260a0601f19601f8301168401019150506001600160601b03851660208301526001600160a01b038416604083015260ff8316606083015295945050505050565b5f60208284031215612470575f80fd5b815167ffffffffffffffff811115612486575f80fd5b8201601f81018413612496575f80fd5b80516124a4611eef82611eaf565b8082825260208201915060208360051b8501019250868311156124c5575f80fd5b6020840193505b828410156122285783516124df8161209d565b8252602093840193909101906124cc565b808201808211156106c8576106c8612348565b602080825282518282018190525f918401906040840190835b81811015611faf57835183526020938401939092019160010161251c565b5f8261255457634e487b7160e01b5f52601260045260245ffd5b500490565b80820281158282048414176106c8576106c8612348565b5f60208284031215612580575f80fd5b505191905056fea26469706673582212200758916096fce59ccc8cfcc24e94552d0b0c7dd95e10c6349bcdd0314f6fd9db64736f6c634300081a0033","linkReferences":{}},"methodIdentifiers":{"addLimitOrder((uint96,address,address,address,uint256)[])":"dcda429d","addauths(address,uint256)":"542128dd","addmaxslot(uint256)":"58088c12","auths(address)":"64e72dbd","changemarketcreator(address)":"a06ad0e8","cleandeadorder(uint256[],bool)":"6eaa0cba","marketcreator()":"3d995173","maxfreeremain()":"ba572672","maxslot()":"9dbbca5f","orderpointer()":"160d04f2","orders(uint256)":"a85c38ef","queryLimitOrder(uint256[])":"e2c2f283","queryOrderStatus(uint256)":"20ced07c","queryOrdersStatus(uint256[])":"4a849e35","removeLimitOrder(uint256)":"15b7e297","removeauths(address)":"f66d6485","setMaxfreeRemain(uint96)":"499591fe","takeBatchLimitOrdersAMM(uint256[],uint96,address,address,bool)":"5be7b788","takeLimitOrderAMM(uint256,uint96,address,address)":"1b952b3b","takeLimitOrderNormal(uint256[])":"65ddabed","updateLimitOrder(uint256,(uint96,address,address,address,uint256))":"56416451"},"id":56}