{"abi":[{"type":"constructor","inputs":[{"name":"_marketconfig","type":"uint256","internalType":"uint256"},{"name":"_officialTokenContract","type":"address","internalType":"address"},{"name":"_marketcreator","type":"address","internalType":"address"},{"name":"_securitykeeper","type":"address","internalType":"address"}],"stateMutability":"nonpayable"},{"type":"receive","stateMutability":"payable"},{"type":"function","name":"addbanlist","inputs":[{"name":"_user","type":"address","internalType":"address"}],"outputs":[{"name":"","type":"bool","internalType":"bool"}],"stateMutability":"nonpayable"},{"type":"function","name":"allowance","inputs":[{"name":"","type":"address","internalType":"address"},{"name":"","type":"address","internalType":"address"},{"name":"","type":"uint256","internalType":"uint256"}],"outputs":[{"name":"","type":"uint256","internalType":"uint256"}],"stateMutability":"view"},{"type":"function","name":"approve","inputs":[{"name":"spender","type":"address","internalType":"address"},{"name":"id","type":"uint256","internalType":"uint256"},{"name":"amount","type":"uint256","internalType":"uint256"}],"outputs":[{"name":"","type":"bool","internalType":"bool"}],"stateMutability":"nonpayable"},{"type":"function","name":"balanceOf","inputs":[{"name":"","type":"address","internalType":"address"},{"name":"","type":"uint256","internalType":"uint256"}],"outputs":[{"name":"","type":"uint256","internalType":"uint256"}],"stateMutability":"view"},{"type":"function","name":"buyGood","inputs":[{"name":"_goodid1","type":"address","internalType":"address"},{"name":"_goodid2","type":"address","internalType":"address"},{"name":"_swapQuantity","type":"uint128","internalType":"uint128"},{"name":"_tradetimes","type":"uint128","internalType":"uint128"},{"name":"_recipent","type":"address","internalType":"address"},{"name":"data","type":"bytes","internalType":"bytes"}],"outputs":[{"name":"good1change","type":"uint256","internalType":"uint256"},{"name":"good2change","type":"uint256","internalType":"uint256"}],"stateMutability":"payable"},{"type":"function","name":"buyGoodCheck","inputs":[{"name":"_goodid1","type":"address","internalType":"address"},{"name":"_goodid2","type":"address","internalType":"address"},{"name":"_swapQuantity","type":"uint128","internalType":"uint128"},{"name":"_tradetimes","type":"uint128","internalType":"uint128"}],"outputs":[{"name":"good1change","type":"uint256","internalType":"uint256"},{"name":"good2change","type":"uint256","internalType":"uint256"}],"stateMutability":"view"},{"type":"function","name":"changeGoodOwner","inputs":[{"name":"_goodid","type":"address","internalType":"address"},{"name":"_to","type":"address","internalType":"address"}],"outputs":[],"stateMutability":"nonpayable"},{"type":"function","name":"changeReStakingContrat","inputs":[{"name":"_target","type":"address","internalType":"address"}],"outputs":[],"stateMutability":"nonpayable"},{"type":"function","name":"changemarketcreator","inputs":[{"name":"_newmarketor","type":"address","internalType":"address"}],"outputs":[],"stateMutability":"nonpayable"},{"type":"function","name":"collectCommission","inputs":[{"name":"_goodid","type":"address[]","internalType":"address[]"}],"outputs":[],"stateMutability":"payable"},{"type":"function","name":"collectProof","inputs":[{"name":"_proofid","type":"uint256","internalType":"uint256"},{"name":"_gater","type":"address","internalType":"address"}],"outputs":[{"name":"profit_","type":"uint256","internalType":"uint256"}],"stateMutability":"payable"},{"type":"function","name":"disinvestProof","inputs":[{"name":"_proofid","type":"uint256","internalType":"uint256"},{"name":"_goodQuantity","type":"uint128","internalType":"uint128"},{"name":"_gater","type":"address","internalType":"address"}],"outputs":[{"name":"","type":"uint128","internalType":"uint128"},{"name":"","type":"uint128","internalType":"uint128"}],"stateMutability":"payable"},{"type":"function","name":"flashFee","inputs":[{"name":"token","type":"address","internalType":"address"},{"name":"amount","type":"uint256","internalType":"uint256"}],"outputs":[{"name":"","type":"uint256","internalType":"uint256"}],"stateMutability":"view"},{"type":"function","name":"flashLoan","inputs":[{"name":"receiver","type":"address","internalType":"contract IERC3156FlashBorrower"},{"name":"token","type":"address","internalType":"address"},{"name":"amount","type":"uint256","internalType":"uint256"},{"name":"data","type":"bytes","internalType":"bytes"}],"outputs":[{"name":"","type":"bool","internalType":"bool"}],"stateMutability":"nonpayable"},{"type":"function","name":"getGoodState","inputs":[{"name":"goodkey","type":"address","internalType":"address"}],"outputs":[{"name":"","type":"tuple","internalType":"struct S_GoodTmpState","components":[{"name":"goodConfig","type":"uint256","internalType":"uint256"},{"name":"owner","type":"address","internalType":"address"},{"name":"currentState","type":"uint256","internalType":"uint256"},{"name":"investState","type":"uint256","internalType":"uint256"},{"name":"feeQuantityState","type":"uint256","internalType":"uint256"}]}],"stateMutability":"view"},{"type":"function","name":"getProofState","inputs":[{"name":"proofid","type":"uint256","internalType":"uint256"}],"outputs":[{"name":"","type":"tuple","internalType":"struct S_ProofState","components":[{"name":"currentgood","type":"address","internalType":"address"},{"name":"valuegood","type":"address","internalType":"address"},{"name":"state","type":"uint256","internalType":"uint256"},{"name":"invest","type":"uint256","internalType":"uint256"},{"name":"valueinvest","type":"uint256","internalType":"uint256"}]}],"stateMutability":"view"},{"type":"function","name":"getRecentGoodState","inputs":[{"name":"good1","type":"address","internalType":"address"},{"name":"good2","type":"address","internalType":"address"}],"outputs":[{"name":"","type":"uint256","internalType":"uint256"},{"name":"","type":"uint256","internalType":"uint256"}],"stateMutability":"view"},{"type":"function","name":"goodWelfare","inputs":[{"name":"goodid","type":"address","internalType":"address"},{"name":"welfare","type":"uint128","internalType":"uint128"},{"name":"data","type":"bytes","internalType":"bytes"}],"outputs":[],"stateMutability":"payable"},{"type":"function","name":"initGood","inputs":[{"name":"_valuegood","type":"address","internalType":"address"},{"name":"_initial","type":"uint256","internalType":"uint256"},{"name":"_erc20address","type":"address","internalType":"address"},{"name":"_goodConfig","type":"uint256","internalType":"uint256"},{"name":"_normaldata","type":"bytes","internalType":"bytes"},{"name":"_valuedata","type":"bytes","internalType":"bytes"}],"outputs":[{"name":"","type":"bool","internalType":"bool"}],"stateMutability":"payable"},{"type":"function","name":"initMetaGood","inputs":[{"name":"_erc20address","type":"address","internalType":"address"},{"name":"_initial","type":"uint256","internalType":"uint256"},{"name":"_goodConfig","type":"uint256","internalType":"uint256"},{"name":"data","type":"bytes","internalType":"bytes"}],"outputs":[{"name":"","type":"bool","internalType":"bool"}],"stateMutability":"payable"},{"type":"function","name":"investGood","inputs":[{"name":"_togood","type":"address","internalType":"address"},{"name":"_valuegood","type":"address","internalType":"address"},{"name":"_quantity","type":"uint128","internalType":"uint128"},{"name":"data1","type":"bytes","internalType":"bytes"},{"name":"data2","type":"bytes","internalType":"bytes"}],"outputs":[{"name":"","type":"bool","internalType":"bool"}],"stateMutability":"payable"},{"type":"function","name":"isOperator","inputs":[{"name":"","type":"address","internalType":"address"},{"name":"","type":"address","internalType":"address"}],"outputs":[{"name":"","type":"bool","internalType":"bool"}],"stateMutability":"view"},{"type":"function","name":"ishigher","inputs":[{"name":"goodid","type":"address","internalType":"address"},{"name":"valuegood","type":"address","internalType":"address"},{"name":"compareprice","type":"uint256","internalType":"uint256"}],"outputs":[{"name":"","type":"bool","internalType":"bool"}],"stateMutability":"view"},{"type":"function","name":"marketconfig","inputs":[],"outputs":[{"name":"","type":"uint256","internalType":"uint256"}],"stateMutability":"view"},{"type":"function","name":"marketcreator","inputs":[],"outputs":[{"name":"","type":"address","internalType":"address"}],"stateMutability":"view"},{"type":"function","name":"maxFlashLoan","inputs":[{"name":"good","type":"address","internalType":"address"}],"outputs":[{"name":"","type":"uint256","internalType":"uint256"}],"stateMutability":"view"},{"type":"function","name":"modifyGoodConfig","inputs":[{"name":"_goodid","type":"address","internalType":"address"},{"name":"_goodConfig","type":"uint256","internalType":"uint256"}],"outputs":[{"name":"","type":"bool","internalType":"bool"}],"stateMutability":"nonpayable"},{"type":"function","name":"multicall","inputs":[{"name":"data","type":"bytes[]","internalType":"bytes[]"}],"outputs":[{"name":"results","type":"bytes[]","internalType":"bytes[]"}],"stateMutability":"payable"},{"type":"function","name":"queryCommission","inputs":[{"name":"_goodid","type":"address[]","internalType":"address[]"},{"name":"_recipent","type":"address","internalType":"address"}],"outputs":[{"name":"","type":"uint256[]","internalType":"uint256[]"}],"stateMutability":"view"},{"type":"function","name":"removeSecurityKeeper","inputs":[],"outputs":[],"stateMutability":"nonpayable"},{"type":"function","name":"removebanlist","inputs":[{"name":"_user","type":"address","internalType":"address"}],"outputs":[{"name":"","type":"bool","internalType":"bool"}],"stateMutability":"nonpayable"},{"type":"function","name":"securityKeeper","inputs":[{"name":"token","type":"address","internalType":"address"}],"outputs":[],"stateMutability":"payable"},{"type":"function","name":"setMarketConfig","inputs":[{"name":"_marketconfig","type":"uint256","internalType":"uint256"}],"outputs":[{"name":"","type":"bool","internalType":"bool"}],"stateMutability":"nonpayable"},{"type":"function","name":"setMarketor","inputs":[{"name":"_newmarketor","type":"address","internalType":"address"},{"name":"auth","type":"uint256","internalType":"uint256"}],"outputs":[],"stateMutability":"nonpayable"},{"type":"function","name":"setOperator","inputs":[{"name":"operator","type":"address","internalType":"address"},{"name":"approved","type":"bool","internalType":"bool"}],"outputs":[{"name":"","type":"bool","internalType":"bool"}],"stateMutability":"nonpayable"},{"type":"function","name":"stakeETH","inputs":[{"name":"token","type":"address","internalType":"address"},{"name":"amount","type":"uint128","internalType":"uint128"}],"outputs":[],"stateMutability":"nonpayable"},{"type":"function","name":"supportsInterface","inputs":[{"name":"interfaceId","type":"bytes4","internalType":"bytes4"}],"outputs":[{"name":"","type":"bool","internalType":"bool"}],"stateMutability":"view"},{"type":"function","name":"syncReward","inputs":[{"name":"token","type":"address","internalType":"address"}],"outputs":[],"stateMutability":"nonpayable"},{"type":"function","name":"transfer","inputs":[{"name":"receiver","type":"address","internalType":"address"},{"name":"id","type":"uint256","internalType":"uint256"},{"name":"amount","type":"uint256","internalType":"uint256"}],"outputs":[{"name":"","type":"bool","internalType":"bool"}],"stateMutability":"nonpayable"},{"type":"function","name":"transferFrom","inputs":[{"name":"sender","type":"address","internalType":"address"},{"name":"receiver","type":"address","internalType":"address"},{"name":"id","type":"uint256","internalType":"uint256"},{"name":"amount","type":"uint256","internalType":"uint256"}],"outputs":[{"name":"","type":"bool","internalType":"bool"}],"stateMutability":"nonpayable"},{"type":"function","name":"unstakeETH","inputs":[{"name":"token","type":"address","internalType":"address"},{"name":"amount","type":"uint128","internalType":"uint128"}],"outputs":[],"stateMutability":"nonpayable"},{"type":"function","name":"updateGoodConfig","inputs":[{"name":"_goodid","type":"address","internalType":"address"},{"name":"_goodConfig","type":"uint256","internalType":"uint256"}],"outputs":[{"name":"","type":"bool","internalType":"bool"}],"stateMutability":"nonpayable"},{"type":"function","name":"userConfig","inputs":[{"name":"","type":"address","internalType":"address"}],"outputs":[{"name":"","type":"uint256","internalType":"uint256"}],"stateMutability":"view"},{"type":"event","name":"Approval","inputs":[{"name":"owner","type":"address","indexed":true,"internalType":"address"},{"name":"spender","type":"address","indexed":true,"internalType":"address"},{"name":"id","type":"uint256","indexed":true,"internalType":"uint256"},{"name":"amount","type":"uint256","indexed":false,"internalType":"uint256"}],"anonymous":false},{"type":"event","name":"OperatorSet","inputs":[{"name":"owner","type":"address","indexed":true,"internalType":"address"},{"name":"operator","type":"address","indexed":true,"internalType":"address"},{"name":"approved","type":"bool","indexed":false,"internalType":"bool"}],"anonymous":false},{"type":"event","name":"Transfer","inputs":[{"name":"caller","type":"address","indexed":false,"internalType":"address"},{"name":"from","type":"address","indexed":true,"internalType":"address"},{"name":"to","type":"address","indexed":true,"internalType":"address"},{"name":"id","type":"uint256","indexed":true,"internalType":"uint256"},{"name":"amount","type":"uint256","indexed":false,"internalType":"uint256"}],"anonymous":false},{"type":"event","name":"e_buyGood","inputs":[{"name":"sellgood","type":"address","indexed":true,"internalType":"address"},{"name":"forgood","type":"address","indexed":true,"internalType":"address"},{"name":"swapvalue","type":"uint256","indexed":false,"internalType":"uint256"},{"name":"good1change","type":"uint256","indexed":false,"internalType":"uint256"},{"name":"good2change","type":"uint256","indexed":false,"internalType":"uint256"}],"anonymous":false},{"type":"event","name":"e_changegoodowner","inputs":[{"name":"goodid","type":"address","indexed":false,"internalType":"address"},{"name":"to","type":"address","indexed":false,"internalType":"address"}],"anonymous":false},{"type":"event","name":"e_changemarketcreator","inputs":[{"name":"_newmarketor","type":"address","indexed":false,"internalType":"address"}],"anonymous":false},{"type":"event","name":"e_collectProof","inputs":[{"name":"_proofNo","type":"uint256","indexed":true,"internalType":"uint256"},{"name":"_normalGoodNo","type":"address","indexed":false,"internalType":"address"},{"name":"_valueGoodNo","type":"address","indexed":false,"internalType":"address"},{"name":"_profit","type":"uint256","indexed":false,"internalType":"uint256"}],"anonymous":false},{"type":"event","name":"e_collectProtocolFee","inputs":[{"name":"goodid","type":"address","indexed":false,"internalType":"address"},{"name":"feeamount","type":"uint256","indexed":false,"internalType":"uint256"}],"anonymous":false},{"type":"event","name":"e_collectcommission","inputs":[{"name":"_gooid","type":"address[]","indexed":false,"internalType":"address[]"},{"name":"_commisionamount","type":"uint256[]","indexed":false,"internalType":"uint256[]"}],"anonymous":false},{"type":"event","name":"e_disinvestProof","inputs":[{"name":"_proofNo","type":"uint256","indexed":true,"internalType":"uint256"},{"name":"_normalGoodNo","type":"address","indexed":false,"internalType":"address"},{"name":"_valueGoodNo","type":"address","indexed":false,"internalType":"address"},{"name":"_value","type":"uint256","indexed":false,"internalType":"uint256"},{"name":"_normalgood","type":"uint256","indexed":false,"internalType":"uint256"},{"name":"_valuegood","type":"uint256","indexed":false,"internalType":"uint256"},{"name":"_profit","type":"uint256","indexed":false,"internalType":"uint256"}],"anonymous":false},{"type":"event","name":"e_goodWelfare","inputs":[{"name":"goodid","type":"address","indexed":false,"internalType":"address"},{"name":"welfare","type":"uint128","indexed":false,"internalType":"uint128"}],"anonymous":false},{"type":"event","name":"e_initGood","inputs":[{"name":"_proofNo","type":"uint256","indexed":false,"internalType":"uint256"},{"name":"_goodid","type":"address","indexed":false,"internalType":"address"},{"name":"_valuegoodNo","type":"address","indexed":false,"internalType":"address"},{"name":"_goodConfig","type":"uint256","indexed":false,"internalType":"uint256"},{"name":"_construct","type":"uint256","indexed":false,"internalType":"uint256"},{"name":"_normalinitial","type":"uint256","indexed":false,"internalType":"uint256"},{"name":"_value","type":"uint256","indexed":false,"internalType":"uint256"}],"anonymous":false},{"type":"event","name":"e_initMetaGood","inputs":[{"name":"_proofNo","type":"uint256","indexed":false,"internalType":"uint256"},{"name":"_goodid","type":"address","indexed":false,"internalType":"address"},{"name":"_construct","type":"uint256","indexed":false,"internalType":"uint256"},{"name":"_goodConfig","type":"uint256","indexed":false,"internalType":"uint256"},{"name":"_initial","type":"uint256","indexed":false,"internalType":"uint256"}],"anonymous":false},{"type":"event","name":"e_investGood","inputs":[{"name":"_proofNo","type":"uint256","indexed":true,"internalType":"uint256"},{"name":"_normalgoodid","type":"address","indexed":false,"internalType":"address"},{"name":"_valueGoodNo","type":"address","indexed":false,"internalType":"address"},{"name":"_value","type":"uint256","indexed":false,"internalType":"uint256"},{"name":"_invest","type":"uint256","indexed":false,"internalType":"uint256"},{"name":"_valueinvest","type":"uint256","indexed":false,"internalType":"uint256"}],"anonymous":false},{"type":"event","name":"e_modifiedUserConfig","inputs":[{"name":"_user","type":"address","indexed":false,"internalType":"address"},{"name":"config","type":"uint256","indexed":false,"internalType":"uint256"}],"anonymous":false},{"type":"event","name":"e_modifyGoodConfig","inputs":[{"name":"_goodid","type":"address","indexed":false,"internalType":"address"},{"name":"_goodconfig","type":"uint256","indexed":false,"internalType":"uint256"}],"anonymous":false},{"type":"event","name":"e_setMarketConfig","inputs":[{"name":"_marketconfig","type":"uint256","indexed":false,"internalType":"uint256"}],"anonymous":false},{"type":"event","name":"e_transferdel","inputs":[{"name":"delproofid","type":"uint256","indexed":false,"internalType":"uint256"},{"name":"existsproofid","type":"uint256","indexed":false,"internalType":"uint256"}],"anonymous":false},{"type":"event","name":"e_updateGoodConfig","inputs":[{"name":"_goodid","type":"address","indexed":false,"internalType":"address"},{"name":"_goodConfig","type":"uint256","indexed":false,"internalType":"uint256"}],"anonymous":false},{"type":"error","name":"ApproveFailed","inputs":[]},{"type":"error","name":"ERC20PermitFailed","inputs":[]},{"type":"error","name":"ERC20TransferFailed","inputs":[]},{"type":"error","name":"ERC3156ExceededMaxLoan","inputs":[{"name":"maxLoan","type":"uint256","internalType":"uint256"}]},{"type":"error","name":"ERC3156InvalidReceiver","inputs":[{"name":"receiver","type":"address","internalType":"address"}]},{"type":"error","name":"ERC3156UnsupportedToken","inputs":[{"name":"token","type":"address","internalType":"address"}]},{"type":"error","name":"NativeETHTransferFailed","inputs":[]},{"type":"error","name":"TTSwapError","inputs":[{"name":"seq","type":"uint256","internalType":"uint256"}]},{"type":"error","name":"noEnoughOutputError","inputs":[]}],"bytecode":{"object":"0x60a0346100cf57601f6160c338819003918201601f19168301916001600160401b038311848410176100d3578084926080946040528339810103126100cf5780519061004d602082016100e7565b91610066606061005f604085016100e7565b93016100e7565b608093909352600755600880546001600160a01b039283166001600160a01b03199182161790915560098054929093169116179055604051615fc790816100fc823960805181818161135901528181611da601528181612f63015281816134cc01526137f80152f35b5f80fd5b634e487b7160e01b5f52604160045260245ffd5b51906001600160a01b03821682036100cf5756fe6080604052600436101561001a575b3615610018575f80fd5b005b5f3560e01c8062796f71146102c7578062fdd58e146102c257806301ffc9a7146102bd57806306cf4e7f146102b857806308238466146102b3578063095bcdb6146102ae5780630d2700ab146102a9578063119ac094146102a45780631412723a1461029f5780633bd164361461029a5780633c9fe544146102955780633d995173146102905780633f1177401461028b578063402f5ab51461028657806341e1237314610281578063426a84931461027c57806345818e4c1461027757806351ff9a1614610272578063558a72971461026d578063598af9e7146102685780635cffe9de146102635780635f35b0b31461025e5780635f755d6514610259578063613255ab1461025457806373db17921461024f57806381a860d11461024a5780638c706eb5146102455780639551177a146102405780639b2227941461023b578063a06ad0e814610236578063a3b74a4914610231578063a676a6001461022c578063ac9650d814610227578063b153b92014610222578063b1efb9211461021d578063b6363cf214610218578063c9544f1814610213578063cde3c0c51461020e578063d9d98ce414610209578063f151e78614610204578063f4662f20146101ff578063f878e809146101fa5763fe99049a0361000e57612825565b6123dd565b612365565b6122c2565b612276565b612210565b6121dc565b612194565b612120565b6120ac565b612045565b611c8a565b611beb565b611b71565b611aa5565b6119dd565b61194b565b61181c565b61169e565b611648565b6115cd565b611592565b61150b565b6114bb565b61141f565b611201565b61119f565b61111e565b611081565b611064565b610fa6565b610f7e565b610ea8565b610b8a565b610ada565b610a49565b61089a565b6106c5565b6105bc565b610451565b6103bd565b610374565b610309565b6001600160a01b038116036102dd57565b5f80fd5b60409060031901126102dd576004356102f9816102cc565b90602435610306816102cc565b90565b346102dd57610317366102e1565b6001600160a01b039182165f9081526003602090815260408083206002908101549590941683529182902090920154815193845291830191909152819081015b0390f35b6001600160a01b03165f90815260036020526040902090565b346102dd5760403660031901126102dd57600435610391816102cc565b6024359060018060a01b03165f52600160205260405f20905f52602052602060405f2054604051908152f35b346102dd5760203660031901126102dd5760043563ffffffff60e01b81168091036102dd576020906301ffc9a760e01b8114908115610402575b506040519015158152f35b630f632fb360e01b1490505f6103f7565b6001600160801b038116036102dd57565b9181601f840112156102dd578235916001600160401b0383116102dd57602083818601950101116102dd57565b60603660031901126102dd57600435610469816102cc565b60243561047581610413565b6044356001600160401b0381116102dd57610494903690600401610424565b92905f516020615f525f395f51905f525c6001600160a01b03166105a857335f516020615f525f395f51905f525d6104ca613bb1565b6001600160a01b0382165f908152600360205260409020600401546001606d1b906001600160801b039061050790869060801c6129da565b6129da565b161015610594577f0dc5e2150c5754dc0bcd8d76ca2d23850fc9a2a3115c69bb4fbdbedc25074a0093610545916001600160801b0385163385613ca3565b61056560046105538361035b565b015461055f8460801b90565b90614204565b60046105708361035b565b0155610581604051928392836129f3565b0390a161058c613c0e565b610018613b8e565b63d1b5191160e01b5f52600c60045260245ffd5b63d1b5191160e01b5f52600360045260245ffd5b346102dd5760203660031901126102dd576103576004356105dc816102cc565b6105e4612a16565b506001600160a01b038181165f9081526003602052604090208054600190910154909291169060026106158261035b565b01546106506004610632600361062a8661035b565b01549461035b565b01549361063d6107ce565b9586526001600160a01b03166020860152565b6040840152606083015260808201526040519182918291909160808060a08301948051845260018060a01b03602082015116602085015260408101516040850152606081015160608501520151910152565b60609060031901126102dd576004356106ba816102cc565b906024359060443590565b346102dd576106d3366106a2565b9091335f52600160205260405f20835f5260205260405f20805490838203918211610759575560018060a01b031690815f52600160205261071f8360405f20905f5260205260405f2090565b61072a828254612a5b565b90555f516020615f325f395f51905f526040518061074a33943383612a68565b0390a460405160018152602090f35b6129c6565b634e487b7160e01b5f52604160045260245ffd5b60a081019081106001600160401b0382111761078d57604052565b61075e565b604081019081106001600160401b0382111761078d57604052565b90601f801991011681019081106001600160401b0382111761078d57604052565b604051906107dd60a0836107ad565b565b604051906107dd610100836107ad565b604051906107dd6060836107ad565b604051906107dd6040836107ad565b604051906107dd6080836107ad565b6001600160401b03811161078d5760051b60200190565b9080601f830112156102dd57813561084a8161081c565b9261085860405194856107ad565b81845260208085019260051b8201019283116102dd57602001905b8282106108805750505090565b60208091833561088f816102cc565b815201910190610873565b60203660031901126102dd576004356001600160401b0381116102dd576108c5903690600401610833565b5f516020615f525f395f51905f525c6001600160a01b0316610a3557335f516020615f525f395f51905f525d6108f9613bb1565b6064815111610a215761090c8151612a83565b5f5b82518110156109ef5760019061095833600561094261093d610930868a612ac9565b516001600160a01b031690565b61035b565b019060018060a01b03165f5260205260405f2090565b546109638285612ac9565b5260026109708285612ac9565b51101561098a575f6109828285612ac9565b525b0161090e565b61099d6109978285612ac9565b51612a40565b6109a78285612ac9565b526109c76109c133600561094261093d610930878b612ac9565b60019055565b6109ea6109d76109308387612ac9565b6109e18386612ac9565b5190339061422d565b610984565b507f477bb716eacccc001de50dcdd6e25241283d080e6afb27443908b20f4e738b5e9161058160405192839283612ae2565b63d1b5191160e01b5f52600b60045260245ffd5b63d1b5191160e01b5f52600360045260245ffd5b346102dd5760203660031901126102dd57600435610a66816102cc565b6008546001600160a01b03163303610a9a57600a80546001600160a01b0319166001600160a01b0392909216919091179055005b63d1b5191160e01b5f52600160045260245ffd5b60609060031901126102dd57600435610ac6816102cc565b90602435610ad3816102cc565b9060443590565b346102dd57610b63610aeb36610aae565b6001600160a01b039283165f908152600360205260408082206002908101549590941682529020909101549291610b5990610b46610b366001600160801b038716608084901c613767565b6001600160801b03851690613767565b9460801c906001600160801b0316613767565b9060801c90613767565b1015610b815761035760015b60405190151581529081906020820190565b6103575f610b6f565b346102dd5760803660031901126102dd57600435610ba7816102cc565b60243590610bb4826102cc565b60443591610bc183610413565b60643592610bce84610413565b6002610bd98461035b565b0154158015610e94575b8015610e83575b8015610e6e575b8015610e5b575b610e475760646001600160801b0385161015610d5f57610c246002610c1c8561035b565b01549361035b565b5491610c88610c3f6002610c378461035b565b01549261035b565b5495610c496107df565b6001600160801b03851681529260208401955f875260408501975f89525f6060870152608086015260a085015260c084015260e0830196875282614577565b8051610ca9906001600160801b031685516001600160801b03165b906129da565b6001600160801b0383811691161015610d4b57610d17610d07610d3192610cf7610cf795610cf1610ce3610d389a5160018060801b031690565b93516001600160801b031690565b90612b8c565b60018060801b03169060801b1790565b955193516001600160801b031690565b926001600160801b038416607f6127109260cc1c16020490565b8092612b8c565b905b604080519182526020820192909252f35b63d1b5191160e01b5f52602260045260245ffd5b610df0610de4610d7b6002610d738761035b565b01549561035b565b5493610dd7610d8e6002610c378461035b565b5497610d986107df565b6001600160801b03871681529260208401975f895260408501995f8b525f6060870152608086015260a085015260c084015260e08301988952826142dc565b516001600160801b031690565b6001600160801b031690565b610e3357610e26610d17610d07610cf793610e14610e2d975160018060801b031690565b60801b6001600160801b039091161790565b80926129da565b90610d3a565b63d1b5191160e01b5f52602160045260245ffd5b63d1b5191160e01b5f52602360045260245ffd5b5060c86001600160801b03851611610bf8565b506001600160a01b0383811690831614610bf1565b506001600160801b03811615610bea565b506002610ea08361035b565b015415610be3565b60203660031901126102dd57600435610ec0816102cc565b610ec8613bb1565b6009546001600160a01b031633036102dd57610f6c9060018060a01b0381165f526003602052610f4b610f1b610de4610f08600460405f20015460801c90565b6004610f138661035b565b015490612b8c565b5f6004610f278561035b565b0155610f456002610f378561035b565b01546001600160801b031690565b90612a5b565b905f6002610f588361035b565b01556009546001600160a01b03169061422d565b610018613c0e565b5f9103126102dd57565b346102dd575f3660031901126102dd576008546040516001600160a01b039091168152602090f35b346102dd5760203660031901126102dd57600435610fc2612a16565b505f52600460205261035760405f20600460405191610fe083610772565b60018060a01b03815416835260018060a01b0360018201541660208401526002810154604084015260038101546060840152015460808201526040519182918291909160808060a083019460018060a01b03815116845260018060a01b03602082015116602085015260408101516040850152606081015160608501520151910152565b346102dd575f3660031901126102dd576020600754604051908152f35b346102dd5761108f366102e1565b335f526005602052600260405f2054161561110a577f42e3c955499470d3dc1078d90519d90691c504c8856ea058daf2c1436c2dab4c9160018060a01b0381165f5260036020526110e682600160405f2001612b3c565b604080516001600160a01b039283168152929091166020830152819081015b0390a1005b63d1b5191160e01b5f52600260045260245ffd5b346102dd5761112c366106a2565b9091335f5260026020526111538160405f209060018060a01b03165f5260205260405f2090565b835f526020528160405f205560405191825260018060a01b0316907fb3fd5071835887567a0671151121894ddccc2842f1d10bedad13e0d17cace9a760203392a4602060405160018152f35b346102dd5760203660031901126102dd57600854600435906001600160a01b03163303610a9a576020817fbd209961024f2694b0afb3c8badd20b6477abb77b336b16892c3fa4b906d323c92600755604051908152a160405160018152602090f35b60803660031901126102dd57600435611219816102cc565b604435906024356064356001600160401b0381116102dd5761123f903690600401610424565b600854919290916001600160a01b03163303610a9a5761125d613bb1565b600160ff1b85161561126e565b1590565b80156113e8575b6113d5577f8f2eb922ee1b2f92e0051f7949a8c191264807725a1e435e91abebd28583830a946001600160801b038216936113be936112b691863389613ca3565b6112c981836112c48861035b565b614836565b6112da6112d58661035b565b61485b565b61137d6113056112e86107ef565b3381526001600160a01b03881660208201525f6040820152614892565b9461135661131b875f52600460205260405f2090565b91611336818760801c948b6113308760801b90565b916148d8565b6113506001600160a01b038a165b6001600160a01b031690565b3361498e565b337f00000000000000000000000000000000000000000000000000000000000000006149e5565b604080519586526001600160a01b0390961660208601526001600160801b0316948401949094526060830193909352608082019290925290819060a0820190565b0390a16113c9613c0e565b60405160018152602090f35b63d1b5191160e01b5f526004805260245ffd5b506001600160a01b0361140d60016113ff8761035b565b01546001600160a01b031690565b161515611275565b801515036102dd57565b346102dd5760403660031901126102dd5760043561143c816102cc565b6024359061144982611415565b335f908152602081815260408083206001600160a01b038516845290915290209115159160ff1981541660ff841617905560405191825260018060a01b0316907fceb576d9f15e4e200fdb5096d64d5dfd667e16def20c1eefd14256d8e3faa26760203392a360405160018152602090f35b346102dd576114f66114cc36610aae565b929160018060a01b03165f52600260205260405f209060018060a01b03165f5260205260405f2090565b905f52602052602060405f2054604051908152f35b346102dd5760803660031901126102dd57600435611528816102cc565b60243590611535826102cc565b6044356064356001600160401b0381116102dd57611557903690600401610424565b915f516020615f525f395f51905f525c6001600160a01b0316610a35576103579461158a9461158533613ba0565b612c0f565b610b6f613b8e565b346102dd5760203660031901126102dd576004356115af816102cc565b60018060a01b03165f526005602052602060405f2054604051908152f35b60c03660031901126102dd576004356115e5816102cc565b604435906024356115f5836102cc565b606435916084356001600160401b0381116102dd57611618903690600401610424565b9060a435946001600160401b0386116102dd5761035796611640610b6f973690600401610424565b969095612d7b565b346102dd5760203660031901126102dd57602061167160043561166a816102cc565b3090614bd4565b604051908152f35b60409060031901126102dd57600435611691816102cc565b9060243561030681610413565b346102dd576116ac36611679565b906116bb60016113ff8361035b565b6001600160a01b0316331480159061180a575b6117f6576116db81614a41565b15611772576006546116ff906116fa906001600160801b03851661055f565b600655565b600a54611714906001600160a01b0316611344565b91823b156102dd57805f9261173f94604051809681958294638efa048760e01b8452600484016129f3565b03926001600160801b0316905af1801561176d5761175957005b806117675f610018936107ad565b80610f74565b612c04565b6117856116fa60065461055f8560801b90565b600a546117a69083906117a0906001600160a01b0316611344565b83614cc7565b600a546117bb906001600160a01b0316611344565b91823b156102dd576117e6925f9283604051809681958294638efa048760e01b8452600484016129f3565b03925af1801561176d5761175957005b63d1b5191160e01b5f52602460048190525ffd5b5061181761126a82614c9b565b6116ce565b346102dd5761182a36611679565b61183860016113ff8461035b565b6001600160a01b03163314801590611939575b6117f657600a54611864906001600160a01b0316611344565b9060206040518093630620458b60e11b8252815f81611887878a600484016129f3565b03925af191821561176d576004926118eb926118e5925f92611908575b506118ae86614a41565b156118ef576006546118cf916116fa91906001600160801b03165b90614dc4565b6118c9846118dc8761035b565b01549160801b90565b9261035b565b0155005b6116fa611903916118c96006549160801b90565b6118cf565b61192b91925060203d602011611932575b61192381836107ad565b8101906130f7565b905f6118a4565b503d611919565b5061194661126a83614c9b565b61184b565b346102dd5760203660031901126102dd57600435611968816102cc565b600a54604051638c706eb560e01b81526001600160a01b0383811660048301529091602091839160249183915f91165af1801561176d576118e56118eb916004935f916119be575b506118c9846118dc8761035b565b6119d7915060203d6020116119325761192381836107ad565b5f6119b0565b346102dd5760203660031901126102dd576004356119fa816102cc565b335f526005602052600260405f2054161561110a576001600160a01b0381165f90815260056020526040908190208054600119169081905590515f516020615ef25f395f51905f529290918291611a52919083612a68565b0390a160405160018152602090f35b90602080835192838152019201905f5b818110611a7e5750505090565b8251845260209384019390920191600101611a71565b906020610306928181520190611a61565b346102dd5760403660031901126102dd576004356001600160401b0381116102dd57611ad5903690600401610833565b60243590611ae2826102cc565b606481511015611b5d57611af68151612a83565b915f5b8251811015611b4f576001906001600160a01b03611b178286612ac9565b51165f9081526003602090815260408083206001600160a01b0387168452600501909152902054611b488287612ac9565b5201611af9565b604051806103578682611a94565b63d1b5191160e01b5f52600b60045260245ffd5b346102dd5760203660031901126102dd57600435611b8e816102cc565b60085490336001600160a01b03831603610a9a576001600160a01b03166001600160a01b03199190911681176008556040519081527fa8d3850ce581f2add46670c1408b76ca1d0d4ef627eed4a89802ff670940082d90602090a1005b346102dd5760403660031901126102dd57600435611c08816102cc565b6024356001600160a01b038281165f81815260036020526040902060010154909391163303611c76577f075a13b9dbfb2e30d678551b8c2a4f9ede7468ca5273fa902a41d0e577566669925f526003602052611c678260405f20614ded565b611a5260405192839283612a68565b63d1b5191160e01b5f52600a60045260245ffd5b60403660031901126102dd57600435602435611ca5816102cc565b5f516020615f525f395f51905f525c6001600160a01b03166105a857335f516020615f525f395f51905f525d611cd9613bb1565b81611d4d611cff611cf2835f52600460205260405f2090565b546001600160a01b031690565b611d48611d1960016113ff865f52600460205260405f2090565b611d38611d246107ef565b338152936001600160a01b03166020850152565b6001600160a01b03166040830152565b614892565b03611fae57611d6960016113ff845f52600460205260405f2090565b91611d7f611cf2825f52600460205260405f2090565b6040805163b88e6d6360e01b81523360048201529491939190856024816001600160a01b037f0000000000000000000000000000000000000000000000000000000000000000165afa91821561176d576020957f1129f35303e34d7efabdbd85614ed662beb4fc6942852b7a3e5a4f92074cbf3193611e9b925f925f92611f7a575b506001600160a01b0381165f908152600560205260409020611e27905b54600116151590565b15611f74575081905b6001600160a01b0382811690821603611f6f5750815b6001600160a01b0381165f908152600560205260409020611e6690611e1e565b15611f68575b611e758861035b565b91611e7f8661035b565b611e91895f52600460205260405f2090565b9060075494614e0d565b93611eab3360056109428461035b565b5460028111611f42575b506001600160a01b038216611ef8575b604080516001600160a01b0392831681529290911660208301528101849052606090a2611ef0613c0e565b611671613b8e565b611f073360056109428561035b565b5460028111611f17575b50611ec5565b611f35611f3c91611f306109c13360056109428961035b565b612a40565b338461422d565b5f611f11565b611f5b611f6291611f306109c13360056109428861035b565b338361422d565b5f611eb5565b5081611e6c565b611e46565b90611e30565b909250611f9f915060403d604011611fa7575b611f9781836107ad565b81019061310c565b90915f611e01565b503d611f8d565b63d1b5191160e01b5f52600960045260245ffd5b805180835260209291819084018484015e5f828201840152601f01601f1916010190565b602081016020825282518091526040820191602060408360051b8301019401925f915b83831061201857505050505090565b9091929394602080612036600193603f198682030187528951611fc2565b97019301930191939290612009565b60203660031901126102dd576004356001600160401b0381116102dd57366023820112156102dd578060040135906001600160401b0382116102dd573660248360051b830101116102dd576103579160246120a09201613131565b60405191829182611fe6565b346102dd5760203660031901126102dd576004356120c9816102cc565b335f526005602052600260405f2054161561110a576001600160a01b0381165f908152600560205260409081902080546001179081905590515f516020615ef25f395f51905f529290918291611a52919083612a68565b346102dd5760403660031901126102dd5760043561213d816102cc565b602435335f526005602052600260405f2054161561110a577fe40cf68f61d9a4e510244481f5aa34ba68de31cf3f9aa360604d688115d640c89160018060a01b0381165f526003602052611c678260405f20614878565b346102dd57602060ff6121d06121a9366102e1565b6001600160a01b039182165f90815280865260408082209290931681526020919091522090565b54166040519015158152f35b346102dd575f3660031901126102dd576008546001600160a01b03163303610a9a57600980546001600160a01b0319169055005b346102dd5760403660031901126102dd5760043561222d816102cc565b6024356008546001600160a01b03163303610a9a575f516020615ef25f395f51905f529160018060a01b0381165f5260056020528160405f205561110560405192839283612a68565b346102dd5760403660031901126102dd576020611671600435612298816102cc565b6001600160a01b03165f90815260038352604090205461271060df9190911c603f16602435020490565b60c03660031901126102dd576004356122da816102cc565b6024356122e6816102cc565b604435906122f382610413565b6064356122ff81610413565b6084359061230c826102cc565b60a4356001600160401b0381116102dd5761232b903690600401610424565b9490935f516020615f525f395f51905f525c6001600160a01b0316610a355761235c9661235733613ba0565b613281565b90610d3a613b8e565b60603660031901126102dd5760243560043561238082610413565b60443561238c816102cc565b5f516020615f525f395f51905f525c6001600160a01b03166105a8576040926123bd926123b833613ba0565b61377a565b6123c5613b8e565b82516001600160801b03928316815291166020820152f35b60a03660031901126102dd576004356123f5816102cc565b602435612401816102cc565b6044359061240e82610413565b6064356001600160401b0381116102dd5761242d903690600401610424565b6084949194356001600160401b0381116102dd5761244f903690600401610424565b90915f516020615f525f395f51905f525c6001600160a01b03166105a857335f516020615f525f395f51905f525d612485613bb1565b61248d613054565b96612496613054565b966001606d1b6001600160801b036124ba8360026124b38b61035b565b01546129da565b1610801590612810575b80156127d8575b6127c45761250e92816124ea8b6124fc946124e58b61035b565b614aa2565b6001600160801b031692833389613ca3565b6113506001600160a01b038616611344565b6001600160a01b0384161591859083156126e0575b50505061252e6107ef565b3381526001600160a01b03831660208201526001600160a01b038416604082015261255890614892565b9461256b865f52600460205260405f2090565b6040820180519196909390916001600160801b03169061258b8260801b90565b60208501519091906001600160801b0316606086018051909a9189916001600160801b03166001600160801b031660809190911b1760208701516001600160801b03166060880180519096918d916001600160801b03166001600160801b031660809190911b17936125fc95614921565b5f146126586126747fee89c9fd704272905456294f1b2b88581ebe0241f72c15b4f3db31d19388f6af9a610cf76126586126666126b99b61268299610cf7986126cc57508051610e1490612658906001600160801b0316611356565b91516001600160801b031690565b99516001600160801b031690565b94516001600160801b031690565b604080516001600160a01b0396871681529690951660208701529385019190915260608401526080830191909152819060a0820190565b0390a26126c4613c0e565b6113c9613b8e565b6126586126db610e14926130d7565b611356565b61277a6127bc9361270b60026126f58a61035b565b015460408c01516001600160801b03169061551f565b6001600160801b0316606085019081529261275f61275261272b8b61035b565b548651612740906001600160801b0316610de4565b603f6127109260d91c16820390040290565b6001600160801b03168552565b8351612773906001600160801b0316610de4565b338a613ca3565b6127aa61278f6001600160a01b038816611344565b82516127a3906001600160801b0316610de4565b903361498e565b6127b66126588761035b565b90614aa2565b5f8481612523565b63d1b5191160e01b5f52600760045260245ffd5b506127f16127e58761035b565b54600160ff1b16151590565b80156127fe575b156124cb565b5061280b6127e58861035b565b6127f8565b506001600160a01b03868116908816146124c4565b346102dd5760803660031901126102dd57600435612842816102cc565b60243561284e816102cc565b604435915f516020615f325f395f51905f5261074a606435936001600160a01b038416936128b09087906128a3903388141580612996575b612906576001600160a01b03165f90815260016020526040902090565b905f5260205260405f2090565b6128bb868254612a4e565b90556001600160a01b0381165f9081526001602052604090206128df9087906128a3565b6128ea868254612a5b565b90556040516001600160a01b0390911694909182913383612a68565b61293d836128a3336129288560018060a01b03165f52600260205260405f2090565b9060018060a01b03165f5260205260405f2090565b548960018201612963575b50506001600160a01b03165f90815260016020526040902090565b61296c91612a4e565b61298e846128a3336129288660018060a01b03165f52600260205260405f2090565b555f89612948565b506129c161126a6129ba336129288560018060a01b03165f525f60205260405f2090565b5460ff1690565b612886565b634e487b7160e01b5f52601160045260245ffd5b6001600160801b03918216908216019190821161075957565b6001600160a01b0390911681526001600160801b03909116602082015260400190565b60405190612a2382610772565b5f6080838281528260208201528260408201528260608201520152565b5f1981019190821161075957565b9190820391821161075957565b9190820180921161075957565b6001600160a01b039091168152602081019190915260400190565b90612a8d8261081c565b612a9a60405191826107ad565b8281528092612aab601f199161081c565b0190602036910137565b634e487b7160e01b5f52603260045260245ffd5b8051821015612add5760209160051b010190565b612ab5565b9291604084019360408152825180955260206060820193015f955b808710612b195750506103069394506020818403910152611a61565b81516001600160a01b031685526001969096019560209485019490910190612afd565b80546001600160a01b0319166001600160a01b03909216919091179055565b6001600160801b03908116606319019190821161075957565b6001600160801b039081165f19019190821161075957565b6001600160801b03918216908216039190821161075957565b908160209103126102dd575190565b6001600160a01b039182168152911660208201526040810191909152606081019190915260a060808201819052810183905260c09290918190848401375f828201840152601f01601f1916010190565b6040513d5f823e3d90fd5b929493919091612c1e83614a41565b612d6757612c35612c2f3085614bd4565b60011c90565b808311612d5557506020612c9791612c6184612c508761035b565b5490603f6127109260df1c16020490565b6001600160a01b0390961697612c78858a8861422d565b6040516323e30c8b60e01b8152938492839289888a3360048801612bb4565b03815f8a5af1801561176d577f439148f0bbc682ca079e46d6e2c2f0c1e3b820f1a291b069d8882abf8cf18dd9915f91612d26575b5003612d0b579061093d612d069495612cee610de4610de487612cf797612a5b565b90309084614a61565b6004019081549060801b019055565b600190565b62678c5b60e81b5f526001600160a01b03851660045260245ffd5b612d48915060203d602011612d4e575b612d4081836107ad565b810190612ba5565b5f612ccc565b503d612d36565b63fd9a760960e01b5f5260045260245ffd5b63d1b5191160e01b5f52601d60045260245ffd5b96919592939092905f516020615f525f395f51905f525c6001600160a01b03166105a857335f516020615f525f395f51905f525d612db7613bb1565b6001600160a01b03612dcd60016113ff8a61035b565b161580159061303f575b61302b57608084901c95612ded9187338a613ca3565b6001600160801b03831691612e049183338a613ca3565b612e0c613054565b9182612e178861035b565b91612e2192614aa2565b612e2a8561035b565b60408301805190929190859087906001600160801b031660801b6001600160801b0390911617612e5992614836565b612e616107ef565b3381526001600160a01b03871660208201526001600160a01b0388166040820152612e8b90614892565b82519095906001600160801b031660801b60208501519092906001600160801b0316606086018051909491906001600160801b03166001600160801b031660809190911b17612ed86107ce565b6001600160a01b038b168152916001600160a01b038c16602084015260408301528360608301526080820152612f16885f52600460205260405f2090565b90612f2091613088565b612f34826001600160a01b038a163361498e565b612f48906001600160a01b038a163361498e565b82516001600160801b0316612f5c906130d7565b612f8790337f00000000000000000000000000000000000000000000000000000000000000006149e5565b925193519151604080519788526001600160a01b039889166020890152989097169786019790975260608501939093526001600160801b0390811660808581019190915295861b9181169190911760a08401526001600160801b03199190941b16919092161760c08201527f3fc0293a5a7bc73de220f0814bbbebc31e77ffcd41bf5e8be187471747bd7caa9060e090a1613020613c0e565b6001906107dd613b8e565b63d1b5191160e01b5f52600560045260245ffd5b5061304f61126a6127e58a61035b565b612dd7565b60405190608082018281106001600160401b0382111761078d576040525f6060838281528260208201528260408201520152565b9060806004916130a160018060a01b0382511685612b3c565b60208101516130bc906001600160a01b031660018601612b3c565b60408101516002850155606081015160038501550151910155565b60011b6002600160801b03811691906002600160811b0316820361075957565b908160209103126102dd575161030681610413565b91908260409103126102dd5760208251613125816102cc565b920151610306816102cc565b613139613bb1565b6131428261081c565b9161315060405193846107ad565b808352601f1961315f8261081c565b015f5b8181106131d85750505f5b81811061318057505050906107dd613c0e565b5f8061318d8385876131e9565b9061319d6040518093819361322a565b0390305af46131aa613252565b90156131d057906001916131be8287612ac9565b526131c98186612ac9565b500161316d565b602081519101fd5b806060602080938801015201613162565b9190811015612add5760051b81013590601e19813603018212156102dd5701908135916001600160401b0383116102dd5760200182360381136102dd579190565b908092918237015f815290565b6001600160401b03811161078d57601f01601f191660200190565b3d1561327c573d9061326382613237565b9161327160405193846107ad565b82523d5f602084013e565b606090565b93969591949661328f613bb1565b600261329a8661035b565b015415801561373a575b8015613729575b8015613714575b8015613701575b610e475760646001600160801b038516101561354b576001600160a01b0381166134ca575b5060026132ea8561035b565b01546132f58561035b565b549060026133028461035b565b01549061330e8461035b565b54956133186107df565b6001600160801b038a16815260208101995f8b5261335f60408301935f855260608401975f89526080850196875260a085015260c0840196875260e084019a8b5283614577565b815161337e906001600160801b031684516001600160801b0316610ca3565b6001600160801b0382811691161015610d4b5782516001600160801b031691516001600160801b03166133b091612b8c565b6001600160801b031660809190911b1796519851969889976001600160801b0316906001600160801b03821661271060cc9290921c607f16020490816133f591612b8c565b6001600160801b031660809190911b179a8b9661341d916001600160801b038a16338c613ca3565b6134316001600160801b038716338761422d565b61343a8861035b565b915190516001600160801b03169061345192614f01565b61345a8361035b565b90518460801c9061346a92614f01565b51604080516001600160801b0390921682526020820194909452928301919091526001600160a01b039081169216907f770ac49eb4a65be664dd014b1b315647b776f18742f5b7e141e8cb18cec6cea890606090a35b91906107dd613c0e565b7f00000000000000000000000000000000000000000000000000000000000000006001600160a01b0316803b156102dd576040516376549e6760e11b81523360048201526001600160a01b039290921660248301525f908290604490829084905af1801561176d57156132de57806117675f613545936107ad565b5f6132de565b9196925f9593600261355c8761035b565b01546135678761035b565b549260026135748661035b565b0154926135808661035b565b54976135d6610de46135906107df565b6001600160801b0384168152602081019d8e52610dd760408201965f8852606083019a5f8c5260808401998a5260a084015260c08301998a5260e083019d8e52826142dc565b610e335782516001600160801b031660801b6001600160801b03909116179751995197998a986001600160801b0316906001600160801b03821661271060cc9290921c607f1602049081613629916129da565b6001600160801b031660809190911b179b8c97613651906001600160801b038b16908c61422d565b613666916001600160801b0389163389613ca3565b61366f8861035b565b915190516001600160801b03169061368692614f01565b61368f8361035b565b90518460801c9061369f92614f01565b516136b2906001600160801b031661374e565b604080519182526020820194909452928301919091526001600160a01b039081169216907f770ac49eb4a65be664dd014b1b315647b776f18742f5b7e141e8cb18cec6cea890606090a36134c0565b5060c76001600160801b038516116132b9565b506001600160a01b03858116908316146132b2565b506001600160801b038616156132ab565b5060026137468361035b565b0154156132a4565b908160801b91808304600160801b149015171561075957565b8181029291811591840414171561075957565b92919092613786613bb1565b8061379f611cff611cf2835f52600460205260405f2090565b03613b4c576137ac613b60565b506137b5613b60565b506137cb611cf2825f52600460205260405f2090565b6137e260016113ff845f52600460205260405f2090565b6040805163b88e6d6360e01b81523360048201527f0000000000000000000000000000000000000000000000000000000000000000979094929091856024816001600160a01b038c165afa93841561176d57613a3961399d6139627f63741ac8918076a6393e6e12659431a4927b53e16190a6b00af6a06697d868b89584888761395d613a499d613a579f9d6139979e5f925f92613b28575b506001600160a01b0381165f90815260056020526040902061389c90611e1e565b15613b2057905b6001600160a01b0382811690821603613b1b5750815b6001600160a01b0381165f9081526005602052604090206138d990611e1e565b15613b07576139066138f76138f1613948939961035b565b9661035b565b965f52600460205260405f2090565b96613938600754936139286139196107ce565b6001600160801b03909c168c52565b6001600160a01b031660208b0152565b6001600160a01b03166040890152565b60608701526001600160a01b03166080860152565b614f1b565b809299919d6139763360056109428a61035b565b5460018111613acb575b506001600160a01b038816613a60575b33906154d0565b60801b90565b60208701516139c2906001600160801b031660408901516001600160801b0316610cf7565b60208c015160408d01516139e2916001600160801b039081169116610cf7565b906139fa8d610cf76126588c5160018060801b031690565b604080516001600160a01b039788168152979096166020880152948601929092526060850191909152608084015260a0830191909152819060c0820190565b0390a2516001600160801b031690565b92516001600160801b031690565b906107dd613c0e565b613a6f3360056109428b61035b565b5460018111613a7f575b50613990565b613abe613ac591613a996109c18c6005610942339261035b565b611f30613aae6001600160a01b038d16611344565b613ab783612a40565b903361547f565b338a61422d565b5f613a79565b613afa613b0191613ae56109c18b6005610942339261035b565b611f30613aae6001600160a01b038c16611344565b338961422d565b5f613980565b506139486139066138f76138f1859961035b565b6138b9565b5081906138a3565b909250613b44915060403d604011611fa757611f9781836107ad565b90915f61387b565b63d1b5191160e01b5f52600860045260245ffd5b60405190606082018281106001600160401b0382111761078d576040525f6040838281528260208201520152565b5f5f516020615f525f395f51905f525d565b5f516020615f525f395f51905f525d565b5f516020615f125f395f51905f525c15613be9575b60015f516020615f125f395f51905f525c015f516020615f125f395f51905f525d565b345f516020615f725f395f51905f525d5f5f516020615f125f395f51905f525d613bc6565b5f195f516020615f125f395f51905f525c015f516020615f125f395f51905f525d5f516020615f125f395f51905f525c1580613c8c575b613c4b57565b5f8080805f516020615f725f395f51905f525c815f516020615f725f395f51905f525d335af115613c7857565b63d1b5191160e01b5f52601e60045260245ffd5b505f516020615f725f395f51905f525c1515613c45565b90936001600160801b03909216929091613cbc83614a41565b15613cce575050506107dd915061592e565b60036001600160a01b03841603613ced575050506107dd91309061587e565b80613cff5750506107dd9230916158df565b90613d0c91810190615549565b60ff613d19825160ff1690565b1660028103613efa57506020613d3a9101516020808251830101910161576c565b6001600160a01b0382169073cafbbad55eb09efe7bec8408cff9932be7d9a7fa8203613e7457604051623f675f60e91b81526001600160a01b038616600482015291602090839060249082905afa90811561176d57613e2c5f939284938491613e55575b50613e1e602084015193613db6604082015160ff1690565b60608201516080909201516040516323f2ebc360e21b60208201526001600160a01b038d16602482015230604482015260648101959095526084850196909652600160a485015260ff1660c484015260e4830152610104820193909352918290610124820190565b03601f1981018352826107ad565b60208151910182855af115613e46576107dd9230916158df565b63203aa5b560e11b5f5260045ffd5b613e6e915060203d602011612d4e57612d4081836107ad565b5f613d9e565b5f915080613ef5839251613e1e602084015193613e95604082015160ff1690565b606082015160809092015160405163d505accf60e01b60208201526001600160a01b038d1660248201523060448201526064810195909552608485019690965260ff1660a484015260c483015260e4820193909352918290610104820190565b613e2c565b9193929160038103613f96575050613f1190615edd565b73a50eb0d081e986c280eff32dae089939ea07bd223b156102dd57604051631b63c28b60e11b81526001600160a01b0392831660048201523060248201529082166044820152911660648201525f816084818373a50eb0d081e986c280eff32dae089939ea07bd225af1801561176d57613f885750565b806117675f6107dd936107ad565b600481036140ee57506020613fb6910151602080825183010191016155ea565b9061406b613fc48351615edd565b9261401e613fdb604083015165ffffffffffff1690565b614003613fe661080d565b6001600160a01b038a168152966001600160a01b03166020880152565b65ffffffffffff604087015265ffffffffffff166060860152565b602081015161402b6107ef565b9485523060208601526040850152608081015190614065614055606060a084015193015160ff1690565b60f81b6001600160f81b03191690565b91615655565b9173a50eb0d081e986c280eff32dae089939ea07bd223b156102dd576040516302b67b5760e41b8152925f91849182916140aa919088600485016156f4565b03818373a50eb0d081e986c280eff32dae089939ea07bd225af191821561176d57613f11926140da575b50615edd565b806117675f6140e8936107ad565b5f6140d4565b9293926005146140ff575b50505050565b6141196020614187920151602080825183010191016155ea565b80516141356141266107fe565b6001600160a01b039096168652565b6020850152604081015160208201519061414d6107ef565b958652602086015260408501526141626107fe565b308152926020840152608081015190614065614055606060a084015193015160ff1690565b9173a50eb0d081e986c280eff32dae089939ea07bd223b156102dd576141c35f93604051958694859463187945bd60e11b865260048601615680565b03818373a50eb0d081e986c280eff32dae089939ea07bd225af1801561176d576141f0575b8080806140f9565b806117675f6141fe936107ad565b5f6141e8565b610cf7906142198360801d8260801d016157bb565b926001600160801b039182169116016157bb565b91909161423981614a41565b1561426357505f8080809361424e955af11590565b61425457565b633607a14f60e11b5f5260045ffd5b6001600160a01b03811660030361429357506107dd91732387fd72c1da19f6486b843f5da562679fbb405761422d565b60445f8080936020956040519763a9059cbb60e01b84526004526024525af13d15601f3d1160015f5114161716905f6060526040526107dd575b633c9fd93960e21b5f5260045ffd5b906142e690612b5b565b9060a081019161434e61434161433161431c865161430d610de4885160018060801b031690565b607f6127109260c51c16020490565b6001600160801b031660408601908152610dd7565b84516001600160801b03166129da565b6001600160801b03168352565b8151614362906001600160801b0316610de4565b151580614565575b156145605761437890612b74565b926144c583516143976080850191614391835160801c90565b9061580d565b60e085018051916143b4610de460c0890194614391865160801c90565b6001600160801b0390911610614549576143d49051614391835160801c90565b915b80516143e2848261551f565b875190916001600160801b039182169183168211156144cb575050865161447c919061442e906144219083906001600160801b0316612b8c565b612b8c565b6001600160801b03168952565b61446361443c86865161551f565b60208a0180519091614456916001600160801b03166129da565b6001600160801b03169052565b8251906001600160801b0316608086901b175b90615854565b90526144a881516144a2614490858361551f565b6001600160801b0316608086901b1790565b90615869565b90525b6060840180519091614456916001600160801b03166129da565b9261434e565b9091506144d9929450615836565b916145026144e884845161551f565b6020880180519091614456916001600160801b03166129da565b8051865161452b9190614476906001600160801b03165b6001600160801b0316608087901b1790565b905261453f81516144a2614490858361551f565b90525f84526144ab565b5061455a8651614391845160801c90565b916143d6565b505050565b506001600160801b038116151561436a565b60a08101805182519394919361459a919061430d906001600160801b0316610de4565b6001600160801b0316604083019081529384516145db906145ce906001600160801b031685516001600160801b0316612b8c565b6001600160801b03168452565b82516145ef906001600160801b0316610de4565b151580614824575b156147ad5761460590612b74565b93614720845161461e6080860191614391835160801c90565b60e0860180519161463b610de460c08a0194614391865160801c90565b6001600160801b03909116106147965761465b9051614391835160801c90565b915b8051614669848261551f565b885190916001600160801b0391821691831682111561472657505087516146ef91906146b0906146a39083906001600160801b0316612b8c565b6001600160801b03168a52565b6146d86146be86865161551f565b60208b0180519091614456916001600160801b03166129da565b8251906001600160801b0316608086901b176144a2565b90526147038151614476614490858361551f565b90525b6060850180519091614456916001600160801b03166129da565b936145db565b909150614734929450615836565b9161475d61474384845161551f565b6020890180519091614456916001600160801b03166129da565b8051875161477891906144a2906001600160801b0316614519565b905261478c8151614476614490858361551f565b90525f8552614706565b506147a78751614391845160801c90565b9161465d565b5081519093906147c5906001600160801b0316610de4565b92836147d15750505050565b614804614456926144566147f461481b97855190607f6127109260c51c16020490565b82516001600160801b0316612b8c565b5182516001600160801b031690610ca3908261430d565b5f8080806140f9565b506001600160801b03811615156145f7565b90916107dd92806002840155600383015560018060e51b031681556001339101612b3c565b80546001600160e51b0316600160ff1b8101919082106107595755565b60018060e51b038154169160e51b82018092116107595755565b6040805182516001600160a01b039081166020808401918252850151821683850152939092015190911660608083019190915281526148d26080826107ad565b51902090565b91614904600261490d94959395600381019660018060801b0388541615614911575b5001918254614204565b90558254614204565b9055565b61491b9082612b3c565b5f6148fa565b9361494d919293600386019360018060801b038554161561497e575b5061490460028701918254614204565b90556001600160a01b03811661496257505050565b81614975600492600161490d9501612b3c565b01918254614204565b6149889087612b3c565b5f61493d565b91909160018060a01b031690815f52600160205260405f20835f5260205260405f20805490828201809211610759575f925f516020615f325f395f51905f52926149e092556040519182913383612a68565b0390a4565b91614a0a926020925f60405180968195829463067e356d60e21b8452600484016129f3565b03926001600160a01b03165af190811561176d575f91614a28575090565b610306915060203d6020116119325761192381836107ad565b6001600160a01b031660018114908115614a59575090565b600291501490565b929190614a6d84614a41565b15614a7e5750506107dd915061592e565b6001600160a01b038416600303614a99576107dd935061587e565b6107dd936158df565b80549092919061271060d99190911c603f166001600160801b03831602046001600160801b0316825281516001600160801b0316614adf91612b8c565b6001600160801b0316606082018181526002840180549092614b0091615836565b6001600160801b031660408401908152926004850190815490614b238260801c90565b60039097018054909760801b6001600160801b039091161784516001600160801b0316614b4f91615836565b6001600160801b03908116602083018181529251614b6d92166129da565b90516001600160801b03166001600160801b031660809190911b17614b9191614204565b9055815492516001600160801b031690516001600160801b03166001600160801b031660809190911b179182614bc691614204565b905581549061490d91614204565b614bdd81614a41565b15614be757503190565b60036001600160a01b03821603614c5f57506040516370a0823160e01b81526001600160a01b03919091166004820152602081602481732387fd72c1da19f6486b843f5da562679fbb40575afa90811561176d575f91614c46575b5090565b610306915060203d602011612d4e57612d4081836107ad565b6040516370a0823160e01b81526001600160a01b0392831660048201529160209183916024918391165afa90811561176d575f91614c46575090565b60018060a01b031660038114908115614a59575090565b908160209103126102dd575161030681611415565b9091906001600160a01b031660038103614d78575060405163095ea7b360e01b81529160209183918291614d0a916001600160801b039091169060048401612a68565b03815f732387fd72c1da19f6486b843f5da562679fbb40575af190811561176d575f91614d49575b5015614d3a57565b633e3f8f7360e01b5f5260045ffd5b614d6b915060203d602011614d71575b614d6381836107ad565b810190614cb2565b5f614d32565b503d614d59565b60405163095ea7b360e01b81529260209284929183915f918391614dab916001600160801b039091169060048401612a68565b03925af190811561176d575f91614d49575015614d3a57565b610cf790614dd98360801d8260801d036157bb565b926001600160801b039081169116036157bb565b6307ffffff60e51b8154169160018060e51b031682018092116107595755565b958484614e7a83614ea098614e7396988b899e9d996107dd9d9a60048101614e61815493614e5760038086015460018060801b031660018060801b03198816179201548092615836565b9060801c90612b8c565b9b8c936001600160801b03851661055f565b9055615978565b5f94600387015480614ea7575b50505050509091509060018060801b03169060801b1790565b8093615da4565b614ef5959650878c614ee36004614e739b0191610cf1614edc6004614ed2865498610e148a60801c90565b9301548093615836565b9160801c90565b998a936001600160801b03851661055f565b81905f80808080614e87565b60049061490d926002820155019182549060801b90614204565b9291939093614f28613b60565b50614f31613b60565b93614f40600283015460801c90565b60038301549690614f6a9060801b6001600160801b0389161786516001600160801b031690615836565b948254976002840198895490614f8c610de4614f868460801c90565b83615deb565b6001600160801b038a1611908115615450575b5061543c5761506c9061503c614ff261502c615002614fda614fc560048c015460801c90565b60038c015460018060801b03169060801b1790565b8851614ffd906001600160801b031694858093615836565b98610e148160801c90565b615836565b61501c61500d6107ef565b6001600160801b039098168852565b6001600160801b03166020870152565b6001600160801b03166040850152565b6040830151929a8b93615060906001600160801b031660808c901b175b8093614dc4565b90556003860154614dc4565b6003850155600484015481516150cd916150c0916001600160801b031660208501516150b1906001600160801b031692608083901b6001600160801b038516176118c9565b600489015561441c8b8a615e01565b6001600160801b03168252565b8354604082015161510d916150fd916150ee906001600160801b0316610de4565b603f6127109260d31c16020490565b6001600160801b03166020830152565b80516001600160801b03169160608101946151a160208751946151938286019761513d895160018060a01b031690565b97604088019760806151558a5160018060a01b031690565b91018051909a906001600160a01b0316604087015190939061518c906001600160801b0316888a01516001600160801b0316610cf1565b948a615c25565b01516001600160801b031690565b6001600160801b03811661541e575b505060018601546001600160a01b03166151cd575b505050505050565b9091929394975060048401926151e4845460801c90565b600386018054909791615207918b9160801b6001600160801b0390911617615836565b996152398a6152346004840154610e14600261522b85614ffd85610e148160801c90565b96015460801c90565b61551f565b956152546152456107ef565b6001600160801b03909d168d52565b6001600160801b0390911660208c01908152906001600160801b0390961660408c01908152958b8854928c60028b019485549161529d610de46152978560801c90565b84615deb565b6001600160801b039091161190828c83156153ed575b5050506153d9576153956153858f946153676153b79f958f8f806150ee610de4610dd7946153b19f8f61441c9f906153a39f6153959f615317906153589561530e6150596146a397610cf76150c09f5160018060801b031690565b90558254614dc4565b905580548c519091906001600160801b03168b51909190615351906001600160801b031693608084901b6001600160801b038616176118c9565b9055612b8c565b5492516001600160801b031690565b966001600160801b0388166153c2575b50516001600160801b031690565b965197516001600160a01b031690565b97516001600160a01b031690565b97516001600160801b031690565b95615c25565b5f80808080806151c5565b6153d1815461055f8a60801b90565b90555f615377565b63d1b5191160e01b5f52602060045260245ffd5b5191925061540a91610de491906001600160801b03165b93615deb565b6001600160801b03909116115f828c6152b3565b61543260049161055f838501549160801b90565b9101555f806151b0565b63d1b5191160e01b5f52601f60045260245ffd5b845190915061546d90610de49084906001600160801b0316615404565b6001600160801b03909116115f614f9f565b91909160018060a01b0316805f52600160205260405f20835f5260205260405f20805490838203918211610759575f935f516020615f325f395f51905f52926149e092556040519182913383612a68565b6001600160a01b031691823b156102dd57615504925f9283604051809681958294637bd3ca3560e01b8452600484016129f3565b03925af1801561176d576155155750565b5f6107dd916107ad565b61030691608082901c6001600160801b039182169190921602046157bb565b60ff8116036102dd57565b6020818303126102dd578035906001600160401b0382116102dd5701906040828203126102dd576040519161557d83610792565b80356155888161553e565b83526020810135906001600160401b0382116102dd570181601f820112156102dd578035906155b682613237565b926155c460405194856107ad565b828452602083830101116102dd57815f9260208093018386013783010152602082015290565b908160c09103126102dd576040519060c08201908282106001600160401b0383111761078d5760a091604052805183526020810151602084015260408101516040840152606081015161563c8161553e565b606084015260808101516080840152015160a082015290565b929190604051936020850152604084015260ff60f81b166060830152604182526107dd6061836107ad565b90926156d861010093604061030697966156ad8682516020809160018060a01b0381511684520151910152565b60208181015187840152910151606086015281516001600160a01b03166080860152015160a0840152565b6001600160a01b031660c082015260e081018290520190611fc2565b604061030694936101009360018060a01b0316835265ffffffffffff6060825160018060a01b03815116602087015260018060a01b036020820151168587015282858201511682870152015116608084015260018060a01b0360208201511660a0840152015160c08201528160e08201520190611fc2565b908160a09103126102dd5760806040519161578683610772565b805183526020810151602084015260408101516157a28161553e565b6040840152606081015160608401520151608082015290565b6001600160801b0381116157d5576001600160801b031690565b505f90565b6001600160801b039091169081156157f9576001600160801b03160490565b634e487b7160e01b5f52601260045260245ffd5b60bb1c6103ff168015614c4257600a0260018060801b03811690810361075957610306916157da565b610306916001600160801b0380831660809390931c911602046157bb565b610cf790614dd98360801d8260801d016157bb565b610cf7906142198360801d8260801d036157bb565b6040516323b872dd60e01b81526001600160a01b0391821660048201529116602482015260448101919091526020905f9060649082732387fd72c1da19f6486b843f5da562679fbb40575af13d15601f3d1160015f5114161716156142cd57565b6040516323b872dd60e01b81526001600160a01b03928316600482015292909116602483015260448201929092526020915f9160649183905af13d15601f3d1160015f5114161716156142cd57565b5f516020615f725f395f51905f525c8111615964575f516020615f725f395f51905f525c035f516020615f725f395f51905f525d565b63d1b5191160e01b5f52601c60045260245ffd5b9390929161599c606460dd83901c601f166001600160801b03871602048095612b8c565b6001600160801b03811693909190606460fa83901c86020491606460f482901c603f1687020494896159f3606460ee85901c603f168a020498606460e886901c603f168202045b9490603f60649260e21c16020490565b976001600160a01b0383169081615acf575050505050615a135f836129da565b6001600160801b0316335f90815260059098016020819052604090982090815490615a3d91612a5b565b9055615a4985856129da565b6001600160801b03166001600160a01b039091165f90815260208890526040902090815490615a7791612a5b565b9055615a8291612b8c565b90615a8c91612b8c565b90615a9691612b8c565b90615aa0916129da565b6001600160801b03166001600160a01b039092165f908152602091909152604090209081549061490d91612a5b565b6105029750918b9391615bd39b9593610de49b98975f9b615be69f6001615afd91015460018060a01b031690565b6001600160a01b039586169581168614158e14615c14576001600160a01b03165f9081526005890160205260409020615b44905b805490926001600160801b031690612a5b565b90555b6001600160a01b0381168414158c14615c03576001600160a01b03165f9081526005870160205260409020615b7b90615b31565b90555b14158814615be9576001600160a01b03165f90815260058084016020526040909120615bcc93615b31939091615bb19085565b90555b019a8b9060018060a01b03165f5260205260405f2090565b90556129da565b335f908152602093909352604090922090565b55565b506005615bfd615b3192615bcc94956129da565b93615bb4565b50615c0e91966129da565b94615b7e565b50615c1f91986129da565b96615b47565b9495909390929091615c4d606460dd83901c601f166001600160801b03881602048096612b8c565b6001600160801b03811694909290606460fa84901c87020492606460f482901c603f16880204958a615c98606460ee85901c603f168b020499606460e886901c603f168202046159e3565b986001600160a01b0383169081615cb8575050505050615a1390836129da565b6105029850908c94939291610de49b9897615bd39d979b615be69f6001615ce691015460018060a01b031690565b6001600160a01b039586169581168614615d93576001600160a01b03165f9081526005890160205260409020615d1b90615b31565b90555b6001600160a01b0381168414615d82576001600160a01b03165f9081526005870160205260409020615d4f90615b31565b90555b14615be9576001600160a01b03165f90815260058084016020526040909120615bcc93615b31939091615bb19085565b50615d8d91966129da565b94615d52565b50615d9e91986129da565b96615d1e565b600381018054615dbf906001600160801b0319851690614204565b905560018101546001600160a01b0316615dd7575050565b600461490d91019182549060801b90614204565b60b11c6103ff168015614c4257610306916157da565b9061490d9060038301615e85615e54825495615e1d8760801c90565b90615e656002820198610cf7615e348b5460801c90565b6001600160801b03908116968a82169688928892911682028390046157bb565b936001600160801b031602046157bb565b60018201549093906001600160a01b0316615e92575b5050508254614dc4565b905582549060801b6118c9565b6118c96004615ed3930193610cf7855493615ec1818460018060801b03615eb98960801c90565b1602046157bb565b926001600160801b03861602046157bb565b90555f8080615e7b565b6001600160a01b0381169081036157d5579056fe5d72191643a9d630c58937d62f5e056dcfa8dbf1aced1cb2f655ee1d7ecaf57787b52c29898e62efc1f9a9b00a26dcbdaee98d728c56841703077b7c0d20dee71b3d7edb2e9c0b0e7c525b20aaaef0f5940d2ed71663c7d39266ecafac728859e2afc7ec4dbb9bfdb1b8e8bcf21a055747c25bf2faaea9cb5a134005381f4843cbe27d488af5b5c1b0bd8d89be6fdfeaed3ad42719044fd9b728f33df1d6f1d1a264697066735822122007b1fbeb9142c1c882a9db1bbf4d7d73425b52a89240b98a2746a923f08b64a464736f6c634300081d0033","linkReferences":{}},"methodIdentifiers":{"addbanlist(address)":"b153b920","allowance(address,address,uint256)":"598af9e7","approve(address,uint256,uint256)":"426a8493","balanceOf(address,uint256)":"00fdd58e","buyGood(address,address,uint128,uint128,address,bytes)":"f151e786","buyGoodCheck(address,address,uint128,uint128)":"3bd16436","changeGoodOwner(address,address)":"41e12373","changeReStakingContrat(address)":"119ac094","changemarketcreator(address)":"a06ad0e8","collectCommission(address[])":"0d2700ab","collectProof(uint256,address)":"a676a600","disinvestProof(uint256,uint128,address)":"f4662f20","flashFee(address,uint256)":"d9d98ce4","flashLoan(address,address,uint256,bytes)":"5cffe9de","getGoodState(address)":"08238466","getProofState(uint256)":"3f117740","getRecentGoodState(address,address)":"00796f71","goodWelfare(address,uint128,bytes)":"06cf4e7f","initGood(address,uint256,address,uint256,bytes,bytes)":"5f755d65","initMetaGood(address,uint256,uint256,bytes)":"51ff9a16","investGood(address,address,uint128,bytes,bytes)":"f878e809","isOperator(address,address)":"b6363cf2","ishigher(address,address,uint256)":"1412723a","marketconfig()":"402f5ab5","marketcreator()":"3d995173","maxFlashLoan(address)":"613255ab","modifyGoodConfig(address,uint256)":"b1efb921","multicall(bytes[])":"ac9650d8","queryCommission(address[],address)":"9b222794","removeSecurityKeeper()":"c9544f18","removebanlist(address)":"9551177a","securityKeeper(address)":"3c9fe544","setMarketConfig(uint256)":"45818e4c","setMarketor(address,uint256)":"cde3c0c5","setOperator(address,bool)":"558a7297","stakeETH(address,uint128)":"73db1792","supportsInterface(bytes4)":"01ffc9a7","syncReward(address)":"8c706eb5","transfer(address,uint256,uint256)":"095bcdb6","transferFrom(address,address,uint256,uint256)":"fe99049a","unstakeETH(address,uint128)":"81a860d1","updateGoodConfig(address,uint256)":"a3b74a49","userConfig(address)":"5f35b0b3"},"id":47}