{"abi":[{"type":"constructor","inputs":[{"name":"_creator","type":"address","internalType":"address"},{"name":"_ttswap_market","type":"address","internalType":"contract I_TTSwap_Market"},{"name":"_ttswap_token","type":"address","internalType":"contract IERC20"},{"name":"_ROCKET_TOKEN_RETH","type":"address","internalType":"contract IRocketTokenRETH"},{"name":"_rocketstorage","type":"address","internalType":"contract IRocketStorage"}],"stateMutability":"nonpayable"},{"type":"receive","stateMutability":"payable"},{"type":"function","name":"changeManager","inputs":[{"name":"_manager","type":"address","internalType":"address"}],"outputs":[],"stateMutability":"nonpayable"},{"type":"function","name":"collectTTSReward","inputs":[],"outputs":[],"stateMutability":"nonpayable"},{"type":"function","name":"divest","inputs":[{"name":"_goodQuantity","type":"uint128","internalType":"uint128"}],"outputs":[],"stateMutability":"nonpayable"},{"type":"function","name":"invest","inputs":[{"name":"_goodQuantity","type":"uint128","internalType":"uint128"}],"outputs":[],"stateMutability":"nonpayable"},{"type":"function","name":"rethStaking","inputs":[],"outputs":[{"name":"","type":"uint256","internalType":"uint256"}],"stateMutability":"view"},{"type":"function","name":"sethState","inputs":[],"outputs":[{"name":"","type":"uint256","internalType":"uint256"}],"stateMutability":"view"},{"type":"function","name":"stakeEth","inputs":[{"name":"token","type":"address","internalType":"address"},{"name":"_stakeamount","type":"uint128","internalType":"uint128"}],"outputs":[],"stateMutability":"payable"},{"type":"function","name":"stakeRocketPoolETH","inputs":[{"name":"stakeamount","type":"uint128","internalType":"uint128"}],"outputs":[{"name":"rethAmount","type":"uint256","internalType":"uint256"}],"stateMutability":"nonpayable"},{"type":"function","name":"swethState","inputs":[],"outputs":[{"name":"","type":"uint256","internalType":"uint256"}],"stateMutability":"view"},{"type":"function","name":"syncReward","inputs":[{"name":"token","type":"address","internalType":"address"}],"outputs":[{"name":"reward","type":"uint128","internalType":"uint128"}],"stateMutability":"nonpayable"},{"type":"function","name":"totalStake","inputs":[],"outputs":[{"name":"","type":"uint256","internalType":"uint256"}],"stateMutability":"view"},{"type":"function","name":"totalState","inputs":[],"outputs":[{"name":"","type":"uint256","internalType":"uint256"}],"stateMutability":"view"},{"type":"function","name":"unstakeEthSome","inputs":[{"name":"token","type":"address","internalType":"address"},{"name":"amount","type":"uint128","internalType":"uint128"}],"outputs":[{"name":"reward","type":"uint128","internalType":"uint128"}],"stateMutability":"nonpayable"},{"type":"function","name":"unstakeRocketPoolETH","inputs":[{"name":"rethAmount","type":"uint256","internalType":"uint256"}],"outputs":[],"stateMutability":"nonpayable"},{"type":"event","name":"e_Received","inputs":[{"name":"","type":"uint256","indexed":false,"internalType":"uint256"}],"anonymous":false},{"type":"event","name":"e_collecttts","inputs":[{"name":"amount","type":"uint256","indexed":false,"internalType":"uint256"}],"anonymous":false},{"type":"event","name":"e_rocketpoolUnstaked","inputs":[{"name":"totalStake","type":"uint256","indexed":false,"internalType":"uint256"},{"name":"totalState","type":"uint256","indexed":false,"internalType":"uint256"},{"name":"reward","type":"uint128","indexed":false,"internalType":"uint128"}],"anonymous":false},{"type":"event","name":"e_stakeRocketPoolETH","inputs":[{"name":"totalStake","type":"uint256","indexed":false,"internalType":"uint256"}],"anonymous":false},{"type":"event","name":"e_stakeSETH","inputs":[{"name":"TotalStake","type":"uint256","indexed":false,"internalType":"uint256"},{"name":"TotalState","type":"uint256","indexed":false,"internalType":"uint256"},{"name":"sethShare","type":"uint256","indexed":false,"internalType":"uint256"},{"name":"rethStaking","type":"uint256","indexed":false,"internalType":"uint256"},{"name":"stakeamount","type":"uint128","indexed":false,"internalType":"uint128"}],"anonymous":false},{"type":"event","name":"e_stakeSWETH","inputs":[{"name":"TotalStake","type":"uint256","indexed":false,"internalType":"uint256"},{"name":"TotalState","type":"uint256","indexed":false,"internalType":"uint256"},{"name":"swethShare","type":"uint256","indexed":false,"internalType":"uint256"},{"name":"rethStaking","type":"uint256","indexed":false,"internalType":"uint256"},{"name":"stakeamount","type":"uint128","indexed":false,"internalType":"uint128"}],"anonymous":false},{"type":"event","name":"e_stakeeth_devest","inputs":[{"name":"rethStaking","type":"uint256","indexed":false,"internalType":"uint256"}],"anonymous":false},{"type":"event","name":"e_stakeeth_invest","inputs":[{"name":"rethStaking","type":"uint256","indexed":false,"internalType":"uint256"}],"anonymous":false},{"type":"event","name":"e_unstakeSETH","inputs":[{"name":"TotalStake","type":"uint256","indexed":false,"internalType":"uint256"},{"name":"TotalState","type":"uint256","indexed":false,"internalType":"uint256"},{"name":"sethShare","type":"uint256","indexed":false,"internalType":"uint256"},{"name":"rethStaking","type":"uint256","indexed":false,"internalType":"uint256"},{"name":"reward","type":"uint128","indexed":false,"internalType":"uint128"}],"anonymous":false},{"type":"event","name":"e_unstakeSWETH","inputs":[{"name":"TotalStake","type":"uint256","indexed":false,"internalType":"uint256"},{"name":"TotalState","type":"uint256","indexed":false,"internalType":"uint256"},{"name":"swethShare","type":"uint256","indexed":false,"internalType":"uint256"},{"name":"rethStaking","type":"uint256","indexed":false,"internalType":"uint256"},{"name":"reward","type":"uint128","indexed":false,"internalType":"uint128"}],"anonymous":false},{"type":"error","name":"DepositFailed","inputs":[]},{"type":"error","name":"ERC20TransferFailed","inputs":[]},{"type":"error","name":"NativeETHTransferFailed","inputs":[]},{"type":"error","name":"TTSwapError","inputs":[{"name":"seq","type":"uint256","internalType":"uint256"}]}],"bytecode":{"object":"0x6101003461015657601f6120f038819003918201601f19168301916001600160401b0383118484101761015a5780849260a0946040528339810103126101565780516001600160a01b038116908190036101565760208201516001600160a01b0381168103610156576040830151906001600160a01b0382168203610156576060840151936001600160a01b03851685036101565760800151926001600160a01b038416840361015657600580546001600160a01b0319908116929092179055600680549091163317905560c05260e05260a052608052604051611f81908161016f823960805181818161050c015281816106b101528181610f4d01528181611133015281816114730152611a15015260a05181610d43015260c0518181816103ab015281816104980152818161070801528181610a9c01528181610b3d01528181610c95015261119a015260e051816104380152f35b5f80fd5b634e487b7160e01b5f52604160045260245ffdfe60806040526004361015610022575b3615610018575f80fd5b61002061199b565b005b5f3560e01c80630c408b1614610101578063384e54b5146100fc5780633f9958f2146100f75780634fbda438146100f257806361a5192c146100ed5780636cd837af146100e85780638b0e9f3f146100e35780638c706eb5146100de5780638efa0487146100d95780639bd74e1d146100d45780639f58a561146100cf578063a3fbbaae146100ca578063baeb91ae146100c55763faec944f0361000e57611424565b611102565b6110b1565b611095565b610cc5565b610ae0565b6108fe565b6108e1565b6108c4565b6108a7565b610671565b610654565b6103f9565b610154565b6001600160a01b0381160361011757565b5f80fd5b6001600160801b0381160361011757565b60409060031901126101175760043561014481610106565b906024356101518161011b565b90565b34610117576101623661012c565b5f516020611f2c5f395f51905f525c6001600160a01b03166103db57335f516020611f2c5f395f51905f525d61019e61019a836119d9565b1590565b80156103a8575b610394576020916101b46119f8565b6001600160a01b0381166002036102e95761028e9061028661023461027f60015461021c6101e28883611b5d565b916102156102106102096101f7865f54611b7b565b9560801b6001600160801b0387161790565b8093611b9a565b600155565b5f54611b9a565b5f5561024b6102466003546102406102348b86611671565b6001600160801b031690565b90611b9a565b600355565b6006546001600160a01b03169061027a60096001600160801b03831604926001600160801b0384169088611c35565b61168f565b9485611671565b903390611c35565b7e7eae90b8d9268fb13c0576f93212da41ea2978b508b025f334bf36e71e31966003545f54906102cb8460015460045490604051958695866116a8565b0390a15b6102d76119c7565b6040516001600160801b039091168152f35b61034e9061028661023461027f6002546103206103068883611b5d565b9161021561031b6102096101f7865f54611b7b565b600255565b5f556103386102466003546102406102348b86611671565b61024b610348610234838a611671565b86611bc3565b7f68c77a7603d76e9e9f58f3ee37e0fc655cd802f33a50555cca4ce2e054aed8876003545f549061038c8460025460045490604051958695866116a8565b0390a16102cf565b63d1b5191160e01b5f52602560045260245ffd5b507f00000000000000000000000000000000000000000000000000000000000000006001600160a01b03163314156101a5565b63d1b5191160e01b5f52600360045260245ffd5b5f91031261011757565b34610117575f366003190112610117576006546001600160a01b03163303610117576040516370a0823160e01b81523060048201526001600160a01b037f00000000000000000000000000000000000000000000000000000000000000001690602081602481855afa9081156105f3575f91610625575b506001600160801b03168061048157005b60405163095ea7b360e01b81526001600160a01b037f000000000000000000000000000000000000000000000000000000000000000016600482018190526001600160801b03831660248301526020826044815f885af19081156105f35761056f9460409385936105f8575b5083516378a8f3c360e11b81526001600160a01b0391821660048201527f000000000000000000000000000000000000000000000000000000000000000090911660248201526001600160801b039092166044830152600160648301525f6084830181905260c060a484015260c48301819052919485928391829060e4820190565b03925af19081156105f3577f2830a90fac4765f504d820b52c9dfbd66dfb00a95dcf6e782243478e46a44b05926105c0926105c5575b506040516001600160801b0390911681529081906020820190565b0390a1005b6105e69060403d6040116105ec575b6105de81836116da565b810190611742565b506105a5565b503d6105d4565b61171f565b6106199060203d60201161061e575b61061181836116da565b81019061172a565b6104ed565b503d610607565b610647915060203d60201161064d575b61063f81836116da565b810190611710565b5f610470565b503d610635565b34610117575f366003190112610117576020600154604051908152f35b346101175760203660031901126101175760043561068e8161011b565b6006546001600160a01b0381163303610117576106ea6106ac611758565b3081527f00000000000000000000000000000000000000000000000000000000000000006001600160a01b031660208201525b5f6040820152611ce3565b60405162fc45dd60e61b815260048101829052906001600160a01b037f00000000000000000000000000000000000000000000000000000000000000001660a083602481845afa9384156105f3575f61077d879261077161076061023460606107c09b60409b8891610878575b50015160801c90565b6001600160801b03861611156116d3565b6001600160a01b031690565b85516307a3317960e51b815260048101959095526001600160801b0390921660248501526001600160a01b03909116604484015291938492839182906064820190565b03925af180156105f35761080992610804925f9261083e575b506107e7826107fe92611671565b600454926001600160801b031660809190911b1790565b90611d29565b600455565b6004546040519081527f92998adb9d780ebedf7690be5ca91b335882d7c5533142a287aa7feda28dd3309080602081016105c0565b6107fe9192506108686107e79160403d604011610871575b61086081836116da565b8101906117d4565b509291506107d9565b503d610856565b61089a915060a03d60a0116108a0575b61089281836116da565b810190611769565b5f610757565b503d610888565b34610117575f366003190112610117576020600254604051908152f35b34610117575f366003190112610117576020600454604051908152f35b34610117575f366003190112610117576020600354604051908152f35b346101175760203660031901126101175760043561091b81610106565b5f516020611f2c5f395f51905f525c6001600160a01b0316610acc57335f516020611f2c5f395f51905f525d61095361019a826119d9565b8015610a99575b610394576020906109696119f8565b6001600160a01b038116600203610a2f5761028e610a1c5f546109d36102106109a160015461027a61099b8260801c90565b86611b7b565b926109c56109af8583611b5d565b91608083901b6001600160801b03871617610240565b5f556001549060801b610240565b6003546109ed90610246906001600160801b038416610240565b6006546001600160a01b03169061027a60096001600160801b03831604926001600160801b0384169087611c35565b916001600160801b038316903390611c35565b61034e610a1c5f54610a6c61031b610a5060025461027a61099b8260801c90565b92610a5e6109af8583611b5d565b5f556002549060801b610240565b600354610a8690610246906001600160801b038416610240565b6109ed6001600160801b03821685611bc3565b507f00000000000000000000000000000000000000000000000000000000000000006001600160a01b031633141561095a565b63d1b5191160e01b5f52600360045260245ffd5b610ae93661012c565b5f516020611f2c5f395f51905f525c6001600160a01b0316610acc57335f516020611f2c5f395f51905f525d610b2161019a836119d9565b8015610c92575b610394576001600160801b038116610b6b81307f00000000000000000000000000000000000000000000000000000000000000006001600160a01b031686611d52565b600354610b8790610246906001600160801b0385165b90611df8565b5f54928315610c8557610bba610bb384610ba18188611b5d565b60801b6001600160801b039091161790565b8095611df8565b5f556001600160a01b038116600203610c27575050610bff6102107f98742f24b32588ba36de8bae553846319fdc5b703def3876f94d1ea44d13575e93600154611df8565b600354610c1b5f549260015460045490604051958695866116a8565b0390a15b6100206119c7565b90610c6191610c5c61031b7f4eaf8b4d93b127ef701a9fe9b93a91d6c7d003aa2535cea4ee0cbd422cd375cb96600254611df8565b611e0d565b600354610c7d5f549260025460045490604051958695866116a8565b0390a1610c1f565b610bba610bb38480610ba1565b507f00000000000000000000000000000000000000000000000000000000000000006001600160a01b0316331415610b28565b3461011757602036600319011261011757600435610ce28161011b565b6006546001600160a01b03163303610117576040516f636f6e74726163742e6164647265737360801b60208083019182527f726f636b657444414f50726f746f636f6c53657474696e67734465706f73697460308401526001600160a01b037f00000000000000000000000000000000000000000000000000000000000000001692610da29290610d8081605081015b03601f1981018352826116da565b519020604051809381926321f8a72160e01b8352600483019190602083019252565b0381855afa9081156105f357610e34916020915f91611078575b506040516f636f6e74726163742e6164647265737360801b838201908152701c9bd8dad95d11195c1bdcda5d141bdbdb607a1b60108201526001600160a01b0392909216949190610e108160218401610d72565b5190209060405180809581946321f8a72160e01b8352600483019190602083019252565b03915afa9081156105f3575f91611049575b50604051636ada784760e01b81526001600160a01b03919091169290602081600481865afa80156105f357610e82915f9161102a575b5061180e565b604051629032ff60e51b815291602083600481875afa9081156105f3576004935f92611008575b5060209060405194858092637eb6744f60e11b82525afa9081156105f357610f4994610efa610eff936020965f91610feb575b506001600160801b03861693610ef390859061186e565b111561187b565b611bc3565b600354610f209061024690608084901b6001600160801b0385161790611e82565b6040516321a3781f60e11b81526001600160801b03909116600482015291829081906024820190565b03817f00000000000000000000000000000000000000000000000000000000000000006001600160a01b03165afa80156105f357610fc8915f91610fcc575b506003546040519081527f08de5306b0e0e53b162e3e26b9db564392ed26f49857e4c092278c7a5ef1dccf90602090a16040519081529081906020820190565b0390f35b610fe5915060203d60201161064d5761063f81836116da565b5f610f88565b6110029150873d891161064d5761063f81836116da565b5f610edc565b602091925061102390823d841161064d5761063f81836116da565b9190610ea9565b611043915060203d60201161061e5761061181836116da565b5f610e7c565b61106b915060203d602011611071575b61106381836116da565b8101906117f9565b5f610e46565b503d611059565b61108f9150823d84116110715761106381836116da565b5f610dbc565b34610117575f3660031901126101175760205f54604051908152f35b34610117576020366003190112610117576004356110ce81610106565b6005546001600160a01b0316330361011757600680546001600160a01b0319166001600160a01b0392909216919091179055005b346101175760203660031901126101175760043561111f8161011b565b6006546001600160a01b03163303610117577f00000000000000000000000000000000000000000000000000000000000000006001600160a01b031661117d611166611758565b3081526001600160a01b03831660208201526106df565b60405162fc45dd60e61b8152600481018290526001600160a01b037f00000000000000000000000000000000000000000000000000000000000000001693919060a081602481885afa9081156105f3575f91611405575b506060015160801c6113bb57505f5b6001600160801b0382811691168110158061133b575b61120391506116d3565b611216610804600454610b818460801b90565b60405163095ea7b360e01b81526001600160a01b03841660048201526001600160801b0382166024820152926020846044815f875af19283156105f3576112bf94602094611320575b5060405163f878e80960e01b81526001600160a01b0390911660048201525f602482018190526001600160801b03909316604482015260a0606482015260a4810183905260c0608482015260c481018390529384928391829060e4820190565b03925af180156105f357611303575b6004546040519081527f1aabc5bac43d0320859dde3d2ff7ff75d8e57946f27d1bb12bcb59eb7079979b9080602081016105c0565b61131b9060203d60201161061e5761061181836116da565b6112ce565b61133690853d871161061e5761061181836116da565b61125f565b506040516370a0823160e01b815230600482015290602082602481875afa9182156105f35761023461138461120394611395935f9161139c575b506001600160801b03166118e7565b600a6001600160801b039091160490565b10156111f9565b6113b5915060203d60201161064d5761063f81836116da565b5f611375565b60405162fc45dd60e61b8152600481019190915260a081602481875afa9081156105f3576113fb606061140093611384935f916108785750015160801c90565b6118c7565b6111e3565b61141e915060a03d60a0116108a05761089281836116da565b5f6111d4565b3461011757602036600319011261011757600654600435906001600160a01b0316330361011757611456811515611907565b6040516370a0823160e01b81523060048201526001600160a01b037f00000000000000000000000000000000000000000000000000000000000000001690602081602481855afa9081156105f3576114b99184915f9161163e575b501015611953565b604051638b32fa2360e01b815260048101839052602081602481855afa9081156105f3575f9161161f575b506003546001600160801b0391909116929060801c91611548610804611521600454956115118760801c90565b60018060801b03169060801b1790565b9461024061154161153b60018060801b0388168099611b5d565b8961168f565b9660801b90565b803b1561011757604051630852cd8d60e31b815260048101929092525f908290602490829084905af180156105f3577f09ce91f9bf23e98bbffef1ed1b2a12d913606db577b6fabf9a81cb368f7900f2936115c19261024692611605575b5060035490608081901b6001600160801b03909116176107fe565b5f546115d6906001600160801b038316610b81565b5f8190556003546040805191825260208201929092526001600160801b039092169082015280606081016105c0565b806116135f611619936116da565b806103ef565b5f6115a6565b611638915060203d60201161064d5761063f81836116da565b5f6114e4565b611657915060203d60201161064d5761063f81836116da565b5f6114b1565b634e487b7160e01b5f52601160045260245ffd5b6001600160801b03918216908216019190821161168a57565b61165d565b6001600160801b03918216908216039190821161168a57565b93909594919260809360a08601978652602086015260408501526060840152600180831b0316910152565b1561011757565b90601f8019910116810190811067ffffffffffffffff8211176116fc57604052565b634e487b7160e01b5f52604160045260245ffd5b90816020910312610117575190565b6040513d5f823e3d90fd5b90816020910312610117575180151581036101175790565b9190826040910312610117576020825192015190565b604051906117676060836116da565b565b908160a0910312610117576040519060a082019082821067ffffffffffffffff8311176116fc5760809160405280516117a181610106565b835260208101516117b181610106565b602084015260408101516040840152606081015160608401520151608082015290565b919082604091031261011757602082516117ed8161011b565b9201516101518161011b565b90816020910312610117575161015181610106565b1561181557565b60405162461bcd60e51b815260206004820152602b60248201527f526f636b657420506f6f6c206465706f73697473206172652063757272656e7460448201526a1b1e48191a5cd8589b195960aa1b6064820152608490fd5b9190820180921161168a57565b1561188257565b60405162461bcd60e51b815260206004820152601a60248201527f4465706f73697420706f6f6c2073697a652065786365656465640000000000006044820152606490fd5b60011b6002600160801b03811691906002600160811b0316820361168a57565b60031b6008600160801b03811691906008600160831b0316820361168a57565b1561190e57565b60405162461bcd60e51b815260206004820152601d60248201527f416d6f756e74206d7573742062652067726561746572207468616e20300000006044820152606490fd5b1561195a57565b60405162461bcd60e51b8152602060048201526019602482015278496e73756666696369656e7420724554482062616c616e636560381b6044820152606490fd5b7f523e899a52e7d85e90429d2280f7c0d23bfc8046b66a4a172cc67f2f9a8f85fc6020604051348152a1565b5f5f516020611f2c5f395f51905f525d565b60018060a01b0316600381149081156119f0575090565b600291501490565b6040516370a0823160e01b81523060048201526001600160a01b037f00000000000000000000000000000000000000000000000000000000000000001690602081602481855afa9182156105f357611a70610234611a9c946020945f91611b40575b50611a6a61023460045460801c90565b9061186e565b604051638b32fa2360e01b81526001600160801b03909116600482015292839190829081906024820190565b03915afa80156105f357611af8915f91611b21575b50600354906001600160801b0316608082901c808210611b1257611adb61024691611ae79361168f565b925b610b818460801b90565b5f54906001600160801b0316610b81565b5f55611767610804611b0c60045460801c90565b60801b90565b5050611ae76102465f92611add565b611b3a915060203d60201161064d5761063f81836116da565b5f611ab1565b611b579150853d871161064d5761063f81836116da565b5f611a5a565b610151916001600160801b0380831660809390931c91160204611e93565b61015191608082901c6001600160801b03918216919092160204611e93565b61151190611baf8360801d8260801d03611e93565b926001600160801b03908116911603611e93565b906001600160a01b038216600314611c19575b5f60048160209360405195630d0e30db60e41b83525af13d15601f3d1160015f5114161716905f60605260405215611c0a57565b6379cacff160e01b5f5260045ffd5b732387fd72c1da19f6486b843f5da562679fbb40579150611bd6565b919091611c4181611eb2565b15611c6b57505f80808093611c56955af11590565b611c5c57565b633c9fd93960e21b5f5260045ffd5b6001600160a01b038116600303611c9b575061176791732387fd72c1da19f6486b843f5da562679fbb4057611c35565b60445f8080936020956040519763a9059cbb60e01b84526004526024525af13d15601f3d1160015f5114161716905f60605260405261176757633c9fd93960e21b5f5260045ffd5b6040805182516001600160a01b03908116602080840191825285015182168385015293909201519091166060808301919091528152611d236080826116da565b51902090565b61151190611d3e8360801d8260801d03611e93565b926001600160801b03918216911601611e93565b929190611d5e84611eb2565b15611d8457505f809350809281925af115611d7557565b633607a14f60e11b5f5260045ffd5b6001600160a01b038416600303611d9f576117679350611eca565b6040516323b872dd60e01b81526001600160a01b0391821660048201529116602482015260448101919091526020915f9160649183905af13d15601f3d1160015f511416171661176757633c9fd93960e21b5f5260045ffd5b61151190611d3e8360801d8260801d01611e93565b6001600160a01b0316600314611e205750565b732387fd72c1da19f6486b843f5da562679fbb40573b156101175760405190632e1a7d4d60e01b825260048201525f8160248183732387fd72c1da19f6486b843f5da562679fbb40575af180156105f357611e785750565b5f611767916116da565b61151190611baf8360801d8260801d015b6001600160801b038111611ead576001600160801b031690565b505f90565b6001600160a01b0316600181149081156119f0575090565b6040516323b872dd60e01b81526001600160a01b0391821660048201529116602482015260448101919091526020905f9060649082732387fd72c1da19f6486b843f5da562679fbb40575af13d15601f3d1160015f511416171615611c5c5756fee8b57f2a24cc49561abc37cc14eb27f7e291d1ac82b5f173f246cc4b4de01451a264697066735822122040238986f04987d8bead4b71c925d5956a8a6f344c597ea6b9a71eb7a284da7564736f6c634300081d0033","linkReferences":{}},"methodIdentifiers":{"changeManager(address)":"a3fbbaae","collectTTSReward()":"384e54b5","divest(uint128)":"4fbda438","invest(uint128)":"baeb91ae","rethStaking()":"6cd837af","sethState()":"3f9958f2","stakeEth(address,uint128)":"8efa0487","stakeRocketPoolETH(uint128)":"9bd74e1d","swethState()":"61a5192c","syncReward(address)":"8c706eb5","totalStake()":"8b0e9f3f","totalState()":"9f58a561","unstakeEthSome(address,uint128)":"0c408b16","unstakeRocketPoolETH(uint256)":"faec944f"},"id":48}