{"abi":[{"type":"constructor","inputs":[{"name":"_officialTokenContract","type":"address","internalType":"address"}],"stateMutability":"nonpayable"},{"type":"function","name":"DOMAIN_SEPARATOR","inputs":[],"outputs":[{"name":"","type":"bytes32","internalType":"bytes32"}],"stateMutability":"view"},{"type":"function","name":"approve","inputs":[{"name":"to","type":"address","internalType":"address"},{"name":"tokenId","type":"uint256","internalType":"uint256"}],"outputs":[],"stateMutability":"nonpayable"},{"type":"function","name":"balanceOf","inputs":[{"name":"owner","type":"address","internalType":"address"}],"outputs":[{"name":"","type":"uint256","internalType":"uint256"}],"stateMutability":"view"},{"type":"function","name":"burn","inputs":[{"name":"tokenId","type":"uint256","internalType":"uint256"}],"outputs":[],"stateMutability":"nonpayable"},{"type":"function","name":"eip712Domain","inputs":[],"outputs":[{"name":"fields","type":"bytes1","internalType":"bytes1"},{"name":"name","type":"string","internalType":"string"},{"name":"version","type":"string","internalType":"string"},{"name":"chainId","type":"uint256","internalType":"uint256"},{"name":"verifyingContract","type":"address","internalType":"address"},{"name":"salt","type":"bytes32","internalType":"bytes32"},{"name":"extensions","type":"uint256[]","internalType":"uint256[]"}],"stateMutability":"view"},{"type":"function","name":"getApproved","inputs":[{"name":"tokenId","type":"uint256","internalType":"uint256"}],"outputs":[{"name":"","type":"address","internalType":"address"}],"stateMutability":"view"},{"type":"function","name":"isApprovedForAll","inputs":[{"name":"owner","type":"address","internalType":"address"},{"name":"operator","type":"address","internalType":"address"}],"outputs":[{"name":"","type":"bool","internalType":"bool"}],"stateMutability":"view"},{"type":"function","name":"isApprovedOrOwner","inputs":[{"name":"spender","type":"address","internalType":"address"},{"name":"tokenId","type":"uint256","internalType":"uint256"}],"outputs":[{"name":"","type":"bool","internalType":"bool"}],"stateMutability":"view"},{"type":"function","name":"mint","inputs":[{"name":"recipent","type":"address","internalType":"address"},{"name":"tokenid","type":"uint256","internalType":"uint256"}],"outputs":[],"stateMutability":"nonpayable"},{"type":"function","name":"name","inputs":[],"outputs":[{"name":"","type":"string","internalType":"string"}],"stateMutability":"view"},{"type":"function","name":"nonces","inputs":[{"name":"tokenId","type":"uint256","internalType":"uint256"}],"outputs":[{"name":"","type":"uint256","internalType":"uint256"}],"stateMutability":"view"},{"type":"function","name":"ownerOf","inputs":[{"name":"tokenId","type":"uint256","internalType":"uint256"}],"outputs":[{"name":"","type":"address","internalType":"address"}],"stateMutability":"view"},{"type":"function","name":"permit","inputs":[{"name":"spender","type":"address","internalType":"address"},{"name":"tokenId","type":"uint256","internalType":"uint256"},{"name":"deadline","type":"uint256","internalType":"uint256"},{"name":"signature","type":"bytes","internalType":"bytes"}],"outputs":[],"stateMutability":"nonpayable"},{"type":"function","name":"proofsource","inputs":[{"name":"","type":"uint256","internalType":"uint256"}],"outputs":[{"name":"","type":"address","internalType":"address"}],"stateMutability":"view"},{"type":"function","name":"safeTransferFrom","inputs":[{"name":"from","type":"address","internalType":"address"},{"name":"to","type":"address","internalType":"address"},{"name":"tokenId","type":"uint256","internalType":"uint256"}],"outputs":[],"stateMutability":"nonpayable"},{"type":"function","name":"safeTransferFrom","inputs":[{"name":"from","type":"address","internalType":"address"},{"name":"to","type":"address","internalType":"address"},{"name":"tokenId","type":"uint256","internalType":"uint256"},{"name":"data","type":"bytes","internalType":"bytes"}],"outputs":[],"stateMutability":"nonpayable"},{"type":"function","name":"safeTransferFromWithPermit","inputs":[{"name":"from","type":"address","internalType":"address"},{"name":"to","type":"address","internalType":"address"},{"name":"tokenId","type":"uint256","internalType":"uint256"},{"name":"_data","type":"bytes","internalType":"bytes"},{"name":"deadline","type":"uint256","internalType":"uint256"},{"name":"signature","type":"bytes","internalType":"bytes"}],"outputs":[],"stateMutability":"nonpayable"},{"type":"function","name":"setApprovalForAll","inputs":[{"name":"operator","type":"address","internalType":"address"},{"name":"approved","type":"bool","internalType":"bool"}],"outputs":[],"stateMutability":"nonpayable"},{"type":"function","name":"supportsInterface","inputs":[{"name":"interfaceId","type":"bytes4","internalType":"bytes4"}],"outputs":[{"name":"","type":"bool","internalType":"bool"}],"stateMutability":"view"},{"type":"function","name":"symbol","inputs":[],"outputs":[{"name":"","type":"string","internalType":"string"}],"stateMutability":"view"},{"type":"function","name":"tokenURI","inputs":[{"name":"tokenId","type":"uint256","internalType":"uint256"}],"outputs":[{"name":"","type":"string","internalType":"string"}],"stateMutability":"view"},{"type":"function","name":"transferFrom","inputs":[{"name":"from","type":"address","internalType":"address"},{"name":"to","type":"address","internalType":"address"},{"name":"tokenId","type":"uint256","internalType":"uint256"}],"outputs":[],"stateMutability":"nonpayable"},{"type":"event","name":"Approval","inputs":[{"name":"owner","type":"address","indexed":true,"internalType":"address"},{"name":"approved","type":"address","indexed":true,"internalType":"address"},{"name":"tokenId","type":"uint256","indexed":true,"internalType":"uint256"}],"anonymous":false},{"type":"event","name":"ApprovalForAll","inputs":[{"name":"owner","type":"address","indexed":true,"internalType":"address"},{"name":"operator","type":"address","indexed":true,"internalType":"address"},{"name":"approved","type":"bool","indexed":false,"internalType":"bool"}],"anonymous":false},{"type":"event","name":"EIP712DomainChanged","inputs":[],"anonymous":false},{"type":"event","name":"Transfer","inputs":[{"name":"from","type":"address","indexed":true,"internalType":"address"},{"name":"to","type":"address","indexed":true,"internalType":"address"},{"name":"tokenId","type":"uint256","indexed":true,"internalType":"uint256"}],"anonymous":false},{"type":"error","name":"InvalidShortString","inputs":[]},{"type":"error","name":"StringTooLong","inputs":[{"name":"str","type":"string","internalType":"string"}]}],"bytecode":{"object":"0x6101a08060405234610466576020816123308038038091610020828561046a565b83398101031261046657516001600160a01b03811681036104665760405161004960408261046a565b600a81526020810169151514ddd85c0813919560b21b81526040519061007060408361046a565b60038252622a2a2760e91b60208301526040519261008f60408561046a565b60018452603160f81b6020850190815281519093906001600160401b03811161037a575f54600181811c9116801561045c575b602082101461035c57601f81116103fa575b50806020601f8211600114610399575f9161038e575b508160011b915f199060031b1c1916175f555b8051906001600160401b03821161037a5760015490600182811c92168015610370575b602083101461035c5781601f8493116102ee575b50602090601f8311600114610288575f9261027d575b50508160011b915f199060031b1c1916176001555b6101688161048d565b6101205261017584610614565b61014052519020918260e05251902080610100524660a0526040519060208201927f8b73c3c69bb8fe3d512ecc4cf759cc79239f7b179b0ffacaa9a75d522b39400f8452604083015260608201524660808201523060a082015260a081526101de60c08261046a565b5190206080523060c0527f49ecf333e5b8c95c40fdafc95c1ad136e8914a8fb55e9dc8bb01eaa83a2df9ad6101605261018052604051611be3908161074d8239608051816116ab015260a05181611768015260c05181611675015260e051816116fa01526101005181611720015261012051816105b8015261014051816105e2015261016051816114f201526101805181818161084501526109a80152f35b015190505f8061014a565b60015f9081528281209350601f198516905b8181106102d657509084600195949392106102be575b505050811b0160015561015f565b01515f1960f88460031b161c191690555f80806102b0565b9293602060018192878601518155019501930161029a565b60015f529091507fb10e2d527612073b26eecdfd717e6a320cf44b4afac2b0732d9fcbe2b7fa0cf6601f840160051c81019160208510610352575b90601f859493920160051c01905b8181106103445750610134565b5f8155849350600101610337565b9091508190610329565b634e487b7160e01b5f52602260045260245ffd5b91607f1691610120565b634e487b7160e01b5f52604160045260245ffd5b90508301515f6100ea565b5f8080528181209250601f198416905b8181106103e2575090836001949392106103ca575b5050811b015f556100fd565b8501515f1960f88460031b161c191690555f806103be565b9192602060018192868a0151815501940192016103a9565b5f80527f290decd9548b62a8d60345a988386fc84ba6bc95484008f6362f93160ef3e563601f830160051c81019160208410610452575b601f0160051c01905b81811061044757506100d4565b5f815560010161043a565b9091508190610431565b90607f16906100c2565b5f80fd5b601f909101601f19168101906001600160401b0382119082101761037a57604052565b908151602081105f14610507575090601f8151116104c75760208151910151602082106104b8571790565b5f198260200360031b1b161790565b604460209160405192839163305a27a960e01b83528160048401528051918291826024860152018484015e5f828201840152601f01601f19168101030190fd5b6001600160401b03811161037a57600654600181811c9116801561060a575b602082101461035c57601f81116105d7575b50602092601f821160011461057657928192935f9261056b575b50508160011b915f199060031b1c19161760065560ff90565b015190505f80610552565b601f1982169360065f52805f20915f5b8681106105bf57508360019596106105a7575b505050811b0160065560ff90565b01515f1960f88460031b161c191690555f8080610599565b91926020600181928685015181550194019201610586565b60065f52601f60205f20910160051c810190601f830160051c015b8181106105ff5750610538565b5f81556001016105f2565b90607f1690610526565b908151602081105f1461063f575090601f8151116104c75760208151910151602082106104b8571790565b6001600160401b03811161037a57600754600181811c91168015610742575b602082101461035c57601f811161070f575b50602092601f82116001146106ae57928192935f926106a3575b50508160011b915f199060031b1c19161760075560ff90565b015190505f8061068a565b601f1982169360075f52805f20915f5b8681106106f757508360019596106106df575b505050811b0160075560ff90565b01515f1960f88460031b161c191690555f80806106d1565b919260206001819286850151815501940192016106be565b60075f52601f60205f20910160051c810190601f830160051c015b8181106107375750610670565b5f815560010161072a565b90607f169061065e56fe6080806040526004361015610012575f80fd5b5f905f3560e01c90816301ffc9a714610eb85750806306fdde0314610df1578063081812fc14610dd3578063095ea7b314610c9d578063141a468c14610c7357806323b872dd14610bc757806324744d5414610b435780633644e51514610b2057806340c10f191461096c57806342842e0e1461094257806342966c6814610812578063430c2081146107e057806357986ece146107ad5780636352211e1461077c57806370a08231146106e6578063745a41bc1461069a57806384b0196e1461059e57806395d89b41146104cf578063a22cb465146103ff578063b88d4fde146103a8578063c87b56dd1461016a5763e985e9c514610110575f80fd5b3461016757604036600319011261016757604061012b610f61565b91610134610f77565b9260018060a01b031681526005602052209060018060a01b03165f52602052602060ff60405f2054166040519015158152f35b80fd5b5034610167576020366003190112610167576004355f818152600260205260409020546101a1906001600160a01b031615156111b6565b604051906101b0606083610fc7565b6021825260208201917f687474703a2f2f7777772e7474737761702e696f2f6e66743f70726f6f6669648352603d60f81b6040820152819382819372184f03e93ff9f4daa797ed6e38ed64bf6a1f0160401b811015610382575b50806d04ee2d6d415b85acef8100000000600a921015610367575b662386f26fc10000811015610353575b6305f5e100811015610342575b612710811015610333575b6064811015610325575b101561031b575b6001830194600a602161028961027389610ffd565b986102816040519a8b610fc7565b808a52610ffd565b602089019690601f19013688378801015b5f1901916f181899199a1a9b1b9c1cb0b131b232b360811b8282061a8353049081156102c857600a9061029a565b5050602061030393610317966040519687955180918588015e85019083820190858252519283915e010190815203601f198101835282610fc7565b604051918291602083526020830190610f3d565b0390f35b916001019161025e565b606460029104940193610257565b6127106004910494019361024d565b6305f5e10060089104940193610242565b662386f26fc1000060109104940193610235565b6d04ee2d6d415b85acef810000000060209104940193610225565b6040945072184f03e93ff9f4daa797ed6e38ed64bf6a1f0160401b90049050600a61020a565b5034610167576080366003190112610167576103c2610f61565b6103ca610f77565b6064359167ffffffffffffffff83116103fb576103ee6103f8933690600401611019565b9160443591611222565b80f35b8380fd5b503461016757604036600319011261016757610419610f61565b602435908115158092036104cb576001600160a01b03169033821461048a57338352600560205260408320825f5260205260405f2060ff1981541660ff83161790556040519081527f17307eab39ab6107e8899845ad3d59bd9653f200f220920489ca2b5937696c3160203392a380f35b60405162461bcd60e51b815260206004820152601960248201527822a9219b99189d1030b8383937bb32903a379031b0b63632b960391b6044820152606490fd5b8280fd5b50346101675780600319360112610167576040519080600154906104f28261105f565b8085529160018116908115610577575060011461051a575b6103178461030381860382610fc7565b600181527fb10e2d527612073b26eecdfd717e6a320cf44b4afac2b0732d9fcbe2b7fa0cf6939250905b80821061055d575090915081016020016103038261050a565b919260018160209254838588010152019101909291610544565b60ff191660208087019190915292151560051b85019092019250610303915083905061050a565b503461016757806003193601126101675761063e906105dc7f00000000000000000000000000000000000000000000000000000000000000006117da565b906106067f000000000000000000000000000000000000000000000000000000000000000061183a565b90602061064c6040519361061a8386610fc7565b8385525f368137604051968796600f60f81b885260e08589015260e0880190610f3d565b908682036040880152610f3d565b904660608601523060808601528260a086015284820360c08601528080855193848152019401925b82811061068357505050500390f35b835185528695509381019392810192600101610674565b5034610167576080366003190112610167576106b4610f61565b6064359067ffffffffffffffff82116104cb576106d86103f8923690600401611019565b9060443590602435906114cc565b5034610167576020366003190112610167576001600160a01b03610708610f61565b168015610725578160409160209352600383522054604051908152f35b60405162461bcd60e51b815260206004820152602960248201527f4552433732313a2061646472657373207a65726f206973206e6f7420612076616044820152683634b21037bbb732b960b91b6064820152608490fd5b503461016757602036600319011261016757602061079b6004356111fd565b6040516001600160a01b039091168152f35b503461016757602036600319011261016757602090600435815260098252604060018060a01b0391205416604051908152f35b50346101675760403660031901126101675760206108086107ff610f61565b60243590611341565b6040519015158152f35b5034610167576020366003190112610167576040516364e72dbd60e01b81523360048281019190915235906020816024817f00000000000000000000000000000000000000000000000000000000000000006001600160a01b03165afa8015610937578390610900575b60019150036108fc5761088e816111fd565b5081610899826111fd565b82825260046020908152604080842080546001600160a01b03199081169091556001600160a01b03939093168085526003835281852080545f190190558585526002909252832080549092169091555f80516020611b8e8339815191528280a480f35b5080fd5b506020813d60201161092f575b8161091a60209383610fc7565b8101031261092b576001905161087c565b5f80fd5b3d915061090d565b6040513d85823e3d90fd5b5034610167576103f861095436610f8d565b9060405192610964602085610fc7565b858452611222565b503461016757604036600319011261016757610986610f61565b6040516364e72dbd60e01b8152336004820152602480359291906020908290817f00000000000000000000000000000000000000000000000000000000000000006001600160a01b03165afa8015610b15578490610ae2575b60019150036104cb5781835260096020526040832080546001600160a01b031916331790556001600160a01b03168015610a9e575f82815260026020526040902054610a37906001600160a01b031615155b1561178e565b5f82815260026020526040902054610a59906001600160a01b03161515610a31565b808352600360209081526040808520805460010190558385526002909152832080546001600160a01b03191682179055825f80516020611b8e8339815191528180a480f35b606460405162461bcd60e51b815260206004820152602060248201527f4552433732313a206d696e7420746f20746865207a65726f20616464726573736044820152fd5b506020813d602011610b0d575b81610afc60209383610fc7565b8101031261092b57600190516109df565b3d9150610aef565b6040513d86823e3d90fd5b50346101675780600319360112610167576020610b3b611672565b604051908152f35b50346101675760c036600319011261016757610b5d610f61565b610b65610f77565b60443560643567ffffffffffffffff8111610bc357610b88903690600401611019565b9160a4359367ffffffffffffffff8511610bbf57610bba610bb06103f8963690600401611019565b60843585336114cc565b611222565b8580fd5b8480fd5b503461092b57610bd636610f8d565b90610be9610be48333611341565b611154565b610bf48282856113b6565b5f828152600960205260409020546001600160a01b0316803b1561092b57604051630fd52d2b60e11b815260048101939093526001600160a01b03938416602484015292166044820152905f908290606490829084905af18015610c6857610c5a575080f35b610c6691505f90610fc7565b005b6040513d5f823e3d90fd5b3461092b57602036600319011261092b576004355f526008602052602060405f2054604051908152f35b3461092b57604036600319011261092b57610cb6610f61565b6024356001600160a01b03610cca826111fd565b166001600160a01b0383168114610d8457803314908115610d60575b5015610cf557610c66916112da565b60405162461bcd60e51b815260206004820152603d60248201527f4552433732313a20617070726f76652063616c6c6572206973206e6f7420746f60448201527f6b656e206f776e6572206f7220617070726f76656420666f7220616c6c0000006064820152608490fd5b5f90815260056020908152604080832033845290915290205460ff16905083610ce6565b60405162461bcd60e51b815260206004820152602160248201527f4552433732313a20617070726f76616c20746f2063757272656e74206f776e656044820152603960f91b6064820152608490fd5b3461092b57602036600319011261092b57602061079b600435611118565b3461092b575f36600319011261092b576040515f8054610e108161105f565b8084529060018116908115610e945750600114610e38575b6103178361030381850382610fc7565b5f8080527f290decd9548b62a8d60345a988386fc84ba6bc95484008f6362f93160ef3e563939250905b808210610e7a57509091508101602001610303610e28565b919260018160209254838588010152019101909291610e62565b60ff191660208086019190915291151560051b840190910191506103039050610e28565b3461092b57602036600319011261092b576004359063ffffffff60e01b821680920361092b57602091635604e22560e01b8114908115610efa575b5015158152f35b6380ac58cd60e01b811491508115610f2c575b8115610f1b575b5083610ef3565b6301ffc9a760e01b14905083610f14565b635b5e139f60e01b81149150610f0d565b805180835260209291819084018484015e5f828201840152601f01601f1916010190565b600435906001600160a01b038216820361092b57565b602435906001600160a01b038216820361092b57565b606090600319011261092b576004356001600160a01b038116810361092b57906024356001600160a01b038116810361092b579060443590565b90601f8019910116810190811067ffffffffffffffff821117610fe957604052565b634e487b7160e01b5f52604160045260245ffd5b67ffffffffffffffff8111610fe957601f01601f191660200190565b81601f8201121561092b5780359061103082610ffd565b9261103e6040519485610fc7565b8284526020838301011161092b57815f926020809301838601378301015290565b90600182811c9216801561108d575b602083101461107957565b634e487b7160e01b5f52602260045260245ffd5b91607f169161106e565b5f92918154916110a68361105f565b80835292600181169081156110fb57506001146110c257505050565b5f9081526020812093945091925b8383106110e1575060209250010190565b6001816020929493945483858701015201910191906110d0565b915050602093945060ff929192191683830152151560051b010190565b5f8181526002602052604090205461113a906001600160a01b031615156111b6565b5f908152600460205260409020546001600160a01b031690565b1561115b57565b60405162461bcd60e51b815260206004820152602d60248201527f4552433732313a2063616c6c6572206973206e6f7420746f6b656e206f776e6560448201526c1c881bdc88185c1c1c9bdd9959609a1b6064820152608490fd5b156111bd57565b60405162461bcd60e51b8152602060048201526018602482015277115490cdcc8c4e881a5b9d985b1a59081d1bdad95b88125160421b6044820152606490fd5b5f908152600260205260409020546001600160a01b031661121f8115156111b6565b90565b9261124790611234610be48533611341565b61123f8484876113b6565b838386611a35565b156112bd575f828152600960205260409020546001600160a01b0316803b1561092b57604051630fd52d2b60e11b815260048101939093526001600160a01b03938416602484015292166044820152905f908290606490829084905af18015610c68576112b15750565b5f6112bb91610fc7565b565b60405162461bcd60e51b8152806112d660048201611871565b0390fd5b5f82815260046020526040902080546001600160a01b0319166001600160a01b038381169190911790915561130e836111fd565b6001600160a01b0390921691167f8c5be1e5ebec7d5bd14f71427d1e84f3dd0314c0f7b2291e5b200ac8c7c3b9255f80a4565b906001600160a01b03611353826111fd565b6001600160a01b0390931692168281149291908315611393575b50821561137957505090565b9091506001600160a01b039061138e90611118565b161490565b9092505f52600560205260405f20815f5260205260ff60405f205416915f61136d565b90825f52600860205260405f20600181540190556113ea6113d6846111fd565b6001600160a01b03938416931683146118c4565b6001600160a01b031690811561147b57611416816001600160a01b0361140f866111fd565b16146118c4565b5f83815260046020908152604080832080546001600160a01b03199081169091558484526003835281842080545f1901905585845281842080546001019055868452600290925282208054909116841790555f80516020611b8e8339815191529080a4565b60405162461bcd60e51b8152602060048201526024808201527f4552433732313a207472616e7366657220746f20746865207a65726f206164646044820152637265737360e01b6064820152608490fd5b92909180421161162d57604290835f52600860205260405f2054906040519060208201927f0000000000000000000000000000000000000000000000000000000000000000845260018060a01b0388166040840152866060840152608083015260a082015260a0815261154060c082610fc7565b51902061154b611672565b906040519161190160f01b835260028301526022820152209061156e818361191e565b506001600160a01b0381161515929084908461161a575b50508215611604575b82156115ea575b5050156115a5576112bb916112da565b60405162461bcd60e51b815260206004820152601f60248201527f4552433732315065726d69743a20696e76616c6964207369676e6174757265006044820152606490fd5b6115fd92506115f884611118565b6119a2565b5f80611595565b915061161481836115f8866111fd565b9161158e565b611625929450611341565b91835f611585565b60405162461bcd60e51b815260206004820152601e60248201527f4552433732315065726d69743a206578706972656420646561646c696e6500006044820152606490fd5b307f00000000000000000000000000000000000000000000000000000000000000006001600160a01b03161480611765575b156116cd577f000000000000000000000000000000000000000000000000000000000000000090565b60405160208101907f8b73c3c69bb8fe3d512ecc4cf759cc79239f7b179b0ffacaa9a75d522b39400f82527f000000000000000000000000000000000000000000000000000000000000000060408201527f000000000000000000000000000000000000000000000000000000000000000060608201524660808201523060a082015260a0815261175f60c082610fc7565b51902090565b507f000000000000000000000000000000000000000000000000000000000000000046146116a4565b1561179557565b60405162461bcd60e51b815260206004820152601c60248201527f4552433732313a20746f6b656e20616c7265616479206d696e746564000000006044820152606490fd5b60ff81146118205760ff811690601f821161181157604051916117fe604084610fc7565b6020808452838101919036833783525290565b632cd44ac360e21b5f5260045ffd5b5060405161121f81611833816006611097565b0382610fc7565b60ff811461185e5760ff811690601f821161181157604051916117fe604084610fc7565b5060405161121f81611833816007611097565b60809060208152603260208201527f4552433732313a207472616e7366657220746f206e6f6e20455243373231526560408201527131b2b4bb32b91034b6b83632b6b2b73a32b960711b60608201520190565b156118cb57565b60405162461bcd60e51b815260206004820152602560248201527f4552433732313a207472616e736665722066726f6d20696e636f72726563742060448201526437bbb732b960d91b6064820152608490fd5b9060418151145f1461194a5761194691602082015190606060408401519301515f1a90611b1c565b9091565b50505f90600290565b3d1561197d573d9061196482610ffd565b916119726040519384610fc7565b82523d5f602084013e565b606090565b9081602091031261092b57516001600160e01b03198116810361092b5790565b5f92916119d86119e685946040519283916020830195630b135d3f60e11b87526024840152604060448401526064830190610f3d565b03601f198101835282610fc7565b51915afa6119f2611953565b81611a29575b81611a01575090565b8051630b135d3f60e11b92506001600160e01b03199161138e91810160209081019101611982565b805160201491506119f8565b919290803b15611b1357611a84935f60209460405196879586948593630a85bd0160e11b855233600486015260018060a01b031660248501526044840152608060648401526084830190610f3d565b03926001600160a01b03165af15f9181611ae2575b50611acc57611aa6611953565b80519081611ac75760405162461bcd60e51b8152806112d660048201611871565b602001fd5b6001600160e01b031916630a85bd0160e11b1490565b611b0591925060203d602011611b0c575b611afd8183610fc7565b810190611982565b905f611a99565b503d611af3565b50505050600190565b6fa2a8918ca85bafe22016d0b997e4df60600160ff1b038411611b82576020935f9360ff60809460405194855216868401526040830152606082015282805260015afa15610c68575f516001600160a01b03811615611b7a57905f90565b505f90600190565b505050505f9060039056feddf252ad1be2c89b69c2b068fc378daa952ba7f163c4a11628f55a4df523b3efa26469706673582212203faf652f98f71f50b62ff4843bd1ba3a52d3c1d61d08634c5d876dfe070bc44064736f6c634300081a0033","linkReferences":{}},"methodIdentifiers":{"DOMAIN_SEPARATOR()":"3644e515","approve(address,uint256)":"095ea7b3","balanceOf(address)":"70a08231","burn(uint256)":"42966c68","eip712Domain()":"84b0196e","getApproved(uint256)":"081812fc","isApprovedForAll(address,address)":"e985e9c5","isApprovedOrOwner(address,uint256)":"430c2081","mint(address,uint256)":"40c10f19","name()":"06fdde03","nonces(uint256)":"141a468c","ownerOf(uint256)":"6352211e","permit(address,uint256,uint256,bytes)":"745a41bc","proofsource(uint256)":"57986ece","safeTransferFrom(address,address,uint256)":"42842e0e","safeTransferFrom(address,address,uint256,bytes)":"b88d4fde","safeTransferFromWithPermit(address,address,uint256,bytes,uint256,bytes)":"24744d54","setApprovalForAll(address,bool)":"a22cb465","supportsInterface(bytes4)":"01ffc9a7","symbol()":"95d89b41","tokenURI(uint256)":"c87b56dd","transferFrom(address,address,uint256)":"23b872dd"},"id":74}