{"abi":[{"type":"constructor","inputs":[{"name":"_marketconfig","type":"uint256","internalType":"uint256"},{"name":"_officialTokenContract","type":"address","internalType":"address"},{"name":"_marketcreator","type":"address","internalType":"address"},{"name":"_securitykeeper","type":"address","internalType":"address"}],"stateMutability":"nonpayable"},{"type":"receive","stateMutability":"payable"},{"type":"function","name":"addbanlist","inputs":[{"name":"_user","type":"address","internalType":"address"}],"outputs":[{"name":"","type":"bool","internalType":"bool"}],"stateMutability":"nonpayable"},{"type":"function","name":"allowance","inputs":[{"name":"","type":"address","internalType":"address"},{"name":"","type":"address","internalType":"address"},{"name":"","type":"uint256","internalType":"uint256"}],"outputs":[{"name":"","type":"uint256","internalType":"uint256"}],"stateMutability":"view"},{"type":"function","name":"approve","inputs":[{"name":"spender","type":"address","internalType":"address"},{"name":"id","type":"uint256","internalType":"uint256"},{"name":"amount","type":"uint256","internalType":"uint256"}],"outputs":[{"name":"","type":"bool","internalType":"bool"}],"stateMutability":"nonpayable"},{"type":"function","name":"balanceOf","inputs":[{"name":"","type":"address","internalType":"address"},{"name":"","type":"uint256","internalType":"uint256"}],"outputs":[{"name":"","type":"uint256","internalType":"uint256"}],"stateMutability":"view"},{"type":"function","name":"buyGood","inputs":[{"name":"_goodid1","type":"address","internalType":"address"},{"name":"_goodid2","type":"address","internalType":"address"},{"name":"_swapQuantity","type":"uint128","internalType":"uint128"},{"name":"_tradetimes","type":"uint128","internalType":"uint128"},{"name":"_recipent","type":"address","internalType":"address"},{"name":"data","type":"bytes","internalType":"bytes"}],"outputs":[{"name":"good1change","type":"uint256","internalType":"uint256"},{"name":"good2change","type":"uint256","internalType":"uint256"}],"stateMutability":"payable"},{"type":"function","name":"buyGoodCheck","inputs":[{"name":"_goodid1","type":"address","internalType":"address"},{"name":"_goodid2","type":"address","internalType":"address"},{"name":"_swapQuantity","type":"uint128","internalType":"uint128"},{"name":"_tradetimes","type":"uint128","internalType":"uint128"}],"outputs":[{"name":"good1change","type":"uint256","internalType":"uint256"},{"name":"good2change","type":"uint256","internalType":"uint256"}],"stateMutability":"view"},{"type":"function","name":"changeGoodOwner","inputs":[{"name":"_goodid","type":"address","internalType":"address"},{"name":"_to","type":"address","internalType":"address"}],"outputs":[],"stateMutability":"nonpayable"},{"type":"function","name":"changeReStakingContrat","inputs":[{"name":"_target","type":"address","internalType":"address"}],"outputs":[],"stateMutability":"nonpayable"},{"type":"function","name":"changemarketcreator","inputs":[{"name":"_newmarketor","type":"address","internalType":"address"}],"outputs":[],"stateMutability":"nonpayable"},{"type":"function","name":"collectCommission","inputs":[{"name":"_goodid","type":"address[]","internalType":"address[]"}],"outputs":[],"stateMutability":"payable"},{"type":"function","name":"collectProof","inputs":[{"name":"_proofid","type":"uint256","internalType":"uint256"},{"name":"_gater","type":"address","internalType":"address"}],"outputs":[{"name":"profit_","type":"uint256","internalType":"uint256"}],"stateMutability":"payable"},{"type":"function","name":"disinvestProof","inputs":[{"name":"_proofid","type":"uint256","internalType":"uint256"},{"name":"_goodQuantity","type":"uint128","internalType":"uint128"},{"name":"_gater","type":"address","internalType":"address"}],"outputs":[{"name":"","type":"uint128","internalType":"uint128"},{"name":"","type":"uint128","internalType":"uint128"}],"stateMutability":"payable"},{"type":"function","name":"flashFee","inputs":[{"name":"token","type":"address","internalType":"address"},{"name":"amount","type":"uint256","internalType":"uint256"}],"outputs":[{"name":"","type":"uint256","internalType":"uint256"}],"stateMutability":"view"},{"type":"function","name":"flashLoan","inputs":[{"name":"receiver","type":"address","internalType":"contract IERC3156FlashBorrower"},{"name":"token","type":"address","internalType":"address"},{"name":"amount","type":"uint256","internalType":"uint256"},{"name":"data","type":"bytes","internalType":"bytes"}],"outputs":[{"name":"","type":"bool","internalType":"bool"}],"stateMutability":"nonpayable"},{"type":"function","name":"getGoodState","inputs":[{"name":"goodkey","type":"address","internalType":"address"}],"outputs":[{"name":"","type":"tuple","internalType":"struct S_GoodTmpState","components":[{"name":"goodConfig","type":"uint256","internalType":"uint256"},{"name":"owner","type":"address","internalType":"address"},{"name":"currentState","type":"uint256","internalType":"uint256"},{"name":"investState","type":"uint256","internalType":"uint256"},{"name":"feeQuantityState","type":"uint256","internalType":"uint256"}]}],"stateMutability":"view"},{"type":"function","name":"getProofState","inputs":[{"name":"proofid","type":"uint256","internalType":"uint256"}],"outputs":[{"name":"","type":"tuple","internalType":"struct S_ProofState","components":[{"name":"currentgood","type":"address","internalType":"address"},{"name":"valuegood","type":"address","internalType":"address"},{"name":"state","type":"uint256","internalType":"uint256"},{"name":"invest","type":"uint256","internalType":"uint256"},{"name":"valueinvest","type":"uint256","internalType":"uint256"}]}],"stateMutability":"view"},{"type":"function","name":"goodWelfare","inputs":[{"name":"goodid","type":"address","internalType":"address"},{"name":"welfare","type":"uint128","internalType":"uint128"},{"name":"data","type":"bytes","internalType":"bytes"}],"outputs":[],"stateMutability":"payable"},{"type":"function","name":"initGood","inputs":[{"name":"_valuegood","type":"address","internalType":"address"},{"name":"_initial","type":"uint256","internalType":"uint256"},{"name":"_erc20address","type":"address","internalType":"address"},{"name":"_goodConfig","type":"uint256","internalType":"uint256"},{"name":"_normaldata","type":"bytes","internalType":"bytes"},{"name":"_valuedata","type":"bytes","internalType":"bytes"}],"outputs":[{"name":"","type":"bool","internalType":"bool"}],"stateMutability":"payable"},{"type":"function","name":"initMetaGood","inputs":[{"name":"_erc20address","type":"address","internalType":"address"},{"name":"_initial","type":"uint256","internalType":"uint256"},{"name":"_goodConfig","type":"uint256","internalType":"uint256"},{"name":"data","type":"bytes","internalType":"bytes"}],"outputs":[{"name":"","type":"bool","internalType":"bool"}],"stateMutability":"payable"},{"type":"function","name":"investGood","inputs":[{"name":"_togood","type":"address","internalType":"address"},{"name":"_valuegood","type":"address","internalType":"address"},{"name":"_quantity","type":"uint128","internalType":"uint128"},{"name":"data1","type":"bytes","internalType":"bytes"},{"name":"data2","type":"bytes","internalType":"bytes"}],"outputs":[{"name":"","type":"bool","internalType":"bool"}],"stateMutability":"payable"},{"type":"function","name":"isOperator","inputs":[{"name":"","type":"address","internalType":"address"},{"name":"","type":"address","internalType":"address"}],"outputs":[{"name":"","type":"bool","internalType":"bool"}],"stateMutability":"view"},{"type":"function","name":"ishigher","inputs":[{"name":"goodid","type":"address","internalType":"address"},{"name":"valuegood","type":"address","internalType":"address"},{"name":"compareprice","type":"uint256","internalType":"uint256"}],"outputs":[{"name":"","type":"bool","internalType":"bool"}],"stateMutability":"view"},{"type":"function","name":"marketconfig","inputs":[],"outputs":[{"name":"","type":"uint256","internalType":"uint256"}],"stateMutability":"view"},{"type":"function","name":"marketcreator","inputs":[],"outputs":[{"name":"","type":"address","internalType":"address"}],"stateMutability":"view"},{"type":"function","name":"maxFlashLoan","inputs":[{"name":"good","type":"address","internalType":"address"}],"outputs":[{"name":"","type":"uint256","internalType":"uint256"}],"stateMutability":"view"},{"type":"function","name":"modifyGoodConfig","inputs":[{"name":"_goodid","type":"address","internalType":"address"},{"name":"_goodConfig","type":"uint256","internalType":"uint256"}],"outputs":[{"name":"","type":"bool","internalType":"bool"}],"stateMutability":"nonpayable"},{"type":"function","name":"multicall","inputs":[{"name":"data","type":"bytes[]","internalType":"bytes[]"}],"outputs":[{"name":"results","type":"bytes[]","internalType":"bytes[]"}],"stateMutability":"payable"},{"type":"function","name":"queryCommission","inputs":[{"name":"_goodid","type":"address[]","internalType":"address[]"},{"name":"_recipent","type":"address","internalType":"address"}],"outputs":[{"name":"","type":"uint256[]","internalType":"uint256[]"}],"stateMutability":"view"},{"type":"function","name":"removeMarketor","inputs":[{"name":"_user","type":"address","internalType":"address"}],"outputs":[],"stateMutability":"nonpayable"},{"type":"function","name":"removeSecurityKeeper","inputs":[],"outputs":[],"stateMutability":"nonpayable"},{"type":"function","name":"removebanlist","inputs":[{"name":"_user","type":"address","internalType":"address"}],"outputs":[{"name":"","type":"bool","internalType":"bool"}],"stateMutability":"nonpayable"},{"type":"function","name":"securityKeeper","inputs":[{"name":"token","type":"address","internalType":"address"}],"outputs":[],"stateMutability":"payable"},{"type":"function","name":"setMarketConfig","inputs":[{"name":"_marketconfig","type":"uint256","internalType":"uint256"}],"outputs":[{"name":"","type":"bool","internalType":"bool"}],"stateMutability":"nonpayable"},{"type":"function","name":"setMarketor","inputs":[{"name":"_newmarketor","type":"address","internalType":"address"}],"outputs":[],"stateMutability":"nonpayable"},{"type":"function","name":"setOperator","inputs":[{"name":"operator","type":"address","internalType":"address"},{"name":"approved","type":"bool","internalType":"bool"}],"outputs":[{"name":"","type":"bool","internalType":"bool"}],"stateMutability":"nonpayable"},{"type":"function","name":"stakeETH","inputs":[{"name":"token","type":"address","internalType":"address"},{"name":"amount","type":"uint128","internalType":"uint128"}],"outputs":[],"stateMutability":"nonpayable"},{"type":"function","name":"supportsInterface","inputs":[{"name":"interfaceId","type":"bytes4","internalType":"bytes4"}],"outputs":[{"name":"","type":"bool","internalType":"bool"}],"stateMutability":"view"},{"type":"function","name":"syncReward","inputs":[{"name":"token","type":"address","internalType":"address"}],"outputs":[],"stateMutability":"nonpayable"},{"type":"function","name":"transfer","inputs":[{"name":"receiver","type":"address","internalType":"address"},{"name":"id","type":"uint256","internalType":"uint256"},{"name":"amount","type":"uint256","internalType":"uint256"}],"outputs":[{"name":"","type":"bool","internalType":"bool"}],"stateMutability":"nonpayable"},{"type":"function","name":"transferFrom","inputs":[{"name":"sender","type":"address","internalType":"address"},{"name":"receiver","type":"address","internalType":"address"},{"name":"id","type":"uint256","internalType":"uint256"},{"name":"amount","type":"uint256","internalType":"uint256"}],"outputs":[{"name":"","type":"bool","internalType":"bool"}],"stateMutability":"nonpayable"},{"type":"function","name":"unstakeETH","inputs":[{"name":"token","type":"address","internalType":"address"},{"name":"amount","type":"uint128","internalType":"uint128"}],"outputs":[],"stateMutability":"nonpayable"},{"type":"function","name":"updateGoodConfig","inputs":[{"name":"_goodid","type":"address","internalType":"address"},{"name":"_goodConfig","type":"uint256","internalType":"uint256"}],"outputs":[{"name":"","type":"bool","internalType":"bool"}],"stateMutability":"nonpayable"},{"type":"function","name":"userConfig","inputs":[{"name":"","type":"address","internalType":"address"}],"outputs":[{"name":"","type":"uint256","internalType":"uint256"}],"stateMutability":"view"},{"type":"event","name":"Approval","inputs":[{"name":"owner","type":"address","indexed":true,"internalType":"address"},{"name":"spender","type":"address","indexed":true,"internalType":"address"},{"name":"id","type":"uint256","indexed":true,"internalType":"uint256"},{"name":"amount","type":"uint256","indexed":false,"internalType":"uint256"}],"anonymous":false},{"type":"event","name":"OperatorSet","inputs":[{"name":"owner","type":"address","indexed":true,"internalType":"address"},{"name":"operator","type":"address","indexed":true,"internalType":"address"},{"name":"approved","type":"bool","indexed":false,"internalType":"bool"}],"anonymous":false},{"type":"event","name":"Transfer","inputs":[{"name":"caller","type":"address","indexed":false,"internalType":"address"},{"name":"from","type":"address","indexed":true,"internalType":"address"},{"name":"to","type":"address","indexed":true,"internalType":"address"},{"name":"id","type":"uint256","indexed":true,"internalType":"uint256"},{"name":"amount","type":"uint256","indexed":false,"internalType":"uint256"}],"anonymous":false},{"type":"event","name":"e_buyGood","inputs":[{"name":"sellgood","type":"address","indexed":true,"internalType":"address"},{"name":"forgood","type":"address","indexed":true,"internalType":"address"},{"name":"swapvalue","type":"uint256","indexed":false,"internalType":"uint256"},{"name":"good1change","type":"uint256","indexed":false,"internalType":"uint256"},{"name":"good2change","type":"uint256","indexed":false,"internalType":"uint256"}],"anonymous":false},{"type":"event","name":"e_changegoodowner","inputs":[{"name":"goodid","type":"address","indexed":false,"internalType":"address"},{"name":"to","type":"address","indexed":false,"internalType":"address"}],"anonymous":false},{"type":"event","name":"e_changemarketcreator","inputs":[{"name":"_newmarketor","type":"address","indexed":false,"internalType":"address"}],"anonymous":false},{"type":"event","name":"e_collectProof","inputs":[{"name":"_proofNo","type":"uint256","indexed":true,"internalType":"uint256"},{"name":"_normalGoodNo","type":"address","indexed":false,"internalType":"address"},{"name":"_valueGoodNo","type":"address","indexed":false,"internalType":"address"},{"name":"_profit","type":"uint256","indexed":false,"internalType":"uint256"}],"anonymous":false},{"type":"event","name":"e_collectProtocolFee","inputs":[{"name":"goodid","type":"address","indexed":false,"internalType":"address"},{"name":"feeamount","type":"uint256","indexed":false,"internalType":"uint256"}],"anonymous":false},{"type":"event","name":"e_collectcommission","inputs":[{"name":"_gooid","type":"address[]","indexed":false,"internalType":"address[]"},{"name":"_commisionamount","type":"uint256[]","indexed":false,"internalType":"uint256[]"}],"anonymous":false},{"type":"event","name":"e_disinvestProof","inputs":[{"name":"_proofNo","type":"uint256","indexed":true,"internalType":"uint256"},{"name":"_normalGoodNo","type":"address","indexed":false,"internalType":"address"},{"name":"_valueGoodNo","type":"address","indexed":false,"internalType":"address"},{"name":"_value","type":"uint256","indexed":false,"internalType":"uint256"},{"name":"_normalgood","type":"uint256","indexed":false,"internalType":"uint256"},{"name":"_valuegood","type":"uint256","indexed":false,"internalType":"uint256"},{"name":"_profit","type":"uint256","indexed":false,"internalType":"uint256"}],"anonymous":false},{"type":"event","name":"e_enpower","inputs":[{"name":"_goodid","type":"uint256","indexed":false,"internalType":"uint256"},{"name":"_valuegood","type":"uint256","indexed":false,"internalType":"uint256"},{"name":"_quantity","type":"uint256","indexed":false,"internalType":"uint256"}],"anonymous":false},{"type":"event","name":"e_goodWelfare","inputs":[{"name":"goodid","type":"address","indexed":false,"internalType":"address"},{"name":"welfare","type":"uint128","indexed":false,"internalType":"uint128"}],"anonymous":false},{"type":"event","name":"e_initGood","inputs":[{"name":"_proofNo","type":"uint256","indexed":false,"internalType":"uint256"},{"name":"_goodid","type":"address","indexed":false,"internalType":"address"},{"name":"_valuegoodNo","type":"address","indexed":false,"internalType":"address"},{"name":"_goodConfig","type":"uint256","indexed":false,"internalType":"uint256"},{"name":"_construct","type":"uint256","indexed":false,"internalType":"uint256"},{"name":"_normalinitial","type":"uint256","indexed":false,"internalType":"uint256"},{"name":"_value","type":"uint256","indexed":false,"internalType":"uint256"}],"anonymous":false},{"type":"event","name":"e_initMetaGood","inputs":[{"name":"_proofNo","type":"uint256","indexed":false,"internalType":"uint256"},{"name":"_goodid","type":"address","indexed":false,"internalType":"address"},{"name":"_construct","type":"uint256","indexed":false,"internalType":"uint256"},{"name":"_goodConfig","type":"uint256","indexed":false,"internalType":"uint256"},{"name":"_initial","type":"uint256","indexed":false,"internalType":"uint256"}],"anonymous":false},{"type":"event","name":"e_investGood","inputs":[{"name":"_proofNo","type":"uint256","indexed":true,"internalType":"uint256"},{"name":"_normalgoodid","type":"address","indexed":false,"internalType":"address"},{"name":"_valueGoodNo","type":"address","indexed":false,"internalType":"address"},{"name":"_value","type":"uint256","indexed":false,"internalType":"uint256"},{"name":"_invest","type":"uint256","indexed":false,"internalType":"uint256"},{"name":"_valueinvest","type":"uint256","indexed":false,"internalType":"uint256"}],"anonymous":false},{"type":"event","name":"e_modifiedUserConfig","inputs":[{"name":"_user","type":"address","indexed":false,"internalType":"address"},{"name":"config","type":"uint256","indexed":false,"internalType":"uint256"}],"anonymous":false},{"type":"event","name":"e_modifyGoodConfig","inputs":[{"name":"_goodid","type":"address","indexed":false,"internalType":"address"},{"name":"_goodconfig","type":"uint256","indexed":false,"internalType":"uint256"}],"anonymous":false},{"type":"event","name":"e_setMarketConfig","inputs":[{"name":"_marketconfig","type":"uint256","indexed":false,"internalType":"uint256"}],"anonymous":false},{"type":"event","name":"e_transferdel","inputs":[{"name":"delproofid","type":"uint256","indexed":false,"internalType":"uint256"},{"name":"existsproofid","type":"uint256","indexed":false,"internalType":"uint256"}],"anonymous":false},{"type":"event","name":"e_updateGoodConfig","inputs":[{"name":"_goodid","type":"address","indexed":false,"internalType":"address"},{"name":"_goodConfig","type":"uint256","indexed":false,"internalType":"uint256"}],"anonymous":false},{"type":"error","name":"ERC20PermitFailed","inputs":[]},{"type":"error","name":"ERC20TransferFailed","inputs":[]},{"type":"error","name":"ERC3156ExceededMaxLoan","inputs":[{"name":"maxLoan","type":"uint256","internalType":"uint256"}]},{"type":"error","name":"ERC3156InvalidReceiver","inputs":[{"name":"receiver","type":"address","internalType":"address"}]},{"type":"error","name":"ERC3156UnsupportedToken","inputs":[{"name":"token","type":"address","internalType":"address"}]},{"type":"error","name":"NativeETHTransferFailed","inputs":[]},{"type":"error","name":"TTSwapError","inputs":[{"name":"seq","type":"uint256","internalType":"uint256"}]},{"type":"error","name":"noEnoughOutputError","inputs":[]}],"bytecode":{"object":"0x60a0346100cf57601f61607638819003918201601f19168301916001600160401b038311848410176100d3578084926080946040528339810103126100cf5780519061004d602082016100e7565b91610066606061005f604085016100e7565b93016100e7565b608093909352600755600880546001600160a01b039283166001600160a01b03199182161790915560098054929093169116179055604051615f7a90816100fc823960805181818161138101528181611ef701528181612f54015281816134bd01526137e90152f35b5f80fd5b634e487b7160e01b5f52604160045260245ffd5b51906001600160a01b03821682036100cf5756fe6080604052600436101561001a575b3615610018575f80fd5b005b5f3560e01c8062fdd58e146102c857806301ffc9a7146102c357806306cf4e7f146102be57806308238466146102b9578063095bcdb6146102b45780630d2700ab146102af578063102e5c27146102aa578063119ac094146102a55780631412723a146102a05780633bd164361461029b5780633c9fe544146102965780633d995173146102915780633f1177401461028c578063402f5ab51461028757806341e1237314610282578063426a84931461027d57806345818e4c1461027857806351ff9a1614610273578063558a72971461026e578063598af9e7146102695780635cffe9de146102645780635f35b0b31461025f5780635f755d651461025a578063613255ab1461025557806373db17921461025057806381a860d11461024b5780638c706eb5146102465780639551177a146102415780639b2227941461023c578063a06ad0e814610237578063a3b74a4914610232578063a676a6001461022d578063ac9650d814610228578063b153b92014610223578063b1efb9211461021e578063b6363cf214610219578063c9544f1814610214578063cc00da2d1461020f578063d9d98ce41461020a578063f151e78614610205578063f4662f2014610200578063f878e809146101fb5763fe99049a0361000e57612982565b61253a565b6124c2565b61241f565b6123d3565b612361565b61232d565b6122e5565b612271565b6121fd565b612196565b611ddb565b611d3c565b611cc2565b611bf6565b611b2e565b611a9c565b61196d565b6117f4565b61179e565b611723565b6116e8565b611533565b6114e3565b611447565b611229565b6111c7565b611146565b6110aa565b611065565b610fa7565b610f7f565b610ea9565b610b8b565b610adb565b610a5e565b6109d4565b610825565b610650565b610543565b6103d8565b610344565b6102fb565b6001600160a01b038116036102de57565b5f80fd5b6001600160a01b03165f90815260036020526040902090565b346102de5760403660031901126102de57600435610318816102cd565b6024359060018060a01b03165f52600160205260405f20905f52602052602060405f2054604051908152f35b346102de5760203660031901126102de5760043563ffffffff60e01b81168091036102de576020906301ffc9a760e01b8114908115610389575b506040519015158152f35b630f632fb360e01b1490505f61037e565b6001600160801b038116036102de57565b9181601f840112156102de578235916001600160401b0383116102de57602083818601950101116102de57565b60603660031901126102de576004356103f0816102cd565b6024356103fc8161039a565b6044356001600160401b0381116102de5761041b9036906004016103ab565b92905f516020615f055f395f51905f525c6001600160a01b031661052f57335f516020615f055f395f51905f525d610451613ba2565b6001600160a01b0382165f908152600360205260409020600401546001606d1b906001600160801b039061048e90869060801c612b37565b612b37565b16101561051b577f0dc5e2150c5754dc0bcd8d76ca2d23850fc9a2a3115c69bb4fbdbedc25074a00936104cc916001600160801b0385163385613c85565b6104ec60046104da836102e2565b01546104e68460801b90565b906141e7565b60046104f7836102e2565b015561050860405192839283612b50565b0390a1610513613bff565b610018613b7f565b63d1b5191160e01b5f52600c60045260245ffd5b63d1b5191160e01b5f52600360045260245ffd5b346102de5760203660031901126102de57610629600435610563816102cd565b61056b612b73565b506001600160a01b038181165f90815260036020526040902080546001909101549092911690600261059c826102e2565b01546105d760046105b960036105b1866102e2565b0154946102e2565b0154936105c4610759565b9586526001600160a01b03166020860152565b6040840152606083015260808201526040519182918291909160808060a08301948051845260018060a01b03602082015116602085015260408101516040850152606081015160608501520151910152565b0390f35b60609060031901126102de57600435610645816102cd565b906024359060443590565b346102de5761065e3661062d565b9091335f52600160205260405f20835f5260205260405f208054908382039182116106e4575560018060a01b031690815f5260016020526106aa8360405f20905f5260205260405f2090565b6106b5828254612bb8565b90555f516020615ee55f395f51905f52604051806106d533943383612bc5565b0390a460405160018152602090f35b612b23565b634e487b7160e01b5f52604160045260245ffd5b60a081019081106001600160401b0382111761071857604052565b6106e9565b604081019081106001600160401b0382111761071857604052565b90601f801991011681019081106001600160401b0382111761071857604052565b6040519061076860a083610738565b565b6040519061076861010083610738565b60405190610768606083610738565b60405190610768604083610738565b60405190610768608083610738565b6001600160401b0381116107185760051b60200190565b9080601f830112156102de5781356107d5816107a7565b926107e36040519485610738565b81845260208085019260051b8201019283116102de57602001905b82821061080b5750505090565b60208091833561081a816102cd565b8152019101906107fe565b60203660031901126102de576004356001600160401b0381116102de576108509036906004016107be565b5f516020615f055f395f51905f525c6001600160a01b03166109c057335f516020615f055f395f51905f525d610884613ba2565b60648151116109ac576108978151612be0565b5f5b825181101561097a576001906108e33360056108cd6108c86108bb868a612c26565b516001600160a01b031690565b6102e2565b019060018060a01b03165f5260205260405f2090565b546108ee8285612c26565b5260026108fb8285612c26565b511015610915575f61090d8285612c26565b525b01610899565b6109286109228285612c26565b51612b9d565b6109328285612c26565b5261095261094c3360056108cd6108c86108bb878b612c26565b60019055565b6109756109626108bb8387612c26565b61096c8386612c26565b51903390614210565b61090f565b507f477bb716eacccc001de50dcdd6e25241283d080e6afb27443908b20f4e738b5e9161050860405192839283612c3f565b63d1b5191160e01b5f52600b60045260245ffd5b63d1b5191160e01b5f52600360045260245ffd5b346102de5760203660031901126102de576004356109f1816102cd565b6008546001600160a01b03163303610a4a576001600160a01b0381165f908152600560205260409081902080546002179081905590515f516020615ea55f395f51905f529290918291610a45919083612bc5565b0390a1005b63d1b5191160e01b5f52600160045260245ffd5b346102de5760203660031901126102de57600435610a7b816102cd565b6008546001600160a01b03163303610a4a57600a80546001600160a01b0319166001600160a01b0392909216919091179055005b60609060031901126102de57600435610ac7816102cd565b90602435610ad4816102cd565b9060443590565b346102de57610b64610aec36610aaf565b6001600160a01b039283165f908152600360205260408082206002908101549590941682529020909101549291610b5a90610b47610b376001600160801b038716608084901c613758565b6001600160801b03851690613758565b9460801c906001600160801b0316613758565b9060801c90613758565b1015610b825761062960015b60405190151581529081906020820190565b6106295f610b70565b346102de5760803660031901126102de57600435610ba8816102cd565b60243590610bb5826102cd565b60443591610bc28361039a565b60643592610bcf8461039a565b6002610bda846102e2565b0154158015610e95575b8015610e84575b8015610e6f575b8015610e5c575b610e485760646001600160801b0385161015610d6057610c256002610c1d856102e2565b0154936102e2565b5491610c89610c406002610c38846102e2565b0154926102e2565b5495610c4a61076a565b6001600160801b03851681529260208401955f875260408501975f89525f6060870152608086015260a085015260c084015260e083019687528261455a565b8051610caa906001600160801b031685516001600160801b03165b90612b37565b6001600160801b0383811691161015610d4c57610d18610d08610d3292610cf8610cf895610cf2610ce4610d399a5160018060801b031690565b93516001600160801b031690565b90612ce9565b60018060801b03169060801b1790565b955193516001600160801b031690565b926001600160801b038416607f6127109260cc1c16020490565b8092612ce9565b905b604080519182526020820192909252f35b63d1b5191160e01b5f52602260045260245ffd5b610df1610de5610d7c6002610d74876102e2565b0154956102e2565b5493610dd8610d8f6002610c38846102e2565b5497610d9961076a565b6001600160801b03871681529260208401975f895260408501995f8b525f6060870152608086015260a085015260c084015260e08301988952826142bf565b516001600160801b031690565b6001600160801b031690565b610e3457610e27610d18610d08610cf893610e15610e2e975160018060801b031690565b60801b6001600160801b039091161790565b8092612b37565b90610d3b565b63d1b5191160e01b5f52602160045260245ffd5b63d1b5191160e01b5f52602360045260245ffd5b5060c86001600160801b03851611610bf9565b506001600160a01b0383811690831614610bf2565b506001600160801b03811615610beb565b506002610ea1836102e2565b015415610be4565b60203660031901126102de57600435610ec1816102cd565b610ec9613ba2565b6009546001600160a01b031633036102de57610f6d9060018060a01b0381165f526003602052610f4c610f1c610de5610f09600460405f20015460801c90565b6004610f14866102e2565b015490612ce9565b5f6004610f28856102e2565b0155610f466002610f38856102e2565b01546001600160801b031690565b90612bb8565b905f6002610f59836102e2565b01556009546001600160a01b031690614210565b610018613bff565b5f9103126102de57565b346102de575f3660031901126102de576008546040516001600160a01b039091168152602090f35b346102de5760203660031901126102de57600435610fc3612b73565b505f52600460205261062960405f20600460405191610fe1836106fd565b60018060a01b03815416835260018060a01b0360018201541660208401526002810154604084015260038101546060840152015460808201526040519182918291909160808060a083019460018060a01b03815116845260018060a01b03602082015116602085015260408101516040850152606081015160608501520151910152565b346102de575f3660031901126102de576020600754604051908152f35b60409060031901126102de5760043561109a816102cd565b906024356110a7816102cd565b90565b346102de576110b836611082565b335f526005602052600260405f20541615611132577f42e3c955499470d3dc1078d90519d90691c504c8856ea058daf2c1436c2dab4c9160018060a01b0381165f52600360205261110f82600160405f2001612c99565b604080516001600160a01b03928316815292909116602083015281908101610a45565b63d1b5191160e01b5f52600260045260245ffd5b346102de576111543661062d565b9091335f52600260205261117b8160405f209060018060a01b03165f5260205260405f2090565b835f526020528160405f205560405191825260018060a01b0316907fb3fd5071835887567a0671151121894ddccc2842f1d10bedad13e0d17cace9a760203392a4602060405160018152f35b346102de5760203660031901126102de57600854600435906001600160a01b03163303610a4a576020817fbd209961024f2694b0afb3c8badd20b6477abb77b336b16892c3fa4b906d323c92600755604051908152a160405160018152602090f35b60803660031901126102de57600435611241816102cd565b604435906024356064356001600160401b0381116102de576112679036906004016103ab565b600854919290916001600160a01b03163303610a4a57611285613ba2565b600160ff1b851615611296565b1590565b8015611410575b6113fd577f8f2eb922ee1b2f92e0051f7949a8c191264807725a1e435e91abebd28583830a946001600160801b038216936113e6936112de91863389613c85565b6112f181836112ec886102e2565b614819565b6113026112fd866102e2565b61483e565b6113a561132d61131061077a565b3381526001600160a01b03881660208201525f6040820152614875565b9461137e611343875f52600460205260405f2090565b9161135e818760801c948b6113588760801b90565b916148bb565b6113786001600160a01b038a165b6001600160a01b031690565b33614971565b337f00000000000000000000000000000000000000000000000000000000000000006149c8565b604080519586526001600160a01b0390961660208601526001600160801b0316948401949094526060830193909352608082019290925290819060a0820190565b0390a16113f1613bff565b60405160018152602090f35b63d1b5191160e01b5f526004805260245ffd5b506001600160a01b036114356001611427876102e2565b01546001600160a01b031690565b16151561129d565b801515036102de57565b346102de5760403660031901126102de57600435611464816102cd565b602435906114718261143d565b335f908152602081815260408083206001600160a01b038516845290915290209115159160ff1981541660ff841617905560405191825260018060a01b0316907fceb576d9f15e4e200fdb5096d64d5dfd667e16def20c1eefd14256d8e3faa26760203392a360405160018152602090f35b346102de5761151e6114f436610aaf565b929160018060a01b03165f52600260205260405f209060018060a01b03165f5260205260405f2090565b905f52602052602060405f2054604051908152f35b346102de5760803660031901126102de57600435611550816102cd565b6024359061155d826102cd565b604435916064356001600160401b0381116102de576115809036906004016103ab565b61158c83959295614a24565b6116d4576115a361159d3085614bb7565b60011c90565b8083116116c257506020611605916115cf846115be876102e2565b5490603f6127109260df1c16020490565b6001600160a01b03909616966115e6858988614210565b6040516323e30c8b60e01b8152938492839289888a3360048801612d11565b03815f895af180156116bd577f439148f0bbc682ca079e46d6e2c2f0c1e3b820f1a291b069d8882abf8cf18dd9915f9161168e575b500361167357906108c86113f19461165b610de5610de58761166497612bb8565b90309084614a44565b6004019081549060801b019055565b62678c5b60e81b5f526001600160a01b03841660045260245ffd5b6116b0915060203d6020116116b6575b6116a88183610738565b810190612d02565b5f61163a565b503d61169e565b612d61565b63fd9a760960e01b5f5260045260245ffd5b63d1b5191160e01b5f52601d60045260245ffd5b346102de5760203660031901126102de57600435611705816102cd565b60018060a01b03165f526005602052602060405f2054604051908152f35b60c03660031901126102de5760043561173b816102cd565b6044359060243561174b836102cd565b606435916084356001600160401b0381116102de5761176e9036906004016103ab565b9060a435946001600160401b0386116102de5761062996611796610b709736906004016103ab565b969095612d6c565b346102de5760203660031901126102de5760206117c76004356117c0816102cd565b3090614bb7565b604051908152f35b60409060031901126102de576004356117e7816102cd565b906024356110a78161039a565b346102de57611802366117cf565b906118116001611427836102e2565b6001600160a01b0316331480159061195b575b6119475761183181614a24565b156118c35760065461185590611850906001600160801b0385166104e6565b600655565b600a5461186a906001600160a01b031661136c565b91823b156102de57805f9261189594604051809681958294638efa048760e01b845260048401612b50565b03926001600160801b0316905af180156116bd576118af57005b806118bd5f61001893610738565b80610f75565b6118d66118506006546104e68560801b90565b600a546118f79083906118f1906001600160a01b031661136c565b83614caa565b600a5461190c906001600160a01b031661136c565b91823b156102de57611937925f9283604051809681958294638efa048760e01b845260048401612b50565b03925af180156116bd576118af57005b63d1b5191160e01b5f52602460048190525ffd5b5061196861129282614c7e565b611824565b346102de5761197b366117cf565b6119896001611427846102e2565b6001600160a01b03163314801590611a8a575b61194757600a546119b5906001600160a01b031661136c565b9060206040518093630620458b60e11b8252815f816119d8878a60048401612b50565b03925af19182156116bd57600492611a3c92611a36925f92611a59575b506119ff86614a24565b15611a4057600654611a209161185091906001600160801b03165b90614d80565b611a1a84611a2d876102e2565b01549160801b90565b926102e2565b0155005b611850611a5491611a1a6006549160801b90565b611a20565b611a7c91925060203d602011611a83575b611a748183610738565b8101906130e8565b905f6119f5565b503d611a6a565b50611a9761129283614c7e565b61199c565b346102de5760203660031901126102de57600435611ab9816102cd565b600a54604051638c706eb560e01b81526001600160a01b0383811660048301529091602091839160249183915f91165af180156116bd57611a36611a3c916004935f91611b0f575b50611a1a84611a2d876102e2565b611b28915060203d602011611a8357611a748183610738565b5f611b01565b346102de5760203660031901126102de57600435611b4b816102cd565b335f526005602052600260405f20541615611132576001600160a01b0381165f90815260056020526040908190208054600119169081905590515f516020615ea55f395f51905f529290918291611ba3919083612bc5565b0390a160405160018152602090f35b90602080835192838152019201905f5b818110611bcf5750505090565b8251845260209384019390920191600101611bc2565b9060206110a7928181520190611bb2565b346102de5760403660031901126102de576004356001600160401b0381116102de57611c269036906004016107be565b60243590611c33826102cd565b606481511015611cae57611c478151612be0565b915f5b8251811015611ca0576001906001600160a01b03611c688286612c26565b51165f9081526003602090815260408083206001600160a01b0387168452600501909152902054611c998287612c26565b5201611c4a565b604051806106298682611be5565b63d1b5191160e01b5f52600b60045260245ffd5b346102de5760203660031901126102de57600435611cdf816102cd565b60085490336001600160a01b03831603610a4a576001600160a01b03166001600160a01b03199190911681176008556040519081527fa8d3850ce581f2add46670c1408b76ca1d0d4ef627eed4a89802ff670940082d90602090a1005b346102de5760403660031901126102de57600435611d59816102cd565b6024356001600160a01b038281165f81815260036020526040902060010154909391163303611dc7577f075a13b9dbfb2e30d678551b8c2a4f9ede7468ca5273fa902a41d0e577566669925f526003602052611db88260405f20614da9565b611ba360405192839283612bc5565b63d1b5191160e01b5f52600a60045260245ffd5b60403660031901126102de57600435602435611df6816102cd565b5f516020615f055f395f51905f525c6001600160a01b031661052f57335f516020615f055f395f51905f525d611e2a613ba2565b81611e9e611e50611e43835f52600460205260405f2090565b546001600160a01b031690565b611e99611e6a6001611427865f52600460205260405f2090565b611e89611e7561077a565b338152936001600160a01b03166020850152565b6001600160a01b03166040830152565b614875565b036120ff57611eba6001611427845f52600460205260405f2090565b91611ed0611e43825f52600460205260405f2090565b6040805163b88e6d6360e01b81523360048201529491939190856024816001600160a01b037f0000000000000000000000000000000000000000000000000000000000000000165afa9182156116bd576020957f1129f35303e34d7efabdbd85614ed662beb4fc6942852b7a3e5a4f92074cbf3193611fec925f925f926120cb575b506001600160a01b0381165f908152600560205260409020611f78905b54600116151590565b156120c5575081905b6001600160a01b03828116908216036120c05750815b6001600160a01b0381165f908152600560205260409020611fb790611f6f565b156120b9575b611fc6886102e2565b91611fd0866102e2565b611fe2895f52600460205260405f2090565b9060075494614dc9565b93611ffc3360056108cd846102e2565b5460028111612093575b506001600160a01b038216612049575b604080516001600160a01b0392831681529290911660208301528101849052606090a2612041613bff565b6117c7613b7f565b6120583360056108cd856102e2565b5460028111612068575b50612016565b61208661208d9161208161094c3360056108cd896102e2565b612b9d565b3384614210565b5f612062565b6120ac6120b39161208161094c3360056108cd886102e2565b3383614210565b5f612006565b5081611fbd565b611f97565b90611f81565b9092506120f0915060403d6040116120f8575b6120e88183610738565b8101906130fd565b90915f611f52565b503d6120de565b63d1b5191160e01b5f52600960045260245ffd5b805180835260209291819084018484015e5f828201840152601f01601f1916010190565b602081016020825282518091526040820191602060408360051b8301019401925f915b83831061216957505050505090565b9091929394602080612187600193603f198682030187528951612113565b9701930193019193929061215a565b60203660031901126102de576004356001600160401b0381116102de57366023820112156102de578060040135906001600160401b0382116102de573660248360051b830101116102de576106299160246121f19201613122565b60405191829182612137565b346102de5760203660031901126102de5760043561221a816102cd565b335f526005602052600260405f20541615611132576001600160a01b0381165f908152600560205260409081902080546001179081905590515f516020615ea55f395f51905f529290918291611ba3919083612bc5565b346102de5760403660031901126102de5760043561228e816102cd565b602435335f526005602052600260405f20541615611132577fe40cf68f61d9a4e510244481f5aa34ba68de31cf3f9aa360604d688115d640c89160018060a01b0381165f526003602052611db88260405f2061485b565b346102de57602060ff6123216122fa36611082565b6001600160a01b039182165f90815280865260408082209290931681526020919091522090565b54166040519015158152f35b346102de575f3660031901126102de576008546001600160a01b03163303610a4a57600980546001600160a01b0319169055005b346102de5760203660031901126102de5760043561237e816102cd565b6008546001600160a01b03163303610a4a576001600160a01b0381165f90815260056020526040908190208054600219169081905590515f516020615ea55f395f51905f529290918291610a45919083612bc5565b346102de5760403660031901126102de5760206117c76004356123f5816102cd565b6001600160a01b03165f90815260038352604090205461271060df9190911c603f16602435020490565b60c03660031901126102de57600435612437816102cd565b602435612443816102cd565b604435906124508261039a565b60643561245c8161039a565b60843590612469826102cd565b60a4356001600160401b0381116102de576124889036906004016103ab565b9490935f516020615f055f395f51905f525c6001600160a01b03166109c0576124b9966124b433613b91565b613272565b90610d3b613b7f565b60603660031901126102de576024356004356124dd8261039a565b6044356124e9816102cd565b5f516020615f055f395f51905f525c6001600160a01b031661052f5760409261251a9261251533613b91565b61376b565b612522613b7f565b82516001600160801b03928316815291166020820152f35b60a03660031901126102de57600435612552816102cd565b60243561255e816102cd565b6044359061256b8261039a565b6064356001600160401b0381116102de5761258a9036906004016103ab565b6084949194356001600160401b0381116102de576125ac9036906004016103ab565b90915f516020615f055f395f51905f525c6001600160a01b031661052f57335f516020615f055f395f51905f525d6125e2613ba2565b6125ea613045565b966125f3613045565b966001606d1b6001600160801b036126178360026126108b6102e2565b0154612b37565b161080159061296d575b8015612935575b6129215761266b92816126478b612659946126428b6102e2565b614a85565b6001600160801b031692833389613c85565b6113786001600160a01b03861661136c565b6001600160a01b03841615918590831561283d575b50505061268b61077a565b3381526001600160a01b03831660208201526001600160a01b03841660408201526126b590614875565b946126c8865f52600460205260405f2090565b6040820180519196909390916001600160801b0316906126e88260801b90565b60208501519091906001600160801b0316606086018051909a9189916001600160801b03166001600160801b031660809190911b1760208701516001600160801b03166060880180519096918d916001600160801b03166001600160801b031660809190911b179361275995614904565b5f146127b56127d17fee89c9fd704272905456294f1b2b88581ebe0241f72c15b4f3db31d19388f6af9a610cf86127b56127c36128169b6127df99610cf89861282957508051610e15906127b5906001600160801b031661137e565b91516001600160801b031690565b99516001600160801b031690565b94516001600160801b031690565b604080516001600160a01b0396871681529690951660208701529385019190915260608401526080830191909152819060a0820190565b0390a2612821613bff565b6113f1613b7f565b6127b5612838610e15926130c8565b61137e565b6128d76129199361286860026128528a6102e2565b015460408c01516001600160801b0316906154d2565b6001600160801b031660608501908152926128bc6128af6128888b6102e2565b54865161289d906001600160801b0316610de5565b603f6127109260d91c16820390040290565b6001600160801b03168552565b83516128d0906001600160801b0316610de5565b338a613c85565b6129076128ec6001600160a01b03881661136c565b8251612900906001600160801b0316610de5565b9033614971565b6129136127b5876102e2565b90614a85565b5f8481612680565b63d1b5191160e01b5f52600760045260245ffd5b5061294e612942876102e2565b54600160ff1b16151590565b801561295b575b15612628565b50612968612942886102e2565b612955565b506001600160a01b0386811690881614612621565b346102de5760803660031901126102de5760043561299f816102cd565b6024356129ab816102cd565b604435915f516020615ee55f395f51905f526106d5606435936001600160a01b03841693612a0d908790612a00903388141580612af3575b612a63576001600160a01b03165f90815260016020526040902090565b905f5260205260405f2090565b612a18868254612bab565b90556001600160a01b0381165f908152600160205260409020612a3c908790612a00565b612a47868254612bb8565b90556040516001600160a01b0390911694909182913383612bc5565b612a9a83612a0033612a858560018060a01b03165f52600260205260405f2090565b9060018060a01b03165f5260205260405f2090565b548960018201612ac0575b50506001600160a01b03165f90815260016020526040902090565b612ac991612bab565b612aeb84612a0033612a858660018060a01b03165f52600260205260405f2090565b555f89612aa5565b50612b1e611292612b1733612a858560018060a01b03165f525f60205260405f2090565b5460ff1690565b6129e3565b634e487b7160e01b5f52601160045260245ffd5b6001600160801b0391821690821601919082116106e457565b6001600160a01b0390911681526001600160801b03909116602082015260400190565b60405190612b80826106fd565b5f6080838281528260208201528260408201528260608201520152565b5f198101919082116106e457565b919082039182116106e457565b919082018092116106e457565b6001600160a01b039091168152602081019190915260400190565b90612bea826107a7565b612bf76040519182610738565b8281528092612c08601f19916107a7565b0190602036910137565b634e487b7160e01b5f52603260045260245ffd5b8051821015612c3a5760209160051b010190565b612c12565b9291604084019360408152825180955260206060820193015f955b808710612c765750506110a79394506020818403910152611bb2565b81516001600160a01b031685526001969096019560209485019490910190612c5a565b80546001600160a01b0319166001600160a01b03909216919091179055565b6001600160801b0390811660631901919082116106e457565b6001600160801b039081165f1901919082116106e457565b6001600160801b0391821690821603919082116106e457565b908160209103126102de575190565b6001600160a01b039182168152911660208201526040810191909152606081019190915260a060808201819052810183905260c09290918190848401375f828201840152601f01601f1916010190565b6040513d5f823e3d90fd5b96919592939092905f516020615f055f395f51905f525c6001600160a01b031661052f57335f516020615f055f395f51905f525d612da8613ba2565b6001600160a01b03612dbe60016114278a6102e2565b1615801590613030575b61301c57608084901c95612dde9187338a613c85565b6001600160801b03831691612df59183338a613c85565b612dfd613045565b9182612e08886102e2565b91612e1292614a85565b612e1b856102e2565b60408301805190929190859087906001600160801b031660801b6001600160801b0390911617612e4a92614819565b612e5261077a565b3381526001600160a01b03871660208201526001600160a01b0388166040820152612e7c90614875565b82519095906001600160801b031660801b60208501519092906001600160801b0316606086018051909491906001600160801b03166001600160801b031660809190911b17612ec9610759565b6001600160a01b038b168152916001600160a01b038c16602084015260408301528360608301526080820152612f07885f52600460205260405f2090565b90612f1191613079565b612f25826001600160a01b038a1633614971565b612f39906001600160a01b038a1633614971565b82516001600160801b0316612f4d906130c8565b612f7890337f00000000000000000000000000000000000000000000000000000000000000006149c8565b925193519151604080519788526001600160a01b039889166020890152989097169786019790975260608501939093526001600160801b0390811660808581019190915295861b9181169190911760a08401526001600160801b03199190941b16919092161760c08201527f3fc0293a5a7bc73de220f0814bbbebc31e77ffcd41bf5e8be187471747bd7caa9060e090a1613011613bff565b600190610768613b7f565b63d1b5191160e01b5f52600560045260245ffd5b506130406112926129428a6102e2565b612dc8565b60405190608082018281106001600160401b03821117610718576040525f6060838281528260208201528260408201520152565b90608060049161309260018060a01b0382511685612c99565b60208101516130ad906001600160a01b031660018601612c99565b60408101516002850155606081015160038501550151910155565b60011b6002600160801b03811691906002600160811b031682036106e457565b908160209103126102de57516110a78161039a565b91908260409103126102de5760208251613116816102cd565b9201516110a7816102cd565b61312a613ba2565b613133826107a7565b916131416040519384610738565b808352601f19613150826107a7565b015f5b8181106131c95750505f5b8181106131715750505090610768613bff565b5f8061317e8385876131da565b9061318e6040518093819361321b565b0390305af461319b613243565b90156131c157906001916131af8287612c26565b526131ba8186612c26565b500161315e565b602081519101fd5b806060602080938801015201613153565b9190811015612c3a5760051b81013590601e19813603018212156102de5701908135916001600160401b0383116102de5760200182360381136102de579190565b908092918237015f815290565b6001600160401b03811161071857601f01601f191660200190565b3d1561326d573d9061325482613228565b916132626040519384610738565b82523d5f602084013e565b606090565b939695919496613280613ba2565b600261328b866102e2565b015415801561372b575b801561371a575b8015613705575b80156136f2575b610e485760646001600160801b038516101561353c576001600160a01b0381166134bb575b5060026132db856102e2565b01546132e6856102e2565b549060026132f3846102e2565b0154906132ff846102e2565b549561330961076a565b6001600160801b038a16815260208101995f8b5261335060408301935f855260608401975f89526080850196875260a085015260c0840196875260e084019a8b528361455a565b815161336f906001600160801b031684516001600160801b0316610ca4565b6001600160801b0382811691161015610d4c5782516001600160801b031691516001600160801b03166133a191612ce9565b6001600160801b031660809190911b1796519851969889976001600160801b0316906001600160801b03821661271060cc9290921c607f16020490816133e691612ce9565b6001600160801b031660809190911b179a8b9661340e916001600160801b038a16338c613c85565b6134226001600160801b0387163387614210565b61342b886102e2565b915190516001600160801b03169061344292614eb4565b61344b836102e2565b90518460801c9061345b92614eb4565b51604080516001600160801b0390921682526020820194909452928301919091526001600160a01b039081169216907f770ac49eb4a65be664dd014b1b315647b776f18742f5b7e141e8cb18cec6cea890606090a35b9190610768613bff565b7f00000000000000000000000000000000000000000000000000000000000000006001600160a01b0316803b156102de576040516376549e6760e11b81523360048201526001600160a01b039290921660248301525f908290604490829084905af180156116bd57156132cf57806118bd5f61353693610738565b5f6132cf565b9196925f9593600261354d876102e2565b0154613558876102e2565b54926002613565866102e2565b015492613571866102e2565b54976135c7610de561358161076a565b6001600160801b0384168152602081019d8e52610dd860408201965f8852606083019a5f8c5260808401998a5260a084015260c08301998a5260e083019d8e52826142bf565b610e345782516001600160801b031660801b6001600160801b03909116179751995197998a986001600160801b0316906001600160801b03821661271060cc9290921c607f160204908161361a91612b37565b6001600160801b031660809190911b179b8c97613642906001600160801b038b16908c614210565b613657916001600160801b0389163389613c85565b613660886102e2565b915190516001600160801b03169061367792614eb4565b613680836102e2565b90518460801c9061369092614eb4565b516136a3906001600160801b031661373f565b604080519182526020820194909452928301919091526001600160a01b039081169216907f770ac49eb4a65be664dd014b1b315647b776f18742f5b7e141e8cb18cec6cea890606090a36134b1565b5060c76001600160801b038516116132aa565b506001600160a01b03858116908316146132a3565b506001600160801b0386161561329c565b506002613737836102e2565b015415613295565b908160801b91808304600160801b14901517156106e457565b818102929181159184041417156106e457565b92919092613777613ba2565b80613790611e50611e43835f52600460205260405f2090565b03613b3d5761379d613b51565b506137a6613b51565b506137bc611e43825f52600460205260405f2090565b6137d36001611427845f52600460205260405f2090565b6040805163b88e6d6360e01b81523360048201527f0000000000000000000000000000000000000000000000000000000000000000979094929091856024816001600160a01b038c165afa9384156116bd57613a2a61398e6139537f63741ac8918076a6393e6e12659431a4927b53e16190a6b00af6a06697d868b89584888761394e613a3a9d613a489f9d6139889e5f925f92613b19575b506001600160a01b0381165f90815260056020526040902061388d90611f6f565b15613b1157905b6001600160a01b0382811690821603613b0c5750815b6001600160a01b0381165f9081526005602052604090206138ca90611f6f565b15613af8576138f76138e86138e261393993996102e2565b966102e2565b965f52600460205260405f2090565b966139296007549361391961390a610759565b6001600160801b03909c168c52565b6001600160a01b031660208b0152565b6001600160a01b03166040890152565b60608701526001600160a01b03166080860152565b614ece565b809299919d6139673360056108cd8a6102e2565b5460018111613abc575b506001600160a01b038816613a51575b3390615483565b60801b90565b60208701516139b3906001600160801b031660408901516001600160801b0316610cf8565b60208c015160408d01516139d3916001600160801b039081169116610cf8565b906139eb8d610cf86127b58c5160018060801b031690565b604080516001600160a01b039788168152979096166020880152948601929092526060850191909152608084015260a0830191909152819060c0820190565b0390a2516001600160801b031690565b92516001600160801b031690565b90610768613bff565b613a603360056108cd8b6102e2565b5460018111613a70575b50613981565b613aaf613ab691613a8a61094c8c60056108cd33926102e2565b612081613a9f6001600160a01b038d1661136c565b613aa883612b9d565b9033615432565b338a614210565b5f613a6a565b613aeb613af291613ad661094c8b60056108cd33926102e2565b612081613a9f6001600160a01b038c1661136c565b3389614210565b5f613971565b506139396138f76138e86138e285996102e2565b6138aa565b508190613894565b909250613b35915060403d6040116120f8576120e88183610738565b90915f61386c565b63d1b5191160e01b5f52600860045260245ffd5b60405190606082018281106001600160401b03821117610718576040525f6040838281528260208201520152565b5f5f516020615f055f395f51905f525d565b5f516020615f055f395f51905f525d565b5f516020615ec55f395f51905f525c15613bda575b60015f516020615ec55f395f51905f525c015f516020615ec55f395f51905f525d565b345f516020615f255f395f51905f525d5f5f516020615ec55f395f51905f525d613bb7565b5f195f516020615ec55f395f51905f525c015f516020615ec55f395f51905f525d5f516020615ec55f395f51905f525c1580613c7d575b613c3c57565b5f8080805f516020615f255f395f51905f525c815f516020615f255f395f51905f525d335af115613c6957565b63d1b5191160e01b5f52601e60045260245ffd5b506001613c36565b90936001600160801b03909216929091613c9e83614a24565b15613cb05750505061076891506158e1565b60036001600160a01b03841603613ccf57505050610768913090615831565b80613ce1575050610768923091615892565b90613cee918101906154fc565b60ff613cfb825160ff1690565b1660028103613edc57506020613d1c9101516020808251830101910161571f565b6001600160a01b0382169073898118e029aa17ed4763f432c1bdc1085d166cde8203613e5657604051623f675f60e91b81526001600160a01b038616600482015291602090839060249082905afa9081156116bd57613e0e5f939284938491613e37575b50613e00602084015193613d98604082015160ff1690565b60608201516080909201516040516323f2ebc360e21b60208201526001600160a01b038d16602482015230604482015260648101959095526084850196909652600160a485015260ff1660c484015260e4830152610104820193909352918290610124820190565b03601f198101835282610738565b60208151910182855af115613e2857610768923091615892565b63203aa5b560e11b5f5260045ffd5b613e50915060203d6020116116b6576116a88183610738565b5f613d80565b5f915080613ed7839251613e00602084015193613e77604082015160ff1690565b606082015160809092015160405163d505accf60e01b60208201526001600160a01b038d1660248201523060448201526064810195909552608485019690965260ff1660a484015260c483015260e4820193909352918290610104820190565b613e0e565b9193929160038103613f79575050613ef390615e90565b73419c606ed7dd9e411826a26ce9f146ed5a5f7c343b156102de57604051631b63c28b60e11b81526001600160a01b0392831660048201523060248201529082166044820152911660648201525f816084818373419c606ed7dd9e411826a26ce9f146ed5a5f7c345af180156116bd57613f6b575b50565b806118bd5f61076893610738565b600481036140d157506020613f999101516020808251830101910161559d565b9061404e613fa78351615e90565b92614001613fbe604083015165ffffffffffff1690565b613fe6613fc9610798565b6001600160a01b038a168152966001600160a01b03166020880152565b65ffffffffffff604087015265ffffffffffff166060860152565b602081015161400e61077a565b9485523060208601526040850152608081015190614048614038606060a084015193015160ff1690565b60f81b6001600160f81b03191690565b91615608565b9173419c606ed7dd9e411826a26ce9f146ed5a5f7c343b156102de576040516302b67b5760e41b8152925f918491829161408d919088600485016156a7565b03818373419c606ed7dd9e411826a26ce9f146ed5a5f7c345af19182156116bd57613ef3926140bd575b50615e90565b806118bd5f6140cb93610738565b5f6140b7565b9293926005146140e2575b50505050565b6140fc602061416a9201516020808251830101910161559d565b8051614118614109610789565b6001600160a01b039096168652565b6020850152604081015160208201519061413061077a565b95865260208601526040850152614145610789565b308152926020840152608081015190614048614038606060a084015193015160ff1690565b9173419c606ed7dd9e411826a26ce9f146ed5a5f7c343b156102de576141a65f93604051958694859463187945bd60e11b865260048601615633565b03818373419c606ed7dd9e411826a26ce9f146ed5a5f7c345af180156116bd576141d3575b8080806140dc565b806118bd5f6141e193610738565b5f6141cb565b610cf8906141fc8360801d8260801d0161576e565b926001600160801b0391821691160161576e565b91909161421c81614a24565b1561424657505f80808093614231955af11590565b61423757565b633607a14f60e11b5f5260045ffd5b6001600160a01b03811660030361427657506107689173dcad3a6d3569df655070ded06cb7a1b2ccd1d3af614210565b60445f8080936020956040519763a9059cbb60e01b84526004526024525af13d15601f3d1160015f5114161716905f606052604052610768575b633c9fd93960e21b5f5260045ffd5b906142c990612cb8565b9060a08101916143316143246143146142ff86516142f0610de5885160018060801b031690565b607f6127109260c51c16020490565b6001600160801b031660408601908152610dd8565b84516001600160801b0316612b37565b6001600160801b03168352565b8151614345906001600160801b0316610de5565b151580614548575b156145435761435b90612cd1565b926144a8835161437a6080850191614374835160801c90565b906157c0565b60e08501805191614397610de560c0890194614374865160801c90565b6001600160801b039091161061452c576143b79051614374835160801c90565b915b80516143c584826154d2565b875190916001600160801b039182169183168211156144ae575050865161445f9190614411906144049083906001600160801b0316612ce9565b612ce9565b6001600160801b03168952565b61444661441f8686516154d2565b60208a0180519091614439916001600160801b0316612b37565b6001600160801b03169052565b8251906001600160801b0316608086901b175b90615807565b905261448b815161448561447385836154d2565b6001600160801b0316608086901b1790565b9061581c565b90525b6060840180519091614439916001600160801b0316612b37565b92614331565b9091506144bc9294506157e9565b916144e56144cb8484516154d2565b6020880180519091614439916001600160801b0316612b37565b8051865161450e9190614459906001600160801b03165b6001600160801b0316608087901b1790565b9052614522815161448561447385836154d2565b90525f845261448e565b5061453d8651614374845160801c90565b916143b9565b505050565b506001600160801b038116151561434d565b60a08101805182519394919361457d91906142f0906001600160801b0316610de5565b6001600160801b0316604083019081529384516145be906145b1906001600160801b031685516001600160801b0316612ce9565b6001600160801b03168452565b82516145d2906001600160801b0316610de5565b151580614807575b15614790576145e890612cd1565b9361470384516146016080860191614374835160801c90565b60e0860180519161461e610de560c08a0194614374865160801c90565b6001600160801b03909116106147795761463e9051614374835160801c90565b915b805161464c84826154d2565b885190916001600160801b0391821691831682111561470957505087516146d29190614693906146869083906001600160801b0316612ce9565b6001600160801b03168a52565b6146bb6146a18686516154d2565b60208b0180519091614439916001600160801b0316612b37565b8251906001600160801b0316608086901b17614485565b90526146e6815161445961447385836154d2565b90525b6060850180519091614439916001600160801b0316612b37565b936145be565b9091506147179294506157e9565b916147406147268484516154d2565b6020890180519091614439916001600160801b0316612b37565b8051875161475b9190614485906001600160801b03166144fc565b905261476f815161445961447385836154d2565b90525f85526146e9565b5061478a8751614374845160801c90565b91614640565b5081519093906147a8906001600160801b0316610de5565b92836147b45750505050565b6147e7614439926144396147d76147fe97855190607f6127109260c51c16020490565b82516001600160801b0316612ce9565b5182516001600160801b031690610ca490826142f0565b5f8080806140dc565b506001600160801b03811615156145da565b909161076892806002840155600383015560018060e51b031681556001339101612c99565b80546001600160e51b0316600160ff1b8101919082106106e45755565b60018060e51b038154169160e51b82018092116106e45755565b6040805182516001600160a01b039081166020808401918252850151821683850152939092015190911660608083019190915281526148b5608082610738565b51902090565b916148e760026148f094959395600381019660018060801b03885416156148f4575b50019182546141e7565b905582546141e7565b9055565b6148fe9082612c99565b5f6148dd565b93614930919293600386019360018060801b0385541615614961575b506148e7600287019182546141e7565b90556001600160a01b03811661494557505050565b8161495860049260016148f09501612c99565b019182546141e7565b61496b9087612c99565b5f614920565b91909160018060a01b031690815f52600160205260405f20835f5260205260405f208054908282018092116106e4575f925f516020615ee55f395f51905f52926149c392556040519182913383612bc5565b0390a4565b916149ed926020925f60405180968195829463067e356d60e21b845260048401612b50565b03926001600160a01b03165af19081156116bd575f91614a0b575090565b6110a7915060203d602011611a8357611a748183610738565b6001600160a01b031660018114908115614a3c575090565b600291501490565b929190614a5084614a24565b15614a6157505061076891506158e1565b6001600160a01b038416600303614a7c576107689350615831565b61076893615892565b80549092919061271060d99190911c603f166001600160801b03831602046001600160801b0316825281516001600160801b0316614ac291612ce9565b6001600160801b0316606082018181526002840180549092614ae3916157e9565b6001600160801b031660408401908152926004850190815490614b068260801c90565b60039097018054909760801b6001600160801b039091161784516001600160801b0316614b32916157e9565b6001600160801b03908116602083018181529251614b509216612b37565b90516001600160801b03166001600160801b031660809190911b17614b74916141e7565b9055815492516001600160801b031690516001600160801b03166001600160801b031660809190911b179182614ba9916141e7565b90558154906148f0916141e7565b614bc081614a24565b15614bca57503190565b60036001600160a01b03821603614c4257506040516370a0823160e01b81526001600160a01b0391909116600482015260208160248173dcad3a6d3569df655070ded06cb7a1b2ccd1d3af5afa9081156116bd575f91614c29575b5090565b6110a7915060203d6020116116b6576116a88183610738565b6040516370a0823160e01b81526001600160a01b0392831660048201529160209183916024918391165afa9081156116bd575f91614c29575090565b60018060a01b031660038114908115614a3c575090565b908160209103126102de57516110a78161143d565b9091906001600160a01b031660038103614d3c575060405163095ea7b360e01b81529160209183918291614ced916001600160801b039091169060048401612bc5565b03815f73dcad3a6d3569df655070ded06cb7a1b2ccd1d3af5af180156116bd57614d145750565b613f689060203d602011614d35575b614d2d8183610738565b810190614c95565b503d614d23565b60405163095ea7b360e01b81529260209284929183915f918391614d6f916001600160801b039091169060048401612bc5565b03925af180156116bd57614d145750565b610cf890614d958360801d8260801d0361576e565b926001600160801b0390811691160361576e565b6307ffffff60e51b8154169160018060e51b031682018092116106e45755565b94939092969591966004860195838383888a548d6003870154600160801b6001900316600160801b600190031983161790600301549081614e09916157e9565b9060801c614e1691612ce9565b9b8c91614e2d906001600160801b038416906141e7565b9055614e389561592b565b60048401805460038601549196916001600160801b03166001600160801b031982161760048b01549081614e6b916157e9565b9060801c614e7891612ce9565b9687916001600160801b038316614e8e916141e7565b9055614e999561592b565b6001600160801b031660809190911b17918261076891615d57565b6004906148f0926002820155019182549060801b906141e7565b9291939093614edb613b51565b50614ee4613b51565b93614ef3600283015460801c90565b60038301549690614f1d9060801b6001600160801b0389161786516001600160801b0316906157e9565b948254976002840198895490614f3f610de5614f398460801c90565b83615d9e565b6001600160801b038a1611908115615403575b506153ef5761501f90614fef614fa5614fdf614fb5614f8d614f7860048c015460801c90565b60038c015460018060801b03169060801b1790565b8851614fb0906001600160801b0316948580936157e9565b98610e158160801c90565b6157e9565b614fcf614fc061077a565b6001600160801b039098168852565b6001600160801b03166020870152565b6001600160801b03166040850152565b6040830151929a8b93615013906001600160801b031660808c901b175b8093614d80565b90556003860154614d80565b60038501556004840154815161508091615073916001600160801b03166020850151615064906001600160801b031692608083901b6001600160801b03851617611a1a565b60048901556143ff8b8a615db4565b6001600160801b03168252565b835460408201516150c0916150b0916150a1906001600160801b0316610de5565b603f6127109260d31c16020490565b6001600160801b03166020830152565b80516001600160801b03169160608101946151546020875194615146828601976150f0895160018060a01b031690565b97604088019760806151088a5160018060a01b031690565b91018051909a906001600160a01b0316604087015190939061513f906001600160801b0316888a01516001600160801b0316610cf2565b948a615bd8565b01516001600160801b031690565b6001600160801b0381166153d1575b505060018601546001600160a01b0316615180575b505050505050565b909192939497506004840192615197845460801c90565b6003860180549097916151ba918b9160801b6001600160801b03909116176157e9565b996151ec8a6151e76004840154610e1560026151de85614fb085610e158160801c90565b96015460801c90565b6154d2565b956152076151f861077a565b6001600160801b03909d168d52565b6001600160801b0390911660208c01908152906001600160801b0390961660408c01908152958b8854928c60028b0194855491615250610de561524a8560801c90565b84615d9e565b6001600160801b039091161190828c83156153a0575b50505061538c576153486153388f9461531a61536a9f958f8f806150a1610de5610dd8946153649f8f6143ff9f906153569f6153489f6152ca9061530b956152c161500c61468697610cf86150739f5160018060801b031690565b90558254614d80565b905580548c519091906001600160801b03168b51909190615304906001600160801b031693608084901b6001600160801b03861617611a1a565b9055612ce9565b5492516001600160801b031690565b966001600160801b038816615375575b50516001600160801b031690565b965197516001600160a01b031690565b97516001600160a01b031690565b97516001600160801b031690565b95615bd8565b5f8080808080615178565b61538481546104e68a60801b90565b90555f61532a565b63d1b5191160e01b5f52602060045260245ffd5b519192506153bd91610de591906001600160801b03165b93615d9e565b6001600160801b03909116115f828c615266565b6153e56004916104e6838501549160801b90565b9101555f80615163565b63d1b5191160e01b5f52601f60045260245ffd5b845190915061542090610de59084906001600160801b03166153b7565b6001600160801b03909116115f614f52565b91909160018060a01b0316805f52600160205260405f20835f5260205260405f208054908382039182116106e4575f935f516020615ee55f395f51905f52926149c392556040519182913383612bc5565b6001600160a01b031691823b156102de576154b7925f9283604051809681958294637bd3ca3560e01b845260048401612b50565b03925af180156116bd576154c85750565b5f61076891610738565b6110a791608082901c6001600160801b0391821691909216020461576e565b60ff8116036102de57565b6020818303126102de578035906001600160401b0382116102de5701906040828203126102de57604051916155308361071d565b803561553b816154f1565b83526020810135906001600160401b0382116102de570181601f820112156102de5780359061556982613228565b926155776040519485610738565b828452602083830101116102de57815f9260208093018386013783010152602082015290565b908160c09103126102de576040519060c08201908282106001600160401b038311176107185760a09160405280518352602081015160208401526040810151604084015260608101516155ef816154f1565b606084015260808101516080840152015160a082015290565b929190604051936020850152604084015260ff60f81b16606083015260418252610768606183610738565b909261568b6101009360406110a797966156608682516020809160018060a01b0381511684520151910152565b60208181015187840152910151606086015281516001600160a01b03166080860152015160a0840152565b6001600160a01b031660c082015260e081018290520190612113565b60406110a794936101009360018060a01b0316835265ffffffffffff6060825160018060a01b03815116602087015260018060a01b036020820151168587015282858201511682870152015116608084015260018060a01b0360208201511660a0840152015160c08201528160e08201520190612113565b908160a09103126102de57608060405191615739836106fd565b80518352602081015160208401526040810151615755816154f1565b6040840152606081015160608401520151608082015290565b6001600160801b038111615788576001600160801b031690565b505f90565b6001600160801b039091169081156157ac576001600160801b03160490565b634e487b7160e01b5f52601260045260245ffd5b60bb1c6103ff168015614c2557600a0260018060801b0381169081036106e4576110a79161578d565b6110a7916001600160801b0380831660809390931c9116020461576e565b610cf890614d958360801d8260801d0161576e565b610cf8906141fc8360801d8260801d0361576e565b6040516323b872dd60e01b81526001600160a01b0391821660048201529116602482015260448101919091526020905f906064908273dcad3a6d3569df655070ded06cb7a1b2ccd1d3af5af13d15601f3d1160015f5114161716156142b057565b6040516323b872dd60e01b81526001600160a01b03928316600482015292909116602483015260448201929092526020915f9160649183905af13d15601f3d1160015f5114161716156142b057565b5f516020615f255f395f51905f525c8111615917575f516020615f255f395f51905f525c035f516020615f255f395f51905f525d565b63d1b5191160e01b5f52601c60045260245ffd5b9390929161594f606460dd83901c601f166001600160801b03871602048095612ce9565b6001600160801b03811693909190606460fa83901c86020491606460f482901c603f1687020494896159a6606460ee85901c603f168a020498606460e886901c603f168202045b9490603f60649260e21c16020490565b976001600160a01b0383169081615a825750505050506159c65f83612b37565b6001600160801b0316335f908152600590980160208190526040909820908154906159f091612bb8565b90556159fc8585612b37565b6001600160801b03166001600160a01b039091165f90815260208890526040902090815490615a2a91612bb8565b9055615a3591612ce9565b90615a3f91612ce9565b90615a4991612ce9565b90615a5391612b37565b6001600160801b03166001600160a01b039092165f90815260209190915260409020908154906148f091612bb8565b6104899750918b9391615b869b9593610de59b98975f9b615b999f6001615ab091015460018060a01b031690565b6001600160a01b039586169581168614158e14615bc7576001600160a01b03165f9081526005890160205260409020615af7905b805490926001600160801b031690612bb8565b90555b6001600160a01b0381168414158c14615bb6576001600160a01b03165f9081526005870160205260409020615b2e90615ae4565b90555b14158814615b9c576001600160a01b03165f90815260058084016020526040909120615b7f93615ae4939091615b649085565b90555b019a8b9060018060a01b03165f5260205260405f2090565b9055612b37565b335f908152602093909352604090922090565b55565b506005615bb0615ae492615b7f9495612b37565b93615b67565b50615bc19196612b37565b94615b31565b50615bd29198612b37565b96615afa565b9495909390929091615c00606460dd83901c601f166001600160801b03881602048096612ce9565b6001600160801b03811694909290606460fa84901c87020492606460f482901c603f16880204958a615c4b606460ee85901c603f168b020499606460e886901c603f16820204615996565b986001600160a01b0383169081615c6b5750505050506159c69083612b37565b6104899850908c94939291610de59b9897615b869d979b615b999f6001615c9991015460018060a01b031690565b6001600160a01b039586169581168614615d46576001600160a01b03165f9081526005890160205260409020615cce90615ae4565b90555b6001600160a01b0381168414615d35576001600160a01b03165f9081526005870160205260409020615d0290615ae4565b90555b14615b9c576001600160a01b03165f90815260058084016020526040909120615b7f93615ae4939091615b649085565b50615d409196612b37565b94615d05565b50615d519198612b37565b96615cd1565b600381018054615d72906001600160801b03198516906141e7565b905560018101546001600160a01b0316615d8a575050565b60046148f091019182549060801b906141e7565b60b11c6103ff168015614c25576110a79161578d565b906148f09060038301615e38615e07825495615dd08760801c90565b90615e186002820198610cf8615de78b5460801c90565b6001600160801b03908116968a821696889288929116820283900461576e565b936001600160801b0316020461576e565b60018201549093906001600160a01b0316615e45575b5050508254614d80565b905582549060801b611a1a565b611a1a6004615e86930193610cf8855493615e74818460018060801b03615e6c8960801c90565b16020461576e565b926001600160801b038616020461576e565b90555f8080615e2e565b6001600160a01b038116908103615788579056fe5d72191643a9d630c58937d62f5e056dcfa8dbf1aced1cb2f655ee1d7ecaf57787b52c29898e62efc1f9a9b00a26dcbdaee98d728c56841703077b7c0d20dee71b3d7edb2e9c0b0e7c525b20aaaef0f5940d2ed71663c7d39266ecafac728859e2afc7ec4dbb9bfdb1b8e8bcf21a055747c25bf2faaea9cb5a134005381f4843cbe27d488af5b5c1b0bd8d89be6fdfeaed3ad42719044fd9b728f33df1d6f1d1a26469706673582212208afd273c9c6dcffc482d7db5de41f329628cdec390face3a8e230fa74d438f1164736f6c634300081d0033","linkReferences":{}},"methodIdentifiers":{"addbanlist(address)":"b153b920","allowance(address,address,uint256)":"598af9e7","approve(address,uint256,uint256)":"426a8493","balanceOf(address,uint256)":"00fdd58e","buyGood(address,address,uint128,uint128,address,bytes)":"f151e786","buyGoodCheck(address,address,uint128,uint128)":"3bd16436","changeGoodOwner(address,address)":"41e12373","changeReStakingContrat(address)":"119ac094","changemarketcreator(address)":"a06ad0e8","collectCommission(address[])":"0d2700ab","collectProof(uint256,address)":"a676a600","disinvestProof(uint256,uint128,address)":"f4662f20","flashFee(address,uint256)":"d9d98ce4","flashLoan(address,address,uint256,bytes)":"5cffe9de","getGoodState(address)":"08238466","getProofState(uint256)":"3f117740","goodWelfare(address,uint128,bytes)":"06cf4e7f","initGood(address,uint256,address,uint256,bytes,bytes)":"5f755d65","initMetaGood(address,uint256,uint256,bytes)":"51ff9a16","investGood(address,address,uint128,bytes,bytes)":"f878e809","isOperator(address,address)":"b6363cf2","ishigher(address,address,uint256)":"1412723a","marketconfig()":"402f5ab5","marketcreator()":"3d995173","maxFlashLoan(address)":"613255ab","modifyGoodConfig(address,uint256)":"b1efb921","multicall(bytes[])":"ac9650d8","queryCommission(address[],address)":"9b222794","removeMarketor(address)":"cc00da2d","removeSecurityKeeper()":"c9544f18","removebanlist(address)":"9551177a","securityKeeper(address)":"3c9fe544","setMarketConfig(uint256)":"45818e4c","setMarketor(address)":"102e5c27","setOperator(address,bool)":"558a7297","stakeETH(address,uint128)":"73db1792","supportsInterface(bytes4)":"01ffc9a7","syncReward(address)":"8c706eb5","transfer(address,uint256,uint256)":"095bcdb6","transferFrom(address,address,uint256,uint256)":"fe99049a","unstakeETH(address,uint128)":"81a860d1","updateGoodConfig(address,uint256)":"a3b74a49","userConfig(address)":"5f35b0b3"},"id":47}