{"abi":[{"type":"constructor","inputs":[{"name":"_usdt","type":"address","internalType":"address"},{"name":"_dao_admin","type":"address","internalType":"address"},{"name":"_ttsconfig","type":"uint256","internalType":"uint256"}],"stateMutability":"nonpayable"},{"type":"function","name":"DOMAIN_SEPARATOR","inputs":[],"outputs":[{"name":"","type":"bytes32","internalType":"bytes32"}],"stateMutability":"view"},{"type":"function","name":"addShare","inputs":[{"name":"_share","type":"tuple","internalType":"struct s_share","components":[{"name":"recipient","type":"address","internalType":"address"},{"name":"leftamount","type":"uint128","internalType":"uint128"},{"name":"metric","type":"uint120","internalType":"uint120"},{"name":"chips","type":"uint8","internalType":"uint8"}]}],"outputs":[],"stateMutability":"nonpayable"},{"type":"function","name":"addauths","inputs":[{"name":"_auths","type":"address","internalType":"address"},{"name":"_priv","type":"uint256","internalType":"uint256"}],"outputs":[],"stateMutability":"nonpayable"},{"type":"function","name":"addreferral","inputs":[{"name":"user","type":"address","internalType":"address"},{"name":"referral","type":"address","internalType":"address"}],"outputs":[],"stateMutability":"nonpayable"},{"type":"function","name":"allowance","inputs":[{"name":"owner","type":"address","internalType":"address"},{"name":"spender","type":"address","internalType":"address"}],"outputs":[{"name":"","type":"uint256","internalType":"uint256"}],"stateMutability":"view"},{"type":"function","name":"approve","inputs":[{"name":"spender","type":"address","internalType":"address"},{"name":"amount","type":"uint256","internalType":"uint256"}],"outputs":[{"name":"","type":"bool","internalType":"bool"}],"stateMutability":"nonpayable"},{"type":"function","name":"balanceOf","inputs":[{"name":"account","type":"address","internalType":"address"}],"outputs":[{"name":"","type":"uint256","internalType":"uint256"}],"stateMutability":"view"},{"type":"function","name":"burn","inputs":[{"name":"account","type":"address","internalType":"address"},{"name":"value","type":"uint256","internalType":"uint256"}],"outputs":[],"stateMutability":"nonpayable"},{"type":"function","name":"burnShare","inputs":[{"name":"index","type":"uint8","internalType":"uint8"}],"outputs":[],"stateMutability":"nonpayable"},{"type":"function","name":"chain_deposit","inputs":[{"name":"chainid","type":"uint32","internalType":"uint32"},{"name":"asset","type":"uint128","internalType":"uint128"}],"outputs":[],"stateMutability":"nonpayable"},{"type":"function","name":"chain_withdraw","inputs":[{"name":"chainid","type":"uint32","internalType":"uint32"},{"name":"asset","type":"uint128","internalType":"uint128"}],"outputs":[],"stateMutability":"nonpayable"},{"type":"function","name":"changeDAOAdmin","inputs":[{"name":"_recipient","type":"address","internalType":"address"}],"outputs":[],"stateMutability":"nonpayable"},{"type":"function","name":"decimals","inputs":[],"outputs":[{"name":"","type":"uint8","internalType":"uint8"}],"stateMutability":"pure"},{"type":"function","name":"decreaseAllowance","inputs":[{"name":"spender","type":"address","internalType":"address"},{"name":"subtractedValue","type":"uint256","internalType":"uint256"}],"outputs":[{"name":"","type":"bool","internalType":"bool"}],"stateMutability":"nonpayable"},{"type":"function","name":"eip712Domain","inputs":[],"outputs":[{"name":"fields","type":"bytes1","internalType":"bytes1"},{"name":"name","type":"string","internalType":"string"},{"name":"version","type":"string","internalType":"string"},{"name":"chainId","type":"uint256","internalType":"uint256"},{"name":"verifyingContract","type":"address","internalType":"address"},{"name":"salt","type":"bytes32","internalType":"bytes32"},{"name":"extensions","type":"uint256[]","internalType":"uint256[]"}],"stateMutability":"view"},{"type":"function","name":"getreferral","inputs":[{"name":"_customer","type":"address","internalType":"address"}],"outputs":[{"name":"","type":"address","internalType":"address"}],"stateMutability":"view"},{"type":"function","name":"getreferralanddaoadmin","inputs":[{"name":"_customer","type":"address","internalType":"address"}],"outputs":[{"name":"","type":"address","internalType":"address"},{"name":"","type":"address","internalType":"address"}],"stateMutability":"view"},{"type":"function","name":"increaseAllowance","inputs":[{"name":"spender","type":"address","internalType":"address"},{"name":"addedValue","type":"uint256","internalType":"uint256"}],"outputs":[{"name":"","type":"bool","internalType":"bool"}],"stateMutability":"nonpayable"},{"type":"function","name":"isauths","inputs":[{"name":"recipient","type":"address","internalType":"address"}],"outputs":[{"name":"","type":"uint256","internalType":"uint256"}],"stateMutability":"view"},{"type":"function","name":"left_share","inputs":[],"outputs":[{"name":"","type":"uint128","internalType":"uint128"}],"stateMutability":"view"},{"type":"function","name":"name","inputs":[],"outputs":[{"name":"","type":"string","internalType":"string"}],"stateMutability":"view"},{"type":"function","name":"nonces","inputs":[{"name":"owner","type":"address","internalType":"address"}],"outputs":[{"name":"","type":"uint256","internalType":"uint256"}],"stateMutability":"view"},{"type":"function","name":"permit","inputs":[{"name":"owner","type":"address","internalType":"address"},{"name":"spender","type":"address","internalType":"address"},{"name":"value","type":"uint256","internalType":"uint256"},{"name":"deadline","type":"uint256","internalType":"uint256"},{"name":"v","type":"uint8","internalType":"uint8"},{"name":"r","type":"bytes32","internalType":"bytes32"},{"name":"s","type":"bytes32","internalType":"bytes32"}],"outputs":[],"stateMutability":"nonpayable"},{"type":"function","name":"publicSell","inputs":[{"name":"usdtamount","type":"uint256","internalType":"uint256"}],"outputs":[],"stateMutability":"nonpayable"},{"type":"function","name":"publicsell","inputs":[],"outputs":[{"name":"","type":"uint128","internalType":"uint128"}],"stateMutability":"view"},{"type":"function","name":"rmauths","inputs":[{"name":"_auths","type":"address","internalType":"address"}],"outputs":[],"stateMutability":"nonpayable"},{"type":"function","name":"setEnv","inputs":[{"name":"_normalgoodid","type":"uint256","internalType":"uint256"},{"name":"_valuegoodid","type":"uint256","internalType":"uint256"},{"name":"_marketcontract","type":"address","internalType":"address"}],"outputs":[],"stateMutability":"nonpayable"},{"type":"function","name":"setMainTriggerMarket","inputs":[{"name":"Maintriggeradd","type":"address","internalType":"address"},{"name":"marketadd","type":"address","internalType":"address"}],"outputs":[],"stateMutability":"nonpayable"},{"type":"function","name":"shareMint","inputs":[{"name":"index","type":"uint8","internalType":"uint8"}],"outputs":[],"stateMutability":"nonpayable"},{"type":"function","name":"stake","inputs":[{"name":"_staker","type":"address","internalType":"address"},{"name":"proofvalue","type":"uint128","internalType":"uint128"}],"outputs":[{"name":"netconstruct","type":"uint128","internalType":"uint128"}],"stateMutability":"nonpayable"},{"type":"function","name":"subchainDeposit","inputs":[{"name":"asset","type":"uint128","internalType":"uint128"},{"name":"recipient","type":"address","internalType":"address"}],"outputs":[],"stateMutability":"nonpayable"},{"type":"function","name":"subchainWithdraw","inputs":[{"name":"asset","type":"uint128","internalType":"uint128"},{"name":"recipient","type":"address","internalType":"address"}],"outputs":[],"stateMutability":"nonpayable"},{"type":"function","name":"symbol","inputs":[],"outputs":[{"name":"","type":"string","internalType":"string"}],"stateMutability":"view"},{"type":"function","name":"syncChainStake","inputs":[{"name":"chainid","type":"uint32","internalType":"uint32"},{"name":"chainvalue","type":"uint128","internalType":"uint128"}],"outputs":[{"name":"poolasset","type":"uint128","internalType":"uint128"}],"stateMutability":"nonpayable"},{"type":"function","name":"syncPoolAsset","inputs":[{"name":"amount","type":"uint128","internalType":"uint128"}],"outputs":[],"stateMutability":"nonpayable"},{"type":"function","name":"totalSupply","inputs":[],"outputs":[{"name":"","type":"uint256","internalType":"uint256"}],"stateMutability":"view"},{"type":"function","name":"transfer","inputs":[{"name":"to","type":"address","internalType":"address"},{"name":"amount","type":"uint256","internalType":"uint256"}],"outputs":[{"name":"","type":"bool","internalType":"bool"}],"stateMutability":"nonpayable"},{"type":"function","name":"transferFrom","inputs":[{"name":"from","type":"address","internalType":"address"},{"name":"to","type":"address","internalType":"address"},{"name":"amount","type":"uint256","internalType":"uint256"}],"outputs":[{"name":"","type":"bool","internalType":"bool"}],"stateMutability":"nonpayable"},{"type":"function","name":"ttstokenconfig","inputs":[],"outputs":[{"name":"","type":"uint256","internalType":"uint256"}],"stateMutability":"view"},{"type":"function","name":"unstake","inputs":[{"name":"_staker","type":"address","internalType":"address"},{"name":"proofvalue","type":"uint128","internalType":"uint128"}],"outputs":[],"stateMutability":"nonpayable"},{"type":"function","name":"usdt","inputs":[],"outputs":[{"name":"","type":"address","internalType":"address"}],"stateMutability":"view"},{"type":"function","name":"withdrawPublicSell","inputs":[{"name":"amount","type":"uint256","internalType":"uint256"},{"name":"recipient","type":"address","internalType":"address"}],"outputs":[],"stateMutability":"nonpayable"},{"type":"event","name":"Approval","inputs":[{"name":"owner","type":"address","indexed":true,"internalType":"address"},{"name":"spender","type":"address","indexed":true,"internalType":"address"},{"name":"value","type":"uint256","indexed":false,"internalType":"uint256"}],"anonymous":false},{"type":"event","name":"EIP712DomainChanged","inputs":[],"anonymous":false},{"type":"event","name":"Transfer","inputs":[{"name":"from","type":"address","indexed":true,"internalType":"address"},{"name":"to","type":"address","indexed":true,"internalType":"address"},{"name":"value","type":"uint256","indexed":false,"internalType":"uint256"}],"anonymous":false},{"type":"event","name":"e_addShare","inputs":[{"name":"recipient","type":"address","indexed":false,"internalType":"address"},{"name":"leftamount","type":"uint256","indexed":false,"internalType":"uint256"},{"name":"metric","type":"uint120","indexed":false,"internalType":"uint120"},{"name":"chips","type":"uint8","indexed":false,"internalType":"uint8"},{"name":"index","type":"uint32","indexed":false,"internalType":"uint32"}],"anonymous":false},{"type":"event","name":"e_addauths","inputs":[{"name":"auths","type":"address","indexed":false,"internalType":"address"},{"name":"priv","type":"uint256","indexed":false,"internalType":"uint256"}],"anonymous":false},{"type":"event","name":"e_addreferral","inputs":[{"name":"users","type":"address","indexed":false,"internalType":"address"},{"name":"referral","type":"address","indexed":false,"internalType":"address"}],"anonymous":false},{"type":"event","name":"e_burnShare","inputs":[{"name":"index","type":"uint32","indexed":false,"internalType":"uint32"}],"anonymous":false},{"type":"event","name":"e_publicsell","inputs":[{"name":"usdtamount","type":"uint256","indexed":false,"internalType":"uint256"},{"name":"ttsamount","type":"uint256","indexed":false,"internalType":"uint256"}],"anonymous":false},{"type":"event","name":"e_rmauths","inputs":[{"name":"auths","type":"address","indexed":false,"internalType":"address"}],"anonymous":false},{"type":"event","name":"e_setdaoadmin","inputs":[{"name":"recipient","type":"address","indexed":false,"internalType":"address"}],"anonymous":false},{"type":"event","name":"e_setenv","inputs":[{"name":"normalgoodid","type":"uint256","indexed":false,"internalType":"uint256"},{"name":"valuegoodid","type":"uint256","indexed":false,"internalType":"uint256"},{"name":"marketcontract","type":"address","indexed":false,"internalType":"address"}],"anonymous":false},{"type":"event","name":"e_shareMint","inputs":[{"name":"mintamount","type":"uint128","indexed":false,"internalType":"uint128"},{"name":"index","type":"uint32","indexed":false,"internalType":"uint32"}],"anonymous":false},{"type":"event","name":"e_syncChainStake","inputs":[{"name":"chain","type":"uint32","indexed":false,"internalType":"uint32"},{"name":"poolasset","type":"uint128","indexed":false,"internalType":"uint128"},{"name":"proofstate","type":"uint256","indexed":false,"internalType":"uint256"}],"anonymous":false},{"type":"event","name":"e_unstake","inputs":[{"name":"recipient","type":"address","indexed":false,"internalType":"address"},{"name":"proofvalue","type":"uint128","indexed":false,"internalType":"uint128"},{"name":"unstakestate","type":"uint256","indexed":false,"internalType":"uint256"},{"name":"stakestate","type":"uint256","indexed":false,"internalType":"uint256"}],"anonymous":false},{"type":"event","name":"e_updatepool","inputs":[{"name":"poolstate","type":"uint256","indexed":false,"internalType":"uint256"},{"name":"stakestate","type":"uint256","indexed":false,"internalType":"uint256"}],"anonymous":false},{"type":"error","name":"InvalidShortString","inputs":[]},{"type":"error","name":"StringTooLong","inputs":[{"name":"str","type":"string","internalType":"string"}]}],"bytecode":{"object":"0x610180604052601380546001600160801b0319166601c6bf52634000179055348015610029575f80fd5b5060405161379938038061379983398101604081905261004891610274565b6040518060400160405280600c81526020016b2a2a29bbb0b8102a37b5b2b760a11b81525080604051806040016040528060018152602001603160f81b8152506040518060400160405280600c81526020016b2a2a29bbb0b8102a37b5b2b760a11b8152506040518060400160405280600381526020016254545360e81b81525081600390816100d89190610345565b5060046100e58282610345565b506100f5915083905060056101e1565b610120526101048160066101e1565b61014052815160208084019190912060e052815190820120610100524660a05261019060e05161010051604080517f8b73c3c69bb8fe3d512ecc4cf759cc79239f7b179b0ffacaa9a75d522b39400f60208201529081019290925260608201524660808201523060a08201525f9060c00160405160208183030381529060405280519060200120905090565b60809081523060c0526001600160a01b0387166101605242901b92506101b4915050565b600b55601180546001600160a01b0319166001600160a01b03939093169290921790915560095550610457565b5f6020835110156101fc576101f583610213565b905061020d565b816102078482610345565b5060ff90505b92915050565b5f80829050601f81511115610246578260405163305a27a960e01b815260040161023d91906103ff565b60405180910390fd5b805161025182610434565b179392505050565b80516001600160a01b038116811461026f575f80fd5b919050565b5f805f60608486031215610286575f80fd5b61028f84610259565b925061029d60208501610259565b9150604084015190509250925092565b634e487b7160e01b5f52604160045260245ffd5b600181811c908216806102d557607f821691505b6020821081036102f357634e487b7160e01b5f52602260045260245ffd5b50919050565b601f82111561034057805f5260205f20601f840160051c8101602085101561031e5750805b601f840160051c820191505b8181101561033d575f815560010161032a565b50505b505050565b81516001600160401b0381111561035e5761035e6102ad565b6103728161036c84546102c1565b846102f9565b6020601f8211600181146103a4575f831561038d5750848201515b5f19600385901b1c1916600184901b17845561033d565b5f84815260208120601f198516915b828110156103d357878501518255602094850194600190920191016103b3565b50848210156103f057868401515f19600387901b60f8161c191681555b50505050600190811b01905550565b602081525f82518060208401528060208501604085015e5f604082850101526040601f19601f83011684010191505092915050565b805160208083015191908110156102f3575f1960209190910360031b1b16919050565b60805160a05160c05160e051610100516101205161014051610160516132d96104c05f395f81816103a2015281816109560152611dbb01525f6115e101525f6115b601525f61271501525f6126ed01525f61264801525f61267201525f61269c01526132d95ff3fe608060405234801561000f575f80fd5b50600436106102cd575f3560e01c80637bd3ca351161017c578063b3e08a69116100dd578063dd62ed3e11610093578063e7b43e7d1161006e578063e7b43e7d146106a8578063eca93cce146106bb578063f6f9b80d146106ce575f80fd5b8063dd62ed3e14610643578063de5712d41461067b578063df87654814610695575f80fd5b8063c3bb7fff116100c3578063c3bb7fff1461060a578063cd993b111461061d578063d505accf14610630575f80fd5b8063b3e08a69146105a4578063b88e6d63146105b7575f80fd5b806395d89b4111610132578063a457c2d711610118578063a457c2d714610553578063a9059cbb14610566578063a985901a14610579575f80fd5b806395d89b41146105385780639dc29fac14610540575f80fd5b806384b0196e1161016257806384b0196e146104e25780639241bda6146104fd57806394c3c33314610510575f80fd5b80637bd3ca35146104bc5780637ecebe00146104cf575f80fd5b8063313ce5671161023157806345fda707116101e757806369a5ac32116101c257806369a5ac321461046e5780636c0deba11461048157806370a0823114610494575f80fd5b806345fda7071461043f578063542128dd14610452578063623059a514610465575f80fd5b8063395093511161021757806339509351146104065780633b107e21146104195780633cba316b1461042c575f80fd5b8063313ce567146103ef5780633644e515146103fe575f80fd5b806318160ddd1161028657806323b872dd1161026c57806323b872dd1461038a5780632f48ab7d1461039d57806330fd6b29146103dc575f80fd5b806318160ddd1461034d57806319f8d5b41461035f575f80fd5b8063095ea7b3116102b6578063095ea7b3146103045780630a4273e6146103275780630fffe72f1461033a575f80fd5b806301bddf1b146102d157806306fdde03146102e6575b5f80fd5b6102e46102df366004612b69565b6106e1565b005b6102ee6107a3565b6040516102fb9190612bd6565b60405180910390f35b610317610312366004612bfc565b610833565b60405190151581526020016102fb565b6102e4610335366004612c26565b61084c565b6102e4610348366004612c52565b610893565b6002545b6040519081526020016102fb565b61037261036d366004612c69565b610b07565b6040516001600160801b0390911681526020016102fb565b610317610398366004612c85565b610c36565b6103c47f000000000000000000000000000000000000000000000000000000000000000081565b6040516001600160a01b0390911681526020016102fb565b6103726103ea366004612b69565b610c59565b604051600681526020016102fb565b610351610fe3565b610317610414366004612bfc565b610ff1565b6102e4610427366004612cc3565b61102f565b6102e461043a366004612cdc565b61121d565b601354610372906001600160801b031681565b6102e4610460366004612bfc565b61128a565b61035160095481565b6102e461047c366004612cdc565b6112f9565b6102e461048f366004612cf7565b611331565b6103516104a2366004612cdc565b6001600160a01b03165f9081526020819052604090205490565b6102e46104ca366004612c69565b611376565b6103516104dd366004612cdc565b61158c565b6104ea6115a9565b6040516102fb9796959493929190612d12565b6102e461050b366004612db6565b611630565b61035161051e366004612cdc565b6001600160a01b03165f9081526015602052604090205490565b6102ee611726565b6102e461054e366004612bfc565b611735565b610317610561366004612bfc565b61173f565b610317610574366004612bfc565b6117ed565b6103c4610587366004612cdc565b6001600160a01b039081165f908152601460205260409020541690565b6102e46105b2366004612dd1565b6117fa565b6105ea6105c5366004612cdc565b6011546001600160a01b039182165f9081526014602052604090205490821692911690565b604080516001600160a01b039384168152929091166020830152016102fb565b6102e4610618366004612b69565b61186a565b6102e461062b366004612c26565b611943565b6102e461063e366004612ded565b611986565b610351610651366004612dd1565b6001600160a01b039182165f90815260016020908152604080832093909416825291909152205490565b60135461037290600160801b90046001600160801b031681565b6102e46106a3366004612db6565b611ae7565b6102e46106b6366004612e59565b611d63565b6102e46106c9366004612dd1565b611e2a565b6102e46106dc366004612e7c565b611ee5565b6106ec600954611f73565b6106f4575f80fd5b335f90815260156020526040902054620186a514801561075b575063ffffffff82165f908152600e60205260409020600201546001600160a01b031633148061075b575063ffffffff82165f908152600e60205260409020600201546001600160a01b0316155b610763575f80fd5b608081901b63ffffffff83165f908152600e60205260409020546107879190612ec6565b63ffffffff9092165f908152600e602052604090209190915550565b6060600380546107b290612ed9565b80601f01602080910402602001604051908101604052809291908181526020018280546107de90612ed9565b80156108295780601f1061080057610100808354040283529160200191610829565b820191905f5260205f20905b81548152906001019060200180831161080c57829003601f168201915b5050505050905090565b5f33610840818585611f91565b60019150505b92915050565b610857600954611f73565b15610860575f80fd5b335f90815260156020526040902054620186a51461087c575f80fd5b61088f81836001600160801b03166120b4565b5050565b61089e600954611f73565b6108a6575f80fd5b80601360108282829054906101000a90046001600160801b03166108ca9190612f0b565b92506101000a8154816001600160801b0302191690836001600160801b031602179055506108f6600690565b6109069060ff16624c4b40612f2a565b62ffffff16601360109054906101000a90046001600160801b03166001600160801b03161115610934575f80fd5b6040516323b872dd60e01b8152336004820152306024820152604481018290527f00000000000000000000000000000000000000000000000000000000000000006001600160a01b0316906323b872dd906064016020604051808303815f875af11580156109a4573d5f803e3d5ffd5b505050506040513d601f19601f820116820180604052508101906109c89190612f4f565b15610b04575f6109dc6006621ab3f0612f2a565b62ffffff16601360109054906101000a90046001600160801b03166001600160801b031611610a2c57610a10600583612f82565b610a1b906006612f95565b9050610a2733826121e4565b610ac8565b610a3a600662319750612f2a565b62ffffff16601360109054906101000a90046001600160801b03166001600160801b031611610a6f575080610a2733826121e4565b610a7d6006624c4b40612f2a565b62ffffff16601360109054906101000a90046001600160801b03166001600160801b031611610ac857610ab1600583612f82565b610abc906004612f95565b9050610ac833826121e4565b60408051838152602081018390527fcf0848d99e9b2ad96811072e657199bc9567c2cc9b614097727a852b27f5358d91015b60405180910390a1505b50565b335f90815260156020526040812054600114610b21575f80fd5b610b296122a1565b604080516001600160a01b038516602080830191909152338284015282518083038401815260609092019092528051910120600c546001600160801b031615610ba757610ba2610b78600c5490565b6001600160801b0316846001600160801b0316610b94600b5490565b6001600160801b0316612392565b610ba9565b5f5b600c54909250610bc8906001600160801b038416608085901b176123ac565b600c55600b54610be1906001600160801b0385166123ac565b600b555f818152600d6020526040902080546001600160a01b0319163317815560010154610c1e90608085901b6001600160801b038516176123ac565b5f918252600d60205260409091206001015592915050565b5f33610c438582856123db565b610c4e85858561246b565b506001949350505050565b5f610c65600954611f73565b610c6d575f80fd5b335f90815260156020526040902054620186a5148015610cd4575063ffffffff83165f908152600e60205260409020600201546001600160a01b0316331480610cd4575063ffffffff83165f908152600e60205260409020600201546001600160a01b0316155b610cdc575f80fd5b5f8363ffffffff165f03610dca576001601260188282829054906101000a900463ffffffff16610d0c9190612fac565b92506101000a81548163ffffffff021916908363ffffffff160217905550601260189054906101000a900463ffffffff169350610d4e610b78600c5460801c90565b600c54909150610d6d906001600160801b038316608084901b176123ac565b600c55600b54610d86906001600160801b0385166123ac565b600b5563ffffffff84165f908152600e602052604090206001600160801b038216608085901b17600182015560020180546001600160a01b03191633179055610f7b565b610e13610dd9600c5460801c90565b63ffffffff86165f908152600e60205260409020600101546001600160801b03919091169060801c6001600160801b0316610b94600c5490565b63ffffffff85165f908152600e6020526040902060010154909250610e489083905b6001600160801b031660809190911b1790565b600c54610e559190612ec6565b600c5563ffffffff84165f908152600e6020526040812060010154610e7d919060801c610e35565b600b54610e8a9190612ec6565b600b5563ffffffff84165f908152600e602052604090206001015460801c610eb29083612fc8565b9150610ec3610b78600c5460801c90565b600c54909150610ee2906001600160801b038316608084901b176123ac565b600c55600b54610efb906001600160801b0385166123ac565b600b556001600160801b038116608084901b1763ffffffff85165f908152600e60205260409020600181019190915554610f44906001600160801b038416608085901b176123ac565b63ffffffff85165f908152600e6020526040902090815560020154610f7b906001600160a01b03166001600160801b0384166121e4565b63ffffffff84165f818152600e60209081526040918290206001015482519384526001600160801b0386169184019190915282820152517f2dbd6c60950a71a3b42582ce495af627a70477170cea6ce5bbd4017f3e9308929181900360600190a15092915050565b5f610fec61263c565b905090565b335f8181526001602090815260408083206001600160a01b0387168452909152812054909190610840908290869061102a908790612fe7565b611f91565b61103a600954611f73565b611042575f80fd5b5f6110536040830160208401612cf7565b60135461106991906001600160801b0316612fc8565b6001600160801b03161015801561109357506011546001600160a01b0316336001600160a01b0316145b61109b575f80fd5b6110ab6040820160208301612cf7565b6013805467ffffffffffffffff92909216915f906110d39084906001600160801b0316612fc8565b92506101000a8154816001600160801b0302191690836001600160801b031602179055506001601260148282829054906101000a900463ffffffff166111199190612fac565b82546101009290920a63ffffffff818102199093169183160217909155601254600160a01b9004165f908152600a6020526040902082915061115b828261300e565b507f259b626a3ac57abbad46c244a9bc2a13c0b530c618e9654be9351bd104cffcae905061118c6020830183612cdc565b61119c6040840160208501612cf7565b6111ac60608501604086016130f5565b6111bc6080860160608701612db6565b601254604080516001600160a01b0390961686526001600160801b0390941660208601526001600160781b039092169284019290925260ff9091166060830152600160a01b900463ffffffff16608082015260a0015b60405180910390a150565b6011546001600160a01b0316336001600160a01b03161461123c575f80fd5b601180546001600160a01b0319166001600160a01b0383169081179091556040519081527f853baecd5c22fcf8a4d994474a066771c51cfe6022b046e92a09874610cd128190602001611212565b6011546001600160a01b0316336001600160a01b0316146112a9575f80fd5b6001600160a01b0382165f81815260156020908152604091829020849055815192835282018390527f967d50df84a5ebb45902fa277d5c3b0bc6403497c9fd6da2ecbd9ed420038f149101610afa565b6011546001600160a01b0316336001600160a01b031614611318575f80fd5b6001600160a01b03165f90815260156020526040812055565b61133c600954611f73565b15611345575f80fd5b335f9081526015602052604090205460051461135f575f80fd5b600c5461137090608083901b6123ac565b600c5550565b335f90815260156020526040902054600114611390575f80fd5b6113986122a1565b604080516001600160a01b0384166020808301919091523382840152825180830384018152606090920183528151918101919091205f818152600d909252918120600101549091829160801c6001600160801b03851610611427575f818152600d6020526040812060018101805482546001600160a01b03191690925591909155608081901c94509150611481565b5f818152600d60205260409020600101546114429085612765565b91506001600160801b038216608085901b175f828152600d602052604090206001015461146f9190612ec6565b5f828152600d60205260409020600101555b6114a28461149c611494600c5460801c90565b600b54610e35565b90612787565b92506001600160801b038416600b546114bb9190612ec6565b600b556001600160801b038216608084901b17600c546114db9190612ec6565b600c556114e88284612fc8565b92506001600160801b0383161561150c5761150c85846001600160801b03166121e4565b7fcd22d1cb8932396ecce835a81db9f8f268ec6f820ba46a7d202f275064de27c485856001600160801b038616608086901b175f858152600d60209081526040918290206001015482516001600160a01b0390961686526001600160801b0390941690850152830152606082015260800160405180910390a15050505050565b6001600160a01b0381165f90815260076020526040812054610846565b5f606080828080836115dc7f000000000000000000000000000000000000000000000000000000000000000060056127af565b6116077f000000000000000000000000000000000000000000000000000000000000000060066127af565b604080515f80825260208201909252600f60f81b9b939a50919850469750309650945092509050565b61163b600954611f73565b611643575f80fd5b6011546001600160a01b0316336001600160a01b031614611662575f80fd5b60ff81165f908152600a60205260408120600101546013805467ffffffffffffffff90921692909161169e9084906001600160801b0316612f0b565b92506101000a8154816001600160801b0302191690836001600160801b031602179055507f568d364b674966bdb889933148a94e885581320f54b5d65d04bda235eea7fe48816040516116fa919060ff91909116815260200190565b60405180910390a160ff165f908152600a6020526040812080546001600160a01b031916815560010155565b6060600480546107b290612ed9565b61088f82826120b4565b335f8181526001602090815260408083206001600160a01b0387168452909152812054909190838110156117e05760405162461bcd60e51b815260206004820152602560248201527f45524332303a2064656372656173656420616c6c6f77616e63652062656c6f7760448201527f207a65726f00000000000000000000000000000000000000000000000000000060648201526084015b60405180910390fd5b610c4e8286868403611f91565b5f3361084081858561246b565b6011546001600160a01b03163314611810575f80fd5b604051630c5ee4e160e21b81526001600160a01b03828116600483015283169063317b9384906024015f604051808303815f87803b158015611850575f80fd5b505af1158015611862573d5f803e3d5ffd5b505050505050565b611875600954611f73565b61187d575f80fd5b335f90815260156020526040902054620186a51480156118e4575063ffffffff82165f908152600e60205260409020600201546001600160a01b03163314806118e4575063ffffffff82165f908152600e60205260409020600201546001600160a01b0316155b6118ec575f80fd5b63ffffffff82165f908152600e602052604090205461190f90608083901b6123ac565b63ffffffff83165f908152600e602090815260408083208490553383529082905290205460809190911c111561088f575f80fd5b61194e600954611f73565b15611957575f80fd5b335f90815260156020526040902054620186a514611973575f80fd5b61088f81836001600160801b03166121e4565b834211156119d65760405162461bcd60e51b815260206004820152601d60248201527f45524332305065726d69743a206578706972656420646561646c696e6500000060448201526064016117d7565b5f7f6e71edae12b1b97f4d1f60370fef10105fa2faae0126114a169c64845d6126c9888888611a048c612858565b6040805160208101969096526001600160a01b0394851690860152929091166060840152608083015260a082015260c0810186905260e0016040516020818303038152906040528051906020012090505f611a5e8261287f565b90505f611a6d828787876128ab565b9050896001600160a01b0316816001600160a01b031614611ad05760405162461bcd60e51b815260206004820152601e60248201527f45524332305065726d69743a20696e76616c6964207369676e6174757265000060448201526064016117d7565b611adb8a8a8a611f91565b50505050505050505050565b611af2600954611f73565b611afa575f80fd5b601254600f5460105460ff84165f908152600a60205260409020600101546001600160a01b039093169263a7fed925929190611b4790600160801b90046001600160781b031660026131f3565b611b5590600160801b612f95565b611b6090600a612fe7565b6040517fffffffff0000000000000000000000000000000000000000000000000000000060e086901b168152600481019390935260248301919091526044820152606401602060405180830381865afa158015611bbf573d5f803e3d5ffd5b505050506040513d601f19601f82011682018060405250810190611be39190612f4f565b158015611c12575060ff81165f908152600a60205260409020546001600160a01b0316336001600160a01b0316145b611c1a575f80fd5b60ff8082165f908152600a60205260408120600101549091611c4f91600160f81b8104909116906001600160801b0316613207565b60ff83165f908152600a6020526040812060010180549293508392909190611c819084906001600160801b0316612fc8565b92506101000a8154816001600160801b0302191690836001600160801b031602179055506001600a5f8460ff1663ffffffff1681526020019081526020015f2060010160108282829054906101000a90046001600160781b0316611ce59190613234565b92506101000a8154816001600160781b0302191690836001600160781b03160217905550611d22611d133390565b826001600160801b03166121e4565b604080516001600160801b038316815260ff841660208201527f83592ad363894b5c4d81b2113457c5a1683230ce1c133eefa927d17f65cd5ca09101610afa565b611d6e600954611f73565b611d76575f80fd5b6011546001600160a01b0316336001600160a01b031614611d95575f80fd5b60405163a9059cbb60e01b81526001600160a01b038281166004830152602482018490527f0000000000000000000000000000000000000000000000000000000000000000169063a9059cbb906044016020604051808303815f875af1158015611e01573d5f803e3d5ffd5b505050506040513d601f19601f82011682018060405250810190611e259190612f4f565b505050565b335f908152601560205260409020546001148015611e5f57506001600160a01b038281165f9081526014602052604090205416155b8015611e7d5750806001600160a01b0316826001600160a01b031614155b1561088f576001600160a01b038281165f8181526014602090815260409182902080546001600160a01b031916948616948517905581519283528201929092527f0b5e322b4b5330962013e8d6519462c133d50320ee476828060995c1acadef629101610afa565b6011546001600160a01b0316336001600160a01b031614611f04575f80fd5b600f8390556010829055601280546001600160a01b0319166001600160a01b0383169081179091556040805185815260208101859052908101919091527f2c13ec80363c5c6acca850e78e87c50c5f15ae0398a319963393eeb01c11045d9060600160405180910390a1505050565b5f60ff82901c60018114611f87575f611f8a565b60015b9392505050565b6001600160a01b038316611ff35760405162461bcd60e51b8152602060048201526024808201527f45524332303a20617070726f76652066726f6d20746865207a65726f206164646044820152637265737360e01b60648201526084016117d7565b6001600160a01b0382166120545760405162461bcd60e51b815260206004820152602260248201527f45524332303a20617070726f766520746f20746865207a65726f206164647265604482015261737360f01b60648201526084016117d7565b6001600160a01b038381165f8181526001602090815260408083209487168084529482529182902085905590518481527f8c5be1e5ebec7d5bd14f71427d1e84f3dd0314c0f7b2291e5b200ac8c7c3b925910160405180910390a3505050565b6001600160a01b0382166121145760405162461bcd60e51b815260206004820152602160248201527f45524332303a206275726e2066726f6d20746865207a65726f206164647265736044820152607360f81b60648201526084016117d7565b6001600160a01b0382165f90815260208190526040902054818110156121875760405162461bcd60e51b815260206004820152602260248201527f45524332303a206275726e20616d6f756e7420657863656564732062616c616e604482015261636560f01b60648201526084016117d7565b6001600160a01b0383165f818152602081815260408083208686039055600280548790039055518581529192917fddf252ad1be2c89b69c2b068fc378daa952ba7f163c4a11628f55a4df523b3ef910160405180910390a3505050565b6001600160a01b03821661223a5760405162461bcd60e51b815260206004820152601f60248201527f45524332303a206d696e7420746f20746865207a65726f20616464726573730060448201526064016117d7565b8060025f82825461224b9190612fe7565b90915550506001600160a01b0382165f81815260208181526040808320805486019055518481527fddf252ad1be2c89b69c2b068fc378daa952ba7f163c4a11628f55a4df523b3ef910160405180910390a35050565b426122ae600b5460801c90565b6122bb9062015180612f0b565b6001600160801b0316101561239057600b546122ea9072015180000000000000000000000000000000006123ac565b600b555f6122fd60066302faf080613253565b63ffffffff1661230c60025490565b116123275761231e6006610ab4613272565b61ffff1661233d565b61477c61233360025490565b61233d9190612f82565b600c5490915061235190608083901b6123ac565b600c819055600b546040517f8288d0d3063eba413cf9eea42df98c32074b7b6d554adf408bdb0546e468c4049261121292908252602082015260400190565b565b918102915f8184046123a3816128d1565b95945050505050565b5f608082811d9084901d036001600160801b03838116908516036123a36123d2836128d1565b610e35836128d1565b6001600160a01b038381165f908152600160209081526040808320938616835292905220545f19811461246557818110156124585760405162461bcd60e51b815260206004820152601d60248201527f45524332303a20696e73756666696369656e7420616c6c6f77616e636500000060448201526064016117d7565b6124658484848403611f91565b50505050565b6001600160a01b0383166124e75760405162461bcd60e51b815260206004820152602560248201527f45524332303a207472616e736665722066726f6d20746865207a65726f20616460448201527f647265737300000000000000000000000000000000000000000000000000000060648201526084016117d7565b6001600160a01b0382166125495760405162461bcd60e51b815260206004820152602360248201527f45524332303a207472616e7366657220746f20746865207a65726f206164647260448201526265737360e81b60648201526084016117d7565b6001600160a01b0383165f90815260208190526040902054818110156125d75760405162461bcd60e51b815260206004820152602660248201527f45524332303a207472616e7366657220616d6f756e742065786365656473206260448201527f616c616e6365000000000000000000000000000000000000000000000000000060648201526084016117d7565b6001600160a01b038481165f81815260208181526040808320878703905593871680835291849020805487019055925185815290927fddf252ad1be2c89b69c2b068fc378daa952ba7f163c4a11628f55a4df523b3ef910160405180910390a3612465565b5f306001600160a01b037f00000000000000000000000000000000000000000000000000000000000000001614801561269457507f000000000000000000000000000000000000000000000000000000000000000046145b156126be57507f000000000000000000000000000000000000000000000000000000000000000090565b610fec604080517f8b73c3c69bb8fe3d512ecc4cf759cc79239f7b179b0ffacaa9a75d522b39400f60208201527f0000000000000000000000000000000000000000000000000000000000000000918101919091527f000000000000000000000000000000000000000000000000000000000000000060608201524660808201523060a08201525f9060c00160405160208183030381529060405280519060200120905090565b5f611f8a836001600160801b0316836001600160801b0316610b948660801c90565b5f611f8a6127958460801c90565b6001600160801b0316836001600160801b0316610b948690565b606060ff83146127c9576127c2836128eb565b9050610846565b8180546127d590612ed9565b80601f016020809104026020016040519081016040528092919081815260200182805461280190612ed9565b801561284c5780601f106128235761010080835404028352916020019161284c565b820191905f5260205f20905b81548152906001019060200180831161282f57829003601f168201915b50505050509050610846565b6001600160a01b0381165f9081526007602052604090208054600181018255905b50919050565b5f61084661288b61263c565b8360405161190160f01b8152600281019290925260228201526042902090565b5f805f6128ba87878787612928565b915091506128c7816129e5565b5095945050505050565b5f6001600160801b038211156128e7575f610846565b5090565b60605f6128f783612b2e565b6040805160208082528183019092529192505f91906020820181803683375050509182525060208101929092525090565b5f807f7fffffffffffffffffffffffffffffff5d576e7357a4501ddfe92f46681b20a083111561295d57505f905060036129dc565b604080515f8082526020820180845289905260ff881692820192909252606081018690526080810185905260019060a0016020604051602081039080840390855afa1580156129ae573d5f803e3d5ffd5b5050604051601f1901519150506001600160a01b0381166129d6575f600192509250506129dc565b91505f90505b94509492505050565b5f8160048111156129f8576129f861328f565b03612a005750565b6001816004811115612a1457612a1461328f565b03612a615760405162461bcd60e51b815260206004820152601860248201527f45434453413a20696e76616c6964207369676e6174757265000000000000000060448201526064016117d7565b6002816004811115612a7557612a7561328f565b03612ac25760405162461bcd60e51b815260206004820152601f60248201527f45434453413a20696e76616c6964207369676e6174757265206c656e6774680060448201526064016117d7565b6003816004811115612ad657612ad661328f565b03610b045760405162461bcd60e51b815260206004820152602260248201527f45434453413a20696e76616c6964207369676e6174757265202773272076616c604482015261756560f01b60648201526084016117d7565b5f60ff8216601f81111561084657604051632cd44ac360e21b815260040160405180910390fd5b6001600160801b0381168114610b04575f80fd5b5f8060408385031215612b7a575f80fd5b823563ffffffff81168114612b8d575f80fd5b91506020830135612b9d81612b55565b809150509250929050565b5f81518084528060208401602086015e5f602082860101526020601f19601f83011685010191505092915050565b602081525f611f8a6020830184612ba8565b6001600160a01b0381168114610b04575f80fd5b5f8060408385031215612c0d575f80fd5b8235612c1881612be8565b946020939093013593505050565b5f8060408385031215612c37575f80fd5b8235612c4281612b55565b91506020830135612b9d81612be8565b5f60208284031215612c62575f80fd5b5035919050565b5f8060408385031215612c7a575f80fd5b8235612b8d81612be8565b5f805f60608486031215612c97575f80fd5b8335612ca281612be8565b92506020840135612cb281612be8565b929592945050506040919091013590565b5f6080828403128015612cd4575f80fd5b509092915050565b5f60208284031215612cec575f80fd5b8135611f8a81612be8565b5f60208284031215612d07575f80fd5b8135611f8a81612b55565b60ff60f81b8816815260e060208201525f612d3060e0830189612ba8565b8281036040840152612d428189612ba8565b606084018890526001600160a01b038716608085015260a0840186905283810360c0850152845180825260208087019350909101905f5b81811015612d97578351835260209384019390920191600101612d79565b50909b9a5050505050505050505050565b60ff81168114610b04575f80fd5b5f60208284031215612dc6575f80fd5b8135611f8a81612da8565b5f8060408385031215612de2575f80fd5b8235612c4281612be8565b5f805f805f805f60e0888a031215612e03575f80fd5b8735612e0e81612be8565b96506020880135612e1e81612be8565b955060408801359450606088013593506080880135612e3c81612da8565b9699959850939692959460a0840135945060c09093013592915050565b5f8060408385031215612e6a575f80fd5b823591506020830135612b9d81612be8565b5f805f60608486031215612e8e575f80fd5b83359250602084013591506040840135612ea781612be8565b809150509250925092565b634e487b7160e01b5f52601160045260245ffd5b8181038181111561084657610846612eb2565b600181811c90821680612eed57607f821691505b60208210810361287957634e487b7160e01b5f52602260045260245ffd5b6001600160801b03818116838216019081111561084657610846612eb2565b62ffffff8181168382160290811690818114612f4857612f48612eb2565b5092915050565b5f60208284031215612f5f575f80fd5b81518015158114611f8a575f80fd5b634e487b7160e01b5f52601260045260245ffd5b5f82612f9057612f90612f6e565b500490565b808202811582820484141761084657610846612eb2565b63ffffffff818116838216019081111561084657610846612eb2565b6001600160801b03828116828216039081111561084657610846612eb2565b8082018082111561084657610846612eb2565b6001600160781b0381168114610b04575f80fd5b813561301981612be8565b6001600160a01b0381166001600160a01b03198354161782555060018101602083013561304581612b55565b8154604085013561305581612ffa565b7effffffffffffffffffffffffffffff000000000000000000000000000000008160801b166001600160801b03841660ff60f81b8416171784555050505f60608401356130a181612da8565b82547effffffffffffffffffffffffffffffffffffffffffffffffffffffffffffff1660f89190911b7fff000000000000000000000000000000000000000000000000000000000000001617909155505050565b5f60208284031215613105575f80fd5b8135611f8a81612ffa565b6001815b600184111561314b5780850481111561312f5761312f612eb2565b600184161561313d57908102905b60019390931c928002613114565b935093915050565b5f8261316157506001610846565b8161316d57505f610846565b8160018114613183576002811461318d576131a9565b6001915050610846565b60ff84111561319e5761319e612eb2565b50506001821b610846565b5060208310610133831016604e8410600b84101617156131cc575081810a610846565b6131d85f198484613110565b805f19048211156131eb576131eb612eb2565b029392505050565b5f611f8a6001600160781b03841683613153565b5f6001600160801b0383168061321f5761321f612f6e565b806001600160801b0384160491505092915050565b6001600160781b03818116838216019081111561084657610846612eb2565b63ffffffff8181168382160290811690818114612f4857612f48612eb2565b61ffff8181168382160290811690818114612f4857612f48612eb2565b634e487b7160e01b5f52602160045260245ffdfea2646970667358221220e3ef55a5e4b686d91574cfa4cd2fd5689567489f302af4f18240317345ab74ca64736f6c634300081a0033","linkReferences":{}},"methodIdentifiers":{"DOMAIN_SEPARATOR()":"3644e515","addShare((address,uint128,uint120,uint8))":"3b107e21","addauths(address,uint256)":"542128dd","addreferral(address,address)":"eca93cce","allowance(address,address)":"dd62ed3e","approve(address,uint256)":"095ea7b3","balanceOf(address)":"70a08231","burn(address,uint256)":"9dc29fac","burnShare(uint8)":"9241bda6","chain_deposit(uint32,uint128)":"01bddf1b","chain_withdraw(uint32,uint128)":"c3bb7fff","changeDAOAdmin(address)":"3cba316b","decimals()":"313ce567","decreaseAllowance(address,uint256)":"a457c2d7","eip712Domain()":"84b0196e","getreferral(address)":"a985901a","getreferralanddaoadmin(address)":"b88e6d63","increaseAllowance(address,uint256)":"39509351","isauths(address)":"94c3c333","left_share()":"45fda707","name()":"06fdde03","nonces(address)":"7ecebe00","permit(address,address,uint256,uint256,uint8,bytes32,bytes32)":"d505accf","publicSell(uint256)":"0fffe72f","publicsell()":"de5712d4","rmauths(address)":"69a5ac32","setEnv(uint256,uint256,address)":"f6f9b80d","setMainTriggerMarket(address,address)":"b3e08a69","shareMint(uint8)":"df876548","stake(address,uint128)":"19f8d5b4","subchainDeposit(uint128,address)":"cd993b11","subchainWithdraw(uint128,address)":"0a4273e6","symbol()":"95d89b41","syncChainStake(uint32,uint128)":"30fd6b29","syncPoolAsset(uint128)":"6c0deba1","totalSupply()":"18160ddd","transfer(address,uint256)":"a9059cbb","transferFrom(address,address,uint256)":"23b872dd","ttstokenconfig()":"623059a5","unstake(address,uint128)":"7bd3ca35","usdt()":"2f48ab7d","withdrawPublicSell(uint256,address)":"e7b43e7d"},"id":58}