{"abi":[{"type":"constructor","inputs":[{"name":"_marketconfig","type":"uint256","internalType":"uint256"},{"name":"_officialTokenContract","type":"address","internalType":"address"},{"name":"_marketcreator","type":"address","internalType":"address"},{"name":"_securitykeeper","type":"address","internalType":"address"}],"stateMutability":"nonpayable"},{"type":"receive","stateMutability":"payable"},{"type":"function","name":"addbanlist","inputs":[{"name":"_user","type":"address","internalType":"address"}],"outputs":[{"name":"","type":"bool","internalType":"bool"}],"stateMutability":"nonpayable"},{"type":"function","name":"allowance","inputs":[{"name":"","type":"address","internalType":"address"},{"name":"","type":"address","internalType":"address"},{"name":"","type":"uint256","internalType":"uint256"}],"outputs":[{"name":"","type":"uint256","internalType":"uint256"}],"stateMutability":"view"},{"type":"function","name":"approve","inputs":[{"name":"spender","type":"address","internalType":"address"},{"name":"id","type":"uint256","internalType":"uint256"},{"name":"amount","type":"uint256","internalType":"uint256"}],"outputs":[{"name":"","type":"bool","internalType":"bool"}],"stateMutability":"nonpayable"},{"type":"function","name":"balanceOf","inputs":[{"name":"","type":"address","internalType":"address"},{"name":"","type":"uint256","internalType":"uint256"}],"outputs":[{"name":"","type":"uint256","internalType":"uint256"}],"stateMutability":"view"},{"type":"function","name":"buyGood","inputs":[{"name":"_goodid1","type":"address","internalType":"address"},{"name":"_goodid2","type":"address","internalType":"address"},{"name":"_swapQuantity","type":"uint128","internalType":"uint128"},{"name":"_tradetimes","type":"uint128","internalType":"uint128"},{"name":"_recipent","type":"address","internalType":"address"},{"name":"data","type":"bytes","internalType":"bytes"}],"outputs":[{"name":"good1change","type":"uint256","internalType":"uint256"},{"name":"good2change","type":"uint256","internalType":"uint256"}],"stateMutability":"payable"},{"type":"function","name":"buyGoodCheck","inputs":[{"name":"_goodid1","type":"address","internalType":"address"},{"name":"_goodid2","type":"address","internalType":"address"},{"name":"_swapQuantity","type":"uint128","internalType":"uint128"},{"name":"_tradetimes","type":"uint128","internalType":"uint128"}],"outputs":[{"name":"good1change","type":"uint256","internalType":"uint256"},{"name":"good2change","type":"uint256","internalType":"uint256"}],"stateMutability":"view"},{"type":"function","name":"changeGoodOwner","inputs":[{"name":"_goodid","type":"address","internalType":"address"},{"name":"_to","type":"address","internalType":"address"}],"outputs":[],"stateMutability":"nonpayable"},{"type":"function","name":"changeReStakingContrat","inputs":[{"name":"_target","type":"address","internalType":"address"}],"outputs":[],"stateMutability":"nonpayable"},{"type":"function","name":"changemarketcreator","inputs":[{"name":"_newmarketor","type":"address","internalType":"address"}],"outputs":[],"stateMutability":"nonpayable"},{"type":"function","name":"collectCommission","inputs":[{"name":"_goodid","type":"address[]","internalType":"address[]"}],"outputs":[],"stateMutability":"nonpayable"},{"type":"function","name":"disinvestProof","inputs":[{"name":"_proofid","type":"uint256","internalType":"uint256"},{"name":"_goodQuantity","type":"uint128","internalType":"uint128"},{"name":"_gater","type":"address","internalType":"address"}],"outputs":[{"name":"","type":"uint128","internalType":"uint128"},{"name":"","type":"uint128","internalType":"uint128"}],"stateMutability":"nonpayable"},{"type":"function","name":"flashFee","inputs":[{"name":"token","type":"address","internalType":"address"},{"name":"amount","type":"uint256","internalType":"uint256"}],"outputs":[{"name":"","type":"uint256","internalType":"uint256"}],"stateMutability":"view"},{"type":"function","name":"flashLoan","inputs":[{"name":"receiver","type":"address","internalType":"contract IERC3156FlashBorrower"},{"name":"token","type":"address","internalType":"address"},{"name":"amount","type":"uint256","internalType":"uint256"},{"name":"data","type":"bytes","internalType":"bytes"}],"outputs":[{"name":"","type":"bool","internalType":"bool"}],"stateMutability":"nonpayable"},{"type":"function","name":"getGoodState","inputs":[{"name":"goodkey","type":"address","internalType":"address"}],"outputs":[{"name":"","type":"tuple","internalType":"struct S_GoodTmpState","components":[{"name":"goodConfig","type":"uint256","internalType":"uint256"},{"name":"owner","type":"address","internalType":"address"},{"name":"currentState","type":"uint256","internalType":"uint256"},{"name":"investState","type":"uint256","internalType":"uint256"},{"name":"feeQuantityState","type":"uint256","internalType":"uint256"}]}],"stateMutability":"view"},{"type":"function","name":"getProofState","inputs":[{"name":"proofid","type":"uint256","internalType":"uint256"}],"outputs":[{"name":"","type":"tuple","internalType":"struct S_ProofState","components":[{"name":"currentgood","type":"address","internalType":"address"},{"name":"valuegood","type":"address","internalType":"address"},{"name":"state","type":"uint256","internalType":"uint256"},{"name":"invest","type":"uint256","internalType":"uint256"},{"name":"valueinvest","type":"uint256","internalType":"uint256"}]}],"stateMutability":"view"},{"type":"function","name":"getRecentGoodState","inputs":[{"name":"good1","type":"address","internalType":"address"},{"name":"good2","type":"address","internalType":"address"}],"outputs":[{"name":"","type":"uint256","internalType":"uint256"},{"name":"","type":"uint256","internalType":"uint256"}],"stateMutability":"view"},{"type":"function","name":"goodWelfare","inputs":[{"name":"goodid","type":"address","internalType":"address"},{"name":"welfare","type":"uint128","internalType":"uint128"},{"name":"data","type":"bytes","internalType":"bytes"}],"outputs":[],"stateMutability":"payable"},{"type":"function","name":"initGood","inputs":[{"name":"_valuegood","type":"address","internalType":"address"},{"name":"_initial","type":"uint256","internalType":"uint256"},{"name":"_erc20address","type":"address","internalType":"address"},{"name":"_goodConfig","type":"uint256","internalType":"uint256"},{"name":"_normaldata","type":"bytes","internalType":"bytes"},{"name":"_valuedata","type":"bytes","internalType":"bytes"}],"outputs":[{"name":"","type":"bool","internalType":"bool"}],"stateMutability":"payable"},{"type":"function","name":"initMetaGood","inputs":[{"name":"_erc20address","type":"address","internalType":"address"},{"name":"_initial","type":"uint256","internalType":"uint256"},{"name":"_goodConfig","type":"uint256","internalType":"uint256"},{"name":"data","type":"bytes","internalType":"bytes"}],"outputs":[{"name":"","type":"bool","internalType":"bool"}],"stateMutability":"payable"},{"type":"function","name":"investGood","inputs":[{"name":"_togood","type":"address","internalType":"address"},{"name":"_valuegood","type":"address","internalType":"address"},{"name":"_quantity","type":"uint128","internalType":"uint128"},{"name":"data1","type":"bytes","internalType":"bytes"},{"name":"data2","type":"bytes","internalType":"bytes"}],"outputs":[{"name":"","type":"bool","internalType":"bool"}],"stateMutability":"payable"},{"type":"function","name":"isOperator","inputs":[{"name":"","type":"address","internalType":"address"},{"name":"","type":"address","internalType":"address"}],"outputs":[{"name":"","type":"bool","internalType":"bool"}],"stateMutability":"view"},{"type":"function","name":"ishigher","inputs":[{"name":"goodid","type":"address","internalType":"address"},{"name":"valuegood","type":"address","internalType":"address"},{"name":"compareprice","type":"uint256","internalType":"uint256"}],"outputs":[{"name":"","type":"bool","internalType":"bool"}],"stateMutability":"view"},{"type":"function","name":"marketconfig","inputs":[],"outputs":[{"name":"","type":"uint256","internalType":"uint256"}],"stateMutability":"view"},{"type":"function","name":"marketcreator","inputs":[],"outputs":[{"name":"","type":"address","internalType":"address"}],"stateMutability":"view"},{"type":"function","name":"maxFlashLoan","inputs":[{"name":"good","type":"address","internalType":"address"}],"outputs":[{"name":"","type":"uint256","internalType":"uint256"}],"stateMutability":"view"},{"type":"function","name":"modifyGoodConfig","inputs":[{"name":"_goodid","type":"address","internalType":"address"},{"name":"_goodConfig","type":"uint256","internalType":"uint256"}],"outputs":[{"name":"","type":"bool","internalType":"bool"}],"stateMutability":"nonpayable"},{"type":"function","name":"multicall","inputs":[{"name":"data","type":"bytes[]","internalType":"bytes[]"}],"outputs":[{"name":"results","type":"bytes[]","internalType":"bytes[]"}],"stateMutability":"payable"},{"type":"function","name":"queryCommission","inputs":[{"name":"_goodid","type":"address[]","internalType":"address[]"},{"name":"_recipent","type":"address","internalType":"address"}],"outputs":[{"name":"","type":"uint256[]","internalType":"uint256[]"}],"stateMutability":"view"},{"type":"function","name":"removeSecurityKeeper","inputs":[],"outputs":[],"stateMutability":"nonpayable"},{"type":"function","name":"removebanlist","inputs":[{"name":"_user","type":"address","internalType":"address"}],"outputs":[{"name":"","type":"bool","internalType":"bool"}],"stateMutability":"nonpayable"},{"type":"function","name":"securityKeeper","inputs":[{"name":"token","type":"address","internalType":"address"}],"outputs":[],"stateMutability":"nonpayable"},{"type":"function","name":"setAuth","inputs":[{"name":"_newmarketor","type":"address","internalType":"address"},{"name":"auth","type":"uint256","internalType":"uint256"}],"outputs":[],"stateMutability":"nonpayable"},{"type":"function","name":"setMarketConfig","inputs":[{"name":"_marketconfig","type":"uint256","internalType":"uint256"}],"outputs":[{"name":"","type":"bool","internalType":"bool"}],"stateMutability":"nonpayable"},{"type":"function","name":"setOperator","inputs":[{"name":"operator","type":"address","internalType":"address"},{"name":"approved","type":"bool","internalType":"bool"}],"outputs":[{"name":"","type":"bool","internalType":"bool"}],"stateMutability":"nonpayable"},{"type":"function","name":"stakeETH","inputs":[{"name":"token","type":"address","internalType":"address"},{"name":"amount","type":"uint128","internalType":"uint128"}],"outputs":[],"stateMutability":"nonpayable"},{"type":"function","name":"supportsInterface","inputs":[{"name":"interfaceId","type":"bytes4","internalType":"bytes4"}],"outputs":[{"name":"","type":"bool","internalType":"bool"}],"stateMutability":"view"},{"type":"function","name":"syncReward","inputs":[{"name":"token","type":"address","internalType":"address"}],"outputs":[],"stateMutability":"nonpayable"},{"type":"function","name":"transfer","inputs":[{"name":"receiver","type":"address","internalType":"address"},{"name":"id","type":"uint256","internalType":"uint256"},{"name":"amount","type":"uint256","internalType":"uint256"}],"outputs":[{"name":"","type":"bool","internalType":"bool"}],"stateMutability":"nonpayable"},{"type":"function","name":"transferFrom","inputs":[{"name":"sender","type":"address","internalType":"address"},{"name":"receiver","type":"address","internalType":"address"},{"name":"id","type":"uint256","internalType":"uint256"},{"name":"amount","type":"uint256","internalType":"uint256"}],"outputs":[{"name":"","type":"bool","internalType":"bool"}],"stateMutability":"nonpayable"},{"type":"function","name":"unstakeETH","inputs":[{"name":"token","type":"address","internalType":"address"},{"name":"amount","type":"uint128","internalType":"uint128"}],"outputs":[],"stateMutability":"nonpayable"},{"type":"function","name":"updateGoodConfig","inputs":[{"name":"_goodid","type":"address","internalType":"address"},{"name":"_goodConfig","type":"uint256","internalType":"uint256"}],"outputs":[{"name":"","type":"bool","internalType":"bool"}],"stateMutability":"nonpayable"},{"type":"function","name":"userConfig","inputs":[{"name":"","type":"address","internalType":"address"}],"outputs":[{"name":"","type":"uint256","internalType":"uint256"}],"stateMutability":"view"},{"type":"event","name":"Approval","inputs":[{"name":"owner","type":"address","indexed":true,"internalType":"address"},{"name":"spender","type":"address","indexed":true,"internalType":"address"},{"name":"id","type":"uint256","indexed":true,"internalType":"uint256"},{"name":"amount","type":"uint256","indexed":false,"internalType":"uint256"}],"anonymous":false},{"type":"event","name":"OperatorSet","inputs":[{"name":"owner","type":"address","indexed":true,"internalType":"address"},{"name":"operator","type":"address","indexed":true,"internalType":"address"},{"name":"approved","type":"bool","indexed":false,"internalType":"bool"}],"anonymous":false},{"type":"event","name":"Transfer","inputs":[{"name":"caller","type":"address","indexed":false,"internalType":"address"},{"name":"from","type":"address","indexed":true,"internalType":"address"},{"name":"to","type":"address","indexed":true,"internalType":"address"},{"name":"id","type":"uint256","indexed":true,"internalType":"uint256"},{"name":"amount","type":"uint256","indexed":false,"internalType":"uint256"}],"anonymous":false},{"type":"event","name":"e_buyGood","inputs":[{"name":"sellgood","type":"address","indexed":true,"internalType":"address"},{"name":"forgood","type":"address","indexed":true,"internalType":"address"},{"name":"swapvalue","type":"uint256","indexed":false,"internalType":"uint256"},{"name":"good1change","type":"uint256","indexed":false,"internalType":"uint256"},{"name":"good2change","type":"uint256","indexed":false,"internalType":"uint256"}],"anonymous":false},{"type":"event","name":"e_changegoodowner","inputs":[{"name":"goodid","type":"address","indexed":false,"internalType":"address"},{"name":"to","type":"address","indexed":false,"internalType":"address"}],"anonymous":false},{"type":"event","name":"e_changemarketcreator","inputs":[{"name":"_newmarketor","type":"address","indexed":false,"internalType":"address"}],"anonymous":false},{"type":"event","name":"e_collectProof","inputs":[{"name":"_proofNo","type":"uint256","indexed":true,"internalType":"uint256"},{"name":"_normalGoodNo","type":"address","indexed":false,"internalType":"address"},{"name":"_valueGoodNo","type":"address","indexed":false,"internalType":"address"},{"name":"_profit","type":"uint256","indexed":false,"internalType":"uint256"}],"anonymous":false},{"type":"event","name":"e_collectProtocolFee","inputs":[{"name":"goodid","type":"address","indexed":false,"internalType":"address"},{"name":"feeamount","type":"uint256","indexed":false,"internalType":"uint256"}],"anonymous":false},{"type":"event","name":"e_collectcommission","inputs":[{"name":"_gooid","type":"address[]","indexed":false,"internalType":"address[]"},{"name":"_commisionamount","type":"uint256[]","indexed":false,"internalType":"uint256[]"}],"anonymous":false},{"type":"event","name":"e_disinvestProof","inputs":[{"name":"_proofNo","type":"uint256","indexed":true,"internalType":"uint256"},{"name":"_normalGoodNo","type":"address","indexed":false,"internalType":"address"},{"name":"_valueGoodNo","type":"address","indexed":false,"internalType":"address"},{"name":"_value","type":"uint256","indexed":false,"internalType":"uint256"},{"name":"_normalgood","type":"uint256","indexed":false,"internalType":"uint256"},{"name":"_valuegood","type":"uint256","indexed":false,"internalType":"uint256"},{"name":"_profit","type":"uint256","indexed":false,"internalType":"uint256"}],"anonymous":false},{"type":"event","name":"e_goodWelfare","inputs":[{"name":"goodid","type":"address","indexed":false,"internalType":"address"},{"name":"welfare","type":"uint128","indexed":false,"internalType":"uint128"}],"anonymous":false},{"type":"event","name":"e_initGood","inputs":[{"name":"_proofNo","type":"uint256","indexed":false,"internalType":"uint256"},{"name":"_goodid","type":"address","indexed":false,"internalType":"address"},{"name":"_valuegoodNo","type":"address","indexed":false,"internalType":"address"},{"name":"_goodConfig","type":"uint256","indexed":false,"internalType":"uint256"},{"name":"_construct","type":"uint256","indexed":false,"internalType":"uint256"},{"name":"_normalinitial","type":"uint256","indexed":false,"internalType":"uint256"},{"name":"_value","type":"uint256","indexed":false,"internalType":"uint256"}],"anonymous":false},{"type":"event","name":"e_initMetaGood","inputs":[{"name":"_proofNo","type":"uint256","indexed":false,"internalType":"uint256"},{"name":"_goodid","type":"address","indexed":false,"internalType":"address"},{"name":"_construct","type":"uint256","indexed":false,"internalType":"uint256"},{"name":"_goodConfig","type":"uint256","indexed":false,"internalType":"uint256"},{"name":"_initial","type":"uint256","indexed":false,"internalType":"uint256"}],"anonymous":false},{"type":"event","name":"e_investGood","inputs":[{"name":"_proofNo","type":"uint256","indexed":true,"internalType":"uint256"},{"name":"_normalgoodid","type":"address","indexed":false,"internalType":"address"},{"name":"_valueGoodNo","type":"address","indexed":false,"internalType":"address"},{"name":"_value","type":"uint256","indexed":false,"internalType":"uint256"},{"name":"_invest","type":"uint256","indexed":false,"internalType":"uint256"},{"name":"_valueinvest","type":"uint256","indexed":false,"internalType":"uint256"}],"anonymous":false},{"type":"event","name":"e_modifiedUserConfig","inputs":[{"name":"_user","type":"address","indexed":false,"internalType":"address"},{"name":"config","type":"uint256","indexed":false,"internalType":"uint256"}],"anonymous":false},{"type":"event","name":"e_modifyGoodConfig","inputs":[{"name":"_goodid","type":"address","indexed":false,"internalType":"address"},{"name":"_goodconfig","type":"uint256","indexed":false,"internalType":"uint256"}],"anonymous":false},{"type":"event","name":"e_setMarketConfig","inputs":[{"name":"_marketconfig","type":"uint256","indexed":false,"internalType":"uint256"}],"anonymous":false},{"type":"event","name":"e_transferdel","inputs":[{"name":"delproofid","type":"uint256","indexed":false,"internalType":"uint256"},{"name":"existsproofid","type":"uint256","indexed":false,"internalType":"uint256"}],"anonymous":false},{"type":"event","name":"e_updateGoodConfig","inputs":[{"name":"_goodid","type":"address","indexed":false,"internalType":"address"},{"name":"_goodConfig","type":"uint256","indexed":false,"internalType":"uint256"}],"anonymous":false},{"type":"error","name":"ApproveFailed","inputs":[]},{"type":"error","name":"ERC20PermitFailed","inputs":[]},{"type":"error","name":"ERC20TransferFailed","inputs":[]},{"type":"error","name":"ERC3156ExceededMaxLoan","inputs":[{"name":"maxLoan","type":"uint256","internalType":"uint256"}]},{"type":"error","name":"ERC3156InvalidReceiver","inputs":[{"name":"receiver","type":"address","internalType":"address"}]},{"type":"error","name":"ERC3156UnsupportedToken","inputs":[{"name":"token","type":"address","internalType":"address"}]},{"type":"error","name":"NativeETHTransferFailed","inputs":[]},{"type":"error","name":"TTSwapError","inputs":[{"name":"seq","type":"uint256","internalType":"uint256"}]}],"bytecode":{"object":"0x60a0346100c857601f615b6138819003918201601f19168301916001600160401b038311848410176100cc578084926080946040528339810103126100c85780519061004d602082016100e0565b91610066606061005f604085016100e0565b93016100e0565b608093909352600755600880546001600160a01b039283166001600160a01b03199182161790915560098054929093169116179055604051615a6c90816100f5823960805181818161133f01528181612c2e0152818161317d015261351e0152f35b5f80fd5b634e487b7160e01b5f52604160045260245ffd5b51906001600160a01b03821682036100c85756fe6080604052600436101561001a575b3615610018575f80fd5b005b5f3560e01c8062796f71146102b7578062fdd58e146102b257806301ffc9a7146102ad57806306cf4e7f146102a857806308238466146102a3578063095bcdb61461029e5780630d2700ab14610299578063119ac094146102945780631412723a1461028f5780633bd164361461028a5780633c9fe544146102855780633d995173146102805780633f1177401461027b578063402f5ab51461027657806341e1237314610271578063426a84931461026c57806345818e4c1461026757806351ff9a1614610262578063558a72971461025d578063598af9e7146102585780635cffe9de146102535780635f35b0b31461024e5780635f755d6514610249578063613255ab1461024457806373db17921461023f57806381a860d11461023a5780638c706eb5146102355780639551177a146102305780639b2227941461022b578063a06ad0e814610226578063a3b74a4914610221578063ac9650d81461021c578063b153b92014610217578063b1efb92114610212578063b6363cf21461020d578063c9544f1814610208578063d9d98ce414610203578063f151e786146101fe578063f4662f20146101f9578063f878e809146101f4578063fa704db2146101ef5763fe99049a0361000e576124f0565b61248a565b612042565b611fc1565b611f1e565b611ed2565b611e9e565b611e56565b611de2565b611d6e565b611d07565b611be5565b611b6b565b611a9f565b6119d7565b611945565b611816565b611698565b611642565b6115c7565b61158c565b6114f1565b6114a1565b611405565b6111e7565b611185565b611104565b611067565b61104a565b610f8c565b610f64565b610e89565b610b6b565b610abb565b610a2a565b61088a565b6106b5565b6105ac565b610441565b6103ad565b610364565b6102f9565b6001600160a01b038116036102cd57565b5f80fd5b60409060031901126102cd576004356102e9816102bc565b906024356102f6816102bc565b90565b346102cd57610307366102d1565b6001600160a01b039182165f9081526003602090815260408083206002908101549590941683529182902090920154815193845291830191909152819081015b0390f35b6001600160a01b03165f90815260036020526040902090565b346102cd5760403660031901126102cd57600435610381816102bc565b6024359060018060a01b03165f52600160205260405f20905f52602052602060405f2054604051908152f35b346102cd5760203660031901126102cd5760043563ffffffff60e01b81168091036102cd576020906301ffc9a760e01b81149081156103f2575b506040519015158152f35b630f632fb360e01b1490505f6103e7565b6001600160801b038116036102cd57565b9181601f840112156102cd578235916001600160401b0383116102cd57602083818601950101116102cd57565b60603660031901126102cd57600435610459816102bc565b60243561046581610403565b6044356001600160401b0381116102cd57610484903690600401610414565b92905f5160206159f75f395f51905f525c6001600160a01b031661059857335f5160206159f75f395f51905f525d6104ba613916565b6001600160a01b0382165f908152600360205260409020600401546001606d1b906001600160801b03906104f790869060801c6126a5565b6126a5565b161015610584577f0dc5e2150c5754dc0bcd8d76ca2d23850fc9a2a3115c69bb4fbdbedc25074a0093610535916001600160801b0385163385613a08565b61055560046105438361034b565b015461054f8460801b90565b90613f69565b60046105608361034b565b0155610571604051928392836126be565b0390a161057c613973565b6100186138f3565b63d1b5191160e01b5f52600c60045260245ffd5b63d1b5191160e01b5f52600360045260245ffd5b346102cd5760203660031901126102cd576103476004356105cc816102bc565b6105d46126e1565b506001600160a01b038181165f9081526003602052604090208054600190910154909291169060026106058261034b565b01546106406004610622600361061a8661034b565b01549461034b565b01549361062d6107be565b9586526001600160a01b03166020860152565b6040840152606083015260808201526040519182918291909160808060a08301948051845260018060a01b03602082015116602085015260408101516040850152606081015160608501520151910152565b60609060031901126102cd576004356106aa816102bc565b906024359060443590565b346102cd576106c336610692565b9091335f52600160205260405f20835f5260205260405f20805490838203918211610749575560018060a01b031690815f52600160205261070f8360405f20905f5260205260405f2090565b61071a828254612726565b90555f5160206159d75f395f51905f526040518061073a33943383612733565b0390a460405160018152602090f35b612691565b634e487b7160e01b5f52604160045260245ffd5b60a081019081106001600160401b0382111761077d57604052565b61074e565b604081019081106001600160401b0382111761077d57604052565b90601f801991011681019081106001600160401b0382111761077d57604052565b604051906107cd60a08361079d565b565b604051906107cd6101008361079d565b604051906107cd60608361079d565b604051906107cd60408361079d565b604051906107cd60808361079d565b6001600160401b03811161077d5760051b60200190565b9080601f830112156102cd57813561083a8161080c565b92610848604051948561079d565b81845260208085019260051b8201019283116102cd57602001905b8282106108705750505090565b60208091833561087f816102bc565b815201910190610863565b346102cd5760203660031901126102cd576004356001600160401b0381116102cd576108ba903690600401610823565b5f5160206159f75f395f51905f525c6001600160a01b031661059857335f5160206159f75f395f51905f525d6108ee613916565b6064815111610a1657610901815161274e565b5f5b82518110156109e45760019061094d336005610937610932610925868a612794565b516001600160a01b031690565b61034b565b019060018060a01b03165f5260205260405f2090565b546109588285612794565b5260026109658285612794565b51101561097f575f6109778285612794565b525b01610903565b61099261098c8285612794565b5161270b565b61099c8285612794565b526109bc6109b6336005610937610932610925878b612794565b60019055565b6109df6109cc6109258387612794565b6109d68386612794565b51903390613f92565b610979565b507f477bb716eacccc001de50dcdd6e25241283d080e6afb27443908b20f4e738b5e91610571604051928392836127ad565b63d1b5191160e01b5f52600b60045260245ffd5b346102cd5760203660031901126102cd57600435610a47816102bc565b6008546001600160a01b03163303610a7b57600a80546001600160a01b0319166001600160a01b0392909216919091179055005b63d1b5191160e01b5f52600160045260245ffd5b60609060031901126102cd57600435610aa7816102bc565b90602435610ab4816102bc565b9060443590565b346102cd57610b44610acc36610a8f565b6001600160a01b039283165f908152600360205260408082206002908101549590941682529020909101549291610b3a90610b27610b176001600160801b038716608084901c613432565b6001600160801b03851690613432565b9460801c906001600160801b0316613432565b9060801c90613432565b1015610b625761034760015b60405190151581529081906020820190565b6103475f610b50565b346102cd5760803660031901126102cd57600435610b88816102bc565b60243590610b95826102bc565b60443591610ba283610403565b60643592610baf84610403565b6002610bba8461034b565b0154158015610e75575b8015610e64575b8015610e4f575b8015610e3c575b610e285760646001600160801b0385161015610d4057610c056002610bfd8561034b565b01549361034b565b5491610c69610c206002610c188461034b565b01549261034b565b5495610c2a6107cf565b6001600160801b03851681529260208401955f875260408501975f89525f6060870152608086015260a085015260c084015260e08301968752826142dc565b8051610c8a906001600160801b031685516001600160801b03165b906126a5565b6001600160801b0383811691161015610d2c57610cf8610ce8610d1292610cd8610cd895610cd2610cc4610d199a5160018060801b031690565b93516001600160801b031690565b90612857565b60018060801b03169060801b1790565b955193516001600160801b031690565b926001600160801b038416607f6127109260cc1c16020490565b8092612857565b905b604080519182526020820192909252f35b63d1b5191160e01b5f52602260045260245ffd5b610dd1610dc5610d5c6002610d548761034b565b01549561034b565b5493610db8610d6f6002610c188461034b565b5497610d796107cf565b6001600160801b03871681529260208401975f895260408501995f8b525f6060870152608086015260a085015260c084015260e0830198895282614041565b516001600160801b031690565b6001600160801b031690565b610e1457610e07610cf8610ce8610cd893610df5610e0e975160018060801b031690565b60801b6001600160801b039091161790565b80926126a5565b90610d1b565b63d1b5191160e01b5f52602160045260245ffd5b63d1b5191160e01b5f52602360045260245ffd5b5060c86001600160801b03851611610bd9565b506001600160a01b0383811690831614610bd2565b506001600160801b03811615610bcb565b506002610e818361034b565b015415610bc4565b346102cd5760203660031901126102cd57600435610ea6816102bc565b610eae613916565b6009546001600160a01b031633036102cd57610f529060018060a01b0381165f526003602052610f31610f01610dc5610eee600460405f20015460801c90565b6004610ef98661034b565b015490612857565b5f6004610f0d8561034b565b0155610f2b6002610f1d8561034b565b01546001600160801b031690565b90612726565b905f6002610f3e8361034b565b01556009546001600160a01b031690613f92565b610018613973565b5f9103126102cd57565b346102cd575f3660031901126102cd576008546040516001600160a01b039091168152602090f35b346102cd5760203660031901126102cd57600435610fa86126e1565b505f52600460205261034760405f20600460405191610fc683610762565b60018060a01b03815416835260018060a01b0360018201541660208401526002810154604084015260038101546060840152015460808201526040519182918291909160808060a083019460018060a01b03815116845260018060a01b03602082015116602085015260408101516040850152606081015160608501520151910152565b346102cd575f3660031901126102cd576020600754604051908152f35b346102cd57611075366102d1565b335f526005602052600260405f205416156110f0577f42e3c955499470d3dc1078d90519d90691c504c8856ea058daf2c1436c2dab4c9160018060a01b0381165f5260036020526110cc82600160405f2001612807565b604080516001600160a01b039283168152929091166020830152819081015b0390a1005b63d1b5191160e01b5f52600260045260245ffd5b346102cd5761111236610692565b9091335f5260026020526111398160405f209060018060a01b03165f5260205260405f2090565b835f526020528160405f205560405191825260018060a01b0316907fb3fd5071835887567a0671151121894ddccc2842f1d10bedad13e0d17cace9a760203392a4602060405160018152f35b346102cd5760203660031901126102cd57600854600435906001600160a01b03163303610a7b576020817fbd209961024f2694b0afb3c8badd20b6477abb77b336b16892c3fa4b906d323c92600755604051908152a160405160018152602090f35b60803660031901126102cd576004356111ff816102bc565b604435906024356064356001600160401b0381116102cd57611225903690600401610414565b600854919290916001600160a01b03163303610a7b57611243613916565b600160ff1b851615611254565b1590565b80156113ce575b6113bb577f8f2eb922ee1b2f92e0051f7949a8c191264807725a1e435e91abebd28583830a946001600160801b038216936113a49361129c91863389613a08565b6112af81836112aa8861034b565b61459b565b6112c06112bb8661034b565b6145c0565b6113636112eb6112ce6107df565b3381526001600160a01b03881660208201525f60408201526145f7565b9461133c611301875f52600460205260405f2090565b9161131c818760801c948b6113168760801b90565b9161463d565b6113366001600160a01b038a165b6001600160a01b031690565b336146f3565b337f000000000000000000000000000000000000000000000000000000000000000061474a565b604080519586526001600160a01b0390961660208601526001600160801b0316948401949094526060830193909352608082019290925290819060a0820190565b0390a16113af613973565b60405160018152602090f35b63d1b5191160e01b5f526004805260245ffd5b506001600160a01b036113f360016113e58761034b565b01546001600160a01b031690565b16151561125b565b801515036102cd57565b346102cd5760403660031901126102cd57600435611422816102bc565b6024359061142f826113fb565b335f908152602081815260408083206001600160a01b038516845290915290209115159160ff1981541660ff841617905560405191825260018060a01b0316907fceb576d9f15e4e200fdb5096d64d5dfd667e16def20c1eefd14256d8e3faa26760203392a360405160018152602090f35b346102cd576114dc6114b236610a8f565b929160018060a01b03165f52600260205260405f209060018060a01b03165f5260205260405f2090565b905f52602052602060405f2054604051908152f35b346102cd5760803660031901126102cd5760043561150e816102bc565b6024359061151b826102bc565b6044356064356001600160401b0381116102cd5761153d903690600401610414565b915f5160206159f75f395f51905f525c6001600160a01b031661157857610347946115709461156b33613905565b6128da565b610b506138f3565b63d1b5191160e01b5f52600360045260245ffd5b346102cd5760203660031901126102cd576004356115a9816102bc565b60018060a01b03165f526005602052602060405f2054604051908152f35b60c03660031901126102cd576004356115df816102bc565b604435906024356115ef836102bc565b606435916084356001600160401b0381116102cd57611612903690600401610414565b9060a435946001600160401b0386116102cd576103479661163a610b50973690600401610414565b969095612a46565b346102cd5760203660031901126102cd57602061166b600435611664816102bc565b3090614939565b604051908152f35b60409060031901126102cd5760043561168b816102bc565b906024356102f681610403565b346102cd576116a636611673565b906116b560016113e58361034b565b6001600160a01b03163314801590611804575b6117f0576116d5816147a6565b1561176c576006546116f9906116f4906001600160801b03851661054f565b600655565b600a5461170e906001600160a01b031661132a565b91823b156102cd57805f9261173994604051809681958294638efa048760e01b8452600484016126be565b03926001600160801b0316905af180156117675761175357005b806117615f6100189361079d565b80610f5a565b6128cf565b61177f6116f460065461054f8560801b90565b600a546117a090839061179a906001600160a01b031661132a565b83614a2c565b600a546117b5906001600160a01b031661132a565b91823b156102cd576117e0925f9283604051809681958294638efa048760e01b8452600484016126be565b03925af180156117675761175357005b63d1b5191160e01b5f52602460048190525ffd5b5061181161125082614a00565b6116c8565b346102cd5761182436611673565b61183260016113e58461034b565b6001600160a01b03163314801590611933575b6117f057600a5461185e906001600160a01b031661132a565b9060206040518093630620458b60e11b8252815f81611881878a600484016126be565b03925af1918215611767576004926118e5926118df925f92611902575b506118a8866147a6565b156118e9576006546118c9916116f491906001600160801b03165b90614b29565b6118c3846118d68761034b565b01549160801b90565b9261034b565b0155005b6116f46118fd916118c36006549160801b90565b6118c9565b61192591925060203d60201161192c575b61191d818361079d565b810190612dc2565b905f61189e565b503d611913565b5061194061125083614a00565b611845565b346102cd5760203660031901126102cd57600435611962816102bc565b600a54604051638c706eb560e01b81526001600160a01b0383811660048301529091602091839160249183915f91165af18015611767576118df6118e5916004935f916119b8575b506118c3846118d68761034b565b6119d1915060203d60201161192c5761191d818361079d565b5f6119aa565b346102cd5760203660031901126102cd576004356119f4816102bc565b335f526005602052600260405f205416156110f0576001600160a01b0381165f90815260056020526040908190208054600119169081905590515f5160206159975f395f51905f529290918291611a4c919083612733565b0390a160405160018152602090f35b90602080835192838152019201905f5b818110611a785750505090565b8251845260209384019390920191600101611a6b565b9060206102f6928181520190611a5b565b346102cd5760403660031901126102cd576004356001600160401b0381116102cd57611acf903690600401610823565b60243590611adc826102bc565b606481511015611b5757611af0815161274e565b915f5b8251811015611b49576001906001600160a01b03611b118286612794565b51165f9081526003602090815260408083206001600160a01b0387168452600501909152902054611b428287612794565b5201611af3565b604051806103478682611a8e565b63d1b5191160e01b5f52600b60045260245ffd5b346102cd5760203660031901126102cd57600435611b88816102bc565b60085490336001600160a01b03831603610a7b576001600160a01b03166001600160a01b03199190911681176008556040519081527fa8d3850ce581f2add46670c1408b76ca1d0d4ef627eed4a89802ff670940082d90602090a1005b346102cd5760403660031901126102cd57600435611c02816102bc565b6024356001600160a01b038281165f81815260036020526040902060010154909391163303611c70577f075a13b9dbfb2e30d678551b8c2a4f9ede7468ca5273fa902a41d0e577566669925f526003602052611c618260405f20614b52565b611a4c60405192839283612733565b63d1b5191160e01b5f52600a60045260245ffd5b805180835260209291819084018484015e5f828201840152601f01601f1916010190565b602081016020825282518091526040820191602060408360051b8301019401925f915b838310611cda57505050505090565b9091929394602080611cf8600193603f198682030187528951611c84565b97019301930191939290611ccb565b60203660031901126102cd576004356001600160401b0381116102cd57366023820112156102cd578060040135906001600160401b0382116102cd573660248360051b830101116102cd57610347916024611d629201612dd7565b60405191829182611ca8565b346102cd5760203660031901126102cd57600435611d8b816102bc565b335f526005602052600260405f205416156110f0576001600160a01b0381165f908152600560205260409081902080546001179081905590515f5160206159975f395f51905f529290918291611a4c919083612733565b346102cd5760403660031901126102cd57600435611dff816102bc565b602435335f526005602052600260405f205416156110f0577fe40cf68f61d9a4e510244481f5aa34ba68de31cf3f9aa360604d688115d640c89160018060a01b0381165f526003602052611c618260405f206145dd565b346102cd57602060ff611e92611e6b366102d1565b6001600160a01b039182165f90815280865260408082209290931681526020919091522090565b54166040519015158152f35b346102cd575f3660031901126102cd576008546001600160a01b03163303610a7b57600980546001600160a01b0319169055005b346102cd5760403660031901126102cd57602061166b600435611ef4816102bc565b6001600160a01b03165f90815260038352604090205461271060df9190911c603f16602435020490565b60c03660031901126102cd57600435611f36816102bc565b602435611f42816102bc565b60443590611f4f82610403565b606435611f5b81610403565b60843590611f68826102bc565b60a4356001600160401b0381116102cd57611f87903690600401610414565b9490935f5160206159f75f395f51905f525c6001600160a01b031661157857611fb896611fb333613905565b612f27565b90610d1b6138f3565b346102cd5760603660031901126102cd57600435602435611fe181610403565b60443590611fee826102bc565b5f5160206159f75f395f51905f525c6001600160a01b03166105985761201c9261201733613905565b613445565b906120256138f3565b604080516001600160801b03928316815292909116602083015290f35b60a03660031901126102cd5760043561205a816102bc565b602435612066816102bc565b6044359061207382610403565b6064356001600160401b0381116102cd57612092903690600401610414565b6084949194356001600160401b0381116102cd576120b4903690600401610414565b90915f5160206159f75f395f51905f525c6001600160a01b031661059857335f5160206159f75f395f51905f525d6120ea613916565b6120f2612d1f565b966120fb612d1f565b966001606d1b6001600160801b0361211f8360026121188b61034b565b01546126a5565b1610801590612475575b801561243d575b61242957612173928161214f8b6121619461214a8b61034b565b614807565b6001600160801b031692833389613a08565b6113366001600160a01b03861661132a565b6001600160a01b038416159185908315612345575b5050506121936107df565b3381526001600160a01b03831660208201526001600160a01b03841660408201526121bd906145f7565b946121d0865f52600460205260405f2090565b6040820180519196909390916001600160801b0316906121f08260801b90565b60208501519091906001600160801b0316606086018051909a9189916001600160801b03166001600160801b031660809190911b1760208701516001600160801b03166060880180519096918d916001600160801b03166001600160801b031660809190911b179361226195614686565b5f146122bd6122d97fee89c9fd704272905456294f1b2b88581ebe0241f72c15b4f3db31d19388f6af9a610cd86122bd6122cb61231e9b6122e799610cd89861233157508051610df5906122bd906001600160801b031661133c565b91516001600160801b031690565b99516001600160801b031690565b94516001600160801b031690565b604080516001600160a01b0396871681529690951660208701529385019190915260608401526080830191909152819060a0820190565b0390a2612329613973565b6113af6138f3565b6122bd612340610df592612da2565b61133c565b6123df61242193612370600261235a8a61034b565b015460408c01516001600160801b031690615190565b6001600160801b031660608501908152926123c46123b76123908b61034b565b5486516123a5906001600160801b0316610dc5565b603f6127109260d91c16820390040290565b6001600160801b03168552565b83516123d8906001600160801b0316610dc5565b338a613a08565b61240f6123f46001600160a01b03881661132a565b8251612408906001600160801b0316610dc5565b90336146f3565b61241b6122bd8761034b565b90614807565b5f8481612188565b63d1b5191160e01b5f52600760045260245ffd5b5061245661244a8761034b565b54600160ff1b16151590565b8015612463575b15612130565b5061247061244a8861034b565b61245d565b506001600160a01b0386811690881614612129565b346102cd5760403660031901126102cd576004356124a7816102bc565b6024356008546001600160a01b03163303610a7b575f5160206159975f395f51905f529160018060a01b0381165f5260056020528160405f20556110eb60405192839283612733565b346102cd5760803660031901126102cd5760043561250d816102bc565b602435612519816102bc565b604435915f5160206159d75f395f51905f5261073a606435936001600160a01b0384169361257b90879061256e903388141580612661575b6125d1576001600160a01b03165f90815260016020526040902090565b905f5260205260405f2090565b612586868254612719565b90556001600160a01b0381165f9081526001602052604090206125aa90879061256e565b6125b5868254612726565b90556040516001600160a01b0390911694909182913383612733565b6126088361256e336125f38560018060a01b03165f52600260205260405f2090565b9060018060a01b03165f5260205260405f2090565b54896001820161262e575b50506001600160a01b03165f90815260016020526040902090565b61263791612719565b6126598461256e336125f38660018060a01b03165f52600260205260405f2090565b555f89612613565b5061268c611250612685336125f38560018060a01b03165f525f60205260405f2090565b5460ff1690565b612551565b634e487b7160e01b5f52601160045260245ffd5b6001600160801b03918216908216019190821161074957565b6001600160a01b0390911681526001600160801b03909116602082015260400190565b604051906126ee82610762565b5f6080838281528260208201528260408201528260608201520152565b5f1981019190821161074957565b9190820391821161074957565b9190820180921161074957565b6001600160a01b039091168152602081019190915260400190565b906127588261080c565b612765604051918261079d565b8281528092612776601f199161080c565b0190602036910137565b634e487b7160e01b5f52603260045260245ffd5b80518210156127a85760209160051b010190565b612780565b9291604084019360408152825180955260206060820193015f955b8087106127e45750506102f69394506020818403910152611a5b565b81516001600160a01b0316855260019690960195602094850194909101906127c8565b80546001600160a01b0319166001600160a01b03909216919091179055565b6001600160801b03908116606319019190821161074957565b6001600160801b039081165f19019190821161074957565b6001600160801b03918216908216039190821161074957565b908160209103126102cd575190565b6001600160a01b039182168152911660208201526040810191909152606081019190915260a060808201819052810183905260c09290918190848401375f828201840152601f01601f1916010190565b6040513d5f823e3d90fd5b9294939190916128e9836147a6565b612a32576129006128fa3085614939565b60011c90565b808311612a20575060206129629161292c8461291b8761034b565b5490603f6127109260df1c16020490565b6001600160a01b0390961697612943858a88613f92565b6040516323e30c8b60e01b8152938492839289888a336004880161287f565b03815f8a5af18015611767577f439148f0bbc682ca079e46d6e2c2f0c1e3b820f1a291b069d8882abf8cf18dd9915f916129f1575b50036129d657906109326129d194956129b9610dc5610dc5876129c297612726565b903090846147c6565b6004019081549060801b019055565b600190565b62678c5b60e81b5f526001600160a01b03851660045260245ffd5b612a13915060203d602011612a19575b612a0b818361079d565b810190612870565b5f612997565b503d612a01565b63fd9a760960e01b5f5260045260245ffd5b63d1b5191160e01b5f52601d60045260245ffd5b96919592939092905f5160206159f75f395f51905f525c6001600160a01b031661059857335f5160206159f75f395f51905f525d612a82613916565b6001600160a01b03612a9860016113e58a61034b565b1615801590612d0a575b612cf657608084901c95612ab89187338a613a08565b6001600160801b03831691612acf9183338a613a08565b612ad7612d1f565b9182612ae28861034b565b91612aec92614807565b612af58561034b565b60408301805190929190859087906001600160801b031660801b6001600160801b0390911617612b249261459b565b612b2c6107df565b3381526001600160a01b03871660208201526001600160a01b0388166040820152612b56906145f7565b82519095906001600160801b031660801b60208501519092906001600160801b0316606086018051909491906001600160801b03166001600160801b031660809190911b17612ba36107be565b6001600160a01b038b168152916001600160a01b038c16602084015260408301528360608301526080820152612be1885f52600460205260405f2090565b90612beb91612d53565b612bff826001600160a01b038a16336146f3565b612c13906001600160a01b038a16336146f3565b82516001600160801b0316612c2790612da2565b612c5290337f000000000000000000000000000000000000000000000000000000000000000061474a565b925193519151604080519788526001600160a01b039889166020890152989097169786019790975260608501939093526001600160801b0390811660808581019190915295861b9181169190911760a08401526001600160801b03199190941b16919092161760c08201527f3fc0293a5a7bc73de220f0814bbbebc31e77ffcd41bf5e8be187471747bd7caa9060e090a1612ceb613973565b6001906107cd6138f3565b63d1b5191160e01b5f52600560045260245ffd5b50612d1a61125061244a8a61034b565b612aa2565b60405190608082018281106001600160401b0382111761077d576040525f6060838281528260208201528260408201520152565b906080600491612d6c60018060a01b0382511685612807565b6020810151612d87906001600160a01b031660018601612807565b60408101516002850155606081015160038501550151910155565b60011b6002600160801b03811691906002600160811b0316820361074957565b908160209103126102cd57516102f681610403565b612ddf613916565b612de88261080c565b91612df6604051938461079d565b808352601f19612e058261080c565b015f5b818110612e7e5750505f5b818110612e2657505050906107cd613973565b5f80612e33838587612e8f565b90612e4360405180938193612ed0565b0390305af4612e50612ef8565b9015612e765790600191612e648287612794565b52612e6f8186612794565b5001612e13565b602081519101fd5b806060602080938801015201612e08565b91908110156127a85760051b81013590601e19813603018212156102cd5701908135916001600160401b0383116102cd5760200182360381136102cd579190565b908092918237015f815290565b6001600160401b03811161077d57601f01601f191660200190565b3d15612f22573d90612f0982612edd565b91612f17604051938461079d565b82523d5f602084013e565b606090565b939695919496612f35613916565b6002612f408661034b565b0154158015613405575b80156133f4575b80156133df575b80156133cc575b610e285760646001600160801b0385161015613207576001600160a01b03811680151590816131fc575b5061317b575b506002612f9b8561034b565b0154612fa68561034b565b54906002612fb38461034b565b015490612fbf8461034b565b5495612fc96107cf565b6001600160801b038a16815260208101995f8b5261301060408301935f855260608401975f89526080850196875260a085015260c0840196875260e084019a8b52836142dc565b815161302f906001600160801b031684516001600160801b0316610c84565b6001600160801b0382811691161015610d2c5782516001600160801b031691516001600160801b031661306191612857565b6001600160801b031660809190911b1796519851969889976001600160801b0316906001600160801b03821661271060cc9290921c607f16020490816130a691612857565b6001600160801b031660809190911b179a8b966130ce916001600160801b038a16338c613a08565b6130e26001600160801b0387163387613f92565b6130eb8861034b565b915190516001600160801b03169061310292614b72565b61310b8361034b565b90518460801c9061311b92614b72565b51604080516001600160801b0390921682526020820194909452928301919091526001600160a01b039081169216907f770ac49eb4a65be664dd014b1b315647b776f18742f5b7e141e8cb18cec6cea890606090a35b91906107cd613973565b7f00000000000000000000000000000000000000000000000000000000000000006001600160a01b0316803b156102cd576040516376549e6760e11b81523360048201526001600160a01b039290921660248301525f908290604490829084905af180156117675715612f8f57806117615f6131f69361079d565b5f612f8f565b90503314155f612f89565b919694926001600160a01b03831615610e28575f9560026132278761034b565b01546132328761034b565b5492600261323f8661034b565b01549261324b8661034b565b54976132a1610dc561325b6107cf565b6001600160801b0384168152602081019d8e52610db860408201965f8852606083019a5f8c5260808401998a5260a084015260c08301998a5260e083019d8e5282614041565b610e145782516001600160801b031660801b6001600160801b03909116179751995197998a986001600160801b0316906001600160801b03821661271060cc9290921c607f16020490816132f4916126a5565b6001600160801b031660809190911b179b8c9761331c906001600160801b038b16908c613f92565b613331916001600160801b0389163389613a08565b61333a8861034b565b915190516001600160801b03169061335192614b72565b61335a8361034b565b90518460801c9061336a92614b72565b5161337d906001600160801b0316613419565b604080519182526020820194909452928301919091526001600160a01b039081169216907f770ac49eb4a65be664dd014b1b315647b776f18742f5b7e141e8cb18cec6cea890606090a3613171565b5060c76001600160801b03851611612f5f565b506001600160a01b0385811690831614612f58565b506001600160801b03861615612f51565b5060026134118361034b565b015415612f4a565b908160801b91808304600160801b149015171561074957565b8181029291811591840414171561074957565b92919092613451613916565b806134c561347761346a835f52600460205260405f2090565b546001600160a01b031690565b6134c061349160016113e5865f52600460205260405f2090565b6134b061349c6107df565b338152936001600160a01b03166020850152565b6001600160a01b03166040830152565b6145f7565b0361388c576134d26138a0565b506134db6138a0565b506134f161346a825f52600460205260405f2090565b61350860016113e5845f52600460205260405f2090565b6040805163b88e6d6360e01b81523360048201527f0000000000000000000000000000000000000000000000000000000000000000979094929091856024816001600160a01b038c165afa938415611767576137676136cb6136907f63741ac8918076a6393e6e12659431a4927b53e16190a6b00af6a06697d868b89584888761368b6137779d6137859f9d6136c59e5f925f92613858575b506001600160a01b0381165f9081526005602052604090206135c7905b54600116151590565b15613852575081905b6001600160a01b038281169082160361384d5750815b6001600160a01b0381165f908152600560205260409020613606906135be565b1561383a575061367661363461362561361f859961034b565b9661034b565b965f52600460205260405f2090565b96613666600754936136566136476107be565b6001600160801b03909c168c52565b6001600160a01b031660208b0152565b6001600160a01b03166040890152565b60608701526001600160a01b03166080860152565b614b8c565b809299919d6136a43360056109378a61034b565b54600181116137fe575b506001600160a01b03881661378e575b3390615141565b60801b90565b60208701516136f0906001600160801b031660408901516001600160801b0316610cd8565b60208c015160408d0151613710916001600160801b039081169116610cd8565b906137288d610cd86122bd8c5160018060801b031690565b604080516001600160a01b039788168152979096166020880152948601929092526060850191909152608084015260a0830191909152819060c0820190565b0390a2516001600160801b031690565b92516001600160801b031690565b906107cd613973565b61379d3360056109378b61034b565b54600181116137ad575b506136be565b6137f16137f8916137c76109b68c6005610937339261034b565b6137ec6137dc6001600160a01b038d1661132a565b6137e58361270b565b90336150f0565b61270b565b338a613f92565b5f6137a7565b61382d613834916138186109b68b6005610937339261034b565b6137ec6137dc6001600160a01b038c1661132a565b3389613f92565b5f6136ae565b61363461362561361f613676939961034b565b6135e6565b906135d0565b90925061387d915060403d604011613885575b613875818361079d565b8101906138ce565b90915f6135a1565b503d61386b565b63d1b5191160e01b5f52600860045260245ffd5b60405190606082018281106001600160401b0382111761077d576040525f6040838281528260208201520152565b91908260409103126102cd57602082516138e7816102bc565b9201516102f6816102bc565b5f5f5160206159f75f395f51905f525d565b5f5160206159f75f395f51905f525d565b5f5160206159b75f395f51905f525c1561394e575b60015f5160206159b75f395f51905f525c015f5160206159b75f395f51905f525d565b345f516020615a175f395f51905f525d5f5f5160206159b75f395f51905f525d61392b565b5f195f5160206159b75f395f51905f525c015f5160206159b75f395f51905f525d5f5160206159b75f395f51905f525c15806139f1575b6139b057565b5f8080805f516020615a175f395f51905f525c815f516020615a175f395f51905f525d335af1156139dd57565b63d1b5191160e01b5f52601e60045260245ffd5b505f516020615a175f395f51905f525c15156139aa565b90936001600160801b03909216929091613a21836147a6565b15613a33575050506107cd915061559f565b60036001600160a01b03841603613a52575050506107cd9130906154ef565b80613a645750506107cd923091615550565b90613a71918101906151ba565b60ff613a7e825160ff1690565b1660028103613c5f57506020613a9f910151602080825183010191016153dd565b6001600160a01b0382169073cafbbad55eb09efe7bec8408cff9932be7d9a7fa8203613bd957604051623f675f60e91b81526001600160a01b038616600482015291602090839060249082905afa90811561176757613b915f939284938491613bba575b50613b83602084015193613b1b604082015160ff1690565b60608201516080909201516040516323f2ebc360e21b60208201526001600160a01b038d16602482015230604482015260648101959095526084850196909652600160a485015260ff1660c484015260e4830152610104820193909352918290610124820190565b03601f19810183528261079d565b60208151910182855af115613bab576107cd923091615550565b63203aa5b560e11b5f5260045ffd5b613bd3915060203d602011612a1957612a0b818361079d565b5f613b03565b5f915080613c5a839251613b83602084015193613bfa604082015160ff1690565b606082015160809092015160405163d505accf60e01b60208201526001600160a01b038d1660248201523060448201526064810195909552608485019690965260ff1660a484015260c483015260e4820193909352918290610104820190565b613b91565b9193929160038103613cfb575050613c7690615982565b73a50eb0d081e986c280eff32dae089939ea07bd223b156102cd57604051631b63c28b60e11b81526001600160a01b0392831660048201523060248201529082166044820152911660648201525f816084818373a50eb0d081e986c280eff32dae089939ea07bd225af1801561176757613ced5750565b806117615f6107cd9361079d565b60048103613e5357506020613d1b9101516020808251830101910161525b565b90613dd0613d298351615982565b92613d83613d40604083015165ffffffffffff1690565b613d68613d4b6107fd565b6001600160a01b038a168152966001600160a01b03166020880152565b65ffffffffffff604087015265ffffffffffff166060860152565b6020810151613d906107df565b9485523060208601526040850152608081015190613dca613dba606060a084015193015160ff1690565b60f81b6001600160f81b03191690565b916152c6565b9173a50eb0d081e986c280eff32dae089939ea07bd223b156102cd576040516302b67b5760e41b8152925f9184918291613e0f91908860048501615365565b03818373a50eb0d081e986c280eff32dae089939ea07bd225af191821561176757613c7692613e3f575b50615982565b806117615f613e4d9361079d565b5f613e39565b929392600514613e64575b50505050565b613e7e6020613eec9201516020808251830101910161525b565b8051613e9a613e8b6107ee565b6001600160a01b039096168652565b60208501526040810151602082015190613eb26107df565b95865260208601526040850152613ec76107ee565b308152926020840152608081015190613dca613dba606060a084015193015160ff1690565b9173a50eb0d081e986c280eff32dae089939ea07bd223b156102cd57613f285f93604051958694859463187945bd60e11b8652600486016152f1565b03818373a50eb0d081e986c280eff32dae089939ea07bd225af1801561176757613f55575b808080613e5e565b806117615f613f639361079d565b5f613f4d565b610cd890613f7e8360801d8260801d0161542c565b926001600160801b0391821691160161542c565b919091613f9e816147a6565b15613fc857505f80808093613fb3955af11590565b613fb957565b633607a14f60e11b5f5260045ffd5b6001600160a01b038116600303613ff857506107cd91732387fd72c1da19f6486b843f5da562679fbb4057613f92565b60445f8080936020956040519763a9059cbb60e01b84526004526024525af13d15601f3d1160015f5114161716905f6060526040526107cd575b633c9fd93960e21b5f5260045ffd5b9061404b90612826565b9060a08101916140b36140a66140966140818651614072610dc5885160018060801b031690565b607f6127109260c51c16020490565b6001600160801b031660408601908152610db8565b84516001600160801b03166126a5565b6001600160801b03168352565b81516140c7906001600160801b0316610dc5565b1515806142ca575b156142c5576140dd9061283f565b9261422a83516140fc60808501916140f6835160801c90565b9061547e565b60e08501805191614119610dc560c08901946140f6865160801c90565b6001600160801b03909116106142ae5761413990516140f6835160801c90565b915b80516141478482615190565b875190916001600160801b0391821691831682111561423057505086516141e19190614193906141869083906001600160801b0316612857565b612857565b6001600160801b03168952565b6141c86141a1868651615190565b60208a01805190916141bb916001600160801b03166126a5565b6001600160801b03169052565b8251906001600160801b0316608086901b175b906154c5565b905261420d81516142076141f58583615190565b6001600160801b0316608086901b1790565b906154da565b90525b60608401805190916141bb916001600160801b03166126a5565b926140b3565b90915061423e9294506154a7565b9161426761424d848451615190565b60208801805190916141bb916001600160801b03166126a5565b8051865161429091906141db906001600160801b03165b6001600160801b0316608087901b1790565b90526142a481516142076141f58583615190565b90525f8452614210565b506142bf86516140f6845160801c90565b9161413b565b505050565b506001600160801b03811615156140cf565b60a0810180518251939491936142ff9190614072906001600160801b0316610dc5565b6001600160801b03166040830190815293845161434090614333906001600160801b031685516001600160801b0316612857565b6001600160801b03168452565b8251614354906001600160801b0316610dc5565b151580614589575b156145125761436a9061283f565b93614485845161438360808601916140f6835160801c90565b60e086018051916143a0610dc560c08a01946140f6865160801c90565b6001600160801b03909116106144fb576143c090516140f6835160801c90565b915b80516143ce8482615190565b885190916001600160801b0391821691831682111561448b57505087516144549190614415906144089083906001600160801b0316612857565b6001600160801b03168a52565b61443d614423868651615190565b60208b01805190916141bb916001600160801b03166126a5565b8251906001600160801b0316608086901b17614207565b905261446881516141db6141f58583615190565b90525b60608501805190916141bb916001600160801b03166126a5565b93614340565b9091506144999294506154a7565b916144c26144a8848451615190565b60208901805190916141bb916001600160801b03166126a5565b805187516144dd9190614207906001600160801b031661427e565b90526144f181516141db6141f58583615190565b90525f855261446b565b5061450c87516140f6845160801c90565b916143c2565b50815190939061452a906001600160801b0316610dc5565b92836145365750505050565b6145696141bb926141bb61455961458097855190607f6127109260c51c16020490565b82516001600160801b0316612857565b5182516001600160801b031690610c849082614072565b5f808080613e5e565b506001600160801b038116151561435c565b90916107cd92806002840155600383015560018060e51b031681556001339101612807565b80546001600160e51b0316600160ff1b8101919082106107495755565b60018060e51b038154169160e51b82018092116107495755565b6040805182516001600160a01b0390811660208084019182528501518216838501529390920151909116606080830191909152815261463760808261079d565b51902090565b91614669600261467294959395600381019660018060801b0388541615614676575b5001918254613f69565b90558254613f69565b9055565b6146809082612807565b5f61465f565b936146b2919293600386019360018060801b03855416156146e3575b5061466960028701918254613f69565b90556001600160a01b0381166146c757505050565b816146da60049260016146729501612807565b01918254613f69565b6146ed9087612807565b5f6146a2565b91909160018060a01b031690815f52600160205260405f20835f5260205260405f20805490828201809211610749575f925f5160206159d75f395f51905f529261474592556040519182913383612733565b0390a4565b9161476f926020925f60405180968195829463067e356d60e21b8452600484016126be565b03926001600160a01b03165af1908115611767575f9161478d575090565b6102f6915060203d60201161192c5761191d818361079d565b6001600160a01b0316600181149081156147be575090565b600291501490565b9291906147d2846147a6565b156147e35750506107cd915061559f565b6001600160a01b0384166003036147fe576107cd93506154ef565b6107cd93615550565b80549092919061271060d99190911c603f166001600160801b03831602046001600160801b0316825281516001600160801b031661484491612857565b6001600160801b0316606082018181526002840180549092614865916154a7565b6001600160801b0316604084019081529260048501908154906148888260801c90565b60039097018054909760801b6001600160801b039091161784516001600160801b03166148b4916154a7565b6001600160801b039081166020830181815292516148d292166126a5565b90516001600160801b03166001600160801b031660809190911b176148f691613f69565b9055815492516001600160801b031690516001600160801b03166001600160801b031660809190911b17918261492b91613f69565b905581549061467291613f69565b614942816147a6565b1561494c57503190565b60036001600160a01b038216036149c457506040516370a0823160e01b81526001600160a01b03919091166004820152602081602481732387fd72c1da19f6486b843f5da562679fbb40575afa908115611767575f916149ab575b5090565b6102f6915060203d602011612a1957612a0b818361079d565b6040516370a0823160e01b81526001600160a01b0392831660048201529160209183916024918391165afa908115611767575f916149ab575090565b60018060a01b0316600381149081156147be575090565b908160209103126102cd57516102f6816113fb565b9091906001600160a01b031660038103614add575060405163095ea7b360e01b81529160209183918291614a6f916001600160801b039091169060048401612733565b03815f732387fd72c1da19f6486b843f5da562679fbb40575af1908115611767575f91614aae575b5015614a9f57565b633e3f8f7360e01b5f5260045ffd5b614ad0915060203d602011614ad6575b614ac8818361079d565b810190614a17565b5f614a97565b503d614abe565b60405163095ea7b360e01b81529260209284929183915f918391614b10916001600160801b039091169060048401612733565b03925af1908115611767575f91614aae575015614a9f57565b610cd890614b3e8360801d8260801d0361542c565b926001600160801b0390811691160361542c565b6307ffffff60e51b8154169160018060e51b031682018092116107495755565b600490614672926002820155019182549060801b90613f69565b9291939093614b996138a0565b50614ba26138a0565b93614bb1600283015460801c90565b60038301549690614bdb9060801b6001600160801b0389161786516001600160801b0316906154a7565b948254976002840198895490614bfd610dc5614bf78460801c90565b836155e9565b6001600160801b038a16119081156150c1575b506150ad57614cdd90614cad614c63614c9d614c73614c4b614c3660048c015460801c90565b60038c015460018060801b03169060801b1790565b8851614c6e906001600160801b0316948580936154a7565b98610df58160801c90565b6154a7565b614c8d614c7e6107df565b6001600160801b039098168852565b6001600160801b03166020870152565b6001600160801b03166040850152565b6040830151929a8b93614cd1906001600160801b031660808c901b175b8093614b29565b90556003860154614b29565b600385015560048401548151614d3e91614d31916001600160801b03166020850151614d22906001600160801b031692608083901b6001600160801b038516176118c3565b60048901556141818b8a6155ff565b6001600160801b03168252565b83546040820151614d7e91614d6e91614d5f906001600160801b0316610dc5565b603f6127109260d31c16020490565b6001600160801b03166020830152565b80516001600160801b0316916060810194614e126020875194614e0482860197614dae895160018060a01b031690565b9760408801976080614dc68a5160018060a01b031690565b91018051909a906001600160a01b03166040870151909390614dfd906001600160801b0316888a01516001600160801b0316610cd2565b948a6156db565b01516001600160801b031690565b6001600160801b03811661508f575b505060018601546001600160a01b0316614e3e575b505050505050565b909192939497506004840192614e55845460801c90565b600386018054909791614e78918b9160801b6001600160801b03909116176154a7565b99614eaa8a614ea56004840154610df56002614e9c85614c6e85610df58160801c90565b96015460801c90565b615190565b95614ec5614eb66107df565b6001600160801b03909d168d52565b6001600160801b0390911660208c01908152906001600160801b0390961660408c01908152958b8854928c60028b0194855491614f0e610dc5614f088560801c90565b846155e9565b6001600160801b039091161190828c831561505e575b50505061504a57615006614ff68f94614fd86150289f958f8f80614d5f610dc5610db8946150229f8f6141819f906150149f6150069f614f8890614fc995614f7f614cca61440897610cd8614d319f5160018060801b031690565b90558254614b29565b905580548c519091906001600160801b03168b51909190614fc2906001600160801b031693608084901b6001600160801b038616176118c3565b9055612857565b5492516001600160801b031690565b966001600160801b038816615033575b50516001600160801b031690565b965197516001600160a01b031690565b97516001600160a01b031690565b97516001600160801b031690565b956156db565b5f8080808080614e36565b615042815461054f8a60801b90565b90555f614fe8565b63d1b5191160e01b5f52602060045260245ffd5b5191925061507b91610dc591906001600160801b03165b936155e9565b6001600160801b03909116115f828c614f24565b6150a360049161054f838501549160801b90565b9101555f80614e21565b63d1b5191160e01b5f52601f60045260245ffd5b84519091506150de90610dc59084906001600160801b0316615075565b6001600160801b03909116115f614c10565b91909160018060a01b0316805f52600160205260405f20835f5260205260405f20805490838203918211610749575f935f5160206159d75f395f51905f529261474592556040519182913383612733565b6001600160a01b031691823b156102cd57615175925f9283604051809681958294637bd3ca3560e01b8452600484016126be565b03925af18015611767576151865750565b5f6107cd9161079d565b6102f691608082901c6001600160801b0391821691909216020461542c565b60ff8116036102cd57565b6020818303126102cd578035906001600160401b0382116102cd5701906040828203126102cd57604051916151ee83610782565b80356151f9816151af565b83526020810135906001600160401b0382116102cd570181601f820112156102cd5780359061522782612edd565b92615235604051948561079d565b828452602083830101116102cd57815f9260208093018386013783010152602082015290565b908160c09103126102cd576040519060c08201908282106001600160401b0383111761077d5760a09160405280518352602081015160208401526040810151604084015260608101516152ad816151af565b606084015260808101516080840152015160a082015290565b929190604051936020850152604084015260ff60f81b166060830152604182526107cd60618361079d565b90926153496101009360406102f6979661531e8682516020809160018060a01b0381511684520151910152565b60208181015187840152910151606086015281516001600160a01b03166080860152015160a0840152565b6001600160a01b031660c082015260e081018290520190611c84565b60406102f694936101009360018060a01b0316835265ffffffffffff6060825160018060a01b03815116602087015260018060a01b036020820151168587015282858201511682870152015116608084015260018060a01b0360208201511660a0840152015160c08201528160e08201520190611c84565b908160a09103126102cd576080604051916153f783610762565b80518352602081015160208401526040810151615413816151af565b6040840152606081015160608401520151608082015290565b6001600160801b038111615446576001600160801b031690565b505f90565b6001600160801b0390911690811561546a576001600160801b03160490565b634e487b7160e01b5f52601260045260245ffd5b60bb1c6103ff1680156149a757600a0260018060801b038116908103610749576102f69161544b565b6102f6916001600160801b0380831660809390931c9116020461542c565b610cd890614b3e8360801d8260801d0161542c565b610cd890613f7e8360801d8260801d0361542c565b6040516323b872dd60e01b81526001600160a01b0391821660048201529116602482015260448101919091526020905f9060649082732387fd72c1da19f6486b843f5da562679fbb40575af13d15601f3d1160015f51141617161561403257565b6040516323b872dd60e01b81526001600160a01b03928316600482015292909116602483015260448201929092526020915f9160649183905af13d15601f3d1160015f51141617161561403257565b5f516020615a175f395f51905f525c81116155d5575f516020615a175f395f51905f525c035f516020615a175f395f51905f525d565b63d1b5191160e01b5f52601c60045260245ffd5b60b11c6103ff1680156149a7576102f69161544b565b90614672906003830161568361565282549561561b8760801c90565b906156636002820198610cd86156328b5460801c90565b6001600160801b03908116968a821696889288929116820283900461542c565b936001600160801b0316020461542c565b60018201549093906001600160a01b0316615690575b5050508254614b29565b905582549060801b6118c3565b6118c360046156d1930193610cd88554936156bf818460018060801b036156b78960801c90565b16020461542c565b926001600160801b038616020461542c565b90555f8080615679565b9495909390929091615703606460dd83901c601f166001600160801b03881602048096612857565b6001600160801b03811694909290606460fa84901c87020492606460f482901c603f16880204958a615759606460ee85901c603f168b020499606460e886901c603f168202049490603f60649260e21c16020490565b986001600160a01b038316908161583557505050505061577990836126a5565b6001600160801b0316335f908152600590980160208190526040909820908154906157a391612726565b90556157af85856126a5565b6001600160801b03166001600160a01b039091165f908152602088905260409020908154906157dd91612726565b90556157e891612857565b906157f291612857565b906157fc91612857565b90615806916126a5565b6001600160801b03166001600160a01b039092165f908152602091909152604090209081549061467291612726565b6104f29850908c94939291610dc59b98976159309d979b6159439f600161586391015460018060a01b031690565b6001600160a01b039586169581168614615971576001600160a01b03165f90815260058901602052604090206158a7905b805490926001600160801b031690612726565b90555b6001600160a01b0381168414615960576001600160a01b03165f90815260058701602052604090206158db90615894565b90555b14615946576001600160a01b03165f908152600580840160205260409091206159299361589493909161590e9085565b90555b019a8b9060018060a01b03165f5260205260405f2090565b90556126a5565b335f908152602093909352604090922090565b55565b50600561595a6158949261592994956126a5565b93615911565b5061596b91966126a5565b946158de565b5061597c91986126a5565b966158aa565b6001600160a01b038116908103615446579056fe5d72191643a9d630c58937d62f5e056dcfa8dbf1aced1cb2f655ee1d7ecaf57787b52c29898e62efc1f9a9b00a26dcbdaee98d728c56841703077b7c0d20dee71b3d7edb2e9c0b0e7c525b20aaaef0f5940d2ed71663c7d39266ecafac728859e2afc7ec4dbb9bfdb1b8e8bcf21a055747c25bf2faaea9cb5a134005381f4843cbe27d488af5b5c1b0bd8d89be6fdfeaed3ad42719044fd9b728f33df1d6f1d1a2646970667358221220d372c0dacdca026ab9e830245cbfb9932a38fc9eb16540705d24ce82c68ef13064736f6c634300081d0033","linkReferences":{}},"methodIdentifiers":{"addbanlist(address)":"b153b920","allowance(address,address,uint256)":"598af9e7","approve(address,uint256,uint256)":"426a8493","balanceOf(address,uint256)":"00fdd58e","buyGood(address,address,uint128,uint128,address,bytes)":"f151e786","buyGoodCheck(address,address,uint128,uint128)":"3bd16436","changeGoodOwner(address,address)":"41e12373","changeReStakingContrat(address)":"119ac094","changemarketcreator(address)":"a06ad0e8","collectCommission(address[])":"0d2700ab","disinvestProof(uint256,uint128,address)":"f4662f20","flashFee(address,uint256)":"d9d98ce4","flashLoan(address,address,uint256,bytes)":"5cffe9de","getGoodState(address)":"08238466","getProofState(uint256)":"3f117740","getRecentGoodState(address,address)":"00796f71","goodWelfare(address,uint128,bytes)":"06cf4e7f","initGood(address,uint256,address,uint256,bytes,bytes)":"5f755d65","initMetaGood(address,uint256,uint256,bytes)":"51ff9a16","investGood(address,address,uint128,bytes,bytes)":"f878e809","isOperator(address,address)":"b6363cf2","ishigher(address,address,uint256)":"1412723a","marketconfig()":"402f5ab5","marketcreator()":"3d995173","maxFlashLoan(address)":"613255ab","modifyGoodConfig(address,uint256)":"b1efb921","multicall(bytes[])":"ac9650d8","queryCommission(address[],address)":"9b222794","removeSecurityKeeper()":"c9544f18","removebanlist(address)":"9551177a","securityKeeper(address)":"3c9fe544","setAuth(address,uint256)":"fa704db2","setMarketConfig(uint256)":"45818e4c","setOperator(address,bool)":"558a7297","stakeETH(address,uint128)":"73db1792","supportsInterface(bytes4)":"01ffc9a7","syncReward(address)":"8c706eb5","transfer(address,uint256,uint256)":"095bcdb6","transferFrom(address,address,uint256,uint256)":"fe99049a","unstakeETH(address,uint128)":"81a860d1","updateGoodConfig(address,uint256)":"a3b74a49","userConfig(address)":"5f35b0b3"},"id":47}