{"abi":[{"type":"constructor","inputs":[{"name":"_marketor","type":"address","internalType":"address"}],"stateMutability":"nonpayable"},{"type":"function","name":"addLimitOrder","inputs":[{"name":"_orders","type":"tuple[]","internalType":"struct S_orderDetails[]","components":[{"name":"timestamp","type":"uint96","internalType":"uint96"},{"name":"sender","type":"address","internalType":"address"},{"name":"fromerc20","type":"address","internalType":"address"},{"name":"toerc20","type":"address","internalType":"address"},{"name":"amount","type":"uint256","internalType":"uint256"}]}],"outputs":[],"stateMutability":"nonpayable"},{"type":"function","name":"addauths","inputs":[{"name":"_marketor","type":"address","internalType":"address"},{"name":"_auths","type":"uint256","internalType":"uint256"}],"outputs":[],"stateMutability":"nonpayable"},{"type":"function","name":"auths","inputs":[{"name":"","type":"address","internalType":"address"}],"outputs":[{"name":"","type":"uint256","internalType":"uint256"}],"stateMutability":"view"},{"type":"function","name":"changemarketcreator","inputs":[{"name":"_newmarketor","type":"address","internalType":"address"}],"outputs":[],"stateMutability":"nonpayable"},{"type":"function","name":"cleandeadorder","inputs":[{"name":"ids","type":"uint256[]","internalType":"uint256[]"},{"name":"smallorder","type":"bool","internalType":"bool"}],"outputs":[],"stateMutability":"nonpayable"},{"type":"function","name":"marketcreator","inputs":[],"outputs":[{"name":"","type":"address","internalType":"address"}],"stateMutability":"view"},{"type":"function","name":"maxfreeremain","inputs":[],"outputs":[{"name":"","type":"uint96","internalType":"uint96"}],"stateMutability":"view"},{"type":"function","name":"maxslot","inputs":[],"outputs":[{"name":"","type":"uint256","internalType":"uint256"}],"stateMutability":"view"},{"type":"function","name":"orderpointer","inputs":[],"outputs":[{"name":"","type":"uint256","internalType":"uint256"}],"stateMutability":"view"},{"type":"function","name":"orders","inputs":[{"name":"","type":"uint256","internalType":"uint256"}],"outputs":[{"name":"timestamp","type":"uint96","internalType":"uint96"},{"name":"sender","type":"address","internalType":"address"},{"name":"fromerc20","type":"address","internalType":"address"},{"name":"toerc20","type":"address","internalType":"address"},{"name":"amount","type":"uint256","internalType":"uint256"}],"stateMutability":"view"},{"type":"function","name":"orderstatus","inputs":[{"name":"","type":"uint256","internalType":"uint256"}],"outputs":[{"name":"","type":"uint256","internalType":"uint256"}],"stateMutability":"view"},{"type":"function","name":"queryLimitOrder","inputs":[{"name":"_ordersids","type":"uint256[]","internalType":"uint256[]"}],"outputs":[{"name":"","type":"tuple[]","internalType":"struct S_orderDetails[]","components":[{"name":"timestamp","type":"uint96","internalType":"uint96"},{"name":"sender","type":"address","internalType":"address"},{"name":"fromerc20","type":"address","internalType":"address"},{"name":"toerc20","type":"address","internalType":"address"},{"name":"amount","type":"uint256","internalType":"uint256"}]}],"stateMutability":"view"},{"type":"function","name":"removeLimitOrder","inputs":[{"name":"orderid","type":"uint256","internalType":"uint256"}],"outputs":[],"stateMutability":"nonpayable"},{"type":"function","name":"removeauths","inputs":[{"name":"_marketor","type":"address","internalType":"address"}],"outputs":[],"stateMutability":"nonpayable"},{"type":"function","name":"setMaxfreeRemain","inputs":[{"name":"times","type":"uint96","internalType":"uint96"}],"outputs":[],"stateMutability":"nonpayable"},{"type":"function","name":"takeLimitOrderNormal","inputs":[{"name":"orderids","type":"uint256[]","internalType":"uint256[]"}],"outputs":[],"stateMutability":"nonpayable"},{"type":"function","name":"takeLimitOrdersAMM","inputs":[{"name":"orderids","type":"uint256[]","internalType":"uint256[]"},{"name":"_tolerance","type":"uint96","internalType":"uint96"},{"name":"_taker","type":"address","internalType":"address"}],"outputs":[{"name":"","type":"bool","internalType":"bool"}],"stateMutability":"nonpayable"},{"type":"function","name":"updateLimitOrder","inputs":[{"name":"orderid","type":"uint256","internalType":"uint256"},{"name":"_order","type":"tuple","internalType":"struct S_orderDetails","components":[{"name":"timestamp","type":"uint96","internalType":"uint96"},{"name":"sender","type":"address","internalType":"address"},{"name":"fromerc20","type":"address","internalType":"address"},{"name":"toerc20","type":"address","internalType":"address"},{"name":"amount","type":"uint256","internalType":"uint256"}]}],"outputs":[],"stateMutability":"nonpayable"},{"type":"event","name":"e_addLimitOrder","inputs":[{"name":"_orderid","type":"uint256","indexed":false,"internalType":"uint256"},{"name":"_sender","type":"address","indexed":false,"internalType":"address"},{"name":"_fromerc20","type":"address","indexed":false,"internalType":"address"},{"name":"_toerc20","type":"address","indexed":false,"internalType":"address"},{"name":"_amount","type":"uint256","indexed":false,"internalType":"uint256"}],"anonymous":false},{"type":"event","name":"e_addauths","inputs":[{"name":"_marketor","type":"address","indexed":false,"internalType":"address"},{"name":"_auths","type":"uint256","indexed":false,"internalType":"uint256"}],"anonymous":false},{"type":"event","name":"e_changemarketcreator","inputs":[{"name":"_newmarketcreator","type":"address","indexed":false,"internalType":"address"}],"anonymous":false},{"type":"event","name":"e_deletedeadorder","inputs":[{"name":"_orderid","type":"uint256","indexed":false,"internalType":"uint256"},{"name":"_feeamount","type":"uint256","indexed":false,"internalType":"uint256"},{"name":"_reciver","type":"address","indexed":false,"internalType":"address"}],"anonymous":false},{"type":"event","name":"e_deletedeadorders","inputs":[{"name":"_orderids","type":"uint256[]","indexed":false,"internalType":"uint256[]"}],"anonymous":false},{"type":"event","name":"e_removeLimitOrder","inputs":[{"name":"_orderid","type":"uint256","indexed":false,"internalType":"uint256"}],"anonymous":false},{"type":"event","name":"e_removeauths","inputs":[{"name":"_marketor","type":"address","indexed":false,"internalType":"address"}],"anonymous":false},{"type":"event","name":"e_setmaxfreeremain","inputs":[{"name":"_maxfreeremain","type":"uint96","indexed":false,"internalType":"uint96"}],"anonymous":false},{"type":"event","name":"e_takeOrder","inputs":[{"name":"_orderid","type":"uint256","indexed":false,"internalType":"uint256"}],"anonymous":false},{"type":"event","name":"e_updateLimitOrder","inputs":[{"name":"_orderid","type":"uint256","indexed":false,"internalType":"uint256"},{"name":"_fromerc20","type":"address","indexed":false,"internalType":"address"},{"name":"_toerc20","type":"address","indexed":false,"internalType":"address"},{"name":"_amount","type":"uint256","indexed":false,"internalType":"uint256"}],"anonymous":false},{"type":"error","name":"ERC20TransferFailed","inputs":[]},{"type":"error","name":"NativeTransferFailed","inputs":[]},{"type":"error","name":"lessAmountError","inputs":[{"name":"_orderid","type":"uint256","internalType":"uint256"}]}],"bytecode":{"object":"0x6080604052348015600e575f80fd5b50604051611e9e380380611e9e833981016040819052602b916047565b6001600160a01b031662268d6f60a41b17600555600a5f556072565b5f602082840312156056575f80fd5b81516001600160a01b0381168114606b575f80fd5b9392505050565b611e1f8061007f5f395ff3fe608060405234801561000f575f80fd5b506004361061012f575f3560e01c80639dbbca5f116100ad578063ba5726721161007d578063e2c2f28311610063578063e2c2f28314610323578063f66d648514610343578063fdbfed3814610356575f80fd5b8063ba572672146102de578063dcda429d14610310575f80fd5b80639dbbca5f1461020d578063a06ad0e814610215578063a85c38ef14610228578063b1c7c78a146102bf575f80fd5b8063542128dd1161010257806364e72dbd116100e857806364e72dbd146101c857806365ddabed146101e75780636eaa0cba146101fa575f80fd5b8063542128dd146101a257806356416451146101b5575f80fd5b806315b7e29714610133578063160d04f2146101485780633d99517314610164578063499591fe1461018f575b5f80fd5b610146610141366004611783565b610379565b005b61015160015481565b6040519081526020015b60405180910390f35b600554610177906001600160a01b031681565b6040516001600160a01b03909116815260200161015b565b61014661019d3660046117b5565b6103f7565b6101466101b03660046117e4565b61047b565b6101466101c33660046118d9565b6104e9565b6101516101d6366004611904565b60046020525f908152604090205481565b6101466101f53660046119aa565b61069b565b6101466102083660046119f4565b6108e8565b6101515f5481565b610146610223366004611904565b610b4b565b61027e610236366004611783565b600360208190525f918252604090912080546001820154600283015492909301546001600160601b038216936001600160a01b03600160601b90930483169390831692169085565b604080516001600160601b0390961686526001600160a01b03948516602087015292841692850192909252919091166060830152608082015260a00161015b565b6101516102cd366004611783565b60026020525f908152604090205481565b6005546102f890600160a01b90046001600160601b031681565b6040516001600160601b03909116815260200161015b565b61014661031e366004611a43565b610baf565b6103366103313660046119aa565b610d7a565b60405161015b9190611ade565b610146610351366004611904565b611030565b610369610364366004611b74565b611091565b604051901515815260200161015b565b5f81815260036020526040902054600160601b90046001600160a01b031633146103a1575f80fd5b600881901c5f9081526002602052604090208054600160ff84161b191690556040518181527f819a71a589292d274fb52415373f4cb49b577ec0e842dfa039d992dc38d3053b906020015b60405180910390a150565b630268d6f0816001600160601b031611801561041d57506005546001600160a01b031633145b610425575f80fd5b600580546001600160a01b0316600160a01b6001600160601b038416908102919091179091556040519081527f4e92768b14c8bda9ff5e5e7c486ec2644831d5b16bc66966f4427d791a1ae62b906020016103ec565b6005546001600160a01b03163314610491575f80fd5b6001600160a01b0382165f81815260046020908152604091829020849055815192835282018390527f967d50df84a5ebb45902fa277d5c3b0bc6403497c9fd6da2ecbd9ed420038f1491015b60405180910390a15050565b5f82815260036020526040902054600160601b90046001600160a01b03163314801561051b575061051b600283611573565b610523575f80fd5b6040808201515f848152600360205291909120600101546001600160a01b03908116911614610580576040818101515f84815260036020529190912060010180546001600160a01b0319166001600160a01b039092169190911790555b60608101515f838152600360205260409020600201546001600160a01b039081169116146105db5760608101515f83815260036020526040902060020180546001600160a01b0319166001600160a01b039092169190911790555b60808101515f83815260036020819052604090912001541461060f5760808101515f83815260036020819052604090912001555b5f8281526003602090815260409182902080546bffffffffffffffffffffffff1916426001600160601b03161790558282015160608085015160808087015186518981526001600160a01b039586169681019690965293909116948401949094528201527f249ccd56175700337a7a3021ae4d04abcc8f01ff32d64f802a416cd7217c595a91016104dd565b5f5b815181116108e4576106b0600282611573565b156108d25761078560035f8484815181106106cd576106cd611bce565b602002602001015181526020019081526020015f205f01600c9054906101000a90046001600160a01b03163361073060035f87878151811061071157610711611bce565b602002602001015181526020019081526020015f206003015460801c90565b6fffffffffffffffffffffffffffffffff1660035f87878151811061075757610757611bce565b60209081029190910181015182528101919091526040015f20600101546001600160a01b0316929190611597565b6108523360035f85858151811061079e5761079e611bce565b602002602001015181526020019081526020015f205f01600c9054906101000a90046001600160a01b03166107fd60035f8787815181106107e1576107e1611bce565b602002602001015181526020019081526020015f206003015490565b6fffffffffffffffffffffffffffffffff1660035f87878151811061082457610824611bce565b60209081029190910181015182528101919091526040015f20600201546001600160a01b0316929190611597565b61087f82828151811061086757610867611bce565b6020026020010151600261154a90919063ffffffff16565b7f40e0d127017b9c9ff8852374b313d997f022e0c42e857ed394394b45214092338282815181106108b2576108b2611bce565b60200260200101516040516108c991815260200190565b60405180910390a15b806108dc81611bf6565b91505061069d565b5050565b335f90815260046020526040902054600114610902575f80fd5b5f80821561097f575f5b845181101561094257610920600282611573565b1561093a5761093a85828151811061086757610867611bce565b60010161090c565b507fa6df247fdf2364d6f52926f05808f37e83769a1e59f10491aa08fc4af0d83148846040516109729190611c0e565b60405180910390a1610b45565b5f5b8451811015610b43575f818152600360205260409020546109ab906001600160601b031642611c45565b92506109b8600282611573565b80156109d55750600554600160a01b90046001600160601b031683115b15610b3b57600554600160a01b90046001600160601b031683116109f9575f610a16565b600554610a1690600160a01b90046001600160601b031684611c45565b92508215610a3057610a2b620d2f0084611c58565b610a32565b5f5b92505f8311610a41575f610a4c565b610a4c83600a611c77565b925060648311610a5c5782610a5f565b60645b92508215610b3b575f81815260036020819052604090912001546103e890610a8b90859060801c611c8a565b610a959190611c58565b5f8281526003602052604090208054600190910154919350610acc916001600160a01b0390811691600160601b9004163385611597565b7f2cd35d7d15957fbf6a553e79478a862cad37634e3718db19cf9474321e057511858281518110610aff57610aff611bce565b60200260200101518333604051610b329392919092835260208301919091526001600160a01b0316604082015260600190565b60405180910390a15b600101610981565b505b50505050565b6005546001600160a01b03163314610b61575f80fd5b600580546001600160a01b0319166001600160a01b0383169081179091556040519081527fa8d3850ce581f2add46670c1408b76ca1d0d4ef627eed4a89802ff670940082d906020016103ec565b5f5b81518110156108e4576001545f54610bcb91600291611638565b60018190555042828281518110610be457610be4611bce565b60209081029190910101516001600160601b0390911690528151829082908110610c1057610c10611bce565b602090810291909101810151600180545f90815260038085526040918290208451958501516001600160a01b03908116600160601b026001600160601b039097169690961781559184015182840180549187166001600160a01b031992831617905560608501516002840180549190971691161790945560809092015191909201555482517fed73586b9277e2c9c4f2da2ef2a05c854908458f4c1fc03d45d126dd5cc9f0f79190849084908110610cca57610cca611bce565b602002602001015160200151848481518110610ce857610ce8611bce565b602002602001015160400151858581518110610d0657610d06611bce565b602002602001015160600151868681518110610d2457610d24611bce565b602002602001015160800151604051610d6a9594939291909485526001600160a01b03938416602086015291831660408501529091166060830152608082015260a00190565b60405180910390a1600101610bb1565b60605f825167ffffffffffffffff811115610d9757610d9761180c565b604051908082528060200260200182016040528015610dee57816020015b6040805160a0810182525f808252602080830182905292820181905260608201819052608082015282525f19909201910181610db55790505b5090505f5b83518110156110295760035f858381518110610e1157610e11611bce565b602002602001015181526020019081526020015f205f015f9054906101000a90046001600160601b0316828281518110610e4d57610e4d611bce565b60200260200101515f01906001600160601b031690816001600160601b03168152505060035f858381518110610e8557610e85611bce565b602002602001015181526020019081526020015f205f01600c9054906101000a90046001600160a01b0316828281518110610ec257610ec2611bce565b6020026020010151602001906001600160a01b031690816001600160a01b03168152505060035f858381518110610efb57610efb611bce565b602002602001015181526020019081526020015f206001015f9054906101000a90046001600160a01b0316828281518110610f3857610f38611bce565b6020026020010151604001906001600160a01b031690816001600160a01b03168152505060035f858381518110610f7157610f71611bce565b602002602001015181526020019081526020015f206002015f9054906101000a90046001600160a01b0316828281518110610fae57610fae611bce565b6020026020010151606001906001600160a01b031690816001600160a01b03168152505060035f858381518110610fe757610fe7611bce565b602002602001015181526020019081526020015f206003015482828151811061101257611012611bce565b602090810291909101015160800152600101610df3565b5092915050565b6005546001600160a01b03163314611046575f80fd5b6001600160a01b0381165f8181526004602090815260408083209290925590519182527f9a821e99e211e800333328bcb1c6366ea4b42ec0afe08976ad13ff7e2244a64791016103ec565b5f60608060605f5b875181116113625761112560035f8a84815181106110b9576110b9611bce565b602002602001015181526020019081526020015f205f01600c9054906101000a90046001600160a01b031660035f8b85815181106110f9576110f9611bce565b60209081029190910181015182528101919091526040015f20600201546001600160a01b0316906116f1565b84828151811061113757611137611bce565b602090810291909101015261114d600282611573565b15611350576111d560035f8a848151811061116a5761116a611bce565b602002602001015181526020019081526020015f205f01600c9054906101000a90046001600160a01b0316336111ae60035f8d878151811061071157610711611bce565b6fffffffffffffffffffffffffffffffff1660035f8d878151811061075757610757611bce565b604051806080016040528060035f8b85815181106111f5576111f5611bce565b602002602001015181526020019081526020015f206001015f9054906101000a90046001600160a01b03166001600160a01b0316815260200160035f8b858151811061124357611243611bce565b602002602001015181526020019081526020015f206002015f9054906101000a90046001600160a01b03166001600160a01b0316815260200160035f8b858151811061129157611291611bce565b602002602001015181526020019081526020015f2060030154815260200160035f8b85815181106112c4576112c4611bce565b60209081029190910181015182528181019290925260409081015f20546001600160a01b03600160601b909104811690935280518451841681840152918401518316828201528301516060808301919091529092015116608082015260a00160405160208183030381529060405282828151811061134457611344611bce565b60200260200101819052505b8061135a81611bf6565b915050611099565b50604051631ae9f60b60e11b81526001600160a01b038616906335d3ec16906113939084908a903390600401611ca1565b5f604051808303815f875af11580156113ae573d5f803e3d5ffd5b505050506040513d5f823e601f3d908101601f191682016040526113d59190810190611d42565b505f5b8751811161153c576113f860035f8a84815181106110b9576110b9611bce565b83828151811061140a5761140a611bce565b60200260200101818152505061142e60035f8a84815181106107e1576107e1611bce565b6fffffffffffffffffffffffffffffffff1684828151811061145257611452611bce565b602002602001015184838151811061146c5761146c611bce565b602002602001015161147e9190611c45565b10156114c35787818151811061149657611496611bce565b602002602001015160405163424b2c2f60e01b81526004016114ba91815260200190565b60405180910390fd5b6114d888828151811061086757610867611bce565b7f40e0d127017b9c9ff8852374b313d997f022e0c42e857ed394394b452140923388828151811061150b5761150b611bce565b602002602001015160405161152291815260200190565b60405180910390a18061153481611bf6565b9150506113d8565b506001979650505050505050565b600881901c5f90815260209290925260409091208054600160ff9093169290921b199091169055565b600881901c5f90815260208390526040902054600160ff83161b1615155b92915050565b5f60016001600160a01b038616036115ce578134146115c957604051633d2cec6f60e21b815260040160405180910390fd5b610b43565b6040516323b872dd60e01b81526001600160a01b03851660048201526001600160a01b038416602482015282604482015260205f6064835f8a5af13d15601f3d1160015f511416171691505080610b4357604051633c9fd93960e21b815260040160405180910390fd5b5f6001600884901c825b82156116b957505f8181526020879052604090205460ff909516945b60ff8610801561166b5750825b1561168c5761167b866001611c77565b95506001861b81161515925061165e565b85610100036116b4578482146116ac576116a7826001611c77565b6116ae565b5f5b91505f95505b611642565b6116c786600884901b611c77565b600887901c5f9081526020899052604090208054600160ff8a161b17905593505050509392505050565b5f60016001600160a01b0384160361171457506001600160a01b03811631611591565b6040516370a0823160e01b81526001600160a01b0383811660048301528416906370a0823190602401602060405180830381865afa158015611758573d5f803e3d5ffd5b505050506040513d601f19601f8201168201806040525081019061177c9190611dd2565b9392505050565b5f60208284031215611793575f80fd5b5035919050565b80356001600160601b03811681146117b0575f80fd5b919050565b5f602082840312156117c5575f80fd5b61177c8261179a565b80356001600160a01b03811681146117b0575f80fd5b5f80604083850312156117f5575f80fd5b6117fe836117ce565b946020939093013593505050565b634e487b7160e01b5f52604160045260245ffd5b604051601f8201601f1916810167ffffffffffffffff811182821017156118495761184961180c565b604052919050565b5f60a08284031215611861575f80fd5b60405160a0810167ffffffffffffffff811182821017156118845761188461180c565b6040529050806118938361179a565b81526118a1602084016117ce565b60208201526118b2604084016117ce565b60408201526118c3606084016117ce565b6060820152608092830135920191909152919050565b5f8060c083850312156118ea575f80fd5b823591506118fb8460208501611851565b90509250929050565b5f60208284031215611914575f80fd5b61177c826117ce565b5f67ffffffffffffffff8211156119365761193661180c565b5060051b60200190565b5f82601f83011261194f575f80fd5b813561196261195d8261191d565b611820565b8082825260208201915060208360051b860101925085831115611983575f80fd5b602085015b838110156119a0578035835260209283019201611988565b5095945050505050565b5f602082840312156119ba575f80fd5b813567ffffffffffffffff8111156119d0575f80fd5b6119dc84828501611940565b949350505050565b80151581146119f1575f80fd5b50565b5f8060408385031215611a05575f80fd5b823567ffffffffffffffff811115611a1b575f80fd5b611a2785828601611940565b9250506020830135611a38816119e4565b809150509250929050565b5f60208284031215611a53575f80fd5b813567ffffffffffffffff811115611a69575f80fd5b8201601f81018413611a79575f80fd5b8035611a8761195d8261191d565b80828252602082019150602060a08402850101925086831115611aa8575f80fd5b6020840193505b82841015611ad457611ac18785611851565b825260208201915060a084019350611aaf565b9695505050505050565b602080825282518282018190525f918401906040840190835b81811015611b695783516001600160601b0381511684526001600160a01b0360208201511660208501526001600160a01b0360408201511660408501526001600160a01b036060820151166060850152608081015160808501525060a083019250602084019350600181019050611af7565b509095945050505050565b5f805f60608486031215611b86575f80fd5b833567ffffffffffffffff811115611b9c575f80fd5b611ba886828701611940565b935050611bb76020850161179a565b9150611bc5604085016117ce565b90509250925092565b634e487b7160e01b5f52603260045260245ffd5b634e487b7160e01b5f52601160045260245ffd5b5f60018201611c0757611c07611be2565b5060010190565b602080825282518282018190525f918401906040840190835b81811015611b69578351835260209384019390920191600101611c27565b8181038181111561159157611591611be2565b5f82611c7257634e487b7160e01b5f52601260045260245ffd5b500490565b8082018082111561159157611591611be2565b808202811582820484141761159157611591611be2565b5f606082016060835280865180835260808501915060808160051b8601019250602088015f5b82811015611d1957607f19878603018452815180518087528060208301602089015e5f602082890101526020601f19601f83011688010196505050602082019150602084019350600181019050611cc7565b5050506001600160601b03861660208501525090506001600160a01b03831660408301526119dc565b5f60208284031215611d52575f80fd5b815167ffffffffffffffff811115611d68575f80fd5b8201601f81018413611d78575f80fd5b8051611d8661195d8261191d565b8082825260208201915060208360051b850101925086831115611da7575f80fd5b6020840193505b82841015611ad4578351611dc1816119e4565b825260209384019390910190611dae565b5f60208284031215611de2575f80fd5b505191905056fea2646970667358221220d77b9fbd926dde1ed3487c984f9f9193ebe308aea4bec48ed1da1a1ff33d415664736f6c634300081a0033","linkReferences":{}},"methodIdentifiers":{"addLimitOrder((uint96,address,address,address,uint256)[])":"dcda429d","addauths(address,uint256)":"542128dd","auths(address)":"64e72dbd","changemarketcreator(address)":"a06ad0e8","cleandeadorder(uint256[],bool)":"6eaa0cba","marketcreator()":"3d995173","maxfreeremain()":"ba572672","maxslot()":"9dbbca5f","orderpointer()":"160d04f2","orders(uint256)":"a85c38ef","orderstatus(uint256)":"b1c7c78a","queryLimitOrder(uint256[])":"e2c2f283","removeLimitOrder(uint256)":"15b7e297","removeauths(address)":"f66d6485","setMaxfreeRemain(uint96)":"499591fe","takeLimitOrderNormal(uint256[])":"65ddabed","takeLimitOrdersAMM(uint256[],uint96,address)":"fdbfed38","updateLimitOrder(uint256,(uint96,address,address,address,uint256))":"56416451"},"id":56}