{"abi":[{"type":"constructor","inputs":[{"name":"_usdt","type":"address","internalType":"address"},{"name":"_dao_admin","type":"address","internalType":"address"},{"name":"_ttsconfig","type":"uint256","internalType":"uint256"}],"stateMutability":"nonpayable"},{"type":"function","name":"DOMAIN_SEPARATOR","inputs":[],"outputs":[{"name":"","type":"bytes32","internalType":"bytes32"}],"stateMutability":"view"},{"type":"function","name":"addShare","inputs":[{"name":"_share","type":"tuple","internalType":"struct s_share","components":[{"name":"recipient","type":"address","internalType":"address"},{"name":"leftamount","type":"uint128","internalType":"uint128"},{"name":"metric","type":"uint120","internalType":"uint120"},{"name":"chips","type":"uint8","internalType":"uint8"}]}],"outputs":[],"stateMutability":"nonpayable"},{"type":"function","name":"addauths","inputs":[{"name":"_auths","type":"address","internalType":"address"},{"name":"_priv","type":"uint256","internalType":"uint256"}],"outputs":[],"stateMutability":"nonpayable"},{"type":"function","name":"addreferral","inputs":[{"name":"user","type":"address","internalType":"address"},{"name":"referral","type":"address","internalType":"address"}],"outputs":[],"stateMutability":"nonpayable"},{"type":"function","name":"allowance","inputs":[{"name":"owner","type":"address","internalType":"address"},{"name":"spender","type":"address","internalType":"address"}],"outputs":[{"name":"","type":"uint256","internalType":"uint256"}],"stateMutability":"view"},{"type":"function","name":"approve","inputs":[{"name":"spender","type":"address","internalType":"address"},{"name":"amount","type":"uint256","internalType":"uint256"}],"outputs":[{"name":"","type":"bool","internalType":"bool"}],"stateMutability":"nonpayable"},{"type":"function","name":"auths","inputs":[{"name":"","type":"address","internalType":"address"}],"outputs":[{"name":"","type":"uint256","internalType":"uint256"}],"stateMutability":"view"},{"type":"function","name":"balanceOf","inputs":[{"name":"account","type":"address","internalType":"address"}],"outputs":[{"name":"","type":"uint256","internalType":"uint256"}],"stateMutability":"view"},{"type":"function","name":"burn","inputs":[{"name":"account","type":"address","internalType":"address"},{"name":"value","type":"uint256","internalType":"uint256"}],"outputs":[],"stateMutability":"nonpayable"},{"type":"function","name":"burnShare","inputs":[{"name":"index","type":"uint8","internalType":"uint8"}],"outputs":[],"stateMutability":"nonpayable"},{"type":"function","name":"changeDAOAdmin","inputs":[{"name":"_recipient","type":"address","internalType":"address"}],"outputs":[],"stateMutability":"nonpayable"},{"type":"function","name":"dao_admin","inputs":[],"outputs":[{"name":"","type":"address","internalType":"address"}],"stateMutability":"view"},{"type":"function","name":"decimals","inputs":[],"outputs":[{"name":"","type":"uint8","internalType":"uint8"}],"stateMutability":"pure"},{"type":"function","name":"decreaseAllowance","inputs":[{"name":"spender","type":"address","internalType":"address"},{"name":"subtractedValue","type":"uint256","internalType":"uint256"}],"outputs":[{"name":"","type":"bool","internalType":"bool"}],"stateMutability":"nonpayable"},{"type":"function","name":"eip712Domain","inputs":[],"outputs":[{"name":"fields","type":"bytes1","internalType":"bytes1"},{"name":"name","type":"string","internalType":"string"},{"name":"version","type":"string","internalType":"string"},{"name":"chainId","type":"uint256","internalType":"uint256"},{"name":"verifyingContract","type":"address","internalType":"address"},{"name":"salt","type":"bytes32","internalType":"bytes32"},{"name":"extensions","type":"uint256[]","internalType":"uint256[]"}],"stateMutability":"view"},{"type":"function","name":"getreferralanddaoadmin","inputs":[{"name":"_customer","type":"address","internalType":"address"}],"outputs":[{"name":"","type":"address","internalType":"address"},{"name":"","type":"address","internalType":"address"}],"stateMutability":"view"},{"type":"function","name":"increaseAllowance","inputs":[{"name":"spender","type":"address","internalType":"address"},{"name":"addedValue","type":"uint256","internalType":"uint256"}],"outputs":[{"name":"","type":"bool","internalType":"bool"}],"stateMutability":"nonpayable"},{"type":"function","name":"left_share","inputs":[],"outputs":[{"name":"","type":"uint128","internalType":"uint128"}],"stateMutability":"view"},{"type":"function","name":"marketcontract","inputs":[],"outputs":[{"name":"","type":"address","internalType":"address"}],"stateMutability":"view"},{"type":"function","name":"name","inputs":[],"outputs":[{"name":"","type":"string","internalType":"string"}],"stateMutability":"view"},{"type":"function","name":"nonces","inputs":[{"name":"owner","type":"address","internalType":"address"}],"outputs":[{"name":"","type":"uint256","internalType":"uint256"}],"stateMutability":"view"},{"type":"function","name":"permit","inputs":[{"name":"owner","type":"address","internalType":"address"},{"name":"spender","type":"address","internalType":"address"},{"name":"value","type":"uint256","internalType":"uint256"},{"name":"deadline","type":"uint256","internalType":"uint256"},{"name":"v","type":"uint8","internalType":"uint8"},{"name":"r","type":"bytes32","internalType":"bytes32"},{"name":"s","type":"bytes32","internalType":"bytes32"}],"outputs":[],"stateMutability":"nonpayable"},{"type":"function","name":"poolstate","inputs":[],"outputs":[{"name":"","type":"uint256","internalType":"uint256"}],"stateMutability":"view"},{"type":"function","name":"publicSell","inputs":[{"name":"usdtamount","type":"uint256","internalType":"uint256"},{"name":"data","type":"bytes","internalType":"bytes"}],"outputs":[],"stateMutability":"nonpayable"},{"type":"function","name":"publicsell","inputs":[],"outputs":[{"name":"","type":"uint128","internalType":"uint128"}],"stateMutability":"view"},{"type":"function","name":"referrals","inputs":[{"name":"","type":"address","internalType":"address"}],"outputs":[{"name":"","type":"address","internalType":"address"}],"stateMutability":"view"},{"type":"function","name":"rmauths","inputs":[{"name":"_auths","type":"address","internalType":"address"}],"outputs":[],"stateMutability":"nonpayable"},{"type":"function","name":"setEnv","inputs":[{"name":"_marketcontract","type":"address","internalType":"address"}],"outputs":[],"stateMutability":"nonpayable"},{"type":"function","name":"setRatio","inputs":[{"name":"_ratio","type":"uint256","internalType":"uint256"}],"outputs":[],"stateMutability":"nonpayable"},{"type":"function","name":"shareMint","inputs":[{"name":"index","type":"uint8","internalType":"uint8"}],"outputs":[],"stateMutability":"nonpayable"},{"type":"function","name":"shares","inputs":[{"name":"","type":"uint32","internalType":"uint32"}],"outputs":[{"name":"recipient","type":"address","internalType":"address"},{"name":"leftamount","type":"uint128","internalType":"uint128"},{"name":"metric","type":"uint120","internalType":"uint120"},{"name":"chips","type":"uint8","internalType":"uint8"}],"stateMutability":"view"},{"type":"function","name":"shares_index","inputs":[],"outputs":[{"name":"","type":"uint32","internalType":"uint32"}],"stateMutability":"view"},{"type":"function","name":"stake","inputs":[{"name":"_staker","type":"address","internalType":"address"},{"name":"proofvalue","type":"uint128","internalType":"uint128"}],"outputs":[{"name":"netconstruct","type":"uint128","internalType":"uint128"}],"stateMutability":"nonpayable"},{"type":"function","name":"stakeproof","inputs":[{"name":"","type":"uint256","internalType":"uint256"}],"outputs":[{"name":"fromcontract","type":"address","internalType":"address"},{"name":"proofstate","type":"uint256","internalType":"uint256"}],"stateMutability":"view"},{"type":"function","name":"stakestate","inputs":[],"outputs":[{"name":"","type":"uint256","internalType":"uint256"}],"stateMutability":"view"},{"type":"function","name":"symbol","inputs":[],"outputs":[{"name":"","type":"string","internalType":"string"}],"stateMutability":"view"},{"type":"function","name":"totalSupply","inputs":[],"outputs":[{"name":"","type":"uint256","internalType":"uint256"}],"stateMutability":"view"},{"type":"function","name":"transfer","inputs":[{"name":"to","type":"address","internalType":"address"},{"name":"amount","type":"uint256","internalType":"uint256"}],"outputs":[{"name":"","type":"bool","internalType":"bool"}],"stateMutability":"nonpayable"},{"type":"function","name":"transferFrom","inputs":[{"name":"from","type":"address","internalType":"address"},{"name":"to","type":"address","internalType":"address"},{"name":"amount","type":"uint256","internalType":"uint256"}],"outputs":[{"name":"","type":"bool","internalType":"bool"}],"stateMutability":"nonpayable"},{"type":"function","name":"ttstokenconfig","inputs":[],"outputs":[{"name":"","type":"uint256","internalType":"uint256"}],"stateMutability":"view"},{"type":"function","name":"unstake","inputs":[{"name":"_staker","type":"address","internalType":"address"},{"name":"proofvalue","type":"uint128","internalType":"uint128"}],"outputs":[],"stateMutability":"nonpayable"},{"type":"function","name":"usdt","inputs":[],"outputs":[{"name":"","type":"address","internalType":"address"}],"stateMutability":"view"},{"type":"function","name":"withdrawPublicSell","inputs":[{"name":"amount","type":"uint256","internalType":"uint256"},{"name":"recipient","type":"address","internalType":"address"}],"outputs":[],"stateMutability":"nonpayable"},{"type":"event","name":"Approval","inputs":[{"name":"owner","type":"address","indexed":true,"internalType":"address"},{"name":"spender","type":"address","indexed":true,"internalType":"address"},{"name":"value","type":"uint256","indexed":false,"internalType":"uint256"}],"anonymous":false},{"type":"event","name":"EIP712DomainChanged","inputs":[],"anonymous":false},{"type":"event","name":"Transfer","inputs":[{"name":"from","type":"address","indexed":true,"internalType":"address"},{"name":"to","type":"address","indexed":true,"internalType":"address"},{"name":"value","type":"uint256","indexed":false,"internalType":"uint256"}],"anonymous":false},{"type":"event","name":"e_addShare","inputs":[{"name":"recipient","type":"address","indexed":false,"internalType":"address"},{"name":"leftamount","type":"uint256","indexed":false,"internalType":"uint256"},{"name":"metric","type":"uint120","indexed":false,"internalType":"uint120"},{"name":"chips","type":"uint8","indexed":false,"internalType":"uint8"},{"name":"index","type":"uint32","indexed":false,"internalType":"uint32"}],"anonymous":false},{"type":"event","name":"e_addauths","inputs":[{"name":"auths","type":"address","indexed":false,"internalType":"address"},{"name":"priv","type":"uint256","indexed":false,"internalType":"uint256"}],"anonymous":false},{"type":"event","name":"e_addreferral","inputs":[{"name":"users","type":"address","indexed":false,"internalType":"address"},{"name":"referral","type":"address","indexed":false,"internalType":"address"}],"anonymous":false},{"type":"event","name":"e_burnShare","inputs":[{"name":"index","type":"uint32","indexed":false,"internalType":"uint32"}],"anonymous":false},{"type":"event","name":"e_publicsell","inputs":[{"name":"usdtamount","type":"uint256","indexed":false,"internalType":"uint256"},{"name":"ttsamount","type":"uint256","indexed":false,"internalType":"uint256"}],"anonymous":false},{"type":"event","name":"e_rmauths","inputs":[{"name":"auths","type":"address","indexed":false,"internalType":"address"}],"anonymous":false},{"type":"event","name":"e_setdaoadmin","inputs":[{"name":"recipient","type":"address","indexed":false,"internalType":"address"}],"anonymous":false},{"type":"event","name":"e_setenv","inputs":[{"name":"marketcontract","type":"address","indexed":false,"internalType":"address"}],"anonymous":false},{"type":"event","name":"e_shareMint","inputs":[{"name":"mintamount","type":"uint128","indexed":false,"internalType":"uint128"},{"name":"index","type":"uint32","indexed":false,"internalType":"uint32"}],"anonymous":false},{"type":"event","name":"e_stakeinfo","inputs":[{"name":"recipient","type":"address","indexed":false,"internalType":"address"},{"name":"proofvalue","type":"uint256","indexed":false,"internalType":"uint256"},{"name":"unstakestate","type":"uint256","indexed":false,"internalType":"uint256"},{"name":"stakestate","type":"uint256","indexed":false,"internalType":"uint256"},{"name":"poolstate","type":"uint256","indexed":false,"internalType":"uint256"}],"anonymous":false},{"type":"event","name":"e_syncChainStake","inputs":[{"name":"chain","type":"uint32","indexed":false,"internalType":"uint32"},{"name":"poolasset","type":"uint128","indexed":false,"internalType":"uint128"},{"name":"proofstate","type":"uint256","indexed":false,"internalType":"uint256"}],"anonymous":false},{"type":"event","name":"e_updatepool","inputs":[{"name":"poolstate","type":"uint256","indexed":false,"internalType":"uint256"}],"anonymous":false},{"type":"event","name":"e_updatettsconfig","inputs":[{"name":"ttsconfig","type":"uint256","indexed":false,"internalType":"uint256"}],"anonymous":false},{"type":"error","name":"ERC20PermitFailed","inputs":[]},{"type":"error","name":"ERC20TransferFailed","inputs":[]},{"type":"error","name":"InvalidShortString","inputs":[]},{"type":"error","name":"NativeTransferFailed","inputs":[]},{"type":"error","name":"StringTooLong","inputs":[{"name":"str","type":"string","internalType":"string"}]},{"type":"error","name":"TTSwapError","inputs":[{"name":"seq","type":"uint256","internalType":"uint256"}]}],"bytecode":{"object":"0x61018080604052346104da57606081613c9e803803809161002082856104de565b8339810103126104da5761003381610501565b90604061004260208301610501565b910151916040516100546040826104de565b600c8152602081016b2a2a29bbb0b8102a37b5b2b760a11b81526040519061007d6040836104de565b600c82526b2a2a29bbb0b8102a37b5b2b760a11b6020830152604051926100a56040856104de565b600384526254545360e81b6020850152604051936100c46040866104de565b60018552603160f81b60208601908152845190946001600160401b0382116103dd5760035490600182811c921680156104d0575b60208310146103bf5781601f849311610462575b50602090601f83116001146103fc575f926103f1575b50508160011b915f199060031b1c1916176003555b8051906001600160401b0382116103dd5760045490600182811c921680156103d3575b60208310146103bf5781601f849311610351575b50602090601f83116001146102eb575f926102e0575b50508160011b915f199060031b1c1916176004555b6101a281610515565b610120526101af8461069c565b61014052519020918260e05251902080610100524660a0526040519060208201927f8b73c3c69bb8fe3d512ecc4cf759cc79239f7b179b0ffacaa9a75d522b39400f8452604083015260608201524660808201523060a082015260a0815261021860c0826104de565b51902060809081523060c052601080546001600160801b03199081166528ed6103d000179091556101609290925242901b16600b55600e80546001600160a01b0319166001600160a01b03929092169190911790556009556040516134c990816107d5823960805181612fd3015260a05181613090015260c05181612f9d015260e051816130220152610100518161304801526101205181611138015261014051816111610152610160518181816108360152818161198501528181611bf80152611eff0152f35b015190505f80610184565b60045f9081528281209350601f198516905b8181106103395750908460019594939210610321575b505050811b01600455610199565b01515f1960f88460031b161c191690555f8080610313565b929360206001819287860151815501950193016102fd565b60045f529091507f8a35acfbc15ff81a39ae7d344fd709f28e8600b4aa8c65c6b64bfe7fe36bd19b601f840160051c810191602085106103b5575b90601f859493920160051c01905b8181106103a7575061016e565b5f815584935060010161039a565b909150819061038c565b634e487b7160e01b5f52602260045260245ffd5b91607f169161015a565b634e487b7160e01b5f52604160045260245ffd5b015190505f80610122565b60035f9081528281209350601f198516905b81811061044a5750908460019594939210610432575b505050811b01600355610137565b01515f1960f88460031b161c191690555f8080610424565b9293602060018192878601518155019501930161040e565b60035f529091507fc2575a0e9e593c00f959f8c92f12db2869c3395a3b0502d05e2516446f71f85b601f840160051c810191602085106104c6575b90601f859493920160051c01905b8181106104b8575061010c565b5f81558493506001016104ab565b909150819061049d565b91607f16916100f8565b5f80fd5b601f909101601f19168101906001600160401b038211908210176103dd57604052565b51906001600160a01b03821682036104da57565b908151602081105f1461058f575090601f81511161054f576020815191015160208210610540571790565b5f198260200360031b1b161790565b604460209160405192839163305a27a960e01b83528160048401528051918291826024860152018484015e5f828201840152601f01601f19168101030190fd5b6001600160401b0381116103dd57600554600181811c91168015610692575b60208210146103bf57601f811161065f575b50602092601f82116001146105fe57928192935f926105f3575b50508160011b915f199060031b1c19161760055560ff90565b015190505f806105da565b601f1982169360055f52805f20915f5b868110610647575083600195961061062f575b505050811b0160055560ff90565b01515f1960f88460031b161c191690555f8080610621565b9192602060018192868501518155019401920161060e565b60055f52601f60205f20910160051c810190601f830160051c015b81811061068757506105c0565b5f815560010161067a565b90607f16906105ae565b908151602081105f146106c7575090601f81511161054f576020815191015160208210610540571790565b6001600160401b0381116103dd57600654600181811c911680156107ca575b60208210146103bf57601f8111610797575b50602092601f821160011461073657928192935f9261072b575b50508160011b915f199060031b1c19161760065560ff90565b015190505f80610712565b601f1982169360065f52805f20915f5b86811061077f5750836001959610610767575b505050811b0160065560ff90565b01515f1960f88460031b161c191690555f8080610759565b91926020600181928685015181550194019201610746565b60065f52601f60205f20910160051c810190601f830160051c015b8181106107bf57506106f8565b5f81556001016107b2565b90607f16906106e656fe60806040526004361015610011575f80fd5b5f3560e01c806306afa12a146102c457806306fdde03146102bf578063095ea7b3146102ba57806318160ddd146102b557806319f8d5b4146102b057806323b872dd146102ab578063297f24bf146102a65780632bf960da146102a15780632f48ab7d1461029c5780632ff908cc14610297578063313ce567146102925780633644e5151461028d57806339509351146102885780633b107e21146102835780633cba316b1461027e57806345fda70714610279578063542128dd14610274578063623059a51461026f57806364e72dbd1461026a578063696bb4ad1461026557806369a5ac32146102605780636f55aece1461025b57806370a08231146102565780637bd3ca35146102515780637ecebe001461024c578063845fcee41461024757806384b0196e146102425780639241bda61461023d57806395d89b41146102385780639ca423b3146102335780639dc29fac1461022e578063a457c2d714610229578063a538e6a914610224578063a9059cbb1461021f578063b2237ba31461021a578063b88e6d6314610215578063cae9764014610210578063d505accf1461020b578063dd62ed3e14610206578063de5712d414610201578063df876548146101fc578063e7b43e7d146101f75763eca93cce146101f2575f80fd5b611ca8565b611bb4565b6118da565b6118ba565b611876565b6116fd565b6116e0565b611692565b6115df565b6115b5565b61158d565b6114df565b6113e8565b6113a5565b611300565b611228565b611120565b611103565b6110c8565b610ea3565b610e69565b610dec565b610d5b565b610d35565b610cfa565b610cdd565b610c42565b610c1a565b610b8c565b61097c565b61091d565b6108fb565b6108e0565b610865565b610821565b6107f9565b61079a565b6106c9565b6104c2565b61046f565b61043a565b610353565b3461030d57602036600319011261030d576004355f908152600d6020908152604091829020805460019091015483516001600160a01b03909216825291810191909152f35b0390f35b5f80fd5b5f91031261030d57565b805180835260209291819084018484015e5f828201840152601f01601f1916010190565b90602061035092818152019061031b565b90565b3461030d575f36600319011261030d576040515f60035461037381611d5e565b808452906001811690811561040557506001146103a7575b6103098361039b81850382611e4b565b6040519182918261033f565b60035f9081527fc2575a0e9e593c00f959f8c92f12db2869c3395a3b0502d05e2516446f71f85b939250905b8082106103eb5750909150810160200161039b61038b565b9192600181602092548385880101520191019092916103d3565b60ff191660208086019190915291151560051b8401909101915061039b905061038b565b6001600160a01b0381160361030d57565b3461030d57604036600319011261030d5761046460043561045a81610429565b60243590336122ad565b602060405160018152f35b3461030d575f36600319011261030d576020600254604051908152f35b6001600160801b0381160361030d57565b604090600319011261030d576004356104b581610429565b906024356103508161048c565b3461030d576104d03661049d565b335f908152601260205260409020545f19016106b5577fff4f1caf741747da03068e051490a9f142dac5b961014b67ce28f5465061a68f61030992610513612404565b6001610620604051602081019061053d8161052f338886611678565b03601f198101835282611e4b565b5190206105fd600c5496848060801b03881680155f1461068b575061057d6105785f995b60808b901b6001600160801b038c16175b906124d9565b600c55565b600b5461059c90610597906001600160801b038416610572565b600b55565b6105d1336105b2855f52600d60205260405f2090565b80546001600160a01b0319166001600160a01b03909216919091179055565b61057288866105e8865f52600d60205260405f2090565b01549260801b6001600160801b039091161790565b83610610835f52600d60205260405f2090565b01555f52600d60205260405f2090565b01549061066e6001600160801b0385165b600b54600c54604080516001600160a01b0390961686526020860196909652948401919091526060830152608082019290925290819060a0820190565b0390a16040516001600160801b0390911681529081906020820190565b6105786106af61057d92888060801b03600b541690898060801b0386160204613247565b99610561565b63d1b5191160e01b5f52601a60045260245ffd5b3461030d57606036600319011261030d576004356106e681610429565b6024356106f281610429565b6001600160a01b0382165f908152600160208181526040808420338552909152909120549260443592918401610739575b61072d93506125b5565b60405160018152602090f35b828410610755576107508361072d950333836122ad565b610723565b60405162461bcd60e51b815260206004820152601d60248201527f45524332303a20696e73756666696369656e7420616c6c6f77616e63650000006044820152606490fd5b3461030d57604036600319011261030d576024356004356001600160401b03821161030d573660238301121561030d578160040135906001600160401b03821161030d57366024838501011161030d5760246107f7930190611e6c565b005b3461030d575f36600319011261030d57600f546040516001600160a01b039091168152602090f35b3461030d575f36600319011261030d576040517f00000000000000000000000000000000000000000000000000000000000000006001600160a01b03168152602090f35b3461030d57602036600319011261030d5760043561088281610429565b600e546001600160a01b0316330361030d57600f80546001600160a01b0319166001600160a01b0390921691821790556040519081527f5497e30355b3c259b1bd1d2577607edc2872c70543f17f29bcab333caf74c31590602090a1005b3461030d575f36600319011261030d57602060405160068152f35b3461030d575f36600319011261030d576020610915612f9a565b604051908152f35b3461030d57604036600319011261030d5760043561093a81610429565b602435335f5260016020526109628260405f209060018060a01b03165f5260205260405f2090565b549081018091116109775761046491336122ad565b611fd4565b3461030d57608036600319011261030d5761099860095461269f565b15610b78576010546001600160801b03166109c06109b4612084565b6001600160801b031690565b6001600160801b038216108015610b52575b610b3e576109fd610a1f916109f76109eb6109eb612084565b6001600160401b031690565b90612090565b601080546001600160801b0319166001600160801b0392909216919091179055565b610a62610a3d610a38600f5463ffffffff9060a01c1690565b6120a9565b600f805463ffffffff60a01b191660a09290921b63ffffffff60a01b16919091179055565b610a94610a8f610a7b600f5463ffffffff9060a01c1690565b63ffffffff165f52600a60205260405f2090565b6120ef565b7f259b626a3ac57abbad46c244a9bc2a13c0b530c618e9654be9351bd104cffcae610abd6120c1565b610ac5612084565b90610b39610ad16120cd565b610ad96120e3565b600f5460a01c63ffffffff16604080516001600160a01b0390961686526001600160801b0390961660208601526001600160781b039092169484019490945260ff909316606083015263ffffffff909216608082015290819060a0820190565b0390a1005b63d1b5191160e01b5f52601660045260245ffd5b50600e54610b70906001600160a01b03165b6001600160a01b031690565b3314156109d2565b63d1b5191160e01b5f52600f60045260245ffd5b3461030d57602036600319011261030d57600435610ba981610429565b600e54906001600160a01b0382163303610c06576001600160a01b03166001600160a01b0319919091168117600e556040519081527f853baecd5c22fcf8a4d994474a066771c51cfe6022b046e92a09874610cd128190602090a1005b63d1b5191160e01b5f52601360045260245ffd5b3461030d575f36600319011261030d576010546040516001600160801b039091168152602090f35b3461030d57604036600319011261030d57600435610c5f81610429565b602435600e546001600160a01b03163303610cc9576001600160a01b039091165f8181526012602090815260409182902084905581519283528201929092527f967d50df84a5ebb45902fa277d5c3b0bc6403497c9fd6da2ecbd9ed420038f149181908101610b39565b63d1b5191160e01b5f52601460045260245ffd5b3461030d575f36600319011261030d576020600954604051908152f35b3461030d57602036600319011261030d57600435610d1781610429565b60018060a01b03165f526012602052602060405f2054604051908152f35b3461030d575f36600319011261030d57602063ffffffff600f5460a01c16604051908152f35b3461030d57602036600319011261030d57600435610d7881610429565b600e546001600160a01b03163303610dd8576001600160a01b03165f8181526012602090815260408083209290925590519182527f3680a8b72561b4141a1464124f40242ac80a59d51d29649d9b0b442c255b6289919081908101610b39565b63d1b5191160e01b5f52601560045260245ffd5b3461030d57602036600319011261030d5760043563ffffffff811680910361030d575f908152600a6020908152604091829020805460019091015483516001600160a01b0390921682526001600160801b03811692820192909252608082811c6001600160781b03169382019390935260f89190911c6060820152f35b3461030d57602036600319011261030d57600435610e8681610429565b60018060a01b03165f525f602052602060405f2054604051908152f35b3461030d57610eb13661049d565b335f90815260126020526040902054909182915f19016110b4577fff4f1caf741747da03068e051490a9f142dac5b961014b67ce28f5465061a68f92610ef5612404565b6040516020810190610f0c8161052f338786611678565b51902092610f326109b46001610f2a875f52600d60205260405f2090565b015460801c90565b6001600160801b0383161061104e575050610b39610631610f606001610f2a865f52600d60205260405f2090565b93600161102961100b82610f7c855f52600d60205260405f2090565b01548098610fa0610f95875f52600d60205260405f2090565b60015f918281550155565b610fe6610597610fb2600c5460801c90565b600b5490610fe090610fd390869060801b6001600160801b038516176130fe565b946001600160801b031690565b906130d5565b600c546110069061057890608084901b6001600160801b03861617610fe0565b612090565b92828060801b0384168061103e575b505f52600d60205260405f2090565b01549460801b6001600160801b039091161790565b6110489088612ef7565b5f61101a565b83600161102961100b8561063195611080610b39988661107961109a9d5f52600d60205260405f2090565b01546130b6565b998a92610fe084886105e88b5f52600d60205260405f2090565b856110ad885f52600d60205260405f2090565b0155610fa0565b63d1b5191160e01b5f52601b60045260245ffd5b3461030d57602036600319011261030d576004356110e581610429565b60018060a01b03165f526007602052602060405f2054604051908152f35b3461030d575f36600319011261030d576020600c54604051908152f35b3461030d575f36600319011261030d576111c461115c7f000000000000000000000000000000000000000000000000000000000000000061311c565b6111857f000000000000000000000000000000000000000000000000000000000000000061317c565b60206040516111948282611e4b565b5f8152816111d281830194601f198301368737604051978897600f60f81b895260e0858a015260e089019061031b565b90878203604089015261031b565b914660608701523060808701525f60a087015285830360c087015251918281520192915f5b82811061120657505050500390f35b8351855286955093810193928101926001016111f7565b60ff81160361030d57565b3461030d57602036600319011261030d576004356112458161121d565b61125060095461269f565b15610b7857600e546001600160a01b031633036112ec57610f958160ff6107f793165f52600a6020526112ac6109fd61129b6109eb6109eb600160405f20015460018060801b031690565b6010546001600160801b0316612002565b60405160ff821681527f568d364b674966bdb889933148a94e885581320f54b5d65d04bda235eea7fe4890602090a160ff165f52600a60205260405f2090565b63d1b5191160e01b5f52601660045260245ffd5b3461030d575f36600319011261030d576040515f60045461132081611d5e565b80845290600181169081156104055750600114611347576103098361039b81850382611e4b565b60045f9081527f8a35acfbc15ff81a39ae7d344fd709f28e8600b4aa8c65c6b64bfe7fe36bd19b939250905b80821061138b5750909150810160200161039b61038b565b919260018160209254838588010152019101909291611373565b3461030d57602036600319011261030d576004356113c281610429565b60018060a01b03165f526011602052602060018060a01b0360405f205416604051908152f35b3461030d57604036600319011261030d5760043561140581610429565b6001600160a01b03811660243581156114905761148b818461146d5f80516020613474833981519152946114495f9860018060a01b03165f525f60205260405f2090565b54611456828210156131b3565b039160018060a01b03165f525f60205260405f2090565b5561147b8160025403600255565b6040519081529081906020820190565b0390a3005b60405162461bcd60e51b815260206004820152602160248201527f45524332303a206275726e2066726f6d20746865207a65726f206164647265736044820152607360f81b6064820152608490fd5b3461030d57604036600319011261030d576004356114fc81610429565b60243590335f5260016020526115258160405f209060018060a01b03165f5260205260405f2090565b549180831061153a5761072d920390336122ad565b60405162461bcd60e51b815260206004820152602560248201527f45524332303a2064656372656173656420616c6c6f77616e63652062656c6f77604482015264207a65726f60d81b6064820152608490fd5b3461030d575f36600319011261030d57600e546040516001600160a01b039091168152602090f35b3461030d57604036600319011261030d576104646004356115d581610429565b60243590336125b5565b3461030d57602036600319011261030d5760043561271081118015611661575b61164d576116189061ffff801960095416911601600955565b6009546040519081527f23a413df5b1fc0945373ace790cb8288a224212397d5bfc6e2a9b82a4396bbc4908060208101610b39565b63d1b5191160e01b5f52601160045260245ffd5b50335f526012602052600260405f205414156115ff565b6001600160a01b0391821681529116602082015260400190565b3461030d57602036600319011261030d576004356116af81610429565b600e546001600160a01b039182165f9081526011602052604090819020549051928392610309928216911683611678565b3461030d575f36600319011261030d576020600b54604051908152f35b3461030d5760e036600319011261030d5760043561171a81610429565b60243561172681610429565b604435906064359260843561173a8161121d565b60a4359460c43581421161180c576107f796611807936117ef86896117e78a61052f6117f4996117838660018060a01b03165f52600760205260405f2090815491600183019055565b604051958694602086019889919260a093969594919660c08401977f6e71edae12b1b97f4d1f60370fef10105fa2faae0126114a169c64845d6126c98552600180871b03166020850152600180861b03166040840152606083015260808201520152565b51902061320a565b613230565b6001600160a01b038381169116146121db565b6122ad565b60405162461bcd60e51b815260206004820152601d60248201527f45524332305065726d69743a206578706972656420646561646c696e650000006044820152606490fd5b604090600319011261030d5760043561186981610429565b9060243561035081610429565b3461030d5760206118b161188936611851565b6001600160a01b039182165f9081526001855260408082209290931681526020919091522090565b54604051908152f35b3461030d575f36600319011261030d57602060105460801c604051908152f35b3461030d57602036600319011261030d576004356118f78161121d565b61190260095461269f565b15610b7857600f546119c19060209061192590610b64906001600160a01b031681565b61196861196361195e61195960016119488960ff165f52600a60205260405f2090565b015460801c6001600160781b031690565b612227565b61201b565b612076565b604051630a09391d60e11b81523060048201526001600160a01b037f0000000000000000000000000000000000000000000000000000000000000000166024820152604481019190915292839190829081906064820190565b03915afa908115611baf575f91611b80575b508015611b4f575b611b3b5780611a5d611a2c6001611a1e7f83592ad363894b5c4d81b2113457c5a1683230ce1c133eefa927d17f65cd5ca09560ff165f52600a60205260405f2090565b01546001600160801b031690565b611a57611a516001611a498660ff165f52600a60205260405f2090565b015460f81c90565b60ff1690565b90612262565b611aab6001611a778460ff165f52600a60205260405f2090565b018054611a8e9084906001600160801b0316612090565b81546001600160801b0319166001600160801b0391909116179055565b611b036001611ac58460ff165f52600a60205260405f2090565b018054611add9060801c6001600160781b0316612295565b8154600160801b600160f81b03191660809190911b600160801b600160f81b0316179055565b611b166001600160801b03821633612ef7565b604080516001600160801b03909216825260ff90921660208201529081908101610b39565b63d1b5191160e01b5f52601760045260245ffd5b50611b78610b64611b6b8360ff165f52600a60205260405f2090565b546001600160a01b031690565b3314156119db565b611ba2915060203d602011611ba8575b611b9a8183611e4b565b81019061223f565b5f6119d3565b503d611b90565b612257565b3461030d57604036600319011261030d57602435600435611bd482610429565b611bdf60095461269f565b15610b7857600e546001600160a01b03163303611c94577f000000000000000000000000000000000000000000000000000000000000000060016001600160a01b03821603611c4d57505f80808093611c38955af11590565b611c3e57005b633d2cec6f60e21b5f5260045ffd5b60445f8080936020956040519763a9059cbb60e01b84526004526024525af13d15601f3d1160015f51141617169060405215611c8557005b633c9fd93960e21b5f5260045ffd5b63d1b5191160e01b5f52601960045260245ffd5b3461030d57611cb636611851565b335f526012602052600160405f20541480611d3d575b80611d27575b611cd857005b81611d18826105b27f0b5e322b4b5330962013e8d6519462c133d50320ee476828060995c1acadef629560018060a01b03165f52601160205260405f2090565b610b3960405192839283611678565b506001600160a01b038281169082161415611cd2565b506001600160a01b038281165f908152601160205260409020541615611ccc565b90600182811c92168015611d8c575b6020831014611d7857565b634e487b7160e01b5f52602260045260245ffd5b91607f1691611d6d565b5f9291815491611da583611d5e565b8083529260018116908115611dfa5750600114611dc157505050565b5f9081526020812093945091925b838310611de0575060209250010190565b600181602092949394548385870101520191019190611dcf565b915050602093945060ff929192191683830152151560051b010190565b634e487b7160e01b5f52604160045260245ffd5b604081019081106001600160401b03821117611e4657604052565b611e17565b90601f801991011681019081106001600160401b03821117611e4657604052565b90611e7860095461269f565b15610b7857601054611ec090611e9b906001600160801b0385169060801c612002565b601080546001600160801b031660809290921b6001600160801b031916919091179055565b60105464746a52880060809190911c11611fc0577fcf0848d99e9b2ad96811072e657199bc9567c2cc9b614097727a852b27f5358d92611f23918330337f0000000000000000000000000000000000000000000000000000000000000000612960565b5f90611f3160105460801c90565b6001600160801b0381166428bed016008111611f795750509050611f5481612060565b90611f5f8233612ef7565b60408051918252602082019290925290819081015b0390a1565b644bab82720010611fa057509050611f908161204a565b90611f9b8233612ef7565b611f5f565b64746a528800906001600160801b031611611f5f579050611f9081612034565b63d1b5191160e01b5f52601860045260245ffd5b634e487b7160e01b5f52601160045260245ffd5b6001600160801b0390811662015180019190821161097757565b6001600160801b03918216908216019190821161097757565b908160801b91808304600160801b149015171561097757565b908160041b918083046010149015171561097757565b9060148202918083046014149015171561097757565b9060188202918083046018149015171561097757565b906014820180921161097757565b6024356103508161048c565b6001600160801b03918216908216039190821161097757565b63ffffffff60019116019063ffffffff821161097757565b60043561035081610429565b6044356001600160781b038116810361030d5790565b6064356103508161121d565b60019061211d60043561210181610429565b82546001600160a01b0319166001600160a01b03909116178255565b0161214960243561212d8161048c565b82546001600160801b0319166001600160801b03909116178255565b6044356001600160781b038116810361030d578154600160801b600160f81b03191660809190911b600160801b600160f81b031617815560643561218c8161121d565b81546001600160f81b031660f89190911b6001600160f81b031916179055565b604051906121bb604083611e4b565b565b604051906121bb606083611e4b565b604051906121bb608083611e4b565b156121e257565b60405162461bcd60e51b815260206004820152601e60248201527f45524332305065726d69743a20696e76616c6964207369676e617475726500006044820152606490fd5b6001600160781b031660ff8111610977576001901b90565b9081602091031261030d5751801515810361030d5790565b6040513d5f823e3d90fd5b6001600160801b03909116908115612281576001600160801b03160490565b634e487b7160e01b5f52601260045260245ffd5b6001600160781b039081166001019190821161097757565b6001600160a01b0381169190821561238e576001600160a01b03821693841561233e57806123287f8c5be1e5ebec7d5bd14f71427d1e84f3dd0314c0f7b2291e5b200ac8c7c3b925946123136123399560018060a01b03165f52600160205260405f2090565b9060018060a01b03165f5260205260405f2090565b556040519081529081906020820190565b0390a3565b60405162461bcd60e51b815260206004820152602260248201527f45524332303a20617070726f766520746f20746865207a65726f206164647265604482015261737360f01b6064820152608490fd5b60405162461bcd60e51b8152602060048201526024808201527f45524332303a20617070726f76652066726f6d20746865207a65726f206164646044820152637265737360e01b6064820152608490fd5b65b5e620f48000039065b5e620f48000821161097757565b9190820391821161097757565b600b546124138160801c611fe8565b426001600160801b03909116106124275750565b61243b90610597906102a360871b906124d9565b6124466002546123df565b620f42408110156124c25750612478610578620f42405b610572600c54916009549061ffff6127109216020460801b90565b7f640eaa6ba71a4f457fdf8b26b0a8a0a6096d6d2bf731d07d47717534847ce55d611f7461147b6124ab600b5460801c90565b600c5460801c5b60018060801b03169060801b1790565b6105786124d46124789261474a900490565b61245d565b6124b2906124ee8360801d8260801d01613247565b926001600160801b03918216911601613247565b1561250957565b60405162461bcd60e51b815260206004820152602360248201527f45524332303a207472616e7366657220746f20746865207a65726f206164647260448201526265737360e81b6064820152608490fd5b1561256157565b60405162461bcd60e51b815260206004820152602660248201527f45524332303a207472616e7366657220616d6f756e7420657863656564732062604482015265616c616e636560d01b6064820152608490fd5b916001600160a01b03831691821561264c575f80516020613474833981519152916126366123399260018060a01b038116966125f2881515612502565b61261c8461260f8360018060a01b03165f525f60205260405f2090565b546114568282101561255a565b556001600160a01b03165f90815260208190526040902090565b8054820190556040519081529081906020820190565b60405162461bcd60e51b815260206004820152602560248201527f45524332303a207472616e736665722066726f6d20746865207a65726f206164604482015264647265737360d81b6064820152608490fd5b60ff1c6001036126ae57600190565b5f90565b6001600160401b038111611e4657601f01601f191660200190565b60208183031261030d578035906001600160401b03821161030d57019060408282031261030d576040519161270183611e2b565b803561270c8161121d565b83526020810135906001600160401b03821161030d570181601f8201121561030d5780359061273a826126b2565b926127486040519485611e4b565b8284526020838301011161030d57815f9260208093018386013783010152602082015290565b908160c091031261030d576040519060c08201908282106001600160401b03831117611e465760a09160405280518352602081015160208401526040810151604084015260608101516127c08161121d565b606084015260808101516080840152015160a082015290565b929190604051936020850152604084015260ff60f81b166060830152604182526121bb606183611e4b565b909261285c61010093604061035097966128318682516020809160018060a01b0381511684520151910152565b60208181015187840152910151606086015281516001600160a01b03166080860152015160a0840152565b6001600160a01b031660c082015260e08101829052019061031b565b604061035094936101009360018060a01b0316835265ffffffffffff6060825160018060a01b03815116602087015260018060a01b036020820151168587015282858201511682870152015116608084015260018060a01b0360208201511660a0840152015160c08201528160e0820152019061031b565b908160a091031261030d576040519060a08201908282106001600160401b03831117611e4657608091604052805183526020810151602084015260408101516129388161121d565b6040840152606081015160608401520151608082015290565b9081602091031261030d575190565b929361296f91958101906126cd565b60016001600160a01b038416036129c4575050505f90803410611c3e578034116129b3575b508061299e575050565b5f808080936129ad955af11590565b611c3e57565b6129be9150346123f7565b5f612994565b60ff6129d582969394965160ff1690565b16600181036129e95750506121bb9361327a565b60028103612bcb57506020612a09910151602080825183010191016128f0565b6001600160a01b0385169073898118e029aa17ed4763f432c1bdc1085d166cde8203612b4357604051623f675f60e91b81526001600160a01b038416600482015291602090839060249082905afa908115611baf57612aed5f939284938491612b14575b5061052f602084015193612a85604082015160ff1690565b60608201516080909201516040516323f2ebc360e21b60208201526001600160a01b038b16602482015230604482015260648101959095526084850196909652600160a485015260ff1660c484015260e4830152610104820193909352918290610124820190565b60208151910182885af115612b05576121bb9361327a565b63203aa5b560e11b5f5260045ffd5b612b36915060203d602011612b3c575b612b2e8183611e4b565b810190612951565b5f612a6d565b503d612b24565b5f915080612bc683925161052f602084015193612b64604082015160ff1690565b606082015160809092015160405163d505accf60e01b60208201526001600160a01b03808c1660248301528c1660448201526064810195909552608485019690965260ff1660a484015260c483015260e4820193909352918290610104820190565b612aed565b919493909160038103612c715750612be39150613266565b9273419c606ed7dd9e411826a26ce9f146ed5a5f7c343b1561030d57604051631b63c28b60e11b81526001600160a01b03918216600482015291811660248301529283166044820152911660648201525f816084818373419c606ed7dd9e411826a26ce9f146ed5a5f7c345af18015611baf57612c5d5750565b80612c6b5f6121bb93611e4b565b80610311565b60048103612dd35750906020612c929101516020808251830101910161276e565b90612d50612ca08351613266565b92612cfa612cb7604083015165ffffffffffff1690565b612cdf612cc26121cc565b6001600160a01b038a168152966001600160a01b03166020880152565b65ffffffffffff604087015265ffffffffffff166060860152565b6020810151612d076121bd565b9485526001600160a01b03861660208601526040850152608081015190612d4a612d3a606060a084015193015160ff1690565b60f81b6001600160f81b03191690565b916127d9565b9173419c606ed7dd9e411826a26ce9f146ed5a5f7c343b1561030d576040516302b67b5760e41b8152925f9184918291612d8f91908a60048501612878565b03818373419c606ed7dd9e411826a26ce9f146ed5a5f7c345af1918215611baf57612be392612dbf575b50613266565b80612c6b5f612dcd93611e4b565b5f612db9565b600514612de2575b5050505050565b612dfc6020612e799301516020808251830101910161276e565b908151612e19612e0a6121ac565b6001600160a01b039097168752565b60208601526040820151602083015190612e316121bd565b96875260208701526040860152612e58612e496121ac565b6001600160a01b039095168552565b6020840152608081015190612d4a612d3a606060a084015193015160ff1690565b9173419c606ed7dd9e411826a26ce9f146ed5a5f7c343b1561030d57612eb55f93604051958694859463187945bd60e11b865260048601612804565b03818373419c606ed7dd9e411826a26ce9f146ed5a5f7c345af18015611baf57612ee3575b80808080612ddb565b80612c6b5f612ef193611e4b565b5f612eda565b6001600160a01b03811691908215612f55576002549180830180931161097757612f435f80516020613474833981519152925f9460025560018060a01b03165f525f60205260405f2090565b805482019055604051908152602090a3565b60405162461bcd60e51b815260206004820152601f60248201527f45524332303a206d696e7420746f20746865207a65726f2061646472657373006044820152606490fd5b307f00000000000000000000000000000000000000000000000000000000000000006001600160a01b0316148061308d575b15612ff5577f000000000000000000000000000000000000000000000000000000000000000090565b60405160208101907f8b73c3c69bb8fe3d512ecc4cf759cc79239f7b179b0ffacaa9a75d522b39400f82527f000000000000000000000000000000000000000000000000000000000000000060408201527f000000000000000000000000000000000000000000000000000000000000000060608201524660808201523060a082015260a0815261308760c082611e4b565b51902090565b507f00000000000000000000000000000000000000000000000000000000000000004614612fcc565b61035091608082901c6001600160801b03918216919092160204613247565b6124b2906130ea8360801d8260801d03613247565b926001600160801b03908116911603613247565b610350916001600160801b0380831660809390931c91160204613247565b60ff81146131625760ff811690601f82116131535760405191613140604084611e4b565b6020808452838101919036833783525290565b632cd44ac360e21b5f5260045ffd5b5060405161035081613175816005611d96565b0382611e4b565b60ff81146131a05760ff811690601f82116131535760405191613140604084611e4b565b5060405161035081613175816006611d96565b156131ba57565b60405162461bcd60e51b815260206004820152602260248201527f45524332303a206275726e20616d6f756e7420657863656564732062616c616e604482015261636560f01b6064820152608490fd5b604290613215612f9a565b906040519161190160f01b8352600283015260228201522090565b91610350939161323f936132c9565b919091613358565b6001600160801b038111613261576001600160801b031690565b505f90565b6001600160a01b0381169081036132615790565b6040516323b872dd60e01b81526001600160a01b03928316600482015292909116602483015260448201929092526020915f9160649183905af13d15601f3d1160015f511416171615611c8557565b6fa2a8918ca85bafe22016d0b997e4df60600160ff1b03841161332f576020935f9360ff60809460405194855216868401526040830152606082015282805260015afa15611baf575f516001600160a01b0381161561332757905f90565b505f90600190565b505050505f90600390565b6005111561334457565b634e487b7160e01b5f52602160045260245ffd5b6133618161333a565b806133695750565b6133728161333a565b600181036133ba5760405162461bcd60e51b815260206004820152601860248201527745434453413a20696e76616c6964207369676e617475726560401b6044820152606490fd5b6133c38161333a565b600281036134105760405162461bcd60e51b815260206004820152601f60248201527f45434453413a20696e76616c6964207369676e6174757265206c656e677468006044820152606490fd5b8061341c60039261333a565b1461342357565b60405162461bcd60e51b815260206004820152602260248201527f45434453413a20696e76616c6964207369676e6174757265202773272076616c604482015261756560f01b6064820152608490fdfeddf252ad1be2c89b69c2b068fc378daa952ba7f163c4a11628f55a4df523b3efa2646970667358221220ac23efad55171a7ab548784c78e53688c31bd05320525b24758b453f60c865fe64736f6c634300081a0033","linkReferences":{}},"methodIdentifiers":{"DOMAIN_SEPARATOR()":"3644e515","addShare((address,uint128,uint120,uint8))":"3b107e21","addauths(address,uint256)":"542128dd","addreferral(address,address)":"eca93cce","allowance(address,address)":"dd62ed3e","approve(address,uint256)":"095ea7b3","auths(address)":"64e72dbd","balanceOf(address)":"70a08231","burn(address,uint256)":"9dc29fac","burnShare(uint8)":"9241bda6","changeDAOAdmin(address)":"3cba316b","dao_admin()":"a538e6a9","decimals()":"313ce567","decreaseAllowance(address,uint256)":"a457c2d7","eip712Domain()":"84b0196e","getreferralanddaoadmin(address)":"b88e6d63","increaseAllowance(address,uint256)":"39509351","left_share()":"45fda707","marketcontract()":"2bf960da","name()":"06fdde03","nonces(address)":"7ecebe00","permit(address,address,uint256,uint256,uint8,bytes32,bytes32)":"d505accf","poolstate()":"845fcee4","publicSell(uint256,bytes)":"297f24bf","publicsell()":"de5712d4","referrals(address)":"9ca423b3","rmauths(address)":"69a5ac32","setEnv(address)":"2ff908cc","setRatio(uint256)":"b2237ba3","shareMint(uint8)":"df876548","shares(uint32)":"6f55aece","shares_index()":"696bb4ad","stake(address,uint128)":"19f8d5b4","stakeproof(uint256)":"06afa12a","stakestate()":"cae97640","symbol()":"95d89b41","totalSupply()":"18160ddd","transfer(address,uint256)":"a9059cbb","transferFrom(address,address,uint256)":"23b872dd","ttstokenconfig()":"623059a5","unstake(address,uint128)":"7bd3ca35","usdt()":"2f48ab7d","withdrawPublicSell(uint256,address)":"e7b43e7d"},"id":64}