{"abi":[{"type":"constructor","inputs":[{"name":"_officialTokenContract","type":"address","internalType":"address"}],"stateMutability":"nonpayable"},{"type":"function","name":"DOMAIN_SEPARATOR","inputs":[],"outputs":[{"name":"","type":"bytes32","internalType":"bytes32"}],"stateMutability":"view"},{"type":"function","name":"approve","inputs":[{"name":"to","type":"address","internalType":"address"},{"name":"tokenId","type":"uint256","internalType":"uint256"}],"outputs":[],"stateMutability":"nonpayable"},{"type":"function","name":"balanceOf","inputs":[{"name":"owner","type":"address","internalType":"address"}],"outputs":[{"name":"","type":"uint256","internalType":"uint256"}],"stateMutability":"view"},{"type":"function","name":"burn","inputs":[{"name":"tokenId","type":"uint256","internalType":"uint256"}],"outputs":[],"stateMutability":"nonpayable"},{"type":"function","name":"eip712Domain","inputs":[],"outputs":[{"name":"fields","type":"bytes1","internalType":"bytes1"},{"name":"name","type":"string","internalType":"string"},{"name":"version","type":"string","internalType":"string"},{"name":"chainId","type":"uint256","internalType":"uint256"},{"name":"verifyingContract","type":"address","internalType":"address"},{"name":"salt","type":"bytes32","internalType":"bytes32"},{"name":"extensions","type":"uint256[]","internalType":"uint256[]"}],"stateMutability":"view"},{"type":"function","name":"getApproved","inputs":[{"name":"tokenId","type":"uint256","internalType":"uint256"}],"outputs":[{"name":"","type":"address","internalType":"address"}],"stateMutability":"view"},{"type":"function","name":"isApprovedForAll","inputs":[{"name":"owner","type":"address","internalType":"address"},{"name":"operator","type":"address","internalType":"address"}],"outputs":[{"name":"","type":"bool","internalType":"bool"}],"stateMutability":"view"},{"type":"function","name":"isApprovedOrOwner","inputs":[{"name":"spender","type":"address","internalType":"address"},{"name":"tokenId","type":"uint256","internalType":"uint256"}],"outputs":[{"name":"","type":"bool","internalType":"bool"}],"stateMutability":"view"},{"type":"function","name":"mint","inputs":[{"name":"recipent","type":"address","internalType":"address"},{"name":"tokenid","type":"uint256","internalType":"uint256"}],"outputs":[],"stateMutability":"nonpayable"},{"type":"function","name":"name","inputs":[],"outputs":[{"name":"","type":"string","internalType":"string"}],"stateMutability":"view"},{"type":"function","name":"nonces","inputs":[{"name":"tokenId","type":"uint256","internalType":"uint256"}],"outputs":[{"name":"","type":"uint256","internalType":"uint256"}],"stateMutability":"view"},{"type":"function","name":"ownerOf","inputs":[{"name":"tokenId","type":"uint256","internalType":"uint256"}],"outputs":[{"name":"","type":"address","internalType":"address"}],"stateMutability":"view"},{"type":"function","name":"permit","inputs":[{"name":"spender","type":"address","internalType":"address"},{"name":"tokenId","type":"uint256","internalType":"uint256"},{"name":"deadline","type":"uint256","internalType":"uint256"},{"name":"signature","type":"bytes","internalType":"bytes"}],"outputs":[],"stateMutability":"nonpayable"},{"type":"function","name":"proofsource","inputs":[{"name":"","type":"uint256","internalType":"uint256"}],"outputs":[{"name":"","type":"address","internalType":"address"}],"stateMutability":"view"},{"type":"function","name":"safeTransferFrom","inputs":[{"name":"from","type":"address","internalType":"address"},{"name":"to","type":"address","internalType":"address"},{"name":"tokenId","type":"uint256","internalType":"uint256"}],"outputs":[],"stateMutability":"nonpayable"},{"type":"function","name":"safeTransferFrom","inputs":[{"name":"from","type":"address","internalType":"address"},{"name":"to","type":"address","internalType":"address"},{"name":"tokenId","type":"uint256","internalType":"uint256"},{"name":"data","type":"bytes","internalType":"bytes"}],"outputs":[],"stateMutability":"nonpayable"},{"type":"function","name":"safeTransferFromWithPermit","inputs":[{"name":"from","type":"address","internalType":"address"},{"name":"to","type":"address","internalType":"address"},{"name":"tokenId","type":"uint256","internalType":"uint256"},{"name":"_data","type":"bytes","internalType":"bytes"},{"name":"deadline","type":"uint256","internalType":"uint256"},{"name":"signature","type":"bytes","internalType":"bytes"}],"outputs":[],"stateMutability":"nonpayable"},{"type":"function","name":"setApprovalForAll","inputs":[{"name":"operator","type":"address","internalType":"address"},{"name":"approved","type":"bool","internalType":"bool"}],"outputs":[],"stateMutability":"nonpayable"},{"type":"function","name":"supportsInterface","inputs":[{"name":"interfaceId","type":"bytes4","internalType":"bytes4"}],"outputs":[{"name":"","type":"bool","internalType":"bool"}],"stateMutability":"view"},{"type":"function","name":"symbol","inputs":[],"outputs":[{"name":"","type":"string","internalType":"string"}],"stateMutability":"view"},{"type":"function","name":"tokenURI","inputs":[{"name":"tokenId","type":"uint256","internalType":"uint256"}],"outputs":[{"name":"","type":"string","internalType":"string"}],"stateMutability":"view"},{"type":"function","name":"transferFrom","inputs":[{"name":"from","type":"address","internalType":"address"},{"name":"to","type":"address","internalType":"address"},{"name":"tokenId","type":"uint256","internalType":"uint256"}],"outputs":[],"stateMutability":"nonpayable"},{"type":"event","name":"Approval","inputs":[{"name":"owner","type":"address","indexed":true,"internalType":"address"},{"name":"approved","type":"address","indexed":true,"internalType":"address"},{"name":"tokenId","type":"uint256","indexed":true,"internalType":"uint256"}],"anonymous":false},{"type":"event","name":"ApprovalForAll","inputs":[{"name":"owner","type":"address","indexed":true,"internalType":"address"},{"name":"operator","type":"address","indexed":true,"internalType":"address"},{"name":"approved","type":"bool","indexed":false,"internalType":"bool"}],"anonymous":false},{"type":"event","name":"EIP712DomainChanged","inputs":[],"anonymous":false},{"type":"event","name":"Transfer","inputs":[{"name":"from","type":"address","indexed":true,"internalType":"address"},{"name":"to","type":"address","indexed":true,"internalType":"address"},{"name":"tokenId","type":"uint256","indexed":true,"internalType":"uint256"}],"anonymous":false},{"type":"error","name":"InvalidShortString","inputs":[]},{"type":"error","name":"StringTooLong","inputs":[{"name":"str","type":"string","internalType":"string"}]}],"bytecode":{"object":"0x6101a06040527f49ecf333e5b8c95c40fdafc95c1ad136e8914a8fb55e9dc8bb01eaa83a2df9ad61016052348015610035575f80fd5b506040516124af3803806124af8339810160408190526100549161020b565b6040518060400160405280600a815260200169151514ddd85c0813919560b21b815250604051806040016040528060038152602001622a2a2760e91b81525081604051806040016040528060018152602001603160f81b8152508383815f90816100be91906102d0565b5060016100cb82826102d0565b506100db91508390506006610193565b610120526100ea816007610193565b61014052815160208084019190912060e052815190820120610100524660a05261017660e05161010051604080517f8b73c3c69bb8fe3d512ecc4cf759cc79239f7b179b0ffacaa9a75d522b39400f60208201529081019290925260608201524660808201523060a08201525f9060c00160405160208183030381529060405280519060200120905090565b60805250503060c05250506001600160a01b0316610180526103e2565b5f6020835110156101ae576101a7836101c5565b90506101bf565b816101b984826102d0565b5060ff90505b92915050565b5f80829050601f815111156101f8578260405163305a27a960e01b81526004016101ef919061038a565b60405180910390fd5b8051610203826103bf565b179392505050565b5f6020828403121561021b575f80fd5b81516001600160a01b0381168114610231575f80fd5b9392505050565b634e487b7160e01b5f52604160045260245ffd5b600181811c9082168061026057607f821691505b60208210810361027e57634e487b7160e01b5f52602260045260245ffd5b50919050565b601f8211156102cb57805f5260205f20601f840160051c810160208510156102a95750805b601f840160051c820191505b818110156102c8575f81556001016102b5565b50505b505050565b81516001600160401b038111156102e9576102e9610238565b6102fd816102f7845461024c565b84610284565b6020601f82116001811461032f575f83156103185750848201515b5f19600385901b1c1916600184901b1784556102c8565b5f84815260208120601f198516915b8281101561035e578785015182556020948501946001909201910161033e565b508482101561037b57868401515f19600387901b60f8161c191681555b50505050600190811b01905550565b602081525f82518060208401528060208501604085015e5f604082850101526040601f19601f83011684010191505092915050565b8051602080830151919081101561027e575f1960209190910360031b1b16919050565b60805160a05160c05160e051610100516101205161014051610160516101805161206161044e5f395f81816106cb01526107a101525f610d6001525f61098101525f61095601525f610f5401525f610f2c01525f610e8701525f610eb101525f610edb01526120615ff3fe608060405234801561000f575f80fd5b5060043610610179575f3560e01c8063430c2081116100d257806384b0196e11610088578063b88d4fde11610063578063b88d4fde1461032c578063c87b56dd1461033f578063e985e9c514610352575f80fd5b806384b0196e146102f657806395d89b4114610311578063a22cb46514610319575f80fd5b80636352211e116100b85780636352211e146102bd57806370a08231146102d0578063745a41bc146102e3575f80fd5b8063430c20811461028257806357986ece14610295575f80fd5b806323b872dd1161013257806340c10f191161010d57806340c10f191461024957806342842e0e1461025c57806342966c681461026f575f80fd5b806323b872dd1461021b57806324744d541461022e5780633644e51514610241575f80fd5b8063081812fc11610162578063081812fc146101ba578063095ea7b3146101e5578063141a468c146101fa575f80fd5b806301ffc9a71461017d57806306fdde03146101a5575b5f80fd5b61019061018b366004611b36565b61038d565b60405190151581526020015b60405180910390f35b6101ad6103b7565b60405161019c9190611b7f565b6101cd6101c8366004611b91565b610446565b6040516001600160a01b03909116815260200161019c565b6101f86101f3366004611bc3565b61046b565b005b61020d610208366004611b91565b610584565b60405190815260200161019c565b6101f8610229366004611beb565b610597565b6101f861023c366004611cc4565b610688565b61020d6106a8565b6101f8610257366004611bc3565b6106b6565b6101f861026a366004611beb565b610772565b6101f861027d366004611b91565b61078c565b610190610290366004611bc3565b610829565b6101cd6102a3366004611b91565b60096020525f90815260409020546001600160a01b031681565b6101cd6102cb366004611b91565b61083b565b61020d6102de366004611d5a565b61089f565b6101f86102f1366004611d73565b610937565b6102fe610949565b60405161019c9796959493929190611dd0565b6101ad6109d0565b6101f8610327366004611e66565b6109df565b6101f861033a366004611e9f565b6109ea565b6101ad61034d366004611b91565b610add565b610190610360366004611eeb565b6001600160a01b039182165f90815260056020908152604080832093909416825291909152205460ff1690565b5f6001600160e01b03198216635604e22560e01b14806103b157506103b182610b40565b92915050565b60605f80546103c590611f1c565b80601f01602080910402602001604051908101604052809291908181526020018280546103f190611f1c565b801561043c5780601f106104135761010080835404028352916020019161043c565b820191905f5260205f20905b81548152906001019060200180831161041f57829003601f168201915b5050505050905090565b5f61045082610b8f565b505f908152600460205260409020546001600160a01b031690565b5f6104758261083b565b9050806001600160a01b0316836001600160a01b0316036104e75760405162461bcd60e51b815260206004820152602160248201527f4552433732313a20617070726f76616c20746f2063757272656e74206f776e656044820152603960f91b60648201526084015b60405180910390fd5b336001600160a01b038216148061050357506105038133610360565b6105755760405162461bcd60e51b815260206004820152603d60248201527f4552433732313a20617070726f76652063616c6c6572206973206e6f7420746f60448201527f6b656e206f776e6572206f7220617070726f76656420666f7220616c6c00000060648201526084016104de565b61057f8383610bf2565b505050565b5f818152600860205260408120546103b1565b6105a13382610c5f565b6106035760405162461bcd60e51b815260206004820152602d60248201527f4552433732313a2063616c6c6572206973206e6f7420746f6b656e206f776e6560448201526c1c881bdc88185c1c1c9bdd9959609a1b60648201526084016104de565b61060e838383610cdc565b5f8181526009602052604090819020549051630fd52d2b60e11b8152600481018390526001600160a01b038581166024830152848116604483015290911690631faa5a56906064015f604051808303815f87803b15801561066d575f80fd5b505af115801561067f573d5f803e3d5ffd5b50505050505050565b61069433858484610cfb565b6106a0868686866109ea565b505050505050565b5f6106b1610e7b565b905090565b6040516364e72dbd60e01b81523360048201527f00000000000000000000000000000000000000000000000000000000000000006001600160a01b0316906364e72dbd90602401602060405180830381865afa158015610718573d5f803e3d5ffd5b505050506040513d601f19601f8201168201806040525081019061073c9190611f54565b600114610747575f80fd5b5f81815260096020526040902080546001600160a01b0319163317905561076e8282610fa4565b5050565b61057f83838360405180602001604052805f8152506109ea565b6040516364e72dbd60e01b81523360048201527f00000000000000000000000000000000000000000000000000000000000000006001600160a01b0316906364e72dbd90602401602060405180830381865afa1580156107ee573d5f803e3d5ffd5b505050506040513d601f19601f820116820180604052508101906108129190611f54565b60011461081d575f80fd5b6108268161112c565b50565b5f6108348383610c5f565b9392505050565b5f818152600260205260408120546001600160a01b0316806103b15760405162461bcd60e51b815260206004820152601860248201527f4552433732313a20696e76616c696420746f6b656e204944000000000000000060448201526064016104de565b5f6001600160a01b03821661091c5760405162461bcd60e51b815260206004820152602960248201527f4552433732313a2061646472657373207a65726f206973206e6f74206120766160448201527f6c6964206f776e6572000000000000000000000000000000000000000000000060648201526084016104de565b506001600160a01b03165f9081526003602052604090205490565b61094384848484610cfb565b50505050565b5f6060808280808361097c7f000000000000000000000000000000000000000000000000000000000000000060066111be565b6109a77f000000000000000000000000000000000000000000000000000000000000000060076111be565b604080515f80825260208201909252600f60f81b9b939a50919850469750309650945092509050565b6060600180546103c590611f1c565b61076e338383611267565b6109f43383610c5f565b610a565760405162461bcd60e51b815260206004820152602d60248201527f4552433732313a2063616c6c6572206973206e6f7420746f6b656e206f776e6560448201526c1c881bdc88185c1c1c9bdd9959609a1b60648201526084016104de565b610a6284848484611334565b5f8281526009602052604090819020549051630fd52d2b60e11b8152600481018490526001600160a01b038681166024830152858116604483015290911690631faa5a56906064015f604051808303815f87803b158015610ac1575f80fd5b505af1158015610ad3573d5f803e3d5ffd5b5050505050505050565b6060610ae882610b8f565b5f610af16113bd565b90505f815111610b0f5760405180602001604052805f815250610834565b80610b19846113dd565b604051602001610b2a929190611f82565b6040516020818303038152906040529392505050565b5f6001600160e01b031982166380ac58cd60e01b1480610b7057506001600160e01b03198216635b5e139f60e01b145b806103b157506301ffc9a760e01b6001600160e01b03198316146103b1565b5f818152600260205260409020546001600160a01b03166108265760405162461bcd60e51b815260206004820152601860248201527f4552433732313a20696e76616c696420746f6b656e204944000000000000000060448201526064016104de565b5f81815260046020526040902080546001600160a01b0319166001600160a01b0384169081179091558190610c268261083b565b6001600160a01b03167f8c5be1e5ebec7d5bd14f71427d1e84f3dd0314c0f7b2291e5b200ac8c7c3b92560405160405180910390a45050565b5f80610c6a8361083b565b9050806001600160a01b0316846001600160a01b03161480610cb057506001600160a01b038082165f9081526005602090815260408083209388168352929052205460ff165b80610cd45750836001600160a01b0316610cc984610446565b6001600160a01b0316145b949350505050565b5f8181526008602052604090208054600101905561057f83838361147a565b81421115610d4b5760405162461bcd60e51b815260206004820152601e60248201527f4552433732315065726d69743a206578706972656420646561646c696e65000060448201526064016104de565b5f8381526008602090815260408083205481517f0000000000000000000000000000000000000000000000000000000000000000818501526001600160a01b0389168184015260608101889052608081019190915260a08082018790528251808303909101815260c0909101909152805191012090610dc982611658565b90505f610dd68285611684565b5090505f6001600160a01b03821615801590610df75750610df78288610c5f565b90508080610e135750610e13610e0c8861083b565b84876116c6565b80610e255750610e25610e0c88610446565b610e715760405162461bcd60e51b815260206004820152601f60248201527f4552433732315065726d69743a20696e76616c6964207369676e61747572650060448201526064016104de565b610ad38888610bf2565b5f306001600160a01b037f000000000000000000000000000000000000000000000000000000000000000016148015610ed357507f000000000000000000000000000000000000000000000000000000000000000046145b15610efd57507f000000000000000000000000000000000000000000000000000000000000000090565b6106b1604080517f8b73c3c69bb8fe3d512ecc4cf759cc79239f7b179b0ffacaa9a75d522b39400f60208201527f0000000000000000000000000000000000000000000000000000000000000000918101919091527f000000000000000000000000000000000000000000000000000000000000000060608201524660808201523060a08201525f9060c00160405160208183030381529060405280519060200120905090565b6001600160a01b038216610ffa5760405162461bcd60e51b815260206004820181905260248201527f4552433732313a206d696e7420746f20746865207a65726f206164647265737360448201526064016104de565b5f818152600260205260409020546001600160a01b03161561105e5760405162461bcd60e51b815260206004820152601c60248201527f4552433732313a20746f6b656e20616c7265616479206d696e7465640000000060448201526064016104de565b5f818152600260205260409020546001600160a01b0316156110c25760405162461bcd60e51b815260206004820152601c60248201527f4552433732313a20746f6b656e20616c7265616479206d696e7465640000000060448201526064016104de565b6001600160a01b0382165f81815260036020908152604080832080546001019055848352600290915280822080546001600160a01b0319168417905551839291907fddf252ad1be2c89b69c2b068fc378daa952ba7f163c4a11628f55a4df523b3ef908290a45050565b5f6111368261083b565b90506111418261083b565b5f83815260046020908152604080832080546001600160a01b03199081169091556001600160a01b0385168085526003845282852080545f190190558785526002909352818420805490911690555192935084927fddf252ad1be2c89b69c2b068fc378daa952ba7f163c4a11628f55a4df523b3ef908390a45050565b606060ff83146111d8576111d1836117cc565b90506103b1565b8180546111e490611f1c565b80601f016020809104026020016040519081016040528092919081815260200182805461121090611f1c565b801561125b5780601f106112325761010080835404028352916020019161125b565b820191905f5260205f20905b81548152906001019060200180831161123e57829003601f168201915b505050505090506103b1565b816001600160a01b0316836001600160a01b0316036112c85760405162461bcd60e51b815260206004820152601960248201527f4552433732313a20617070726f766520746f2063616c6c65720000000000000060448201526064016104de565b6001600160a01b038381165f81815260056020908152604080832094871680845294825291829020805460ff191686151590811790915591519182527f17307eab39ab6107e8899845ad3d59bd9653f200f220920489ca2b5937696c31910160405180910390a3505050565b61133f848484610cdc565b61134b84848484611809565b6109435760405162461bcd60e51b815260206004820152603260248201527f4552433732313a207472616e7366657220746f206e6f6e20455243373231526560448201527f63656976657220696d706c656d656e746572000000000000000000000000000060648201526084016104de565b606060405180606001604052806021815260200161200b60219139905090565b60605f6113e98361195c565b60010190505f8167ffffffffffffffff81111561140857611408611c25565b6040519080825280601f01601f191660200182016040528015611432576020820181803683370190505b5090508181016020015b5f19017f3031323334353637383961626364656600000000000000000000000000000000600a86061a8153600a850494508461143c57509392505050565b826001600160a01b031661148d8261083b565b6001600160a01b0316146114f15760405162461bcd60e51b815260206004820152602560248201527f4552433732313a207472616e736665722066726f6d20696e636f72726563742060448201526437bbb732b960d91b60648201526084016104de565b6001600160a01b0382166115535760405162461bcd60e51b8152602060048201526024808201527f4552433732313a207472616e7366657220746f20746865207a65726f206164646044820152637265737360e01b60648201526084016104de565b826001600160a01b03166115668261083b565b6001600160a01b0316146115ca5760405162461bcd60e51b815260206004820152602560248201527f4552433732313a207472616e736665722066726f6d20696e636f72726563742060448201526437bbb732b960d91b60648201526084016104de565b5f81815260046020908152604080832080546001600160a01b03199081169091556001600160a01b038781168086526003855283862080545f1901905590871680865283862080546001019055868652600290945282852080549092168417909155905184937fddf252ad1be2c89b69c2b068fc378daa952ba7f163c4a11628f55a4df523b3ef91a4505050565b5f6103b1611664610e7b565b8360405161190160f01b8152600281019290925260228201526042902090565b5f8082516041036116b8576020830151604084015160608501515f1a6116ac87828585611a3d565b945094505050506116bf565b505f905060025b9250929050565b5f805f856001600160a01b0316631626ba7e60e01b86866040516024016116ee929190611f96565b60408051601f198184030181529181526020820180517bffffffffffffffffffffffffffffffffffffffffffffffffffffffff166001600160e01b03199094169390931790925290516117419190611fae565b5f60405180830381855afa9150503d805f8114611779576040519150601f19603f3d011682016040523d82523d5f602084013e61177e565b606091505b5091509150818015611791575080516020145b80156117c257508051630b135d3f60e11b906117b69083016020908101908401611fb9565b6001600160e01b031916145b9695505050505050565b60605f6117d883611afa565b6040805160208082528183019092529192505f91906020820181803683375050509182525060208101929092525090565b5f6001600160a01b0384163b1561195157604051630a85bd0160e11b81526001600160a01b0385169063150b7a029061184c903390899088908890600401611fd4565b6020604051808303815f875af1925050508015611886575060408051601f3d908101601f1916820190925261188391810190611fb9565b60015b611937573d8080156118b3576040519150601f19603f3d011682016040523d82523d5f602084013e6118b8565b606091505b5080515f0361192f5760405162461bcd60e51b815260206004820152603260248201527f4552433732313a207472616e7366657220746f206e6f6e20455243373231526560448201527f63656976657220696d706c656d656e746572000000000000000000000000000060648201526084016104de565b805181602001fd5b6001600160e01b031916630a85bd0160e11b149050610cd4565b506001949350505050565b5f807a184f03e93ff9f4daa797ed6e38ed64bf6a1f01000000000000000083106119a4577a184f03e93ff9f4daa797ed6e38ed64bf6a1f010000000000000000830492506040015b6d04ee2d6d415b85acef810000000083106119d0576d04ee2d6d415b85acef8100000000830492506020015b662386f26fc1000083106119ee57662386f26fc10000830492506010015b6305f5e1008310611a06576305f5e100830492506008015b6127108310611a1a57612710830492506004015b60648310611a2c576064830492506002015b600a83106103b15760010192915050565b5f807f7fffffffffffffffffffffffffffffff5d576e7357a4501ddfe92f46681b20a0831115611a7257505f90506003611af1565b604080515f8082526020820180845289905260ff881692820192909252606081018690526080810185905260019060a0016020604051602081039080840390855afa158015611ac3573d5f803e3d5ffd5b5050604051601f1901519150506001600160a01b038116611aeb575f60019250925050611af1565b91505f90505b94509492505050565b5f60ff8216601f8111156103b157604051632cd44ac360e21b815260040160405180910390fd5b6001600160e01b031981168114610826575f80fd5b5f60208284031215611b46575f80fd5b813561083481611b21565b5f81518084528060208401602086015e5f602082860101526020601f19601f83011685010191505092915050565b602081525f6108346020830184611b51565b5f60208284031215611ba1575f80fd5b5035919050565b80356001600160a01b0381168114611bbe575f80fd5b919050565b5f8060408385031215611bd4575f80fd5b611bdd83611ba8565b946020939093013593505050565b5f805f60608486031215611bfd575f80fd5b611c0684611ba8565b9250611c1460208501611ba8565b929592945050506040919091013590565b634e487b7160e01b5f52604160045260245ffd5b5f82601f830112611c48575f80fd5b813567ffffffffffffffff811115611c6257611c62611c25565b604051601f8201601f19908116603f0116810167ffffffffffffffff81118282101715611c9157611c91611c25565b604052818152838201602001851015611ca8575f80fd5b816020850160208301375f918101602001919091529392505050565b5f805f805f8060c08789031215611cd9575f80fd5b611ce287611ba8565b9550611cf060208801611ba8565b945060408701359350606087013567ffffffffffffffff811115611d12575f80fd5b611d1e89828a01611c39565b9350506080870135915060a087013567ffffffffffffffff811115611d41575f80fd5b611d4d89828a01611c39565b9150509295509295509295565b5f60208284031215611d6a575f80fd5b61083482611ba8565b5f805f8060808587031215611d86575f80fd5b611d8f85611ba8565b93506020850135925060408501359150606085013567ffffffffffffffff811115611db8575f80fd5b611dc487828801611c39565b91505092959194509250565b60ff60f81b8816815260e060208201525f611dee60e0830189611b51565b8281036040840152611e008189611b51565b606084018890526001600160a01b038716608085015260a0840186905283810360c0850152845180825260208087019350909101905f5b81811015611e55578351835260209384019390920191600101611e37565b50909b9a5050505050505050505050565b5f8060408385031215611e77575f80fd5b611e8083611ba8565b915060208301358015158114611e94575f80fd5b809150509250929050565b5f805f8060808587031215611eb2575f80fd5b611ebb85611ba8565b9350611ec960208601611ba8565b925060408501359150606085013567ffffffffffffffff811115611db8575f80fd5b5f8060408385031215611efc575f80fd5b611f0583611ba8565b9150611f1360208401611ba8565b90509250929050565b600181811c90821680611f3057607f821691505b602082108103611f4e57634e487b7160e01b5f52602260045260245ffd5b50919050565b5f60208284031215611f64575f80fd5b5051919050565b5f81518060208401855e5f93019283525090919050565b5f610cd4611f908386611f6b565b84611f6b565b828152604060208201525f610cd46040830184611b51565b5f6108348284611f6b565b5f60208284031215611fc9575f80fd5b815161083481611b21565b6001600160a01b03851681526001600160a01b0384166020820152826040820152608060608201525f6117c26080830184611b5156fe687474703a2f2f7777772e7474737761702e696f2f6e66743f70726f6f6669643da2646970667358221220233e93176f02fc0a35125fc92aebc9956a5b6feac364057e855f09099b8907c364736f6c634300081a0033","linkReferences":{}},"methodIdentifiers":{"DOMAIN_SEPARATOR()":"3644e515","approve(address,uint256)":"095ea7b3","balanceOf(address)":"70a08231","burn(uint256)":"42966c68","eip712Domain()":"84b0196e","getApproved(uint256)":"081812fc","isApprovedForAll(address,address)":"e985e9c5","isApprovedOrOwner(address,uint256)":"430c2081","mint(address,uint256)":"40c10f19","name()":"06fdde03","nonces(uint256)":"141a468c","ownerOf(uint256)":"6352211e","permit(address,uint256,uint256,bytes)":"745a41bc","proofsource(uint256)":"57986ece","safeTransferFrom(address,address,uint256)":"42842e0e","safeTransferFrom(address,address,uint256,bytes)":"b88d4fde","safeTransferFromWithPermit(address,address,uint256,bytes,uint256,bytes)":"24744d54","setApprovalForAll(address,bool)":"a22cb465","supportsInterface(bytes4)":"01ffc9a7","symbol()":"95d89b41","tokenURI(uint256)":"c87b56dd","transferFrom(address,address,uint256)":"23b872dd"},"id":56}