{"abi":[{"type":"constructor","inputs":[{"name":"_marketconfig","type":"uint256","internalType":"uint256"},{"name":"_officialTokenContract","type":"address","internalType":"address"},{"name":"_marketcreator","type":"address","internalType":"address"},{"name":"_securitykeeper","type":"address","internalType":"address"}],"stateMutability":"nonpayable"},{"type":"function","name":"addbanlist","inputs":[{"name":"_user","type":"address","internalType":"address"}],"outputs":[{"name":"","type":"bool","internalType":"bool"}],"stateMutability":"nonpayable"},{"type":"function","name":"buyGood","inputs":[{"name":"_goodid1","type":"address","internalType":"address"},{"name":"_goodid2","type":"address","internalType":"address"},{"name":"_swapQuantity","type":"uint128","internalType":"uint128"},{"name":"_limitPrice","type":"uint256","internalType":"uint256"},{"name":"_istotal","type":"bool","internalType":"bool"},{"name":"_referal","type":"address","internalType":"address"},{"name":"data","type":"bytes","internalType":"bytes"}],"outputs":[{"name":"goodid2Quantity_","type":"uint128","internalType":"uint128"},{"name":"goodid2FeeQuantity_","type":"uint128","internalType":"uint128"}],"stateMutability":"payable"},{"type":"function","name":"changeGoodOwner","inputs":[{"name":"_goodid","type":"address","internalType":"address"},{"name":"_to","type":"address","internalType":"address"}],"outputs":[],"stateMutability":"nonpayable"},{"type":"function","name":"changemarketcreator","inputs":[{"name":"_newmarketor","type":"address","internalType":"address"}],"outputs":[],"stateMutability":"nonpayable"},{"type":"function","name":"collectCommission","inputs":[{"name":"_goodid","type":"address[]","internalType":"address[]"}],"outputs":[],"stateMutability":"nonpayable"},{"type":"function","name":"collectProof","inputs":[{"name":"_proofid","type":"uint256","internalType":"uint256"},{"name":"_gater","type":"address","internalType":"address"}],"outputs":[{"name":"profit_","type":"uint256","internalType":"uint256"}],"stateMutability":"nonpayable"},{"type":"function","name":"disinvestProof","inputs":[{"name":"_proofid","type":"uint256","internalType":"uint256"},{"name":"_goodQuantity","type":"uint128","internalType":"uint128"},{"name":"_gater","type":"address","internalType":"address"}],"outputs":[{"name":"","type":"bool","internalType":"bool"}],"stateMutability":"nonpayable"},{"type":"function","name":"flashFee","inputs":[{"name":"token","type":"address","internalType":"address"},{"name":"amount","type":"uint256","internalType":"uint256"}],"outputs":[{"name":"","type":"uint256","internalType":"uint256"}],"stateMutability":"view"},{"type":"function","name":"flashLoan","inputs":[{"name":"receiver","type":"address","internalType":"contract IERC3156FlashBorrower"},{"name":"token","type":"address","internalType":"address"},{"name":"amount","type":"uint256","internalType":"uint256"},{"name":"data","type":"bytes","internalType":"bytes"}],"outputs":[{"name":"","type":"bool","internalType":"bool"}],"stateMutability":"nonpayable"},{"type":"function","name":"getGoodState","inputs":[{"name":"goodkey","type":"address","internalType":"address"}],"outputs":[{"name":"","type":"tuple","internalType":"struct S_GoodTmpState","components":[{"name":"goodConfig","type":"uint256","internalType":"uint256"},{"name":"owner","type":"address","internalType":"address"},{"name":"currentState","type":"uint256","internalType":"uint256"},{"name":"investState","type":"uint256","internalType":"uint256"},{"name":"feeQuantityState","type":"uint256","internalType":"uint256"}]}],"stateMutability":"view"},{"type":"function","name":"getProofState","inputs":[{"name":"proofid","type":"uint256","internalType":"uint256"}],"outputs":[{"name":"","type":"tuple","internalType":"struct S_ProofState","components":[{"name":"currentgood","type":"address","internalType":"address"},{"name":"valuegood","type":"address","internalType":"address"},{"name":"state","type":"uint256","internalType":"uint256"},{"name":"invest","type":"uint256","internalType":"uint256"},{"name":"valueinvest","type":"uint256","internalType":"uint256"}]}],"stateMutability":"view"},{"type":"function","name":"goodWelfare","inputs":[{"name":"goodid","type":"address","internalType":"address"},{"name":"welfare","type":"uint128","internalType":"uint128"},{"name":"data","type":"bytes","internalType":"bytes"}],"outputs":[],"stateMutability":"payable"},{"type":"function","name":"initGood","inputs":[{"name":"_valuegood","type":"address","internalType":"address"},{"name":"_initial","type":"uint256","internalType":"uint256"},{"name":"_erc20address","type":"address","internalType":"address"},{"name":"_goodConfig","type":"uint256","internalType":"uint256"},{"name":"_normaldata","type":"bytes","internalType":"bytes"},{"name":"_valuedata","type":"bytes","internalType":"bytes"}],"outputs":[{"name":"","type":"bool","internalType":"bool"}],"stateMutability":"payable"},{"type":"function","name":"initMetaGood","inputs":[{"name":"_erc20address","type":"address","internalType":"address"},{"name":"_initial","type":"uint256","internalType":"uint256"},{"name":"_goodConfig","type":"uint256","internalType":"uint256"},{"name":"data","type":"bytes","internalType":"bytes"}],"outputs":[{"name":"","type":"bool","internalType":"bool"}],"stateMutability":"payable"},{"type":"function","name":"investGood","inputs":[{"name":"_togood","type":"address","internalType":"address"},{"name":"_valuegood","type":"address","internalType":"address"},{"name":"_quantity","type":"uint128","internalType":"uint128"},{"name":"data1","type":"bytes","internalType":"bytes"},{"name":"data2","type":"bytes","internalType":"bytes"}],"outputs":[{"name":"","type":"bool","internalType":"bool"}],"stateMutability":"payable"},{"type":"function","name":"ishigher","inputs":[{"name":"goodid","type":"address","internalType":"address"},{"name":"valuegood","type":"address","internalType":"address"},{"name":"compareprice","type":"uint256","internalType":"uint256"}],"outputs":[{"name":"","type":"bool","internalType":"bool"}],"stateMutability":"view"},{"type":"function","name":"marketconfig","inputs":[],"outputs":[{"name":"","type":"uint256","internalType":"uint256"}],"stateMutability":"view"},{"type":"function","name":"marketcreator","inputs":[],"outputs":[{"name":"","type":"address","internalType":"address"}],"stateMutability":"view"},{"type":"function","name":"maxFlashLoan","inputs":[{"name":"good","type":"address","internalType":"address"}],"outputs":[{"name":"","type":"uint256","internalType":"uint256"}],"stateMutability":"view"},{"type":"function","name":"modifyGoodConfig","inputs":[{"name":"_goodid","type":"address","internalType":"address"},{"name":"_goodConfig","type":"uint256","internalType":"uint256"}],"outputs":[{"name":"","type":"bool","internalType":"bool"}],"stateMutability":"nonpayable"},{"type":"function","name":"payGood","inputs":[{"name":"_goodid","type":"address","internalType":"address"},{"name":"_payquanity","type":"uint128","internalType":"uint128"},{"name":"_recipent","type":"address","internalType":"address"},{"name":"transdata","type":"bytes","internalType":"bytes"}],"outputs":[{"name":"","type":"bool","internalType":"bool"}],"stateMutability":"payable"},{"type":"function","name":"queryCommission","inputs":[{"name":"_goodid","type":"address[]","internalType":"address[]"},{"name":"_recipent","type":"address","internalType":"address"}],"outputs":[{"name":"","type":"uint256[]","internalType":"uint256[]"}],"stateMutability":"view"},{"type":"function","name":"removeMarketor","inputs":[{"name":"_user","type":"address","internalType":"address"}],"outputs":[],"stateMutability":"nonpayable"},{"type":"function","name":"removeSecurityKeeper","inputs":[],"outputs":[],"stateMutability":"nonpayable"},{"type":"function","name":"removebanlist","inputs":[{"name":"_user","type":"address","internalType":"address"}],"outputs":[{"name":"","type":"bool","internalType":"bool"}],"stateMutability":"nonpayable"},{"type":"function","name":"securityKeeper","inputs":[{"name":"token","type":"address","internalType":"address"}],"outputs":[],"stateMutability":"nonpayable"},{"type":"function","name":"setMarketConfig","inputs":[{"name":"_marketconfig","type":"uint256","internalType":"uint256"}],"outputs":[{"name":"","type":"bool","internalType":"bool"}],"stateMutability":"nonpayable"},{"type":"function","name":"setMarketor","inputs":[{"name":"_newmarketor","type":"address","internalType":"address"}],"outputs":[],"stateMutability":"nonpayable"},{"type":"function","name":"updateGoodConfig","inputs":[{"name":"_goodid","type":"address","internalType":"address"},{"name":"_goodConfig","type":"uint256","internalType":"uint256"}],"outputs":[{"name":"","type":"bool","internalType":"bool"}],"stateMutability":"nonpayable"},{"type":"function","name":"userConfig","inputs":[{"name":"","type":"address","internalType":"address"}],"outputs":[{"name":"","type":"uint256","internalType":"uint256"}],"stateMutability":"view"},{"type":"event","name":"e_buyGood","inputs":[{"name":"sellgood","type":"address","indexed":true,"internalType":"address"},{"name":"forgood","type":"address","indexed":true,"internalType":"address"},{"name":"fromer","type":"address","indexed":false,"internalType":"address"},{"name":"swapvalue","type":"uint128","indexed":false,"internalType":"uint128"},{"name":"sellgoodstate","type":"uint256","indexed":false,"internalType":"uint256"},{"name":"forgoodstate","type":"uint256","indexed":false,"internalType":"uint256"}],"anonymous":false},{"type":"event","name":"e_changegoodowner","inputs":[{"name":"goodid","type":"address","indexed":false,"internalType":"address"},{"name":"to","type":"address","indexed":false,"internalType":"address"}],"anonymous":false},{"type":"event","name":"e_changemarketcreator","inputs":[{"name":"_newmarketor","type":"address","indexed":false,"internalType":"address"}],"anonymous":false},{"type":"event","name":"e_collectProof","inputs":[{"name":"_proofNo","type":"uint256","indexed":true,"internalType":"uint256"},{"name":"_normalGoodNo","type":"address","indexed":false,"internalType":"address"},{"name":"_valueGoodNo","type":"address","indexed":false,"internalType":"address"},{"name":"_profit","type":"uint256","indexed":false,"internalType":"uint256"}],"anonymous":false},{"type":"event","name":"e_collectProtocolFee","inputs":[{"name":"goodid","type":"address","indexed":false,"internalType":"address"},{"name":"feeamount","type":"uint256","indexed":false,"internalType":"uint256"}],"anonymous":false},{"type":"event","name":"e_collectcommission","inputs":[{"name":"_gooid","type":"address[]","indexed":false,"internalType":"address[]"},{"name":"_commisionamount","type":"uint256[]","indexed":false,"internalType":"uint256[]"}],"anonymous":false},{"type":"event","name":"e_disinvestProof","inputs":[{"name":"_proofNo","type":"uint256","indexed":true,"internalType":"uint256"},{"name":"_normalGoodNo","type":"address","indexed":false,"internalType":"address"},{"name":"_valueGoodNo","type":"address","indexed":false,"internalType":"address"},{"name":"_value","type":"uint256","indexed":false,"internalType":"uint256"},{"name":"_normalgood","type":"uint256","indexed":false,"internalType":"uint256"},{"name":"_valuegood","type":"uint256","indexed":false,"internalType":"uint256"},{"name":"_profit","type":"uint256","indexed":false,"internalType":"uint256"}],"anonymous":false},{"type":"event","name":"e_enpower","inputs":[{"name":"_goodid","type":"uint256","indexed":false,"internalType":"uint256"},{"name":"_valuegood","type":"uint256","indexed":false,"internalType":"uint256"},{"name":"_quantity","type":"uint256","indexed":false,"internalType":"uint256"}],"anonymous":false},{"type":"event","name":"e_goodWelfare","inputs":[{"name":"goodid","type":"address","indexed":false,"internalType":"address"},{"name":"welfare","type":"uint128","indexed":false,"internalType":"uint128"}],"anonymous":false},{"type":"event","name":"e_initGood","inputs":[{"name":"_proofNo","type":"uint256","indexed":false,"internalType":"uint256"},{"name":"_goodid","type":"address","indexed":false,"internalType":"address"},{"name":"_valuegoodNo","type":"address","indexed":false,"internalType":"address"},{"name":"_goodConfig","type":"uint256","indexed":false,"internalType":"uint256"},{"name":"_construct","type":"uint256","indexed":false,"internalType":"uint256"},{"name":"_normalinitial","type":"uint256","indexed":false,"internalType":"uint256"},{"name":"_value","type":"uint256","indexed":false,"internalType":"uint256"}],"anonymous":false},{"type":"event","name":"e_initMetaGood","inputs":[{"name":"_proofNo","type":"uint256","indexed":false,"internalType":"uint256"},{"name":"_goodid","type":"address","indexed":false,"internalType":"address"},{"name":"_construct","type":"uint256","indexed":false,"internalType":"uint256"},{"name":"_goodConfig","type":"uint256","indexed":false,"internalType":"uint256"},{"name":"_initial","type":"uint256","indexed":false,"internalType":"uint256"}],"anonymous":false},{"type":"event","name":"e_investGood","inputs":[{"name":"_proofNo","type":"uint256","indexed":true,"internalType":"uint256"},{"name":"_normalgoodid","type":"address","indexed":false,"internalType":"address"},{"name":"_valueGoodNo","type":"address","indexed":false,"internalType":"address"},{"name":"_value","type":"uint256","indexed":false,"internalType":"uint256"},{"name":"_invest","type":"uint256","indexed":false,"internalType":"uint256"},{"name":"_valueinvest","type":"uint256","indexed":false,"internalType":"uint256"}],"anonymous":false},{"type":"event","name":"e_modifiedUserConfig","inputs":[{"name":"_user","type":"address","indexed":false,"internalType":"address"},{"name":"config","type":"uint256","indexed":false,"internalType":"uint256"}],"anonymous":false},{"type":"event","name":"e_modifyGoodConfig","inputs":[{"name":"_goodid","type":"address","indexed":false,"internalType":"address"},{"name":"_goodconfig","type":"uint256","indexed":false,"internalType":"uint256"}],"anonymous":false},{"type":"event","name":"e_setMarketConfig","inputs":[{"name":"_marketconfig","type":"uint256","indexed":false,"internalType":"uint256"}],"anonymous":false},{"type":"event","name":"e_transferdel","inputs":[{"name":"delproofid","type":"uint256","indexed":false,"internalType":"uint256"},{"name":"existsproofid","type":"uint256","indexed":false,"internalType":"uint256"}],"anonymous":false},{"type":"event","name":"e_updateGoodConfig","inputs":[{"name":"_goodid","type":"address","indexed":false,"internalType":"address"},{"name":"_goodConfig","type":"uint256","indexed":false,"internalType":"uint256"}],"anonymous":false},{"type":"error","name":"ERC20PermitFailed","inputs":[]},{"type":"error","name":"ERC20TransferFailed","inputs":[]},{"type":"error","name":"ERC3156ExceededMaxLoan","inputs":[{"name":"maxLoan","type":"uint256","internalType":"uint256"}]},{"type":"error","name":"ERC3156InvalidReceiver","inputs":[{"name":"receiver","type":"address","internalType":"address"}]},{"type":"error","name":"ERC3156UnsupportedToken","inputs":[{"name":"token","type":"address","internalType":"address"}]},{"type":"error","name":"NativeTransferFailed","inputs":[]},{"type":"error","name":"TTSwapError","inputs":[{"name":"seq","type":"uint256","internalType":"uint256"}]},{"type":"error","name":"noEnoughOutputError","inputs":[]}],"bytecode":{"object":"0x60a0346100ce57601f61489a38819003918201601f19168301916001600160401b038311848410176100d2578084926080946040528339810103126100ce5780519061004d602082016100e6565b91610066606061005f604085016100e6565b93016100e6565b6080939093525f55600480546001600160a01b039283166001600160a01b0319918216179091556005805492909316911617905560405161479f90816100fb8239608051818181610ced015281816113fb015281816119740152818161249201526127750152f35b5f80fd5b634e487b7160e01b5f52604160045260245ffd5b51906001600160a01b03821682036100ce5756fe60806040526004361015610011575f80fd5b5f3560e01c806306cf4e7f146101f457806308238466146101ef5780630d2700ab146101ea578063102e5c27146101e557806313a124c3146101e05780631412723a146101db5780633c9fe544146101d65780633d995173146101d15780633f117740146101cc578063402f5ab5146101c757806341e12373146101c257806345818e4c146101bd57806351ff9a16146101b85780635cffe9de146101b35780635f35b0b3146101ae5780635f755d65146101a9578063613255ab146101a45780639551177a1461019f5780639b2227941461019a578063a06ad0e814610195578063a3b74a4914610190578063a676a6001461018b578063b153b92014610186578063b1efb92114610181578063c9544f181461017c578063cc00da2d14610177578063d9d98ce414610172578063f29771cb1461016d578063f4662f20146101685763f878e80914610163575f80fd5b611c91565b6118a5565b61180d565b6117c1565b61174f565b611707565b611693565b61161f565b6112d4565b611234565b6111ba565b6110f0565b611034565b611003565b610f88565b610f4d565b610d74565b610bc8565b610b67565b610ab0565b610a94565b6109d6565b6109ae565b6108d7565b610862565b6107d2565b61074d565b6105dc565b6103b8565b61025b565b6001600160a01b0381160361020a57565b5f80fd5b60a4359061021b826101f9565b565b6001600160801b0381160361020a57565b9181601f8401121561020a578235916001600160401b03831161020a576020838186019501011161020a57565b606036600319011261020a57600435610273816101f9565b60243561027f8161021d565b6044356001600160401b03811161020a5761029e90369060040161022e565b92905f8051602061474a8339815191525c6001600160a01b03166103a457335f8051602061474a8339815191525d6001600160a01b0382165f908152600160205260409020600401546001606d1b906001600160801b039061030990869060801c61208e565b61208e565b161015610390577f0dc5e2150c5754dc0bcd8d76ca2d23850fc9a2a3115c69bb4fbdbedc25074a0093610347916001600160801b0385163385612966565b610367600461035583610f34565b01546103618460801b90565b9061297d565b600461037283610f34565b0155610383604051928392836120ac565b0390a161038e612954565b005b63d1b5191160e01b5f52600c60045260245ffd5b63d1b5191160e01b5f52600360045260245ffd5b3461020a57602036600319011261020a5761049e6004356103d8816101f9565b6103e06120cf565b506001600160a01b038181165f90815260016020819052604090912080549101549092911690600261041182610f34565b015461044c600461042e600361042686610f34565b015494610f34565b015493610439610512565b9586526001600160a01b03166020860152565b6040840152606083015260808201526040519182918291909160808060a08301948051845260018060a01b03602082015116602085015260408101516040850152606081015160608501520151910152565b0390f35b634e487b7160e01b5f52604160045260245ffd5b60a081019081106001600160401b038211176104d157604052565b6104a2565b604081019081106001600160401b038211176104d157604052565b90601f801991011681019081106001600160401b038211176104d157604052565b6040519061021b60a0836104f1565b6040519061021b6060836104f1565b6040519061021b610100836104f1565b6040519061021b6040836104f1565b6040519061021b6080836104f1565b6001600160401b0381116104d15760051b60200190565b9080601f8301121561020a57813561058c8161055e565b9261059a60405194856104f1565b81845260208085019260051b82010192831161020a57602001905b8282106105c25750505090565b6020809183356105d1816101f9565b8152019101906105b5565b3461020a57602036600319011261020a576004356001600160401b03811161020a5761060c903690600401610575565b60648151116107395761061f81516120f9565b5f5b82518110156107025760019061066b336005610655610650610643868a61212b565b516001600160a01b031690565b610f34565b019060018060a01b03165f5260205260405f2090565b54610676828561212b565b526002610683828561212b565b51101561069d575f610695828561212b565b525b01610621565b6106b06106aa828561212b565b51612153565b6106ba828561212b565b526106da6106d4336005610655610650610643878b61212b565b60019055565b6106fd6106ea610643838761212b565b6106f4838661212b565b519033906129a6565b610697565b507f477bb716eacccc001de50dcdd6e25241283d080e6afb27443908b20f4e738b5e916107346040519283928361216e565b0390a1005b63d1b5191160e01b5f52600b60045260245ffd5b3461020a57602036600319011261020a5760043561076a816101f9565b6004546001600160a01b031633036107be576001600160a01b0381165f908152600360205260409081902080546002179081905590515f8051602061472a83398151915292909182916107349190836121c8565b63d1b5191160e01b5f52600160045260245ffd5b60e036600319011261020a576004356107ea816101f9565b6024356107f6816101f9565b604435916108038361021d565b606435608435801515810361020a5761081a61020e565b9160c435956001600160401b03871161020a5761083e61084697369060040161022e565b9690956121e3565b604080516001600160801b039384168152919092166020820152f35b3461020a57606036600319011261020a5761049e6108c5600435610885816101f9565b602435610891816101f9565b6044356001600160a01b039283165f9081526001602052604080822060029081015494909516825290209092015490612d61565b60405190151581529081906020820190565b3461020a57602036600319011261020a576004356108f4816101f9565b6005546001600160a01b0316330361020a5761038e9060018060a01b0381165f526001602052610983610953610947610934600460405f20015460801c90565b600461093f86610f34565b01549061252b565b6001600160801b031690565b5f600461095f85610f34565b015561097d600261096f85610f34565b01546001600160801b031690565b90612544565b905f600261099083610f34565b01556005546001600160a01b0316906129a6565b5f91031261020a57565b3461020a575f36600319011261020a576004546040516001600160a01b039091168152602090f35b3461020a57602036600319011261020a576004356109f26120cf565b505f52600260205261049e60405f20600460405191610a10836104b6565b60018060a01b03815416835260018060a01b0360018201541660208401526002810154604084015260038101546060840152015460808201526040519182918291909160808060a083019460018060a01b03815116845260018060a01b03602082015116602085015260408101516040850152606081015160608501520151910152565b3461020a575f36600319011261020a5760205f54604051908152f35b3461020a57604036600319011261020a57600435610acd816101f9565b602435610ad9816101f9565b335f526003602052600260405f20541615610b53577f42e3c955499470d3dc1078d90519d90691c504c8856ea058daf2c1436c2dab4c9160018060a01b0381165f526001602052610b3082600160405f2001612551565b604080516001600160a01b03928316815292909116602083015281908101610734565b63d1b5191160e01b5f52600260045260245ffd5b3461020a57602036600319011261020a57600480549035906001600160a01b031633036107be576020817fbd209961024f2694b0afb3c8badd20b6477abb77b336b16892c3fa4b906d323c925f55604051908152a160405160018152602090f35b608036600319011261020a57600435610be0816101f9565b604435906024356064356001600160401b03811161020a57610c0690369060040161022e565b600454919290916001600160a01b031633036107be57600160ff1b851615610c2d565b1590565b610d61577f8f2eb922ee1b2f92e0051f7949a8c191264807725a1e435e91abebd28583830a946001600160801b03821693610d5293610c6e91863389612966565b610c818183610c7c88610f34565b612dc1565b610c92610c8d86610f34565b612de6565b610d11610cbd610ca0610521565b3381526001600160a01b03881660208201525f6040820152612e1d565b94610cea610cd3875f52600260205260405f2090565b918560801c9289610ce48560801b90565b91612e63565b337f0000000000000000000000000000000000000000000000000000000000000000612f15565b604080519586526001600160a01b0390961660208601526001600160801b0316948401949094526060830193909352608082019290925290819060a0820190565b0390a160405160018152602090f35b63d1b5191160e01b5f526004805260245ffd5b3461020a57608036600319011261020a57600435610d91816101f9565b60243590610d9e826101f9565b604435916064356001600160401b03811161020a57610dc190369060040161022e565b909390610dce3084613136565b808311610f2257506020610e3091610dfa84610de987610f34565b5490603f6127109260df1c16020490565b6001600160a01b0390961696610e118589886129a6565b6040516323e30c8b60e01b8152938492839289888a336004880161257f565b03815f895af18015610f1d577f439148f0bbc682ca079e46d6e2c2f0c1e3b820f1a291b069d8882abf8cf18dd9915f91610eee575b5003610ed357610eaa93610e9b9291849160016001600160a01b03851603610eb6575061065091610e9591612544565b82612fdc565b6004019081549060801b019055565b60405160018152602090f35b9061094761094761065094610eca93612544565b90309084612f8d565b62678c5b60e81b5f526001600160a01b03841660045260245ffd5b610f10915060203d602011610f16575b610f0881836104f1565b810190612570565b5f610e65565b503d610efe565b612520565b63fd9a760960e01b5f5260045260245ffd5b6001600160a01b03165f90815260016020526040902090565b3461020a57602036600319011261020a57600435610f6a816101f9565b60018060a01b03165f526003602052602060405f2054604051908152f35b60c036600319011261020a57600435610fa0816101f9565b60443590602435610fb0836101f9565b606435916084356001600160401b03811161020a57610fd390369060040161022e565b9060a435946001600160401b03861161020a5761049e96610ffb6108c597369060040161022e565b9690956125cf565b3461020a57602036600319011261020a57602061102c600435611025816101f9565b3090613136565b604051908152f35b3461020a57602036600319011261020a57600435611051816101f9565b335f526003602052600260405f20541615610b53576001600160a01b0381165f90815260036020526040908190208054600119169081905590515f8051602061472a8339815191529290918291610d529190836121c8565b90602080835192838152019201905f5b8181106110c65750505090565b82518452602093840193909201916001016110b9565b9060206110ed9281815201906110a9565b90565b3461020a57604036600319011261020a576004356001600160401b03811161020a57611120903690600401610575565b6024359061112d826101f9565b6064815110156111a65761114181516120f9565b915f5b8251811015611198576001906001600160a01b03611162828661212b565b51165f908152602083815260408083206001600160a01b0387168452600501909152902054611191828761212b565b5201611144565b6040518061049e86826110dc565b63d1b5191160e01b5f52600b60045260245ffd5b3461020a57602036600319011261020a576004356111d7816101f9565b60045490336001600160a01b038316036107be576001600160a01b03166001600160a01b03199190911681176004556040519081527fa8d3850ce581f2add46670c1408b76ca1d0d4ef627eed4a89802ff670940082d90602090a1005b3461020a57604036600319011261020a57600435611251816101f9565b6024356001600160a01b038281165f81815260016020819052604090912001549093911633036112c0577f075a13b9dbfb2e30d678551b8c2a4f9ede7468ca5273fa902a41d0e577566669925f5260016020526112b18260405f206131a0565b610d52604051928392836121c8565b63d1b5191160e01b5f52600a60045260245ffd5b3461020a57604036600319011261020a576004356024356112f4816101f9565b5f8051602061474a8339815191525c6001600160a01b03166103a457335f8051602061474a8339815191525d816113a2611346611339835f52600260205260405f2090565b546001600160a01b031690565b61139d61136e6001611360865f52600260205260405f2090565b01546001600160a01b031690565b61138d611379610521565b338152936001600160a01b03166020850152565b6001600160a01b03166040830152565b612e1d565b0361160b576113be6001611360845f52600260205260405f2090565b916113d4611339825f52600260205260405f2090565b6040805163b88e6d6360e01b81523360048201529491939190856024816001600160a01b037f0000000000000000000000000000000000000000000000000000000000000000165afa918215610f1d5761049e957f1129f35303e34d7efabdbd85614ed662beb4fc6942852b7a3e5a4f92074cbf31936114f0925f925f926115d7575b506001600160a01b0381165f90815260036020526040902061147d905b54600116151590565b156115d1575081905b6001600160a01b03828116908216036115cc5750815b6001600160a01b0381165f9081526003602052604090206114bc90611474565b156115c5575b6114cb88610f34565b916114d586610f34565b6114e7895f52600260205260405f2090565b905f54946131c0565b9361150033600561065584610f34565b546002811161159f575b506001600160a01b038216611555575b604080516001600160a01b0392831681529290911660208301528101849052606090a2611545612954565b6040519081529081906020820190565b61156433600561065585610f34565b5460028111611574575b5061151a565b6115926115999161158d6106d433600561065589610f34565b612153565b33846129a6565b5f61156e565b6115b86115bf9161158d6106d433600561065588610f34565b33836129a6565b5f61150a565b50816114c2565b61149c565b90611486565b9092506115fc915060403d604011611604575b6115f481836104f1565b810190612901565b90915f611457565b503d6115ea565b63d1b5191160e01b5f52600960045260245ffd5b3461020a57602036600319011261020a5760043561163c816101f9565b335f526003602052600260405f20541615610b53576001600160a01b0381165f908152600360205260409081902080546001179081905590515f8051602061472a8339815191529290918291610d529190836121c8565b3461020a57604036600319011261020a576004356116b0816101f9565b602435335f526003602052600260405f20541615610b53577fe40cf68f61d9a4e510244481f5aa34ba68de31cf3f9aa360604d688115d640c89160018060a01b0381165f5260016020526112b18260405f20612e03565b3461020a575f36600319011261020a576004546001600160a01b0316330361173b57600580546001600160a01b0319169055005b63d1b5191160e01b5f52600e60045260245ffd5b3461020a57602036600319011261020a5760043561176c816101f9565b6004546001600160a01b031633036107be576001600160a01b0381165f90815260036020526040908190208054600219169081905590515f8051602061472a83398151915292909182916107349190836121c8565b3461020a57604036600319011261020a57602061102c6004356117e3816101f9565b6001600160a01b03165f90815260018352604090205461271060df9190911c603f16602435020490565b608036600319011261020a57600435611825816101f9565b602435906118328261021d565b60443561183e816101f9565b6064356001600160401b03811161020a5761185d90369060040161022e565b93906001600160a01b0384166001036118855750610eaa93506001600160801b0316916129a6565b6118a0949390926001600160801b039092169190339061355b565b610eaa565b3461020a57606036600319011261020a576004356024356118c58161021d565b604435906118d2826101f9565b5f8051602061474a8339815191525c6001600160a01b03166103a457335f8051602061474a8339815191525d82611917611346611339835f52600260205260405f2090565b03611c7d57611924612926565b5061192d612926565b50611943611339845f52600260205260405f2090565b61195a6001611360865f52600260205260405f2090565b6040805163b88e6d6360e01b8152336004820152949193917f000000000000000000000000000000000000000000000000000000000000000091866024816001600160a01b0386165afa958615610f1d57611ad1611bbd94868a89611acc611b0c967f63741ac8918076a6393e6e12659431a4927b53e16190a6b00af6a06697d868b89d611b06995f925f92611c59575b506001600160a01b0381165f908152600360205260409020611a0c90611474565b15611c5157905b6001600160a01b0382811690821603611c4c5750815b6001600160a01b0381165f908152600360205260409020611a4990611474565b15611c3857611a76611a67611a61611ab79399610f34565b96610f34565b965f52600260205260405f2090565b96611aa75f5493611a97611a88610512565b6001600160801b03909c168c52565b6001600160a01b031660208b0152565b6001600160a01b03166040890152565b60608701526001600160a01b03166080860152565b613ae0565b8092949195611ae53360056106558c610f34565b5460018111611c11575b506001600160a01b038a16611bc8575b3390614054565b60801b90565b6020820151909290611b7e90611b45906001600160801b03165b60408501516001600160801b03165b60018060801b03169060801b1790565b91611b35611b70611b62611b26602085015160018060801b031690565b95516001600160801b031690565b91516001600160801b031690565b604080516001600160a01b039788168152979096166020880152948601929092526060850191909152608084015260a0830191909152819060c0820190565b0390a2610eaa612954565b611bd73360056106558d610f34565b548a60018211611be9575b5050611aff565b611c0a9161158d6106d4611c039360056106553392610f34565b338c6129a6565b5f8a611be2565b611c2b611c329161158d6106d48d60056106553392610f34565b338b6129a6565b5f611aef565b50611ab7611a76611a67611a618599610f34565b611a29565b508190611a13565b909250611c75915060403d604011611604576115f481836104f1565b90915f6119eb565b63d1b5191160e01b5f52600860045260245ffd5b60a036600319011261020a57600435611ca9816101f9565b602435611cb5816101f9565b60443590611cc28261021d565b6064356001600160401b03811161020a57611ce190369060040161022e565b9390926084356001600160401b03811161020a57611d0390369060040161022e565b90915f8051602061474a8339815191525c6001600160a01b03166103a457335f8051602061474a8339815191525d611d3961285e565b96611d4261285e565b966001606d1b6001600160801b03611d66856002611d5f8b610f34565b015461208e565b1610801590612065575b801561202d575b6120195782611d928a611da295611d8d8a610f34565b613004565b6001600160801b03163387612966565b6001600160a01b038416159185908315611f65575b505050611dc2610521565b3381526001600160a01b03831660208201526001600160a01b0384166040820152611dec90612e1d565b94611dff865f52600260205260405f2090565b6040820180519196909390916001600160801b031690611e1f8260801b90565b60208501519091906001600160801b0316606086018051909a9189916001600160801b03166001600160801b031660809190911b1760208701516001600160801b03166060880180519096918d916001600160801b03166001600160801b031660809190911b1793611e9095612ea8565b5f14611b70611f0c7fee89c9fd704272905456294f1b2b88581ebe0241f72c15b4f3db31d19388f6af9a611b35611b70611efe611bbd9b611f1a99611b3598611f5157508051611eec90611b70906001600160801b0316610cea565b60801b6001600160801b039091161790565b99516001600160801b031690565b94516001600160801b031690565b604080516001600160a01b0396871681529690951660208701529385019190915260608401526080830191909152819060a0820190565b611b70611f60611eec926128e1565b610cea565b611fff61201193611f906002611f7a8a610f34565b015460408c01516001600160801b0316906140a3565b6001600160801b03166060850190815292611fe4611fd7611fb08b610f34565b548651611fc5906001600160801b0316610947565b603f6127109260d91c16820390040290565b6001600160801b03168552565b8351611ff8906001600160801b0316610947565b338a612966565b61200b611b7087610f34565b90613004565b5f8481611db7565b63d1b5191160e01b5f52600760045260245ffd5b5061204661203a87610f34565b54600160ff1b16151590565b8015612053575b15611d77565b5061206061203a88610f34565b61204d565b506001600160a01b0386811690881614611d70565b634e487b7160e01b5f52601160045260245ffd5b6001600160801b0391821690821601919082116120a757565b61207a565b6001600160a01b0390911681526001600160801b03909116602082015260400190565b604051906120dc826104b6565b5f6080838281528260208201528260408201528260608201520152565b906121038261055e565b61211060405191826104f1565b8281528092612121601f199161055e565b0190602036910137565b805182101561213f5760209160051b010190565b634e487b7160e01b5f52603260045260245ffd5b5f198101919082116120a757565b919082039182116120a757565b9291604084019360408152825180955260206060820193015f955b8087106121a55750506110ed93945060208184039101526110a9565b81516001600160a01b031685526001969096019560209485019490910190612189565b6001600160a01b039091168152602081019190915260400190565b94979690939291905f8051602061474a8339815191525c6001600160a01b03166103a457335f8051602061474a8339815191525d6001600160a01b038916612490575b5f9850600261223487610f34565b01549661224087610f34565b5491600261224d88610f34565b015461225888610f34565b54612261610530565b6001600160801b038716815297602089019d8e526122a860408a01985f8a5260608b01975f895260808c019e8f5260a08c015260c08b0194855260e08b019384528a612a2a565b6001600160801b03871680159190821561245e575b508115612448575b8115612419575b5061240557519b516001600160801b03169b6001600160801b038d1661271060cc9290921c607f1602049b8c6123019161252b565b9961230b8a610f34565b905187516001600160801b03169061232292612d30565b8b61232c89610f34565b915161233792612d30565b85516001600160801b031661234c908561252b565b6001600160801b03166123619290338a612966565b6123756001600160801b03881633876129a6565b516001600160801b031692516001600160801b03166123939161252b565b9051604080513381526001600160801b039485166020820152608093841b928516929092179082015291871685821b1760608301526001600160a01b0392831693909216917fe9174eb0d60b5dfcb132e979d11319f32d4a3ebdbf5abbb9600950c1cf8fab5b91a3919061021b612954565b63d1b5191160e01b5f52600660045260245ffd5b600191501515148061242c575b5f6122cc565b508751612441906001600160801b0316610947565b1515612426565b6001600160a01b038c8116908c161491506122c5565b8a519192509061248790610947906001600160801b03168b516001600160801b03165b9061208e565b1015905f6122bd565b7f00000000000000000000000000000000000000000000000000000000000000006001600160a01b0316803b1561020a576040516376549e6760e11b81523360048201526001600160a01b039a909a1660248b01525f908a90604490829084905af1988915610f1d575f99612506575b50612226565b806125148b61251a936104f1565b806109a4565b5f612500565b6040513d5f823e3d90fd5b6001600160801b0391821690821603919082116120a757565b919082018092116120a757565b80546001600160a01b0319166001600160a01b03909216919091179055565b9081602091031261020a575190565b6001600160a01b039182168152911660208201526040810191909152606081019190915260a060808201819052810183905260c09290918190848401375f828201840152601f01601f1916010190565b9691959293909291905f8051602061474a8339815191525c6001600160a01b03166103a457335f8051602061474a8339815191525d6001600160a01b0361261a60016113608a610f34565b1615801590612849575b61283557608084901c9561263a9187338a612966565b61264f916001600160801b0384163389612966565b61265761285e565b908161266287610f34565b9161266c92613004565b61267584610f34565b604082018051909190849086906001600160801b031660801b6001600160801b03909116176126a392612dc1565b6126ab610521565b3381526001600160a01b03861660208201526001600160a01b03871660408201526126d590612e1d565b815160208401516060850180519397909390926001600160801b0319608091821b81169390911b166001600160801b039190911617612712610512565b6001600160a01b038a168152916001600160a01b038b16602084015260408301528260608301526080820152612750875f52600260205260405f2090565b9061275a91612892565b82516001600160801b031661276e906128e1565b61279990337f0000000000000000000000000000000000000000000000000000000000000000612f15565b925193519151604080519788526001600160a01b039889166020890152989097169786019790975260608501939093526001600160801b0390811660808581019190915295861b9181169190911760a08401526001600160801b03199190941b16919092161760c08201527f3fc0293a5a7bc73de220f0814bbbebc31e77ffcd41bf5e8be187471747bd7caa9060e090a160019061021b612954565b63d1b5191160e01b5f52600560045260245ffd5b50612859610c2961203a8a610f34565b612624565b60405190608082018281106001600160401b038211176104d1576040525f6060838281528260208201528260408201520152565b9060806004916128ab60018060a01b0382511685612551565b60208101516128c6906001600160a01b031660018601612551565b60408101516002850155606081015160038501550151910155565b60011b6002600160801b03811691906002600160811b031682036120a757565b919082604091031261020a576020825161291a816101f9565b9201516110ed816101f9565b60405190606082018281106001600160401b038211176104d1576040525f6040838281528260208201520152565b5f5f8051602061474a8339815191525d565b61021b9493926001600160801b031691309161355b565b611b35906129928360801d8260801d016140be565b926001600160801b039182169116016140be565b90919060016001600160a01b038216036129df57505f808080936129ca955af11590565b6129d057565b633d2cec6f60e21b5f5260045ffd5b60445f8080936020956040519763a9059cbb60e01b84526004526024525af13d15601f3d1160015f5114161716905f60605260405215612a1b57565b633c9fd93960e21b5f5260045ffd5b6080810191825190612a438160c0850193845190612d61565b612a4e575b50505050565b60a0830190612a7a8251612a6b610947875160018060801b031690565b607f6127109260c51c16020490565b6001600160801b031660408501908152908151612ac090612ab3906001600160801b031687516001600160801b031661252b565b61252b565b6001600160801b03168652565b8451612ad4906001600160801b0316610947565b151580612d1c575b15612ca857612af78351612af1885160801c90565b90614110565b60e0860190612b0f6109478351612af1895160801c90565b6001600160801b0390911610612c8f57612b32612c1c9151612af1875160801c90565b8751612b3e82826140a3565b885190916001600160801b03918216918316821115612c215750508751612bd39190612b8590612b789083906001600160801b031661252b565b6001600160801b03168a52565b612bba612b93848a516140a3565b60208b0180519091612bad916001600160801b031661208e565b6001600160801b03169052565b8951906001600160801b0316608084901b175b90614157565b8852612bff8651612bf9612be784836140a3565b6001600160801b0316608085901b1790565b9061416c565b86525b6060870180519091612bad916001600160801b031661208e565b612ac0565b909150612c2e9250614139565b612c56612c3c8288516140a3565b6020890180519091612bad916001600160801b031661208e565b87518751612c719190612bcd906001600160801b0316612be7565b8852612c858651612bf9612be784836140a3565b86525f8752612c02565b50612c1c612ca38451612af1895160801c90565b612b32565b5083519194509150612cc2906001600160801b0316610947565b928315612a4857612cfc612bad92612bad612cec612d1397855190607f6127109260c51c16020490565b82516001600160801b031661252b565b5182516001600160801b0316906124819082612a6b565b5f808080612a48565b50612d2b818751865190612d61565b612adc565b600490612d4a926002820155019182549060801b9061297d565b9055565b818102929181159184041417156120a757565b9091612db291612da890612d95612d856001600160801b038716608084901c612d4e565b6001600160801b03851690612d4e565b9460801c906001600160801b0316612d4e565b9060801c90612d4e565b1015612dbd57600190565b5f90565b909161021b92806002840155600383015560018060e51b031681556001339101612551565b80546001600160e51b0316600160ff1b8101919082106120a75755565b60018060e51b038154169160e51b82018092116120a75755565b6040805182516001600160a01b03908116602080840191825285015182168385015293909201519091166060808301919091528152612e5d6080826104f1565b51902090565b91612e8f6002612d4a94959395600381019660018060801b0388541615612e98575b500191825461297d565b9055825461297d565b612ea29082612551565b5f612e85565b93612ed4919293600386019360018060801b0385541615612f05575b50612e8f6002870191825461297d565b90556001600160a01b038116612ee957505050565b81612efc6004926001612d4a9501612551565b0191825461297d565b612f0f9087612551565b5f612ec4565b91612f3a926020925f60405180968195829463067e356d60e21b8452600484016120ac565b03926001600160a01b03165af1908115610f1d575f91612f58575090565b90506020813d602011612f85575b81612f73602093836104f1565b8101031261020a57516110ed8161021d565b3d9150612f66565b6040516323b872dd60e01b81526001600160a01b03928316600482015292909116602483015260448201929092526020915f9160649183905af13d15601f3d1160015f511416171615612a1b57565b90341490811591612fef575b506129d057565b6001600160a01b03166001141590505f612fe8565b80549092919061271060d99190911c603f166001600160801b03831602046001600160801b0316825281516001600160801b03166130419161252b565b6001600160801b031660608201818152600284018054909261306291614139565b6001600160801b0316604084019081529260048501908154906130858260801c90565b60039097018054909760801b6001600160801b039091161784516001600160801b03166130b191614139565b6001600160801b039081166020830181815292516130cf921661208e565b90516001600160801b03166001600160801b031660809190911b176130f39161297d565b9055815492516001600160801b031690516001600160801b03166001600160801b031660809190911b1791826131289161297d565b9055815490612d4a9161297d565b6001600160a01b03166001810361314c57503190565b6040516370a0823160e01b81526001600160a01b039092166004830152602090829060249082905afa908115610f1d575f91613187575b5090565b6110ed915060203d602011610f1657610f0881836104f1565b6307ffffff60e51b8154169160018060e51b031682018092116120a75755565b94939092969591966004860195838383888a548d6003870154600160801b6001900316600160801b60019003198316179060030154908161320091614139565b9060801c61320d9161252b565b9b8c91613224906001600160801b0384169061297d565b905561322f95614195565b60048401805460038601549196916001600160801b03166001600160801b031982161760048b0154908161326291614139565b9060801c61326f9161252b565b9687916001600160801b0383166132859161297d565b905561329095614195565b6001600160801b031660809190911b17918261021b916145c7565b60ff81160361020a57565b60208183031261020a578035906001600160401b03821161020a57019060408282031261020a57604051916132ea836104d6565b80356132f5816132ab565b83526020810135906001600160401b03821161020a570181601f8201121561020a578035906001600160401b0382116104d15760405192613340601f8401601f1916602001856104f1565b8284526020838301011161020a57815f9260208093018386013783010152602082015290565b908160c091031261020a576040519060c08201908282106001600160401b038311176104d15760a09160405280518352602081015160208401526040810151604084015260608101516133b8816132ab565b606084015260808101516080840152015160a082015290565b929190604051936020850152604084015260ff60f81b1660608301526041825261021b6061836104f1565b805180835260209291819084018484015e5f828201840152601f01601f1916010190565b90926134786101009360406110ed979661344d8682516020809160018060a01b0381511684520151910152565b60208181015187840152910151606086015281516001600160a01b03166080860152015160a0840152565b6001600160a01b031660c082015260e0810182905201906133fc565b60406110ed94936101009360018060a01b0316835265ffffffffffff6060825160018060a01b03815116602087015260018060a01b036020820151168587015282858201511682870152015116608084015260018060a01b0360208201511660a0840152015160c08201528160e082015201906133fc565b908160a091031261020a57608060405191613526836104b6565b80518352602081015160208401526040810151613542816132ab565b6040840152606081015160608401520151608082015290565b929361356a91958101906132b6565b6001600160a01b03831690600182036135bc57505050505f908034106129d0578034116135ab575b508061359c575050565b5f808080936129ca955af11590565b6135b6915034612161565b5f613592565b60ff6135cd82979495975160ff1690565b16600181036135e25750505061021b93612f8d565b600281036137b7575060206136029101516020808251830101910161350c565b73898118e029aa17ed4763f432c1bdc1085d166cde820361372f57604051623f675f60e91b81526001600160a01b038416600482015291602090839060249082905afa908115610f1d576136e95f939284938491613710575b506136db602084015193613673604082015160ff1690565b60608201516080909201516040516323f2ebc360e21b60208201526001600160a01b038b16602482015230604482015260648101959095526084850196909652600160a485015260ff1660c484015260e4830152610104820193909352918290610124820190565b03601f1981018352826104f1565b60208151910182885af1156137015761021b93612f8d565b63203aa5b560e11b5f5260045ffd5b613729915060203d602011610f1657610f0881836104f1565b5f61365b565b5f9150806137b28392516136db602084015193613750604082015160ff1690565b606082015160809092015160405163d505accf60e01b60208201526001600160a01b03808c1660248301528c1660448201526064810195909552608485019690965260ff1660a484015260c483015260e4820193909352918290610104820190565b6136e9565b909295949150600381145f1461385a57506137d2915061460e565b9273419c606ed7dd9e411826a26ce9f146ed5a5f7c343b1561020a57604051631b63c28b60e11b81526001600160a01b03918216600482015291811660248301529283166044820152911660648201525f816084818373419c606ed7dd9e411826a26ce9f146ed5a5f7c345af18015610f1d5761384c5750565b806125145f61021b936104f1565b600481036139bc575090602061387b91015160208082518301019101613366565b90613939613889835161460e565b926138e36138a0604083015165ffffffffffff1690565b6138c86138ab61054f565b6001600160a01b038a168152966001600160a01b03166020880152565b65ffffffffffff604087015265ffffffffffff166060860152565b60208101516138f0610521565b9485526001600160a01b03861660208601526040850152608081015190613933613923606060a084015193015160ff1690565b60f81b6001600160f81b03191690565b916133d1565b9173419c606ed7dd9e411826a26ce9f146ed5a5f7c343b1561020a576040516302b67b5760e41b8152925f918491829161397891908a60048501613494565b03818373419c606ed7dd9e411826a26ce9f146ed5a5f7c345af1918215610f1d576137d2926139a8575b5061460e565b806125145f6139b6936104f1565b5f6139a2565b6005146139cb575b5050505050565b6139e56020613a6293015160208082518301019101613366565b908151613a026139f3610540565b6001600160a01b039097168752565b60208601526040820151602083015190613a1a610521565b96875260208701526040860152613a41613a32610540565b6001600160a01b039095168552565b6020840152608081015190613933613923606060a084015193015160ff1690565b9173419c606ed7dd9e411826a26ce9f146ed5a5f7c343b1561020a57613a9e5f93604051958694859463187945bd60e11b865260048601613420565b03818373419c606ed7dd9e411826a26ce9f146ed5a5f7c345af18015610f1d57613acc575b808080806139c4565b806125145f613ada936104f1565b5f613ac3565b9291939093613aed612926565b50613af6612926565b93613b05600283015460801c90565b60038301549690613b2f9060801b6001600160801b0389161786516001600160801b031690614139565b948254976002840198895490613b51610947613b4b8460801c90565b83614622565b6001600160801b038a1611908115614025575b5061401157613c3190613c01613bb7613bf1613bc7613b9f613b8a60048c015460801c90565b60038c015460018060801b03169060801b1790565b8851613bc2906001600160801b031694858093614139565b98611eec8160801c90565b614139565b613be1613bd2610521565b6001600160801b039098168852565b6001600160801b03166020870152565b6001600160801b03166040850152565b6040830151929a8b93613c25906001600160801b031660808c901b175b8093614638565b90556003860154614638565b600385015560048401548151613c9491613c87916001600160801b03166020850151613c78906001600160801b031692608083901b6001600160801b038516175b90614638565b6004890155612aae8b8a61464d565b6001600160801b03168252565b83546040820151613cd491613cc491613cb5906001600160801b0316610947565b603f6127109260d31c16020490565b6001600160801b03166020830152565b80516001600160801b0316916060810194613d696020875194613d5b82860197613d04895160018060a01b031690565b9760408801976080613d1c8a5160018060a01b031690565b91018051909a906001600160a01b03166040870151909390613d54906001600160801b0316888a01516001600160801b03169061252b565b948a614448565b01516001600160801b031690565b6001600160801b038116613ff3575b505060018601546001600160a01b0316613d95575b505050505050565b909192939497506004840192613dac845460801c90565b600386018054909791613dcf918b9160801b6001600160801b0390911617614139565b99613e018a613dfc6004840154611eec6002613df385613bc285611eec8160801c90565b96015460801c90565b6140a3565b95613e1c613e0d610521565b6001600160801b03909d168d52565b6001600160801b0390911660208c01908152906001600160801b0390961660408c01908152958b8854928c60028b0194855491613e65610947613e5f8560801c90565b84614622565b6001600160801b039091161190828c8315613fc2575b505050613fae57613f6a613f5a8f94613f3c613f8c9f958f8f80613cb5610947613f2f94613f869f8f612aae9f90613f789f613f6a9f613edf90613f2095613ed6613c1e612b7897611b35613c879f5160018060801b031690565b90558254614638565b905580548c519091906001600160801b03168b51909190613f19906001600160801b031693608084901b6001600160801b03861617613c72565b905561252b565b5492516001600160801b031690565b516001600160801b031690565b966001600160801b038816613f97575b50516001600160801b031690565b965197516001600160a01b031690565b97516001600160a01b031690565b97516001600160801b031690565b95614448565b5f8080808080613d8d565b613fa681546103618a60801b90565b90555f613f4c565b63d1b5191160e01b5f52600f60045260245ffd5b51919250613fdf9161094791906001600160801b03165b93614622565b6001600160801b03909116115f828c613e7b565b614007600491610361838501549160801b90565b9101555f80613d78565b63d1b5191160e01b5f52600e60045260245ffd5b8451909150614042906109479084906001600160801b0316613fd9565b6001600160801b03909116115f613b64565b6001600160a01b031691823b1561020a57614088925f9283604051809681958294637bd3ca3560e01b8452600484016120ac565b03925af18015610f1d576140995750565b5f61021b916104f1565b6110ed91608082901c6001600160801b039182169190921602045b6001600160801b0381116140d8576001600160801b031690565b505f90565b6001600160801b039091169081156140fc576001600160801b03160490565b634e487b7160e01b5f52601260045260245ffd5b60bb1c6103ff16801561318357600a0260018060801b0381169081036120a7576110ed916140dd565b6110ed916001600160801b0380831660809390931c911602046140be565b611b35906129928360801d8260801d036140be565b611b35906141818360801d8260801d016140be565b926001600160801b039081169116036140be565b939092916141b9606460dd83901c601f166001600160801b0387160204809561252b565b6001600160801b03811693909190606460fa83901c86020491606460f482901c603f168702049489614210606460ee85901c603f168a020498606460e886901c603f168202045b9490603f60649260e21c16020490565b976001600160a01b03831690816142f25750505050506142305f8361208e565b335f9081526005909801602081905260409098206001600160801b039190911681549061425c91612544565b9055614268858561208e565b6001600160801b03169061428c90889060018060a01b03165f5260205260405f2090565b9081549061429991612544565b90556142a49161252b565b906142ae9161252b565b906142b89161252b565b906142c29161208e565b6001600160801b0316916142e5919060018060a01b03165f5260205260405f2090565b90815490612d4a91612544565b6103049750918b93916143f69b95936109479b98975f9b6144099f600161432091015460018060a01b031690565b6001600160a01b039586169581168614158e14614437576001600160a01b03165f9081526005890160205260409020614367905b805490926001600160801b031690612544565b90555b6001600160a01b0381168414158c14614426576001600160a01b03165f908152600587016020526040902061439e90614354565b90555b1415881461440c576001600160a01b03165f908152600580840160205260409091206143ef936143549390916143d49085565b90555b019a8b9060018060a01b03165f5260205260405f2090565b905561208e565b335f908152602093909352604090922090565b55565b506005614420614354926143ef949561208e565b936143d7565b50614431919661208e565b946143a1565b50614442919861208e565b9661436a565b9495909390929091614470606460dd83901c601f166001600160801b0388160204809661252b565b6001600160801b03811694909290606460fa84901c87020492606460f482901c603f16880204958a6144bb606460ee85901c603f168b020499606460e886901c603f16820204614200565b986001600160a01b03831690816144db575050505050614230908361208e565b6103049850908c949392916109479b98976143f69d979b6144099f600161450991015460018060a01b031690565b6001600160a01b0395861695811686146145b6576001600160a01b03165f908152600589016020526040902061453e90614354565b90555b6001600160a01b03811684146145a5576001600160a01b03165f908152600587016020526040902061457290614354565b90555b1461440c576001600160a01b03165f908152600580840160205260409091206143ef936143549390916143d49085565b506145b0919661208e565b94614575565b506145c1919861208e565b96614541565b6003810180546145e2906001600160801b031985169061297d565b905560018101546001600160a01b03166145fa575050565b6004612d4a91019182549060801b9061297d565b6001600160a01b0381169081036140d85790565b60b11c6103ff168015613183576110ed916140dd565b611b35906141818360801d8260801d036140be565b90612d4a90600383016146d16146a08254956146698760801c90565b906146b16002820198611b356146808b5460801c90565b6001600160801b03908116968a82169688928892911682028390046140be565b936001600160801b031602046140be565b60018201549093906001600160a01b03166146de575b5050508254614638565b905582549060801b613c72565b613c72600461471f930193611b3585549361470d818460018060801b036147058960801c90565b1602046140be565b926001600160801b03861602046140be565b90555f80806146c756fe5d72191643a9d630c58937d62f5e056dcfa8dbf1aced1cb2f655ee1d7ecaf577cfdbe78f31bc5efa50605e8b11a7b6843971370ea97eb24de6e1a1eb9d235645a2646970667358221220c2ab0f2553e5d3a0db29d13fcfa9dc7091219c60ecedbe9f785f0bd72e63dfd364736f6c634300081a0033","linkReferences":{}},"methodIdentifiers":{"addbanlist(address)":"b153b920","buyGood(address,address,uint128,uint256,bool,address,bytes)":"13a124c3","changeGoodOwner(address,address)":"41e12373","changemarketcreator(address)":"a06ad0e8","collectCommission(address[])":"0d2700ab","collectProof(uint256,address)":"a676a600","disinvestProof(uint256,uint128,address)":"f4662f20","flashFee(address,uint256)":"d9d98ce4","flashLoan(address,address,uint256,bytes)":"5cffe9de","getGoodState(address)":"08238466","getProofState(uint256)":"3f117740","goodWelfare(address,uint128,bytes)":"06cf4e7f","initGood(address,uint256,address,uint256,bytes,bytes)":"5f755d65","initMetaGood(address,uint256,uint256,bytes)":"51ff9a16","investGood(address,address,uint128,bytes,bytes)":"f878e809","ishigher(address,address,uint256)":"1412723a","marketconfig()":"402f5ab5","marketcreator()":"3d995173","maxFlashLoan(address)":"613255ab","modifyGoodConfig(address,uint256)":"b1efb921","payGood(address,uint128,address,bytes)":"f29771cb","queryCommission(address[],address)":"9b222794","removeMarketor(address)":"cc00da2d","removeSecurityKeeper()":"c9544f18","removebanlist(address)":"9551177a","securityKeeper(address)":"3c9fe544","setMarketConfig(uint256)":"45818e4c","setMarketor(address)":"102e5c27","updateGoodConfig(address,uint256)":"a3b74a49","userConfig(address)":"5f35b0b3"},"id":63}