{"abi":[{"type":"constructor","inputs":[{"name":"_usdt","type":"address","internalType":"address"},{"name":"_dao_admin","type":"address","internalType":"address"},{"name":"_ttsconfig","type":"uint256","internalType":"uint256"}],"stateMutability":"nonpayable"},{"type":"function","name":"DOMAIN_SEPARATOR","inputs":[],"outputs":[{"name":"","type":"bytes32","internalType":"bytes32"}],"stateMutability":"view"},{"type":"function","name":"addShare","inputs":[{"name":"_share","type":"tuple","internalType":"struct s_share","components":[{"name":"recipient","type":"address","internalType":"address"},{"name":"leftamount","type":"uint128","internalType":"uint128"},{"name":"metric","type":"uint120","internalType":"uint120"},{"name":"chips","type":"uint8","internalType":"uint8"}]}],"outputs":[],"stateMutability":"nonpayable"},{"type":"function","name":"addauths","inputs":[{"name":"_auths","type":"address","internalType":"address"},{"name":"_priv","type":"uint256","internalType":"uint256"}],"outputs":[],"stateMutability":"nonpayable"},{"type":"function","name":"addreferral","inputs":[{"name":"user","type":"address","internalType":"address"},{"name":"referral","type":"address","internalType":"address"}],"outputs":[],"stateMutability":"nonpayable"},{"type":"function","name":"allowance","inputs":[{"name":"owner","type":"address","internalType":"address"},{"name":"spender","type":"address","internalType":"address"}],"outputs":[{"name":"","type":"uint256","internalType":"uint256"}],"stateMutability":"view"},{"type":"function","name":"approve","inputs":[{"name":"spender","type":"address","internalType":"address"},{"name":"amount","type":"uint256","internalType":"uint256"}],"outputs":[{"name":"","type":"bool","internalType":"bool"}],"stateMutability":"nonpayable"},{"type":"function","name":"auths","inputs":[{"name":"","type":"address","internalType":"address"}],"outputs":[{"name":"","type":"uint256","internalType":"uint256"}],"stateMutability":"view"},{"type":"function","name":"balanceOf","inputs":[{"name":"account","type":"address","internalType":"address"}],"outputs":[{"name":"","type":"uint256","internalType":"uint256"}],"stateMutability":"view"},{"type":"function","name":"burn","inputs":[{"name":"account","type":"address","internalType":"address"},{"name":"value","type":"uint256","internalType":"uint256"}],"outputs":[],"stateMutability":"nonpayable"},{"type":"function","name":"burnShare","inputs":[{"name":"index","type":"uint8","internalType":"uint8"}],"outputs":[],"stateMutability":"nonpayable"},{"type":"function","name":"changeDAOAdmin","inputs":[{"name":"_recipient","type":"address","internalType":"address"}],"outputs":[],"stateMutability":"nonpayable"},{"type":"function","name":"dao_admin","inputs":[],"outputs":[{"name":"","type":"address","internalType":"address"}],"stateMutability":"view"},{"type":"function","name":"decimals","inputs":[],"outputs":[{"name":"","type":"uint8","internalType":"uint8"}],"stateMutability":"pure"},{"type":"function","name":"decreaseAllowance","inputs":[{"name":"spender","type":"address","internalType":"address"},{"name":"subtractedValue","type":"uint256","internalType":"uint256"}],"outputs":[{"name":"","type":"bool","internalType":"bool"}],"stateMutability":"nonpayable"},{"type":"function","name":"eip712Domain","inputs":[],"outputs":[{"name":"fields","type":"bytes1","internalType":"bytes1"},{"name":"name","type":"string","internalType":"string"},{"name":"version","type":"string","internalType":"string"},{"name":"chainId","type":"uint256","internalType":"uint256"},{"name":"verifyingContract","type":"address","internalType":"address"},{"name":"salt","type":"bytes32","internalType":"bytes32"},{"name":"extensions","type":"uint256[]","internalType":"uint256[]"}],"stateMutability":"view"},{"type":"function","name":"getreferralanddaoadmin","inputs":[{"name":"_customer","type":"address","internalType":"address"}],"outputs":[{"name":"","type":"address","internalType":"address"},{"name":"","type":"address","internalType":"address"}],"stateMutability":"view"},{"type":"function","name":"increaseAllowance","inputs":[{"name":"spender","type":"address","internalType":"address"},{"name":"addedValue","type":"uint256","internalType":"uint256"}],"outputs":[{"name":"","type":"bool","internalType":"bool"}],"stateMutability":"nonpayable"},{"type":"function","name":"left_share","inputs":[],"outputs":[{"name":"","type":"uint128","internalType":"uint128"}],"stateMutability":"view"},{"type":"function","name":"marketcontract","inputs":[],"outputs":[{"name":"","type":"address","internalType":"address"}],"stateMutability":"view"},{"type":"function","name":"name","inputs":[],"outputs":[{"name":"","type":"string","internalType":"string"}],"stateMutability":"view"},{"type":"function","name":"nonces","inputs":[{"name":"owner","type":"address","internalType":"address"}],"outputs":[{"name":"","type":"uint256","internalType":"uint256"}],"stateMutability":"view"},{"type":"function","name":"normalgoodid","inputs":[],"outputs":[{"name":"","type":"address","internalType":"address"}],"stateMutability":"view"},{"type":"function","name":"permit","inputs":[{"name":"owner","type":"address","internalType":"address"},{"name":"spender","type":"address","internalType":"address"},{"name":"value","type":"uint256","internalType":"uint256"},{"name":"deadline","type":"uint256","internalType":"uint256"},{"name":"v","type":"uint8","internalType":"uint8"},{"name":"r","type":"bytes32","internalType":"bytes32"},{"name":"s","type":"bytes32","internalType":"bytes32"}],"outputs":[],"stateMutability":"nonpayable"},{"type":"function","name":"poolstate","inputs":[],"outputs":[{"name":"","type":"uint256","internalType":"uint256"}],"stateMutability":"view"},{"type":"function","name":"publicSell","inputs":[{"name":"usdtamount","type":"uint256","internalType":"uint256"},{"name":"data","type":"bytes","internalType":"bytes"}],"outputs":[],"stateMutability":"nonpayable"},{"type":"function","name":"publicsell","inputs":[],"outputs":[{"name":"","type":"uint128","internalType":"uint128"}],"stateMutability":"view"},{"type":"function","name":"referrals","inputs":[{"name":"","type":"address","internalType":"address"}],"outputs":[{"name":"","type":"address","internalType":"address"}],"stateMutability":"view"},{"type":"function","name":"rmauths","inputs":[{"name":"_auths","type":"address","internalType":"address"}],"outputs":[],"stateMutability":"nonpayable"},{"type":"function","name":"setEnv","inputs":[{"name":"_normalgoodid","type":"address","internalType":"address"},{"name":"_valuegoodid","type":"address","internalType":"address"},{"name":"_marketcontract","type":"address","internalType":"address"}],"outputs":[],"stateMutability":"nonpayable"},{"type":"function","name":"setRatio","inputs":[{"name":"_ratio","type":"uint256","internalType":"uint256"}],"outputs":[],"stateMutability":"nonpayable"},{"type":"function","name":"shareMint","inputs":[{"name":"index","type":"uint8","internalType":"uint8"}],"outputs":[],"stateMutability":"nonpayable"},{"type":"function","name":"shares","inputs":[{"name":"","type":"uint32","internalType":"uint32"}],"outputs":[{"name":"recipient","type":"address","internalType":"address"},{"name":"leftamount","type":"uint128","internalType":"uint128"},{"name":"metric","type":"uint120","internalType":"uint120"},{"name":"chips","type":"uint8","internalType":"uint8"}],"stateMutability":"view"},{"type":"function","name":"shares_index","inputs":[],"outputs":[{"name":"","type":"uint32","internalType":"uint32"}],"stateMutability":"view"},{"type":"function","name":"stake","inputs":[{"name":"_staker","type":"address","internalType":"address"},{"name":"proofvalue","type":"uint128","internalType":"uint128"}],"outputs":[{"name":"netconstruct","type":"uint128","internalType":"uint128"}],"stateMutability":"nonpayable"},{"type":"function","name":"stakeproof","inputs":[{"name":"","type":"uint256","internalType":"uint256"}],"outputs":[{"name":"fromcontract","type":"address","internalType":"address"},{"name":"proofstate","type":"uint256","internalType":"uint256"}],"stateMutability":"view"},{"type":"function","name":"stakestate","inputs":[],"outputs":[{"name":"","type":"uint256","internalType":"uint256"}],"stateMutability":"view"},{"type":"function","name":"symbol","inputs":[],"outputs":[{"name":"","type":"string","internalType":"string"}],"stateMutability":"view"},{"type":"function","name":"totalSupply","inputs":[],"outputs":[{"name":"","type":"uint256","internalType":"uint256"}],"stateMutability":"view"},{"type":"function","name":"transfer","inputs":[{"name":"to","type":"address","internalType":"address"},{"name":"amount","type":"uint256","internalType":"uint256"}],"outputs":[{"name":"","type":"bool","internalType":"bool"}],"stateMutability":"nonpayable"},{"type":"function","name":"transferFrom","inputs":[{"name":"from","type":"address","internalType":"address"},{"name":"to","type":"address","internalType":"address"},{"name":"amount","type":"uint256","internalType":"uint256"}],"outputs":[{"name":"","type":"bool","internalType":"bool"}],"stateMutability":"nonpayable"},{"type":"function","name":"ttstokenconfig","inputs":[],"outputs":[{"name":"","type":"uint256","internalType":"uint256"}],"stateMutability":"view"},{"type":"function","name":"unstake","inputs":[{"name":"_staker","type":"address","internalType":"address"},{"name":"proofvalue","type":"uint128","internalType":"uint128"}],"outputs":[],"stateMutability":"nonpayable"},{"type":"function","name":"usdt","inputs":[],"outputs":[{"name":"","type":"address","internalType":"address"}],"stateMutability":"view"},{"type":"function","name":"valuegoodid","inputs":[],"outputs":[{"name":"","type":"address","internalType":"address"}],"stateMutability":"view"},{"type":"function","name":"withdrawPublicSell","inputs":[{"name":"amount","type":"uint256","internalType":"uint256"},{"name":"recipient","type":"address","internalType":"address"}],"outputs":[],"stateMutability":"nonpayable"},{"type":"event","name":"Approval","inputs":[{"name":"owner","type":"address","indexed":true,"internalType":"address"},{"name":"spender","type":"address","indexed":true,"internalType":"address"},{"name":"value","type":"uint256","indexed":false,"internalType":"uint256"}],"anonymous":false},{"type":"event","name":"EIP712DomainChanged","inputs":[],"anonymous":false},{"type":"event","name":"Transfer","inputs":[{"name":"from","type":"address","indexed":true,"internalType":"address"},{"name":"to","type":"address","indexed":true,"internalType":"address"},{"name":"value","type":"uint256","indexed":false,"internalType":"uint256"}],"anonymous":false},{"type":"event","name":"e_addShare","inputs":[{"name":"recipient","type":"address","indexed":false,"internalType":"address"},{"name":"leftamount","type":"uint256","indexed":false,"internalType":"uint256"},{"name":"metric","type":"uint120","indexed":false,"internalType":"uint120"},{"name":"chips","type":"uint8","indexed":false,"internalType":"uint8"},{"name":"index","type":"uint32","indexed":false,"internalType":"uint32"}],"anonymous":false},{"type":"event","name":"e_addauths","inputs":[{"name":"auths","type":"address","indexed":false,"internalType":"address"},{"name":"priv","type":"uint256","indexed":false,"internalType":"uint256"}],"anonymous":false},{"type":"event","name":"e_addreferral","inputs":[{"name":"users","type":"address","indexed":false,"internalType":"address"},{"name":"referral","type":"address","indexed":false,"internalType":"address"}],"anonymous":false},{"type":"event","name":"e_burnShare","inputs":[{"name":"index","type":"uint32","indexed":false,"internalType":"uint32"}],"anonymous":false},{"type":"event","name":"e_publicsell","inputs":[{"name":"usdtamount","type":"uint256","indexed":false,"internalType":"uint256"},{"name":"ttsamount","type":"uint256","indexed":false,"internalType":"uint256"}],"anonymous":false},{"type":"event","name":"e_rmauths","inputs":[{"name":"auths","type":"address","indexed":false,"internalType":"address"}],"anonymous":false},{"type":"event","name":"e_setdaoadmin","inputs":[{"name":"recipient","type":"address","indexed":false,"internalType":"address"}],"anonymous":false},{"type":"event","name":"e_setenv","inputs":[{"name":"normalgoodid","type":"address","indexed":false,"internalType":"address"},{"name":"valuegoodid","type":"address","indexed":false,"internalType":"address"},{"name":"marketcontract","type":"address","indexed":false,"internalType":"address"}],"anonymous":false},{"type":"event","name":"e_shareMint","inputs":[{"name":"mintamount","type":"uint128","indexed":false,"internalType":"uint128"},{"name":"index","type":"uint32","indexed":false,"internalType":"uint32"}],"anonymous":false},{"type":"event","name":"e_stakeinfo","inputs":[{"name":"recipient","type":"address","indexed":false,"internalType":"address"},{"name":"proofvalue","type":"uint256","indexed":false,"internalType":"uint256"},{"name":"unstakestate","type":"uint256","indexed":false,"internalType":"uint256"},{"name":"stakestate","type":"uint256","indexed":false,"internalType":"uint256"},{"name":"poolstate","type":"uint256","indexed":false,"internalType":"uint256"}],"anonymous":false},{"type":"event","name":"e_syncChainStake","inputs":[{"name":"chain","type":"uint32","indexed":false,"internalType":"uint32"},{"name":"poolasset","type":"uint128","indexed":false,"internalType":"uint128"},{"name":"proofstate","type":"uint256","indexed":false,"internalType":"uint256"}],"anonymous":false},{"type":"event","name":"e_updatepool","inputs":[{"name":"poolstate","type":"uint256","indexed":false,"internalType":"uint256"}],"anonymous":false},{"type":"event","name":"e_updatettsconfig","inputs":[{"name":"ttsconfig","type":"uint256","indexed":false,"internalType":"uint256"}],"anonymous":false},{"type":"error","name":"ERC20PermitFailed","inputs":[]},{"type":"error","name":"ERC20TransferFailed","inputs":[]},{"type":"error","name":"InvalidShortString","inputs":[]},{"type":"error","name":"NativeTransferFailed","inputs":[]},{"type":"error","name":"StringTooLong","inputs":[{"name":"str","type":"string","internalType":"string"}]}],"bytecode":{"object":"0x61018080604052346104d357606081613c25803803809161002082856104d7565b8339810103126104d357610033816104fa565b906040610042602083016104fa565b910151916040516100546040826104d7565b600c8152602081016b2a2a29bbb0b8102a37b5b2b760a11b81526040519061007d6040836104d7565b600c82526b2a2a29bbb0b8102a37b5b2b760a11b6020830152604051926100a56040856104d7565b600384526254545360e81b6020850152604051936100c46040866104d7565b60018552603160f81b60208601908152845190946001600160401b0382116103d65760035490600182811c921680156104c9575b60208310146103b85781601f84931161045b575b50602090601f83116001146103f5575f926103ea575b50508160011b915f199060031b1c1916176003555b8051906001600160401b0382116103d65760045490600182811c921680156103cc575b60208310146103b85781601f84931161034a575b50602090601f83116001146102e4575f926102d9575b50508160011b915f199060031b1c1916176004555b6101a28161050e565b610120526101af84610695565b61014052519020918260e05251902080610100524660a0526040519060208201927f8b73c3c69bb8fe3d512ecc4cf759cc79239f7b179b0ffacaa9a75d522b39400f8452604083015260608201524660808201523060a082015260a0815261021860c0826104d7565b51902060809081523060c052601280546001600160801b03199081166528ed6103d000179091556101609290925242901b16600b55601080546001600160a01b0319166001600160a01b039290921691909117905560095560405161345790816107ce823960805181612f61015260a0518161301e015260c05181612f2b015260e05181612fb001526101005181612fd601526101205181611077015261014051816110a001526101605181818161087901528181611aff0152611ee70152f35b015190505f80610184565b60045f9081528281209350601f198516905b818110610332575090846001959493921061031a575b505050811b01600455610199565b01515f1960f88460031b161c191690555f808061030c565b929360206001819287860151815501950193016102f6565b60045f529091507f8a35acfbc15ff81a39ae7d344fd709f28e8600b4aa8c65c6b64bfe7fe36bd19b601f840160051c810191602085106103ae575b90601f859493920160051c01905b8181106103a0575061016e565b5f8155849350600101610393565b9091508190610385565b634e487b7160e01b5f52602260045260245ffd5b91607f169161015a565b634e487b7160e01b5f52604160045260245ffd5b015190505f80610122565b60035f9081528281209350601f198516905b818110610443575090846001959493921061042b575b505050811b01600355610137565b01515f1960f88460031b161c191690555f808061041d565b92936020600181928786015181550195019301610407565b60035f529091507fc2575a0e9e593c00f959f8c92f12db2869c3395a3b0502d05e2516446f71f85b601f840160051c810191602085106104bf575b90601f859493920160051c01905b8181106104b1575061010c565b5f81558493506001016104a4565b9091508190610496565b91607f16916100f8565b5f80fd5b601f909101601f19168101906001600160401b038211908210176103d657604052565b51906001600160a01b03821682036104d357565b908151602081105f14610588575090601f815111610548576020815191015160208210610539571790565b5f198260200360031b1b161790565b604460209160405192839163305a27a960e01b83528160048401528051918291826024860152018484015e5f828201840152601f01601f19168101030190fd5b6001600160401b0381116103d657600554600181811c9116801561068b575b60208210146103b857601f8111610658575b50602092601f82116001146105f757928192935f926105ec575b50508160011b915f199060031b1c19161760055560ff90565b015190505f806105d3565b601f1982169360055f52805f20915f5b8681106106405750836001959610610628575b505050811b0160055560ff90565b01515f1960f88460031b161c191690555f808061061a565b91926020600181928685015181550194019201610607565b60055f52601f60205f20910160051c810190601f830160051c015b81811061068057506105b9565b5f8155600101610673565b90607f16906105a7565b908151602081105f146106c0575090601f815111610548576020815191015160208210610539571790565b6001600160401b0381116103d657600654600181811c911680156107c3575b60208210146103b857601f8111610790575b50602092601f821160011461072f57928192935f92610724575b50508160011b915f199060031b1c19161760065560ff90565b015190505f8061070b565b601f1982169360065f52805f20915f5b8681106107785750836001959610610760575b505050811b0160065560ff90565b01515f1960f88460031b161c191690555f8080610752565b9192602060018192868501518155019401920161073f565b60065f52601f60205f20910160051c810190601f830160051c015b8181106107b857506106f1565b5f81556001016107ab565b90607f16906106df56fe60806040526004361015610011575f80fd5b5f3560e01c806302517e8b146102e457806306afa12a146102df57806306fdde03146102da578063095ea7b3146102d557806318160ddd146102d057806319f8d5b4146102cb57806323b872dd146102c6578063297f24bf146102c15780632bf960da146102bc5780632f48ab7d146102b7578063313ce567146102b25780633644e515146102ad57806339509351146102a85780633b107e21146102a35780633cba316b1461029e57806345fda70714610299578063542128dd14610294578063623059a51461028f57806364e72dbd1461028a578063696bb4ad1461028557806369a5ac32146102805780636f55aece1461027b57806370a08231146102765780637bd3ca35146102715780637ecebe001461026c578063845fcee41461026757806384b0196e146102625780639241bda61461025d57806395d89b41146102585780639ca423b3146102535780639dc29fac1461024e578063a457c2d714610249578063a538e6a914610244578063a9059cbb1461023f578063b2237ba31461023a578063b88e6d6314610235578063cae9764014610230578063d505accf1461022b578063dd62ed3e14610226578063de5712d414610221578063df8765481461021c578063e7b43e7d14610217578063eca93cce14610212578063f35da4621461020d5763fa82add514610208575f80fd5b611c79565b611c51565b611b9b565b611abb565b6117e9565b6117c9565b611785565b61160c565b6115ef565b6115a1565b61150f565b6114e5565b6114bd565b61140f565b611318565b6112d5565b611230565b611167565b61105f565b611042565b611007565b610de4565b610daa565b610d2d565b610cbc565b610c96565b610c5b565b610c3e565b610bb6565b610b8e565b610b14565b610944565b6108e5565b6108c3565b6108a8565b610864565b61083c565b6107dd565b61070c565b61050f565b6104bc565b610487565b6103a0565b61031f565b6102f7565b5f9103126102f357565b5f80fd5b346102f3575f3660031901126102f357600e546040516001600160a01b039091168152602090f35b346102f35760203660031901126102f3576004355f908152600d6020908152604091829020805460019091015483516001600160a01b03909216825291810191909152f35b0390f35b805180835260209291819084018484015e5f828201840152601f01601f1916010190565b90602061039d928181520190610368565b90565b346102f3575f3660031901126102f3576040515f6003546103c081611d3c565b808452906001811690811561045257506001146103f4575b610364836103e881850382611e29565b6040519182918261038c565b60035f9081527fc2575a0e9e593c00f959f8c92f12db2869c3395a3b0502d05e2516446f71f85b939250905b808210610438575090915081016020016103e86103d8565b919260018160209254838588010152019101909291610420565b60ff191660208086019190915291151560051b840190910191506103e890506103d8565b6001600160a01b038116036102f357565b346102f35760403660031901126102f3576104b16004356104a781610476565b6024359033612281565b602060405160018152f35b346102f3575f3660031901126102f3576020600254604051908152f35b6001600160801b038116036102f357565b60409060031901126102f35760043561050281610476565b9060243561039d816104d9565b346102f3576103647fff4f1caf741747da03068e051490a9f142dac5b961014b67ce28f5465061a68f610541366104ea565b335f90815260146020526040902090929190610562906001905b5414611e4a565b61056a6123cb565b6001610677604051602081019061059481610586338886611587565b03601f198101835282611e29565b519020610654600c5496848060801b03881680155f146106e257506105d46105cf5f995b60808b901b6001600160801b038c16175b906124a0565b600c55565b600b546105f3906105ee906001600160801b0384166105c9565b600b55565b61062833610609855f52600d60205260405f2090565b80546001600160a01b0319166001600160a01b03909216919091179055565b6105c9888661063f865f52600d60205260405f2090565b01549260801b6001600160801b039091161790565b83610667835f52600d60205260405f2090565b01555f52600d60205260405f2090565b0154906106c56001600160801b0385165b600b54600c54604080516001600160a01b0390961686526020860196909652948401919091526060830152608082019290925290819060a0820190565b0390a16040516001600160801b0390911681529081906020820190565b6105cf6107066105d492888060801b03600b541690898060801b03861602046131d5565b996105b8565b346102f35760603660031901126102f35760043561072981610476565b60243561073581610476565b6001600160a01b0382165f90815260016020818152604080842033855290915290912054926044359291840161077c575b610770935061257c565b60405160018152602090f35b828410610798576107938361077095033383612281565b610766565b60405162461bcd60e51b815260206004820152601d60248201527f45524332303a20696e73756666696369656e7420616c6c6f77616e63650000006044820152606490fd5b346102f35760403660031901126102f3576024356004356001600160401b0382116102f357366023830112156102f3578160040135906001600160401b0382116102f35736602483850101116102f357602461083a930190611e51565b005b346102f3575f3660031901126102f3576011546040516001600160a01b039091168152602090f35b346102f3575f3660031901126102f3576040517f00000000000000000000000000000000000000000000000000000000000000006001600160a01b03168152602090f35b346102f3575f3660031901126102f357602060405160068152f35b346102f3575f3660031901126102f35760206108dd612f28565b604051908152f35b346102f35760403660031901126102f35760043561090281610476565b602435335f52600160205261092a8260405f209060018060a01b03165f5260205260405f2090565b5490810180911161093f576104b19133612281565b611fa8565b346102f35760803660031901126102f357610960600954612666565b156102f3576012546109f5906109d3906001600160801b031661098a610984612058565b82612064565b506010546109b3906109ac906001600160a01b03165b6001600160a01b031690565b3314611e4a565b6109cd6109c16109c1612058565b6001600160401b031690565b90612064565b601280546001600160801b0319166001600160801b0392909216919091179055565b610a38610a13610a0e60115463ffffffff9060a01c1690565b61207d565b6011805463ffffffff60a01b191660a09290921b63ffffffff60a01b16919091179055565b610a6a610a65610a5160115463ffffffff9060a01c1690565b63ffffffff165f52600a60205260405f2090565b6120c3565b7f259b626a3ac57abbad46c244a9bc2a13c0b530c618e9654be9351bd104cffcae610a93612095565b610a9b612058565b90610b0f610aa76120a1565b610aaf6120b7565b60115460a01c63ffffffff16604080516001600160a01b0390961686526001600160801b0390961660208601526001600160781b039092169484019490945260ff909316606083015263ffffffff909216608082015290819060a0820190565b0390a1005b346102f35760203660031901126102f357600435610b3181610476565b601054906001600160a01b03821633036102f3576001600160a01b03166001600160a01b03199190911681176010556040519081527f853baecd5c22fcf8a4d994474a066771c51cfe6022b046e92a09874610cd128190602090a1005b346102f3575f3660031901126102f3576012546040516001600160801b039091168152602090f35b346102f35760403660031901126102f357600435610bd381610476565b601054602435906001600160a01b031633036102f3576001600160a01b039091165f8181526014602090815260409182902084905581519283528201929092527f967d50df84a5ebb45902fa277d5c3b0bc6403497c9fd6da2ecbd9ed420038f149181908101610b0f565b346102f3575f3660031901126102f3576020600954604051908152f35b346102f35760203660031901126102f357600435610c7881610476565b60018060a01b03165f526014602052602060405f2054604051908152f35b346102f3575f3660031901126102f357602063ffffffff60115460a01c16604051908152f35b346102f35760203660031901126102f357600435610cd981610476565b6010546001600160a01b031633036102f35760207f3680a8b72561b4141a1464124f40242ac80a59d51d29649d9b0b442c255b62899160018060a01b0316805f52601482525f6040812055604051908152a1005b346102f35760203660031901126102f35760043563ffffffff81168091036102f3575f908152600a6020908152604091829020805460019091015483516001600160a01b0390921682526001600160801b03811692820192909252608082811c6001600160781b03169382019390935260f89190911c6060820152f35b346102f35760203660031901126102f357600435610dc781610476565b60018060a01b03165f525f602052602060405f2054604051908152f35b346102f3577fff4f1caf741747da03068e051490a9f142dac5b961014b67ce28f5465061a68f610e13366104ea565b9081610e34600161055b3360018060a01b03165f52601460205260405f2090565b610e3c6123cb565b6040516020810190610e5381610586338786611587565b51902092610e85610e796001610e71875f52600d60205260405f2090565b015460801c90565b6001600160801b031690565b6001600160801b03831610610fa1575050610b0f610688610eb36001610e71865f52600d60205260405f2090565b936001610f7c610f5e82610ecf855f52600d60205260405f2090565b01548098610ef3610ee8875f52600d60205260405f2090565b60015f918281550155565b610f396105ee610f05600c5460801c90565b600b5490610f3390610f2690869060801b6001600160801b0385161761308c565b946001600160801b031690565b90613063565b600c54610f59906105cf90608084901b6001600160801b03861617610f33565b612064565b92828060801b03841680610f91575b505f52600d60205260405f2090565b01549460801b6001600160801b039091161790565b610f9b9088612e85565b5f610f6d565b836001610f7c610f5e8561068895610fd3610b0f9886610fcc610fed9d5f52600d60205260405f2090565b0154613044565b998a92610f33848861063f8b5f52600d60205260405f2090565b85611000885f52600d60205260405f2090565b0155610ef3565b346102f35760203660031901126102f35760043561102481610476565b60018060a01b03165f526007602052602060405f2054604051908152f35b346102f3575f3660031901126102f3576020600c54604051908152f35b346102f3575f3660031901126102f35761110361109b7f00000000000000000000000000000000000000000000000000000000000000006130aa565b6110c47f000000000000000000000000000000000000000000000000000000000000000061310a565b60206040516110d38282611e29565b5f81528161111181830194601f198301368737604051978897600f60f81b895260e0858a015260e0890190610368565b908782036040890152610368565b914660608701523060808701525f60a087015285830360c087015251918281520192915f5b82811061114557505050500390f35b835185528695509381019392810192600101611136565b60ff8116036102f357565b346102f35760203660031901126102f3576004356111848161115c565b61118f600954612666565b156102f3576010546001600160a01b031633036102f357610ee88160ff61083a93165f52600a6020526111f06109d36111da6109c16109c1600160405f20015460018060801b031690565b6012546001600160801b0316611fd6565b611fd6565b60405160ff821681527f568d364b674966bdb889933148a94e885581320f54b5d65d04bda235eea7fe4890602090a160ff165f52600a60205260405f2090565b346102f3575f3660031901126102f3576040515f60045461125081611d3c565b8084529060018116908115610452575060011461127757610364836103e881850382611e29565b60045f9081527f8a35acfbc15ff81a39ae7d344fd709f28e8600b4aa8c65c6b64bfe7fe36bd19b939250905b8082106112bb575090915081016020016103e86103d8565b9192600181602092548385880101520191019092916112a3565b346102f35760203660031901126102f3576004356112f281610476565b60018060a01b03165f526013602052602060018060a01b0360405f205416604051908152f35b346102f35760403660031901126102f35760043561133581610476565b6001600160a01b03811660243581156113c0576113bb818461139d5f80516020613402833981519152946113795f9860018060a01b03165f525f60205260405f2090565b5461138682821015613141565b039160018060a01b03165f525f60205260405f2090565b556113ab8160025403600255565b6040519081529081906020820190565b0390a3005b60405162461bcd60e51b815260206004820152602160248201527f45524332303a206275726e2066726f6d20746865207a65726f206164647265736044820152607360f81b6064820152608490fd5b346102f35760403660031901126102f35760043561142c81610476565b60243590335f5260016020526114558160405f209060018060a01b03165f5260205260405f2090565b549180831061146a5761077092039033612281565b60405162461bcd60e51b815260206004820152602560248201527f45524332303a2064656372656173656420616c6c6f77616e63652062656c6f77604482015264207a65726f60d81b6064820152608490fd5b346102f3575f3660031901126102f3576010546040516001600160a01b039091168152602090f35b346102f35760403660031901126102f3576104b160043561150581610476565b602435903361257c565b346102f35760203660031901126102f35760043561271081111580611571575b156102f35760207f23a413df5b1fc0945373ace790cb8288a224212397d5bfc6e2a9b82a4396bbc49161ffff80196009541691160180600955604051908152a1005b50335f526014602052600260405f20541461152f565b6001600160a01b0391821681529116602082015260400190565b346102f35760203660031901126102f3576004356115be81610476565b6010546001600160a01b039182165f9081526013602052604090819020549051928392610364928216911683611587565b346102f3575f3660031901126102f3576020600b54604051908152f35b346102f35760e03660031901126102f35760043561162981610476565b60243561163581610476565b60443590606435926084356116498161115c565b60a4359460c43581421161171b5761083a96611716936116fe86896116f68a610586611703996116928660018060a01b03165f52600760205260405f2090815491600183019055565b604051958694602086019889919260a093969594919660c08401977f6e71edae12b1b97f4d1f60370fef10105fa2faae0126114a169c64845d6126c98552600180871b03166020850152600180861b03166040840152606083015260808201520152565b519020613198565b6131be565b6001600160a01b038381169116146121af565b612281565b60405162461bcd60e51b815260206004820152601d60248201527f45524332305065726d69743a206578706972656420646561646c696e650000006044820152606490fd5b60409060031901126102f35760043561177881610476565b9060243561039d81610476565b346102f35760206117c061179836611760565b6001600160a01b039182165f9081526001855260408082209290931681526020919091522090565b54604051908152f35b346102f3575f3660031901126102f357602060125460801c604051908152f35b346102f35760203660031901126102f3576004356118068161115c565b611811600954612666565b156102f3576011546118ce9190602090611835906109a0906001600160a01b031681565b600e546001600160a01b0316600f549091906001600160a01b031661189361188e61188961188460016118738a60ff165f52600a60205260405f2090565b015460801c6001600160781b031690565b6121fb565b611fef565b61204a565b604051630a09391d60e11b81526001600160a01b03948516600482015293909116602484015260448301529093849190829081906064820190565b03915afa918215611ab6577f83592ad363894b5c4d81b2113457c5a1683230ce1c133eefa927d17f65cd5ca0926001915f91611a87575b5015151480611a52575b61191890611e4a565b61197461194360016119358460ff165f52600a60205260405f2090565b01546001600160801b031690565b61196e61196860016119608660ff165f52600a60205260405f2090565b015460f81c90565b60ff1690565b90612236565b6119c2600161198e8460ff165f52600a60205260405f2090565b0180546119a59084906001600160801b0316612064565b81546001600160801b0319166001600160801b0391909116179055565b611a1a60016119dc8460ff165f52600a60205260405f2090565b0180546119f49060801c6001600160781b0316612269565b8154600160801b600160f81b03191660809190911b600160801b600160f81b0316179055565b611a2d6001600160801b03821633612e85565b604080516001600160801b03909216825260ff90921660208201529081908101610b0f565b50611918611a7e6109a0611a718460ff165f52600a60205260405f2090565b546001600160a01b031690565b3314905061190f565b611aa9915060203d602011611aaf575b611aa18183611e29565b810190612213565b5f611905565b503d611a97565b61222b565b346102f35760403660031901126102f357602435600435611adb82610476565b611ae6600954612666565b156102f3576010546001600160a01b031633036102f3577f000000000000000000000000000000000000000000000000000000000000000060016001600160a01b03821603611b5457505f80808093611b3f955af11590565b611b4557005b633d2cec6f60e21b5f5260045ffd5b60445f8080936020956040519763a9059cbb60e01b84526004526024525af13d15601f3d1160015f51141617169060405215611b8c57005b633c9fd93960e21b5f5260045ffd5b346102f357611ba936611760565b335f526014602052600160405f20541480611c30575b80611c1a575b611bcb57005b81611c0b826106097f0b5e322b4b5330962013e8d6519462c133d50320ee476828060995c1acadef629560018060a01b03165f52601360205260405f2090565b610b0f60405192839283611587565b506001600160a01b038281169082161415611bc5565b506001600160a01b038281165f908152601360205260409020541615611bbf565b346102f3575f3660031901126102f357600f546040516001600160a01b039091168152602090f35b346102f35760603660031901126102f357600435611c9681610476565b602435611ca281610476565b60443590611caf82610476565b6010546001600160a01b031633036102f357600e80546001600160a01b039485166001600160a01b03199182168117909255600f8054938616938216841790556011805494909516931683179093556040805193845260208401919091528201527fad9bacb6411ac6d3f45f8cabf2c4629890ab593e58ad9c108ffef19037ce2796908060608101610b0f565b90600182811c92168015611d6a575b6020831014611d5657565b634e487b7160e01b5f52602260045260245ffd5b91607f1691611d4b565b5f9291815491611d8383611d3c565b8083529260018116908115611dd85750600114611d9f57505050565b5f9081526020812093945091925b838310611dbe575060209250010190565b600181602092949394548385870101520191019190611dad565b915050602093945060ff929192191683830152151560051b010190565b634e487b7160e01b5f52604160045260245ffd5b604081019081106001600160401b03821117611e2457604052565b611df5565b90601f801991011681019081106001600160401b03821117611e2457604052565b156102f357565b90611e5d600954612666565b156102f3577fcf0848d99e9b2ad96811072e657199bc9567c2cc9b614097727a852b27f5358d92611f0b91611ec8611ea360018060801b0386166111eb60125460801c90565b601280546001600160801b031660809290921b6001600160801b031916919091179055565b601254611ee29064746a52880060809190911c1115611e4a565b8330337f0000000000000000000000000000000000000000000000000000000000000000612927565b5f90611f1960125460801c90565b6001600160801b0381166428bed016008111611f615750509050611f3c81612034565b90611f478233612e85565b60408051918252602082019290925290819081015b0390a1565b644bab82720010611f8857509050611f788161201e565b90611f838233612e85565b611f47565b64746a528800906001600160801b031611611f47579050611f7881612008565b634e487b7160e01b5f52601160045260245ffd5b6001600160801b0390811662015180019190821161093f57565b6001600160801b03918216908216019190821161093f57565b908160801b91808304600160801b149015171561093f57565b908160041b918083046010149015171561093f57565b9060148202918083046014149015171561093f57565b9060188202918083046018149015171561093f57565b906014820180921161093f57565b60243561039d816104d9565b6001600160801b03918216908216039190821161093f57565b63ffffffff60019116019063ffffffff821161093f57565b60043561039d81610476565b6044356001600160781b03811681036102f35790565b60643561039d8161115c565b6001906120f16004356120d581610476565b82546001600160a01b0319166001600160a01b03909116178255565b0161211d602435612101816104d9565b82546001600160801b0319166001600160801b03909116178255565b6044356001600160781b03811681036102f3578154600160801b600160f81b03191660809190911b600160801b600160f81b03161781556064356121608161115c565b81546001600160f81b031660f89190911b6001600160f81b031916179055565b6040519061218f604083611e29565b565b6040519061218f606083611e29565b6040519061218f608083611e29565b156121b657565b60405162461bcd60e51b815260206004820152601e60248201527f45524332305065726d69743a20696e76616c6964207369676e617475726500006044820152606490fd5b6001600160781b031660ff811161093f576001901b90565b908160209103126102f3575180151581036102f35790565b6040513d5f823e3d90fd5b6001600160801b03909116908115612255576001600160801b03160490565b634e487b7160e01b5f52601260045260245ffd5b6001600160781b039081166001019190821161093f57565b6001600160a01b03811691908215612362576001600160a01b03821693841561231257806122fc7f8c5be1e5ebec7d5bd14f71427d1e84f3dd0314c0f7b2291e5b200ac8c7c3b925946122e761230d9560018060a01b03165f52600160205260405f2090565b9060018060a01b03165f5260205260405f2090565b556040519081529081906020820190565b0390a3565b60405162461bcd60e51b815260206004820152602260248201527f45524332303a20617070726f766520746f20746865207a65726f206164647265604482015261737360f01b6064820152608490fd5b60405162461bcd60e51b8152602060048201526024808201527f45524332303a20617070726f76652066726f6d20746865207a65726f206164646044820152637265737360e01b6064820152608490fd5b65b5e620f48000039065b5e620f48000821161093f57565b600b546123da8160801c611fbc565b426001600160801b03909116106123ee5750565b612402906105ee906102a360871b906124a0565b61240d6002546123b3565b620f4240811015612489575061243f6105cf620f42405b6105c9600c54916009549061ffff6127109216020460801b90565b7f640eaa6ba71a4f457fdf8b26b0a8a0a6096d6d2bf731d07d47717534847ce55d611f5c6113ab612472600b5460801c90565b600c5460801c5b60018060801b03169060801b1790565b6105cf61249b61243f9261474a900490565b612424565b612479906124b58360801d8260801d016131d5565b926001600160801b039182169116016131d5565b156124d057565b60405162461bcd60e51b815260206004820152602360248201527f45524332303a207472616e7366657220746f20746865207a65726f206164647260448201526265737360e81b6064820152608490fd5b1561252857565b60405162461bcd60e51b815260206004820152602660248201527f45524332303a207472616e7366657220616d6f756e7420657863656564732062604482015265616c616e636560d01b6064820152608490fd5b916001600160a01b038316918215612613575f80516020613402833981519152916125fd61230d9260018060a01b038116966125b98815156124c9565b6125e3846125d68360018060a01b03165f525f60205260405f2090565b5461138682821015612521565b556001600160a01b03165f90815260208190526040902090565b8054820190556040519081529081906020820190565b60405162461bcd60e51b815260206004820152602560248201527f45524332303a207472616e736665722066726f6d20746865207a65726f206164604482015264647265737360d81b6064820152608490fd5b60ff1c60010361267557600190565b5f90565b6001600160401b038111611e2457601f01601f191660200190565b6020818303126102f3578035906001600160401b0382116102f35701906040828203126102f357604051916126c883611e09565b80356126d38161115c565b83526020810135906001600160401b0382116102f3570181601f820112156102f35780359061270182612679565b9261270f6040519485611e29565b828452602083830101116102f357815f9260208093018386013783010152602082015290565b908160c09103126102f3576040519060c08201908282106001600160401b03831117611e245760a09160405280518352602081015160208401526040810151604084015260608101516127878161115c565b606084015260808101516080840152015160a082015290565b929190604051936020850152604084015260ff60f81b1660608301526041825261218f606183611e29565b909261282361010093604061039d97966127f88682516020809160018060a01b0381511684520151910152565b60208181015187840152910151606086015281516001600160a01b03166080860152015160a0840152565b6001600160a01b031660c082015260e081018290520190610368565b604061039d94936101009360018060a01b0316835265ffffffffffff6060825160018060a01b03815116602087015260018060a01b036020820151168587015282858201511682870152015116608084015260018060a01b0360208201511660a0840152015160c08201528160e08201520190610368565b908160a09103126102f3576040519060a08201908282106001600160401b03831117611e2457608091604052805183526020810151602084015260408101516128ff8161115c565b6040840152606081015160608401520151608082015290565b908160209103126102f3575190565b949361293891929394810190612694565b60016001600160a01b038616036129565750505090503403611b4557565b60ff612963825160ff1690565b166001810361297757505061218f93613208565b60028103612b5957506020612997910151602080825183010191016128b7565b6001600160a01b0385169073898118e029aa17ed4763f432c1bdc1085d166cde8203612ad157604051623f675f60e91b81526001600160a01b038416600482015291602090839060249082905afa908115611ab657612a7b5f939284938491612aa2575b50610586602084015193612a13604082015160ff1690565b60608201516080909201516040516323f2ebc360e21b60208201526001600160a01b038b16602482015230604482015260648101959095526084850196909652600160a485015260ff1660c484015260e4830152610104820193909352918290610124820190565b60208151910182885af115612a935761218f93613208565b63203aa5b560e11b5f5260045ffd5b612ac4915060203d602011612aca575b612abc8183611e29565b810190612918565b5f6129fb565b503d612ab2565b5f915080612b54839251610586602084015193612af2604082015160ff1690565b606082015160809092015160405163d505accf60e01b60208201526001600160a01b03808c1660248301528c1660448201526064810195909552608485019690965260ff1660a484015260c483015260e4820193909352918290610104820190565b612a7b565b919493909160038103612bff5750612b7191506131f4565b9273419c606ed7dd9e411826a26ce9f146ed5a5f7c343b156102f357604051631b63c28b60e11b81526001600160a01b03918216600482015291811660248301529283166044820152911660648201525f816084818373419c606ed7dd9e411826a26ce9f146ed5a5f7c345af18015611ab657612beb5750565b80612bf95f61218f93611e29565b806102e9565b60048103612d615750906020612c2091015160208082518301019101612735565b90612cde612c2e83516131f4565b92612c88612c45604083015165ffffffffffff1690565b612c6d612c506121a0565b6001600160a01b038a168152966001600160a01b03166020880152565b65ffffffffffff604087015265ffffffffffff166060860152565b6020810151612c95612191565b9485526001600160a01b03861660208601526040850152608081015190612cd8612cc8606060a084015193015160ff1690565b60f81b6001600160f81b03191690565b916127a0565b9173419c606ed7dd9e411826a26ce9f146ed5a5f7c343b156102f3576040516302b67b5760e41b8152925f9184918291612d1d91908a6004850161283f565b03818373419c606ed7dd9e411826a26ce9f146ed5a5f7c345af1918215611ab657612b7192612d4d575b506131f4565b80612bf95f612d5b93611e29565b5f612d47565b600514612d70575b5050505050565b612d8a6020612e0793015160208082518301019101612735565b908151612da7612d98612180565b6001600160a01b039097168752565b60208601526040820151602083015190612dbf612191565b96875260208701526040860152612de6612dd7612180565b6001600160a01b039095168552565b6020840152608081015190612cd8612cc8606060a084015193015160ff1690565b9173419c606ed7dd9e411826a26ce9f146ed5a5f7c343b156102f357612e435f93604051958694859463187945bd60e11b8652600486016127cb565b03818373419c606ed7dd9e411826a26ce9f146ed5a5f7c345af18015611ab657612e71575b80808080612d69565b80612bf95f612e7f93611e29565b5f612e68565b6001600160a01b03811691908215612ee3576002549180830180931161093f57612ed15f80516020613402833981519152925f9460025560018060a01b03165f525f60205260405f2090565b805482019055604051908152602090a3565b60405162461bcd60e51b815260206004820152601f60248201527f45524332303a206d696e7420746f20746865207a65726f2061646472657373006044820152606490fd5b307f00000000000000000000000000000000000000000000000000000000000000006001600160a01b0316148061301b575b15612f83577f000000000000000000000000000000000000000000000000000000000000000090565b60405160208101907f8b73c3c69bb8fe3d512ecc4cf759cc79239f7b179b0ffacaa9a75d522b39400f82527f000000000000000000000000000000000000000000000000000000000000000060408201527f000000000000000000000000000000000000000000000000000000000000000060608201524660808201523060a082015260a0815261301560c082611e29565b51902090565b507f00000000000000000000000000000000000000000000000000000000000000004614612f5a565b61039d91608082901c6001600160801b039182169190921602046131d5565b612479906130788360801d8260801d036131d5565b926001600160801b039081169116036131d5565b61039d916001600160801b0380831660809390931c911602046131d5565b60ff81146130f05760ff811690601f82116130e157604051916130ce604084611e29565b6020808452838101919036833783525290565b632cd44ac360e21b5f5260045ffd5b5060405161039d81613103816005611d74565b0382611e29565b60ff811461312e5760ff811690601f82116130e157604051916130ce604084611e29565b5060405161039d81613103816006611d74565b1561314857565b60405162461bcd60e51b815260206004820152602260248201527f45524332303a206275726e20616d6f756e7420657863656564732062616c616e604482015261636560f01b6064820152608490fd5b6042906131a3612f28565b906040519161190160f01b8352600283015260228201522090565b9161039d93916131cd93613257565b9190916132e6565b6001600160801b0381116131ef576001600160801b031690565b505f90565b6001600160a01b0381169081036131ef5790565b6040516323b872dd60e01b81526001600160a01b03928316600482015292909116602483015260448201929092526020915f9160649183905af13d15601f3d1160015f511416171615611b8c57565b6fa2a8918ca85bafe22016d0b997e4df60600160ff1b0384116132bd576020935f9360ff60809460405194855216868401526040830152606082015282805260015afa15611ab6575f516001600160a01b038116156132b557905f90565b505f90600190565b505050505f90600390565b600511156132d257565b634e487b7160e01b5f52602160045260245ffd5b6132ef816132c8565b806132f75750565b613300816132c8565b600181036133485760405162461bcd60e51b815260206004820152601860248201527745434453413a20696e76616c6964207369676e617475726560401b6044820152606490fd5b613351816132c8565b6002810361339e5760405162461bcd60e51b815260206004820152601f60248201527f45434453413a20696e76616c6964207369676e6174757265206c656e677468006044820152606490fd5b806133aa6003926132c8565b146133b157565b60405162461bcd60e51b815260206004820152602260248201527f45434453413a20696e76616c6964207369676e6174757265202773272076616c604482015261756560f01b6064820152608490fdfeddf252ad1be2c89b69c2b068fc378daa952ba7f163c4a11628f55a4df523b3efa2646970667358221220afd2fc9cbb6b150fb8c45d145955355e9af4846183384ca5d14bf4ae166b5ed364736f6c634300081a0033","linkReferences":{}},"methodIdentifiers":{"DOMAIN_SEPARATOR()":"3644e515","addShare((address,uint128,uint120,uint8))":"3b107e21","addauths(address,uint256)":"542128dd","addreferral(address,address)":"eca93cce","allowance(address,address)":"dd62ed3e","approve(address,uint256)":"095ea7b3","auths(address)":"64e72dbd","balanceOf(address)":"70a08231","burn(address,uint256)":"9dc29fac","burnShare(uint8)":"9241bda6","changeDAOAdmin(address)":"3cba316b","dao_admin()":"a538e6a9","decimals()":"313ce567","decreaseAllowance(address,uint256)":"a457c2d7","eip712Domain()":"84b0196e","getreferralanddaoadmin(address)":"b88e6d63","increaseAllowance(address,uint256)":"39509351","left_share()":"45fda707","marketcontract()":"2bf960da","name()":"06fdde03","nonces(address)":"7ecebe00","normalgoodid()":"02517e8b","permit(address,address,uint256,uint256,uint8,bytes32,bytes32)":"d505accf","poolstate()":"845fcee4","publicSell(uint256,bytes)":"297f24bf","publicsell()":"de5712d4","referrals(address)":"9ca423b3","rmauths(address)":"69a5ac32","setEnv(address,address,address)":"fa82add5","setRatio(uint256)":"b2237ba3","shareMint(uint8)":"df876548","shares(uint32)":"6f55aece","shares_index()":"696bb4ad","stake(address,uint128)":"19f8d5b4","stakeproof(uint256)":"06afa12a","stakestate()":"cae97640","symbol()":"95d89b41","totalSupply()":"18160ddd","transfer(address,uint256)":"a9059cbb","transferFrom(address,address,uint256)":"23b872dd","ttstokenconfig()":"623059a5","unstake(address,uint128)":"7bd3ca35","usdt()":"2f48ab7d","valuegoodid()":"f35da462","withdrawPublicSell(uint256,address)":"e7b43e7d"},"id":62}