{"abi":[{"type":"constructor","inputs":[{"name":"_marketconfig","type":"uint256","internalType":"uint256"},{"name":"_officialTokenContract","type":"address","internalType":"address"},{"name":"_officialNFTContract","type":"address","internalType":"address"},{"name":"_officialTrigger","type":"address","internalType":"address"}],"stateMutability":"nonpayable"},{"type":"function","name":"addbanlist","inputs":[{"name":"_user","type":"address","internalType":"address"}],"outputs":[{"name":"","type":"bool","internalType":"bool"}],"stateMutability":"nonpayable"},{"type":"function","name":"banlist","inputs":[{"name":"","type":"address","internalType":"address"}],"outputs":[{"name":"","type":"uint256","internalType":"uint256"}],"stateMutability":"view"},{"type":"function","name":"buyGood","inputs":[{"name":"_goodid1","type":"uint256","internalType":"uint256"},{"name":"_goodid2","type":"uint256","internalType":"uint256"},{"name":"_swapQuantity","type":"uint128","internalType":"uint128"},{"name":"_limitPrice","type":"uint256","internalType":"uint256"},{"name":"_istotal","type":"bool","internalType":"bool"},{"name":"_referal","type":"address","internalType":"address"}],"outputs":[{"name":"goodid2Quantity_","type":"uint128","internalType":"uint128"},{"name":"goodid2FeeQuantity_","type":"uint128","internalType":"uint128"}],"stateMutability":"payable"},{"type":"function","name":"buyGoodForPay","inputs":[{"name":"_goodid1","type":"uint256","internalType":"uint256"},{"name":"_goodid2","type":"uint256","internalType":"uint256"},{"name":"_swapQuantity","type":"uint128","internalType":"uint128"},{"name":"_limitPrice","type":"uint256","internalType":"uint256"},{"name":"_recipient","type":"address","internalType":"address"}],"outputs":[{"name":"goodid1Quantity_","type":"uint128","internalType":"uint128"},{"name":"goodid1FeeQuantity_","type":"uint128","internalType":"uint128"}],"stateMutability":"payable"},{"type":"function","name":"changeGoodOwner","inputs":[{"name":"_goodid","type":"uint256","internalType":"uint256"},{"name":"_to","type":"address","internalType":"address"}],"outputs":[],"stateMutability":"nonpayable"},{"type":"function","name":"collectCommission","inputs":[{"name":"_goodid","type":"uint256[]","internalType":"uint256[]"}],"outputs":[],"stateMutability":"nonpayable"},{"type":"function","name":"collectProof","inputs":[{"name":"_proofid","type":"uint256","internalType":"uint256"},{"name":"_gater","type":"address","internalType":"address"}],"outputs":[{"name":"profit_","type":"uint256","internalType":"uint256"}],"stateMutability":"nonpayable"},{"type":"function","name":"delproofdata","inputs":[{"name":"proofid","type":"uint256","internalType":"uint256"},{"name":"from","type":"address","internalType":"address"},{"name":"to","type":"address","internalType":"address"}],"outputs":[],"stateMutability":"nonpayable"},{"type":"function","name":"disinvestProof","inputs":[{"name":"_proofid","type":"uint256","internalType":"uint256"},{"name":"_goodQuantity","type":"uint128","internalType":"uint128"},{"name":"_gater","type":"address","internalType":"address"}],"outputs":[{"name":"","type":"bool","internalType":"bool"}],"stateMutability":"nonpayable"},{"type":"function","name":"getGoodState","inputs":[{"name":"goodkey","type":"uint256","internalType":"uint256"}],"outputs":[{"name":"","type":"tuple","internalType":"struct L_Good.S_GoodTmpState","components":[{"name":"goodConfig","type":"uint256","internalType":"uint256"},{"name":"owner","type":"address","internalType":"address"},{"name":"erc20address","type":"address","internalType":"address"},{"name":"trigger","type":"address","internalType":"address"},{"name":"currentState","type":"uint256","internalType":"uint256"},{"name":"investState","type":"uint256","internalType":"uint256"},{"name":"feeQuantityState","type":"uint256","internalType":"uint256"}]}],"stateMutability":"view"},{"type":"function","name":"getProofState","inputs":[{"name":"proofid","type":"uint256","internalType":"uint256"}],"outputs":[{"name":"","type":"tuple","internalType":"struct L_Proof.S_ProofState","components":[{"name":"currentgood","type":"uint256","internalType":"uint256"},{"name":"valuegood","type":"uint256","internalType":"uint256"},{"name":"state","type":"uint256","internalType":"uint256"},{"name":"invest","type":"uint256","internalType":"uint256"},{"name":"valueinvest","type":"uint256","internalType":"uint256"}]}],"stateMutability":"view"},{"type":"function","name":"goodWelfare","inputs":[{"name":"goodid","type":"uint256","internalType":"uint256"},{"name":"welfare","type":"uint128","internalType":"uint128"}],"outputs":[],"stateMutability":"payable"},{"type":"function","name":"initGood","inputs":[{"name":"_valuegood","type":"uint256","internalType":"uint256"},{"name":"_initial","type":"uint256","internalType":"uint256"},{"name":"_erc20address","type":"address","internalType":"address"},{"name":"_goodConfig","type":"uint256","internalType":"uint256"}],"outputs":[{"name":"","type":"bool","internalType":"bool"}],"stateMutability":"payable"},{"type":"function","name":"initMetaGood","inputs":[{"name":"_erc20address","type":"address","internalType":"address"},{"name":"_initial","type":"uint256","internalType":"uint256"},{"name":"_goodConfig","type":"uint256","internalType":"uint256"}],"outputs":[{"name":"","type":"bool","internalType":"bool"}],"stateMutability":"payable"},{"type":"function","name":"investGood","inputs":[{"name":"_togood","type":"uint256","internalType":"uint256"},{"name":"_valuegood","type":"uint256","internalType":"uint256"},{"name":"_quantity","type":"uint128","internalType":"uint128"}],"outputs":[{"name":"","type":"bool","internalType":"bool"}],"stateMutability":"payable"},{"type":"function","name":"ishigher","inputs":[{"name":"goodid","type":"uint256","internalType":"uint256"},{"name":"valuegood","type":"uint256","internalType":"uint256"},{"name":"compareprice","type":"uint256","internalType":"uint256"}],"outputs":[{"name":"","type":"bool","internalType":"bool"}],"stateMutability":"view"},{"type":"function","name":"marketconfig","inputs":[],"outputs":[{"name":"","type":"uint256","internalType":"uint256"}],"stateMutability":"view"},{"type":"function","name":"modifyGoodConfig","inputs":[{"name":"_goodid","type":"uint256","internalType":"uint256"},{"name":"_goodConfig","type":"uint256","internalType":"uint256"}],"outputs":[{"name":"","type":"bool","internalType":"bool"}],"stateMutability":"nonpayable"},{"type":"function","name":"payGood","inputs":[{"name":"_goodid","type":"uint256","internalType":"uint256"},{"name":"_payquanity","type":"uint256","internalType":"uint256"},{"name":"_recipent","type":"address","internalType":"address"}],"outputs":[{"name":"","type":"bool","internalType":"bool"}],"stateMutability":"payable"},{"type":"function","name":"proofmapping","inputs":[{"name":"proofkey","type":"uint256","internalType":"uint256"}],"outputs":[{"name":"proofid","type":"uint256","internalType":"uint256"}],"stateMutability":"view"},{"type":"function","name":"queryCommission","inputs":[{"name":"_goodid","type":"uint256[]","internalType":"uint256[]"},{"name":"_recipent","type":"address","internalType":"address"}],"outputs":[{"name":"","type":"uint256[]","internalType":"uint256[]"}],"stateMutability":"view"},{"type":"function","name":"removebanlist","inputs":[{"name":"_user","type":"address","internalType":"address"}],"outputs":[{"name":"","type":"bool","internalType":"bool"}],"stateMutability":"nonpayable"},{"type":"function","name":"setGoodTrigger","inputs":[{"name":"goodid","type":"uint256","internalType":"uint256"},{"name":"apptrigeraddress","type":"address","internalType":"address"},{"name":"config","type":"uint256","internalType":"uint256"}],"outputs":[],"stateMutability":"nonpayable"},{"type":"function","name":"setMarketConfig","inputs":[{"name":"_marketconfig","type":"uint256","internalType":"uint256"}],"outputs":[{"name":"","type":"bool","internalType":"bool"}],"stateMutability":"nonpayable"},{"type":"function","name":"updateGoodConfig","inputs":[{"name":"_goodid","type":"uint256","internalType":"uint256"},{"name":"_goodConfig","type":"uint256","internalType":"uint256"}],"outputs":[{"name":"","type":"bool","internalType":"bool"}],"stateMutability":"nonpayable"},{"type":"event","name":"e_addbanlist","inputs":[{"name":"_user","type":"address","indexed":false,"internalType":"address"}],"anonymous":false},{"type":"event","name":"e_buyGood","inputs":[{"name":"sellgood","type":"uint256","indexed":true,"internalType":"uint256"},{"name":"forgood","type":"uint256","indexed":true,"internalType":"uint256"},{"name":"fromer","type":"address","indexed":false,"internalType":"address"},{"name":"swapvalue","type":"uint128","indexed":false,"internalType":"uint128"},{"name":"sellgoodstate","type":"uint256","indexed":false,"internalType":"uint256"},{"name":"forgoodstate","type":"uint256","indexed":false,"internalType":"uint256"}],"anonymous":false},{"type":"event","name":"e_buyGoodForPay","inputs":[{"name":"buygood","type":"uint256","indexed":true,"internalType":"uint256"},{"name":"usegood","type":"uint256","indexed":true,"internalType":"uint256"},{"name":"fromer","type":"address","indexed":false,"internalType":"address"},{"name":"receipt","type":"address","indexed":false,"internalType":"address"},{"name":"swapvalue","type":"uint128","indexed":false,"internalType":"uint128"},{"name":"buygoodstate","type":"uint256","indexed":false,"internalType":"uint256"},{"name":"usegoodstate","type":"uint256","indexed":false,"internalType":"uint256"}],"anonymous":false},{"type":"event","name":"e_changeOwner","inputs":[{"name":"_goodid","type":"uint256","indexed":true,"internalType":"uint256"},{"name":"_owner","type":"address","indexed":false,"internalType":"address"},{"name":"_to","type":"address","indexed":false,"internalType":"address"}],"anonymous":false},{"type":"event","name":"e_changegoodowner","inputs":[{"name":"goodid","type":"uint256","indexed":false,"internalType":"uint256"},{"name":"to","type":"address","indexed":false,"internalType":"address"}],"anonymous":false},{"type":"event","name":"e_collectProof","inputs":[{"name":"_proofNo","type":"uint256","indexed":true,"internalType":"uint256"},{"name":"_normalGoodNo","type":"uint256","indexed":false,"internalType":"uint256"},{"name":"_valueGoodNo","type":"uint256","indexed":false,"internalType":"uint256"},{"name":"_profit","type":"uint256","indexed":false,"internalType":"uint256"}],"anonymous":false},{"type":"event","name":"e_collectProtocolFee","inputs":[{"name":"goodid","type":"uint256","indexed":false,"internalType":"uint256"},{"name":"feeamount","type":"uint256","indexed":false,"internalType":"uint256"}],"anonymous":false},{"type":"event","name":"e_collectcommission","inputs":[{"name":"_gooid","type":"uint256[]","indexed":false,"internalType":"uint256[]"},{"name":"_commisionamount","type":"uint256[]","indexed":false,"internalType":"uint256[]"}],"anonymous":false},{"type":"event","name":"e_disinvestProof","inputs":[{"name":"_proofNo","type":"uint256","indexed":true,"internalType":"uint256"},{"name":"_normalGoodNo","type":"uint256","indexed":false,"internalType":"uint256"},{"name":"_valueGoodNo","type":"uint256","indexed":false,"internalType":"uint256"},{"name":"_value","type":"uint256","indexed":false,"internalType":"uint256"},{"name":"_normalgood","type":"uint256","indexed":false,"internalType":"uint256"},{"name":"_valuegood","type":"uint256","indexed":false,"internalType":"uint256"},{"name":"_profit","type":"uint256","indexed":false,"internalType":"uint256"}],"anonymous":false},{"type":"event","name":"e_enpower","inputs":[{"name":"_goodid","type":"uint256","indexed":false,"internalType":"uint256"},{"name":"_valuegood","type":"uint256","indexed":false,"internalType":"uint256"},{"name":"_quantity","type":"uint256","indexed":false,"internalType":"uint256"}],"anonymous":false},{"type":"event","name":"e_goodWelfare","inputs":[{"name":"goodid","type":"uint256","indexed":false,"internalType":"uint256"},{"name":"welfare","type":"uint128","indexed":false,"internalType":"uint128"}],"anonymous":false},{"type":"event","name":"e_initGood","inputs":[{"name":"_proofNo","type":"uint256","indexed":false,"internalType":"uint256"},{"name":"_goodid","type":"uint256","indexed":false,"internalType":"uint256"},{"name":"_valuegoodNo","type":"uint256","indexed":false,"internalType":"uint256"},{"name":"_erc20address","type":"address","indexed":false,"internalType":"address"},{"name":"_goodConfig","type":"uint256","indexed":false,"internalType":"uint256"},{"name":"_construct","type":"uint256","indexed":false,"internalType":"uint256"},{"name":"_normalinitial","type":"uint256","indexed":false,"internalType":"uint256"},{"name":"_value","type":"uint256","indexed":false,"internalType":"uint256"}],"anonymous":false},{"type":"event","name":"e_initMetaGood","inputs":[{"name":"_proofNo","type":"uint256","indexed":false,"internalType":"uint256"},{"name":"_goodid","type":"uint256","indexed":false,"internalType":"uint256"},{"name":"_construct","type":"uint256","indexed":false,"internalType":"uint256"},{"name":"_erc20address","type":"address","indexed":false,"internalType":"address"},{"name":"_goodConfig","type":"uint256","indexed":false,"internalType":"uint256"},{"name":"_initial","type":"uint256","indexed":false,"internalType":"uint256"}],"anonymous":false},{"type":"event","name":"e_investGood","inputs":[{"name":"_proofNo","type":"uint256","indexed":true,"internalType":"uint256"},{"name":"_normalgoodid","type":"uint256","indexed":false,"internalType":"uint256"},{"name":"_valueGoodNo","type":"uint256","indexed":false,"internalType":"uint256"},{"name":"_value","type":"uint256","indexed":false,"internalType":"uint256"},{"name":"_invest","type":"uint256","indexed":false,"internalType":"uint256"},{"name":"_valueinvest","type":"uint256","indexed":false,"internalType":"uint256"}],"anonymous":false},{"type":"event","name":"e_modifyGoodConfig","inputs":[{"name":"_goodid","type":"uint256","indexed":false,"internalType":"uint256"},{"name":"_goodconfig","type":"uint256","indexed":false,"internalType":"uint256"}],"anonymous":false},{"type":"event","name":"e_removebanlist","inputs":[{"name":"_user","type":"address","indexed":false,"internalType":"address"}],"anonymous":false},{"type":"event","name":"e_setGoodTrigger","inputs":[{"name":"goodid","type":"uint256","indexed":false,"internalType":"uint256"},{"name":"triggeraddress","type":"address","indexed":false,"internalType":"address"},{"name":"goodconfig","type":"uint256","indexed":false,"internalType":"uint256"}],"anonymous":false},{"type":"event","name":"e_setMarketConfig","inputs":[{"name":"_marketconfig","type":"uint256","indexed":false,"internalType":"uint256"}],"anonymous":false},{"type":"event","name":"e_transferdel","inputs":[{"name":"delproofid","type":"uint256","indexed":false,"internalType":"uint256"},{"name":"existsproofid","type":"uint256","indexed":false,"internalType":"uint256"}],"anonymous":false},{"type":"event","name":"e_updateGoodConfig","inputs":[{"name":"_goodid","type":"uint256","indexed":false,"internalType":"uint256"},{"name":"_goodConfig","type":"uint256","indexed":false,"internalType":"uint256"}],"anonymous":false},{"type":"error","name":"ERC20TransferFailed","inputs":[]},{"type":"error","name":"NativeTransferFailed","inputs":[]}],"bytecode":{"object":"0x60e060405234801561000f575f80fd5b50604051614e9d380380614e9d83398101604081905261002e9161006b565b6001600160a01b0392831660805290821660a0525f929092551660c0526100b5565b80516001600160a01b0381168114610066575f80fd5b919050565b5f805f806080858703121561007e575f80fd5b8451935061008e60208601610050565b925061009c60408601610050565b91506100aa60608601610050565b905092959194509250565b60805160a05160c051614d166101875f395f81816112a6015281816112f601528181611deb01528181611e3b015281816121f101526123ab01525f81816108cd01528181610aad01528181610fab0152818161191201528181611aad0152818161249201526126a501525f818161063c0152818161090d015281816109e901528181610b7201528181610ce8015281816110f00152818161123101528181611728015281816119b201528181611b55015281816120d8015281816125750152818161278801526129250152614d165ff3fe60806040526004361061018e575f3560e01c80635e008cc4116100dc578063a6f6a98011610087578063b153b92011610062578063b153b920146104e5578063f44733ad14610504578063f4662f2014610517578063f88c301014610536575f80fd5b8063a6f6a98014610424578063a7e11697146104b3578063a7fed925146104c6575f80fd5b80639551177a116100b75780639551177a146103d357806397924ead146103f2578063a676a60014610405575f80fd5b80635e008cc4146103695780636ff73c8e14610394578063920acbb8146103c0575f80fd5b80632a7c5a911161013c57806345818e4c1161011757806345818e4c146103045780634ffef90714610323578063578496ab14610336575f80fd5b80632a7c5a91146102715780633f11774014610290578063402f5ab5146102f0575f80fd5b806318ad50d11161016c57806318ad50d1146102065780631faa5a56146102195780632973ada714610238575f80fd5b806306e27369146101925780630e21a1ac146101b3578063144aeb83146101e7575b5f80fd5b34801561019d575f80fd5b506101b16101ac3660046146b2565b610555565b005b3480156101be575f80fd5b506101d26101cd3660046146e7565b610625565b60405190151581526020015b60405180910390f35b3480156101f2575f80fd5b506101d26102013660046146e7565b610713565b6101b161021436600461471b565b610784565b348015610224575f80fd5b506101b1610233366004614749565b6108c2565b348015610243575f80fd5b50610263610252366004614788565b60046020525f908152604090205481565b6040519081526020016101de565b34801561027c575f80fd5b506101b161028b3660046147a3565b610b5d565b34801561029b575f80fd5b506102af6102aa3660046147c6565b610c57565b6040516101de91905f60a082019050825182526020830151602083015260408301516040830152606083015160608301526080830151608083015292915050565b3480156102fb575f80fd5b506102635f5481565b34801561030f575f80fd5b506101d261031e3660046147c6565b610cd1565b6101d26103313660046147dd565b610da4565b610349610344366004614826565b6111be565b604080516001600160801b039384168152929091166020830152016101de565b348015610374575f80fd5b506102636103833660046147c6565b60026020525f908152604090205481565b34801561039f575f80fd5b506103b36103ae366004614939565b6115a0565b6040516101de91906149b7565b6101d26103ce3660046149c9565b611698565b3480156103de575f80fd5b506101d26103ed366004614788565b611711565b6101d26104003660046149f4565b6117ee565b348015610410575f80fd5b5061026361041f3660046147a3565b611a53565b34801561042f575f80fd5b5061044361043e3660046147c6565b611cc9565b6040516101de91905f60e082019050825182526001600160a01b0360208401511660208301526001600160a01b0360408401511660408301526001600160a01b0360608401511660608301526080830151608083015260a083015160a083015260c083015160c083015292915050565b6103496104c1366004614a26565b611d8f565b3480156104d1575f80fd5b506101d26104e0366004614a78565b61209a565b3480156104f0575f80fd5b506101d26104ff366004614788565b6120c1565b6101d2610512366004614aa1565b6121a0565b348015610522575f80fd5b506101d2610531366004614acc565b61264b565b348015610541575f80fd5b506101b1610550366004614af0565b612a00565b5f83815260016020819052604090912001546001600160a01b0316331461057a575f80fd5b5f83815260016020908152604091829020805460df9490941b600f60df1b167ffffffff87fffffffffffffffffffffffffffffffffffffffffffffffffffffff9094168401808255600390910180546001600160a01b0319166001600160a01b0387169081179091558351878152928301529181018290527ff9c8db0c5294b561be909ddf03e9adcd15b0240463d521d6a0a88082a43db13f9060600160405180910390a150505050565b6040516394c3c33360e01b81523360048201525f907f00000000000000000000000000000000000000000000000000000000000000006001600160a01b0316906394c3c33390602401602060405180830381865afa158015610689573d5f803e3d5ffd5b505050506040513d601f19601f820116820180604052508101906106ad9190614b22565b6002146106b8575f80fd5b5f8381526001602052604090206106cf9083612c60565b60408051848152602081018490527f5af113730f9ee4153f120c893809feafa233584bbe5e93b5d78e0699c9c8ca5691015b60405180910390a15060015b92915050565b5f828152600160208190526040822001546001600160a01b03163314610737575f80fd5b5f83815260016020526040902061074e9083612c9f565b60408051848152602081018490527fc360eef79f1e7d7e7564e3cd446a9839f5a632a38a4d34b507c08e1ceef461479101610701565b6001600160a01b037fcfdbe78f31bc5efa50605e8b11a7b6843971370ea97eb24de6e1a1eb9d2356455c16156107b8575f80fd5b6107c133612cda565b5f828152600160205260409020600601546d2000000000000000000000000000906107f090839060801c614b4d565b6001600160801b03161115610803575f80fd5b5f82815260016020526040902060020154610831906001600160a01b0316336001600160801b038416612d00565b5f8281526001602052604090206006015461085590608083901b612d13565b612d13565b5f838152600160205260409081902060060191909155517f54fe3e24ce316357354d8b9553364de253d61c742d913dfd419149ddf696947a906108ad90849084909182526001600160801b0316602082015260400190565b60405180910390a16108be5f612cda565b5050565b336001600160a01b037f000000000000000000000000000000000000000000000000000000000000000016146108f6575f80fd5b5f83815260036020526040902060020154610937907f000000000000000000000000000000000000000000000000000000000000000090849060801c612d4b565b5f838152600360208181526040808420815160a081018352815481526001820154818501908152600283015482850152948201546060808301919091526004909201546080820152825191820183526001600160a01b038816825280519382019390935292519083015291906109ac90612db5565b90505f6109e26040518060600160405280866001600160a01b03168152602001855f015181526020018560200151815250612db5565b9050610a1c7f000000000000000000000000000000000000000000000000000000000000000085610a17866040015160801c90565b612e01565b505f8181526002602052604081205490819003610a4d575f8381526002602052604080822054848352912055610b47565b5f878152600360205260408082208383529120610a6991612e7c565b5f87815260036020819052604080832083815560018101849055600281018490559182018390556004918201929092559051630852cd8d60e31b81529081018890527f00000000000000000000000000000000000000000000000000000000000000006001600160a01b0316906342966c68906024015f604051808303815f87803b158015610af6575f80fd5b505af1158015610b08573d5f803e3d5ffd5b5050604080518a8152602081018590527f335d27656e7f9578ae51244b214940ee63a03fbed3788497ee4237a186aad1e4935001905060405180910390a15b50505f9081526002602052604081205550505050565b6040516394c3c33360e01b81523360048201527f00000000000000000000000000000000000000000000000000000000000000006001600160a01b0316906394c3c33390602401602060405180830381865afa158015610bbf573d5f803e3d5ffd5b505050506040513d601f19601f82011682018060405250810190610be39190614b22565b600214610bee575f80fd5b5f8281526001602081815260409283902090910180546001600160a01b0319166001600160a01b0385169081179091558251858152918201527f0dccb79e09923e42093e54de6132ceba9b88b094d10632520f6eeb8058a6721c91015b60405180910390a15050565b610c846040518060a001604052805f81526020015f81526020015f81526020015f81526020015f81525090565b505f90815260036020818152604092839020835160a08101855281548152600182015492810192909252600281015493820193909352908201546060820152600490910154608082015290565b6040516394c3c33360e01b81523360048201525f907f00000000000000000000000000000000000000000000000000000000000000006001600160a01b0316906394c3c33390602401602060405180830381865afa158015610d35573d5f803e3d5ffd5b505050506040513d601f19601f82011682018060405250810190610d599190614b22565b600214610d64575f80fd5b5f8290556040518281527fbd209961024f2694b0afb3c8badd20b6477abb77b336b16892c3fa4b906d323c906020015b60405180910390a1506001919050565b5f6001600160a01b037fcfdbe78f31bc5efa50605e8b11a7b6843971370ea97eb24de6e1a1eb9d2356455c1615610dd9575f80fd5b610de233612cda565b5f610e126040518060400160405280336001600160a01b03168152602001866001600160a01b0316815250612ece565b5f81815260016020819052604090912001549091506001600160a01b0316158015610e4f57505f86815260016020526040902054600160ff1b1615155b610e57575f80fd5b610e7f33610e658760801c90565b6001600160a01b03871691906001600160801b0316612d00565b5f86815260016020526040902060020154610ead906001600160a01b0316336001600160801b038816612d00565b5f868152600160205260408120610ec49087612efe565b9050610f46610eee8260400151610edb8960801c90565b6001600160801b031660809190911b1790565b5f8481526001602081905260409091206004810183905560058101929092556001600160df1b03871682556002820180546001600160a01b038a166001600160a01b0319918216179091559101805490911633179055565b5f610f736040518060600160405280336001600160a01b031681526020018581526020018a815250612db5565b9050610f7e81613052565b5f8281526002602052604090819020829055516340c10f1960e01b815233600482015260248101919091527f00000000000000000000000000000000000000000000000000000000000000006001600160a01b0316906340c10f19906044015f604051808303815f87803b158015610ff4575f80fd5b505af1158015611006573d5f803e3d5ffd5b50506040805160a081018252868152602081018c905285820151909350908301915060801b815260200161103e5f610edb8b60801c90565b81526020016110658460200151856060015160809190911b6001600160801b039091161790565b90525f828152600260208181526040808420805485526003808452828620875181558785015160018201558784015181870155606088015191810191909155608090960151600490960195909555928590528190529154908401517f7f24d62c59fa0f0a64c80fbbd1fce113d877d6c18a97ad6dffe701f290f123849286918c918b918b9161111b917f0000000000000000000000000000000000000000000000000000000000000000913391610a1791614b6c565b6111406111288f60801c90565b60408b01516001600160801b031660809190911b1790565b895160608b01516001600160801b031660809190911b17604080519889526020890197909752958701949094526001600160a01b03909216606086015260808501526001600160801b031660a084015260c083015260e08201526101000160405180910390a1600193505050506111b65f612cda565b949350505050565b5f806001600160a01b037fcfdbe78f31bc5efa50605e8b11a7b6843971370ea97eb24de6e1a1eb9d2356455c16156111f4575f80fd5b6111fd33612cda565b6001600160a01b03831615611289576040516376549e6760e11b81523360048201526001600160a01b0384811660248301527f0000000000000000000000000000000000000000000000000000000000000000169063eca93cce906044015f604051808303815f87803b158015611272575f80fd5b505af1158015611284573d5f803e3d5ffd5b505050505b5f87815260016020526040808220600401548a835291206112d9917f0000000000000000000000000000000000000000000000000000000000000000908a906001600160801b038b169033613075565b5f88815260016020526040808220600401548983529120611329917f0000000000000000000000000000000000000000000000000000000000000000908b906001600160801b038b16903361312d565b60408051610100810182526001600160801b03881681525f6020808301829052828401829052606083018290528b825260018082528483206004808201546080870152905460a08601528c84528183529483209485015460c0850152918b905252905460e082015261139b8187613198565b90505f876001600160801b03161180156113ca5750866001600160801b0316815f01516001600160801b031614155b80156113d65750878914155b80156113fa575060018515151480156113f8575080516001600160801b031615155b155b611402575f80fd5b6020808201515f8a81526001909252604090912054611435916001600160801b031661271060cc9290921c607f16020490565b91508181602001516114479190614b95565b60808201516040808401515f8d815260016020529190912092955061146d9291906134f8565b60c08101515f89815260016020526040902061148991846134f8565b80516114c590339061149b908a614b95565b5f8c8152600160205260409020600201546001600160a01b031691906001600160801b0316612d00565b5f888152600160205260409020600201546114f3906001600160a01b0316336001600160801b03861661351f565b87897fa79c43e220b5faf022716b06e757294b799a25f33d3c8b0121e614f7b5d988c4338460600151611546865f01518d61152e9190614b95565b60408801516001600160801b031660809190911b1790565b6001600160801b03881660808a901b17604080516001600160a01b0390951685526001600160801b03909316602085015291830152606082015260800160405180910390a3506115955f612cda565b965096945050505050565b606060648351106115af575f80fd5b5f835167ffffffffffffffff8111156115ca576115ca614889565b6040519080825280602002602001820160405280156115f3578160200160208202803683370190505b5090505f5b84518110156116905760015f86838151811061161657611616614bb4565b602002602001015181526020019081526020015f206007015f856001600160a01b03166001600160a01b031681526020019081526020015f205f9054906101000a90046001600160801b03166001600160801b031682828151811061167d5761167d614bb4565b60209081029190910101526001016115f8565b509392505050565b5f838152600160205260408120600201546001600160a01b03166116e0575f848152600160205260409020600201546116db906001600160a01b0316838561351f565b611706565b5f84815260016020526040902060020154611706906001600160a01b03163384866135b1565b5060015b9392505050565b6040516394c3c33360e01b81523360048201525f907f00000000000000000000000000000000000000000000000000000000000000006001600160a01b0316906394c3c33390602401602060405180830381865afa158015611775573d5f803e3d5ffd5b505050506040513d601f19601f820116820180604052508101906117999190614b22565b6002146117a4575f80fd5b6001600160a01b0382165f8181526004602090815260408083209290925590519182527e4ba2ca448db089eb9fb0b25431f0d57664d46141171fed2476281b578d96d49101610d94565b5f600160ff1b82166117fe575f80fd5b6118083384610e65565b5f6118386040518060400160405280336001600160a01b03168152602001876001600160a01b0316815250612ece565b5f81815260016020819052604090912060048101879055600581018790556001600160df1b03861681556002810180546001600160a01b038a166001600160a01b031991821617909155918101805490921633179091559091506118a190640100000000612c60565b5f6118ce6040518060600160405280336001600160a01b031681526020018481526020015f815250612db5565b90505f6118da82613052565b90506118e582613052565b5f838152600260205260409081902091909155516340c10f1960e01b8152336004820152602481018290527f00000000000000000000000000000000000000000000000000000000000000006001600160a01b0316906340c10f19906044015f604051808303815f87803b15801561195b575f80fd5b505af115801561196d573d5f803e3d5ffd5b505050506119ac835f6119896119838a60801c90565b60801b90565b6119935f8b610edb565b5f5b5f8781526003602052604090209493929190613656565b5f6119dc7f000000000000000000000000000000000000000000000000000000000000000033610a178a60801c90565b60408051848152602081018790526001600160801b038316818301526001600160a01b038b1660608201526080810189905260a081018a905290519192507f1c22db4272b2564e441961f166415a2651ae43c8d8992212cb4cac04e81f54cc919081900360c00190a1506001979650505050505050565b5f6001600160a01b037fcfdbe78f31bc5efa50605e8b11a7b6843971370ea97eb24de6e1a1eb9d2356455c1615611a88575f80fd5b611a9133612cda565b60405163430c208160e01b8152336004820152602481018490527f00000000000000000000000000000000000000000000000000000000000000006001600160a01b03169063430c2081906044016020604051808303815f875af1158015611afb573d5f803e3d5ffd5b505050506040513d601f19601f82011682018060405250810190611b1f9190614bc8565b611b27575f80fd5b5f8381526003602052604080822060018101549054915163b88e6d6360e01b815233600482015290929081907f00000000000000000000000000000000000000000000000000000000000000006001600160a01b03169063b88e6d63906024016040805180830381865afa158015611ba1573d5f803e3d5ffd5b505050506040513d601f19601f82011682018060405250810190611bc59190614be3565b6001600160a01b0388165f908152600460205260409020549193509150600114611bef5785611bf1565b815b9550806001600160a01b0316866001600160a01b031614611c125780611c14565b815b6001600160a01b0381165f90815260046020526040902054909150600114611c3c5781611c3e565b805b5f8581526001602081815260408084208c85526003835281852085548a8752949093529320939450611c769392918a908690886136c4565b604080518581526020810187905290810182905290955087907f172f458c2c853ed38b0114381270db7647bc1f9b612a42852353261a7e3379be9060600160405180910390a25050505061070d5f612cda565b611d1d6040518060e001604052805f81526020015f6001600160a01b031681526020015f6001600160a01b031681526020015f6001600160a01b031681526020015f81526020015f81526020015f81525090565b506040805160e0810182525f8381526001602081815284832080548552808301546001600160a01b039081168387015260028201548116968601969096526003810154909516606085015260048501546080850152600585015460a0850152949091529092526006015460c082015290565b5f806001600160a01b037fcfdbe78f31bc5efa50605e8b11a7b6843971370ea97eb24de6e1a1eb9d2356455c1615611dc5575f80fd5b611dce33612cda565b5f86815260016020526040808220600401548983529120611e1e917f00000000000000000000000000000000000000000000000000000000000000009089906001600160801b038a169033613075565b5f87815260016020526040808220600401548883529120611e6e917f0000000000000000000000000000000000000000000000000000000000000000908a906001600160801b038a16903361312d565b60408051610100810182526001600160801b03871681525f6020808301829052828401829052606083018290528a825260018082528483206004808201546080870152905460a08601528b84528183529483209485015460c0850152918a905252905460e0820152611ee081866137b5565b9050868814158015611efa575080516001600160801b0316155b611f02575f80fd5b6020808201515f8a81526001909252604090912054611f35916001600160801b031661271060c59290921c607f16020490565b9150818160200151611f479190614b4d565b60c08201516040808401515f8b8152600160205291909120929550611f6d9291906134f8565b60808101515f898152600160205260409020611f8991846134f8565b611fc784826040015188611f9d9190614b95565b5f8a8152600160205260409020600201546001600160a01b031691906001600160801b031661351f565b5f88815260016020526040902060020154611ff5906001600160a01b0316336001600160801b038616612d00565b86887f3de590341c976ea6fce618ef4a768a15441201ad3ed7c9b438d82c3951de7ced3387856060015161203d8c886040015160809190911b6001600160801b039091161790565b604080516001600160a01b0395861681529390941660208401526001600160801b03918216838501526060830152608089811b918916919091179082015290519081900360a00190a3506120905f612cda565b9550959350505050565b5f8381526001602052604080822060049081015485845291832001546111b6919084613a36565b6040516394c3c33360e01b81523360048201525f907f00000000000000000000000000000000000000000000000000000000000000006001600160a01b0316906394c3c33390602401602060405180830381865afa158015612125573d5f803e3d5ffd5b505050506040513d601f19601f820116820180604052508101906121499190614b22565b600214612154575f80fd5b6001600160a01b0382165f818152600460209081526040918290206001905590519182527f8e1c2d1a5dce36a56a9dfcb96e5816e793c16d6c897b4e3c0b1f99588bb88a1c9101610d94565b5f6001600160a01b037fcfdbe78f31bc5efa50605e8b11a7b6843971370ea97eb24de6e1a1eb9d2356455c16156121d5575f80fd5b6121de33612cda565b5f848152600160205260409020612220907f00000000000000000000000000000000000000000000000000000000000000006001600160801b03851633613ac1565b604080516080810182525f808252602082018190529181018290526060810191909152604080516080810182525f8082526020820181905291810182905260608101919091525f868152600160205260409020600401546d20000000000000000000000000009085906122939190614b4d565b6001600160801b0316111580156122aa5750848614155b80156122e457505f86815260016020526040902054600160ff1b161515806122e457505f85815260016020526040902054600160ff1b1615155b6122ec575f80fd5b5f8681526001602052604090206123039085612efe565b5f87815260016020526040902060020154909250612334906001600160a01b0316336001600160801b038716612d00565b8415612425576040808301515f8781526001602052919091206004015461235a91613b62565b6001600160801b0316606082018190525f8681526001602052604090205460d91c603f16612710908103909104026001600160801b0316606082018190525f8681526001602052604090206123d1917f00000000000000000000000000000000000000000000000000000000000000009033613ac1565b60608101515f86815260016020526040902060020154612407916001600160a01b039091169033906001600160801b0316612d00565b60608101515f86815260016020526040902061242291612efe565b90505b5f6124526040518060600160405280336001600160a01b0316815260200189815260200188815250612db5565b5f818152600260205260408120549192508190036125025761247382613052565b6040516340c10f1960e01b8152336004820152602481018290529091507f00000000000000000000000000000000000000000000000000000000000000006001600160a01b0316906340c10f19906044015f604051808303815f87803b1580156124db575f80fd5b505af11580156124ed573d5f803e3d5ffd5b5050505f838152600260205260409020829055505b604084015161254b908990899060801b602088015160608901516001600160801b031660809190911b17602088015160608901516001600160801b031660809190911b17611995565b5f8715612567576040850151612562906002614b6c565b61256d565b84604001515b90505f61259b7f00000000000000000000000000000000000000000000000000000000000000003384612e01565b9050827f54327712026ec7eff19c69f41b88780daaa74a97ae2dcfa56a1de52fb0e07fcd8b8b6125df8a604001518660809190911b6001600160801b039091161790565b8a5160608c01516001600160801b031660809190911b178a5160608c01516001600160801b031660809190911b17604080519586526020860194909452928401919091526060830152608082015260a00160405180910390a26001965050505050505061170a5f612cda565b5f6001600160a01b037fcfdbe78f31bc5efa50605e8b11a7b6843971370ea97eb24de6e1a1eb9d2356455c1615612680575f80fd5b61268933612cda565b60405163430c208160e01b8152336004820152602481018590527f00000000000000000000000000000000000000000000000000000000000000006001600160a01b03169063430c2081906044016020604051808303815f875af11580156126f3573d5f803e3d5ffd5b505050506040513d601f19601f820116820180604052508101906127179190614bc8565b61271f575f80fd5b604080516060810182525f8082526020820181905291810191909152604080516060810182525f80825260208201819052918101919091525f868152600360205260408082208054600190910154915163b88e6d6360e01b8152336004820152909290819081907f00000000000000000000000000000000000000000000000000000000000000006001600160a01b03169063b88e6d63906024016040805180830381865afa1580156127d4573d5f803e3d5ffd5b505050506040513d601f19601f820116820180604052508101906127f89190614be3565b6001600160a01b038b165f9081526004602052604090205491935091506001146128225781612824565b885b9850806001600160a01b0316896001600160a01b0316146128455780612847565b815b6001600160a01b0381165f9081526004602052604090205490915060011461286f5781612871565b805b905061290560015f8681526020019081526020015f2060035f8e81526020019081526020015f206040518060a001604052808e6001600160801b031681526020018d6001600160a01b03168152602001856001600160a01b031681526020015f548152602001866001600160a01b031681525060015f8a81526020019081526020015f20613b92909392919063ffffffff16565b9198509650925083156129205761291d836002614b6c565b92505b61294b7f00000000000000000000000000000000000000000000000000000000000000003385612d4b565b8a7f4741de4d43f1462a092cdf2a25cfc5d5bdf2c96f169d5e64121e800b6fc417ee8686608087901b60208c015160408d01516001600160801b031660809190911b1760208c015160408d01516001600160801b031660809190911b178d518d516001600160801b031660809190911b17604080519687526020870195909552938501929092526060840152608083015260a082015260c00160405180910390a2600197505050505050505061170a5f612cda565b6064815110612a0d575f80fd5b5f815167ffffffffffffffff811115612a2857612a28614889565b604051908082528060200260200182016040528015612a51578160200160208202803683370190505b5090505f5b8251811015612c2e5760015f848381518110612a7457612a74614bb4565b60209081029190910181015182528181019290925260409081015f90812033825260070190925290205482516001600160801b0390911690839083908110612abe57612abe614bb4565b6020026020010181815250506002828281518110612ade57612ade614bb4565b60200260200101511015612b10575f828281518110612aff57612aff614bb4565b602002602001018181525050612c26565b6001828281518110612b2457612b24614bb4565b6020026020010151612b369190614c10565b828281518110612b4857612b48614bb4565b6020026020010181815250506001805f858481518110612b6a57612b6a614bb4565b602002602001015181526020019081526020015f206007015f336001600160a01b03166001600160a01b031681526020019081526020015f205f6101000a8154816001600160801b0302191690836001600160801b03160217905550612c2633838381518110612bdc57612bdc614bb4565b602002602001015160015f878681518110612bf957612bf9614bb4565b60209081029190910181015182528101919091526040015f20600201546001600160a01b0316919061351f565b600101612a56565b507f8124a8d085ceb98e89ac6906c6e138dca5fdbc28a91438e33d7a2ab6c75742fd8282604051610c4b929190614c23565b815460df82901b90612c8f907b8000000000000000000000000000000000000000000000000000000090614c5b565b612c999190614c6e565b90915550565b81546001600160df1b0390911690612c999082907fffffffff8000000000000000000000000000000000000000000000000000000016614c6e565b807fcfdbe78f31bc5efa50605e8b11a7b6843971370ea97eb24de6e1a1eb9d2356455d50565b30612d0d848483856135b1565b50505050565b5f608082811d9084901d016001600160801b0383811690851601612d42612d398361409f565b610edb8361409f565b95945050505050565b604051637bd3ca3560e01b81526001600160a01b0383811660048301526001600160801b0383166024830152841690637bd3ca35906044015f604051808303815f87803b158015612d9a575f80fd5b505af1158015612dac573d5f803e3d5ffd5b50505050505050565b6040805182516001600160a01b0316602080830191909152830151818301529082015160608201525f906080015b60408051601f19818403018152919052805160209091012092915050565b60405163067e356d60e21b81526001600160a01b0383811660048301526001600160801b03831660248301525f91908516906319f8d5b4906044016020604051808303815f875af1158015612e58573d5f803e3d5ffd5b505050506040513d601f19601f820116820180604052508101906111b69190614c81565b612e8e82600201548260020154612d13565b8260020181905550612ea882600301548260030154612d13565b8260030181905550612ec282600401548260040154612d13565b82600401819055505050565b5f81604051602001612de3919081516001600160a01b039081168252602092830151169181019190915260400190565b604080516080810182525f8082526020820181905291810182905260608101919091528254612f42906001600160801b03841661271060d99290921c603f16020490565b6001600160801b0316808252612f589083614b95565b6001600160801b0316606082018190526004840154612f76916140b9565b6001600160801b0316604082015260608101516006840154612faa9190612fa49060801c6005870154610edb565b906140b9565b6001600160801b03166020820181905260068401548251612feb9261085091612fd39190614b4d565b60208501516001600160801b031660809190911b1790565b6006840155600483015460408201516060830151613018929160801b6001600160801b0390911617612d13565b6004840155600583015460408201516060830151613045929160801b6001600160801b0390911617612d13565b6005909301929092555090565b604080516020810183905230918101919091524260608201525f90608001612de3565b8554600160e21b1615613125576003860154600480880154604051635eb77ef360e11b81526001600160a01b0393841692810192909252602482018790526044820186905260648201526084810184905282821660a48201529086169063bd6efde69060c4015b6020604051808303815f875af11580156130f8573d5f803e3d5ffd5b505050506040513d601f19601f8201168201806040525081019061311c9190614bc8565b15613125575f80fd5b505050505050565b8554600160e11b161561312557600386015460048088015460405163010be28560e61b81526001600160a01b0393841692810192909252602482018790526044820186905260648201526084810184905282821660a4820152908616906342f8a1409060c4016130dc565b60408051610100810182525f80825260208201819052918101829052606081018290526080810182905260a0810182905260c0810182905260e08101919091526131eb83608001518460c0015184613a36565b6131f657508161070d565b825160a08401515f91829161321f916001600160801b031661271060c59290921c607f16020490565b6001600160801b0316604086018190528551869061323e908390614b95565b6001600160801b03169052505b84516001600160801b031615801590613272575061327285608001518660c0015186613a36565b15613460576132936132888660c0015160801c90565b60e0870151906140e1565b6001600160801b03166132b86132ad876080015160801c90565b60a0880151906140e1565b6001600160801b031610156132e8576132e36132d8866080015160801c90565b60a0870151906140e1565b6132f9565b6132f96132888660c0015160801c90565b608086015190925061330b9083613b62565b9050806001600160801b0316855f01516001600160801b031611156133bd5780855f0181815161333b9190614b95565b6001600160801b031690525060c08501516133569083613b62565b856020018181516133679190614b4d565b6001600160801b0390811690915260808781015161339293509184169085901b17614110565b614110565b608086015260c08501516133b3906133ae84610edb8382613b62565b614136565b60c086015261343d565b845160808601516133cd916140b9565b60c08601519092506133df9083613b62565b856020018181516133f09190614b4d565b6001600160801b03908116909152608087810151885161341894509092169085901b17614110565b608086015260c0850151613434906133ae84610edb8382613b62565b60c08601525f85525b818560600181815161344f9190614b4d565b6001600160801b031690525061324b565b84516001600160801b0316156134ef57845160a0860151613495916001600160801b031661271060c59290921c607f16020490565b856040018181516134a69190614b95565b6001600160801b03908116909152865160a08801516134d39350911661271060c59290921c607f16020490565b855186906134e2908390614b4d565b6001600160801b03169052505b50929392505050565b60048301829055600683015461351290608083901b612d13565b8360060181905550505050565b5f6001600160a01b03841661355b575f805f8085875af190508061355657604051633d2cec6f60e21b815260040160405180910390fd5b612d0d565b60405163a9059cbb60e01b5f52836004528260245260205f60445f80895af13d15601f3d1160015f511416171691505f606052806040525080612d0d57604051633c9fd93960e21b815260040160405180910390fd5b5f6001600160a01b0385166135e5578134146135e057604051633d2cec6f60e21b815260040160405180910390fd5b61364f565b6040516323b872dd60e01b81526001600160a01b03851660048201526001600160a01b038416602482015282604482015260205f6064835f8a5af13d15601f3d1160015f51141617169150508061364f57604051633c9fd93960e21b815260040160405180910390fd5b5050505050565b60038601546001600160801b03165f0361366e578486555b831561367c57600186018490555b61368a866002015484612d13565b6002870155600386015461369e9083612d13565b60038701558315613125576136b7866004015482612d13565b6004870155505050505050565b5f806136d4876003015460801c90565b6136fd6136e2896003015490565b612fa46136f38d6006015460801c90565b60058e0154610edb565b6137079190614b95565b60068a0154909150613722906001600160801b038316612d13565b60068a01556137368982868989885f61415c565b5f613745886004015460801c90565b6137536136e28a6004015490565b61375d9190614b95565b60068a0154909150613778906001600160801b038316612d13565b60068a015561378c8982878a8a895f61415c565b6001600160801b038116608083901b1792506137a8888461450a565b5050979650505050505050565b60408051610100810182525f80825260208201819052918101829052606081018290526080810182905260a0810182905260c0810182905260e081019190915261380883608001518460c0015184613a36565b1561381457508161070d565b825160e08401515f91829161383d916001600160801b031661271060cc9290921c607f16020490565b6001600160801b031660408601525b84516001600160801b031615801590613873575061387385608001518660c0015186613a36565b156134ef576138896132888660c0015160801c90565b6001600160801b03166138a36132ad876080015160801c90565b6001600160801b031610156138c8576138c36132d8866080015160801c90565b6138d9565b6138d96132888660c0015160801c90565b60c08601519092506138eb9083613b62565b9050806001600160801b0316855f01516001600160801b031611156139935780855f0181815161391b9190614b95565b6001600160801b031690525060808501516139369083613b62565b856020018181516139479190614b4d565b6001600160801b0390811690915260c087015161396d9250908316608085901b17614136565b60c086015260808501516139899061338d84610edb8382613b62565b6080860152613a13565b845160c08601516139a3916140b9565b60808601519092506139b59083613b62565b856020018181516139c69190614b4d565b6001600160801b0390811690915260c087015187516139ee9350909116608085901b17614136565b60c08601526080850151613a0a9061338d84610edb8382613b62565b60808601525f85525b8185606001818151613a259190614b4d565b6001600160801b031690525061384c565b5f613a418260801c90565b6001600160801b0316613a548460801c90565b6001600160801b0316856001600160801b0316613a719190614c9c565b613a7b9190614c9c565b826001600160801b0316846001600160801b0316613a998760801c90565b6001600160801b0316613aac9190614c9c565b613ab69190614c9c565b11611706575f6111b6565b8354600160e01b1615612d0d576003840154600480860154604051632023707d60e01b81526001600160a01b0393841692810192909252602482018590526044820152828216606482015290841690632023707d906084016020604051808303815f875af1158015613b35573d5f803e3d5ffd5b505050506040513d601f19601f82011682018060405250810190613b599190614bc8565b15612d0d575f80fd5b5f61170a836001600160801b0316836001600160801b0316613b848660801c90565b6001600160801b0316614540565b604080516060810182525f8082526020820181905291810191909152604080516060810182525f80825260208201819052918101919091525f613bed845f0151612fa4613be3886002015460801c90565b6003890154610edb565b90506040518060600160405280613c1c865f0151612fa4613c128c6006015460801c90565b60058d0154610edb565b6001600160801b03168152602001613c4c865f0151612fa4613c428a6003015460801c90565b60038b0154610edb565b6001600160801b0390811682528651166020909101528754909350600160ff1b16151580613c8057508554600160ff1b1615155b8015613cb55750613ca0613c98886004015460801c90565b885490614551565b6001600160801b0316816001600160801b0316105b8015613ce25750613cca613c98886004015490565b6001600160801b0316845f01516001600160801b0316105b613d205760405162461bcd60e51b8152600401613d17906020808252600490820152634730313160e01b604082015260600190565b60405180910390fd5b60048701546040840151613d4391906001600160801b0316608084901b17614575565b600488015560058701546040840151613d6b91906001600160801b0316608084901b17614575565b6005880155600687015483516020850151613d95929160801b6001600160801b0390911617614575565b6006880155613da4858261459b565b60208301518351613db59190614b95565b6001600160801b03908116845260408401518854613de19290911661271060d39290921c603f16020490565b6001600160801b03166020808501829052845160608701519187015160408089015160808a015191890151613e24968e96949391613e1f9190614b95565b61415c565b60208301516001600160801b031615613e545760068701546020840151613e4e919060801b612d13565b60068801555b600185015415614095576040518060600160405280613e8883612fa4613e7e8b6006015460801c90565b60058c0154610edb565b6001600160801b03168152602001613eb583612fa4613eab8a6004015460801c90565b60048b0154610edb565b6001600160801b03168152602001613ede83613ed8613eab8a6002015460801c90565b90613b62565b6001600160801b03168152509150613f05613efd876004015460801c90565b875490614551565b6001600160801b0316816001600160801b0316108015613f475750613f2e613efd876004015490565b6001600160801b031682604001516001600160801b0316105b613f7c5760405162461bcd60e51b8152600401613d17906020808252600490820152632398189960e11b604082015260600190565b60048601546040830151613f9f91906001600160801b0316608084901b17614575565b600487015560058601546040830151613fc791906001600160801b0316608084901b17614575565b6005870155600686015482516020840151613ff1929160801b6001600160801b0390911617614575565b6006870155602082015182516140079190614b95565b6001600160801b039081168352604083015187546140339290911661271060d39290921c603f16020490565b6001600160801b03166020830181905215614065576006860154602083015161405f919060801b612d13565b60068701555b61409586835f0151866060015187602001518860400151896080015188602001518960400151613e1f9190614b95565b9450945094915050565b5f6001600160801b038211156140b5575f61070d565b5090565b5f61170a6140c78460801c90565b6001600160801b0316836001600160801b0316613b848690565b5f6103ff60bb84901c168082036140fb578291505061070d565b614106816040614b6c565b6111b69084614cb3565b5f608082811d9084901d036001600160801b0383811690851601612d42612d398361409f565b5f608082811d9084901d016001600160801b0383811690851603612d42612d398361409f565b60646001600160801b03871660dd87901c601f16020461417c8188614b95565b965060646001600160801b03881660fa88901c81028290049160f489901c603f90811683028290049260ee8b901c821681028390049260e88c901c831682028190049260e28d901c16909102046001600160a01b0389166143055761421d336141e58988614b4d565b6001600160801b03168f6002015f9054906101000a90046001600160a01b03166001600160a01b031661351f9092919063ffffffff16565b6142278185614b4d565b6001600160a01b038b165f90815260078f016020526040812080549091906142599084906001600160801b0316614b4d565b92506101000a8154816001600160801b0302191690836001600160801b03160217905550858185878f61428c9190614b95565b6142969190614b95565b6142a09190614b95565b6142aa9190614b4d565b6001600160a01b0389165f90815260078f016020526040812080549091906142dc9084906001600160801b0316614b4d565b92506101000a8154816001600160801b0302191690836001600160801b031602179055506144fb565b60018d01546001600160a01b0389811691161461437b5760018d01546001600160a01b03165f90815260078e016020526040812080548692906143529084906001600160801b0316614b4d565b92506101000a8154816001600160801b0302191690836001600160801b03160217905550614388565b6143858487614b4d565b95505b876001600160a01b03168a6001600160a01b0316146143fc576001600160a01b038a165f90815260078e016020526040812080548592906143d39084906001600160801b0316614b4d565b92506101000a8154816001600160801b0302191690836001600160801b03160217905550614409565b6144068387614b4d565b95505b876001600160a01b0316896001600160a01b03161461447d576001600160a01b0389165f90815260078e016020526040812080548492906144549084906001600160801b0316614b4d565b92506101000a8154816001600160801b0302191690836001600160801b0316021790555061448a565b6144878287614b4d565b95505b6001600160a01b0388165f90815260078e016020526040812080548892906144bc9084906001600160801b0316614b4d565b92506101000a8154816001600160801b0302191690836001600160801b031602179055506144fb338883886144f19190614b4d565b6141e59190614b4d565b50505050505050505050505050565b61451f82600301546108506119838460801c90565b60038301556001820154156108be57612ec282600401546108506119838490565b918102915f818404612d428161409f565b5f6103ff60b184901c1680820361456b578291505061070d565b6111b68184614cb3565b5f608082811d9084901d036001600160801b0383811690851603612d42612d398361409f565b5f6146006145d16145b0856003015460801c90565b6001600160801b0316846001600160801b0316613b84876002015460801c90565b610edb6145df866003015490565b6001600160801b0316856001600160801b0316613b84886002015460801c90565b905082600101545f14614668575f6146516146226145df866004015460801c90565b610edb614630876004015490565b6001600160801b0316866001600160801b0316613b84896002015460801c90565b9050614661846004015482614575565b6004850155505b614676836003015482614575565b6003840155600283015461468e90608084901b614575565b8360020181905550505050565b6001600160a01b03811681146146af575f80fd5b50565b5f805f606084860312156146c4575f80fd5b8335925060208401356146d68161469b565b929592945050506040919091013590565b5f80604083850312156146f8575f80fd5b50508035926020909101359150565b6001600160801b03811681146146af575f80fd5b5f806040838503121561472c575f80fd5b82359150602083013561473e81614707565b809150509250929050565b5f805f6060848603121561475b575f80fd5b83359250602084013561476d8161469b565b9150604084013561477d8161469b565b809150509250925092565b5f60208284031215614798575f80fd5b813561170a8161469b565b5f80604083850312156147b4575f80fd5b82359150602083013561473e8161469b565b5f602082840312156147d6575f80fd5b5035919050565b5f805f80608085870312156147f0575f80fd5b843593506020850135925060408501356148098161469b565b9396929550929360600135925050565b80151581146146af575f80fd5b5f805f805f8060c0878903121561483b575f80fd5b8635955060208701359450604087013561485481614707565b935060608701359250608087013561486b81614819565b915060a087013561487b8161469b565b809150509295509295509295565b634e487b7160e01b5f52604160045260245ffd5b5f82601f8301126148ac575f80fd5b813567ffffffffffffffff8111156148c6576148c6614889565b8060051b604051601f19603f830116810181811067ffffffffffffffff821117156148f3576148f3614889565b604052918252602081850181019290810186841115614910575f80fd5b6020860192505b8383101561492f578235815260209283019201614917565b5095945050505050565b5f806040838503121561494a575f80fd5b823567ffffffffffffffff811115614960575f80fd5b61496c8582860161489d565b925050602083013561473e8161469b565b5f8151808452602084019350602083015f5b828110156149ad57815186526020958601959091019060010161498f565b5093949350505050565b602081525f61170a602083018461497d565b5f805f606084860312156149db575f80fd5b8335925060208401359150604084013561477d8161469b565b5f805f60608486031215614a06575f80fd5b8335614a118161469b565b95602085013595506040909401359392505050565b5f805f805f60a08688031215614a3a575f80fd5b85359450602086013593506040860135614a5381614707565b9250606086013591506080860135614a6a8161469b565b809150509295509295909350565b5f805f60608486031215614a8a575f80fd5b505081359360208301359350604090920135919050565b5f805f60608486031215614ab3575f80fd5b8335925060208401359150604084013561477d81614707565b5f805f60608486031215614ade575f80fd5b83359250602084013561476d81614707565b5f60208284031215614b00575f80fd5b813567ffffffffffffffff811115614b16575f80fd5b6111b68482850161489d565b5f60208284031215614b32575f80fd5b5051919050565b634e487b7160e01b5f52601160045260245ffd5b6001600160801b03818116838216019081111561070d5761070d614b39565b6001600160801b038181168382160290811690818114614b8e57614b8e614b39565b5092915050565b6001600160801b03828116828216039081111561070d5761070d614b39565b634e487b7160e01b5f52603260045260245ffd5b5f60208284031215614bd8575f80fd5b815161170a81614819565b5f8060408385031215614bf4575f80fd5b8251614bff8161469b565b602084015190925061473e8161469b565b8181038181111561070d5761070d614b39565b604081525f614c35604083018561497d565b8281036020840152612d42818561497d565b634e487b7160e01b5f52601260045260245ffd5b5f82614c6957614c69614c47565b500690565b8082018082111561070d5761070d614b39565b5f60208284031215614c91575f80fd5b815161170a81614707565b808202811582820484141761070d5761070d614b39565b5f6001600160801b03831680614ccb57614ccb614c47565b806001600160801b038416049150509291505056fea2646970667358221220056b9653a4fb7f00dfd44dc8f2a6c49b804a7882243951f500f2a648a311aa6564736f6c634300081a0033","linkReferences":{}},"methodIdentifiers":{"addbanlist(address)":"b153b920","banlist(address)":"2973ada7","buyGood(uint256,uint256,uint128,uint256,bool,address)":"578496ab","buyGoodForPay(uint256,uint256,uint128,uint256,address)":"a7e11697","changeGoodOwner(uint256,address)":"2a7c5a91","collectCommission(uint256[])":"f88c3010","collectProof(uint256,address)":"a676a600","delproofdata(uint256,address,address)":"1faa5a56","disinvestProof(uint256,uint128,address)":"f4662f20","getGoodState(uint256)":"a6f6a980","getProofState(uint256)":"3f117740","goodWelfare(uint256,uint128)":"18ad50d1","initGood(uint256,uint256,address,uint256)":"4ffef907","initMetaGood(address,uint256,uint256)":"97924ead","investGood(uint256,uint256,uint128)":"f44733ad","ishigher(uint256,uint256,uint256)":"a7fed925","marketconfig()":"402f5ab5","modifyGoodConfig(uint256,uint256)":"0e21a1ac","payGood(uint256,uint256,address)":"920acbb8","proofmapping(uint256)":"5e008cc4","queryCommission(uint256[],address)":"6ff73c8e","removebanlist(address)":"9551177a","setGoodTrigger(uint256,address,uint256)":"06e27369","setMarketConfig(uint256)":"45818e4c","updateGoodConfig(uint256,uint256)":"144aeb83"},"id":56}