{"abi":[{"type":"constructor","inputs":[{"name":"_usdt","type":"address","internalType":"address"},{"name":"_dao_admin","type":"address","internalType":"address"},{"name":"_ttsconfig","type":"uint256","internalType":"uint256"}],"stateMutability":"nonpayable"},{"type":"function","name":"DOMAIN_SEPARATOR","inputs":[],"outputs":[{"name":"","type":"bytes32","internalType":"bytes32"}],"stateMutability":"view"},{"type":"function","name":"addShare","inputs":[{"name":"_share","type":"tuple","internalType":"struct s_share","components":[{"name":"recipient","type":"address","internalType":"address"},{"name":"leftamount","type":"uint128","internalType":"uint128"},{"name":"metric","type":"uint120","internalType":"uint120"},{"name":"chips","type":"uint8","internalType":"uint8"}]}],"outputs":[],"stateMutability":"nonpayable"},{"type":"function","name":"addauths","inputs":[{"name":"_auths","type":"address","internalType":"address"},{"name":"_priv","type":"uint256","internalType":"uint256"}],"outputs":[],"stateMutability":"nonpayable"},{"type":"function","name":"addreferral","inputs":[{"name":"user","type":"address","internalType":"address"},{"name":"referral","type":"address","internalType":"address"}],"outputs":[],"stateMutability":"nonpayable"},{"type":"function","name":"allowance","inputs":[{"name":"owner","type":"address","internalType":"address"},{"name":"spender","type":"address","internalType":"address"}],"outputs":[{"name":"","type":"uint256","internalType":"uint256"}],"stateMutability":"view"},{"type":"function","name":"approve","inputs":[{"name":"spender","type":"address","internalType":"address"},{"name":"amount","type":"uint256","internalType":"uint256"}],"outputs":[{"name":"","type":"bool","internalType":"bool"}],"stateMutability":"nonpayable"},{"type":"function","name":"balanceOf","inputs":[{"name":"account","type":"address","internalType":"address"}],"outputs":[{"name":"","type":"uint256","internalType":"uint256"}],"stateMutability":"view"},{"type":"function","name":"burn","inputs":[{"name":"account","type":"address","internalType":"address"},{"name":"value","type":"uint256","internalType":"uint256"}],"outputs":[],"stateMutability":"nonpayable"},{"type":"function","name":"burnShare","inputs":[{"name":"index","type":"uint32","internalType":"uint32"}],"outputs":[],"stateMutability":"nonpayable"},{"type":"function","name":"chain_deposit","inputs":[{"name":"chainid","type":"uint32","internalType":"uint32"},{"name":"asset","type":"uint128","internalType":"uint128"}],"outputs":[],"stateMutability":"nonpayable"},{"type":"function","name":"chain_withdraw","inputs":[{"name":"chainid","type":"uint32","internalType":"uint32"},{"name":"asset","type":"uint128","internalType":"uint128"}],"outputs":[],"stateMutability":"nonpayable"},{"type":"function","name":"changeDAOAdmin","inputs":[{"name":"_recipient","type":"address","internalType":"address"}],"outputs":[],"stateMutability":"nonpayable"},{"type":"function","name":"decimals","inputs":[],"outputs":[{"name":"","type":"uint8","internalType":"uint8"}],"stateMutability":"pure"},{"type":"function","name":"decreaseAllowance","inputs":[{"name":"spender","type":"address","internalType":"address"},{"name":"subtractedValue","type":"uint256","internalType":"uint256"}],"outputs":[{"name":"","type":"bool","internalType":"bool"}],"stateMutability":"nonpayable"},{"type":"function","name":"eip712Domain","inputs":[],"outputs":[{"name":"fields","type":"bytes1","internalType":"bytes1"},{"name":"name","type":"string","internalType":"string"},{"name":"version","type":"string","internalType":"string"},{"name":"chainId","type":"uint256","internalType":"uint256"},{"name":"verifyingContract","type":"address","internalType":"address"},{"name":"salt","type":"bytes32","internalType":"bytes32"},{"name":"extensions","type":"uint256[]","internalType":"uint256[]"}],"stateMutability":"view"},{"type":"function","name":"getreferral","inputs":[{"name":"_customer","type":"address","internalType":"address"}],"outputs":[{"name":"","type":"address","internalType":"address"}],"stateMutability":"view"},{"type":"function","name":"getreferralanddaoadmin","inputs":[{"name":"_customer","type":"address","internalType":"address"}],"outputs":[{"name":"","type":"address","internalType":"address"},{"name":"","type":"address","internalType":"address"}],"stateMutability":"view"},{"type":"function","name":"increaseAllowance","inputs":[{"name":"spender","type":"address","internalType":"address"},{"name":"addedValue","type":"uint256","internalType":"uint256"}],"outputs":[{"name":"","type":"bool","internalType":"bool"}],"stateMutability":"nonpayable"},{"type":"function","name":"isauths","inputs":[{"name":"recipient","type":"address","internalType":"address"}],"outputs":[{"name":"","type":"uint256","internalType":"uint256"}],"stateMutability":"view"},{"type":"function","name":"left_share","inputs":[],"outputs":[{"name":"","type":"uint128","internalType":"uint128"}],"stateMutability":"view"},{"type":"function","name":"name","inputs":[],"outputs":[{"name":"","type":"string","internalType":"string"}],"stateMutability":"view"},{"type":"function","name":"nonces","inputs":[{"name":"owner","type":"address","internalType":"address"}],"outputs":[{"name":"","type":"uint256","internalType":"uint256"}],"stateMutability":"view"},{"type":"function","name":"permit","inputs":[{"name":"owner","type":"address","internalType":"address"},{"name":"spender","type":"address","internalType":"address"},{"name":"value","type":"uint256","internalType":"uint256"},{"name":"deadline","type":"uint256","internalType":"uint256"},{"name":"v","type":"uint8","internalType":"uint8"},{"name":"r","type":"bytes32","internalType":"bytes32"},{"name":"s","type":"bytes32","internalType":"bytes32"}],"outputs":[],"stateMutability":"nonpayable"},{"type":"function","name":"poolstate","inputs":[],"outputs":[{"name":"","type":"uint256","internalType":"T_BalanceUINT256"}],"stateMutability":"view"},{"type":"function","name":"publicSell","inputs":[{"name":"usdtamount","type":"uint256","internalType":"uint256"}],"outputs":[],"stateMutability":"nonpayable"},{"type":"function","name":"publicsell","inputs":[],"outputs":[{"name":"","type":"uint128","internalType":"uint128"}],"stateMutability":"view"},{"type":"function","name":"rmauths","inputs":[{"name":"_auths","type":"address","internalType":"address"}],"outputs":[],"stateMutability":"nonpayable"},{"type":"function","name":"setEnv","inputs":[{"name":"_normalgoodid","type":"uint256","internalType":"uint256"},{"name":"_valuegoodid","type":"uint256","internalType":"uint256"},{"name":"_marketcontract","type":"address","internalType":"address"}],"outputs":[],"stateMutability":"nonpayable"},{"type":"function","name":"shareMint","inputs":[{"name":"index","type":"uint32","internalType":"uint32"}],"outputs":[],"stateMutability":"nonpayable"},{"type":"function","name":"shares","inputs":[{"name":"","type":"uint32","internalType":"uint32"}],"outputs":[{"name":"recipient","type":"address","internalType":"address"},{"name":"leftamount","type":"uint128","internalType":"uint128"},{"name":"metric","type":"uint120","internalType":"uint120"},{"name":"chips","type":"uint8","internalType":"uint8"}],"stateMutability":"view"},{"type":"function","name":"stake","inputs":[{"name":"_staker","type":"address","internalType":"address"},{"name":"proofvalue","type":"uint128","internalType":"uint128"}],"outputs":[{"name":"netconstruct","type":"uint128","internalType":"uint128"}],"stateMutability":"nonpayable"},{"type":"function","name":"stakestate","inputs":[],"outputs":[{"name":"","type":"uint256","internalType":"T_BalanceUINT256"}],"stateMutability":"view"},{"type":"function","name":"subchainDeposit","inputs":[{"name":"asset","type":"uint128","internalType":"uint128"},{"name":"recipient","type":"address","internalType":"address"}],"outputs":[],"stateMutability":"nonpayable"},{"type":"function","name":"subchainWithdraw","inputs":[{"name":"asset","type":"uint128","internalType":"uint128"},{"name":"recipient","type":"address","internalType":"address"}],"outputs":[],"stateMutability":"nonpayable"},{"type":"function","name":"symbol","inputs":[],"outputs":[{"name":"","type":"string","internalType":"string"}],"stateMutability":"view"},{"type":"function","name":"syncChainStake","inputs":[{"name":"chainid","type":"uint32","internalType":"uint32"},{"name":"chainvalue","type":"uint128","internalType":"uint128"}],"outputs":[{"name":"poolasset","type":"uint128","internalType":"uint128"}],"stateMutability":"nonpayable"},{"type":"function","name":"syncPoolAsset","inputs":[{"name":"amount","type":"uint128","internalType":"uint128"}],"outputs":[],"stateMutability":"nonpayable"},{"type":"function","name":"totalSupply","inputs":[],"outputs":[{"name":"","type":"uint256","internalType":"uint256"}],"stateMutability":"view"},{"type":"function","name":"transfer","inputs":[{"name":"to","type":"address","internalType":"address"},{"name":"amount","type":"uint256","internalType":"uint256"}],"outputs":[{"name":"","type":"bool","internalType":"bool"}],"stateMutability":"nonpayable"},{"type":"function","name":"transferFrom","inputs":[{"name":"from","type":"address","internalType":"address"},{"name":"to","type":"address","internalType":"address"},{"name":"amount","type":"uint256","internalType":"uint256"}],"outputs":[{"name":"","type":"bool","internalType":"bool"}],"stateMutability":"nonpayable"},{"type":"function","name":"ttstokenconfig","inputs":[],"outputs":[{"name":"","type":"uint256","internalType":"uint256"}],"stateMutability":"view"},{"type":"function","name":"unstake","inputs":[{"name":"_staker","type":"address","internalType":"address"},{"name":"proofvalue","type":"uint128","internalType":"uint128"}],"outputs":[],"stateMutability":"nonpayable"},{"type":"function","name":"usdt","inputs":[],"outputs":[{"name":"","type":"address","internalType":"address"}],"stateMutability":"view"},{"type":"function","name":"withdrawPublicSell","inputs":[{"name":"amount","type":"uint256","internalType":"uint256"},{"name":"recipient","type":"address","internalType":"address"}],"outputs":[],"stateMutability":"nonpayable"},{"type":"event","name":"Approval","inputs":[{"name":"owner","type":"address","indexed":true,"internalType":"address"},{"name":"spender","type":"address","indexed":true,"internalType":"address"},{"name":"value","type":"uint256","indexed":false,"internalType":"uint256"}],"anonymous":false},{"type":"event","name":"EIP712DomainChanged","inputs":[],"anonymous":false},{"type":"event","name":"Transfer","inputs":[{"name":"from","type":"address","indexed":true,"internalType":"address"},{"name":"to","type":"address","indexed":true,"internalType":"address"},{"name":"value","type":"uint256","indexed":false,"internalType":"uint256"}],"anonymous":false},{"type":"event","name":"e_addShare","inputs":[{"name":"recipient","type":"address","indexed":false,"internalType":"address"},{"name":"leftamount","type":"uint256","indexed":false,"internalType":"uint256"},{"name":"metric","type":"uint120","indexed":false,"internalType":"uint120"},{"name":"chips","type":"uint8","indexed":false,"internalType":"uint8"},{"name":"index","type":"uint32","indexed":false,"internalType":"uint32"}],"anonymous":false},{"type":"event","name":"e_addauths","inputs":[{"name":"auths","type":"address","indexed":false,"internalType":"address"},{"name":"priv","type":"uint256","indexed":false,"internalType":"uint256"}],"anonymous":false},{"type":"event","name":"e_addreferral","inputs":[{"name":"users","type":"address","indexed":false,"internalType":"address"},{"name":"referral","type":"address","indexed":false,"internalType":"address"}],"anonymous":false},{"type":"event","name":"e_burnShare","inputs":[{"name":"index","type":"uint32","indexed":false,"internalType":"uint32"}],"anonymous":false},{"type":"event","name":"e_publicsell","inputs":[{"name":"usdtamount","type":"uint256","indexed":false,"internalType":"uint256"},{"name":"ttsamount","type":"uint256","indexed":false,"internalType":"uint256"}],"anonymous":false},{"type":"event","name":"e_rmauths","inputs":[{"name":"auths","type":"address","indexed":false,"internalType":"address"}],"anonymous":false},{"type":"event","name":"e_setdaoadmin","inputs":[{"name":"recipient","type":"address","indexed":false,"internalType":"address"}],"anonymous":false},{"type":"event","name":"e_setenv","inputs":[{"name":"normalgoodid","type":"uint256","indexed":false,"internalType":"uint256"},{"name":"valuegoodid","type":"uint256","indexed":false,"internalType":"uint256"},{"name":"marketcontract","type":"address","indexed":false,"internalType":"address"}],"anonymous":false},{"type":"event","name":"e_shareMint","inputs":[{"name":"mintamount","type":"uint128","indexed":false,"internalType":"uint128"},{"name":"index","type":"uint32","indexed":false,"internalType":"uint32"}],"anonymous":false},{"type":"event","name":"e_syncChainStake","inputs":[{"name":"chain","type":"uint32","indexed":false,"internalType":"uint32"},{"name":"poolasset","type":"uint128","indexed":false,"internalType":"uint128"},{"name":"proofstate","type":"uint256","indexed":false,"internalType":"T_BalanceUINT256"}],"anonymous":false},{"type":"event","name":"e_unstake","inputs":[{"name":"recipient","type":"address","indexed":false,"internalType":"address"},{"name":"proofvalue","type":"uint128","indexed":false,"internalType":"uint128"},{"name":"unstakestate","type":"uint256","indexed":false,"internalType":"T_BalanceUINT256"},{"name":"stakestate","type":"uint256","indexed":false,"internalType":"T_BalanceUINT256"}],"anonymous":false},{"type":"event","name":"e_updatepool","inputs":[{"name":"poolstate","type":"uint256","indexed":false,"internalType":"uint256"},{"name":"stakestate","type":"uint256","indexed":false,"internalType":"uint256"}],"anonymous":false},{"type":"error","name":"InvalidShortString","inputs":[]},{"type":"error","name":"StringTooLong","inputs":[{"name":"str","type":"string","internalType":"string"}]}],"bytecode":{"object":"0x610180604052601380546001600160801b031916652d79883d2000179055348015610028575f80fd5b506040516136e53803806136e583398101604081905261004791610273565b6040518060400160405280600c81526020016b2a2a29bbb0b8102a37b5b2b760a11b81525080604051806040016040528060018152602001603160f81b8152506040518060400160405280600c81526020016b2a2a29bbb0b8102a37b5b2b760a11b8152506040518060400160405280600381526020016254545360e81b81525081600390816100d79190610344565b5060046100e48282610344565b506100f4915083905060056101e0565b610120526101038160066101e0565b61014052815160208084019190912060e052815190820120610100524660a05261018f60e05161010051604080517f8b73c3c69bb8fe3d512ecc4cf759cc79239f7b179b0ffacaa9a75d522b39400f60208201529081019290925260608201524660808201523060a08201525f9060c00160405160208183030381529060405280519060200120905090565b60809081523060c0526001600160a01b0387166101605242901b92506101b3915050565b600b55601180546001600160a01b0319166001600160a01b03939093169290921790915560095550610456565b5f6020835110156101fb576101f483610212565b905061020c565b816102068482610344565b5060ff90505b92915050565b5f80829050601f81511115610245578260405163305a27a960e01b815260040161023c91906103fe565b60405180910390fd5b805161025082610433565b179392505050565b80516001600160a01b038116811461026e575f80fd5b919050565b5f805f60608486031215610285575f80fd5b61028e84610258565b925061029c60208501610258565b9150604084015190509250925092565b634e487b7160e01b5f52604160045260245ffd5b600181811c908216806102d457607f821691505b6020821081036102f257634e487b7160e01b5f52602260045260245ffd5b50919050565b601f82111561033f57805f5260205f20601f840160051c8101602085101561031d5750805b601f840160051c820191505b8181101561033c575f8155600101610329565b50505b505050565b81516001600160401b0381111561035d5761035d6102ac565b6103718161036b84546102c0565b846102f8565b6020601f8211600181146103a3575f831561038c5750848201515b5f19600385901b1c1916600184901b17845561033c565b5f84815260208120601f198516915b828110156103d257878501518255602094850194600190920191016103b2565b50848210156103ef57868401515f19600387901b60f8161c191681555b50505050600190811b01905550565b602081525f82518060208401528060208501604085015e5f604082850101526040601f19601f83011684010191505092915050565b805160208083015191908110156102f2575f1960209190910360031b1b16919050565b60805160a05160c05160e051610100516101205161014051610160516132266104bf5f395f81816103b8015281816109f30152611b2a01525f61163301525f61160801525f6126af01525f61268701525f6125e201525f61260c01525f61263601526132265ff3fe608060405234801561000f575f80fd5b50600436106102e3575f3560e01c80637bd3ca3511610187578063c3bb7fff116100dd578063dd62ed3e11610093578063eca93cce1161006e578063eca93cce14610758578063f6f9b80d1461076b578063fb9dba651461077e575f80fd5b8063dd62ed3e146106f3578063de5712d41461072b578063e7b43e7d14610745575f80fd5b8063cae97640116100c3578063cae97640146106c4578063cd993b11146106cd578063d505accf146106e0575f80fd5b8063c3bb7fff1461069e578063c67e6078146106b1575f80fd5b806395d89b411161013d578063a9059cbb11610118578063a9059cbb1461060d578063a985901a14610620578063b88e6d631461064b575f80fd5b806395d89b41146105df5780639dc29fac146105e7578063a457c2d7146105fa575f80fd5b8063845fcee41161016d578063845fcee41461059357806384b0196e1461059c57806394c3c333146105b7575f80fd5b80637bd3ca351461056d5780637ecebe0014610580575f80fd5b80633644e5151161023c578063542128dd116101f25780636c0deba1116101cd5780636c0deba1146104975780636f55aece146104aa57806370a0823114610545575f80fd5b8063542128dd14610468578063623059a51461047b57806369a5ac3214610484575f80fd5b80633b107e21116102225780633b107e211461042f5780633cba316b1461044257806345fda70714610455575f80fd5b80633644e51514610414578063395093511461041c575f80fd5b806318160ddd1161029c5780632f48ab7d116102775780632f48ab7d146103b357806330fd6b29146103f2578063313ce56714610405575f80fd5b806318160ddd1461036357806319f8d5b41461037557806323b872dd146103a0575f80fd5b8063095ea7b3116102cc578063095ea7b31461031a5780630a4273e61461033d5780630fffe72f14610350575f80fd5b806301bddf1b146102e757806306fdde03146102fc575b5f80fd5b6102fa6102f5366004612b1b565b610791565b005b610304610857565b6040516103119190612b7e565b60405180910390f35b61032d610328366004612ba4565b6108e7565b6040519015158152602001610311565b6102fa61034b366004612bce565b610900565b6102fa61035e366004612bfa565b610947565b6002545b604051908152602001610311565b610388610383366004612c11565b610b5c565b6040516001600160801b039091168152602001610311565b61032d6103ae366004612c2d565b610c8b565b6103da7f000000000000000000000000000000000000000000000000000000000000000081565b6040516001600160a01b039091168152602001610311565b610388610400366004612b1b565b610cae565b60405160068152602001610311565b61036761102c565b61032d61042a366004612ba4565b61103a565b6102fa61043d366004612c6b565b611078565b6102fa610450366004612c84565b611270565b601354610388906001600160801b031681565b6102fa610476366004612ba4565b6112dd565b61036760095481565b6102fa610492366004612c84565b61134c565b6102fa6104a5366004612c9f565b611384565b6105026104b8366004612cba565b600a6020525f9081526040902080546001909101546001600160a01b03909116906001600160801b03811690600160801b81046001600160781b031690600160f81b900460ff1684565b604080516001600160a01b0390951685526001600160801b0390931660208501526001600160781b039091169183019190915260ff166060820152608001610311565b610367610553366004612c84565b6001600160a01b03165f9081526020819052604090205490565b6102fa61057b366004612c11565b6113c9565b61036761058e366004612c84565b6115de565b610367600c5481565b6105a46115fb565b6040516103119796959493929190612cd3565b6103676105c5366004612c84565b6001600160a01b03165f9081526015602052604090205490565b610304611682565b6102fa6105f5366004612ba4565b611691565b61032d610608366004612ba4565b61169b565b61032d61061b366004612ba4565b611749565b6103da61062e366004612c84565b6001600160a01b039081165f908152601460205260409020541690565b61067e610659366004612c84565b6011546001600160a01b039182165f9081526014602052604090205490821692911690565b604080516001600160a01b03938416815292909116602083015201610311565b6102fa6106ac366004612b1b565b611756565b6102fa6106bf366004612cba565b61182f565b610367600b5481565b6102fa6106db366004612bce565b61192e565b6102fa6106ee366004612d77565b611971565b610367610701366004612de3565b6001600160a01b039182165f90815260016020908152604080832093909416825291909152205490565b60135461038890600160801b90046001600160801b031681565b6102fa610753366004612dff565b611ad2565b6102fa610766366004612de3565b611b99565b6102fa610779366004612e22565b611c36565b6102fa61078c366004612cba565b611cc4565b61079c600954611f01565b6107a4575f80fd5b335f90815260156020526040902054620186a514801561080b575063ffffffff82165f908152600e60205260409020600201546001600160a01b031633148061080b575063ffffffff82165f908152600e60205260409020600201546001600160a01b0316155b610813575f80fd5b63ffffffff82165f908152600e602052604090205461083b90608083901b611f1f565b611f1f565b63ffffffff9092165f908152600e602052604090209190915550565b60606003805461086690612e58565b80601f016020809104026020016040519081016040528092919081815260200182805461089290612e58565b80156108dd5780601f106108b4576101008083540402835291602001916108dd565b820191905f5260205f20905b8154815290600101906020018083116108c057829003601f168201915b5050505050905090565b5f336108f4818585611f57565b60019150505b92915050565b61090b600954611f01565b15610914575f80fd5b335f90815260156020526040902054620186a514610930575f80fd5b61094381836001600160801b031661207a565b5050565b610952600954611f01565b61095a575f80fd5b80601360108282829054906101000a90046001600160801b031661097e9190612e9e565b92506101000a8154816001600160801b0302191690836001600160801b0316021790555064746a528800601360109054906101000a90046001600160801b03166001600160801b031611156109d1575f80fd5b6040516323b872dd60e01b8152336004820152306024820152604481018290527f00000000000000000000000000000000000000000000000000000000000000006001600160a01b0316906323b872dd906064016020604051808303815f875af1158015610a41573d5f803e3d5ffd5b505050506040513d601f19601f82011682018060405250810190610a659190612ebd565b15610b59576013545f906428bed01600600160801b9091046001600160801b031611610ab257610a96600583612ef0565b610aa190603c612f03565b9050610aad33826121aa565b610b1d565b601354644bab827200600160801b9091046001600160801b031611610adc57610aa182600a612f03565b60135464746a528800600160801b9091046001600160801b031611610b1d57610b06600583612ef0565b610b11906028612f03565b9050610b1d33826121aa565b60408051838152602081018390527fcf0848d99e9b2ad96811072e657199bc9567c2cc9b614097727a852b27f5358d91015b60405180910390a1505b50565b335f90815260156020526040812054600114610b76575f80fd5b610b7e612267565b604080516001600160a01b038516602080830191909152338284015282518083038401815260609092019092528051910120600c546001600160801b031615610bfc57610bf7610bcd600c5490565b6001600160801b0316846001600160801b0316610be9600b5490565b6001600160801b031661233e565b610bfe565b5f5b600c54909250610c1d906001600160801b038416608085901b1761234f565b600c55600b54610c36906001600160801b03851661234f565b600b555f818152600d6020526040902080546001600160a01b0319163317815560010154610c7390608085901b6001600160801b0385161761234f565b5f918252600d60205260409091206001015592915050565b5f33610c98858285612375565b610ca3858585612405565b506001949350505050565b5f610cba600954611f01565b610cc2575f80fd5b335f90815260156020526040902054620186a5148015610d29575063ffffffff83165f908152600e60205260409020600201546001600160a01b0316331480610d29575063ffffffff83165f908152600e60205260409020600201546001600160a01b0316155b610d31575f80fd5b5f8363ffffffff165f03610e1f576001601260188282829054906101000a900463ffffffff16610d619190612f1a565b92506101000a81548163ffffffff021916908363ffffffff160217905550601260189054906101000a900463ffffffff169350610da3610bcd600c5460801c90565b600c54909150610dc2906001600160801b038316608084901b1761234f565b600c55600b54610ddb906001600160801b03851661234f565b600b5563ffffffff84165f908152600e602052604090206001600160801b038216608085901b17600182015560020180546001600160a01b03191633179055610fc4565b610e68610e2e600c5460801c90565b63ffffffff86165f908152600e60205260409020600101546001600160801b03919091169060801c6001600160801b0316610be9600c5490565b600c5463ffffffff86165f908152600e6020526040902060010154919350610ea4916108369085905b6001600160801b031660809190911b1790565b600c55600b5463ffffffff85165f908152600e6020526040812060010154610ed392916108369160801c610e91565b600b5563ffffffff84165f908152600e602052604090206001015460801c610efb9083612f36565b9150610f0c610bcd600c5460801c90565b600c54909150610f2b906001600160801b038316608084901b1761234f565b600c55600b54610f44906001600160801b03851661234f565b600b556001600160801b038116608084901b1763ffffffff85165f908152600e60205260409020600181019190915554610f8d906001600160801b038416608085901b1761234f565b63ffffffff85165f908152600e6020526040902090815560020154610fc4906001600160a01b03166001600160801b0384166121aa565b63ffffffff84165f818152600e60209081526040918290206001015482519384526001600160801b0386169184019190915282820152517f2dbd6c60950a71a3b42582ce495af627a70477170cea6ce5bbd4017f3e9308929181900360600190a15092915050565b5f6110356125d6565b905090565b335f8181526001602090815260408083206001600160a01b03871684529091528120549091906108f49082908690611073908790612f55565b611f57565b611083600954611f01565b61108b575f80fd5b5f61109c6040830160208401612c9f565b6013546110b291906001600160801b0316612f36565b6001600160801b0316101580156110dc57506011546001600160a01b0316336001600160a01b0316145b6110e4575f80fd5b6110f46040820160208301612c9f565b6013805467ffffffffffffffff92909216915f9061111c9084906001600160801b0316612f36565b82546001600160801b039182166101009390930a92830291909202199091161790555060125463ffffffff600160a01b909104165f908152600a6020526040902081906111698282612f7c565b5050601280546001919060149061118e908490600160a01b900463ffffffff16612f1a565b92506101000a81548163ffffffff021916908363ffffffff1602179055507f259b626a3ac57abbad46c244a9bc2a13c0b530c618e9654be9351bd104cffcae815f0160208101906111df9190612c84565b6111ef6040840160208501612c9f565b6111ff6060850160408601613063565b61120f608086016060870161307e565b601254604080516001600160a01b0390961686526001600160801b0390941660208601526001600160781b039092169284019290925260ff9091166060830152600160a01b900463ffffffff16608082015260a0015b60405180910390a150565b6011546001600160a01b0316336001600160a01b03161461128f575f80fd5b601180546001600160a01b0319166001600160a01b0383169081179091556040519081527f853baecd5c22fcf8a4d994474a066771c51cfe6022b046e92a09874610cd128190602001611265565b6011546001600160a01b0316336001600160a01b0316146112fc575f80fd5b6001600160a01b0382165f81815260156020908152604091829020849055815192835282018390527f967d50df84a5ebb45902fa277d5c3b0bc6403497c9fd6da2ecbd9ed420038f149101610b4f565b6011546001600160a01b0316336001600160a01b03161461136b575f80fd5b6001600160a01b03165f90815260156020526040812055565b61138f600954611f01565b15611398575f80fd5b335f908152601560205260409020546005146113b2575f80fd5b600c546113c390608083901b61234f565b600c5550565b335f908152601560205260409020546001146113e3575f80fd5b6113eb612267565b604080516001600160a01b0384166020808301919091523382840152825180830384018152606090920183528151918101919091205f818152600d909252918120600101549091829160801c6001600160801b0385161061147a575f818152600d6020526040812060018101805482546001600160a01b03191690925591909155608081901c945091506114d4565b5f818152600d602052604090206001015461149590856126ff565b5f828152600d60205260409020600101549092506114c2906001600160801b038416608087901b17611f1f565b5f828152600d60205260409020600101555b6114f5846114ef6114e7600c5460801c90565b600b54610e91565b90612721565b600b5490935061150e906001600160801b038616611f1f565b600b55600c5461152d906001600160801b038416608086901b17611f1f565b600c5561153a8284612f36565b92506001600160801b0383161561155e5761155e85846001600160801b03166121aa565b7fcd22d1cb8932396ecce835a81db9f8f268ec6f820ba46a7d202f275064de27c485856001600160801b038616608086901b175f858152600d60209081526040918290206001015482516001600160a01b0390961686526001600160801b0390941690850152830152606082015260800160405180910390a15050505050565b6001600160a01b0381165f908152600760205260408120546108fa565b5f6060808280808361162e7f00000000000000000000000000000000000000000000000000000000000000006005612749565b6116597f00000000000000000000000000000000000000000000000000000000000000006006612749565b604080515f80825260208201909252600f60f81b9b939a50919850469750309650945092509050565b60606004805461086690612e58565b610943828261207a565b335f8181526001602090815260408083206001600160a01b03871684529091528120549091908381101561173c5760405162461bcd60e51b815260206004820152602560248201527f45524332303a2064656372656173656420616c6c6f77616e63652062656c6f7760448201527f207a65726f00000000000000000000000000000000000000000000000000000060648201526084015b60405180910390fd5b610ca38286868403611f57565b5f336108f4818585612405565b611761600954611f01565b611769575f80fd5b335f90815260156020526040902054620186a51480156117d0575063ffffffff82165f908152600e60205260409020600201546001600160a01b03163314806117d0575063ffffffff82165f908152600e60205260409020600201546001600160a01b0316155b6117d8575f80fd5b63ffffffff82165f908152600e60205260409020546117fb90608083901b61234f565b63ffffffff83165f908152600e602090815260408083208490553383529082905290205460809190911c1115610943575f80fd5b61183a600954611f01565b611842575f80fd5b6011546001600160a01b0316336001600160a01b031614611861575f80fd5b63ffffffff81165f908152600a60205260408120600101546013805467ffffffffffffffff9092169290916118a09084906001600160801b0316612e9e565b92506101000a8154816001600160801b0302191690836001600160801b031602179055507f568d364b674966bdb889933148a94e885581320f54b5d65d04bda235eea7fe48816040516118ff919063ffffffff91909116815260200190565b60405180910390a163ffffffff165f908152600a6020526040812080546001600160a01b031916815560010155565b611939600954611f01565b15611942575f80fd5b335f90815260156020526040902054620186a51461195e575f80fd5b61094381836001600160801b03166121aa565b834211156119c15760405162461bcd60e51b815260206004820152601d60248201527f45524332305065726d69743a206578706972656420646561646c696e650000006044820152606401611733565b5f7f6e71edae12b1b97f4d1f60370fef10105fa2faae0126114a169c64845d6126c98888886119ef8c6127f2565b6040805160208101969096526001600160a01b0394851690860152929091166060840152608083015260a082015260c0810186905260e0016040516020818303038152906040528051906020012090505f611a4982612819565b90505f611a5882878787612845565b9050896001600160a01b0316816001600160a01b031614611abb5760405162461bcd60e51b815260206004820152601e60248201527f45524332305065726d69743a20696e76616c6964207369676e617475726500006044820152606401611733565b611ac68a8a8a611f57565b50505050505050505050565b611add600954611f01565b611ae5575f80fd5b6011546001600160a01b0316336001600160a01b031614611b04575f80fd5b60405163a9059cbb60e01b81526001600160a01b038281166004830152602482018490527f0000000000000000000000000000000000000000000000000000000000000000169063a9059cbb906044016020604051808303815f875af1158015611b70573d5f803e3d5ffd5b505050506040513d601f19601f82011682018060405250810190611b949190612ebd565b505050565b335f908152601560205260409020546001148015611bce57506001600160a01b038281165f9081526014602052604090205416155b15610943576001600160a01b038281165f8181526014602090815260409182902080546001600160a01b031916948616948517905581519283528201929092527f0b5e322b4b5330962013e8d6519462c133d50320ee476828060995c1acadef629101610b4f565b6011546001600160a01b0316336001600160a01b031614611c55575f80fd5b600f8390556010829055601280546001600160a01b0319166001600160a01b0383169081179091556040805185815260208101859052908101919091527f2c13ec80363c5c6acca850e78e87c50c5f15ae0398a319963393eeb01c11045d9060600160405180910390a1505050565b611ccf600954611f01565b611cd7575f80fd5b601254600f5460105463ffffffff84165f908152600a60205260409020600101546001600160a01b039093169263a7fed925929190611d2790600160801b90046001600160781b0316600261317c565b611d3590600160801b612f03565b611d4090600a612f55565b6040517fffffffff0000000000000000000000000000000000000000000000000000000060e086901b168152600481019390935260248301919091526044820152606401602060405180830381865afa158015611d9f573d5f803e3d5ffd5b505050506040513d601f19601f82011682018060405250810190611dc39190612ebd565b8015611deb575063ffffffff81165f908152600a60205260409020546001600160a01b031633145b611df3575f80fd5b63ffffffff81165f908152600a6020526040812060010154611e289060ff600160f81b820416906001600160801b0316613190565b63ffffffff83165f908152600a6020526040812060010180549293508392909190611e5d9084906001600160801b0316612f36565b92506101000a8154816001600160801b0302191690836001600160801b031602179055506001600a5f8463ffffffff1663ffffffff1681526020019081526020015f2060010160108282829054906101000a90046001600160781b0316611ec491906131bd565b92506101000a8154816001600160781b0302191690836001600160781b03160217905550610943611ef23390565b826001600160801b03166121aa565b5f60ff82901c60018114611f15575f611f18565b60015b9392505050565b5f608082811d9084901d036001600160801b0383811690851603611f4e611f458361286b565b610e918361286b565b95945050505050565b6001600160a01b038316611fb95760405162461bcd60e51b8152602060048201526024808201527f45524332303a20617070726f76652066726f6d20746865207a65726f206164646044820152637265737360e01b6064820152608401611733565b6001600160a01b03821661201a5760405162461bcd60e51b815260206004820152602260248201527f45524332303a20617070726f766520746f20746865207a65726f206164647265604482015261737360f01b6064820152608401611733565b6001600160a01b038381165f8181526001602090815260408083209487168084529482529182902085905590518481527f8c5be1e5ebec7d5bd14f71427d1e84f3dd0314c0f7b2291e5b200ac8c7c3b925910160405180910390a3505050565b6001600160a01b0382166120da5760405162461bcd60e51b815260206004820152602160248201527f45524332303a206275726e2066726f6d20746865207a65726f206164647265736044820152607360f81b6064820152608401611733565b6001600160a01b0382165f908152602081905260409020548181101561214d5760405162461bcd60e51b815260206004820152602260248201527f45524332303a206275726e20616d6f756e7420657863656564732062616c616e604482015261636560f01b6064820152608401611733565b6001600160a01b0383165f818152602081815260408083208686039055600280548790039055518581529192917fddf252ad1be2c89b69c2b068fc378daa952ba7f163c4a11628f55a4df523b3ef910160405180910390a3505050565b6001600160a01b0382166122005760405162461bcd60e51b815260206004820152601f60248201527f45524332303a206d696e7420746f20746865207a65726f2061646472657373006044820152606401611733565b8060025f8282546122119190612f55565b90915550506001600160a01b0382165f81815260208181526040808320805486019055518481527fddf252ad1be2c89b69c2b068fc378daa952ba7f163c4a11628f55a4df523b3ef910160405180910390a35050565b42612274600b5460801c90565b6122819062015180612e9e565b6001600160801b0316101561233c57600b546122b090720151800000000000000000000000000000000061234f565b600b555f652d79883d20006122c460025490565b116122d35763a34ce6cb6122e9565b61477c6122df60025490565b6122e99190612ef0565b600c549091506122fd90608083901b61234f565b600c819055600b546040517f8288d0d3063eba413cf9eea42df98c32074b7b6d554adf408bdb0546e468c4049261126592908252602082015260400190565b565b918102915f818404611f4e8161286b565b5f608082811d9084901d016001600160801b0383811690851601611f4e611f458361286b565b6001600160a01b038381165f908152600160209081526040808320938616835292905220545f1981146123ff57818110156123f25760405162461bcd60e51b815260206004820152601d60248201527f45524332303a20696e73756666696369656e7420616c6c6f77616e63650000006044820152606401611733565b6123ff8484848403611f57565b50505050565b6001600160a01b0383166124815760405162461bcd60e51b815260206004820152602560248201527f45524332303a207472616e736665722066726f6d20746865207a65726f20616460448201527f64726573730000000000000000000000000000000000000000000000000000006064820152608401611733565b6001600160a01b0382166124e35760405162461bcd60e51b815260206004820152602360248201527f45524332303a207472616e7366657220746f20746865207a65726f206164647260448201526265737360e81b6064820152608401611733565b6001600160a01b0383165f90815260208190526040902054818110156125715760405162461bcd60e51b815260206004820152602660248201527f45524332303a207472616e7366657220616d6f756e742065786365656473206260448201527f616c616e636500000000000000000000000000000000000000000000000000006064820152608401611733565b6001600160a01b038481165f81815260208181526040808320878703905593871680835291849020805487019055925185815290927fddf252ad1be2c89b69c2b068fc378daa952ba7f163c4a11628f55a4df523b3ef910160405180910390a36123ff565b5f306001600160a01b037f00000000000000000000000000000000000000000000000000000000000000001614801561262e57507f000000000000000000000000000000000000000000000000000000000000000046145b1561265857507f000000000000000000000000000000000000000000000000000000000000000090565b611035604080517f8b73c3c69bb8fe3d512ecc4cf759cc79239f7b179b0ffacaa9a75d522b39400f60208201527f0000000000000000000000000000000000000000000000000000000000000000918101919091527f000000000000000000000000000000000000000000000000000000000000000060608201524660808201523060a08201525f9060c00160405160208183030381529060405280519060200120905090565b5f611f18836001600160801b0316836001600160801b0316610be98660801c90565b5f611f1861272f8460801c90565b6001600160801b0316836001600160801b0316610be98690565b606060ff83146127635761275c83612885565b90506108fa565b81805461276f90612e58565b80601f016020809104026020016040519081016040528092919081815260200182805461279b90612e58565b80156127e65780601f106127bd576101008083540402835291602001916127e6565b820191905f5260205f20905b8154815290600101906020018083116127c957829003601f168201915b505050505090506108fa565b6001600160a01b0381165f9081526007602052604090208054600181018255905b50919050565b5f6108fa6128256125d6565b8360405161190160f01b8152600281019290925260228201526042902090565b5f805f612854878787876128c2565b915091506128618161297f565b5095945050505050565b5f6001600160801b03821115612881575f6108fa565b5090565b60605f61289183612ac8565b6040805160208082528183019092529192505f91906020820181803683375050509182525060208101929092525090565b5f807f7fffffffffffffffffffffffffffffff5d576e7357a4501ddfe92f46681b20a08311156128f757505f90506003612976565b604080515f8082526020820180845289905260ff881692820192909252606081018690526080810185905260019060a0016020604051602081039080840390855afa158015612948573d5f803e3d5ffd5b5050604051601f1901519150506001600160a01b038116612970575f60019250925050612976565b91505f90505b94509492505050565b5f816004811115612992576129926131dc565b0361299a5750565b60018160048111156129ae576129ae6131dc565b036129fb5760405162461bcd60e51b815260206004820152601860248201527f45434453413a20696e76616c6964207369676e617475726500000000000000006044820152606401611733565b6002816004811115612a0f57612a0f6131dc565b03612a5c5760405162461bcd60e51b815260206004820152601f60248201527f45434453413a20696e76616c6964207369676e6174757265206c656e677468006044820152606401611733565b6003816004811115612a7057612a706131dc565b03610b595760405162461bcd60e51b815260206004820152602260248201527f45434453413a20696e76616c6964207369676e6174757265202773272076616c604482015261756560f01b6064820152608401611733565b5f60ff8216601f8111156108fa57604051632cd44ac360e21b815260040160405180910390fd5b803563ffffffff81168114612b02575f80fd5b919050565b6001600160801b0381168114610b59575f80fd5b5f8060408385031215612b2c575f80fd5b612b3583612aef565b91506020830135612b4581612b07565b809150509250929050565b5f81518084528060208401602086015e5f602082860101526020601f19601f83011685010191505092915050565b602081525f611f186020830184612b50565b6001600160a01b0381168114610b59575f80fd5b5f8060408385031215612bb5575f80fd5b8235612bc081612b90565b946020939093013593505050565b5f8060408385031215612bdf575f80fd5b8235612bea81612b07565b91506020830135612b4581612b90565b5f60208284031215612c0a575f80fd5b5035919050565b5f8060408385031215612c22575f80fd5b8235612b3581612b90565b5f805f60608486031215612c3f575f80fd5b8335612c4a81612b90565b92506020840135612c5a81612b90565b929592945050506040919091013590565b5f6080828403128015612c7c575f80fd5b509092915050565b5f60208284031215612c94575f80fd5b8135611f1881612b90565b5f60208284031215612caf575f80fd5b8135611f1881612b07565b5f60208284031215612cca575f80fd5b611f1882612aef565b60ff60f81b8816815260e060208201525f612cf160e0830189612b50565b8281036040840152612d038189612b50565b606084018890526001600160a01b038716608085015260a0840186905283810360c0850152845180825260208087019350909101905f5b81811015612d58578351835260209384019390920191600101612d3a565b50909b9a5050505050505050505050565b60ff81168114610b59575f80fd5b5f805f805f805f60e0888a031215612d8d575f80fd5b8735612d9881612b90565b96506020880135612da881612b90565b955060408801359450606088013593506080880135612dc681612d69565b9699959850939692959460a0840135945060c09093013592915050565b5f8060408385031215612df4575f80fd5b8235612bea81612b90565b5f8060408385031215612e10575f80fd5b823591506020830135612b4581612b90565b5f805f60608486031215612e34575f80fd5b83359250602084013591506040840135612e4d81612b90565b809150509250925092565b600181811c90821680612e6c57607f821691505b60208210810361281357634e487b7160e01b5f52602260045260245ffd5b634e487b7160e01b5f52601160045260245ffd5b6001600160801b0381811683821601908111156108fa576108fa612e8a565b5f60208284031215612ecd575f80fd5b81518015158114611f18575f80fd5b634e487b7160e01b5f52601260045260245ffd5b5f82612efe57612efe612edc565b500490565b80820281158282048414176108fa576108fa612e8a565b63ffffffff81811683821601908111156108fa576108fa612e8a565b6001600160801b0382811682821603908111156108fa576108fa612e8a565b808201808211156108fa576108fa612e8a565b6001600160781b0381168114610b59575f80fd5b8135612f8781612b90565b6001600160a01b0381166001600160a01b031983541617825550600181016020830135612fb381612b07565b81546040850135612fc381612f68565b7effffffffffffffffffffffffffffff000000000000000000000000000000008160801b166001600160801b03841660ff60f81b8416171784555050505f606084013561300f81612d69565b82547effffffffffffffffffffffffffffffffffffffffffffffffffffffffffffff1660f89190911b7fff000000000000000000000000000000000000000000000000000000000000001617909155505050565b5f60208284031215613073575f80fd5b8135611f1881612f68565b5f6020828403121561308e575f80fd5b8135611f1881612d69565b6001815b60018411156130d4578085048111156130b8576130b8612e8a565b60018416156130c657908102905b60019390931c92800261309d565b935093915050565b5f826130ea575060016108fa565b816130f657505f6108fa565b816001811461310c576002811461311657613132565b60019150506108fa565b60ff84111561312757613127612e8a565b50506001821b6108fa565b5060208310610133831016604e8410600b8410161715613155575081810a6108fa565b6131615f198484613099565b805f190482111561317457613174612e8a565b029392505050565b5f611f186001600160781b038416836130dc565b5f6001600160801b038316806131a8576131a8612edc565b806001600160801b0384160491505092915050565b6001600160781b0381811683821601908111156108fa576108fa612e8a565b634e487b7160e01b5f52602160045260245ffdfea26469706673582212207e0f895d7ba4b63e2a53f5857d32c3501c14b4261e09f8c9d45aa70bcd9fa9df64736f6c634300081a0033","linkReferences":{}},"methodIdentifiers":{"DOMAIN_SEPARATOR()":"3644e515","addShare((address,uint128,uint120,uint8))":"3b107e21","addauths(address,uint256)":"542128dd","addreferral(address,address)":"eca93cce","allowance(address,address)":"dd62ed3e","approve(address,uint256)":"095ea7b3","balanceOf(address)":"70a08231","burn(address,uint256)":"9dc29fac","burnShare(uint32)":"c67e6078","chain_deposit(uint32,uint128)":"01bddf1b","chain_withdraw(uint32,uint128)":"c3bb7fff","changeDAOAdmin(address)":"3cba316b","decimals()":"313ce567","decreaseAllowance(address,uint256)":"a457c2d7","eip712Domain()":"84b0196e","getreferral(address)":"a985901a","getreferralanddaoadmin(address)":"b88e6d63","increaseAllowance(address,uint256)":"39509351","isauths(address)":"94c3c333","left_share()":"45fda707","name()":"06fdde03","nonces(address)":"7ecebe00","permit(address,address,uint256,uint256,uint8,bytes32,bytes32)":"d505accf","poolstate()":"845fcee4","publicSell(uint256)":"0fffe72f","publicsell()":"de5712d4","rmauths(address)":"69a5ac32","setEnv(uint256,uint256,address)":"f6f9b80d","shareMint(uint32)":"fb9dba65","shares(uint32)":"6f55aece","stake(address,uint128)":"19f8d5b4","stakestate()":"cae97640","subchainDeposit(uint128,address)":"cd993b11","subchainWithdraw(uint128,address)":"0a4273e6","symbol()":"95d89b41","syncChainStake(uint32,uint128)":"30fd6b29","syncPoolAsset(uint128)":"6c0deba1","totalSupply()":"18160ddd","transfer(address,uint256)":"a9059cbb","transferFrom(address,address,uint256)":"23b872dd","ttstokenconfig()":"623059a5","unstake(address,uint128)":"7bd3ca35","usdt()":"2f48ab7d","withdrawPublicSell(uint256,address)":"e7b43e7d"},"id":58}