{"abi":[{"type":"constructor","inputs":[{"name":"_marketor","type":"address","internalType":"address"}],"stateMutability":"nonpayable"},{"type":"function","name":"addLimitOrder","inputs":[{"name":"_orders","type":"tuple[]","internalType":"struct I_TTSwap_LimitOrderMaker.S_orderDetails[]","components":[{"name":"timestamp","type":"uint96","internalType":"uint96"},{"name":"sender","type":"address","internalType":"address"},{"name":"fromerc20","type":"address","internalType":"address"},{"name":"toerc20","type":"address","internalType":"address"},{"name":"amount","type":"uint256","internalType":"uint256"}]}],"outputs":[],"stateMutability":"nonpayable"},{"type":"function","name":"addauths","inputs":[{"name":"_marketor","type":"address","internalType":"address"},{"name":"_auths","type":"uint256","internalType":"uint256"}],"outputs":[],"stateMutability":"nonpayable"},{"type":"function","name":"addmaxslot","inputs":[{"name":"_maxslot","type":"uint256","internalType":"uint256"}],"outputs":[],"stateMutability":"nonpayable"},{"type":"function","name":"auths","inputs":[{"name":"","type":"address","internalType":"address"}],"outputs":[{"name":"","type":"uint256","internalType":"uint256"}],"stateMutability":"view"},{"type":"function","name":"changemarketcreator","inputs":[{"name":"_newmarketor","type":"address","internalType":"address"}],"outputs":[],"stateMutability":"nonpayable"},{"type":"function","name":"cleandeadorder","inputs":[{"name":"ids","type":"uint256[]","internalType":"uint256[]"},{"name":"smallorder","type":"bool","internalType":"bool"}],"outputs":[],"stateMutability":"nonpayable"},{"type":"function","name":"marketcreator","inputs":[],"outputs":[{"name":"","type":"address","internalType":"address"}],"stateMutability":"view"},{"type":"function","name":"maxfreeremain","inputs":[],"outputs":[{"name":"","type":"uint96","internalType":"uint96"}],"stateMutability":"view"},{"type":"function","name":"maxslot","inputs":[],"outputs":[{"name":"","type":"uint256","internalType":"uint256"}],"stateMutability":"view"},{"type":"function","name":"orderpointer","inputs":[],"outputs":[{"name":"","type":"uint256","internalType":"uint256"}],"stateMutability":"view"},{"type":"function","name":"orders","inputs":[{"name":"","type":"uint256","internalType":"uint256"}],"outputs":[{"name":"timestamp","type":"uint96","internalType":"uint96"},{"name":"sender","type":"address","internalType":"address"},{"name":"fromerc20","type":"address","internalType":"address"},{"name":"toerc20","type":"address","internalType":"address"},{"name":"amount","type":"uint256","internalType":"uint256"}],"stateMutability":"view"},{"type":"function","name":"queryLimitOrder","inputs":[{"name":"_ordersids","type":"uint256[]","internalType":"uint256[]"}],"outputs":[{"name":"","type":"tuple[]","internalType":"struct I_TTSwap_LimitOrderMaker.S_orderDetails[]","components":[{"name":"timestamp","type":"uint96","internalType":"uint96"},{"name":"sender","type":"address","internalType":"address"},{"name":"fromerc20","type":"address","internalType":"address"},{"name":"toerc20","type":"address","internalType":"address"},{"name":"amount","type":"uint256","internalType":"uint256"}]}],"stateMutability":"view"},{"type":"function","name":"queryOrderStatus","inputs":[{"name":"_ordersid","type":"uint256","internalType":"uint256"}],"outputs":[{"name":"","type":"bool","internalType":"bool"}],"stateMutability":"view"},{"type":"function","name":"queryOrdersStatus","inputs":[{"name":"_ordersids","type":"uint256[]","internalType":"uint256[]"}],"outputs":[{"name":"","type":"bool[]","internalType":"bool[]"}],"stateMutability":"view"},{"type":"function","name":"removeLimitOrder","inputs":[{"name":"orderid","type":"uint256","internalType":"uint256"}],"outputs":[],"stateMutability":"nonpayable"},{"type":"function","name":"removeauths","inputs":[{"name":"_marketor","type":"address","internalType":"address"}],"outputs":[],"stateMutability":"nonpayable"},{"type":"function","name":"setMaxfreeRemain","inputs":[{"name":"times","type":"uint96","internalType":"uint96"}],"outputs":[],"stateMutability":"nonpayable"},{"type":"function","name":"takeBatchLimitOrdersAMM","inputs":[{"name":"orderids","type":"uint256[]","internalType":"uint256[]"},{"name":"_tolerance","type":"uint96","internalType":"uint96"},{"name":"_takecontract","type":"address","internalType":"contract I_TTSwap_LimitOrderTaker"},{"name":"_takecaller","type":"address","internalType":"address"},{"name":"_isall","type":"bool","internalType":"bool"}],"outputs":[{"name":"","type":"bool[]","internalType":"bool[]"}],"stateMutability":"nonpayable"},{"type":"function","name":"takeLimitOrderAMM","inputs":[{"name":"orderid","type":"uint256","internalType":"uint256"},{"name":"_tolerance","type":"uint96","internalType":"uint96"},{"name":"_takecontract","type":"address","internalType":"contract I_TTSwap_LimitOrderTaker"},{"name":"_takecaller","type":"address","internalType":"address"}],"outputs":[{"name":"_isSuccess","type":"bool","internalType":"bool"}],"stateMutability":"nonpayable"},{"type":"function","name":"takeLimitOrderChips","inputs":[{"name":"_orderChips","type":"tuple[]","internalType":"struct I_TTSwap_LimitOrderMaker.S_OrderChip[]","components":[{"name":"orderid","type":"uint256","internalType":"uint256"},{"name":"takeamount","type":"uint128","internalType":"uint128"},{"name":"transdata","type":"bytes","internalType":"bytes"}]}],"outputs":[],"stateMutability":"nonpayable"},{"type":"function","name":"takeLimitOrderNormal","inputs":[{"name":"orderids","type":"tuple[]","internalType":"struct I_TTSwap_LimitOrderMaker.S_TakeParams[]","components":[{"name":"orderid","type":"uint256","internalType":"uint256"},{"name":"transdata","type":"bytes","internalType":"bytes"}]}],"outputs":[],"stateMutability":"nonpayable"},{"type":"function","name":"updateLimitOrder","inputs":[{"name":"orderid","type":"uint256","internalType":"uint256"},{"name":"_order","type":"tuple","internalType":"struct I_TTSwap_LimitOrderMaker.S_orderDetails","components":[{"name":"timestamp","type":"uint96","internalType":"uint96"},{"name":"sender","type":"address","internalType":"address"},{"name":"fromerc20","type":"address","internalType":"address"},{"name":"toerc20","type":"address","internalType":"address"},{"name":"amount","type":"uint256","internalType":"uint256"}]}],"outputs":[],"stateMutability":"nonpayable"},{"type":"event","name":"e_addLimitOrder","inputs":[{"name":"_orderid","type":"uint256","indexed":false,"internalType":"uint256"},{"name":"_sender","type":"address","indexed":false,"internalType":"address"},{"name":"_fromerc20","type":"address","indexed":false,"internalType":"address"},{"name":"_toerc20","type":"address","indexed":false,"internalType":"address"},{"name":"_amount","type":"uint256","indexed":false,"internalType":"uint256"}],"anonymous":false},{"type":"event","name":"e_addauths","inputs":[{"name":"_marketor","type":"address","indexed":false,"internalType":"address"},{"name":"_auths","type":"uint256","indexed":false,"internalType":"uint256"}],"anonymous":false},{"type":"event","name":"e_addmaxslot","inputs":[{"name":"","type":"uint256","indexed":false,"internalType":"uint256"}],"anonymous":false},{"type":"event","name":"e_changemarketcreator","inputs":[{"name":"_newmarketcreator","type":"address","indexed":false,"internalType":"address"}],"anonymous":false},{"type":"event","name":"e_cleandeadorder","inputs":[{"name":"_orderid","type":"uint256","indexed":false,"internalType":"uint256"},{"name":"_feeamount","type":"uint256","indexed":false,"internalType":"uint256"},{"name":"_reciver","type":"address","indexed":false,"internalType":"address"}],"anonymous":false},{"type":"event","name":"e_cleandeadorders","inputs":[{"name":"_orderids","type":"uint256[]","indexed":false,"internalType":"uint256[]"}],"anonymous":false},{"type":"event","name":"e_deploy","inputs":[{"name":"marketcreator","type":"address","indexed":false,"internalType":"address"},{"name":"maxfreeremain","type":"uint256","indexed":false,"internalType":"uint256"},{"name":"","type":"uint256","indexed":false,"internalType":"uint256"}],"anonymous":false},{"type":"event","name":"e_removeLimitOrder","inputs":[{"name":"_orderid","type":"uint256","indexed":false,"internalType":"uint256"}],"anonymous":false},{"type":"event","name":"e_removeauths","inputs":[{"name":"_marketor","type":"address","indexed":false,"internalType":"address"}],"anonymous":false},{"type":"event","name":"e_setmaxfreeremain","inputs":[{"name":"_maxfreeremain","type":"uint96","indexed":false,"internalType":"uint96"}],"anonymous":false},{"type":"event","name":"e_takeOrder","inputs":[{"name":"_orderid","type":"uint256","indexed":false,"internalType":"uint256"}],"anonymous":false},{"type":"event","name":"e_takeOrderChips","inputs":[{"name":"_orderid","type":"uint256","indexed":false,"internalType":"uint256"},{"name":"amount","type":"uint256","indexed":false,"internalType":"uint256"}],"anonymous":false},{"type":"event","name":"e_updateLimitOrder","inputs":[{"name":"_orderid","type":"uint256","indexed":false,"internalType":"uint256"},{"name":"_fromerc20","type":"address","indexed":false,"internalType":"address"},{"name":"_toerc20","type":"address","indexed":false,"internalType":"address"},{"name":"_amount","type":"uint256","indexed":false,"internalType":"uint256"}],"anonymous":false},{"type":"error","name":"ERC20TransferFailed","inputs":[]},{"type":"error","name":"NativeTransferFailed","inputs":[]},{"type":"error","name":"lessAmountError","inputs":[{"name":"_orderid","type":"uint256","internalType":"uint256"}]}],"bytecode":{"object":"0x6080604052348015600e575f80fd5b506040516133bd3803806133bd833981016040819052602b91609d565b62268d6f60a41b6001600160a01b038216908117600281905560015f81905560408051938452600160a01b9092046001600160601b03166020840152908201527f808babd30ff81f5b4adccf3f670c96e578e38ceabbf694a13475ae37de0043ce9060600160405180910390a15060c8565b5f6020828403121560ac575f80fd5b81516001600160a01b038116811460c1575f80fd5b9392505050565b6132e8806100d55f395ff3fe608060405234801561000f575f80fd5b5060043610610179575f3560e01c80635be7b788116100d2578063a06ad0e811610088578063dcda429d11610063578063dcda429d146103c8578063e2c2f283146103db578063f66d6485146103fb575f80fd5b8063a06ad0e8146102ee578063a85c38ef14610301578063ba57267214610396575f80fd5b80636eaa0cba116100b85780636eaa0cba146102c05780638f6390ca146102d35780639dbbca5f146102e6575f80fd5b80635be7b7881461028e57806364e72dbd146102a1575f80fd5b80633d99517311610132578063542128dd1161010d578063542128dd14610255578063564164511461026857806358088c121461027b575f80fd5b80633d995173146101f7578063499591fe146102225780634a849e3514610235575f80fd5b80631b952b3b116101625780631b952b3b146101ae57806320ced07c146101d15780633ce29b7e146101e4575f80fd5b806315b7e2971461017d578063160d04f214610192575b5f80fd5b61019061018b366004612683565b61040e565b005b61019b60015481565b6040519081526020015b60405180910390f35b6101c16101bc3660046126cc565b61048c565b60405190151581526020016101a5565b6101c16101df366004612683565b61072f565b6101906101f236600461286a565b610753565b60025461020a906001600160a01b031681565b6040516001600160a01b0390911681526020016101a5565b61019061023036600461297c565b610d1a565b6102486102433660046129fa565b610d9e565b6040516101a59190612a34565b610190610263366004612a78565b610e50565b610190610276366004612b30565b610ebe565b610190610289366004612683565b611081565b61024861029c366004612b68565b6110db565b61019b6102af366004612beb565b60056020525f908152604090205481565b6101906102ce366004612c06565b611754565b6101906102e1366004612c55565b611afa565b61019b5f5481565b6101906102fc366004612beb565b611cd8565b61035561030f366004612683565b60046020525f908152604090208054600182015460028301546003909301546001600160601b038316936001600160a01b03600160601b90940484169392831692169085565b604080516001600160601b0390961686526001600160a01b03948516602087015292841692850192909252919091166060830152608082015260a0016101a5565b6002546103b090600160a01b90046001600160601b031681565b6040516001600160601b0390911681526020016101a5565b6101906103d6366004612d45565b611d3c565b6103ee6103e93660046129fa565b611f0a565b6040516101a59190612de0565b610190610409366004612beb565b6121b9565b5f81815260046020526040902054600160601b90046001600160a01b03163314610436575f80fd5b600881901c5f9081526003602052604090208054600160ff84161b191690556040518181527f819a71a589292d274fb52415373f4cb49b577ec0e842dfa039d992dc38d3053b906020015b60405180910390a150565b604080516080810182525f80825260208201819052918101829052606081018290525f86815260046020526040812080546002909101546104e1916001600160a01b0391821691600160601b90910416612243565b604080516080810182525f8a81526004602081815284832060018101546001600160a01b0390811686526002820154811683870152600382015486880152938e90529082905254600160601b900482166060840152925163748226db60e11b81529195509293509187169163e9044db6916105629186918b918a9101612e6b565b6020604051808303815f875af115801561057e573d5f803e3d5ffd5b505050506040513d601f19601f820116820180604052508101906105a29190612edb565b505f87815260046020526040812080546002909101546105d6916001600160a01b0391821691600160601b90910416612243565b5f898152600460205260409020600301549091506001600160801b03166105fd8383612f0a565b10156106245760405163424b2c2f60e01b8152600481018990526024015b60405180910390fd5b5f88815260046020526040902080546003909101546106cf91600160601b90046001600160a01b031690889060801c6001600160801b03166040518060400160405280600160ff16815260200160405180604001604052806002815260200161060b60f31b81525081525060405160200161069f9190612f4b565b60408051601f198184030181529181525f8e8152600460205220600101546001600160a01b0316939291906122d5565b600888901c5f9081526003602052604090208054600160ff8b161b191690556040518881527f40e0d127017b9c9ff8852374b313d997f022e0c42e857ed394394b45214092339060200160405180910390a1506001979650505050505050565b600881901c5f90815260036020526040812054600160ff84161b1615155b92915050565b5f5b8151811015610d165761078e82828151811061077357610773612f72565b60200260200101515f015160036124f690919063ffffffff16565b15610d0e576107cd60045f8484815181106107ab576107ab612f72565b60200260200101515f015181526020019081526020015f206003015460801c90565b6001600160801b03168282815181106107e8576107e8612f72565b6020026020010151602001516001600160801b031610156108265781818151811061081557610815612f72565b60200260200101516020015161083e565b61083e60045f8484815181106107ab576107ab612f72565b82828151811061085057610850612f72565b6020026020010151602001906001600160801b031690816001600160801b03168152505061097960045f84848151811061088c5761088c612f72565b60200260200101515f015181526020019081526020015f205f01600c9054906101000a90046001600160a01b0316338484815181106108cd576108cd612f72565b6020026020010151602001516001600160801b03166040518060400160405280600160ff16815260200160405180604001604052806002815260200161060b60f31b8152508152506040516020016109259190612f4b565b60405160208183030381529060405260045f88888151811061094957610949612f72565b6020908102919091018101515182528101919091526040015f20600101546001600160a01b0316939291906122d5565b5f6109da83838151811061098f5761098f612f72565b60200260200101516020015160045f8686815181106109b0576109b0612f72565b60200260200101515f015181526020019081526020015f206003015461251990919063ffffffff16565b9050610a1360045f8585815181106109f4576109f4612f72565b60200260200101515f015181526020019081526020015f206003015490565b6001600160801b0316816001600160801b03161015610a325780610a4a565b610a4a60045f8585815181106109f4576109f4612f72565b9050610b003360045f868681518110610a6557610a65612f72565b60200260200101515f015181526020019081526020015f205f01600c9054906101000a90046001600160a01b0316836001600160801b0316868681518110610aaf57610aaf612f72565b60200260200101516040015160045f898981518110610ad057610ad0612f72565b6020908102919091018101515182528101919091526040015f20600201546001600160a01b0316939291906122d5565b610b1860045f8585815181106107ab576107ab612f72565b6001600160801b0316838381518110610b3357610b33612f72565b6020026020010151602001516001600160801b031610610bd757610b7d838381518110610b6257610b62612f72565b60200260200101515f0151600361221a90919063ffffffff16565b7f40e0d127017b9c9ff8852374b313d997f022e0c42e857ed394394b4521409233838381518110610bb057610bb0612f72565b60200260200101515f0151604051610bca91815260200190565b60405180910390a1610d0c565b610c0e838381518110610bec57610bec612f72565b6020026020010151602001518260809190911b6001600160801b039091161790565b60045f858581518110610c2357610c23612f72565b60200260200101515f015181526020019081526020015f2060030154610c499190612f0a565b60045f858581518110610c5e57610c5e612f72565b60200260200101515f015181526020019081526020015f20600301819055507faf5ebbce266193f97791fe6201eadefed6c7f15305e89bdd0371d3802f88e7c6838381518110610cb057610cb0612f72565b60200260200101515f015160045f868681518110610cd057610cd0612f72565b60200260200101515f015181526020019081526020015f2060030154604051610d03929190918252602082015260400190565b60405180910390a15b505b600101610755565b5050565b630268d6f0816001600160601b0316118015610d4057506002546001600160a01b031633145b610d48575f80fd5b600280546001600160a01b0316600160a01b6001600160601b038416908102919091179091556040519081527f4e92768b14c8bda9ff5e5e7c486ec2644831d5b16bc66966f4427d791a1ae62b90602001610481565b60605f825167ffffffffffffffff811115610dbb57610dbb61271a565b604051908082528060200260200182016040528015610de4578160200160208202803683370190505b5090505f5b8351811015610e4957610e1f848281518110610e0757610e07612f72565b602002602001015160036124f690919063ffffffff16565b828281518110610e3157610e31612f72565b91151560209283029190910190910152600101610de9565b5092915050565b6002546001600160a01b03163314610e66575f80fd5b6001600160a01b0382165f81815260056020908152604091829020849055815192835282018390527f967d50df84a5ebb45902fa277d5c3b0bc6403497c9fd6da2ecbd9ed420038f1491015b60405180910390a15050565b5f82815260046020526040902054600160601b90046001600160a01b031633148015610f035750600882901c5f90815260036020526040902054600160ff84161b1615155b610f0b575f80fd5b6040808201515f848152600460205291909120600101546001600160a01b03908116911614610f68576040818101515f84815260046020529190912060010180546001600160a01b0319166001600160a01b039092169190911790555b60608101515f838152600460205260409020600201546001600160a01b03908116911614610fc35760608101515f83815260046020526040902060020180546001600160a01b0319166001600160a01b039092169190911790555b60808101515f8381526004602052604090206003015414610ff55760808101515f838152600460205260409020600301555b5f8281526004602090815260409182902080546bffffffffffffffffffffffff1916426001600160601b03161790558282015160608085015160808087015186518981526001600160a01b039586169681019690965293909116948401949094528201527f249ccd56175700337a7a3021ae4d04abcc8f01ff32d64f802a416cd7217c595a9101610eb2565b335f90815260056020526040902054600114801561109f57505f5481115b6110a7575f80fd5b5f8190556040518181527f5e0e68bb2163e5ce5ba96f4e636ef0fe987aecb974185e6decaf76eedba4673790602001610481565b60605f865167ffffffffffffffff8111156110f8576110f861271a565b604051908082528060200260200182016040528015611121578160200160208202803683370190505b5090505f875167ffffffffffffffff81111561113f5761113f61271a565b60405190808252806020026020018201604052801561118f57816020015b604080516080810182525f8082526020808301829052928201819052606082015282525f1990920191018161115d5790505b5090505f885167ffffffffffffffff8111156111ad576111ad61271a565b6040519080825280602002602001820160405280156111d6578160200160208202803683370190505b5090505f805b8a518110156113ed5761126960045f8d84815181106111fd576111fd612f72565b602002602001015181526020019081526020015f205f01600c9054906101000a90046001600160a01b031660045f8e858151811061123d5761123d612f72565b60209081029190910181015182528101919091526040015f20600201546001600160a01b031690612243565b85828151811061127b5761127b612f72565b60200260200101818152505061129c8b8281518110610e0757610e07612f72565b156113e557604051806080016040528060045f8e85815181106112c1576112c1612f72565b602002602001015181526020019081526020015f206001015f9054906101000a90046001600160a01b03166001600160a01b0316815260200160045f8e858151811061130f5761130f612f72565b602002602001015181526020019081526020015f206002015f9054906101000a90046001600160a01b03166001600160a01b0316815260200160045f8e858151811061135d5761135d612f72565b602002602001015181526020019081526020015f2060030154815260200160045f8e858151811061139057611390612f72565b602002602001015181526020019081526020015f205f01600c9054906101000a90046001600160a01b03166001600160a01b03168152508482815181106113d9576113d9612f72565b60200260200101819052505b6001016111dc565b886001600160a01b031663c2ed2bc08560405160200161140d9190612f86565b60408051601f19818403018152908290528e517fffffffff0000000000000000000000000000000000000000000000000000000060e085901b168352611459928f918e91600401613004565b5f604051808303815f875af1158015611474573d5f803e3d5ffd5b505050506040513d5f823e601f3d908101601f1916820160405261149b9190810190613047565b92505f90505b8a51811015611745576115008482815181106114bf576114bf612f72565b6020026020010151606001518583815181106114dd576114dd612f72565b6020026020010151602001516001600160a01b031661224390919063ffffffff16565b91508185828151811061151557611515612f72565b602002602001015161154186848151811061153257611532612f72565b60200260200101516040015190565b6001600160801b031661155491906130d7565b10156115be578615611596578a818151811061157257611572612f72565b602002602001015160405163424b2c2f60e01b815260040161061b91815260200190565b5f8382815181106115a9576115a9612f72565b9115156020928302919091019091015261173d565b6116998482815181106115d3576115d3612f72565b6020026020010151606001518a6116078785815181106115f5576115f5612f72565b60200260200101516040015160801c90565b6001600160801b03166040518060400160405280600160ff16815260200160405180604001604052806002815260200161060b60f31b8152508152506040516020016116539190612f4b565b60405160208183030381529060405288868151811061167457611674612f72565b60200260200101515f01516001600160a01b03166122d590949392919063ffffffff16565b6116c68b82815181106116ae576116ae612f72565b6020026020010151600361221a90919063ffffffff16565b7f40e0d127017b9c9ff8852374b313d997f022e0c42e857ed394394b45214092338b82815181106116f9576116f9612f72565b602002602001015160405161171091815260200190565b60405180910390a1600183828151811061172c5761172c612f72565b911515602092830291909101909101525b6001016114a1565b50909998505050505050505050565b335f9081526005602052604090205460011461176e575f80fd5b5f8082156117fb575f5b84518110156117be57600881901c5f90815260036020526040902054600160ff83161b16156117b6576117b68582815181106116ae576116ae612f72565b600101611778565b507f56e9d16e5207883abc366e8ca2cf12a5fb5b7f2dde2c81c26a7cc2ab7abc8bc7846040516117ee91906130ea565b60405180910390a1611af4565b5f5b8451811015611af25760045f86838151811061181b5761181b612f72565b60209081029190910181015182528101919091526040015f2054611848906001600160601b031642612f0a565b925061185f858281518110610e0757610e07612f72565b801561187c5750600254600160a01b90046001600160601b031683115b15611aea57600254600160a01b90046001600160601b031683116118a0575f6118bd565b6002546118bd90600160a01b90046001600160601b031684612f0a565b925082156118d7576118d2620d2f0084613121565b6118d9565b5f5b92505f83116118e8575f6118f3565b6118f383600a6130d7565b9250606483116119035782611906565b60645b92508215611aea576103e88361194960045f89868151811061192a5761192a612f72565b602002602001015181526020019081526020015f206003015460801c90565b6001600160801b031661195c9190613140565b6119669190613121565b9150611a4c60045f87848151811061198057611980612f72565b602002602001015181526020019081526020015f205f01600c9054906101000a90046001600160a01b031633846001600160801b03166040518060400160405280600160ff16815260200160405180604001604052806002815260200161060b60f31b8152508152506040516020016119f99190612f4b565b60405160208183030381529060405260045f8b8881518110611a1d57611a1d612f72565b60209081029190910181015182528101919091526040015f20600101546001600160a01b0316939291906122d5565b611a7b858281518110611a6157611a61612f72565b60200260200101515f60036125499092919063ffffffff16565b7f165f8fabc98e0a023ab52a03812592bb846c7908a2641c4043d010861a456b98858281518110611aae57611aae612f72565b60200260200101518333604051611ae19392919092835260208301919091526001600160a01b0316604082015260600190565b60405180910390a15b6001016117fd565b505b50505050565b5f5b8151811015610d1657611b1a82828151811061077357610773612f72565b15611cd057611bca60045f848481518110611b3757611b37612f72565b60200260200101515f015181526020019081526020015f205f01600c9054906101000a90046001600160a01b031633611b7e60045f8787815181106107ab576107ab612f72565b6001600160801b03166040518060400160405280600160ff16815260200160405180604001604052806002815260200161060b60f31b8152508152506040516020016109259190612f4b565b611c653360045f858581518110611be357611be3612f72565b60200260200101515f015181526020019081526020015f205f01600c9054906101000a90046001600160a01b0316611c2960045f8787815181106109f4576109f4612f72565b6001600160801b0316858581518110611c4457611c44612f72565b60200260200101516020015160045f888881518110610ad057610ad0612f72565b611c7a828281518110610b6257610b62612f72565b7f40e0d127017b9c9ff8852374b313d997f022e0c42e857ed394394b4521409233828281518110611cad57611cad612f72565b60200260200101515f0151604051611cc791815260200190565b60405180910390a15b600101611afc565b6002546001600160a01b03163314611cee575f80fd5b600280546001600160a01b0319166001600160a01b0383169081179091556040519081527fa8d3850ce581f2add46670c1408b76ca1d0d4ef627eed4a89802ff670940082d90602001610481565b5f5b8151811015610d16576001545f54611d5891600391612596565b60018190555042828281518110611d7157611d71612f72565b60209081029190910101516001600160601b0390911690528151829082908110611d9d57611d9d612f72565b602090810291909101810151600180545f908152600484526040908190208351948401516001600160a01b03908116600160601b026001600160601b039096169590951781559083015181830180549186166001600160a01b03199283161790556060840151600283018054919096169116179093556080909101516003909201919091555482517fed73586b9277e2c9c4f2da2ef2a05c854908458f4c1fc03d45d126dd5cc9f0f79190849084908110611e5a57611e5a612f72565b602002602001015160200151848481518110611e7857611e78612f72565b602002602001015160400151858581518110611e9657611e96612f72565b602002602001015160600151868681518110611eb457611eb4612f72565b602002602001015160800151604051611efa9594939291909485526001600160a01b03938416602086015291831660408501529091166060830152608082015260a00190565b60405180910390a1600101611d3e565b60605f825167ffffffffffffffff811115611f2757611f2761271a565b604051908082528060200260200182016040528015611f7e57816020015b6040805160a0810182525f808252602080830182905292820181905260608201819052608082015282525f19909201910181611f455790505b5090505f5b8351811015610e495760045f858381518110611fa157611fa1612f72565b602002602001015181526020019081526020015f205f015f9054906101000a90046001600160601b0316828281518110611fdd57611fdd612f72565b60200260200101515f01906001600160601b031690816001600160601b03168152505060045f85838151811061201557612015612f72565b602002602001015181526020019081526020015f205f01600c9054906101000a90046001600160a01b031682828151811061205257612052612f72565b6020026020010151602001906001600160a01b031690816001600160a01b03168152505060045f85838151811061208b5761208b612f72565b602002602001015181526020019081526020015f206001015f9054906101000a90046001600160a01b03168282815181106120c8576120c8612f72565b6020026020010151604001906001600160a01b031690816001600160a01b03168152505060045f85838151811061210157612101612f72565b602002602001015181526020019081526020015f206002015f9054906101000a90046001600160a01b031682828151811061213e5761213e612f72565b6020026020010151606001906001600160a01b031690816001600160a01b03168152505060045f85838151811061217757612177612f72565b602002602001015181526020019081526020015f20600301548282815181106121a2576121a2612f72565b602090810291909101015160800152600101611f83565b6002546001600160a01b031633146121cf575f80fd5b6001600160a01b0381165f8181526005602090815260408083209290925590519182527f9a821e99e211e800333328bcb1c6366ea4b42ec0afe08976ad13ff7e2244a6479101610481565b600881901c5f90815260209290925260409091208054600160ff9093169290921b199091169055565b5f60016001600160a01b0384160361226657506001600160a01b0381163161074d565b6040516370a0823160e01b81526001600160a01b0383811660048301528416906370a0823190602401602060405180830381865afa1580156122aa573d5f803e3d5ffd5b505050506040513d601f19601f820116820180604052508101906122ce9190613157565b9392505050565b5f80828060200190518101906122eb919061317e565b905060016001600160a01b038816036123275783341461231e57604051633d2cec6f60e21b815260040160405180910390fd5b600191506124ed565b805160ff166001036123a2576040516323b872dd60e01b81526001600160a01b03871660048201526001600160a01b038616602482015284604482015260205f6064835f8c5af13d15601f3d1160015f51141617169250508161239d57604051633c9fd93960e21b815260040160405180910390fd5b6124ed565b805160ff166002036124e9575f81602001518060200190518101906123c79190613236565b80516040808301516060840151608085015160a086015160c0870151945163d505accf60e01b81526001600160a01b0396871660048201523060248201526044810194909452606484019290925260ff16608483015260a482015260c481019190915291925089169063d505accf9060e4015f604051808303815f87803b158015612450575f80fd5b505af1158015612462573d5f803e3d5ffd5b50506040516323b872dd60e01b81526001600160a01b038a811660048301528981166024830152604482018990528b1692506323b872dd91506064016020604051808303815f875af11580156124ba573d5f803e3d5ffd5b505050506040513d601f19601f820116820180604052508101906124de9190612edb565b5060019250506124ed565b5f91505b50505050505050565b600881901c5f90815260208390526040902054600160ff83161b16151592915050565b5f6122ce836001600160801b0316836001600160801b031661253b8660801c90565b6001600160801b031661264f565b801561257257600882901c5f9081526020849052604090208054600160ff85161b179055505050565b600882901c5f9081526020849052604090208054600160ff85161b19169055505050565b5f6001600884901c825b821561261757505f8181526020879052604090205460ff909516945b60ff861080156125c95750825b156125ea576125d98660016130d7565b95506001861b8116151592506125bc565b85610100036126125784821461260a576126058260016130d7565b61260c565b5f5b91505f95505b6125a0565b61262586600884901b6130d7565b600887901c5f9081526020899052604090208054600160ff8a161b17905593505050509392505050565b918102915f81840461266081612669565b95945050505050565b5f6001600160801b0382111561267f575f61074d565b5090565b5f60208284031215612693575f80fd5b5035919050565b80356001600160601b03811681146126b0575f80fd5b919050565b6001600160a01b03811681146126c9575f80fd5b50565b5f805f80608085870312156126df575f80fd5b843593506126ef6020860161269a565b925060408501356126ff816126b5565b9150606085013561270f816126b5565b939692955090935050565b634e487b7160e01b5f52604160045260245ffd5b6040516060810167ffffffffffffffff811182821017156127515761275161271a565b60405290565b6040805190810167ffffffffffffffff811182821017156127515761275161271a565b60405160e0810167ffffffffffffffff811182821017156127515761275161271a565b604051601f8201601f1916810167ffffffffffffffff811182821017156127c6576127c661271a565b604052919050565b5f67ffffffffffffffff8211156127e7576127e761271a565b5060051b60200190565b5f67ffffffffffffffff82111561280a5761280a61271a565b50601f01601f191660200190565b5f82601f830112612827575f80fd5b813561283a612835826127f1565b61279d565b81815284602083860101111561284e575f80fd5b816020850160208301375f918101602001919091529392505050565b5f6020828403121561287a575f80fd5b813567ffffffffffffffff811115612890575f80fd5b8201601f810184136128a0575f80fd5b80356128ae612835826127ce565b8082825260208201915060208360051b8501019250868311156128cf575f80fd5b602084015b8381101561297157803567ffffffffffffffff8111156128f2575f80fd5b85016060818a03601f19011215612907575f80fd5b61290f61272e565b6020820135815260408201356001600160801b038116811461292f575f80fd5b6020820152606082013567ffffffffffffffff81111561294d575f80fd5b61295c8b602083860101612818565b604083015250845250602092830192016128d4565b509695505050505050565b5f6020828403121561298c575f80fd5b6122ce8261269a565b5f82601f8301126129a4575f80fd5b81356129b2612835826127ce565b8082825260208201915060208360051b8601019250858311156129d3575f80fd5b602085015b838110156129f05780358352602092830192016129d8565b5095945050505050565b5f60208284031215612a0a575f80fd5b813567ffffffffffffffff811115612a20575f80fd5b612a2c84828501612995565b949350505050565b602080825282518282018190525f918401906040840190835b81811015612a6d5783511515835260209384019390920191600101612a4d565b509095945050505050565b5f8060408385031215612a89575f80fd5b8235612a94816126b5565b946020939093013593505050565b5f60a08284031215612ab2575f80fd5b60405160a0810167ffffffffffffffff81118282101715612ad557612ad561271a565b604052905080612ae48361269a565b81526020830135612af4816126b5565b60208201526040830135612b07816126b5565b60408201526060830135612b1a816126b5565b6060820152608092830135920191909152919050565b5f8060c08385031215612b41575f80fd5b82359150612b528460208501612aa2565b90509250929050565b80151581146126c9575f80fd5b5f805f805f60a08688031215612b7c575f80fd5b853567ffffffffffffffff811115612b92575f80fd5b612b9e88828901612995565b955050612bad6020870161269a565b93506040860135612bbd816126b5565b92506060860135612bcd816126b5565b91506080860135612bdd81612b5b565b809150509295509295909350565b5f60208284031215612bfb575f80fd5b81356122ce816126b5565b5f8060408385031215612c17575f80fd5b823567ffffffffffffffff811115612c2d575f80fd5b612c3985828601612995565b9250506020830135612c4a81612b5b565b809150509250929050565b5f60208284031215612c65575f80fd5b813567ffffffffffffffff811115612c7b575f80fd5b8201601f81018413612c8b575f80fd5b8035612c99612835826127ce565b8082825260208201915060208360051b850101925086831115612cba575f80fd5b602084015b8381101561297157803567ffffffffffffffff811115612cdd575f80fd5b85016040818a03601f19011215612cf2575f80fd5b612cfa612757565b60208201358152604082013567ffffffffffffffff811115612d1a575f80fd5b612d298b602083860101612818565b6020830152508085525050602083019250602081019050612cbf565b5f60208284031215612d55575f80fd5b813567ffffffffffffffff811115612d6b575f80fd5b8201601f81018413612d7b575f80fd5b8035612d89612835826127ce565b80828252602082019150602060a08402850101925086831115612daa575f80fd5b6020840193505b82841015612dd657612dc38785612aa2565b825260208201915060a084019350612db1565b9695505050505050565b602080825282518282018190525f918401906040840190835b81811015612a6d5783516001600160601b0381511684526001600160a01b0360208201511660208501526001600160a01b0360408201511660408501526001600160a01b036060820151166060850152608081015160808501525060a083019250602084019350600181019050612df9565b60c08101612eb582866001600160a01b0381511682526001600160a01b036020820151166020830152604081015160408301526001600160a01b0360608201511660608301525050565b6001600160601b03841660808301526001600160a01b03831660a0830152949350505050565b5f60208284031215612eeb575f80fd5b81516122ce81612b5b565b634e487b7160e01b5f52601160045260245ffd5b8181038181111561074d5761074d612ef6565b5f81518084528060208401602086015e5f602082860101526020601f19601f83011685010191505092915050565b6020815260ff82511660208201525f6020830151604080840152612a2c6060840182612f1d565b634e487b7160e01b5f52603260045260245ffd5b602080825282518282018190525f918401906040840190835b81811015612a6d57612fee8385516001600160a01b0381511682526001600160a01b036020820151166020830152604081015160408301526001600160a01b0360608201511660608301525050565b6020939093019260809290920191600101612f9f565b608081525f6130166080830187612f1d565b6001600160601b03959095166020830152506001600160a01b0392909216604083015260ff16606090910152919050565b5f60208284031215613057575f80fd5b815167ffffffffffffffff81111561306d575f80fd5b8201601f8101841361307d575f80fd5b805161308b612835826127ce565b8082825260208201915060208360051b8501019250868311156130ac575f80fd5b6020840193505b82841015612dd65783516130c681612b5b565b8252602093840193909101906130b3565b8082018082111561074d5761074d612ef6565b602080825282518282018190525f918401906040840190835b81811015612a6d578351835260209384019390920191600101613103565b5f8261313b57634e487b7160e01b5f52601260045260245ffd5b500490565b808202811582820484141761074d5761074d612ef6565b5f60208284031215613167575f80fd5b5051919050565b805160ff811681146126b0575f80fd5b5f6020828403121561318e575f80fd5b815167ffffffffffffffff8111156131a4575f80fd5b8201604081850312156131b5575f80fd5b6131bd612757565b6131c68261316e565b8152602082015167ffffffffffffffff8111156131e1575f80fd5b80830192505084601f8301126131f5575f80fd5b8151613203612835826127f1565b818152866020838601011115613217575f80fd5b8160208501602083015e5f602092820183015290820152949350505050565b5f60e0828403128015613247575f80fd5b5061325061277a565b825161325b816126b5565b8152602083015161326b816126b5565b602082015260408381015190820152606080840151908201526132906080840161316e565b608082015260a0838101519082015260c092830151928101929092525091905056fea26469706673582212208d2a9be9b341dc9cc4e8ee3957cc7abd5e6e11d0a77e82d250a60c65ed33753c64736f6c634300081a0033","linkReferences":{}},"methodIdentifiers":{"addLimitOrder((uint96,address,address,address,uint256)[])":"dcda429d","addauths(address,uint256)":"542128dd","addmaxslot(uint256)":"58088c12","auths(address)":"64e72dbd","changemarketcreator(address)":"a06ad0e8","cleandeadorder(uint256[],bool)":"6eaa0cba","marketcreator()":"3d995173","maxfreeremain()":"ba572672","maxslot()":"9dbbca5f","orderpointer()":"160d04f2","orders(uint256)":"a85c38ef","queryLimitOrder(uint256[])":"e2c2f283","queryOrderStatus(uint256)":"20ced07c","queryOrdersStatus(uint256[])":"4a849e35","removeLimitOrder(uint256)":"15b7e297","removeauths(address)":"f66d6485","setMaxfreeRemain(uint96)":"499591fe","takeBatchLimitOrdersAMM(uint256[],uint96,address,address,bool)":"5be7b788","takeLimitOrderAMM(uint256,uint96,address,address)":"1b952b3b","takeLimitOrderChips((uint256,uint128,bytes)[])":"3ce29b7e","takeLimitOrderNormal((uint256,bytes)[])":"8f6390ca","updateLimitOrder(uint256,(uint96,address,address,address,uint256))":"56416451"},"id":56}