{"abi":[{"type":"constructor","inputs":[{"name":"_marketconfig","type":"uint256","internalType":"uint256"},{"name":"_officialTokenContract","type":"address","internalType":"address"},{"name":"_marketcreator","type":"address","internalType":"address"},{"name":"_securitykeeper","type":"address","internalType":"address"}],"stateMutability":"nonpayable"},{"type":"function","name":"addbanlist","inputs":[{"name":"_user","type":"address","internalType":"address"}],"outputs":[{"name":"","type":"bool","internalType":"bool"}],"stateMutability":"nonpayable"},{"type":"function","name":"allowance","inputs":[{"name":"","type":"address","internalType":"address"},{"name":"","type":"address","internalType":"address"},{"name":"","type":"uint256","internalType":"uint256"}],"outputs":[{"name":"","type":"uint256","internalType":"uint256"}],"stateMutability":"view"},{"type":"function","name":"approve","inputs":[{"name":"spender","type":"address","internalType":"address"},{"name":"id","type":"uint256","internalType":"uint256"},{"name":"amount","type":"uint256","internalType":"uint256"}],"outputs":[{"name":"","type":"bool","internalType":"bool"}],"stateMutability":"nonpayable"},{"type":"function","name":"balanceOf","inputs":[{"name":"","type":"address","internalType":"address"},{"name":"","type":"uint256","internalType":"uint256"}],"outputs":[{"name":"","type":"uint256","internalType":"uint256"}],"stateMutability":"view"},{"type":"function","name":"buyGood","inputs":[{"name":"_goodid1","type":"address","internalType":"address"},{"name":"_goodid2","type":"address","internalType":"address"},{"name":"_swapQuantity","type":"uint128","internalType":"uint128"},{"name":"_limitPrice","type":"uint256","internalType":"uint256"},{"name":"_istotal","type":"bool","internalType":"bool"},{"name":"_referal","type":"address","internalType":"address"},{"name":"data","type":"bytes","internalType":"bytes"}],"outputs":[{"name":"goodid2Quantity_","type":"uint128","internalType":"uint128"},{"name":"goodid2FeeQuantity_","type":"uint128","internalType":"uint128"}],"stateMutability":"payable"},{"type":"function","name":"changeGoodOwner","inputs":[{"name":"_goodid","type":"address","internalType":"address"},{"name":"_to","type":"address","internalType":"address"}],"outputs":[],"stateMutability":"nonpayable"},{"type":"function","name":"changemarketcreator","inputs":[{"name":"_newmarketor","type":"address","internalType":"address"}],"outputs":[],"stateMutability":"nonpayable"},{"type":"function","name":"collectCommission","inputs":[{"name":"_goodid","type":"address[]","internalType":"address[]"}],"outputs":[],"stateMutability":"payable"},{"type":"function","name":"collectProof","inputs":[{"name":"_proofid","type":"uint256","internalType":"uint256"},{"name":"_gater","type":"address","internalType":"address"}],"outputs":[{"name":"profit_","type":"uint256","internalType":"uint256"}],"stateMutability":"payable"},{"type":"function","name":"disinvestProof","inputs":[{"name":"_proofid","type":"uint256","internalType":"uint256"},{"name":"_goodQuantity","type":"uint128","internalType":"uint128"},{"name":"_gater","type":"address","internalType":"address"}],"outputs":[{"name":"","type":"bool","internalType":"bool"}],"stateMutability":"payable"},{"type":"function","name":"flashFee","inputs":[{"name":"token","type":"address","internalType":"address"},{"name":"amount","type":"uint256","internalType":"uint256"}],"outputs":[{"name":"","type":"uint256","internalType":"uint256"}],"stateMutability":"view"},{"type":"function","name":"flashLoan","inputs":[{"name":"receiver","type":"address","internalType":"contract IERC3156FlashBorrower"},{"name":"token","type":"address","internalType":"address"},{"name":"amount","type":"uint256","internalType":"uint256"},{"name":"data","type":"bytes","internalType":"bytes"}],"outputs":[{"name":"","type":"bool","internalType":"bool"}],"stateMutability":"nonpayable"},{"type":"function","name":"getGoodState","inputs":[{"name":"goodkey","type":"address","internalType":"address"}],"outputs":[{"name":"","type":"tuple","internalType":"struct S_GoodTmpState","components":[{"name":"goodConfig","type":"uint256","internalType":"uint256"},{"name":"owner","type":"address","internalType":"address"},{"name":"currentState","type":"uint256","internalType":"uint256"},{"name":"investState","type":"uint256","internalType":"uint256"},{"name":"feeQuantityState","type":"uint256","internalType":"uint256"}]}],"stateMutability":"view"},{"type":"function","name":"getProofState","inputs":[{"name":"proofid","type":"uint256","internalType":"uint256"}],"outputs":[{"name":"","type":"tuple","internalType":"struct S_ProofState","components":[{"name":"currentgood","type":"address","internalType":"address"},{"name":"valuegood","type":"address","internalType":"address"},{"name":"state","type":"uint256","internalType":"uint256"},{"name":"invest","type":"uint256","internalType":"uint256"},{"name":"valueinvest","type":"uint256","internalType":"uint256"}]}],"stateMutability":"view"},{"type":"function","name":"goodWelfare","inputs":[{"name":"goodid","type":"address","internalType":"address"},{"name":"welfare","type":"uint128","internalType":"uint128"},{"name":"data","type":"bytes","internalType":"bytes"}],"outputs":[],"stateMutability":"payable"},{"type":"function","name":"initGood","inputs":[{"name":"_valuegood","type":"address","internalType":"address"},{"name":"_initial","type":"uint256","internalType":"uint256"},{"name":"_erc20address","type":"address","internalType":"address"},{"name":"_goodConfig","type":"uint256","internalType":"uint256"},{"name":"_normaldata","type":"bytes","internalType":"bytes"},{"name":"_valuedata","type":"bytes","internalType":"bytes"}],"outputs":[{"name":"","type":"bool","internalType":"bool"}],"stateMutability":"payable"},{"type":"function","name":"initMetaGood","inputs":[{"name":"_erc20address","type":"address","internalType":"address"},{"name":"_initial","type":"uint256","internalType":"uint256"},{"name":"_goodConfig","type":"uint256","internalType":"uint256"},{"name":"data","type":"bytes","internalType":"bytes"}],"outputs":[{"name":"","type":"bool","internalType":"bool"}],"stateMutability":"payable"},{"type":"function","name":"investGood","inputs":[{"name":"_togood","type":"address","internalType":"address"},{"name":"_valuegood","type":"address","internalType":"address"},{"name":"_quantity","type":"uint128","internalType":"uint128"},{"name":"data1","type":"bytes","internalType":"bytes"},{"name":"data2","type":"bytes","internalType":"bytes"}],"outputs":[{"name":"","type":"bool","internalType":"bool"}],"stateMutability":"payable"},{"type":"function","name":"isOperator","inputs":[{"name":"","type":"address","internalType":"address"},{"name":"","type":"address","internalType":"address"}],"outputs":[{"name":"","type":"bool","internalType":"bool"}],"stateMutability":"view"},{"type":"function","name":"ishigher","inputs":[{"name":"goodid","type":"address","internalType":"address"},{"name":"valuegood","type":"address","internalType":"address"},{"name":"compareprice","type":"uint256","internalType":"uint256"}],"outputs":[{"name":"","type":"bool","internalType":"bool"}],"stateMutability":"view"},{"type":"function","name":"marketconfig","inputs":[],"outputs":[{"name":"","type":"uint256","internalType":"uint256"}],"stateMutability":"view"},{"type":"function","name":"marketcreator","inputs":[],"outputs":[{"name":"","type":"address","internalType":"address"}],"stateMutability":"view"},{"type":"function","name":"maxFlashLoan","inputs":[{"name":"good","type":"address","internalType":"address"}],"outputs":[{"name":"","type":"uint256","internalType":"uint256"}],"stateMutability":"view"},{"type":"function","name":"modifyGoodConfig","inputs":[{"name":"_goodid","type":"address","internalType":"address"},{"name":"_goodConfig","type":"uint256","internalType":"uint256"}],"outputs":[{"name":"","type":"bool","internalType":"bool"}],"stateMutability":"nonpayable"},{"type":"function","name":"multicall","inputs":[{"name":"data","type":"bytes[]","internalType":"bytes[]"}],"outputs":[{"name":"results","type":"bytes[]","internalType":"bytes[]"}],"stateMutability":"payable"},{"type":"function","name":"queryCommission","inputs":[{"name":"_goodid","type":"address[]","internalType":"address[]"},{"name":"_recipent","type":"address","internalType":"address"}],"outputs":[{"name":"","type":"uint256[]","internalType":"uint256[]"}],"stateMutability":"view"},{"type":"function","name":"removeMarketor","inputs":[{"name":"_user","type":"address","internalType":"address"}],"outputs":[],"stateMutability":"nonpayable"},{"type":"function","name":"removeSecurityKeeper","inputs":[],"outputs":[],"stateMutability":"nonpayable"},{"type":"function","name":"removebanlist","inputs":[{"name":"_user","type":"address","internalType":"address"}],"outputs":[{"name":"","type":"bool","internalType":"bool"}],"stateMutability":"nonpayable"},{"type":"function","name":"securityKeeper","inputs":[{"name":"token","type":"address","internalType":"address"}],"outputs":[],"stateMutability":"payable"},{"type":"function","name":"setMarketConfig","inputs":[{"name":"_marketconfig","type":"uint256","internalType":"uint256"}],"outputs":[{"name":"","type":"bool","internalType":"bool"}],"stateMutability":"nonpayable"},{"type":"function","name":"setMarketor","inputs":[{"name":"_newmarketor","type":"address","internalType":"address"}],"outputs":[],"stateMutability":"nonpayable"},{"type":"function","name":"setOperator","inputs":[{"name":"operator","type":"address","internalType":"address"},{"name":"approved","type":"bool","internalType":"bool"}],"outputs":[{"name":"","type":"bool","internalType":"bool"}],"stateMutability":"nonpayable"},{"type":"function","name":"supportsInterface","inputs":[{"name":"interfaceId","type":"bytes4","internalType":"bytes4"}],"outputs":[{"name":"","type":"bool","internalType":"bool"}],"stateMutability":"view"},{"type":"function","name":"transfer","inputs":[{"name":"receiver","type":"address","internalType":"address"},{"name":"id","type":"uint256","internalType":"uint256"},{"name":"amount","type":"uint256","internalType":"uint256"}],"outputs":[{"name":"","type":"bool","internalType":"bool"}],"stateMutability":"nonpayable"},{"type":"function","name":"transferFrom","inputs":[{"name":"sender","type":"address","internalType":"address"},{"name":"receiver","type":"address","internalType":"address"},{"name":"id","type":"uint256","internalType":"uint256"},{"name":"amount","type":"uint256","internalType":"uint256"}],"outputs":[{"name":"","type":"bool","internalType":"bool"}],"stateMutability":"nonpayable"},{"type":"function","name":"updateGoodConfig","inputs":[{"name":"_goodid","type":"address","internalType":"address"},{"name":"_goodConfig","type":"uint256","internalType":"uint256"}],"outputs":[{"name":"","type":"bool","internalType":"bool"}],"stateMutability":"nonpayable"},{"type":"function","name":"userConfig","inputs":[{"name":"","type":"address","internalType":"address"}],"outputs":[{"name":"","type":"uint256","internalType":"uint256"}],"stateMutability":"view"},{"type":"event","name":"Approval","inputs":[{"name":"owner","type":"address","indexed":true,"internalType":"address"},{"name":"spender","type":"address","indexed":true,"internalType":"address"},{"name":"id","type":"uint256","indexed":true,"internalType":"uint256"},{"name":"amount","type":"uint256","indexed":false,"internalType":"uint256"}],"anonymous":false},{"type":"event","name":"OperatorSet","inputs":[{"name":"owner","type":"address","indexed":true,"internalType":"address"},{"name":"operator","type":"address","indexed":true,"internalType":"address"},{"name":"approved","type":"bool","indexed":false,"internalType":"bool"}],"anonymous":false},{"type":"event","name":"Transfer","inputs":[{"name":"caller","type":"address","indexed":false,"internalType":"address"},{"name":"from","type":"address","indexed":true,"internalType":"address"},{"name":"to","type":"address","indexed":true,"internalType":"address"},{"name":"id","type":"uint256","indexed":true,"internalType":"uint256"},{"name":"amount","type":"uint256","indexed":false,"internalType":"uint256"}],"anonymous":false},{"type":"event","name":"e_buyGood","inputs":[{"name":"sellgood","type":"address","indexed":true,"internalType":"address"},{"name":"forgood","type":"address","indexed":true,"internalType":"address"},{"name":"fromer","type":"address","indexed":false,"internalType":"address"},{"name":"swapvalue","type":"uint128","indexed":false,"internalType":"uint128"},{"name":"sellgoodstate","type":"uint256","indexed":false,"internalType":"uint256"},{"name":"forgoodstate","type":"uint256","indexed":false,"internalType":"uint256"}],"anonymous":false},{"type":"event","name":"e_changegoodowner","inputs":[{"name":"goodid","type":"address","indexed":false,"internalType":"address"},{"name":"to","type":"address","indexed":false,"internalType":"address"}],"anonymous":false},{"type":"event","name":"e_changemarketcreator","inputs":[{"name":"_newmarketor","type":"address","indexed":false,"internalType":"address"}],"anonymous":false},{"type":"event","name":"e_collectProof","inputs":[{"name":"_proofNo","type":"uint256","indexed":true,"internalType":"uint256"},{"name":"_normalGoodNo","type":"address","indexed":false,"internalType":"address"},{"name":"_valueGoodNo","type":"address","indexed":false,"internalType":"address"},{"name":"_profit","type":"uint256","indexed":false,"internalType":"uint256"}],"anonymous":false},{"type":"event","name":"e_collectProtocolFee","inputs":[{"name":"goodid","type":"address","indexed":false,"internalType":"address"},{"name":"feeamount","type":"uint256","indexed":false,"internalType":"uint256"}],"anonymous":false},{"type":"event","name":"e_collectcommission","inputs":[{"name":"_gooid","type":"address[]","indexed":false,"internalType":"address[]"},{"name":"_commisionamount","type":"uint256[]","indexed":false,"internalType":"uint256[]"}],"anonymous":false},{"type":"event","name":"e_disinvestProof","inputs":[{"name":"_proofNo","type":"uint256","indexed":true,"internalType":"uint256"},{"name":"_normalGoodNo","type":"address","indexed":false,"internalType":"address"},{"name":"_valueGoodNo","type":"address","indexed":false,"internalType":"address"},{"name":"_value","type":"uint256","indexed":false,"internalType":"uint256"},{"name":"_normalgood","type":"uint256","indexed":false,"internalType":"uint256"},{"name":"_valuegood","type":"uint256","indexed":false,"internalType":"uint256"},{"name":"_profit","type":"uint256","indexed":false,"internalType":"uint256"}],"anonymous":false},{"type":"event","name":"e_enpower","inputs":[{"name":"_goodid","type":"uint256","indexed":false,"internalType":"uint256"},{"name":"_valuegood","type":"uint256","indexed":false,"internalType":"uint256"},{"name":"_quantity","type":"uint256","indexed":false,"internalType":"uint256"}],"anonymous":false},{"type":"event","name":"e_goodWelfare","inputs":[{"name":"goodid","type":"address","indexed":false,"internalType":"address"},{"name":"welfare","type":"uint128","indexed":false,"internalType":"uint128"}],"anonymous":false},{"type":"event","name":"e_initGood","inputs":[{"name":"_proofNo","type":"uint256","indexed":false,"internalType":"uint256"},{"name":"_goodid","type":"address","indexed":false,"internalType":"address"},{"name":"_valuegoodNo","type":"address","indexed":false,"internalType":"address"},{"name":"_goodConfig","type":"uint256","indexed":false,"internalType":"uint256"},{"name":"_construct","type":"uint256","indexed":false,"internalType":"uint256"},{"name":"_normalinitial","type":"uint256","indexed":false,"internalType":"uint256"},{"name":"_value","type":"uint256","indexed":false,"internalType":"uint256"}],"anonymous":false},{"type":"event","name":"e_initMetaGood","inputs":[{"name":"_proofNo","type":"uint256","indexed":false,"internalType":"uint256"},{"name":"_goodid","type":"address","indexed":false,"internalType":"address"},{"name":"_construct","type":"uint256","indexed":false,"internalType":"uint256"},{"name":"_goodConfig","type":"uint256","indexed":false,"internalType":"uint256"},{"name":"_initial","type":"uint256","indexed":false,"internalType":"uint256"}],"anonymous":false},{"type":"event","name":"e_investGood","inputs":[{"name":"_proofNo","type":"uint256","indexed":true,"internalType":"uint256"},{"name":"_normalgoodid","type":"address","indexed":false,"internalType":"address"},{"name":"_valueGoodNo","type":"address","indexed":false,"internalType":"address"},{"name":"_value","type":"uint256","indexed":false,"internalType":"uint256"},{"name":"_invest","type":"uint256","indexed":false,"internalType":"uint256"},{"name":"_valueinvest","type":"uint256","indexed":false,"internalType":"uint256"}],"anonymous":false},{"type":"event","name":"e_modifiedUserConfig","inputs":[{"name":"_user","type":"address","indexed":false,"internalType":"address"},{"name":"config","type":"uint256","indexed":false,"internalType":"uint256"}],"anonymous":false},{"type":"event","name":"e_modifyGoodConfig","inputs":[{"name":"_goodid","type":"address","indexed":false,"internalType":"address"},{"name":"_goodconfig","type":"uint256","indexed":false,"internalType":"uint256"}],"anonymous":false},{"type":"event","name":"e_setMarketConfig","inputs":[{"name":"_marketconfig","type":"uint256","indexed":false,"internalType":"uint256"}],"anonymous":false},{"type":"event","name":"e_transferdel","inputs":[{"name":"delproofid","type":"uint256","indexed":false,"internalType":"uint256"},{"name":"existsproofid","type":"uint256","indexed":false,"internalType":"uint256"}],"anonymous":false},{"type":"event","name":"e_updateGoodConfig","inputs":[{"name":"_goodid","type":"address","indexed":false,"internalType":"address"},{"name":"_goodConfig","type":"uint256","indexed":false,"internalType":"uint256"}],"anonymous":false},{"type":"error","name":"ERC20PermitFailed","inputs":[]},{"type":"error","name":"ERC20TransferFailed","inputs":[]},{"type":"error","name":"ERC3156ExceededMaxLoan","inputs":[{"name":"maxLoan","type":"uint256","internalType":"uint256"}]},{"type":"error","name":"ERC3156InvalidReceiver","inputs":[{"name":"receiver","type":"address","internalType":"address"}]},{"type":"error","name":"ERC3156UnsupportedToken","inputs":[{"name":"token","type":"address","internalType":"address"}]},{"type":"error","name":"TTSwapError","inputs":[{"name":"seq","type":"uint256","internalType":"uint256"}]},{"type":"error","name":"noEnoughOutputError","inputs":[]}],"bytecode":{"object":"0x60a0346100cf57601f61529038819003918201601f19168301916001600160401b038311848410176100d3578084926080946040528339810103126100cf5780519061004d602082016100e7565b91610066606061005f604085016100e7565b93016100e7565b608093909352600655600780546001600160a01b039283166001600160a01b0319918216179091556008805492909316911617905560405161519490816100fc8239608051818181610d510152818161133001528181611b4e0152818161216d0152612e920152f35b5f80fd5b634e487b7160e01b5f52604160045260245ffd5b51906001600160a01b03821682036100cf5756fe60806040526004361015610011575f80fd5b5f3560e01c8062fdd58e1461027357806301ffc9a71461026e57806306cf4e7f146102695780630823846614610264578063095bcdb61461025f5780630d2700ab1461025a578063102e5c271461025557806313a124c3146102505780631412723a1461024b5780633c9fe544146102465780633d995173146102415780633f1177401461023c578063402f5ab51461023757806341e1237314610232578063426a84931461022d57806345818e4c1461022857806351ff9a1614610223578063558a72971461021e578063598af9e7146102195780635cffe9de146102145780635f35b0b31461020f5780635f755d651461020a578063613255ab146102055780639551177a146102005780639b222794146101fb578063a06ad0e8146101f6578063a3b74a49146101f1578063a676a600146101ec578063ac9650d8146101e7578063b153b920146101e2578063b1efb921146101dd578063b6363cf2146101d8578063c9544f18146101d3578063cc00da2d146101ce578063d9d98ce4146101c9578063f4662f20146101c4578063f878e809146101bf5763fe99049a146101ba575f80fd5b6128f1565b6124b8565b61209b565b61204f565b611fdd565b611f95565b611f4d565b611ed9565b611e65565b611dfe565b611a32565b611993565b611919565b61184d565b611785565b611754565b6116c7565b61168c565b6114d8565b611488565b6113ec565b6111d8565b611176565b6110f5565b611059565b611014565b610f56565b610f2e565b610e58565b610e07565b610a06565b61096d565b6107d2565b6105fd565b6104f0565b610383565b6102ef565b6102a6565b6001600160a01b0381160361028957565b5f80fd5b6001600160a01b03165f90815260036020526040902090565b34610289576040366003190112610289576004356102c381610278565b6024359060018060a01b03165f52600160205260405f20905f52602052602060405f2054604051908152f35b346102895760203660031901126102895760043563ffffffff60e01b8116809103610289576020906301ffc9a760e01b8114908115610334575b506040519015158152f35b630f632fb360e01b1490505f610329565b6001600160801b0381160361028957565b9181601f84011215610289578235916001600160401b038311610289576020838186019501011161028957565b60603660031901126102895760043561039b81610278565b6024356103a781610345565b6044356001600160401b038111610289576103c6903690600401610356565b92905f8051602061511f8339815191525c6001600160a01b03166104dc57335f8051602061511f8339815191525d6103fc6131db565b6001600160a01b0382165f908152600360205260409020600401546001606d1b906001600160801b039061043990869060801c612aa6565b612aa6565b1610156104c8577f0dc5e2150c5754dc0bcd8d76ca2d23850fc9a2a3115c69bb4fbdbedc25074a0093610477916001600160801b03851633856132be565b61049760046104858361028d565b01546104918460801b90565b90613801565b60046104a28361028d565b01556104b360405192839283612abf565b0390a16104be613238565b6104c66131c9565b005b63d1b5191160e01b5f52600c60045260245ffd5b63d1b5191160e01b5f52600360045260245ffd5b34610289576020366003190112610289576105d660043561051081610278565b610518612ae2565b506001600160a01b038181165f9081526003602052604090208054600190910154909291169060026105498261028d565b01546105846004610566600361055e8661028d565b01549461028d565b015493610571610706565b9586526001600160a01b03166020860152565b6040840152606083015260808201526040519182918291909160808060a08301948051845260018060a01b03602082015116602085015260408101516040850152606081015160608501520151910152565b0390f35b6060906003190112610289576004356105f281610278565b906024359060443590565b346102895761060b366105da565b9091335f52600160205260405f20835f5260205260405f20805490838203918211610691575560018060a01b031690815f5260016020526106578360405f20905f5260205260405f2090565b610662828254612b27565b90555f805160206150ff8339815191526040518061068233943383612b34565b0390a460405160018152602090f35b612a92565b634e487b7160e01b5f52604160045260245ffd5b60a081019081106001600160401b038211176106c557604052565b610696565b604081019081106001600160401b038211176106c557604052565b90601f801991011681019081106001600160401b038211176106c557604052565b6040519061071560a0836106e5565b565b60405190610715610100836106e5565b604051906107156060836106e5565b604051906107156040836106e5565b604051906107156080836106e5565b6001600160401b0381116106c55760051b60200190565b9080601f8301121561028957813561078281610754565b9261079060405194856106e5565b81845260208085019260051b82010192831161028957602001905b8282106107b85750505090565b6020809183356107c781610278565b8152019101906107ab565b6020366003190112610289576004356001600160401b038111610289576107fd90369060040161076b565b5f8051602061511f8339815191525c6001600160a01b03166104dc57335f8051602061511f8339815191525d6108316131db565b6064815111610959576108448151612b4f565b5f5b82518110156109275760019061089033600561087a610875610868868a612b95565b516001600160a01b031690565b61028d565b019060018060a01b03165f5260205260405f2090565b5461089b8285612b95565b5260026108a88285612b95565b5110156108c2575f6108ba8285612b95565b525b01610846565b6108d56108cf8285612b95565b51612b0c565b6108df8285612b95565b526108ff6108f933600561087a610875610868878b612b95565b60019055565b61092261090f6108688387612b95565b6109198386612b95565b5190339061382a565b6108bc565b507f477bb716eacccc001de50dcdd6e25241283d080e6afb27443908b20f4e738b5e916104b360405192839283612bae565b63d1b5191160e01b5f52600b60045260245ffd5b346102895760203660031901126102895760043561098a81610278565b6007546001600160a01b031633036109e3576001600160a01b0381165f908152600560205260409081902080546002179081905590515f805160206150bf83398151915292909182916109de919083612b34565b0390a1005b63d1b5191160e01b5f52600160045260245ffd5b60843590811515820361028957565b60e036600319011261028957600435610a1e81610278565b60243590610a2b82610278565b60443590610a3882610345565b60643592610a446109f7565b9260a43594610a5286610278565b60c4356001600160401b03811161028957610a71903690600401610356565b90969092905f8051602061511f8339815191525c6001600160a01b03166104dc57335f8051602061511f8339815191525d610aaa6131db565b6001600160a01b038116610d4f575b50610ac38561028d565b6002015496610ad18661028d565b5490610adc8661028d565b6002015494610aea8761028d565b5495610af4610717565b6001600160801b038616815296602088019a5f8c5260408901975f895260608a01965f885260808b019e8f5260a08b015260c08a0193845260e08a01928352610b3d908a6138aa565b6001600160801b038716801591908215610d1d575b508115610d07575b8115610cd0575b50610cbc575199516001600160801b0316996001600160801b038b1661271060cc9290921c607f160204998a610b9691612c13565b9a610ba08a61028d565b905187516001600160801b031690610bb792613baf565b89610bc18961028d565b9151610bcc92613baf565b85516001600160801b0316610be19085612c13565b6001600160801b0316610bf69290338a6132be565b610c0a6001600160801b038916338761382a565b516001600160801b031692516001600160801b0316610c2891612c13565b9051604080513381526001600160801b039485166020820152608093841b928516929092179082015291851686821b1760608301526001600160a01b0392831693909216917fe9174eb0d60b5dfcb132e979d11319f32d4a3ebdbf5abbb9600950c1cf8fab5b91a3610c98613238565b610ca06131c9565b604080516001600160801b039384168152919092166020820152f35b63d1b5191160e01b5f52600660045260245ffd5b6001915015151480610ce3575b5f610b61565b508751610d00906001600160801b03165b6001600160801b031690565b1515610cdd565b6001600160a01b038c8116908c16149150610b5a565b8a5191925090610d4690610cf4906001600160801b03168b516001600160801b03165b90612aa6565b1015905f610b52565b7f00000000000000000000000000000000000000000000000000000000000000006001600160a01b0316803b15610289576040516376549e6760e11b81523360048201526001600160a01b039290921660248301525f908290604490829084905af18015610dd65715610ab95780610dca5f610dd0936106e5565b80610f24565b5f610ab9565b612c08565b606090600319011261028957600435610df381610278565b90602435610e0081610278565b9060443590565b34610289576020610e4e610e1a36610ddb565b9160018060a01b03165f5260038452600260405f2001549060018060a01b03165f5260038452600260405f20015490613be0565b6040519015158152f35b602036600319011261028957600435610e7081610278565b610e786131db565b6008546001600160a01b0316330361028957610f1c9060018060a01b0381165f526003602052610efb610ecb610cf4610eb8600460405f20015460801c90565b6004610ec38661028d565b015490612c13565b5f6004610ed78561028d565b0155610ef56002610ee78561028d565b01546001600160801b031690565b90612b27565b905f6002610f088361028d565b01556008546001600160a01b03169061382a565b6104c6613238565b5f91031261028957565b34610289575f366003190112610289576007546040516001600160a01b039091168152602090f35b3461028957602036600319011261028957600435610f72612ae2565b505f5260046020526105d660405f20600460405191610f90836106aa565b60018060a01b03815416835260018060a01b0360018201541660208401526002810154604084015260038101546060840152015460808201526040519182918291909160808060a083019460018060a01b03815116845260018060a01b03602082015116602085015260408101516040850152606081015160608501520151910152565b34610289575f366003190112610289576020600654604051908152f35b60409060031901126102895760043561104981610278565b9060243561105681610278565b90565b346102895761106736611031565b335f526005602052600260405f205416156110e1577f42e3c955499470d3dc1078d90519d90691c504c8856ea058daf2c1436c2dab4c9160018060a01b0381165f5260036020526110be82600160405f2001612c2c565b604080516001600160a01b039283168152929091166020830152819081016109de565b63d1b5191160e01b5f52600260045260245ffd5b3461028957611103366105da565b9091335f52600260205261112a8160405f209060018060a01b03165f5260205260405f2090565b835f526020528160405f205560405191825260018060a01b0316907fb3fd5071835887567a0671151121894ddccc2842f1d10bedad13e0d17cace9a760203392a4602060405160018152f35b3461028957602036600319011261028957600754600435906001600160a01b031633036109e3576020817fbd209961024f2694b0afb3c8badd20b6477abb77b336b16892c3fa4b906d323c92600655604051908152a160405160018152602090f35b6080366003190112610289576004356111f081610278565b604435906024356064356001600160401b03811161028957611216903690600401610356565b600754919290916001600160a01b031633036109e3576112346131db565b600160ff1b851615611245565b1590565b80156113bf575b6113ac577f8f2eb922ee1b2f92e0051f7949a8c191264807725a1e435e91abebd28583830a946001600160801b038216936113959361128d918633896132be565b6112a0818361129b8861028d565b613c40565b6112b16112ac8661028d565b613c65565b6113546112dc6112bf610727565b3381526001600160a01b03881660208201525f6040820152613c9c565b9461132d6112f2875f52600460205260405f2090565b9161130d818760801c948b6113078760801b90565b91613ce2565b6113276001600160a01b038a165b6001600160a01b031690565b33613d94565b337f0000000000000000000000000000000000000000000000000000000000000000613deb565b604080519586526001600160a01b0390961660208601526001600160801b0316948401949094526060830193909352608082019290925290819060a0820190565b0390a16113a0613238565b60405160018152602090f35b63d1b5191160e01b5f526004805260245ffd5b506001600160a01b036113e460016113d68761028d565b01546001600160a01b031690565b16151561124c565b346102895760403660031901126102895760043561140981610278565b60243590811515820361028957335f908152602081815260408083206001600160a01b038516845290915290209115159160ff1981541660ff841617905560405191825260018060a01b0316907fceb576d9f15e4e200fdb5096d64d5dfd667e16def20c1eefd14256d8e3faa26760203392a360405160018152602090f35b34610289576114c361149936610ddb565b929160018060a01b03165f52600260205260405f209060018060a01b03165f5260205260405f2090565b905f52602052602060405f2054604051908152f35b34610289576080366003190112610289576004356114f581610278565b6024359061150282610278565b604435916064356001600160401b03811161028957611525903690600401610356565b90939060016001600160a01b038416146116785761154c6115463085613fe4565b60011c90565b808311611666575060206115ae91611578846115678761028d565b5490603f6127109260df1c16020490565b6001600160a01b039096169661158f85898861382a565b6040516323e30c8b60e01b8152938492839289888a3360048801612c5a565b03815f895af18015610dd6577f439148f0bbc682ca079e46d6e2c2f0c1e3b820f1a291b069d8882abf8cf18dd9915f91611637575b500361161c57906108756113a094611604610cf4610cf48761160d97612b27565b90309084613e63565b6004019081549060801b019055565b62678c5b60e81b5f526001600160a01b03841660045260245ffd5b611659915060203d60201161165f575b61165181836106e5565b810190612c4b565b5f6115e3565b503d611647565b63fd9a760960e01b5f5260045260245ffd5b63d1b5191160e01b5f52601d60045260245ffd5b34610289576020366003190112610289576004356116a981610278565b60018060a01b03165f526005602052602060405f2054604051908152f35b60c0366003190112610289576004356116df81610278565b604435906024356116ef83610278565b606435916084356001600160401b03811161028957611712903690600401610356565b9060a435946001600160401b038611610289576105d69661173a611742973690600401610356565b969095612caa565b60405190151581529081906020820190565b3461028957602036600319011261028957602061177d60043561177681610278565b3090613fe4565b604051908152f35b34610289576020366003190112610289576004356117a281610278565b335f526005602052600260405f205416156110e1576001600160a01b0381165f90815260056020526040908190208054600119169081905590515f805160206150bf83398151915292909182916117fa919083612b34565b0390a160405160018152602090f35b90602080835192838152019201905f5b8181106118265750505090565b8251845260209384019390920191600101611819565b906020611056928181520190611809565b34610289576040366003190112610289576004356001600160401b0381116102895761187d90369060040161076b565b6024359061188a82610278565b6064815110156119055761189e8151612b4f565b915f5b82518110156118f7576001906001600160a01b036118bf8286612b95565b51165f9081526003602090815260408083206001600160a01b03871684526005019091529020546118f08287612b95565b52016118a1565b604051806105d6868261183c565b63d1b5191160e01b5f52600b60045260245ffd5b346102895760203660031901126102895760043561193681610278565b60075490336001600160a01b038316036109e3576001600160a01b03166001600160a01b03199190911681176007556040519081527fa8d3850ce581f2add46670c1408b76ca1d0d4ef627eed4a89802ff670940082d90602090a1005b34610289576040366003190112610289576004356119b081610278565b6024356001600160a01b038281165f81815260036020526040902060010154909391163303611a1e577f075a13b9dbfb2e30d678551b8c2a4f9ede7468ca5273fa902a41d0e577566669925f526003602052611a0f8260405f2061404e565b6117fa60405192839283612b34565b63d1b5191160e01b5f52600a60045260245ffd5b604036600319011261028957600435602435611a4d81610278565b5f8051602061511f8339815191525c6001600160a01b03166104dc57335f8051602061511f8339815191525d611a816131db565b81611af5611aa7611a9a835f52600460205260405f2090565b546001600160a01b031690565b611af0611ac160016113d6865f52600460205260405f2090565b611ae0611acc610727565b338152936001600160a01b03166020850152565b6001600160a01b03166040830152565b613c9c565b03611d6757611b1160016113d6845f52600460205260405f2090565b91611b27611a9a825f52600460205260405f2090565b6040805163b88e6d6360e01b81523360048201529491939190856024816001600160a01b037f0000000000000000000000000000000000000000000000000000000000000000165afa918215610dd6576105d6957f1129f35303e34d7efabdbd85614ed662beb4fc6942852b7a3e5a4f92074cbf3193611c44925f925f92611d33575b506001600160a01b0381165f908152600560205260409020611bd0905b54600116151590565b15611d2d575081905b6001600160a01b0382811690821603611d285750815b6001600160a01b0381165f908152600560205260409020611c0f90611bc7565b15611d21575b611c1e8861028d565b91611c288661028d565b611c3a895f52600460205260405f2090565b906006549461406e565b93611c5433600561087a8461028d565b5460028111611cfb575b506001600160a01b038216611cb1575b604080516001600160a01b0392831681529290911660208301528101849052606090a2611c99613238565b611ca16131c9565b6040519081529081906020820190565b611cc033600561087a8561028d565b5460028111611cd0575b50611c6e565b611cee611cf591611ce96108f933600561087a8961028d565b612b0c565b338461382a565b5f611cca565b611d14611d1b91611ce96108f933600561087a8861028d565b338361382a565b5f611c5e565b5081611c15565b611bef565b90611bd9565b909250611d58915060403d604011611d60575b611d5081836106e5565b810190613026565b90915f611baa565b503d611d46565b63d1b5191160e01b5f52600960045260245ffd5b805180835260209291819084018484015e5f828201840152601f01601f1916010190565b602081016020825282518091526040820191602060408360051b8301019401925f915b838310611dd157505050505090565b9091929394602080611def600193603f198682030187528951611d7b565b97019301930191939290611dc2565b6020366003190112610289576004356001600160401b0381116102895736602382011215610289578060040135906001600160401b038211610289573660248360051b83010111610289576105d6916024611e59920161304b565b60405191829182611d9f565b3461028957602036600319011261028957600435611e8281610278565b335f526005602052600260405f205416156110e1576001600160a01b0381165f908152600560205260409081902080546001179081905590515f805160206150bf83398151915292909182916117fa919083612b34565b3461028957604036600319011261028957600435611ef681610278565b602435335f526005602052600260405f205416156110e1577fe40cf68f61d9a4e510244481f5aa34ba68de31cf3f9aa360604d688115d640c89160018060a01b0381165f526003602052611a0f8260405f20613c82565b3461028957602060ff611f89611f6236611031565b6001600160a01b039182165f90815280865260408082209290931681526020919091522090565b54166040519015158152f35b34610289575f366003190112610289576007546001600160a01b03163303611fc957600880546001600160a01b0319169055005b63d1b5191160e01b5f52600e60045260245ffd5b3461028957602036600319011261028957600435611ffa81610278565b6007546001600160a01b031633036109e3576001600160a01b0381165f90815260056020526040908190208054600219169081905590515f805160206150bf83398151915292909182916109de919083612b34565b3461028957604036600319011261028957602061177d60043561207181610278565b6001600160a01b03165f90815260038352604090205461271060df9190911c603f16602435020490565b6060366003190112610289576004356024356120b681610345565b604435906120c382610278565b5f8051602061511f8339815191525c6001600160a01b03166104dc57335f8051602061511f8339815191525d6120f76131db565b82612110611aa7611a9a835f52600460205260405f2090565b036124a45761211d61319b565b5061212661319b565b5061213c611a9a845f52600460205260405f2090565b61215360016113d6865f52600460205260405f2090565b6040805163b88e6d6360e01b8152336004820152949193917f000000000000000000000000000000000000000000000000000000000000000091866024816001600160a01b0386165afa958615610dd6576122cb6123b994868a896122c6612308967f63741ac8918076a6393e6e12659431a4927b53e16190a6b00af6a06697d868b89d612302995f925f92612480575b506001600160a01b0381165f90815260056020526040902061220590611bc7565b1561247857905b6001600160a01b03828116908216036124735750815b6001600160a01b0381165f90815260056020526040902061224290611bc7565b1561245f5761226f61226061225a6122b1939961028d565b9661028d565b965f52600460205260405f2090565b966122a160065493612291612282610706565b6001600160801b03909c168c52565b6001600160a01b031660208b0152565b6001600160a01b03166040890152565b60608701526001600160a01b03166080860152565b614159565b80929491956122df33600561087a8c61028d565b54896001821161242e575b50506001600160a01b038a166123cc575b339061471e565b60801b90565b602082015190929061237a90612341906001600160801b03165b60408501516001600160801b03165b60018060801b03169060801b1790565b9161233161236c61235e612322602085015160018060801b031690565b95516001600160801b031690565b91516001600160801b031690565b604080516001600160a01b039788168152979096166020880152948601929092526060850191909152608084015260a0830191909152819060c0820190565b0390a26123c4613238565b6113a06131c9565b6123db33600561087a8d61028d565b548a600182116123ed575b50506122fb565b61242791611ce961241061131b6124209461131b6108f933600561087a8561028d565b61241983612b0c565b90336146cd565b338c61382a565b5f8a6123e6565b61245891611ce961241061131b6124519461131b6108f933600561087a8561028d565b338b61382a565b5f896122ea565b506122b161226f61226061225a859961028d565b612222565b50819061220c565b90925061249c915060403d604011611d6057611d5081836106e5565b90915f6121e4565b63d1b5191160e01b5f52600860045260245ffd5b60a0366003190112610289576004356124d081610278565b6024356124dc81610278565b604435906124e982610345565b6064356001600160401b03811161028957612508903690600401610356565b6084949194356001600160401b0381116102895761252a903690600401610356565b90915f8051602061511f8339815191525c6001600160a01b03166104dc57335f8051602061511f8339815191525d6125606131db565b612568612f83565b96612571612f83565b966001606d1b6001600160801b0361259583600261258e8b61028d565b0154612aa6565b16108015906128dc575b80156128a4575b612890576125e992816125c58b6125d7946125c08b61028d565b613eb2565b6001600160801b0316928333896132be565b6113276001600160a01b03861661131b565b6001600160a01b0384161591859083156127ac575b505050612609610727565b3381526001600160a01b03831660208201526001600160a01b038416604082015261263390613c9c565b94612646865f52600460205260405f2090565b6040820180519196909390916001600160801b0316906126668260801b90565b60208501519091906001600160801b0316606086018051909a9189916001600160801b03166001600160801b031660809190911b1760208701516001600160801b03166060880180519096918d916001600160801b03166001600160801b031660809190911b17936126d795613d27565b5f1461236c6127537fee89c9fd704272905456294f1b2b88581ebe0241f72c15b4f3db31d19388f6af9a61233161236c6127456123b99b6127619961233198612798575080516127339061236c906001600160801b031661132d565b60801b6001600160801b039091161790565b99516001600160801b031690565b94516001600160801b031690565b604080516001600160a01b0396871681529690951660208701529385019190915260608401526080830191909152819060a0820190565b61236c6127a761273392613006565b61132d565b612846612888936127d760026127c18a61028d565b015460408c01516001600160801b03169061476d565b6001600160801b0316606085019081529261282b61281e6127f78b61028d565b54865161280c906001600160801b0316610cf4565b603f6127109260d91c16820390040290565b6001600160801b03168552565b835161283f906001600160801b0316610cf4565b338a6132be565b61287661285b6001600160a01b03881661131b565b825161286f906001600160801b0316610cf4565b9033613d94565b61288261236c8761028d565b90613eb2565b5f84816125fe565b63d1b5191160e01b5f52600760045260245ffd5b506128bd6128b18761028d565b54600160ff1b16151590565b80156128ca575b156125a6565b506128d76128b18861028d565b6128c4565b506001600160a01b038681169088161461259f565b346102895760803660031901126102895760043561290e81610278565b60243561291a81610278565b604435915f805160206150ff833981519152610682606435936001600160a01b0384169361297c90879061296f903388141580612a62575b6129d2576001600160a01b03165f90815260016020526040902090565b905f5260205260405f2090565b612987868254612b1a565b90556001600160a01b0381165f9081526001602052604090206129ab90879061296f565b6129b6868254612b27565b90556040516001600160a01b0390911694909182913383612b34565b612a098361296f336129f48560018060a01b03165f52600260205260405f2090565b9060018060a01b03165f5260205260405f2090565b548960018201612a2f575b50506001600160a01b03165f90815260016020526040902090565b612a3891612b1a565b612a5a8461296f336129f48660018060a01b03165f52600260205260405f2090565b555f89612a14565b50612a8d611241612a86336129f48560018060a01b03165f525f60205260405f2090565b5460ff1690565b612952565b634e487b7160e01b5f52601160045260245ffd5b6001600160801b03918216908216019190821161069157565b6001600160a01b0390911681526001600160801b03909116602082015260400190565b60405190612aef826106aa565b5f6080838281528260208201528260408201528260608201520152565b5f1981019190821161069157565b9190820391821161069157565b9190820180921161069157565b6001600160a01b039091168152602081019190915260400190565b90612b5982610754565b612b6660405191826106e5565b8281528092612b77601f1991610754565b0190602036910137565b634e487b7160e01b5f52603260045260245ffd5b8051821015612ba95760209160051b010190565b612b81565b9291604084019360408152825180955260206060820193015f955b808710612be55750506110569394506020818403910152611809565b81516001600160a01b031685526001969096019560209485019490910190612bc9565b6040513d5f823e3d90fd5b6001600160801b03918216908216039190821161069157565b80546001600160a01b0319166001600160a01b03909216919091179055565b90816020910312610289575190565b6001600160a01b039182168152911660208201526040810191909152606081019190915260a060808201819052810183905260c09290918190848401375f828201840152601f01601f1916010190565b96919592939092905f8051602061511f8339815191525c6001600160a01b03166104dc57335f8051602061511f8339815191525d612ce66131db565b6001600160a01b03612cfc60016113d68a61028d565b1615801590612f6e575b612f5a57608084901c95612d1c9187338a6132be565b6001600160801b03831691612d339183338a6132be565b612d3b612f83565b9182612d468861028d565b91612d5092613eb2565b612d598561028d565b60408301805190929190859087906001600160801b031660801b6001600160801b0390911617612d8892613c40565b612d90610727565b3381526001600160a01b03871660208201526001600160a01b0388166040820152612dba90613c9c565b82519095906001600160801b031660801b60208501519092906001600160801b0316606086018051909491906001600160801b03166001600160801b031660809190911b17612e07610706565b6001600160a01b038b168152916001600160a01b038c16602084015260408301528360608301526080820152612e45885f52600460205260405f2090565b90612e4f91612fb7565b612e63826001600160a01b038a1633613d94565b612e77906001600160a01b038a1633613d94565b82516001600160801b0316612e8b90613006565b612eb690337f0000000000000000000000000000000000000000000000000000000000000000613deb565b925193519151604080519788526001600160a01b039889166020890152989097169786019790975260608501939093526001600160801b0390811660808581019190915295861b9181169190911760a08401526001600160801b03199190941b16919092161760c08201527f3fc0293a5a7bc73de220f0814bbbebc31e77ffcd41bf5e8be187471747bd7caa9060e090a1612f4f613238565b6001906107156131c9565b63d1b5191160e01b5f52600560045260245ffd5b50612f7e6112416128b18a61028d565b612d06565b60405190608082018281106001600160401b038211176106c5576040525f6060838281528260208201528260408201520152565b906080600491612fd060018060a01b0382511685612c2c565b6020810151612feb906001600160a01b031660018601612c2c565b60408101516002850155606081015160038501550151910155565b60011b6002600160801b03811691906002600160811b0316820361069157565b9190826040910312610289576020825161303f81610278565b92015161105681610278565b6130536131db565b61305c82610754565b9161306a60405193846106e5565b808352601f1961307982610754565b015f5b8181106130f25750505f5b81811061309a5750505090610715613238565b5f806130a7838587613103565b906130b760405180938193613144565b0390305af46130c461316c565b90156130ea57906001916130d88287612b95565b526130e38186612b95565b5001613087565b602081519101fd5b80606060208093880101520161307c565b9190811015612ba95760051b81013590601e19813603018212156102895701908135916001600160401b038311610289576020018236038113610289579190565b908092918237015f815290565b6001600160401b0381116106c557601f01601f191660200190565b3d15613196573d9061317d82613151565b9161318b60405193846106e5565b82523d5f602084013e565b606090565b60405190606082018281106001600160401b038211176106c5576040525f6040838281528260208201520152565b5f5f8051602061511f8339815191525d565b5f805160206150df8339815191525c15613213575b60015f805160206150df8339815191525c015f805160206150df8339815191525d565b345f8051602061513f8339815191525d5f5f805160206150df8339815191525d6131f0565b5f195f805160206150df8339815191525c015f805160206150df8339815191525d5f805160206150df8339815191525c15806132b6575b61327557565b5f8080805f8051602061513f8339815191525c815f8051602061513f8339815191525d335af1156132a257565b63d1b5191160e01b5f52601e60045260245ffd5b50600161326f565b90936001600160801b039092169290916132db9190810190614797565b6001600160a01b03821690600182036132fb575050506107159150615074565b60ff613308825160ff1690565b166001810361331f57505050610715923091613e63565b600281036134f45750602061333f910151602080825183010191016149ba565b73898118e029aa17ed4763f432c1bdc1085d166cde820361346e57604051623f675f60e91b81526001600160a01b038616600482015291602090839060249082905afa908115610dd6576134265f93928493849161344f575b506134186020840151936133b0604082015160ff1690565b60608201516080909201516040516323f2ebc360e21b60208201526001600160a01b038d16602482015230604482015260648101959095526084850196909652600160a485015260ff1660c484015260e4830152610104820193909352918290610124820190565b03601f1981018352826106e5565b60208151910182855af11561344057610715923091613e63565b63203aa5b560e11b5f5260045ffd5b613468915060203d60201161165f5761165181836106e5565b5f613398565b5f9150806134ef83925161341860208401519361348f604082015160ff1690565b606082015160809092015160405163d505accf60e01b60208201526001600160a01b038d1660248201523060448201526064810195909552608485019690965260ff1660a484015260c483015260e4820193909352918290610104820190565b613426565b929493929091506003810361359357505061350e90615060565b73419c606ed7dd9e411826a26ce9f146ed5a5f7c343b1561028957604051631b63c28b60e11b81526001600160a01b0392831660048201523060248201529082166044820152911660648201525f816084818373419c606ed7dd9e411826a26ce9f146ed5a5f7c345af18015610dd6576135855750565b80610dca5f610715936106e5565b600481036136eb575060206135b391015160208082518301019101614838565b906136686135c18351615060565b9261361b6135d8604083015165ffffffffffff1690565b6136006135e3610745565b6001600160a01b038a168152966001600160a01b03166020880152565b65ffffffffffff604087015265ffffffffffff166060860152565b6020810151613628610727565b9485523060208601526040850152608081015190613662613652606060a084015193015160ff1690565b60f81b6001600160f81b03191690565b916148a3565b9173419c606ed7dd9e411826a26ce9f146ed5a5f7c343b15610289576040516302b67b5760e41b8152925f91849182916136a791908860048501614942565b03818373419c606ed7dd9e411826a26ce9f146ed5a5f7c345af1918215610dd65761350e926136d7575b50615060565b80610dca5f6136e5936106e5565b5f6136d1565b9293926005146136fc575b50505050565b613716602061378492015160208082518301019101614838565b8051613732613723610736565b6001600160a01b039096168652565b6020850152604081015160208201519061374a610727565b9586526020860152604085015261375f610736565b308152926020840152608081015190613662613652606060a084015193015160ff1690565b9173419c606ed7dd9e411826a26ce9f146ed5a5f7c343b15610289576137c05f93604051958694859463187945bd60e11b8652600486016148ce565b03818373419c606ed7dd9e411826a26ce9f146ed5a5f7c345af18015610dd6576137ed575b8080806136f6565b80610dca5f6137fb936106e5565b5f6137e5565b612331906138168360801d8260801d01614a09565b926001600160801b03918216911601614a09565b6001600160a01b03811660010361385e5750505f8051602061513f8339815191525c015f8051602061513f8339815191525d565b60445f808093602095966040519763a9059cbb60e01b84526004526024525af13d15601f3d1160015f5114161716905f6060526040521561389b57565b633c9fd93960e21b5f5260045ffd5b60808101918251906138c38160c0850193845190613be0565b6138cd5750505050565b60a08301906138f982516138ea610cf4875160018060801b031690565b607f6127109260c51c16020490565b6001600160801b03166040850190815290815161393f90613932906001600160801b031687516001600160801b0316612c13565b612c13565b6001600160801b03168652565b8451613953906001600160801b0316610cf4565b151580613b9b575b15613b27576139768351613970885160801c90565b90614a5b565b60e086019061398e610cf48351613970895160801c90565b6001600160801b0390911610613b0e576139b1613a9b9151613970875160801c90565b87516139bd828261476d565b885190916001600160801b03918216918316821115613aa05750508751613a529190613a04906139f79083906001600160801b0316612c13565b6001600160801b03168a52565b613a39613a12848a5161476d565b60208b0180519091613a2c916001600160801b0316612aa6565b6001600160801b03169052565b8951906001600160801b0316608084901b175b90614aa2565b8852613a7e8651613a78613a66848361476d565b6001600160801b0316608085901b1790565b90614ab7565b86525b6060870180519091613a2c916001600160801b0316612aa6565b61393f565b909150613aad9250614a84565b613ad5613abb82885161476d565b6020890180519091613a2c916001600160801b0316612aa6565b87518751613af09190613a4c906001600160801b0316613a66565b8852613b048651613a78613a66848361476d565b86525f8752613a81565b50613a9b613b228451613970895160801c90565b6139b1565b5083519194509150613b41906001600160801b0316610cf4565b9283156136f657613b7b613a2c92613a2c613b6b613b9297855190607f6127109260c51c16020490565b82516001600160801b0316612c13565b5182516001600160801b031690610d4090826138ea565b5f8080806136f6565b50613baa818751865190613be0565b61395b565b600490613bc9926002820155019182549060801b90613801565b9055565b8181029291811591840414171561069157565b9091613c3191613c2790613c14613c046001600160801b038716608084901c613bcd565b6001600160801b03851690613bcd565b9460801c906001600160801b0316613bcd565b9060801c90613bcd565b1015613c3c57600190565b5f90565b909161071592806002840155600383015560018060e51b031681556001339101612c2c565b80546001600160e51b0316600160ff1b8101919082106106915755565b60018060e51b038154169160e51b82018092116106915755565b6040805182516001600160a01b03908116602080840191825285015182168385015293909201519091166060808301919091528152613cdc6080826106e5565b51902090565b91613d0e6002613bc994959395600381019660018060801b0388541615613d17575b5001918254613801565b90558254613801565b613d219082612c2c565b5f613d04565b93613d53919293600386019360018060801b0385541615613d84575b50613d0e60028701918254613801565b90556001600160a01b038116613d6857505050565b81613d7b6004926001613bc99501612c2c565b01918254613801565b613d8e9087612c2c565b5f613d43565b91909160018060a01b031690815f52600160205260405f20835f5260205260405f20805490828201809211610691575f925f805160206150ff83398151915292613de692556040519182913383612b34565b0390a4565b91613e10926020925f60405180968195829463067e356d60e21b845260048401612abf565b03926001600160a01b03165af1908115610dd6575f91613e2e575090565b90506020813d602011613e5b575b81613e49602093836106e5565b81010312610289575161105681610345565b3d9150613e3c565b6040516323b872dd60e01b81526001600160a01b03928316600482015292909116602483015260448201929092526020915f9160649183905af13d15601f3d1160015f51141617161561389b57565b80549092919061271060d99190911c603f166001600160801b03831602046001600160801b0316825281516001600160801b0316613eef91612c13565b6001600160801b0316606082018181526002840180549092613f1091614a84565b6001600160801b031660408401908152926004850190815490613f338260801c90565b60039097018054909760801b6001600160801b039091161784516001600160801b0316613f5f91614a84565b6001600160801b03908116602083018181529251613f7d9216612aa6565b90516001600160801b03166001600160801b031660809190911b17613fa191613801565b9055815492516001600160801b031690516001600160801b03166001600160801b031660809190911b179182613fd691613801565b9055815490613bc991613801565b6001600160a01b031660018103613ffa57503190565b6040516370a0823160e01b81526001600160a01b039092166004830152602090829060249082905afa908115610dd6575f91614035575b5090565b611056915060203d60201161165f5761165181836106e5565b6307ffffff60e51b8154169160018060e51b031682018092116106915755565b94939092969591966004860195838383888a548d6003870154600160801b6001900316600160801b6001900319831617906003015490816140ae91614a84565b9060801c6140bb91612c13565b9b8c916140d2906001600160801b03841690613801565b90556140dd95614ae0565b60048401805460038601549196916001600160801b03166001600160801b031982161760048b0154908161411091614a84565b9060801c61411d91612c13565b9687916001600160801b03831661413391613801565b905561413e95614ae0565b6001600160801b031660809190911b17918261071591614f12565b929193909361416661319b565b5061416f61319b565b9361417e600283015460801c90565b600383015496906141a89060801b6001600160801b0389161786516001600160801b031690614a84565b9482549760028401988954906141ca610cf46141c48460801c90565b83614f59565b6001600160801b038a161190811561469e575b5061468a576142aa9061427a61423061426a61424061421861420360048c015460801c90565b60038c015460018060801b03169060801b1790565b885161423b906001600160801b031694858093614a84565b986127338160801c90565b614a84565b61425a61424b610727565b6001600160801b039098168852565b6001600160801b03166020870152565b6001600160801b03166040850152565b6040830151929a8b9361429e906001600160801b031660808c901b175b8093614f6f565b90556003860154614f6f565b60038501556004840154815161430d91614300916001600160801b031660208501516142f1906001600160801b031692608083901b6001600160801b038516175b90614f6f565b600489015561392d8b8a614f84565b6001600160801b03168252565b8354604082015161434d9161433d9161432e906001600160801b0316610cf4565b603f6127109260d31c16020490565b6001600160801b03166020830152565b80516001600160801b03169160608101946143e260208751946143d48286019761437d895160018060a01b031690565b97604088019760806143958a5160018060a01b031690565b91018051909a906001600160a01b031660408701519093906143cd906001600160801b0316888a01516001600160801b031690612c13565b948a614d93565b01516001600160801b031690565b6001600160801b03811661466c575b505060018601546001600160a01b031661440e575b505050505050565b909192939497506004840192614425845460801c90565b600386018054909791614448918b9160801b6001600160801b0390911617614a84565b9961447a8a6144756004840154612733600261446c8561423b856127338160801c90565b96015460801c90565b61476d565b95614495614486610727565b6001600160801b03909d168d52565b6001600160801b0390911660208c01908152906001600160801b0390961660408c01908152958b8854928c60028b01948554916144de610cf46144d88560801c90565b84614f59565b6001600160801b039091161190828c831561463b575b505050614627576145e36145d38f946145b56146059f958f8f8061432e610cf46145a8946145ff9f8f61392d9f906145f19f6145e39f614558906145999561454f6142976139f7976123316143009f5160018060801b031690565b90558254614f6f565b905580548c519091906001600160801b03168b51909190614592906001600160801b031693608084901b6001600160801b038616176142eb565b9055612c13565b5492516001600160801b031690565b516001600160801b031690565b966001600160801b038816614610575b50516001600160801b031690565b965197516001600160a01b031690565b97516001600160a01b031690565b97516001600160801b031690565b95614d93565b5f8080808080614406565b61461f81546104918a60801b90565b90555f6145c5565b63d1b5191160e01b5f52602060045260245ffd5b5191925061465891610cf491906001600160801b03165b93614f59565b6001600160801b03909116115f828c6144f4565b614680600491610491838501549160801b90565b9101555f806143f1565b63d1b5191160e01b5f52601f60045260245ffd5b84519091506146bb90610cf49084906001600160801b0316614652565b6001600160801b03909116115f6141dd565b91909160018060a01b0316805f52600160205260405f20835f5260205260405f20805490838203918211610691575f935f805160206150ff83398151915292613de692556040519182913383612b34565b6001600160a01b031691823b1561028957614752925f9283604051809681958294637bd3ca3560e01b845260048401612abf565b03925af18015610dd6576147635750565b5f610715916106e5565b61105691608082901c6001600160801b03918216919092160204614a09565b60ff81160361028957565b602081830312610289578035906001600160401b03821161028957019060408282031261028957604051916147cb836106ca565b80356147d68161478c565b83526020810135906001600160401b038211610289570181601f820112156102895780359061480482613151565b9261481260405194856106e5565b8284526020838301011161028957815f9260208093018386013783010152602082015290565b908160c0910312610289576040519060c08201908282106001600160401b038311176106c55760a091604052805183526020810151602084015260408101516040840152606081015161488a8161478c565b606084015260808101516080840152015160a082015290565b929190604051936020850152604084015260ff60f81b166060830152604182526107156061836106e5565b909261492661010093604061105697966148fb8682516020809160018060a01b0381511684520151910152565b60208181015187840152910151606086015281516001600160a01b03166080860152015160a0840152565b6001600160a01b031660c082015260e081018290520190611d7b565b604061105694936101009360018060a01b0316835265ffffffffffff6060825160018060a01b03815116602087015260018060a01b036020820151168587015282858201511682870152015116608084015260018060a01b0360208201511660a0840152015160c08201528160e08201520190611d7b565b908160a0910312610289576080604051916149d4836106aa565b805183526020810151602084015260408101516149f08161478c565b6040840152606081015160608401520151608082015290565b6001600160801b038111614a23576001600160801b031690565b505f90565b6001600160801b03909116908115614a47576001600160801b03160490565b634e487b7160e01b5f52601260045260245ffd5b60bb1c6103ff16801561403157600a0260018060801b0381169081036106915761105691614a28565b611056916001600160801b0380831660809390931c91160204614a09565b612331906138168360801d8260801d03614a09565b61233190614acc8360801d8260801d01614a09565b926001600160801b03908116911603614a09565b93909291614b04606460dd83901c601f166001600160801b03871602048095612c13565b6001600160801b03811693909190606460fa83901c86020491606460f482901c603f168702049489614b5b606460ee85901c603f168a020498606460e886901c603f168202045b9490603f60649260e21c16020490565b976001600160a01b0383169081614c3d575050505050614b7b5f83612aa6565b335f9081526005909801602081905260409098206001600160801b0391909116815490614ba791612b27565b9055614bb38585612aa6565b6001600160801b031690614bd790889060018060a01b03165f5260205260405f2090565b90815490614be491612b27565b9055614bef91612c13565b90614bf991612c13565b90614c0391612c13565b90614c0d91612aa6565b6001600160801b031691614c30919060018060a01b03165f5260205260405f2090565b90815490613bc991612b27565b6104349750918b9391614d419b9593610cf49b98975f9b614d549f6001614c6b91015460018060a01b031690565b6001600160a01b039586169581168614158e14614d82576001600160a01b03165f9081526005890160205260409020614cb2905b805490926001600160801b031690612b27565b90555b6001600160a01b0381168414158c14614d71576001600160a01b03165f9081526005870160205260409020614ce990614c9f565b90555b14158814614d57576001600160a01b03165f90815260058084016020526040909120614d3a93614c9f939091614d1f9085565b90555b019a8b9060018060a01b03165f5260205260405f2090565b9055612aa6565b335f908152602093909352604090922090565b55565b506005614d6b614c9f92614d3a9495612aa6565b93614d22565b50614d7c9196612aa6565b94614cec565b50614d8d9198612aa6565b96614cb5565b9495909390929091614dbb606460dd83901c601f166001600160801b03881602048096612c13565b6001600160801b03811694909290606460fa84901c87020492606460f482901c603f16880204958a614e06606460ee85901c603f168b020499606460e886901c603f16820204614b4b565b986001600160a01b0383169081614e26575050505050614b7b9083612aa6565b6104349850908c94939291610cf49b9897614d419d979b614d549f6001614e5491015460018060a01b031690565b6001600160a01b039586169581168614614f01576001600160a01b03165f9081526005890160205260409020614e8990614c9f565b90555b6001600160a01b0381168414614ef0576001600160a01b03165f9081526005870160205260409020614ebd90614c9f565b90555b14614d57576001600160a01b03165f90815260058084016020526040909120614d3a93614c9f939091614d1f9085565b50614efb9196612aa6565b94614ec0565b50614f0c9198612aa6565b96614e8c565b600381018054614f2d906001600160801b0319851690613801565b905560018101546001600160a01b0316614f45575050565b6004613bc991019182549060801b90613801565b60b11c6103ff1680156140315761105691614a28565b61233190614acc8360801d8260801d03614a09565b90613bc99060038301615008614fd7825495614fa08760801c90565b90614fe86002820198612331614fb78b5460801c90565b6001600160801b03908116968a8216968892889291168202839004614a09565b936001600160801b03160204614a09565b60018201549093906001600160a01b0316615015575b5050508254614f6f565b905582549060801b6142eb565b6142eb6004615056930193612331855493615044818460018060801b0361503c8960801c90565b160204614a09565b926001600160801b0386160204614a09565b90555f8080614ffe565b6001600160a01b038116908103614a235790565b5f8051602061513f8339815191525c81116150aa575f8051602061513f8339815191525c035f8051602061513f8339815191525d565b63d1b5191160e01b5f52601c60045260245ffdfe5d72191643a9d630c58937d62f5e056dcfa8dbf1aced1cb2f655ee1d7ecaf57787b52c29898e62efc1f9a9b00a26dcbdaee98d728c56841703077b7c0d20dee71b3d7edb2e9c0b0e7c525b20aaaef0f5940d2ed71663c7d39266ecafac728859e2afc7ec4dbb9bfdb1b8e8bcf21a055747c25bf2faaea9cb5a134005381f4843cbe27d488af5b5c1b0bd8d89be6fdfeaed3ad42719044fd9b728f33df1d6f1d1a2646970667358221220bde055e92660fd2edd3d407d8d7cb95a25ce2147d41915522e00e27e550481d564736f6c634300081a0033","linkReferences":{}},"methodIdentifiers":{"addbanlist(address)":"b153b920","allowance(address,address,uint256)":"598af9e7","approve(address,uint256,uint256)":"426a8493","balanceOf(address,uint256)":"00fdd58e","buyGood(address,address,uint128,uint256,bool,address,bytes)":"13a124c3","changeGoodOwner(address,address)":"41e12373","changemarketcreator(address)":"a06ad0e8","collectCommission(address[])":"0d2700ab","collectProof(uint256,address)":"a676a600","disinvestProof(uint256,uint128,address)":"f4662f20","flashFee(address,uint256)":"d9d98ce4","flashLoan(address,address,uint256,bytes)":"5cffe9de","getGoodState(address)":"08238466","getProofState(uint256)":"3f117740","goodWelfare(address,uint128,bytes)":"06cf4e7f","initGood(address,uint256,address,uint256,bytes,bytes)":"5f755d65","initMetaGood(address,uint256,uint256,bytes)":"51ff9a16","investGood(address,address,uint128,bytes,bytes)":"f878e809","isOperator(address,address)":"b6363cf2","ishigher(address,address,uint256)":"1412723a","marketconfig()":"402f5ab5","marketcreator()":"3d995173","maxFlashLoan(address)":"613255ab","modifyGoodConfig(address,uint256)":"b1efb921","multicall(bytes[])":"ac9650d8","queryCommission(address[],address)":"9b222794","removeMarketor(address)":"cc00da2d","removeSecurityKeeper()":"c9544f18","removebanlist(address)":"9551177a","securityKeeper(address)":"3c9fe544","setMarketConfig(uint256)":"45818e4c","setMarketor(address)":"102e5c27","setOperator(address,bool)":"558a7297","supportsInterface(bytes4)":"01ffc9a7","transfer(address,uint256,uint256)":"095bcdb6","transferFrom(address,address,uint256,uint256)":"fe99049a","updateGoodConfig(address,uint256)":"a3b74a49","userConfig(address)":"5f35b0b3"},"id":46}