{"abi":[{"type":"constructor","inputs":[{"name":"_usdt","type":"address","internalType":"address"},{"name":"_dao_admin","type":"address","internalType":"address"},{"name":"_ttsconfig","type":"uint256","internalType":"uint256"}],"stateMutability":"nonpayable"},{"type":"function","name":"DOMAIN_SEPARATOR","inputs":[],"outputs":[{"name":"","type":"bytes32","internalType":"bytes32"}],"stateMutability":"view"},{"type":"function","name":"addShare","inputs":[{"name":"_share","type":"tuple","internalType":"struct s_share","components":[{"name":"recipient","type":"address","internalType":"address"},{"name":"leftamount","type":"uint128","internalType":"uint128"},{"name":"metric","type":"uint120","internalType":"uint120"},{"name":"chips","type":"uint8","internalType":"uint8"}]}],"outputs":[],"stateMutability":"nonpayable"},{"type":"function","name":"addauths","inputs":[{"name":"_auths","type":"address","internalType":"address"},{"name":"_priv","type":"uint256","internalType":"uint256"}],"outputs":[],"stateMutability":"nonpayable"},{"type":"function","name":"addreferral","inputs":[{"name":"user","type":"address","internalType":"address"},{"name":"referral","type":"address","internalType":"address"}],"outputs":[],"stateMutability":"nonpayable"},{"type":"function","name":"allowance","inputs":[{"name":"","type":"address","internalType":"address"},{"name":"","type":"address","internalType":"address"}],"outputs":[{"name":"","type":"uint256","internalType":"uint256"}],"stateMutability":"view"},{"type":"function","name":"approve","inputs":[{"name":"spender","type":"address","internalType":"address"},{"name":"amount","type":"uint256","internalType":"uint256"}],"outputs":[{"name":"","type":"bool","internalType":"bool"}],"stateMutability":"nonpayable"},{"type":"function","name":"auths","inputs":[{"name":"","type":"address","internalType":"address"}],"outputs":[{"name":"","type":"uint256","internalType":"uint256"}],"stateMutability":"view"},{"type":"function","name":"balanceOf","inputs":[{"name":"","type":"address","internalType":"address"}],"outputs":[{"name":"","type":"uint256","internalType":"uint256"}],"stateMutability":"view"},{"type":"function","name":"burn","inputs":[{"name":"account","type":"address","internalType":"address"},{"name":"value","type":"uint256","internalType":"uint256"}],"outputs":[],"stateMutability":"nonpayable"},{"type":"function","name":"burnShare","inputs":[{"name":"index","type":"uint8","internalType":"uint8"}],"outputs":[],"stateMutability":"nonpayable"},{"type":"function","name":"changeDAOAdmin","inputs":[{"name":"_recipient","type":"address","internalType":"address"}],"outputs":[],"stateMutability":"nonpayable"},{"type":"function","name":"dao_admin","inputs":[],"outputs":[{"name":"","type":"address","internalType":"address"}],"stateMutability":"view"},{"type":"function","name":"decimals","inputs":[],"outputs":[{"name":"","type":"uint8","internalType":"uint8"}],"stateMutability":"view"},{"type":"function","name":"getreferralanddaoadmin","inputs":[{"name":"_customer","type":"address","internalType":"address"}],"outputs":[{"name":"","type":"address","internalType":"address"},{"name":"","type":"address","internalType":"address"}],"stateMutability":"view"},{"type":"function","name":"left_share","inputs":[],"outputs":[{"name":"","type":"uint128","internalType":"uint128"}],"stateMutability":"view"},{"type":"function","name":"marketcontract","inputs":[],"outputs":[{"name":"","type":"address","internalType":"address"}],"stateMutability":"view"},{"type":"function","name":"name","inputs":[],"outputs":[{"name":"","type":"string","internalType":"string"}],"stateMutability":"view"},{"type":"function","name":"nonces","inputs":[{"name":"","type":"address","internalType":"address"}],"outputs":[{"name":"","type":"uint256","internalType":"uint256"}],"stateMutability":"view"},{"type":"function","name":"permit","inputs":[{"name":"owner","type":"address","internalType":"address"},{"name":"spender","type":"address","internalType":"address"},{"name":"value","type":"uint256","internalType":"uint256"},{"name":"deadline","type":"uint256","internalType":"uint256"},{"name":"v","type":"uint8","internalType":"uint8"},{"name":"r","type":"bytes32","internalType":"bytes32"},{"name":"s","type":"bytes32","internalType":"bytes32"}],"outputs":[],"stateMutability":"nonpayable"},{"type":"function","name":"poolstate","inputs":[],"outputs":[{"name":"","type":"uint256","internalType":"uint256"}],"stateMutability":"view"},{"type":"function","name":"publicSell","inputs":[{"name":"usdtamount","type":"uint256","internalType":"uint256"},{"name":"data","type":"bytes","internalType":"bytes"}],"outputs":[],"stateMutability":"nonpayable"},{"type":"function","name":"publicsell","inputs":[],"outputs":[{"name":"","type":"uint128","internalType":"uint128"}],"stateMutability":"view"},{"type":"function","name":"referrals","inputs":[{"name":"","type":"address","internalType":"address"}],"outputs":[{"name":"","type":"address","internalType":"address"}],"stateMutability":"view"},{"type":"function","name":"rmauths","inputs":[{"name":"_auths","type":"address","internalType":"address"}],"outputs":[],"stateMutability":"nonpayable"},{"type":"function","name":"setEnv","inputs":[{"name":"_marketcontract","type":"address","internalType":"address"}],"outputs":[],"stateMutability":"nonpayable"},{"type":"function","name":"setRatio","inputs":[{"name":"_ratio","type":"uint256","internalType":"uint256"}],"outputs":[],"stateMutability":"nonpayable"},{"type":"function","name":"shareMint","inputs":[{"name":"index","type":"uint8","internalType":"uint8"}],"outputs":[],"stateMutability":"nonpayable"},{"type":"function","name":"shares","inputs":[{"name":"","type":"uint32","internalType":"uint32"}],"outputs":[{"name":"recipient","type":"address","internalType":"address"},{"name":"leftamount","type":"uint128","internalType":"uint128"},{"name":"metric","type":"uint120","internalType":"uint120"},{"name":"chips","type":"uint8","internalType":"uint8"}],"stateMutability":"view"},{"type":"function","name":"shares_index","inputs":[],"outputs":[{"name":"","type":"uint32","internalType":"uint32"}],"stateMutability":"view"},{"type":"function","name":"stake","inputs":[{"name":"_staker","type":"address","internalType":"address"},{"name":"proofvalue","type":"uint128","internalType":"uint128"}],"outputs":[{"name":"netconstruct","type":"uint128","internalType":"uint128"}],"stateMutability":"nonpayable"},{"type":"function","name":"stakeproof","inputs":[{"name":"","type":"uint256","internalType":"uint256"}],"outputs":[{"name":"fromcontract","type":"address","internalType":"address"},{"name":"proofstate","type":"uint256","internalType":"uint256"}],"stateMutability":"view"},{"type":"function","name":"stakestate","inputs":[],"outputs":[{"name":"","type":"uint256","internalType":"uint256"}],"stateMutability":"view"},{"type":"function","name":"symbol","inputs":[],"outputs":[{"name":"","type":"string","internalType":"string"}],"stateMutability":"view"},{"type":"function","name":"totalSupply","inputs":[],"outputs":[{"name":"","type":"uint256","internalType":"uint256"}],"stateMutability":"view"},{"type":"function","name":"transfer","inputs":[{"name":"to","type":"address","internalType":"address"},{"name":"amount","type":"uint256","internalType":"uint256"}],"outputs":[{"name":"","type":"bool","internalType":"bool"}],"stateMutability":"nonpayable"},{"type":"function","name":"transferFrom","inputs":[{"name":"from","type":"address","internalType":"address"},{"name":"to","type":"address","internalType":"address"},{"name":"amount","type":"uint256","internalType":"uint256"}],"outputs":[{"name":"","type":"bool","internalType":"bool"}],"stateMutability":"nonpayable"},{"type":"function","name":"ttstokenconfig","inputs":[],"outputs":[{"name":"","type":"uint256","internalType":"uint256"}],"stateMutability":"view"},{"type":"function","name":"unstake","inputs":[{"name":"_staker","type":"address","internalType":"address"},{"name":"proofvalue","type":"uint128","internalType":"uint128"}],"outputs":[],"stateMutability":"nonpayable"},{"type":"function","name":"usdt","inputs":[],"outputs":[{"name":"","type":"address","internalType":"address"}],"stateMutability":"view"},{"type":"function","name":"withdrawPublicSell","inputs":[{"name":"amount","type":"uint256","internalType":"uint256"},{"name":"recipient","type":"address","internalType":"address"}],"outputs":[],"stateMutability":"nonpayable"},{"type":"event","name":"Approval","inputs":[{"name":"owner","type":"address","indexed":true,"internalType":"address"},{"name":"spender","type":"address","indexed":true,"internalType":"address"},{"name":"amount","type":"uint256","indexed":false,"internalType":"uint256"}],"anonymous":false},{"type":"event","name":"Transfer","inputs":[{"name":"from","type":"address","indexed":true,"internalType":"address"},{"name":"to","type":"address","indexed":true,"internalType":"address"},{"name":"amount","type":"uint256","indexed":false,"internalType":"uint256"}],"anonymous":false},{"type":"event","name":"e_addShare","inputs":[{"name":"recipient","type":"address","indexed":false,"internalType":"address"},{"name":"leftamount","type":"uint256","indexed":false,"internalType":"uint256"},{"name":"metric","type":"uint120","indexed":false,"internalType":"uint120"},{"name":"chips","type":"uint8","indexed":false,"internalType":"uint8"},{"name":"index","type":"uint32","indexed":false,"internalType":"uint32"}],"anonymous":false},{"type":"event","name":"e_addauths","inputs":[{"name":"auths","type":"address","indexed":false,"internalType":"address"},{"name":"priv","type":"uint256","indexed":false,"internalType":"uint256"}],"anonymous":false},{"type":"event","name":"e_addreferral","inputs":[{"name":"users","type":"address","indexed":false,"internalType":"address"},{"name":"referral","type":"address","indexed":false,"internalType":"address"}],"anonymous":false},{"type":"event","name":"e_burnShare","inputs":[{"name":"index","type":"uint32","indexed":false,"internalType":"uint32"}],"anonymous":false},{"type":"event","name":"e_publicsell","inputs":[{"name":"usdtamount","type":"uint256","indexed":false,"internalType":"uint256"},{"name":"ttsamount","type":"uint256","indexed":false,"internalType":"uint256"}],"anonymous":false},{"type":"event","name":"e_rmauths","inputs":[{"name":"auths","type":"address","indexed":false,"internalType":"address"}],"anonymous":false},{"type":"event","name":"e_setdaoadmin","inputs":[{"name":"recipient","type":"address","indexed":false,"internalType":"address"}],"anonymous":false},{"type":"event","name":"e_setenv","inputs":[{"name":"marketcontract","type":"address","indexed":false,"internalType":"address"}],"anonymous":false},{"type":"event","name":"e_shareMint","inputs":[{"name":"mintamount","type":"uint128","indexed":false,"internalType":"uint128"},{"name":"index","type":"uint32","indexed":false,"internalType":"uint32"}],"anonymous":false},{"type":"event","name":"e_stakeinfo","inputs":[{"name":"recipient","type":"address","indexed":false,"internalType":"address"},{"name":"proofvalue","type":"uint256","indexed":false,"internalType":"uint256"},{"name":"unstakestate","type":"uint256","indexed":false,"internalType":"uint256"},{"name":"stakestate","type":"uint256","indexed":false,"internalType":"uint256"},{"name":"poolstate","type":"uint256","indexed":false,"internalType":"uint256"}],"anonymous":false},{"type":"event","name":"e_syncChainStake","inputs":[{"name":"chain","type":"uint32","indexed":false,"internalType":"uint32"},{"name":"poolasset","type":"uint128","indexed":false,"internalType":"uint128"},{"name":"proofstate","type":"uint256","indexed":false,"internalType":"uint256"}],"anonymous":false},{"type":"event","name":"e_updatepool","inputs":[{"name":"poolstate","type":"uint256","indexed":false,"internalType":"uint256"}],"anonymous":false},{"type":"event","name":"e_updatettsconfig","inputs":[{"name":"ttsconfig","type":"uint256","indexed":false,"internalType":"uint256"}],"anonymous":false},{"type":"error","name":"ERC20PermitFailed","inputs":[]},{"type":"error","name":"ERC20TransferFailed","inputs":[]},{"type":"error","name":"TTSwapError","inputs":[{"name":"seq","type":"uint256","internalType":"uint256"}]}],"bytecode":{"object":"0x61010080604052346104985760608161334b8038038091610020828561049c565b83398101031261049857610033816104bf565b906040610042602083016104bf565b910151906040519261005560408561049c565b600c84526b2a2a29bbb0b8102a37b5b2b760a11b60208501526040519361007d60408661049c565b600385526254545360e81b60208601528051906001600160401b0382116103bc5781906100aa5f546104d3565b601f811161043e575b50602090601f83116001146103db575f926103d0575b50508160011b915f199060031b1c1916175f555b83516001600160401b0381116103bc576100f86001546104d3565b601f8111610359575b50602094601f82116001146102f6579481929394955f926102eb575b50508160011b915f199060031b1c1916176001555b60066080524660a0526040515f905f54918161014d846104d3565b9182825260208201946001811690815f146102cf5750600114610285575b6101779250038261049c565b51902060405160208101917f8b73c3c69bb8fe3d512ecc4cf759cc79239f7b179b0ffacaa9a75d522b39400f835260408201527fc89efdaa54c0f20c7adf612882df0950f5a951637e0307cdcb4c672f298b8bc660608201524660808201523060a082015260a081526101eb60c08261049c565b51902060c052600d80546001600160801b03199081166528ed6103d0001790915560e0919091524260801b16600855600b80546001600160a01b0319166001600160a01b0392909216919091179055600655604051612e1f908161050c823960805181610a17015260a05181611f0b015260c05181611f31015260e0518181816109540152818161191f01528181611b8d0152611da50152f35b505f80805290915f8051602061332b8339815191525b8183106102b35750509060206101779282010161016b565b602091935080600191548385880101520191019091839261029b565b60ff191686525061017792151560051b8201602001905061016b565b015190505f8061011d565b601f1982169560015f52805f20915f5b88811061034157508360019596979810610329575b505050811b01600155610132565b01515f1960f88460031b161c191690555f808061031b565b91926020600181928685015181550194019201610306565b60015f527fb10e2d527612073b26eecdfd717e6a320cf44b4afac2b0732d9fcbe2b7fa0cf6601f830160051c810191602084106103b2575b601f0160051c01905b8181106103a75750610101565b5f815560010161039a565b9091508190610391565b634e487b7160e01b5f52604160045260245ffd5b015190505f806100c9565b5f8080528281209350601f198516905b818110610426575090846001959493921061040e575b505050811b015f556100dd565b01515f1960f88460031b161c191690555f8080610401565b929360206001819287860151815501950193016103eb565b5f80529091505f8051602061332b833981519152601f840160051c8101916020851061048e575b90601f859493920160051c01905b81811061048057506100b3565b5f8155849350600101610473565b9091508190610465565b5f80fd5b601f909101601f19168101906001600160401b038211908210176103bc57604052565b51906001600160a01b038216820361049857565b90600182811c92168015610501575b60208310146104ed57565b634e487b7160e01b5f52602260045260245ffd5b91607f16916104e256fe60806040526004361015610011575f80fd5b5f3560e01c806306afa12a1461029457806306fdde031461028f578063095ea7b31461028a57806318160ddd1461028557806319f8d5b41461028057806323b872dd1461027b578063297f24bf146102765780632bf960da146102715780632f48ab7d1461026c5780632ff908cc14610267578063313ce567146102625780633644e5151461025d5780633b107e21146102585780633cba316b1461025357806345fda7071461024e578063542128dd14610249578063623059a51461024457806364e72dbd1461023f578063696bb4ad1461023a57806369a5ac32146102355780636f55aece1461023057806370a082311461022b5780637bd3ca35146102265780637ecebe0014610221578063845fcee41461021c5780639241bda61461021757806395d89b41146102125780639ca423b31461020d5780639dc29fac14610208578063a538e6a914610203578063a9059cbb146101fe578063b2237ba3146101f9578063b88e6d63146101f4578063cae97640146101ef578063d505accf146101ea578063dd62ed3e146101e5578063de5712d4146101e0578063df876548146101db578063e7b43e7d146101d65763eca93cce146101d1575f80fd5b611c23565b611b49565b611874565b611854565b611810565b6115f5565b6115d8565b61158a565b6114d7565b61145f565b611437565b6113cd565b61138a565b6112e5565b61120d565b6111e5565b6111aa565b610f85565b610f4a565b610ecd565b610e3c565b610e16565b610ddb565b610dbe565b610d23565b610cfb565b610c6d565b610a5d565b610a3b565b6109fe565b610983565b61093f565b610917565b6108b8565b61077a565b610573565b610520565b610494565b6103b0565b346102dd5760203660031901126102dd576004355f908152600a6020908152604091829020805460019091015483516001600160a01b03909216825291810191909152f35b0390f35b5f80fd5b5f9103126102dd57565b90600182811c92168015610319575b602083101461030557565b634e487b7160e01b5f52602260045260245ffd5b91607f16916102fa565b634e487b7160e01b5f52604160045260245ffd5b604081019081106001600160401b0382111761035257604052565b610323565b90601f801991011681019081106001600160401b0382111761035257604052565b805180835260209291819084018484015e5f828201840152601f01601f1916010190565b9060206103ad928181520190610378565b90565b346102dd575f3660031901126102dd576040515f80546103cf816102eb565b808452906001811690811561045f5750600114610403575b6102d9836103f781850382610357565b6040519182918261039c565b5f8080527f290decd9548b62a8d60345a988386fc84ba6bc95484008f6362f93160ef3e563939250905b808210610445575090915081016020016103f76103e7565b91926001816020925483858801015201910190929161042d565b60ff191660208086019190915291151560051b840190910191506103f790506103e7565b6001600160a01b038116036102dd57565b346102dd5760403660031901126102dd576004356104b181610483565b60243590335f526004602052816104db8260405f209060018060a01b03165f5260205260405f2090565b556040519182526001600160a01b03169033907f8c5be1e5ebec7d5bd14f71427d1e84f3dd0314c0f7b2291e5b200ac8c7c3b92590602090a360405160018152602090f35b346102dd575f3660031901126102dd576020600254604051908152f35b6001600160801b038116036102dd57565b60409060031901126102dd5760043561056681610483565b906024356103ad8161053d565b346102dd576105813661054e565b335f908152600f60205260409020545f1901610766577fff4f1caf741747da03068e051490a9f142dac5b961014b67ce28f5465061a68f6102d9926105c46122c3565b60016106d160405160208101906105ee816105e0338886611570565b03601f198101835282610357565b5190206106ae60095496848060801b03881680155f1461073c575061062e6106295f995b60808b901b6001600160801b038c16175b906123a8565b600955565b60085461064d90610648906001600160801b038416610623565b600855565b61068233610663855f52600a60205260405f2090565b80546001600160a01b0319166001600160a01b03909216919091179055565b6106238886610699865f52600a60205260405f2090565b01549260801b6001600160801b039091161790565b836106c1835f52600a60205260405f2090565b01555f52600a60205260405f2090565b01549061071f6001600160801b0385165b600854600954604080516001600160a01b0390961686526020860196909652948401919091526060830152608082019290925290819060a0820190565b0390a16040516001600160801b0390911681529081906020820190565b61062961076061062e92888060801b036008541690898060801b0386160204612cbc565b99610612565b63d1b5191160e01b5f52601a60045260245ffd5b346102dd5760603660031901126102dd5760043561079781610483565b602435906107a482610483565b6001600160a01b0381165f8181526004602090815260408083203384529091529020546044359391929060018101610855575b506001600160a01b03165f9081526003602052604090205f80516020612daa83398151915291610846915b61080d868254611d05565b90556001600160a01b0381165f9081526003602052604090208054860190556040519485526001600160a01b0316939081906020820190565b0390a360405160018152602090f35b918483039283116108b357610802610846925f80516020612daa833981519152946108a9336108948460018060a01b03165f52600460205260405f2090565b9060018060a01b03165f5260205260405f2090565b55925050916107d7565b611cd9565b346102dd5760403660031901126102dd576024356004356001600160401b0382116102dd57366023830112156102dd578160040135906001600160401b0382116102dd5736602483850101116102dd576024610915930190611d12565b005b346102dd575f3660031901126102dd57600c546040516001600160a01b039091168152602090f35b346102dd575f3660031901126102dd576040517f00000000000000000000000000000000000000000000000000000000000000006001600160a01b03168152602090f35b346102dd5760203660031901126102dd576004356109a081610483565b600b546001600160a01b031633036102dd57600c80546001600160a01b0319166001600160a01b0390921691821790556040519081527f5497e30355b3c259b1bd1d2577607edc2872c70543f17f29bcab333caf74c31590602090a1005b346102dd575f3660031901126102dd57602060405160ff7f0000000000000000000000000000000000000000000000000000000000000000168152f35b346102dd575f3660031901126102dd576020610a55611f08565b604051908152f35b346102dd5760803660031901126102dd57610a796006546123d1565b15610c5957600d546001600160801b0316610aa1610a95612084565b6001600160801b031690565b6001600160801b038216108015610c33575b610c1f57610ade610b0091610ad8610acc610acc612084565b6001600160401b031690565b90612090565b600d80546001600160801b0319166001600160801b0392909216919091179055565b610b43610b1e610b19600c5463ffffffff9060a01c1690565b6120a9565b600c805463ffffffff60a01b191660a09290921b63ffffffff60a01b16919091179055565b610b75610b70610b5c600c5463ffffffff9060a01c1690565b63ffffffff165f52600760205260405f2090565b6120ef565b7f259b626a3ac57abbad46c244a9bc2a13c0b530c618e9654be9351bd104cffcae610b9e6120c1565b610ba6612084565b90610c1a610bb26120cd565b610bba6120e3565b600c5460a01c63ffffffff16604080516001600160a01b0390961686526001600160801b0390961660208601526001600160781b039092169484019490945260ff909316606083015263ffffffff909216608082015290819060a0820190565b0390a1005b63d1b5191160e01b5f52601660045260245ffd5b50600b54610c51906001600160a01b03165b6001600160a01b031690565b331415610ab3565b63d1b5191160e01b5f52600f60045260245ffd5b346102dd5760203660031901126102dd57600435610c8a81610483565b600b54906001600160a01b0382163303610ce7576001600160a01b03166001600160a01b0319919091168117600b556040519081527f853baecd5c22fcf8a4d994474a066771c51cfe6022b046e92a09874610cd128190602090a1005b63d1b5191160e01b5f52601360045260245ffd5b346102dd575f3660031901126102dd57600d546040516001600160801b039091168152602090f35b346102dd5760403660031901126102dd57600435610d4081610483565b602435600b546001600160a01b03163303610daa576001600160a01b039091165f818152600f602090815260409182902084905581519283528201929092527f967d50df84a5ebb45902fa277d5c3b0bc6403497c9fd6da2ecbd9ed420038f149181908101610c1a565b63d1b5191160e01b5f52601460045260245ffd5b346102dd575f3660031901126102dd576020600654604051908152f35b346102dd5760203660031901126102dd57600435610df881610483565b60018060a01b03165f52600f602052602060405f2054604051908152f35b346102dd575f3660031901126102dd57602063ffffffff600c5460a01c16604051908152f35b346102dd5760203660031901126102dd57600435610e5981610483565b600b546001600160a01b03163303610eb9576001600160a01b03165f818152600f602090815260408083209290925590519182527f3680a8b72561b4141a1464124f40242ac80a59d51d29649d9b0b442c255b6289919081908101610c1a565b63d1b5191160e01b5f52601560045260245ffd5b346102dd5760203660031901126102dd5760043563ffffffff81168091036102dd575f90815260076020908152604091829020805460019091015483516001600160a01b0390921682526001600160801b03811692820192909252608082811c6001600160781b03169382019390935260f89190911c6060820152f35b346102dd5760203660031901126102dd57600435610f6781610483565b60018060a01b03165f526003602052602060405f2054604051908152f35b346102dd57610f933661054e565b335f908152600f6020526040902054909182915f1901611196577fff4f1caf741747da03068e051490a9f142dac5b961014b67ce28f5465061a68f92610fd76122c3565b6040516020810190610fee816105e0338786611570565b51902092611014610a95600161100c875f52600a60205260405f2090565b015460801c90565b6001600160801b03831610611130575050610c1a6106e2611042600161100c865f52600a60205260405f2090565b93600161110b6110ed8261105e855f52600a60205260405f2090565b01548098611082611077875f52600a60205260405f2090565b60015f918281550155565b6110c861064861109460095460801c90565b600854906110c2906110b590869060801b6001600160801b03851617612ca2565b946001600160801b031690565b90612c79565b6009546110e89061062990608084901b6001600160801b038616176110c2565b612090565b92828060801b03841680611120575b505f52600a60205260405f2090565b01549460801b6001600160801b039091161790565b61112a9088612c13565b5f6110fc565b83600161110b6110ed856106e295611162610c1a988661115b61117c9d5f52600a60205260405f2090565b0154612c5a565b998a926110c284886106998b5f52600a60205260405f2090565b8561118f885f52600a60205260405f2090565b0155611082565b63d1b5191160e01b5f52601b60045260245ffd5b346102dd5760203660031901126102dd576004356111c781610483565b60018060a01b03165f526005602052602060405f2054604051908152f35b346102dd575f3660031901126102dd576020600954604051908152f35b60ff8116036102dd57565b346102dd5760203660031901126102dd5760043561122a81611202565b6112356006546123d1565b15610c5957600b546001600160a01b031633036112d1576110778160ff61091593165f526007602052611291610ade611280610acc610acc600160405f20015460018060801b031690565b600d546001600160801b0316611e94565b60405160ff821681527f568d364b674966bdb889933148a94e885581320f54b5d65d04bda235eea7fe4890602090a160ff165f52600760205260405f2090565b63d1b5191160e01b5f52601660045260245ffd5b346102dd575f3660031901126102dd576040515f600154611305816102eb565b808452906001811690811561045f575060011461132c576102d9836103f781850382610357565b60015f9081527fb10e2d527612073b26eecdfd717e6a320cf44b4afac2b0732d9fcbe2b7fa0cf6939250905b808210611370575090915081016020016103f76103e7565b919260018160209254838588010152019101909291611358565b346102dd5760203660031901126102dd576004356113a781610483565b60018060a01b03165f52600e602052602060018060a01b0360405f205416604051908152f35b346102dd5760403660031901126102dd576004356113ea81610483565b6001600160a01b03165f818152600360205260409020805460243592918382039182116108b3575f935f80516020612daa83398151915292602092558060025403600255604051908152a3005b346102dd575f3660031901126102dd57600b546040516001600160a01b039091168152602090f35b346102dd5760403660031901126102dd5760043561147c81610483565b60243590335f52600360205260405f208054908382039182116108b3575560018060a01b031690815f52600360205260405f208181540190555f80516020612daa833981519152604051806108463394829190602083019252565b346102dd5760203660031901126102dd5760043561271081118015611559575b611545576115109061ffff801960065416911601600655565b6006546040519081527f23a413df5b1fc0945373ace790cb8288a224212397d5bfc6e2a9b82a4396bbc4908060208101610c1a565b63d1b5191160e01b5f52601160045260245ffd5b50335f52600f602052600260405f205414156114f7565b6001600160a01b0391821681529116602082015260400190565b346102dd5760203660031901126102dd576004356115a781610483565b600b546001600160a01b039182165f908152600e6020526040908190205490519283926102d9928216911683611570565b346102dd575f3660031901126102dd576020600854604051908152f35b346102dd5760e03660031901126102dd5760043561161281610483565b60243561161e81610483565b6044359060205f60843560643561163482611202565b61173d60a4359160c4359061164b428210156121ac565b6105e06117138b8b6116ea8c6105e0611662611f08565b6001600160a01b0386165f90815260056020526040902090989080549060018201905560405195602094879586019889919260a093969594919660c08401977f6e71edae12b1b97f4d1f60370fef10105fa2faae0126114a169c64845d6126c98552600180871b03166020850152600180861b03166040840152606083015260808201520152565b5190206040519283918b83019586909160429261190160f01b8352600283015260228201520190565b51902092604051948594859094939260ff6060936080840197845216602083015260408201520152565b838052039060015afa156117e6576117ce81836117af7f8c5be1e5ebec7d5bd14f71427d1e84f3dd0314c0f7b2291e5b200ac8c7c3b925946108945f5161179660018060a01b03821680151590816117d3575b506121fd565b6001600160a01b03165f90815260046020526040902090565b556040519384526001600160a01b039081169416929081906020820190565b0390a3005b6001600160a01b038d161490505f611790565b6121f2565b60409060031901126102dd5760043561180381610483565b906024356103ad81610483565b346102dd57602061184b611823366117eb565b6001600160a01b039182165f9081526004855260408082209290931681526020919091522090565b54604051908152f35b346102dd575f3660031901126102dd576020600d5460801c604051908152f35b346102dd5760203660031901126102dd5760043561189181611202565b61189c6006546123d1565b15610c5957600c5461195b906020906118bf90610c45906001600160a01b031681565b6119026118fd6118f86118f360016118e28960ff165f52600760205260405f2090565b015460801c6001600160781b031690565b61223a565b611ead565b612252565b604051630a09391d60e11b81523060048201526001600160a01b037f0000000000000000000000000000000000000000000000000000000000000000166024820152604481019190915292839190829081906064820190565b03915afa9081156117e6575f91611b1a575b508015611ae9575b611ad557806119f76119c660016119b87f83592ad363894b5c4d81b2113457c5a1683230ce1c133eefa927d17f65cd5ca09560ff165f52600760205260405f2090565b01546001600160801b031690565b6119f16119eb60016119e38660ff165f52600760205260405f2090565b015460f81c90565b60ff1690565b90612278565b611a456001611a118460ff165f52600760205260405f2090565b018054611a289084906001600160801b0316612090565b81546001600160801b0319166001600160801b0391909116179055565b611a9d6001611a5f8460ff165f52600760205260405f2090565b018054611a779060801c6001600160781b03166122ab565b8154600160801b600160f81b03191660809190911b600160801b600160f81b0316179055565b611ab06001600160801b03821633612c13565b604080516001600160801b03909216825260ff90921660208201529081908101610c1a565b63d1b5191160e01b5f52601760045260245ffd5b50611b12610c45611b058360ff165f52600760205260405f2090565b546001600160a01b031690565b331415611975565b611b3c915060203d602011611b42575b611b348183610357565b810190612260565b5f61196d565b503d611b2a565b346102dd5760403660031901126102dd57602435600435611b6982610483565b611b746006546123d1565b15610c5957600b546001600160a01b03163303611c0f577f000000000000000000000000000000000000000000000000000000000000000060016001600160a01b03821603611bc857506109159150612d88565b60445f8080936020956040519763a9059cbb60e01b84526004526024525af13d15601f3d1160015f51141617169060405215611c0057005b633c9fd93960e21b5f5260045ffd5b63d1b5191160e01b5f52601960045260245ffd5b346102dd57611c31366117eb565b335f52600f602052600160405f20541480611cb8575b80611ca2575b611c5357005b81611c93826106637f0b5e322b4b5330962013e8d6519462c133d50320ee476828060995c1acadef629560018060a01b03165f52600e60205260405f2090565b610c1a60405192839283611570565b506001600160a01b038281169082161415611c4d565b506001600160a01b038281165f908152600e60205260409020541615611c47565b634e487b7160e01b5f52601160045260245ffd5b65b5e620f48000039065b5e620f4800082116108b357565b919082039182116108b357565b90611d1e6006546123d1565b15610c5957600d54611d6690611d41906001600160801b0385169060801c611e94565b600d80546001600160801b031660809290921b6001600160801b031916919091179055565b600d5464746a52880060809190911c11611e66577fcf0848d99e9b2ad96811072e657199bc9567c2cc9b614097727a852b27f5358d92611dc9918330337f00000000000000000000000000000000000000000000000000000000000000006126b5565b5f90611dd7600d5460801c90565b6001600160801b0381166428bed016008111611e1f5750509050611dfa81611ef2565b90611e058233612c13565b60408051918252602082019290925290819081015b0390a1565b644bab82720010611e4657509050611e3681611edc565b90611e418233612c13565b611e05565b64746a528800906001600160801b031611611e05579050611e3681611ec6565b63d1b5191160e01b5f52601860045260245ffd5b6001600160801b039081166201518001919082116108b357565b6001600160801b0391821690821601919082116108b357565b908160801b91808304600160801b14901517156108b357565b908160041b91808304601014901517156108b357565b906014820291808304601414901517156108b357565b906018820291808304601814901517156108b357565b467f000000000000000000000000000000000000000000000000000000000000000003611f53577f000000000000000000000000000000000000000000000000000000000000000090565b6040515f905f549181611f65846102eb565b9182825260208201946001811690815f14612068575060011461200b575b611f8f92500382610357565b519020604080517f8b73c3c69bb8fe3d512ecc4cf759cc79239f7b179b0ffacaa9a75d522b39400f60208201908152918101929092527fc89efdaa54c0f20c7adf612882df0950f5a951637e0307cdcb4c672f298b8bc660608301524660808301523060a0830152906120058160c081016105e0565b51902090565b505f80805290917f290decd9548b62a8d60345a988386fc84ba6bc95484008f6362f93160ef3e5635b81831061204c575050906020611f8f92820101611f83565b6020919350806001915483858801015201910190918392612034565b60ff1916865250611f8f92151560051b82016020019050611f83565b6024356103ad8161053d565b6001600160801b0391821690821603919082116108b357565b63ffffffff60019116019063ffffffff82116108b357565b6004356103ad81610483565b6044356001600160781b03811681036102dd5790565b6064356103ad81611202565b60019061211d60043561210181610483565b82546001600160a01b0319166001600160a01b03909116178255565b0161214960243561212d8161053d565b82546001600160801b0319166001600160801b03909116178255565b6044356001600160781b03811681036102dd578154600160801b600160f81b03191660809190911b600160801b600160f81b031617815560643561218c81611202565b81546001600160f81b031660f89190911b6001600160f81b031916179055565b156121b357565b60405162461bcd60e51b815260206004820152601760248201527614115493525517d11150511312539157d1561412549151604a1b6044820152606490fd5b6040513d5f823e3d90fd5b1561220457565b60405162461bcd60e51b815260206004820152600e60248201526d24a72b20a624a22fa9a4a3a722a960911b6044820152606490fd5b6001600160781b031660ff81116108b3576001901b90565b90601482018092116108b357565b908160209103126102dd575180151581036102dd5790565b6001600160801b03909116908115612297576001600160801b03160490565b634e487b7160e01b5f52601260045260245ffd5b6001600160781b03908116600101919082116108b357565b6008546122d28160801c611e7a565b426001600160801b03909116106122e65750565b6122fa90610648906102a360871b906123a8565b612305600254611ced565b620f42408110156123915750612337610629620f42405b610623600954916006549061ffff6127109216020460801b90565b7f640eaa6ba71a4f457fdf8b26b0a8a0a6096d6d2bf731d07d47717534847ce55d611e1a61238161236a60085460801c90565b60095460801c5b60018060801b03169060801b1790565b6040519081529081906020820190565b6106296123a36123379261474a900490565b61231c565b612371906123bd8360801d8260801d01612cbc565b926001600160801b03918216911601612cbc565b60ff1c6001036123e057600190565b5f90565b604051906123f3604083610357565b565b604051906123f3606083610357565b604051906123f3608083610357565b6020818303126102dd578035906001600160401b0382116102dd5701906040828203126102dd576040519161244783610337565b803561245281611202565b83526020810135906001600160401b0382116102dd570181601f820112156102dd578035906001600160401b038211610352576040519261249d601f8401601f191660200185610357565b828452602083830101116102dd57815f9260208093018386013783010152602082015290565b908160c09103126102dd576040519060c08201908282106001600160401b038311176103525760a091604052805183526020810151602084015260408101516040840152606081015161251581611202565b606084015260808101516080840152015160a082015290565b929190604051936020850152604084015260ff60f81b166060830152604182526123f3606183610357565b90926125b16101009360406103ad97966125868682516020809160018060a01b0381511684520151910152565b60208181015187840152910151606086015281516001600160a01b03166080860152015160a0840152565b6001600160a01b031660c082015260e081018290520190610378565b60406103ad94936101009360018060a01b0316835265ffffffffffff6060825160018060a01b03815116602087015260018060a01b036020820151168587015282858201511682870152015116608084015260018060a01b0360208201511660a0840152015160c08201528160e08201520190610378565b908160a09103126102dd576040519060a08201908282106001600160401b03831117610352576080916040528051835260208101516020840152604081015161268d81611202565b6040840152606081015160608401520151608082015290565b908160209103126102dd575190565b94936126c691929394810190612413565b60016001600160a01b038616036126e4575050506123f39150612d3e565b60ff6126f1825160ff1690565b16600181036127055750506123f393612cef565b600281036128e75750602061272591015160208082518301019101612645565b6001600160a01b0385169073898118e029aa17ed4763f432c1bdc1085d166cde820361285f57604051623f675f60e91b81526001600160a01b038416600482015291602090839060249082905afa9081156117e6576128095f939284938491612830575b506105e06020840151936127a1604082015160ff1690565b60608201516080909201516040516323f2ebc360e21b60208201526001600160a01b038b16602482015230604482015260648101959095526084850196909652600160a485015260ff1660c484015260e4830152610104820193909352918290610124820190565b60208151910182885af115612821576123f393612cef565b63203aa5b560e11b5f5260045ffd5b612852915060203d602011612858575b61284a8183610357565b8101906126a6565b5f612789565b503d612840565b5f9150806128e28392516105e0602084015193612880604082015160ff1690565b606082015160809092015160405163d505accf60e01b60208201526001600160a01b03808c1660248301528c1660448201526064810195909552608485019690965260ff1660a484015260c483015260e4820193909352918290610104820190565b612809565b91949390916003810361298d57506128ff9150612cdb565b9273419c606ed7dd9e411826a26ce9f146ed5a5f7c343b156102dd57604051631b63c28b60e11b81526001600160a01b03918216600482015291811660248301529283166044820152911660648201525f816084818373419c606ed7dd9e411826a26ce9f146ed5a5f7c345af180156117e6576129795750565b806129875f6123f393610357565b806102e1565b60048103612aef57509060206129ae910151602080825183010191016124c3565b90612a6c6129bc8351612cdb565b92612a166129d3604083015165ffffffffffff1690565b6129fb6129de612404565b6001600160a01b038a168152966001600160a01b03166020880152565b65ffffffffffff604087015265ffffffffffff166060860152565b6020810151612a236123f5565b9485526001600160a01b03861660208601526040850152608081015190612a66612a56606060a084015193015160ff1690565b60f81b6001600160f81b03191690565b9161252e565b9173419c606ed7dd9e411826a26ce9f146ed5a5f7c343b156102dd576040516302b67b5760e41b8152925f9184918291612aab91908a600485016125cd565b03818373419c606ed7dd9e411826a26ce9f146ed5a5f7c345af19182156117e6576128ff92612adb575b50612cdb565b806129875f612ae993610357565b5f612ad5565b600514612afe575b5050505050565b612b186020612b95930151602080825183010191016124c3565b908151612b35612b266123e4565b6001600160a01b039097168752565b60208601526040820151602083015190612b4d6123f5565b96875260208701526040860152612b74612b656123e4565b6001600160a01b039095168552565b6020840152608081015190612a66612a56606060a084015193015160ff1690565b9173419c606ed7dd9e411826a26ce9f146ed5a5f7c343b156102dd57612bd15f93604051958694859463187945bd60e11b865260048601612559565b03818373419c606ed7dd9e411826a26ce9f146ed5a5f7c345af180156117e657612bff575b80808080612af7565b806129875f612c0d93610357565b5f612bf6565b600254908282018092116108b35760205f80516020612daa833981519152915f9360025560018060a01b0316938484526003825260408420818154019055604051908152a3565b6103ad91608082901c6001600160801b03918216919092160204612cbc565b61237190612c8e8360801d8260801d03612cbc565b926001600160801b03908116911603612cbc565b6103ad916001600160801b0380831660809390931c911602045b6001600160801b038111612cd6576001600160801b031690565b505f90565b6001600160a01b038116908103612cd65790565b6040516323b872dd60e01b81526001600160a01b03928316600482015292909116602483015260448201929092526020915f9160649183905af13d15601f3d1160015f511416171615611c0057565b5f80516020612dca8339815191525c8111612d74575f80516020612dca8339815191525c035f80516020612dca8339815191525d565b63d1b5191160e01b5f52601c60045260245ffd5b5f80516020612dca8339815191525c015f80516020612dca8339815191525d56feddf252ad1be2c89b69c2b068fc378daa952ba7f163c4a11628f55a4df523b3efcbe27d488af5b5c1b0bd8d89be6fdfeaed3ad42719044fd9b728f33df1d6f1d1a2646970667358221220cc3aae0841a533a477a855a37f284cd06f1dad69962d947eb7055cf32095fe8a64736f6c634300081a0033290decd9548b62a8d60345a988386fc84ba6bc95484008f6362f93160ef3e563","linkReferences":{}},"methodIdentifiers":{"DOMAIN_SEPARATOR()":"3644e515","addShare((address,uint128,uint120,uint8))":"3b107e21","addauths(address,uint256)":"542128dd","addreferral(address,address)":"eca93cce","allowance(address,address)":"dd62ed3e","approve(address,uint256)":"095ea7b3","auths(address)":"64e72dbd","balanceOf(address)":"70a08231","burn(address,uint256)":"9dc29fac","burnShare(uint8)":"9241bda6","changeDAOAdmin(address)":"3cba316b","dao_admin()":"a538e6a9","decimals()":"313ce567","getreferralanddaoadmin(address)":"b88e6d63","left_share()":"45fda707","marketcontract()":"2bf960da","name()":"06fdde03","nonces(address)":"7ecebe00","permit(address,address,uint256,uint256,uint8,bytes32,bytes32)":"d505accf","poolstate()":"845fcee4","publicSell(uint256,bytes)":"297f24bf","publicsell()":"de5712d4","referrals(address)":"9ca423b3","rmauths(address)":"69a5ac32","setEnv(address)":"2ff908cc","setRatio(uint256)":"b2237ba3","shareMint(uint8)":"df876548","shares(uint32)":"6f55aece","shares_index()":"696bb4ad","stake(address,uint128)":"19f8d5b4","stakeproof(uint256)":"06afa12a","stakestate()":"cae97640","symbol()":"95d89b41","totalSupply()":"18160ddd","transfer(address,uint256)":"a9059cbb","transferFrom(address,address,uint256)":"23b872dd","ttstokenconfig()":"623059a5","unstake(address,uint128)":"7bd3ca35","usdt()":"2f48ab7d","withdrawPublicSell(uint256,address)":"e7b43e7d"},"id":47}