{"abi":[{"type":"constructor","inputs":[{"name":"_marketor","type":"address","internalType":"address"}],"stateMutability":"nonpayable"},{"type":"function","name":"addLimitOrder","inputs":[{"name":"_orders","type":"tuple[]","internalType":"struct I_TTSwap_LimitOrderMaker.S_orderDetails[]","components":[{"name":"timestamp","type":"uint96","internalType":"uint96"},{"name":"sender","type":"address","internalType":"address"},{"name":"fromerc20","type":"address","internalType":"address"},{"name":"toerc20","type":"address","internalType":"address"},{"name":"amount","type":"uint256","internalType":"uint256"}]}],"outputs":[],"stateMutability":"nonpayable"},{"type":"function","name":"addauths","inputs":[{"name":"_marketor","type":"address","internalType":"address"},{"name":"_auths","type":"uint256","internalType":"uint256"}],"outputs":[],"stateMutability":"nonpayable"},{"type":"function","name":"addmaxslot","inputs":[{"name":"_maxslot","type":"uint256","internalType":"uint256"}],"outputs":[],"stateMutability":"nonpayable"},{"type":"function","name":"auths","inputs":[{"name":"","type":"address","internalType":"address"}],"outputs":[{"name":"","type":"uint256","internalType":"uint256"}],"stateMutability":"view"},{"type":"function","name":"changemarketcreator","inputs":[{"name":"_newmarketor","type":"address","internalType":"address"}],"outputs":[],"stateMutability":"nonpayable"},{"type":"function","name":"cleandeadorder","inputs":[{"name":"ids","type":"uint256[]","internalType":"uint256[]"},{"name":"smallorder","type":"bool","internalType":"bool"}],"outputs":[],"stateMutability":"nonpayable"},{"type":"function","name":"marketcreator","inputs":[],"outputs":[{"name":"","type":"address","internalType":"address"}],"stateMutability":"view"},{"type":"function","name":"maxfreeremain","inputs":[],"outputs":[{"name":"","type":"uint96","internalType":"uint96"}],"stateMutability":"view"},{"type":"function","name":"maxslot","inputs":[],"outputs":[{"name":"","type":"uint256","internalType":"uint256"}],"stateMutability":"view"},{"type":"function","name":"orderpointer","inputs":[],"outputs":[{"name":"","type":"uint256","internalType":"uint256"}],"stateMutability":"view"},{"type":"function","name":"orders","inputs":[{"name":"","type":"uint256","internalType":"uint256"}],"outputs":[{"name":"timestamp","type":"uint96","internalType":"uint96"},{"name":"sender","type":"address","internalType":"address"},{"name":"fromerc20","type":"address","internalType":"address"},{"name":"toerc20","type":"address","internalType":"address"},{"name":"amount","type":"uint256","internalType":"uint256"}],"stateMutability":"view"},{"type":"function","name":"queryLimitOrder","inputs":[{"name":"_ordersids","type":"uint256[]","internalType":"uint256[]"}],"outputs":[{"name":"","type":"tuple[]","internalType":"struct I_TTSwap_LimitOrderMaker.S_orderDetails[]","components":[{"name":"timestamp","type":"uint96","internalType":"uint96"},{"name":"sender","type":"address","internalType":"address"},{"name":"fromerc20","type":"address","internalType":"address"},{"name":"toerc20","type":"address","internalType":"address"},{"name":"amount","type":"uint256","internalType":"uint256"}]}],"stateMutability":"view"},{"type":"function","name":"queryOrderStatus","inputs":[{"name":"_ordersid","type":"uint256","internalType":"uint256"}],"outputs":[{"name":"","type":"bool","internalType":"bool"}],"stateMutability":"view"},{"type":"function","name":"queryOrdersStatus","inputs":[{"name":"_ordersids","type":"uint256[]","internalType":"uint256[]"}],"outputs":[{"name":"","type":"bool[]","internalType":"bool[]"}],"stateMutability":"view"},{"type":"function","name":"removeLimitOrder","inputs":[{"name":"orderid","type":"uint256","internalType":"uint256"}],"outputs":[],"stateMutability":"nonpayable"},{"type":"function","name":"removeauths","inputs":[{"name":"_marketor","type":"address","internalType":"address"}],"outputs":[],"stateMutability":"nonpayable"},{"type":"function","name":"setMaxfreeRemain","inputs":[{"name":"times","type":"uint96","internalType":"uint96"}],"outputs":[],"stateMutability":"nonpayable"},{"type":"function","name":"takeBatchLimitOrdersAMM","inputs":[{"name":"orderids","type":"uint256[]","internalType":"uint256[]"},{"name":"_tolerance","type":"uint96","internalType":"uint96"},{"name":"_takecontract","type":"address","internalType":"contract I_TTSwap_LimitOrderTaker"},{"name":"_takecaller","type":"address","internalType":"address"},{"name":"_isall","type":"bool","internalType":"bool"}],"outputs":[{"name":"","type":"bool[]","internalType":"bool[]"}],"stateMutability":"nonpayable"},{"type":"function","name":"takeLimitOrderAMM","inputs":[{"name":"orderid","type":"uint256","internalType":"uint256"},{"name":"_tolerance","type":"uint96","internalType":"uint96"},{"name":"_takecontract","type":"address","internalType":"contract I_TTSwap_LimitOrderTaker"},{"name":"_takecaller","type":"address","internalType":"address"}],"outputs":[{"name":"_isSuccess","type":"bool","internalType":"bool"}],"stateMutability":"nonpayable"},{"type":"function","name":"takeLimitOrderChips","inputs":[{"name":"_orderChips","type":"tuple[]","internalType":"struct I_TTSwap_LimitOrderMaker.S_OrderChip[]","components":[{"name":"orderid","type":"uint256","internalType":"uint256"},{"name":"takeamount","type":"uint128","internalType":"uint128"},{"name":"transdata","type":"bytes","internalType":"bytes"}]}],"outputs":[],"stateMutability":"nonpayable"},{"type":"function","name":"takeLimitOrderNormal","inputs":[{"name":"orderids","type":"tuple[]","internalType":"struct I_TTSwap_LimitOrderMaker.S_TakeParams[]","components":[{"name":"orderid","type":"uint256","internalType":"uint256"},{"name":"transdata","type":"bytes","internalType":"bytes"}]}],"outputs":[],"stateMutability":"nonpayable"},{"type":"function","name":"updateLimitOrder","inputs":[{"name":"orderid","type":"uint256","internalType":"uint256"},{"name":"_order","type":"tuple","internalType":"struct I_TTSwap_LimitOrderMaker.S_orderDetails","components":[{"name":"timestamp","type":"uint96","internalType":"uint96"},{"name":"sender","type":"address","internalType":"address"},{"name":"fromerc20","type":"address","internalType":"address"},{"name":"toerc20","type":"address","internalType":"address"},{"name":"amount","type":"uint256","internalType":"uint256"}]}],"outputs":[],"stateMutability":"nonpayable"},{"type":"event","name":"e_addLimitOrder","inputs":[{"name":"_orderid","type":"uint256","indexed":false,"internalType":"uint256"},{"name":"_sender","type":"address","indexed":false,"internalType":"address"},{"name":"_fromerc20","type":"address","indexed":false,"internalType":"address"},{"name":"_toerc20","type":"address","indexed":false,"internalType":"address"},{"name":"_amount","type":"uint256","indexed":false,"internalType":"uint256"}],"anonymous":false},{"type":"event","name":"e_addauths","inputs":[{"name":"_marketor","type":"address","indexed":false,"internalType":"address"},{"name":"_auths","type":"uint256","indexed":false,"internalType":"uint256"}],"anonymous":false},{"type":"event","name":"e_addmaxslot","inputs":[{"name":"","type":"uint256","indexed":false,"internalType":"uint256"}],"anonymous":false},{"type":"event","name":"e_changemarketcreator","inputs":[{"name":"_newmarketcreator","type":"address","indexed":false,"internalType":"address"}],"anonymous":false},{"type":"event","name":"e_cleandeadorder","inputs":[{"name":"_orderid","type":"uint256","indexed":false,"internalType":"uint256"},{"name":"_feeamount","type":"uint256","indexed":false,"internalType":"uint256"},{"name":"_reciver","type":"address","indexed":false,"internalType":"address"}],"anonymous":false},{"type":"event","name":"e_cleandeadorders","inputs":[{"name":"_orderids","type":"uint256[]","indexed":false,"internalType":"uint256[]"}],"anonymous":false},{"type":"event","name":"e_deploy","inputs":[{"name":"marketcreator","type":"address","indexed":false,"internalType":"address"},{"name":"maxfreeremain","type":"uint256","indexed":false,"internalType":"uint256"},{"name":"","type":"uint256","indexed":false,"internalType":"uint256"}],"anonymous":false},{"type":"event","name":"e_removeLimitOrder","inputs":[{"name":"_orderid","type":"uint256","indexed":false,"internalType":"uint256"}],"anonymous":false},{"type":"event","name":"e_removeauths","inputs":[{"name":"_marketor","type":"address","indexed":false,"internalType":"address"}],"anonymous":false},{"type":"event","name":"e_setmaxfreeremain","inputs":[{"name":"_maxfreeremain","type":"uint96","indexed":false,"internalType":"uint96"}],"anonymous":false},{"type":"event","name":"e_takeOrder","inputs":[{"name":"_orderid","type":"uint256","indexed":false,"internalType":"uint256"}],"anonymous":false},{"type":"event","name":"e_takeOrderChips","inputs":[{"name":"_orderid","type":"uint256","indexed":false,"internalType":"uint256"},{"name":"amount","type":"uint256","indexed":false,"internalType":"uint256"}],"anonymous":false},{"type":"event","name":"e_updateLimitOrder","inputs":[{"name":"_orderid","type":"uint256","indexed":false,"internalType":"uint256"},{"name":"_fromerc20","type":"address","indexed":false,"internalType":"address"},{"name":"_toerc20","type":"address","indexed":false,"internalType":"address"},{"name":"_amount","type":"uint256","indexed":false,"internalType":"uint256"}],"anonymous":false},{"type":"error","name":"ERC20TransferFailed","inputs":[]},{"type":"error","name":"NativeTransferFailed","inputs":[]},{"type":"error","name":"lessAmountError","inputs":[{"name":"_orderid","type":"uint256","internalType":"uint256"}]}],"bytecode":{"object":"0x60803460a757601f612d4338819003918201601f19168301916001600160401b0383118484101760ab5780849260209460405283398101031260a757516001600160a01b0381169081900360a75760607f808babd30ff81f5b4adccf3f670c96e578e38ceabbf694a13475ae37de0043ce9162268d6f60a41b81178060025560015f5560405191825260a01c602082015260016040820152a1604051612c8390816100c08239f35b5f80fd5b634e487b7160e01b5f52604160045260245ffdfe60806040526004361015610011575f80fd5b5f3560e01c806315b7e29714610174578063160d04f21461016f5780631b952b3b1461016a57806320ced07c146101655780633ce29b7e146101605780633d9951731461015b578063499591fe146101565780634a849e3514610151578063542128dd1461014c578063564164511461014757806358088c12146101425780635be7b7881461013d57806364e72dbd146101385780636eaa0cba146101335780638f6390ca1461012e5780639dbbca5f14610129578063a06ad0e814610124578063a85c38ef1461011f578063ba5726721461011a578063dcda429d14610115578063e2c2f283146101105763f66d64851461010b575f80fd5b6117b5565b6116bd565b6115ad565b61158d565b61151a565b6114a0565b611484565b6113a1565b611112565b6110d7565b610d2f565b610cbc565b610a97565b610947565b6108ea565b61078a565b610762565b610662565b610508565b610250565b6101e2565b346101d45760203660031901126101d457600435805f52600460205260405f205460601c33036101d4576020816101cb7f819a71a589292d274fb52415373f4cb49b577ec0e842dfa039d992dc38d3053b93612160565b604051908152a1005b5f80fd5b5f9103126101d457565b346101d4575f3660031901126101d4576020600154604051908152f35b602435906001600160601b03821682036101d457565b600435906001600160601b03821682036101d457565b35906001600160601b03821682036101d457565b6001600160a01b038116036101d457565b346101d45760803660031901126101d45760043561026c6101ff565b604435906102798261023f565b606435906102868261023f565b61028e61182d565b5060206102db6102b960026102ab885f52600460205260405f2090565b01546001600160a01b031690565b6102d56102ce885f52600460205260405f2090565b5460601c90565b9061218d565b916102f360016102ab885f52600460205260405f2090565b9461037b61030e60026102ab8a5f52600460205260405f2090565b60036103228a5f52600460205260405f2090565b015461036661033c6102ce8c5f52600460205260405f2090565b926103576103486105bb565b6001600160a01b03909c168c52565b6001600160a01b03168a880152565b60408901526001600160a01b03166060880152565b60018060a01b0316946103a2604051958693849363748226db60e11b8552600485016118a7565b03815f875af1918215610503576103ed926104d6575b506103e86103d360026102ab875f52600460205260405f2090565b6102d56102ce875f52600460205260405f2090565b6118f5565b6104126003610404855f52600460205260405f2090565b01546001600160801b031690565b111561042f5763424b2c2f60e01b5f52600482905260245ffd5b5ffd5b816104aa6104c39261045c60016102ab5f80516020612c2e833981519152975f52600460205260405f2090565b6104716102ce855f52600460205260405f2090565b916104916003610489875f52600460205260405f2090565b015460801c90565b9261049a61192b565b936001600160801b031692612408565b6104b381612160565b6040519081529081906020820190565b0390a160405160018152602090f35b0390f35b6104f79060203d6020116104fc575b6104ef818361059a565b810190611861565b6103b8565b503d6104e5565b6118d6565b346101d45760203660031901126101d457602061052660043561286f565b6040519015158152f35b634e487b7160e01b5f52604160045260245ffd5b606081019081106001600160401b0382111761055f57604052565b610530565b60a081019081106001600160401b0382111761055f57604052565b604081019081106001600160401b0382111761055f57604052565b90601f801991011681019081106001600160401b0382111761055f57604052565b604051906105ca60808361059a565b565b604051906105ca60408361059a565b604051906105ca60608361059a565b6001600160401b03811161055f5760051b60200190565b6001600160401b03811161055f57601f01601f191660200190565b81601f820112156101d45780359061063382610601565b92610641604051948561059a565b828452602083830101116101d457815f926020809301838601378301015290565b346101d45760203660031901126101d4576004356001600160401b0381116101d457366023820112156101d45780600401359061069e826105ea565b906106ac604051928361059a565b8282526024602083019360051b820101903682116101d45760248101935b8285106106dc576106da846119b1565b005b84356001600160401b0381116101d4578201606060231982360301126101d4576040519161070983610544565b6024820135835260448201356001600160801b03811681036101d45760208401526064820135926001600160401b0384116101d45761075260209493602486953692010161061c565b60408201528152019401936106ca565b346101d4575f3660031901126101d4576002546040516001600160a01b039091168152602090f35b346101d45760203660031901126101d4576107a3610215565b6001600160601b03811690630268d6f0821180610811575b156101d457600280546001600160a01b031660a09290921b6001600160a01b0319169190911790556040519081527f4e92768b14c8bda9ff5e5e7c486ec2644831d5b16bc66966f4427d791a1ae62b90602090a1005b506002546001600160a01b031633146107bb565b9080601f830112156101d457813561083c816105ea565b9261084a604051948561059a565b81845260208085019260051b8201019283116101d457602001905b8282106108725750505090565b8135815260209182019101610865565b60206003198201126101d457600435906001600160401b0382116101d4576108ac91600401610825565b90565b60206040818301928281528451809452019201905f5b8181106108d25750505090565b825115158452602093840193909201916001016108c5565b346101d4576108f836610882565b6109028151611c99565b905f5b8151811015610939578061092461091e60019385611989565b5161286f565b61092e8286611989565b901515905201610905565b604051806104d285826108af565b346101d45760403660031901126101d4576004356109648161023f565b60025460243591906001600160a01b031633036101d4577f967d50df84a5ebb45902fa277d5c3b0bc6403497c9fd6da2ecbd9ed420038f149160409160018060a01b031690815f52600560205280835f205582519182526020820152a1005b60a09060231901126101d457604051906109dc82610564565b816024356001600160601b03811681036101d45781526044356109fe8161023f565b6020820152606435610a0f8161023f565b6040820152608435610a208161023f565b6060820152608060a435910152565b91908260a09103126101d457604051610a4781610564565b6080808294610a558161022b565b84526020810135610a658161023f565b60208501526040810135610a788161023f565b60408501526060810135610a8b8161023f565b60608501520135910152565b346101d45760c03660031901126101d4577f249ccd56175700337a7a3021ae4d04abcc8f01ff32d64f802a416cd7217c595a600435610ad5366109c3565b90610aeb6102ce825f52600460205260405f2090565b6001600160a01b0316331480610ca8575b610b0590611826565b610c2b610b1f60016102ab845f52600460205260405f2090565b6040840180519094916001600160a01b039182169116819003610c8a575b50610bf5610be7610b5b60026102ab875f52600460205260405f2090565b6060840180519097916001600160a01b039182169116819003610c4c575b5060806003610b90885f52600460205260405f2090565b01549401938451809103610c30575b50610bda6001600160601b034216610bbf885f52600460205260405f2090565b906001600160601b03166001600160601b0319825416179055565b516001600160a01b031690565b94516001600160a01b031690565b9051604080519485526001600160a01b039586166020860152949091169383019390935260608201929092529081906080820190565b0390a1005b6003610c44885f52600460205260405f2090565b01555f610b9f565b610c84906002610c64895f52600460205260405f2090565b0180546001600160a01b0319166001600160a01b03909216919091179055565b5f610b79565b610ca2906001610c64865f52600460205260405f2090565b5f610b3d565b50610b05610cb58261286f565b9050610afc565b346101d45760203660031901126101d457600435335f526005602052600160405f20541480610d1b575b156101d4576020817f5e0e68bb2163e5ce5ba96f4e636ef0fe987aecb974185e6decaf76eedba46737925f55604051908152a1005b505f548111610ce6565b801515036101d457565b346101d45760a03660031901126101d4576004356001600160401b0381116101d457610d5f903690600401610825565b610d676101ff565b9060443590610d758261023f565b60643592610d828461023f565b60843593610d8f85610d25565b610d998351611c99565b94610da48451611ccb565b92610daf8551611c99565b505f5b8551811015610ebb5780610df2610de260026102ab610dd36001968c611989565b515f52600460205260405f2090565b6102d56102ce610dd3858c611989565b610dfc828b611989565b52610e0a61091e8289611989565b610e15575b01610db2565b610e26826102ab610dd3848b611989565b610ea0610e3b60026102ab610dd3868d611989565b89610e8b610e606102ce610dd3886003610e58610dd38389611989565b015495611989565b92610e7b610e6c6105bb565b6001600160a01b039097168752565b6001600160a01b03166020860152565b60408401526001600160a01b03166060830152565b610eaa8288611989565b52610eb58187611989565b50610e0f565b506040518794916001600160a01b038816915f9190610eef81610ee18760208301611d1a565b03601f19810183528261059a565b610f18610efd8a5160ff1690565b60405163030bb4af60e61b8152988994859460048601611de0565b038183855af1938415610503575f946110b3575b50939291905f945b86518610156110a557610f6d610f5e6020610f4f8986611989565b5101516001600160a01b031690565b6102d56060610f4f8a87611989565b610f996040610f7c8986611989565b510151610f898989611989565b51906001600160801b0316611e3a565b1015610fe5578215610fc55761042c610fb28789611989565b5163424b2c2f60e01b5f52600452602490565b9091929394805f610fd860019388611989565b525b019493929190610f34565b90919293948061104b61100b610ffd60019487611989565b51516001600160a01b031690565b61101a6060610f4f8589611989565b9085611034604061102b878b611989565b51015160801c90565b9261103d61192b565b93878060801b031692612408565b61105e611058828a611989565b51612160565b5f80516020612c2e83398151915261108a611079838b611989565b516040519081529081906020820190565b0390a16110a061109a8288611989565b60019052565b610fda565b604051806104d286826108af565b6110d09194503d805f833e6110c8818361059a565b810190611d5d565b9286610f2c565b346101d45760203660031901126101d4576004356110f48161023f565b60018060a01b03165f526005602052602060405f2054604051908152f35b346101d45760403660031901126101d4576004356001600160401b0381116101d457611142903690600401610825565b60243561114e81610d25565b335f9081526005602052604090205461116990600114611826565b156111d4575f5b81518110156111a2578061118560019261286f565b611190575b01611170565b61119d6110588285611989565b61118a565b50610c2b7f56e9d16e5207883abc366e8ca2cf12a5fb5b7f2dde2c81c26a7cc2ab7abc8bc79160405191829182611e5a565b5f5b81518110156106da57806112176112116112056111f8610dd360019688611989565b546001600160601b031690565b6001600160601b031690565b426118f5565b61122461091e8386611989565b8061138a575b611236575b50016111d6565b61124561120560025460a01c90565b8082111561138257611256916118f5565b8061137757505f5b80156113705761126d90611e1e565b606481111561136b575060645b801561122f576112d66112ce7f165f8fabc98e0a023ab52a03812592bb846c7908a2641c4043d010861a456b98926112c96112bd6003610489610dd3898c611989565b6001600160801b031690565b611e47565b6103e8900490565b6113136112ea856102ab610dd3878a611989565b6112fa6102ce610dd3878a611989565b61130261192b565b91878060801b038516913391612408565b61133f6113208487611989565b518060081c5f526003602052600160ff60405f2092161b198154169055565b6113498386611989565b516040805191825260208201929092523391810191909152606090a15f61122f565b61127a565b505f61126d565b620d2f00900461125e565b50505f611256565b5061139a61120560025460a01c90565b811161122a565b346101d45760203660031901126101d4576004356001600160401b0381116101d457366023820112156101d4578060040135906113dd826105ea565b906113eb604051928361059a565b8282526024602083019360051b820101903682116101d45760248101935b828510611419576106da84611e93565b84356001600160401b0381116101d4578201604060231982360301126101d457604051916114468361057f565b602482013583526044820135926001600160401b0384116101d45761147560209493602486953692010161061c565b83820152815201940193611409565b346101d4575f3660031901126101d45760205f54604051908152f35b346101d45760203660031901126101d4576004356114bd8161023f565b600254906001600160a01b03821633036101d4576001600160a01b03166001600160a01b03199190911681176002556040519081527fa8d3850ce581f2add46670c1408b76ca1d0d4ef627eed4a89802ff670940082d90602090a1005b346101d45760203660031901126101d457600480355f908152602091825260409081902080546001820154600283015460039093015484516001600160601b0384168152606093841c968101969096526001600160a01b039182169486019490945290911690830152608082015260a090f35b346101d4575f3660031901126101d457602060025460a01c604051908152f35b346101d45760203660031901126101d4576004356001600160401b0381116101d457366023820112156101d4578060040135906115e9826105ea565b916115f7604051938461059a565b808352602460a0602085019202830101913683116101d457602401905b828210611624576106da84611f7a565b602060a0916116333685610a2f565b815201910190611614565b60206040818301928281528451809452019201905f5b8181106116615750505090565b825180516001600160601b031685526020818101516001600160a01b0390811682880152604080840151821690880152606080840151909116908701526080918201519186019190915260a09094019390920191600101611654565b346101d4576116cb36610882565b6116d581516120f3565b905f5b81518110156117a757806117106116f76111f8610dd360019587611989565b6117018387611989565b51906001600160601b03169052565b6117406117236102ce610dd38487611989565b602061172f8488611989565b516001600160a01b03909216910152565b611760611754836102ab610dd38588611989565b604061172f8488611989565b61178161177560026102ab610dd38588611989565b606061172f8488611989565b6003611790610dd38386611989565b0154608061179e8387611989565b510152016116d8565b604051806104d2858261163e565b346101d45760203660031901126101d4576004356117d28161023f565b6002546001600160a01b031633036101d45760207f9a821e99e211e800333328bcb1c6366ea4b42ec0afe08976ad13ff7e2244a6479160018060a01b0316805f52600582525f6040812055604051908152a1005b156101d457565b60405190608082018281106001600160401b0382111761055f576040525f6060838281528260208201528260408201520152565b908160209103126101d457516108ac81610d25565b80516001600160a01b0390811683526020808301518216908401526040808301519084015260609182015116910152565b91926001600160601b0360a09295946118c48560c0810198611876565b166080840152600180831b0316910152565b6040513d5f823e3d90fd5b634e487b7160e01b5f52601160045260245ffd5b9190820391821161190257565b6118e1565b805180835260209291819084018484015e5f828201840152601f01601f1916010190565b60ff6108ac60405161193c8161057f565b60018152610ee160408051611951828261059a565b6002815261060b60f31b6020820152602084019081528151958694602080870152511682850152519060608401526080830190611907565b805182101561199d5760209160051b010190565b634e487b7160e01b5f52603260045260245ffd5b905f5b8251811015611c9457806119d46119cd60019386611989565b515161286f565b6119df575b016119b4565b6119fd60206119ee8387611989565b5101516001600160801b031690565b611a226112bd6003610489611a12868a611989565b51515f52600460205260405f2090565b90838060801b031610155f14611c7d57611a64611a476003610489611a128589611989565b6020611a538488611989565b516001600160801b03909216910152565b611ab0611a78836102ab611a128589611989565b611a886102ce611a128589611989565b611a9760206119ee868a611989565b91611aa061192b565b92868060801b0316913391612408565b611ad96003611ac2611a128488611989565b0154611ad360206119ee8589611989565b9061288c565b611aeb6003610404611a128589611989565b608084901b849003821610611c7857506003611b0a611a128387611989565b01545b611b53611b2260026102ab611a12868a611989565b611b326102ce611a12868a611989565b906040611b3f868a611989565b51015191868060801b038516913390612408565b611b6260206119ee8488611989565b611b776112bd6003610489611a12878b611989565b90848060801b031610155f14611bd15750611b9c611b958286611989565b5151612160565b5f80516020612c2e833981519152611bc9611bb78387611989565b51516040519081529081906020820190565b0390a16119d9565b611c1190611c0b6003611be7611a12868a611989565b015491611bf960206119ee878b611989565b60801b6001600160801b039091161790565b906118f5565b6003611c20611a128488611989565b01557faf5ebbce266193f97791fe6201eadefed6c7f15305e89bdd0371d3802f88e7c6611c4d8286611989565b51516003611c5e611a128589611989565b015460408051928352602083019190915281908101611bc9565b611b0d565b611a64611c8f60206119ee8488611989565b611a47565b509050565b90611ca3826105ea565b611cb0604051918261059a565b8281528092611cc1601f19916105ea565b0190602036910137565b90611cd5826105ea565b611ce2604051918261059a565b8281528092611cf3601f19916105ea565b01905f5b828110611d0357505050565b602090611d0e61182d565b82828501015201611cf7565b60206040818301928281528451809452019201905f5b818110611d3d5750505090565b9091926020608082611d526001948851611876565b019401929101611d30565b6020818303126101d4578051906001600160401b0382116101d457019080601f830112156101d4578151611d90816105ea565b92611d9e604051948561059a565b81845260208085019260051b8201019283116101d457602001905b828210611dc65750505090565b602080918351611dd581610d25565b815201910190611db9565b929360609295946001600160601b03611e0360ff94608088526080880190611907565b971660208601526001600160a01b0316604085015216910152565b90600a820180921161190257565b906001820180921161190257565b9190820180921161190257565b8181029291811591840414171561190257565b60206040818301928281528451809452019201905f5b818110611e7d5750505090565b8251845260209384019390920191600101611e70565b5f5b8151811015611f765780611eae6119cd60019385611989565b611eb9575b01611e95565b611eef611ecd836102ab611a128588611989565b611edd6102ce611a128588611989565b611a976003610489611a12878a611989565b611f46611f0460026102ab611a128588611989565b611f146102ce611a128588611989565b906003611f24611a128689611989565b0154916020611f338689611989565b51015192868060801b0316913390612408565b611f53611b958285611989565b5f80516020612c2e833981519152611f6e611bb78386611989565b0390a1611eb3565b5050565b90426001600160601b03165f5b83518110156120ed57600190611fa8611fa383545f54906128bc565b600155565b611fb6836117018388611989565b612046611fc38287611989565b51611fd784545f52600460205260405f2090565b815160208301516001600160601b039091166bffffffffffffffffffffffff19606092831b1617825560408301516001830180546001600160a01b03199081166001600160a01b0393841617909155918401516002840180549093169116179055608090910151600390910155565b7fed73586b9277e2c9c4f2da2ef2a05c854908458f4c1fc03d45d126dd5cc9f0f782546120786020610f4f858a611989565b906120e461208b6040610f4f878c611989565b61209a6060610f4f888d611989565b60806120a6888d611989565b510151604080519586526001600160a01b039687166020870152928616928501929092529093166060830152608082019290925290819060a0820190565b0390a101611f87565b50509050565b906120fd826105ea565b61210a604051918261059a565b828152809261211b601f19916105ea565b01905f5b82811061212b57505050565b60209060405161213a81610564565b5f81525f838201525f60408201525f60608201525f60808201528282850101520161211f565b8060081c5f526003602052600160ff60405f2092161b198154169055565b908160209103126101d4575190565b6001600160a01b0316600181036121a357503190565b6040516370a0823160e01b81526001600160a01b039092166004830152602090829060249082905afa908115610503575f916121dd575090565b6108ac915060203d6020116121ff575b6121f7818361059a565b81019061217e565b503d6121ed565b519060ff821682036101d457565b6020818303126101d4578051906001600160401b0382116101d45701906040828203126101d457604051916122488361057f565b61225181612206565b83526020810151906001600160401b0382116101d4570181601f820112156101d45780519061227f82610601565b9261228d604051948561059a565b828452602083830101116101d457815f9260208093018386015e83010152602082015290565b908160c09103126101d4576040519060c08201908282106001600160401b0383111761055f5760a09160405280518352602081015160208401526040810151604084015261230360608201612206565b606084015260808101516080840152015160a082015290565b929190604051936020850152604084015260ff60f81b166060830152604182526105ca60618361059a565b909261239f6101009360406108ac97966123748682516020809160018060a01b0381511684520151910152565b60208181015187840152910151606086015281516001600160a01b03166080860152015160a0840152565b6001600160a01b031660c082015260e081018290520190611907565b908160a09103126101d4576080604051916123d583610564565b80518352602081015160208401526123ef60408201612206565b6040840152606081015160608401520151608082015290565b9361241c9060208082518301019101612214565b60016001600160a01b03861603612449575050509050340361243a57565b633d2cec6f60e21b5f5260045ffd5b60ff612456825160ff1690565b166001810361246a5750506105ca93612bcf565b6002810361263c5750602061248a910151602080825183010191016123bb565b6001600160a01b0385169073898118e029aa17ed4763f432c1bdc1085d166cde82036125b457604051623f675f60e91b81526001600160a01b038416600482015291602090839060249082905afa9081156105035761256e5f939284938491612595575b50610ee1602084015193612506604082015160ff1690565b60608201516080909201516040516323f2ebc360e21b60208201526001600160a01b038b16602482015230604482015260648101959095526084850196909652600160a485015260ff1660c484015260e4830152610104820193909352918290610124820190565b60208151910182885af1612583575b50505050565b61258c93612bcf565b5f80808061257d565b6125ae915060203d6020116121ff576121f7818361059a565b5f6124ee565b5f915080612637839251610ee16020840151936125d5604082015160ff1690565b606082015160809092015160405163d505accf60e01b60208201526001600160a01b03808c1660248301528c1660448201526064810195909552608485019690965260ff1660a484015260c483015260e4820193909352918290610104820190565b61256e565b9194939091600381036126e757506126549150612bbb565b9273419c606ed7dd9e411826a26ce9f146ed5a5f7c343b156101d457604051631b63c28b60e11b81526001600160a01b03918216600482015291811660248301529283166044820152911660648201525f8180608481015b03818373419c606ed7dd9e411826a26ce9f146ed5a5f7c345af18015610503576126d35750565b806126e15f6105ca9361059a565b806101d8565b60048103612744575061273f61270d6020612654940151602080825183010191016123bb565b8051906020810151612723604083015160ff1690565b906080606084015193015193888b60018060a01b038c16612a4c565b612bbb565b600514612753575b5050505050565b61276d60206127f1930151602080825183010191016122b3565b90815161277b610e6c6105cc565b602086015260408201516020830151906127936105db565b968752602087015260408601526127ba6127ab6105cc565b6001600160a01b039095168552565b60208401526080810151906127eb6127db606060a084015193015160ff1690565b60f81b6001600160f81b03191690565b9161231c565b9173419c606ed7dd9e411826a26ce9f146ed5a5f7c343b156101d45761282d5f93604051958694859463187945bd60e11b865260048601612347565b03818373419c606ed7dd9e411826a26ce9f146ed5a5f7c345af180156105035761285b575b8080808061274c565b806126e15f6128699361059a565b5f612852565b60ff6001918060081c5f526003602052161b60405f205416151590565b608081901c6001600160801b0392831691831691909102049081116128b7576001600160801b031690565b505f90565b809291600190816128cd8460081c90565b925b6129095750506105ca916128e66128eb9260081b90565b611e3a565b9260038160081c5f52602052600160ff60405f2092161b8154179055565b909391925060ff612923846003905f5260205260405f2090565b549516905b60ff82108061298b575b1561294e575061294190611e2c565b6001811b85161515612928565b91939094506101008514612966575b849291806128cf565b93509080840361297d57505f5b5f9390919061295d565b61298690611e2c565b612973565b5080612932565b519065ffffffffffff821682036101d457565b908160609103126101d45780516129bb8161023f565b916108ac60406129cd60208501612992565b9301612992565b60406108ac94936101009360018060a01b0316835265ffffffffffff6060825160018060a01b03815116602087015260018060a01b036020820151168587015282858201511682870152015116608084015260018060a01b0360208201511660a0840152015160c08201528160e08201520190611907565b60405163927da10560e01b81526001600160a01b03838116600483015291821660248201819052918416604482015290979196909590949193909260608760648173419c606ed7dd9e411826a26ce9f146ed5a5f7c345afa96871561050357612b4397612b2b93612b10925f92612b7f575b50612acb612af591612bbb565b612ae5612ad66105bb565b6001600160a01b03909e168e52565b6001600160a01b031660208d0152565b65ffffffffffff60408c015265ffffffffffff1660608b0152565b612b186105db565b9889526001600160a01b03166020890152565b604087015260f81b6001600160f81b0319169161231c565b9173419c606ed7dd9e411826a26ce9f146ed5a5f7c343b156101d4575f916126ac60405194859384936302b67b5760e41b8552600485016129d4565b612af5919250612ba9612acb9160603d606011612bb4575b612ba1818361059a565b8101906129a5565b915050929150612abe565b503d612b97565b6001600160a01b0381169081036128b75790565b6040516323b872dd60e01b81526001600160a01b03928316600482015292909116602483015260448201929092526020915f9160649183905af13d15601f3d1160015f511416171615612c1e57565b633c9fd93960e21b5f5260045ffdfe40e0d127017b9c9ff8852374b313d997f022e0c42e857ed394394b4521409233a264697066735822122022bae010b1e6eb36bbf51bd284219fab709c0ae972b3cd5336d7a36fe858323564736f6c634300081a0033","linkReferences":{}},"methodIdentifiers":{"addLimitOrder((uint96,address,address,address,uint256)[])":"dcda429d","addauths(address,uint256)":"542128dd","addmaxslot(uint256)":"58088c12","auths(address)":"64e72dbd","changemarketcreator(address)":"a06ad0e8","cleandeadorder(uint256[],bool)":"6eaa0cba","marketcreator()":"3d995173","maxfreeremain()":"ba572672","maxslot()":"9dbbca5f","orderpointer()":"160d04f2","orders(uint256)":"a85c38ef","queryLimitOrder(uint256[])":"e2c2f283","queryOrderStatus(uint256)":"20ced07c","queryOrdersStatus(uint256[])":"4a849e35","removeLimitOrder(uint256)":"15b7e297","removeauths(address)":"f66d6485","setMaxfreeRemain(uint96)":"499591fe","takeBatchLimitOrdersAMM(uint256[],uint96,address,address,bool)":"5be7b788","takeLimitOrderAMM(uint256,uint96,address,address)":"1b952b3b","takeLimitOrderChips((uint256,uint128,bytes)[])":"3ce29b7e","takeLimitOrderNormal((uint256,bytes)[])":"8f6390ca","updateLimitOrder(uint256,(uint96,address,address,address,uint256))":"56416451"},"id":72}