{"abi":[{"type":"constructor","inputs":[{"name":"_usdt","type":"address","internalType":"address"},{"name":"_dao_admin","type":"address","internalType":"address"},{"name":"_ttsconfig","type":"uint256","internalType":"uint256"}],"stateMutability":"nonpayable"},{"type":"function","name":"DOMAIN_SEPARATOR","inputs":[],"outputs":[{"name":"","type":"bytes32","internalType":"bytes32"}],"stateMutability":"view"},{"type":"function","name":"addShare","inputs":[{"name":"_share","type":"tuple","internalType":"struct s_share","components":[{"name":"recipient","type":"address","internalType":"address"},{"name":"leftamount","type":"uint128","internalType":"uint128"},{"name":"metric","type":"uint120","internalType":"uint120"},{"name":"chips","type":"uint8","internalType":"uint8"}]}],"outputs":[],"stateMutability":"nonpayable"},{"type":"function","name":"addauths","inputs":[{"name":"_auths","type":"address","internalType":"address"},{"name":"_priv","type":"uint256","internalType":"uint256"}],"outputs":[],"stateMutability":"nonpayable"},{"type":"function","name":"addreferral","inputs":[{"name":"user","type":"address","internalType":"address"},{"name":"referral","type":"address","internalType":"address"}],"outputs":[],"stateMutability":"nonpayable"},{"type":"function","name":"allowance","inputs":[{"name":"owner","type":"address","internalType":"address"},{"name":"spender","type":"address","internalType":"address"}],"outputs":[{"name":"","type":"uint256","internalType":"uint256"}],"stateMutability":"view"},{"type":"function","name":"approve","inputs":[{"name":"spender","type":"address","internalType":"address"},{"name":"amount","type":"uint256","internalType":"uint256"}],"outputs":[{"name":"","type":"bool","internalType":"bool"}],"stateMutability":"nonpayable"},{"type":"function","name":"auths","inputs":[{"name":"","type":"address","internalType":"address"}],"outputs":[{"name":"","type":"uint256","internalType":"uint256"}],"stateMutability":"view"},{"type":"function","name":"balanceOf","inputs":[{"name":"account","type":"address","internalType":"address"}],"outputs":[{"name":"","type":"uint256","internalType":"uint256"}],"stateMutability":"view"},{"type":"function","name":"burn","inputs":[{"name":"account","type":"address","internalType":"address"},{"name":"value","type":"uint256","internalType":"uint256"}],"outputs":[],"stateMutability":"nonpayable"},{"type":"function","name":"burnShare","inputs":[{"name":"index","type":"uint8","internalType":"uint8"}],"outputs":[],"stateMutability":"nonpayable"},{"type":"function","name":"chain_deposit","inputs":[{"name":"chainid","type":"uint32","internalType":"uint32"},{"name":"asset","type":"uint128","internalType":"uint128"}],"outputs":[],"stateMutability":"nonpayable"},{"type":"function","name":"chain_withdraw","inputs":[{"name":"chainid","type":"uint32","internalType":"uint32"},{"name":"asset","type":"uint128","internalType":"uint128"}],"outputs":[],"stateMutability":"nonpayable"},{"type":"function","name":"chainindex","inputs":[],"outputs":[{"name":"","type":"uint32","internalType":"uint32"}],"stateMutability":"view"},{"type":"function","name":"chains","inputs":[{"name":"","type":"uint32","internalType":"uint32"}],"outputs":[{"name":"asset","type":"uint256","internalType":"uint256"},{"name":"proofstate","type":"uint256","internalType":"uint256"},{"name":"recipient","type":"address","internalType":"address"}],"stateMutability":"view"},{"type":"function","name":"changeDAOAdmin","inputs":[{"name":"_recipient","type":"address","internalType":"address"}],"outputs":[],"stateMutability":"nonpayable"},{"type":"function","name":"dao_admin","inputs":[],"outputs":[{"name":"","type":"address","internalType":"address"}],"stateMutability":"view"},{"type":"function","name":"decimals","inputs":[],"outputs":[{"name":"","type":"uint8","internalType":"uint8"}],"stateMutability":"pure"},{"type":"function","name":"decreaseAllowance","inputs":[{"name":"spender","type":"address","internalType":"address"},{"name":"subtractedValue","type":"uint256","internalType":"uint256"}],"outputs":[{"name":"","type":"bool","internalType":"bool"}],"stateMutability":"nonpayable"},{"type":"function","name":"eip712Domain","inputs":[],"outputs":[{"name":"fields","type":"bytes1","internalType":"bytes1"},{"name":"name","type":"string","internalType":"string"},{"name":"version","type":"string","internalType":"string"},{"name":"chainId","type":"uint256","internalType":"uint256"},{"name":"verifyingContract","type":"address","internalType":"address"},{"name":"salt","type":"bytes32","internalType":"bytes32"},{"name":"extensions","type":"uint256[]","internalType":"uint256[]"}],"stateMutability":"view"},{"type":"function","name":"getreferralanddaoadmin","inputs":[{"name":"_customer","type":"address","internalType":"address"}],"outputs":[{"name":"","type":"address","internalType":"address"},{"name":"","type":"address","internalType":"address"}],"stateMutability":"view"},{"type":"function","name":"increaseAllowance","inputs":[{"name":"spender","type":"address","internalType":"address"},{"name":"addedValue","type":"uint256","internalType":"uint256"}],"outputs":[{"name":"","type":"bool","internalType":"bool"}],"stateMutability":"nonpayable"},{"type":"function","name":"left_share","inputs":[],"outputs":[{"name":"","type":"uint128","internalType":"uint128"}],"stateMutability":"view"},{"type":"function","name":"marketcontract","inputs":[],"outputs":[{"name":"","type":"address","internalType":"address"}],"stateMutability":"view"},{"type":"function","name":"name","inputs":[],"outputs":[{"name":"","type":"string","internalType":"string"}],"stateMutability":"view"},{"type":"function","name":"nonces","inputs":[{"name":"owner","type":"address","internalType":"address"}],"outputs":[{"name":"","type":"uint256","internalType":"uint256"}],"stateMutability":"view"},{"type":"function","name":"normalgoodid","inputs":[],"outputs":[{"name":"","type":"address","internalType":"address"}],"stateMutability":"view"},{"type":"function","name":"permit","inputs":[{"name":"owner","type":"address","internalType":"address"},{"name":"spender","type":"address","internalType":"address"},{"name":"value","type":"uint256","internalType":"uint256"},{"name":"deadline","type":"uint256","internalType":"uint256"},{"name":"v","type":"uint8","internalType":"uint8"},{"name":"r","type":"bytes32","internalType":"bytes32"},{"name":"s","type":"bytes32","internalType":"bytes32"}],"outputs":[],"stateMutability":"nonpayable"},{"type":"function","name":"poolstate","inputs":[],"outputs":[{"name":"","type":"uint256","internalType":"uint256"}],"stateMutability":"view"},{"type":"function","name":"public_Sell","inputs":[{"name":"usdtamount","type":"uint256","internalType":"uint256"},{"name":"data","type":"bytes","internalType":"bytes"}],"outputs":[],"stateMutability":"nonpayable"},{"type":"function","name":"publicsell","inputs":[],"outputs":[{"name":"","type":"uint128","internalType":"uint128"}],"stateMutability":"view"},{"type":"function","name":"referrals","inputs":[{"name":"","type":"address","internalType":"address"}],"outputs":[{"name":"","type":"address","internalType":"address"}],"stateMutability":"view"},{"type":"function","name":"rmauths","inputs":[{"name":"_auths","type":"address","internalType":"address"}],"outputs":[],"stateMutability":"nonpayable"},{"type":"function","name":"setEnv","inputs":[{"name":"_normalgoodid","type":"address","internalType":"address"},{"name":"_valuegoodid","type":"address","internalType":"address"},{"name":"_marketcontract","type":"address","internalType":"address"}],"outputs":[],"stateMutability":"nonpayable"},{"type":"function","name":"shareMint","inputs":[{"name":"index","type":"uint8","internalType":"uint8"}],"outputs":[],"stateMutability":"nonpayable"},{"type":"function","name":"shares","inputs":[{"name":"","type":"uint32","internalType":"uint32"}],"outputs":[{"name":"recipient","type":"address","internalType":"address"},{"name":"leftamount","type":"uint128","internalType":"uint128"},{"name":"metric","type":"uint120","internalType":"uint120"},{"name":"chips","type":"uint8","internalType":"uint8"}],"stateMutability":"view"},{"type":"function","name":"shares_index","inputs":[],"outputs":[{"name":"","type":"uint32","internalType":"uint32"}],"stateMutability":"view"},{"type":"function","name":"stake","inputs":[{"name":"_staker","type":"address","internalType":"address"},{"name":"proofvalue","type":"uint128","internalType":"uint128"}],"outputs":[{"name":"netconstruct","type":"uint128","internalType":"uint128"}],"stateMutability":"nonpayable"},{"type":"function","name":"stakeproof","inputs":[{"name":"","type":"uint256","internalType":"uint256"}],"outputs":[{"name":"fromcontract","type":"address","internalType":"address"},{"name":"proofstate","type":"uint256","internalType":"uint256"}],"stateMutability":"view"},{"type":"function","name":"stakestate","inputs":[],"outputs":[{"name":"","type":"uint256","internalType":"uint256"}],"stateMutability":"view"},{"type":"function","name":"subchainDeposit","inputs":[{"name":"asset","type":"uint128","internalType":"uint128"},{"name":"recipient","type":"address","internalType":"address"}],"outputs":[],"stateMutability":"nonpayable"},{"type":"function","name":"subchainWithdraw","inputs":[{"name":"asset","type":"uint128","internalType":"uint128"},{"name":"recipient","type":"address","internalType":"address"}],"outputs":[],"stateMutability":"nonpayable"},{"type":"function","name":"symbol","inputs":[],"outputs":[{"name":"","type":"string","internalType":"string"}],"stateMutability":"view"},{"type":"function","name":"syncChainStake","inputs":[{"name":"chainid","type":"uint32","internalType":"uint32"},{"name":"chainvalue","type":"uint128","internalType":"uint128"}],"outputs":[{"name":"poolasset","type":"uint128","internalType":"uint128"}],"stateMutability":"nonpayable"},{"type":"function","name":"syncPoolAsset","inputs":[{"name":"amount","type":"uint128","internalType":"uint128"}],"outputs":[],"stateMutability":"nonpayable"},{"type":"function","name":"totalSupply","inputs":[],"outputs":[{"name":"","type":"uint256","internalType":"uint256"}],"stateMutability":"view"},{"type":"function","name":"transfer","inputs":[{"name":"to","type":"address","internalType":"address"},{"name":"amount","type":"uint256","internalType":"uint256"}],"outputs":[{"name":"","type":"bool","internalType":"bool"}],"stateMutability":"nonpayable"},{"type":"function","name":"transferFrom","inputs":[{"name":"from","type":"address","internalType":"address"},{"name":"to","type":"address","internalType":"address"},{"name":"amount","type":"uint256","internalType":"uint256"}],"outputs":[{"name":"","type":"bool","internalType":"bool"}],"stateMutability":"nonpayable"},{"type":"function","name":"ttstokenconfig","inputs":[],"outputs":[{"name":"","type":"uint256","internalType":"uint256"}],"stateMutability":"view"},{"type":"function","name":"unstake","inputs":[{"name":"_staker","type":"address","internalType":"address"},{"name":"proofvalue","type":"uint128","internalType":"uint128"}],"outputs":[],"stateMutability":"nonpayable"},{"type":"function","name":"usdt","inputs":[],"outputs":[{"name":"","type":"address","internalType":"address"}],"stateMutability":"view"},{"type":"function","name":"valuegoodid","inputs":[],"outputs":[{"name":"","type":"address","internalType":"address"}],"stateMutability":"view"},{"type":"function","name":"withdrawPublicSell","inputs":[{"name":"amount","type":"uint256","internalType":"uint256"},{"name":"recipient","type":"address","internalType":"address"}],"outputs":[],"stateMutability":"nonpayable"},{"type":"event","name":"Approval","inputs":[{"name":"owner","type":"address","indexed":true,"internalType":"address"},{"name":"spender","type":"address","indexed":true,"internalType":"address"},{"name":"value","type":"uint256","indexed":false,"internalType":"uint256"}],"anonymous":false},{"type":"event","name":"EIP712DomainChanged","inputs":[],"anonymous":false},{"type":"event","name":"Transfer","inputs":[{"name":"from","type":"address","indexed":true,"internalType":"address"},{"name":"to","type":"address","indexed":true,"internalType":"address"},{"name":"value","type":"uint256","indexed":false,"internalType":"uint256"}],"anonymous":false},{"type":"event","name":"e_addShare","inputs":[{"name":"recipient","type":"address","indexed":false,"internalType":"address"},{"name":"leftamount","type":"uint256","indexed":false,"internalType":"uint256"},{"name":"metric","type":"uint120","indexed":false,"internalType":"uint120"},{"name":"chips","type":"uint8","indexed":false,"internalType":"uint8"},{"name":"index","type":"uint32","indexed":false,"internalType":"uint32"}],"anonymous":false},{"type":"event","name":"e_addauths","inputs":[{"name":"auths","type":"address","indexed":false,"internalType":"address"},{"name":"priv","type":"uint256","indexed":false,"internalType":"uint256"}],"anonymous":false},{"type":"event","name":"e_addreferral","inputs":[{"name":"users","type":"address","indexed":false,"internalType":"address"},{"name":"referral","type":"address","indexed":false,"internalType":"address"}],"anonymous":false},{"type":"event","name":"e_burnShare","inputs":[{"name":"index","type":"uint32","indexed":false,"internalType":"uint32"}],"anonymous":false},{"type":"event","name":"e_publicsell","inputs":[{"name":"usdtamount","type":"uint256","indexed":false,"internalType":"uint256"},{"name":"ttsamount","type":"uint256","indexed":false,"internalType":"uint256"}],"anonymous":false},{"type":"event","name":"e_rmauths","inputs":[{"name":"auths","type":"address","indexed":false,"internalType":"address"}],"anonymous":false},{"type":"event","name":"e_setdaoadmin","inputs":[{"name":"recipient","type":"address","indexed":false,"internalType":"address"}],"anonymous":false},{"type":"event","name":"e_setenv","inputs":[{"name":"normalgoodid","type":"address","indexed":false,"internalType":"address"},{"name":"valuegoodid","type":"address","indexed":false,"internalType":"address"},{"name":"marketcontract","type":"address","indexed":false,"internalType":"address"}],"anonymous":false},{"type":"event","name":"e_shareMint","inputs":[{"name":"mintamount","type":"uint128","indexed":false,"internalType":"uint128"},{"name":"index","type":"uint32","indexed":false,"internalType":"uint32"}],"anonymous":false},{"type":"event","name":"e_syncChainStake","inputs":[{"name":"chain","type":"uint32","indexed":false,"internalType":"uint32"},{"name":"poolasset","type":"uint128","indexed":false,"internalType":"uint128"},{"name":"proofstate","type":"uint256","indexed":false,"internalType":"uint256"}],"anonymous":false},{"type":"event","name":"e_unstake","inputs":[{"name":"recipient","type":"address","indexed":false,"internalType":"address"},{"name":"proofvalue","type":"uint256","indexed":false,"internalType":"uint256"},{"name":"unstakestate","type":"uint256","indexed":false,"internalType":"uint256"},{"name":"stakestate","type":"uint256","indexed":false,"internalType":"uint256"},{"name":"poolstate","type":"uint256","indexed":false,"internalType":"uint256"}],"anonymous":false},{"type":"event","name":"e_updatepool","inputs":[{"name":"poolstate","type":"uint256","indexed":false,"internalType":"uint256"}],"anonymous":false},{"type":"error","name":"ERC20TransferFailed","inputs":[]},{"type":"error","name":"InvalidShortString","inputs":[]},{"type":"error","name":"NativeTransferFailed","inputs":[]},{"type":"error","name":"StringTooLong","inputs":[{"name":"str","type":"string","internalType":"string"}]}],"bytecode":{"object":"0x61018080604052346104cd57606081613999803803809161002082856104d1565b8339810103126104cd57610033816104f4565b906040610042602083016104f4565b910151916040516100546040826104d1565b600c8152602081016b2a2a29bbb0b8102a37b5b2b760a11b81526040519061007d6040836104d1565b600c82526b2a2a29bbb0b8102a37b5b2b760a11b6020830152604051926100a56040856104d1565b600384526254545360e81b6020850152604051936100c46040866104d1565b60018552603160f81b60208601908152845190946001600160401b0382116103d05760035490600182811c921680156104c3575b60208310146103b25781601f849311610455575b50602090601f83116001146103ef575f926103e4575b50508160011b915f199060031b1c1916176003555b8051906001600160401b0382116103d05760045490600182811c921680156103c6575b60208310146103b25781601f849311610344575b50602090601f83116001146102de575f926102d3575b50508160011b915f199060031b1c1916176004555b6101a281610508565b610120526101af8461068f565b61014052519020918260e05251902080610100524660a0526040519060208201927f8b73c3c69bb8fe3d512ecc4cf759cc79239f7b179b0ffacaa9a75d522b39400f8452604083015260608201524660808201523060a082015260a0815261021860c0826104d1565b51902060809081523060c052601380546001600160801b03199081166601c6bf52634000179091556101609290925242901b16600b55601180546001600160a01b0319166001600160a01b03929092169190911790556009556040516131d190816107c8823960805181612dbe015260a05181612e7b015260c05181612d88015260e05181612e0d01526101005181612e33015261012051816116fe0152610140518161172701526101605181818161098301526121f00152f35b015190505f80610184565b60045f9081528281209350601f198516905b81811061032c5750908460019594939210610314575b505050811b01600455610199565b01515f1960f88460031b161c191690555f8080610306565b929360206001819287860151815501950193016102f0565b60045f529091507f8a35acfbc15ff81a39ae7d344fd709f28e8600b4aa8c65c6b64bfe7fe36bd19b601f840160051c810191602085106103a8575b90601f859493920160051c01905b81811061039a575061016e565b5f815584935060010161038d565b909150819061037f565b634e487b7160e01b5f52602260045260245ffd5b91607f169161015a565b634e487b7160e01b5f52604160045260245ffd5b015190505f80610122565b60035f9081528281209350601f198516905b81811061043d5750908460019594939210610425575b505050811b01600355610137565b01515f1960f88460031b161c191690555f8080610417565b92936020600181928786015181550195019301610401565b60035f529091507fc2575a0e9e593c00f959f8c92f12db2869c3395a3b0502d05e2516446f71f85b601f840160051c810191602085106104b9575b90601f859493920160051c01905b8181106104ab575061010c565b5f815584935060010161049e565b9091508190610490565b91607f16916100f8565b5f80fd5b601f909101601f19168101906001600160401b038211908210176103d057604052565b51906001600160a01b03821682036104cd57565b908151602081105f14610582575090601f815111610542576020815191015160208210610533571790565b5f198260200360031b1b161790565b604460209160405192839163305a27a960e01b83528160048401528051918291826024860152018484015e5f828201840152601f01601f19168101030190fd5b6001600160401b0381116103d057600554600181811c91168015610685575b60208210146103b257601f8111610652575b50602092601f82116001146105f157928192935f926105e6575b50508160011b915f199060031b1c19161760055560ff90565b015190505f806105cd565b601f1982169360055f52805f20915f5b86811061063a5750836001959610610622575b505050811b0160055560ff90565b01515f1960f88460031b161c191690555f8080610614565b91926020600181928685015181550194019201610601565b60055f52601f60205f20910160051c810190601f830160051c015b81811061067a57506105b3565b5f815560010161066d565b90607f16906105a1565b908151602081105f146106ba575090601f815111610542576020815191015160208210610533571790565b6001600160401b0381116103d057600654600181811c911680156107bd575b60208210146103b257601f811161078a575b50602092601f821160011461072957928192935f9261071e575b50508160011b915f199060031b1c19161760065560ff90565b015190505f80610705565b601f1982169360065f52805f20915f5b868110610772575083600195961061075a575b505050811b0160065560ff90565b01515f1960f88460031b161c191690555f808061074c565b91926020600181928685015181550194019201610739565b60065f52601f60205f20910160051c810190601f830160051c015b8181106107b257506106eb565b5f81556001016107a5565b90607f16906106d956fe60806040526004361015610011575f80fd5b5f3560e01c806301bddf1b1461035457806302517e8b1461034f57806306afa12a1461034a57806306fdde0314610345578063095ea7b3146103405780630a4273e61461033b57806318160ddd1461033657806319f8d5b41461033157806323b872dd1461032c5780632bf960da146103275780632f48ab7d1461032257806330fd6b291461031d578063313ce567146103185780633644e51514610313578063395093511461030e5780633a3099bb146103095780633b107e21146103045780633cba316b146102ff57806345fda707146102fa578063542128dd146102f5578063623059a5146102f057806364e72dbd146102eb578063696bb4ad146102e657806369a5ac32146102e15780636c0deba1146102dc5780636f55aece146102d757806370a08231146102d25780637bd3ca35146102cd5780637ecebe00146102c85780638378e563146102c3578063845fcee4146102be57806384b0196e146102b95780638b203dd4146102b45780639241bda6146102af57806395d89b41146102aa5780639ca423b3146102a55780639dc29fac146102a0578063a457c2d71461029b578063a538e6a914610296578063a9059cbb14610291578063b88e6d631461028c578063c3bb7fff14610287578063cae9764014610282578063cd993b111461027d578063d505accf14610278578063dd62ed3e14610273578063de5712d41461026e578063df87654814610269578063e7b43e7d14610264578063eca93cce1461025f578063f35da4621461025a5763fa82add514610255575f80fd5b61236a565b612342565b61228c565b6121ac565b611ee0565b611ec0565b611e7c565b611d10565b611ccc565b611caf565b611b80565b611b32565b611aee565b611ac6565b611a18565b6119ef565b6119ac565b611907565b611843565b6117e3565b6116e6565b6116c9565b6116a3565b611668565b611422565b6113e8565b611381565b61132c565b6112bb565b611295565b61125a565b61123d565b6111b5565b61118d565b611113565b610f4d565b610edb565b610e25565b610e03565b610de8565b6109b2565b61096e565b610946565b610875565b6106fb565b6106b9565b610673565b610619565b610532565b6104b1565b610489565b610381565b6004359063ffffffff8216820361036c57565b5f80fd5b6001600160801b0381160361036c57565b3461036c57604036600319011261036c5761039a610359565b6024356103a681610370565b6103b16009546127a8565b1561036c5761040561041a91335f526015602052600660405f2054148061041d575b6103dc9061242d565b6103ff6103f78563ffffffff165f52600e60205260405f2090565b549160801b90565b906127bb565b9163ffffffff165f52600e60205260405f2090565b55005b503360018060a01b0361045160026104438863ffffffff165f52600e60205260405f2090565b01546001600160a01b031690565b1614806103d357506103dc60018060a01b0361048060026104438863ffffffff165f52600e60205260405f2090565b161590506103d3565b3461036c575f36600319011261036c57600f546040516001600160a01b039091168152602090f35b3461036c57602036600319011261036c576004355f908152600d6020908152604091829020805460019091015483516001600160a01b03909216825291810191909152f35b0390f35b805180835260209291819084018484015e5f828201840152601f01601f1916010190565b90602061052f9281815201906104fa565b90565b3461036c575f36600319011261036c576040515f60035461055281612434565b80845290600181169081156105e45750600114610586575b6104f68361057a81850382610e98565b6040519182918261051e565b60035f9081527fc2575a0e9e593c00f959f8c92f12db2869c3395a3b0502d05e2516446f71f85b939250905b8082106105ca5750909150810160200161057a61056a565b9192600181602092548385880101520191019092916105b2565b60ff191660208086019190915291151560051b8401909101915061057a905061056a565b6001600160a01b0381160361036c57565b3461036c57604036600319011261036c5761064360043561063981610608565b60243590336127f4565b602060405160018152f35b604090600319011261036c5760043561066681610370565b9060243561052f81610608565b3461036c576106813661064e565b61068c6009546127a8565b61036c57335f526015602052600660405f20540361036c576106b7916001600160801b031690612926565b005b3461036c575f36600319011261036c576020600254604051908152f35b604090600319011261036c576004356106ee81610608565b9060243561052f81610370565b3461036c576104f661070c366106d6565b335f90815260156020526040902090919061072c906001905b541461242d565b610734612a43565b6040516107598161074b6020820194339086611b18565b03601f198101835282610e98565b519020600c549160019061082f90610820906001600160801b0386168061084b57506107a061079b5f975b608089901b6001600160801b038a16175b90612b05565b600c55565b600b546107bf906107ba906001600160801b038416610795565b600b55565b6107f4336107d5875f52600d60205260405f2090565b80546001600160a01b0319166001600160a01b03909216919091179055565b610795868561080b885f52600d60205260405f2090565b01549260801b6001600160801b039091161790565b925f52600d60205260405f2090565b01556040516001600160801b0390911681529081906020820190565b61079b61086f6107a092878060801b03600b541690888060801b0386160204612fb2565b97610784565b3461036c57606036600319011261036c5760043561089281610608565b60243561089e81610608565b6001600160a01b0382165f9081526001602081815260408084203385529091529091205492604435929184016108e5575b6108d99350612be1565b60405160018152602090f35b828410610901576108fc836108d9950333836127f4565b6108cf565b60405162461bcd60e51b815260206004820152601d60248201527f45524332303a20696e73756666696369656e7420616c6c6f77616e63650000006044820152606490fd5b3461036c575f36600319011261036c576012546040516001600160a01b039091168152602090f35b3461036c575f36600319011261036c576040517f00000000000000000000000000000000000000000000000000000000000000006001600160a01b03168152602090f35b3461036c57604036600319011261036c576109cb610359565b602435906109d882610370565b6109e36009546127a8565b1561036c57335f908152601560205260408120546104f693919290819060061480610d8a575b610a129061242d565b63ffffffff8116610bcb575050817f2dbd6c60950a71a3b42582ce495af627a70477170cea6ce5bbd4017f3e93089291610a85610a60610a5b60125463ffffffff9060c01c1690565b61251a565b6012805463ffffffff60c01b191660c09290921b63ffffffff60c01b16919091179055565b601254610b0a9060c01c63ffffffff1691600c5490610ade61079b610ac8610aad8560801c90565b600b546001600160801b039081169181169086160204612fb2565b93608085901b6001600160801b03861617610795565b600b54610af8906107ba906001600160801b038416610795565b60801b6001600160801b039091161790565b6001610b248363ffffffff165f52600e60205260405f2090565b0155610b64336002610b448463ffffffff165f52600e60205260405f2090565b0180546001600160a01b0319166001600160a01b03909216919091179055565b610bae6001610b818363ffffffff165f52600e60205260405f2090565b01546040519384938460409194939263ffffffff606083019616825260018060801b031660208201520152565b0390a16040516001600160801b0390911681529081906020820190565b610cfb935090610d85610d7560026104437f2dbd6c60950a71a3b42582ce495af627a70477170cea6ce5bbd4017f3e9308929695610ce1600c54610c8961079b610c57610c188460801c90565b610c3d6001610c358963ffffffff165f52600e60205260405f2090565b015460801c90565b600b546001600160801b0390811692811691160204612fb2565b926103ff6001610c758863ffffffff165f52600e60205260405f2090565b01546001600160801b0316608086901b1790565b610cbe6107ba600b546103ff610cb26001610c358963ffffffff165f52600e60205260405f2090565b6001600160801b031690565b610cdb6001610c358563ffffffff165f52600e60205260405f2090565b90612501565b988997600c5490610ade61079b610ac8610aad8560801c90565b6001610d158363ffffffff165f52600e60205260405f2090565b0155610d48610d328263ffffffff165f52600e60205260405f2090565b54608089901b6001600160801b038a1617610795565b610d608263ffffffff165f52600e60205260405f2090565b5563ffffffff165f52600e60205260405f2090565b6001600160801b03841690612ce2565b610b64565b503360018060a01b03610db060026104438563ffffffff165f52600e60205260405f2090565b161480610a095750610a1260018060a01b03610ddf60026104438563ffffffff165f52600e60205260405f2090565b16159050610a09565b3461036c575f36600319011261036c57602060405160068152f35b3461036c575f36600319011261036c576020610e1d612d85565b604051908152f35b3461036c57604036600319011261036c57600435610e4281610608565b602435335f526001602052610e6a8260405f209060018060a01b03165f5260205260405f2090565b54908101809111610e7f5761064391336127f4565b6124ed565b634e487b7160e01b5f52604160045260245ffd5b90601f8019910116810190811067ffffffffffffffff821117610eba57604052565b610e84565b67ffffffffffffffff8111610eba57601f01601f191660200190565b3461036c57604036600319011261036c5760243560043567ffffffffffffffff821161036c573660238301121561036c578160040135610f1a81610ebf565b92610f286040519485610e98565b818452366024838301011161036c57815f926024602093018387013784010152612540565b3461036c57608036600319011261036c57610f696009546127a8565b1561036c57601354610ff990610fd7906001600160801b0316610f93610f8d6125df565b82612501565b50601154610fbc90610fb5906001600160a01b03165b6001600160a01b031690565b331461242d565b610cdb610fca610fca6125df565b67ffffffffffffffff1690565b601380546001600160801b0319166001600160801b0392909216919091179055565b611037611012610a5b60125463ffffffff9060a01c1690565b6012805463ffffffff60a01b191660a09290921b63ffffffff60a01b16919091179055565b61106961106461105060125463ffffffff9060a01c1690565b63ffffffff165f52600a60205260405f2090565b612619565b7f259b626a3ac57abbad46c244a9bc2a13c0b530c618e9654be9351bd104cffcae6110926125eb565b61109a6125df565b9061110e6110a66125f7565b6110ae61260d565b60125460a01c63ffffffff16604080516001600160a01b0390961686526001600160801b0390961660208601526001600160781b039092169484019490945260ff909316606083015263ffffffff909216608082015290819060a0820190565b0390a1005b3461036c57602036600319011261036c5760043561113081610608565b601154906001600160a01b038216330361036c576001600160a01b03166001600160a01b03199190911681176011556040519081527f853baecd5c22fcf8a4d994474a066771c51cfe6022b046e92a09874610cd128190602090a1005b3461036c575f36600319011261036c576013546040516001600160801b039091168152602090f35b3461036c57604036600319011261036c576004356111d281610608565b601154602435906001600160a01b0316330361036c576001600160a01b039091165f8181526015602090815260409182902084905581519283528201929092527f967d50df84a5ebb45902fa277d5c3b0bc6403497c9fd6da2ecbd9ed420038f14918190810161110e565b3461036c575f36600319011261036c576020600954604051908152f35b3461036c57602036600319011261036c5760043561127781610608565b60018060a01b03165f526015602052602060405f2054604051908152f35b3461036c575f36600319011261036c57602063ffffffff60125460a01c16604051908152f35b3461036c57602036600319011261036c576004356112d881610608565b6011546001600160a01b0316330361036c5760207f3680a8b72561b4141a1464124f40242ac80a59d51d29649d9b0b442c255b62899160018060a01b0316805f52601582525f6040812055604051908152a1005b3461036c57602036600319011261036c5760043561134981610370565b6113546009546127a8565b61036c57335f526015602052600560405f20540361036c57600c5461137c9160801b90612b05565b600c55005b3461036c57602036600319011261036c5763ffffffff61139f610359565b165f52600a602052608060405f206001808060a01b03825416910154604051918252600180841b038116602083015260018060781b0381841c16604083015260f81c6060820152f35b3461036c57602036600319011261036c5760043561140581610608565b60018060a01b03165f525f602052602060405f2054604051908152f35b3461036c577f62025eae57aa13c48667a44135999b1c087e0e00de741759cefa772a4eb02567611451366106d6565b908161147260016107253360018060a01b03165f52601560205260405f2090565b61147a612a43565b60405160208101906114918161074b338786611b18565b519020926114af610cb26001610c35875f52600d60205260405f2090565b6001600160801b0383161061160257505061110e6115b56114dd6001610c35865f52600d60205260405f2090565b9360016115a0611582826114f9855f52600d60205260405f2090565b0154809861151d611512875f52600d60205260405f2090565b60015f918281550155565b61155d6107ba61152f600c5460801c90565b600b54906103ff9061155090869060801b6001600160801b03851617612ec0565b946001600160801b031690565b600c5461157d9061079b90608084901b6001600160801b038616176103ff565b612501565b92828060801b038416806115f2575b505f52600d60205260405f2090565b01549460801b6001600160801b039091161790565b600b54600c54604080516001600160a01b0390961686526020860196909652948401919091526060830152608082019290925290819060a0820190565b6115fc9088612ce2565b5f611591565b8360016115a0611582856115b59561163461110e988661162d61164e9d5f52600d60205260405f2090565b0154612ea1565b998a926103ff848861080b8b5f52600d60205260405f2090565b85611661885f52600d60205260405f2090565b015561151d565b3461036c57602036600319011261036c5760043561168581610608565b60018060a01b03165f526007602052602060405f2054604051908152f35b3461036c575f36600319011261036c57602063ffffffff60125460c01c16604051908152f35b3461036c575f36600319011261036c576020600c54604051908152f35b3461036c575f36600319011261036c5761178a6117227f0000000000000000000000000000000000000000000000000000000000000000612ede565b61174b7f0000000000000000000000000000000000000000000000000000000000000000612f3e565b602060405161175a8282610e98565b5f81528161179881830194601f198301368737604051978897600f60f81b895260e0858a015260e08901906104fa565b9087820360408901526104fa565b914660608701523060808701525f60a087015285830360c087015251918281520192915f5b8281106117cc57505050500390f35b8351855286955093810193928101926001016117bd565b3461036c57602036600319011261036c5763ffffffff611801610359565b165f52600e602052606060405f20805490600181015490600260018060a01b03910154169060405192835260208301526040820152f35b60ff81160361036c57565b3461036c57602036600319011261036c5760043561186081611838565b61186b6009546127a8565b1561036c576011546001600160a01b0316330361036c576115128160ff6106b793165f52600a6020526118c7610fd76118b6610fca610fca600160405f20015460018060801b031690565b6013546001600160801b03166125ad565b60405160ff821681527f568d364b674966bdb889933148a94e885581320f54b5d65d04bda235eea7fe4890602090a160ff165f52600a60205260405f2090565b3461036c575f36600319011261036c576040515f60045461192781612434565b80845290600181169081156105e4575060011461194e576104f68361057a81850382610e98565b60045f9081527f8a35acfbc15ff81a39ae7d344fd709f28e8600b4aa8c65c6b64bfe7fe36bd19b939250905b8082106119925750909150810160200161057a61056a565b91926001816020925483858801015201910190929161197a565b3461036c57602036600319011261036c576004356119c981610608565b60018060a01b03165f526014602052602060018060a01b0360405f205416604051908152f35b3461036c57604036600319011261036c576106b7600435611a0f81610608565b60243590612926565b3461036c57604036600319011261036c57600435611a3581610608565b60243590335f526001602052611a5e8160405f209060018060a01b03165f5260205260405f2090565b5491808310611a73576108d9920390336127f4565b60405162461bcd60e51b815260206004820152602560248201527f45524332303a2064656372656173656420616c6c6f77616e63652062656c6f77604482015264207a65726f60d81b6064820152608490fd5b3461036c575f36600319011261036c576011546040516001600160a01b039091168152602090f35b3461036c57604036600319011261036c57610643600435611b0e81610608565b6024359033612be1565b6001600160a01b0391821681529116602082015260400190565b3461036c57602036600319011261036c57600435611b4f81610608565b6011546001600160a01b039182165f90815260146020526040908190205490519283926104f6928216911683611b18565b3461036c57604036600319011261036c57611b99610359565b60243590611ba682610370565b611bb16009546127a8565b1561036c57335f908152601560205260409020546106b792611bfa9160061480611c51575b611bdf9061242d565b6107956103f78463ffffffff165f52600e60205260405f2090565b611c128263ffffffff165f52600e60205260405f2090565b55335f908152602081905260409020611c4a90610cb290611c4390549363ffffffff165f52600e60205260405f2090565b5460801c90565b111561242d565b503360018060a01b03611c7760026104438763ffffffff165f52600e60205260405f2090565b161480611bd65750611bdf60018060a01b03611ca660026104438763ffffffff165f52600e60205260405f2090565b16159050611bd6565b3461036c575f36600319011261036c576020600b54604051908152f35b3461036c57611cda3661064e565b611ce56009546127a8565b61036c57335f526015602052600660405f20540361036c576106b7916001600160801b031690612ce2565b3461036c5760e036600319011261036c57600435611d2d81610608565b602435611d3981610608565b6044359060643592608435611d4d81611838565b60a4359460c435814211611e1f576106b796611e1a93611e028689611dfa8a61074b611e0799611d968660018060a01b03165f52600760205260405f2090815491600183019055565b604051958694602086019889919260a093969594919660c08401977f6e71edae12b1b97f4d1f60370fef10105fa2faae0126114a169c64845d6126c98552600180871b03166020850152600180861b03166040840152606083015260808201520152565b519020612f75565b612f9b565b6001600160a01b038381169116146126d6565b6127f4565b60405162461bcd60e51b815260206004820152601d60248201527f45524332305065726d69743a206578706972656420646561646c696e650000006044820152606490fd5b604090600319011261036c5760043561066681610608565b3461036c576020611eb7611e8f36611e64565b6001600160a01b039182165f9081526001855260408082209290931681526020919091522090565b54604051908152f35b3461036c575f36600319011261036c57602060135460801c604051908152f35b3461036c57602036600319011261036c57600435611efd81611838565b611f086009546127a8565b1561036c57601254611fc59190602090611f2c90610fa9906001600160a01b031681565b600f546001600160a01b03166010549091906001600160a01b0316611f8a611f85611f80611f7b6001611f6a8a60ff165f52600a60205260405f2090565b015460801c6001600160781b031690565b612722565b6125c6565b612532565b604051630a09391d60e11b81526001600160a01b03948516600482015293909116602484015260448301529093849190829081906064820190565b03915afa80156121a7577f83592ad363894b5c4d81b2113457c5a1683230ce1c133eefa927d17f65cd5ca0925f91612178575b501580612143575b6120099061242d565b61206561203460016120268460ff165f52600a60205260405f2090565b01546001600160801b031690565b61205f61205960016120518660ff165f52600a60205260405f2090565b015460f81c90565b60ff1690565b9061275d565b6120b3600161207f8460ff165f52600a60205260405f2090565b0180546120969084906001600160801b0316612501565b81546001600160801b0319166001600160801b0391909116179055565b61210b60016120cd8460ff165f52600a60205260405f2090565b0180546120e59060801c6001600160781b0316612790565b8154600160801b600160f81b03191660809190911b600160801b600160f81b0316179055565b61211e6001600160801b03821633612ce2565b604080516001600160801b03909216825260ff9092166020820152908190810161110e565b5061200961216f610fa96121628460ff165f52600a60205260405f2090565b546001600160a01b031690565b33149050612000565b61219a915060203d6020116121a0575b6121928183610e98565b81019061273a565b5f611ff8565b503d612188565b612752565b3461036c57604036600319011261036c576024356004356121cc82610608565b6121d76009546127a8565b1561036c576011546001600160a01b0316330361036c577f000000000000000000000000000000000000000000000000000000000000000060016001600160a01b0382160361224557505f80808093612230955af11590565b61223657005b633d2cec6f60e21b5f5260045ffd5b60445f8080936020956040519763a9059cbb60e01b84526004526024525af13d15601f3d1160015f5114161716906040521561227d57005b633c9fd93960e21b5f5260045ffd5b3461036c5761229a36611e64565b335f526015602052600160405f20541480612321575b8061230b575b6122bc57005b816122fc826107d57f0b5e322b4b5330962013e8d6519462c133d50320ee476828060995c1acadef629560018060a01b03165f52601460205260405f2090565b61110e60405192839283611b18565b506001600160a01b0382811690821614156122b6565b506001600160a01b038281165f9081526014602052604090205416156122b0565b3461036c575f36600319011261036c576010546040516001600160a01b039091168152602090f35b3461036c57606036600319011261036c5760043561238781610608565b60243561239381610608565b604435906123a082610608565b6011546001600160a01b0316330361036c57600f80546001600160a01b039485166001600160a01b0319918216811790925560108054938616938216841790556012805494909516931683179093556040805193845260208401919091528201527fad9bacb6411ac6d3f45f8cabf2c4629890ab593e58ad9c108ffef19037ce279690806060810161110e565b1561036c57565b90600182811c92168015612462575b602083101461244e57565b634e487b7160e01b5f52602260045260245ffd5b91607f1691612443565b5f929181549161247b83612434565b80835292600181169081156124d0575060011461249757505050565b5f9081526020812093945091925b8383106124b6575060209250010190565b6001816020929493945483858701015201910191906124a5565b915050602093945060ff929192191683830152151560051b010190565b634e487b7160e01b5f52601160045260245ffd5b6001600160801b039182169082160391908211610e7f57565b63ffffffff60019116019063ffffffff8211610e7f57565b90600a8201809211610e7f57565b905061254d6009546127a8565b1561036c5760135461256b916001600160801b03169060801c6125ad565b601380546001600160801b031660809290921b6001600160801b031916919091179055610e7f565b6001600160801b03908116620151800191908211610e7f57565b6001600160801b039182169082160191908211610e7f57565b908160801b91808304600160801b1490151715610e7f57565b60243561052f81610370565b60043561052f81610608565b6044356001600160781b038116810361036c5790565b60643561052f81611838565b60019061264760043561262b81610608565b82546001600160a01b0319166001600160a01b03909116178255565b0161267360243561265781610370565b82546001600160801b0319166001600160801b03909116178255565b6044356001600160781b038116810361036c578154600160801b600160f81b03191660809190911b600160801b600160f81b03161781556064356126b681611838565b81546001600160f81b031660f89190911b6001600160f81b031916179055565b156126dd57565b60405162461bcd60e51b815260206004820152601e60248201527f45524332305065726d69743a20696e76616c6964207369676e617475726500006044820152606490fd5b6001600160781b031660ff8111610e7f576001901b90565b9081602091031261036c5751801515810361036c5790565b6040513d5f823e3d90fd5b6001600160801b0390911690811561277c576001600160801b03160490565b634e487b7160e01b5f52601260045260245ffd5b6001600160781b0390811660010191908211610e7f57565b60ff1c6001036127b757600190565b5f90565b6127e4906127d08360801d8260801d03612fb2565b926001600160801b03908116911603612fb2565b60018060801b03169060801b1790565b6001600160a01b038116919082156128d5576001600160a01b038216938415612885578061286f7f8c5be1e5ebec7d5bd14f71427d1e84f3dd0314c0f7b2291e5b200ac8c7c3b9259461285a6128809560018060a01b03165f52600160205260405f2090565b9060018060a01b03165f5260205260405f2090565b556040519081529081906020820190565b0390a3565b60405162461bcd60e51b815260206004820152602260248201527f45524332303a20617070726f766520746f20746865207a65726f206164647265604482015261737360f01b6064820152608490fd5b60405162461bcd60e51b8152602060048201526024808201527f45524332303a20617070726f76652066726f6d20746865207a65726f206164646044820152637265737360e01b6064820152608490fd5b6001600160a01b0381169081156129f4576001600160a01b0381165f908152602081905260409020548381106129a457835f8051602061317c833981519152926129865f9661288094039160018060a01b03165f525f60205260405f2090565b556129948160025403600255565b6040519081529081906020820190565b60405162461bcd60e51b815260206004820152602260248201527f45524332303a206275726e20616d6f756e7420657863656564732062616c616e604482015261636560f01b6064820152608490fd5b60405162461bcd60e51b815260206004820152602160248201527f45524332303a206275726e2066726f6d20746865207a65726f206164647265736044820152607360f81b6064820152608490fd5b600b54612a528160801c612593565b426001600160801b0390911610612a665750565b612a7a906107ba906102a360871b90612b05565b6002546311e1a300811115612af45761079b612a9b612ab19261477c900490565b600c549060801b6001600160801b031916610795565b7f640eaa6ba71a4f457fdf8b26b0a8a0a6096d6d2bf731d07d47717534847ce55d612aef612994612ae4600b5460801c90565b600c5460801c6127e4565b0390a1565b50612ab161079b63a34ce6cb612a9b565b6127e490612b1a8360801d8260801d01612fb2565b926001600160801b03918216911601612fb2565b15612b3557565b60405162461bcd60e51b815260206004820152602360248201527f45524332303a207472616e7366657220746f20746865207a65726f206164647260448201526265737360e81b6064820152608490fd5b15612b8d57565b60405162461bcd60e51b815260206004820152602660248201527f45524332303a207472616e7366657220616d6f756e7420657863656564732062604482015265616c616e636560d01b6064820152608490fd5b916001600160a01b038316918215612c8f575f8051602061317c83398151915291612c796128809260018060a01b03811696612c1e881515612b2e565b612c5f84612c3b8360018060a01b03165f525f60205260405f2090565b54612c4882821015612b86565b039160018060a01b03165f525f60205260405f2090565b556001600160a01b03165f90815260208190526040902090565b8054820190556040519081529081906020820190565b60405162461bcd60e51b815260206004820152602560248201527f45524332303a207472616e736665722066726f6d20746865207a65726f206164604482015264647265737360d81b6064820152608490fd5b6001600160a01b03811691908215612d405760025491808301809311610e7f57612d2e5f8051602061317c833981519152925f9460025560018060a01b03165f525f60205260405f2090565b805482019055604051908152602090a3565b60405162461bcd60e51b815260206004820152601f60248201527f45524332303a206d696e7420746f20746865207a65726f2061646472657373006044820152606490fd5b307f00000000000000000000000000000000000000000000000000000000000000006001600160a01b03161480612e78575b15612de0577f000000000000000000000000000000000000000000000000000000000000000090565b60405160208101907f8b73c3c69bb8fe3d512ecc4cf759cc79239f7b179b0ffacaa9a75d522b39400f82527f000000000000000000000000000000000000000000000000000000000000000060408201527f000000000000000000000000000000000000000000000000000000000000000060608201524660808201523060a082015260a08152612e7260c082610e98565b51902090565b507f00000000000000000000000000000000000000000000000000000000000000004614612db7565b61052f91608082901c6001600160801b03918216919092160204612fb2565b61052f916001600160801b0380831660809390931c91160204612fb2565b60ff8114612f245760ff811690601f8211612f155760405191612f02604084610e98565b6020808452838101919036833783525290565b632cd44ac360e21b5f5260045ffd5b5060405161052f81612f3781600561246c565b0382610e98565b60ff8114612f625760ff811690601f8211612f155760405191612f02604084610e98565b5060405161052f81612f3781600661246c565b604290612f80612d85565b906040519161190160f01b8352600283015260228201522090565b9161052f9391612faa93612fd1565b919091613060565b6001600160801b038111612fcc576001600160801b031690565b505f90565b6fa2a8918ca85bafe22016d0b997e4df60600160ff1b038411613037576020935f9360ff60809460405194855216868401526040830152606082015282805260015afa156121a7575f516001600160a01b0381161561302f57905f90565b505f90600190565b505050505f90600390565b6005111561304c57565b634e487b7160e01b5f52602160045260245ffd5b61306981613042565b806130715750565b61307a81613042565b600181036130c25760405162461bcd60e51b815260206004820152601860248201527745434453413a20696e76616c6964207369676e617475726560401b6044820152606490fd5b6130cb81613042565b600281036131185760405162461bcd60e51b815260206004820152601f60248201527f45434453413a20696e76616c6964207369676e6174757265206c656e677468006044820152606490fd5b80613124600392613042565b1461312b57565b60405162461bcd60e51b815260206004820152602260248201527f45434453413a20696e76616c6964207369676e6174757265202773272076616c604482015261756560f01b6064820152608490fdfeddf252ad1be2c89b69c2b068fc378daa952ba7f163c4a11628f55a4df523b3efa2646970667358221220c11085ddcd208a8211de0c1ced90b5bddd117781a97b832c1bc59d590cf7f89264736f6c634300081a0033","linkReferences":{}},"methodIdentifiers":{"DOMAIN_SEPARATOR()":"3644e515","addShare((address,uint128,uint120,uint8))":"3b107e21","addauths(address,uint256)":"542128dd","addreferral(address,address)":"eca93cce","allowance(address,address)":"dd62ed3e","approve(address,uint256)":"095ea7b3","auths(address)":"64e72dbd","balanceOf(address)":"70a08231","burn(address,uint256)":"9dc29fac","burnShare(uint8)":"9241bda6","chain_deposit(uint32,uint128)":"01bddf1b","chain_withdraw(uint32,uint128)":"c3bb7fff","chainindex()":"8378e563","chains(uint32)":"8b203dd4","changeDAOAdmin(address)":"3cba316b","dao_admin()":"a538e6a9","decimals()":"313ce567","decreaseAllowance(address,uint256)":"a457c2d7","eip712Domain()":"84b0196e","getreferralanddaoadmin(address)":"b88e6d63","increaseAllowance(address,uint256)":"39509351","left_share()":"45fda707","marketcontract()":"2bf960da","name()":"06fdde03","nonces(address)":"7ecebe00","normalgoodid()":"02517e8b","permit(address,address,uint256,uint256,uint8,bytes32,bytes32)":"d505accf","poolstate()":"845fcee4","public_Sell(uint256,bytes)":"3a3099bb","publicsell()":"de5712d4","referrals(address)":"9ca423b3","rmauths(address)":"69a5ac32","setEnv(address,address,address)":"fa82add5","shareMint(uint8)":"df876548","shares(uint32)":"6f55aece","shares_index()":"696bb4ad","stake(address,uint128)":"19f8d5b4","stakeproof(uint256)":"06afa12a","stakestate()":"cae97640","subchainDeposit(uint128,address)":"cd993b11","subchainWithdraw(uint128,address)":"0a4273e6","symbol()":"95d89b41","syncChainStake(uint32,uint128)":"30fd6b29","syncPoolAsset(uint128)":"6c0deba1","totalSupply()":"18160ddd","transfer(address,uint256)":"a9059cbb","transferFrom(address,address,uint256)":"23b872dd","ttstokenconfig()":"623059a5","unstake(address,uint128)":"7bd3ca35","usdt()":"2f48ab7d","valuegoodid()":"f35da462","withdrawPublicSell(uint256,address)":"e7b43e7d"},"id":75}